{
  "_format": "hh-sol-artifact-1",
  "contractName": "TEA",
  "sourceName": "src/TEA.sol",
  "abi": [
    {
      "inputs": [
        {
          "internalType": "address",
          "name": "debtToken",
          "type": "address"
        },
        {
          "internalType": "address",
          "name": "collateralToken",
          "type": "address"
        },
        {
          "internalType": "int8",
          "name": "leverageTier",
          "type": "int8"
        }
      ],
      "stateMutability": "nonpayable",
      "type": "constructor"
    },
    {
      "anonymous": false,
      "inputs": [
        {
          "indexed": true,
          "internalType": "address",
          "name": "owner",
          "type": "address"
        },
        {
          "indexed": true,
          "internalType": "address",
          "name": "spender",
          "type": "address"
        },
        {
          "indexed": false,
          "internalType": "uint256",
          "name": "amount",
          "type": "uint256"
        }
      ],
      "name": "Approval",
      "type": "event"
    },
    {
      "anonymous": false,
      "inputs": [
        {
          "indexed": false,
          "internalType": "uint256",
          "name": "amount",
          "type": "uint256"
        }
      ],
      "name": "Liquidation",
      "type": "event"
    },
    {
      "anonymous": false,
      "inputs": [
        {
          "indexed": true,
          "internalType": "address",
          "name": "from",
          "type": "address"
        },
        {
          "indexed": true,
          "internalType": "address",
          "name": "to",
          "type": "address"
        },
        {
          "indexed": false,
          "internalType": "uint256",
          "name": "amount",
          "type": "uint256"
        }
      ],
      "name": "Transfer",
      "type": "event"
    },
    {
      "inputs": [],
      "name": "COLLATERAL_TOKEN",
      "outputs": [
        {
          "internalType": "address",
          "name": "",
          "type": "address"
        }
      ],
      "stateMutability": "view",
      "type": "function"
    },
    {
      "inputs": [],
      "name": "DEBT_TOKEN",
      "outputs": [
        {
          "internalType": "address",
          "name": "",
          "type": "address"
        }
      ],
      "stateMutability": "view",
      "type": "function"
    },
    {
      "inputs": [],
      "name": "DOMAIN_SEPARATOR",
      "outputs": [
        {
          "internalType": "bytes32",
          "name": "",
          "type": "bytes32"
        }
      ],
      "stateMutability": "view",
      "type": "function"
    },
    {
      "inputs": [],
      "name": "LEVERAGE_TIER",
      "outputs": [
        {
          "internalType": "int8",
          "name": "",
          "type": "int8"
        }
      ],
      "stateMutability": "view",
      "type": "function"
    },
    {
      "inputs": [],
      "name": "OWNER",
      "outputs": [
        {
          "internalType": "address",
          "name": "",
          "type": "address"
        }
      ],
      "stateMutability": "view",
      "type": "function"
    },
    {
      "inputs": [],
      "name": "PERMIT_TYPEHASH",
      "outputs": [
        {
          "internalType": "bytes32",
          "name": "",
          "type": "bytes32"
        }
      ],
      "stateMutability": "view",
      "type": "function"
    },
    {
      "inputs": [
        {
          "internalType": "address",
          "name": "",
          "type": "address"
        },
        {
          "internalType": "address",
          "name": "",
          "type": "address"
        }
      ],
      "name": "allowance",
      "outputs": [
        {
          "internalType": "uint256",
          "name": "",
          "type": "uint256"
        }
      ],
      "stateMutability": "view",
      "type": "function"
    },
    {
      "inputs": [
        {
          "internalType": "address",
          "name": "spender",
          "type": "address"
        },
        {
          "internalType": "uint256",
          "name": "amount",
          "type": "uint256"
        }
      ],
      "name": "approve",
      "outputs": [
        {
          "internalType": "bool",
          "name": "",
          "type": "bool"
        }
      ],
      "stateMutability": "nonpayable",
      "type": "function"
    },
    {
      "inputs": [
        {
          "internalType": "address",
          "name": "account",
          "type": "address"
        }
      ],
      "name": "balanceOf",
      "outputs": [
        {
          "internalType": "uint256",
          "name": "",
          "type": "uint256"
        }
      ],
      "stateMutability": "view",
      "type": "function"
    },
    {
      "inputs": [
        {
          "internalType": "address",
          "name": "from",
          "type": "address"
        },
        {
          "internalType": "uint256",
          "name": "amount",
          "type": "uint256"
        }
      ],
      "name": "burn",
      "outputs": [],
      "stateMutability": "nonpayable",
      "type": "function"
    },
    {
      "inputs": [],
      "name": "decimals",
      "outputs": [
        {
          "internalType": "uint8",
          "name": "",
          "type": "uint8"
        }
      ],
      "stateMutability": "view",
      "type": "function"
    },
    {
      "inputs": [],
      "name": "isLiquidated",
      "outputs": [
        {
          "internalType": "bool",
          "name": "",
          "type": "bool"
        }
      ],
      "stateMutability": "view",
      "type": "function"
    },
    {
      "inputs": [],
      "name": "liquidate",
      "outputs": [],
      "stateMutability": "nonpayable",
      "type": "function"
    },
    {
      "inputs": [
        {
          "internalType": "address",
          "name": "to",
          "type": "address"
        },
        {
          "internalType": "uint256",
          "name": "amount",
          "type": "uint256"
        }
      ],
      "name": "mint",
      "outputs": [],
      "stateMutability": "nonpayable",
      "type": "function"
    },
    {
      "inputs": [],
      "name": "name",
      "outputs": [
        {
          "internalType": "string",
          "name": "",
          "type": "string"
        }
      ],
      "stateMutability": "view",
      "type": "function"
    },
    {
      "inputs": [
        {
          "internalType": "address",
          "name": "",
          "type": "address"
        }
      ],
      "name": "nonces",
      "outputs": [
        {
          "internalType": "uint256",
          "name": "",
          "type": "uint256"
        }
      ],
      "stateMutability": "view",
      "type": "function"
    },
    {
      "inputs": [],
      "name": "numberOfLiquidations",
      "outputs": [
        {
          "internalType": "uint216",
          "name": "",
          "type": "uint216"
        }
      ],
      "stateMutability": "view",
      "type": "function"
    },
    {
      "inputs": [
        {
          "internalType": "address",
          "name": "owner",
          "type": "address"
        },
        {
          "internalType": "address",
          "name": "spender",
          "type": "address"
        },
        {
          "internalType": "uint256",
          "name": "value",
          "type": "uint256"
        },
        {
          "internalType": "uint256",
          "name": "deadline",
          "type": "uint256"
        },
        {
          "internalType": "uint8",
          "name": "v",
          "type": "uint8"
        },
        {
          "internalType": "bytes32",
          "name": "r",
          "type": "bytes32"
        },
        {
          "internalType": "bytes32",
          "name": "s",
          "type": "bytes32"
        }
      ],
      "name": "permit",
      "outputs": [],
      "stateMutability": "nonpayable",
      "type": "function"
    },
    {
      "inputs": [],
      "name": "symbol",
      "outputs": [
        {
          "internalType": "string",
          "name": "",
          "type": "string"
        }
      ],
      "stateMutability": "view",
      "type": "function"
    },
    {
      "inputs": [],
      "name": "totalSupply",
      "outputs": [
        {
          "internalType": "uint256",
          "name": "",
          "type": "uint256"
        }
      ],
      "stateMutability": "view",
      "type": "function"
    },
    {
      "inputs": [
        {
          "internalType": "address",
          "name": "to",
          "type": "address"
        },
        {
          "internalType": "uint256",
          "name": "amount",
          "type": "uint256"
        }
      ],
      "name": "transfer",
      "outputs": [
        {
          "internalType": "bool",
          "name": "",
          "type": "bool"
        }
      ],
      "stateMutability": "nonpayable",
      "type": "function"
    },
    {
      "inputs": [
        {
          "internalType": "address",
          "name": "from",
          "type": "address"
        },
        {
          "internalType": "address",
          "name": "to",
          "type": "address"
        },
        {
          "internalType": "uint256",
          "name": "amount",
          "type": "uint256"
        }
      ],
      "name": "transferFrom",
      "outputs": [
        {
          "internalType": "bool",
          "name": "",
          "type": "bool"
        }
      ],
      "stateMutability": "nonpayable",
      "type": "function"
    }
  ],
  "bytecode": "0x61016060405234801562000011575f80fd5b5060405162003bbc38038062003bbc833981810160405281019062000037919062000e36565b6200004a8383836200020e60201b60201c565b6040518060400160405280600381526020017f54454100000000000000000000000000000000000000000000000000000000008152508473ffffffffffffffffffffffffffffffffffffffff1663313ce5676040518163ffffffff1660e01b8152600401602060405180830381865afa158015620000ca573d5f803e3d5ffd5b505050506040513d601f19601f82011682018060405250810190620000f0919062000eca565b8585853373ffffffffffffffffffffffffffffffffffffffff1660808173ffffffffffffffffffffffffffffffffffffffff1681525050855f90816200013791906200115e565b506200014a8533620006fc60201b60201c565b600190816200015a91906200115e565b508360ff166101008160ff16815250508273ffffffffffffffffffffffffffffffffffffffff1660a08173ffffffffffffffffffffffffffffffffffffffff16815250508173ffffffffffffffffffffffffffffffffffffffff1660c08173ffffffffffffffffffffffffffffffffffffffff1681525050805f0b60e0815f0b81525050466101208181525050620001f76200075260201b60201c565b610140818152505050505050505050505062001c11565b6060806006835f0b036200025a576040518060400160405280600881526020017f3130312e353632350000000000000000000000000000000000000000000000008152509050620005e7565b6005835f0b03620002a3576040518060400160405280600781526020017f3130332e313235000000000000000000000000000000000000000000000000008152509050620005e6565b6004835f0b03620002ec576040518060400160405280600681526020017f3130362e323500000000000000000000000000000000000000000000000000008152509050620005e5565b6003835f0b0362000335576040518060400160405280600581526020017f3131322e350000000000000000000000000000000000000000000000000000008152509050620005e4565b6002835f0b036200037e576040518060400160405280600381526020017f31323500000000000000000000000000000000000000000000000000000000008152509050620005e3565b6001835f0b03620003c7576040518060400160405280600381526020017f31353000000000000000000000000000000000000000000000000000000000008152509050620005e2565b5f835f0b036200040f576040518060400160405280600381526020017f32303000000000000000000000000000000000000000000000000000000000008152509050620005e1565b5f835f0b12156200045d5762000454836200042a906200126f565b5f0b60016200043a9190620012ba565b6064620004489190620012f4565b620007fc60201b60201c565b915050620006f5565b5f620004bf620004b3855f0b60026200047791906200148e565b6001620004859190620012ba565b865f0b600a6200049691906200148e565b875f0b6002620004a791906200148e565b620008d760201b60201c565b620007fc60201b60201c565b90505f60068251620004d29190620014de565b67ffffffffffffffff811115620004ee57620004ed62000f04565b5b6040519080825280601f01601f191660200182016040528015620005215781602001600182028036833780820191505090505b5090505f5b8151811015620005b95782600682620005409190620012ba565b8151811062000554576200055362001518565b5b602001015160f81c60f81b82828151811062000575576200057462001518565b5b60200101907effffffffffffffffffffffffffffffffffffffffffffffffffffffffffffff191690815f1a9053508080620005b09062001545565b91505062000526565b5080604051602001620005cd91906200165d565b604051602081830303815290604052925050505b5b5b5b5b5b5b8473ffffffffffffffffffffffffffffffffffffffff166395d89b416040518163ffffffff1660e01b81526004015f60405180830381865afa15801562000630573d5f803e3d5ffd5b505050506040513d5f823e3d601f19601f820116820180604052508101906200065a91906200179f565b8473ffffffffffffffffffffffffffffffffffffffff166395d89b416040518163ffffffff1660e01b81526004015f60405180830381865afa158015620006a3573d5f803e3d5ffd5b505050506040513d5f823e3d601f19601f82011682018060405250810190620006cd91906200179f565b82604051602001620006e2939291906200195c565b6040516020818303038152906040529150505b9392505050565b606082620007288373ffffffffffffffffffffffffffffffffffffffff166005620009cc60201b60201c565b6040516020016200073b929190620019c6565b604051602081830303815290604052905092915050565b5f7f8b73c3c69bb8fe3d512ecc4cf759cc79239f7b179b0ffacaa9a75d522b39400f5f60405162000784919062001a8b565b60405180910390206040518060400160405280600181526020017f3100000000000000000000000000000000000000000000000000000000000000815250805190602001204630604051602001620007e195949392919062001adf565b60405160208183030381529060405280519060200120905090565b60605f6001620008128462000c2060201b60201c565b0190505f8167ffffffffffffffff81111562000833576200083262000f04565b5b6040519080825280601f01601f191660200182016040528015620008665781602001600182028036833780820191505090505b5090505f82602001820190505b600115620008cc578080600190039150507f3031323334353637383961626364656600000000000000000000000000000000600a86061a8153600a8581620008c057620008bf62001b3a565b5b0494505f850362000873575b819350505050919050565b5f805f80198587098587029250828110838203039150505f81036200090f575f841162000902575f80fd5b83820492505050620009c5565b8084116200091b575f80fd5b5f8486880990508281118203915080830392505f856001877fffffffffffffffffffffffffffffffffffffffffffffffffffffffffffffffff030116905080860495508084049350600181825f0304019050808302841793505f600287600302189050808702600203810290508087026002038102905080870260020381029050808702600203810290508087026002038102905080870260020381029050808502955050505050505b9392505050565b60605f6002836002620009e09190620012f4565b620009ec9190620012ba565b67ffffffffffffffff81111562000a085762000a0762000f04565b5b6040519080825280601f01601f19166020018201604052801562000a3b5781602001600182028036833780820191505090505b5090507f3000000000000000000000000000000000000000000000000000000000000000815f8151811062000a755762000a7462001518565b5b60200101907effffffffffffffffffffffffffffffffffffffffffffffffffffffffffffff191690815f1a9053507f78000000000000000000000000000000000000000000000000000000000000008160018151811062000adb5762000ada62001518565b5b60200101907effffffffffffffffffffffffffffffffffffffffffffffffffffffffffffff191690815f1a9053505f600184600262000b1b9190620012f4565b62000b279190620012ba565b90505b600181111562000bd0577f3031323334353637383961626364656600000000000000000000000000000000600f86166010811062000b6d5762000b6c62001518565b5b1a60f81b82828151811062000b875762000b8662001518565b5b60200101907effffffffffffffffffffffffffffffffffffffffffffffffffffffffffffff191690815f1a905350600485901c94508062000bc89062001b67565b905062000b2a565b505f841462000c16576040517f08c379a000000000000000000000000000000000000000000000000000000000815260040162000c0d9062001bf1565b60405180910390fd5b8091505092915050565b5f805f90507a184f03e93ff9f4daa797ed6e38ed64bf6a1f010000000000000000831062000c80577a184f03e93ff9f4daa797ed6e38ed64bf6a1f010000000000000000838162000c765762000c7562001b3a565b5b0492506040810190505b6d04ee2d6d415b85acef8100000000831062000cc1576d04ee2d6d415b85acef8100000000838162000cb75762000cb662001b3a565b5b0492506020810190505b662386f26fc10000831062000cf457662386f26fc10000838162000cea5762000ce962001b3a565b5b0492506010810190505b6305f5e100831062000d21576305f5e100838162000d175762000d1662001b3a565b5b0492506008810190505b612710831062000d4a57612710838162000d405762000d3f62001b3a565b5b0492506004810190505b6064831062000d71576064838162000d675762000d6662001b3a565b5b0492506002810190505b600a831062000d81576001810190505b80915050919050565b5f604051905090565b5f80fd5b5f80fd5b5f73ffffffffffffffffffffffffffffffffffffffff82169050919050565b5f62000dc68262000d9b565b9050919050565b62000dd88162000dba565b811462000de3575f80fd5b50565b5f8151905062000df68162000dcd565b92915050565b5f815f0b9050919050565b62000e128162000dfc565b811462000e1d575f80fd5b50565b5f8151905062000e308162000e07565b92915050565b5f805f6060848603121562000e505762000e4f62000d93565b5b5f62000e5f8682870162000de6565b935050602062000e728682870162000de6565b925050604062000e858682870162000e20565b9150509250925092565b5f60ff82169050919050565b62000ea68162000e8f565b811462000eb1575f80fd5b50565b5f8151905062000ec48162000e9b565b92915050565b5f6020828403121562000ee25762000ee162000d93565b5b5f62000ef18482850162000eb4565b91505092915050565b5f81519050919050565b7f4e487b71000000000000000000000000000000000000000000000000000000005f52604160045260245ffd5b7f4e487b71000000000000000000000000000000000000000000000000000000005f52602260045260245ffd5b5f600282049050600182168062000f7657607f821691505b60208210810362000f8c5762000f8b62000f31565b5b50919050565b5f819050815f5260205f209050919050565b5f6020601f8301049050919050565b5f82821b905092915050565b5f6008830262000ff07fffffffffffffffffffffffffffffffffffffffffffffffffffffffffffffffff8262000fb3565b62000ffc868362000fb3565b95508019841693508086168417925050509392505050565b5f819050919050565b5f819050919050565b5f62001046620010406200103a8462001014565b6200101d565b62001014565b9050919050565b5f819050919050565b620010618362001026565b6200107962001070826200104d565b84845462000fbf565b825550505050565b5f90565b6200108f62001081565b6200109c81848462001056565b505050565b5b81811015620010c357620010b75f8262001085565b600181019050620010a2565b5050565b601f8211156200111257620010dc8162000f92565b620010e78462000fa4565b81016020851015620010f7578190505b6200110f620011068562000fa4565b830182620010a1565b50505b505050565b5f82821c905092915050565b5f620011345f198460080262001117565b1980831691505092915050565b5f6200114e838362001123565b9150826002028217905092915050565b620011698262000efa565b67ffffffffffffffff81111562001185576200118462000f04565b5b62001191825462000f5e565b6200119e828285620010c7565b5f60209050601f831160018114620011d4575f8415620011bf578287015190505b620011cb858262001141565b8655506200123a565b601f198416620011e48662000f92565b5f5b828110156200120d57848901518255600182019150602085019450602081019050620011e6565b868310156200122d578489015162001229601f89168262001123565b8355505b6001600288020188555050505b505050505050565b7f4e487b71000000000000000000000000000000000000000000000000000000005f52601160045260245ffd5b5f6200127b8262000dfc565b91507fffffffffffffffffffffffffffffffffffffffffffffffffffffffffffffff808203620012b057620012af62001242565b5b815f039050919050565b5f620012c68262001014565b9150620012d38362001014565b9250828201905080821115620012ee57620012ed62001242565b5b92915050565b5f620013008262001014565b91506200130d8362001014565b92508282026200131d8162001014565b9150828204841483151762001337576200133662001242565b5b5092915050565b5f8160011c9050919050565b5f808291508390505b60018511156200139b5780860481111562001373576200137262001242565b5b6001851615620013835780820291505b808102905062001393856200133e565b945062001353565b94509492505050565b5f82620013b5576001905062001487565b81620013c4575f905062001487565b8160018114620013dd5760028114620013e8576200141e565b600191505062001487565b60ff841115620013fd57620013fc62001242565b5b8360020a91508482111562001417576200141662001242565b5b5062001487565b5060208310610133831016604e8410600b8410161715620014585782820a90508381111562001452576200145162001242565b5b62001487565b6200146784848460016200134a565b9250905081840481111562001481576200148062001242565b5b81810290505b9392505050565b5f6200149a8262001014565b9150620014a78362001014565b9250620014d67fffffffffffffffffffffffffffffffffffffffffffffffffffffffffffffffff8484620013a4565b905092915050565b5f620014ea8262001014565b9150620014f78362001014565b925082820390508181111562001512576200151162001242565b5b92915050565b7f4e487b71000000000000000000000000000000000000000000000000000000005f52603260045260245ffd5b5f620015518262001014565b91507fffffffffffffffffffffffffffffffffffffffffffffffffffffffffffffffff820362001586576200158562001242565b5b600182019050919050565b5f81905092915050565b7f3130302e000000000000000000000000000000000000000000000000000000005f82015250565b5f620015d160048362001591565b9150620015de826200159b565b600482019050919050565b5f81519050919050565b5f81905092915050565b5f5b838110156200161c578082015181840152602081019050620015ff565b5f8484015250505050565b5f6200163382620015e9565b6200163f8185620015f3565b935062001651818560208601620015fd565b80840191505092915050565b5f6200166982620015c3565b915062001677828462001627565b915081905092915050565b5f80fd5b5f80fd5b5f601f19601f8301169050919050565b620016a5826200168a565b810181811067ffffffffffffffff82111715620016c757620016c662000f04565b5b80604052505050565b5f620016db62000d8a565b9050620016e982826200169a565b919050565b5f67ffffffffffffffff8211156200170b576200170a62000f04565b5b62001716826200168a565b9050602081019050919050565b5f620017396200173384620016ee565b620016d0565b90508281526020810184848401111562001758576200175762001686565b5b62001765848285620015fd565b509392505050565b5f82601f83011262001784576200178362001682565b5b81516200179684826020860162001723565b91505092915050565b5f60208284031215620017b757620017b662000d93565b5b5f82015167ffffffffffffffff811115620017d757620017d662000d97565b5b620017e5848285016200176d565b91505092915050565b7f537461626c6520746f6b656e2070656767656420746f200000000000000000005f82015250565b5f6200182460178362001591565b91506200183182620017ee565b601782019050919050565b5f620018488262000efa565b62001854818562001591565b935062001866818560208601620015fd565b80840191505092915050565b7f206261636b6564206279200000000000000000000000000000000000000000005f82015250565b5f620018a8600b8362001591565b9150620018b58262001872565b600b82019050919050565b7f20776974682061200000000000000000000000000000000000000000000000005f82015250565b5f620018f660088362001591565b91506200190382620018c0565b600882019050919050565b7f2520636f6c6c61746572616c697a6174696f6e20726174696f000000000000005f82015250565b5f6200194460198362001591565b915062001951826200190e565b601982019050919050565b5f620019688262001816565b91506200197682866200183c565b915062001983826200189a565b91506200199182856200183c565b91506200199e82620018e8565b9150620019ac82846200183c565b9150620019b98262001936565b9150819050949350505050565b5f620019d382856200183c565b9150620019e182846200183c565b91508190509392505050565b5f819050815f5260205f209050919050565b5f815462001a0d8162000f5e565b62001a198186620015f3565b9450600182165f811462001a36576001811462001a4c5762001a82565b60ff198316865281151582028601935062001a82565b62001a5785620019ed565b5f5b8381101562001a7a5781548189015260018201915060208101905062001a59565b838801955050505b50505092915050565b5f62001a988284620019ff565b915081905092915050565b5f819050919050565b62001ab78162001aa3565b82525050565b62001ac88162001014565b82525050565b62001ad98162000dba565b82525050565b5f60a08201905062001af45f83018862001aac565b62001b03602083018762001aac565b62001b12604083018662001aac565b62001b21606083018562001abd565b62001b30608083018462001ace565b9695505050505050565b7f4e487b71000000000000000000000000000000000000000000000000000000005f52601260045260245ffd5b5f62001b738262001014565b91505f820362001b885762001b8762001242565b5b600182039050919050565b5f82825260208201905092915050565b7f537472696e67733a20686578206c656e67746820696e73756666696369656e745f82015250565b5f62001bd960208362001b93565b915062001be68262001ba3565b602082019050919050565b5f6020820190508181035f83015262001c0a8162001bcb565b9050919050565b60805160a05160c05160e051610100516101205161014051611f4462001c785f395f6108f501525f6108c101525f61089c01525f610a0a01525f61102601525f610ae301525f81816105d5015281816107e1015281816109330152610baa0152611f445ff3fe608060405234801561000f575f80fd5b5060043610610140575f3560e01c80635c68cdf8116100b65780639dc29fac1161007a5780639dc29fac14610356578063a9059cbb14610372578063d505accf146103a2578063dd62ed3e146103be578063f5f1f1a7146103ee578063ff3be7961461040c57610140565b80635c68cdf81461029c57806370a08231146102ba5780637ecebe00146102ea578063854db43c1461031a57806395d89b411461033857610140565b806323b872dd1161010857806323b872dd146101ec57806328a070251461021c57806330adf81f14610226578063313ce567146102445780633644e5151461026257806340c10f191461028057610140565b8063042a16051461014457806306fdde0314610162578063095ea7b314610180578063117803e3146101b057806318160ddd146101ce575b5f80fd5b61014c61042a565b6040516101599190611538565b60405180910390f35b61016a61045b565b60405161017791906115db565b60405180910390f35b61019a6004803603810190610195919061168c565b6104e6565b6040516101a791906116e4565b60405180910390f35b6101b86105d3565b6040516101c5919061170c565b60405180910390f35b6101d66105f7565b6040516101e39190611734565b60405180910390f35b6102066004803603810190610201919061174d565b6105fd565b60405161021391906116e4565b60405180910390f35b6102246107c8565b005b61022e610876565b60405161023b91906117b5565b60405180910390f35b61024c61089a565b60405161025991906117e9565b60405180910390f35b61026a6108be565b60405161027791906117b5565b60405180910390f35b61029a6004803603810190610295919061168c565b61091a565b005b6102a4610a08565b6040516102b1919061181c565b60405180910390f35b6102d460048036038101906102cf9190611835565b610a2c565b6040516102e19190611734565b60405180910390f35b61030460048036038101906102ff9190611835565b610acc565b6040516103119190611734565b60405180910390f35b610322610ae1565b60405161032f919061170c565b60405180910390f35b610340610b05565b60405161034d91906115db565b60405180910390f35b610370600480360381019061036b919061168c565b610b91565b005b61038c6004803603810190610387919061168c565b610c76565b60405161039991906116e4565b60405180910390f35b6103bc60048036038101906103b791906118b4565b610d12565b005b6103d860048036038101906103d39190611951565b611004565b6040516103e59190611734565b60405180910390f35b6103f6611024565b604051610403919061170c565b60405180910390f35b610414611048565b60405161042191906116e4565b60405180910390f35b5f60035f015f9054906101000a90047affffffffffffffffffffffffffffffffffffffffffffffffffffff16905090565b5f8054610467906119bc565b80601f0160208091040260200160405190810160405280929190818152602001828054610493906119bc565b80156104de5780601f106104b5576101008083540402835291602001916104de565b820191905f5260205f20905b8154815290600101906020018083116104c157829003601f168201915b505050505081565b5f8160055f3373ffffffffffffffffffffffffffffffffffffffff1673ffffffffffffffffffffffffffffffffffffffff1681526020019081526020015f205f8573ffffffffffffffffffffffffffffffffffffffff1673ffffffffffffffffffffffffffffffffffffffff1681526020019081526020015f20819055508273ffffffffffffffffffffffffffffffffffffffff163373ffffffffffffffffffffffffffffffffffffffff167f8c5be1e5ebec7d5bd14f71427d1e84f3dd0314c0f7b2291e5b200ac8c7c3b925846040516105c19190611734565b60405180910390a36001905092915050565b7f000000000000000000000000000000000000000000000000000000000000000081565b60025481565b5f7fffffffffffffffffffffffffffffffffffffffffffffffffffffffffffffffff60055f8673ffffffffffffffffffffffffffffffffffffffff1673ffffffffffffffffffffffffffffffffffffffff1681526020019081526020015f205f3373ffffffffffffffffffffffffffffffffffffffff1673ffffffffffffffffffffffffffffffffffffffff1681526020019081526020015f20541461072c578160055f8673ffffffffffffffffffffffffffffffffffffffff1673ffffffffffffffffffffffffffffffffffffffff1681526020019081526020015f205f3373ffffffffffffffffffffffffffffffffffffffff1673ffffffffffffffffffffffffffffffffffffffff1681526020019081526020015f205f8282546107249190611a19565b925050819055505b610742848360036110539092919063ffffffff16565b610758838360036111889092919063ffffffff16565b8273ffffffffffffffffffffffffffffffffffffffff168473ffffffffffffffffffffffffffffffffffffffff167fddf252ad1be2c89b69c2b068fc378daa952ba7f163c4a11628f55a4df523b3ef846040516107b59190611734565b60405180910390a3600190509392505050565b3373ffffffffffffffffffffffffffffffffffffffff167f000000000000000000000000000000000000000000000000000000000000000073ffffffffffffffffffffffffffffffffffffffff161461081f575f80fd5b5f60025403156108745761083360036112bd565b7fb2d60c1853f534186f98500209005bfe1303c83a5b211d7be5b93d61be1ca99e6002546040516108649190611734565b60405180910390a15f6002819055505b565b7f6e71edae12b1b97f4d1f60370fef10105fa2faae0126114a169c64845d6126c981565b7f000000000000000000000000000000000000000000000000000000000000000081565b5f7f000000000000000000000000000000000000000000000000000000000000000046146108f3576108ee61136a565b610915565b7f00000000000000000000000000000000000000000000000000000000000000005b905090565b3373ffffffffffffffffffffffffffffffffffffffff167f000000000000000000000000000000000000000000000000000000000000000073ffffffffffffffffffffffffffffffffffffffff1614610971575f80fd5b8060025f8282546109829190611a4c565b9250508190555061099f828260036111889092919063ffffffff16565b8173ffffffffffffffffffffffffffffffffffffffff165f73ffffffffffffffffffffffffffffffffffffffff167fddf252ad1be2c89b69c2b068fc378daa952ba7f163c4a11628f55a4df523b3ef836040516109fc9190611734565b60405180910390a35050565b7f000000000000000000000000000000000000000000000000000000000000000081565b5f600373__$eaa9b974b26c4a5aefb80eea63e8753df8$__63d7ab26039091846040518363ffffffff1660e01b8152600401610a69929190611a95565b602060405180830381865af4158015610a84573d5f803e3d5ffd5b505050506040513d601f19601f82011682018060405250810190610aa89190611ae6565b7affffffffffffffffffffffffffffffffffffffffffffffffffffff169050919050565b6006602052805f5260405f205f915090505481565b7f000000000000000000000000000000000000000000000000000000000000000081565b60018054610b12906119bc565b80601f0160208091040260200160405190810160405280929190818152602001828054610b3e906119bc565b8015610b895780601f10610b6057610100808354040283529160200191610b89565b820191905f5260205f20905b815481529060010190602001808311610b6c57829003601f168201915b505050505081565b3373ffffffffffffffffffffffffffffffffffffffff167f000000000000000000000000000000000000000000000000000000000000000073ffffffffffffffffffffffffffffffffffffffff1614610be8575f80fd5b610bfe828260036110539092919063ffffffff16565b8060025f82825403925050819055505f73ffffffffffffffffffffffffffffffffffffffff168273ffffffffffffffffffffffffffffffffffffffff167fddf252ad1be2c89b69c2b068fc378daa952ba7f163c4a11628f55a4df523b3ef83604051610c6a9190611734565b60405180910390a35050565b5f610c8d338360036110539092919063ffffffff16565b610ca3838360036111889092919063ffffffff16565b8273ffffffffffffffffffffffffffffffffffffffff163373ffffffffffffffffffffffffffffffffffffffff167fddf252ad1be2c89b69c2b068fc378daa952ba7f163c4a11628f55a4df523b3ef84604051610d009190611734565b60405180910390a36001905092915050565b42841015610d55576040517f08c379a0000000000000000000000000000000000000000000000000000000008152600401610d4c90611b5b565b60405180910390fd5b5f610d5e6108be565b7f6e71edae12b1b97f4d1f60370fef10105fa2faae0126114a169c64845d6126c989898960065f8e73ffffffffffffffffffffffffffffffffffffffff1673ffffffffffffffffffffffffffffffffffffffff1681526020019081526020015f205f815480929190600101919050558a604051602001610de396959493929190611b79565b60405160208183030381529060405280519060200120604051602001610e0a929190611c4c565b6040516020818303038152906040528051906020012090505f6001828686866040515f8152602001604052604051610e459493929190611c82565b6020604051602081039080840390855afa158015610e65573d5f803e3d5ffd5b5050506020604051035190505f73ffffffffffffffffffffffffffffffffffffffff168173ffffffffffffffffffffffffffffffffffffffff1614158015610ed857508873ffffffffffffffffffffffffffffffffffffffff168173ffffffffffffffffffffffffffffffffffffffff16145b610f17576040517f08c379a0000000000000000000000000000000000000000000000000000000008152600401610f0e90611d0f565b60405180910390fd5b8660055f8373ffffffffffffffffffffffffffffffffffffffff1673ffffffffffffffffffffffffffffffffffffffff1681526020019081526020015f205f8a73ffffffffffffffffffffffffffffffffffffffff1673ffffffffffffffffffffffffffffffffffffffff1681526020019081526020015f208190555050508573ffffffffffffffffffffffffffffffffffffffff168773ffffffffffffffffffffffffffffffffffffffff167f8c5be1e5ebec7d5bd14f71427d1e84f3dd0314c0f7b2291e5b200ac8c7c3b92587604051610ff39190611734565b60405180910390a350505050505050565b6005602052815f5260405f20602052805f5260405f205f91509150505481565b7f000000000000000000000000000000000000000000000000000000000000000081565b5f8060025414905090565b5f81905081817affffffffffffffffffffffffffffffffffffffffffffffffffffff161461107f575f80fd5b8061108a8585611410565b6110949190611d2d565b846001015f8573ffffffffffffffffffffffffffffffffffffffff1673ffffffffffffffffffffffffffffffffffffffff1681526020019081526020015f205f015f6101000a8154817affffffffffffffffffffffffffffffffffffffffffffffffffffff02191690837affffffffffffffffffffffffffffffffffffffffffffffffffffff16021790555042846001015f8573ffffffffffffffffffffffffffffffffffffffff1673ffffffffffffffffffffffffffffffffffffffff1681526020019081526020015f205f01601b6101000a81548164ffffffffff021916908364ffffffffff16021790555050505050565b5f81905081817affffffffffffffffffffffffffffffffffffffffffffffffffffff16146111b4575f80fd5b806111bf8585611410565b6111c99190611d7b565b846001015f8573ffffffffffffffffffffffffffffffffffffffff1673ffffffffffffffffffffffffffffffffffffffff1681526020019081526020015f205f015f6101000a8154817affffffffffffffffffffffffffffffffffffffffffffffffffffff02191690837affffffffffffffffffffffffffffffffffffffffffffffffffffff16021790555042846001015f8573ffffffffffffffffffffffffffffffffffffffff1673ffffffffffffffffffffffffffffffffffffffff1681526020019081526020015f205f01601b6101000a81548164ffffffffff021916908364ffffffffff16021790555050505050565b42815f01601b6101000a81548164ffffffffff021916908364ffffffffff160217905550805f015f81819054906101000a90047affffffffffffffffffffffffffffffffffffffffffffffffffffff168092919061131a90611dc9565b91906101000a8154817affffffffffffffffffffffffffffffffffffffffffffffffffffff02191690837affffffffffffffffffffffffffffffffffffffffffffffffffffff1602179055505050565b5f7f8b73c3c69bb8fe3d512ecc4cf759cc79239f7b179b0ffacaa9a75d522b39400f5f60405161139a9190611ea7565b60405180910390206040518060400160405280600181526020017f31000000000000000000000000000000000000000000000000000000000000008152508051906020012046306040516020016113f5959493929190611ebd565b60405160208183030381529060405280519060200120905090565b5f826001015f8373ffffffffffffffffffffffffffffffffffffffff1673ffffffffffffffffffffffffffffffffffffffff1681526020019081526020015f205f01601b9054906101000a900464ffffffffff1664ffffffffff16835f01601b9054906101000a900464ffffffffff1664ffffffffff16106114f957826001015f8373ffffffffffffffffffffffffffffffffffffffff1673ffffffffffffffffffffffffffffffffffffffff1681526020019081526020015f205f015f9054906101000a90047affffffffffffffffffffffffffffffffffffffffffffffffffffff166114fb565b5f5b905092915050565b5f7affffffffffffffffffffffffffffffffffffffffffffffffffffff82169050919050565b61153281611503565b82525050565b5f60208201905061154b5f830184611529565b92915050565b5f81519050919050565b5f82825260208201905092915050565b5f5b8381101561158857808201518184015260208101905061156d565b5f8484015250505050565b5f601f19601f8301169050919050565b5f6115ad82611551565b6115b7818561155b565b93506115c781856020860161156b565b6115d081611593565b840191505092915050565b5f6020820190508181035f8301526115f381846115a3565b905092915050565b5f80fd5b5f73ffffffffffffffffffffffffffffffffffffffff82169050919050565b5f611628826115ff565b9050919050565b6116388161161e565b8114611642575f80fd5b50565b5f813590506116538161162f565b92915050565b5f819050919050565b61166b81611659565b8114611675575f80fd5b50565b5f8135905061168681611662565b92915050565b5f80604083850312156116a2576116a16115fb565b5b5f6116af85828601611645565b92505060206116c085828601611678565b9150509250929050565b5f8115159050919050565b6116de816116ca565b82525050565b5f6020820190506116f75f8301846116d5565b92915050565b6117068161161e565b82525050565b5f60208201905061171f5f8301846116fd565b92915050565b61172e81611659565b82525050565b5f6020820190506117475f830184611725565b92915050565b5f805f60608486031215611764576117636115fb565b5b5f61177186828701611645565b935050602061178286828701611645565b925050604061179386828701611678565b9150509250925092565b5f819050919050565b6117af8161179d565b82525050565b5f6020820190506117c85f8301846117a6565b92915050565b5f60ff82169050919050565b6117e3816117ce565b82525050565b5f6020820190506117fc5f8301846117da565b92915050565b5f815f0b9050919050565b61181681611802565b82525050565b5f60208201905061182f5f83018461180d565b92915050565b5f6020828403121561184a576118496115fb565b5b5f61185784828501611645565b91505092915050565b611869816117ce565b8114611873575f80fd5b50565b5f8135905061188481611860565b92915050565b6118938161179d565b811461189d575f80fd5b50565b5f813590506118ae8161188a565b92915050565b5f805f805f805f60e0888a0312156118cf576118ce6115fb565b5b5f6118dc8a828b01611645565b97505060206118ed8a828b01611645565b96505060406118fe8a828b01611678565b955050606061190f8a828b01611678565b94505060806119208a828b01611876565b93505060a06119318a828b016118a0565b92505060c06119428a828b016118a0565b91505092959891949750929550565b5f8060408385031215611967576119666115fb565b5b5f61197485828601611645565b925050602061198585828601611645565b9150509250929050565b7f4e487b71000000000000000000000000000000000000000000000000000000005f52602260045260245ffd5b5f60028204905060018216806119d357607f821691505b6020821081036119e6576119e561198f565b5b50919050565b7f4e487b71000000000000000000000000000000000000000000000000000000005f52601160045260245ffd5b5f611a2382611659565b9150611a2e83611659565b9250828203905081811115611a4657611a456119ec565b5b92915050565b5f611a5682611659565b9150611a6183611659565b9250828201905080821115611a7957611a786119ec565b5b92915050565b8082525050565b611a8f8161161e565b82525050565b5f604082019050611aa85f830185611a7f565b611ab56020830184611a86565b9392505050565b611ac581611503565b8114611acf575f80fd5b50565b5f81519050611ae081611abc565b92915050565b5f60208284031215611afb57611afa6115fb565b5b5f611b0884828501611ad2565b91505092915050565b7f5045524d49545f444541444c494e455f455850495245440000000000000000005f82015250565b5f611b4560178361155b565b9150611b5082611b11565b602082019050919050565b5f6020820190508181035f830152611b7281611b39565b9050919050565b5f60c082019050611b8c5f8301896117a6565b611b9960208301886116fd565b611ba660408301876116fd565b611bb36060830186611725565b611bc06080830185611725565b611bcd60a0830184611725565b979650505050505050565b5f81905092915050565b7f19010000000000000000000000000000000000000000000000000000000000005f82015250565b5f611c16600283611bd8565b9150611c2182611be2565b600282019050919050565b5f819050919050565b611c46611c418261179d565b611c2c565b82525050565b5f611c5682611c0a565b9150611c628285611c35565b602082019150611c728284611c35565b6020820191508190509392505050565b5f608082019050611c955f8301876117a6565b611ca260208301866117da565b611caf60408301856117a6565b611cbc60608301846117a6565b95945050505050565b7f494e56414c49445f5045524d49545f5349474e415455524500000000000000005f82015250565b5f611cf960188361155b565b9150611d0482611cc5565b602082019050919050565b5f6020820190508181035f830152611d2681611ced565b9050919050565b5f611d3782611503565b9150611d4283611503565b925082820390507affffffffffffffffffffffffffffffffffffffffffffffffffffff811115611d7557611d746119ec565b5b92915050565b5f611d8582611503565b9150611d9083611503565b925082820190507affffffffffffffffffffffffffffffffffffffffffffffffffffff811115611dc357611dc26119ec565b5b92915050565b5f611dd382611503565b91507affffffffffffffffffffffffffffffffffffffffffffffffffffff8203611e0057611dff6119ec565b5b600182019050919050565b5f81905092915050565b5f819050815f5260205f209050919050565b5f8154611e33816119bc565b611e3d8186611e0b565b9450600182165f8114611e575760018114611e6c57611e9e565b60ff1983168652811515820286019350611e9e565b611e7585611e15565b5f5b83811015611e9657815481890152600182019150602081019050611e77565b838801955050505b50505092915050565b5f611eb28284611e27565b915081905092915050565b5f60a082019050611ed05f8301886117a6565b611edd60208301876117a6565b611eea60408301866117a6565b611ef76060830185611725565b611f0460808301846116fd565b969550505050505056fea2646970667358221220760715d145e3e05878b135c5f45f875b315bf13c2dd45f82f324bd19f956491f64736f6c63430008140033",
  "linkReferences": {
    "src/libraries/ResettableBalancesUInt216.sol": {
      "ResettableBalancesUInt216": [
        {
          "length": 20,
          "start": 9897
        }
      ]
    }
  },
  "deployedLinkReferences": {
    "src/libraries/ResettableBalancesUInt216.sol": {
      "ResettableBalancesUInt216": [
        {
          "length": 20,
          "start": 2609
        }
      ]
    }
  }
}