{"abi":[{"type":"constructor","inputs":[],"stateMutability":"nonpayable"},{"type":"function","name":"exitBeta","inputs":[],"outputs":[],"stateMutability":"nonpayable"},{"type":"function","name":"hashActiveVaults","inputs":[],"outputs":[{"name":"","type":"bytes32","internalType":"bytes32"}],"stateMutability":"view"},{"type":"function","name":"haultMinting","inputs":[],"outputs":[],"stateMutability":"nonpayable"},{"type":"function","name":"initialize","inputs":[{"name":"vault_","type":"address","internalType":"address"},{"name":"sir_","type":"address","internalType":"address payable"}],"outputs":[],"stateMutability":"nonpayable"},{"type":"function","name":"owner","inputs":[],"outputs":[{"name":"","type":"address","internalType":"address"}],"stateMutability":"view"},{"type":"function","name":"renounceOwnership","inputs":[],"outputs":[],"stateMutability":"nonpayable"},{"type":"function","name":"resumeMinting","inputs":[],"outputs":[],"stateMutability":"nonpayable"},{"type":"function","name":"saveFunds","inputs":[{"name":"tokens","type":"address[]","internalType":"address[]"},{"name":"to","type":"address","internalType":"address"}],"outputs":[],"stateMutability":"nonpayable"},{"type":"function","name":"setBaseFee","inputs":[{"name":"baseFee_","type":"uint16","internalType":"uint16"}],"outputs":[],"stateMutability":"nonpayable"},{"type":"function","name":"setLPFee","inputs":[{"name":"lpFee_","type":"uint16","internalType":"uint16"}],"outputs":[],"stateMutability":"nonpayable"},{"type":"function","name":"shutdownSystem","inputs":[],"outputs":[],"stateMutability":"nonpayable"},{"type":"function","name":"sir","inputs":[],"outputs":[{"name":"","type":"address","internalType":"contract SIR"}],"stateMutability":"view"},{"type":"function","name":"systemStatus","inputs":[],"outputs":[{"name":"","type":"uint8","internalType":"enum SystemControl.SystemStatus"}],"stateMutability":"view"},{"type":"function","name":"timestampStatusChanged","inputs":[],"outputs":[{"name":"","type":"uint40","internalType":"uint40"}],"stateMutability":"view"},{"type":"function","name":"transferOwnership","inputs":[{"name":"newOwner","type":"address","internalType":"address"}],"outputs":[],"stateMutability":"nonpayable"},{"type":"function","name":"updateVaultsIssuances","inputs":[{"name":"oldVaults","type":"uint48[]","internalType":"uint48[]"},{"name":"newVaults","type":"uint48[]","internalType":"uint48[]"},{"name":"newTaxes","type":"uint8[]","internalType":"uint8[]"}],"outputs":[],"stateMutability":"nonpayable"},{"type":"function","name":"vault","inputs":[],"outputs":[{"name":"","type":"address","internalType":"contract Vault"}],"stateMutability":"view"},{"type":"event","name":"FundsWithdrawn","inputs":[{"name":"to","type":"address","indexed":true,"internalType":"address"},{"name":"token","type":"address","indexed":true,"internalType":"address"},{"name":"amount","type":"uint256","indexed":false,"internalType":"uint256"}],"anonymous":false},{"type":"event","name":"NewBaseFee","inputs":[{"name":"baseFee","type":"uint16","indexed":false,"internalType":"uint16"}],"anonymous":false},{"type":"event","name":"NewLPFee","inputs":[{"name":"lpFee","type":"uint16","indexed":false,"internalType":"uint16"}],"anonymous":false},{"type":"event","name":"OwnershipTransferred","inputs":[{"name":"previousOwner","type":"address","indexed":true,"internalType":"address"},{"name":"newOwner","type":"address","indexed":true,"internalType":"address"}],"anonymous":false},{"type":"event","name":"SystemStatusChanged","inputs":[{"name":"oldStatus","type":"uint8","indexed":true,"internalType":"enum SystemControl.SystemStatus"},{"name":"newStatus","type":"uint8","indexed":true,"internalType":"enum SystemControl.SystemStatus"}],"anonymous":false},{"type":"event","name":"TreasuryFeesWithdrawn","inputs":[{"name":"vaultId","type":"uint48","indexed":true,"internalType":"uint48"},{"name":"collateralToken","type":"address","indexed":true,"internalType":"address"},{"name":"amount","type":"uint256","indexed":false,"internalType":"uint256"}],"anonymous":false},{"type":"error","name":"ArraysLengthMismatch","inputs":[]},{"type":"error","name":"FeeCannotBeZero","inputs":[]},{"type":"error","name":"NewTaxesTooHigh","inputs":[]},{"type":"error","name":"OwnableInvalidOwner","inputs":[{"name":"owner","type":"address","internalType":"address"}]},{"type":"error","name":"OwnableUnauthorizedAccount","inputs":[{"name":"account","type":"address","internalType":"address"}]},{"type":"error","name":"ShutdownTooEarly","inputs":[]},{"type":"error","name":"WrongStatus","inputs":[]},{"type":"error","name":"WrongVaultsOrOrder","inputs":[]}],"bytecode":{"object":"0x60806040526002805461ffff60a01b1916600160a81b1790557fc5d2460186f7233c927e7db2dcc703c0e500b653ca82273b7bfad8045d85a470600355348015604757600080fd5b503380606d57604051631e4fbdf760e01b81526000600482015260240160405180910390fd5b6074816079565b5060c9565b600080546001600160a01b038381166001600160a01b0319831681178455604051919092169283917f8be0079c531659141344cd1fd0a4f28419497f9722a3daafe3b4186f6b6457e09190a35050565b611af4806100d86000396000f3fe608060405234801561001057600080fd5b506004361061011b5760003560e01c80637ec21573116100b2578063c39bb8af11610081578063e87d80b311610066578063e87d80b314610289578063f2fde38b1461029c578063fbfa77cf146102af57600080fd5b8063c39bb8af14610235578063c713b7ac1461024857600080fd5b80637ec21573146101f05780638022bdbd146102075780638da5cb5b1461020f578063b69bf5371461022d57600080fd5b8063543bc766116100ee578063543bc7661461019a57806359ae340e146101ad57806364cb907c146101b5578063715018a6146101e857600080fd5b8063124b4e6314610120578063354af9191461016a5780633b586c7f14610174578063485cc95514610187575b600080fd5b6001546101409073ffffffffffffffffffffffffffffffffffffffff1681565b60405173ffffffffffffffffffffffffffffffffffffffff90911681526020015b60405180910390f35b6101726102cf565b005b610172610182366004611391565b61043f565b6101726101953660046113de565b6105bf565b6101726101a8366004611463565b610694565b6101726108a7565b6002546101db907501000000000000000000000000000000000000000000900460ff1681565b60405161016191906114e9565b610172610aa0565b6101f960035481565b604051908152602001610161565b610172610ab4565b60005473ffffffffffffffffffffffffffffffffffffffff16610140565b610172610b79565b61017261024336600461152a565b610d73565b60025461027390760100000000000000000000000000000000000000000000900464ffffffffff1681565b60405164ffffffffff9091168152602001610161565b610172610297366004611391565b6110e7565b6101726102aa3660046115d0565b611260565b6002546101409073ffffffffffffffffffffffffffffffffffffffff1681565b6102d76112c9565b600280547501000000000000000000000000000000000000000000900460ff166003811115610308576103086114ba565b1461033f576040517f8e78f0cb00000000000000000000000000000000000000000000000000000000815260040160405180910390fd5b600254621a5e009061037290760100000000000000000000000000000000000000000000900464ffffffffff164261161c565b10156103aa576040517f113ea69800000000000000000000000000000000000000000000000000000000815260040160405180910390fd5b6002805464ffffffffff4216760100000000000000000000000000000000000000000000027fffffffffff000000000000ffffffffffffffffffffffffffffffffffffffffff90911617750300000000000000000000000000000000000000000017905560035b60025b6040517f103f4d5a9cc0a1df9d59b49654a5ad6d55f781452aeca93a598a646a9ec3ee6d90600090a3565b6104476112c9565b60016002547501000000000000000000000000000000000000000000900460ff166003811115610479576104796114ba565b146104b0576040517f8e78f0cb00000000000000000000000000000000000000000000000000000000815260040160405180910390fd5b8061ffff166000036104ee576040517f9a88ce8400000000000000000000000000000000000000000000000000000000815260040160405180910390fd5b6002546040517f5ab2cef400000000000000000000000000000000000000000000000000000000815261ffff83166004820152600060248201819052604482015273ffffffffffffffffffffffffffffffffffffffff90911690635ab2cef490606401600060405180830381600087803b15801561056b57600080fd5b505af115801561057f573d6000803e3d6000fd5b505060405161ffff841681527f95704319ef4b9cab06f0898e050908d5a1abd11dae7ce87e9077c4f9a071a487925060200190505b60405180910390a150565b60025474010000000000000000000000000000000000000000900460ff16158015610601575060005473ffffffffffffffffffffffffffffffffffffffff1633145b61060a57600080fd5b600280546001805473ffffffffffffffffffffffffffffffffffffffff9485167fffffffffffffffffffffffff0000000000000000000000000000000000000000919091161790557fffffffffffffffffffffff00000000000000000000000000000000000000000016919092161774010000000000000000000000000000000000000000179055565b61069c6112c9565b73ffffffffffffffffffffffffffffffffffffffff81166106bc57600080fd5b60036002547501000000000000000000000000000000000000000000900460ff1660038111156106ee576106ee6114ba565b14610725576040517f8e78f0cb00000000000000000000000000000000000000000000000000000000815260040160405180910390fd5b6002546040517fc7c3d2dc00000000000000000000000000000000000000000000000000000000815260009173ffffffffffffffffffffffffffffffffffffffff169063c7c3d2dc9061078090879087908790600401611635565b6000604051808303816000875af115801561079f573d6000803e3d6000fd5b505050506040513d6000823e601f3d9081017fffffffffffffffffffffffffffffffffffffffffffffffffffffffffffffffe01682016040526107e591908101906116de565b905060005b838110156108a057848482818110610804576108046117c9565b905060200201602081019061081991906115d0565b73ffffffffffffffffffffffffffffffffffffffff168373ffffffffffffffffffffffffffffffffffffffff167fa92ff919b850e4909ab2261d907ef955f11bc1716733a6cbece38d163a69af8a848481518110610879576108796117c9565b602002602001015160405161089091815260200190565b60405180910390a36001016107ea565b5050505050565b6108af6112c9565b600280547501000000000000000000000000000000000000000000900460ff1660038111156108e0576108e06114ba565b14610917576040517f8e78f0cb00000000000000000000000000000000000000000000000000000000815260040160405180910390fd5b6002805464ffffffffff4216760100000000000000000000000000000000000000000000027fffffffffff000000000000ffffffffffffffffffffffffffffffffffffffffff821681177501000000000000000000000000000000000000000000179092556040517f5ab2cef400000000000000000000000000000000000000000000000000000000815260006004820181905260248201819052604482015273ffffffffffffffffffffffffffffffffffffffff928316929091169190911790635ab2cef490606401600060405180830381600087803b1580156109fb57600080fd5b505af1158015610a0f573d6000803e3d6000fd5b5050600180546040517f2c5a8e86000000000000000000000000000000000000000000000000000000008152600481019290925273ffffffffffffffffffffffffffffffffffffffff169250632c5a8e869150602401600060405180830381600087803b158015610a7f57600080fd5b505af1158015610a93573d6000803e3d6000fd5b5060019250610411915050565b610aa86112c9565b610ab2600061131c565b565b610abc6112c9565b60016002547501000000000000000000000000000000000000000000900460ff166003811115610aee57610aee6114ba565b14610b25576040517f8e78f0cb00000000000000000000000000000000000000000000000000000000815260040160405180910390fd5b600280547fffffffffff000000000000ffffffffffffffffffffffffffffffffffffffffff167601000000000000000000000000000000000000000000004264ffffffffff160217905560005b6001610414565b610b816112c9565b60016002547501000000000000000000000000000000000000000000900460ff166003811115610bb357610bb36114ba565b14610bea576040517f8e78f0cb00000000000000000000000000000000000000000000000000000000815260040160405180910390fd5b6002805464ffffffffff4216760100000000000000000000000000000000000000000000027fffffffffff000000000000ffffffffffffffffffffffffffffffffffffffffff821681177502000000000000000000000000000000000000000000179092556040517f5ab2cef400000000000000000000000000000000000000000000000000000000815260006004820181905260248201526001604482015273ffffffffffffffffffffffffffffffffffffffff928316929091169190911790635ab2cef490606401600060405180830381600087803b158015610cce57600080fd5b505af1158015610ce2573d6000803e3d6000fd5b50506001546040517f2c5a8e860000000000000000000000000000000000000000000000000000000081526000600482015273ffffffffffffffffffffffffffffffffffffffff9091169250632c5a8e869150602401600060405180830381600087803b158015610d5257600080fd5b505af1158015610d66573d6000803e3d6000fd5b5060029250610b72915050565b610d7b6112c9565b82818114610db5576040517ffc23596000000000000000000000000000000000000000000000000000000000815260040160405180910390fd5b8686604051602001610dc8929190611813565b6040516020818303038152906040528051906020012060035414610e18576040517fa769a9a100000000000000000000000000000000000000000000000000000000815260040160405180910390fd5b60008060005b83811015610fb657858582818110610e3857610e386117c9565b9050602002016020810190610e4d9190611863565b60ff16600003610e89576040517f9a88ce8400000000000000000000000000000000000000000000000000000000815260040160405180910390fd5b858582818110610e9b57610e9b6117c9565b9050602002016020810190610eb09190611863565b610ebd9060ff168461187e565b92506002868683818110610ed357610ed36117c9565b9050602002016020810190610ee89190611863565b60ff16610ef591906119bb565b610eff90836119ca565b9150600081118015610f7757508787610f1960018461161c565b818110610f2857610f286117c9565b9050602002016020810190610f3d91906119dd565b65ffffffffffff16888883818110610f5757610f576117c9565b9050602002016020810190610f6c91906119dd565b65ffffffffffff1611155b15610fae576040517fa769a9a100000000000000000000000000000000000000000000000000000000815260040160405180910390fd5b600101610e1e565b50610fc3600260ff6119bb565b811115610ffc576040517f25541a6a00000000000000000000000000000000000000000000000000000000815260040160405180910390fd5b6002546040517fbb147c5400000000000000000000000000000000000000000000000000000000815273ffffffffffffffffffffffffffffffffffffffff9091169063bb147c549061105e908c908c908c908c908c908c908b90600401611a3f565b600060405180830381600087803b15801561107857600080fd5b505af115801561108c573d6000803e3d6000fd5b5050505086866040516020016110a3929190611813565b604080517fffffffffffffffffffffffffffffffffffffffffffffffffffffffffffffffe08184030181529190528051602090910120600355505050505050505050565b6110ef6112c9565b60016002547501000000000000000000000000000000000000000000900460ff166003811115611121576111216114ba565b14611158576040517f8e78f0cb00000000000000000000000000000000000000000000000000000000815260040160405180910390fd5b8061ffff16600003611196576040517f9a88ce8400000000000000000000000000000000000000000000000000000000815260040160405180910390fd5b6002546040517f5ab2cef400000000000000000000000000000000000000000000000000000000815260006004820181905261ffff84166024830152604482015273ffffffffffffffffffffffffffffffffffffffff90911690635ab2cef490606401600060405180830381600087803b15801561121357600080fd5b505af1158015611227573d6000803e3d6000fd5b505060405161ffff841681527f8bd9272b06d32ab4fd67d0e6939cb87de8913931cf97fd236317cc8d3273958d925060200190506105b4565b6112686112c9565b73ffffffffffffffffffffffffffffffffffffffff81166112bd576040517f1e4fbdf7000000000000000000000000000000000000000000000000000000008152600060048201526024015b60405180910390fd5b6112c68161131c565b50565b60005473ffffffffffffffffffffffffffffffffffffffff163314610ab2576040517f118cdaa70000000000000000000000000000000000000000000000000000000081523360048201526024016112b4565b6000805473ffffffffffffffffffffffffffffffffffffffff8381167fffffffffffffffffffffffff0000000000000000000000000000000000000000831681178455604051919092169283917f8be0079c531659141344cd1fd0a4f28419497f9722a3daafe3b4186f6b6457e09190a35050565b6000602082840312156113a357600080fd5b813561ffff811681146113b557600080fd5b9392505050565b73ffffffffffffffffffffffffffffffffffffffff811681146112c657600080fd5b600080604083850312156113f157600080fd5b82356113fc816113bc565b9150602083013561140c816113bc565b809150509250929050565b60008083601f84011261142957600080fd5b50813567ffffffffffffffff81111561144157600080fd5b6020830191508360208260051b850101111561145c57600080fd5b9250929050565b60008060006040848603121561147857600080fd5b833567ffffffffffffffff81111561148f57600080fd5b61149b86828701611417565b90945092505060208401356114af816113bc565b809150509250925092565b7f4e487b7100000000000000000000000000000000000000000000000000000000600052602160045260246000fd5b6020810160048310611524577f4e487b7100000000000000000000000000000000000000000000000000000000600052602160045260246000fd5b91905290565b6000806000806000806060878903121561154357600080fd5b863567ffffffffffffffff81111561155a57600080fd5b61156689828a01611417565b909750955050602087013567ffffffffffffffff81111561158657600080fd5b61159289828a01611417565b909550935050604087013567ffffffffffffffff8111156115b257600080fd5b6115be89828a01611417565b979a9699509497509295939492505050565b6000602082840312156115e257600080fd5b81356113b5816113bc565b7f4e487b7100000000000000000000000000000000000000000000000000000000600052601160045260246000fd5b8181038181111561162f5761162f6115ed565b92915050565b6040808252810183905260008460608301825b8681101561168557823561165b816113bc565b73ffffffffffffffffffffffffffffffffffffffff16825260209283019290910190600101611648565b50809250505073ffffffffffffffffffffffffffffffffffffffff83166020830152949350505050565b7f4e487b7100000000000000000000000000000000000000000000000000000000600052604160045260246000fd5b6000602082840312156116f057600080fd5b815167ffffffffffffffff81111561170757600080fd5b8201601f8101841361171857600080fd5b805167ffffffffffffffff811115611732576117326116af565b8060051b6040517fffffffffffffffffffffffffffffffffffffffffffffffffffffffffffffffe0603f830116810181811067ffffffffffffffff8211171561177d5761177d6116af565b60405291825260208184018101929081018784111561179b57600080fd5b6020850194505b838510156117be578451808252602095860195909350016117a2565b509695505050505050565b7f4e487b7100000000000000000000000000000000000000000000000000000000600052603260045260246000fd5b803565ffffffffffff8116811461180e57600080fd5b919050565b60008184825b858110156118475765ffffffffffff611831836117f8565b1683526020928301929190910190600101611819565b509095945050505050565b803560ff8116811461180e57600080fd5b60006020828403121561187557600080fd5b6113b582611852565b61ffff818116838216019081111561162f5761162f6115ed565b6001815b60018411156118d3578085048111156118b7576118b76115ed565b60018416156118c557908102905b60019390931c92800261189c565b935093915050565b6000826118ea5750600161162f565b816118f75750600061162f565b816001811461190d576002811461191757611933565b600191505061162f565b60ff841115611928576119286115ed565b50506001821b61162f565b5060208310610133831016604e8410600b8410161715611956575081810a61162f565b6119817fffffffffffffffffffffffffffffffffffffffffffffffffffffffffffffffff8484611898565b807fffffffffffffffffffffffffffffffffffffffffffffffffffffffffffffffff048211156119b3576119b36115ed565b029392505050565b60006113b560ff8416836118db565b8082018082111561162f5761162f6115ed565b6000602082840312156119ef57600080fd5b6113b5826117f8565b81835260208301925060008160005b84811015611a355765ffffffffffff611a1f836117f8565b1686526020958601959190910190600101611a07565b5093949350505050565b608081526000611a5360808301898b6119f8565b8281036020840152611a6681888a6119f8565b838103604085015285815286915060200160005b86811015611aa25760ff611a8d84611852565b16825260209283019290910190600101611a7a565b50809250505061ffff831660608301529897505050505050505056fea2646970667358221220bfcbe1f3cb6651408a604bbe6c9921035d7aa8db80d7621db384be06cc94a9e864736f6c634300081c0033","linkReferences":{}},"methodIdentifiers":{"exitBeta()":"8022bdbd","hashActiveVaults()":"7ec21573","haultMinting()":"b69bf537","initialize(address,address)":"485cc955","owner()":"8da5cb5b","renounceOwnership()":"715018a6","resumeMinting()":"59ae340e","saveFunds(address[],address)":"543bc766","setBaseFee(uint16)":"3b586c7f","setLPFee(uint16)":"e87d80b3","shutdownSystem()":"354af919","sir()":"124b4e63","systemStatus()":"64cb907c","timestampStatusChanged()":"c713b7ac","transferOwnership(address)":"f2fde38b","updateVaultsIssuances(uint48[],uint48[],uint8[])":"c39bb8af","vault()":"fbfa77cf"},"id":81}