{"abi":[{"type":"function","name":"SHUTDOWN_WITHDRAWAL_DELAY","inputs":[],"outputs":[{"name":"","type":"uint40","internalType":"uint40"}],"stateMutability":"view"},{"type":"function","name":"exitBeta","inputs":[],"outputs":[],"stateMutability":"nonpayable"},{"type":"function","name":"hashActiveVaults","inputs":[],"outputs":[{"name":"","type":"bytes32","internalType":"bytes32"}],"stateMutability":"view"},{"type":"function","name":"haultMinting","inputs":[],"outputs":[],"stateMutability":"nonpayable"},{"type":"function","name":"initialize","inputs":[{"name":"vault_","type":"address","internalType":"address"}],"outputs":[],"stateMutability":"nonpayable"},{"type":"function","name":"owner","inputs":[],"outputs":[{"name":"","type":"address","internalType":"address"}],"stateMutability":"view"},{"type":"function","name":"renounceOwnership","inputs":[],"outputs":[],"stateMutability":"nonpayable"},{"type":"function","name":"resumeMinting","inputs":[],"outputs":[],"stateMutability":"nonpayable"},{"type":"function","name":"saveFunds","inputs":[{"name":"tokens","type":"address[]","internalType":"address[]"},{"name":"to","type":"address","internalType":"address"}],"outputs":[],"stateMutability":"nonpayable"},{"type":"function","name":"setBaseFee","inputs":[{"name":"baseFee_","type":"uint16","internalType":"uint16"}],"outputs":[],"stateMutability":"nonpayable"},{"type":"function","name":"setLPFee","inputs":[{"name":"lpFee_","type":"uint16","internalType":"uint16"}],"outputs":[],"stateMutability":"nonpayable"},{"type":"function","name":"shutdownSystem","inputs":[],"outputs":[],"stateMutability":"nonpayable"},{"type":"function","name":"systemStatus","inputs":[],"outputs":[{"name":"","type":"uint8","internalType":"enum SystemControl.SystemStatus"}],"stateMutability":"view"},{"type":"function","name":"transferOwnership","inputs":[{"name":"newOwner","type":"address","internalType":"address"}],"outputs":[],"stateMutability":"nonpayable"},{"type":"function","name":"tsStatusChanged","inputs":[],"outputs":[{"name":"","type":"uint40","internalType":"uint40"}],"stateMutability":"view"},{"type":"function","name":"updateVaultsIssuances","inputs":[{"name":"oldVaults","type":"uint48[]","internalType":"uint48[]"},{"name":"newVaults","type":"uint48[]","internalType":"uint48[]"},{"name":"newTaxes","type":"uint8[]","internalType":"uint8[]"}],"outputs":[],"stateMutability":"nonpayable"},{"type":"function","name":"vault","inputs":[],"outputs":[{"name":"","type":"address","internalType":"contract Vault"}],"stateMutability":"view"},{"type":"event","name":"FundsWithdrawn","inputs":[{"name":"to","type":"address","indexed":true,"internalType":"address"},{"name":"token","type":"address","indexed":true,"internalType":"address"},{"name":"amount","type":"uint256","indexed":false,"internalType":"uint256"}],"anonymous":false},{"type":"event","name":"NewBaseFee","inputs":[{"name":"baseFee","type":"uint16","indexed":false,"internalType":"uint16"}],"anonymous":false},{"type":"event","name":"NewLPFee","inputs":[{"name":"lpFee","type":"uint16","indexed":false,"internalType":"uint16"}],"anonymous":false},{"type":"event","name":"OwnershipTransferred","inputs":[{"name":"previousOwner","type":"address","indexed":true,"internalType":"address"},{"name":"newOwner","type":"address","indexed":true,"internalType":"address"}],"anonymous":false},{"type":"event","name":"SystemStatusChanged","inputs":[{"name":"oldStatus","type":"uint8","indexed":true,"internalType":"enum SystemControl.SystemStatus"},{"name":"newStatus","type":"uint8","indexed":true,"internalType":"enum SystemControl.SystemStatus"}],"anonymous":false},{"type":"event","name":"TreasuryFeesWithdrawn","inputs":[{"name":"vaultId","type":"uint48","indexed":true,"internalType":"uint48"},{"name":"collateralToken","type":"address","indexed":true,"internalType":"address"},{"name":"amount","type":"uint256","indexed":false,"internalType":"uint256"}],"anonymous":false},{"type":"error","name":"ArraysLengthMismatch","inputs":[]},{"type":"error","name":"FeeCannotBeZero","inputs":[]},{"type":"error","name":"NewTaxesTooHigh","inputs":[]},{"type":"error","name":"ShutdownTooEarly","inputs":[]},{"type":"error","name":"WrongStatus","inputs":[]},{"type":"error","name":"WrongVaultsOrOrder","inputs":[]}],"bytecode":{"object":"0x60806040526001805461ffff60a01b1916600160a81b1790557fc5d2460186f7233c927e7db2dcc703c0e500b653ca82273b7bfad8045d85a470600255348015604757600080fd5b50604f336053565b60a3565b600080546001600160a01b038381166001600160a01b0319831681178455604051919092169283917f8be0079c531659141344cd1fd0a4f28419497f9722a3daafe3b4186f6b6457e09190a35050565b611d71806100b26000396000f3fe608060405234801561001057600080fd5b506004361061011b5760003560e01c80638022bdbd116100b2578063c39bb8af11610081578063e87d80b311610066578063e87d80b31461026f578063f2fde38b14610282578063fbfa77cf1461029557600080fd5b8063c39bb8af14610249578063c4d66de81461025c57600080fd5b80638022bdbd146101f05780638da5cb5b146101f8578063b69bf53714610237578063b883d19e1461023f57600080fd5b806360bc9381116100ee57806360bc93811461015857806364cb907c1461019e578063715018a6146101d15780637ec21573146101d957600080fd5b8063354af919146101205780633b586c7f1461012a578063543bc7661461013d57806359ae340e14610150575b600080fd5b6101286102b5565b005b6101286101383660046115b6565b610426565b61012861014b36600461164f565b610646565b610128610859565b60015461018390760100000000000000000000000000000000000000000000900464ffffffffff1681565b60405164ffffffffff90911681526020015b60405180910390f35b6001546101c4907501000000000000000000000000000000000000000000900460ff1681565b60405161019591906116d2565b610128610a10565b6101e260025481565b604051908152602001610195565b610128610a24565b60005473ffffffffffffffffffffffffffffffffffffffff165b60405173ffffffffffffffffffffffffffffffffffffffff9091168152602001610195565b610128610ae6565b610183621a5e0081565b610128610257366004611713565b610dc4565b61012861026a3660046117b9565b611138565b61012861027d3660046115b6565b6111e0565b6101286102903660046117b9565b6113f4565b6001546102129073ffffffffffffffffffffffffffffffffffffffff1681565b6102bd6114b0565b60026001547501000000000000000000000000000000000000000000900460ff1660038111156102ef576102ef6116a3565b14610326576040517f8e78f0cb00000000000000000000000000000000000000000000000000000000815260040160405180910390fd5b600154621a5e009061035990760100000000000000000000000000000000000000000000900464ffffffffff1642611803565b1015610391576040517f113ea69800000000000000000000000000000000000000000000000000000000815260040160405180910390fd5b6001805464ffffffffff4216760100000000000000000000000000000000000000000000027fffffffffff000000000000ffffffffffffffffffffffffffffffffffffffffff90911617750300000000000000000000000000000000000000000017905560035b60025b6040517f103f4d5a9cc0a1df9d59b49654a5ad6d55f781452aeca93a598a646a9ec3ee6d90600090a3565b61042e6114b0565b600180547501000000000000000000000000000000000000000000900460ff16600381111561045f5761045f6116a3565b14610496576040517f8e78f0cb00000000000000000000000000000000000000000000000000000000815260040160405180910390fd5b8061ffff166000036104d4576040517f9a88ce8400000000000000000000000000000000000000000000000000000000815260040160405180910390fd5b600154604080517f458e8e6b000000000000000000000000000000000000000000000000000000008152905173ffffffffffffffffffffffffffffffffffffffff90921691600091839163458e8e6b916004808201926080929091908290030181865afa158015610549573d6000803e3d6000fd5b505050506040513d601f19601f8201168201806040525081019061056d919061189a565b60208101516040517f5ab2cef400000000000000000000000000000000000000000000000000000000815261ffff808716600483015290911660248201526000604482015290915073ffffffffffffffffffffffffffffffffffffffff831690635ab2cef490606401600060405180830381600087803b1580156105f057600080fd5b505af1158015610604573d6000803e3d6000fd5b505060405161ffff861681527f95704319ef4b9cab06f0898e050908d5a1abd11dae7ce87e9077c4f9a071a487925060200190505b60405180910390a1505050565b61064e6114b0565b73ffffffffffffffffffffffffffffffffffffffff811661066e57600080fd5b60036001547501000000000000000000000000000000000000000000900460ff1660038111156106a0576106a06116a3565b146106d7576040517f8e78f0cb00000000000000000000000000000000000000000000000000000000815260040160405180910390fd5b6001546040517fc7c3d2dc00000000000000000000000000000000000000000000000000000000815260009173ffffffffffffffffffffffffffffffffffffffff169063c7c3d2dc9061073290879087908790600401611926565b6000604051808303816000875af1158015610751573d6000803e3d6000fd5b505050506040513d6000823e601f3d9081017fffffffffffffffffffffffffffffffffffffffffffffffffffffffffffffffe0168201604052610797919081019061199e565b905060005b83811015610852578484828181106107b6576107b6611a4b565b90506020020160208101906107cb91906117b9565b73ffffffffffffffffffffffffffffffffffffffff168373ffffffffffffffffffffffffffffffffffffffff167fa92ff919b850e4909ab2261d907ef955f11bc1716733a6cbece38d163a69af8a84848151811061082b5761082b611a4b565b602002602001015160405161084291815260200190565b60405180910390a360010161079c565b5050505050565b6108616114b0565b60026001547501000000000000000000000000000000000000000000900460ff166003811115610893576108936116a3565b146108ca576040517f8e78f0cb00000000000000000000000000000000000000000000000000000000815260040160405180910390fd5b6001805464ffffffffff4216760100000000000000000000000000000000000000000000027fffffffffff000000000000ffffffffffffffffffffffffffffffffffffffffff82168117750100000000000000000000000000000000000000000017928390556040517f5ab2cef400000000000000000000000000000000000000000000000000000000815261ffff7b010000000000000000000000000000000000000000000000000000008504811660048301527d01000000000000000000000000000000000000000000000000000000000090940490931660248401526000604484015273ffffffffffffffffffffffffffffffffffffffff90811691161790635ab2cef490606401600060405180830381600087803b1580156109ef57600080fd5b505af1158015610a03573d6000803e3d6000fd5b50600192506103f8915050565b610a186114b0565b610a226000611531565b565b610a2c6114b0565b600180547501000000000000000000000000000000000000000000900460ff166003811115610a5d57610a5d6116a3565b14610a94576040517f8e78f0cb00000000000000000000000000000000000000000000000000000000815260040160405180910390fd5b600180547fffffffffff000000000000ffffffffffffffffffffffffffffffffffffffffff167601000000000000000000000000000000000000000000004264ffffffffff16021781556000906103fb565b610aee6114b0565b600180547501000000000000000000000000000000000000000000900460ff166003811115610b1f57610b1f6116a3565b14610b56576040517f8e78f0cb00000000000000000000000000000000000000000000000000000000815260040160405180910390fd5b600180547fffffffffff000000000000ffffffffffffffffffffffffffffffffffffffffff81167601000000000000000000000000000000000000000000004264ffffffffff1602908117750200000000000000000000000000000000000000000017909255604080517f458e8e6b000000000000000000000000000000000000000000000000000000008152905173ffffffffffffffffffffffffffffffffffffffff928316929093169190911791600091839163458e8e6b916004808201926080929091908290030181865afa158015610c36573d6000803e3d6000fd5b505050506040513d601f19601f82011682018060405250810190610c5a919061189a565b805160018054602084015161ffff9081167d010000000000000000000000000000000000000000000000000000000000027fff0000ffffffffffffffffffffffffffffffffffffffffffffffffffffffffff919094167b0100000000000000000000000000000000000000000000000000000002167fff00000000ffffffffffffffffffffffffffffffffffffffffffffffffffffff909116179190911781556040517f5ab2cef40000000000000000000000000000000000000000000000000000000081526000600482018190526024820152604481019190915290915073ffffffffffffffffffffffffffffffffffffffff831690635ab2cef490606401600060405180830381600087803b158015610d7457600080fd5b505af1158015610d88573d6000803e3d6000fd5b5060029250610d95915050565b60016040517f103f4d5a9cc0a1df9d59b49654a5ad6d55f781452aeca93a598a646a9ec3ee6d90600090a35050565b610dcc6114b0565b82818114610e06576040517ffc23596000000000000000000000000000000000000000000000000000000000815260040160405180910390fd5b8686604051602001610e19929190611a90565b6040516020818303038152906040528051906020012060025414610e69576040517fa769a9a100000000000000000000000000000000000000000000000000000000815260040160405180910390fd5b60008060005b8381101561100757858582818110610e8957610e89611a4b565b9050602002016020810190610e9e9190611ae0565b60ff16600003610eda576040517f9a88ce8400000000000000000000000000000000000000000000000000000000815260040160405180910390fd5b858582818110610eec57610eec611a4b565b9050602002016020810190610f019190611ae0565b610f0e9060ff1684611afb565b92506002868683818110610f2457610f24611a4b565b9050602002016020810190610f399190611ae0565b60ff16610f469190611c38565b610f509083611c47565b9150600081118015610fc857508787610f6a600184611803565b818110610f7957610f79611a4b565b9050602002016020810190610f8e9190611c5a565b65ffffffffffff16888883818110610fa857610fa8611a4b565b9050602002016020810190610fbd9190611c5a565b65ffffffffffff1611155b15610fff576040517fa769a9a100000000000000000000000000000000000000000000000000000000815260040160405180910390fd5b600101610e6f565b50611014600260ff611c38565b81111561104d576040517f25541a6a00000000000000000000000000000000000000000000000000000000815260040160405180910390fd5b6001546040517fbb147c5400000000000000000000000000000000000000000000000000000000815273ffffffffffffffffffffffffffffffffffffffff9091169063bb147c54906110af908c908c908c908c908c908c908b90600401611cbc565b600060405180830381600087803b1580156110c957600080fd5b505af11580156110dd573d6000803e3d6000fd5b5050505086866040516020016110f4929190611a90565b604080517fffffffffffffffffffffffffffffffffffffffffffffffffffffffffffffffe08184030181529190528051602090910120600255505050505050505050565b60015474010000000000000000000000000000000000000000900460ff1615801561117a575060005473ffffffffffffffffffffffffffffffffffffffff1633145b61118357600080fd5b600180547fffffffffffffffffffffff0000000000000000000000000000000000000000001673ffffffffffffffffffffffffffffffffffffffff9092169190911774010000000000000000000000000000000000000000179055565b6111e86114b0565b600180547501000000000000000000000000000000000000000000900460ff166003811115611219576112196116a3565b14611250576040517f8e78f0cb00000000000000000000000000000000000000000000000000000000815260040160405180910390fd5b8061ffff1660000361128e576040517f9a88ce8400000000000000000000000000000000000000000000000000000000815260040160405180910390fd5b600154604080517f458e8e6b000000000000000000000000000000000000000000000000000000008152905173ffffffffffffffffffffffffffffffffffffffff90921691600091839163458e8e6b916004808201926080929091908290030181865afa158015611303573d6000803e3d6000fd5b505050506040513d601f19601f82011682018060405250810190611327919061189a565b80516040517f5ab2cef400000000000000000000000000000000000000000000000000000000815261ffff918216600482015290851660248201526000604482015290915073ffffffffffffffffffffffffffffffffffffffff831690635ab2cef490606401600060405180830381600087803b1580156113a757600080fd5b505af11580156113bb573d6000803e3d6000fd5b505060405161ffff861681527f8bd9272b06d32ab4fd67d0e6939cb87de8913931cf97fd236317cc8d3273958d92506020019050610639565b6113fc6114b0565b73ffffffffffffffffffffffffffffffffffffffff81166114a4576040517f08c379a000000000000000000000000000000000000000000000000000000000815260206004820152602660248201527f4f776e61626c653a206e6577206f776e657220697320746865207a65726f206160448201527f646472657373000000000000000000000000000000000000000000000000000060648201526084015b60405180910390fd5b6114ad81611531565b50565b60005473ffffffffffffffffffffffffffffffffffffffff163314610a22576040517f08c379a000000000000000000000000000000000000000000000000000000000815260206004820181905260248201527f4f776e61626c653a2063616c6c6572206973206e6f7420746865206f776e6572604482015260640161149b565b6000805473ffffffffffffffffffffffffffffffffffffffff8381167fffffffffffffffffffffffff0000000000000000000000000000000000000000831681178455604051919092169283917f8be0079c531659141344cd1fd0a4f28419497f9722a3daafe3b4186f6b6457e09190a35050565b61ffff811681146114ad57600080fd5b6000602082840312156115c857600080fd5b81356115d3816115a6565b9392505050565b60008083601f8401126115ec57600080fd5b50813567ffffffffffffffff81111561160457600080fd5b6020830191508360208260051b850101111561161f57600080fd5b9250929050565b803573ffffffffffffffffffffffffffffffffffffffff8116811461164a57600080fd5b919050565b60008060006040848603121561166457600080fd5b833567ffffffffffffffff81111561167b57600080fd5b611687868287016115da565b909450925061169a905060208501611626565b90509250925092565b7f4e487b7100000000000000000000000000000000000000000000000000000000600052602160045260246000fd5b602081016004831061170d577f4e487b7100000000000000000000000000000000000000000000000000000000600052602160045260246000fd5b91905290565b6000806000806000806060878903121561172c57600080fd5b863567ffffffffffffffff81111561174357600080fd5b61174f89828a016115da565b909750955050602087013567ffffffffffffffff81111561176f57600080fd5b61177b89828a016115da565b909550935050604087013567ffffffffffffffff81111561179b57600080fd5b6117a789828a016115da565b979a9699509497509295939492505050565b6000602082840312156117cb57600080fd5b6115d382611626565b7f4e487b7100000000000000000000000000000000000000000000000000000000600052601160045260246000fd5b81810381811115611816576118166117d4565b92915050565b7f4e487b7100000000000000000000000000000000000000000000000000000000600052604160045260246000fd5b604051601f82017fffffffffffffffffffffffffffffffffffffffffffffffffffffffffffffffe016810167ffffffffffffffff811182821017156118925761189261181c565b604052919050565b600060808284031280156118ad57600080fd5b506040516080810167ffffffffffffffff811182821017156118d1576118d161181c565b60405282516118df816115a6565b815260208301516118ef816115a6565b60208201526040830151801515811461190757600080fd5b6040820152606083015161191a816115a6565b60608201529392505050565b6040808252810183905260008460608301825b868110156119745773ffffffffffffffffffffffffffffffffffffffff61195f84611626565b16825260209283019290910190600101611939565b50809250505073ffffffffffffffffffffffffffffffffffffffff83166020830152949350505050565b6000602082840312156119b057600080fd5b815167ffffffffffffffff8111156119c757600080fd5b8201601f810184136119d857600080fd5b805167ffffffffffffffff8111156119f2576119f261181c565b8060051b611a026020820161184b565b91825260208184018101929081019087841115611a1e57600080fd5b6020850194505b83851015611a40578451825260209485019490910190611a25565b979650505050505050565b7f4e487b7100000000000000000000000000000000000000000000000000000000600052603260045260246000fd5b803565ffffffffffff8116811461164a57600080fd5b60008184825b85811015611ac45765ffffffffffff611aae83611a7a565b1683526020928301929190910190600101611a96565b509095945050505050565b803560ff8116811461164a57600080fd5b600060208284031215611af257600080fd5b6115d382611acf565b61ffff8181168382160190811115611816576118166117d4565b6001815b6001841115611b5057808504811115611b3457611b346117d4565b6001841615611b4257908102905b60019390931c928002611b19565b935093915050565b600082611b6757506001611816565b81611b7457506000611816565b8160018114611b8a5760028114611b9457611bb0565b6001915050611816565b60ff841115611ba557611ba56117d4565b50506001821b611816565b5060208310610133831016604e8410600b8410161715611bd3575081810a611816565b611bfe7fffffffffffffffffffffffffffffffffffffffffffffffffffffffffffffffff8484611b15565b807fffffffffffffffffffffffffffffffffffffffffffffffffffffffffffffffff04821115611c3057611c306117d4565b029392505050565b60006115d360ff841683611b58565b80820180821115611816576118166117d4565b600060208284031215611c6c57600080fd5b6115d382611a7a565b81835260208301925060008160005b84811015611cb25765ffffffffffff611c9c83611a7a565b1686526020958601959190910190600101611c84565b5093949350505050565b608081526000611cd060808301898b611c75565b8281036020840152611ce381888a611c75565b838103604085015285815286915060200160005b86811015611d1f5760ff611d0a84611acf565b16825260209283019290910190600101611cf7565b50809250505061ffff831660608301529897505050505050505056fea264697066735822122064747b7014ec42154a9c411acb853448c63abc31a5ba0c59e47ad4490a797c7b64736f6c634300081a0033","linkReferences":{}},"methodIdentifiers":{"SHUTDOWN_WITHDRAWAL_DELAY()":"b883d19e","exitBeta()":"8022bdbd","hashActiveVaults()":"7ec21573","haultMinting()":"b69bf537","initialize(address)":"c4d66de8","owner()":"8da5cb5b","renounceOwnership()":"715018a6","resumeMinting()":"59ae340e","saveFunds(address[],address)":"543bc766","setBaseFee(uint16)":"3b586c7f","setLPFee(uint16)":"e87d80b3","shutdownSystem()":"354af919","systemStatus()":"64cb907c","transferOwnership(address)":"f2fde38b","tsStatusChanged()":"60bc9381","updateVaultsIssuances(uint48[],uint48[],uint8[])":"c39bb8af","vault()":"fbfa77cf"},"id":44}