{"abi":[{"type":"constructor","inputs":[],"stateMutability":"nonpayable"},{"type":"function","name":"SHUTDOWN_WITHDRAWAL_DELAY","inputs":[],"outputs":[{"name":"","type":"uint40","internalType":"uint40"}],"stateMutability":"view"},{"type":"function","name":"exitBeta","inputs":[],"outputs":[],"stateMutability":"nonpayable"},{"type":"function","name":"hashActiveVaults","inputs":[],"outputs":[{"name":"","type":"bytes32","internalType":"bytes32"}],"stateMutability":"view"},{"type":"function","name":"haultMinting","inputs":[],"outputs":[],"stateMutability":"nonpayable"},{"type":"function","name":"initialize","inputs":[{"name":"vault_","type":"address","internalType":"address"}],"outputs":[],"stateMutability":"nonpayable"},{"type":"function","name":"owner","inputs":[],"outputs":[{"name":"","type":"address","internalType":"address"}],"stateMutability":"view"},{"type":"function","name":"renounceOwnership","inputs":[],"outputs":[],"stateMutability":"nonpayable"},{"type":"function","name":"resumeMinting","inputs":[],"outputs":[],"stateMutability":"nonpayable"},{"type":"function","name":"saveFunds","inputs":[{"name":"tokens","type":"address[]","internalType":"address[]"},{"name":"to","type":"address","internalType":"address"}],"outputs":[],"stateMutability":"nonpayable"},{"type":"function","name":"setBaseFee","inputs":[{"name":"baseFee_","type":"uint16","internalType":"uint16"}],"outputs":[],"stateMutability":"nonpayable"},{"type":"function","name":"setLPFee","inputs":[{"name":"lpFee_","type":"uint16","internalType":"uint16"}],"outputs":[],"stateMutability":"nonpayable"},{"type":"function","name":"shutdownSystem","inputs":[],"outputs":[],"stateMutability":"nonpayable"},{"type":"function","name":"systemStatus","inputs":[],"outputs":[{"name":"","type":"uint8","internalType":"enum SystemControl.SystemStatus"}],"stateMutability":"view"},{"type":"function","name":"timestampStatusChanged","inputs":[],"outputs":[{"name":"","type":"uint40","internalType":"uint40"}],"stateMutability":"view"},{"type":"function","name":"transferOwnership","inputs":[{"name":"newOwner","type":"address","internalType":"address"}],"outputs":[],"stateMutability":"nonpayable"},{"type":"function","name":"updateVaultsIssuances","inputs":[{"name":"oldVaults","type":"uint48[]","internalType":"uint48[]"},{"name":"newVaults","type":"uint48[]","internalType":"uint48[]"},{"name":"newTaxes","type":"uint8[]","internalType":"uint8[]"}],"outputs":[],"stateMutability":"nonpayable"},{"type":"function","name":"vault","inputs":[],"outputs":[{"name":"","type":"address","internalType":"contract Vault"}],"stateMutability":"view"},{"type":"event","name":"FundsWithdrawn","inputs":[{"name":"to","type":"address","indexed":true,"internalType":"address"},{"name":"token","type":"address","indexed":true,"internalType":"address"},{"name":"amount","type":"uint256","indexed":false,"internalType":"uint256"}],"anonymous":false},{"type":"event","name":"NewBaseFee","inputs":[{"name":"baseFee","type":"uint16","indexed":false,"internalType":"uint16"}],"anonymous":false},{"type":"event","name":"NewLPFee","inputs":[{"name":"lpFee","type":"uint16","indexed":false,"internalType":"uint16"}],"anonymous":false},{"type":"event","name":"OwnershipTransferred","inputs":[{"name":"previousOwner","type":"address","indexed":true,"internalType":"address"},{"name":"newOwner","type":"address","indexed":true,"internalType":"address"}],"anonymous":false},{"type":"event","name":"SystemStatusChanged","inputs":[{"name":"oldStatus","type":"uint8","indexed":true,"internalType":"enum SystemControl.SystemStatus"},{"name":"newStatus","type":"uint8","indexed":true,"internalType":"enum SystemControl.SystemStatus"}],"anonymous":false},{"type":"event","name":"TreasuryFeesWithdrawn","inputs":[{"name":"vaultId","type":"uint48","indexed":true,"internalType":"uint48"},{"name":"collateralToken","type":"address","indexed":true,"internalType":"address"},{"name":"amount","type":"uint256","indexed":false,"internalType":"uint256"}],"anonymous":false},{"type":"error","name":"ArraysLengthMismatch","inputs":[]},{"type":"error","name":"FeeCannotBeZero","inputs":[]},{"type":"error","name":"NewTaxesTooHigh","inputs":[]},{"type":"error","name":"OwnableInvalidOwner","inputs":[{"name":"owner","type":"address","internalType":"address"}]},{"type":"error","name":"OwnableUnauthorizedAccount","inputs":[{"name":"account","type":"address","internalType":"address"}]},{"type":"error","name":"ShutdownTooEarly","inputs":[]},{"type":"error","name":"WrongStatus","inputs":[]},{"type":"error","name":"WrongVaultsOrOrder","inputs":[]}],"bytecode":{"object":"0x60806040526001805461ffff60a01b1916600160a81b1790557fc5d2460186f7233c927e7db2dcc703c0e500b653ca82273b7bfad8045d85a470600255348015604757600080fd5b503380606d57604051631e4fbdf760e01b81526000600482015260240160405180910390fd5b6074816079565b5060c9565b600080546001600160a01b038381166001600160a01b0319831681178455604051919092169283917f8be0079c531659141344cd1fd0a4f28419497f9722a3daafe3b4186f6b6457e09190a35050565b611964806100d86000396000f3fe608060405234801561001057600080fd5b506004361061011b5760003560e01c80638da5cb5b116100b2578063c4d66de811610081578063e87d80b311610066578063e87d80b314610273578063f2fde38b14610286578063fbfa77cf1461029957600080fd5b8063c4d66de814610235578063c713b7ac1461024857600080fd5b80638da5cb5b146101bb578063b69bf537146101fa578063b883d19e14610202578063c39bb8af1461022257600080fd5b806364cb907c116100ee57806364cb907c14610158578063715018a6146101945780637ec215731461019c5780638022bdbd146101b357600080fd5b8063354af919146101205780633b586c7f1461012a578063543bc7661461013d57806359ae340e14610150575b600080fd5b6101286102b9565b005b61012861013836600461123f565b61042a565b61012861014b3660046112df565b6105a9565b6101286107bc565b60015461017e907501000000000000000000000000000000000000000000900460ff1681565b60405161018b9190611362565b60405180910390f35b610128610932565b6101a560025481565b60405190815260200161018b565b610128610946565b60005473ffffffffffffffffffffffffffffffffffffffff165b60405173ffffffffffffffffffffffffffffffffffffffff909116815260200161018b565b610128610a0a565b61020c621a5e0081565b60405164ffffffffff909116815260200161018b565b6101286102303660046113a3565b610b7a565b610128610243366004611449565b610eee565b60015461020c90760100000000000000000000000000000000000000000000900464ffffffffff1681565b61012861028136600461123f565b610f96565b610128610294366004611449565b61110e565b6001546101d59073ffffffffffffffffffffffffffffffffffffffff1681565b6102c1611177565b60026001547501000000000000000000000000000000000000000000900460ff1660038111156102f3576102f3611333565b1461032a576040517f8e78f0cb00000000000000000000000000000000000000000000000000000000815260040160405180910390fd5b600154621a5e009061035d90760100000000000000000000000000000000000000000000900464ffffffffff1642611493565b1015610395576040517f113ea69800000000000000000000000000000000000000000000000000000000815260040160405180910390fd5b6001805464ffffffffff4216760100000000000000000000000000000000000000000000027fffffffffff000000000000ffffffffffffffffffffffffffffffffffffffffff90911617750300000000000000000000000000000000000000000017905560035b60025b6040517f103f4d5a9cc0a1df9d59b49654a5ad6d55f781452aeca93a598a646a9ec3ee6d90600090a3565b610432611177565b600180547501000000000000000000000000000000000000000000900460ff16600381111561046357610463611333565b1461049a576040517f8e78f0cb00000000000000000000000000000000000000000000000000000000815260040160405180910390fd5b8061ffff166000036104d8576040517f9a88ce8400000000000000000000000000000000000000000000000000000000815260040160405180910390fd5b6001546040517f5ab2cef400000000000000000000000000000000000000000000000000000000815261ffff83166004820152600060248201819052604482015273ffffffffffffffffffffffffffffffffffffffff90911690635ab2cef490606401600060405180830381600087803b15801561055557600080fd5b505af1158015610569573d6000803e3d6000fd5b505060405161ffff841681527f95704319ef4b9cab06f0898e050908d5a1abd11dae7ce87e9077c4f9a071a487925060200190505b60405180910390a150565b6105b1611177565b73ffffffffffffffffffffffffffffffffffffffff81166105d157600080fd5b60036001547501000000000000000000000000000000000000000000900460ff16600381111561060357610603611333565b1461063a576040517f8e78f0cb00000000000000000000000000000000000000000000000000000000815260040160405180910390fd5b6001546040517fc7c3d2dc00000000000000000000000000000000000000000000000000000000815260009173ffffffffffffffffffffffffffffffffffffffff169063c7c3d2dc90610695908790879087906004016114ac565b6000604051808303816000875af11580156106b4573d6000803e3d6000fd5b505050506040513d6000823e601f3d9081017fffffffffffffffffffffffffffffffffffffffffffffffffffffffffffffffe01682016040526106fa9190810190611553565b905060005b838110156107b5578484828181106107195761071961163e565b905060200201602081019061072e9190611449565b73ffffffffffffffffffffffffffffffffffffffff168373ffffffffffffffffffffffffffffffffffffffff167fa92ff919b850e4909ab2261d907ef955f11bc1716733a6cbece38d163a69af8a84848151811061078e5761078e61163e565b60200260200101516040516107a591815260200190565b60405180910390a36001016106ff565b5050505050565b6107c4611177565b60026001547501000000000000000000000000000000000000000000900460ff1660038111156107f6576107f6611333565b1461082d576040517f8e78f0cb00000000000000000000000000000000000000000000000000000000815260040160405180910390fd5b6001805464ffffffffff4216760100000000000000000000000000000000000000000000027fffffffffff000000000000ffffffffffffffffffffffffffffffffffffffffff821681177501000000000000000000000000000000000000000000179092556040517f5ab2cef400000000000000000000000000000000000000000000000000000000815260006004820181905260248201819052604482015273ffffffffffffffffffffffffffffffffffffffff928316929091169190911790635ab2cef490606401600060405180830381600087803b15801561091157600080fd5b505af1158015610925573d6000803e3d6000fd5b50600192506103fc915050565b61093a611177565b61094460006111ca565b565b61094e611177565b600180547501000000000000000000000000000000000000000000900460ff16600381111561097f5761097f611333565b146109b6576040517f8e78f0cb00000000000000000000000000000000000000000000000000000000815260040160405180910390fd5b600180547fffffffffff000000000000ffffffffffffffffffffffffffffffffffffffffff167601000000000000000000000000000000000000000000004264ffffffffff160217905560005b60016103ff565b610a12611177565b600180547501000000000000000000000000000000000000000000900460ff166003811115610a4357610a43611333565b14610a7a576040517f8e78f0cb00000000000000000000000000000000000000000000000000000000815260040160405180910390fd5b6001805464ffffffffff4216760100000000000000000000000000000000000000000000027fffffffffff000000000000ffffffffffffffffffffffffffffffffffffffffff8216811775020000000000000000000000000000000000000000001783556040517f5ab2cef40000000000000000000000000000000000000000000000000000000081526000600482018190526024820152604481019390935273ffffffffffffffffffffffffffffffffffffffff90811691161790635ab2cef490606401600060405180830381600087803b158015610b5957600080fd5b505af1158015610b6d573d6000803e3d6000fd5b5060029250610a03915050565b610b82611177565b82818114610bbc576040517ffc23596000000000000000000000000000000000000000000000000000000000815260040160405180910390fd5b8686604051602001610bcf929190611683565b6040516020818303038152906040528051906020012060025414610c1f576040517fa769a9a100000000000000000000000000000000000000000000000000000000815260040160405180910390fd5b60008060005b83811015610dbd57858582818110610c3f57610c3f61163e565b9050602002016020810190610c5491906116d3565b60ff16600003610c90576040517f9a88ce8400000000000000000000000000000000000000000000000000000000815260040160405180910390fd5b858582818110610ca257610ca261163e565b9050602002016020810190610cb791906116d3565b610cc49060ff16846116ee565b92506002868683818110610cda57610cda61163e565b9050602002016020810190610cef91906116d3565b60ff16610cfc919061182b565b610d06908361183a565b9150600081118015610d7e57508787610d20600184611493565b818110610d2f57610d2f61163e565b9050602002016020810190610d44919061184d565b65ffffffffffff16888883818110610d5e57610d5e61163e565b9050602002016020810190610d73919061184d565b65ffffffffffff1611155b15610db5576040517fa769a9a100000000000000000000000000000000000000000000000000000000815260040160405180910390fd5b600101610c25565b50610dca600260ff61182b565b811115610e03576040517f25541a6a00000000000000000000000000000000000000000000000000000000815260040160405180910390fd5b6001546040517fbb147c5400000000000000000000000000000000000000000000000000000000815273ffffffffffffffffffffffffffffffffffffffff9091169063bb147c5490610e65908c908c908c908c908c908c908b906004016118af565b600060405180830381600087803b158015610e7f57600080fd5b505af1158015610e93573d6000803e3d6000fd5b505050508686604051602001610eaa929190611683565b604080517fffffffffffffffffffffffffffffffffffffffffffffffffffffffffffffffe08184030181529190528051602090910120600255505050505050505050565b60015474010000000000000000000000000000000000000000900460ff16158015610f30575060005473ffffffffffffffffffffffffffffffffffffffff1633145b610f3957600080fd5b600180547fffffffffffffffffffffff0000000000000000000000000000000000000000001673ffffffffffffffffffffffffffffffffffffffff9092169190911774010000000000000000000000000000000000000000179055565b610f9e611177565b600180547501000000000000000000000000000000000000000000900460ff166003811115610fcf57610fcf611333565b14611006576040517f8e78f0cb00000000000000000000000000000000000000000000000000000000815260040160405180910390fd5b8061ffff16600003611044576040517f9a88ce8400000000000000000000000000000000000000000000000000000000815260040160405180910390fd5b6001546040517f5ab2cef400000000000000000000000000000000000000000000000000000000815260006004820181905261ffff84166024830152604482015273ffffffffffffffffffffffffffffffffffffffff90911690635ab2cef490606401600060405180830381600087803b1580156110c157600080fd5b505af11580156110d5573d6000803e3d6000fd5b505060405161ffff841681527f8bd9272b06d32ab4fd67d0e6939cb87de8913931cf97fd236317cc8d3273958d9250602001905061059e565b611116611177565b73ffffffffffffffffffffffffffffffffffffffff811661116b576040517f1e4fbdf7000000000000000000000000000000000000000000000000000000008152600060048201526024015b60405180910390fd5b611174816111ca565b50565b60005473ffffffffffffffffffffffffffffffffffffffff163314610944576040517f118cdaa7000000000000000000000000000000000000000000000000000000008152336004820152602401611162565b6000805473ffffffffffffffffffffffffffffffffffffffff8381167fffffffffffffffffffffffff0000000000000000000000000000000000000000831681178455604051919092169283917f8be0079c531659141344cd1fd0a4f28419497f9722a3daafe3b4186f6b6457e09190a35050565b60006020828403121561125157600080fd5b813561ffff8116811461126357600080fd5b9392505050565b60008083601f84011261127c57600080fd5b50813567ffffffffffffffff81111561129457600080fd5b6020830191508360208260051b85010111156112af57600080fd5b9250929050565b803573ffffffffffffffffffffffffffffffffffffffff811681146112da57600080fd5b919050565b6000806000604084860312156112f457600080fd5b833567ffffffffffffffff81111561130b57600080fd5b6113178682870161126a565b909450925061132a9050602085016112b6565b90509250925092565b7f4e487b7100000000000000000000000000000000000000000000000000000000600052602160045260246000fd5b602081016004831061139d577f4e487b7100000000000000000000000000000000000000000000000000000000600052602160045260246000fd5b91905290565b600080600080600080606087890312156113bc57600080fd5b863567ffffffffffffffff8111156113d357600080fd5b6113df89828a0161126a565b909750955050602087013567ffffffffffffffff8111156113ff57600080fd5b61140b89828a0161126a565b909550935050604087013567ffffffffffffffff81111561142b57600080fd5b61143789828a0161126a565b979a9699509497509295939492505050565b60006020828403121561145b57600080fd5b611263826112b6565b7f4e487b7100000000000000000000000000000000000000000000000000000000600052601160045260246000fd5b818103818111156114a6576114a6611464565b92915050565b6040808252810183905260008460608301825b868110156114fa5773ffffffffffffffffffffffffffffffffffffffff6114e5846112b6565b168252602092830192909101906001016114bf565b50809250505073ffffffffffffffffffffffffffffffffffffffff83166020830152949350505050565b7f4e487b7100000000000000000000000000000000000000000000000000000000600052604160045260246000fd5b60006020828403121561156557600080fd5b815167ffffffffffffffff81111561157c57600080fd5b8201601f8101841361158d57600080fd5b805167ffffffffffffffff8111156115a7576115a7611524565b8060051b6040517fffffffffffffffffffffffffffffffffffffffffffffffffffffffffffffffe0603f830116810181811067ffffffffffffffff821117156115f2576115f2611524565b60405291825260208184018101929081018784111561161057600080fd5b6020850194505b8385101561163357845180825260209586019590935001611617565b509695505050505050565b7f4e487b7100000000000000000000000000000000000000000000000000000000600052603260045260246000fd5b803565ffffffffffff811681146112da57600080fd5b60008184825b858110156116b75765ffffffffffff6116a18361166d565b1683526020928301929190910190600101611689565b509095945050505050565b803560ff811681146112da57600080fd5b6000602082840312156116e557600080fd5b611263826116c2565b61ffff81811683821601908111156114a6576114a6611464565b6001815b60018411156117435780850481111561172757611727611464565b600184161561173557908102905b60019390931c92800261170c565b935093915050565b60008261175a575060016114a6565b81611767575060006114a6565b816001811461177d5760028114611787576117a3565b60019150506114a6565b60ff84111561179857611798611464565b50506001821b6114a6565b5060208310610133831016604e8410600b84101617156117c6575081810a6114a6565b6117f17fffffffffffffffffffffffffffffffffffffffffffffffffffffffffffffffff8484611708565b807fffffffffffffffffffffffffffffffffffffffffffffffffffffffffffffffff0482111561182357611823611464565b029392505050565b600061126360ff84168361174b565b808201808211156114a6576114a6611464565b60006020828403121561185f57600080fd5b6112638261166d565b81835260208301925060008160005b848110156118a55765ffffffffffff61188f8361166d565b1686526020958601959190910190600101611877565b5093949350505050565b6080815260006118c360808301898b611868565b82810360208401526118d681888a611868565b838103604085015285815286915060200160005b868110156119125760ff6118fd846116c2565b168252602092830192909101906001016118ea565b50809250505061ffff831660608301529897505050505050505056fea2646970667358221220014b17c10cae85ae3a952146ef777be871b50c0ac7a15ca7c497f514f047456a64736f6c634300081c0033","linkReferences":{}},"methodIdentifiers":{"SHUTDOWN_WITHDRAWAL_DELAY()":"b883d19e","exitBeta()":"8022bdbd","hashActiveVaults()":"7ec21573","haultMinting()":"b69bf537","initialize(address)":"c4d66de8","owner()":"8da5cb5b","renounceOwnership()":"715018a6","resumeMinting()":"59ae340e","saveFunds(address[],address)":"543bc766","setBaseFee(uint16)":"3b586c7f","setLPFee(uint16)":"e87d80b3","shutdownSystem()":"354af919","systemStatus()":"64cb907c","timestampStatusChanged()":"c713b7ac","transferOwnership(address)":"f2fde38b","updateVaultsIssuances(uint48[],uint48[],uint8[])":"c39bb8af","vault()":"fbfa77cf"},"id":50}