{"abi":[{"type":"function","name":"SHUTDOWN_WITHDRAWAL_DELAY","inputs":[],"outputs":[{"name":"","type":"uint40","internalType":"uint40"}],"stateMutability":"view"},{"type":"function","name":"exitBeta","inputs":[],"outputs":[],"stateMutability":"nonpayable"},{"type":"function","name":"hashActiveVaults","inputs":[],"outputs":[{"name":"","type":"bytes32","internalType":"bytes32"}],"stateMutability":"view"},{"type":"function","name":"haultMinting","inputs":[],"outputs":[],"stateMutability":"nonpayable"},{"type":"function","name":"initialize","inputs":[{"name":"vault_","type":"address","internalType":"address"}],"outputs":[],"stateMutability":"nonpayable"},{"type":"function","name":"owner","inputs":[],"outputs":[{"name":"","type":"address","internalType":"address"}],"stateMutability":"view"},{"type":"function","name":"renounceOwnership","inputs":[],"outputs":[],"stateMutability":"nonpayable"},{"type":"function","name":"resumeMinting","inputs":[],"outputs":[],"stateMutability":"nonpayable"},{"type":"function","name":"saveFunds","inputs":[{"name":"tokens","type":"address[]","internalType":"address[]"},{"name":"to","type":"address","internalType":"address"}],"outputs":[],"stateMutability":"nonpayable"},{"type":"function","name":"setBaseFee","inputs":[{"name":"baseFee_","type":"uint16","internalType":"uint16"}],"outputs":[],"stateMutability":"nonpayable"},{"type":"function","name":"setLPFee","inputs":[{"name":"lpFee_","type":"uint16","internalType":"uint16"}],"outputs":[],"stateMutability":"nonpayable"},{"type":"function","name":"shutdownSystem","inputs":[],"outputs":[],"stateMutability":"nonpayable"},{"type":"function","name":"systemStatus","inputs":[],"outputs":[{"name":"","type":"uint8","internalType":"enum SystemControl.SystemStatus"}],"stateMutability":"view"},{"type":"function","name":"timestampStatusChanged","inputs":[],"outputs":[{"name":"","type":"uint40","internalType":"uint40"}],"stateMutability":"view"},{"type":"function","name":"transferOwnership","inputs":[{"name":"newOwner","type":"address","internalType":"address"}],"outputs":[],"stateMutability":"nonpayable"},{"type":"function","name":"updateVaultsIssuances","inputs":[{"name":"oldVaults","type":"uint48[]","internalType":"uint48[]"},{"name":"newVaults","type":"uint48[]","internalType":"uint48[]"},{"name":"newTaxes","type":"uint8[]","internalType":"uint8[]"}],"outputs":[],"stateMutability":"nonpayable"},{"type":"function","name":"vault","inputs":[],"outputs":[{"name":"","type":"address","internalType":"contract Vault"}],"stateMutability":"view"},{"type":"event","name":"FundsWithdrawn","inputs":[{"name":"to","type":"address","indexed":true,"internalType":"address"},{"name":"token","type":"address","indexed":true,"internalType":"address"},{"name":"amount","type":"uint256","indexed":false,"internalType":"uint256"}],"anonymous":false},{"type":"event","name":"NewBaseFee","inputs":[{"name":"baseFee","type":"uint16","indexed":false,"internalType":"uint16"}],"anonymous":false},{"type":"event","name":"NewLPFee","inputs":[{"name":"lpFee","type":"uint16","indexed":false,"internalType":"uint16"}],"anonymous":false},{"type":"event","name":"OwnershipTransferred","inputs":[{"name":"previousOwner","type":"address","indexed":true,"internalType":"address"},{"name":"newOwner","type":"address","indexed":true,"internalType":"address"}],"anonymous":false},{"type":"event","name":"SystemStatusChanged","inputs":[{"name":"oldStatus","type":"uint8","indexed":true,"internalType":"enum SystemControl.SystemStatus"},{"name":"newStatus","type":"uint8","indexed":true,"internalType":"enum SystemControl.SystemStatus"}],"anonymous":false},{"type":"event","name":"TreasuryFeesWithdrawn","inputs":[{"name":"vaultId","type":"uint48","indexed":true,"internalType":"uint48"},{"name":"collateralToken","type":"address","indexed":true,"internalType":"address"},{"name":"amount","type":"uint256","indexed":false,"internalType":"uint256"}],"anonymous":false},{"type":"error","name":"ArraysLengthMismatch","inputs":[]},{"type":"error","name":"FeeCannotBeZero","inputs":[]},{"type":"error","name":"NewTaxesTooHigh","inputs":[]},{"type":"error","name":"ShutdownTooEarly","inputs":[]},{"type":"error","name":"WrongStatus","inputs":[]},{"type":"error","name":"WrongVaultsOrOrder","inputs":[]}],"bytecode":{"object":"0x60806040526001805461ffff60a01b1916600160a81b1790557fc5d2460186f7233c927e7db2dcc703c0e500b653ca82273b7bfad8045d85a470600255348015604757600080fd5b50604f336053565b60a3565b600080546001600160a01b038381166001600160a01b0319831681178455604051919092169283917f8be0079c531659141344cd1fd0a4f28419497f9722a3daafe3b4186f6b6457e09190a35050565b611d75806100b26000396000f3fe608060405234801561001057600080fd5b506004361061011b5760003560e01c80638da5cb5b116100b2578063c4d66de811610081578063e87d80b311610066578063e87d80b314610273578063f2fde38b14610286578063fbfa77cf1461029957600080fd5b8063c4d66de814610235578063c713b7ac1461024857600080fd5b80638da5cb5b146101bb578063b69bf537146101fa578063b883d19e14610202578063c39bb8af1461022257600080fd5b806364cb907c116100ee57806364cb907c14610158578063715018a6146101945780637ec215731461019c5780638022bdbd146101b357600080fd5b8063354af919146101205780633b586c7f1461012a578063543bc7661461013d57806359ae340e14610150575b600080fd5b6101286102b9565b005b6101286101383660046115ba565b61042a565b61012861014b366004611653565b61064a565b61012861085d565b60015461017e907501000000000000000000000000000000000000000000900460ff1681565b60405161018b91906116d6565b60405180910390f35b610128610a14565b6101a560025481565b60405190815260200161018b565b610128610a28565b60005473ffffffffffffffffffffffffffffffffffffffff165b60405173ffffffffffffffffffffffffffffffffffffffff909116815260200161018b565b610128610aea565b61020c621a5e0081565b60405164ffffffffff909116815260200161018b565b610128610230366004611717565b610dc8565b6101286102433660046117bd565b61113c565b60015461020c90760100000000000000000000000000000000000000000000900464ffffffffff1681565b6101286102813660046115ba565b6111e4565b6101286102943660046117bd565b6113f8565b6001546101d59073ffffffffffffffffffffffffffffffffffffffff1681565b6102c16114b4565b60026001547501000000000000000000000000000000000000000000900460ff1660038111156102f3576102f36116a7565b1461032a576040517f8e78f0cb00000000000000000000000000000000000000000000000000000000815260040160405180910390fd5b600154621a5e009061035d90760100000000000000000000000000000000000000000000900464ffffffffff1642611807565b1015610395576040517f113ea69800000000000000000000000000000000000000000000000000000000815260040160405180910390fd5b6001805464ffffffffff4216760100000000000000000000000000000000000000000000027fffffffffff000000000000ffffffffffffffffffffffffffffffffffffffffff90911617750300000000000000000000000000000000000000000017905560035b60025b6040517f103f4d5a9cc0a1df9d59b49654a5ad6d55f781452aeca93a598a646a9ec3ee6d90600090a3565b6104326114b4565b600180547501000000000000000000000000000000000000000000900460ff166003811115610463576104636116a7565b1461049a576040517f8e78f0cb00000000000000000000000000000000000000000000000000000000815260040160405180910390fd5b8061ffff166000036104d8576040517f9a88ce8400000000000000000000000000000000000000000000000000000000815260040160405180910390fd5b600154604080517f458e8e6b000000000000000000000000000000000000000000000000000000008152905173ffffffffffffffffffffffffffffffffffffffff90921691600091839163458e8e6b916004808201926080929091908290030181865afa15801561054d573d6000803e3d6000fd5b505050506040513d601f19601f82011682018060405250810190610571919061189e565b60208101516040517f5ab2cef400000000000000000000000000000000000000000000000000000000815261ffff808716600483015290911660248201526000604482015290915073ffffffffffffffffffffffffffffffffffffffff831690635ab2cef490606401600060405180830381600087803b1580156105f457600080fd5b505af1158015610608573d6000803e3d6000fd5b505060405161ffff861681527f95704319ef4b9cab06f0898e050908d5a1abd11dae7ce87e9077c4f9a071a487925060200190505b60405180910390a1505050565b6106526114b4565b73ffffffffffffffffffffffffffffffffffffffff811661067257600080fd5b60036001547501000000000000000000000000000000000000000000900460ff1660038111156106a4576106a46116a7565b146106db576040517f8e78f0cb00000000000000000000000000000000000000000000000000000000815260040160405180910390fd5b6001546040517fc7c3d2dc00000000000000000000000000000000000000000000000000000000815260009173ffffffffffffffffffffffffffffffffffffffff169063c7c3d2dc906107369087908790879060040161192a565b6000604051808303816000875af1158015610755573d6000803e3d6000fd5b505050506040513d6000823e601f3d9081017fffffffffffffffffffffffffffffffffffffffffffffffffffffffffffffffe016820160405261079b91908101906119a2565b905060005b83811015610856578484828181106107ba576107ba611a4f565b90506020020160208101906107cf91906117bd565b73ffffffffffffffffffffffffffffffffffffffff168373ffffffffffffffffffffffffffffffffffffffff167fa92ff919b850e4909ab2261d907ef955f11bc1716733a6cbece38d163a69af8a84848151811061082f5761082f611a4f565b602002602001015160405161084691815260200190565b60405180910390a36001016107a0565b5050505050565b6108656114b4565b60026001547501000000000000000000000000000000000000000000900460ff166003811115610897576108976116a7565b146108ce576040517f8e78f0cb00000000000000000000000000000000000000000000000000000000815260040160405180910390fd5b6001805464ffffffffff4216760100000000000000000000000000000000000000000000027fffffffffff000000000000ffffffffffffffffffffffffffffffffffffffffff82168117750100000000000000000000000000000000000000000017928390556040517f5ab2cef400000000000000000000000000000000000000000000000000000000815261ffff7b010000000000000000000000000000000000000000000000000000008504811660048301527d01000000000000000000000000000000000000000000000000000000000090940490931660248401526000604484015273ffffffffffffffffffffffffffffffffffffffff90811691161790635ab2cef490606401600060405180830381600087803b1580156109f357600080fd5b505af1158015610a07573d6000803e3d6000fd5b50600192506103fc915050565b610a1c6114b4565b610a266000611535565b565b610a306114b4565b600180547501000000000000000000000000000000000000000000900460ff166003811115610a6157610a616116a7565b14610a98576040517f8e78f0cb00000000000000000000000000000000000000000000000000000000815260040160405180910390fd5b600180547fffffffffff000000000000ffffffffffffffffffffffffffffffffffffffffff167601000000000000000000000000000000000000000000004264ffffffffff16021781556000906103ff565b610af26114b4565b600180547501000000000000000000000000000000000000000000900460ff166003811115610b2357610b236116a7565b14610b5a576040517f8e78f0cb00000000000000000000000000000000000000000000000000000000815260040160405180910390fd5b600180547fffffffffff000000000000ffffffffffffffffffffffffffffffffffffffffff81167601000000000000000000000000000000000000000000004264ffffffffff1602908117750200000000000000000000000000000000000000000017909255604080517f458e8e6b000000000000000000000000000000000000000000000000000000008152905173ffffffffffffffffffffffffffffffffffffffff928316929093169190911791600091839163458e8e6b916004808201926080929091908290030181865afa158015610c3a573d6000803e3d6000fd5b505050506040513d601f19601f82011682018060405250810190610c5e919061189e565b805160018054602084015161ffff9081167d010000000000000000000000000000000000000000000000000000000000027fff0000ffffffffffffffffffffffffffffffffffffffffffffffffffffffffff919094167b0100000000000000000000000000000000000000000000000000000002167fff00000000ffffffffffffffffffffffffffffffffffffffffffffffffffffff909116179190911781556040517f5ab2cef40000000000000000000000000000000000000000000000000000000081526000600482018190526024820152604481019190915290915073ffffffffffffffffffffffffffffffffffffffff831690635ab2cef490606401600060405180830381600087803b158015610d7857600080fd5b505af1158015610d8c573d6000803e3d6000fd5b5060029250610d99915050565b60016040517f103f4d5a9cc0a1df9d59b49654a5ad6d55f781452aeca93a598a646a9ec3ee6d90600090a35050565b610dd06114b4565b82818114610e0a576040517ffc23596000000000000000000000000000000000000000000000000000000000815260040160405180910390fd5b8686604051602001610e1d929190611a94565b6040516020818303038152906040528051906020012060025414610e6d576040517fa769a9a100000000000000000000000000000000000000000000000000000000815260040160405180910390fd5b60008060005b8381101561100b57858582818110610e8d57610e8d611a4f565b9050602002016020810190610ea29190611ae4565b60ff16600003610ede576040517f9a88ce8400000000000000000000000000000000000000000000000000000000815260040160405180910390fd5b858582818110610ef057610ef0611a4f565b9050602002016020810190610f059190611ae4565b610f129060ff1684611aff565b92506002868683818110610f2857610f28611a4f565b9050602002016020810190610f3d9190611ae4565b60ff16610f4a9190611c3c565b610f549083611c4b565b9150600081118015610fcc57508787610f6e600184611807565b818110610f7d57610f7d611a4f565b9050602002016020810190610f929190611c5e565b65ffffffffffff16888883818110610fac57610fac611a4f565b9050602002016020810190610fc19190611c5e565b65ffffffffffff1611155b15611003576040517fa769a9a100000000000000000000000000000000000000000000000000000000815260040160405180910390fd5b600101610e73565b50611018600260ff611c3c565b811115611051576040517f25541a6a00000000000000000000000000000000000000000000000000000000815260040160405180910390fd5b6001546040517fbb147c5400000000000000000000000000000000000000000000000000000000815273ffffffffffffffffffffffffffffffffffffffff9091169063bb147c54906110b3908c908c908c908c908c908c908b90600401611cc0565b600060405180830381600087803b1580156110cd57600080fd5b505af11580156110e1573d6000803e3d6000fd5b5050505086866040516020016110f8929190611a94565b604080517fffffffffffffffffffffffffffffffffffffffffffffffffffffffffffffffe08184030181529190528051602090910120600255505050505050505050565b60015474010000000000000000000000000000000000000000900460ff1615801561117e575060005473ffffffffffffffffffffffffffffffffffffffff1633145b61118757600080fd5b600180547fffffffffffffffffffffff0000000000000000000000000000000000000000001673ffffffffffffffffffffffffffffffffffffffff9092169190911774010000000000000000000000000000000000000000179055565b6111ec6114b4565b600180547501000000000000000000000000000000000000000000900460ff16600381111561121d5761121d6116a7565b14611254576040517f8e78f0cb00000000000000000000000000000000000000000000000000000000815260040160405180910390fd5b8061ffff16600003611292576040517f9a88ce8400000000000000000000000000000000000000000000000000000000815260040160405180910390fd5b600154604080517f458e8e6b000000000000000000000000000000000000000000000000000000008152905173ffffffffffffffffffffffffffffffffffffffff90921691600091839163458e8e6b916004808201926080929091908290030181865afa158015611307573d6000803e3d6000fd5b505050506040513d601f19601f8201168201806040525081019061132b919061189e565b80516040517f5ab2cef400000000000000000000000000000000000000000000000000000000815261ffff918216600482015290851660248201526000604482015290915073ffffffffffffffffffffffffffffffffffffffff831690635ab2cef490606401600060405180830381600087803b1580156113ab57600080fd5b505af11580156113bf573d6000803e3d6000fd5b505060405161ffff861681527f8bd9272b06d32ab4fd67d0e6939cb87de8913931cf97fd236317cc8d3273958d9250602001905061063d565b6114006114b4565b73ffffffffffffffffffffffffffffffffffffffff81166114a8576040517f08c379a000000000000000000000000000000000000000000000000000000000815260206004820152602660248201527f4f776e61626c653a206e6577206f776e657220697320746865207a65726f206160448201527f646472657373000000000000000000000000000000000000000000000000000060648201526084015b60405180910390fd5b6114b181611535565b50565b60005473ffffffffffffffffffffffffffffffffffffffff163314610a26576040517f08c379a000000000000000000000000000000000000000000000000000000000815260206004820181905260248201527f4f776e61626c653a2063616c6c6572206973206e6f7420746865206f776e6572604482015260640161149f565b6000805473ffffffffffffffffffffffffffffffffffffffff8381167fffffffffffffffffffffffff0000000000000000000000000000000000000000831681178455604051919092169283917f8be0079c531659141344cd1fd0a4f28419497f9722a3daafe3b4186f6b6457e09190a35050565b61ffff811681146114b157600080fd5b6000602082840312156115cc57600080fd5b81356115d7816115aa565b9392505050565b60008083601f8401126115f057600080fd5b50813567ffffffffffffffff81111561160857600080fd5b6020830191508360208260051b850101111561162357600080fd5b9250929050565b803573ffffffffffffffffffffffffffffffffffffffff8116811461164e57600080fd5b919050565b60008060006040848603121561166857600080fd5b833567ffffffffffffffff81111561167f57600080fd5b61168b868287016115de565b909450925061169e90506020850161162a565b90509250925092565b7f4e487b7100000000000000000000000000000000000000000000000000000000600052602160045260246000fd5b6020810160048310611711577f4e487b7100000000000000000000000000000000000000000000000000000000600052602160045260246000fd5b91905290565b6000806000806000806060878903121561173057600080fd5b863567ffffffffffffffff81111561174757600080fd5b61175389828a016115de565b909750955050602087013567ffffffffffffffff81111561177357600080fd5b61177f89828a016115de565b909550935050604087013567ffffffffffffffff81111561179f57600080fd5b6117ab89828a016115de565b979a9699509497509295939492505050565b6000602082840312156117cf57600080fd5b6115d78261162a565b7f4e487b7100000000000000000000000000000000000000000000000000000000600052601160045260246000fd5b8181038181111561181a5761181a6117d8565b92915050565b7f4e487b7100000000000000000000000000000000000000000000000000000000600052604160045260246000fd5b604051601f82017fffffffffffffffffffffffffffffffffffffffffffffffffffffffffffffffe016810167ffffffffffffffff8111828210171561189657611896611820565b604052919050565b600060808284031280156118b157600080fd5b506040516080810167ffffffffffffffff811182821017156118d5576118d5611820565b60405282516118e3816115aa565b815260208301516118f3816115aa565b60208201526040830151801515811461190b57600080fd5b6040820152606083015161191e816115aa565b60608201529392505050565b6040808252810183905260008460608301825b868110156119785773ffffffffffffffffffffffffffffffffffffffff6119638461162a565b1682526020928301929091019060010161193d565b50809250505073ffffffffffffffffffffffffffffffffffffffff83166020830152949350505050565b6000602082840312156119b457600080fd5b815167ffffffffffffffff8111156119cb57600080fd5b8201601f810184136119dc57600080fd5b805167ffffffffffffffff8111156119f6576119f6611820565b8060051b611a066020820161184f565b91825260208184018101929081019087841115611a2257600080fd5b6020850194505b83851015611a44578451825260209485019490910190611a29565b979650505050505050565b7f4e487b7100000000000000000000000000000000000000000000000000000000600052603260045260246000fd5b803565ffffffffffff8116811461164e57600080fd5b60008184825b85811015611ac85765ffffffffffff611ab283611a7e565b1683526020928301929190910190600101611a9a565b509095945050505050565b803560ff8116811461164e57600080fd5b600060208284031215611af657600080fd5b6115d782611ad3565b61ffff818116838216019081111561181a5761181a6117d8565b6001815b6001841115611b5457808504811115611b3857611b386117d8565b6001841615611b4657908102905b60019390931c928002611b1d565b935093915050565b600082611b6b5750600161181a565b81611b785750600061181a565b8160018114611b8e5760028114611b9857611bb4565b600191505061181a565b60ff841115611ba957611ba96117d8565b50506001821b61181a565b5060208310610133831016604e8410600b8410161715611bd7575081810a61181a565b611c027fffffffffffffffffffffffffffffffffffffffffffffffffffffffffffffffff8484611b19565b807fffffffffffffffffffffffffffffffffffffffffffffffffffffffffffffffff04821115611c3457611c346117d8565b029392505050565b60006115d760ff841683611b5c565b8082018082111561181a5761181a6117d8565b600060208284031215611c7057600080fd5b6115d782611a7e565b81835260208301925060008160005b84811015611cb65765ffffffffffff611ca083611a7e565b1686526020958601959190910190600101611c88565b5093949350505050565b608081526000611cd460808301898b611c79565b8281036020840152611ce781888a611c79565b838103604085015285815286915060200160005b86811015611d235760ff611d0e84611ad3565b16825260209283019290910190600101611cfb565b50809250505061ffff831660608301529897505050505050505056fea2646970667358221220d599addf2fa6dd752dc05354143b3ba24efaf981f018f711beb1b52bcb1b7bf764736f6c634300081a0033","linkReferences":{}},"methodIdentifiers":{"SHUTDOWN_WITHDRAWAL_DELAY()":"b883d19e","exitBeta()":"8022bdbd","hashActiveVaults()":"7ec21573","haultMinting()":"b69bf537","initialize(address)":"c4d66de8","owner()":"8da5cb5b","renounceOwnership()":"715018a6","resumeMinting()":"59ae340e","saveFunds(address[],address)":"543bc766","setBaseFee(uint16)":"3b586c7f","setLPFee(uint16)":"e87d80b3","shutdownSystem()":"354af919","systemStatus()":"64cb907c","timestampStatusChanged()":"c713b7ac","transferOwnership(address)":"f2fde38b","updateVaultsIssuances(uint48[],uint48[],uint8[])":"c39bb8af","vault()":"fbfa77cf"},"id":81}