{"abi":[{"type":"function","name":"SHUTDOWN_WITHDRAWAL_DELAY","inputs":[],"outputs":[{"name":"","type":"uint40","internalType":"uint40"}],"stateMutability":"view"},{"type":"function","name":"exitBeta","inputs":[],"outputs":[],"stateMutability":"nonpayable"},{"type":"function","name":"hashActiveVaults","inputs":[],"outputs":[{"name":"","type":"bytes32","internalType":"bytes32"}],"stateMutability":"view"},{"type":"function","name":"haultMinting","inputs":[],"outputs":[],"stateMutability":"nonpayable"},{"type":"function","name":"initialize","inputs":[{"name":"vault_","type":"address","internalType":"address"}],"outputs":[],"stateMutability":"nonpayable"},{"type":"function","name":"owner","inputs":[],"outputs":[{"name":"","type":"address","internalType":"address"}],"stateMutability":"view"},{"type":"function","name":"renounceOwnership","inputs":[],"outputs":[],"stateMutability":"nonpayable"},{"type":"function","name":"resumeMinting","inputs":[],"outputs":[],"stateMutability":"nonpayable"},{"type":"function","name":"saveFunds","inputs":[{"name":"tokens","type":"address[]","internalType":"address[]"},{"name":"to","type":"address","internalType":"address"}],"outputs":[],"stateMutability":"nonpayable"},{"type":"function","name":"setBaseFee","inputs":[{"name":"baseFee_","type":"uint16","internalType":"uint16"}],"outputs":[],"stateMutability":"nonpayable"},{"type":"function","name":"setLPFee","inputs":[{"name":"lpFee_","type":"uint16","internalType":"uint16"}],"outputs":[],"stateMutability":"nonpayable"},{"type":"function","name":"shutdownSystem","inputs":[],"outputs":[],"stateMutability":"nonpayable"},{"type":"function","name":"systemStatus","inputs":[],"outputs":[{"name":"","type":"uint8","internalType":"enum SystemControl.SystemStatus"}],"stateMutability":"view"},{"type":"function","name":"transferOwnership","inputs":[{"name":"newOwner","type":"address","internalType":"address"}],"outputs":[],"stateMutability":"nonpayable"},{"type":"function","name":"tsStatusChanged","inputs":[],"outputs":[{"name":"","type":"uint40","internalType":"uint40"}],"stateMutability":"view"},{"type":"function","name":"updateVaultsIssuances","inputs":[{"name":"oldVaults","type":"uint48[]","internalType":"uint48[]"},{"name":"newVaults","type":"uint48[]","internalType":"uint48[]"},{"name":"newTaxes","type":"uint8[]","internalType":"uint8[]"}],"outputs":[],"stateMutability":"nonpayable"},{"type":"function","name":"vault","inputs":[],"outputs":[{"name":"","type":"address","internalType":"contract Vault"}],"stateMutability":"view"},{"type":"event","name":"FundsWithdrawn","inputs":[{"name":"to","type":"address","indexed":true,"internalType":"address"},{"name":"token","type":"address","indexed":true,"internalType":"address"},{"name":"amount","type":"uint256","indexed":false,"internalType":"uint256"}],"anonymous":false},{"type":"event","name":"NewBaseFee","inputs":[{"name":"baseFee","type":"uint16","indexed":false,"internalType":"uint16"}],"anonymous":false},{"type":"event","name":"NewLPFee","inputs":[{"name":"lpFee","type":"uint16","indexed":false,"internalType":"uint16"}],"anonymous":false},{"type":"event","name":"OwnershipTransferred","inputs":[{"name":"previousOwner","type":"address","indexed":true,"internalType":"address"},{"name":"newOwner","type":"address","indexed":true,"internalType":"address"}],"anonymous":false},{"type":"event","name":"SystemStatusChanged","inputs":[{"name":"oldStatus","type":"uint8","indexed":true,"internalType":"enum SystemControl.SystemStatus"},{"name":"newStatus","type":"uint8","indexed":true,"internalType":"enum SystemControl.SystemStatus"}],"anonymous":false},{"type":"event","name":"TreasuryFeesWithdrawn","inputs":[{"name":"vaultId","type":"uint48","indexed":true,"internalType":"uint48"},{"name":"collateralToken","type":"address","indexed":true,"internalType":"address"},{"name":"amount","type":"uint256","indexed":false,"internalType":"uint256"}],"anonymous":false},{"type":"error","name":"ArraysLengthMismatch","inputs":[]},{"type":"error","name":"FeeCannotBeZero","inputs":[]},{"type":"error","name":"NewTaxesTooHigh","inputs":[]},{"type":"error","name":"ShutdownTooEarly","inputs":[]},{"type":"error","name":"WrongStatus","inputs":[]},{"type":"error","name":"WrongVaultsOrOrder","inputs":[]}],"bytecode":{"object":"0x60806040526001805461ffff60a01b1916600160a81b1790557fc5d2460186f7233c927e7db2dcc703c0e500b653ca82273b7bfad8045d85a47060025534801561004857600080fd5b5061005233610057565b6100a7565b600080546001600160a01b038381166001600160a01b0319831681178455604051919092169283917f8be0079c531659141344cd1fd0a4f28419497f9722a3daafe3b4186f6b6457e09190a35050565b611da7806100b66000396000f3fe608060405234801561001057600080fd5b506004361061011b5760003560e01c80638022bdbd116100b2578063c39bb8af11610081578063e87d80b311610066578063e87d80b31461026f578063f2fde38b14610282578063fbfa77cf1461029557600080fd5b8063c39bb8af14610249578063c4d66de81461025c57600080fd5b80638022bdbd146101f05780638da5cb5b146101f8578063b69bf53714610237578063b883d19e1461023f57600080fd5b806360bc9381116100ee57806360bc93811461015857806364cb907c1461019e578063715018a6146101d15780637ec21573146101d957600080fd5b8063354af919146101205780633b586c7f1461012a578063543bc7661461013d57806359ae340e14610150575b600080fd5b6101286102b5565b005b6101286101383660046115c6565b610426565b61012861014b36600461165f565b610646565b610128610861565b60015461018390760100000000000000000000000000000000000000000000900464ffffffffff1681565b60405164ffffffffff90911681526020015b60405180910390f35b6001546101c4907501000000000000000000000000000000000000000000900460ff1681565b60405161019591906116e2565b610128610a18565b6101e260025481565b604051908152602001610195565b610128610a2c565b60005473ffffffffffffffffffffffffffffffffffffffff165b60405173ffffffffffffffffffffffffffffffffffffffff9091168152602001610195565b610128610aee565b610183621a5e0081565b610128610257366004611723565b610dcc565b61012861026a3660046117bd565b611148565b61012861027d3660046115c6565b6111f0565b6101286102903660046117bd565b611404565b6001546102129073ffffffffffffffffffffffffffffffffffffffff1681565b6102bd6114c0565b60026001547501000000000000000000000000000000000000000000900460ff1660038111156102ef576102ef6116b3565b14610326576040517f8e78f0cb00000000000000000000000000000000000000000000000000000000815260040160405180910390fd5b600154621a5e009061035990760100000000000000000000000000000000000000000000900464ffffffffff1642611807565b1015610391576040517f113ea69800000000000000000000000000000000000000000000000000000000815260040160405180910390fd5b6001805464ffffffffff4216760100000000000000000000000000000000000000000000027fffffffffff000000000000ffffffffffffffffffffffffffffffffffffffffff90911617750300000000000000000000000000000000000000000017905560035b60025b6040517f103f4d5a9cc0a1df9d59b49654a5ad6d55f781452aeca93a598a646a9ec3ee6d90600090a3565b61042e6114c0565b600180547501000000000000000000000000000000000000000000900460ff16600381111561045f5761045f6116b3565b14610496576040517f8e78f0cb00000000000000000000000000000000000000000000000000000000815260040160405180910390fd5b8061ffff166000036104d4576040517f9a88ce8400000000000000000000000000000000000000000000000000000000815260040160405180910390fd5b600154604080517f458e8e6b000000000000000000000000000000000000000000000000000000008152905173ffffffffffffffffffffffffffffffffffffffff90921691600091839163458e8e6b916004808201926080929091908290030181865afa158015610549573d6000803e3d6000fd5b505050506040513d601f19601f8201168201806040525081019061056d919061189e565b60208101516040517f5ab2cef400000000000000000000000000000000000000000000000000000000815261ffff808716600483015290911660248201526000604482015290915073ffffffffffffffffffffffffffffffffffffffff831690635ab2cef490606401600060405180830381600087803b1580156105f057600080fd5b505af1158015610604573d6000803e3d6000fd5b505060405161ffff861681527f95704319ef4b9cab06f0898e050908d5a1abd11dae7ce87e9077c4f9a071a487925060200190505b60405180910390a1505050565b61064e6114c0565b73ffffffffffffffffffffffffffffffffffffffff811661066e57600080fd5b60036001547501000000000000000000000000000000000000000000900460ff1660038111156106a0576106a06116b3565b146106d7576040517f8e78f0cb00000000000000000000000000000000000000000000000000000000815260040160405180910390fd5b6001546040517fc7c3d2dc00000000000000000000000000000000000000000000000000000000815260009173ffffffffffffffffffffffffffffffffffffffff169063c7c3d2dc9061073290879087908790600401611928565b6000604051808303816000875af1158015610751573d6000803e3d6000fd5b505050506040513d6000823e601f3d9081017fffffffffffffffffffffffffffffffffffffffffffffffffffffffffffffffe016820160405261079791908101906119a0565b905060005b8381101561085a578484828181106107b6576107b6611a46565b90506020020160208101906107cb91906117bd565b73ffffffffffffffffffffffffffffffffffffffff168373ffffffffffffffffffffffffffffffffffffffff167fa92ff919b850e4909ab2261d907ef955f11bc1716733a6cbece38d163a69af8a84848151811061082b5761082b611a46565b602002602001015160405161084291815260200190565b60405180910390a361085381611a75565b905061079c565b5050505050565b6108696114c0565b60026001547501000000000000000000000000000000000000000000900460ff16600381111561089b5761089b6116b3565b146108d2576040517f8e78f0cb00000000000000000000000000000000000000000000000000000000815260040160405180910390fd5b6001805464ffffffffff4216760100000000000000000000000000000000000000000000027fffffffffff000000000000ffffffffffffffffffffffffffffffffffffffffff82168117750100000000000000000000000000000000000000000017928390556040517f5ab2cef400000000000000000000000000000000000000000000000000000000815261ffff7b010000000000000000000000000000000000000000000000000000008504811660048301527d01000000000000000000000000000000000000000000000000000000000090940490931660248401526000604484015273ffffffffffffffffffffffffffffffffffffffff90811691161790635ab2cef490606401600060405180830381600087803b1580156109f757600080fd5b505af1158015610a0b573d6000803e3d6000fd5b50600192506103f8915050565b610a206114c0565b610a2a6000611541565b565b610a346114c0565b600180547501000000000000000000000000000000000000000000900460ff166003811115610a6557610a656116b3565b14610a9c576040517f8e78f0cb00000000000000000000000000000000000000000000000000000000815260040160405180910390fd5b600180547fffffffffff000000000000ffffffffffffffffffffffffffffffffffffffffff167601000000000000000000000000000000000000000000004264ffffffffff16021781556000906103fb565b610af66114c0565b600180547501000000000000000000000000000000000000000000900460ff166003811115610b2757610b276116b3565b14610b5e576040517f8e78f0cb00000000000000000000000000000000000000000000000000000000815260040160405180910390fd5b600180547fffffffffff000000000000ffffffffffffffffffffffffffffffffffffffffff81167601000000000000000000000000000000000000000000004264ffffffffff1602908117750200000000000000000000000000000000000000000017909255604080517f458e8e6b000000000000000000000000000000000000000000000000000000008152905173ffffffffffffffffffffffffffffffffffffffff928316929093169190911791600091839163458e8e6b916004808201926080929091908290030181865afa158015610c3e573d6000803e3d6000fd5b505050506040513d601f19601f82011682018060405250810190610c62919061189e565b805160018054602084015161ffff9081167d010000000000000000000000000000000000000000000000000000000000027fff0000ffffffffffffffffffffffffffffffffffffffffffffffffffffffffff919094167b0100000000000000000000000000000000000000000000000000000002167fff00000000ffffffffffffffffffffffffffffffffffffffffffffffffffffff909116179190911781556040517f5ab2cef40000000000000000000000000000000000000000000000000000000081526000600482018190526024820152604481019190915290915073ffffffffffffffffffffffffffffffffffffffff831690635ab2cef490606401600060405180830381600087803b158015610d7c57600080fd5b505af1158015610d90573d6000803e3d6000fd5b5060029250610d9d915050565b60016040517f103f4d5a9cc0a1df9d59b49654a5ad6d55f781452aeca93a598a646a9ec3ee6d90600090a35050565b610dd46114c0565b82818114610e0e576040517ffc23596000000000000000000000000000000000000000000000000000000000815260040160405180910390fd5b8686604051602001610e21929190611ac3565b6040516020818303038152906040528051906020012060025414610e71576040517fa769a9a100000000000000000000000000000000000000000000000000000000815260040160405180910390fd5b60008060005b8381101561101757858582818110610e9157610e91611a46565b9050602002016020810190610ea69190611b13565b60ff16600003610ee2576040517f9a88ce8400000000000000000000000000000000000000000000000000000000815260040160405180910390fd5b858582818110610ef457610ef4611a46565b9050602002016020810190610f099190611b13565b610f169060ff1684611b2e565b92506002868683818110610f2c57610f2c611a46565b9050602002016020810190610f419190611b13565b60ff16610f4e9190611c70565b610f589083611c7f565b9150600081118015610fd057508787610f72600184611807565b818110610f8157610f81611a46565b9050602002016020810190610f969190611c92565b65ffffffffffff16888883818110610fb057610fb0611a46565b9050602002016020810190610fc59190611c92565b65ffffffffffff1611155b15611007576040517fa769a9a100000000000000000000000000000000000000000000000000000000815260040160405180910390fd5b61101081611a75565b9050610e77565b50611024600260ff611c70565b81111561105d576040517f25541a6a00000000000000000000000000000000000000000000000000000000815260040160405180910390fd5b6001546040517fbb147c5400000000000000000000000000000000000000000000000000000000815273ffffffffffffffffffffffffffffffffffffffff9091169063bb147c54906110bf908c908c908c908c908c908c908b90600401611cf3565b600060405180830381600087803b1580156110d957600080fd5b505af11580156110ed573d6000803e3d6000fd5b505050508686604051602001611104929190611ac3565b604080517fffffffffffffffffffffffffffffffffffffffffffffffffffffffffffffffe08184030181529190528051602090910120600255505050505050505050565b60015474010000000000000000000000000000000000000000900460ff1615801561118a575060005473ffffffffffffffffffffffffffffffffffffffff1633145b61119357600080fd5b600180547fffffffffffffffffffffff0000000000000000000000000000000000000000001673ffffffffffffffffffffffffffffffffffffffff9092169190911774010000000000000000000000000000000000000000179055565b6111f86114c0565b600180547501000000000000000000000000000000000000000000900460ff166003811115611229576112296116b3565b14611260576040517f8e78f0cb00000000000000000000000000000000000000000000000000000000815260040160405180910390fd5b8061ffff1660000361129e576040517f9a88ce8400000000000000000000000000000000000000000000000000000000815260040160405180910390fd5b600154604080517f458e8e6b000000000000000000000000000000000000000000000000000000008152905173ffffffffffffffffffffffffffffffffffffffff90921691600091839163458e8e6b916004808201926080929091908290030181865afa158015611313573d6000803e3d6000fd5b505050506040513d601f19601f82011682018060405250810190611337919061189e565b80516040517f5ab2cef400000000000000000000000000000000000000000000000000000000815261ffff918216600482015290851660248201526000604482015290915073ffffffffffffffffffffffffffffffffffffffff831690635ab2cef490606401600060405180830381600087803b1580156113b757600080fd5b505af11580156113cb573d6000803e3d6000fd5b505060405161ffff861681527f8bd9272b06d32ab4fd67d0e6939cb87de8913931cf97fd236317cc8d3273958d92506020019050610639565b61140c6114c0565b73ffffffffffffffffffffffffffffffffffffffff81166114b4576040517f08c379a000000000000000000000000000000000000000000000000000000000815260206004820152602660248201527f4f776e61626c653a206e6577206f776e657220697320746865207a65726f206160448201527f646472657373000000000000000000000000000000000000000000000000000060648201526084015b60405180910390fd5b6114bd81611541565b50565b60005473ffffffffffffffffffffffffffffffffffffffff163314610a2a576040517f08c379a000000000000000000000000000000000000000000000000000000000815260206004820181905260248201527f4f776e61626c653a2063616c6c6572206973206e6f7420746865206f776e657260448201526064016114ab565b6000805473ffffffffffffffffffffffffffffffffffffffff8381167fffffffffffffffffffffffff0000000000000000000000000000000000000000831681178455604051919092169283917f8be0079c531659141344cd1fd0a4f28419497f9722a3daafe3b4186f6b6457e09190a35050565b61ffff811681146114bd57600080fd5b6000602082840312156115d857600080fd5b81356115e3816115b6565b9392505050565b60008083601f8401126115fc57600080fd5b50813567ffffffffffffffff81111561161457600080fd5b6020830191508360208260051b850101111561162f57600080fd5b9250929050565b803573ffffffffffffffffffffffffffffffffffffffff8116811461165a57600080fd5b919050565b60008060006040848603121561167457600080fd5b833567ffffffffffffffff81111561168b57600080fd5b611697868287016115ea565b90945092506116aa905060208501611636565b90509250925092565b7f4e487b7100000000000000000000000000000000000000000000000000000000600052602160045260246000fd5b602081016004831061171d577f4e487b7100000000000000000000000000000000000000000000000000000000600052602160045260246000fd5b91905290565b6000806000806000806060878903121561173c57600080fd5b863567ffffffffffffffff8082111561175457600080fd5b6117608a838b016115ea565b9098509650602089013591508082111561177957600080fd5b6117858a838b016115ea565b9096509450604089013591508082111561179e57600080fd5b506117ab89828a016115ea565b979a9699509497509295939492505050565b6000602082840312156117cf57600080fd5b6115e382611636565b7f4e487b7100000000000000000000000000000000000000000000000000000000600052601160045260246000fd5b8181038181111561181a5761181a6117d8565b92915050565b7f4e487b7100000000000000000000000000000000000000000000000000000000600052604160045260246000fd5b604051601f82017fffffffffffffffffffffffffffffffffffffffffffffffffffffffffffffffe016810167ffffffffffffffff8111828210171561189657611896611820565b604052919050565b6000608082840312156118b057600080fd5b6040516080810181811067ffffffffffffffff821117156118d3576118d3611820565b60405282516118e1816115b6565b815260208301516118f1816115b6565b60208201526040830151801515811461190957600080fd5b6040820152606083015161191c816115b6565b60608201529392505050565b6040808252810183905260008460608301825b868110156119765773ffffffffffffffffffffffffffffffffffffffff61196184611636565b1682526020928301929091019060010161193b565b50809250505073ffffffffffffffffffffffffffffffffffffffff83166020830152949350505050565b600060208083850312156119b357600080fd5b825167ffffffffffffffff808211156119cb57600080fd5b818501915085601f8301126119df57600080fd5b8151818111156119f1576119f1611820565b8060051b9150611a0284830161184f565b8181529183018401918481019088841115611a1c57600080fd5b938501935b83851015611a3a57845182529385019390850190611a21565b98975050505050505050565b7f4e487b7100000000000000000000000000000000000000000000000000000000600052603260045260246000fd5b60007fffffffffffffffffffffffffffffffffffffffffffffffffffffffffffffffff8203611aa657611aa66117d8565b5060010190565b803565ffffffffffff8116811461165a57600080fd5b60008184825b85811015611af75765ffffffffffff611ae183611aad565b1683526020928301929190910190600101611ac9565b509095945050505050565b803560ff8116811461165a57600080fd5b600060208284031215611b2557600080fd5b6115e382611b02565b61ffff818116838216019080821115611b4957611b496117d8565b5092915050565b600181815b80851115611ba957817fffffffffffffffffffffffffffffffffffffffffffffffffffffffffffffffff04821115611b8f57611b8f6117d8565b80851615611b9c57918102915b93841c9390800290611b55565b509250929050565b600082611bc05750600161181a565b81611bcd5750600061181a565b8160018114611be35760028114611bed57611c09565b600191505061181a565b60ff841115611bfe57611bfe6117d8565b50506001821b61181a565b5060208310610133831016604e8410600b8410161715611c2c575081810a61181a565b611c368383611b50565b807fffffffffffffffffffffffffffffffffffffffffffffffffffffffffffffffff04821115611c6857611c686117d8565b029392505050565b60006115e360ff841683611bb1565b8082018082111561181a5761181a6117d8565b600060208284031215611ca457600080fd5b6115e382611aad565b8183526000602080850194508260005b85811015611ce85765ffffffffffff611cd583611aad565b1687529582019590820190600101611cbd565b509495945050505050565b608081526000611d0760808301898b611cad565b602083820381850152611d1b82898b611cad565b8481036040860152868152879250810160005b87811015611d545760ff611d4185611b02565b1682529282019290820190600101611d2e565b5080935050505061ffff831660608301529897505050505050505056fea26469706673582212201b53c7fd2f9a08d1df8c242c963c9d773b6f2f344ac7adb98908343d20046d5964736f6c63430008150033","linkReferences":{}},"methodIdentifiers":{"SHUTDOWN_WITHDRAWAL_DELAY()":"b883d19e","exitBeta()":"8022bdbd","hashActiveVaults()":"7ec21573","haultMinting()":"b69bf537","initialize(address)":"c4d66de8","owner()":"8da5cb5b","renounceOwnership()":"715018a6","resumeMinting()":"59ae340e","saveFunds(address[],address)":"543bc766","setBaseFee(uint16)":"3b586c7f","setLPFee(uint16)":"e87d80b3","shutdownSystem()":"354af919","systemStatus()":"64cb907c","transferOwnership(address)":"f2fde38b","tsStatusChanged()":"60bc9381","updateVaultsIssuances(uint48[],uint48[],uint8[])":"c39bb8af","vault()":"fbfa77cf"},"id":75}