{"abi":[{"type":"constructor","inputs":[],"stateMutability":"nonpayable"},{"type":"function","name":"exitBeta","inputs":[],"outputs":[],"stateMutability":"nonpayable"},{"type":"function","name":"hashActiveVaults","inputs":[],"outputs":[{"name":"","type":"bytes32","internalType":"bytes32"}],"stateMutability":"view"},{"type":"function","name":"haultMinting","inputs":[],"outputs":[],"stateMutability":"nonpayable"},{"type":"function","name":"initialize","inputs":[{"name":"vault_","type":"address","internalType":"address"}],"outputs":[],"stateMutability":"nonpayable"},{"type":"function","name":"owner","inputs":[],"outputs":[{"name":"","type":"address","internalType":"address"}],"stateMutability":"view"},{"type":"function","name":"renounceOwnership","inputs":[],"outputs":[],"stateMutability":"nonpayable"},{"type":"function","name":"resumeMinting","inputs":[],"outputs":[],"stateMutability":"nonpayable"},{"type":"function","name":"saveFunds","inputs":[{"name":"tokens","type":"address[]","internalType":"address[]"},{"name":"to","type":"address","internalType":"address"}],"outputs":[],"stateMutability":"nonpayable"},{"type":"function","name":"setBaseFee","inputs":[{"name":"baseFee_","type":"uint16","internalType":"uint16"}],"outputs":[],"stateMutability":"nonpayable"},{"type":"function","name":"setLPFee","inputs":[{"name":"lpFee_","type":"uint16","internalType":"uint16"}],"outputs":[],"stateMutability":"nonpayable"},{"type":"function","name":"shutdownSystem","inputs":[],"outputs":[],"stateMutability":"nonpayable"},{"type":"function","name":"systemStatus","inputs":[],"outputs":[{"name":"","type":"uint8","internalType":"enum SystemControl.SystemStatus"}],"stateMutability":"view"},{"type":"function","name":"timestampStatusChanged","inputs":[],"outputs":[{"name":"","type":"uint40","internalType":"uint40"}],"stateMutability":"view"},{"type":"function","name":"transferOwnership","inputs":[{"name":"newOwner","type":"address","internalType":"address"}],"outputs":[],"stateMutability":"nonpayable"},{"type":"function","name":"updateVaultsIssuances","inputs":[{"name":"oldVaults","type":"uint48[]","internalType":"uint48[]"},{"name":"newVaults","type":"uint48[]","internalType":"uint48[]"},{"name":"newTaxes","type":"uint8[]","internalType":"uint8[]"}],"outputs":[],"stateMutability":"nonpayable"},{"type":"function","name":"vault","inputs":[],"outputs":[{"name":"","type":"address","internalType":"contract Vault"}],"stateMutability":"view"},{"type":"event","name":"FundsWithdrawn","inputs":[{"name":"to","type":"address","indexed":true,"internalType":"address"},{"name":"token","type":"address","indexed":true,"internalType":"address"},{"name":"amount","type":"uint256","indexed":false,"internalType":"uint256"}],"anonymous":false},{"type":"event","name":"NewBaseFee","inputs":[{"name":"baseFee","type":"uint16","indexed":false,"internalType":"uint16"}],"anonymous":false},{"type":"event","name":"NewLPFee","inputs":[{"name":"lpFee","type":"uint16","indexed":false,"internalType":"uint16"}],"anonymous":false},{"type":"event","name":"OwnershipTransferred","inputs":[{"name":"previousOwner","type":"address","indexed":true,"internalType":"address"},{"name":"newOwner","type":"address","indexed":true,"internalType":"address"}],"anonymous":false},{"type":"event","name":"SystemStatusChanged","inputs":[{"name":"oldStatus","type":"uint8","indexed":true,"internalType":"enum SystemControl.SystemStatus"},{"name":"newStatus","type":"uint8","indexed":true,"internalType":"enum SystemControl.SystemStatus"}],"anonymous":false},{"type":"event","name":"TreasuryFeesWithdrawn","inputs":[{"name":"vaultId","type":"uint48","indexed":true,"internalType":"uint48"},{"name":"collateralToken","type":"address","indexed":true,"internalType":"address"},{"name":"amount","type":"uint256","indexed":false,"internalType":"uint256"}],"anonymous":false},{"type":"error","name":"ArraysLengthMismatch","inputs":[]},{"type":"error","name":"FeeCannotBeZero","inputs":[]},{"type":"error","name":"NewTaxesTooHigh","inputs":[]},{"type":"error","name":"OwnableInvalidOwner","inputs":[{"name":"owner","type":"address","internalType":"address"}]},{"type":"error","name":"OwnableUnauthorizedAccount","inputs":[{"name":"account","type":"address","internalType":"address"}]},{"type":"error","name":"ShutdownTooEarly","inputs":[]},{"type":"error","name":"WrongStatus","inputs":[]},{"type":"error","name":"WrongVaultsOrOrder","inputs":[]}],"bytecode":{"object":"0x60806040526001805461ffff60a01b1916600160a81b1790557fc5d2460186f7233c927e7db2dcc703c0e500b653ca82273b7bfad8045d85a470600255348015604757600080fd5b503380606d57604051631e4fbdf760e01b81526000600482015260240160405180910390fd5b6074816079565b5060c9565b600080546001600160a01b038381166001600160a01b0319831681178455604051919092169283917f8be0079c531659141344cd1fd0a4f28419497f9722a3daafe3b4186f6b6457e09190a35050565b61193f806100d86000396000f3fe608060405234801561001057600080fd5b50600436106101005760003560e01c80638da5cb5b11610097578063c713b7ac11610066578063c713b7ac1461020d578063e87d80b31461024e578063f2fde38b14610261578063fbfa77cf1461027457600080fd5b80638da5cb5b146101a0578063b69bf537146101df578063c39bb8af146101e7578063c4d66de8146101fa57600080fd5b806364cb907c116100d357806364cb907c1461013d578063715018a6146101795780637ec21573146101815780638022bdbd1461019857600080fd5b8063354af919146101055780633b586c7f1461010f578063543bc7661461012257806359ae340e14610135575b600080fd5b61010d610294565b005b61010d61011d36600461121a565b610405565b61010d6101303660046112ba565b610584565b61010d610797565b600154610163907501000000000000000000000000000000000000000000900460ff1681565b604051610170919061133d565b60405180910390f35b61010d61090d565b61018a60025481565b604051908152602001610170565b61010d610921565b60005473ffffffffffffffffffffffffffffffffffffffff165b60405173ffffffffffffffffffffffffffffffffffffffff9091168152602001610170565b61010d6109e5565b61010d6101f536600461137e565b610b55565b61010d610208366004611424565b610ec9565b60015461023890760100000000000000000000000000000000000000000000900464ffffffffff1681565b60405164ffffffffff9091168152602001610170565b61010d61025c36600461121a565b610f71565b61010d61026f366004611424565b6110e9565b6001546101ba9073ffffffffffffffffffffffffffffffffffffffff1681565b61029c611152565b60026001547501000000000000000000000000000000000000000000900460ff1660038111156102ce576102ce61130e565b14610305576040517f8e78f0cb00000000000000000000000000000000000000000000000000000000815260040160405180910390fd5b600154621a5e009061033890760100000000000000000000000000000000000000000000900464ffffffffff164261146e565b1015610370576040517f113ea69800000000000000000000000000000000000000000000000000000000815260040160405180910390fd5b6001805464ffffffffff4216760100000000000000000000000000000000000000000000027fffffffffff000000000000ffffffffffffffffffffffffffffffffffffffffff90911617750300000000000000000000000000000000000000000017905560035b60025b6040517f103f4d5a9cc0a1df9d59b49654a5ad6d55f781452aeca93a598a646a9ec3ee6d90600090a3565b61040d611152565b600180547501000000000000000000000000000000000000000000900460ff16600381111561043e5761043e61130e565b14610475576040517f8e78f0cb00000000000000000000000000000000000000000000000000000000815260040160405180910390fd5b8061ffff166000036104b3576040517f9a88ce8400000000000000000000000000000000000000000000000000000000815260040160405180910390fd5b6001546040517f5ab2cef400000000000000000000000000000000000000000000000000000000815261ffff83166004820152600060248201819052604482015273ffffffffffffffffffffffffffffffffffffffff90911690635ab2cef490606401600060405180830381600087803b15801561053057600080fd5b505af1158015610544573d6000803e3d6000fd5b505060405161ffff841681527f95704319ef4b9cab06f0898e050908d5a1abd11dae7ce87e9077c4f9a071a487925060200190505b60405180910390a150565b61058c611152565b73ffffffffffffffffffffffffffffffffffffffff81166105ac57600080fd5b60036001547501000000000000000000000000000000000000000000900460ff1660038111156105de576105de61130e565b14610615576040517f8e78f0cb00000000000000000000000000000000000000000000000000000000815260040160405180910390fd5b6001546040517fc7c3d2dc00000000000000000000000000000000000000000000000000000000815260009173ffffffffffffffffffffffffffffffffffffffff169063c7c3d2dc9061067090879087908790600401611487565b6000604051808303816000875af115801561068f573d6000803e3d6000fd5b505050506040513d6000823e601f3d9081017fffffffffffffffffffffffffffffffffffffffffffffffffffffffffffffffe01682016040526106d5919081019061152e565b905060005b83811015610790578484828181106106f4576106f4611619565b90506020020160208101906107099190611424565b73ffffffffffffffffffffffffffffffffffffffff168373ffffffffffffffffffffffffffffffffffffffff167fa92ff919b850e4909ab2261d907ef955f11bc1716733a6cbece38d163a69af8a84848151811061076957610769611619565b602002602001015160405161078091815260200190565b60405180910390a36001016106da565b5050505050565b61079f611152565b60026001547501000000000000000000000000000000000000000000900460ff1660038111156107d1576107d161130e565b14610808576040517f8e78f0cb00000000000000000000000000000000000000000000000000000000815260040160405180910390fd5b6001805464ffffffffff4216760100000000000000000000000000000000000000000000027fffffffffff000000000000ffffffffffffffffffffffffffffffffffffffffff821681177501000000000000000000000000000000000000000000179092556040517f5ab2cef400000000000000000000000000000000000000000000000000000000815260006004820181905260248201819052604482015273ffffffffffffffffffffffffffffffffffffffff928316929091169190911790635ab2cef490606401600060405180830381600087803b1580156108ec57600080fd5b505af1158015610900573d6000803e3d6000fd5b50600192506103d7915050565b610915611152565b61091f60006111a5565b565b610929611152565b600180547501000000000000000000000000000000000000000000900460ff16600381111561095a5761095a61130e565b14610991576040517f8e78f0cb00000000000000000000000000000000000000000000000000000000815260040160405180910390fd5b600180547fffffffffff000000000000ffffffffffffffffffffffffffffffffffffffffff167601000000000000000000000000000000000000000000004264ffffffffff160217905560005b60016103da565b6109ed611152565b600180547501000000000000000000000000000000000000000000900460ff166003811115610a1e57610a1e61130e565b14610a55576040517f8e78f0cb00000000000000000000000000000000000000000000000000000000815260040160405180910390fd5b6001805464ffffffffff4216760100000000000000000000000000000000000000000000027fffffffffff000000000000ffffffffffffffffffffffffffffffffffffffffff8216811775020000000000000000000000000000000000000000001783556040517f5ab2cef40000000000000000000000000000000000000000000000000000000081526000600482018190526024820152604481019390935273ffffffffffffffffffffffffffffffffffffffff90811691161790635ab2cef490606401600060405180830381600087803b158015610b3457600080fd5b505af1158015610b48573d6000803e3d6000fd5b50600292506109de915050565b610b5d611152565b82818114610b97576040517ffc23596000000000000000000000000000000000000000000000000000000000815260040160405180910390fd5b8686604051602001610baa92919061165e565b6040516020818303038152906040528051906020012060025414610bfa576040517fa769a9a100000000000000000000000000000000000000000000000000000000815260040160405180910390fd5b60008060005b83811015610d9857858582818110610c1a57610c1a611619565b9050602002016020810190610c2f91906116ae565b60ff16600003610c6b576040517f9a88ce8400000000000000000000000000000000000000000000000000000000815260040160405180910390fd5b858582818110610c7d57610c7d611619565b9050602002016020810190610c9291906116ae565b610c9f9060ff16846116c9565b92506002868683818110610cb557610cb5611619565b9050602002016020810190610cca91906116ae565b60ff16610cd79190611806565b610ce19083611815565b9150600081118015610d5957508787610cfb60018461146e565b818110610d0a57610d0a611619565b9050602002016020810190610d1f9190611828565b65ffffffffffff16888883818110610d3957610d39611619565b9050602002016020810190610d4e9190611828565b65ffffffffffff1611155b15610d90576040517fa769a9a100000000000000000000000000000000000000000000000000000000815260040160405180910390fd5b600101610c00565b50610da5600260ff611806565b811115610dde576040517f25541a6a00000000000000000000000000000000000000000000000000000000815260040160405180910390fd5b6001546040517fbb147c5400000000000000000000000000000000000000000000000000000000815273ffffffffffffffffffffffffffffffffffffffff9091169063bb147c5490610e40908c908c908c908c908c908c908b9060040161188a565b600060405180830381600087803b158015610e5a57600080fd5b505af1158015610e6e573d6000803e3d6000fd5b505050508686604051602001610e8592919061165e565b604080517fffffffffffffffffffffffffffffffffffffffffffffffffffffffffffffffe08184030181529190528051602090910120600255505050505050505050565b60015474010000000000000000000000000000000000000000900460ff16158015610f0b575060005473ffffffffffffffffffffffffffffffffffffffff1633145b610f1457600080fd5b600180547fffffffffffffffffffffff0000000000000000000000000000000000000000001673ffffffffffffffffffffffffffffffffffffffff9092169190911774010000000000000000000000000000000000000000179055565b610f79611152565b600180547501000000000000000000000000000000000000000000900460ff166003811115610faa57610faa61130e565b14610fe1576040517f8e78f0cb00000000000000000000000000000000000000000000000000000000815260040160405180910390fd5b8061ffff1660000361101f576040517f9a88ce8400000000000000000000000000000000000000000000000000000000815260040160405180910390fd5b6001546040517f5ab2cef400000000000000000000000000000000000000000000000000000000815260006004820181905261ffff84166024830152604482015273ffffffffffffffffffffffffffffffffffffffff90911690635ab2cef490606401600060405180830381600087803b15801561109c57600080fd5b505af11580156110b0573d6000803e3d6000fd5b505060405161ffff841681527f8bd9272b06d32ab4fd67d0e6939cb87de8913931cf97fd236317cc8d3273958d92506020019050610579565b6110f1611152565b73ffffffffffffffffffffffffffffffffffffffff8116611146576040517f1e4fbdf7000000000000000000000000000000000000000000000000000000008152600060048201526024015b60405180910390fd5b61114f816111a5565b50565b60005473ffffffffffffffffffffffffffffffffffffffff16331461091f576040517f118cdaa700000000000000000000000000000000000000000000000000000000815233600482015260240161113d565b6000805473ffffffffffffffffffffffffffffffffffffffff8381167fffffffffffffffffffffffff0000000000000000000000000000000000000000831681178455604051919092169283917f8be0079c531659141344cd1fd0a4f28419497f9722a3daafe3b4186f6b6457e09190a35050565b60006020828403121561122c57600080fd5b813561ffff8116811461123e57600080fd5b9392505050565b60008083601f84011261125757600080fd5b50813567ffffffffffffffff81111561126f57600080fd5b6020830191508360208260051b850101111561128a57600080fd5b9250929050565b803573ffffffffffffffffffffffffffffffffffffffff811681146112b557600080fd5b919050565b6000806000604084860312156112cf57600080fd5b833567ffffffffffffffff8111156112e657600080fd5b6112f286828701611245565b9094509250611305905060208501611291565b90509250925092565b7f4e487b7100000000000000000000000000000000000000000000000000000000600052602160045260246000fd5b6020810160048310611378577f4e487b7100000000000000000000000000000000000000000000000000000000600052602160045260246000fd5b91905290565b6000806000806000806060878903121561139757600080fd5b863567ffffffffffffffff8111156113ae57600080fd5b6113ba89828a01611245565b909750955050602087013567ffffffffffffffff8111156113da57600080fd5b6113e689828a01611245565b909550935050604087013567ffffffffffffffff81111561140657600080fd5b61141289828a01611245565b979a9699509497509295939492505050565b60006020828403121561143657600080fd5b61123e82611291565b7f4e487b7100000000000000000000000000000000000000000000000000000000600052601160045260246000fd5b818103818111156114815761148161143f565b92915050565b6040808252810183905260008460608301825b868110156114d55773ffffffffffffffffffffffffffffffffffffffff6114c084611291565b1682526020928301929091019060010161149a565b50809250505073ffffffffffffffffffffffffffffffffffffffff83166020830152949350505050565b7f4e487b7100000000000000000000000000000000000000000000000000000000600052604160045260246000fd5b60006020828403121561154057600080fd5b815167ffffffffffffffff81111561155757600080fd5b8201601f8101841361156857600080fd5b805167ffffffffffffffff811115611582576115826114ff565b8060051b6040517fffffffffffffffffffffffffffffffffffffffffffffffffffffffffffffffe0603f830116810181811067ffffffffffffffff821117156115cd576115cd6114ff565b6040529182526020818401810192908101878411156115eb57600080fd5b6020850194505b8385101561160e578451808252602095860195909350016115f2565b509695505050505050565b7f4e487b7100000000000000000000000000000000000000000000000000000000600052603260045260246000fd5b803565ffffffffffff811681146112b557600080fd5b60008184825b858110156116925765ffffffffffff61167c83611648565b1683526020928301929190910190600101611664565b509095945050505050565b803560ff811681146112b557600080fd5b6000602082840312156116c057600080fd5b61123e8261169d565b61ffff81811683821601908111156114815761148161143f565b6001815b600184111561171e578085048111156117025761170261143f565b600184161561171057908102905b60019390931c9280026116e7565b935093915050565b60008261173557506001611481565b8161174257506000611481565b816001811461175857600281146117625761177e565b6001915050611481565b60ff8411156117735761177361143f565b50506001821b611481565b5060208310610133831016604e8410600b84101617156117a1575081810a611481565b6117cc7fffffffffffffffffffffffffffffffffffffffffffffffffffffffffffffffff84846116e3565b807fffffffffffffffffffffffffffffffffffffffffffffffffffffffffffffffff048211156117fe576117fe61143f565b029392505050565b600061123e60ff841683611726565b808201808211156114815761148161143f565b60006020828403121561183a57600080fd5b61123e82611648565b81835260208301925060008160005b848110156118805765ffffffffffff61186a83611648565b1686526020958601959190910190600101611852565b5093949350505050565b60808152600061189e60808301898b611843565b82810360208401526118b181888a611843565b838103604085015285815286915060200160005b868110156118ed5760ff6118d88461169d565b168252602092830192909101906001016118c5565b50809250505061ffff831660608301529897505050505050505056fea2646970667358221220e95b5318ce26f66c8c05614c592f5f52177aaa25c251f4a6de0fc3a30db9f26864736f6c634300081c0033","linkReferences":{}},"methodIdentifiers":{"exitBeta()":"8022bdbd","hashActiveVaults()":"7ec21573","haultMinting()":"b69bf537","initialize(address)":"c4d66de8","owner()":"8da5cb5b","renounceOwnership()":"715018a6","resumeMinting()":"59ae340e","saveFunds(address[],address)":"543bc766","setBaseFee(uint16)":"3b586c7f","setLPFee(uint16)":"e87d80b3","shutdownSystem()":"354af919","systemStatus()":"64cb907c","timestampStatusChanged()":"c713b7ac","transferOwnership(address)":"f2fde38b","updateVaultsIssuances(uint48[],uint48[],uint8[])":"c39bb8af","vault()":"fbfa77cf"},"id":53}