{"abi":[{"type":"constructor","inputs":[],"stateMutability":"nonpayable"},{"type":"function","name":"exitBeta","inputs":[],"outputs":[],"stateMutability":"nonpayable"},{"type":"function","name":"hashActiveVaults","inputs":[],"outputs":[{"name":"","type":"bytes32","internalType":"bytes32"}],"stateMutability":"view"},{"type":"function","name":"haultMinting","inputs":[],"outputs":[],"stateMutability":"nonpayable"},{"type":"function","name":"initialize","inputs":[{"name":"vault_","type":"address","internalType":"address"},{"name":"sir_","type":"address","internalType":"address payable"}],"outputs":[],"stateMutability":"nonpayable"},{"type":"function","name":"owner","inputs":[],"outputs":[{"name":"","type":"address","internalType":"address"}],"stateMutability":"view"},{"type":"function","name":"renounceOwnership","inputs":[],"outputs":[],"stateMutability":"nonpayable"},{"type":"function","name":"resumeMinting","inputs":[],"outputs":[],"stateMutability":"nonpayable"},{"type":"function","name":"saveFunds","inputs":[{"name":"tokens","type":"address[]","internalType":"address[]"},{"name":"to","type":"address","internalType":"address"}],"outputs":[],"stateMutability":"nonpayable"},{"type":"function","name":"setBaseFee","inputs":[{"name":"baseFee_","type":"uint16","internalType":"uint16"}],"outputs":[],"stateMutability":"nonpayable"},{"type":"function","name":"setLPFee","inputs":[{"name":"lpFee_","type":"uint16","internalType":"uint16"}],"outputs":[],"stateMutability":"nonpayable"},{"type":"function","name":"shutdownSystem","inputs":[],"outputs":[],"stateMutability":"nonpayable"},{"type":"function","name":"sir","inputs":[],"outputs":[{"name":"","type":"address","internalType":"contract SIR"}],"stateMutability":"view"},{"type":"function","name":"systemStatus","inputs":[],"outputs":[{"name":"","type":"uint8","internalType":"enum SystemControl.SystemStatus"}],"stateMutability":"view"},{"type":"function","name":"timestampStatusChanged","inputs":[],"outputs":[{"name":"","type":"uint40","internalType":"uint40"}],"stateMutability":"view"},{"type":"function","name":"transferOwnership","inputs":[{"name":"newOwner","type":"address","internalType":"address"}],"outputs":[],"stateMutability":"nonpayable"},{"type":"function","name":"updateVaultsIssuances","inputs":[{"name":"oldVaults","type":"uint48[]","internalType":"uint48[]"},{"name":"newVaults","type":"uint48[]","internalType":"uint48[]"},{"name":"newTaxes","type":"uint8[]","internalType":"uint8[]"}],"outputs":[],"stateMutability":"nonpayable"},{"type":"function","name":"vault","inputs":[],"outputs":[{"name":"","type":"address","internalType":"contract Vault"}],"stateMutability":"view"},{"type":"event","name":"FundsWithdrawn","inputs":[{"name":"to","type":"address","indexed":true,"internalType":"address"},{"name":"token","type":"address","indexed":true,"internalType":"address"},{"name":"amount","type":"uint256","indexed":false,"internalType":"uint256"}],"anonymous":false},{"type":"event","name":"NewBaseFee","inputs":[{"name":"baseFee","type":"uint16","indexed":false,"internalType":"uint16"}],"anonymous":false},{"type":"event","name":"NewLPFee","inputs":[{"name":"lpFee","type":"uint16","indexed":false,"internalType":"uint16"}],"anonymous":false},{"type":"event","name":"OwnershipTransferred","inputs":[{"name":"previousOwner","type":"address","indexed":true,"internalType":"address"},{"name":"newOwner","type":"address","indexed":true,"internalType":"address"}],"anonymous":false},{"type":"event","name":"SystemStatusChanged","inputs":[{"name":"oldStatus","type":"uint8","indexed":true,"internalType":"enum SystemControl.SystemStatus"},{"name":"newStatus","type":"uint8","indexed":true,"internalType":"enum SystemControl.SystemStatus"}],"anonymous":false},{"type":"event","name":"TreasuryFeesWithdrawn","inputs":[{"name":"vaultId","type":"uint48","indexed":true,"internalType":"uint48"},{"name":"collateralToken","type":"address","indexed":true,"internalType":"address"},{"name":"amount","type":"uint256","indexed":false,"internalType":"uint256"}],"anonymous":false},{"type":"error","name":"ArraysLengthMismatch","inputs":[]},{"type":"error","name":"FeeCannotBeZero","inputs":[]},{"type":"error","name":"NewTaxesTooHigh","inputs":[]},{"type":"error","name":"OwnableInvalidOwner","inputs":[{"name":"owner","type":"address","internalType":"address"}]},{"type":"error","name":"OwnableUnauthorizedAccount","inputs":[{"name":"account","type":"address","internalType":"address"}]},{"type":"error","name":"ShutdownTooEarly","inputs":[]},{"type":"error","name":"WrongStatus","inputs":[]},{"type":"error","name":"WrongVaultsOrOrder","inputs":[]}],"bytecode":{"object":"0x60806040526002805461ffff60a01b1916600160a81b1790557fc5d2460186f7233c927e7db2dcc703c0e500b653ca82273b7bfad8045d85a4706003553480156046575f5ffd5b503380606b57604051631e4fbdf760e01b81525f600482015260240160405180910390fd5b6072816077565b5060c6565b5f80546001600160a01b038381166001600160a01b0319831681178455604051919092169283917f8be0079c531659141344cd1fd0a4f28419497f9722a3daafe3b4186f6b6457e09190a35050565b611a79806100d35f395ff3fe608060405234801561000f575f5ffd5b5060043610610115575f3560e01c80637ec21573116100ad578063c39bb8af1161007d578063e87d80b311610063578063e87d80b314610281578063f2fde38b14610294578063fbfa77cf146102a7575f5ffd5b8063c39bb8af1461022d578063c713b7ac14610240575f5ffd5b80637ec21573146101e95780638022bdbd146102005780638da5cb5b14610208578063b69bf53714610225575f5ffd5b8063543bc766116100e8578063543bc7661461019357806359ae340e146101a657806364cb907c146101ae578063715018a6146101e1575f5ffd5b8063124b4e6314610119578063354af919146101635780633b586c7f1461016d578063485cc95514610180575b5f5ffd5b6001546101399073ffffffffffffffffffffffffffffffffffffffff1681565b60405173ffffffffffffffffffffffffffffffffffffffff90911681526020015b60405180910390f35b61016b6102c7565b005b61016b61017b36600461134b565b610436565b61016b61018e366004611394565b6105af565b61016b6101a1366004611413565b610682565b61016b61088d565b6002546101d4907501000000000000000000000000000000000000000000900460ff1681565b60405161015a9190611493565b61016b610a7b565b6101f260035481565b60405190815260200161015a565b61016b610a8e565b5f5473ffffffffffffffffffffffffffffffffffffffff16610139565b61016b610b52565b61016b61023b3660046114d2565b610d40565b60025461026b90760100000000000000000000000000000000000000000000900464ffffffffff1681565b60405164ffffffffff909116815260200161015a565b61016b61028f36600461134b565b6110ab565b61016b6102a2366004611571565b61121d565b6002546101399073ffffffffffffffffffffffffffffffffffffffff1681565b6102cf611285565b600280547501000000000000000000000000000000000000000000900460ff16600381111561030057610300611466565b14610337576040517f8e78f0cb00000000000000000000000000000000000000000000000000000000815260040160405180910390fd5b600254621a5e009061036a90760100000000000000000000000000000000000000000000900464ffffffffff16426115b9565b10156103a2576040517f113ea69800000000000000000000000000000000000000000000000000000000815260040160405180910390fd5b6002805464ffffffffff4216760100000000000000000000000000000000000000000000027fffffffffff000000000000ffffffffffffffffffffffffffffffffffffffffff90911617750300000000000000000000000000000000000000000017905560035b60025b6040517f103f4d5a9cc0a1df9d59b49654a5ad6d55f781452aeca93a598a646a9ec3ee6d905f90a3565b61043e611285565b60016002547501000000000000000000000000000000000000000000900460ff16600381111561047057610470611466565b146104a7576040517f8e78f0cb00000000000000000000000000000000000000000000000000000000815260040160405180910390fd5b8061ffff165f036104e4576040517f9a88ce8400000000000000000000000000000000000000000000000000000000815260040160405180910390fd5b6002546040517f5ab2cef400000000000000000000000000000000000000000000000000000000815261ffff831660048201525f60248201819052604482015273ffffffffffffffffffffffffffffffffffffffff90911690635ab2cef4906064015f604051808303815f87803b15801561055d575f5ffd5b505af115801561056f573d5f5f3e3d5ffd5b505060405161ffff841681527f95704319ef4b9cab06f0898e050908d5a1abd11dae7ce87e9077c4f9a071a487925060200190505b60405180910390a150565b60025474010000000000000000000000000000000000000000900460ff161580156105f057505f5473ffffffffffffffffffffffffffffffffffffffff1633145b6105f8575f5ffd5b600280546001805473ffffffffffffffffffffffffffffffffffffffff9485167fffffffffffffffffffffffff0000000000000000000000000000000000000000919091161790557fffffffffffffffffffffff00000000000000000000000000000000000000000016919092161774010000000000000000000000000000000000000000179055565b61068a611285565b73ffffffffffffffffffffffffffffffffffffffff81166106a9575f5ffd5b60036002547501000000000000000000000000000000000000000000900460ff1660038111156106db576106db611466565b14610712576040517f8e78f0cb00000000000000000000000000000000000000000000000000000000815260040160405180910390fd5b6002546040517fc7c3d2dc0000000000000000000000000000000000000000000000000000000081525f9173ffffffffffffffffffffffffffffffffffffffff169063c7c3d2dc9061076c908790879087906004016115d2565b5f604051808303815f875af1158015610787573d5f5f3e3d5ffd5b505050506040513d5f823e601f3d9081017fffffffffffffffffffffffffffffffffffffffffffffffffffffffffffffffe01682016040526107cc9190810190611678565b90505f5b83811015610886578484828181106107ea576107ea61175e565b90506020020160208101906107ff9190611571565b73ffffffffffffffffffffffffffffffffffffffff168373ffffffffffffffffffffffffffffffffffffffff167fa92ff919b850e4909ab2261d907ef955f11bc1716733a6cbece38d163a69af8a84848151811061085f5761085f61175e565b602002602001015160405161087691815260200190565b60405180910390a36001016107d0565b5050505050565b610895611285565b600280547501000000000000000000000000000000000000000000900460ff1660038111156108c6576108c6611466565b146108fd576040517f8e78f0cb00000000000000000000000000000000000000000000000000000000815260040160405180910390fd5b6002805464ffffffffff4216760100000000000000000000000000000000000000000000027fffffffffff000000000000ffffffffffffffffffffffffffffffffffffffffff821681177501000000000000000000000000000000000000000000179092556040517f5ab2cef40000000000000000000000000000000000000000000000000000000081525f6004820181905260248201819052604482015273ffffffffffffffffffffffffffffffffffffffff928316929091169190911790635ab2cef4906064015f604051808303815f87803b1580156109dd575f5ffd5b505af11580156109ef573d5f5f3e3d5ffd5b5050600180546040517f2c5a8e86000000000000000000000000000000000000000000000000000000008152600481019290925273ffffffffffffffffffffffffffffffffffffffff169250632c5a8e8691506024015f604051808303815f87803b158015610a5c575f5ffd5b505af1158015610a6e573d5f5f3e3d5ffd5b5060019250610409915050565b610a83611285565b610a8c5f6112d7565b565b610a96611285565b60016002547501000000000000000000000000000000000000000000900460ff166003811115610ac857610ac8611466565b14610aff576040517f8e78f0cb00000000000000000000000000000000000000000000000000000000815260040160405180910390fd5b600280547fffffffffff000000000000ffffffffffffffffffffffffffffffffffffffffff167601000000000000000000000000000000000000000000004264ffffffffff16021790555f5b600161040c565b610b5a611285565b60016002547501000000000000000000000000000000000000000000900460ff166003811115610b8c57610b8c611466565b14610bc3576040517f8e78f0cb00000000000000000000000000000000000000000000000000000000815260040160405180910390fd5b6002805464ffffffffff4216760100000000000000000000000000000000000000000000027fffffffffff000000000000ffffffffffffffffffffffffffffffffffffffffff821681177502000000000000000000000000000000000000000000179092556040517f5ab2cef40000000000000000000000000000000000000000000000000000000081525f6004820181905260248201526001604482015273ffffffffffffffffffffffffffffffffffffffff928316929091169190911790635ab2cef4906064015f604051808303815f87803b158015610ca3575f5ffd5b505af1158015610cb5573d5f5f3e3d5ffd5b50506001546040517f2c5a8e860000000000000000000000000000000000000000000000000000000081525f600482015273ffffffffffffffffffffffffffffffffffffffff9091169250632c5a8e8691506024015f604051808303815f87803b158015610d21575f5ffd5b505af1158015610d33573d5f5f3e3d5ffd5b5060029250610b4b915050565b610d48611285565b82818114610d82576040517ffc23596000000000000000000000000000000000000000000000000000000000815260040160405180910390fd5b8686604051602001610d959291906117a5565b6040516020818303038152906040528051906020012060035414610de5576040517fa769a9a100000000000000000000000000000000000000000000000000000000815260040160405180910390fd5b5f80805b83811015610f7f57858582818110610e0357610e0361175e565b9050602002016020810190610e1891906117f3565b60ff165f03610e53576040517f9a88ce8400000000000000000000000000000000000000000000000000000000815260040160405180910390fd5b858582818110610e6557610e6561175e565b9050602002016020810190610e7a91906117f3565b610e879060ff168461180c565b92506002868683818110610e9d57610e9d61175e565b9050602002016020810190610eb291906117f3565b60ff16610ebf9190611947565b610ec99083611955565b91505f81118015610f4057508787610ee26001846115b9565b818110610ef157610ef161175e565b9050602002016020810190610f069190611968565b65ffffffffffff16888883818110610f2057610f2061175e565b9050602002016020810190610f359190611968565b65ffffffffffff1611155b15610f77576040517fa769a9a100000000000000000000000000000000000000000000000000000000815260040160405180910390fd5b600101610de9565b50610f8c600260ff611947565b811115610fc5576040517f25541a6a00000000000000000000000000000000000000000000000000000000815260040160405180910390fd5b6002546040517fbb147c5400000000000000000000000000000000000000000000000000000000815273ffffffffffffffffffffffffffffffffffffffff9091169063bb147c5490611027908c908c908c908c908c908c908b906004016119c6565b5f604051808303815f87803b15801561103e575f5ffd5b505af1158015611050573d5f5f3e3d5ffd5b5050505086866040516020016110679291906117a5565b604080517fffffffffffffffffffffffffffffffffffffffffffffffffffffffffffffffe08184030181529190528051602090910120600355505050505050505050565b6110b3611285565b60016002547501000000000000000000000000000000000000000000900460ff1660038111156110e5576110e5611466565b1461111c576040517f8e78f0cb00000000000000000000000000000000000000000000000000000000815260040160405180910390fd5b8061ffff165f03611159576040517f9a88ce8400000000000000000000000000000000000000000000000000000000815260040160405180910390fd5b6002546040517f5ab2cef40000000000000000000000000000000000000000000000000000000081525f6004820181905261ffff84166024830152604482015273ffffffffffffffffffffffffffffffffffffffff90911690635ab2cef4906064015f604051808303815f87803b1580156111d2575f5ffd5b505af11580156111e4573d5f5f3e3d5ffd5b505060405161ffff841681527f8bd9272b06d32ab4fd67d0e6939cb87de8913931cf97fd236317cc8d3273958d925060200190506105a4565b611225611285565b73ffffffffffffffffffffffffffffffffffffffff8116611279576040517f1e4fbdf70000000000000000000000000000000000000000000000000000000081525f60048201526024015b60405180910390fd5b611282816112d7565b50565b5f5473ffffffffffffffffffffffffffffffffffffffff163314610a8c576040517f118cdaa7000000000000000000000000000000000000000000000000000000008152336004820152602401611270565b5f805473ffffffffffffffffffffffffffffffffffffffff8381167fffffffffffffffffffffffff0000000000000000000000000000000000000000831681178455604051919092169283917f8be0079c531659141344cd1fd0a4f28419497f9722a3daafe3b4186f6b6457e09190a35050565b5f6020828403121561135b575f5ffd5b813561ffff8116811461136c575f5ffd5b9392505050565b73ffffffffffffffffffffffffffffffffffffffff81168114611282575f5ffd5b5f5f604083850312156113a5575f5ffd5b82356113b081611373565b915060208301356113c081611373565b809150509250929050565b5f5f83601f8401126113db575f5ffd5b50813567ffffffffffffffff8111156113f2575f5ffd5b6020830191508360208260051b850101111561140c575f5ffd5b9250929050565b5f5f5f60408486031215611425575f5ffd5b833567ffffffffffffffff81111561143b575f5ffd5b611447868287016113cb565b909450925050602084013561145b81611373565b809150509250925092565b7f4e487b71000000000000000000000000000000000000000000000000000000005f52602160045260245ffd5b60208101600483106114cc577f4e487b71000000000000000000000000000000000000000000000000000000005f52602160045260245ffd5b91905290565b5f5f5f5f5f5f606087890312156114e7575f5ffd5b863567ffffffffffffffff8111156114fd575f5ffd5b61150989828a016113cb565b909750955050602087013567ffffffffffffffff811115611528575f5ffd5b61153489828a016113cb565b909550935050604087013567ffffffffffffffff811115611553575f5ffd5b61155f89828a016113cb565b979a9699509497509295939492505050565b5f60208284031215611581575f5ffd5b813561136c81611373565b7f4e487b71000000000000000000000000000000000000000000000000000000005f52601160045260245ffd5b818103818111156115cc576115cc61158c565b92915050565b604080825281018390525f8460608301825b868110156116215782356115f781611373565b73ffffffffffffffffffffffffffffffffffffffff168252602092830192909101906001016115e4565b50809250505073ffffffffffffffffffffffffffffffffffffffff83166020830152949350505050565b7f4e487b71000000000000000000000000000000000000000000000000000000005f52604160045260245ffd5b5f60208284031215611688575f5ffd5b815167ffffffffffffffff81111561169e575f5ffd5b8201601f810184136116ae575f5ffd5b805167ffffffffffffffff8111156116c8576116c861164b565b8060051b6040517fffffffffffffffffffffffffffffffffffffffffffffffffffffffffffffffe0603f830116810181811067ffffffffffffffff821117156117135761171361164b565b604052918252602081840181019290810187841115611730575f5ffd5b6020850194505b8385101561175357845180825260209586019590935001611737565b509695505050505050565b7f4e487b71000000000000000000000000000000000000000000000000000000005f52603260045260245ffd5b803565ffffffffffff811681146117a0575f5ffd5b919050565b5f8184825b858110156117d85765ffffffffffff6117c28361178b565b16835260209283019291909101906001016117aa565b509095945050505050565b803560ff811681146117a0575f5ffd5b5f60208284031215611803575f5ffd5b61136c826117e3565b61ffff81811683821601908111156115cc576115cc61158c565b6001815b6001841115611861578085048111156118455761184561158c565b600184161561185357908102905b60019390931c92800261182a565b935093915050565b5f82611877575060016115cc565b8161188357505f6115cc565b816001811461189957600281146118a3576118bf565b60019150506115cc565b60ff8411156118b4576118b461158c565b50506001821b6115cc565b5060208310610133831016604e8410600b84101617156118e2575081810a6115cc565b61190d7fffffffffffffffffffffffffffffffffffffffffffffffffffffffffffffffff8484611826565b807fffffffffffffffffffffffffffffffffffffffffffffffffffffffffffffffff0482111561193f5761193f61158c565b029392505050565b5f61136c60ff841683611869565b808201808211156115cc576115cc61158c565b5f60208284031215611978575f5ffd5b61136c8261178b565b8183526020830192505f815f5b848110156119bc5765ffffffffffff6119a68361178b565b168652602095860195919091019060010161198e565b5093949350505050565b608081525f6119d960808301898b611981565b82810360208401526119ec81888a611981565b83810360408501528581528691506020015f5b86811015611a275760ff611a12846117e3565b168252602092830192909101906001016119ff565b50809250505061ffff831660608301529897505050505050505056fea2646970667358221220928ff4515fd4fcfaf88136b1856483f3148793eeb7355a39be9f324e01f4f36964736f6c634300081c0033","linkReferences":{}},"methodIdentifiers":{"exitBeta()":"8022bdbd","hashActiveVaults()":"7ec21573","haultMinting()":"b69bf537","initialize(address,address)":"485cc955","owner()":"8da5cb5b","renounceOwnership()":"715018a6","resumeMinting()":"59ae340e","saveFunds(address[],address)":"543bc766","setBaseFee(uint16)":"3b586c7f","setLPFee(uint16)":"e87d80b3","shutdownSystem()":"354af919","sir()":"124b4e63","systemStatus()":"64cb907c","timestampStatusChanged()":"c713b7ac","transferOwnership(address)":"f2fde38b","updateVaultsIssuances(uint48[],uint48[],uint8[])":"c39bb8af","vault()":"fbfa77cf"},"id":85}