{
  "_format": "hh-sol-artifact-1",
  "contractName": "Vault",
  "sourceName": "src/Vault.sol",
  "abi": [
    {
      "inputs": [
        {
          "internalType": "address",
          "name": "systemControl_",
          "type": "address"
        },
        {
          "internalType": "address",
          "name": "sir",
          "type": "address"
        },
        {
          "internalType": "address",
          "name": "oracle_",
          "type": "address"
        }
      ],
      "stateMutability": "nonpayable",
      "type": "constructor"
    },
    {
      "inputs": [],
      "name": "LeverageTierOutOfRange",
      "type": "error"
    },
    {
      "inputs": [],
      "name": "VaultAlreadyInitialized",
      "type": "error"
    },
    {
      "inputs": [],
      "name": "VaultDoesNotExist",
      "type": "error"
    },
    {
      "anonymous": false,
      "inputs": [
        {
          "indexed": true,
          "internalType": "address",
          "name": "owner",
          "type": "address"
        },
        {
          "indexed": true,
          "internalType": "address",
          "name": "operator",
          "type": "address"
        },
        {
          "indexed": false,
          "internalType": "bool",
          "name": "approved",
          "type": "bool"
        }
      ],
      "name": "ApprovalForAll",
      "type": "event"
    },
    {
      "anonymous": false,
      "inputs": [
        {
          "indexed": true,
          "internalType": "address",
          "name": "operator",
          "type": "address"
        },
        {
          "indexed": true,
          "internalType": "address",
          "name": "from",
          "type": "address"
        },
        {
          "indexed": true,
          "internalType": "address",
          "name": "to",
          "type": "address"
        },
        {
          "indexed": false,
          "internalType": "uint256[]",
          "name": "ids",
          "type": "uint256[]"
        },
        {
          "indexed": false,
          "internalType": "uint256[]",
          "name": "amounts",
          "type": "uint256[]"
        }
      ],
      "name": "TransferBatch",
      "type": "event"
    },
    {
      "anonymous": false,
      "inputs": [
        {
          "indexed": true,
          "internalType": "address",
          "name": "operator",
          "type": "address"
        },
        {
          "indexed": true,
          "internalType": "address",
          "name": "from",
          "type": "address"
        },
        {
          "indexed": true,
          "internalType": "address",
          "name": "to",
          "type": "address"
        },
        {
          "indexed": false,
          "internalType": "uint256",
          "name": "id",
          "type": "uint256"
        },
        {
          "indexed": false,
          "internalType": "uint256",
          "name": "amount",
          "type": "uint256"
        }
      ],
      "name": "TransferSingle",
      "type": "event"
    },
    {
      "anonymous": false,
      "inputs": [
        {
          "indexed": false,
          "internalType": "string",
          "name": "value",
          "type": "string"
        },
        {
          "indexed": true,
          "internalType": "uint256",
          "name": "id",
          "type": "uint256"
        }
      ],
      "name": "URI",
      "type": "event"
    },
    {
      "anonymous": false,
      "inputs": [
        {
          "indexed": true,
          "internalType": "address",
          "name": "debtToken",
          "type": "address"
        },
        {
          "indexed": true,
          "internalType": "address",
          "name": "collateralToken",
          "type": "address"
        },
        {
          "indexed": true,
          "internalType": "int8",
          "name": "leverageTier",
          "type": "int8"
        },
        {
          "indexed": false,
          "internalType": "uint256",
          "name": "vaultId",
          "type": "uint256"
        }
      ],
      "name": "VaultInitialized",
      "type": "event"
    },
    {
      "inputs": [],
      "name": "ISSUANCE",
      "outputs": [
        {
          "internalType": "uint72",
          "name": "",
          "type": "uint72"
        }
      ],
      "stateMutability": "view",
      "type": "function"
    },
    {
      "inputs": [
        {
          "internalType": "address",
          "name": "",
          "type": "address"
        },
        {
          "internalType": "uint256",
          "name": "",
          "type": "uint256"
        }
      ],
      "name": "balanceOf",
      "outputs": [
        {
          "internalType": "uint256",
          "name": "",
          "type": "uint256"
        }
      ],
      "stateMutability": "view",
      "type": "function"
    },
    {
      "inputs": [
        {
          "internalType": "address[]",
          "name": "owners",
          "type": "address[]"
        },
        {
          "internalType": "uint256[]",
          "name": "ids",
          "type": "uint256[]"
        }
      ],
      "name": "balanceOfBatch",
      "outputs": [
        {
          "internalType": "uint256[]",
          "name": "balances",
          "type": "uint256[]"
        }
      ],
      "stateMutability": "view",
      "type": "function"
    },
    {
      "inputs": [
        {
          "internalType": "bool",
          "name": "isAPE",
          "type": "bool"
        },
        {
          "internalType": "address",
          "name": "debtToken",
          "type": "address"
        },
        {
          "internalType": "address",
          "name": "collateralToken",
          "type": "address"
        },
        {
          "internalType": "int8",
          "name": "leverageTier",
          "type": "int8"
        },
        {
          "internalType": "uint256",
          "name": "amountToken",
          "type": "uint256"
        }
      ],
      "name": "burn",
      "outputs": [
        {
          "internalType": "uint152",
          "name": "",
          "type": "uint152"
        }
      ],
      "stateMutability": "nonpayable",
      "type": "function"
    },
    {
      "inputs": [
        {
          "internalType": "address",
          "name": "debtToken",
          "type": "address"
        },
        {
          "internalType": "address",
          "name": "collateralToken",
          "type": "address"
        },
        {
          "internalType": "int8",
          "name": "leverageTier",
          "type": "int8"
        }
      ],
      "name": "initialize",
      "outputs": [],
      "stateMutability": "nonpayable",
      "type": "function"
    },
    {
      "inputs": [
        {
          "internalType": "address",
          "name": "",
          "type": "address"
        },
        {
          "internalType": "address",
          "name": "",
          "type": "address"
        }
      ],
      "name": "isApprovedForAll",
      "outputs": [
        {
          "internalType": "bool",
          "name": "",
          "type": "bool"
        }
      ],
      "stateMutability": "view",
      "type": "function"
    },
    {
      "inputs": [],
      "name": "latestTokenParams",
      "outputs": [
        {
          "internalType": "string",
          "name": "name",
          "type": "string"
        },
        {
          "internalType": "string",
          "name": "symbol",
          "type": "string"
        },
        {
          "internalType": "uint8",
          "name": "decimals",
          "type": "uint8"
        },
        {
          "internalType": "address",
          "name": "debtToken",
          "type": "address"
        },
        {
          "internalType": "address",
          "name": "collateralToken",
          "type": "address"
        },
        {
          "internalType": "int8",
          "name": "leverageTier",
          "type": "int8"
        }
      ],
      "stateMutability": "view",
      "type": "function"
    },
    {
      "inputs": [
        {
          "internalType": "uint256",
          "name": "vaultId",
          "type": "uint256"
        },
        {
          "internalType": "address",
          "name": "lper",
          "type": "address"
        }
      ],
      "name": "lperIssuanceParams",
      "outputs": [
        {
          "components": [
            {
              "internalType": "uint152",
              "name": "cumSIRperTEA",
              "type": "uint152"
            },
            {
              "internalType": "uint104",
              "name": "unclaimedRewards",
              "type": "uint104"
            }
          ],
          "internalType": "struct SystemCommons.LPerIssuanceParams",
          "name": "",
          "type": "tuple"
        }
      ],
      "stateMutability": "view",
      "type": "function"
    },
    {
      "inputs": [
        {
          "internalType": "bool",
          "name": "isAPE",
          "type": "bool"
        },
        {
          "internalType": "address",
          "name": "debtToken",
          "type": "address"
        },
        {
          "internalType": "address",
          "name": "collateralToken",
          "type": "address"
        },
        {
          "internalType": "int8",
          "name": "leverageTier",
          "type": "int8"
        }
      ],
      "name": "mint",
      "outputs": [
        {
          "internalType": "uint256",
          "name": "",
          "type": "uint256"
        }
      ],
      "stateMutability": "nonpayable",
      "type": "function"
    },
    {
      "inputs": [
        {
          "internalType": "uint256",
          "name": "vaultId",
          "type": "uint256"
        }
      ],
      "name": "paramsById",
      "outputs": [
        {
          "internalType": "address",
          "name": "debtToken",
          "type": "address"
        },
        {
          "internalType": "address",
          "name": "collateralToken",
          "type": "address"
        },
        {
          "internalType": "int8",
          "name": "leverageTier",
          "type": "int8"
        }
      ],
      "stateMutability": "view",
      "type": "function"
    },
    {
      "inputs": [
        {
          "internalType": "address",
          "name": "from",
          "type": "address"
        },
        {
          "internalType": "address",
          "name": "to",
          "type": "address"
        },
        {
          "internalType": "uint256[]",
          "name": "vaultIds",
          "type": "uint256[]"
        },
        {
          "internalType": "uint256[]",
          "name": "amounts",
          "type": "uint256[]"
        },
        {
          "internalType": "bytes",
          "name": "data",
          "type": "bytes"
        }
      ],
      "name": "safeBatchTransferFrom",
      "outputs": [],
      "stateMutability": "nonpayable",
      "type": "function"
    },
    {
      "inputs": [
        {
          "internalType": "address",
          "name": "from",
          "type": "address"
        },
        {
          "internalType": "address",
          "name": "to",
          "type": "address"
        },
        {
          "internalType": "uint256",
          "name": "vaultId",
          "type": "uint256"
        },
        {
          "internalType": "uint256",
          "name": "amount",
          "type": "uint256"
        },
        {
          "internalType": "bytes",
          "name": "data",
          "type": "bytes"
        }
      ],
      "name": "safeTransferFrom",
      "outputs": [],
      "stateMutability": "nonpayable",
      "type": "function"
    },
    {
      "inputs": [
        {
          "internalType": "address",
          "name": "operator",
          "type": "address"
        },
        {
          "internalType": "bool",
          "name": "approved",
          "type": "bool"
        }
      ],
      "name": "setApprovalForAll",
      "outputs": [],
      "stateMutability": "nonpayable",
      "type": "function"
    },
    {
      "inputs": [
        {
          "internalType": "address",
          "name": "debtToken",
          "type": "address"
        },
        {
          "internalType": "address",
          "name": "collateralToken",
          "type": "address"
        },
        {
          "internalType": "int8",
          "name": "leverageTier",
          "type": "int8"
        }
      ],
      "name": "state",
      "outputs": [
        {
          "internalType": "int64",
          "name": "tickPriceX42",
          "type": "int64"
        },
        {
          "internalType": "uint40",
          "name": "timeStampPrice",
          "type": "uint40"
        },
        {
          "internalType": "uint152",
          "name": "totalReserves",
          "type": "uint152"
        },
        {
          "internalType": "int64",
          "name": "tickPriceSatX42",
          "type": "int64"
        },
        {
          "internalType": "uint40",
          "name": "vaultId",
          "type": "uint40"
        },
        {
          "internalType": "uint152",
          "name": "daoFees",
          "type": "uint152"
        }
      ],
      "stateMutability": "view",
      "type": "function"
    },
    {
      "inputs": [
        {
          "internalType": "bytes4",
          "name": "interfaceId",
          "type": "bytes4"
        }
      ],
      "name": "supportsInterface",
      "outputs": [
        {
          "internalType": "bool",
          "name": "",
          "type": "bool"
        }
      ],
      "stateMutability": "view",
      "type": "function"
    },
    {
      "inputs": [],
      "name": "systemParams",
      "outputs": [
        {
          "internalType": "uint40",
          "name": "tsIssuanceStart",
          "type": "uint40"
        },
        {
          "internalType": "uint16",
          "name": "baseFee",
          "type": "uint16"
        },
        {
          "internalType": "uint8",
          "name": "lpFee",
          "type": "uint8"
        },
        {
          "internalType": "bool",
          "name": "emergencyStop",
          "type": "bool"
        },
        {
          "internalType": "uint184",
          "name": "aggTaxesToDAO",
          "type": "uint184"
        }
      ],
      "stateMutability": "view",
      "type": "function"
    },
    {
      "inputs": [
        {
          "internalType": "uint256",
          "name": "vaultId",
          "type": "uint256"
        }
      ],
      "name": "totalSupply",
      "outputs": [
        {
          "internalType": "uint256",
          "name": "",
          "type": "uint256"
        }
      ],
      "stateMutability": "view",
      "type": "function"
    },
    {
      "inputs": [
        {
          "internalType": "uint256",
          "name": "vaultId",
          "type": "uint256"
        },
        {
          "internalType": "address",
          "name": "lper",
          "type": "address"
        }
      ],
      "name": "updateLPerIssuanceParams",
      "outputs": [
        {
          "internalType": "uint104",
          "name": "unclaimedRewards",
          "type": "uint104"
        }
      ],
      "stateMutability": "nonpayable",
      "type": "function"
    },
    {
      "inputs": [
        {
          "internalType": "uint40",
          "name": "tsIssuanceStart_",
          "type": "uint40"
        },
        {
          "internalType": "uint16",
          "name": "baseFee_",
          "type": "uint16"
        },
        {
          "internalType": "uint8",
          "name": "lpFee_",
          "type": "uint8"
        },
        {
          "internalType": "bool",
          "name": "isEmergency",
          "type": "bool"
        },
        {
          "internalType": "bool",
          "name": "isNotEmergency",
          "type": "bool"
        },
        {
          "internalType": "uint40[]",
          "name": "oldVaults",
          "type": "uint40[]"
        },
        {
          "internalType": "uint40[]",
          "name": "newVaults",
          "type": "uint40[]"
        },
        {
          "internalType": "uint16[]",
          "name": "newTaxes",
          "type": "uint16[]"
        }
      ],
      "name": "updateSystemState",
      "outputs": [],
      "stateMutability": "nonpayable",
      "type": "function"
    },
    {
      "inputs": [
        {
          "internalType": "uint256",
          "name": "vaultId",
          "type": "uint256"
        }
      ],
      "name": "uri",
      "outputs": [
        {
          "internalType": "string",
          "name": "",
          "type": "string"
        }
      ],
      "stateMutability": "view",
      "type": "function"
    },
    {
      "inputs": [
        {
          "internalType": "uint256",
          "name": "vaultId",
          "type": "uint256"
        }
      ],
      "name": "vaultIssuanceParams",
      "outputs": [
        {
          "components": [
            {
              "internalType": "uint16",
              "name": "taxToDAO",
              "type": "uint16"
            },
            {
              "internalType": "uint40",
              "name": "tsLastUpdate",
              "type": "uint40"
            },
            {
              "internalType": "uint152",
              "name": "cumSIRperTEA",
              "type": "uint152"
            }
          ],
          "internalType": "struct SystemState.VaultIssuanceParams",
          "name": "",
          "type": "tuple"
        }
      ],
      "stateMutability": "view",
      "type": "function"
    },
    {
      "inputs": [
        {
          "internalType": "uint40",
          "name": "vaultId",
          "type": "uint40"
        },
        {
          "internalType": "address",
          "name": "to",
          "type": "address"
        }
      ],
      "name": "widhtdrawDAOFees",
      "outputs": [],
      "stateMutability": "nonpayable",
      "type": "function"
    }
  ],
  "bytecode": "0x60e06040526040518060a001604052805f64ffffffffff16815260200161138861ffff168152602001603260ff1681526020015f151581526020015f76ffffffffffffffffffffffffffffffffffffffffffffff1681525060055f820151815f015f6101000a81548164ffffffffff021916908364ffffffffff1602179055506020820151815f0160056101000a81548161ffff021916908361ffff1602179055506040820151815f0160076101000a81548160ff021916908360ff1602179055506060820151815f0160086101000a81548160ff0219169083151502179055506080820151815f0160096101000a81548176ffffffffffffffffffffffffffffffffffffffffffffff021916908376ffffffffffffffffffffffffffffffffffffffffffffff16021790555050503480156200013a575f80fd5b50604051620080cb380380620080cb833981810160405281019062000160919062000390565b8282818073ffffffffffffffffffffffffffffffffffffffff1660808173ffffffffffffffffffffffffffffffffffffffff1681525050508073ffffffffffffffffffffffffffffffffffffffff1660a08173ffffffffffffffffffffffffffffffffffffffff168152505050508073ffffffffffffffffffffffffffffffffffffffff1660c08173ffffffffffffffffffffffffffffffffffffffff1681525050600a60405180606001604052805f73ffffffffffffffffffffffffffffffffffffffff1681526020015f73ffffffffffffffffffffffffffffffffffffffff1681526020015f800b815250908060018154018082558091505060019003905f5260205f2090600202015f909190919091505f820151815f015f6101000a81548173ffffffffffffffffffffffffffffffffffffffff021916908373ffffffffffffffffffffffffffffffffffffffff1602179055506020820151816001015f6101000a81548173ffffffffffffffffffffffffffffffffffffffff021916908373ffffffffffffffffffffffffffffffffffffffff16021790555060408201518160010160146101000a81548160ff02191690835f0b60ff1602179055505050505050620003e9565b5f80fd5b5f73ffffffffffffffffffffffffffffffffffffffff82169050919050565b5f6200035a826200032f565b9050919050565b6200036c816200034e565b811462000377575f80fd5b50565b5f815190506200038a8162000361565b92915050565b5f805f60608486031215620003aa57620003a96200032b565b5b5f620003b9868287016200037a565b9350506020620003cc868287016200037a565b9250506040620003df868287016200037a565b9150509250925092565b60805160a05160c051617ca9620004225f395f8181611abd01526132a601525f611e1101525f8181611ea00152612ab70152617ca95ff3fe608060405234801561000f575f80fd5b506004361061013f575f3560e01c80637c1e2649116100b6578063bd85b0391161007a578063bd85b039146103cb578063e8afb9c0146103fb578063e985e9c51461042b578063f242432a1461045b578063f8955c6114610477578063fb850d43146104935761013f565b80637c1e2649146103105780637e84e10014610340578063a22cb4651461035c578063b026737914610378578063b46f312f146103965761013f565b806334f544b71161010857806334f544b71461021f578063458e8e6b1461024f5780634e1273f41461027157806360e0970a146102a157806375180956146102c4578063752e1875146102e05761013f565b8062fdd58e1461014357806301ffc9a7146101735780630ba53c7a146101a35780630e89341c146101d35780632eb2c2d614610203575b5f80fd5b61015d60048036038101906101589190615ef9565b6104c5565b60405161016a9190615f46565b60405180910390f35b61018d60048036038101906101889190615fb4565b6104e4565b60405161019a9190615ff9565b60405180910390f35b6101bd60048036038101906101b89190616071565b610575565b6040516101ca9190615f46565b60405180910390f35b6101ed60048036038101906101e891906160d5565b610b96565b6040516101fa919061618a565b60405180910390f35b61021d60048036038101906102189190616260565b610c7c565b005b61023960048036038101906102349190616337565b6110cf565b60405161024691906163db565b60405180910390f35b61025761161f565b60405161026895949392919061647b565b60405180910390f35b61028b60048036038101906102869190616521565b611699565b6040516102989190616656565b60405180910390f35b6102a96117fd565b6040516102bb96959493929190616694565b60405180910390f35b6102de60048036038101906102d99190616701565b611a52565b005b6102fa60048036038101906102f59190616751565b611e0e565b60405161030791906167b6565b60405180910390f35b61032a60048036038101906103259190616751565b611e7b565b604051610337919061681a565b60405180910390f35b61035a6004803603810190610355919061685d565b611e9e565b005b6103766004803603810190610371919061689b565b6120b2565b005b6103806121aa565b60405161038d91906168fc565b60405180910390f35b6103b060048036038101906103ab9190616701565b6121b7565b6040516103c296959493929190616930565b60405180910390f35b6103e560048036038101906103e091906160d5565b61227b565b6040516103f29190615f46565b60405180910390f35b610415600480360381019061041091906160d5565b612290565b60405161042291906169ed565b60405180910390f35b61044560048036038101906104409190616a06565b6126df565b6040516104529190615ff9565b60405180910390f35b61047560048036038101906104709190616a44565b612709565b005b610491600480360381019061048c9190616bd8565b612ab5565b005b6104ad60048036038101906104a891906160d5565b612fbc565b6040516104bc93929190616ce9565b60405180910390f35b5f602052815f5260405f20602052805f5260405f205f91509150505481565b5f6301ffc9a760e01b827bffffffffffffffffffffffffffffffffffffffffffffffffffffffff1916148061053e575063d9b67a2660e01b827bffffffffffffffffffffffffffffffffffffffffffffffffffffffff1916145b8061056e5750630e89341c60e01b827bffffffffffffffffffffffffffffffffffffffffffffffffffffffff1916145b9050919050565b5f60055f0160089054906101000a900460ff1615610591575f80fd5b84156105be575f60055f015f9054906101000a900464ffffffffff1664ffffffffff16116105bd575f80fd5b5b5f6105ca858585613081565b90505f6105d78285613371565b90505f805f806105e88b878761396d565b8093508194508295505050505f6105ff878b613a37565b90505f8760a00151886040015183010172ffffffffffffffffffffffffffffffffffffff169050808172ffffffffffffffffffffffffffffffffffffff1614610646575f80fd5b505f6106938d61066a5760055f0160079054906101000a900460ff1660ff1661067e565b60055f0160059054906101000a900461ffff165b838f61068a575f61068c565b8c5b5f0b613b13565b80925081935050505f8472ffffffffffffffffffffffffffffffffffffff16146106f1576106ec838372ffffffffffffffffffffffffffffffffffffff168672ffffffffffffffffffffffffffffffffffffff16613bab565b610708565b8172ffffffffffffffffffffffffffffffffffffff165b95505f600a8272ffffffffffffffffffffffffffffffffffffff168161073157610730616d1e565b5b0490505f80896040015172ffffffffffffffffffffffffffffffffffffff16146107935761078e858372ffffffffffffffffffffffffffffffffffffff168b6040015172ffffffffffffffffffffffffffffffffffffff16613bab565b6107aa565b8172ffffffffffffffffffffffffffffffffffffff165b90505f61ffff600a0261ffff1660035f8d6080015164ffffffffff1681526020019081526020015f205f015f9054906101000a900461ffff1661ffff16850272ffffffffffffffffffffffffffffffffffffff168161080c5761080b616d1e565b5b0490508f15610882578773ffffffffffffffffffffffffffffffffffffffff166340c10f19338b6040518363ffffffff1660e01b8152600401610850929190616d4b565b5f604051808303815f87803b158015610867575f80fd5b505af1158015610879573d5f803e3d5ffd5b50505050610899565b610898338c6080015164ffffffffff168b613c9c565b5b6108af308c6080015164ffffffffff1684613c9c565b808a5f018181510191509072ffffffffffffffffffffffffffffffffffffff16908172ffffffffffffffffffffffffffffffffffffff16815250508084038a6040018181510191509072ffffffffffffffffffffffffffffffffffffff16908172ffffffffffffffffffffffffffffffffffffff16815250508f1561096f57848a6020018181510191509072ffffffffffffffffffffffffffffffffffffff16908172ffffffffffffffffffffffffffffffffffffff16815250506109ac565b848a6040018181510191509072ffffffffffffffffffffffffffffffffffffff16908172ffffffffffffffffffffffffffffffffffffff16815250505b50505050505050506109bf838387613f04565b8260095f8973ffffffffffffffffffffffffffffffffffffffff1673ffffffffffffffffffffffffffffffffffffffff1681526020019081526020015f205f8873ffffffffffffffffffffffffffffffffffffffff1673ffffffffffffffffffffffffffffffffffffffff1681526020019081526020015f205f875f0b5f0b81526020019081526020015f205f820151815f015f6101000a81548167ffffffffffffffff021916908360070b67ffffffffffffffff1602179055506020820151815f0160086101000a81548164ffffffffff021916908364ffffffffff1602179055506040820151815f01600d6101000a81548172ffffffffffffffffffffffffffffffffffffff021916908372ffffffffffffffffffffffffffffffffffffff1602179055506060820151816001015f6101000a81548167ffffffffffffffff021916908360070b67ffffffffffffffff16021790555060808201518160010160086101000a81548164ffffffffff021916908364ffffffffff16021790555060a082015181600101600d6101000a81548172ffffffffffffffffffffffffffffffffffffff021916908372ffffffffffffffffffffffffffffffffffffff160217905550905050809350505050949350505050565b60605f610ba283614325565b90505f805f610bb086612fbc565b9250925092508384610c308473ffffffffffffffffffffffffffffffffffffffff1663313ce5676040518163ffffffff1660e01b8152600401602060405180830381865afa158015610c04573d5f803e3d5ffd5b505050506040513d601f19601f82011682018060405250810190610c289190616d86565b60ff16614325565b610c39866143ef565b610c42866143ef565b610c4d865f0b61441c565b604051602001610c6296959493929190616ff9565b604051602081830303815290604052945050505050919050565b838390508686905014610cc4576040517f08c379a0000000000000000000000000000000000000000000000000000000008152600401610cbb906170f7565b60405180910390fd5b8773ffffffffffffffffffffffffffffffffffffffff163373ffffffffffffffffffffffffffffffffffffffff161480610d7f575060015f8973ffffffffffffffffffffffffffffffffffffffff1673ffffffffffffffffffffffffffffffffffffffff1681526020019081526020015f205f3373ffffffffffffffffffffffffffffffffffffffff1673ffffffffffffffffffffffffffffffffffffffff1681526020019081526020015f205f9054906101000a900460ff165b610dbe576040517f08c379a0000000000000000000000000000000000000000000000000000000008152600401610db59061715f565b60405180910390fd5b5f805f5b88889050811015610edf57888882818110610de057610ddf61717d565b5b905060200201359250868682818110610dfc57610dfb61717d565b5b905060200201359150610e11838c8c5f6144a8565b50815f808d73ffffffffffffffffffffffffffffffffffffffff1673ffffffffffffffffffffffffffffffffffffffff1681526020019081526020015f205f8581526020019081526020015f205f828254610e6c91906171d7565b92505081905550815f808c73ffffffffffffffffffffffffffffffffffffffff1673ffffffffffffffffffffffffffffffffffffffff1681526020019081526020015f205f8581526020019081526020015f205f828254610ecd919061720a565b92505081905550806001019050610dc2565b508873ffffffffffffffffffffffffffffffffffffffff168a73ffffffffffffffffffffffffffffffffffffffff163373ffffffffffffffffffffffffffffffffffffffff167f4a39dc06d4c0dbc64b70af90fd698a233a518aa5d07e595d983b8c0526c8f7fb8b8b8b8b604051610f5a94939291906172a5565b60405180910390a45f8973ffffffffffffffffffffffffffffffffffffffff163b146110535763bc197c8160e01b7bffffffffffffffffffffffffffffffffffffffffffffffffffffffff19168973ffffffffffffffffffffffffffffffffffffffff1663bc197c81338d8c8c8c8c8c8c6040518963ffffffff1660e01b8152600401610fee989796959493929190617328565b6020604051808303815f875af115801561100a573d5f803e3d5ffd5b505050506040513d601f19601f8201168201806040525081019061102e91906173a8565b7bffffffffffffffffffffffffffffffffffffffffffffffffffffffff191614611084565b5f73ffffffffffffffffffffffffffffffffffffffff168973ffffffffffffffffffffffffffffffffffffffff1614155b6110c3576040517f08c379a00000000000000000000000000000000000000000000000000000000081526004016110ba9061741d565b60405180910390fd5b50505050505050505050565b5f806110dc868686613081565b90505f6110e98286613371565b90505f805f805f805f6110fd8f8a8a61396d565b8093508194508298505050506111298272ffffffffffffffffffffffffffffffffffffff168c83613bab565b94508e1561115d5761115060055f0160059054906101000a900461ffff16868e5f0b613b13565b8095508198505050611187565b61117e60055f0160079054906101000a900460ff1660ff16865f800b613b13565b80955081985050505b5f600a85611195919061743b565b90505f896040015172ffffffffffffffffffffffffffffffffffffff16146111f5576111f0828272ffffffffffffffffffffffffffffffffffffff168b6040015172ffffffffffffffffffffffffffffffffffffff16613bab565b61120c565b8072ffffffffffffffffffffffffffffffffffffff165b93505050505f61ffff600a0261ffff1660035f8a6080015164ffffffffff1681526020019081526020015f205f015f9054906101000a900461ffff1661ffff16840272ffffffffffffffffffffffffffffffffffffff168161127157611270616d1e565b5b0490508d156112e7578473ffffffffffffffffffffffffffffffffffffffff16639dc29fac338c6040518363ffffffff1660e01b81526004016112b5929190616d4b565b5f604051808303815f87803b1580156112cc575f80fd5b505af11580156112de573d5f803e3d5ffd5b505050506112fe565b6112fd33896080015164ffffffffff168c6147ad565b5b61131430896080015164ffffffffff1684613c9c565b80875f01818151611325919061746b565b91509072ffffffffffffffffffffffffffffffffffffff16908172ffffffffffffffffffffffffffffffffffffff1681525050808361136491906174b1565b87604001818151611375919061746b565b91509072ffffffffffffffffffffffffffffffffffffff16908172ffffffffffffffffffffffffffffffffffffff16815250508d156113ef5783876020018181510391509072ffffffffffffffffffffffffffffffffffffff16908172ffffffffffffffffffffffffffffffffffffff168152505061142c565b83876040018181510391509072ffffffffffffffffffffffffffffffffffffff16908172ffffffffffffffffffffffffffffffffffffff16815250505b61143788888d613f04565b8760095f8f73ffffffffffffffffffffffffffffffffffffffff1673ffffffffffffffffffffffffffffffffffffffff1681526020019081526020015f205f8e73ffffffffffffffffffffffffffffffffffffffff1673ffffffffffffffffffffffffffffffffffffffff1681526020019081526020015f205f8d5f0b5f0b81526020019081526020015f205f820151815f015f6101000a81548167ffffffffffffffff021916908360070b67ffffffffffffffff1602179055506020820151815f0160086101000a81548164ffffffffff021916908364ffffffffff1602179055506040820151815f01600d6101000a81548172ffffffffffffffffffffffffffffffffffffff021916908372ffffffffffffffffffffffffffffffffffffff1602179055506060820151816001015f6101000a81548167ffffffffffffffff021916908360070b67ffffffffffffffff16021790555060808201518160010160086101000a81548164ffffffffff021916908364ffffffffff16021790555060a082015181600101600d6101000a81548172ffffffffffffffffffffffffffffffffffffff021916908372ffffffffffffffffffffffffffffffffffffff16021790555090505061160b8c338c6148bc565b859850505050505050505095945050505050565b6005805f015f9054906101000a900464ffffffffff1690805f0160059054906101000a900461ffff1690805f0160079054906101000a900460ff1690805f0160089054906101000a900460ff1690805f0160099054906101000a900476ffffffffffffffffffffffffffffffffffffffffffffff16905085565b60608282905085859050146116e3576040517f08c379a00000000000000000000000000000000000000000000000000000000081526004016116da906170f7565b60405180910390fd5b8484905067ffffffffffffffff811115611700576116ff6174f7565b5b60405190808252806020026020018201604052801561172e5781602001602082028036833780820191505090505b5090505f5b858590508110156117f4575f808787848181106117535761175261717d565b5b90506020020160208101906117689190617524565b73ffffffffffffffffffffffffffffffffffffffff1673ffffffffffffffffffffffffffffffffffffffff1681526020019081526020015f205f8585848181106117b5576117b461717d565b5b9050602002013581526020019081526020015f20548282815181106117dd576117dc61717d565b5b602002602001018181525050806001019050611733565b50949350505050565b6060805f805f8060065f0180546118139061757c565b80601f016020809104026020016040519081016040528092919081815260200182805461183f9061757c565b801561188a5780601f106118615761010080835404028352916020019161188a565b820191905f5260205f20905b81548152906001019060200180831161186d57829003601f168201915b50505050509550600660010180546118a19061757c565b80601f01602080910402602001604051908101604052809291908181526020018280546118cd9061757c565b80156119185780601f106118ef57610100808354040283529160200191611918565b820191905f5260205f20905b8154815290600101906020018083116118fb57829003601f168201915b5050505050945060066002015f9054906101000a900460ff1693505f600a6001600a8054905061194891906171d7565b815481106119595761195861717d565b5b905f5260205f2090600202016040518060600160405290815f82015f9054906101000a900473ffffffffffffffffffffffffffffffffffffffff1673ffffffffffffffffffffffffffffffffffffffff1673ffffffffffffffffffffffffffffffffffffffff168152602001600182015f9054906101000a900473ffffffffffffffffffffffffffffffffffffffff1673ffffffffffffffffffffffffffffffffffffffff1673ffffffffffffffffffffffffffffffffffffffff1681526020016001820160149054906101000a90045f0b5f0b5f0b815250509050805f01519350806020015192508060400151915050909192939495565b6002815f0b1380611a8457507ffffffffffffffffffffffffffffffffffffffffffffffffffffffffffffffffd815f0b125b15611abb576040517f4f221bee00000000000000000000000000000000000000000000000000000000815260040160405180910390fd5b7f000000000000000000000000000000000000000000000000000000000000000073ffffffffffffffffffffffffffffffffffffffff1663485cc95584846040518363ffffffff1660e01b8152600401611b169291906175ac565b5f604051808303815f87803b158015611b2d575f80fd5b505af1158015611b3f573d5f803e3d5ffd5b505050505f60095f8573ffffffffffffffffffffffffffffffffffffffff1673ffffffffffffffffffffffffffffffffffffffff1681526020019081526020015f205f8473ffffffffffffffffffffffffffffffffffffffff1673ffffffffffffffffffffffffffffffffffffffff1681526020019081526020015f205f835f0b5f0b81526020019081526020015f2090505f8160010160089054906101000a900464ffffffffff1664ffffffffff1614611c26576040517fabd5ec5d00000000000000000000000000000000000000000000000000000000815260040160405180910390fd5b5f600a80549050905064ffffffffff8016811115611c42575f80fd5b600a60405180606001604052808773ffffffffffffffffffffffffffffffffffffffff1681526020018673ffffffffffffffffffffffffffffffffffffffff168152602001855f0b815250908060018154018082558091505060019003905f5260205f2090600202015f909190919091505f820151815f015f6101000a81548173ffffffffffffffffffffffffffffffffffffffff021916908373ffffffffffffffffffffffffffffffffffffffff1602179055506020820151816001015f6101000a81548173ffffffffffffffffffffffffffffffffffffffff021916908373ffffffffffffffffffffffffffffffffffffffff16021790555060408201518160010160146101000a81548160ff02191690835f0b60ff160217905550505073__$6d305a8378dd6f0b3fef82cd76e0126417$__63620e52426006838888886040518663ffffffff1660e01b8152600401611da2959493929190617607565b602060405180830381865af4158015611dbd573d5f803e3d5ffd5b505050506040513d601f19601f82011682018060405250810190611de19190617693565b50808260010160086101000a81548164ffffffffff021916908364ffffffffff1602179055505050505050565b5f7f000000000000000000000000000000000000000000000000000000000000000073ffffffffffffffffffffffffffffffffffffffff163373ffffffffffffffffffffffffffffffffffffffff1614611e66575f80fd5b611e7383835f60016144a8565b905092915050565b611e83615d1f565b611e968383611e9186612290565b614a0b565b905092915050565b7f000000000000000000000000000000000000000000000000000000000000000073ffffffffffffffffffffffffffffffffffffffff163373ffffffffffffffffffffffffffffffffffffffff1614611ef5575f80fd5b5f805f611f088564ffffffffff16612fbc565b9250925092505f60095f8573ffffffffffffffffffffffffffffffffffffffff1673ffffffffffffffffffffffffffffffffffffffff1681526020019081526020015f205f8473ffffffffffffffffffffffffffffffffffffffff1673ffffffffffffffffffffffffffffffffffffffff1681526020019081526020015f205f835f0b5f0b81526020019081526020015f20600101600d9054906101000a900472ffffffffffffffffffffffffffffffffffffff1672ffffffffffffffffffffffffffffffffffffff1690505f60095f8673ffffffffffffffffffffffffffffffffffffffff1673ffffffffffffffffffffffffffffffffffffffff1681526020019081526020015f205f8573ffffffffffffffffffffffffffffffffffffffff1673ffffffffffffffffffffffffffffffffffffffff1681526020019081526020015f205f845f0b5f0b81526020019081526020015f20600101600d6101000a81548172ffffffffffffffffffffffffffffffffffffff021916908372ffffffffffffffffffffffffffffffffffffff1602179055506120aa8386836148bc565b505050505050565b8060015f3373ffffffffffffffffffffffffffffffffffffffff1673ffffffffffffffffffffffffffffffffffffffff1681526020019081526020015f205f8473ffffffffffffffffffffffffffffffffffffffff1673ffffffffffffffffffffffffffffffffffffffff1681526020019081526020015f205f6101000a81548160ff0219169083151502179055508173ffffffffffffffffffffffffffffffffffffffff163373ffffffffffffffffffffffffffffffffffffffff167f17307eab39ab6107e8899845ad3d59bd9653f200f220920489ca2b5937696c318360405161219e9190615ff9565b60405180910390a35050565b68056bc75e2d6310000081565b6009602052825f5260405f20602052815f5260405f20602052805f5260405f205f925092505050805f015f9054906101000a900460070b90805f0160089054906101000a900464ffffffffff1690805f01600d9054906101000a900472ffffffffffffffffffffffffffffffffffffff1690806001015f9054906101000a900460070b908060010160089054906101000a900464ffffffffff169080600101600d9054906101000a900472ffffffffffffffffffffffffffffffffffffff16905086565b6002602052805f5260405f205f915090505481565b612298615d5b565b5f60056040518060a00160405290815f82015f9054906101000a900464ffffffffff1664ffffffffff1664ffffffffff1681526020015f820160059054906101000a900461ffff1661ffff1661ffff1681526020015f820160079054906101000a900460ff1660ff1660ff1681526020015f820160089054906101000a900460ff161515151581526020015f820160099054906101000a900476ffffffffffffffffffffffffffffffffffffffffffffff1676ffffffffffffffffffffffffffffffffffffffffffffff1676ffffffffffffffffffffffffffffffffffffffffffffff168152505090505f60035f8581526020019081526020015f206040518060600160405290815f82015f9054906101000a900461ffff1661ffff1661ffff1681526020015f820160029054906101000a900464ffffffffff1664ffffffffff1664ffffffffff1681526020015f820160079054906101000a900472ffffffffffffffffffffffffffffffffffffff1672ffffffffffffffffffffffffffffffffffffff1672ffffffffffffffffffffffffffffffffffffff1681525050905042816020019064ffffffffff16908164ffffffffff16815250505f825f015164ffffffffff16148061247157505f815f015161ffff16145b8061248d57504264ffffffffff16816020015164ffffffffff16145b1561249c5780925050506126da565b5f816020015164ffffffffff16835f015164ffffffffff16116124c35781602001516124c8565b825f01515b90505f6305a39a80845f01510190508064ffffffffff168264ffffffffff1610156125e4575f846080015176ffffffffffffffffffffffffffffffffffffffffffffff16845f015161ffff16600a600968056bc75e2d631000000268ffffffffffffffffff168161253c5761253b616d1e565b5b0468ffffffffffffffffff16028161255757612556616d1e565b5b04905060025f8881526020019081526020015f20546030848464ffffffffff164264ffffffffff161161258a574261258c565b845b0364ffffffffff168302901b816125a6576125a5616d1e565b5b04846040018181510191509072ffffffffffffffffffffffffffffffffffffff16908172ffffffffffffffffffffffffffffffffffffff1681525050505b8064ffffffffff164264ffffffffff1611156126d2575f846080015176ffffffffffffffffffffffffffffffffffffffffffffff16845f015161ffff1668056bc75e2d6310000068ffffffffffffffffff16028161264557612644616d1e565b5b04905060025f8881526020019081526020015f205460308364ffffffffff168564ffffffffff16116126775783612679565b845b420364ffffffffff168302901b8161269457612693616d1e565b5b04846040018181510191509072ffffffffffffffffffffffffffffffffffffff16908172ffffffffffffffffffffffffffffffffffffff1681525050505b829450505050505b919050565b6001602052815f5260405f20602052805f5260405f205f915091509054906101000a900460ff1681565b8573ffffffffffffffffffffffffffffffffffffffff163373ffffffffffffffffffffffffffffffffffffffff1614806127c4575060015f8773ffffffffffffffffffffffffffffffffffffffff1673ffffffffffffffffffffffffffffffffffffffff1681526020019081526020015f205f3373ffffffffffffffffffffffffffffffffffffffff1673ffffffffffffffffffffffffffffffffffffffff1681526020019081526020015f205f9054906101000a900460ff165b612803576040517f08c379a00000000000000000000000000000000000000000000000000000000081526004016127fa9061715f565b60405180910390fd5b61280f8487875f6144a8565b50825f808873ffffffffffffffffffffffffffffffffffffffff1673ffffffffffffffffffffffffffffffffffffffff1681526020019081526020015f205f8681526020019081526020015f205f82825461286a91906171d7565b92505081905550825f808773ffffffffffffffffffffffffffffffffffffffff1673ffffffffffffffffffffffffffffffffffffffff1681526020019081526020015f205f8681526020019081526020015f205f8282546128cb919061720a565b925050819055508473ffffffffffffffffffffffffffffffffffffffff168673ffffffffffffffffffffffffffffffffffffffff163373ffffffffffffffffffffffffffffffffffffffff167fc3d58168c5ae7397731d063d5bbf3d657854427343f4c083240f7aacaa2d0f6287876040516129489291906176be565b60405180910390a45f8573ffffffffffffffffffffffffffffffffffffffff163b14612a3d5763f23a6e6160e01b7bffffffffffffffffffffffffffffffffffffffffffffffffffffffff19168573ffffffffffffffffffffffffffffffffffffffff1663f23a6e613389888888886040518763ffffffff1660e01b81526004016129d8969594939291906176e5565b6020604051808303815f875af11580156129f4573d5f803e3d5ffd5b505050506040513d601f19601f82011682018060405250810190612a1891906173a8565b7bffffffffffffffffffffffffffffffffffffffffffffffffffffffff191614612a6e565b5f73ffffffffffffffffffffffffffffffffffffffff168573ffffffffffffffffffffffffffffffffffffffff1614155b612aad576040517f08c379a0000000000000000000000000000000000000000000000000000000008152600401612aa49061741d565b60405180910390fd5b505050505050565b7f000000000000000000000000000000000000000000000000000000000000000073ffffffffffffffffffffffffffffffffffffffff163373ffffffffffffffffffffffffffffffffffffffff1614612b0c575f80fd5b5f8b64ffffffffff1614612b7c575f60055f015f9054906101000a900464ffffffffff1664ffffffffff16148015612b4b5750428b64ffffffffff1610155b612b53575f80fd5b8a60055f015f6101000a81548164ffffffffff021916908364ffffffffff160217905550612faf565b5f8a61ffff1614612bab578960055f0160056101000a81548161ffff021916908361ffff160217905550612fae565b5f8960ff1614612bd7578860055f0160076101000a81548160ff021916908360ff160217905550612fad565b8715612c1a5760055f0160089054906101000a900460ff1615612bf8575f80fd5b600160055f0160086101000a81548160ff021916908315150217905550612fac565b8615612c5b5760055f0160089054906101000a900460ff16612c3a575f80fd5b5f60055f0160086101000a81548160ff021916908315150217905550612fab565b612c63615d5b565b5f8787905090505f5b81811015612da057612cab898983818110612c8a57612c8961717d565b5b9050602002016020810190612c9f919061773f565b64ffffffffff16612290565b92505f835f019061ffff16908161ffff16815250508260035f8b8b85818110612cd757612cd661717d565b5b9050602002016020810190612cec919061773f565b64ffffffffff1681526020019081526020015f205f820151815f015f6101000a81548161ffff021916908361ffff1602179055506020820151815f0160026101000a81548164ffffffffff021916908364ffffffffff1602179055506040820151815f0160076101000a81548172ffffffffffffffffffffffffffffffffffffff021916908372ffffffffffffffffffffffffffffffffffffff16021790555090505080612d999061776a565b9050612c6c565b508585905090505f805f90505b82811015612dff57858582818110612dc857612dc761717d565b5b9050602002016020810190612ddd91906177b1565b61ffff1682612dec91906177dc565b915080612df89061776a565b9050612dad565b505f5b82811015612f5d57612e41888883818110612e2057612e1f61717d565b5b9050602002016020810190612e35919061773f565b64ffffffffff16612290565b9350858582818110612e5657612e5561717d565b5b9050602002016020810190612e6b91906177b1565b845f019061ffff16908161ffff16815250508360035f8a8a85818110612e9457612e9361717d565b5b9050602002016020810190612ea9919061773f565b64ffffffffff1681526020019081526020015f205f820151815f015f6101000a81548161ffff021916908361ffff1602179055506020820151815f0160026101000a81548164ffffffffff021916908364ffffffffff1602179055506040820151815f0160076101000a81548172ffffffffffffffffffffffffffffffffffffff021916908372ffffffffffffffffffffffffffffffffffffff16021790555090505080612f569061776a565b9050612e02565b508060055f0160096101000a81548176ffffffffffffffffffffffffffffffffffffffffffffff021916908376ffffffffffffffffffffffffffffffffffffffffffffff1602179055505050505b5b5b5b5b5050505050505050505050565b5f805f600a8481548110612fd357612fd261717d565b5b905f5260205f2090600202015f015f9054906101000a900473ffffffffffffffffffffffffffffffffffffffff169250600a84815481106130175761301661717d565b5b905f5260205f2090600202016001015f9054906101000a900473ffffffffffffffffffffffffffffffffffffffff169150600a848154811061305c5761305b61717d565b5b905f5260205f20906002020160010160149054906101000a90045f0b90509193909250565b613089615d99565b60095f8573ffffffffffffffffffffffffffffffffffffffff1673ffffffffffffffffffffffffffffffffffffffff1681526020019081526020015f205f8473ffffffffffffffffffffffffffffffffffffffff1673ffffffffffffffffffffffffffffffffffffffff1681526020019081526020015f205f835f0b5f0b81526020019081526020015f206040518060c00160405290815f82015f9054906101000a900460070b60070b60070b81526020015f820160089054906101000a900464ffffffffff1664ffffffffff1664ffffffffff1681526020015f8201600d9054906101000a900472ffffffffffffffffffffffffffffffffffffff1672ffffffffffffffffffffffffffffffffffffff1672ffffffffffffffffffffffffffffffffffffff168152602001600182015f9054906101000a900460070b60070b60070b81526020016001820160089054906101000a900464ffffffffff1664ffffffffff1664ffffffffff16815260200160018201600d9054906101000a900472ffffffffffffffffffffffffffffffffffffff1672ffffffffffffffffffffffffffffffffffffff1672ffffffffffffffffffffffffffffffffffffff168152505090505f816080015164ffffffffff1603613292576040517f4d827f1700000000000000000000000000000000000000000000000000000000815260040160405180910390fd5b42816020015164ffffffffff161461336a577f000000000000000000000000000000000000000000000000000000000000000073ffffffffffffffffffffffffffffffffffffffff166304b7ca5584866040518363ffffffff1660e01b81526004016132ff9291906175ac565b6020604051808303815f875af115801561331b573d5f803e3d5ffd5b505050506040513d601f19601f8201168201806040525081019061333f9190617850565b815f019060070b908160070b8152505042816020019064ffffffffff16908164ffffffffff16815250505b9392505050565b613379615e07565b8260a00151815f019072ffffffffffffffffffffffffffffffffffffff16908172ffffffffffffffffffffffffffffffffffffff16815250505f836040015172ffffffffffffffffffffffffffffffffffffff160315613967577fffffffffffffffffffffffffffffffffffffffffffffffff800000000000000060070b836060015160070b036134e0575f60025f856080015164ffffffffff1681526020019081526020015f205403613466578260400151816020019072ffffffffffffffffffffffffffffffffffffff16908172ffffffffffffffffffffffffffffffffffffff16815250506134db565b6001836040015103816020019072ffffffffffffffffffffffffffffffffffffff16908172ffffffffffffffffffffffffffffffffffffff16815250506001816040019072ffffffffffffffffffffffffffffffffffffff16908172ffffffffffffffffffffffffffffffffffffff16815250505b613966565b677fffffffffffffff60070b836060015160070b03613638575f61350e846080015164ffffffffff16614c28565b73ffffffffffffffffffffffffffffffffffffffff166318160ddd6040518163ffffffff1660e01b8152600401602060405180830381865afa158015613556573d5f803e3d5ffd5b505050506040513d601f19601f8201168201806040525081019061357a919061788f565b036135be578260400151816040019072ffffffffffffffffffffffffffffffffffffff16908172ffffffffffffffffffffffffffffffffffffff1681525050613633565b6001816020019072ffffffffffffffffffffffffffffffffffffff16908172ffffffffffffffffffffffffffffffffffffff16815250506001836040015103816040019072ffffffffffffffffffffffffffffffffffffff16908172ffffffffffffffffffffffffffffffffffffff16815250505b613965565b5f80835f0b121561364b57825f0361364d565b825b9050836060015160070b845f015160070b12156137fb575f806136a35f865f0b1361368a578360ff16875f015188606001510360070b901d61369e565b8360ff16875f015188606001510360070b901b5b614c92565b6fffffffffffffffffffffffffffffffff169150915081156136fb576001846020019072ffffffffffffffffffffffffffffffffffffff16908172ffffffffffffffffffffffffffffffffffffff16815250506137b4565b5f8360ff1682901b8201905060018160015f895f0b121561371f5786604001613722565b60405b60ff1660020a8a6040015172ffffffffffffffffffffffffffffffffffffff1602038161375257613751616d1e565b5b0401856020019072ffffffffffffffffffffffffffffffffffffff16908172ffffffffffffffffffffffffffffffffffffff16815250505f856020015172ffffffffffffffffffffffffffffffffffffff16036137b2576137b16178ba565b5b505b8360200151866040015103846040019072ffffffffffffffffffffffffffffffffffffff16908172ffffffffffffffffffffffffffffffffffffff16815250505050613963565b5f8061380f8660600151875f015103614c92565b6fffffffffffffffffffffffffffffffff16915091508115613867576001846040019072ffffffffffffffffffffffffffffffffffffff16908172ffffffffffffffffffffffffffffffffffffff1681525050613920565b5f8360ff1682901b8201905060018160015f895f0b121561388b578660400161388e565b60405b60ff1660020a8a6040015172ffffffffffffffffffffffffffffffffffffff160203816138be576138bd616d1e565b5b0401856040019072ffffffffffffffffffffffffffffffffffffff16908172ffffffffffffffffffffffffffffffffffffff16815250505f856040015172ffffffffffffffffffffffffffffffffffffff160361391e5761391d6178ba565b5b505b8360400151866040015103846020019072ffffffffffffffffffffffffffffffffffffff16908172ffffffffffffffffffffffffffffffffffffff168152505050505b505b5b5b92915050565b5f805f8515613a075761398a856080015164ffffffffff16614c28565b9250836020015191508273ffffffffffffffffffffffffffffffffffffffff166318160ddd6040518163ffffffff1660e01b8152600401602060405180830381865afa1580156139dc573d5f803e3d5ffd5b505050506040513d601f19601f82011682018060405250810190613a00919061788f565b9050613a2e565b8360400151915060025f866080015164ffffffffff1681526020019081526020015f205490505b93509350939050565b5f80836040015172ffffffffffffffffffffffffffffffffffffff168460a0015172ffffffffffffffffffffffffffffffffffffff168473ffffffffffffffffffffffffffffffffffffffff166370a08231306040518263ffffffff1660e01b8152600401613aa691906178e7565b602060405180830381865afa158015613ac1573d5f803e3d5ffd5b505050506040513d601f19601f82011682018060405250810190613ae5919061788f565b03039050808172ffffffffffffffffffffffffffffffffffffff1614613b09575f80fd5b8091505092915050565b5f805f805f8512613b3b57848761ffff16901b9150848761ffff16901b612710019050613b53565b8661ffff1691508661ffff16855f03612710901b0190505b5f81838872ffffffffffffffffffffffffffffffffffffff160281613b7b57613b7a616d1e565b5b0490505f818872ffffffffffffffffffffffffffffffffffffff1603905080829550955050505050935093915050565b5f805f80198587098587029250828110838203039150505f8103613be0575f8411613bd4575f80fd5b83820492505050613c95565b808411613beb575f80fd5b5f8486880990508281118203915080830392505f856001877fffffffffffffffffffffffffffffffffffffffffffffffffffffffffffffffff030116905080860495508084049350600181825f0304019050808302841793505f600287600302189050808702600203810290508087026002038102905080870260020381029050808702600203810290508087026002038102905080870260020381029050808502955050505050505b9392505050565b613ca882845f806144a8565b508060025f8481526020019081526020015f205f828254613cc9919061720a565b92505081905550805f808573ffffffffffffffffffffffffffffffffffffffff1673ffffffffffffffffffffffffffffffffffffffff1681526020019081526020015f205f8481526020019081526020015f205f82825401925050819055508273ffffffffffffffffffffffffffffffffffffffff165f73ffffffffffffffffffffffffffffffffffffffff163373ffffffffffffffffffffffffffffffffffffffff167fc3d58168c5ae7397731d063d5bbf3d657854427343f4c083240f7aacaa2d0f628585604051613d9e9291906176be565b60405180910390a45f8373ffffffffffffffffffffffffffffffffffffffff163b14613e8f5763f23a6e6160e01b7bffffffffffffffffffffffffffffffffffffffffffffffffffffffff19168373ffffffffffffffffffffffffffffffffffffffff1663f23a6e61335f86866040518563ffffffff1660e01b8152600401613e2a9493929190617923565b6020604051808303815f875af1158015613e46573d5f803e3d5ffd5b505050506040513d601f19601f82011682018060405250810190613e6a91906173a8565b7bffffffffffffffffffffffffffffffffffffffffffffffffffffffff191614613ec0565b5f73ffffffffffffffffffffffffffffffffffffffff168373ffffffffffffffffffffffffffffffffffffffff1614155b613eff576040517f08c379a0000000000000000000000000000000000000000000000000000000008152600401613ef69061741d565b60405180910390fd5b505050565b815f01518360a0019072ffffffffffffffffffffffffffffffffffffff16908172ffffffffffffffffffffffffffffffffffffff16815250508160400151826020015101836040019072ffffffffffffffffffffffffffffffffffffff16908172ffffffffffffffffffffffffffffffffffffff16815250505f836040015172ffffffffffffffffffffffffffffffffffffff160315614320575f826020015172ffffffffffffffffffffffffffffffffffffff1603613fdd57677fffffffffffffff836060019060070b908160070b8152505061431f565b5f826040015172ffffffffffffffffffffffffffffffffffffff1603614034577fffffffffffffffffffffffffffffffffffffffffffffffff8000000000000000836060019060070b908160070b8152505061431e565b5f80825f0b121561404757815f03614049565b815b90505f80835f0b13156140a857836040015172ffffffffffffffffffffffffffffffffffffff168260ff16856020015172ffffffffffffffffffffffffffffffffffffff16901b101561409f57600190506140a3565b5f90505b6140f6565b8160ff16846040015172ffffffffffffffffffffffffffffffffffffff16901b846020015172ffffffffffffffffffffffffffffffffffffff1610156140f157600190506140f5565b5f90505b5b8015614204575f61418a5f855f0b121561412f578360ff16876040015172ffffffffffffffffffffffffffffffffffffff16901b61414a565b866040015172ffffffffffffffffffffffffffffffffffffff165b866020015172ffffffffffffffffffffffffffffffffffffff168560ff16886020015172ffffffffffffffffffffffffffffffffffffff16901b016157f5565b60070b90505f80855f0b12156141a6578360ff1682901b6141ae565b8360ff1682901d5b875f015160070b019050677fffffffffffffff60070b8113156141ea57677fffffffffffffff876060019060070b908160070b815250506141fd565b80876060019060070b908160070b815250505b505061431b565b5f6142925f855f0b121561423157866040015172ffffffffffffffffffffffffffffffffffffff16614252565b8360ff16876040015172ffffffffffffffffffffffffffffffffffffff16901b5b866040015172ffffffffffffffffffffffffffffffffffffff168560ff16886040015172ffffffffffffffffffffffffffffffffffffff16901b016157f5565b60070b90505f81875f015160070b0390507fffffffffffffffffffffffffffffffffffffffffffffffff800000000000000060070b811215614305577fffffffffffffffffffffffffffffffffffffffffffffffff8000000000000000876060019060070b908160070b81525050614318565b80876060019060070b908160070b815250505b50505b50505b5b5b505050565b60605f600161433384615974565b0190505f8167ffffffffffffffff811115614351576143506174f7565b5b6040519080825280601f01601f1916602001820160405280156143835781602001600182028036833780820191505090505b5090505f82602001820190505b6001156143e4578080600190039150507f3031323334353637383961626364656600000000000000000000000000000000600a86061a8153600a85816143d9576143d8616d1e565b5b0494505f8503614390575b819350505050919050565b60606144158273ffffffffffffffffffffffffffffffffffffffff16601460ff16615ac5565b9050919050565b60605f82126144395760405180602001604052805f815250614470565b6040518060400160405280600181526020017f2d000000000000000000000000000000000000000000000000000000000000008152505b61448161447c84615cfa565b614325565b604051602001614492929190617979565b6040516020818303038152906040529050919050565b5f8060055f015f9054906101000a900464ffffffffff1664ffffffffff16036144d3575f90506147a5565b5f6144dd86612290565b90505f6144eb878784614a0b565b9050831561452957806020015192505f81602001906cffffffffffffffffffffffffff1690816cffffffffffffffffffffffffff16815250506146d8565b5f73ffffffffffffffffffffffffffffffffffffffff168573ffffffffffffffffffffffffffffffffffffffff161461463557614567878684614a0b565b60045f8981526020019081526020015f205f8773ffffffffffffffffffffffffffffffffffffffff1673ffffffffffffffffffffffffffffffffffffffff1681526020019081526020015f205f820151815f015f6101000a81548172ffffffffffffffffffffffffffffffffffffff021916908372ffffffffffffffffffffffffffffffffffffff1602179055506020820151815f0160136101000a8154816cffffffffffffffffffffffffff02191690836cffffffffffffffffffffffffff1602179055509050506146d7565b8160035f8981526020019081526020015f205f820151815f015f6101000a81548161ffff021916908361ffff1602179055506020820151815f0160026101000a81548164ffffffffff021916908364ffffffffff1602179055506040820151815f0160076101000a81548172ffffffffffffffffffffffffffffffffffffff021916908372ffffffffffffffffffffffffffffffffffffff1602179055509050505b5b8060045f8981526020019081526020015f205f8873ffffffffffffffffffffffffffffffffffffffff1673ffffffffffffffffffffffffffffffffffffffff1681526020019081526020015f205f820151815f015f6101000a81548172ffffffffffffffffffffffffffffffffffffff021916908372ffffffffffffffffffffffffffffffffffffff1602179055506020820151815f0160136101000a8154816cffffffffffffffffffffffffff02191690836cffffffffffffffffffffffffff16021790555090505050505b949350505050565b6147b982845f806144a8565b508060025f8481526020019081526020015f205f8282546147da91906171d7565b92505081905550805f808573ffffffffffffffffffffffffffffffffffffffff1673ffffffffffffffffffffffffffffffffffffffff1681526020019081526020015f205f8481526020019081526020015f205f82825403925050819055505f73ffffffffffffffffffffffffffffffffffffffff168373ffffffffffffffffffffffffffffffffffffffff163373ffffffffffffffffffffffffffffffffffffffff167fc3d58168c5ae7397731d063d5bbf3d657854427343f4c083240f7aacaa2d0f6285856040516148af9291906176be565b60405180910390a4505050565b5f808473ffffffffffffffffffffffffffffffffffffffff1663a9059cbb60e01b85856040516024016148f0929190616d4b565b604051602081830303815290604052907bffffffffffffffffffffffffffffffffffffffffffffffffffffffff19166020820180517bffffffffffffffffffffffffffffffffffffffffffffffffffffffff838183161783525050505060405161495a91906179e0565b5f604051808303815f865af19150503d805f8114614993576040519150601f19603f3d011682016040523d82523d5f602084013e614998565b606091505b50915091508180156149c557505f815114806149c45750808060200190518101906149c39190617a0a565b5b5b614a04576040517f08c379a00000000000000000000000000000000000000000000000000000000081526004016149fb90617a7f565b60405180910390fd5b5050505050565b614a13615d1f565b60045f8581526020019081526020015f205f8473ffffffffffffffffffffffffffffffffffffffff1673ffffffffffffffffffffffffffffffffffffffff1681526020019081526020015f206040518060400160405290815f82015f9054906101000a900472ffffffffffffffffffffffffffffffffffffff1672ffffffffffffffffffffffffffffffffffffff1672ffffffffffffffffffffffffffffffffffffff1681526020015f820160139054906101000a90046cffffffffffffffffffffffffff166cffffffffffffffffffffffffff166cffffffffffffffffffffffffff168152505090505f805f8573ffffffffffffffffffffffffffffffffffffffff1673ffffffffffffffffffffffffffffffffffffffff1681526020019081526020015f205f8681526020019081526020015f205490505f8103614b595750614c21565b815f015172ffffffffffffffffffffffffffffffffffffff16836040015172ffffffffffffffffffffffffffffffffffffff1614614c1f576030825f015184604001510372ffffffffffffffffffffffffffffffffffffff168202901c82602001818151019150906cffffffffffffffffffffffffff1690816cffffffffffffffffffffffffff16815250508260400151825f019072ffffffffffffffffffffffffffffffffffffff16908172ffffffffffffffffffffffffffffffffffffff16815250505b505b9392505050565b5f80614c3383615d14565b905060ff60f81b30827f36af10401bb78153f4e90dbeb1fad843a0704d3884a00ab6d41ebca444f24edd5f1b604051602001614c729493929190617b56565b604051602081830303815290604052805190602001205f1c915050919050565b5f805f8360070b1215614ca857614ca76178ba565b5b671b13d180eb882abb60070b8360070b1315614cca5760015f915091506157f0565b5f806001851660070b03614ce75768010000000000000000614cf2565b680100000000000001a35b68ffffffffffffffffff1690505f6002851660070b14614d285760406801000000000000034682614d239190617ba3565b901c90505b5f6004851660070b14614d515760406801000000000000068d82614d4c9190617ba3565b901c90505b5f6008851660070b14614d7a57604068010000000000000d1b82614d759190617ba3565b901c90505b5f6010851660070b14614da357604068010000000000001a3682614d9e9190617ba3565b901c90505b5f6020851660070b14614dcc5760406801000000000000346d82614dc79190617ba3565b901c90505b5f6040851660070b14614df5576040680100000000000068da82614df09190617ba3565b901c90505b5f6080851660070b14614e1e5760406801000000000000d1b482614e199190617ba3565b901c90505b5f610100851660070b14614e485760406801000000000001a36882614e439190617ba3565b901c90505b5f610200851660070b14614e72576040680100000000000346d182614e6d9190617ba3565b901c90505b5f610400851660070b14614e9c57604068010000000000068da382614e979190617ba3565b901c90505b5f610800851660070b14614ec6576040680100000000000d1b4682614ec19190617ba3565b901c90505b5f611000851660070b14614ef0576040680100000000001a368d82614eeb9190617ba3565b901c90505b5f612000851660070b14614f1a57604068010000000000346d1a82614f159190617ba3565b901c90505b5f614000851660070b14614f445760406801000000000068da3482614f3f9190617ba3565b901c90505b5f618000851660070b14614f6e57604068010000000000d1b46882614f699190617ba3565b901c90505b5f62010000851660070b14614f9957604068010000000001a368d082614f949190617ba3565b901c90505b5f62020000851660070b14614fc45760406801000000000346d1a082614fbf9190617ba3565b901c90505b5f62040000851660070b14614fef576040680100000000068da34182614fea9190617ba3565b901c90505b5f62080000851660070b1461501a5760406801000000000d1b4683826150159190617ba3565b901c90505b5f62100000851660070b146150455760406801000000001a368d06826150409190617ba3565b901c90505b5f62200000851660070b14615070576040680100000000346d1a0c8261506b9190617ba3565b901c90505b5f62400000851660070b1461509b57604068010000000068da3419826150969190617ba3565b901c90505b5f62800000851660070b146150c6576040680100000000d1b46833826150c19190617ba3565b901c90505b5f6301000000851660070b146150f2576040680100000001a368d066826150ed9190617ba3565b901c90505b5f6302000000851660070b1461511e57604068010000000346d1a0d0826151199190617ba3565b901c90505b5f6304000000851660070b1461514a5760406801000000068da341ab826151459190617ba3565b901c90505b5f6308000000851660070b1461517657604068010000000d1b468381826151719190617ba3565b901c90505b5f6310000000851660070b146151a257604068010000001a368d07af8261519d9190617ba3565b901c90505b5f6320000000851660070b146151ce5760406801000000346d1a120e826151c99190617ba3565b901c90505b5f6340000000851660070b146151fa576040680100000068da342ed9826151f59190617ba3565b901c90505b5f6380000000851660070b146152265760406801000000d1b46888a4826152219190617ba3565b901c90505b5f640100000000851660070b146152535760406801000001a368d1bd108261524e9190617ba3565b901c90505b5f640200000000851660070b14615280576040680100000346d1a629408261527b9190617ba3565b901c90505b5f640400000000851660070b146152ad57604068010000068da3570f02826152a89190617ba3565b901c90505b5f640800000000851660070b146152da576040680100000d1b46d9100a826152d59190617ba3565b901c90505b5f641000000000851660070b14615307576040680100001a368e5de82e826153029190617ba3565b901c90505b5f642000000000851660070b1461533457604068010000346d1f6af0e78261532f9190617ba3565b901c90505b5f644000000000851660070b146153615760406801000068da499265178261535c9190617ba3565b901c90505b5f648000000000851660070b1461538e57604068010000d1b4be16e016826153899190617ba3565b901c90505b5f65010000000000851660070b146153bc57604068010001a36a27f65e2a826153b79190617ba3565b901c90505b5f65020000000000851660070b146153ea5760406801000346d6ff11672a826153e59190617ba3565b901c90505b5f65040000000000851660070b14615418576040680100068db8bac710cb826154139190617ba3565b901c90505b5f65080000000000851660070b146154465760406801000d1b9c68abe5f7826154419190617ba3565b901c90505b5f65100000000000851660070b146154745760406801001a37e4a234cb088261546f9190617ba3565b901c90505b5f65200000000000851660070b146154a2576040680100347278ab0e92ad8261549d9190617ba3565b901c90505b5f65400000000000851660070b146154d057604068010068efb00a525480826154cb9190617ba3565b901c90505b5f65800000000000851660070b146154fe576040680100d20a63b4173839826154f99190617ba3565b901c90505b5f6601000000000000851660070b1461552d576040680101a4c11c742dd772826155289190617ba3565b901c90505b5f6602000000000000851660070b1461555c5760406801034c35c31f64cfa6826155579190617ba3565b901c90505b5f6604000000000000851660070b1461558b576040680106a34b78c8aaffbf826155869190617ba3565b901c90505b5f6608000000000000851660070b146155ba57604068010d72a6a46ccd8bce826155b59190617ba3565b901c90505b5f6610000000000000851660070b146155e957604068011b9a258e63928596826155e49190617ba3565b901c90505b5f6620000000000000851660070b1461561857604068013a2e2bda04f8379f826156139190617ba3565b901c90505b5f6640000000000000851660070b14615647576040680181954be69e0da8fe826156429190617ba3565b901c90505b5f6680000000000000851660070b14615676576040680244c2655d185a0290826156719190617ba3565b901c90505b5f670100000000000000851660070b146156a6576040680525816eeb9f935b1c826156a19190617ba3565b901c90505b5f670200000000000000851660070b146156d6576040681a7c8d00b551684ff4826156d19190617ba3565b901c90505b5f670400000000000000851660070b146157075760406902bd893d0b2df7c97884826157029190617ba3565b901c90505b5f670800000000000000851660070b146157395760406a078278e1e19e448cf8b95d826157349190617ba3565b901c90505b5f671000000000000000851660070b1461576d5760406c38651b58d457501416feade319826157689190617ba3565b901c90505b5f672000000000000000851660070b146157a6576040710c6c63e573e99b8b10f5961ae4cacb1f9927826157a19190617ba3565b901c90505b5f674000000000000000851660070b146157e85760407a9a5741f372f8ff89a6e21ee87e9d34bb06995021f74fc62066806d826157e39190617ba3565b901c90505b5f8192509250505b915091565b5f81831015615807576158066178ba565b5b5f8203615817576158166178ba565b5b5f82848161582857615827616d1e565b5b0490505f8190505f6fffffffffffffffffffffffffffffffff821160071b808217915082811c92505067ffffffffffffffff821160061b808217915082811c92505063ffffffff821160051b808217915082811c92505061ffff821160041b808217915082811c92505060ff821160031b808217915082811c925050600f821160021b808217915082811c9250506003821160011b808217915082811c92505060018211808217915050608081106158e857607f810383901c91506158fc565b6158f98682607f0360020a87613bab565b91505b5f603782901b90505f600190505b6037811161593f57838402607f1c93508360801c80826037031b8317925084811c945050806159389061776a565b905061590a565b5060c077d89e8c075c4155dd3213326cbbcf86fd1f63f5c205dd2ad2826159669190617ba3565b901c94505050505092915050565b5f805f90507a184f03e93ff9f4daa797ed6e38ed64bf6a1f01000000000000000083106159d0577a184f03e93ff9f4daa797ed6e38ed64bf6a1f01000000000000000083816159c6576159c5616d1e565b5b0492506040810190505b6d04ee2d6d415b85acef81000000008310615a0d576d04ee2d6d415b85acef81000000008381615a0357615a02616d1e565b5b0492506020810190505b662386f26fc100008310615a3c57662386f26fc100008381615a3257615a31616d1e565b5b0492506010810190505b6305f5e1008310615a65576305f5e1008381615a5b57615a5a616d1e565b5b0492506008810190505b6127108310615a8a576127108381615a8057615a7f616d1e565b5b0492506004810190505b60648310615aad5760648381615aa357615aa2616d1e565b5b0492506002810190505b600a8310615abc576001810190505b80915050919050565b60605f6002836002615ad79190617ba3565b615ae1919061720a565b67ffffffffffffffff811115615afa57615af96174f7565b5b6040519080825280601f01601f191660200182016040528015615b2c5781602001600182028036833780820191505090505b5090507f3000000000000000000000000000000000000000000000000000000000000000815f81518110615b6357615b6261717d565b5b60200101907effffffffffffffffffffffffffffffffffffffffffffffffffffffffffffff191690815f1a9053507f780000000000000000000000000000000000000000000000000000000000000081600181518110615bc657615bc561717d565b5b60200101907effffffffffffffffffffffffffffffffffffffffffffffffffffffffffffff191690815f1a9053505f6001846002615c049190617ba3565b615c0e919061720a565b90505b6001811115615cad577f3031323334353637383961626364656600000000000000000000000000000000600f861660108110615c5057615c4f61717d565b5b1a60f81b828281518110615c6757615c6661717d565b5b60200101907effffffffffffffffffffffffffffffffffffffffffffffffffffffffffffff191690815f1a905350600485901c945080615ca690617be4565b9050615c11565b505f8414615cf0576040517f08c379a0000000000000000000000000000000000000000000000000000000008152600401615ce790617c55565b60405180910390fd5b8091505092915050565b5f80821215615d0b57815f03615d0d565b815b9050919050565b5f815f1b9050919050565b60405180604001604052805f72ffffffffffffffffffffffffffffffffffffff1681526020015f6cffffffffffffffffffffffffff1681525090565b60405180606001604052805f61ffff1681526020015f64ffffffffff1681526020015f72ffffffffffffffffffffffffffffffffffffff1681525090565b6040518060c001604052805f60070b81526020015f64ffffffffff1681526020015f72ffffffffffffffffffffffffffffffffffffff1681526020015f60070b81526020015f64ffffffffff1681526020015f72ffffffffffffffffffffffffffffffffffffff1681525090565b60405180606001604052805f72ffffffffffffffffffffffffffffffffffffff1681526020015f72ffffffffffffffffffffffffffffffffffffff1681526020015f72ffffffffffffffffffffffffffffffffffffff1681525090565b5f80fd5b5f80fd5b5f73ffffffffffffffffffffffffffffffffffffffff82169050919050565b5f615e9582615e6c565b9050919050565b615ea581615e8b565b8114615eaf575f80fd5b50565b5f81359050615ec081615e9c565b92915050565b5f819050919050565b615ed881615ec6565b8114615ee2575f80fd5b50565b5f81359050615ef381615ecf565b92915050565b5f8060408385031215615f0f57615f0e615e64565b5b5f615f1c85828601615eb2565b9250506020615f2d85828601615ee5565b9150509250929050565b615f4081615ec6565b82525050565b5f602082019050615f595f830184615f37565b92915050565b5f7fffffffff0000000000000000000000000000000000000000000000000000000082169050919050565b615f9381615f5f565b8114615f9d575f80fd5b50565b5f81359050615fae81615f8a565b92915050565b5f60208284031215615fc957615fc8615e64565b5b5f615fd684828501615fa0565b91505092915050565b5f8115159050919050565b615ff381615fdf565b82525050565b5f60208201905061600c5f830184615fea565b92915050565b61601b81615fdf565b8114616025575f80fd5b50565b5f8135905061603681616012565b92915050565b5f815f0b9050919050565b6160508161603c565b811461605a575f80fd5b50565b5f8135905061606b81616047565b92915050565b5f805f806080858703121561608957616088615e64565b5b5f61609687828801616028565b94505060206160a787828801615eb2565b93505060406160b887828801615eb2565b92505060606160c98782880161605d565b91505092959194509250565b5f602082840312156160ea576160e9615e64565b5b5f6160f784828501615ee5565b91505092915050565b5f81519050919050565b5f82825260208201905092915050565b5f5b8381101561613757808201518184015260208101905061611c565b5f8484015250505050565b5f601f19601f8301169050919050565b5f61615c82616100565b616166818561610a565b935061617681856020860161611a565b61617f81616142565b840191505092915050565b5f6020820190508181035f8301526161a28184616152565b905092915050565b5f80fd5b5f80fd5b5f80fd5b5f8083601f8401126161cb576161ca6161aa565b5b8235905067ffffffffffffffff8111156161e8576161e76161ae565b5b602083019150836020820283011115616204576162036161b2565b5b9250929050565b5f8083601f8401126162205761621f6161aa565b5b8235905067ffffffffffffffff81111561623d5761623c6161ae565b5b602083019150836001820283011115616259576162586161b2565b5b9250929050565b5f805f805f805f8060a0898b03121561627c5761627b615e64565b5b5f6162898b828c01615eb2565b985050602061629a8b828c01615eb2565b975050604089013567ffffffffffffffff8111156162bb576162ba615e68565b5b6162c78b828c016161b6565b9650965050606089013567ffffffffffffffff8111156162ea576162e9615e68565b5b6162f68b828c016161b6565b9450945050608089013567ffffffffffffffff81111561631957616318615e68565b5b6163258b828c0161620b565b92509250509295985092959890939650565b5f805f805f60a086880312156163505761634f615e64565b5b5f61635d88828901616028565b955050602061636e88828901615eb2565b945050604061637f88828901615eb2565b93505060606163908882890161605d565b92505060806163a188828901615ee5565b9150509295509295909350565b5f72ffffffffffffffffffffffffffffffffffffff82169050919050565b6163d5816163ae565b82525050565b5f6020820190506163ee5f8301846163cc565b92915050565b5f64ffffffffff82169050919050565b61640d816163f4565b82525050565b5f61ffff82169050919050565b61642981616413565b82525050565b5f60ff82169050919050565b6164448161642f565b82525050565b5f76ffffffffffffffffffffffffffffffffffffffffffffff82169050919050565b6164758161644a565b82525050565b5f60a08201905061648e5f830188616404565b61649b6020830187616420565b6164a8604083018661643b565b6164b56060830185615fea565b6164c2608083018461646c565b9695505050505050565b5f8083601f8401126164e1576164e06161aa565b5b8235905067ffffffffffffffff8111156164fe576164fd6161ae565b5b60208301915083602082028301111561651a576165196161b2565b5b9250929050565b5f805f806040858703121561653957616538615e64565b5b5f85013567ffffffffffffffff81111561655657616555615e68565b5b616562878288016164cc565b9450945050602085013567ffffffffffffffff81111561658557616584615e68565b5b616591878288016161b6565b925092505092959194509250565b5f81519050919050565b5f82825260208201905092915050565b5f819050602082019050919050565b6165d181615ec6565b82525050565b5f6165e283836165c8565b60208301905092915050565b5f602082019050919050565b5f6166048261659f565b61660e81856165a9565b9350616619836165b9565b805f5b8381101561664957815161663088826165d7565b975061663b836165ee565b92505060018101905061661c565b5085935050505092915050565b5f6020820190508181035f83015261666e81846165fa565b905092915050565b61667f81615e8b565b82525050565b61668e8161603c565b82525050565b5f60c0820190508181035f8301526166ac8189616152565b905081810360208301526166c08188616152565b90506166cf604083018761643b565b6166dc6060830186616676565b6166e96080830185616676565b6166f660a0830184616685565b979650505050505050565b5f805f6060848603121561671857616717615e64565b5b5f61672586828701615eb2565b935050602061673686828701615eb2565b92505060406167478682870161605d565b9150509250925092565b5f806040838503121561676757616766615e64565b5b5f61677485828601615ee5565b925050602061678585828601615eb2565b9150509250929050565b5f6cffffffffffffffffffffffffff82169050919050565b6167b08161678f565b82525050565b5f6020820190506167c95f8301846167a7565b92915050565b6167d8816163ae565b82525050565b6167e78161678f565b82525050565b604082015f8201516168015f8501826167cf565b50602082015161681460208501826167de565b50505050565b5f60408201905061682d5f8301846167ed565b92915050565b61683c816163f4565b8114616846575f80fd5b50565b5f8135905061685781616833565b92915050565b5f806040838503121561687357616872615e64565b5b5f61688085828601616849565b925050602061689185828601615eb2565b9150509250929050565b5f80604083850312156168b1576168b0615e64565b5b5f6168be85828601615eb2565b92505060206168cf85828601616028565b9150509250929050565b5f68ffffffffffffffffff82169050919050565b6168f6816168d9565b82525050565b5f60208201905061690f5f8301846168ed565b92915050565b5f8160070b9050919050565b61692a81616915565b82525050565b5f60c0820190506169435f830189616921565b6169506020830188616404565b61695d60408301876163cc565b61696a6060830186616921565b6169776080830185616404565b61698460a08301846163cc565b979650505050505050565b61699881616413565b82525050565b6169a7816163f4565b82525050565b606082015f8201516169c15f85018261698f565b5060208201516169d4602085018261699e565b5060408201516169e760408501826167cf565b50505050565b5f606082019050616a005f8301846169ad565b92915050565b5f8060408385031215616a1c57616a1b615e64565b5b5f616a2985828601615eb2565b9250506020616a3a85828601615eb2565b9150509250929050565b5f805f805f8060a08789031215616a5e57616a5d615e64565b5b5f616a6b89828a01615eb2565b9650506020616a7c89828a01615eb2565b9550506040616a8d89828a01615ee5565b9450506060616a9e89828a01615ee5565b935050608087013567ffffffffffffffff811115616abf57616abe615e68565b5b616acb89828a0161620b565b92509250509295509295509295565b616ae381616413565b8114616aed575f80fd5b50565b5f81359050616afe81616ada565b92915050565b616b0d8161642f565b8114616b17575f80fd5b50565b5f81359050616b2881616b04565b92915050565b5f8083601f840112616b4357616b426161aa565b5b8235905067ffffffffffffffff811115616b6057616b5f6161ae565b5b602083019150836020820283011115616b7c57616b7b6161b2565b5b9250929050565b5f8083601f840112616b9857616b976161aa565b5b8235905067ffffffffffffffff811115616bb557616bb46161ae565b5b602083019150836020820283011115616bd157616bd06161b2565b5b9250929050565b5f805f805f805f805f805f6101008c8e031215616bf857616bf7615e64565b5b5f616c058e828f01616849565b9b50506020616c168e828f01616af0565b9a50506040616c278e828f01616b1a565b9950506060616c388e828f01616028565b9850506080616c498e828f01616028565b97505060a08c013567ffffffffffffffff811115616c6a57616c69615e68565b5b616c768e828f01616b2e565b965096505060c08c013567ffffffffffffffff811115616c9957616c98615e68565b5b616ca58e828f01616b2e565b945094505060e08c013567ffffffffffffffff811115616cc857616cc7615e68565b5b616cd48e828f01616b83565b92509250509295989b509295989b9093969950565b5f606082019050616cfc5f830186616676565b616d096020830185616676565b616d166040830184616685565b949350505050565b7f4e487b71000000000000000000000000000000000000000000000000000000005f52601260045260245ffd5b5f604082019050616d5e5f830185616676565b616d6b6020830184615f37565b9392505050565b5f81519050616d8081616b04565b92915050565b5f60208284031215616d9b57616d9a615e64565b5b5f616da884828501616d72565b91505092915050565b5f81905092915050565b7f646174613a6170706c69636174696f6e2f6a736f6e3b636861727365743d55545f8201527f462d382c2537422532326e616d652532322533412532324c50253230546f6b6560208201527f6e253230666f7225323041504500000000000000000000000000000000000000604082015250565b5f616e3b604d83616db1565b9150616e4682616dbb565b604d82019050919050565b5f616e5b82616100565b616e658185616db1565b9350616e7581856020860161611a565b80840191505092915050565b7f25323225324325323273796d626f6c2532322533412532325445412d00000000815250565b7f253232253243253232646563696d616c73253232253341000000000000000000815250565b7f253243253232636861696e49642532322533413125324325323264656274546f5f8201527f6b656e2532322533412532320000000000000000000000000000000000000000602082015250565b5f616f27602c83616db1565b9150616f3282616ecd565b602c82019050919050565b7f253232253243253232636f6c6c61746572616c546f6b656e25323225334125325f8201527f3200000000000000000000000000000000000000000000000000000000000000602082015250565b5f616f97602183616db1565b9150616fa282616f3d565b602182019050919050565b7f2532322532432532326c65766572616765546965722532322533410000000000815250565b7f2537440000000000000000000000000000000000000000000000000000000000815250565b5f61700382616e2f565b915061700f8289616e51565b915061701a82616e81565b601c8201915061702a8288616e51565b915061703582616ea7565b6017820191506170458287616e51565b915061705082616f1b565b915061705c8286616e51565b915061706782616f8b565b91506170738285616e51565b915061707e82616fad565b601b8201915061708e8284616e51565b915061709982616fd3565b600382019150819050979650505050505050565b7f4c454e4754485f4d49534d4154434800000000000000000000000000000000005f82015250565b5f6170e1600f8361610a565b91506170ec826170ad565b602082019050919050565b5f6020820190508181035f83015261710e816170d5565b9050919050565b7f4e4f545f415554484f52495a45440000000000000000000000000000000000005f82015250565b5f617149600e8361610a565b915061715482617115565b602082019050919050565b5f6020820190508181035f8301526171768161713d565b9050919050565b7f4e487b71000000000000000000000000000000000000000000000000000000005f52603260045260245ffd5b7f4e487b71000000000000000000000000000000000000000000000000000000005f52601160045260245ffd5b5f6171e182615ec6565b91506171ec83615ec6565b9250828203905081811115617204576172036171aa565b5b92915050565b5f61721482615ec6565b915061721f83615ec6565b9250828201905080821115617237576172366171aa565b5b92915050565b5f80fd5b82818337505050565b5f61725583856165a9565b93507f07ffffffffffffffffffffffffffffffffffffffffffffffffffffffffffffff8311156172885761728761723d565b5b602083029250617299838584617241565b82840190509392505050565b5f6040820190508181035f8301526172be81868861724a565b905081810360208301526172d381848661724a565b905095945050505050565b5f82825260208201905092915050565b828183375f83830152505050565b5f61730783856172de565b93506173148385846172ee565b61731d83616142565b840190509392505050565b5f60a08201905061733b5f83018b616676565b617348602083018a616676565b818103604083015261735b81888a61724a565b9050818103606083015261737081868861724a565b905081810360808301526173858184866172fc565b90509998505050505050505050565b5f815190506173a281615f8a565b92915050565b5f602082840312156173bd576173bc615e64565b5b5f6173ca84828501617394565b91505092915050565b7f554e534146455f524543495049454e54000000000000000000000000000000005f82015250565b5f61740760108361610a565b9150617412826173d3565b602082019050919050565b5f6020820190508181035f830152617434816173fb565b9050919050565b5f617445826163ae565b9150617450836163ae565b9250826174605761745f616d1e565b5b828204905092915050565b5f617475826163ae565b9150617480836163ae565b9250828201905072ffffffffffffffffffffffffffffffffffffff8111156174ab576174aa6171aa565b5b92915050565b5f6174bb826163ae565b91506174c6836163ae565b9250828203905072ffffffffffffffffffffffffffffffffffffff8111156174f1576174f06171aa565b5b92915050565b7f4e487b71000000000000000000000000000000000000000000000000000000005f52604160045260245ffd5b5f6020828403121561753957617538615e64565b5b5f61754684828501615eb2565b91505092915050565b7f4e487b71000000000000000000000000000000000000000000000000000000005f52602260045260245ffd5b5f600282049050600182168061759357607f821691505b6020821081036175a6576175a561754f565b5b50919050565b5f6040820190506175bf5f830185616676565b6175cc6020830184616676565b9392505050565b8082525050565b6175e381615ec6565b82525050565b6175f281615e8b565b82525050565b6176018161603c565b82525050565b5f60a08201905061761a5f8301886175d3565b61762760208301876175da565b61763460408301866175e9565b61764160608301856175e9565b61764e60808301846175f8565b9695505050505050565b5f61766282615e8b565b9050919050565b61767281617658565b811461767c575f80fd5b50565b5f8151905061768d81617669565b92915050565b5f602082840312156176a8576176a7615e64565b5b5f6176b58482850161767f565b91505092915050565b5f6040820190506176d15f830185615f37565b6176de6020830184615f37565b9392505050565b5f60a0820190506176f85f830189616676565b6177056020830188616676565b6177126040830187615f37565b61771f6060830186615f37565b81810360808301526177328184866172fc565b9050979650505050505050565b5f6020828403121561775457617753615e64565b5b5f61776184828501616849565b91505092915050565b5f61777482615ec6565b91507fffffffffffffffffffffffffffffffffffffffffffffffffffffffffffffffff82036177a6576177a56171aa565b5b600182019050919050565b5f602082840312156177c6576177c5615e64565b5b5f6177d384828501616af0565b91505092915050565b5f6177e68261644a565b91506177f18361644a565b9250828201905076ffffffffffffffffffffffffffffffffffffffffffffff8111156178205761781f6171aa565b5b92915050565b61782f81616915565b8114617839575f80fd5b50565b5f8151905061784a81617826565b92915050565b5f6020828403121561786557617864615e64565b5b5f6178728482850161783c565b91505092915050565b5f8151905061788981615ecf565b92915050565b5f602082840312156178a4576178a3615e64565b5b5f6178b18482850161787b565b91505092915050565b7f4e487b71000000000000000000000000000000000000000000000000000000005f52600160045260245ffd5b5f6020820190506178fa5f830184616676565b92915050565b50565b5f61790e5f836172de565b915061791982617900565b5f82019050919050565b5f60a0820190506179365f830187616676565b6179436020830186616676565b6179506040830185615f37565b61795d6060830184615f37565b818103608083015261796e81617903565b905095945050505050565b5f6179848285616e51565b91506179908284616e51565b91508190509392505050565b5f81519050919050565b5f81905092915050565b5f6179ba8261799c565b6179c481856179a6565b93506179d481856020860161611a565b80840191505092915050565b5f6179eb82846179b0565b915081905092915050565b5f81519050617a0481616012565b92915050565b5f60208284031215617a1f57617a1e615e64565b5b5f617a2c848285016179f6565b91505092915050565b7f53540000000000000000000000000000000000000000000000000000000000005f82015250565b5f617a6960028361610a565b9150617a7482617a35565b602082019050919050565b5f6020820190508181035f830152617a9681617a5d565b9050919050565b5f7fff0000000000000000000000000000000000000000000000000000000000000082169050919050565b5f819050919050565b617ae2617add82617a9d565b617ac8565b82525050565b5f8160601b9050919050565b5f617afe82617ae8565b9050919050565b5f617b0f82617af4565b9050919050565b617b27617b2282615e8b565b617b05565b82525050565b5f819050919050565b5f819050919050565b617b50617b4b82617b2d565b617b36565b82525050565b5f617b618287617ad1565b600182019150617b718286617b16565b601482019150617b818285617b3f565b602082019150617b918284617b3f565b60208201915081905095945050505050565b5f617bad82615ec6565b9150617bb883615ec6565b9250828202617bc681615ec6565b91508282048414831517617bdd57617bdc6171aa565b5b5092915050565b5f617bee82615ec6565b91505f8203617c0057617bff6171aa565b5b600182039050919050565b7f537472696e67733a20686578206c656e67746820696e73756666696369656e745f82015250565b5f617c3f60208361610a565b9150617c4a82617c0b565b602082019050919050565b5f6020820190508181035f830152617c6c81617c33565b905091905056fea26469706673582212204a19c02e8ae84b38a16d09845977f3d4d9e0fdec12d78a1e668b08742e7a6ef364736f6c63430008140033",
  "linkReferences": {
    "src/libraries/DeployerOfAPE.sol": {
      "DeployerOfAPE": [
        {
          "length": 20,
          "start": 8582
        }
      ]
    }
  },
  "deployedLinkReferences": {
    "src/libraries/DeployerOfAPE.sol": {
      "DeployerOfAPE": [
        {
          "length": 20,
          "start": 7524
        }
      ]
    }
  }
}