{"src/test/FloatingPoint.sol":{"$FloatingPoint":{"abi":[{"inputs":[],"stateMutability":"payable","type":"constructor"},{"inputs":[],"name":"$INFINITY","outputs":[{"internalType":"bytes16","name":"","type":"bytes16"}],"stateMutability":"pure","type":"function"},{"inputs":[],"name":"$ONE","outputs":[{"internalType":"bytes16","name":"","type":"bytes16"}],"stateMutability":"pure","type":"function"},{"inputs":[],"name":"$ZERO","outputs":[{"internalType":"bytes16","name":"","type":"bytes16"}],"stateMutability":"pure","type":"function"},{"inputs":[{"internalType":"bytes16","name":"x","type":"bytes16"},{"internalType":"bytes16","name":"y","type":"bytes16"}],"name":"$add","outputs":[{"internalType":"bytes16","name":"ret0","type":"bytes16"}],"stateMutability":"pure","type":"function"},{"inputs":[{"internalType":"bytes16","name":"x","type":"bytes16"},{"internalType":"bytes16","name":"y","type":"bytes16"}],"name":"$addUp","outputs":[{"internalType":"bytes16","name":"ret0","type":"bytes16"}],"stateMutability":"pure","type":"function"},{"inputs":[{"internalType":"bytes16","name":"x","type":"bytes16"},{"internalType":"bytes16","name":"y","type":"bytes16"}],"name":"$cmp","outputs":[{"internalType":"int8","name":"ret0","type":"int8"}],"stateMutability":"pure","type":"function"},{"inputs":[{"internalType":"bytes16","name":"x","type":"bytes16"}],"name":"$dec","outputs":[{"internalType":"bytes16","name":"ret0","type":"bytes16"}],"stateMutability":"pure","type":"function"},{"inputs":[{"internalType":"bytes16","name":"x","type":"bytes16"},{"internalType":"bytes16","name":"y","type":"bytes16"}],"name":"$div","outputs":[{"internalType":"bytes16","name":"ret0","type":"bytes16"}],"stateMutability":"pure","type":"function"},{"inputs":[{"internalType":"uint256","name":"x","type":"uint256"},{"internalType":"uint256","name":"y","type":"uint256"}],"name":"$divu","outputs":[{"internalType":"bytes16","name":"ret0","type":"bytes16"}],"stateMutability":"pure","type":"function"},{"inputs":[{"internalType":"int256","name":"x","type":"int256"}],"name":"$fromInt","outputs":[{"internalType":"bytes16","name":"ret0","type":"bytes16"}],"stateMutability":"pure","type":"function"},{"inputs":[{"internalType":"uint256","name":"x","type":"uint256"}],"name":"$fromUInt","outputs":[{"internalType":"bytes16","name":"ret0","type":"bytes16"}],"stateMutability":"pure","type":"function"},{"inputs":[{"internalType":"uint256","name":"x","type":"uint256"}],"name":"$fromUIntUp","outputs":[{"internalType":"bytes16","name":"ret0","type":"bytes16"}],"stateMutability":"pure","type":"function"},{"inputs":[{"internalType":"bytes16","name":"x","type":"bytes16"}],"name":"$inc","outputs":[{"internalType":"bytes16","name":"ret0","type":"bytes16"}],"stateMutability":"pure","type":"function"},{"inputs":[{"internalType":"bytes16","name":"x","type":"bytes16"}],"name":"$inv","outputs":[{"internalType":"bytes16","name":"ret0","type":"bytes16"}],"stateMutability":"pure","type":"function"},{"inputs":[{"internalType":"bytes16","name":"x","type":"bytes16"},{"internalType":"bytes16","name":"y","type":"bytes16"}],"name":"$mul","outputs":[{"internalType":"bytes16","name":"ret0","type":"bytes16"}],"stateMutability":"pure","type":"function"},{"inputs":[{"internalType":"bytes16","name":"x","type":"bytes16"},{"internalType":"uint256","name":"y","type":"uint256"},{"internalType":"bytes16","name":"z","type":"bytes16"}],"name":"$mulDiv","outputs":[{"internalType":"uint256","name":"ret0","type":"uint256"}],"stateMutability":"pure","type":"function"},{"inputs":[{"internalType":"bytes16","name":"x","type":"bytes16"},{"internalType":"uint256","name":"y","type":"uint256"},{"internalType":"uint256","name":"z","type":"uint256"}],"name":"$mulDivu","outputs":[{"internalType":"bytes16","name":"ret0","type":"bytes16"}],"stateMutability":"pure","type":"function"},{"inputs":[{"internalType":"bytes16","name":"x","type":"bytes16"},{"internalType":"uint256","name":"y","type":"uint256"},{"internalType":"uint256","name":"z","type":"uint256"}],"name":"$mulDivuUp","outputs":[{"internalType":"bytes16","name":"ret0","type":"bytes16"}],"stateMutability":"pure","type":"function"},{"inputs":[{"internalType":"bytes16","name":"x","type":"bytes16"},{"internalType":"bytes16","name":"y","type":"bytes16"}],"name":"$mulUp","outputs":[{"internalType":"bytes16","name":"ret0","type":"bytes16"}],"stateMutability":"pure","type":"function"},{"inputs":[{"internalType":"bytes16","name":"x","type":"bytes16"},{"internalType":"uint256","name":"y","type":"uint256"}],"name":"$mulu","outputs":[{"internalType":"uint256","name":"ret0","type":"uint256"}],"stateMutability":"pure","type":"function"},{"inputs":[{"internalType":"bytes16","name":"x","type":"bytes16"},{"internalType":"bytes16","name":"y","type":"bytes16"}],"name":"$pow","outputs":[{"internalType":"bytes16","name":"ret0","type":"bytes16"}],"stateMutability":"pure","type":"function"},{"inputs":[{"internalType":"bytes16","name":"x","type":"bytes16"}],"name":"$pow_2","outputs":[{"internalType":"bytes16","name":"ret0","type":"bytes16"}],"stateMutability":"pure","type":"function"},{"inputs":[{"internalType":"bytes16","name":"x","type":"bytes16"}],"name":"$sign","outputs":[{"internalType":"int8","name":"ret0","type":"int8"}],"stateMutability":"pure","type":"function"},{"inputs":[{"internalType":"bytes16","name":"x","type":"bytes16"},{"internalType":"bytes16","name":"y","type":"bytes16"}],"name":"$sub","outputs":[{"internalType":"bytes16","name":"ret0","type":"bytes16"}],"stateMutability":"pure","type":"function"},{"inputs":[{"internalType":"bytes16","name":"x","type":"bytes16"},{"internalType":"bytes16","name":"y","type":"bytes16"}],"name":"$subUp","outputs":[{"internalType":"bytes16","name":"ret0","type":"bytes16"}],"stateMutability":"pure","type":"function"},{"inputs":[{"internalType":"bytes16","name":"x","type":"bytes16"}],"name":"$toUInt","outputs":[{"internalType":"uint256","name":"ret0","type":"uint256"}],"stateMutability":"pure","type":"function"},{"inputs":[],"name":"__hh_exposed_bytecode_marker","outputs":[{"internalType":"bytes32","name":"","type":"bytes32"}],"stateMutability":"view","type":"function"},{"stateMutability":"payable","type":"receive"}],"evm":{"bytecode":{"linkReferences":{},"object":"60806040527f686172646861742d6578706f73656400000000000000000000000000000000005f5561432e806100345f395ff3fe60806040526004361061019f575f3560e01c806375c0895a116100eb578063b3b59de211610089578063d75fa51711610063578063d75fa517146106c6578063e9eb91b714610702578063ec074bb61461073e578063ee20353a1461077a576101a6565b8063b3b59de214610636578063b78f7d6a14610660578063c542f4ca1461068a576101a6565b806381de1c0d116100c557806381de1c0d146105585780638979a6b8146105825780639a5f493e146105be5780639bb4240d146105fa576101a6565b806375c0895a146104a45780637a23f3c3146104e05780637bc30cdc1461051c576101a6565b80634a4e0c741161015857806351c472851161013257806351c47285146103b4578063542d1b5f146103f057806364eac4011461042c5780636d0ba37b14610468576101a6565b80634a4e0c74146103005780634d59b36b1461033c5780634ef78a0f14610378576101a6565b8063055a8779146101aa578063065a03a3146101e65780630aa7a858146102225780631b513d421461025e5780632d52b3a81461029a578063342db739146102d6576101a6565b366101a657005b5f80fd5b3480156101b5575f80fd5b506101d060048036038101906101cb9190613ebd565b6107b6565b6040516101dd9190613f0a565b60405180910390f35b3480156101f1575f80fd5b5061020c60048036038101906102079190613ebd565b6107c9565b6040516102199190613f0a565b60405180910390f35b34801561022d575f80fd5b5061024860048036038101906102439190613ebd565b6107dc565b6040516102559190613f0a565b60405180910390f35b348015610269575f80fd5b50610284600480360381019061027f9190613f23565b6107ef565b6040516102919190613f68565b60405180910390f35b3480156102a5575f80fd5b506102c060048036038101906102bb9190613fb4565b610800565b6040516102cd9190614013565b60405180910390f35b3480156102e1575f80fd5b506102ea610815565b6040516102f79190614044565b60405180910390f35b34801561030b575f80fd5b5061032660048036038101906103219190613ebd565b61081a565b6040516103339190613f0a565b60405180910390f35b348015610347575f80fd5b50610362600480360381019061035d9190613ebd565b61082d565b60405161036f9190613f0a565b60405180910390f35b348015610383575f80fd5b5061039e6004803603810190610399919061405d565b610840565b6040516103ab9190613f0a565b60405180910390f35b3480156103bf575f80fd5b506103da60048036038101906103d591906140ad565b610855565b6040516103e79190613f0a565b60405180910390f35b3480156103fb575f80fd5b5061041660048036038101906104119190613f23565b610866565b6040516104239190613f0a565b60405180910390f35b348015610437575f80fd5b50610452600480360381019061044d91906140d8565b610877565b60405161045f9190613f0a565b60405180910390f35b348015610473575f80fd5b5061048e600480360381019061048991906140ad565b61088a565b60405161049b9190613f0a565b60405180910390f35b3480156104af575f80fd5b506104ca60048036038101906104c59190613f23565b61089b565b6040516104d79190614013565b60405180910390f35b3480156104eb575f80fd5b5061050660048036038101906105019190613ebd565b6108ac565b6040516105139190613f0a565b60405180910390f35b348015610527575f80fd5b50610542600480360381019061053d9190613f23565b6108bf565b60405161054f9190613f0a565b60405180910390f35b348015610563575f80fd5b5061056c6108d0565b6040516105799190613f0a565b60405180910390f35b34801561058d575f80fd5b506105a860048036038101906105a39190613f23565b6108ea565b6040516105b59190613f0a565b60405180910390f35b3480156105c9575f80fd5b506105e460048036038101906105df9190613f23565b6108fb565b6040516105f19190613f0a565b60405180910390f35b348015610605575f80fd5b50610620600480360381019061061b9190614116565b61090c565b60405161062d9190614013565b60405180910390f35b348015610641575f80fd5b5061064a61091f565b6040516106579190613f0a565b60405180910390f35b34801561066b575f80fd5b50610674610939565b6040516106819190613f0a565b60405180910390f35b348015610695575f80fd5b506106b060048036038101906106ab9190613ebd565b610943565b6040516106bd9190613f0a565b60405180910390f35b3480156106d1575f80fd5b506106ec60048036038101906106e79190613ebd565b610956565b6040516106f99190613f0a565b60405180910390f35b34801561070d575f80fd5b5061072860048036038101906107239190613ebd565b610969565b6040516107359190613f68565b60405180910390f35b348015610749575f80fd5b50610764600480360381019061075f919061405d565b61097c565b6040516107719190613f0a565b60405180910390f35b348015610785575f80fd5b506107a0600480360381019061079b9190614187565b610991565b6040516107ad9190613f0a565b60405180910390f35b5f6107c183836109a2565b905092915050565b5f6107d483836109b6565b905092915050565b5f6107e783836109e6565b905092915050565b5f6107f9826109fa565b9050919050565b5f61080c848484610a96565b90509392505050565b5f5481565b5f6108258383610ac7565b905092915050565b5f6108388383610adc565b905092915050565b5f61084c848484610af1565b90509392505050565b5f61085f82610b08565b9050919050565b5f61087082610b30565b9050919050565b5f6108828383610b56565b905092915050565b5f61089482610b7e565b9050919050565b5f6108a582610ba7565b9050919050565b5f6108b78383610cb4565b905092915050565b5f6108c982610cc8565b9050919050565b5f6f7fff000000000000000000000000000060801b905090565b5f6108f482610ced565b9050919050565b5f61090582612593565b9050919050565b5f61091783836125b9565b905092915050565b5f6f3fff000000000000000000000000000060801b905090565b5f8060801b905090565b5f61094e83836125e0565b905092915050565b5f610961838361283c565b905092915050565b5f610974838361287e565b905092915050565b5f610988848484612b0f565b90509392505050565b5f61099b82612b25565b9050919050565b5f6109ae83835f612b83565b905092915050565b5f806109c1846109fa565b5f0b12156109d2576109d16141b2565b5b6109de83836001612b83565b905092915050565b5f6109f283835f612e20565b905092915050565b5f806f7fffffffffffffffffffffffffffffff8360801c1690505f816fffffffffffffffffffffffffffffffff1603610a36575f915050610a91565b6f800000000000000000000000000000008360801c6fffffffffffffffffffffffffffffffff1610610a8b577fffffffffffffffffffffffffffffffffffffffffffffffffffffffffffffffff915050610a91565b60019150505b919050565b5f80610aa2838661287e565b5f0b1215610ab357610ab26141b2565b5b610abe848484613140565b90509392505050565b5f610ad483836001613377565b905092915050565b5f610ae983836001612e20565b905092915050565b5f610aff84848460016136d1565b90509392505050565b5f808203610b1b575f60801b9050610b2b565b610b25825f613919565b60801b90505b919050565b5f610b4f826f3fff000000000000000000000000000060801b5f613377565b9050919050565b5f610b766f3fff000000000000000000000000000060801b84845f6136d1565b905092915050565b5f808203610b91575f60801b9050610ba2565b610b9c826001613919565b60801b90505b919050565b5f8060708360801c6fffffffffffffffffffffffffffffffff16901c6fffffffffffffffffffffffffffffffff1690506140fe811115610bea57610be96141b2565b5b5f811180610c2057505f60801b6fffffffffffffffffffffffffffffffff1916836fffffffffffffffffffffffffffffffff1916145b610c2d57610c2c6141b2565b5b613fff811015610c40575f915050610caf565b5f6e0100000000000000000000000000006dffffffffffffffffffffffffffff8560801c6fffffffffffffffffffffffffffffffff161617905061406f821015610c93578161406f0381901c9050610ca9565b61406f821115610ca85761406f820381901b90505b5b80925050505b919050565b5f610cc083835f613377565b905092915050565b5f610ce66f3fff000000000000000000000000000060801b836125e0565b9050919050565b5f806f800000000000000000000000000000008360801c6fffffffffffffffffffffffffffffffff161190505f617fff60708560801c6fffffffffffffffffffffffffffffffff16901c166fffffffffffffffffffffffffffffffff1690505f6e0100000000000000000000000000006dffffffffffffffffffffffffffff8660801c16176fffffffffffffffffffffffffffffffff16905061400d821080610d935750825b610da057610d9f6141b2565b5b61400d821115610db8575f60801b935050505061258e565b613f7f821015610de0576f3fff000000000000000000000000000060801b935050505061258e565b613fef821115610df957613fef820381901b9050610e0f565b613fef821015610e0e5781613fef0381901c90505b5b828015610e2d575071406e0000000000000000000000000000000081115b15610e40575f60801b935050505061258e565b5f608082901c90506fffffffffffffffffffffffffffffffff82169150838015610e6a57505f8214155b15610e7a57811991506001810190505b5f6f8000000000000000000000000000000090505f6f8000000000000000000000000000000084161115610ec357608070016a09e667f3bcc908b2fb1366ea957d3e8202901c90505b5f6f4000000000000000000000000000000084161115610ef85760807001306fe0a31b7152de8d5a46305c85edec8202901c90505b5f6f2000000000000000000000000000000084161115610f2d5760807001172b83c7d517adcdf7c8c50eb14a791f8202901c90505b5f6f1000000000000000000000000000000084161115610f6257608070010b5586cf9890f6298b92b71842a983638202901c90505b5f6f0800000000000000000000000000000084161115610f975760807001059b0d31585743ae7c548eb68ca417fd8202901c90505b5f6f0400000000000000000000000000000084161115610fcc576080700102c9a3e778060ee6f7caca4f7a29bde88202901c90505b5f6f020000000000000000000000000000008416111561100157608070010163da9fb33356d84a66ae336dcdfa3f8202901c90505b5f6f0100000000000000000000000000000084161115611036576080700100b1afa5abcbed6129ab13ec11dc95438202901c90505b5f6e8000000000000000000000000000008416111561106a57608070010058c86da1c09ea1ff19d294cf2f679b8202901c90505b5f6e4000000000000000000000000000008416111561109e5760807001002c605e2e8cec506d21bfc89a23a00f8202901c90505b5f6e200000000000000000000000000000841611156110d2576080700100162f3904051fa128bca9c55c31e5df8202901c90505b5f6e100000000000000000000000000000841611156111065760807001000b175effdc76ba38e31671ca9397258202901c90505b5f6e0800000000000000000000000000008416111561113a576080700100058ba01fb9f96d6cacd4b180917c3d8202901c90505b5f6e0400000000000000000000000000008416111561116e57608070010002c5cc37da9491d0985c348c68e7b38202901c90505b5f6e020000000000000000000000000000841611156111a25760807001000162e525ee054754457d59952920268202901c90505b5f6e010000000000000000000000000000841611156111d657608070010000b17255775c040618bf4a4ade83fc8202901c90505b5f6d8000000000000000000000000000841611156112095760807001000058b91b5bc9ae2eed81e9b7d4cfab8202901c90505b5f6d40000000000000000000000000008416111561123c576080700100002c5c89d5ec6ca4d7c8acc017b7c98202901c90505b5f6d20000000000000000000000000008416111561126f57608070010000162e43f4f831060e02d839a9d16d8202901c90505b5f6d1000000000000000000000000000841611156112a2576080700100000b1721bcfc99d9f890ea069117638202901c90505b5f6d0800000000000000000000000000841611156112d557608070010000058b90cf1e6d97f9ca14dbcc16288202901c90505b5f6d0400000000000000000000000000841611156113085760807001000002c5c863b73f016468f6bac5ca2b8202901c90505b5f6d02000000000000000000000000008416111561133b576080700100000162e430e5a18f6119e3c02282a58202901c90505b5f6d01000000000000000000000000008416111561136e5760807001000000b1721835514b86e6d96efd1bfe8202901c90505b5f6c80000000000000000000000000841611156113a0576080700100000058b90c0b48c6be5df846c5b2ef8202901c90505b5f6c40000000000000000000000000841611156113d257608070010000002c5c8601cc6b9e94213c72737a8202901c90505b5f6c20000000000000000000000000841611156114045760807001000000162e42fff037df38aa2b219f068202901c90505b5f6c100000000000000000000000008416111561143657608070010000000b17217fba9c739aa5819f44f98202901c90505b5f6c08000000000000000000000000841611156114685760807001000000058b90bfcdee5acd3c1cedc8238202901c90505b5f6c040000000000000000000000008416111561149a576080700100000002c5c85fe31f35a6a30da1be508202901c90505b5f6c02000000000000000000000000841611156114cc57608070010000000162e42ff0999ce3541b9fffcf8202901c90505b5f6c01000000000000000000000000841611156114fe576080700100000000b17217f80f4ef5aadda455548202901c90505b5f6b8000000000000000000000008416111561152f57608070010000000058b90bfbf8479bd5a81b51ad8202901c90505b5f6b400000000000000000000000841611156115605760807001000000002c5c85fdf84bd62ae30a74cc8202901c90505b5f6b20000000000000000000000084161115611591576080700100000000162e42fefb2fed257559bdaa8202901c90505b5f6b100000000000000000000000841611156115c25760807001000000000b17217f7d5a7716bba4a9ae8202901c90505b5f6b080000000000000000000000841611156115f3576080700100000000058b90bfbe9ddbac5e109cce8202901c90505b5f6b0400000000000000000000008416111561162457608070010000000002c5c85fdf4b15de6f17eb0d8202901c90505b5f6b020000000000000000000000841611156116555760807001000000000162e42fefa494f1478fde058202901c90505b5f6b0100000000000000000000008416111561168657608070010000000000b17217f7d20cf927c8e94c8202901c90505b5f6a8000000000000000000000841611156116b65760807001000000000058b90bfbe8f71cb4e4b33d8202901c90505b5f6a4000000000000000000000841611156116e6576080700100000000002c5c85fdf477b662b269458202901c90505b5f6a20000000000000000000008416111561171657608070010000000000162e42fefa3ae53369388c8202901c90505b5f6a100000000000000000000084161115611746576080700100000000000b17217f7d1d351a389d408202901c90505b5f6a08000000000000000000008416111561177657608070010000000000058b90bfbe8e8b2d3d4ede8202901c90505b5f6a0400000000000000000000841611156117a65760807001000000000002c5c85fdf4741bea6e77e8202901c90505b5f6a0200000000000000000000841611156117d6576080700100000000000162e42fefa39fe95583c28202901c90505b5f6a0100000000000000000000841611156118065760807001000000000000b17217f7d1cfb72b45e18202901c90505b5f698000000000000000000084161115611835576080700100000000000058b90bfbe8e7cc35c3f08202901c90505b5f69400000000000000000008416111561186457608070010000000000002c5c85fdf473e242ea388202901c90505b5f6920000000000000000000841611156118935760807001000000000000162e42fefa39f02b772c8202901c90505b5f6910000000000000000000841611156118c257608070010000000000000b17217f7d1cf7d83c1a8202901c90505b5f6908000000000000000000841611156118f15760807001000000000000058b90bfbe8e7bdcbe2e8202901c90505b5f690400000000000000000084161115611920576080700100000000000002c5c85fdf473dea871f8202901c90505b5f69020000000000000000008416111561194f57608070010000000000000162e42fefa39ef44d918202901c90505b5f69010000000000000000008416111561197e576080700100000000000000b17217f7d1cf79e9498202901c90505b5f68800000000000000000841611156119ac57608070010000000000000058b90bfbe8e7bce5448202901c90505b5f68400000000000000000841611156119da5760807001000000000000002c5c85fdf473de6eca8202901c90505b5f6820000000000000000084161115611a08576080700100000000000000162e42fefa39ef366f8202901c90505b5f6810000000000000000084161115611a365760807001000000000000000b17217f7d1cf79afa8202901c90505b5f6808000000000000000084161115611a64576080700100000000000000058b90bfbe8e7bcd6d8202901c90505b5f6804000000000000000084161115611a9257608070010000000000000002c5c85fdf473de6b28202901c90505b5f6802000000000000000084161115611ac05760807001000000000000000162e42fefa39ef3588202901c90505b5f6801000000000000000084161115611aee57608070010000000000000000b17217f7d1cf79ab8202901c90505b5f67800000000000000084161115611b1b5760807001000000000000000058b90bfbe8e7bcd58202901c90505b5f67400000000000000084161115611b48576080700100000000000000002c5c85fdf473de6a8202901c90505b5f67200000000000000084161115611b7557608070010000000000000000162e42fefa39ef348202901c90505b5f67100000000000000084161115611ba2576080700100000000000000000b17217f7d1cf7998202901c90505b5f67080000000000000084161115611bcf57608070010000000000000000058b90bfbe8e7bcc8202901c90505b5f67040000000000000084161115611bfc5760807001000000000000000002c5c85fdf473de58202901c90505b5f67020000000000000084161115611c29576080700100000000000000000162e42fefa39ef28202901c90505b5f67010000000000000084161115611c565760807001000000000000000000b17217f7d1cf788202901c90505b5f668000000000000084161115611c82576080700100000000000000000058b90bfbe8e7bb8202901c90505b5f664000000000000084161115611cae57608070010000000000000000002c5c85fdf473dd8202901c90505b5f662000000000000084161115611cda5760807001000000000000000000162e42fefa39ee8202901c90505b5f661000000000000084161115611d0657608070010000000000000000000b17217f7d1cf68202901c90505b5f660800000000000084161115611d325760807001000000000000000000058b90bfbe8e7a8202901c90505b5f660400000000000084161115611d5e576080700100000000000000000002c5c85fdf473c8202901c90505b5f660200000000000084161115611d8a57608070010000000000000000000162e42fefa39d8202901c90505b5f660100000000000084161115611db6576080700100000000000000000000b17217f7d1ce8202901c90505b5f6580000000000084161115611de157608070010000000000000000000058b90bfbe8e68202901c90505b5f6540000000000084161115611e0c5760807001000000000000000000002c5c85fdf4728202901c90505b5f6520000000000084161115611e37576080700100000000000000000000162e42fefa388202901c90505b5f6510000000000084161115611e625760807001000000000000000000000b17217f7d1b8202901c90505b5f6508000000000084161115611e8d576080700100000000000000000000058b90bfbe8d8202901c90505b5f6504000000000084161115611eb857608070010000000000000000000002c5c85fdf468202901c90505b5f6502000000000084161115611ee35760807001000000000000000000000162e42fefa28202901c90505b5f6501000000000084161115611f0e57608070010000000000000000000000b17217f7d08202901c90505b5f64800000000084161115611f385760807001000000000000000000000058b90bfbe78202901c90505b5f64400000000084161115611f62576080700100000000000000000000002c5c85fdf38202901c90505b5f64200000000084161115611f8c57608070010000000000000000000000162e42fef98202901c90505b5f64100000000084161115611fb6576080700100000000000000000000000b17217f7c8202901c90505b5f64080000000084161115611fe057608070010000000000000000000000058b90bfbd8202901c90505b5f6404000000008416111561200a5760807001000000000000000000000002c5c85fde8202901c90505b5f64020000000084161115612034576080700100000000000000000000000162e42fee8202901c90505b5f6401000000008416111561205e5760807001000000000000000000000000b17217f68202901c90505b5f638000000084161115612087576080700100000000000000000000000058b90bfa8202901c90505b5f6340000000841611156120b057608070010000000000000000000000002c5c85fc8202901c90505b5f6320000000841611156120d95760807001000000000000000000000000162e42fd8202901c90505b5f63100000008416111561210257608070010000000000000000000000000b17217e8202901c90505b5f63080000008416111561212b5760807001000000000000000000000000058b90be8202901c90505b5f630400000084161115612154576080700100000000000000000000000002c5c85e8202901c90505b5f63020000008416111561217d57608070010000000000000000000000000162e42e8202901c90505b5f6301000000841611156121a6576080700100000000000000000000000000b172168202901c90505b5f62800000841611156121ce57608070010000000000000000000000000058b90a8202901c90505b5f62400000841611156121f65760807001000000000000000000000000002c5c848202901c90505b5f622000008416111561221e576080700100000000000000000000000000162e418202901c90505b5f62100000841611156122465760807001000000000000000000000000000b17208202901c90505b5f620800008416111561226e576080700100000000000000000000000000058b8f8202901c90505b5f620400008416111561229657608070010000000000000000000000000002c5c78202901c90505b5f62020000841611156122be5760807001000000000000000000000000000162e38202901c90505b5f62010000841611156122e657608070010000000000000000000000000000b1718202901c90505b5f6180008416111561230d5760807001000000000000000000000000000058b88202901c90505b5f61400084161115612334576080700100000000000000000000000000002c5b8202901c90505b5f6120008416111561235b57608070010000000000000000000000000000162d8202901c90505b5f61100084161115612382576080700100000000000000000000000000000b168202901c90505b5f610800841611156123a957608070010000000000000000000000000000058a8202901c90505b5f610400841611156123d05760807001000000000000000000000000000002c48202901c90505b5f610200841611156123f75760807001000000000000000000000000000001618202901c90505b5f6101008416111561241e5760807001000000000000000000000000000000b08202901c90505b5f6080841611156124445760807001000000000000000000000000000000578202901c90505b5f60408416111561246a57608070010000000000000000000000000000002b8202901c90505b5f6020841611156124905760807001000000000000000000000000000000158202901c90505b5f6010841611156124b657608070010000000000000000000000000000000a8202901c90505b5f6008841611156124dc5760807001000000000000000000000000000000048202901c90505b5f6004841611156125025760807001000000000000000000000000000000018202901c90505b8461252a576dffffffffffffffffffffffffffff600f82901c169050613fff82019150612565565b613ffe8211612556576dffffffffffffffffffffffffffff600f82901c16905081613fff039150612564565b613fef820381901c90505f91505b5b5f820361257c575f60801b9550505050505061258e565b80607083901b1760801b955050505050505b919050565b5f6125b2826f3fff000000000000000000000000000060801b5f612e20565b9050919050565b5f6125d883836f3fff000000000000000000000000000060801b613140565b905092915050565b5f8060708460801c6fffffffffffffffffffffffffffffffff16901c6fffffffffffffffffffffffffffffffff1690505f60716e0100000000000000000000000000006dffffffffffffffffffffffffffff8760801c166fffffffffffffffffffffffffffffffff1617901b90505f60708560801c6fffffffffffffffffffffffffffffffff16901c6fffffffffffffffffffffffffffffffff1690505f6e0100000000000000000000000000006dffffffffffffffffffffffffffff8760801c16176fffffffffffffffffffffffffffffffff169050617fff841080156126c95750617fff82105b6126d6576126d56141b2565b5b5f82116126e6576126e56141b2565b5b5f60801b6fffffffffffffffffffffffffffffffff1916876fffffffffffffffffffffffffffffffff191603612725575f60801b945050505050612836565b5f8411612735576127346141b2565b5b808381612745576127446141df565b5b0492506d1000000000000000000000000000831015801561277457506e04000000000000000000000000000083105b612781576127806141b2565b5b5f6e0200000000000000000000000000008410156127a05760706127a3565b60715b60ff169050614070830181860111156127d6576f7fff000000000000000000000000000060801b95505050505050612836565b82613f8e82870101116127f3575f60801b95505050505050612836565b6070811115612806576070810384901c93505b6dffffffffffffffffffffffffffff8416935082613f8e8201038501945083607086901b1760801b955050505050505b92915050565b5f8061284b835f60801b61287e565b5f0b121561285c5761285b6141b2565b5b61287661287161286b856139af565b846109a2565b610ced565b905092915050565b5f806f7fffffffffffffffffffffffffffffff8460801c1690505f6f7fffffffffffffffffffffffffffffff8460801c1690506f7fff0000000000000000000000000000826fffffffffffffffffffffffffffffffff1611156128e4576128e36141b2565b5b6f7fff0000000000000000000000000000816fffffffffffffffffffffffffffffffff161115612917576129166141b2565b5b836fffffffffffffffffffffffffffffffff1916856fffffffffffffffffffffffffffffffff191614158061296d57506f7fff0000000000000000000000000000826fffffffffffffffffffffffffffffffff16105b612975575f80fd5b836fffffffffffffffffffffffffffffffff1916856fffffffffffffffffffffffffffffffff1916036129ac575f92505050612b09565b5f6f800000000000000000000000000000008660801c6fffffffffffffffffffffffffffffffff16101590505f6f800000000000000000000000000000008660801c6fffffffffffffffffffffffffffffffff16101590508115612a9b578015612a6f57826fffffffffffffffffffffffffffffffff16846fffffffffffffffffffffffffffffffff1611612a42576001612a64565b7fffffffffffffffffffffffffffffffffffffffffffffffffffffffffffffffff5b945050505050612b09565b7fffffffffffffffffffffffffffffffffffffffffffffffffffffffffffffffff945050505050612b09565b8015612aae576001945050505050612b09565b826fffffffffffffffffffffffffffffffff16846fffffffffffffffffffffffffffffffff1611612aff577fffffffffffffffffffffffffffffffffffffffffffffffffffffffffffffffff612b02565b60015b9450505050505b92915050565b5f612b1c8484845f6136d1565b90509392505050565b5f808203612b38575f60801b9050612b7e565b5f808313612b4857825f03612b4a565b825b9050612b56815f613919565b90505f831215612b76576f80000000000000000000000000000000811790505b8060801b9150505b919050565b5f80617fff60708660801c6fffffffffffffffffffffffffffffffff16901c166fffffffffffffffffffffffffffffffff1690505f60708560801c6fffffffffffffffffffffffffffffffff16901c6fffffffffffffffffffffffffffffffff169050617fff82108015612bf85750617fff81105b612c0557612c046141b2565b5b5f60801b6fffffffffffffffffffffffffffffffff1916866fffffffffffffffffffffffffffffffff19161480612c6457505f60801b6fffffffffffffffffffffffffffffffff1916856fffffffffffffffffffffffffffffffff1916145b15612c76575f60801b92505050612e19565b5f6e0100000000000000000000000000006dffffffffffffffffffffffffffff8860801c16176fffffffffffffffffffffffffffffffff1690505f6e0100000000000000000000000000006dffffffffffffffffffffffffffff8860801c16176fffffffffffffffffffffffffffffffff1690505f84118015612cf857505f83115b612d0557612d046141b2565b5b808202915082840193505f7c0200000000000000000000000000000000000000000000000000000000831015612d3c5760e0612d3f565b60e15b60ff1690506140e08186011015612d60575f60801b95505050505050612e19565b8615612da05760016070820360018503901c0192506e0200000000000000000000000000008310612d9b57600183901c925084806001019550505b612daa565b6070810383901c92505b61c0dd8186011115612dbf57612dbe6141b2565b5b6dffffffffffffffffffffffffffff831692506140df81860103945082607086901b6f8000000000000000000000000000000060801b8b1660801c6fffffffffffffffffffffffffffffffff16171760801b955050505050505b9392505050565b5f8060708560801c6fffffffffffffffffffffffffffffffff16901c6fffffffffffffffffffffffffffffffff1690505f60708560801c6fffffffffffffffffffffffffffffffff16901c6fffffffffffffffffffffffffffffffff169050617fff82108015612e915750617fff81105b612e9e57612e9d6141b2565b5b5f60801b6fffffffffffffffffffffffffffffffff1916866fffffffffffffffffffffffffffffffff191603612ed8578492505050613139565b5f60801b6fffffffffffffffffffffffffffffffff1916856fffffffffffffffffffffffffffffffff191603612f12578592505050613139565b5f6e0100000000000000000000000000006dffffffffffffffffffffffffffff8860801c16176fffffffffffffffffffffffffffffffff1690505f6e0100000000000000000000000000006dffffffffffffffffffffffffffff8860801c16176fffffffffffffffffffffffffffffffff1690505f84118015612f9457505f83115b612fa157612fa06141b2565b5b5f8385039050861561302e576070811315612fbf5760019150613029565b5f811315612fd85760018160018403901c019150613028565b7fffffffffffffffffffffffffffffffffffffffffffffffffffffffffffffff9081121561300c5760019250839450613027565b5f811215613026576001815f0360018503901c0192508394505b5b5b5b6130a2565b6070811315613044578895505050505050613139565b5f811315613057578082901c91506130a1565b7fffffffffffffffffffffffffffffffffffffffffffffffffffffffffffffff9081121561308c578795505050505050613139565b5f8112156130a057805f0383901c92508394505b5b5b81830192506e02000000000000000000000000000083106130e257866130cc57600183901c6130d7565b60018060018503901c015b925084806001019550505b617fff85106130f4576130f36141b2565b5b6e010000000000000000000000000000831015613113575f9450613127565b6dffffffffffffffffffffffffffff831692505b82607086901b1760801b955050505050505b9392505050565b5f8060708560801c6fffffffffffffffffffffffffffffffff16901c6fffffffffffffffffffffffffffffffff1690505f6e0100000000000000000000000000006dffffffffffffffffffffffffffff8760801c16176fffffffffffffffffffffffffffffffff1690505f60708560801c6fffffffffffffffffffffffffffffffff16901c6fffffffffffffffffffffffffffffffff1690505f6e0100000000000000000000000000006dffffffffffffffffffffffffffff8760801c16176fffffffffffffffffffffffffffffffff169050617fff841080156132255750617fff82105b613232576132316141b2565b5b5f8211613242576132416141b2565b5b5f60801b6fffffffffffffffffffffffffffffffff1916886fffffffffffffffffffffffffffffffff1916148061327857505f87145b15613289575f945050505050613370565b5f8411613299576132986141b2565b5b608f82018411156132df575f6132ae88613c28565b9050610100830185820111156132c7576132c66141b2565b5b608f84901b9350608f8386030388901b97505061335e565b818411156132f45781840383901b925061335d565b81608f8501101561334b575f61330988613c28565b9050826001868301011015613325575f95505050505050613370565b608f82901b9150608f8584030361333d858a85613d0b565b901c95505050505050613370565b8184101561335c5783820381901b90505b5b5b613369838883613d0b565b9450505050505b9392505050565b5f80613383858561287e565b5f0b121561338f575f80fd5b5f60708560801c6fffffffffffffffffffffffffffffffff16901c6fffffffffffffffffffffffffffffffff1690505f60708560801c6fffffffffffffffffffffffffffffffff16901c6fffffffffffffffffffffffffffffffff169050617fff821080156133ff5750617fff81105b61340c5761340b6141b2565b5b5f6e0100000000000000000000000000006dffffffffffffffffffffffffffff8860801c16176fffffffffffffffffffffffffffffffff1690505f6e0100000000000000000000000000006dffffffffffffffffffffffffffff8860801c16176fffffffffffffffffffffffffffffffff1690505f60801b6fffffffffffffffffffffffffffffffff1916876fffffffffffffffffffffffffffffffff1916036134bc57879450505050506136ca565b5f60801b6fffffffffffffffffffffffffffffffff1916886fffffffffffffffffffffffffffffffff191603613527576040517f08c379a000000000000000000000000000000000000000000000000000000000815260040161351e90614266565b60405180910390fd5b5f8411801561353557505f83115b613542576135416141b2565b5b5f838503905086156135785760708111156135645788955050505050506136ca565b5f811115613573578082901c91505b6135ba565b5f81111561358e57600183901b92506001850394505b60708111156135a057600191506135b9565b60018111156135b857600180820360018403901c0191505b5b5b81830392505f83036135d6575f60801b955050505050506136ca565b5f6135e084613c28565b9050871580156135f05750607181145b15613617576dffffffffffffffffffffffffffff600185901c1693506001860195506136a5565b6070811015613690575f8160700390508087111561364f576dffffffffffffffffffffffffffff8186901b169450808703965061368a565b6040517f08c379a000000000000000000000000000000000000000000000000000000000815260040161368190614266565b60405180910390fd5b506136a4565b6dffffffffffffffffffffffffffff841693505b5b617fff86036136b7576136b66141b2565b5b83607087901b1760801b96505050505050505b9392505050565b5f8083036136e2576136e16141b2565b5b5f60708660801c6fffffffffffffffffffffffffffffffff16901c600f0b9050617fff8112613714576137136141b2565b5b5f60801b6fffffffffffffffffffffffffffffffff1916866fffffffffffffffffffffffffffffffff1916148061374a57505f85145b1561375b575f60801b915050613911565b5f811361376b5761376a6141b2565b5b5f6e0100000000000000000000000000006dffffffffffffffffffffffffffff8860801c16176fffffffffffffffffffffffffffffffff1690505f6137af87613c28565b90505f6137bb87613c28565b90508082136137e257600183901b925081810388901b975060018183030384019350613804565b608d8101821315613803575f608d8201830390508089901c98508085019450505b5b8561381957613814838989613d0b565b613825565b613824838989613dfc565b5b92505f830361383d575f60801b945050505050613911565b5f61384784613c28565b9050607081860113613863575f60801b95505050505050613911565b60708113156138bb5786156138ac5760016070820360018603901c0193506e02000000000000000000000000000084106138a757600184901c935084806001019550505b6138b6565b6070810384901c93505b6138cf565b60708112156138ce578060700384901b93505b5b61806e81860113156138e4576138e36141b2565b5b6dffffffffffffffffffffffffffff84169350607081038501945083607086901b1760801b955050505050505b949350505050565b5f8061392484613c28565b9050607081101561393d578060700384901b935061398b565b607081111561398a57821561397f5760016070820360018603901c0193506e020000000000000000000000000000840361397a5780806001019150505b613989565b6070810384901c93505b5b5b607081613fff01901b6dffffffffffffffffffffffffffff85161791505092915050565b5f6f3fff000000000000000000000000000060801b6fffffffffffffffffffffffffffffffff1916826fffffffffffffffffffffffffffffffff1916036139fb575f60801b9050613c23565b5f60801b6fffffffffffffffffffffffffffffffff1916826fffffffffffffffffffffffffffffffff191603613a46576fc00cfff800000000000000000000000060801b9050613c23565b5f60708360801c6fffffffffffffffffffffffffffffffff16901c6fffffffffffffffffffffffffffffffff1690506f3fff00000000000000000000000000008360801c6fffffffffffffffffffffffffffffffff161115613aab57613aaa6141b2565b5b5f8111613abb57613aba6141b2565b5b5f6e0100000000000000000000000000006dffffffffffffffffffffffffffff8560801c166fffffffffffffffffffffffffffffffff161790505f8061406f90505f613fff8510613b1c575f9250613fff85039050600f84901b9350613b2f565b6001925084613ffe039050600f84901b93505b6f800000000000000000000000000000008403613b73578215613b53576001810190505b5f613b5d82613c28565b60700390508082901b9150808303925050613bd1565b5f83613b7f575f613b82565b60015b60ff1690505b6e010000000000000000000000000000821015613bcf57600182901b915060018303925084850294505f60ff86901c90508181188301925080607f0186901c955050613b88565b505b6dffffffffffffffffffffffffffff8116607083901b84613bf2575f613c04565b6f800000000000000000000000000000005b6fffffffffffffffffffffffffffffffff16171760801b955050505050505b919050565b5f808211613c3957613c386141b2565b5b5f7001000000000000000000000000000000008310613c6057608083901c92506080810190505b680100000000000000008310613c7e57604083901c92506040810190505b6401000000008310613c9857602083901c92506020810190505b620100008310613cb057601083901c92506010810190505b6101008310613cc757600883901c92506008810190505b60108310613cdd57600483901c92506004810190505b60048310613cf357600283901c92506002810190505b60028310613d02576001810190505b80915050919050565b5f805f80198587098587029250828110838203039150505f8103613d40575f8411613d34575f80fd5b83820492505050613df5565b808411613d4b575f80fd5b5f8486880990508281118203915080830392505f856001877fffffffffffffffffffffffffffffffffffffffffffffffffffffffffffffffff030116905080860495508084049350600181825f0304019050808302841793505f600287600302189050808702600203810290508087026002038102905080870260020381029050808702600203810290508087026002038102905080870260020381029050808502955050505050505b9392505050565b5f613e08848484613d0b565b90505f8280613e1a57613e196141df565b5b8486091115613e5d577fffffffffffffffffffffffffffffffffffffffffffffffffffffffffffffffff8110613e4e575f80fd5b8080613e59906142b1565b9150505b9392505050565b5f80fd5b5f7fffffffffffffffffffffffffffffffff0000000000000000000000000000000082169050919050565b613e9c81613e68565b8114613ea6575f80fd5b50565b5f81359050613eb781613e93565b92915050565b5f8060408385031215613ed357613ed2613e64565b5b5f613ee085828601613ea9565b9250506020613ef185828601613ea9565b9150509250929050565b613f0481613e68565b82525050565b5f602082019050613f1d5f830184613efb565b92915050565b5f60208284031215613f3857613f37613e64565b5b5f613f4584828501613ea9565b91505092915050565b5f815f0b9050919050565b613f6281613f4e565b82525050565b5f602082019050613f7b5f830184613f59565b92915050565b5f819050919050565b613f9381613f81565b8114613f9d575f80fd5b50565b5f81359050613fae81613f8a565b92915050565b5f805f60608486031215613fcb57613fca613e64565b5b5f613fd886828701613ea9565b9350506020613fe986828701613fa0565b9250506040613ffa86828701613ea9565b9150509250925092565b61400d81613f81565b82525050565b5f6020820190506140265f830184614004565b92915050565b5f819050919050565b61403e8161402c565b82525050565b5f6020820190506140575f830184614035565b92915050565b5f805f6060848603121561407457614073613e64565b5b5f61408186828701613ea9565b935050602061409286828701613fa0565b92505060406140a386828701613fa0565b9150509250925092565b5f602082840312156140c2576140c1613e64565b5b5f6140cf84828501613fa0565b91505092915050565b5f80604083850312156140ee576140ed613e64565b5b5f6140fb85828601613fa0565b925050602061410c85828601613fa0565b9150509250929050565b5f806040838503121561412c5761412b613e64565b5b5f61413985828601613ea9565b925050602061414a85828601613fa0565b9150509250929050565b5f819050919050565b61416681614154565b8114614170575f80fd5b50565b5f813590506141818161415d565b92915050565b5f6020828403121561419c5761419b613e64565b5b5f6141a984828501614173565b91505092915050565b7f4e487b71000000000000000000000000000000000000000000000000000000005f52600160045260245ffd5b7f4e487b71000000000000000000000000000000000000000000000000000000005f52601260045260245ffd5b5f82825260208201905092915050565b7f55460000000000000000000000000000000000000000000000000000000000005f82015250565b5f61425060028361420c565b915061425b8261421c565b602082019050919050565b5f6020820190508181035f83015261427d81614244565b9050919050565b7f4e487b71000000000000000000000000000000000000000000000000000000005f52601160045260245ffd5b5f6142bb82613f81565b91507fffffffffffffffffffffffffffffffffffffffffffffffffffffffffffffffff82036142ed576142ec614284565b5b60018201905091905056fea26469706673582212201274ea0f6d5633a876b4e040e11f0cd6bd946eab979cbee95c2e5a632a89a02464736f6c63430008140033","opcodes":"PUSH1 0x80 PUSH1 0x40 MSTORE PUSH32 0x686172646861742D6578706F7365640000000000000000000000000000000000 PUSH0 SSTORE PUSH2 0x432E DUP1 PUSH2 0x34 PUSH0 CODECOPY PUSH0 RETURN INVALID PUSH1 0x80 PUSH1 0x40 MSTORE PUSH1 0x4 CALLDATASIZE LT PUSH2 0x19F JUMPI PUSH0 CALLDATALOAD PUSH1 0xE0 SHR DUP1 PUSH4 0x75C0895A GT PUSH2 0xEB JUMPI DUP1 PUSH4 0xB3B59DE2 GT PUSH2 0x89 JUMPI DUP1 PUSH4 0xD75FA517 GT PUSH2 0x63 JUMPI DUP1 PUSH4 0xD75FA517 EQ PUSH2 0x6C6 JUMPI DUP1 PUSH4 0xE9EB91B7 EQ PUSH2 0x702 JUMPI DUP1 PUSH4 0xEC074BB6 EQ PUSH2 0x73E JUMPI DUP1 PUSH4 0xEE20353A EQ PUSH2 0x77A JUMPI PUSH2 0x1A6 JUMP JUMPDEST DUP1 PUSH4 0xB3B59DE2 EQ PUSH2 0x636 JUMPI DUP1 PUSH4 0xB78F7D6A EQ PUSH2 0x660 JUMPI DUP1 PUSH4 0xC542F4CA EQ PUSH2 0x68A JUMPI PUSH2 0x1A6 JUMP JUMPDEST DUP1 PUSH4 0x81DE1C0D GT PUSH2 0xC5 JUMPI DUP1 PUSH4 0x81DE1C0D EQ PUSH2 0x558 JUMPI DUP1 PUSH4 0x8979A6B8 EQ PUSH2 0x582 JUMPI DUP1 PUSH4 0x9A5F493E EQ PUSH2 0x5BE JUMPI DUP1 PUSH4 0x9BB4240D EQ PUSH2 0x5FA JUMPI PUSH2 0x1A6 JUMP JUMPDEST DUP1 PUSH4 0x75C0895A EQ PUSH2 0x4A4 JUMPI DUP1 PUSH4 0x7A23F3C3 EQ PUSH2 0x4E0 JUMPI DUP1 PUSH4 0x7BC30CDC EQ PUSH2 0x51C JUMPI PUSH2 0x1A6 JUMP JUMPDEST DUP1 PUSH4 0x4A4E0C74 GT PUSH2 0x158 JUMPI DUP1 PUSH4 0x51C47285 GT PUSH2 0x132 JUMPI DUP1 PUSH4 0x51C47285 EQ PUSH2 0x3B4 JUMPI DUP1 PUSH4 0x542D1B5F EQ PUSH2 0x3F0 JUMPI DUP1 PUSH4 0x64EAC401 EQ PUSH2 0x42C JUMPI DUP1 PUSH4 0x6D0BA37B EQ PUSH2 0x468 JUMPI PUSH2 0x1A6 JUMP JUMPDEST DUP1 PUSH4 0x4A4E0C74 EQ PUSH2 0x300 JUMPI DUP1 PUSH4 0x4D59B36B EQ PUSH2 0x33C JUMPI DUP1 PUSH4 0x4EF78A0F EQ PUSH2 0x378 JUMPI PUSH2 0x1A6 JUMP JUMPDEST DUP1 PUSH4 0x55A8779 EQ PUSH2 0x1AA JUMPI DUP1 PUSH4 0x65A03A3 EQ PUSH2 0x1E6 JUMPI DUP1 PUSH4 0xAA7A858 EQ PUSH2 0x222 JUMPI DUP1 PUSH4 0x1B513D42 EQ PUSH2 0x25E JUMPI DUP1 PUSH4 0x2D52B3A8 EQ PUSH2 0x29A JUMPI DUP1 PUSH4 0x342DB739 EQ PUSH2 0x2D6 JUMPI PUSH2 0x1A6 JUMP JUMPDEST CALLDATASIZE PUSH2 0x1A6 JUMPI STOP JUMPDEST PUSH0 DUP1 REVERT JUMPDEST CALLVALUE DUP1 ISZERO PUSH2 0x1B5 JUMPI PUSH0 DUP1 REVERT JUMPDEST POP PUSH2 0x1D0 PUSH1 0x4 DUP1 CALLDATASIZE SUB DUP2 ADD SWAP1 PUSH2 0x1CB SWAP2 SWAP1 PUSH2 0x3EBD JUMP JUMPDEST PUSH2 0x7B6 JUMP JUMPDEST PUSH1 0x40 MLOAD PUSH2 0x1DD SWAP2 SWAP1 PUSH2 0x3F0A JUMP JUMPDEST PUSH1 0x40 MLOAD DUP1 SWAP2 SUB SWAP1 RETURN JUMPDEST CALLVALUE DUP1 ISZERO PUSH2 0x1F1 JUMPI PUSH0 DUP1 REVERT JUMPDEST POP PUSH2 0x20C PUSH1 0x4 DUP1 CALLDATASIZE SUB DUP2 ADD SWAP1 PUSH2 0x207 SWAP2 SWAP1 PUSH2 0x3EBD JUMP JUMPDEST PUSH2 0x7C9 JUMP JUMPDEST PUSH1 0x40 MLOAD PUSH2 0x219 SWAP2 SWAP1 PUSH2 0x3F0A JUMP JUMPDEST PUSH1 0x40 MLOAD DUP1 SWAP2 SUB SWAP1 RETURN JUMPDEST CALLVALUE DUP1 ISZERO PUSH2 0x22D JUMPI PUSH0 DUP1 REVERT JUMPDEST POP PUSH2 0x248 PUSH1 0x4 DUP1 CALLDATASIZE SUB DUP2 ADD SWAP1 PUSH2 0x243 SWAP2 SWAP1 PUSH2 0x3EBD JUMP JUMPDEST PUSH2 0x7DC JUMP JUMPDEST PUSH1 0x40 MLOAD PUSH2 0x255 SWAP2 SWAP1 PUSH2 0x3F0A JUMP JUMPDEST PUSH1 0x40 MLOAD DUP1 SWAP2 SUB SWAP1 RETURN JUMPDEST CALLVALUE DUP1 ISZERO PUSH2 0x269 JUMPI PUSH0 DUP1 REVERT JUMPDEST POP PUSH2 0x284 PUSH1 0x4 DUP1 CALLDATASIZE SUB DUP2 ADD SWAP1 PUSH2 0x27F SWAP2 SWAP1 PUSH2 0x3F23 JUMP JUMPDEST PUSH2 0x7EF JUMP JUMPDEST PUSH1 0x40 MLOAD PUSH2 0x291 SWAP2 SWAP1 PUSH2 0x3F68 JUMP JUMPDEST PUSH1 0x40 MLOAD DUP1 SWAP2 SUB SWAP1 RETURN JUMPDEST CALLVALUE DUP1 ISZERO PUSH2 0x2A5 JUMPI PUSH0 DUP1 REVERT JUMPDEST POP PUSH2 0x2C0 PUSH1 0x4 DUP1 CALLDATASIZE SUB DUP2 ADD SWAP1 PUSH2 0x2BB SWAP2 SWAP1 PUSH2 0x3FB4 JUMP JUMPDEST PUSH2 0x800 JUMP JUMPDEST PUSH1 0x40 MLOAD PUSH2 0x2CD SWAP2 SWAP1 PUSH2 0x4013 JUMP JUMPDEST PUSH1 0x40 MLOAD DUP1 SWAP2 SUB SWAP1 RETURN JUMPDEST CALLVALUE DUP1 ISZERO PUSH2 0x2E1 JUMPI PUSH0 DUP1 REVERT JUMPDEST POP PUSH2 0x2EA PUSH2 0x815 JUMP JUMPDEST PUSH1 0x40 MLOAD PUSH2 0x2F7 SWAP2 SWAP1 PUSH2 0x4044 JUMP JUMPDEST PUSH1 0x40 MLOAD DUP1 SWAP2 SUB SWAP1 RETURN JUMPDEST CALLVALUE DUP1 ISZERO PUSH2 0x30B JUMPI PUSH0 DUP1 REVERT JUMPDEST POP PUSH2 0x326 PUSH1 0x4 DUP1 CALLDATASIZE SUB DUP2 ADD SWAP1 PUSH2 0x321 SWAP2 SWAP1 PUSH2 0x3EBD JUMP JUMPDEST PUSH2 0x81A JUMP JUMPDEST PUSH1 0x40 MLOAD PUSH2 0x333 SWAP2 SWAP1 PUSH2 0x3F0A JUMP JUMPDEST PUSH1 0x40 MLOAD DUP1 SWAP2 SUB SWAP1 RETURN JUMPDEST CALLVALUE DUP1 ISZERO PUSH2 0x347 JUMPI PUSH0 DUP1 REVERT JUMPDEST POP PUSH2 0x362 PUSH1 0x4 DUP1 CALLDATASIZE SUB DUP2 ADD SWAP1 PUSH2 0x35D SWAP2 SWAP1 PUSH2 0x3EBD JUMP JUMPDEST PUSH2 0x82D JUMP JUMPDEST PUSH1 0x40 MLOAD PUSH2 0x36F SWAP2 SWAP1 PUSH2 0x3F0A JUMP JUMPDEST PUSH1 0x40 MLOAD DUP1 SWAP2 SUB SWAP1 RETURN JUMPDEST CALLVALUE DUP1 ISZERO PUSH2 0x383 JUMPI PUSH0 DUP1 REVERT JUMPDEST POP PUSH2 0x39E PUSH1 0x4 DUP1 CALLDATASIZE SUB DUP2 ADD SWAP1 PUSH2 0x399 SWAP2 SWAP1 PUSH2 0x405D JUMP JUMPDEST PUSH2 0x840 JUMP JUMPDEST PUSH1 0x40 MLOAD PUSH2 0x3AB SWAP2 SWAP1 PUSH2 0x3F0A JUMP JUMPDEST PUSH1 0x40 MLOAD DUP1 SWAP2 SUB SWAP1 RETURN JUMPDEST CALLVALUE DUP1 ISZERO PUSH2 0x3BF JUMPI PUSH0 DUP1 REVERT JUMPDEST POP PUSH2 0x3DA PUSH1 0x4 DUP1 CALLDATASIZE SUB DUP2 ADD SWAP1 PUSH2 0x3D5 SWAP2 SWAP1 PUSH2 0x40AD JUMP JUMPDEST PUSH2 0x855 JUMP JUMPDEST PUSH1 0x40 MLOAD PUSH2 0x3E7 SWAP2 SWAP1 PUSH2 0x3F0A JUMP JUMPDEST PUSH1 0x40 MLOAD DUP1 SWAP2 SUB SWAP1 RETURN JUMPDEST CALLVALUE DUP1 ISZERO PUSH2 0x3FB JUMPI PUSH0 DUP1 REVERT JUMPDEST POP PUSH2 0x416 PUSH1 0x4 DUP1 CALLDATASIZE SUB DUP2 ADD SWAP1 PUSH2 0x411 SWAP2 SWAP1 PUSH2 0x3F23 JUMP JUMPDEST PUSH2 0x866 JUMP JUMPDEST PUSH1 0x40 MLOAD PUSH2 0x423 SWAP2 SWAP1 PUSH2 0x3F0A JUMP JUMPDEST PUSH1 0x40 MLOAD DUP1 SWAP2 SUB SWAP1 RETURN JUMPDEST CALLVALUE DUP1 ISZERO PUSH2 0x437 JUMPI PUSH0 DUP1 REVERT JUMPDEST POP PUSH2 0x452 PUSH1 0x4 DUP1 CALLDATASIZE SUB DUP2 ADD SWAP1 PUSH2 0x44D SWAP2 SWAP1 PUSH2 0x40D8 JUMP JUMPDEST PUSH2 0x877 JUMP JUMPDEST PUSH1 0x40 MLOAD PUSH2 0x45F SWAP2 SWAP1 PUSH2 0x3F0A JUMP JUMPDEST PUSH1 0x40 MLOAD DUP1 SWAP2 SUB SWAP1 RETURN JUMPDEST CALLVALUE DUP1 ISZERO PUSH2 0x473 JUMPI PUSH0 DUP1 REVERT JUMPDEST POP PUSH2 0x48E PUSH1 0x4 DUP1 CALLDATASIZE SUB DUP2 ADD SWAP1 PUSH2 0x489 SWAP2 SWAP1 PUSH2 0x40AD JUMP JUMPDEST PUSH2 0x88A JUMP JUMPDEST PUSH1 0x40 MLOAD PUSH2 0x49B SWAP2 SWAP1 PUSH2 0x3F0A JUMP JUMPDEST PUSH1 0x40 MLOAD DUP1 SWAP2 SUB SWAP1 RETURN JUMPDEST CALLVALUE DUP1 ISZERO PUSH2 0x4AF JUMPI PUSH0 DUP1 REVERT JUMPDEST POP PUSH2 0x4CA PUSH1 0x4 DUP1 CALLDATASIZE SUB DUP2 ADD SWAP1 PUSH2 0x4C5 SWAP2 SWAP1 PUSH2 0x3F23 JUMP JUMPDEST PUSH2 0x89B JUMP JUMPDEST PUSH1 0x40 MLOAD PUSH2 0x4D7 SWAP2 SWAP1 PUSH2 0x4013 JUMP JUMPDEST PUSH1 0x40 MLOAD DUP1 SWAP2 SUB SWAP1 RETURN JUMPDEST CALLVALUE DUP1 ISZERO PUSH2 0x4EB JUMPI PUSH0 DUP1 REVERT JUMPDEST POP PUSH2 0x506 PUSH1 0x4 DUP1 CALLDATASIZE SUB DUP2 ADD SWAP1 PUSH2 0x501 SWAP2 SWAP1 PUSH2 0x3EBD JUMP JUMPDEST PUSH2 0x8AC JUMP JUMPDEST PUSH1 0x40 MLOAD PUSH2 0x513 SWAP2 SWAP1 PUSH2 0x3F0A JUMP JUMPDEST PUSH1 0x40 MLOAD DUP1 SWAP2 SUB SWAP1 RETURN JUMPDEST CALLVALUE DUP1 ISZERO PUSH2 0x527 JUMPI PUSH0 DUP1 REVERT JUMPDEST POP PUSH2 0x542 PUSH1 0x4 DUP1 CALLDATASIZE SUB DUP2 ADD SWAP1 PUSH2 0x53D SWAP2 SWAP1 PUSH2 0x3F23 JUMP JUMPDEST PUSH2 0x8BF JUMP JUMPDEST PUSH1 0x40 MLOAD PUSH2 0x54F SWAP2 SWAP1 PUSH2 0x3F0A JUMP JUMPDEST PUSH1 0x40 MLOAD DUP1 SWAP2 SUB SWAP1 RETURN JUMPDEST CALLVALUE DUP1 ISZERO PUSH2 0x563 JUMPI PUSH0 DUP1 REVERT JUMPDEST POP PUSH2 0x56C PUSH2 0x8D0 JUMP JUMPDEST PUSH1 0x40 MLOAD PUSH2 0x579 SWAP2 SWAP1 PUSH2 0x3F0A JUMP JUMPDEST PUSH1 0x40 MLOAD DUP1 SWAP2 SUB SWAP1 RETURN JUMPDEST CALLVALUE DUP1 ISZERO PUSH2 0x58D JUMPI PUSH0 DUP1 REVERT JUMPDEST POP PUSH2 0x5A8 PUSH1 0x4 DUP1 CALLDATASIZE SUB DUP2 ADD SWAP1 PUSH2 0x5A3 SWAP2 SWAP1 PUSH2 0x3F23 JUMP JUMPDEST PUSH2 0x8EA JUMP JUMPDEST PUSH1 0x40 MLOAD PUSH2 0x5B5 SWAP2 SWAP1 PUSH2 0x3F0A JUMP JUMPDEST PUSH1 0x40 MLOAD DUP1 SWAP2 SUB SWAP1 RETURN JUMPDEST CALLVALUE DUP1 ISZERO PUSH2 0x5C9 JUMPI PUSH0 DUP1 REVERT JUMPDEST POP PUSH2 0x5E4 PUSH1 0x4 DUP1 CALLDATASIZE SUB DUP2 ADD SWAP1 PUSH2 0x5DF SWAP2 SWAP1 PUSH2 0x3F23 JUMP JUMPDEST PUSH2 0x8FB JUMP JUMPDEST PUSH1 0x40 MLOAD PUSH2 0x5F1 SWAP2 SWAP1 PUSH2 0x3F0A JUMP JUMPDEST PUSH1 0x40 MLOAD DUP1 SWAP2 SUB SWAP1 RETURN JUMPDEST CALLVALUE DUP1 ISZERO PUSH2 0x605 JUMPI PUSH0 DUP1 REVERT JUMPDEST POP PUSH2 0x620 PUSH1 0x4 DUP1 CALLDATASIZE SUB DUP2 ADD SWAP1 PUSH2 0x61B SWAP2 SWAP1 PUSH2 0x4116 JUMP JUMPDEST PUSH2 0x90C JUMP JUMPDEST PUSH1 0x40 MLOAD PUSH2 0x62D SWAP2 SWAP1 PUSH2 0x4013 JUMP JUMPDEST PUSH1 0x40 MLOAD DUP1 SWAP2 SUB SWAP1 RETURN JUMPDEST CALLVALUE DUP1 ISZERO PUSH2 0x641 JUMPI PUSH0 DUP1 REVERT JUMPDEST POP PUSH2 0x64A PUSH2 0x91F JUMP JUMPDEST PUSH1 0x40 MLOAD PUSH2 0x657 SWAP2 SWAP1 PUSH2 0x3F0A JUMP JUMPDEST PUSH1 0x40 MLOAD DUP1 SWAP2 SUB SWAP1 RETURN JUMPDEST CALLVALUE DUP1 ISZERO PUSH2 0x66B JUMPI PUSH0 DUP1 REVERT JUMPDEST POP PUSH2 0x674 PUSH2 0x939 JUMP JUMPDEST PUSH1 0x40 MLOAD PUSH2 0x681 SWAP2 SWAP1 PUSH2 0x3F0A JUMP JUMPDEST PUSH1 0x40 MLOAD DUP1 SWAP2 SUB SWAP1 RETURN JUMPDEST CALLVALUE DUP1 ISZERO PUSH2 0x695 JUMPI PUSH0 DUP1 REVERT JUMPDEST POP PUSH2 0x6B0 PUSH1 0x4 DUP1 CALLDATASIZE SUB DUP2 ADD SWAP1 PUSH2 0x6AB SWAP2 SWAP1 PUSH2 0x3EBD JUMP JUMPDEST PUSH2 0x943 JUMP JUMPDEST PUSH1 0x40 MLOAD PUSH2 0x6BD SWAP2 SWAP1 PUSH2 0x3F0A JUMP JUMPDEST PUSH1 0x40 MLOAD DUP1 SWAP2 SUB SWAP1 RETURN JUMPDEST CALLVALUE DUP1 ISZERO PUSH2 0x6D1 JUMPI PUSH0 DUP1 REVERT JUMPDEST POP PUSH2 0x6EC PUSH1 0x4 DUP1 CALLDATASIZE SUB DUP2 ADD SWAP1 PUSH2 0x6E7 SWAP2 SWAP1 PUSH2 0x3EBD JUMP JUMPDEST PUSH2 0x956 JUMP JUMPDEST PUSH1 0x40 MLOAD PUSH2 0x6F9 SWAP2 SWAP1 PUSH2 0x3F0A JUMP JUMPDEST PUSH1 0x40 MLOAD DUP1 SWAP2 SUB SWAP1 RETURN JUMPDEST CALLVALUE DUP1 ISZERO PUSH2 0x70D JUMPI PUSH0 DUP1 REVERT JUMPDEST POP PUSH2 0x728 PUSH1 0x4 DUP1 CALLDATASIZE SUB DUP2 ADD SWAP1 PUSH2 0x723 SWAP2 SWAP1 PUSH2 0x3EBD JUMP JUMPDEST PUSH2 0x969 JUMP JUMPDEST PUSH1 0x40 MLOAD PUSH2 0x735 SWAP2 SWAP1 PUSH2 0x3F68 JUMP JUMPDEST PUSH1 0x40 MLOAD DUP1 SWAP2 SUB SWAP1 RETURN JUMPDEST CALLVALUE DUP1 ISZERO PUSH2 0x749 JUMPI PUSH0 DUP1 REVERT JUMPDEST POP PUSH2 0x764 PUSH1 0x4 DUP1 CALLDATASIZE SUB DUP2 ADD SWAP1 PUSH2 0x75F SWAP2 SWAP1 PUSH2 0x405D JUMP JUMPDEST PUSH2 0x97C JUMP JUMPDEST PUSH1 0x40 MLOAD PUSH2 0x771 SWAP2 SWAP1 PUSH2 0x3F0A JUMP JUMPDEST PUSH1 0x40 MLOAD DUP1 SWAP2 SUB SWAP1 RETURN JUMPDEST CALLVALUE DUP1 ISZERO PUSH2 0x785 JUMPI PUSH0 DUP1 REVERT JUMPDEST POP PUSH2 0x7A0 PUSH1 0x4 DUP1 CALLDATASIZE SUB DUP2 ADD SWAP1 PUSH2 0x79B SWAP2 SWAP1 PUSH2 0x4187 JUMP JUMPDEST PUSH2 0x991 JUMP JUMPDEST PUSH1 0x40 MLOAD PUSH2 0x7AD SWAP2 SWAP1 PUSH2 0x3F0A JUMP JUMPDEST PUSH1 0x40 MLOAD DUP1 SWAP2 SUB SWAP1 RETURN JUMPDEST PUSH0 PUSH2 0x7C1 DUP4 DUP4 PUSH2 0x9A2 JUMP JUMPDEST SWAP1 POP SWAP3 SWAP2 POP POP JUMP JUMPDEST PUSH0 PUSH2 0x7D4 DUP4 DUP4 PUSH2 0x9B6 JUMP JUMPDEST SWAP1 POP SWAP3 SWAP2 POP POP JUMP JUMPDEST PUSH0 PUSH2 0x7E7 DUP4 DUP4 PUSH2 0x9E6 JUMP JUMPDEST SWAP1 POP SWAP3 SWAP2 POP POP JUMP JUMPDEST PUSH0 PUSH2 0x7F9 DUP3 PUSH2 0x9FA JUMP JUMPDEST SWAP1 POP SWAP2 SWAP1 POP JUMP JUMPDEST PUSH0 PUSH2 0x80C DUP5 DUP5 DUP5 PUSH2 0xA96 JUMP JUMPDEST SWAP1 POP SWAP4 SWAP3 POP POP POP JUMP JUMPDEST PUSH0 SLOAD DUP2 JUMP JUMPDEST PUSH0 PUSH2 0x825 DUP4 DUP4 PUSH2 0xAC7 JUMP JUMPDEST SWAP1 POP SWAP3 SWAP2 POP POP JUMP JUMPDEST PUSH0 PUSH2 0x838 DUP4 DUP4 PUSH2 0xADC JUMP JUMPDEST SWAP1 POP SWAP3 SWAP2 POP POP JUMP JUMPDEST PUSH0 PUSH2 0x84C DUP5 DUP5 DUP5 PUSH2 0xAF1 JUMP JUMPDEST SWAP1 POP SWAP4 SWAP3 POP POP POP JUMP JUMPDEST PUSH0 PUSH2 0x85F DUP3 PUSH2 0xB08 JUMP JUMPDEST SWAP1 POP SWAP2 SWAP1 POP JUMP JUMPDEST PUSH0 PUSH2 0x870 DUP3 PUSH2 0xB30 JUMP JUMPDEST SWAP1 POP SWAP2 SWAP1 POP JUMP JUMPDEST PUSH0 PUSH2 0x882 DUP4 DUP4 PUSH2 0xB56 JUMP JUMPDEST SWAP1 POP SWAP3 SWAP2 POP POP JUMP JUMPDEST PUSH0 PUSH2 0x894 DUP3 PUSH2 0xB7E JUMP JUMPDEST SWAP1 POP SWAP2 SWAP1 POP JUMP JUMPDEST PUSH0 PUSH2 0x8A5 DUP3 PUSH2 0xBA7 JUMP JUMPDEST SWAP1 POP SWAP2 SWAP1 POP JUMP JUMPDEST PUSH0 PUSH2 0x8B7 DUP4 DUP4 PUSH2 0xCB4 JUMP JUMPDEST SWAP1 POP SWAP3 SWAP2 POP POP JUMP JUMPDEST PUSH0 PUSH2 0x8C9 DUP3 PUSH2 0xCC8 JUMP JUMPDEST SWAP1 POP SWAP2 SWAP1 POP JUMP JUMPDEST PUSH0 PUSH16 0x7FFF0000000000000000000000000000 PUSH1 0x80 SHL SWAP1 POP SWAP1 JUMP JUMPDEST PUSH0 PUSH2 0x8F4 DUP3 PUSH2 0xCED JUMP JUMPDEST SWAP1 POP SWAP2 SWAP1 POP JUMP JUMPDEST PUSH0 PUSH2 0x905 DUP3 PUSH2 0x2593 JUMP JUMPDEST SWAP1 POP SWAP2 SWAP1 POP JUMP JUMPDEST PUSH0 PUSH2 0x917 DUP4 DUP4 PUSH2 0x25B9 JUMP JUMPDEST SWAP1 POP SWAP3 SWAP2 POP POP JUMP JUMPDEST PUSH0 PUSH16 0x3FFF0000000000000000000000000000 PUSH1 0x80 SHL SWAP1 POP SWAP1 JUMP JUMPDEST PUSH0 DUP1 PUSH1 0x80 SHL SWAP1 POP SWAP1 JUMP JUMPDEST PUSH0 PUSH2 0x94E DUP4 DUP4 PUSH2 0x25E0 JUMP JUMPDEST SWAP1 POP SWAP3 SWAP2 POP POP JUMP JUMPDEST PUSH0 PUSH2 0x961 DUP4 DUP4 PUSH2 0x283C JUMP JUMPDEST SWAP1 POP SWAP3 SWAP2 POP POP JUMP JUMPDEST PUSH0 PUSH2 0x974 DUP4 DUP4 PUSH2 0x287E JUMP JUMPDEST SWAP1 POP SWAP3 SWAP2 POP POP JUMP JUMPDEST PUSH0 PUSH2 0x988 DUP5 DUP5 DUP5 PUSH2 0x2B0F JUMP JUMPDEST SWAP1 POP SWAP4 SWAP3 POP POP POP JUMP JUMPDEST PUSH0 PUSH2 0x99B DUP3 PUSH2 0x2B25 JUMP JUMPDEST SWAP1 POP SWAP2 SWAP1 POP JUMP JUMPDEST PUSH0 PUSH2 0x9AE DUP4 DUP4 PUSH0 PUSH2 0x2B83 JUMP JUMPDEST SWAP1 POP SWAP3 SWAP2 POP POP JUMP JUMPDEST PUSH0 DUP1 PUSH2 0x9C1 DUP5 PUSH2 0x9FA JUMP JUMPDEST PUSH0 SIGNEXTEND SLT ISZERO PUSH2 0x9D2 JUMPI PUSH2 0x9D1 PUSH2 0x41B2 JUMP JUMPDEST JUMPDEST PUSH2 0x9DE DUP4 DUP4 PUSH1 0x1 PUSH2 0x2B83 JUMP JUMPDEST SWAP1 POP SWAP3 SWAP2 POP POP JUMP JUMPDEST PUSH0 PUSH2 0x9F2 DUP4 DUP4 PUSH0 PUSH2 0x2E20 JUMP JUMPDEST SWAP1 POP SWAP3 SWAP2 POP POP JUMP JUMPDEST PUSH0 DUP1 PUSH16 0x7FFFFFFFFFFFFFFFFFFFFFFFFFFFFFFF DUP4 PUSH1 0x80 SHR AND SWAP1 POP PUSH0 DUP2 PUSH16 0xFFFFFFFFFFFFFFFFFFFFFFFFFFFFFFFF AND SUB PUSH2 0xA36 JUMPI PUSH0 SWAP2 POP POP PUSH2 0xA91 JUMP JUMPDEST PUSH16 0x80000000000000000000000000000000 DUP4 PUSH1 0x80 SHR PUSH16 0xFFFFFFFFFFFFFFFFFFFFFFFFFFFFFFFF AND LT PUSH2 0xA8B JUMPI PUSH32 0xFFFFFFFFFFFFFFFFFFFFFFFFFFFFFFFFFFFFFFFFFFFFFFFFFFFFFFFFFFFFFFFF SWAP2 POP POP PUSH2 0xA91 JUMP JUMPDEST PUSH1 0x1 SWAP2 POP POP JUMPDEST SWAP2 SWAP1 POP JUMP JUMPDEST PUSH0 DUP1 PUSH2 0xAA2 DUP4 DUP7 PUSH2 0x287E JUMP JUMPDEST PUSH0 SIGNEXTEND SLT ISZERO PUSH2 0xAB3 JUMPI PUSH2 0xAB2 PUSH2 0x41B2 JUMP JUMPDEST JUMPDEST PUSH2 0xABE DUP5 DUP5 DUP5 PUSH2 0x3140 JUMP JUMPDEST SWAP1 POP SWAP4 SWAP3 POP POP POP JUMP JUMPDEST PUSH0 PUSH2 0xAD4 DUP4 DUP4 PUSH1 0x1 PUSH2 0x3377 JUMP JUMPDEST SWAP1 POP SWAP3 SWAP2 POP POP JUMP JUMPDEST PUSH0 PUSH2 0xAE9 DUP4 DUP4 PUSH1 0x1 PUSH2 0x2E20 JUMP JUMPDEST SWAP1 POP SWAP3 SWAP2 POP POP JUMP JUMPDEST PUSH0 PUSH2 0xAFF DUP5 DUP5 DUP5 PUSH1 0x1 PUSH2 0x36D1 JUMP JUMPDEST SWAP1 POP SWAP4 SWAP3 POP POP POP JUMP JUMPDEST PUSH0 DUP1 DUP3 SUB PUSH2 0xB1B JUMPI PUSH0 PUSH1 0x80 SHL SWAP1 POP PUSH2 0xB2B JUMP JUMPDEST PUSH2 0xB25 DUP3 PUSH0 PUSH2 0x3919 JUMP JUMPDEST PUSH1 0x80 SHL SWAP1 POP JUMPDEST SWAP2 SWAP1 POP JUMP JUMPDEST PUSH0 PUSH2 0xB4F DUP3 PUSH16 0x3FFF0000000000000000000000000000 PUSH1 0x80 SHL PUSH0 PUSH2 0x3377 JUMP JUMPDEST SWAP1 POP SWAP2 SWAP1 POP JUMP JUMPDEST PUSH0 PUSH2 0xB76 PUSH16 0x3FFF0000000000000000000000000000 PUSH1 0x80 SHL DUP5 DUP5 PUSH0 PUSH2 0x36D1 JUMP JUMPDEST SWAP1 POP SWAP3 SWAP2 POP POP JUMP JUMPDEST PUSH0 DUP1 DUP3 SUB PUSH2 0xB91 JUMPI PUSH0 PUSH1 0x80 SHL SWAP1 POP PUSH2 0xBA2 JUMP JUMPDEST PUSH2 0xB9C DUP3 PUSH1 0x1 PUSH2 0x3919 JUMP JUMPDEST PUSH1 0x80 SHL SWAP1 POP JUMPDEST SWAP2 SWAP1 POP JUMP JUMPDEST PUSH0 DUP1 PUSH1 0x70 DUP4 PUSH1 0x80 SHR PUSH16 0xFFFFFFFFFFFFFFFFFFFFFFFFFFFFFFFF AND SWAP1 SHR PUSH16 0xFFFFFFFFFFFFFFFFFFFFFFFFFFFFFFFF AND SWAP1 POP PUSH2 0x40FE DUP2 GT ISZERO PUSH2 0xBEA JUMPI PUSH2 0xBE9 PUSH2 0x41B2 JUMP JUMPDEST JUMPDEST PUSH0 DUP2 GT DUP1 PUSH2 0xC20 JUMPI POP PUSH0 PUSH1 0x80 SHL PUSH16 0xFFFFFFFFFFFFFFFFFFFFFFFFFFFFFFFF NOT AND DUP4 PUSH16 0xFFFFFFFFFFFFFFFFFFFFFFFFFFFFFFFF NOT AND EQ JUMPDEST PUSH2 0xC2D JUMPI PUSH2 0xC2C PUSH2 0x41B2 JUMP JUMPDEST JUMPDEST PUSH2 0x3FFF DUP2 LT ISZERO PUSH2 0xC40 JUMPI PUSH0 SWAP2 POP POP PUSH2 0xCAF JUMP JUMPDEST PUSH0 PUSH15 0x10000000000000000000000000000 PUSH14 0xFFFFFFFFFFFFFFFFFFFFFFFFFFFF DUP6 PUSH1 0x80 SHR PUSH16 0xFFFFFFFFFFFFFFFFFFFFFFFFFFFFFFFF AND AND OR SWAP1 POP PUSH2 0x406F DUP3 LT ISZERO PUSH2 0xC93 JUMPI DUP2 PUSH2 0x406F SUB DUP2 SWAP1 SHR SWAP1 POP PUSH2 0xCA9 JUMP JUMPDEST PUSH2 0x406F DUP3 GT ISZERO PUSH2 0xCA8 JUMPI PUSH2 0x406F DUP3 SUB DUP2 SWAP1 SHL SWAP1 POP JUMPDEST JUMPDEST DUP1 SWAP3 POP POP POP JUMPDEST SWAP2 SWAP1 POP JUMP JUMPDEST PUSH0 PUSH2 0xCC0 DUP4 DUP4 PUSH0 PUSH2 0x3377 JUMP JUMPDEST SWAP1 POP SWAP3 SWAP2 POP POP JUMP JUMPDEST PUSH0 PUSH2 0xCE6 PUSH16 0x3FFF0000000000000000000000000000 PUSH1 0x80 SHL DUP4 PUSH2 0x25E0 JUMP JUMPDEST SWAP1 POP SWAP2 SWAP1 POP JUMP JUMPDEST PUSH0 DUP1 PUSH16 0x80000000000000000000000000000000 DUP4 PUSH1 0x80 SHR PUSH16 0xFFFFFFFFFFFFFFFFFFFFFFFFFFFFFFFF AND GT SWAP1 POP PUSH0 PUSH2 0x7FFF PUSH1 0x70 DUP6 PUSH1 0x80 SHR PUSH16 0xFFFFFFFFFFFFFFFFFFFFFFFFFFFFFFFF AND SWAP1 SHR AND PUSH16 0xFFFFFFFFFFFFFFFFFFFFFFFFFFFFFFFF AND SWAP1 POP PUSH0 PUSH15 0x10000000000000000000000000000 PUSH14 0xFFFFFFFFFFFFFFFFFFFFFFFFFFFF DUP7 PUSH1 0x80 SHR AND OR PUSH16 0xFFFFFFFFFFFFFFFFFFFFFFFFFFFFFFFF AND SWAP1 POP PUSH2 0x400D DUP3 LT DUP1 PUSH2 0xD93 JUMPI POP DUP3 JUMPDEST PUSH2 0xDA0 JUMPI PUSH2 0xD9F PUSH2 0x41B2 JUMP JUMPDEST JUMPDEST PUSH2 0x400D DUP3 GT ISZERO PUSH2 0xDB8 JUMPI PUSH0 PUSH1 0x80 SHL SWAP4 POP POP POP POP PUSH2 0x258E JUMP JUMPDEST PUSH2 0x3F7F DUP3 LT ISZERO PUSH2 0xDE0 JUMPI PUSH16 0x3FFF0000000000000000000000000000 PUSH1 0x80 SHL SWAP4 POP POP POP POP PUSH2 0x258E JUMP JUMPDEST PUSH2 0x3FEF DUP3 GT ISZERO PUSH2 0xDF9 JUMPI PUSH2 0x3FEF DUP3 SUB DUP2 SWAP1 SHL SWAP1 POP PUSH2 0xE0F JUMP JUMPDEST PUSH2 0x3FEF DUP3 LT ISZERO PUSH2 0xE0E JUMPI DUP2 PUSH2 0x3FEF SUB DUP2 SWAP1 SHR SWAP1 POP JUMPDEST JUMPDEST DUP3 DUP1 ISZERO PUSH2 0xE2D JUMPI POP PUSH18 0x406E00000000000000000000000000000000 DUP2 GT JUMPDEST ISZERO PUSH2 0xE40 JUMPI PUSH0 PUSH1 0x80 SHL SWAP4 POP POP POP POP PUSH2 0x258E JUMP JUMPDEST PUSH0 PUSH1 0x80 DUP3 SWAP1 SHR SWAP1 POP PUSH16 0xFFFFFFFFFFFFFFFFFFFFFFFFFFFFFFFF DUP3 AND SWAP2 POP DUP4 DUP1 ISZERO PUSH2 0xE6A JUMPI POP PUSH0 DUP3 EQ ISZERO JUMPDEST ISZERO PUSH2 0xE7A JUMPI DUP2 NOT SWAP2 POP PUSH1 0x1 DUP2 ADD SWAP1 POP JUMPDEST PUSH0 PUSH16 0x80000000000000000000000000000000 SWAP1 POP PUSH0 PUSH16 0x80000000000000000000000000000000 DUP5 AND GT ISZERO PUSH2 0xEC3 JUMPI PUSH1 0x80 PUSH17 0x16A09E667F3BCC908B2FB1366EA957D3E DUP3 MUL SWAP1 SHR SWAP1 POP JUMPDEST PUSH0 PUSH16 0x40000000000000000000000000000000 DUP5 AND GT ISZERO PUSH2 0xEF8 JUMPI PUSH1 0x80 PUSH17 0x1306FE0A31B7152DE8D5A46305C85EDEC DUP3 MUL SWAP1 SHR SWAP1 POP JUMPDEST PUSH0 PUSH16 0x20000000000000000000000000000000 DUP5 AND GT ISZERO PUSH2 0xF2D JUMPI PUSH1 0x80 PUSH17 0x1172B83C7D517ADCDF7C8C50EB14A791F DUP3 MUL SWAP1 SHR SWAP1 POP JUMPDEST PUSH0 PUSH16 0x10000000000000000000000000000000 DUP5 AND GT ISZERO PUSH2 0xF62 JUMPI PUSH1 0x80 PUSH17 0x10B5586CF9890F6298B92B71842A98363 DUP3 MUL SWAP1 SHR SWAP1 POP JUMPDEST PUSH0 PUSH16 0x8000000000000000000000000000000 DUP5 AND GT ISZERO PUSH2 0xF97 JUMPI PUSH1 0x80 PUSH17 0x1059B0D31585743AE7C548EB68CA417FD DUP3 MUL SWAP1 SHR SWAP1 POP JUMPDEST PUSH0 PUSH16 0x4000000000000000000000000000000 DUP5 AND GT ISZERO PUSH2 0xFCC JUMPI PUSH1 0x80 PUSH17 0x102C9A3E778060EE6F7CACA4F7A29BDE8 DUP3 MUL SWAP1 SHR SWAP1 POP JUMPDEST PUSH0 PUSH16 0x2000000000000000000000000000000 DUP5 AND GT ISZERO PUSH2 0x1001 JUMPI PUSH1 0x80 PUSH17 0x10163DA9FB33356D84A66AE336DCDFA3F DUP3 MUL SWAP1 SHR SWAP1 POP JUMPDEST PUSH0 PUSH16 0x1000000000000000000000000000000 DUP5 AND GT ISZERO PUSH2 0x1036 JUMPI PUSH1 0x80 PUSH17 0x100B1AFA5ABCBED6129AB13EC11DC9543 DUP3 MUL SWAP1 SHR SWAP1 POP JUMPDEST PUSH0 PUSH15 0x800000000000000000000000000000 DUP5 AND GT ISZERO PUSH2 0x106A JUMPI PUSH1 0x80 PUSH17 0x10058C86DA1C09EA1FF19D294CF2F679B DUP3 MUL SWAP1 SHR SWAP1 POP JUMPDEST PUSH0 PUSH15 0x400000000000000000000000000000 DUP5 AND GT ISZERO PUSH2 0x109E JUMPI PUSH1 0x80 PUSH17 0x1002C605E2E8CEC506D21BFC89A23A00F DUP3 MUL SWAP1 SHR SWAP1 POP JUMPDEST PUSH0 PUSH15 0x200000000000000000000000000000 DUP5 AND GT ISZERO PUSH2 0x10D2 JUMPI PUSH1 0x80 PUSH17 0x100162F3904051FA128BCA9C55C31E5DF DUP3 MUL SWAP1 SHR SWAP1 POP JUMPDEST PUSH0 PUSH15 0x100000000000000000000000000000 DUP5 AND GT ISZERO PUSH2 0x1106 JUMPI PUSH1 0x80 PUSH17 0x1000B175EFFDC76BA38E31671CA939725 DUP3 MUL SWAP1 SHR SWAP1 POP JUMPDEST PUSH0 PUSH15 0x80000000000000000000000000000 DUP5 AND GT ISZERO PUSH2 0x113A JUMPI PUSH1 0x80 PUSH17 0x100058BA01FB9F96D6CACD4B180917C3D DUP3 MUL SWAP1 SHR SWAP1 POP JUMPDEST PUSH0 PUSH15 0x40000000000000000000000000000 DUP5 AND GT ISZERO PUSH2 0x116E JUMPI PUSH1 0x80 PUSH17 0x10002C5CC37DA9491D0985C348C68E7B3 DUP3 MUL SWAP1 SHR SWAP1 POP JUMPDEST PUSH0 PUSH15 0x20000000000000000000000000000 DUP5 AND GT ISZERO PUSH2 0x11A2 JUMPI PUSH1 0x80 PUSH17 0x1000162E525EE054754457D5995292026 DUP3 MUL SWAP1 SHR SWAP1 POP JUMPDEST PUSH0 PUSH15 0x10000000000000000000000000000 DUP5 AND GT ISZERO PUSH2 0x11D6 JUMPI PUSH1 0x80 PUSH17 0x10000B17255775C040618BF4A4ADE83FC DUP3 MUL SWAP1 SHR SWAP1 POP JUMPDEST PUSH0 PUSH14 0x8000000000000000000000000000 DUP5 AND GT ISZERO PUSH2 0x1209 JUMPI PUSH1 0x80 PUSH17 0x1000058B91B5BC9AE2EED81E9B7D4CFAB DUP3 MUL SWAP1 SHR SWAP1 POP JUMPDEST PUSH0 PUSH14 0x4000000000000000000000000000 DUP5 AND GT ISZERO PUSH2 0x123C JUMPI PUSH1 0x80 PUSH17 0x100002C5C89D5EC6CA4D7C8ACC017B7C9 DUP3 MUL SWAP1 SHR SWAP1 POP JUMPDEST PUSH0 PUSH14 0x2000000000000000000000000000 DUP5 AND GT ISZERO PUSH2 0x126F JUMPI PUSH1 0x80 PUSH17 0x10000162E43F4F831060E02D839A9D16D DUP3 MUL SWAP1 SHR SWAP1 POP JUMPDEST PUSH0 PUSH14 0x1000000000000000000000000000 DUP5 AND GT ISZERO PUSH2 0x12A2 JUMPI PUSH1 0x80 PUSH17 0x100000B1721BCFC99D9F890EA06911763 DUP3 MUL SWAP1 SHR SWAP1 POP JUMPDEST PUSH0 PUSH14 0x800000000000000000000000000 DUP5 AND GT ISZERO PUSH2 0x12D5 JUMPI PUSH1 0x80 PUSH17 0x10000058B90CF1E6D97F9CA14DBCC1628 DUP3 MUL SWAP1 SHR SWAP1 POP JUMPDEST PUSH0 PUSH14 0x400000000000000000000000000 DUP5 AND GT ISZERO PUSH2 0x1308 JUMPI PUSH1 0x80 PUSH17 0x1000002C5C863B73F016468F6BAC5CA2B DUP3 MUL SWAP1 SHR SWAP1 POP JUMPDEST PUSH0 PUSH14 0x200000000000000000000000000 DUP5 AND GT ISZERO PUSH2 0x133B JUMPI PUSH1 0x80 PUSH17 0x100000162E430E5A18F6119E3C02282A5 DUP3 MUL SWAP1 SHR SWAP1 POP JUMPDEST PUSH0 PUSH14 0x100000000000000000000000000 DUP5 AND GT ISZERO PUSH2 0x136E JUMPI PUSH1 0x80 PUSH17 0x1000000B1721835514B86E6D96EFD1BFE DUP3 MUL SWAP1 SHR SWAP1 POP JUMPDEST PUSH0 PUSH13 0x80000000000000000000000000 DUP5 AND GT ISZERO PUSH2 0x13A0 JUMPI PUSH1 0x80 PUSH17 0x100000058B90C0B48C6BE5DF846C5B2EF DUP3 MUL SWAP1 SHR SWAP1 POP JUMPDEST PUSH0 PUSH13 0x40000000000000000000000000 DUP5 AND GT ISZERO PUSH2 0x13D2 JUMPI PUSH1 0x80 PUSH17 0x10000002C5C8601CC6B9E94213C72737A DUP3 MUL SWAP1 SHR SWAP1 POP JUMPDEST PUSH0 PUSH13 0x20000000000000000000000000 DUP5 AND GT ISZERO PUSH2 0x1404 JUMPI PUSH1 0x80 PUSH17 0x1000000162E42FFF037DF38AA2B219F06 DUP3 MUL SWAP1 SHR SWAP1 POP JUMPDEST PUSH0 PUSH13 0x10000000000000000000000000 DUP5 AND GT ISZERO PUSH2 0x1436 JUMPI PUSH1 0x80 PUSH17 0x10000000B17217FBA9C739AA5819F44F9 DUP3 MUL SWAP1 SHR SWAP1 POP JUMPDEST PUSH0 PUSH13 0x8000000000000000000000000 DUP5 AND GT ISZERO PUSH2 0x1468 JUMPI PUSH1 0x80 PUSH17 0x1000000058B90BFCDEE5ACD3C1CEDC823 DUP3 MUL SWAP1 SHR SWAP1 POP JUMPDEST PUSH0 PUSH13 0x4000000000000000000000000 DUP5 AND GT ISZERO PUSH2 0x149A JUMPI PUSH1 0x80 PUSH17 0x100000002C5C85FE31F35A6A30DA1BE50 DUP3 MUL SWAP1 SHR SWAP1 POP JUMPDEST PUSH0 PUSH13 0x2000000000000000000000000 DUP5 AND GT ISZERO PUSH2 0x14CC JUMPI PUSH1 0x80 PUSH17 0x10000000162E42FF0999CE3541B9FFFCF DUP3 MUL SWAP1 SHR SWAP1 POP JUMPDEST PUSH0 PUSH13 0x1000000000000000000000000 DUP5 AND GT ISZERO PUSH2 0x14FE JUMPI PUSH1 0x80 PUSH17 0x100000000B17217F80F4EF5AADDA45554 DUP3 MUL SWAP1 SHR SWAP1 POP JUMPDEST PUSH0 PUSH12 0x800000000000000000000000 DUP5 AND GT ISZERO PUSH2 0x152F JUMPI PUSH1 0x80 PUSH17 0x10000000058B90BFBF8479BD5A81B51AD DUP3 MUL SWAP1 SHR SWAP1 POP JUMPDEST PUSH0 PUSH12 0x400000000000000000000000 DUP5 AND GT ISZERO PUSH2 0x1560 JUMPI PUSH1 0x80 PUSH17 0x1000000002C5C85FDF84BD62AE30A74CC DUP3 MUL SWAP1 SHR SWAP1 POP JUMPDEST PUSH0 PUSH12 0x200000000000000000000000 DUP5 AND GT ISZERO PUSH2 0x1591 JUMPI PUSH1 0x80 PUSH17 0x100000000162E42FEFB2FED257559BDAA DUP3 MUL SWAP1 SHR SWAP1 POP JUMPDEST PUSH0 PUSH12 0x100000000000000000000000 DUP5 AND GT ISZERO PUSH2 0x15C2 JUMPI PUSH1 0x80 PUSH17 0x1000000000B17217F7D5A7716BBA4A9AE DUP3 MUL SWAP1 SHR SWAP1 POP JUMPDEST PUSH0 PUSH12 0x80000000000000000000000 DUP5 AND GT ISZERO PUSH2 0x15F3 JUMPI PUSH1 0x80 PUSH17 0x100000000058B90BFBE9DDBAC5E109CCE DUP3 MUL SWAP1 SHR SWAP1 POP JUMPDEST PUSH0 PUSH12 0x40000000000000000000000 DUP5 AND GT ISZERO PUSH2 0x1624 JUMPI PUSH1 0x80 PUSH17 0x10000000002C5C85FDF4B15DE6F17EB0D DUP3 MUL SWAP1 SHR SWAP1 POP JUMPDEST PUSH0 PUSH12 0x20000000000000000000000 DUP5 AND GT ISZERO PUSH2 0x1655 JUMPI PUSH1 0x80 PUSH17 0x1000000000162E42FEFA494F1478FDE05 DUP3 MUL SWAP1 SHR SWAP1 POP JUMPDEST PUSH0 PUSH12 0x10000000000000000000000 DUP5 AND GT ISZERO PUSH2 0x1686 JUMPI PUSH1 0x80 PUSH17 0x10000000000B17217F7D20CF927C8E94C DUP3 MUL SWAP1 SHR SWAP1 POP JUMPDEST PUSH0 PUSH11 0x8000000000000000000000 DUP5 AND GT ISZERO PUSH2 0x16B6 JUMPI PUSH1 0x80 PUSH17 0x1000000000058B90BFBE8F71CB4E4B33D DUP3 MUL SWAP1 SHR SWAP1 POP JUMPDEST PUSH0 PUSH11 0x4000000000000000000000 DUP5 AND GT ISZERO PUSH2 0x16E6 JUMPI PUSH1 0x80 PUSH17 0x100000000002C5C85FDF477B662B26945 DUP3 MUL SWAP1 SHR SWAP1 POP JUMPDEST PUSH0 PUSH11 0x2000000000000000000000 DUP5 AND GT ISZERO PUSH2 0x1716 JUMPI PUSH1 0x80 PUSH17 0x10000000000162E42FEFA3AE53369388C DUP3 MUL SWAP1 SHR SWAP1 POP JUMPDEST PUSH0 PUSH11 0x1000000000000000000000 DUP5 AND GT ISZERO PUSH2 0x1746 JUMPI PUSH1 0x80 PUSH17 0x100000000000B17217F7D1D351A389D40 DUP3 MUL SWAP1 SHR SWAP1 POP JUMPDEST PUSH0 PUSH11 0x800000000000000000000 DUP5 AND GT ISZERO PUSH2 0x1776 JUMPI PUSH1 0x80 PUSH17 0x10000000000058B90BFBE8E8B2D3D4EDE DUP3 MUL SWAP1 SHR SWAP1 POP JUMPDEST PUSH0 PUSH11 0x400000000000000000000 DUP5 AND GT ISZERO PUSH2 0x17A6 JUMPI PUSH1 0x80 PUSH17 0x1000000000002C5C85FDF4741BEA6E77E DUP3 MUL SWAP1 SHR SWAP1 POP JUMPDEST PUSH0 PUSH11 0x200000000000000000000 DUP5 AND GT ISZERO PUSH2 0x17D6 JUMPI PUSH1 0x80 PUSH17 0x100000000000162E42FEFA39FE95583C2 DUP3 MUL SWAP1 SHR SWAP1 POP JUMPDEST PUSH0 PUSH11 0x100000000000000000000 DUP5 AND GT ISZERO PUSH2 0x1806 JUMPI PUSH1 0x80 PUSH17 0x1000000000000B17217F7D1CFB72B45E1 DUP3 MUL SWAP1 SHR SWAP1 POP JUMPDEST PUSH0 PUSH10 0x80000000000000000000 DUP5 AND GT ISZERO PUSH2 0x1835 JUMPI PUSH1 0x80 PUSH17 0x100000000000058B90BFBE8E7CC35C3F0 DUP3 MUL SWAP1 SHR SWAP1 POP JUMPDEST PUSH0 PUSH10 0x40000000000000000000 DUP5 AND GT ISZERO PUSH2 0x1864 JUMPI PUSH1 0x80 PUSH17 0x10000000000002C5C85FDF473E242EA38 DUP3 MUL SWAP1 SHR SWAP1 POP JUMPDEST PUSH0 PUSH10 0x20000000000000000000 DUP5 AND GT ISZERO PUSH2 0x1893 JUMPI PUSH1 0x80 PUSH17 0x1000000000000162E42FEFA39F02B772C DUP3 MUL SWAP1 SHR SWAP1 POP JUMPDEST PUSH0 PUSH10 0x10000000000000000000 DUP5 AND GT ISZERO PUSH2 0x18C2 JUMPI PUSH1 0x80 PUSH17 0x10000000000000B17217F7D1CF7D83C1A DUP3 MUL SWAP1 SHR SWAP1 POP JUMPDEST PUSH0 PUSH10 0x8000000000000000000 DUP5 AND GT ISZERO PUSH2 0x18F1 JUMPI PUSH1 0x80 PUSH17 0x1000000000000058B90BFBE8E7BDCBE2E DUP3 MUL SWAP1 SHR SWAP1 POP JUMPDEST PUSH0 PUSH10 0x4000000000000000000 DUP5 AND GT ISZERO PUSH2 0x1920 JUMPI PUSH1 0x80 PUSH17 0x100000000000002C5C85FDF473DEA871F DUP3 MUL SWAP1 SHR SWAP1 POP JUMPDEST PUSH0 PUSH10 0x2000000000000000000 DUP5 AND GT ISZERO PUSH2 0x194F JUMPI PUSH1 0x80 PUSH17 0x10000000000000162E42FEFA39EF44D91 DUP3 MUL SWAP1 SHR SWAP1 POP JUMPDEST PUSH0 PUSH10 0x1000000000000000000 DUP5 AND GT ISZERO PUSH2 0x197E JUMPI PUSH1 0x80 PUSH17 0x100000000000000B17217F7D1CF79E949 DUP3 MUL SWAP1 SHR SWAP1 POP JUMPDEST PUSH0 PUSH9 0x800000000000000000 DUP5 AND GT ISZERO PUSH2 0x19AC JUMPI PUSH1 0x80 PUSH17 0x10000000000000058B90BFBE8E7BCE544 DUP3 MUL SWAP1 SHR SWAP1 POP JUMPDEST PUSH0 PUSH9 0x400000000000000000 DUP5 AND GT ISZERO PUSH2 0x19DA JUMPI PUSH1 0x80 PUSH17 0x1000000000000002C5C85FDF473DE6ECA DUP3 MUL SWAP1 SHR SWAP1 POP JUMPDEST PUSH0 PUSH9 0x200000000000000000 DUP5 AND GT ISZERO PUSH2 0x1A08 JUMPI PUSH1 0x80 PUSH17 0x100000000000000162E42FEFA39EF366F DUP3 MUL SWAP1 SHR SWAP1 POP JUMPDEST PUSH0 PUSH9 0x100000000000000000 DUP5 AND GT ISZERO PUSH2 0x1A36 JUMPI PUSH1 0x80 PUSH17 0x1000000000000000B17217F7D1CF79AFA DUP3 MUL SWAP1 SHR SWAP1 POP JUMPDEST PUSH0 PUSH9 0x80000000000000000 DUP5 AND GT ISZERO PUSH2 0x1A64 JUMPI PUSH1 0x80 PUSH17 0x100000000000000058B90BFBE8E7BCD6D DUP3 MUL SWAP1 SHR SWAP1 POP JUMPDEST PUSH0 PUSH9 0x40000000000000000 DUP5 AND GT ISZERO PUSH2 0x1A92 JUMPI PUSH1 0x80 PUSH17 0x10000000000000002C5C85FDF473DE6B2 DUP3 MUL SWAP1 SHR SWAP1 POP JUMPDEST PUSH0 PUSH9 0x20000000000000000 DUP5 AND GT ISZERO PUSH2 0x1AC0 JUMPI PUSH1 0x80 PUSH17 0x1000000000000000162E42FEFA39EF358 DUP3 MUL SWAP1 SHR SWAP1 POP JUMPDEST PUSH0 PUSH9 0x10000000000000000 DUP5 AND GT ISZERO PUSH2 0x1AEE JUMPI PUSH1 0x80 PUSH17 0x10000000000000000B17217F7D1CF79AB DUP3 MUL SWAP1 SHR SWAP1 POP JUMPDEST PUSH0 PUSH8 0x8000000000000000 DUP5 AND GT ISZERO PUSH2 0x1B1B JUMPI PUSH1 0x80 PUSH17 0x1000000000000000058B90BFBE8E7BCD5 DUP3 MUL SWAP1 SHR SWAP1 POP JUMPDEST PUSH0 PUSH8 0x4000000000000000 DUP5 AND GT ISZERO PUSH2 0x1B48 JUMPI PUSH1 0x80 PUSH17 0x100000000000000002C5C85FDF473DE6A DUP3 MUL SWAP1 SHR SWAP1 POP JUMPDEST PUSH0 PUSH8 0x2000000000000000 DUP5 AND GT ISZERO PUSH2 0x1B75 JUMPI PUSH1 0x80 PUSH17 0x10000000000000000162E42FEFA39EF34 DUP3 MUL SWAP1 SHR SWAP1 POP JUMPDEST PUSH0 PUSH8 0x1000000000000000 DUP5 AND GT ISZERO PUSH2 0x1BA2 JUMPI PUSH1 0x80 PUSH17 0x100000000000000000B17217F7D1CF799 DUP3 MUL SWAP1 SHR SWAP1 POP JUMPDEST PUSH0 PUSH8 0x800000000000000 DUP5 AND GT ISZERO PUSH2 0x1BCF JUMPI PUSH1 0x80 PUSH17 0x10000000000000000058B90BFBE8E7BCC DUP3 MUL SWAP1 SHR SWAP1 POP JUMPDEST PUSH0 PUSH8 0x400000000000000 DUP5 AND GT ISZERO PUSH2 0x1BFC JUMPI PUSH1 0x80 PUSH17 0x1000000000000000002C5C85FDF473DE5 DUP3 MUL SWAP1 SHR SWAP1 POP JUMPDEST PUSH0 PUSH8 0x200000000000000 DUP5 AND GT ISZERO PUSH2 0x1C29 JUMPI PUSH1 0x80 PUSH17 0x100000000000000000162E42FEFA39EF2 DUP3 MUL SWAP1 SHR SWAP1 POP JUMPDEST PUSH0 PUSH8 0x100000000000000 DUP5 AND GT ISZERO PUSH2 0x1C56 JUMPI PUSH1 0x80 PUSH17 0x1000000000000000000B17217F7D1CF78 DUP3 MUL SWAP1 SHR SWAP1 POP JUMPDEST PUSH0 PUSH7 0x80000000000000 DUP5 AND GT ISZERO PUSH2 0x1C82 JUMPI PUSH1 0x80 PUSH17 0x100000000000000000058B90BFBE8E7BB DUP3 MUL SWAP1 SHR SWAP1 POP JUMPDEST PUSH0 PUSH7 0x40000000000000 DUP5 AND GT ISZERO PUSH2 0x1CAE JUMPI PUSH1 0x80 PUSH17 0x10000000000000000002C5C85FDF473DD DUP3 MUL SWAP1 SHR SWAP1 POP JUMPDEST PUSH0 PUSH7 0x20000000000000 DUP5 AND GT ISZERO PUSH2 0x1CDA JUMPI PUSH1 0x80 PUSH17 0x1000000000000000000162E42FEFA39EE DUP3 MUL SWAP1 SHR SWAP1 POP JUMPDEST PUSH0 PUSH7 0x10000000000000 DUP5 AND GT ISZERO PUSH2 0x1D06 JUMPI PUSH1 0x80 PUSH17 0x10000000000000000000B17217F7D1CF6 DUP3 MUL SWAP1 SHR SWAP1 POP JUMPDEST PUSH0 PUSH7 0x8000000000000 DUP5 AND GT ISZERO PUSH2 0x1D32 JUMPI PUSH1 0x80 PUSH17 0x1000000000000000000058B90BFBE8E7A DUP3 MUL SWAP1 SHR SWAP1 POP JUMPDEST PUSH0 PUSH7 0x4000000000000 DUP5 AND GT ISZERO PUSH2 0x1D5E JUMPI PUSH1 0x80 PUSH17 0x100000000000000000002C5C85FDF473C DUP3 MUL SWAP1 SHR SWAP1 POP JUMPDEST PUSH0 PUSH7 0x2000000000000 DUP5 AND GT ISZERO PUSH2 0x1D8A JUMPI PUSH1 0x80 PUSH17 0x10000000000000000000162E42FEFA39D DUP3 MUL SWAP1 SHR SWAP1 POP JUMPDEST PUSH0 PUSH7 0x1000000000000 DUP5 AND GT ISZERO PUSH2 0x1DB6 JUMPI PUSH1 0x80 PUSH17 0x100000000000000000000B17217F7D1CE DUP3 MUL SWAP1 SHR SWAP1 POP JUMPDEST PUSH0 PUSH6 0x800000000000 DUP5 AND GT ISZERO PUSH2 0x1DE1 JUMPI PUSH1 0x80 PUSH17 0x10000000000000000000058B90BFBE8E6 DUP3 MUL SWAP1 SHR SWAP1 POP JUMPDEST PUSH0 PUSH6 0x400000000000 DUP5 AND GT ISZERO PUSH2 0x1E0C JUMPI PUSH1 0x80 PUSH17 0x1000000000000000000002C5C85FDF472 DUP3 MUL SWAP1 SHR SWAP1 POP JUMPDEST PUSH0 PUSH6 0x200000000000 DUP5 AND GT ISZERO PUSH2 0x1E37 JUMPI PUSH1 0x80 PUSH17 0x100000000000000000000162E42FEFA38 DUP3 MUL SWAP1 SHR SWAP1 POP JUMPDEST PUSH0 PUSH6 0x100000000000 DUP5 AND GT ISZERO PUSH2 0x1E62 JUMPI PUSH1 0x80 PUSH17 0x1000000000000000000000B17217F7D1B DUP3 MUL SWAP1 SHR SWAP1 POP JUMPDEST PUSH0 PUSH6 0x80000000000 DUP5 AND GT ISZERO PUSH2 0x1E8D JUMPI PUSH1 0x80 PUSH17 0x100000000000000000000058B90BFBE8D DUP3 MUL SWAP1 SHR SWAP1 POP JUMPDEST PUSH0 PUSH6 0x40000000000 DUP5 AND GT ISZERO PUSH2 0x1EB8 JUMPI PUSH1 0x80 PUSH17 0x10000000000000000000002C5C85FDF46 DUP3 MUL SWAP1 SHR SWAP1 POP JUMPDEST PUSH0 PUSH6 0x20000000000 DUP5 AND GT ISZERO PUSH2 0x1EE3 JUMPI PUSH1 0x80 PUSH17 0x1000000000000000000000162E42FEFA2 DUP3 MUL SWAP1 SHR SWAP1 POP JUMPDEST PUSH0 PUSH6 0x10000000000 DUP5 AND GT ISZERO PUSH2 0x1F0E JUMPI PUSH1 0x80 PUSH17 0x10000000000000000000000B17217F7D0 DUP3 MUL SWAP1 SHR SWAP1 POP JUMPDEST PUSH0 PUSH5 0x8000000000 DUP5 AND GT ISZERO PUSH2 0x1F38 JUMPI PUSH1 0x80 PUSH17 0x1000000000000000000000058B90BFBE7 DUP3 MUL SWAP1 SHR SWAP1 POP JUMPDEST PUSH0 PUSH5 0x4000000000 DUP5 AND GT ISZERO PUSH2 0x1F62 JUMPI PUSH1 0x80 PUSH17 0x100000000000000000000002C5C85FDF3 DUP3 MUL SWAP1 SHR SWAP1 POP JUMPDEST PUSH0 PUSH5 0x2000000000 DUP5 AND GT ISZERO PUSH2 0x1F8C JUMPI PUSH1 0x80 PUSH17 0x10000000000000000000000162E42FEF9 DUP3 MUL SWAP1 SHR SWAP1 POP JUMPDEST PUSH0 PUSH5 0x1000000000 DUP5 AND GT ISZERO PUSH2 0x1FB6 JUMPI PUSH1 0x80 PUSH17 0x100000000000000000000000B17217F7C DUP3 MUL SWAP1 SHR SWAP1 POP JUMPDEST PUSH0 PUSH5 0x800000000 DUP5 AND GT ISZERO PUSH2 0x1FE0 JUMPI PUSH1 0x80 PUSH17 0x10000000000000000000000058B90BFBD DUP3 MUL SWAP1 SHR SWAP1 POP JUMPDEST PUSH0 PUSH5 0x400000000 DUP5 AND GT ISZERO PUSH2 0x200A JUMPI PUSH1 0x80 PUSH17 0x1000000000000000000000002C5C85FDE DUP3 MUL SWAP1 SHR SWAP1 POP JUMPDEST PUSH0 PUSH5 0x200000000 DUP5 AND GT ISZERO PUSH2 0x2034 JUMPI PUSH1 0x80 PUSH17 0x100000000000000000000000162E42FEE DUP3 MUL SWAP1 SHR SWAP1 POP JUMPDEST PUSH0 PUSH5 0x100000000 DUP5 AND GT ISZERO PUSH2 0x205E JUMPI PUSH1 0x80 PUSH17 0x1000000000000000000000000B17217F6 DUP3 MUL SWAP1 SHR SWAP1 POP JUMPDEST PUSH0 PUSH4 0x80000000 DUP5 AND GT ISZERO PUSH2 0x2087 JUMPI PUSH1 0x80 PUSH17 0x100000000000000000000000058B90BFA DUP3 MUL SWAP1 SHR SWAP1 POP JUMPDEST PUSH0 PUSH4 0x40000000 DUP5 AND GT ISZERO PUSH2 0x20B0 JUMPI PUSH1 0x80 PUSH17 0x10000000000000000000000002C5C85FC DUP3 MUL SWAP1 SHR SWAP1 POP JUMPDEST PUSH0 PUSH4 0x20000000 DUP5 AND GT ISZERO PUSH2 0x20D9 JUMPI PUSH1 0x80 PUSH17 0x1000000000000000000000000162E42FD DUP3 MUL SWAP1 SHR SWAP1 POP JUMPDEST PUSH0 PUSH4 0x10000000 DUP5 AND GT ISZERO PUSH2 0x2102 JUMPI PUSH1 0x80 PUSH17 0x10000000000000000000000000B17217E DUP3 MUL SWAP1 SHR SWAP1 POP JUMPDEST PUSH0 PUSH4 0x8000000 DUP5 AND GT ISZERO PUSH2 0x212B JUMPI PUSH1 0x80 PUSH17 0x1000000000000000000000000058B90BE DUP3 MUL SWAP1 SHR SWAP1 POP JUMPDEST PUSH0 PUSH4 0x4000000 DUP5 AND GT ISZERO PUSH2 0x2154 JUMPI PUSH1 0x80 PUSH17 0x100000000000000000000000002C5C85E DUP3 MUL SWAP1 SHR SWAP1 POP JUMPDEST PUSH0 PUSH4 0x2000000 DUP5 AND GT ISZERO PUSH2 0x217D JUMPI PUSH1 0x80 PUSH17 0x10000000000000000000000000162E42E DUP3 MUL SWAP1 SHR SWAP1 POP JUMPDEST PUSH0 PUSH4 0x1000000 DUP5 AND GT ISZERO PUSH2 0x21A6 JUMPI PUSH1 0x80 PUSH17 0x100000000000000000000000000B17216 DUP3 MUL SWAP1 SHR SWAP1 POP JUMPDEST PUSH0 PUSH3 0x800000 DUP5 AND GT ISZERO PUSH2 0x21CE JUMPI PUSH1 0x80 PUSH17 0x10000000000000000000000000058B90A DUP3 MUL SWAP1 SHR SWAP1 POP JUMPDEST PUSH0 PUSH3 0x400000 DUP5 AND GT ISZERO PUSH2 0x21F6 JUMPI PUSH1 0x80 PUSH17 0x1000000000000000000000000002C5C84 DUP3 MUL SWAP1 SHR SWAP1 POP JUMPDEST PUSH0 PUSH3 0x200000 DUP5 AND GT ISZERO PUSH2 0x221E JUMPI PUSH1 0x80 PUSH17 0x100000000000000000000000000162E41 DUP3 MUL SWAP1 SHR SWAP1 POP JUMPDEST PUSH0 PUSH3 0x100000 DUP5 AND GT ISZERO PUSH2 0x2246 JUMPI PUSH1 0x80 PUSH17 0x1000000000000000000000000000B1720 DUP3 MUL SWAP1 SHR SWAP1 POP JUMPDEST PUSH0 PUSH3 0x80000 DUP5 AND GT ISZERO PUSH2 0x226E JUMPI PUSH1 0x80 PUSH17 0x100000000000000000000000000058B8F DUP3 MUL SWAP1 SHR SWAP1 POP JUMPDEST PUSH0 PUSH3 0x40000 DUP5 AND GT ISZERO PUSH2 0x2296 JUMPI PUSH1 0x80 PUSH17 0x10000000000000000000000000002C5C7 DUP3 MUL SWAP1 SHR SWAP1 POP JUMPDEST PUSH0 PUSH3 0x20000 DUP5 AND GT ISZERO PUSH2 0x22BE JUMPI PUSH1 0x80 PUSH17 0x1000000000000000000000000000162E3 DUP3 MUL SWAP1 SHR SWAP1 POP JUMPDEST PUSH0 PUSH3 0x10000 DUP5 AND GT ISZERO PUSH2 0x22E6 JUMPI PUSH1 0x80 PUSH17 0x10000000000000000000000000000B171 DUP3 MUL SWAP1 SHR SWAP1 POP JUMPDEST PUSH0 PUSH2 0x8000 DUP5 AND GT ISZERO PUSH2 0x230D JUMPI PUSH1 0x80 PUSH17 0x1000000000000000000000000000058B8 DUP3 MUL SWAP1 SHR SWAP1 POP JUMPDEST PUSH0 PUSH2 0x4000 DUP5 AND GT ISZERO PUSH2 0x2334 JUMPI PUSH1 0x80 PUSH17 0x100000000000000000000000000002C5B DUP3 MUL SWAP1 SHR SWAP1 POP JUMPDEST PUSH0 PUSH2 0x2000 DUP5 AND GT ISZERO PUSH2 0x235B JUMPI PUSH1 0x80 PUSH17 0x10000000000000000000000000000162D DUP3 MUL SWAP1 SHR SWAP1 POP JUMPDEST PUSH0 PUSH2 0x1000 DUP5 AND GT ISZERO PUSH2 0x2382 JUMPI PUSH1 0x80 PUSH17 0x100000000000000000000000000000B16 DUP3 MUL SWAP1 SHR SWAP1 POP JUMPDEST PUSH0 PUSH2 0x800 DUP5 AND GT ISZERO PUSH2 0x23A9 JUMPI PUSH1 0x80 PUSH17 0x10000000000000000000000000000058A DUP3 MUL SWAP1 SHR SWAP1 POP JUMPDEST PUSH0 PUSH2 0x400 DUP5 AND GT ISZERO PUSH2 0x23D0 JUMPI PUSH1 0x80 PUSH17 0x1000000000000000000000000000002C4 DUP3 MUL SWAP1 SHR SWAP1 POP JUMPDEST PUSH0 PUSH2 0x200 DUP5 AND GT ISZERO PUSH2 0x23F7 JUMPI PUSH1 0x80 PUSH17 0x100000000000000000000000000000161 DUP3 MUL SWAP1 SHR SWAP1 POP JUMPDEST PUSH0 PUSH2 0x100 DUP5 AND GT ISZERO PUSH2 0x241E JUMPI PUSH1 0x80 PUSH17 0x1000000000000000000000000000000B0 DUP3 MUL SWAP1 SHR SWAP1 POP JUMPDEST PUSH0 PUSH1 0x80 DUP5 AND GT ISZERO PUSH2 0x2444 JUMPI PUSH1 0x80 PUSH17 0x100000000000000000000000000000057 DUP3 MUL SWAP1 SHR SWAP1 POP JUMPDEST PUSH0 PUSH1 0x40 DUP5 AND GT ISZERO PUSH2 0x246A JUMPI PUSH1 0x80 PUSH17 0x10000000000000000000000000000002B DUP3 MUL SWAP1 SHR SWAP1 POP JUMPDEST PUSH0 PUSH1 0x20 DUP5 AND GT ISZERO PUSH2 0x2490 JUMPI PUSH1 0x80 PUSH17 0x100000000000000000000000000000015 DUP3 MUL SWAP1 SHR SWAP1 POP JUMPDEST PUSH0 PUSH1 0x10 DUP5 AND GT ISZERO PUSH2 0x24B6 JUMPI PUSH1 0x80 PUSH17 0x10000000000000000000000000000000A DUP3 MUL SWAP1 SHR SWAP1 POP JUMPDEST PUSH0 PUSH1 0x8 DUP5 AND GT ISZERO PUSH2 0x24DC JUMPI PUSH1 0x80 PUSH17 0x100000000000000000000000000000004 DUP3 MUL SWAP1 SHR SWAP1 POP JUMPDEST PUSH0 PUSH1 0x4 DUP5 AND GT ISZERO PUSH2 0x2502 JUMPI PUSH1 0x80 PUSH17 0x100000000000000000000000000000001 DUP3 MUL SWAP1 SHR SWAP1 POP JUMPDEST DUP5 PUSH2 0x252A JUMPI PUSH14 0xFFFFFFFFFFFFFFFFFFFFFFFFFFFF PUSH1 0xF DUP3 SWAP1 SHR AND SWAP1 POP PUSH2 0x3FFF DUP3 ADD SWAP2 POP PUSH2 0x2565 JUMP JUMPDEST PUSH2 0x3FFE DUP3 GT PUSH2 0x2556 JUMPI PUSH14 0xFFFFFFFFFFFFFFFFFFFFFFFFFFFF PUSH1 0xF DUP3 SWAP1 SHR AND SWAP1 POP DUP2 PUSH2 0x3FFF SUB SWAP2 POP PUSH2 0x2564 JUMP JUMPDEST PUSH2 0x3FEF DUP3 SUB DUP2 SWAP1 SHR SWAP1 POP PUSH0 SWAP2 POP JUMPDEST JUMPDEST PUSH0 DUP3 SUB PUSH2 0x257C JUMPI PUSH0 PUSH1 0x80 SHL SWAP6 POP POP POP POP POP POP PUSH2 0x258E JUMP JUMPDEST DUP1 PUSH1 0x70 DUP4 SWAP1 SHL OR PUSH1 0x80 SHL SWAP6 POP POP POP POP POP POP JUMPDEST SWAP2 SWAP1 POP JUMP JUMPDEST PUSH0 PUSH2 0x25B2 DUP3 PUSH16 0x3FFF0000000000000000000000000000 PUSH1 0x80 SHL PUSH0 PUSH2 0x2E20 JUMP JUMPDEST SWAP1 POP SWAP2 SWAP1 POP JUMP JUMPDEST PUSH0 PUSH2 0x25D8 DUP4 DUP4 PUSH16 0x3FFF0000000000000000000000000000 PUSH1 0x80 SHL PUSH2 0x3140 JUMP JUMPDEST SWAP1 POP SWAP3 SWAP2 POP POP JUMP JUMPDEST PUSH0 DUP1 PUSH1 0x70 DUP5 PUSH1 0x80 SHR PUSH16 0xFFFFFFFFFFFFFFFFFFFFFFFFFFFFFFFF AND SWAP1 SHR PUSH16 0xFFFFFFFFFFFFFFFFFFFFFFFFFFFFFFFF AND SWAP1 POP PUSH0 PUSH1 0x71 PUSH15 0x10000000000000000000000000000 PUSH14 0xFFFFFFFFFFFFFFFFFFFFFFFFFFFF DUP8 PUSH1 0x80 SHR AND PUSH16 0xFFFFFFFFFFFFFFFFFFFFFFFFFFFFFFFF AND OR SWAP1 SHL SWAP1 POP PUSH0 PUSH1 0x70 DUP6 PUSH1 0x80 SHR PUSH16 0xFFFFFFFFFFFFFFFFFFFFFFFFFFFFFFFF AND SWAP1 SHR PUSH16 0xFFFFFFFFFFFFFFFFFFFFFFFFFFFFFFFF AND SWAP1 POP PUSH0 PUSH15 0x10000000000000000000000000000 PUSH14 0xFFFFFFFFFFFFFFFFFFFFFFFFFFFF DUP8 PUSH1 0x80 SHR AND OR PUSH16 0xFFFFFFFFFFFFFFFFFFFFFFFFFFFFFFFF AND SWAP1 POP PUSH2 0x7FFF DUP5 LT DUP1 ISZERO PUSH2 0x26C9 JUMPI POP PUSH2 0x7FFF DUP3 LT JUMPDEST PUSH2 0x26D6 JUMPI PUSH2 0x26D5 PUSH2 0x41B2 JUMP JUMPDEST JUMPDEST PUSH0 DUP3 GT PUSH2 0x26E6 JUMPI PUSH2 0x26E5 PUSH2 0x41B2 JUMP JUMPDEST JUMPDEST PUSH0 PUSH1 0x80 SHL PUSH16 0xFFFFFFFFFFFFFFFFFFFFFFFFFFFFFFFF NOT AND DUP8 PUSH16 0xFFFFFFFFFFFFFFFFFFFFFFFFFFFFFFFF NOT AND SUB PUSH2 0x2725 JUMPI PUSH0 PUSH1 0x80 SHL SWAP5 POP POP POP POP POP PUSH2 0x2836 JUMP JUMPDEST PUSH0 DUP5 GT PUSH2 0x2735 JUMPI PUSH2 0x2734 PUSH2 0x41B2 JUMP JUMPDEST JUMPDEST DUP1 DUP4 DUP2 PUSH2 0x2745 JUMPI PUSH2 0x2744 PUSH2 0x41DF JUMP JUMPDEST JUMPDEST DIV SWAP3 POP PUSH14 0x1000000000000000000000000000 DUP4 LT ISZERO DUP1 ISZERO PUSH2 0x2774 JUMPI POP PUSH15 0x40000000000000000000000000000 DUP4 LT JUMPDEST PUSH2 0x2781 JUMPI PUSH2 0x2780 PUSH2 0x41B2 JUMP JUMPDEST JUMPDEST PUSH0 PUSH15 0x20000000000000000000000000000 DUP5 LT ISZERO PUSH2 0x27A0 JUMPI PUSH1 0x70 PUSH2 0x27A3 JUMP JUMPDEST PUSH1 0x71 JUMPDEST PUSH1 0xFF AND SWAP1 POP PUSH2 0x4070 DUP4 ADD DUP2 DUP7 ADD GT ISZERO PUSH2 0x27D6 JUMPI PUSH16 0x7FFF0000000000000000000000000000 PUSH1 0x80 SHL SWAP6 POP POP POP POP POP POP PUSH2 0x2836 JUMP JUMPDEST DUP3 PUSH2 0x3F8E DUP3 DUP8 ADD ADD GT PUSH2 0x27F3 JUMPI PUSH0 PUSH1 0x80 SHL SWAP6 POP POP POP POP POP POP PUSH2 0x2836 JUMP JUMPDEST PUSH1 0x70 DUP2 GT ISZERO PUSH2 0x2806 JUMPI PUSH1 0x70 DUP2 SUB DUP5 SWAP1 SHR SWAP4 POP JUMPDEST PUSH14 0xFFFFFFFFFFFFFFFFFFFFFFFFFFFF DUP5 AND SWAP4 POP DUP3 PUSH2 0x3F8E DUP3 ADD SUB DUP6 ADD SWAP5 POP DUP4 PUSH1 0x70 DUP7 SWAP1 SHL OR PUSH1 0x80 SHL SWAP6 POP POP POP POP POP POP JUMPDEST SWAP3 SWAP2 POP POP JUMP JUMPDEST PUSH0 DUP1 PUSH2 0x284B DUP4 PUSH0 PUSH1 0x80 SHL PUSH2 0x287E JUMP JUMPDEST PUSH0 SIGNEXTEND SLT ISZERO PUSH2 0x285C JUMPI PUSH2 0x285B PUSH2 0x41B2 JUMP JUMPDEST JUMPDEST PUSH2 0x2876 PUSH2 0x2871 PUSH2 0x286B DUP6 PUSH2 0x39AF JUMP JUMPDEST DUP5 PUSH2 0x9A2 JUMP JUMPDEST PUSH2 0xCED JUMP JUMPDEST SWAP1 POP SWAP3 SWAP2 POP POP JUMP JUMPDEST PUSH0 DUP1 PUSH16 0x7FFFFFFFFFFFFFFFFFFFFFFFFFFFFFFF DUP5 PUSH1 0x80 SHR AND SWAP1 POP PUSH0 PUSH16 0x7FFFFFFFFFFFFFFFFFFFFFFFFFFFFFFF DUP5 PUSH1 0x80 SHR AND SWAP1 POP PUSH16 0x7FFF0000000000000000000000000000 DUP3 PUSH16 0xFFFFFFFFFFFFFFFFFFFFFFFFFFFFFFFF AND GT ISZERO PUSH2 0x28E4 JUMPI PUSH2 0x28E3 PUSH2 0x41B2 JUMP JUMPDEST JUMPDEST PUSH16 0x7FFF0000000000000000000000000000 DUP2 PUSH16 0xFFFFFFFFFFFFFFFFFFFFFFFFFFFFFFFF AND GT ISZERO PUSH2 0x2917 JUMPI PUSH2 0x2916 PUSH2 0x41B2 JUMP JUMPDEST JUMPDEST DUP4 PUSH16 0xFFFFFFFFFFFFFFFFFFFFFFFFFFFFFFFF NOT AND DUP6 PUSH16 0xFFFFFFFFFFFFFFFFFFFFFFFFFFFFFFFF NOT AND EQ ISZERO DUP1 PUSH2 0x296D JUMPI POP PUSH16 0x7FFF0000000000000000000000000000 DUP3 PUSH16 0xFFFFFFFFFFFFFFFFFFFFFFFFFFFFFFFF AND LT JUMPDEST PUSH2 0x2975 JUMPI PUSH0 DUP1 REVERT JUMPDEST DUP4 PUSH16 0xFFFFFFFFFFFFFFFFFFFFFFFFFFFFFFFF NOT AND DUP6 PUSH16 0xFFFFFFFFFFFFFFFFFFFFFFFFFFFFFFFF NOT AND SUB PUSH2 0x29AC JUMPI PUSH0 SWAP3 POP POP POP PUSH2 0x2B09 JUMP JUMPDEST PUSH0 PUSH16 0x80000000000000000000000000000000 DUP7 PUSH1 0x80 SHR PUSH16 0xFFFFFFFFFFFFFFFFFFFFFFFFFFFFFFFF AND LT ISZERO SWAP1 POP PUSH0 PUSH16 0x80000000000000000000000000000000 DUP7 PUSH1 0x80 SHR PUSH16 0xFFFFFFFFFFFFFFFFFFFFFFFFFFFFFFFF AND LT ISZERO SWAP1 POP DUP2 ISZERO PUSH2 0x2A9B JUMPI DUP1 ISZERO PUSH2 0x2A6F JUMPI DUP3 PUSH16 0xFFFFFFFFFFFFFFFFFFFFFFFFFFFFFFFF AND DUP5 PUSH16 0xFFFFFFFFFFFFFFFFFFFFFFFFFFFFFFFF AND GT PUSH2 0x2A42 JUMPI PUSH1 0x1 PUSH2 0x2A64 JUMP JUMPDEST PUSH32 0xFFFFFFFFFFFFFFFFFFFFFFFFFFFFFFFFFFFFFFFFFFFFFFFFFFFFFFFFFFFFFFFF JUMPDEST SWAP5 POP POP POP POP POP PUSH2 0x2B09 JUMP JUMPDEST PUSH32 0xFFFFFFFFFFFFFFFFFFFFFFFFFFFFFFFFFFFFFFFFFFFFFFFFFFFFFFFFFFFFFFFF SWAP5 POP POP POP POP POP PUSH2 0x2B09 JUMP JUMPDEST DUP1 ISZERO PUSH2 0x2AAE JUMPI PUSH1 0x1 SWAP5 POP POP POP POP POP PUSH2 0x2B09 JUMP JUMPDEST DUP3 PUSH16 0xFFFFFFFFFFFFFFFFFFFFFFFFFFFFFFFF AND DUP5 PUSH16 0xFFFFFFFFFFFFFFFFFFFFFFFFFFFFFFFF AND GT PUSH2 0x2AFF JUMPI PUSH32 0xFFFFFFFFFFFFFFFFFFFFFFFFFFFFFFFFFFFFFFFFFFFFFFFFFFFFFFFFFFFFFFFF PUSH2 0x2B02 JUMP JUMPDEST PUSH1 0x1 JUMPDEST SWAP5 POP POP POP POP POP JUMPDEST SWAP3 SWAP2 POP POP JUMP JUMPDEST PUSH0 PUSH2 0x2B1C DUP5 DUP5 DUP5 PUSH0 PUSH2 0x36D1 JUMP JUMPDEST SWAP1 POP SWAP4 SWAP3 POP POP POP JUMP JUMPDEST PUSH0 DUP1 DUP3 SUB PUSH2 0x2B38 JUMPI PUSH0 PUSH1 0x80 SHL SWAP1 POP PUSH2 0x2B7E JUMP JUMPDEST PUSH0 DUP1 DUP4 SGT PUSH2 0x2B48 JUMPI DUP3 PUSH0 SUB PUSH2 0x2B4A JUMP JUMPDEST DUP3 JUMPDEST SWAP1 POP PUSH2 0x2B56 DUP2 PUSH0 PUSH2 0x3919 JUMP JUMPDEST SWAP1 POP PUSH0 DUP4 SLT ISZERO PUSH2 0x2B76 JUMPI PUSH16 0x80000000000000000000000000000000 DUP2 OR SWAP1 POP JUMPDEST DUP1 PUSH1 0x80 SHL SWAP2 POP POP JUMPDEST SWAP2 SWAP1 POP JUMP JUMPDEST PUSH0 DUP1 PUSH2 0x7FFF PUSH1 0x70 DUP7 PUSH1 0x80 SHR PUSH16 0xFFFFFFFFFFFFFFFFFFFFFFFFFFFFFFFF AND SWAP1 SHR AND PUSH16 0xFFFFFFFFFFFFFFFFFFFFFFFFFFFFFFFF AND SWAP1 POP PUSH0 PUSH1 0x70 DUP6 PUSH1 0x80 SHR PUSH16 0xFFFFFFFFFFFFFFFFFFFFFFFFFFFFFFFF AND SWAP1 SHR PUSH16 0xFFFFFFFFFFFFFFFFFFFFFFFFFFFFFFFF AND SWAP1 POP PUSH2 0x7FFF DUP3 LT DUP1 ISZERO PUSH2 0x2BF8 JUMPI POP PUSH2 0x7FFF DUP2 LT JUMPDEST PUSH2 0x2C05 JUMPI PUSH2 0x2C04 PUSH2 0x41B2 JUMP JUMPDEST JUMPDEST PUSH0 PUSH1 0x80 SHL PUSH16 0xFFFFFFFFFFFFFFFFFFFFFFFFFFFFFFFF NOT AND DUP7 PUSH16 0xFFFFFFFFFFFFFFFFFFFFFFFFFFFFFFFF NOT AND EQ DUP1 PUSH2 0x2C64 JUMPI POP PUSH0 PUSH1 0x80 SHL PUSH16 0xFFFFFFFFFFFFFFFFFFFFFFFFFFFFFFFF NOT AND DUP6 PUSH16 0xFFFFFFFFFFFFFFFFFFFFFFFFFFFFFFFF NOT AND EQ JUMPDEST ISZERO PUSH2 0x2C76 JUMPI PUSH0 PUSH1 0x80 SHL SWAP3 POP POP POP PUSH2 0x2E19 JUMP JUMPDEST PUSH0 PUSH15 0x10000000000000000000000000000 PUSH14 0xFFFFFFFFFFFFFFFFFFFFFFFFFFFF DUP9 PUSH1 0x80 SHR AND OR PUSH16 0xFFFFFFFFFFFFFFFFFFFFFFFFFFFFFFFF AND SWAP1 POP PUSH0 PUSH15 0x10000000000000000000000000000 PUSH14 0xFFFFFFFFFFFFFFFFFFFFFFFFFFFF DUP9 PUSH1 0x80 SHR AND OR PUSH16 0xFFFFFFFFFFFFFFFFFFFFFFFFFFFFFFFF AND SWAP1 POP PUSH0 DUP5 GT DUP1 ISZERO PUSH2 0x2CF8 JUMPI POP PUSH0 DUP4 GT JUMPDEST PUSH2 0x2D05 JUMPI PUSH2 0x2D04 PUSH2 0x41B2 JUMP JUMPDEST JUMPDEST DUP1 DUP3 MUL SWAP2 POP DUP3 DUP5 ADD SWAP4 POP PUSH0 PUSH29 0x200000000000000000000000000000000000000000000000000000000 DUP4 LT ISZERO PUSH2 0x2D3C JUMPI PUSH1 0xE0 PUSH2 0x2D3F JUMP JUMPDEST PUSH1 0xE1 JUMPDEST PUSH1 0xFF AND SWAP1 POP PUSH2 0x40E0 DUP2 DUP7 ADD LT ISZERO PUSH2 0x2D60 JUMPI PUSH0 PUSH1 0x80 SHL SWAP6 POP POP POP POP POP POP PUSH2 0x2E19 JUMP JUMPDEST DUP7 ISZERO PUSH2 0x2DA0 JUMPI PUSH1 0x1 PUSH1 0x70 DUP3 SUB PUSH1 0x1 DUP6 SUB SWAP1 SHR ADD SWAP3 POP PUSH15 0x20000000000000000000000000000 DUP4 LT PUSH2 0x2D9B JUMPI PUSH1 0x1 DUP4 SWAP1 SHR SWAP3 POP DUP5 DUP1 PUSH1 0x1 ADD SWAP6 POP POP JUMPDEST PUSH2 0x2DAA JUMP JUMPDEST PUSH1 0x70 DUP2 SUB DUP4 SWAP1 SHR SWAP3 POP JUMPDEST PUSH2 0xC0DD DUP2 DUP7 ADD GT ISZERO PUSH2 0x2DBF JUMPI PUSH2 0x2DBE PUSH2 0x41B2 JUMP JUMPDEST JUMPDEST PUSH14 0xFFFFFFFFFFFFFFFFFFFFFFFFFFFF DUP4 AND SWAP3 POP PUSH2 0x40DF DUP2 DUP7 ADD SUB SWAP5 POP DUP3 PUSH1 0x70 DUP7 SWAP1 SHL PUSH16 0x80000000000000000000000000000000 PUSH1 0x80 SHL DUP12 AND PUSH1 0x80 SHR PUSH16 0xFFFFFFFFFFFFFFFFFFFFFFFFFFFFFFFF AND OR OR PUSH1 0x80 SHL SWAP6 POP POP POP POP POP POP JUMPDEST SWAP4 SWAP3 POP POP POP JUMP JUMPDEST PUSH0 DUP1 PUSH1 0x70 DUP6 PUSH1 0x80 SHR PUSH16 0xFFFFFFFFFFFFFFFFFFFFFFFFFFFFFFFF AND SWAP1 SHR PUSH16 0xFFFFFFFFFFFFFFFFFFFFFFFFFFFFFFFF AND SWAP1 POP PUSH0 PUSH1 0x70 DUP6 PUSH1 0x80 SHR PUSH16 0xFFFFFFFFFFFFFFFFFFFFFFFFFFFFFFFF AND SWAP1 SHR PUSH16 0xFFFFFFFFFFFFFFFFFFFFFFFFFFFFFFFF AND SWAP1 POP PUSH2 0x7FFF DUP3 LT DUP1 ISZERO PUSH2 0x2E91 JUMPI POP PUSH2 0x7FFF DUP2 LT JUMPDEST PUSH2 0x2E9E JUMPI PUSH2 0x2E9D PUSH2 0x41B2 JUMP JUMPDEST JUMPDEST PUSH0 PUSH1 0x80 SHL PUSH16 0xFFFFFFFFFFFFFFFFFFFFFFFFFFFFFFFF NOT AND DUP7 PUSH16 0xFFFFFFFFFFFFFFFFFFFFFFFFFFFFFFFF NOT AND SUB PUSH2 0x2ED8 JUMPI DUP5 SWAP3 POP POP POP PUSH2 0x3139 JUMP JUMPDEST PUSH0 PUSH1 0x80 SHL PUSH16 0xFFFFFFFFFFFFFFFFFFFFFFFFFFFFFFFF NOT AND DUP6 PUSH16 0xFFFFFFFFFFFFFFFFFFFFFFFFFFFFFFFF NOT AND SUB PUSH2 0x2F12 JUMPI DUP6 SWAP3 POP POP POP PUSH2 0x3139 JUMP JUMPDEST PUSH0 PUSH15 0x10000000000000000000000000000 PUSH14 0xFFFFFFFFFFFFFFFFFFFFFFFFFFFF DUP9 PUSH1 0x80 SHR AND OR PUSH16 0xFFFFFFFFFFFFFFFFFFFFFFFFFFFFFFFF AND SWAP1 POP PUSH0 PUSH15 0x10000000000000000000000000000 PUSH14 0xFFFFFFFFFFFFFFFFFFFFFFFFFFFF DUP9 PUSH1 0x80 SHR AND OR PUSH16 0xFFFFFFFFFFFFFFFFFFFFFFFFFFFFFFFF AND SWAP1 POP PUSH0 DUP5 GT DUP1 ISZERO PUSH2 0x2F94 JUMPI POP PUSH0 DUP4 GT JUMPDEST PUSH2 0x2FA1 JUMPI PUSH2 0x2FA0 PUSH2 0x41B2 JUMP JUMPDEST JUMPDEST PUSH0 DUP4 DUP6 SUB SWAP1 POP DUP7 ISZERO PUSH2 0x302E JUMPI PUSH1 0x70 DUP2 SGT ISZERO PUSH2 0x2FBF JUMPI PUSH1 0x1 SWAP2 POP PUSH2 0x3029 JUMP JUMPDEST PUSH0 DUP2 SGT ISZERO PUSH2 0x2FD8 JUMPI PUSH1 0x1 DUP2 PUSH1 0x1 DUP5 SUB SWAP1 SHR ADD SWAP2 POP PUSH2 0x3028 JUMP JUMPDEST PUSH32 0xFFFFFFFFFFFFFFFFFFFFFFFFFFFFFFFFFFFFFFFFFFFFFFFFFFFFFFFFFFFFFF90 DUP2 SLT ISZERO PUSH2 0x300C JUMPI PUSH1 0x1 SWAP3 POP DUP4 SWAP5 POP PUSH2 0x3027 JUMP JUMPDEST PUSH0 DUP2 SLT ISZERO PUSH2 0x3026 JUMPI PUSH1 0x1 DUP2 PUSH0 SUB PUSH1 0x1 DUP6 SUB SWAP1 SHR ADD SWAP3 POP DUP4 SWAP5 POP JUMPDEST JUMPDEST JUMPDEST JUMPDEST PUSH2 0x30A2 JUMP JUMPDEST PUSH1 0x70 DUP2 SGT ISZERO PUSH2 0x3044 JUMPI DUP9 SWAP6 POP POP POP POP POP POP PUSH2 0x3139 JUMP JUMPDEST PUSH0 DUP2 SGT ISZERO PUSH2 0x3057 JUMPI DUP1 DUP3 SWAP1 SHR SWAP2 POP PUSH2 0x30A1 JUMP JUMPDEST PUSH32 0xFFFFFFFFFFFFFFFFFFFFFFFFFFFFFFFFFFFFFFFFFFFFFFFFFFFFFFFFFFFFFF90 DUP2 SLT ISZERO PUSH2 0x308C JUMPI DUP8 SWAP6 POP POP POP POP POP POP PUSH2 0x3139 JUMP JUMPDEST PUSH0 DUP2 SLT ISZERO PUSH2 0x30A0 JUMPI DUP1 PUSH0 SUB DUP4 SWAP1 SHR SWAP3 POP DUP4 SWAP5 POP JUMPDEST JUMPDEST JUMPDEST DUP2 DUP4 ADD SWAP3 POP PUSH15 0x20000000000000000000000000000 DUP4 LT PUSH2 0x30E2 JUMPI DUP7 PUSH2 0x30CC JUMPI PUSH1 0x1 DUP4 SWAP1 SHR PUSH2 0x30D7 JUMP JUMPDEST PUSH1 0x1 DUP1 PUSH1 0x1 DUP6 SUB SWAP1 SHR ADD JUMPDEST SWAP3 POP DUP5 DUP1 PUSH1 0x1 ADD SWAP6 POP POP JUMPDEST PUSH2 0x7FFF DUP6 LT PUSH2 0x30F4 JUMPI PUSH2 0x30F3 PUSH2 0x41B2 JUMP JUMPDEST JUMPDEST PUSH15 0x10000000000000000000000000000 DUP4 LT ISZERO PUSH2 0x3113 JUMPI PUSH0 SWAP5 POP PUSH2 0x3127 JUMP JUMPDEST PUSH14 0xFFFFFFFFFFFFFFFFFFFFFFFFFFFF DUP4 AND SWAP3 POP JUMPDEST DUP3 PUSH1 0x70 DUP7 SWAP1 SHL OR PUSH1 0x80 SHL SWAP6 POP POP POP POP POP POP JUMPDEST SWAP4 SWAP3 POP POP POP JUMP JUMPDEST PUSH0 DUP1 PUSH1 0x70 DUP6 PUSH1 0x80 SHR PUSH16 0xFFFFFFFFFFFFFFFFFFFFFFFFFFFFFFFF AND SWAP1 SHR PUSH16 0xFFFFFFFFFFFFFFFFFFFFFFFFFFFFFFFF AND SWAP1 POP PUSH0 PUSH15 0x10000000000000000000000000000 PUSH14 0xFFFFFFFFFFFFFFFFFFFFFFFFFFFF DUP8 PUSH1 0x80 SHR AND OR PUSH16 0xFFFFFFFFFFFFFFFFFFFFFFFFFFFFFFFF AND SWAP1 POP PUSH0 PUSH1 0x70 DUP6 PUSH1 0x80 SHR PUSH16 0xFFFFFFFFFFFFFFFFFFFFFFFFFFFFFFFF AND SWAP1 SHR PUSH16 0xFFFFFFFFFFFFFFFFFFFFFFFFFFFFFFFF AND SWAP1 POP PUSH0 PUSH15 0x10000000000000000000000000000 PUSH14 0xFFFFFFFFFFFFFFFFFFFFFFFFFFFF DUP8 PUSH1 0x80 SHR AND OR PUSH16 0xFFFFFFFFFFFFFFFFFFFFFFFFFFFFFFFF AND SWAP1 POP PUSH2 0x7FFF DUP5 LT DUP1 ISZERO PUSH2 0x3225 JUMPI POP PUSH2 0x7FFF DUP3 LT JUMPDEST PUSH2 0x3232 JUMPI PUSH2 0x3231 PUSH2 0x41B2 JUMP JUMPDEST JUMPDEST PUSH0 DUP3 GT PUSH2 0x3242 JUMPI PUSH2 0x3241 PUSH2 0x41B2 JUMP JUMPDEST JUMPDEST PUSH0 PUSH1 0x80 SHL PUSH16 0xFFFFFFFFFFFFFFFFFFFFFFFFFFFFFFFF NOT AND DUP9 PUSH16 0xFFFFFFFFFFFFFFFFFFFFFFFFFFFFFFFF NOT AND EQ DUP1 PUSH2 0x3278 JUMPI POP PUSH0 DUP8 EQ JUMPDEST ISZERO PUSH2 0x3289 JUMPI PUSH0 SWAP5 POP POP POP POP POP PUSH2 0x3370 JUMP JUMPDEST PUSH0 DUP5 GT PUSH2 0x3299 JUMPI PUSH2 0x3298 PUSH2 0x41B2 JUMP JUMPDEST JUMPDEST PUSH1 0x8F DUP3 ADD DUP5 GT ISZERO PUSH2 0x32DF JUMPI PUSH0 PUSH2 0x32AE DUP9 PUSH2 0x3C28 JUMP JUMPDEST SWAP1 POP PUSH2 0x100 DUP4 ADD DUP6 DUP3 ADD GT ISZERO PUSH2 0x32C7 JUMPI PUSH2 0x32C6 PUSH2 0x41B2 JUMP JUMPDEST JUMPDEST PUSH1 0x8F DUP5 SWAP1 SHL SWAP4 POP PUSH1 0x8F DUP4 DUP7 SUB SUB DUP9 SWAP1 SHL SWAP8 POP POP PUSH2 0x335E JUMP JUMPDEST DUP2 DUP5 GT ISZERO PUSH2 0x32F4 JUMPI DUP2 DUP5 SUB DUP4 SWAP1 SHL SWAP3 POP PUSH2 0x335D JUMP JUMPDEST DUP2 PUSH1 0x8F DUP6 ADD LT ISZERO PUSH2 0x334B JUMPI PUSH0 PUSH2 0x3309 DUP9 PUSH2 0x3C28 JUMP JUMPDEST SWAP1 POP DUP3 PUSH1 0x1 DUP7 DUP4 ADD ADD LT ISZERO PUSH2 0x3325 JUMPI PUSH0 SWAP6 POP POP POP POP POP POP PUSH2 0x3370 JUMP JUMPDEST PUSH1 0x8F DUP3 SWAP1 SHL SWAP2 POP PUSH1 0x8F DUP6 DUP5 SUB SUB PUSH2 0x333D DUP6 DUP11 DUP6 PUSH2 0x3D0B JUMP JUMPDEST SWAP1 SHR SWAP6 POP POP POP POP POP POP PUSH2 0x3370 JUMP JUMPDEST DUP2 DUP5 LT ISZERO PUSH2 0x335C JUMPI DUP4 DUP3 SUB DUP2 SWAP1 SHL SWAP1 POP JUMPDEST JUMPDEST JUMPDEST PUSH2 0x3369 DUP4 DUP9 DUP4 PUSH2 0x3D0B JUMP JUMPDEST SWAP5 POP POP POP POP POP JUMPDEST SWAP4 SWAP3 POP POP POP JUMP JUMPDEST PUSH0 DUP1 PUSH2 0x3383 DUP6 DUP6 PUSH2 0x287E JUMP JUMPDEST PUSH0 SIGNEXTEND SLT ISZERO PUSH2 0x338F JUMPI PUSH0 DUP1 REVERT JUMPDEST PUSH0 PUSH1 0x70 DUP6 PUSH1 0x80 SHR PUSH16 0xFFFFFFFFFFFFFFFFFFFFFFFFFFFFFFFF AND SWAP1 SHR PUSH16 0xFFFFFFFFFFFFFFFFFFFFFFFFFFFFFFFF AND SWAP1 POP PUSH0 PUSH1 0x70 DUP6 PUSH1 0x80 SHR PUSH16 0xFFFFFFFFFFFFFFFFFFFFFFFFFFFFFFFF AND SWAP1 SHR PUSH16 0xFFFFFFFFFFFFFFFFFFFFFFFFFFFFFFFF AND SWAP1 POP PUSH2 0x7FFF DUP3 LT DUP1 ISZERO PUSH2 0x33FF JUMPI POP PUSH2 0x7FFF DUP2 LT JUMPDEST PUSH2 0x340C JUMPI PUSH2 0x340B PUSH2 0x41B2 JUMP JUMPDEST JUMPDEST PUSH0 PUSH15 0x10000000000000000000000000000 PUSH14 0xFFFFFFFFFFFFFFFFFFFFFFFFFFFF DUP9 PUSH1 0x80 SHR AND OR PUSH16 0xFFFFFFFFFFFFFFFFFFFFFFFFFFFFFFFF AND SWAP1 POP PUSH0 PUSH15 0x10000000000000000000000000000 PUSH14 0xFFFFFFFFFFFFFFFFFFFFFFFFFFFF DUP9 PUSH1 0x80 SHR AND OR PUSH16 0xFFFFFFFFFFFFFFFFFFFFFFFFFFFFFFFF AND SWAP1 POP PUSH0 PUSH1 0x80 SHL PUSH16 0xFFFFFFFFFFFFFFFFFFFFFFFFFFFFFFFF NOT AND DUP8 PUSH16 0xFFFFFFFFFFFFFFFFFFFFFFFFFFFFFFFF NOT AND SUB PUSH2 0x34BC JUMPI DUP8 SWAP5 POP POP POP POP POP PUSH2 0x36CA JUMP JUMPDEST PUSH0 PUSH1 0x80 SHL PUSH16 0xFFFFFFFFFFFFFFFFFFFFFFFFFFFFFFFF NOT AND DUP9 PUSH16 0xFFFFFFFFFFFFFFFFFFFFFFFFFFFFFFFF NOT AND SUB PUSH2 0x3527 JUMPI PUSH1 0x40 MLOAD PUSH32 0x8C379A000000000000000000000000000000000000000000000000000000000 DUP2 MSTORE PUSH1 0x4 ADD PUSH2 0x351E SWAP1 PUSH2 0x4266 JUMP JUMPDEST PUSH1 0x40 MLOAD DUP1 SWAP2 SUB SWAP1 REVERT JUMPDEST PUSH0 DUP5 GT DUP1 ISZERO PUSH2 0x3535 JUMPI POP PUSH0 DUP4 GT JUMPDEST PUSH2 0x3542 JUMPI PUSH2 0x3541 PUSH2 0x41B2 JUMP JUMPDEST JUMPDEST PUSH0 DUP4 DUP6 SUB SWAP1 POP DUP7 ISZERO PUSH2 0x3578 JUMPI PUSH1 0x70 DUP2 GT ISZERO PUSH2 0x3564 JUMPI DUP9 SWAP6 POP POP POP POP POP POP PUSH2 0x36CA JUMP JUMPDEST PUSH0 DUP2 GT ISZERO PUSH2 0x3573 JUMPI DUP1 DUP3 SWAP1 SHR SWAP2 POP JUMPDEST PUSH2 0x35BA JUMP JUMPDEST PUSH0 DUP2 GT ISZERO PUSH2 0x358E JUMPI PUSH1 0x1 DUP4 SWAP1 SHL SWAP3 POP PUSH1 0x1 DUP6 SUB SWAP5 POP JUMPDEST PUSH1 0x70 DUP2 GT ISZERO PUSH2 0x35A0 JUMPI PUSH1 0x1 SWAP2 POP PUSH2 0x35B9 JUMP JUMPDEST PUSH1 0x1 DUP2 GT ISZERO PUSH2 0x35B8 JUMPI PUSH1 0x1 DUP1 DUP3 SUB PUSH1 0x1 DUP5 SUB SWAP1 SHR ADD SWAP2 POP JUMPDEST JUMPDEST JUMPDEST DUP2 DUP4 SUB SWAP3 POP PUSH0 DUP4 SUB PUSH2 0x35D6 JUMPI PUSH0 PUSH1 0x80 SHL SWAP6 POP POP POP POP POP POP PUSH2 0x36CA JUMP JUMPDEST PUSH0 PUSH2 0x35E0 DUP5 PUSH2 0x3C28 JUMP JUMPDEST SWAP1 POP DUP8 ISZERO DUP1 ISZERO PUSH2 0x35F0 JUMPI POP PUSH1 0x71 DUP2 EQ JUMPDEST ISZERO PUSH2 0x3617 JUMPI PUSH14 0xFFFFFFFFFFFFFFFFFFFFFFFFFFFF PUSH1 0x1 DUP6 SWAP1 SHR AND SWAP4 POP PUSH1 0x1 DUP7 ADD SWAP6 POP PUSH2 0x36A5 JUMP JUMPDEST PUSH1 0x70 DUP2 LT ISZERO PUSH2 0x3690 JUMPI PUSH0 DUP2 PUSH1 0x70 SUB SWAP1 POP DUP1 DUP8 GT ISZERO PUSH2 0x364F JUMPI PUSH14 0xFFFFFFFFFFFFFFFFFFFFFFFFFFFF DUP2 DUP7 SWAP1 SHL AND SWAP5 POP DUP1 DUP8 SUB SWAP7 POP PUSH2 0x368A JUMP JUMPDEST PUSH1 0x40 MLOAD PUSH32 0x8C379A000000000000000000000000000000000000000000000000000000000 DUP2 MSTORE PUSH1 0x4 ADD PUSH2 0x3681 SWAP1 PUSH2 0x4266 JUMP JUMPDEST PUSH1 0x40 MLOAD DUP1 SWAP2 SUB SWAP1 REVERT JUMPDEST POP PUSH2 0x36A4 JUMP JUMPDEST PUSH14 0xFFFFFFFFFFFFFFFFFFFFFFFFFFFF DUP5 AND SWAP4 POP JUMPDEST JUMPDEST PUSH2 0x7FFF DUP7 SUB PUSH2 0x36B7 JUMPI PUSH2 0x36B6 PUSH2 0x41B2 JUMP JUMPDEST JUMPDEST DUP4 PUSH1 0x70 DUP8 SWAP1 SHL OR PUSH1 0x80 SHL SWAP7 POP POP POP POP POP POP POP JUMPDEST SWAP4 SWAP3 POP POP POP JUMP JUMPDEST PUSH0 DUP1 DUP4 SUB PUSH2 0x36E2 JUMPI PUSH2 0x36E1 PUSH2 0x41B2 JUMP JUMPDEST JUMPDEST PUSH0 PUSH1 0x70 DUP7 PUSH1 0x80 SHR PUSH16 0xFFFFFFFFFFFFFFFFFFFFFFFFFFFFFFFF AND SWAP1 SHR PUSH1 0xF SIGNEXTEND SWAP1 POP PUSH2 0x7FFF DUP2 SLT PUSH2 0x3714 JUMPI PUSH2 0x3713 PUSH2 0x41B2 JUMP JUMPDEST JUMPDEST PUSH0 PUSH1 0x80 SHL PUSH16 0xFFFFFFFFFFFFFFFFFFFFFFFFFFFFFFFF NOT AND DUP7 PUSH16 0xFFFFFFFFFFFFFFFFFFFFFFFFFFFFFFFF NOT AND EQ DUP1 PUSH2 0x374A JUMPI POP PUSH0 DUP6 EQ JUMPDEST ISZERO PUSH2 0x375B JUMPI PUSH0 PUSH1 0x80 SHL SWAP2 POP POP PUSH2 0x3911 JUMP JUMPDEST PUSH0 DUP2 SGT PUSH2 0x376B JUMPI PUSH2 0x376A PUSH2 0x41B2 JUMP JUMPDEST JUMPDEST PUSH0 PUSH15 0x10000000000000000000000000000 PUSH14 0xFFFFFFFFFFFFFFFFFFFFFFFFFFFF DUP9 PUSH1 0x80 SHR AND OR PUSH16 0xFFFFFFFFFFFFFFFFFFFFFFFFFFFFFFFF AND SWAP1 POP PUSH0 PUSH2 0x37AF DUP8 PUSH2 0x3C28 JUMP JUMPDEST SWAP1 POP PUSH0 PUSH2 0x37BB DUP8 PUSH2 0x3C28 JUMP JUMPDEST SWAP1 POP DUP1 DUP3 SGT PUSH2 0x37E2 JUMPI PUSH1 0x1 DUP4 SWAP1 SHL SWAP3 POP DUP2 DUP2 SUB DUP9 SWAP1 SHL SWAP8 POP PUSH1 0x1 DUP2 DUP4 SUB SUB DUP5 ADD SWAP4 POP PUSH2 0x3804 JUMP JUMPDEST PUSH1 0x8D DUP2 ADD DUP3 SGT ISZERO PUSH2 0x3803 JUMPI PUSH0 PUSH1 0x8D DUP3 ADD DUP4 SUB SWAP1 POP DUP1 DUP10 SWAP1 SHR SWAP9 POP DUP1 DUP6 ADD SWAP5 POP POP JUMPDEST JUMPDEST DUP6 PUSH2 0x3819 JUMPI PUSH2 0x3814 DUP4 DUP10 DUP10 PUSH2 0x3D0B JUMP JUMPDEST PUSH2 0x3825 JUMP JUMPDEST PUSH2 0x3824 DUP4 DUP10 DUP10 PUSH2 0x3DFC JUMP JUMPDEST JUMPDEST SWAP3 POP PUSH0 DUP4 SUB PUSH2 0x383D JUMPI PUSH0 PUSH1 0x80 SHL SWAP5 POP POP POP POP POP PUSH2 0x3911 JUMP JUMPDEST PUSH0 PUSH2 0x3847 DUP5 PUSH2 0x3C28 JUMP JUMPDEST SWAP1 POP PUSH1 0x70 DUP2 DUP7 ADD SGT PUSH2 0x3863 JUMPI PUSH0 PUSH1 0x80 SHL SWAP6 POP POP POP POP POP POP PUSH2 0x3911 JUMP JUMPDEST PUSH1 0x70 DUP2 SGT ISZERO PUSH2 0x38BB JUMPI DUP7 ISZERO PUSH2 0x38AC JUMPI PUSH1 0x1 PUSH1 0x70 DUP3 SUB PUSH1 0x1 DUP7 SUB SWAP1 SHR ADD SWAP4 POP PUSH15 0x20000000000000000000000000000 DUP5 LT PUSH2 0x38A7 JUMPI PUSH1 0x1 DUP5 SWAP1 SHR SWAP4 POP DUP5 DUP1 PUSH1 0x1 ADD SWAP6 POP POP JUMPDEST PUSH2 0x38B6 JUMP JUMPDEST PUSH1 0x70 DUP2 SUB DUP5 SWAP1 SHR SWAP4 POP JUMPDEST PUSH2 0x38CF JUMP JUMPDEST PUSH1 0x70 DUP2 SLT ISZERO PUSH2 0x38CE JUMPI DUP1 PUSH1 0x70 SUB DUP5 SWAP1 SHL SWAP4 POP JUMPDEST JUMPDEST PUSH2 0x806E DUP2 DUP7 ADD SGT ISZERO PUSH2 0x38E4 JUMPI PUSH2 0x38E3 PUSH2 0x41B2 JUMP JUMPDEST JUMPDEST PUSH14 0xFFFFFFFFFFFFFFFFFFFFFFFFFFFF DUP5 AND SWAP4 POP PUSH1 0x70 DUP2 SUB DUP6 ADD SWAP5 POP DUP4 PUSH1 0x70 DUP7 SWAP1 SHL OR PUSH1 0x80 SHL SWAP6 POP POP POP POP POP POP JUMPDEST SWAP5 SWAP4 POP POP POP POP JUMP JUMPDEST PUSH0 DUP1 PUSH2 0x3924 DUP5 PUSH2 0x3C28 JUMP JUMPDEST SWAP1 POP PUSH1 0x70 DUP2 LT ISZERO PUSH2 0x393D JUMPI DUP1 PUSH1 0x70 SUB DUP5 SWAP1 SHL SWAP4 POP PUSH2 0x398B JUMP JUMPDEST PUSH1 0x70 DUP2 GT ISZERO PUSH2 0x398A JUMPI DUP3 ISZERO PUSH2 0x397F JUMPI PUSH1 0x1 PUSH1 0x70 DUP3 SUB PUSH1 0x1 DUP7 SUB SWAP1 SHR ADD SWAP4 POP PUSH15 0x20000000000000000000000000000 DUP5 SUB PUSH2 0x397A JUMPI DUP1 DUP1 PUSH1 0x1 ADD SWAP2 POP POP JUMPDEST PUSH2 0x3989 JUMP JUMPDEST PUSH1 0x70 DUP2 SUB DUP5 SWAP1 SHR SWAP4 POP JUMPDEST JUMPDEST JUMPDEST PUSH1 0x70 DUP2 PUSH2 0x3FFF ADD SWAP1 SHL PUSH14 0xFFFFFFFFFFFFFFFFFFFFFFFFFFFF DUP6 AND OR SWAP2 POP POP SWAP3 SWAP2 POP POP JUMP JUMPDEST PUSH0 PUSH16 0x3FFF0000000000000000000000000000 PUSH1 0x80 SHL PUSH16 0xFFFFFFFFFFFFFFFFFFFFFFFFFFFFFFFF NOT AND DUP3 PUSH16 0xFFFFFFFFFFFFFFFFFFFFFFFFFFFFFFFF NOT AND SUB PUSH2 0x39FB JUMPI PUSH0 PUSH1 0x80 SHL SWAP1 POP PUSH2 0x3C23 JUMP JUMPDEST PUSH0 PUSH1 0x80 SHL PUSH16 0xFFFFFFFFFFFFFFFFFFFFFFFFFFFFFFFF NOT AND DUP3 PUSH16 0xFFFFFFFFFFFFFFFFFFFFFFFFFFFFFFFF NOT AND SUB PUSH2 0x3A46 JUMPI PUSH16 0xC00CFFF8000000000000000000000000 PUSH1 0x80 SHL SWAP1 POP PUSH2 0x3C23 JUMP JUMPDEST PUSH0 PUSH1 0x70 DUP4 PUSH1 0x80 SHR PUSH16 0xFFFFFFFFFFFFFFFFFFFFFFFFFFFFFFFF AND SWAP1 SHR PUSH16 0xFFFFFFFFFFFFFFFFFFFFFFFFFFFFFFFF AND SWAP1 POP PUSH16 0x3FFF0000000000000000000000000000 DUP4 PUSH1 0x80 SHR PUSH16 0xFFFFFFFFFFFFFFFFFFFFFFFFFFFFFFFF AND GT ISZERO PUSH2 0x3AAB JUMPI PUSH2 0x3AAA PUSH2 0x41B2 JUMP JUMPDEST JUMPDEST PUSH0 DUP2 GT PUSH2 0x3ABB JUMPI PUSH2 0x3ABA PUSH2 0x41B2 JUMP JUMPDEST JUMPDEST PUSH0 PUSH15 0x10000000000000000000000000000 PUSH14 0xFFFFFFFFFFFFFFFFFFFFFFFFFFFF DUP6 PUSH1 0x80 SHR AND PUSH16 0xFFFFFFFFFFFFFFFFFFFFFFFFFFFFFFFF AND OR SWAP1 POP PUSH0 DUP1 PUSH2 0x406F SWAP1 POP PUSH0 PUSH2 0x3FFF DUP6 LT PUSH2 0x3B1C JUMPI PUSH0 SWAP3 POP PUSH2 0x3FFF DUP6 SUB SWAP1 POP PUSH1 0xF DUP5 SWAP1 SHL SWAP4 POP PUSH2 0x3B2F JUMP JUMPDEST PUSH1 0x1 SWAP3 POP DUP5 PUSH2 0x3FFE SUB SWAP1 POP PUSH1 0xF DUP5 SWAP1 SHL SWAP4 POP JUMPDEST PUSH16 0x80000000000000000000000000000000 DUP5 SUB PUSH2 0x3B73 JUMPI DUP3 ISZERO PUSH2 0x3B53 JUMPI PUSH1 0x1 DUP2 ADD SWAP1 POP JUMPDEST PUSH0 PUSH2 0x3B5D DUP3 PUSH2 0x3C28 JUMP JUMPDEST PUSH1 0x70 SUB SWAP1 POP DUP1 DUP3 SWAP1 SHL SWAP2 POP DUP1 DUP4 SUB SWAP3 POP POP PUSH2 0x3BD1 JUMP JUMPDEST PUSH0 DUP4 PUSH2 0x3B7F JUMPI PUSH0 PUSH2 0x3B82 JUMP JUMPDEST PUSH1 0x1 JUMPDEST PUSH1 0xFF AND SWAP1 POP JUMPDEST PUSH15 0x10000000000000000000000000000 DUP3 LT ISZERO PUSH2 0x3BCF JUMPI PUSH1 0x1 DUP3 SWAP1 SHL SWAP2 POP PUSH1 0x1 DUP4 SUB SWAP3 POP DUP5 DUP6 MUL SWAP5 POP PUSH0 PUSH1 0xFF DUP7 SWAP1 SHR SWAP1 POP DUP2 DUP2 XOR DUP4 ADD SWAP3 POP DUP1 PUSH1 0x7F ADD DUP7 SWAP1 SHR SWAP6 POP POP PUSH2 0x3B88 JUMP JUMPDEST POP JUMPDEST PUSH14 0xFFFFFFFFFFFFFFFFFFFFFFFFFFFF DUP2 AND PUSH1 0x70 DUP4 SWAP1 SHL DUP5 PUSH2 0x3BF2 JUMPI PUSH0 PUSH2 0x3C04 JUMP JUMPDEST PUSH16 0x80000000000000000000000000000000 JUMPDEST PUSH16 0xFFFFFFFFFFFFFFFFFFFFFFFFFFFFFFFF AND OR OR PUSH1 0x80 SHL SWAP6 POP POP POP POP POP POP JUMPDEST SWAP2 SWAP1 POP JUMP JUMPDEST PUSH0 DUP1 DUP3 GT PUSH2 0x3C39 JUMPI PUSH2 0x3C38 PUSH2 0x41B2 JUMP JUMPDEST JUMPDEST PUSH0 PUSH17 0x100000000000000000000000000000000 DUP4 LT PUSH2 0x3C60 JUMPI PUSH1 0x80 DUP4 SWAP1 SHR SWAP3 POP PUSH1 0x80 DUP2 ADD SWAP1 POP JUMPDEST PUSH9 0x10000000000000000 DUP4 LT PUSH2 0x3C7E JUMPI PUSH1 0x40 DUP4 SWAP1 SHR SWAP3 POP PUSH1 0x40 DUP2 ADD SWAP1 POP JUMPDEST PUSH5 0x100000000 DUP4 LT PUSH2 0x3C98 JUMPI PUSH1 0x20 DUP4 SWAP1 SHR SWAP3 POP PUSH1 0x20 DUP2 ADD SWAP1 POP JUMPDEST PUSH3 0x10000 DUP4 LT PUSH2 0x3CB0 JUMPI PUSH1 0x10 DUP4 SWAP1 SHR SWAP3 POP PUSH1 0x10 DUP2 ADD SWAP1 POP JUMPDEST PUSH2 0x100 DUP4 LT PUSH2 0x3CC7 JUMPI PUSH1 0x8 DUP4 SWAP1 SHR SWAP3 POP PUSH1 0x8 DUP2 ADD SWAP1 POP JUMPDEST PUSH1 0x10 DUP4 LT PUSH2 0x3CDD JUMPI PUSH1 0x4 DUP4 SWAP1 SHR SWAP3 POP PUSH1 0x4 DUP2 ADD SWAP1 POP JUMPDEST PUSH1 0x4 DUP4 LT PUSH2 0x3CF3 JUMPI PUSH1 0x2 DUP4 SWAP1 SHR SWAP3 POP PUSH1 0x2 DUP2 ADD SWAP1 POP JUMPDEST PUSH1 0x2 DUP4 LT PUSH2 0x3D02 JUMPI PUSH1 0x1 DUP2 ADD SWAP1 POP JUMPDEST DUP1 SWAP2 POP POP SWAP2 SWAP1 POP JUMP JUMPDEST PUSH0 DUP1 PUSH0 DUP1 NOT DUP6 DUP8 MULMOD DUP6 DUP8 MUL SWAP3 POP DUP3 DUP2 LT DUP4 DUP3 SUB SUB SWAP2 POP POP PUSH0 DUP2 SUB PUSH2 0x3D40 JUMPI PUSH0 DUP5 GT PUSH2 0x3D34 JUMPI PUSH0 DUP1 REVERT JUMPDEST DUP4 DUP3 DIV SWAP3 POP POP POP PUSH2 0x3DF5 JUMP JUMPDEST DUP1 DUP5 GT PUSH2 0x3D4B JUMPI PUSH0 DUP1 REVERT JUMPDEST PUSH0 DUP5 DUP7 DUP9 MULMOD SWAP1 POP DUP3 DUP2 GT DUP3 SUB SWAP2 POP DUP1 DUP4 SUB SWAP3 POP PUSH0 DUP6 PUSH1 0x1 DUP8 PUSH32 0xFFFFFFFFFFFFFFFFFFFFFFFFFFFFFFFFFFFFFFFFFFFFFFFFFFFFFFFFFFFFFFFF SUB ADD AND SWAP1 POP DUP1 DUP7 DIV SWAP6 POP DUP1 DUP5 DIV SWAP4 POP PUSH1 0x1 DUP2 DUP3 PUSH0 SUB DIV ADD SWAP1 POP DUP1 DUP4 MUL DUP5 OR SWAP4 POP PUSH0 PUSH1 0x2 DUP8 PUSH1 0x3 MUL XOR SWAP1 POP DUP1 DUP8 MUL PUSH1 0x2 SUB DUP2 MUL SWAP1 POP DUP1 DUP8 MUL PUSH1 0x2 SUB DUP2 MUL SWAP1 POP DUP1 DUP8 MUL PUSH1 0x2 SUB DUP2 MUL SWAP1 POP DUP1 DUP8 MUL PUSH1 0x2 SUB DUP2 MUL SWAP1 POP DUP1 DUP8 MUL PUSH1 0x2 SUB DUP2 MUL SWAP1 POP DUP1 DUP8 MUL PUSH1 0x2 SUB DUP2 MUL SWAP1 POP DUP1 DUP6 MUL SWAP6 POP POP POP POP POP POP JUMPDEST SWAP4 SWAP3 POP POP POP JUMP JUMPDEST PUSH0 PUSH2 0x3E08 DUP5 DUP5 DUP5 PUSH2 0x3D0B JUMP JUMPDEST SWAP1 POP PUSH0 DUP3 DUP1 PUSH2 0x3E1A JUMPI PUSH2 0x3E19 PUSH2 0x41DF JUMP JUMPDEST JUMPDEST DUP5 DUP7 MULMOD GT ISZERO PUSH2 0x3E5D JUMPI PUSH32 0xFFFFFFFFFFFFFFFFFFFFFFFFFFFFFFFFFFFFFFFFFFFFFFFFFFFFFFFFFFFFFFFF DUP2 LT PUSH2 0x3E4E JUMPI PUSH0 DUP1 REVERT JUMPDEST DUP1 DUP1 PUSH2 0x3E59 SWAP1 PUSH2 0x42B1 JUMP JUMPDEST SWAP2 POP POP JUMPDEST SWAP4 SWAP3 POP POP POP JUMP JUMPDEST PUSH0 DUP1 REVERT JUMPDEST PUSH0 PUSH32 0xFFFFFFFFFFFFFFFFFFFFFFFFFFFFFFFF00000000000000000000000000000000 DUP3 AND SWAP1 POP SWAP2 SWAP1 POP JUMP JUMPDEST PUSH2 0x3E9C DUP2 PUSH2 0x3E68 JUMP JUMPDEST DUP2 EQ PUSH2 0x3EA6 JUMPI PUSH0 DUP1 REVERT JUMPDEST POP JUMP JUMPDEST PUSH0 DUP2 CALLDATALOAD SWAP1 POP PUSH2 0x3EB7 DUP2 PUSH2 0x3E93 JUMP JUMPDEST SWAP3 SWAP2 POP POP JUMP JUMPDEST PUSH0 DUP1 PUSH1 0x40 DUP4 DUP6 SUB SLT ISZERO PUSH2 0x3ED3 JUMPI PUSH2 0x3ED2 PUSH2 0x3E64 JUMP JUMPDEST JUMPDEST PUSH0 PUSH2 0x3EE0 DUP6 DUP3 DUP7 ADD PUSH2 0x3EA9 JUMP JUMPDEST SWAP3 POP POP PUSH1 0x20 PUSH2 0x3EF1 DUP6 DUP3 DUP7 ADD PUSH2 0x3EA9 JUMP JUMPDEST SWAP2 POP POP SWAP3 POP SWAP3 SWAP1 POP JUMP JUMPDEST PUSH2 0x3F04 DUP2 PUSH2 0x3E68 JUMP JUMPDEST DUP3 MSTORE POP POP JUMP JUMPDEST PUSH0 PUSH1 0x20 DUP3 ADD SWAP1 POP PUSH2 0x3F1D PUSH0 DUP4 ADD DUP5 PUSH2 0x3EFB JUMP JUMPDEST SWAP3 SWAP2 POP POP JUMP JUMPDEST PUSH0 PUSH1 0x20 DUP3 DUP5 SUB SLT ISZERO PUSH2 0x3F38 JUMPI PUSH2 0x3F37 PUSH2 0x3E64 JUMP JUMPDEST JUMPDEST PUSH0 PUSH2 0x3F45 DUP5 DUP3 DUP6 ADD PUSH2 0x3EA9 JUMP JUMPDEST SWAP2 POP POP SWAP3 SWAP2 POP POP JUMP JUMPDEST PUSH0 DUP2 PUSH0 SIGNEXTEND SWAP1 POP SWAP2 SWAP1 POP JUMP JUMPDEST PUSH2 0x3F62 DUP2 PUSH2 0x3F4E JUMP JUMPDEST DUP3 MSTORE POP POP JUMP JUMPDEST PUSH0 PUSH1 0x20 DUP3 ADD SWAP1 POP PUSH2 0x3F7B PUSH0 DUP4 ADD DUP5 PUSH2 0x3F59 JUMP JUMPDEST SWAP3 SWAP2 POP POP JUMP JUMPDEST PUSH0 DUP2 SWAP1 POP SWAP2 SWAP1 POP JUMP JUMPDEST PUSH2 0x3F93 DUP2 PUSH2 0x3F81 JUMP JUMPDEST DUP2 EQ PUSH2 0x3F9D JUMPI PUSH0 DUP1 REVERT JUMPDEST POP JUMP JUMPDEST PUSH0 DUP2 CALLDATALOAD SWAP1 POP PUSH2 0x3FAE DUP2 PUSH2 0x3F8A JUMP JUMPDEST SWAP3 SWAP2 POP POP JUMP JUMPDEST PUSH0 DUP1 PUSH0 PUSH1 0x60 DUP5 DUP7 SUB SLT ISZERO PUSH2 0x3FCB JUMPI PUSH2 0x3FCA PUSH2 0x3E64 JUMP JUMPDEST JUMPDEST PUSH0 PUSH2 0x3FD8 DUP7 DUP3 DUP8 ADD PUSH2 0x3EA9 JUMP JUMPDEST SWAP4 POP POP PUSH1 0x20 PUSH2 0x3FE9 DUP7 DUP3 DUP8 ADD PUSH2 0x3FA0 JUMP JUMPDEST SWAP3 POP POP PUSH1 0x40 PUSH2 0x3FFA DUP7 DUP3 DUP8 ADD PUSH2 0x3EA9 JUMP JUMPDEST SWAP2 POP POP SWAP3 POP SWAP3 POP SWAP3 JUMP JUMPDEST PUSH2 0x400D DUP2 PUSH2 0x3F81 JUMP JUMPDEST DUP3 MSTORE POP POP JUMP JUMPDEST PUSH0 PUSH1 0x20 DUP3 ADD SWAP1 POP PUSH2 0x4026 PUSH0 DUP4 ADD DUP5 PUSH2 0x4004 JUMP JUMPDEST SWAP3 SWAP2 POP POP JUMP JUMPDEST PUSH0 DUP2 SWAP1 POP SWAP2 SWAP1 POP JUMP JUMPDEST PUSH2 0x403E DUP2 PUSH2 0x402C JUMP JUMPDEST DUP3 MSTORE POP POP JUMP JUMPDEST PUSH0 PUSH1 0x20 DUP3 ADD SWAP1 POP PUSH2 0x4057 PUSH0 DUP4 ADD DUP5 PUSH2 0x4035 JUMP JUMPDEST SWAP3 SWAP2 POP POP JUMP JUMPDEST PUSH0 DUP1 PUSH0 PUSH1 0x60 DUP5 DUP7 SUB SLT ISZERO PUSH2 0x4074 JUMPI PUSH2 0x4073 PUSH2 0x3E64 JUMP JUMPDEST JUMPDEST PUSH0 PUSH2 0x4081 DUP7 DUP3 DUP8 ADD PUSH2 0x3EA9 JUMP JUMPDEST SWAP4 POP POP PUSH1 0x20 PUSH2 0x4092 DUP7 DUP3 DUP8 ADD PUSH2 0x3FA0 JUMP JUMPDEST SWAP3 POP POP PUSH1 0x40 PUSH2 0x40A3 DUP7 DUP3 DUP8 ADD PUSH2 0x3FA0 JUMP JUMPDEST SWAP2 POP POP SWAP3 POP SWAP3 POP SWAP3 JUMP JUMPDEST PUSH0 PUSH1 0x20 DUP3 DUP5 SUB SLT ISZERO PUSH2 0x40C2 JUMPI PUSH2 0x40C1 PUSH2 0x3E64 JUMP JUMPDEST JUMPDEST PUSH0 PUSH2 0x40CF DUP5 DUP3 DUP6 ADD PUSH2 0x3FA0 JUMP JUMPDEST SWAP2 POP POP SWAP3 SWAP2 POP POP JUMP JUMPDEST PUSH0 DUP1 PUSH1 0x40 DUP4 DUP6 SUB SLT ISZERO PUSH2 0x40EE JUMPI PUSH2 0x40ED PUSH2 0x3E64 JUMP JUMPDEST JUMPDEST PUSH0 PUSH2 0x40FB DUP6 DUP3 DUP7 ADD PUSH2 0x3FA0 JUMP JUMPDEST SWAP3 POP POP PUSH1 0x20 PUSH2 0x410C DUP6 DUP3 DUP7 ADD PUSH2 0x3FA0 JUMP JUMPDEST SWAP2 POP POP SWAP3 POP SWAP3 SWAP1 POP JUMP JUMPDEST PUSH0 DUP1 PUSH1 0x40 DUP4 DUP6 SUB SLT ISZERO PUSH2 0x412C JUMPI PUSH2 0x412B PUSH2 0x3E64 JUMP JUMPDEST JUMPDEST PUSH0 PUSH2 0x4139 DUP6 DUP3 DUP7 ADD PUSH2 0x3EA9 JUMP JUMPDEST SWAP3 POP POP PUSH1 0x20 PUSH2 0x414A DUP6 DUP3 DUP7 ADD PUSH2 0x3FA0 JUMP JUMPDEST SWAP2 POP POP SWAP3 POP SWAP3 SWAP1 POP JUMP JUMPDEST PUSH0 DUP2 SWAP1 POP SWAP2 SWAP1 POP JUMP JUMPDEST PUSH2 0x4166 DUP2 PUSH2 0x4154 JUMP JUMPDEST DUP2 EQ PUSH2 0x4170 JUMPI PUSH0 DUP1 REVERT JUMPDEST POP JUMP JUMPDEST PUSH0 DUP2 CALLDATALOAD SWAP1 POP PUSH2 0x4181 DUP2 PUSH2 0x415D JUMP JUMPDEST SWAP3 SWAP2 POP POP JUMP JUMPDEST PUSH0 PUSH1 0x20 DUP3 DUP5 SUB SLT ISZERO PUSH2 0x419C JUMPI PUSH2 0x419B PUSH2 0x3E64 JUMP JUMPDEST JUMPDEST PUSH0 PUSH2 0x41A9 DUP5 DUP3 DUP6 ADD PUSH2 0x4173 JUMP JUMPDEST SWAP2 POP POP SWAP3 SWAP2 POP POP JUMP JUMPDEST PUSH32 0x4E487B7100000000000000000000000000000000000000000000000000000000 PUSH0 MSTORE PUSH1 0x1 PUSH1 0x4 MSTORE PUSH1 0x24 PUSH0 REVERT JUMPDEST PUSH32 0x4E487B7100000000000000000000000000000000000000000000000000000000 PUSH0 MSTORE PUSH1 0x12 PUSH1 0x4 MSTORE PUSH1 0x24 PUSH0 REVERT JUMPDEST PUSH0 DUP3 DUP3 MSTORE PUSH1 0x20 DUP3 ADD SWAP1 POP SWAP3 SWAP2 POP POP JUMP JUMPDEST PUSH32 0x5546000000000000000000000000000000000000000000000000000000000000 PUSH0 DUP3 ADD MSTORE POP JUMP JUMPDEST PUSH0 PUSH2 0x4250 PUSH1 0x2 DUP4 PUSH2 0x420C JUMP JUMPDEST SWAP2 POP PUSH2 0x425B DUP3 PUSH2 0x421C JUMP JUMPDEST PUSH1 0x20 DUP3 ADD SWAP1 POP SWAP2 SWAP1 POP JUMP JUMPDEST PUSH0 PUSH1 0x20 DUP3 ADD SWAP1 POP DUP2 DUP2 SUB PUSH0 DUP4 ADD MSTORE PUSH2 0x427D DUP2 PUSH2 0x4244 JUMP JUMPDEST SWAP1 POP SWAP2 SWAP1 POP JUMP JUMPDEST PUSH32 0x4E487B7100000000000000000000000000000000000000000000000000000000 PUSH0 MSTORE PUSH1 0x11 PUSH1 0x4 MSTORE PUSH1 0x24 PUSH0 REVERT JUMPDEST PUSH0 PUSH2 0x42BB DUP3 PUSH2 0x3F81 JUMP JUMPDEST SWAP2 POP PUSH32 0xFFFFFFFFFFFFFFFFFFFFFFFFFFFFFFFFFFFFFFFFFFFFFFFFFFFFFFFFFFFFFFFF DUP3 SUB PUSH2 0x42ED JUMPI PUSH2 0x42EC PUSH2 0x4284 JUMP JUMPDEST JUMPDEST PUSH1 0x1 DUP3 ADD SWAP1 POP SWAP2 SWAP1 POP JUMP INVALID LOG2 PUSH5 0x6970667358 0x22 SLT KECCAK256 SLT PUSH21 0xEA0F6D5633A876B4E040E11F0CD6BD946EAB979CBE 0xE9 0x5C 0x2E GAS PUSH4 0x2A89A024 PUSH5 0x736F6C6343 STOP ADDMOD EQ STOP CALLER "},"methodIdentifiers":{"$INFINITY()":"81de1c0d","$ONE()":"b3b59de2","$ZERO()":"b78f7d6a","$add(bytes16,bytes16)":"0aa7a858","$addUp(bytes16,bytes16)":"4d59b36b","$cmp(bytes16,bytes16)":"e9eb91b7","$dec(bytes16)":"542d1b5f","$div(bytes16,bytes16)":"c542f4ca","$divu(uint256,uint256)":"64eac401","$fromInt(int256)":"ee20353a","$fromUInt(uint256)":"51c47285","$fromUIntUp(uint256)":"6d0ba37b","$inc(bytes16)":"9a5f493e","$inv(bytes16)":"7bc30cdc","$mul(bytes16,bytes16)":"055a8779","$mulDiv(bytes16,uint256,bytes16)":"2d52b3a8","$mulDivu(bytes16,uint256,uint256)":"ec074bb6","$mulDivuUp(bytes16,uint256,uint256)":"4ef78a0f","$mulUp(bytes16,bytes16)":"065a03a3","$mulu(bytes16,uint256)":"9bb4240d","$pow(bytes16,bytes16)":"d75fa517","$pow_2(bytes16)":"8979a6b8","$sign(bytes16)":"1b513d42","$sub(bytes16,bytes16)":"7a23f3c3","$subUp(bytes16,bytes16)":"4a4e0c74","$toUInt(bytes16)":"75c0895a","__hh_exposed_bytecode_marker()":"342db739"}}}}}