{"abi":[{"type":"constructor","inputs":[],"stateMutability":"nonpayable"},{"type":"function","name":"DOMAIN_SEPARATOR","inputs":[],"outputs":[{"name":"","type":"bytes32","internalType":"bytes32"}],"stateMutability":"view"},{"type":"function","name":"allowance","inputs":[{"name":"","type":"address","internalType":"address"},{"name":"","type":"address","internalType":"address"}],"outputs":[{"name":"","type":"uint256","internalType":"uint256"}],"stateMutability":"view"},{"type":"function","name":"approve","inputs":[{"name":"spender","type":"address","internalType":"address"},{"name":"amount","type":"uint256","internalType":"uint256"}],"outputs":[{"name":"","type":"bool","internalType":"bool"}],"stateMutability":"nonpayable"},{"type":"function","name":"balanceOf","inputs":[{"name":"","type":"address","internalType":"address"}],"outputs":[{"name":"","type":"uint256","internalType":"uint256"}],"stateMutability":"view"},{"type":"function","name":"burn","inputs":[{"name":"from","type":"address","internalType":"address"},{"name":"baseFee","type":"uint16","internalType":"uint16"},{"name":"tax","type":"uint8","internalType":"uint8"},{"name":"reserves","type":"tuple","internalType":"struct SirStructs.Reserves","components":[{"name":"reserveApes","type":"uint144","internalType":"uint144"},{"name":"reserveLPers","type":"uint144","internalType":"uint144"},{"name":"tickPriceX42","type":"int64","internalType":"int64"}]},{"name":"amount","type":"uint256","internalType":"uint256"}],"outputs":[{"name":"newReserves","type":"tuple","internalType":"struct SirStructs.Reserves","components":[{"name":"reserveApes","type":"uint144","internalType":"uint144"},{"name":"reserveLPers","type":"uint144","internalType":"uint144"},{"name":"tickPriceX42","type":"int64","internalType":"int64"}]},{"name":"fees","type":"tuple","internalType":"struct SirStructs.Fees","components":[{"name":"collateralInOrWithdrawn","type":"uint144","internalType":"uint144"},{"name":"collateralFeeToStakers","type":"uint144","internalType":"uint144"},{"name":"collateralFeeToGentlemen","type":"uint144","internalType":"uint144"},{"name":"collateralFeeToProtocol","type":"uint144","internalType":"uint144"}]}],"stateMutability":"nonpayable"},{"type":"function","name":"collateralToken","inputs":[],"outputs":[{"name":"","type":"address","internalType":"address"}],"stateMutability":"view"},{"type":"function","name":"debtToken","inputs":[],"outputs":[{"name":"","type":"address","internalType":"address"}],"stateMutability":"view"},{"type":"function","name":"decimals","inputs":[],"outputs":[{"name":"","type":"uint8","internalType":"uint8"}],"stateMutability":"view"},{"type":"function","name":"initialize","inputs":[{"name":"name_","type":"string","internalType":"string"},{"name":"symbol_","type":"string","internalType":"string"},{"name":"decimals_","type":"uint8","internalType":"uint8"},{"name":"debtToken_","type":"address","internalType":"address"},{"name":"collateralToken_","type":"address","internalType":"address"}],"outputs":[],"stateMutability":"nonpayable"},{"type":"function","name":"leverageTier","inputs":[],"outputs":[{"name":"","type":"int8","internalType":"int8"}],"stateMutability":"pure"},{"type":"function","name":"mint","inputs":[{"name":"to","type":"address","internalType":"address"},{"name":"baseFee","type":"uint16","internalType":"uint16"},{"name":"tax","type":"uint8","internalType":"uint8"},{"name":"reserves","type":"tuple","internalType":"struct SirStructs.Reserves","components":[{"name":"reserveApes","type":"uint144","internalType":"uint144"},{"name":"reserveLPers","type":"uint144","internalType":"uint144"},{"name":"tickPriceX42","type":"int64","internalType":"int64"}]},{"name":"collateralDeposited","type":"uint144","internalType":"uint144"}],"outputs":[{"name":"newReserves","type":"tuple","internalType":"struct SirStructs.Reserves","components":[{"name":"reserveApes","type":"uint144","internalType":"uint144"},{"name":"reserveLPers","type":"uint144","internalType":"uint144"},{"name":"tickPriceX42","type":"int64","internalType":"int64"}]},{"name":"fees","type":"tuple","internalType":"struct SirStructs.Fees","components":[{"name":"collateralInOrWithdrawn","type":"uint144","internalType":"uint144"},{"name":"collateralFeeToStakers","type":"uint144","internalType":"uint144"},{"name":"collateralFeeToGentlemen","type":"uint144","internalType":"uint144"},{"name":"collateralFeeToProtocol","type":"uint144","internalType":"uint144"}]},{"name":"amount","type":"uint256","internalType":"uint256"}],"stateMutability":"nonpayable"},{"type":"function","name":"name","inputs":[],"outputs":[{"name":"","type":"string","internalType":"string"}],"stateMutability":"view"},{"type":"function","name":"nonces","inputs":[{"name":"","type":"address","internalType":"address"}],"outputs":[{"name":"","type":"uint256","internalType":"uint256"}],"stateMutability":"view"},{"type":"function","name":"permit","inputs":[{"name":"owner","type":"address","internalType":"address"},{"name":"spender","type":"address","internalType":"address"},{"name":"value","type":"uint256","internalType":"uint256"},{"name":"deadline","type":"uint256","internalType":"uint256"},{"name":"v","type":"uint8","internalType":"uint8"},{"name":"r","type":"bytes32","internalType":"bytes32"},{"name":"s","type":"bytes32","internalType":"bytes32"}],"outputs":[],"stateMutability":"nonpayable"},{"type":"function","name":"symbol","inputs":[],"outputs":[{"name":"","type":"string","internalType":"string"}],"stateMutability":"view"},{"type":"function","name":"totalSupply","inputs":[],"outputs":[{"name":"","type":"uint256","internalType":"uint256"}],"stateMutability":"view"},{"type":"function","name":"transfer","inputs":[{"name":"to","type":"address","internalType":"address"},{"name":"amount","type":"uint256","internalType":"uint256"}],"outputs":[{"name":"","type":"bool","internalType":"bool"}],"stateMutability":"nonpayable"},{"type":"function","name":"transferFrom","inputs":[{"name":"from","type":"address","internalType":"address"},{"name":"to","type":"address","internalType":"address"},{"name":"amount","type":"uint256","internalType":"uint256"}],"outputs":[{"name":"","type":"bool","internalType":"bool"}],"stateMutability":"nonpayable"},{"type":"event","name":"Approval","inputs":[{"name":"owner","type":"address","indexed":true,"internalType":"address"},{"name":"spender","type":"address","indexed":true,"internalType":"address"},{"name":"amount","type":"uint256","indexed":false,"internalType":"uint256"}],"anonymous":false},{"type":"event","name":"Transfer","inputs":[{"name":"from","type":"address","indexed":true,"internalType":"address"},{"name":"to","type":"address","indexed":true,"internalType":"address"},{"name":"amount","type":"uint256","indexed":false,"internalType":"uint256"}],"anonymous":false},{"type":"error","name":"InvalidSigner","inputs":[]},{"type":"error","name":"PermitDeadlineExpired","inputs":[]}],"bytecode":{"object":"0x60c060405234801561001057600080fd5b504660805261001d610025565b60a05261015e565b60007f8b73c3c69bb8fe3d512ecc4cf759cc79239f7b179b0ffacaa9a75d522b39400f600260405161005791906100bf565b6040805191829003822060208301939093528101919091527fc89efdaa54c0f20c7adf612882df0950f5a951637e0307cdcb4c672f298b8bc660608201524660808201523060a082015260c00160405160208183030381529060405280519060200120905090565b6000808354818160011c905060018216806100db57607f821691505b6020821081036100f957634e487b7160e01b84526022600452602484fd5b80801561010d576001811461012257610152565b60ff1984168752821515830287019450610152565b60008881526020902060005b8481101561014a5781548982015260019091019060200161012e565b505082870194505b50929695505050505050565b60805160a05161197361018360003960006105c50152600061059001526119736000f3fe608060405234801561001057600080fd5b50600436106101365760003560e01c80637ecebe00116100b2578063b2016bd411610081578063d505accf11610066578063d505accf146102e0578063dd62ed3e146102f3578063f8d898981461031e57600080fd5b8063b2016bd414610286578063c820f146146102cb57600080fd5b80637ecebe001461022a5780638c2684271461024a57806395d89b411461026b578063a9059cbb1461027357600080fd5b8063313ce567116101095780633e28fb8c116100ee5780633e28fb8c146101cd5780636bc601d7146101e857806370a082311461020a57600080fd5b8063313ce567146101a65780633644e515146101c557600080fd5b806306fdde031461013b578063095ea7b31461015957806318160ddd1461017c57806323b872dd14610193575b600080fd5b61014361033e565b6040516101509190611020565b60405180910390f35b61016c6101673660046110b5565b6103cc565b6040519015158152602001610150565b61018560055481565b604051908152602001610150565b61016c6101a13660046110df565b610446565b6004546101b39060ff1681565b60405160ff9091168152602001610150565b61018561058c565b6101d56105e7565b60405160009190910b8152602001610150565b6101fb6101f6366004611208565b6105f3565b6040516101509392919061126e565b61018561021836600461134b565b60066020526000908152604090205481565b61018561023836600461134b565b60086020526000908152604090205481565b61025d610258366004611366565b6107b6565b6040516101509291906113c3565b61014361093e565b61016c6102813660046110b5565b61094b565b6001546102a69073ffffffffffffffffffffffffffffffffffffffff1681565b60405173ffffffffffffffffffffffffffffffffffffffff9091168152602001610150565b6102de6102d936600461153e565b6109d0565b005b6102de6102ee3660046115cd565b610aa4565b610185610301366004611638565b600760209081526000928352604080842090915290825290205481565b6000546102a69073ffffffffffffffffffffffffffffffffffffffff1681565b6002805461034b9061166b565b80601f01602080910402602001604051908101604052809291908181526020018280546103779061166b565b80156103c45780601f10610399576101008083540402835291602001916103c4565b820191906000526020600020905b8154815290600101906020018083116103a757829003601f168201915b505050505081565b33600081815260076020908152604080832073ffffffffffffffffffffffffffffffffffffffff8716808552925280832085905551919290917f8c5be1e5ebec7d5bd14f71427d1e84f3dd0314c0f7b2291e5b200ac8c7c3b925906104349086815260200190565b60405180910390a35060015b92915050565b73ffffffffffffffffffffffffffffffffffffffff831660009081526007602090815260408083203384529091528120547fffffffffffffffffffffffffffffffffffffffffffffffffffffffffffffffff81146104da576104a883826116ed565b73ffffffffffffffffffffffffffffffffffffffff861660009081526007602090815260408083203384529091529020555b73ffffffffffffffffffffffffffffffffffffffff85166000908152600660205260408120805485929061050f9084906116ed565b909155505073ffffffffffffffffffffffffffffffffffffffff808516600081815260066020526040908190208054870190555190918716907fddf252ad1be2c89b69c2b068fc378daa952ba7f163c4a11628f55a4df523b3ef906105779087815260200190565b60405180910390a360019150505b9392505050565b60007f000000000000000000000000000000000000000000000000000000000000000046146105c2576105bd610d63565b905090565b507f000000000000000000000000000000000000000000000000000000000000000090565b60006105bd6000610dfd565b60408051606081018252600080825260208201819052918101919091526040805160808101825260008082526020820181905291810182905260608101919091526000806106416001610e40565b905073ffffffffffffffffffffffffffffffffffffffff8116331461066557600080fd5b60055461067e868a6106756105e7565b60000b8b610e83565b604081015160208901805190910171ffffffffffffffffffffffffffffffffffff169052935080156106ea576106e581856000015171ffffffffffffffffffffffffffffffffffff16896000015171ffffffffffffffffffffffffffffffffffff16610f54565b610704565b865184510171ffffffffffffffffffffffffffffffffffff165b73ffffffffffffffffffffffffffffffffffffffff8b166000908152600660205260409020805482019055845188510171ffffffffffffffffffffffffffffffffffff16885292506107568382611700565b60055560405183815273ffffffffffffffffffffffffffffffffffffffff8b16906000907fddf252ad1be2c89b69c2b068fc378daa952ba7f163c4a11628f55a4df523b3ef9060200160405180910390a350949891975095509350505050565b604080516060810182526000808252602082018190529181019190915260408051608081018252600080825260208201819052918101829052606081019190915260006108036001610e40565b905073ffffffffffffffffffffffffffffffffffffffff8116331461082757600080fd5b600554855160009061084e9071ffffffffffffffffffffffffffffffffffff168784610f54565b73ffffffffffffffffffffffffffffffffffffffff8b166000908152600660205260408120805492935088929091906108889084906116ed565b9091555050858203600555865181900371ffffffffffffffffffffffffffffffffffff16875260405186815260009073ffffffffffffffffffffffffffffffffffffffff8c16907fddf252ad1be2c89b69c2b068fc378daa952ba7f163c4a11628f55a4df523b3ef9060200160405180910390a3610909818a6106756105e7565b604081015160208901805190910171ffffffffffffffffffffffffffffffffffff169052969a96995095975050505050505050565b6003805461034b9061166b565b3360009081526006602052604081208054839190839061096c9084906116ed565b909155505073ffffffffffffffffffffffffffffffffffffffff8316600081815260066020526040908190208054850190555133907fddf252ad1be2c89b69c2b068fc378daa952ba7f163c4a11628f55a4df523b3ef906104349086815260200190565b60006109dc6001610e40565b905073ffffffffffffffffffffffffffffffffffffffff81163314610a0057600080fd5b6002610a0c8782611762565b506003610a198682611762565b5050600480547fffffffffffffffffffffffffffffffffffffffffffffffffffffffffffffff001660ff9490941693909317909255600080547fffffffffffffffffffffffff000000000000000000000000000000000000000090811673ffffffffffffffffffffffffffffffffffffffff9384161790915560018054909116919092161790555050565b42841015610ade576040517f05787bdf00000000000000000000000000000000000000000000000000000000815260040160405180910390fd5b60006001610aea61058c565b73ffffffffffffffffffffffffffffffffffffffff8a811660008181526008602090815260409182902080546001810190915582517f6e71edae12b1b97f4d1f60370fef10105fa2faae0126114a169c64845d6126c98184015280840194909452938d166060840152608083018c905260a083019390935260c08083018b90528151808403909101815260e0830190915280519201919091207f190100000000000000000000000000000000000000000000000000000000000061010083015261010282019290925261012281019190915261014201604080517fffffffffffffffffffffffffffffffffffffffffffffffffffffffffffffffe08184030181528282528051602091820120600084529083018083525260ff871690820152606081018590526080810184905260a0016020604051602081039080840390855afa158015610c3c573d6000803e3d6000fd5b50506040517fffffffffffffffffffffffffffffffffffffffffffffffffffffffffffffffe0015191505073ffffffffffffffffffffffffffffffffffffffff81161580610cb657508773ffffffffffffffffffffffffffffffffffffffff168173ffffffffffffffffffffffffffffffffffffffff1614155b15610ced576040517f815e1d6400000000000000000000000000000000000000000000000000000000815260040160405180910390fd5b73ffffffffffffffffffffffffffffffffffffffff90811660009081526007602090815260408083208a8516808552908352928190208990555188815291928a16917f8c5be1e5ebec7d5bd14f71427d1e84f3dd0314c0f7b2291e5b200ac8c7c3b925910160405180910390a350505050505050565b60007f8b73c3c69bb8fe3d512ecc4cf759cc79239f7b179b0ffacaa9a75d522b39400f6002604051610d95919061187b565b6040805191829003822060208301939093528101919091527fc89efdaa54c0f20c7adf612882df0950f5a951637e0307cdcb4c672f298b8bc660608201524660808201523060a082015260c00160405160208183030381529060405280519060200120905090565b600080610e327ffffffffffffffffffffffffffffffffffffffffffffffffffffffffffffffffe368181013560f01c90030190565b929092013560f81c92915050565b600080610e757ffffffffffffffffffffffffffffffffffffffffffffffffffffffffffffffffe368181013560f01c90030190565b929092013560601c92915050565b60408051608081018252600080825260208201819052918101829052606081018290529080808512610ec35750612710905061ffff8516841b8101610ed6565b505061271060008490031b61ffff851681015b80828871ffffffffffffffffffffffffffffffffffff160281610efb57610efb61190e565b0471ffffffffffffffffffffffffffffffffffff9081168085526109f69803811660ff95909516850297909704871660208401819052600a85048816606085018190529403939093039095166040820152949350505050565b600080807fffffffffffffffffffffffffffffffffffffffffffffffffffffffffffffffff85870985870292508281108382030391505080600003610fab5760008411610fa057600080fd5b508290049050610585565b808411610fb757600080fd5b60008486880960026001871981018816978890046003810283188082028403028082028403028082028403028082028403028082028403029081029092039091026000889003889004909101858311909403939093029303949094049190911702949350505050565b602081526000825180602084015260005b8181101561104e5760208186018101516040868401015201611031565b5060006040828501015260407fffffffffffffffffffffffffffffffffffffffffffffffffffffffffffffffe0601f83011684010191505092915050565b803573ffffffffffffffffffffffffffffffffffffffff811681146110b057600080fd5b919050565b600080604083850312156110c857600080fd5b6110d18361108c565b946020939093013593505050565b6000806000606084860312156110f457600080fd5b6110fd8461108c565b925061110b6020850161108c565b929592945050506040919091013590565b803561ffff811681146110b057600080fd5b803560ff811681146110b057600080fd5b7f4e487b7100000000000000000000000000000000000000000000000000000000600052604160045260246000fd5b803571ffffffffffffffffffffffffffffffffffff811681146110b057600080fd5b6000606082840312156111a257600080fd5b6040516060810167ffffffffffffffff811182821017156111c5576111c561113f565b6040529050806111d48361116e565b81526111e26020840161116e565b602082015260408301358060070b81146111fb57600080fd5b6040919091015292915050565b600080600080600060e0868803121561122057600080fd5b6112298661108c565b94506112376020870161111c565b93506112456040870161112e565b92506112548760608801611190565b915061126260c0870161116e565b90509295509295909350565b61010081016112bf828671ffffffffffffffffffffffffffffffffffff815116825271ffffffffffffffffffffffffffffffffffff6020820151166020830152604081015160070b60408301525050565b61133d606083018571ffffffffffffffffffffffffffffffffffff815116825271ffffffffffffffffffffffffffffffffffff602082015116602083015271ffffffffffffffffffffffffffffffffffff604082015116604083015271ffffffffffffffffffffffffffffffffffff60608201511660608301525050565b8260e0830152949350505050565b60006020828403121561135d57600080fd5b6105858261108c565b600080600080600060e0868803121561137e57600080fd5b6113878661108c565b94506113956020870161111c565b93506113a36040870161112e565b92506113b28760608801611190565b9497939650919460c0013592915050565b60e08101611413828571ffffffffffffffffffffffffffffffffffff815116825271ffffffffffffffffffffffffffffffffffff6020820151166020830152604081015160070b60408301525050565b610585606083018471ffffffffffffffffffffffffffffffffffff815116825271ffffffffffffffffffffffffffffffffffff602082015116602083015271ffffffffffffffffffffffffffffffffffff604082015116604083015271ffffffffffffffffffffffffffffffffffff60608201511660608301525050565b600082601f8301126114a257600080fd5b813567ffffffffffffffff8111156114bc576114bc61113f565b604051601f82017fffffffffffffffffffffffffffffffffffffffffffffffffffffffffffffffe0908116603f0116810167ffffffffffffffff811182821017156115095761150961113f565b60405281815283820160200185101561152157600080fd5b816020850160208301376000918101602001919091529392505050565b600080600080600060a0868803121561155657600080fd5b853567ffffffffffffffff81111561156d57600080fd5b61157988828901611491565b955050602086013567ffffffffffffffff81111561159657600080fd5b6115a288828901611491565b9450506115b16040870161112e565b92506115bf6060870161108c565b91506112626080870161108c565b600080600080600080600060e0888a0312156115e857600080fd5b6115f18861108c565b96506115ff6020890161108c565b9550604088013594506060880135935061161b6080890161112e565b9699959850939692959460a0840135945060c09093013592915050565b6000806040838503121561164b57600080fd5b6116548361108c565b91506116626020840161108c565b90509250929050565b600181811c9082168061167f57607f821691505b6020821081036116b8577f4e487b7100000000000000000000000000000000000000000000000000000000600052602260045260246000fd5b50919050565b7f4e487b7100000000000000000000000000000000000000000000000000000000600052601160045260246000fd5b81810381811115610440576104406116be565b80820180821115610440576104406116be565b601f82111561175d57806000526020600020601f840160051c8101602085101561173a5750805b601f840160051c820191505b8181101561175a5760008155600101611746565b50505b505050565b815167ffffffffffffffff81111561177c5761177c61113f565b6117908161178a845461166b565b84611713565b6020601f8211600181146117e257600083156117ac5750848201515b7fffffffffffffffffffffffffffffffffffffffffffffffffffffffffffffffff600385901b1c1916600184901b17845561175a565b6000848152602081207fffffffffffffffffffffffffffffffffffffffffffffffffffffffffffffffe08516915b828110156118305787850151825560209485019460019092019101611810565b508482101561186c57868401517fffffffffffffffffffffffffffffffffffffffffffffffffffffffffffffffff600387901b60f8161c191681555b50505050600190811b01905550565b60008083546118898161166b565b6001821680156118a057600181146118d357611903565b7fffffffffffffffffffffffffffffffffffffffffffffffffffffffffffffff0083168652811515820286019350611903565b86600052602060002060005b838110156118fb578154888201526001909101906020016118df565b505081860193505b509195945050505050565b7f4e487b7100000000000000000000000000000000000000000000000000000000600052601260045260246000fdfea26469706673582212200e0db2a79b045e908830c263a3feb48a7c994abc6c619c8c2863eccbf29d9cc364736f6c634300081a0033","linkReferences":{}},"methodIdentifiers":{"DOMAIN_SEPARATOR()":"3644e515","allowance(address,address)":"dd62ed3e","approve(address,uint256)":"095ea7b3","balanceOf(address)":"70a08231","burn(address,uint16,uint8,(uint144,uint144,int64),uint256)":"8c268427","collateralToken()":"b2016bd4","debtToken()":"f8d89898","decimals()":"313ce567","initialize(string,string,uint8,address,address)":"c820f146","leverageTier()":"3e28fb8c","mint(address,uint16,uint8,(uint144,uint144,int64),uint144)":"6bc601d7","name()":"06fdde03","nonces(address)":"7ecebe00","permit(address,address,uint256,uint256,uint8,bytes32,bytes32)":"d505accf","symbol()":"95d89b41","totalSupply()":"18160ddd","transfer(address,uint256)":"a9059cbb","transferFrom(address,address,uint256)":"23b872dd"},"id":89}