{"abi":[{"type":"constructor","inputs":[],"stateMutability":"nonpayable"},{"type":"function","name":"DOMAIN_SEPARATOR","inputs":[],"outputs":[{"name":"","type":"bytes32","internalType":"bytes32"}],"stateMutability":"view"},{"type":"function","name":"OWNER","inputs":[],"outputs":[{"name":"","type":"address","internalType":"address"}],"stateMutability":"view"},{"type":"function","name":"allowance","inputs":[{"name":"","type":"address","internalType":"address"},{"name":"","type":"address","internalType":"address"}],"outputs":[{"name":"","type":"uint256","internalType":"uint256"}],"stateMutability":"view"},{"type":"function","name":"approve","inputs":[{"name":"spender","type":"address","internalType":"address"},{"name":"amount","type":"uint256","internalType":"uint256"}],"outputs":[{"name":"","type":"bool","internalType":"bool"}],"stateMutability":"nonpayable"},{"type":"function","name":"balanceOf","inputs":[{"name":"","type":"address","internalType":"address"}],"outputs":[{"name":"","type":"uint256","internalType":"uint256"}],"stateMutability":"view"},{"type":"function","name":"burn","inputs":[{"name":"from","type":"address","internalType":"address"},{"name":"baseFee","type":"uint16","internalType":"uint16"},{"name":"tax","type":"uint8","internalType":"uint8"},{"name":"reserves","type":"tuple","internalType":"struct SirStructs.Reserves","components":[{"name":"reserveApes","type":"uint144","internalType":"uint144"},{"name":"reserveLPers","type":"uint144","internalType":"uint144"},{"name":"tickPriceX42","type":"int64","internalType":"int64"}]},{"name":"amount","type":"uint256","internalType":"uint256"}],"outputs":[{"name":"newReserves","type":"tuple","internalType":"struct SirStructs.Reserves","components":[{"name":"reserveApes","type":"uint144","internalType":"uint144"},{"name":"reserveLPers","type":"uint144","internalType":"uint144"},{"name":"tickPriceX42","type":"int64","internalType":"int64"}]},{"name":"fees","type":"tuple","internalType":"struct SirStructs.Fees","components":[{"name":"collateralInOrWithdrawn","type":"uint144","internalType":"uint144"},{"name":"collateralFeeToStakers","type":"uint144","internalType":"uint144"},{"name":"collateralFeeToGentlemen","type":"uint144","internalType":"uint144"},{"name":"collateralFeeToProtocol","type":"uint144","internalType":"uint144"}]}],"stateMutability":"nonpayable"},{"type":"function","name":"collateralToken","inputs":[],"outputs":[{"name":"","type":"address","internalType":"address"}],"stateMutability":"view"},{"type":"function","name":"debtToken","inputs":[],"outputs":[{"name":"","type":"address","internalType":"address"}],"stateMutability":"view"},{"type":"function","name":"decimals","inputs":[],"outputs":[{"name":"","type":"uint8","internalType":"uint8"}],"stateMutability":"view"},{"type":"function","name":"leverageTier","inputs":[],"outputs":[{"name":"","type":"int8","internalType":"int8"}],"stateMutability":"view"},{"type":"function","name":"mint","inputs":[{"name":"to","type":"address","internalType":"address"},{"name":"baseFee","type":"uint16","internalType":"uint16"},{"name":"tax","type":"uint8","internalType":"uint8"},{"name":"reserves","type":"tuple","internalType":"struct SirStructs.Reserves","components":[{"name":"reserveApes","type":"uint144","internalType":"uint144"},{"name":"reserveLPers","type":"uint144","internalType":"uint144"},{"name":"tickPriceX42","type":"int64","internalType":"int64"}]},{"name":"collateralDeposited","type":"uint144","internalType":"uint144"}],"outputs":[{"name":"newReserves","type":"tuple","internalType":"struct SirStructs.Reserves","components":[{"name":"reserveApes","type":"uint144","internalType":"uint144"},{"name":"reserveLPers","type":"uint144","internalType":"uint144"},{"name":"tickPriceX42","type":"int64","internalType":"int64"}]},{"name":"fees","type":"tuple","internalType":"struct SirStructs.Fees","components":[{"name":"collateralInOrWithdrawn","type":"uint144","internalType":"uint144"},{"name":"collateralFeeToStakers","type":"uint144","internalType":"uint144"},{"name":"collateralFeeToGentlemen","type":"uint144","internalType":"uint144"},{"name":"collateralFeeToProtocol","type":"uint144","internalType":"uint144"}]},{"name":"amount","type":"uint256","internalType":"uint256"}],"stateMutability":"nonpayable"},{"type":"function","name":"name","inputs":[],"outputs":[{"name":"","type":"string","internalType":"string"}],"stateMutability":"view"},{"type":"function","name":"nonces","inputs":[{"name":"","type":"address","internalType":"address"}],"outputs":[{"name":"","type":"uint256","internalType":"uint256"}],"stateMutability":"view"},{"type":"function","name":"permit","inputs":[{"name":"owner","type":"address","internalType":"address"},{"name":"spender","type":"address","internalType":"address"},{"name":"value","type":"uint256","internalType":"uint256"},{"name":"deadline","type":"uint256","internalType":"uint256"},{"name":"v","type":"uint8","internalType":"uint8"},{"name":"r","type":"bytes32","internalType":"bytes32"},{"name":"s","type":"bytes32","internalType":"bytes32"}],"outputs":[],"stateMutability":"nonpayable"},{"type":"function","name":"symbol","inputs":[],"outputs":[{"name":"","type":"string","internalType":"string"}],"stateMutability":"view"},{"type":"function","name":"totalSupply","inputs":[],"outputs":[{"name":"","type":"uint256","internalType":"uint256"}],"stateMutability":"view"},{"type":"function","name":"transfer","inputs":[{"name":"to","type":"address","internalType":"address"},{"name":"amount","type":"uint256","internalType":"uint256"}],"outputs":[{"name":"","type":"bool","internalType":"bool"}],"stateMutability":"nonpayable"},{"type":"function","name":"transferFrom","inputs":[{"name":"from","type":"address","internalType":"address"},{"name":"to","type":"address","internalType":"address"},{"name":"amount","type":"uint256","internalType":"uint256"}],"outputs":[{"name":"","type":"bool","internalType":"bool"}],"stateMutability":"nonpayable"},{"type":"event","name":"Approval","inputs":[{"name":"owner","type":"address","indexed":true,"internalType":"address"},{"name":"spender","type":"address","indexed":true,"internalType":"address"},{"name":"amount","type":"uint256","indexed":false,"internalType":"uint256"}],"anonymous":false},{"type":"event","name":"Transfer","inputs":[{"name":"from","type":"address","indexed":true,"internalType":"address"},{"name":"to","type":"address","indexed":true,"internalType":"address"},{"name":"amount","type":"uint256","indexed":false,"internalType":"uint256"}],"anonymous":false},{"type":"error","name":"InvalidSigner","inputs":[]},{"type":"error","name":"PermitDeadlineExpired","inputs":[]}],"bytecode":{"object":"0x6101606040523480156200001257600080fd5b50336001600160a01b03166080816001600160a01b031681525050600080336001600160a01b03166360e0970a6040518163ffffffff1660e01b8152600401600060405180830381865afa1580156200006f573d6000803e3d6000fd5b505050506040513d6000823e601f3d908101601f1916820160405262000099919081019062000329565b81519193509150600090620000af908262000485565b506020820151600190620000c4908262000485565b5060408083015160ff166101005281516001600160a01b0390811660a05260208301511660c05281015160000b60e05246610120526200010362000110565b6101405250620005cf9050565b60007f8b73c3c69bb8fe3d512ecc4cf759cc79239f7b179b0ffacaa9a75d522b39400f600060405162000144919062000551565b6040805191829003822060208301939093528101919091527fc89efdaa54c0f20c7adf612882df0950f5a951637e0307cdcb4c672f298b8bc660608201524660808201523060a082015260c00160405160208183030381529060405280519060200120905090565b634e487b7160e01b600052604160045260246000fd5b604051606081016001600160401b0381118282101715620001e757620001e7620001ac565b60405290565b604051601f8201601f191681016001600160401b0381118282101715620002185762000218620001ac565b604052919050565b600082601f8301126200023257600080fd5b81516001600160401b038111156200024e576200024e620001ac565b602062000264601f8301601f19168201620001ed565b82815285828487010111156200027957600080fd5b60005b83811015620002995785810183015182820184015282016200027c565b506000928101909101919091529392505050565b80516001600160a01b0381168114620002c557600080fd5b919050565b600060608284031215620002dd57600080fd5b620002e7620001c2565b9050620002f482620002ad565b81526200030460208301620002ad565b602082015260408201518060000b81146200031e57600080fd5b604082015292915050565b600080608083850312156200033d57600080fd5b82516001600160401b03808211156200035557600080fd5b90840190606082870312156200036a57600080fd5b62000374620001c2565b8251828111156200038457600080fd5b620003928882860162000220565b825250602083015182811115620003a857600080fd5b620003b68882860162000220565b6020830152506040830151925060ff83168314620003d357600080fd5b6040810192909252509150620003ed8460208501620002ca565b90509250929050565b600181811c908216806200040b57607f821691505b6020821081036200042c57634e487b7160e01b600052602260045260246000fd5b50919050565b601f8211156200048057600081815260208120601f850160051c810160208610156200045b5750805b601f850160051c820191505b818110156200047c5782815560010162000467565b5050505b505050565b81516001600160401b03811115620004a157620004a1620001ac565b620004b981620004b28454620003f6565b8462000432565b602080601f831160018114620004f15760008415620004d85750858301515b600019600386901b1c1916600185901b1785556200047c565b600085815260208120601f198616915b82811015620005225788860151825594840194600190910190840162000501565b5085821015620005415787850151600019600388901b60f8161c191681555b5050505050600190811b01905550565b60008083546200056181620003f6565b600182811680156200057c57600181146200059257620005c3565b60ff1984168752821515830287019450620005c3565b8760005260208060002060005b85811015620005ba5781548a8201529084019082016200059f565b50505082870194505b50929695505050505050565b60805160a05160c05160e0516101005161012051610140516115756200064660003960006106840152600061064f015260006101f70152600081816102380152818161073501526109ed01526000610374015260006103db015260008181610181015281816106eb01526108e701526115756000f3fe608060405234801561001057600080fd5b50600436106101365760003560e01c806370a08231116100b2578063a9059cbb11610081578063d505accf11610066578063d505accf14610396578063dd62ed3e146103ab578063f8d89898146103d657600080fd5b8063a9059cbb1461035c578063b2016bd41461036f57600080fd5b806370a08231146102f35780637ecebe00146103135780638c2684271461033357806395d89b411461035457600080fd5b806323b872dd116101095780633644e515116100ee5780633644e5151461022b5780633e28fb8c146102335780636bc601d71461026d57600080fd5b806323b872dd146101df578063313ce567146101f257600080fd5b806306fdde031461013b578063095ea7b314610159578063117803e31461017c57806318160ddd146101c8575b600080fd5b6101436103fd565b6040516101509190610fd1565b60405180910390f35b61016c610167366004611066565b61048b565b6040519015158152602001610150565b6101a37f000000000000000000000000000000000000000000000000000000000000000081565b60405173ffffffffffffffffffffffffffffffffffffffff9091168152602001610150565b6101d160025481565b604051908152602001610150565b61016c6101ed366004611090565b610505565b6102197f000000000000000000000000000000000000000000000000000000000000000081565b60405160ff9091168152602001610150565b6101d161064b565b61025a7f000000000000000000000000000000000000000000000000000000000000000081565b60405160009190910b8152602001610150565b61028061027b3660046111b0565b6106a6565b60408051845171ffffffffffffffffffffffffffffffffffff90811682526020808701518216818401529583015160070b8284015284518116606080840191909152958501518116608083015291840151821660a0820152939092015190911660c083015260e082015261010001610150565b6101d1610301366004611216565b60036020526000908152604090205481565b6101d1610321366004611216565b60056020526000908152604090205481565b610346610341366004611231565b610895565b60405161015092919061128e565b610143610a49565b61016c61036a366004611066565b610a56565b6101a37f000000000000000000000000000000000000000000000000000000000000000081565b6103a96103a43660046112f5565b610adb565b005b6101d16103b936600461135f565b600460209081526000928352604080842090915290825290205481565b6101a37f000000000000000000000000000000000000000000000000000000000000000081565b6000805461040a90611392565b80601f016020809104026020016040519081016040528092919081815260200182805461043690611392565b80156104835780601f1061045857610100808354040283529160200191610483565b820191906000526020600020905b81548152906001019060200180831161046657829003601f168201915b505050505081565b33600081815260046020908152604080832073ffffffffffffffffffffffffffffffffffffffff8716808552925280832085905551919290917f8c5be1e5ebec7d5bd14f71427d1e84f3dd0314c0f7b2291e5b200ac8c7c3b925906104f39086815260200190565b60405180910390a35060015b92915050565b73ffffffffffffffffffffffffffffffffffffffff831660009081526004602090815260408083203384529091528120547fffffffffffffffffffffffffffffffffffffffffffffffffffffffffffffffff8114610599576105678382611414565b73ffffffffffffffffffffffffffffffffffffffff861660009081526004602090815260408083203384529091529020555b73ffffffffffffffffffffffffffffffffffffffff8516600090815260036020526040812080548592906105ce908490611414565b909155505073ffffffffffffffffffffffffffffffffffffffff808516600081815260036020526040908190208054870190555190918716907fddf252ad1be2c89b69c2b068fc378daa952ba7f163c4a11628f55a4df523b3ef906106369087815260200190565b60405180910390a360019150505b9392505050565b60007f000000000000000000000000000000000000000000000000000000000000000046146106815761067c610d9a565b905090565b507f000000000000000000000000000000000000000000000000000000000000000090565b604080516060810182526000808252602082018190529181019190915260408051608081018252600080825260208201819052918101829052606081019190915260007f000000000000000000000000000000000000000000000000000000000000000073ffffffffffffffffffffffffffffffffffffffff16331461072b57600080fd5b60025461075d85897f000000000000000000000000000000000000000000000000000000000000000060000b8a610e34565b604081015160208801805190910171ffffffffffffffffffffffffffffffffffff169052925080156107c9576107c481846000015171ffffffffffffffffffffffffffffffffffff16886000015171ffffffffffffffffffffffffffffffffffff16610f05565b6107e3565b855183510171ffffffffffffffffffffffffffffffffffff165b73ffffffffffffffffffffffffffffffffffffffff8a166000908152600360205260409020805482019055835187510171ffffffffffffffffffffffffffffffffffff16875291506108358282611427565b60025560405182815273ffffffffffffffffffffffffffffffffffffffff8a16906000907fddf252ad1be2c89b69c2b068fc378daa952ba7f163c4a11628f55a4df523b3ef9060200160405180910390a385935050955095509592505050565b604080516060808201835260008083526020808401829052838501829052845160808101865282815290810182905293840181905290830152903373ffffffffffffffffffffffffffffffffffffffff7f0000000000000000000000000000000000000000000000000000000000000000161461091157600080fd5b60025484516000906109389071ffffffffffffffffffffffffffffffffffff168684610f05565b73ffffffffffffffffffffffffffffffffffffffff8a16600090815260036020526040812080549293508792909190610972908490611414565b9091555050848203600255855181900371ffffffffffffffffffffffffffffffffffff16865260405185815260009073ffffffffffffffffffffffffffffffffffffffff8b16907fddf252ad1be2c89b69c2b068fc378daa952ba7f163c4a11628f55a4df523b3ef9060200160405180910390a3610a1581897f000000000000000000000000000000000000000000000000000000000000000060000b8a610e34565b604081015160208801805190910171ffffffffffffffffffffffffffffffffffff1690529599959850949650505050505050565b6001805461040a90611392565b33600090815260036020526040812080548391908390610a77908490611414565b909155505073ffffffffffffffffffffffffffffffffffffffff8316600081815260036020526040908190208054850190555133907fddf252ad1be2c89b69c2b068fc378daa952ba7f163c4a11628f55a4df523b3ef906104f39086815260200190565b42841015610b15576040517f05787bdf00000000000000000000000000000000000000000000000000000000815260040160405180910390fd5b60006001610b2161064b565b73ffffffffffffffffffffffffffffffffffffffff8a811660008181526005602090815260409182902080546001810190915582517f6e71edae12b1b97f4d1f60370fef10105fa2faae0126114a169c64845d6126c98184015280840194909452938d166060840152608083018c905260a083019390935260c08083018b90528151808403909101815260e0830190915280519201919091207f190100000000000000000000000000000000000000000000000000000000000061010083015261010282019290925261012281019190915261014201604080517fffffffffffffffffffffffffffffffffffffffffffffffffffffffffffffffe08184030181528282528051602091820120600084529083018083525260ff871690820152606081018590526080810184905260a0016020604051602081039080840390855afa158015610c73573d6000803e3d6000fd5b50506040517fffffffffffffffffffffffffffffffffffffffffffffffffffffffffffffffe0015191505073ffffffffffffffffffffffffffffffffffffffff81161580610ced57508773ffffffffffffffffffffffffffffffffffffffff168173ffffffffffffffffffffffffffffffffffffffff1614155b15610d24576040517f815e1d6400000000000000000000000000000000000000000000000000000000815260040160405180910390fd5b73ffffffffffffffffffffffffffffffffffffffff90811660009081526004602090815260408083208a8516808552908352928190208990555188815291928a16917f8c5be1e5ebec7d5bd14f71427d1e84f3dd0314c0f7b2291e5b200ac8c7c3b925910160405180910390a350505050505050565b60007f8b73c3c69bb8fe3d512ecc4cf759cc79239f7b179b0ffacaa9a75d522b39400f6000604051610dcc919061143a565b6040805191829003822060208301939093528101919091527fc89efdaa54c0f20c7adf612882df0950f5a951637e0307cdcb4c672f298b8bc660608201524660808201523060a082015260c00160405160208183030381529060405280519060200120905090565b60408051608081018252600080825260208201819052918101829052606081018290529080808512610e745750612710905061ffff8516841b8101610e87565b505061271060008490031b61ffff851681015b80828871ffffffffffffffffffffffffffffffffffff160281610eac57610eac611510565b0471ffffffffffffffffffffffffffffffffffff9081168085526109f69803811660ff95909516850297909704871660208401819052600a85048816606085018190529403939093039095166040820152949350505050565b600080807fffffffffffffffffffffffffffffffffffffffffffffffffffffffffffffffff85870985870292508281108382030391505080600003610f5c5760008411610f5157600080fd5b508290049050610644565b808411610f6857600080fd5b60008486880960026001871981018816978890046003810283188082028403028082028403028082028403028082028403028082028403029081029092039091026000889003889004909101858311909403939093029303949094049190911702949350505050565b600060208083528351808285015260005b81811015610ffe57858101830151858201604001528201610fe2565b5060006040828601015260407fffffffffffffffffffffffffffffffffffffffffffffffffffffffffffffffe0601f8301168501019250505092915050565b803573ffffffffffffffffffffffffffffffffffffffff8116811461106157600080fd5b919050565b6000806040838503121561107957600080fd5b6110828361103d565b946020939093013593505050565b6000806000606084860312156110a557600080fd5b6110ae8461103d565b92506110bc6020850161103d565b9150604084013590509250925092565b803561ffff8116811461106157600080fd5b803560ff8116811461106157600080fd5b803571ffffffffffffffffffffffffffffffffffff8116811461106157600080fd5b60006060828403121561112357600080fd5b6040516060810181811067ffffffffffffffff8211171561116d577f4e487b7100000000000000000000000000000000000000000000000000000000600052604160045260246000fd5b60405290508061117c836110ef565b815261118a602084016110ef565b602082015260408301358060070b81146111a357600080fd5b6040919091015292915050565b600080600080600060e086880312156111c857600080fd5b6111d18661103d565b94506111df602087016110cc565b93506111ed604087016110de565b92506111fc8760608801611111565b915061120a60c087016110ef565b90509295509295909350565b60006020828403121561122857600080fd5b6106448261103d565b600080600080600060e0868803121561124957600080fd5b6112528661103d565b9450611260602087016110cc565b935061126e604087016110de565b925061127d8760608801611111565b9497939650919460c0013592915050565b825171ffffffffffffffffffffffffffffffffffff908116825260208085015182168184015260408086015160070b81850152845183166060808601919091529185015183166080850152840151821660a08401528301511660c082015260e08101610644565b600080600080600080600060e0888a03121561131057600080fd5b6113198861103d565b96506113276020890161103d565b95506040880135945060608801359350611343608089016110de565b925060a0880135915060c0880135905092959891949750929550565b6000806040838503121561137257600080fd5b61137b8361103d565b91506113896020840161103d565b90509250929050565b600181811c908216806113a657607f821691505b6020821081036113df577f4e487b7100000000000000000000000000000000000000000000000000000000600052602260045260246000fd5b50919050565b7f4e487b7100000000000000000000000000000000000000000000000000000000600052601160045260246000fd5b818103818111156104ff576104ff6113e5565b808201808211156104ff576104ff6113e5565b600080835481600182811c91508083168061145657607f831692505b6020808410820361148e577f4e487b710000000000000000000000000000000000000000000000000000000086526022600452602486fd5b8180156114a257600181146114d557611502565b7fffffffffffffffffffffffffffffffffffffffffffffffffffffffffffffff0086168952841515850289019650611502565b60008a81526020902060005b868110156114fa5781548b8201529085019083016114e1565b505084890196505b509498975050505050505050565b7f4e487b7100000000000000000000000000000000000000000000000000000000600052601260045260246000fdfea2646970667358221220931596e065f9155715842f00435ab27adb70b5a151596292b8ae3d2bc80b695264736f6c63430008150033","linkReferences":{}},"methodIdentifiers":{"DOMAIN_SEPARATOR()":"3644e515","OWNER()":"117803e3","allowance(address,address)":"dd62ed3e","approve(address,uint256)":"095ea7b3","balanceOf(address)":"70a08231","burn(address,uint16,uint8,(uint144,uint144,int64),uint256)":"8c268427","collateralToken()":"b2016bd4","debtToken()":"f8d89898","decimals()":"313ce567","leverageTier()":"3e28fb8c","mint(address,uint16,uint8,(uint144,uint144,int64),uint144)":"6bc601d7","name()":"06fdde03","nonces(address)":"7ecebe00","permit(address,address,uint256,uint256,uint8,bytes32,bytes32)":"d505accf","symbol()":"95d89b41","totalSupply()":"18160ddd","transfer(address,uint256)":"a9059cbb","transferFrom(address,address,uint256)":"23b872dd"},"id":17}