{"abi":[{"type":"constructor","inputs":[],"stateMutability":"nonpayable"},{"type":"function","name":"DOMAIN_SEPARATOR","inputs":[],"outputs":[{"name":"domainSeparator","type":"bytes32","internalType":"bytes32"}],"stateMutability":"view"},{"type":"function","name":"allowance","inputs":[{"name":"","type":"address","internalType":"address"},{"name":"","type":"address","internalType":"address"}],"outputs":[{"name":"","type":"uint256","internalType":"uint256"}],"stateMutability":"view"},{"type":"function","name":"approve","inputs":[{"name":"spender","type":"address","internalType":"address"},{"name":"amount","type":"uint256","internalType":"uint256"}],"outputs":[{"name":"","type":"bool","internalType":"bool"}],"stateMutability":"nonpayable"},{"type":"function","name":"balanceOf","inputs":[{"name":"","type":"address","internalType":"address"}],"outputs":[{"name":"","type":"uint256","internalType":"uint256"}],"stateMutability":"view"},{"type":"function","name":"burn","inputs":[{"name":"from","type":"address","internalType":"address"},{"name":"baseFee","type":"uint16","internalType":"uint16"},{"name":"tax","type":"uint8","internalType":"uint8"},{"name":"reserves","type":"tuple","internalType":"struct SirStructs.Reserves","components":[{"name":"reserveApes","type":"uint144","internalType":"uint144"},{"name":"reserveLPers","type":"uint144","internalType":"uint144"},{"name":"tickPriceX42","type":"int64","internalType":"int64"}]},{"name":"amount","type":"uint256","internalType":"uint256"}],"outputs":[{"name":"newReserves","type":"tuple","internalType":"struct SirStructs.Reserves","components":[{"name":"reserveApes","type":"uint144","internalType":"uint144"},{"name":"reserveLPers","type":"uint144","internalType":"uint144"},{"name":"tickPriceX42","type":"int64","internalType":"int64"}]},{"name":"fees","type":"tuple","internalType":"struct SirStructs.Fees","components":[{"name":"collateralInOrWithdrawn","type":"uint144","internalType":"uint144"},{"name":"collateralFeeToStakers","type":"uint144","internalType":"uint144"},{"name":"collateralFeeToLPers","type":"uint144","internalType":"uint144"}]}],"stateMutability":"nonpayable"},{"type":"function","name":"collateralToken","inputs":[],"outputs":[{"name":"","type":"address","internalType":"address"}],"stateMutability":"view"},{"type":"function","name":"debtToken","inputs":[],"outputs":[{"name":"","type":"address","internalType":"address"}],"stateMutability":"view"},{"type":"function","name":"decimals","inputs":[],"outputs":[{"name":"","type":"uint8","internalType":"uint8"}],"stateMutability":"view"},{"type":"function","name":"initialize","inputs":[{"name":"name_","type":"string","internalType":"string"},{"name":"symbol_","type":"string","internalType":"string"},{"name":"decimals_","type":"uint8","internalType":"uint8"},{"name":"debtToken_","type":"address","internalType":"address"},{"name":"collateralToken_","type":"address","internalType":"address"}],"outputs":[],"stateMutability":"nonpayable"},{"type":"function","name":"leverageTier","inputs":[],"outputs":[{"name":"","type":"int8","internalType":"int8"}],"stateMutability":"pure"},{"type":"function","name":"mint","inputs":[{"name":"to","type":"address","internalType":"address"},{"name":"baseFee","type":"uint16","internalType":"uint16"},{"name":"tax","type":"uint8","internalType":"uint8"},{"name":"reserves","type":"tuple","internalType":"struct SirStructs.Reserves","components":[{"name":"reserveApes","type":"uint144","internalType":"uint144"},{"name":"reserveLPers","type":"uint144","internalType":"uint144"},{"name":"tickPriceX42","type":"int64","internalType":"int64"}]},{"name":"collateralDeposited","type":"uint144","internalType":"uint144"}],"outputs":[{"name":"newReserves","type":"tuple","internalType":"struct SirStructs.Reserves","components":[{"name":"reserveApes","type":"uint144","internalType":"uint144"},{"name":"reserveLPers","type":"uint144","internalType":"uint144"},{"name":"tickPriceX42","type":"int64","internalType":"int64"}]},{"name":"fees","type":"tuple","internalType":"struct SirStructs.Fees","components":[{"name":"collateralInOrWithdrawn","type":"uint144","internalType":"uint144"},{"name":"collateralFeeToStakers","type":"uint144","internalType":"uint144"},{"name":"collateralFeeToLPers","type":"uint144","internalType":"uint144"}]},{"name":"amount","type":"uint256","internalType":"uint256"}],"stateMutability":"nonpayable"},{"type":"function","name":"name","inputs":[],"outputs":[{"name":"","type":"string","internalType":"string"}],"stateMutability":"view"},{"type":"function","name":"nonces","inputs":[{"name":"","type":"address","internalType":"address"}],"outputs":[{"name":"","type":"uint256","internalType":"uint256"}],"stateMutability":"view"},{"type":"function","name":"permit","inputs":[{"name":"owner","type":"address","internalType":"address"},{"name":"spender","type":"address","internalType":"address"},{"name":"value","type":"uint256","internalType":"uint256"},{"name":"deadline","type":"uint256","internalType":"uint256"},{"name":"v","type":"uint8","internalType":"uint8"},{"name":"r","type":"bytes32","internalType":"bytes32"},{"name":"s","type":"bytes32","internalType":"bytes32"}],"outputs":[],"stateMutability":"nonpayable"},{"type":"function","name":"symbol","inputs":[],"outputs":[{"name":"","type":"string","internalType":"string"}],"stateMutability":"view"},{"type":"function","name":"totalSupply","inputs":[],"outputs":[{"name":"","type":"uint256","internalType":"uint256"}],"stateMutability":"view"},{"type":"function","name":"transfer","inputs":[{"name":"to","type":"address","internalType":"address"},{"name":"amount","type":"uint256","internalType":"uint256"}],"outputs":[{"name":"","type":"bool","internalType":"bool"}],"stateMutability":"nonpayable"},{"type":"function","name":"transferFrom","inputs":[{"name":"from","type":"address","internalType":"address"},{"name":"to","type":"address","internalType":"address"},{"name":"amount","type":"uint256","internalType":"uint256"}],"outputs":[{"name":"","type":"bool","internalType":"bool"}],"stateMutability":"nonpayable"},{"type":"event","name":"Approval","inputs":[{"name":"owner","type":"address","indexed":true,"internalType":"address"},{"name":"spender","type":"address","indexed":true,"internalType":"address"},{"name":"amount","type":"uint256","indexed":false,"internalType":"uint256"}],"anonymous":false},{"type":"event","name":"Transfer","inputs":[{"name":"from","type":"address","indexed":true,"internalType":"address"},{"name":"to","type":"address","indexed":true,"internalType":"address"},{"name":"amount","type":"uint256","indexed":false,"internalType":"uint256"}],"anonymous":false},{"type":"error","name":"InvalidSigner","inputs":[]},{"type":"error","name":"PermitDeadlineExpired","inputs":[]}],"bytecode":{"object":"0x60a0604052348015600e575f5ffd5b504660805260805161186961002b5f395f61058801526118695ff3fe608060405234801561000f575f5ffd5b506004361061012f575f3560e01c80637ecebe00116100ad578063b2016bd41161007d578063d505accf11610063578063d505accf146102d5578063dd62ed3e146102e8578063f8d8989814610312575f5ffd5b8063b2016bd41461027b578063c820f146146102c0575f5ffd5b80637ecebe00146102205780638c2684271461023f57806395d89b4114610260578063a9059cbb14610268575f5ffd5b8063313ce567116101025780633e28fb8c116100e85780633e28fb8c146101c55780636bc601d7146101df57806370a0823114610201575f5ffd5b8063313ce5671461019e5780633644e515146101bd575f5ffd5b806306fdde0314610133578063095ea7b31461015157806318160ddd1461017457806323b872dd1461018b575b5f5ffd5b61013b610331565b6040516101489190610fcf565b60405180910390f35b61016461015f36600461104a565b6103bd565b6040519015158152602001610148565b61017d60055481565b604051908152602001610148565b610164610199366004611072565b610436565b6004546101ab9060ff1681565b60405160ff9091168152602001610148565b61017d610578565b6101cd6105b9565b6040515f9190910b8152602001610148565b6101f26101ed366004611190565b6105c8565b604051610148939291906111f2565b61017d61020f366004611282565b60066020525f908152604090205481565b61017d61022e366004611282565b60086020525f908152604090205481565b61025261024d36600461129b565b610761565b6040516101489291906112f4565b61013b6108cd565b61016461027636600461104a565b6108da565b60015461029b9073ffffffffffffffffffffffffffffffffffffffff1681565b60405173ffffffffffffffffffffffffffffffffffffffff9091168152602001610148565b6102d36102ce366004611426565b61095d565b005b6102d36102e33660046114af565b610a2e565b61017d6102f6366004611515565b600760209081525f928352604080842090915290825290205481565b5f5461029b9073ffffffffffffffffffffffffffffffffffffffff1681565b6002805461033e90611546565b80601f016020809104026020016040519081016040528092919081815260200182805461036a90611546565b80156103b55780601f1061038c576101008083540402835291602001916103b5565b820191905f5260205f20905b81548152906001019060200180831161039857829003601f168201915b505050505081565b335f81815260076020908152604080832073ffffffffffffffffffffffffffffffffffffffff8716808552925280832085905551919290917f8c5be1e5ebec7d5bd14f71427d1e84f3dd0314c0f7b2291e5b200ac8c7c3b925906104249086815260200190565b60405180910390a35060015b92915050565b73ffffffffffffffffffffffffffffffffffffffff83165f9081526007602090815260408083203384529091528120547fffffffffffffffffffffffffffffffffffffffffffffffffffffffffffffffff81146104c85761049783826115c4565b73ffffffffffffffffffffffffffffffffffffffff86165f9081526007602090815260408083203384529091529020555b73ffffffffffffffffffffffffffffffffffffffff85165f90815260066020526040812080548592906104fc9084906115c4565b909155505073ffffffffffffffffffffffffffffffffffffffff8085165f81815260066020526040908190208054870190555190918716907fddf252ad1be2c89b69c2b068fc378daa952ba7f163c4a11628f55a4df523b3ef906105639087815260200190565b60405180910390a360019150505b9392505050565b5f6105836015610ce7565b9050467f0000000000000000000000000000000000000000000000000000000000000000146105b6576105b4610d26565b505b90565b5f6105c35f610dbf565b905090565b60408051606080820183525f80835260208084018290528385018290528451928301855281835282018190529281018390529091806106076001610e01565b905073ffffffffffffffffffffffffffffffffffffffff8116331461062a575f5ffd5b600554610642868a61063a6105b9565b5f0b8b610e43565b935080156106885761068381855f015171ffffffffffffffffffffffffffffffffffff16895f015171ffffffffffffffffffffffffffffffffffff16610f0a565b6106a2565b865184510171ffffffffffffffffffffffffffffffffffff165b73ffffffffffffffffffffffffffffffffffffffff8b165f908152600660205260409020805482019055845188519194509088906106e19083906115d7565b71ffffffffffffffffffffffffffffffffffff169052506107028382611601565b60055560405183815273ffffffffffffffffffffffffffffffffffffffff8b16905f907fddf252ad1be2c89b69c2b068fc378daa952ba7f163c4a11628f55a4df523b3ef9060200160405180910390a350949891975095509350505050565b60408051606080820183525f8083526020808401829052838501829052845192830185528183528201819052928101839052909161079f6001610e01565b905073ffffffffffffffffffffffffffffffffffffffff811633146107c2575f5ffd5b60055485515f906107e89071ffffffffffffffffffffffffffffffffffff168784610f0a565b73ffffffffffffffffffffffffffffffffffffffff8b165f908152600660205260408120805492935088929091906108219084906115c4565b9091555050858203600555865181900371ffffffffffffffffffffffffffffffffffff168752610854818a61063a6105b9565b93508694505f73ffffffffffffffffffffffffffffffffffffffff168a73ffffffffffffffffffffffffffffffffffffffff167fddf252ad1be2c89b69c2b068fc378daa952ba7f163c4a11628f55a4df523b3ef886040516108b891815260200190565b60405180910390a35050509550959350505050565b6003805461033e90611546565b335f908152600660205260408120805483919083906108fa9084906115c4565b909155505073ffffffffffffffffffffffffffffffffffffffff83165f81815260066020526040908190208054850190555133907fddf252ad1be2c89b69c2b068fc378daa952ba7f163c4a11628f55a4df523b3ef906104249086815260200190565b5f6109686001610e01565b905073ffffffffffffffffffffffffffffffffffffffff8116331461098b575f5ffd5b60026109978782611660565b5060036109a48682611660565b5050600480547fffffffffffffffffffffffffffffffffffffffffffffffffffffffffffffff001660ff94909416939093179092555f80547fffffffffffffffffffffffff000000000000000000000000000000000000000090811673ffffffffffffffffffffffffffffffffffffffff9384161790915560018054909116919092161790555050565b42841015610a68576040517f05787bdf00000000000000000000000000000000000000000000000000000000815260040160405180910390fd5b5f6001610a73610578565b73ffffffffffffffffffffffffffffffffffffffff8a81165f8181526008602090815260409182902080546001810190915582517f6e71edae12b1b97f4d1f60370fef10105fa2faae0126114a169c64845d6126c98184015280840194909452938d166060840152608083018c905260a083019390935260c08083018b90528151808403909101815260e0830190915280519201919091207f190100000000000000000000000000000000000000000000000000000000000061010083015261010282019290925261012281019190915261014201604080517fffffffffffffffffffffffffffffffffffffffffffffffffffffffffffffffe081840301815282825280516020918201205f84529083018083525260ff871690820152606081018590526080810184905260a0016020604051602081039080840390855afa158015610bc1573d5f5f3e3d5ffd5b50506040517fffffffffffffffffffffffffffffffffffffffffffffffffffffffffffffffe0015191505073ffffffffffffffffffffffffffffffffffffffff81161580610c3b57508773ffffffffffffffffffffffffffffffffffffffff168173ffffffffffffffffffffffffffffffffffffffff1614155b15610c72576040517f815e1d6400000000000000000000000000000000000000000000000000000000815260040160405180910390fd5b73ffffffffffffffffffffffffffffffffffffffff9081165f9081526007602090815260408083208a8516808552908352928190208990555188815291928a16917f8c5be1e5ebec7d5bd14f71427d1e84f3dd0314c0f7b2291e5b200ac8c7c3b925910160405180910390a350505050505050565b5f5f610d1b7ffffffffffffffffffffffffffffffffffffffffffffffffffffffffffffffffe368181013560f01c90030190565b929092013592915050565b5f7f8b73c3c69bb8fe3d512ecc4cf759cc79239f7b179b0ffacaa9a75d522b39400f6002604051610d579190611777565b6040805191829003822060208301939093528101919091527fc89efdaa54c0f20c7adf612882df0950f5a951637e0307cdcb4c672f298b8bc660608201524660808201523060a082015260c00160405160208183030381529060405280519060200120905090565b5f5f610df37ffffffffffffffffffffffffffffffffffffffffffffffffffffffffffffffffe368181013560f01c90030190565b929092013560f81c92915050565b5f5f610e357ffffffffffffffffffffffffffffffffffffffffffffffffffffffffffffffffe368181013560f01c90030190565b929092013560601c92915050565b604080516060810182525f808252602082018190529181018290529080808512610e7b5750612710905061ffff8516841b8101610e8d565b50506127105f8490031b61ffff851681015b80828871ffffffffffffffffffffffffffffffffffff160281610eb257610eb2611806565b0471ffffffffffffffffffffffffffffffffffff9081168085528803166109f660ff861682020471ffffffffffffffffffffffffffffffffffff90811660208601819052909103166040840152509095945050505050565b5f80807fffffffffffffffffffffffffffffffffffffffffffffffffffffffffffffffff858709858702925082811083820303915050805f03610f5d575f8411610f52575f5ffd5b508290049050610571565b808411610f68575f5ffd5b5f8486880960026001871981018816978890046003810283188082028403028082028403028082028403028082028403028082028403029081029092039091025f889003889004909101858311909403939093029303949094049190911702949350505050565b602081525f82518060208401528060208501604085015e5f6040828501015260407fffffffffffffffffffffffffffffffffffffffffffffffffffffffffffffffe0601f83011684010191505092915050565b803573ffffffffffffffffffffffffffffffffffffffff81168114611045575f5ffd5b919050565b5f5f6040838503121561105b575f5ffd5b61106483611022565b946020939093013593505050565b5f5f5f60608486031215611084575f5ffd5b61108d84611022565b925061109b60208501611022565b929592945050506040919091013590565b803561ffff81168114611045575f5ffd5b803560ff81168114611045575f5ffd5b7f4e487b71000000000000000000000000000000000000000000000000000000005f52604160045260245ffd5b803571ffffffffffffffffffffffffffffffffffff81168114611045575f5ffd5b5f6060828403121561112b575f5ffd5b6040516060810167ffffffffffffffff8111828210171561114e5761114e6110cd565b60405290508061115d836110fa565b815261116b602084016110fa565b602082015260408301358060070b8114611183575f5ffd5b6040919091015292915050565b5f5f5f5f5f60e086880312156111a4575f5ffd5b6111ad86611022565b94506111bb602087016110ac565b93506111c9604087016110bd565b92506111d8876060880161111b565b91506111e660c087016110fa565b90509295509295909350565b60e08101611242828671ffffffffffffffffffffffffffffffffffff815116825271ffffffffffffffffffffffffffffffffffff6020820151166020830152604081015160070b60408301525050565b835171ffffffffffffffffffffffffffffffffffff908116606084015260208501518116608084015260409094015190931660a082015260c00152919050565b5f60208284031215611292575f5ffd5b61057182611022565b5f5f5f5f5f60e086880312156112af575f5ffd5b6112b886611022565b94506112c6602087016110ac565b93506112d4604087016110bd565b92506112e3876060880161111b565b9497939650919460c0013592915050565b60c08101611344828571ffffffffffffffffffffffffffffffffffff815116825271ffffffffffffffffffffffffffffffffffff6020820151166020830152604081015160070b60408301525050565b825171ffffffffffffffffffffffffffffffffffff908116606084015260208401518116608084015260408401511660a0830152610571565b5f82601f83011261138c575f5ffd5b813567ffffffffffffffff8111156113a6576113a66110cd565b604051601f82017fffffffffffffffffffffffffffffffffffffffffffffffffffffffffffffffe0908116603f0116810167ffffffffffffffff811182821017156113f3576113f36110cd565b60405281815283820160200185101561140a575f5ffd5b816020850160208301375f918101602001919091529392505050565b5f5f5f5f5f60a0868803121561143a575f5ffd5b853567ffffffffffffffff811115611450575f5ffd5b61145c8882890161137d565b955050602086013567ffffffffffffffff811115611478575f5ffd5b6114848882890161137d565b945050611493604087016110bd565b92506114a160608701611022565b91506111e660808701611022565b5f5f5f5f5f5f5f60e0888a0312156114c5575f5ffd5b6114ce88611022565b96506114dc60208901611022565b955060408801359450606088013593506114f8608089016110bd565b9699959850939692959460a0840135945060c09093013592915050565b5f5f60408385031215611526575f5ffd5b61152f83611022565b915061153d60208401611022565b90509250929050565b600181811c9082168061155a57607f821691505b602082108103611591577f4e487b71000000000000000000000000000000000000000000000000000000005f52602260045260245ffd5b50919050565b7f4e487b71000000000000000000000000000000000000000000000000000000005f52601160045260245ffd5b8181038181111561043057610430611597565b71ffffffffffffffffffffffffffffffffffff818116838216019081111561043057610430611597565b8082018082111561043057610430611597565b601f82111561165b57805f5260205f20601f840160051c810160208510156116395750805b601f840160051c820191505b81811015611658575f8155600101611645565b50505b505050565b815167ffffffffffffffff81111561167a5761167a6110cd565b61168e816116888454611546565b84611614565b6020601f8211600181146116df575f83156116a95750848201515b7fffffffffffffffffffffffffffffffffffffffffffffffffffffffffffffffff600385901b1c1916600184901b178455611658565b5f848152602081207fffffffffffffffffffffffffffffffffffffffffffffffffffffffffffffffe08516915b8281101561172c578785015182556020948501946001909201910161170c565b508482101561176857868401517fffffffffffffffffffffffffffffffffffffffffffffffffffffffffffffffff600387901b60f8161c191681555b50505050600190811b01905550565b5f5f835461178481611546565b60018216801561179b57600181146117ce576117fb565b7fffffffffffffffffffffffffffffffffffffffffffffffffffffffffffffff00831686528115158202860193506117fb565b865f5260205f205f5b838110156117f3578154888201526001909101906020016117d7565b505081860193505b509195945050505050565b7f4e487b71000000000000000000000000000000000000000000000000000000005f52601260045260245ffdfea2646970667358221220b31ce232fd52425a152765c8ae2f190a23a4e29c2b9600d53c1add03d661e1e364736f6c634300081c0033","linkReferences":{}},"methodIdentifiers":{"DOMAIN_SEPARATOR()":"3644e515","allowance(address,address)":"dd62ed3e","approve(address,uint256)":"095ea7b3","balanceOf(address)":"70a08231","burn(address,uint16,uint8,(uint144,uint144,int64),uint256)":"8c268427","collateralToken()":"b2016bd4","debtToken()":"f8d89898","decimals()":"313ce567","initialize(string,string,uint8,address,address)":"c820f146","leverageTier()":"3e28fb8c","mint(address,uint16,uint8,(uint144,uint144,int64),uint144)":"6bc601d7","name()":"06fdde03","nonces(address)":"7ecebe00","permit(address,address,uint256,uint256,uint8,bytes32,bytes32)":"d505accf","symbol()":"95d89b41","totalSupply()":"18160ddd","transfer(address,uint256)":"a9059cbb","transferFrom(address,address,uint256)":"23b872dd"},"id":66}