{"abi":[{"type":"constructor","inputs":[],"stateMutability":"nonpayable"},{"type":"function","name":"DOMAIN_SEPARATOR","inputs":[],"outputs":[{"name":"","type":"bytes32","internalType":"bytes32"}],"stateMutability":"view"},{"type":"function","name":"OWNER","inputs":[],"outputs":[{"name":"","type":"address","internalType":"address"}],"stateMutability":"view"},{"type":"function","name":"allowance","inputs":[{"name":"","type":"address","internalType":"address"},{"name":"","type":"address","internalType":"address"}],"outputs":[{"name":"","type":"uint256","internalType":"uint256"}],"stateMutability":"view"},{"type":"function","name":"approve","inputs":[{"name":"spender","type":"address","internalType":"address"},{"name":"amount","type":"uint256","internalType":"uint256"}],"outputs":[{"name":"","type":"bool","internalType":"bool"}],"stateMutability":"nonpayable"},{"type":"function","name":"balanceOf","inputs":[{"name":"","type":"address","internalType":"address"}],"outputs":[{"name":"","type":"uint256","internalType":"uint256"}],"stateMutability":"view"},{"type":"function","name":"burn","inputs":[{"name":"from","type":"address","internalType":"address"},{"name":"baseFee","type":"uint16","internalType":"uint16"},{"name":"tax","type":"uint8","internalType":"uint8"},{"name":"reserves","type":"tuple","internalType":"struct SirStructs.Reserves","components":[{"name":"reserveApes","type":"uint144","internalType":"uint144"},{"name":"reserveLPers","type":"uint144","internalType":"uint144"},{"name":"tickPriceX42","type":"int64","internalType":"int64"}]},{"name":"amount","type":"uint256","internalType":"uint256"}],"outputs":[{"name":"newReserves","type":"tuple","internalType":"struct SirStructs.Reserves","components":[{"name":"reserveApes","type":"uint144","internalType":"uint144"},{"name":"reserveLPers","type":"uint144","internalType":"uint144"},{"name":"tickPriceX42","type":"int64","internalType":"int64"}]},{"name":"fees","type":"tuple","internalType":"struct SirStructs.Fees","components":[{"name":"collateralInOrWithdrawn","type":"uint144","internalType":"uint144"},{"name":"collateralFeeToStakers","type":"uint144","internalType":"uint144"},{"name":"collateralFeeToGentlemen","type":"uint144","internalType":"uint144"},{"name":"collateralFeeToProtocol","type":"uint144","internalType":"uint144"}]}],"stateMutability":"nonpayable"},{"type":"function","name":"collateralToken","inputs":[],"outputs":[{"name":"","type":"address","internalType":"address"}],"stateMutability":"view"},{"type":"function","name":"debtToken","inputs":[],"outputs":[{"name":"","type":"address","internalType":"address"}],"stateMutability":"view"},{"type":"function","name":"decimals","inputs":[],"outputs":[{"name":"","type":"uint8","internalType":"uint8"}],"stateMutability":"view"},{"type":"function","name":"leverageTier","inputs":[],"outputs":[{"name":"","type":"int8","internalType":"int8"}],"stateMutability":"view"},{"type":"function","name":"mint","inputs":[{"name":"to","type":"address","internalType":"address"},{"name":"baseFee","type":"uint16","internalType":"uint16"},{"name":"tax","type":"uint8","internalType":"uint8"},{"name":"reserves","type":"tuple","internalType":"struct SirStructs.Reserves","components":[{"name":"reserveApes","type":"uint144","internalType":"uint144"},{"name":"reserveLPers","type":"uint144","internalType":"uint144"},{"name":"tickPriceX42","type":"int64","internalType":"int64"}]},{"name":"collateralDeposited","type":"uint144","internalType":"uint144"}],"outputs":[{"name":"newReserves","type":"tuple","internalType":"struct SirStructs.Reserves","components":[{"name":"reserveApes","type":"uint144","internalType":"uint144"},{"name":"reserveLPers","type":"uint144","internalType":"uint144"},{"name":"tickPriceX42","type":"int64","internalType":"int64"}]},{"name":"fees","type":"tuple","internalType":"struct SirStructs.Fees","components":[{"name":"collateralInOrWithdrawn","type":"uint144","internalType":"uint144"},{"name":"collateralFeeToStakers","type":"uint144","internalType":"uint144"},{"name":"collateralFeeToGentlemen","type":"uint144","internalType":"uint144"},{"name":"collateralFeeToProtocol","type":"uint144","internalType":"uint144"}]},{"name":"amount","type":"uint256","internalType":"uint256"}],"stateMutability":"nonpayable"},{"type":"function","name":"name","inputs":[],"outputs":[{"name":"","type":"string","internalType":"string"}],"stateMutability":"view"},{"type":"function","name":"nonces","inputs":[{"name":"","type":"address","internalType":"address"}],"outputs":[{"name":"","type":"uint256","internalType":"uint256"}],"stateMutability":"view"},{"type":"function","name":"permit","inputs":[{"name":"owner","type":"address","internalType":"address"},{"name":"spender","type":"address","internalType":"address"},{"name":"value","type":"uint256","internalType":"uint256"},{"name":"deadline","type":"uint256","internalType":"uint256"},{"name":"v","type":"uint8","internalType":"uint8"},{"name":"r","type":"bytes32","internalType":"bytes32"},{"name":"s","type":"bytes32","internalType":"bytes32"}],"outputs":[],"stateMutability":"nonpayable"},{"type":"function","name":"symbol","inputs":[],"outputs":[{"name":"","type":"string","internalType":"string"}],"stateMutability":"view"},{"type":"function","name":"totalSupply","inputs":[],"outputs":[{"name":"","type":"uint256","internalType":"uint256"}],"stateMutability":"view"},{"type":"function","name":"transfer","inputs":[{"name":"to","type":"address","internalType":"address"},{"name":"amount","type":"uint256","internalType":"uint256"}],"outputs":[{"name":"","type":"bool","internalType":"bool"}],"stateMutability":"nonpayable"},{"type":"function","name":"transferFrom","inputs":[{"name":"from","type":"address","internalType":"address"},{"name":"to","type":"address","internalType":"address"},{"name":"amount","type":"uint256","internalType":"uint256"}],"outputs":[{"name":"","type":"bool","internalType":"bool"}],"stateMutability":"nonpayable"},{"type":"event","name":"Approval","inputs":[{"name":"owner","type":"address","indexed":true,"internalType":"address"},{"name":"spender","type":"address","indexed":true,"internalType":"address"},{"name":"amount","type":"uint256","indexed":false,"internalType":"uint256"}],"anonymous":false},{"type":"event","name":"Transfer","inputs":[{"name":"from","type":"address","indexed":true,"internalType":"address"},{"name":"to","type":"address","indexed":true,"internalType":"address"},{"name":"amount","type":"uint256","indexed":false,"internalType":"uint256"}],"anonymous":false},{"type":"error","name":"InvalidSigner","inputs":[]},{"type":"error","name":"PermitDeadlineExpired","inputs":[]}],"bytecode":{"object":"0x61016060405234801561001157600080fd5b50336001600160a01b03166080816001600160a01b031681525050600080336001600160a01b03166360e0970a6040518163ffffffff1660e01b8152600401600060405180830381865afa15801561006d573d6000803e3d6000fd5b505050506040513d6000823e601f3d908101601f191682016040526100959190810190610305565b815191935091506000906100a99082610457565b5060208201516001906100bc9082610457565b5060408083015160ff166101005281516001600160a01b0390811660a05260208301511660c05281015160000b60e05246610120526100f9610105565b610140525061058a9050565b60007f8b73c3c69bb8fe3d512ecc4cf759cc79239f7b179b0ffacaa9a75d522b39400f60006040516101379190610515565b6040805191829003822060208301939093528101919091527fc89efdaa54c0f20c7adf612882df0950f5a951637e0307cdcb4c672f298b8bc660608201524660808201523060a082015260c00160405160208183030381529060405280519060200120905090565b634e487b7160e01b600052604160045260246000fd5b604051606081016001600160401b03811182821017156101d7576101d761019f565b60405290565b604051601f8201601f191681016001600160401b03811182821017156102055761020561019f565b604052919050565b600082601f83011261021e57600080fd5b81516001600160401b038111156102375761023761019f565b61024a601f8201601f19166020016101dd565b81815284602083860101111561025f57600080fd5b60005b8281101561027e57602081860181015183830182015201610262565b506000918101602001919091529392505050565b80516001600160a01b03811681146102a957600080fd5b919050565b6000606082840312156102c057600080fd5b6102c86101b5565b90506102d382610292565b81526102e160208301610292565b602082015260408201518060000b81146102fa57600080fd5b604082015292915050565b6000806080838503121561031857600080fd5b82516001600160401b0381111561032e57600080fd5b83016060818603121561034057600080fd5b6103486101b5565b81516001600160401b0381111561035e57600080fd5b61036a8782850161020d565b82525060208201516001600160401b0381111561038657600080fd5b6103928782850161020d565b6020830152506040820151915060ff821682146103ae57600080fd5b604081019190915291506103c584602085016102ae565b90509250929050565b600181811c908216806103e257607f821691505b60208210810361040257634e487b7160e01b600052602260045260246000fd5b50919050565b601f82111561045257806000526020600020601f840160051c8101602085101561042f5750805b601f840160051c820191505b8181101561044f576000815560010161043b565b50505b505050565b81516001600160401b038111156104705761047061019f565b6104848161047e84546103ce565b84610408565b6020601f8211600181146104b857600083156104a05750848201515b600019600385901b1c1916600184901b17845561044f565b600084815260208120601f198516915b828110156104e857878501518255602094850194600190920191016104c8565b50848210156105065786840151600019600387901b60f8161c191681555b50505050600190811b01905550565b6000808354610523816103ce565b60018216801561053a576001811461054f5761057f565b60ff198316865281151582028601935061057f565b86600052602060002060005b838110156105775781548882015260019091019060200161055b565b505081860193505b509195945050505050565b60805160a05160c05160e0516101005161012051610140516116576106006000396000610620015260006105eb015260006101f7015260008181610238015281816106d10152610989015260006103100152600061037701526000818161018101528181610687015261088301526116576000f3fe608060405234801561001057600080fd5b50600436106101365760003560e01c806370a08231116100b2578063a9059cbb11610081578063d505accf11610066578063d505accf14610332578063dd62ed3e14610347578063f8d898981461037257600080fd5b8063a9059cbb146102f8578063b2016bd41461030b57600080fd5b806370a082311461028f5780637ecebe00146102af5780638c268427146102cf57806395d89b41146102f057600080fd5b806323b872dd116101095780633644e515116100ee5780633644e5151461022b5780633e28fb8c146102335780636bc601d71461026d57600080fd5b806323b872dd146101df578063313ce567146101f257600080fd5b806306fdde031461013b578063095ea7b314610159578063117803e31461017c57806318160ddd146101c8575b600080fd5b610143610399565b6040516101509190610f6d565b60405180910390f35b61016c610167366004611002565b610427565b6040519015158152602001610150565b6101a37f000000000000000000000000000000000000000000000000000000000000000081565b60405173ffffffffffffffffffffffffffffffffffffffff9091168152602001610150565b6101d160025481565b604051908152602001610150565b61016c6101ed36600461102c565b6104a1565b6102197f000000000000000000000000000000000000000000000000000000000000000081565b60405160ff9091168152602001610150565b6101d16105e7565b61025a7f000000000000000000000000000000000000000000000000000000000000000081565b60405160009190910b8152602001610150565b61028061027b36600461114d565b610642565b604051610150939291906111b3565b6101d161029d366004611290565b60036020526000908152604090205481565b6101d16102bd366004611290565b60056020526000908152604090205481565b6102e26102dd3660046112ab565b610831565b604051610150929190611308565b6101436109e5565b61016c610306366004611002565b6109f2565b6101a37f000000000000000000000000000000000000000000000000000000000000000081565b6103456103403660046113d6565b610a77565b005b6101d1610355366004611441565b600460209081526000928352604080842090915290825290205481565b6101a37f000000000000000000000000000000000000000000000000000000000000000081565b600080546103a690611474565b80601f01602080910402602001604051908101604052809291908181526020018280546103d290611474565b801561041f5780601f106103f45761010080835404028352916020019161041f565b820191906000526020600020905b81548152906001019060200180831161040257829003601f168201915b505050505081565b33600081815260046020908152604080832073ffffffffffffffffffffffffffffffffffffffff8716808552925280832085905551919290917f8c5be1e5ebec7d5bd14f71427d1e84f3dd0314c0f7b2291e5b200ac8c7c3b9259061048f9086815260200190565b60405180910390a35060015b92915050565b73ffffffffffffffffffffffffffffffffffffffff831660009081526004602090815260408083203384529091528120547fffffffffffffffffffffffffffffffffffffffffffffffffffffffffffffffff81146105355761050383826114f6565b73ffffffffffffffffffffffffffffffffffffffff861660009081526004602090815260408083203384529091529020555b73ffffffffffffffffffffffffffffffffffffffff85166000908152600360205260408120805485929061056a9084906114f6565b909155505073ffffffffffffffffffffffffffffffffffffffff808516600081815260036020526040908190208054870190555190918716907fddf252ad1be2c89b69c2b068fc378daa952ba7f163c4a11628f55a4df523b3ef906105d29087815260200190565b60405180910390a360019150505b9392505050565b60007f0000000000000000000000000000000000000000000000000000000000000000461461061d57610618610d36565b905090565b507f000000000000000000000000000000000000000000000000000000000000000090565b604080516060810182526000808252602082018190529181019190915260408051608081018252600080825260208201819052918101829052606081019190915260007f000000000000000000000000000000000000000000000000000000000000000073ffffffffffffffffffffffffffffffffffffffff1633146106c757600080fd5b6002546106f985897f000000000000000000000000000000000000000000000000000000000000000060000b8a610dd0565b604081015160208801805190910171ffffffffffffffffffffffffffffffffffff169052925080156107655761076081846000015171ffffffffffffffffffffffffffffffffffff16886000015171ffffffffffffffffffffffffffffffffffff16610ea1565b61077f565b855183510171ffffffffffffffffffffffffffffffffffff165b73ffffffffffffffffffffffffffffffffffffffff8a166000908152600360205260409020805482019055835187510171ffffffffffffffffffffffffffffffffffff16875291506107d18282611509565b60025560405182815273ffffffffffffffffffffffffffffffffffffffff8a16906000907fddf252ad1be2c89b69c2b068fc378daa952ba7f163c4a11628f55a4df523b3ef9060200160405180910390a385935050955095509592505050565b604080516060808201835260008083526020808401829052838501829052845160808101865282815290810182905293840181905290830152903373ffffffffffffffffffffffffffffffffffffffff7f000000000000000000000000000000000000000000000000000000000000000016146108ad57600080fd5b60025484516000906108d49071ffffffffffffffffffffffffffffffffffff168684610ea1565b73ffffffffffffffffffffffffffffffffffffffff8a1660009081526003602052604081208054929350879290919061090e9084906114f6565b9091555050848203600255855181900371ffffffffffffffffffffffffffffffffffff16865260405185815260009073ffffffffffffffffffffffffffffffffffffffff8b16907fddf252ad1be2c89b69c2b068fc378daa952ba7f163c4a11628f55a4df523b3ef9060200160405180910390a36109b181897f000000000000000000000000000000000000000000000000000000000000000060000b8a610dd0565b604081015160208801805190910171ffffffffffffffffffffffffffffffffffff1690529599959850949650505050505050565b600180546103a690611474565b33600090815260036020526040812080548391908390610a139084906114f6565b909155505073ffffffffffffffffffffffffffffffffffffffff8316600081815260036020526040908190208054850190555133907fddf252ad1be2c89b69c2b068fc378daa952ba7f163c4a11628f55a4df523b3ef9061048f9086815260200190565b42841015610ab1576040517f05787bdf00000000000000000000000000000000000000000000000000000000815260040160405180910390fd5b60006001610abd6105e7565b73ffffffffffffffffffffffffffffffffffffffff8a811660008181526005602090815260409182902080546001810190915582517f6e71edae12b1b97f4d1f60370fef10105fa2faae0126114a169c64845d6126c98184015280840194909452938d166060840152608083018c905260a083019390935260c08083018b90528151808403909101815260e0830190915280519201919091207f190100000000000000000000000000000000000000000000000000000000000061010083015261010282019290925261012281019190915261014201604080517fffffffffffffffffffffffffffffffffffffffffffffffffffffffffffffffe08184030181528282528051602091820120600084529083018083525260ff871690820152606081018590526080810184905260a0016020604051602081039080840390855afa158015610c0f573d6000803e3d6000fd5b50506040517fffffffffffffffffffffffffffffffffffffffffffffffffffffffffffffffe0015191505073ffffffffffffffffffffffffffffffffffffffff81161580610c8957508773ffffffffffffffffffffffffffffffffffffffff168173ffffffffffffffffffffffffffffffffffffffff1614155b15610cc0576040517f815e1d6400000000000000000000000000000000000000000000000000000000815260040160405180910390fd5b73ffffffffffffffffffffffffffffffffffffffff90811660009081526004602090815260408083208a8516808552908352928190208990555188815291928a16917f8c5be1e5ebec7d5bd14f71427d1e84f3dd0314c0f7b2291e5b200ac8c7c3b925910160405180910390a350505050505050565b60007f8b73c3c69bb8fe3d512ecc4cf759cc79239f7b179b0ffacaa9a75d522b39400f6000604051610d68919061151c565b6040805191829003822060208301939093528101919091527fc89efdaa54c0f20c7adf612882df0950f5a951637e0307cdcb4c672f298b8bc660608201524660808201523060a082015260c00160405160208183030381529060405280519060200120905090565b60408051608081018252600080825260208201819052918101829052606081018290529080808512610e105750612710905061ffff8516841b8101610e23565b505061271060008490031b61ffff851681015b80828871ffffffffffffffffffffffffffffffffffff160281610e4857610e486115f2565b0471ffffffffffffffffffffffffffffffffffff9081168085526109f69803811660ff95909516850297909704871660208401819052600a85048816606085018190529403939093039095166040820152949350505050565b600080807fffffffffffffffffffffffffffffffffffffffffffffffffffffffffffffffff85870985870292508281108382030391505080600003610ef85760008411610eed57600080fd5b5082900490506105e0565b808411610f0457600080fd5b60008486880960026001871981018816978890046003810283188082028403028082028403028082028403028082028403028082028403029081029092039091026000889003889004909101858311909403939093029303949094049190911702949350505050565b602081526000825180602084015260005b81811015610f9b5760208186018101516040868401015201610f7e565b5060006040828501015260407fffffffffffffffffffffffffffffffffffffffffffffffffffffffffffffffe0601f83011684010191505092915050565b803573ffffffffffffffffffffffffffffffffffffffff81168114610ffd57600080fd5b919050565b6000806040838503121561101557600080fd5b61101e83610fd9565b946020939093013593505050565b60008060006060848603121561104157600080fd5b61104a84610fd9565b925061105860208501610fd9565b929592945050506040919091013590565b803561ffff81168114610ffd57600080fd5b803560ff81168114610ffd57600080fd5b803571ffffffffffffffffffffffffffffffffffff81168114610ffd57600080fd5b6000606082840312156110c057600080fd5b6040516060810181811067ffffffffffffffff8211171561110a577f4e487b7100000000000000000000000000000000000000000000000000000000600052604160045260246000fd5b6040529050806111198361108c565b81526111276020840161108c565b602082015260408301358060070b811461114057600080fd5b6040919091015292915050565b600080600080600060e0868803121561116557600080fd5b61116e86610fd9565b945061117c60208701611069565b935061118a6040870161107b565b925061119987606088016110ae565b91506111a760c0870161108c565b90509295509295909350565b6101008101611204828671ffffffffffffffffffffffffffffffffffff815116825271ffffffffffffffffffffffffffffffffffff6020820151166020830152604081015160070b60408301525050565b611282606083018571ffffffffffffffffffffffffffffffffffff815116825271ffffffffffffffffffffffffffffffffffff602082015116602083015271ffffffffffffffffffffffffffffffffffff604082015116604083015271ffffffffffffffffffffffffffffffffffff60608201511660608301525050565b8260e0830152949350505050565b6000602082840312156112a257600080fd5b6105e082610fd9565b600080600080600060e086880312156112c357600080fd5b6112cc86610fd9565b94506112da60208701611069565b93506112e86040870161107b565b92506112f787606088016110ae565b9497939650919460c0013592915050565b60e08101611358828571ffffffffffffffffffffffffffffffffffff815116825271ffffffffffffffffffffffffffffffffffff6020820151166020830152604081015160070b60408301525050565b6105e0606083018471ffffffffffffffffffffffffffffffffffff815116825271ffffffffffffffffffffffffffffffffffff602082015116602083015271ffffffffffffffffffffffffffffffffffff604082015116604083015271ffffffffffffffffffffffffffffffffffff60608201511660608301525050565b600080600080600080600060e0888a0312156113f157600080fd5b6113fa88610fd9565b965061140860208901610fd9565b955060408801359450606088013593506114246080890161107b565b9699959850939692959460a0840135945060c09093013592915050565b6000806040838503121561145457600080fd5b61145d83610fd9565b915061146b60208401610fd9565b90509250929050565b600181811c9082168061148857607f821691505b6020821081036114c1577f4e487b7100000000000000000000000000000000000000000000000000000000600052602260045260246000fd5b50919050565b7f4e487b7100000000000000000000000000000000000000000000000000000000600052601160045260246000fd5b8181038181111561049b5761049b6114c7565b8082018082111561049b5761049b6114c7565b6000808354818160011c9050600182168061153857607f821691505b60208210810361156f577f4e487b710000000000000000000000000000000000000000000000000000000084526022600452602484fd5b80801561158357600181146115b6576115e6565b7fffffffffffffffffffffffffffffffffffffffffffffffffffffffffffffff00841687528215158302870194506115e6565b60008881526020902060005b848110156115de578154898201526001909101906020016115c2565b505082870194505b50929695505050505050565b7f4e487b7100000000000000000000000000000000000000000000000000000000600052601260045260246000fdfea2646970667358221220e318453d5dcebdff3ce4adf2943d8f37b14f64441fa9bd796f499cd22c4c9cb064736f6c634300081a0033","linkReferences":{}},"methodIdentifiers":{"DOMAIN_SEPARATOR()":"3644e515","OWNER()":"117803e3","allowance(address,address)":"dd62ed3e","approve(address,uint256)":"095ea7b3","balanceOf(address)":"70a08231","burn(address,uint16,uint8,(uint144,uint144,int64),uint256)":"8c268427","collateralToken()":"b2016bd4","debtToken()":"f8d89898","decimals()":"313ce567","leverageTier()":"3e28fb8c","mint(address,uint16,uint8,(uint144,uint144,int64),uint144)":"6bc601d7","name()":"06fdde03","nonces(address)":"7ecebe00","permit(address,address,uint256,uint256,uint8,bytes32,bytes32)":"d505accf","symbol()":"95d89b41","totalSupply()":"18160ddd","transfer(address,uint256)":"a9059cbb","transferFrom(address,address,uint256)":"23b872dd"},"id":39}