{
  "_format": "hh-sol-artifact-1",
  "contractName": "Pool",
  "sourceName": "src/Pool.sol",
  "abi": [
    {
      "inputs": [
        {
          "internalType": "address",
          "name": "debtToken",
          "type": "address"
        },
        {
          "internalType": "address",
          "name": "collateralToken",
          "type": "address"
        },
        {
          "internalType": "int8",
          "name": "leverageTier",
          "type": "int8"
        },
        {
          "internalType": "address",
          "name": "oracle",
          "type": "address"
        },
        {
          "internalType": "address",
          "name": "poolLogic",
          "type": "address"
        }
      ],
      "stateMutability": "nonpayable",
      "type": "constructor"
    },
    {
      "anonymous": false,
      "inputs": [
        {
          "indexed": true,
          "internalType": "address",
          "name": "owner",
          "type": "address"
        },
        {
          "indexed": true,
          "internalType": "address",
          "name": "spender",
          "type": "address"
        },
        {
          "indexed": false,
          "internalType": "uint256",
          "name": "amount",
          "type": "uint256"
        }
      ],
      "name": "Approval",
      "type": "event"
    },
    {
      "anonymous": false,
      "inputs": [
        {
          "indexed": false,
          "internalType": "uint256",
          "name": "amount",
          "type": "uint256"
        }
      ],
      "name": "Liquidation",
      "type": "event"
    },
    {
      "anonymous": false,
      "inputs": [
        {
          "indexed": false,
          "internalType": "uint256",
          "name": "amount",
          "type": "uint256"
        }
      ],
      "name": "MintProtocolOwnedLiquidity",
      "type": "event"
    },
    {
      "anonymous": false,
      "inputs": [
        {
          "indexed": true,
          "internalType": "address",
          "name": "from",
          "type": "address"
        },
        {
          "indexed": true,
          "internalType": "address",
          "name": "to",
          "type": "address"
        },
        {
          "indexed": false,
          "internalType": "uint256",
          "name": "amount",
          "type": "uint256"
        }
      ],
      "name": "Transfer",
      "type": "event"
    },
    {
      "anonymous": false,
      "inputs": [
        {
          "indexed": true,
          "internalType": "address",
          "name": "debtToken",
          "type": "address"
        },
        {
          "indexed": true,
          "internalType": "address",
          "name": "collateralToken",
          "type": "address"
        },
        {
          "indexed": true,
          "internalType": "int8",
          "name": "leverageTier",
          "type": "int8"
        }
      ],
      "name": "poolCreated",
      "type": "event"
    },
    {
      "inputs": [],
      "name": "DOMAIN_SEPARATOR",
      "outputs": [
        {
          "internalType": "bytes32",
          "name": "",
          "type": "bytes32"
        }
      ],
      "stateMutability": "view",
      "type": "function"
    },
    {
      "inputs": [],
      "name": "ORACLE",
      "outputs": [
        {
          "internalType": "contract IOracle",
          "name": "",
          "type": "address"
        }
      ],
      "stateMutability": "view",
      "type": "function"
    },
    {
      "inputs": [],
      "name": "PERMIT_TYPEHASH",
      "outputs": [
        {
          "internalType": "bytes32",
          "name": "",
          "type": "bytes32"
        }
      ],
      "stateMutability": "view",
      "type": "function"
    },
    {
      "inputs": [
        {
          "internalType": "address",
          "name": "",
          "type": "address"
        },
        {
          "internalType": "address",
          "name": "",
          "type": "address"
        }
      ],
      "name": "allowance",
      "outputs": [
        {
          "internalType": "uint256",
          "name": "",
          "type": "uint256"
        }
      ],
      "stateMutability": "view",
      "type": "function"
    },
    {
      "inputs": [
        {
          "internalType": "address",
          "name": "spender",
          "type": "address"
        },
        {
          "internalType": "uint256",
          "name": "amount",
          "type": "uint256"
        }
      ],
      "name": "approve",
      "outputs": [
        {
          "internalType": "bool",
          "name": "",
          "type": "bool"
        }
      ],
      "stateMutability": "nonpayable",
      "type": "function"
    },
    {
      "inputs": [
        {
          "internalType": "address",
          "name": "account",
          "type": "address"
        }
      ],
      "name": "balanceOf",
      "outputs": [
        {
          "internalType": "uint256",
          "name": "",
          "type": "uint256"
        }
      ],
      "stateMutability": "view",
      "type": "function"
    },
    {
      "inputs": [
        {
          "internalType": "uint256",
          "name": "amountAPE",
          "type": "uint256"
        }
      ],
      "name": "burnAPE",
      "outputs": [
        {
          "internalType": "uint256",
          "name": "",
          "type": "uint256"
        }
      ],
      "stateMutability": "nonpayable",
      "type": "function"
    },
    {
      "inputs": [
        {
          "internalType": "uint256",
          "name": "amountMAAM",
          "type": "uint256"
        }
      ],
      "name": "burnMAAM",
      "outputs": [
        {
          "internalType": "uint256",
          "name": "",
          "type": "uint256"
        }
      ],
      "stateMutability": "nonpayable",
      "type": "function"
    },
    {
      "inputs": [
        {
          "internalType": "uint256",
          "name": "amountTEA",
          "type": "uint256"
        }
      ],
      "name": "burnTEA",
      "outputs": [
        {
          "internalType": "uint256",
          "name": "",
          "type": "uint256"
        }
      ],
      "stateMutability": "nonpayable",
      "type": "function"
    },
    {
      "inputs": [],
      "name": "decimals",
      "outputs": [
        {
          "internalType": "uint8",
          "name": "",
          "type": "uint8"
        }
      ],
      "stateMutability": "view",
      "type": "function"
    },
    {
      "inputs": [],
      "name": "mintAPE",
      "outputs": [
        {
          "internalType": "uint256",
          "name": "",
          "type": "uint256"
        }
      ],
      "stateMutability": "nonpayable",
      "type": "function"
    },
    {
      "inputs": [],
      "name": "mintMAAM",
      "outputs": [
        {
          "internalType": "uint256",
          "name": "",
          "type": "uint256"
        }
      ],
      "stateMutability": "nonpayable",
      "type": "function"
    },
    {
      "inputs": [],
      "name": "mintTEA",
      "outputs": [
        {
          "internalType": "uint256",
          "name": "",
          "type": "uint256"
        }
      ],
      "stateMutability": "nonpayable",
      "type": "function"
    },
    {
      "inputs": [],
      "name": "name",
      "outputs": [
        {
          "internalType": "string",
          "name": "",
          "type": "string"
        }
      ],
      "stateMutability": "view",
      "type": "function"
    },
    {
      "inputs": [
        {
          "internalType": "address",
          "name": "account",
          "type": "address"
        }
      ],
      "name": "nonRebasingBalanceOf",
      "outputs": [
        {
          "internalType": "bytes16",
          "name": "",
          "type": "bytes16"
        }
      ],
      "stateMutability": "view",
      "type": "function"
    },
    {
      "inputs": [],
      "name": "nonRebasingSupply",
      "outputs": [
        {
          "internalType": "bytes16",
          "name": "",
          "type": "bytes16"
        }
      ],
      "stateMutability": "view",
      "type": "function"
    },
    {
      "inputs": [],
      "name": "nonRebasingSupplyExcludePOL",
      "outputs": [
        {
          "internalType": "bytes16",
          "name": "",
          "type": "bytes16"
        }
      ],
      "stateMutability": "view",
      "type": "function"
    },
    {
      "inputs": [
        {
          "internalType": "address",
          "name": "",
          "type": "address"
        }
      ],
      "name": "nonces",
      "outputs": [
        {
          "internalType": "uint256",
          "name": "",
          "type": "uint256"
        }
      ],
      "stateMutability": "view",
      "type": "function"
    },
    {
      "inputs": [],
      "name": "numberOfLiquidations",
      "outputs": [
        {
          "internalType": "uint216",
          "name": "",
          "type": "uint216"
        }
      ],
      "stateMutability": "view",
      "type": "function"
    },
    {
      "inputs": [],
      "name": "parameters",
      "outputs": [
        {
          "internalType": "address",
          "name": "debtToken",
          "type": "address"
        },
        {
          "internalType": "address",
          "name": "collateralToken",
          "type": "address"
        },
        {
          "internalType": "int8",
          "name": "leverageTier",
          "type": "int8"
        }
      ],
      "stateMutability": "view",
      "type": "function"
    },
    {
      "inputs": [
        {
          "internalType": "address",
          "name": "account",
          "type": "address"
        }
      ],
      "name": "parametersForSIRContract",
      "outputs": [
        {
          "internalType": "bytes16",
          "name": "",
          "type": "bytes16"
        },
        {
          "internalType": "bytes16",
          "name": "",
          "type": "bytes16"
        },
        {
          "internalType": "bytes16",
          "name": "",
          "type": "bytes16"
        }
      ],
      "stateMutability": "view",
      "type": "function"
    },
    {
      "inputs": [
        {
          "internalType": "address",
          "name": "owner",
          "type": "address"
        },
        {
          "internalType": "address",
          "name": "spender",
          "type": "address"
        },
        {
          "internalType": "uint256",
          "name": "value",
          "type": "uint256"
        },
        {
          "internalType": "uint256",
          "name": "deadline",
          "type": "uint256"
        },
        {
          "internalType": "uint8",
          "name": "v",
          "type": "uint8"
        },
        {
          "internalType": "bytes32",
          "name": "r",
          "type": "bytes32"
        },
        {
          "internalType": "bytes32",
          "name": "s",
          "type": "bytes32"
        }
      ],
      "name": "permit",
      "outputs": [],
      "stateMutability": "nonpayable",
      "type": "function"
    },
    {
      "inputs": [],
      "name": "state",
      "outputs": [
        {
          "internalType": "uint256",
          "name": "DAOFees",
          "type": "uint256"
        },
        {
          "internalType": "uint256",
          "name": "totalReserves",
          "type": "uint256"
        },
        {
          "internalType": "bytes16",
          "name": "pLiq",
          "type": "bytes16"
        },
        {
          "internalType": "bytes16",
          "name": "pHigh",
          "type": "bytes16"
        }
      ],
      "stateMutability": "view",
      "type": "function"
    },
    {
      "inputs": [],
      "name": "symbol",
      "outputs": [
        {
          "internalType": "string",
          "name": "",
          "type": "string"
        }
      ],
      "stateMutability": "view",
      "type": "function"
    },
    {
      "inputs": [],
      "name": "syntheticTokens",
      "outputs": [
        {
          "internalType": "address",
          "name": "teaToken",
          "type": "address"
        },
        {
          "internalType": "address",
          "name": "apeToken",
          "type": "address"
        }
      ],
      "stateMutability": "view",
      "type": "function"
    },
    {
      "inputs": [],
      "name": "totalSupply",
      "outputs": [
        {
          "internalType": "uint256",
          "name": "",
          "type": "uint256"
        }
      ],
      "stateMutability": "view",
      "type": "function"
    },
    {
      "inputs": [
        {
          "internalType": "address",
          "name": "to",
          "type": "address"
        },
        {
          "internalType": "uint256",
          "name": "amount",
          "type": "uint256"
        }
      ],
      "name": "transfer",
      "outputs": [
        {
          "internalType": "bool",
          "name": "",
          "type": "bool"
        }
      ],
      "stateMutability": "nonpayable",
      "type": "function"
    },
    {
      "inputs": [
        {
          "internalType": "address",
          "name": "to",
          "type": "address"
        }
      ],
      "name": "transferAll",
      "outputs": [
        {
          "internalType": "bool",
          "name": "",
          "type": "bool"
        }
      ],
      "stateMutability": "nonpayable",
      "type": "function"
    },
    {
      "inputs": [
        {
          "internalType": "address",
          "name": "from",
          "type": "address"
        },
        {
          "internalType": "address",
          "name": "to",
          "type": "address"
        },
        {
          "internalType": "uint256",
          "name": "amount",
          "type": "uint256"
        }
      ],
      "name": "transferFrom",
      "outputs": [
        {
          "internalType": "bool",
          "name": "",
          "type": "bool"
        }
      ],
      "stateMutability": "nonpayable",
      "type": "function"
    },
    {
      "inputs": [],
      "name": "withdrawDAOFees",
      "outputs": [
        {
          "internalType": "uint256",
          "name": "DAOFees",
          "type": "uint256"
        }
      ],
      "stateMutability": "nonpayable",
      "type": "function"
    }
  ],
  "bytecode": "0x6101c060405234801562000011575f80fd5b506040516200793e3803806200793e833981810160405281019062000037919062000798565b83816040518060400160405280601f81526020017f4c69717569646974792050726f766964657220546f6b656e206f6620534952008152505f90816200007e919062000a80565b50620000c66040518060400160405280600481526020017f4d41414d0000000000000000000000000000000000000000000000000000000081525030620003a560201b60201c565b60019081620000d6919062000a80565b508173ffffffffffffffffffffffffffffffffffffffff1663313ce5676040518163ffffffff1660e01b8152600401602060405180830381865afa15801562000121573d5f803e3d5ffd5b505050506040513d601f19601f8201168201806040525081019062000147919062000b9f565b60ff1660a08160ff16815250508073ffffffffffffffffffffffffffffffffffffffff1660808173ffffffffffffffffffffffffffffffffffffffff16815250504660c08181525050620001a0620003fb60201b60201c565b60e08181525050505073__$e2e39c881c228f1df0d093ff40b069af1f$__634bab22058686866040518463ffffffff1660e01b8152600401620001e69392919062000bf1565b6040805180830381865af415801562000201573d5f803e3d5ffd5b505050506040513d601f19601f8201168201806040525081019062000227919062000cb0565b8073ffffffffffffffffffffffffffffffffffffffff166101209073ffffffffffffffffffffffffffffffffffffffff168152508173ffffffffffffffffffffffffffffffffffffffff166101009073ffffffffffffffffffffffffffffffffffffffff1681525050508473ffffffffffffffffffffffffffffffffffffffff166101408173ffffffffffffffffffffffffffffffffffffffff16815250508373ffffffffffffffffffffffffffffffffffffffff166101608173ffffffffffffffffffffffffffffffffffffffff1681525050825f0b610180815f0b815250508173ffffffffffffffffffffffffffffffffffffffff166101a08173ffffffffffffffffffffffffffffffffffffffff1681525050825f0b8473ffffffffffffffffffffffffffffffffffffffff168673ffffffffffffffffffffffffffffffffffffffff167fd011b03bdadc645df2841a8005a7daa8c6e35bf91fe5f1c4ba9faa04fda34e2f60405160405180910390a4505050505062001065565b606082620003d18373ffffffffffffffffffffffffffffffffffffffff166005620004a560201b60201c565b604051602001620003e492919062000d5f565b604051602081830303815290604052905092915050565b5f7f8b73c3c69bb8fe3d512ecc4cf759cc79239f7b179b0ffacaa9a75d522b39400f5f6040516200042d919062000e2e565b60405180910390206040518060400160405280600181526020017f31000000000000000000000000000000000000000000000000000000000000008152508051906020012046306040516020016200048a95949392919062000e82565b60405160208183030381529060405280519060200120905090565b60605f6002836002620004b9919062000f0a565b620004c5919062000f54565b67ffffffffffffffff811115620004e157620004e062000826565b5b6040519080825280601f01601f191660200182016040528015620005145781602001600182028036833780820191505090505b5090507f3000000000000000000000000000000000000000000000000000000000000000815f815181106200054e576200054d62000f8e565b5b60200101907effffffffffffffffffffffffffffffffffffffffffffffffffffffffffffff191690815f1a9053507f780000000000000000000000000000000000000000000000000000000000000081600181518110620005b457620005b362000f8e565b5b60200101907effffffffffffffffffffffffffffffffffffffffffffffffffffffffffffff191690815f1a9053505f6001846002620005f4919062000f0a565b62000600919062000f54565b90505b6001811115620006a9577f3031323334353637383961626364656600000000000000000000000000000000600f86166010811062000646576200064562000f8e565b5b1a60f81b82828151811062000660576200065f62000f8e565b5b60200101907effffffffffffffffffffffffffffffffffffffffffffffffffffffffffffff191690815f1a905350600485901c945080620006a19062000fbb565b905062000603565b505f8414620006ef576040517f08c379a0000000000000000000000000000000000000000000000000000000008152600401620006e69062001045565b60405180910390fd5b8091505092915050565b5f80fd5b5f73ffffffffffffffffffffffffffffffffffffffff82169050919050565b5f6200072882620006fd565b9050919050565b6200073a816200071c565b811462000745575f80fd5b50565b5f8151905062000758816200072f565b92915050565b5f815f0b9050919050565b62000774816200075e565b81146200077f575f80fd5b50565b5f81519050620007928162000769565b92915050565b5f805f805f60a08688031215620007b457620007b3620006f9565b5b5f620007c38882890162000748565b9550506020620007d68882890162000748565b9450506040620007e98882890162000782565b9350506060620007fc8882890162000748565b92505060806200080f8882890162000748565b9150509295509295909350565b5f81519050919050565b7f4e487b71000000000000000000000000000000000000000000000000000000005f52604160045260245ffd5b7f4e487b71000000000000000000000000000000000000000000000000000000005f52602260045260245ffd5b5f60028204905060018216806200089857607f821691505b602082108103620008ae57620008ad62000853565b5b50919050565b5f819050815f5260205f209050919050565b5f6020601f8301049050919050565b5f82821b905092915050565b5f60088302620009127fffffffffffffffffffffffffffffffffffffffffffffffffffffffffffffffff82620008d5565b6200091e8683620008d5565b95508019841693508086168417925050509392505050565b5f819050919050565b5f819050919050565b5f62000968620009626200095c8462000936565b6200093f565b62000936565b9050919050565b5f819050919050565b620009838362000948565b6200099b62000992826200096f565b848454620008e1565b825550505050565b5f90565b620009b1620009a3565b620009be81848462000978565b505050565b5b81811015620009e557620009d95f82620009a7565b600181019050620009c4565b5050565b601f82111562000a3457620009fe81620008b4565b62000a0984620008c6565b8101602085101562000a19578190505b62000a3162000a2885620008c6565b830182620009c3565b50505b505050565b5f82821c905092915050565b5f62000a565f198460080262000a39565b1980831691505092915050565b5f62000a70838362000a45565b9150826002028217905092915050565b62000a8b826200081c565b67ffffffffffffffff81111562000aa75762000aa662000826565b5b62000ab3825462000880565b62000ac0828285620009e9565b5f60209050601f83116001811462000af6575f841562000ae1578287015190505b62000aed858262000a63565b86555062000b5c565b601f19841662000b0686620008b4565b5f5b8281101562000b2f5784890151825560018201915060208501945060208101905062000b08565b8683101562000b4f578489015162000b4b601f89168262000a45565b8355505b6001600288020188555050505b505050505050565b5f60ff82169050919050565b62000b7b8162000b64565b811462000b86575f80fd5b50565b5f8151905062000b998162000b70565b92915050565b5f6020828403121562000bb75762000bb6620006f9565b5b5f62000bc68482850162000b89565b91505092915050565b62000bda816200071c565b82525050565b62000beb816200075e565b82525050565b5f60608201905062000c065f83018662000bcf565b62000c15602083018562000bcf565b62000c24604083018462000be0565b949350505050565b5f62000c38826200071c565b9050919050565b62000c4a8162000c2c565b811462000c55575f80fd5b50565b5f8151905062000c688162000c3f565b92915050565b5f62000c7a826200071c565b9050919050565b62000c8c8162000c6e565b811462000c97575f80fd5b50565b5f8151905062000caa8162000c81565b92915050565b5f806040838503121562000cc95762000cc8620006f9565b5b5f62000cd88582860162000c58565b925050602062000ceb8582860162000c9a565b9150509250929050565b5f81905092915050565b5f5b8381101562000d1e57808201518184015260208101905062000d01565b5f8484015250505050565b5f62000d35826200081c565b62000d41818562000cf5565b935062000d5381856020860162000cff565b80840191505092915050565b5f62000d6c828562000d29565b915062000d7a828462000d29565b91508190509392505050565b5f81905092915050565b5f819050815f5260205f209050919050565b5f815462000db08162000880565b62000dbc818662000d86565b9450600182165f811462000dd9576001811462000def5762000e25565b60ff198316865281151582028601935062000e25565b62000dfa8562000d90565b5f5b8381101562000e1d5781548189015260018201915060208101905062000dfc565b838801955050505b50505092915050565b5f62000e3b828462000da2565b915081905092915050565b5f819050919050565b62000e5a8162000e46565b82525050565b62000e6b8162000936565b82525050565b62000e7c816200071c565b82525050565b5f60a08201905062000e975f83018862000e4f565b62000ea6602083018762000e4f565b62000eb5604083018662000e4f565b62000ec4606083018562000e60565b62000ed3608083018462000e71565b9695505050505050565b7f4e487b71000000000000000000000000000000000000000000000000000000005f52601160045260245ffd5b5f62000f168262000936565b915062000f238362000936565b925082820262000f338162000936565b9150828204841483151762000f4d5762000f4c62000edd565b5b5092915050565b5f62000f608262000936565b915062000f6d8362000936565b925082820190508082111562000f885762000f8762000edd565b5b92915050565b7f4e487b71000000000000000000000000000000000000000000000000000000005f52603260045260245ffd5b5f62000fc78262000936565b91505f820362000fdc5762000fdb62000edd565b5b600182039050919050565b5f82825260208201905092915050565b7f537472696e67733a20686578206c656e67746820696e73756666696369656e745f82015250565b5f6200102d60208362000fe7565b91506200103a8262000ff7565b602082019050919050565b5f6020820190508181035f8301526200105e816200101f565b9050919050565b60805160a05160c05160e05161010051610120516101405161016051610180516101a0516166fd620012415f395f81816107ec01528181610ab90152818161116b015281816112940152818161198d01528181611d8d015281816128de0152612c2001525f81816108e501528181610c500152818161142b01528181611b2401528181611f23015281816120a701528181612aa60152612db701525f818161082801528181610af501528181610cff01528181611267015281816112d0015281816114da015281816119c901528181611d5601528181611dc901528181611f45015281816120840152818161291a01528181612bae01528181612c5c0152612fe801525f61206101525f818161144d0152818161156d015281816115e90152818161173001528181612dd90152612ece01525f8181610c7201528181610d9301528181610e0f0152818161170d01528181611b460152611c3c01525f61114401525f61111001525f6110eb01525f81816108a701528181610c1301528181611190015281816113ee01528181611ae701528181611ee6015281816122530152818161232d01528181612a6901528181612d7a01528181613096015281816131ea0152818161346701528181613d1e0152613f8d01526166fd5ff3fe608060405234801561000f575f80fd5b50600436106101d8575f3560e01c806370a0823111610102578063a3a7e7f3116100a0578063d9456dd11161006f578063d9456dd114610590578063dd62ed3e146105c0578063e696393a146105f0578063fa639ec11461060e576101d8565b8063a3a7e7f3146104f3578063a9059cbb14610523578063c19d93fb14610553578063d505accf14610574576101d8565b80638087b507116100dc5780638087b50714610467578063868b7cac1461049757806389035730146104b557806395d89b41146104d5576101d8565b806370a08231146103d757806378844714146104075780637ecebe0014610437576101d8565b80632e7d82fe1161017a57806338013f021161014957806338013f021461035e5780634bee9c461461037c5780635ab1b73b1461039a5780635c2dc7e4146103b8576101d8565b80632e7d82fe146102e657806330adf81f14610304578063313ce567146103225780633644e51514610340576101d8565b806318160ddd116101b657806318160ddd1461024857806323b872dd1461026657806323f34fd0146102965780632e2fdc7d146102b4576101d8565b8063042a1605146101dc57806306fdde03146101fa578063095ea7b314610218575b5f80fd5b6101e461063e565b6040516101f19190615349565b60405180910390f35b610202610670565b60405161020f91906153ec565b60405180910390f35b610232600480360381019061022d91906154a6565b6106fb565b60405161023f91906154fe565b60405180910390f35b6102506107e8565b60405161025d9190615526565b60405180910390f35b610280600480360381019061027b919061553f565b610970565b60405161028d91906154fe565b60405180910390f35b61029e610ab5565b6040516102ab9190615526565b60405180910390f35b6102ce60048036038101906102c9919061558f565b610f2f565b6040516102dd939291906155f4565b60405180910390f35b6102ee611011565b6040516102fb9190615629565b60405180910390f35b61030c6110c5565b604051610319919061565a565b60405180910390f35b61032a6110e9565b604051610337919061568e565b60405180910390f35b61034861110d565b604051610355919061565a565b60405180910390f35b610366611169565b6040516103739190615702565b60405180910390f35b61038461118d565b6040516103919190615526565b60405180910390f35b6103a2611290565b6040516103af9190615526565b60405180910390f35b6103c0611709565b6040516103ce92919061572a565b60405180910390f35b6103f160048036038101906103ec919061558f565b611755565b6040516103fe9190615526565b60405180910390f35b610421600480360381019061041c919061558f565b6118a6565b60405161042e9190615629565b60405180910390f35b610451600480360381019061044c919061558f565b611974565b60405161045e9190615526565b60405180910390f35b610481600480360381019061047c9190615751565b611989565b60405161048e9190615526565b60405180910390f35b61049f611d89565b6040516104ac9190615526565b60405180910390f35b6104bd61205c565b6040516104cc93929190615796565b60405180910390f35b6104dd6120cd565b6040516104ea91906153ec565b60405180910390f35b61050d6004803603810190610508919061558f565b612159565b60405161051a91906154fe565b60405180910390f35b61053d600480360381019061053891906154a6565b61259c565b60405161054a91906154fe565b60405180910390f35b61055b6125b2565b60405161056b94939291906157cb565b60405180910390f35b61058e60048036038101906105899190615862565b6125e8565b005b6105aa60048036038101906105a59190615751565b6128da565b6040516105b79190615526565b60405180910390f35b6105da60048036038101906105d591906158ff565b612bea565b6040516105e79190615526565b60405180910390f35b6105f8612c0a565b6040516106059190615629565b60405180910390f35b61062860048036038101906106239190615751565b612c1c565b6040516106359190615526565b60405180910390f35b5f60045f0160059054906101000a90047affffffffffffffffffffffffffffffffffffffffffffffffffffff16905090565b5f805461067c9061596a565b80601f01602080910402602001604051908101604052809291908181526020018280546106a89061596a565b80156106f35780601f106106ca576101008083540402835291602001916106f3565b820191905f5260205f20905b8154815290600101906020018083116106d657829003601f168201915b505050505081565b5f8160025f3373ffffffffffffffffffffffffffffffffffffffff1673ffffffffffffffffffffffffffffffffffffffff1681526020019081526020015f205f8573ffffffffffffffffffffffffffffffffffffffff1673ffffffffffffffffffffffffffffffffffffffff1681526020019081526020015f20819055508273ffffffffffffffffffffffffffffffffffffffff163373ffffffffffffffffffffffffffffffffffffffff167f8c5be1e5ebec7d5bd14f71427d1e84f3dd0314c0f7b2291e5b200ac8c7c3b925846040516107d69190615526565b60405180910390a36001905092915050565b5f807f000000000000000000000000000000000000000000000000000000000000000073ffffffffffffffffffffffffffffffffffffffff166341976e097f00000000000000000000000000000000000000000000000000000000000000006040518263ffffffff1660e01b8152600401610863919061599a565b602060405180830381865afa15801561087e573d5f803e3d5ffd5b505050506040513d601f19601f820116820180604052508101906108a291906159dd565b90505f7f000000000000000000000000000000000000000000000000000000000000000073ffffffffffffffffffffffffffffffffffffffff1663783a53ae60077f0000000000000000000000000000000000000000000000000000000000000000856040518463ffffffff1660e01b815260040161092393929190615b28565b608060405180830381865afa15801561093e573d5f803e3d5ffd5b505050506040513d601f19601f820116820180604052508101906109629190615c62565b905080606001519250505090565b5f7fffffffffffffffffffffffffffffffffffffffffffffffffffffffffffffffff60025f8673ffffffffffffffffffffffffffffffffffffffff1673ffffffffffffffffffffffffffffffffffffffff1681526020019081526020015f205f3373ffffffffffffffffffffffffffffffffffffffff1673ffffffffffffffffffffffffffffffffffffffff1681526020019081526020015f205414610a9f578160025f8673ffffffffffffffffffffffffffffffffffffffff1673ffffffffffffffffffffffffffffffffffffffff1681526020019081526020015f205f3373ffffffffffffffffffffffffffffffffffffffff1673ffffffffffffffffffffffffffffffffffffffff1681526020019081526020015f205f828254610a979190615cba565b925050819055505b610aaa84848461301b565b600190509392505050565b5f807f000000000000000000000000000000000000000000000000000000000000000073ffffffffffffffffffffffffffffffffffffffff1663264dcbfc7f00000000000000000000000000000000000000000000000000000000000000006040518263ffffffff1660e01b8152600401610b30919061599a565b6020604051808303815f875af1158015610b4c573d5f803e3d5ffd5b505050506040513d601f19601f82011682018060405250810190610b7091906159dd565b90505f60076040518060800160405290815f820154815260200160018201548152602001600282015f9054906101000a900460801b6fffffffffffffffffffffffffffffffff19166fffffffffffffffffffffffffffffffff191681526020016002820160109054906101000a900460801b6fffffffffffffffffffffffffffffffff19166fffffffffffffffffffffffffffffffff19168152505090505f805f7f000000000000000000000000000000000000000000000000000000000000000073ffffffffffffffffffffffffffffffffffffffff166382bbdb2a857f0000000000000000000000000000000000000000000000000000000000000000887f000000000000000000000000000000000000000000000000000000000000000073ffffffffffffffffffffffffffffffffffffffff166318160ddd6040518163ffffffff1660e01b8152600401602060405180830381865afa158015610cd9573d5f803e3d5ffd5b505050506040513d601f19601f82011682018060405250810190610cfd9190615ced565b7f000000000000000000000000000000000000000000000000000000000000000060016040518763ffffffff1660e01b8152600401610d4196959493929190615d6b565b60c060405180830381865afa158015610d5c573d5f803e3d5ffd5b505050506040513d601f19601f82011682018060405250810190610d809190615dcc565b9250925092505f836020015103610e0d577f000000000000000000000000000000000000000000000000000000000000000073ffffffffffffffffffffffffffffffffffffffff166328a070256040518163ffffffff1660e01b81526004015f604051808303815f87803b158015610df6575f80fd5b505af1158015610e08573d5f803e3d5ffd5b505050505b7f000000000000000000000000000000000000000000000000000000000000000073ffffffffffffffffffffffffffffffffffffffff166340c10f1933846040518363ffffffff1660e01b8152600401610e68929190615e1c565b5f604051808303815f87803b158015610e7f575f80fd5b505af1158015610e91573d5f803e3d5ffd5b505050505f811115610ead57610eac3082856060015161345a565b5b8360075f820151815f0155602082015181600101556040820151816002015f6101000a8154816fffffffffffffffffffffffffffffffff021916908360801c021790555060608201518160020160106101000a8154816fffffffffffffffffffffffffffffffff021916908360801c0217905550905050819550505050505090565b5f805f60046001015f8573ffffffffffffffffffffffffffffffffffffffff1673ffffffffffffffffffffffffffffffffffffffff1681526020019081526020015f205f015f9054906101000a900460801b600473__$e4ae902d0103a4938384bc44bf19d5cb83$__63688d6f419091876040518363ffffffff1660e01b8152600401610fbd929190615e59565b602060405180830381865af4158015610fd8573d5f803e3d5ffd5b505050506040513d601f19601f82011682018060405250810190610ffc91906159dd565b611004611011565b9250925092509193909250565b5f6110c0600473__$e4ae902d0103a4938384bc44bf19d5cb83$__63688d6f419091306040518363ffffffff1660e01b8152600401611051929190615e59565b602060405180830381865af415801561106c573d5f803e3d5ffd5b505050506040513d601f19601f8201168201806040525081019061109091906159dd565b60065f9054906101000a900460801b6fffffffffffffffffffffffffffffffff191661379890919063ffffffff16565b905090565b7f6e71edae12b1b97f4d1f60370fef10105fa2faae0126114a169c64845d6126c981565b7f000000000000000000000000000000000000000000000000000000000000000081565b5f7f000000000000000000000000000000000000000000000000000000000000000046146111425761113d6137ad565b611164565b7f00000000000000000000000000000000000000000000000000000000000000005b905090565b7f000000000000000000000000000000000000000000000000000000000000000081565b5f7f000000000000000000000000000000000000000000000000000000000000000073ffffffffffffffffffffffffffffffffffffffff166314c49db76040518163ffffffff1660e01b81526004016020604051808303815f875af11580156111f8573d5f803e3d5ffd5b505050506040513d601f19601f8201168201806040525081019061121c9190615e94565b73ffffffffffffffffffffffffffffffffffffffff163373ffffffffffffffffffffffffffffffffffffffff1614611252575f80fd5b60075f015490505f60075f018190555061128d7f00000000000000000000000000000000000000000000000000000000000000003383613853565b90565b5f807f000000000000000000000000000000000000000000000000000000000000000073ffffffffffffffffffffffffffffffffffffffff1663264dcbfc7f00000000000000000000000000000000000000000000000000000000000000006040518263ffffffff1660e01b815260040161130b919061599a565b6020604051808303815f875af1158015611327573d5f803e3d5ffd5b505050506040513d601f19601f8201168201806040525081019061134b91906159dd565b90505f60076040518060800160405290815f820154815260200160018201548152602001600282015f9054906101000a900460801b6fffffffffffffffffffffffffffffffff19166fffffffffffffffffffffffffffffffff191681526020016002820160109054906101000a900460801b6fffffffffffffffffffffffffffffffff19166fffffffffffffffffffffffffffffffff19168152505090505f805f7f000000000000000000000000000000000000000000000000000000000000000073ffffffffffffffffffffffffffffffffffffffff166382bbdb2a857f0000000000000000000000000000000000000000000000000000000000000000887f000000000000000000000000000000000000000000000000000000000000000073ffffffffffffffffffffffffffffffffffffffff166318160ddd6040518163ffffffff1660e01b8152600401602060405180830381865afa1580156114b4573d5f803e3d5ffd5b505050506040513d601f19601f820116820180604052508101906114d89190615ced565b7f00000000000000000000000000000000000000000000000000000000000000005f6040518763ffffffff1660e01b815260040161151b96959493929190615d6b565b60c060405180830381865afa158015611536573d5f803e3d5ffd5b505050506040513d601f19601f8201168201806040525081019061155a9190615dcc565b9250925092505f8360400151036115e7577f000000000000000000000000000000000000000000000000000000000000000073ffffffffffffffffffffffffffffffffffffffff166328a070256040518163ffffffff1660e01b81526004015f604051808303815f87803b1580156115d0575f80fd5b505af11580156115e2573d5f803e3d5ffd5b505050505b7f000000000000000000000000000000000000000000000000000000000000000073ffffffffffffffffffffffffffffffffffffffff166340c10f1933846040518363ffffffff1660e01b8152600401611642929190615e1c565b5f604051808303815f87803b158015611659575f80fd5b505af115801561166b573d5f803e3d5ffd5b505050505f811115611687576116863082856060015161345a565b5b8360075f820151815f0155602082015181600101556040820151816002015f6101000a8154816fffffffffffffffffffffffffffffffff021916908360801c021790555060608201518160020160106101000a8154816fffffffffffffffffffffffffffffffff021916908360801c0217905550905050819550505050505090565b5f807f000000000000000000000000000000000000000000000000000000000000000091507f000000000000000000000000000000000000000000000000000000000000000090509091565b5f8060801b6fffffffffffffffffffffffffffffffff191660065f9054906101000a900460801b6fffffffffffffffffffffffffffffffff19160361179c575f90506118a1565b5f600473__$e4ae902d0103a4938384bc44bf19d5cb83$__63688d6f419091856040518363ffffffff1660e01b81526004016117d9929190615e59565b602060405180830381865af41580156117f4573d5f803e3d5ffd5b505050506040513d601f19601f8201168201806040525081019061181891906159dd565b90505f61184f60065f9054906101000a900460801b836fffffffffffffffffffffffffffffffff19166139a290919063ffffffff16565b5f0b13156118605761185f615ebf565b5b61189d61186b6107e8565b60065f9054906101000a900460801b836fffffffffffffffffffffffffffffffff1916613c339092919063ffffffff16565b9150505b919050565b5f80600473__$e4ae902d0103a4938384bc44bf19d5cb83$__63688d6f419091856040518363ffffffff1660e01b81526004016118e4929190615e59565b602060405180830381865af41580156118ff573d5f803e3d5ffd5b505050506040513d601f19601f8201168201806040525081019061192391906159dd565b90505f61195a60065f9054906101000a900460801b836fffffffffffffffffffffffffffffffff19166139a290919063ffffffff16565b5f0b131561196b5761196a615ebf565b5b80915050919050565b6003602052805f5260405f205f915090505481565b5f807f000000000000000000000000000000000000000000000000000000000000000073ffffffffffffffffffffffffffffffffffffffff1663264dcbfc7f00000000000000000000000000000000000000000000000000000000000000006040518263ffffffff1660e01b8152600401611a04919061599a565b6020604051808303815f875af1158015611a20573d5f803e3d5ffd5b505050506040513d601f19601f82011682018060405250810190611a4491906159dd565b90505f60076040518060800160405290815f820154815260200160018201548152602001600282015f9054906101000a900460801b6fffffffffffffffffffffffffffffffff19166fffffffffffffffffffffffffffffffff191681526020016002820160109054906101000a900460801b6fffffffffffffffffffffffffffffffff19166fffffffffffffffffffffffffffffffff19168152505090505f805f7f000000000000000000000000000000000000000000000000000000000000000073ffffffffffffffffffffffffffffffffffffffff1663335cc9f5857f0000000000000000000000000000000000000000000000000000000000000000887f000000000000000000000000000000000000000000000000000000000000000073ffffffffffffffffffffffffffffffffffffffff166318160ddd6040518163ffffffff1660e01b8152600401602060405180830381865afa158015611bad573d5f803e3d5ffd5b505050506040513d601f19601f82011682018060405250810190611bd19190615ced565b8c60016040518763ffffffff1660e01b8152600401611bf596959493929190615eec565b60c060405180830381865afa158015611c10573d5f803e3d5ffd5b505050506040513d601f19601f82011682018060405250810190611c349190615dcc565b9250925092507f000000000000000000000000000000000000000000000000000000000000000073ffffffffffffffffffffffffffffffffffffffff16639dc29fac33896040518363ffffffff1660e01b8152600401611c95929190615e1c565b5f604051808303815f87803b158015611cac575f80fd5b505af1158015611cbe573d5f803e3d5ffd5b505050505f811115611cda57611cd93082856060015161345a565b5b8360075f820151815f0155602082015181600101556040820151816002015f6101000a8154816fffffffffffffffffffffffffffffffff021916908360801c021790555060608201518160020160106101000a8154816fffffffffffffffffffffffffffffffff021916908360801c0217905550905050611d7c7f00000000000000000000000000000000000000000000000000000000000000003384613853565b8195505050505050919050565b5f807f000000000000000000000000000000000000000000000000000000000000000073ffffffffffffffffffffffffffffffffffffffff1663264dcbfc7f00000000000000000000000000000000000000000000000000000000000000006040518263ffffffff1660e01b8152600401611e04919061599a565b6020604051808303815f875af1158015611e20573d5f803e3d5ffd5b505050506040513d601f19601f82011682018060405250810190611e4491906159dd565b90505f60076040518060800160405290815f820154815260200160018201548152602001600282015f9054906101000a900460801b6fffffffffffffffffffffffffffffffff19166fffffffffffffffffffffffffffffffff191681526020016002820160109054906101000a900460801b6fffffffffffffffffffffffffffffffff19166fffffffffffffffffffffffffffffffff19168152505090505f807f000000000000000000000000000000000000000000000000000000000000000073ffffffffffffffffffffffffffffffffffffffff166328daa6d4847f0000000000000000000000000000000000000000000000000000000000000000877f00000000000000000000000000000000000000000000000000000000000000006040518563ffffffff1660e01b8152600401611f839493929190615f4d565b6040805180830381865afa158015611f9d573d5f803e3d5ffd5b505050506040513d601f19601f82011682018060405250810190611fc19190615f90565b91509150611fd033828461345a565b8260075f820151815f0155602082015181600101556040820151816002015f6101000a8154816fffffffffffffffffffffffffffffffff021916908360801c021790555060608201518160020160106101000a8154816fffffffffffffffffffffffffffffffff021916908360801c021790555090505080826120539190615fce565b94505050505090565b5f805f7f000000000000000000000000000000000000000000000000000000000000000092507f000000000000000000000000000000000000000000000000000000000000000091507f00000000000000000000000000000000000000000000000000000000000000009050909192565b600180546120da9061596a565b80601f01602080910402602001604051908101604052809291908181526020018280546121069061596a565b80156121515780601f1061212857610100808354040283529160200191612151565b820191905f5260205f20905b81548152906001019060200180831161213457829003601f168201915b505050505081565b5f8073ffffffffffffffffffffffffffffffffffffffff168273ffffffffffffffffffffffffffffffffffffffff16036121c8576040517f08c379a00000000000000000000000000000000000000000000000000000000081526004016121bf90616071565b60405180910390fd5b5f600473__$e4ae902d0103a4938384bc44bf19d5cb83$__63688d6f419091336040518363ffffffff1660e01b8152600401612205929190615e59565b602060405180830381865af4158015612220573d5f803e3d5ffd5b505050506040513d601f19601f8201168201806040525081019061224491906159dd565b90505f61224f611011565b90507f000000000000000000000000000000000000000000000000000000000000000073ffffffffffffffffffffffffffffffffffffffff1663c5bcfe393360046001015f3373ffffffffffffffffffffffffffffffffffffffff1673ffffffffffffffffffffffffffffffffffffffff1681526020019081526020015f205f015f9054906101000a900460801b85856040518563ffffffff1660e01b81526004016122fe949392919061608f565b5f604051808303815f87803b158015612315575f80fd5b505af1158015612327573d5f803e3d5ffd5b505050507f000000000000000000000000000000000000000000000000000000000000000073ffffffffffffffffffffffffffffffffffffffff1663c5bcfe398560046001015f8873ffffffffffffffffffffffffffffffffffffffff1673ffffffffffffffffffffffffffffffffffffffff1681526020019081526020015f205f015f9054906101000a900460801b600473__$e4ae902d0103a4938384bc44bf19d5cb83$__63688d6f4190918a6040518363ffffffff1660e01b81526004016123f3929190615e59565b602060405180830381865af415801561240e573d5f803e3d5ffd5b505050506040513d601f19601f8201168201806040525081019061243291906159dd565b856040518563ffffffff1660e01b8152600401612452949392919061608f565b5f604051808303815f87803b158015612469575f80fd5b505af115801561247b573d5f803e3d5ffd5b505050505f6124886107e8565b905061249381613c64565b6124a933846004613ec19092919063ffffffff16565b6124bf85846004613eff9092919063ffffffff16565b8473ffffffffffffffffffffffffffffffffffffffff163373ffffffffffffffffffffffffffffffffffffffff167fddf252ad1be2c89b69c2b068fc378daa952ba7f163c4a11628f55a4df523b3ef5f60801b6fffffffffffffffffffffffffffffffff1916866fffffffffffffffffffffffffffffffff191614612579576125748460065f9054906101000a900460801b886fffffffffffffffffffffffffffffffff1916613c339092919063ffffffff16565b61257b565b5f5b6040516125889190615526565b60405180910390a360019350505050919050565b5f6125a833848461301b565b6001905092915050565b6007805f015490806001015490806002015f9054906101000a900460801b908060020160109054906101000a900460801b905084565b4284101561262b576040517f08c379a00000000000000000000000000000000000000000000000000000000081526004016126229061611c565b60405180910390fd5b5f61263461110d565b7f6e71edae12b1b97f4d1f60370fef10105fa2faae0126114a169c64845d6126c989898960035f8e73ffffffffffffffffffffffffffffffffffffffff1673ffffffffffffffffffffffffffffffffffffffff1681526020019081526020015f205f815480929190600101919050558a6040516020016126b99695949392919061613a565b604051602081830303815290604052805190602001206040516020016126e092919061620d565b6040516020818303038152906040528051906020012090505f6001828686866040515f815260200160405260405161271b9493929190616243565b6020604051602081039080840390855afa15801561273b573d5f803e3d5ffd5b5050506020604051035190505f73ffffffffffffffffffffffffffffffffffffffff168173ffffffffffffffffffffffffffffffffffffffff16141580156127ae57508873ffffffffffffffffffffffffffffffffffffffff168173ffffffffffffffffffffffffffffffffffffffff16145b6127ed576040517f08c379a00000000000000000000000000000000000000000000000000000000081526004016127e4906162d0565b60405180910390fd5b8660025f8373ffffffffffffffffffffffffffffffffffffffff1673ffffffffffffffffffffffffffffffffffffffff1681526020019081526020015f205f8a73ffffffffffffffffffffffffffffffffffffffff1673ffffffffffffffffffffffffffffffffffffffff1681526020019081526020015f208190555050508573ffffffffffffffffffffffffffffffffffffffff168773ffffffffffffffffffffffffffffffffffffffff167f8c5be1e5ebec7d5bd14f71427d1e84f3dd0314c0f7b2291e5b200ac8c7c3b925876040516128c99190615526565b60405180910390a350505050505050565b5f807f000000000000000000000000000000000000000000000000000000000000000073ffffffffffffffffffffffffffffffffffffffff1663264dcbfc7f00000000000000000000000000000000000000000000000000000000000000006040518263ffffffff1660e01b8152600401612955919061599a565b6020604051808303815f875af1158015612971573d5f803e3d5ffd5b505050506040513d601f19601f8201168201806040525081019061299591906159dd565b90507fffffffffffffffffffffffffffffffffffffffffffffffffffffffffffffffff83036129ca576129c733611755565b92505b5f60076040518060800160405290815f820154815260200160018201548152602001600282015f9054906101000a900460801b6fffffffffffffffffffffffffffffffff19166fffffffffffffffffffffffffffffffff191681526020016002820160109054906101000a900460801b6fffffffffffffffffffffffffffffffff19166fffffffffffffffffffffffffffffffff19168152505090505f7f000000000000000000000000000000000000000000000000000000000000000073ffffffffffffffffffffffffffffffffffffffff1663401b9a36837f000000000000000000000000000000000000000000000000000000000000000086896040518563ffffffff1660e01b8152600401612ae694939291906162ee565b602060405180830381865afa158015612b01573d5f803e3d5ffd5b505050506040513d601f19601f82011682018060405250810190612b259190615ced565b9050612b32338683613f3d565b8160075f820151815f0155602082015181600101556040820151816002015f6101000a8154816fffffffffffffffffffffffffffffffff021916908360801c021790555060608201518160020160106101000a8154816fffffffffffffffffffffffffffffffff021916908360801c0217905550905050612bd47f00000000000000000000000000000000000000000000000000000000000000003387613853565b8481612be09190615cba565b9350505050919050565b6002602052815f5260405f20602052805f5260405f205f91509150505481565b60065f9054906101000a900460801b81565b5f807f000000000000000000000000000000000000000000000000000000000000000073ffffffffffffffffffffffffffffffffffffffff1663264dcbfc7f00000000000000000000000000000000000000000000000000000000000000006040518263ffffffff1660e01b8152600401612c97919061599a565b6020604051808303815f875af1158015612cb3573d5f803e3d5ffd5b505050506040513d601f19601f82011682018060405250810190612cd791906159dd565b90505f60076040518060800160405290815f820154815260200160018201548152602001600282015f9054906101000a900460801b6fffffffffffffffffffffffffffffffff19166fffffffffffffffffffffffffffffffff191681526020016002820160109054906101000a900460801b6fffffffffffffffffffffffffffffffff19166fffffffffffffffffffffffffffffffff19168152505090505f805f7f000000000000000000000000000000000000000000000000000000000000000073ffffffffffffffffffffffffffffffffffffffff1663335cc9f5857f0000000000000000000000000000000000000000000000000000000000000000887f000000000000000000000000000000000000000000000000000000000000000073ffffffffffffffffffffffffffffffffffffffff166318160ddd6040518163ffffffff1660e01b8152600401602060405180830381865afa158015612e40573d5f803e3d5ffd5b505050506040513d601f19601f82011682018060405250810190612e649190615ced565b8c5f6040518763ffffffff1660e01b8152600401612e8796959493929190615eec565b60c060405180830381865afa158015612ea2573d5f803e3d5ffd5b505050506040513d601f19601f82011682018060405250810190612ec69190615dcc565b9250925092507f000000000000000000000000000000000000000000000000000000000000000073ffffffffffffffffffffffffffffffffffffffff16639dc29fac33896040518363ffffffff1660e01b8152600401612f27929190615e1c565b5f604051808303815f87803b158015612f3e575f80fd5b505af1158015612f50573d5f803e3d5ffd5b505050505f811115612f6c57612f6b3082856060015161345a565b5b8360075f820151815f0155602082015181600101556040820151816002015f6101000a8154816fffffffffffffffffffffffffffffffff021916908360801c021790555060608201518160020160106101000a8154816fffffffffffffffffffffffffffffffff021916908360801c021790555090505061300e7f00000000000000000000000000000000000000000000000000000000000000003384613853565b8195505050505050919050565b5f73ffffffffffffffffffffffffffffffffffffffff168273ffffffffffffffffffffffffffffffffffffffff1603613089576040517f08c379a000000000000000000000000000000000000000000000000000000000815260040161308090616071565b60405180910390fd5b5f613092611011565b90507f000000000000000000000000000000000000000000000000000000000000000073ffffffffffffffffffffffffffffffffffffffff1663c5bcfe398560046001015f8873ffffffffffffffffffffffffffffffffffffffff1673ffffffffffffffffffffffffffffffffffffffff1681526020019081526020015f205f015f9054906101000a900460801b600473__$e4ae902d0103a4938384bc44bf19d5cb83$__63688d6f4190918a6040518363ffffffff1660e01b815260040161315c929190615e59565b602060405180830381865af4158015613177573d5f803e3d5ffd5b505050506040513d601f19601f8201168201806040525081019061319b91906159dd565b856040518563ffffffff1660e01b81526004016131bb949392919061608f565b5f604051808303815f87803b1580156131d2575f80fd5b505af11580156131e4573d5f803e3d5ffd5b505050507f000000000000000000000000000000000000000000000000000000000000000073ffffffffffffffffffffffffffffffffffffffff1663c5bcfe398460046001015f8773ffffffffffffffffffffffffffffffffffffffff1673ffffffffffffffffffffffffffffffffffffffff1681526020019081526020015f205f015f9054906101000a900460801b600473__$e4ae902d0103a4938384bc44bf19d5cb83$__63688d6f419091896040518363ffffffff1660e01b81526004016132b0929190615e59565b602060405180830381865af41580156132cb573d5f803e3d5ffd5b505050506040513d601f19601f820116820180604052508101906132ef91906159dd565b856040518563ffffffff1660e01b815260040161330f949392919061608f565b5f604051808303815f87803b158015613326575f80fd5b505af1158015613338573d5f803e3d5ffd5b505050505f6133456107e8565b905061335081613c64565b5f81146133ee576133a285613391858460065f9054906101000a900460801b6fffffffffffffffffffffffffffffffff19166142379092919063ffffffff16565b6004613ec19092919063ffffffff16565b6133ed846133dc858460065f9054906101000a900460801b6fffffffffffffffffffffffffffffffff191661424e9092919063ffffffff16565b6004613eff9092919063ffffffff16565b5b8373ffffffffffffffffffffffffffffffffffffffff168573ffffffffffffffffffffffffffffffffffffffff167fddf252ad1be2c89b69c2b068fc378daa952ba7f163c4a11628f55a4df523b3ef8560405161344b9190615526565b60405180910390a35050505050565b5f613463611011565b90507f000000000000000000000000000000000000000000000000000000000000000073ffffffffffffffffffffffffffffffffffffffff1663c5bcfe398560046001015f8873ffffffffffffffffffffffffffffffffffffffff1673ffffffffffffffffffffffffffffffffffffffff1681526020019081526020015f205f015f9054906101000a900460801b600473__$e4ae902d0103a4938384bc44bf19d5cb83$__63688d6f4190918a6040518363ffffffff1660e01b815260040161352d929190615e59565b602060405180830381865af4158015613548573d5f803e3d5ffd5b505050506040513d601f19601f8201168201806040525081019061356c91906159dd565b856040518563ffffffff1660e01b815260040161358c949392919061608f565b5f604051808303815f87803b1580156135a3575f80fd5b505af11580156135b5573d5f803e3d5ffd5b505050506135c282613c64565b5f8203613650576135e7846135d685614264565b6004613eff9092919063ffffffff16565b6136236135f38461428c565b60065f9054906101000a900460801b6fffffffffffffffffffffffffffffffff19166142b590919063ffffffff16565b60065f6101000a8154816fffffffffffffffffffffffffffffffff021916908360801c021790555061372d565b61369b8461368a858560065f9054906101000a900460801b6fffffffffffffffffffffffffffffffff191661424e9092919063ffffffff16565b6004613eff9092919063ffffffff16565b6137046136d4848460065f9054906101000a900460801b6fffffffffffffffffffffffffffffffff19166142379092919063ffffffff16565b60065f9054906101000a900460801b6fffffffffffffffffffffffffffffffff19166142b590919063ffffffff16565b60065f6101000a8154816fffffffffffffffffffffffffffffffff021916908360801c02179055505b8373ffffffffffffffffffffffffffffffffffffffff165f73ffffffffffffffffffffffffffffffffffffffff167fddf252ad1be2c89b69c2b068fc378daa952ba7f163c4a11628f55a4df523b3ef8560405161378a9190615526565b60405180910390a350505050565b5f6137a5838360016142ca565b905092915050565b5f7f8b73c3c69bb8fe3d512ecc4cf759cc79239f7b179b0ffacaa9a75d522b39400f5f6040516137dd91906163cd565b60405180910390206040518060400160405280600181526020017f31000000000000000000000000000000000000000000000000000000000000008152508051906020012046306040516020016138389594939291906163e3565b60405160208183030381529060405280519060200120905090565b5f808473ffffffffffffffffffffffffffffffffffffffff1663a9059cbb60e01b8585604051602401613887929190615e1c565b604051602081830303815290604052907bffffffffffffffffffffffffffffffffffffffffffffffffffffffff19166020820180517bffffffffffffffffffffffffffffffffffffffffffffffffffffffff83818316178352505050506040516138f1919061646e565b5f604051808303815f865af19150503d805f811461392a576040519150601f19603f3d011682016040523d82523d5f602084013e61392f565b606091505b509150915081801561395c57505f8151148061395b57508080602001905181019061395a91906164ae565b5b5b61399b576040517f08c379a000000000000000000000000000000000000000000000000000000000815260040161399290616523565b60405180910390fd5b5050505050565b5f806f7fffffffffffffffffffffffffffffff8460801c1690505f6f7fffffffffffffffffffffffffffffff8460801c1690506f7fff0000000000000000000000000000826fffffffffffffffffffffffffffffffff161115613a0857613a07615ebf565b5b6f7fff0000000000000000000000000000816fffffffffffffffffffffffffffffffff161115613a3b57613a3a615ebf565b5b836fffffffffffffffffffffffffffffffff1916856fffffffffffffffffffffffffffffffff1916141580613a9157506f7fff0000000000000000000000000000826fffffffffffffffffffffffffffffffff16105b613a99575f80fd5b836fffffffffffffffffffffffffffffffff1916856fffffffffffffffffffffffffffffffff191603613ad0575f92505050613c2d565b5f6f800000000000000000000000000000008660801c6fffffffffffffffffffffffffffffffff16101590505f6f800000000000000000000000000000008660801c6fffffffffffffffffffffffffffffffff16101590508115613bbf578015613b9357826fffffffffffffffffffffffffffffffff16846fffffffffffffffffffffffffffffffff1611613b66576001613b88565b7fffffffffffffffffffffffffffffffffffffffffffffffffffffffffffffffff5b945050505050613c2d565b7fffffffffffffffffffffffffffffffffffffffffffffffffffffffffffffffff945050505050613c2d565b8015613bd2576001945050505050613c2d565b826fffffffffffffffffffffffffffffffff16846fffffffffffffffffffffffffffffffff1611613c23577fffffffffffffffffffffffffffffffffffffffffffffffffffffffffffffffff613c26565b60015b9450505050505b92915050565b5f80613c3f83866139a2565b5f0b1215613c5057613c4f615ebf565b5b613c5b848484614624565b90509392505050565b5f60801b6fffffffffffffffffffffffffffffffff191660065f9054906101000a900460801b6fffffffffffffffffffffffffffffffff1916148015613ca957505f81115b15613cd157613ccc30613cbb83614264565b6004613eff9092919063ffffffff16565b613ebe565b5f60801b6fffffffffffffffffffffffffffffffff191660065f9054906101000a900460801b6fffffffffffffffffffffffffffffffff191614158015613d1757505f81145b15613ebd577f000000000000000000000000000000000000000000000000000000000000000073ffffffffffffffffffffffffffffffffffffffff1663c2bf011e613e06600473__$e4ae902d0103a4938384bc44bf19d5cb83$__63688d6f419091306040518363ffffffff1660e01b8152600401613d97929190615e59565b602060405180830381865af4158015613db2573d5f803e3d5ffd5b505050506040513d601f19601f82011682018060405250810190613dd691906159dd565b60065f9054906101000a900460801b6fffffffffffffffffffffffffffffffff191661379890919063ffffffff16565b6040518263ffffffff1660e01b8152600401613e229190615629565b5f604051808303815f87803b158015613e39575f80fd5b505af1158015613e4b573d5f803e3d5ffd5b505050505f60801b60065f6101000a8154816fffffffffffffffffffffffffffffffff021916908360801c0217905550613e85600461485b565b7fb2d60c1853f534186f98500209005bfe1303c83a5b211d7be5b93d61be1ca99e81604051613eb49190615526565b60405180910390a15b5b50565b613efa8383613ef584613ed48888614908565b6fffffffffffffffffffffffffffffffff19166149e390919063ffffffff16565b6149f7565b505050565b613f388383613f3384613f128888614908565b6fffffffffffffffffffffffffffffffff1916614ac690919063ffffffff16565b6149f7565b505050565b80821115613f80576040517f08c379a0000000000000000000000000000000000000000000000000000000008152600401613f779061658b565b60405180910390fd5b5f613f89611011565b90507f000000000000000000000000000000000000000000000000000000000000000073ffffffffffffffffffffffffffffffffffffffff1663c5bcfe398560046001015f8873ffffffffffffffffffffffffffffffffffffffff1673ffffffffffffffffffffffffffffffffffffffff1681526020019081526020015f205f015f9054906101000a900460801b600473__$e4ae902d0103a4938384bc44bf19d5cb83$__63688d6f4190918a6040518363ffffffff1660e01b8152600401614053929190615e59565b602060405180830381865af415801561406e573d5f803e3d5ffd5b505050506040513d601f19601f8201168201806040525081019061409291906159dd565b856040518563ffffffff1660e01b81526004016140b2949392919061608f565b5f604051808303815f87803b1580156140c9575f80fd5b505af11580156140db573d5f803e3d5ffd5b505050506140e882613c64565b5f82146141cc5761413a84614129858560065f9054906101000a900460801b6fffffffffffffffffffffffffffffffff19166142379092919063ffffffff16565b6004613ec19092919063ffffffff16565b6141a3614173848460065f9054906101000a900460801b6fffffffffffffffffffffffffffffffff191661424e9092919063ffffffff16565b60065f9054906101000a900460801b6fffffffffffffffffffffffffffffffff191661379890919063ffffffff16565b60065f6101000a8154816fffffffffffffffffffffffffffffffff021916908360801c02179055505b5f73ffffffffffffffffffffffffffffffffffffffff168473ffffffffffffffffffffffffffffffffffffffff167fddf252ad1be2c89b69c2b068fc378daa952ba7f163c4a11628f55a4df523b3ef856040516142299190615526565b60405180910390a350505050565b5f6142458484846001614ada565b90509392505050565b5f61425b8484845f614ada565b90509392505050565b5f808203614277575f60801b9050614287565b614281825f614d22565b60801b90505b919050565b5f80820361429f575f60801b90506142b0565b6142aa826001614d22565b60801b90505b919050565b5f6142c283836001614db8565b905092915050565b5f806142d685856139a2565b5f0b12156142e2575f80fd5b5f60708560801c6fffffffffffffffffffffffffffffffff16901c6fffffffffffffffffffffffffffffffff1690505f60708560801c6fffffffffffffffffffffffffffffffff16901c6fffffffffffffffffffffffffffffffff169050617fff821080156143525750617fff81105b61435f5761435e615ebf565b5b5f6e0100000000000000000000000000006dffffffffffffffffffffffffffff8860801c16176fffffffffffffffffffffffffffffffff1690505f6e0100000000000000000000000000006dffffffffffffffffffffffffffff8860801c16176fffffffffffffffffffffffffffffffff1690505f60801b6fffffffffffffffffffffffffffffffff1916876fffffffffffffffffffffffffffffffff19160361440f578794505050505061461d565b5f60801b6fffffffffffffffffffffffffffffffff1916886fffffffffffffffffffffffffffffffff19160361447a576040517f08c379a0000000000000000000000000000000000000000000000000000000008152600401614471906165f3565b60405180910390fd5b5f8411801561448857505f83115b61449557614494615ebf565b5b5f838503905086156144cb5760708111156144b757889550505050505061461d565b5f8111156144c6578082901c91505b61450d565b5f8111156144e157600183901b92506001850394505b60708111156144f3576001915061450c565b600181111561450b57600180820360018403901c0191505b5b5b81830392505f8303614529575f60801b9550505050505061461d565b5f614533846150d8565b9050871580156145435750607181145b1561456a576dffffffffffffffffffffffffffff600185901c1693506001860195506145f8565b60708110156145e3575f816070039050808711156145a2576dffffffffffffffffffffffffffff8186901b16945080870396506145dd565b6040517f08c379a00000000000000000000000000000000000000000000000000000000081526004016145d4906165f3565b60405180910390fd5b506145f7565b6dffffffffffffffffffffffffffff841693505b5b617fff860361460a57614609615ebf565b5b83607087901b1760801b96505050505050505b9392505050565b5f8060708560801c6fffffffffffffffffffffffffffffffff16901c6fffffffffffffffffffffffffffffffff1690505f6e0100000000000000000000000000006dffffffffffffffffffffffffffff8760801c16176fffffffffffffffffffffffffffffffff1690505f60708560801c6fffffffffffffffffffffffffffffffff16901c6fffffffffffffffffffffffffffffffff1690505f6e0100000000000000000000000000006dffffffffffffffffffffffffffff8760801c16176fffffffffffffffffffffffffffffffff169050617fff841080156147095750617fff82105b61471657614715615ebf565b5b5f821161472657614725615ebf565b5b5f60801b6fffffffffffffffffffffffffffffffff1916886fffffffffffffffffffffffffffffffff1916148061475c57505f87145b1561476d575f945050505050614854565b5f841161477d5761477c615ebf565b5b608f82018411156147c3575f614792886150d8565b9050610100830185820111156147ab576147aa615ebf565b5b608f84901b9350608f8386030388901b975050614842565b818411156147d85781840383901b9250614841565b81608f8501101561482f575f6147ed886150d8565b9050826001868301011015614809575f95505050505050614854565b608f82901b9150608f85840303614821858a856151bb565b901c95505050505050614854565b818410156148405783820381901b90505b5b5b61484d8388836151bb565b9450505050505b9392505050565b42815f015f6101000a81548164ffffffffff021916908364ffffffffff160217905550805f01600581819054906101000a90047affffffffffffffffffffffffffffffffffffffffffffffffffffff16809291906148b890616611565b91906101000a8154817affffffffffffffffffffffffffffffffffffffffffffffffffffff02191690837affffffffffffffffffffffffffffffffffffffffffffffffffffff1602179055505050565b5f826001015f8373ffffffffffffffffffffffffffffffffffffffff1673ffffffffffffffffffffffffffffffffffffffff1681526020019081526020015f205f0160109054906101000a900464ffffffffff1664ffffffffff16835f015f9054906101000a900464ffffffffff1664ffffffffff16106149d657826001015f8373ffffffffffffffffffffffffffffffffffffffff1673ffffffffffffffffffffffffffffffffffffffff1681526020019081526020015f205f015f9054906101000a900460801b6149db565b5f60801b5b905092915050565b5f6149ef83835f6142ca565b905092915050565b80836001015f8473ffffffffffffffffffffffffffffffffffffffff1673ffffffffffffffffffffffffffffffffffffffff1681526020019081526020015f205f015f6101000a8154816fffffffffffffffffffffffffffffffff021916908360801c021790555042836001015f8473ffffffffffffffffffffffffffffffffffffffff1673ffffffffffffffffffffffffffffffffffffffff1681526020019081526020015f205f0160106101000a81548164ffffffffff021916908364ffffffffff160217905550505050565b5f614ad283835f614db8565b905092915050565b5f808303614aeb57614aea615ebf565b5b5f60708660801c6fffffffffffffffffffffffffffffffff16901c600f0b9050617fff8112614b1d57614b1c615ebf565b5b5f60801b6fffffffffffffffffffffffffffffffff1916866fffffffffffffffffffffffffffffffff19161480614b5357505f85145b15614b64575f60801b915050614d1a565b5f8113614b7457614b73615ebf565b5b5f6e0100000000000000000000000000006dffffffffffffffffffffffffffff8860801c16176fffffffffffffffffffffffffffffffff1690505f614bb8876150d8565b90505f614bc4876150d8565b9050808213614beb57600183901b925081810388901b975060018183030384019350614c0d565b608d8101821315614c0c575f608d8201830390508089901c98508085019450505b5b85614c2257614c1d8389896151bb565b614c2e565b614c2d8389896152ac565b5b92505f8303614c46575f60801b945050505050614d1a565b5f614c50846150d8565b9050607081860113614c6c575f60801b95505050505050614d1a565b6070811315614cc4578615614cb55760016070820360018603901c0193506e0200000000000000000000000000008410614cb057600184901c935084806001019550505b614cbf565b6070810384901c93505b614cd8565b6070811215614cd7578060700384901b93505b5b61806e8186011315614ced57614cec615ebf565b5b6dffffffffffffffffffffffffffff84169350607081038501945083607086901b1760801b955050505050505b949350505050565b5f80614d2d846150d8565b90506070811015614d46578060700384901b9350614d94565b6070811115614d93578215614d885760016070820360018603901c0193506e0200000000000000000000000000008403614d835780806001019150505b614d92565b6070810384901c93505b5b5b607081613fff01901b6dffffffffffffffffffffffffffff85161791505092915050565b5f8060708560801c6fffffffffffffffffffffffffffffffff16901c6fffffffffffffffffffffffffffffffff1690505f60708560801c6fffffffffffffffffffffffffffffffff16901c6fffffffffffffffffffffffffffffffff169050617fff82108015614e295750617fff81105b614e3657614e35615ebf565b5b5f60801b6fffffffffffffffffffffffffffffffff1916866fffffffffffffffffffffffffffffffff191603614e705784925050506150d1565b5f60801b6fffffffffffffffffffffffffffffffff1916856fffffffffffffffffffffffffffffffff191603614eaa5785925050506150d1565b5f6e0100000000000000000000000000006dffffffffffffffffffffffffffff8860801c16176fffffffffffffffffffffffffffffffff1690505f6e0100000000000000000000000000006dffffffffffffffffffffffffffff8860801c16176fffffffffffffffffffffffffffffffff1690505f84118015614f2c57505f83115b614f3957614f38615ebf565b5b5f83850390508615614fc6576070811315614f575760019150614fc1565b5f811315614f705760018160018403901c019150614fc0565b7fffffffffffffffffffffffffffffffffffffffffffffffffffffffffffffff90811215614fa45760019250839450614fbf565b5f811215614fbe576001815f0360018503901c0192508394505b5b5b5b61503a565b6070811315614fdc5788955050505050506150d1565b5f811315614fef578082901c9150615039565b7fffffffffffffffffffffffffffffffffffffffffffffffffffffffffffffff908112156150245787955050505050506150d1565b5f81121561503857805f0383901c92508394505b5b5b81830192506e020000000000000000000000000000831061507a578661506457600183901c61506f565b60018060018503901c015b925084806001019550505b617fff851061508c5761508b615ebf565b5b6e0100000000000000000000000000008310156150ab575f94506150bf565b6dffffffffffffffffffffffffffff831692505b82607086901b1760801b955050505050505b9392505050565b5f8082116150e9576150e8615ebf565b5b5f700100000000000000000000000000000000831061511057608083901c92506080810190505b68010000000000000000831061512e57604083901c92506040810190505b640100000000831061514857602083901c92506020810190505b62010000831061516057601083901c92506010810190505b610100831061517757600883901c92506008810190505b6010831061518d57600483901c92506004810190505b600483106151a357600283901c92506002810190505b600283106151b2576001810190505b80915050919050565b5f805f80198587098587029250828110838203039150505f81036151f0575f84116151e4575f80fd5b838204925050506152a5565b8084116151fb575f80fd5b5f8486880990508281118203915080830392505f856001877fffffffffffffffffffffffffffffffffffffffffffffffffffffffffffffffff030116905080860495508084049350600181825f0304019050808302841793505f600287600302189050808702600203810290508087026002038102905080870260020381029050808702600203810290508087026002038102905080870260020381029050808502955050505050505b9392505050565b5f6152b88484846151bb565b90505f82806152ca576152c9616653565b5b848609111561530d577fffffffffffffffffffffffffffffffffffffffffffffffffffffffffffffffff81106152fe575f80fd5b808061530990616680565b9150505b9392505050565b5f7affffffffffffffffffffffffffffffffffffffffffffffffffffff82169050919050565b61534381615314565b82525050565b5f60208201905061535c5f83018461533a565b92915050565b5f81519050919050565b5f82825260208201905092915050565b5f5b8381101561539957808201518184015260208101905061537e565b5f8484015250505050565b5f601f19601f8301169050919050565b5f6153be82615362565b6153c8818561536c565b93506153d881856020860161537c565b6153e1816153a4565b840191505092915050565b5f6020820190508181035f83015261540481846153b4565b905092915050565b5f604051905090565b5f80fd5b5f73ffffffffffffffffffffffffffffffffffffffff82169050919050565b5f61544282615419565b9050919050565b61545281615438565b811461545c575f80fd5b50565b5f8135905061546d81615449565b92915050565b5f819050919050565b61548581615473565b811461548f575f80fd5b50565b5f813590506154a08161547c565b92915050565b5f80604083850312156154bc576154bb615415565b5b5f6154c98582860161545f565b92505060206154da85828601615492565b9150509250929050565b5f8115159050919050565b6154f8816154e4565b82525050565b5f6020820190506155115f8301846154ef565b92915050565b61552081615473565b82525050565b5f6020820190506155395f830184615517565b92915050565b5f805f6060848603121561555657615555615415565b5b5f6155638682870161545f565b93505060206155748682870161545f565b925050604061558586828701615492565b9150509250925092565b5f602082840312156155a4576155a3615415565b5b5f6155b18482850161545f565b91505092915050565b5f7fffffffffffffffffffffffffffffffff0000000000000000000000000000000082169050919050565b6155ee816155ba565b82525050565b5f6060820190506156075f8301866155e5565b61561460208301856155e5565b61562160408301846155e5565b949350505050565b5f60208201905061563c5f8301846155e5565b92915050565b5f819050919050565b61565481615642565b82525050565b5f60208201905061566d5f83018461564b565b92915050565b5f60ff82169050919050565b61568881615673565b82525050565b5f6020820190506156a15f83018461567f565b92915050565b5f819050919050565b5f6156ca6156c56156c084615419565b6156a7565b615419565b9050919050565b5f6156db826156b0565b9050919050565b5f6156ec826156d1565b9050919050565b6156fc816156e2565b82525050565b5f6020820190506157155f8301846156f3565b92915050565b61572481615438565b82525050565b5f60408201905061573d5f83018561571b565b61574a602083018461571b565b9392505050565b5f6020828403121561576657615765615415565b5b5f61577384828501615492565b91505092915050565b5f815f0b9050919050565b6157908161577c565b82525050565b5f6060820190506157a95f83018661571b565b6157b6602083018561571b565b6157c36040830184615787565b949350505050565b5f6080820190506157de5f830187615517565b6157eb6020830186615517565b6157f860408301856155e5565b61580560608301846155e5565b95945050505050565b61581781615673565b8114615821575f80fd5b50565b5f813590506158328161580e565b92915050565b61584181615642565b811461584b575f80fd5b50565b5f8135905061585c81615838565b92915050565b5f805f805f805f60e0888a03121561587d5761587c615415565b5b5f61588a8a828b0161545f565b975050602061589b8a828b0161545f565b96505060406158ac8a828b01615492565b95505060606158bd8a828b01615492565b94505060806158ce8a828b01615824565b93505060a06158df8a828b0161584e565b92505060c06158f08a828b0161584e565b91505092959891949750929550565b5f806040838503121561591557615914615415565b5b5f6159228582860161545f565b92505060206159338582860161545f565b9150509250929050565b7f4e487b71000000000000000000000000000000000000000000000000000000005f52602260045260245ffd5b5f600282049050600182168061598157607f821691505b6020821081036159945761599361593d565b5b50919050565b5f6020820190506159ad5f83018461571b565b92915050565b6159bc816155ba565b81146159c6575f80fd5b50565b5f815190506159d7816159b3565b92915050565b5f602082840312156159f2576159f1615415565b5b5f6159ff848285016159c9565b91505092915050565b5f815f1c9050919050565b5f819050919050565b5f615a2e615a2983615a08565b615a13565b9050919050565b615a3e81615473565b82525050565b5f8160801b9050919050565b5f615a5a82615a44565b9050919050565b5f615a73615a6e83615a08565b615a50565b9050919050565b615a83816155ba565b82525050565b5f8160801c9050919050565b5f615aa7615aa283615a89565b615a50565b9050919050565b608082015f808301549050615ac281615a1c565b615ace5f860182615a35565b5060018301549050615adf81615a1c565b615aec6020860182615a35565b5060028301549050615afd81615a61565b615b0a6040860182615a7a565b50615b1481615a95565b615b216060860182615a7a565b5050505050565b5f60c082019050615b3b5f830186615aae565b615b486080830185615787565b615b5560a08301846155e5565b949350505050565b5f80fd5b7f4e487b71000000000000000000000000000000000000000000000000000000005f52604160045260245ffd5b615b97826153a4565b810181811067ffffffffffffffff82111715615bb657615bb5615b61565b5b80604052505050565b5f615bc861540c565b9050615bd48282615b8e565b919050565b5f81519050615be78161547c565b92915050565b5f60808284031215615c0257615c01615b5d565b5b615c0c6080615bbf565b90505f615c1b84828501615bd9565b5f830152506020615c2e84828501615bd9565b6020830152506040615c4284828501615bd9565b6040830152506060615c5684828501615bd9565b60608301525092915050565b5f60808284031215615c7757615c76615415565b5b5f615c8484828501615bed565b91505092915050565b7f4e487b71000000000000000000000000000000000000000000000000000000005f52601160045260245ffd5b5f615cc482615473565b9150615ccf83615473565b9250828203905081811115615ce757615ce6615c8d565b5b92915050565b5f60208284031215615d0257615d01615415565b5b5f615d0f84828501615bd9565b91505092915050565b608082015f820151615d2c5f850182615a35565b506020820151615d3f6020850182615a35565b506040820151615d526040850182615a7a565b506060820151615d656060850182615a7a565b50505050565b5f61012082019050615d7f5f830189615d18565b615d8c6080830188615787565b615d9960a08301876155e5565b615da660c0830186615517565b615db360e083018561571b565b615dc16101008301846154ef565b979650505050505050565b5f805f60c08486031215615de357615de2615415565b5b5f615df086828701615bed565b9350506080615e0186828701615bd9565b92505060a0615e1286828701615bd9565b9150509250925092565b5f604082019050615e2f5f83018561571b565b615e3c6020830184615517565b9392505050565b8082525050565b615e5381615438565b82525050565b5f604082019050615e6c5f830185615e43565b615e796020830184615e4a565b9392505050565b5f81519050615e8e81615449565b92915050565b5f60208284031215615ea957615ea8615415565b5b5f615eb684828501615e80565b91505092915050565b7f4e487b71000000000000000000000000000000000000000000000000000000005f52600160045260245ffd5b5f61012082019050615f005f830189615d18565b615f0d6080830188615787565b615f1a60a08301876155e5565b615f2760c0830186615517565b615f3460e0830185615517565b615f426101008301846154ef565b979650505050505050565b5f60e082019050615f605f830187615d18565b615f6d6080830186615787565b615f7a60a08301856155e5565b615f8760c083018461571b565b95945050505050565b5f8060408385031215615fa657615fa5615415565b5b5f615fb385828601615bd9565b9250506020615fc485828601615bd9565b9150509250929050565b5f615fd882615473565b9150615fe383615473565b9250828201905080821115615ffb57615ffa615c8d565b5b92915050565b7f45524332303a207472616e7366657220746f20746865207a65726f20616464725f8201527f6573730000000000000000000000000000000000000000000000000000000000602082015250565b5f61605b60238361536c565b915061606682616001565b604082019050919050565b5f6020820190508181035f8301526160888161604f565b9050919050565b5f6080820190506160a25f83018761571b565b6160af60208301866155e5565b6160bc60408301856155e5565b6160c960608301846155e5565b95945050505050565b7f5045524d49545f444541444c494e455f455850495245440000000000000000005f82015250565b5f61610660178361536c565b9150616111826160d2565b602082019050919050565b5f6020820190508181035f830152616133816160fa565b9050919050565b5f60c08201905061614d5f83018961564b565b61615a602083018861571b565b616167604083018761571b565b6161746060830186615517565b6161816080830185615517565b61618e60a0830184615517565b979650505050505050565b5f81905092915050565b7f19010000000000000000000000000000000000000000000000000000000000005f82015250565b5f6161d7600283616199565b91506161e2826161a3565b600282019050919050565b5f819050919050565b61620761620282615642565b6161ed565b82525050565b5f616217826161cb565b915061622382856161f6565b60208201915061623382846161f6565b6020820191508190509392505050565b5f6080820190506162565f83018761564b565b616263602083018661567f565b616270604083018561564b565b61627d606083018461564b565b95945050505050565b7f494e56414c49445f5045524d49545f5349474e415455524500000000000000005f82015250565b5f6162ba60188361536c565b91506162c582616286565b602082019050919050565b5f6020820190508181035f8301526162e7816162ae565b9050919050565b5f60e0820190506163015f830187615d18565b61630e6080830186615787565b61631b60a08301856155e5565b61632860c0830184615517565b95945050505050565b5f81905092915050565b5f819050815f5260205f209050919050565b5f81546163598161596a565b6163638186616331565b9450600182165f811461637d5760018114616392576163c4565b60ff19831686528115158202860193506163c4565b61639b8561633b565b5f5b838110156163bc5781548189015260018201915060208101905061639d565b838801955050505b50505092915050565b5f6163d8828461634d565b915081905092915050565b5f60a0820190506163f65f83018861564b565b616403602083018761564b565b616410604083018661564b565b61641d6060830185615517565b61642a608083018461571b565b9695505050505050565b5f81519050919050565b5f61644882616434565b6164528185616331565b935061646281856020860161537c565b80840191505092915050565b5f616479828461643e565b915081905092915050565b61648d816154e4565b8114616497575f80fd5b50565b5f815190506164a881616484565b92915050565b5f602082840312156164c3576164c2615415565b5b5f6164d08482850161649a565b91505092915050565b7f53540000000000000000000000000000000000000000000000000000000000005f82015250565b5f61650d60028361536c565b9150616518826164d9565b602082019050919050565b5f6020820190508181035f83015261653a81616501565b9050919050565b7f496e73756666696369656e742062616c616e63650000000000000000000000005f82015250565b5f61657560148361536c565b915061658082616541565b602082019050919050565b5f6020820190508181035f8301526165a281616569565b9050919050565b7f55460000000000000000000000000000000000000000000000000000000000005f82015250565b5f6165dd60028361536c565b91506165e8826165a9565b602082019050919050565b5f6020820190508181035f83015261660a816165d1565b9050919050565b5f61661b82615314565b91507affffffffffffffffffffffffffffffffffffffffffffffffffffff820361664857616647615c8d565b5b600182019050919050565b7f4e487b71000000000000000000000000000000000000000000000000000000005f52601260045260245ffd5b5f61668a82615473565b91507fffffffffffffffffffffffffffffffffffffffffffffffffffffffffffffffff82036166bc576166bb615c8d565b5b60018201905091905056fea264697066735822122037928f787c1ad9f4c1cfaa3c8ff34db5b6443d7cb76d755f4da98d2b9893215364736f6c63430008140033",
  "linkReferences": {
    "src/libraries/DeployerOfTokens.sol": {
      "DeployerOfTokens": [
        {
          "length": 20,
          "start": 427
        }
      ]
    },
    "src/libraries/ResettableBalancesBytes16.sol": {
      "ResettableBalancesBytes16": [
        {
          "length": 20,
          "start": 8646
        },
        {
          "length": 20,
          "start": 8794
        },
        {
          "length": 20,
          "start": 10722
        },
        {
          "length": 20,
          "start": 10989
        },
        {
          "length": 20,
          "start": 13326
        },
        {
          "length": 20,
          "start": 13820
        },
        {
          "length": 20,
          "start": 17253
        },
        {
          "length": 20,
          "start": 17593
        },
        {
          "length": 20,
          "start": 18230
        },
        {
          "length": 20,
          "start": 20384
        },
        {
          "length": 20,
          "start": 21084
        }
      ]
    }
  },
  "deployedLinkReferences": {
    "src/libraries/ResettableBalancesBytes16.sol": {
      "ResettableBalancesBytes16": [
        {
          "length": 20,
          "start": 3973
        },
        {
          "length": 20,
          "start": 4121
        },
        {
          "length": 20,
          "start": 6049
        },
        {
          "length": 20,
          "start": 6316
        },
        {
          "length": 20,
          "start": 8653
        },
        {
          "length": 20,
          "start": 9147
        },
        {
          "length": 20,
          "start": 12580
        },
        {
          "length": 20,
          "start": 12920
        },
        {
          "length": 20,
          "start": 13557
        },
        {
          "length": 20,
          "start": 15711
        },
        {
          "length": 20,
          "start": 16411
        }
      ]
    }
  }
}