{
  "_format": "hh-sol-artifact-1",
  "contractName": "SIR",
  "sourceName": "src/SIR.sol",
  "abi": [
    {
      "inputs": [
        {
          "internalType": "address",
          "name": "systemState",
          "type": "address"
        },
        {
          "internalType": "address",
          "name": "systemControl",
          "type": "address"
        }
      ],
      "stateMutability": "nonpayable",
      "type": "constructor"
    },
    {
      "anonymous": false,
      "inputs": [
        {
          "indexed": true,
          "internalType": "address",
          "name": "owner",
          "type": "address"
        },
        {
          "indexed": true,
          "internalType": "address",
          "name": "spender",
          "type": "address"
        },
        {
          "indexed": false,
          "internalType": "uint256",
          "name": "amount",
          "type": "uint256"
        }
      ],
      "name": "Approval",
      "type": "event"
    },
    {
      "anonymous": false,
      "inputs": [
        {
          "indexed": true,
          "internalType": "address",
          "name": "from",
          "type": "address"
        },
        {
          "indexed": true,
          "internalType": "address",
          "name": "to",
          "type": "address"
        },
        {
          "indexed": false,
          "internalType": "uint256",
          "name": "amount",
          "type": "uint256"
        }
      ],
      "name": "Transfer",
      "type": "event"
    },
    {
      "inputs": [],
      "name": "DOMAIN_SEPARATOR",
      "outputs": [
        {
          "internalType": "bytes32",
          "name": "",
          "type": "bytes32"
        }
      ],
      "stateMutability": "view",
      "type": "function"
    },
    {
      "inputs": [],
      "name": "ISSUANCE",
      "outputs": [
        {
          "internalType": "uint72",
          "name": "",
          "type": "uint72"
        }
      ],
      "stateMutability": "view",
      "type": "function"
    },
    {
      "inputs": [],
      "name": "aggIssuanceContributors",
      "outputs": [
        {
          "internalType": "uint72",
          "name": "",
          "type": "uint72"
        }
      ],
      "stateMutability": "view",
      "type": "function"
    },
    {
      "inputs": [
        {
          "internalType": "address",
          "name": "",
          "type": "address"
        },
        {
          "internalType": "address",
          "name": "",
          "type": "address"
        }
      ],
      "name": "allowance",
      "outputs": [
        {
          "internalType": "uint256",
          "name": "",
          "type": "uint256"
        }
      ],
      "stateMutability": "view",
      "type": "function"
    },
    {
      "inputs": [
        {
          "internalType": "address",
          "name": "spender",
          "type": "address"
        },
        {
          "internalType": "uint256",
          "name": "amount",
          "type": "uint256"
        }
      ],
      "name": "approve",
      "outputs": [
        {
          "internalType": "bool",
          "name": "",
          "type": "bool"
        }
      ],
      "stateMutability": "nonpayable",
      "type": "function"
    },
    {
      "inputs": [
        {
          "internalType": "address",
          "name": "",
          "type": "address"
        }
      ],
      "name": "balanceOf",
      "outputs": [
        {
          "internalType": "uint256",
          "name": "",
          "type": "uint256"
        }
      ],
      "stateMutability": "view",
      "type": "function"
    },
    {
      "inputs": [
        {
          "internalType": "address[]",
          "name": "contributors_",
          "type": "address[]"
        },
        {
          "internalType": "uint72[]",
          "name": "contributorIssuances_",
          "type": "uint72[]"
        }
      ],
      "name": "changeContributorsIssuances",
      "outputs": [
        {
          "internalType": "bool",
          "name": "",
          "type": "bool"
        }
      ],
      "stateMutability": "nonpayable",
      "type": "function"
    },
    {
      "inputs": [],
      "name": "contributorMint",
      "outputs": [],
      "stateMutability": "nonpayable",
      "type": "function"
    },
    {
      "inputs": [
        {
          "internalType": "uint256",
          "name": "",
          "type": "uint256"
        }
      ],
      "name": "contributors",
      "outputs": [
        {
          "internalType": "address",
          "name": "",
          "type": "address"
        }
      ],
      "stateMutability": "view",
      "type": "function"
    },
    {
      "inputs": [],
      "name": "decimals",
      "outputs": [
        {
          "internalType": "uint8",
          "name": "",
          "type": "uint8"
        }
      ],
      "stateMutability": "view",
      "type": "function"
    },
    {
      "inputs": [
        {
          "internalType": "address",
          "name": "contributor",
          "type": "address"
        }
      ],
      "name": "getContributorIssuance",
      "outputs": [
        {
          "components": [
            {
              "internalType": "uint72",
              "name": "issuance",
              "type": "uint72"
            },
            {
              "internalType": "uint40",
              "name": "tsLastUpdate",
              "type": "uint40"
            },
            {
              "internalType": "uint104",
              "name": "unclaimedRewards",
              "type": "uint104"
            }
          ],
          "internalType": "struct SIR.ContributorIssuanceParams",
          "name": "contributorParams",
          "type": "tuple"
        }
      ],
      "stateMutability": "view",
      "type": "function"
    },
    {
      "inputs": [
        {
          "internalType": "uint256",
          "name": "vaultId",
          "type": "uint256"
        }
      ],
      "name": "lPerMint",
      "outputs": [],
      "stateMutability": "nonpayable",
      "type": "function"
    },
    {
      "inputs": [],
      "name": "maxTotalSupply",
      "outputs": [
        {
          "internalType": "uint256",
          "name": "",
          "type": "uint256"
        }
      ],
      "stateMutability": "view",
      "type": "function"
    },
    {
      "inputs": [],
      "name": "name",
      "outputs": [
        {
          "internalType": "string",
          "name": "",
          "type": "string"
        }
      ],
      "stateMutability": "view",
      "type": "function"
    },
    {
      "inputs": [
        {
          "internalType": "address",
          "name": "",
          "type": "address"
        }
      ],
      "name": "nonces",
      "outputs": [
        {
          "internalType": "uint256",
          "name": "",
          "type": "uint256"
        }
      ],
      "stateMutability": "view",
      "type": "function"
    },
    {
      "inputs": [
        {
          "internalType": "address",
          "name": "owner",
          "type": "address"
        },
        {
          "internalType": "address",
          "name": "spender",
          "type": "address"
        },
        {
          "internalType": "uint256",
          "name": "value",
          "type": "uint256"
        },
        {
          "internalType": "uint256",
          "name": "deadline",
          "type": "uint256"
        },
        {
          "internalType": "uint8",
          "name": "v",
          "type": "uint8"
        },
        {
          "internalType": "bytes32",
          "name": "r",
          "type": "bytes32"
        },
        {
          "internalType": "bytes32",
          "name": "s",
          "type": "bytes32"
        }
      ],
      "name": "permit",
      "outputs": [],
      "stateMutability": "nonpayable",
      "type": "function"
    },
    {
      "inputs": [],
      "name": "symbol",
      "outputs": [
        {
          "internalType": "string",
          "name": "",
          "type": "string"
        }
      ],
      "stateMutability": "view",
      "type": "function"
    },
    {
      "inputs": [],
      "name": "totalSupply",
      "outputs": [
        {
          "internalType": "uint256",
          "name": "",
          "type": "uint256"
        }
      ],
      "stateMutability": "view",
      "type": "function"
    },
    {
      "inputs": [
        {
          "internalType": "address",
          "name": "to",
          "type": "address"
        },
        {
          "internalType": "uint256",
          "name": "amount",
          "type": "uint256"
        }
      ],
      "name": "transfer",
      "outputs": [
        {
          "internalType": "bool",
          "name": "",
          "type": "bool"
        }
      ],
      "stateMutability": "nonpayable",
      "type": "function"
    },
    {
      "inputs": [
        {
          "internalType": "address",
          "name": "from",
          "type": "address"
        },
        {
          "internalType": "address",
          "name": "to",
          "type": "address"
        },
        {
          "internalType": "uint256",
          "name": "amount",
          "type": "uint256"
        }
      ],
      "name": "transferFrom",
      "outputs": [
        {
          "internalType": "bool",
          "name": "",
          "type": "bool"
        }
      ],
      "stateMutability": "nonpayable",
      "type": "function"
    }
  ],
  "bytecode": "0x61012060405234801562000011575f80fd5b5060405162002d9638038062002d9683398181016040528101906200003791906200025e565b806040518060400160405280601c81526020017f53796e7468657469637320496d706c656d656e746564205269676874000000008152506040518060400160405280600381526020017f53495200000000000000000000000000000000000000000000000000000000008152506012825f9081620000b6919062000507565b508160019081620000c8919062000507565b508060ff1660808160ff16815250504660a08181525050620000ef6200016b60201b60201c565b60c081815250505050508073ffffffffffffffffffffffffffffffffffffffff1660e08173ffffffffffffffffffffffffffffffffffffffff1681525050508173ffffffffffffffffffffffffffffffffffffffff166101008173ffffffffffffffffffffffffffffffffffffffff1681525050505062000742565b5f7f8b73c3c69bb8fe3d512ecc4cf759cc79239f7b179b0ffacaa9a75d522b39400f5f6040516200019d919062000693565b60405180910390207fc89efdaa54c0f20c7adf612882df0950f5a951637e0307cdcb4c672f298b8bc64630604051602001620001de959493929190620006e7565b60405160208183030381529060405280519060200120905090565b5f80fd5b5f73ffffffffffffffffffffffffffffffffffffffff82169050919050565b5f6200022882620001fd565b9050919050565b6200023a816200021c565b811462000245575f80fd5b50565b5f8151905062000258816200022f565b92915050565b5f8060408385031215620002775762000276620001f9565b5b5f620002868582860162000248565b9250506020620002998582860162000248565b9150509250929050565b5f81519050919050565b7f4e487b71000000000000000000000000000000000000000000000000000000005f52604160045260245ffd5b7f4e487b71000000000000000000000000000000000000000000000000000000005f52602260045260245ffd5b5f60028204905060018216806200031f57607f821691505b602082108103620003355762000334620002da565b5b50919050565b5f819050815f5260205f209050919050565b5f6020601f8301049050919050565b5f82821b905092915050565b5f60088302620003997fffffffffffffffffffffffffffffffffffffffffffffffffffffffffffffffff826200035c565b620003a586836200035c565b95508019841693508086168417925050509392505050565b5f819050919050565b5f819050919050565b5f620003ef620003e9620003e384620003bd565b620003c6565b620003bd565b9050919050565b5f819050919050565b6200040a83620003cf565b620004226200041982620003f6565b84845462000368565b825550505050565b5f90565b620004386200042a565b62000445818484620003ff565b505050565b5b818110156200046c57620004605f826200042e565b6001810190506200044b565b5050565b601f821115620004bb5762000485816200033b565b62000490846200034d565b81016020851015620004a0578190505b620004b8620004af856200034d565b8301826200044a565b50505b505050565b5f82821c905092915050565b5f620004dd5f1984600802620004c0565b1980831691505092915050565b5f620004f78383620004cc565b9150826002028217905092915050565b6200051282620002a3565b67ffffffffffffffff8111156200052e576200052d620002ad565b5b6200053a825462000307565b6200054782828562000470565b5f60209050601f8311600181146200057d575f841562000568578287015190505b620005748582620004ea565b865550620005e3565b601f1984166200058d866200033b565b5f5b82811015620005b6578489015182556001820191506020850194506020810190506200058f565b86831015620005d65784890151620005d2601f891682620004cc565b8355505b6001600288020188555050505b505050505050565b5f81905092915050565b5f819050815f5260205f209050919050565b5f8154620006158162000307565b620006218186620005eb565b9450600182165f81146200063e576001811462000654576200068a565b60ff19831686528115158202860193506200068a565b6200065f85620005f5565b5f5b83811015620006825781548189015260018201915060208101905062000661565b838801955050505b50505092915050565b5f620006a0828462000607565b915081905092915050565b5f819050919050565b620006bf81620006ab565b82525050565b620006d081620003bd565b82525050565b620006e1816200021c565b82525050565b5f60a082019050620006fc5f830188620006b4565b6200070b6020830187620006b4565b6200071a6040830186620006b4565b620007296060830185620006c5565b620007386080830184620006d6565b9695505050505050565b60805160a05160c05160e051610100516126086200078e5f395f8181610c1501528181610db40152610f6101525f6106d401525f610d5101525f610d1d01525f610cf801526126085ff3fe608060405234801561000f575f80fd5b506004361061012a575f3560e01c8063460028c9116100ab578063a0dba3aa1161006f578063a0dba3aa14610346578063a9059cbb14610376578063b0267379146103a6578063d505accf146103c4578063dd62ed3e146103e05761012a565b8063460028c91461028e57806370a08231146102aa5780637ecebe00146102da578063869f4b561461030a57806395d89b41146103285761012a565b806323b872dd116100f257806323b872dd146101d45780632ab4d05214610204578063313ce567146102225780633644e515146102405780633cb5d1001461025e5761012a565b806306fdde031461012e578063095ea7b31461014c578063138d052f1461017c57806318160ddd146101865780631b3c5ef8146101a4575b5f80fd5b610136610410565b6040516101439190611838565b60405180910390f35b610166600480360381019061016191906118ed565b61049b565b6040516101739190611945565b60405180910390f35b610184610588565b005b61018e6106cb565b60405161019b919061196d565b60405180910390f35b6101be60048036038101906101b99190611a3c565b6106d1565b6040516101cb9190611945565b60405180910390f35b6101ee60048036038101906101e99190611aba565b6109d6565b6040516101fb9190611945565b60405180910390f35b61020c610c11565b604051610219919061196d565b60405180910390f35b61022a610cf6565b6040516102379190611b25565b60405180910390f35b610248610d1a565b6040516102559190611b56565b60405180910390f35b61027860048036038101906102739190611b6f565b610d76565b6040516102859190611ba9565b60405180910390f35b6102a860048036038101906102a39190611b6f565b610db1565b005b6102c460048036038101906102bf9190611bc2565b610e86565b6040516102d1919061196d565b60405180910390f35b6102f460048036038101906102ef9190611bc2565b610e9b565b604051610301919061196d565b60405180910390f35b610312610eb0565b60405161031f9190611c10565b60405180910390f35b610330610eca565b60405161033d9190611838565b60405180910390f35b610360600480360381019061035b9190611bc2565b610f56565b60405161036d9190611cbe565b60405180910390f35b610390600480360381019061038b91906118ed565b6111f3565b60405161039d9190611945565b60405180910390f35b6103ae611300565b6040516103bb9190611c10565b60405180910390f35b6103de60048036038101906103d99190611d2b565b61130d565b005b6103fa60048036038101906103f59190611dc8565b6115fa565b604051610407919061196d565b60405180910390f35b5f805461041c90611e33565b80601f016020809104026020016040519081016040528092919081815260200182805461044890611e33565b80156104935780601f1061046a57610100808354040283529160200191610493565b820191905f5260205f20905b81548152906001019060200180831161047657829003601f168201915b505050505081565b5f8160045f3373ffffffffffffffffffffffffffffffffffffffff1673ffffffffffffffffffffffffffffffffffffffff1681526020019081526020015f205f8573ffffffffffffffffffffffffffffffffffffffff1673ffffffffffffffffffffffffffffffffffffffff1681526020019081526020015f20819055508273ffffffffffffffffffffffffffffffffffffffff163373ffffffffffffffffffffffffffffffffffffffff167f8c5be1e5ebec7d5bd14f71427d1e84f3dd0314c0f7b2291e5b200ac8c7c3b92584604051610576919061196d565b60405180910390a36001905092915050565b5f61059233610f56565b90505f81604001516cffffffffffffffffffffffffff16116105b2575f80fd5b6105cf3382604001516cffffffffffffffffffffffffff1661161a565b5f81604001906cffffffffffffffffffffffffff1690816cffffffffffffffffffffffffff16815250508060085f3373ffffffffffffffffffffffffffffffffffffffff1673ffffffffffffffffffffffffffffffffffffffff1681526020019081526020015f205f820151815f015f6101000a81548168ffffffffffffffffff021916908368ffffffffffffffffff1602179055506020820151815f0160096101000a81548164ffffffffff021916908364ffffffffff1602179055506040820151815f01600e6101000a8154816cffffffffffffffffffffffffff02191690836cffffffffffffffffffffffffff16021790555090505050565b60025481565b5f7f000000000000000000000000000000000000000000000000000000000000000073ffffffffffffffffffffffffffffffffffffffff163373ffffffffffffffffffffffffffffffffffffffff1614610729575f80fd5b5f805f8787905090505f5b8181101561090b575f61076d8a8a8481811061075357610752611e63565b5b90506020020160208101906107689190611bc2565b610f56565b905087878381811061078257610781611e63565b5b90506020020160208101906107979190611eba565b68ffffffffffffffffff1685019450805f015168ffffffffffffffffff16840193508787838181106107cc576107cb611e63565b5b90506020020160208101906107e19190611eba565b815f019068ffffffffffffffffff16908168ffffffffffffffffff16815250508060085f8c8c8681811061081857610817611e63565b5b905060200201602081019061082d9190611bc2565b73ffffffffffffffffffffffffffffffffffffffff1673ffffffffffffffffffffffffffffffffffffffff1681526020019081526020015f205f820151815f015f6101000a81548168ffffffffffffffffff021916908368ffffffffffffffffff1602179055506020820151815f0160096101000a81548164ffffffffff021916908364ffffffffff1602179055506040820151815f01600e6101000a8154816cffffffffffffffffffffffffff02191690836cffffffffffffffffffffffffff16021790555090505050808061090390611f12565b915050610734565b505f828460065f9054906101000a900468ffffffffffffffffff1668ffffffffffffffffff1661093b9190611f59565b6109459190611f8c565b90508060065f6101000a81548168ffffffffffffffffff021916908368ffffffffffffffffff160217905550600a600968056bc75e2d631000006109899190611fbf565b6109939190612028565b68056bc75e2d631000006109a79190612058565b68ffffffffffffffffff168111156109c5575f9450505050506109ce565b60019450505050505b949350505050565b5f8060045f8673ffffffffffffffffffffffffffffffffffffffff1673ffffffffffffffffffffffffffffffffffffffff1681526020019081526020015f205f3373ffffffffffffffffffffffffffffffffffffffff1673ffffffffffffffffffffffffffffffffffffffff1681526020019081526020015f205490507fffffffffffffffffffffffffffffffffffffffffffffffffffffffffffffffff8114610b03578281610a869190611f8c565b60045f8773ffffffffffffffffffffffffffffffffffffffff1673ffffffffffffffffffffffffffffffffffffffff1681526020019081526020015f205f3373ffffffffffffffffffffffffffffffffffffffff1673ffffffffffffffffffffffffffffffffffffffff1681526020019081526020015f20819055505b8260035f8773ffffffffffffffffffffffffffffffffffffffff1673ffffffffffffffffffffffffffffffffffffffff1681526020019081526020015f205f828254610b4f9190611f8c565b925050819055508260035f8673ffffffffffffffffffffffffffffffffffffffff1673ffffffffffffffffffffffffffffffffffffffff1681526020019081526020015f205f82825401925050819055508373ffffffffffffffffffffffffffffffffffffffff168573ffffffffffffffffffffffffffffffffffffffff167fddf252ad1be2c89b69c2b068fc378daa952ba7f163c4a11628f55a4df523b3ef85604051610bfd919061196d565b60405180910390a360019150509392505050565b5f807f000000000000000000000000000000000000000000000000000000000000000073ffffffffffffffffffffffffffffffffffffffff1663458e8e6b6040518163ffffffff1660e01b815260040160a060405180830381865afa158015610c7c573d5f803e3d5ffd5b505050506040513d601f19601f82011682018060405250810190610ca0919061217f565b5050505090505f8164ffffffffff1603610cbd575f915050610cf3565b8064ffffffffff1642610cd09190611f8c565b68056bc75e2d6310000068ffffffffffffffffff16610cef91906121f6565b9150505b90565b7f000000000000000000000000000000000000000000000000000000000000000081565b5f7f00000000000000000000000000000000000000000000000000000000000000004614610d4f57610d4a6116e5565b610d71565b7f00000000000000000000000000000000000000000000000000000000000000005b905090565b60078181548110610d85575f80fd5b905f5260205f20015f915054906101000a900473ffffffffffffffffffffffffffffffffffffffff1681565b5f7f000000000000000000000000000000000000000000000000000000000000000073ffffffffffffffffffffffffffffffffffffffff1663752e187583336040518363ffffffff1660e01b8152600401610e0d929190612237565b6020604051808303815f875af1158015610e29573d5f803e3d5ffd5b505050506040513d601f19601f82011682018060405250810190610e4d9190612288565b90505f816cffffffffffffffffffffffffff1611610e69575f80fd5b610e8233826cffffffffffffffffffffffffff1661161a565b5050565b6003602052805f5260405f205f915090505481565b6005602052805f5260405f205f915090505481565b60065f9054906101000a900468ffffffffffffffffff1681565b60018054610ed790611e33565b80601f0160208091040260200160405190810160405280929190818152602001828054610f0390611e33565b8015610f4e5780601f10610f2557610100808354040283529160200191610f4e565b820191905f5260205f20905b815481529060010190602001808311610f3157829003601f168201915b505050505081565b610f5e61176f565b5f7f000000000000000000000000000000000000000000000000000000000000000073ffffffffffffffffffffffffffffffffffffffff1663458e8e6b6040518163ffffffff1660e01b815260040160a060405180830381865afa158015610fc8573d5f803e3d5ffd5b505050506040513d601f19601f82011682018060405250810190610fec919061217f565b50505050905042826020019064ffffffffff16908164ffffffffff16815250505f8164ffffffffff160361102057506111ee565b60085f8473ffffffffffffffffffffffffffffffffffffffff1673ffffffffffffffffffffffffffffffffffffffff1681526020019081526020015f206040518060600160405290815f82015f9054906101000a900468ffffffffffffffffff1668ffffffffffffffffff1668ffffffffffffffffff1681526020015f820160099054906101000a900464ffffffffff1664ffffffffff1664ffffffffff1681526020015f8201600e9054906101000a90046cffffffffffffffffffffffffff166cffffffffffffffffffffffffff166cffffffffffffffffffffffffff168152505091505f6305a39a80820190508064ffffffffff16836020015164ffffffffff161061112f5750506111ee565b5f8164ffffffffff164264ffffffffff16101590505f846020015164ffffffffff168464ffffffffff16119050845f015168ffffffffffffffffff168161117a57856020015161117c565b845b836111875742611189565b845b0364ffffffffff160285604001818151019150906cffffffffffffffffffffffffff1690816cffffffffffffffffffffffffff168152505081156111e9575f855f019068ffffffffffffffffff16908168ffffffffffffffffff16815250505b505050505b919050565b5f8160035f3373ffffffffffffffffffffffffffffffffffffffff1673ffffffffffffffffffffffffffffffffffffffff1681526020019081526020015f205f8282546112409190611f8c565b925050819055508160035f8573ffffffffffffffffffffffffffffffffffffffff1673ffffffffffffffffffffffffffffffffffffffff1681526020019081526020015f205f82825401925050819055508273ffffffffffffffffffffffffffffffffffffffff163373ffffffffffffffffffffffffffffffffffffffff167fddf252ad1be2c89b69c2b068fc378daa952ba7f163c4a11628f55a4df523b3ef846040516112ee919061196d565b60405180910390a36001905092915050565b68056bc75e2d6310000081565b42841015611350576040517f08c379a0000000000000000000000000000000000000000000000000000000008152600401611347906122fd565b60405180910390fd5b5f600161135b610d1a565b7f6e71edae12b1b97f4d1f60370fef10105fa2faae0126114a169c64845d6126c98a8a8a60055f8f73ffffffffffffffffffffffffffffffffffffffff1673ffffffffffffffffffffffffffffffffffffffff1681526020019081526020015f205f815480929190600101919050558b6040516020016113e09695949392919061231b565b604051602081830303815290604052805190602001206040516020016114079291906123ee565b604051602081830303815290604052805190602001208585856040515f815260200160405260405161143c9493929190612424565b6020604051602081039080840390855afa15801561145c573d5f803e3d5ffd5b5050506020604051035190505f73ffffffffffffffffffffffffffffffffffffffff168173ffffffffffffffffffffffffffffffffffffffff16141580156114cf57508773ffffffffffffffffffffffffffffffffffffffff168173ffffffffffffffffffffffffffffffffffffffff16145b61150e576040517f08c379a0000000000000000000000000000000000000000000000000000000008152600401611505906124b1565b60405180910390fd5b8560045f8373ffffffffffffffffffffffffffffffffffffffff1673ffffffffffffffffffffffffffffffffffffffff1681526020019081526020015f205f8973ffffffffffffffffffffffffffffffffffffffff1673ffffffffffffffffffffffffffffffffffffffff1681526020019081526020015f2081905550508573ffffffffffffffffffffffffffffffffffffffff168773ffffffffffffffffffffffffffffffffffffffff167f8c5be1e5ebec7d5bd14f71427d1e84f3dd0314c0f7b2291e5b200ac8c7c3b925876040516115e9919061196d565b60405180910390a350505050505050565b6004602052815f5260405f20602052805f5260405f205f91509150505481565b8060025f82825461162b9190611f59565b925050819055508060035f8473ffffffffffffffffffffffffffffffffffffffff1673ffffffffffffffffffffffffffffffffffffffff1681526020019081526020015f205f82825401925050819055508173ffffffffffffffffffffffffffffffffffffffff165f73ffffffffffffffffffffffffffffffffffffffff167fddf252ad1be2c89b69c2b068fc378daa952ba7f163c4a11628f55a4df523b3ef836040516116d9919061196d565b60405180910390a35050565b5f7f8b73c3c69bb8fe3d512ecc4cf759cc79239f7b179b0ffacaa9a75d522b39400f5f604051611715919061256b565b60405180910390207fc89efdaa54c0f20c7adf612882df0950f5a951637e0307cdcb4c672f298b8bc64630604051602001611754959493929190612581565b60405160208183030381529060405280519060200120905090565b60405180606001604052805f68ffffffffffffffffff1681526020015f64ffffffffff1681526020015f6cffffffffffffffffffffffffff1681525090565b5f81519050919050565b5f82825260208201905092915050565b5f5b838110156117e55780820151818401526020810190506117ca565b5f8484015250505050565b5f601f19601f8301169050919050565b5f61180a826117ae565b61181481856117b8565b93506118248185602086016117c8565b61182d816117f0565b840191505092915050565b5f6020820190508181035f8301526118508184611800565b905092915050565b5f80fd5b5f80fd5b5f73ffffffffffffffffffffffffffffffffffffffff82169050919050565b5f61188982611860565b9050919050565b6118998161187f565b81146118a3575f80fd5b50565b5f813590506118b481611890565b92915050565b5f819050919050565b6118cc816118ba565b81146118d6575f80fd5b50565b5f813590506118e7816118c3565b92915050565b5f806040838503121561190357611902611858565b5b5f611910858286016118a6565b9250506020611921858286016118d9565b9150509250929050565b5f8115159050919050565b61193f8161192b565b82525050565b5f6020820190506119585f830184611936565b92915050565b611967816118ba565b82525050565b5f6020820190506119805f83018461195e565b92915050565b5f80fd5b5f80fd5b5f80fd5b5f8083601f8401126119a7576119a6611986565b5b8235905067ffffffffffffffff8111156119c4576119c361198a565b5b6020830191508360208202830111156119e0576119df61198e565b5b9250929050565b5f8083601f8401126119fc576119fb611986565b5b8235905067ffffffffffffffff811115611a1957611a1861198a565b5b602083019150836020820283011115611a3557611a3461198e565b5b9250929050565b5f805f8060408587031215611a5457611a53611858565b5b5f85013567ffffffffffffffff811115611a7157611a7061185c565b5b611a7d87828801611992565b9450945050602085013567ffffffffffffffff811115611aa057611a9f61185c565b5b611aac878288016119e7565b925092505092959194509250565b5f805f60608486031215611ad157611ad0611858565b5b5f611ade868287016118a6565b9350506020611aef868287016118a6565b9250506040611b00868287016118d9565b9150509250925092565b5f60ff82169050919050565b611b1f81611b0a565b82525050565b5f602082019050611b385f830184611b16565b92915050565b5f819050919050565b611b5081611b3e565b82525050565b5f602082019050611b695f830184611b47565b92915050565b5f60208284031215611b8457611b83611858565b5b5f611b91848285016118d9565b91505092915050565b611ba38161187f565b82525050565b5f602082019050611bbc5f830184611b9a565b92915050565b5f60208284031215611bd757611bd6611858565b5b5f611be4848285016118a6565b91505092915050565b5f68ffffffffffffffffff82169050919050565b611c0a81611bed565b82525050565b5f602082019050611c235f830184611c01565b92915050565b611c3281611bed565b82525050565b5f64ffffffffff82169050919050565b611c5181611c38565b82525050565b5f6cffffffffffffffffffffffffff82169050919050565b611c7881611c57565b82525050565b606082015f820151611c925f850182611c29565b506020820151611ca56020850182611c48565b506040820151611cb86040850182611c6f565b50505050565b5f606082019050611cd15f830184611c7e565b92915050565b611ce081611b0a565b8114611cea575f80fd5b50565b5f81359050611cfb81611cd7565b92915050565b611d0a81611b3e565b8114611d14575f80fd5b50565b5f81359050611d2581611d01565b92915050565b5f805f805f805f60e0888a031215611d4657611d45611858565b5b5f611d538a828b016118a6565b9750506020611d648a828b016118a6565b9650506040611d758a828b016118d9565b9550506060611d868a828b016118d9565b9450506080611d978a828b01611ced565b93505060a0611da88a828b01611d17565b92505060c0611db98a828b01611d17565b91505092959891949750929550565b5f8060408385031215611dde57611ddd611858565b5b5f611deb858286016118a6565b9250506020611dfc858286016118a6565b9150509250929050565b7f4e487b71000000000000000000000000000000000000000000000000000000005f52602260045260245ffd5b5f6002820490506001821680611e4a57607f821691505b602082108103611e5d57611e5c611e06565b5b50919050565b7f4e487b71000000000000000000000000000000000000000000000000000000005f52603260045260245ffd5b611e9981611bed565b8114611ea3575f80fd5b50565b5f81359050611eb481611e90565b92915050565b5f60208284031215611ecf57611ece611858565b5b5f611edc84828501611ea6565b91505092915050565b7f4e487b71000000000000000000000000000000000000000000000000000000005f52601160045260245ffd5b5f611f1c826118ba565b91507fffffffffffffffffffffffffffffffffffffffffffffffffffffffffffffffff8203611f4e57611f4d611ee5565b5b600182019050919050565b5f611f63826118ba565b9150611f6e836118ba565b9250828201905080821115611f8657611f85611ee5565b5b92915050565b5f611f96826118ba565b9150611fa1836118ba565b9250828203905081811115611fb957611fb8611ee5565b5b92915050565b5f611fc982611bed565b9150611fd483611bed565b9250828202611fe281611bed565b9150808214611ff457611ff3611ee5565b5b5092915050565b7f4e487b71000000000000000000000000000000000000000000000000000000005f52601260045260245ffd5b5f61203282611bed565b915061203d83611bed565b92508261204d5761204c611ffb565b5b828204905092915050565b5f61206282611bed565b915061206d83611bed565b9250828203905068ffffffffffffffffff81111561208e5761208d611ee5565b5b92915050565b61209d81611c38565b81146120a7575f80fd5b50565b5f815190506120b881612094565b92915050565b5f61ffff82169050919050565b6120d4816120be565b81146120de575f80fd5b50565b5f815190506120ef816120cb565b92915050565b5f8151905061210381611cd7565b92915050565b6121128161192b565b811461211c575f80fd5b50565b5f8151905061212d81612109565b92915050565b5f76ffffffffffffffffffffffffffffffffffffffffffffff82169050919050565b61215e81612133565b8114612168575f80fd5b50565b5f8151905061217981612155565b92915050565b5f805f805f60a0868803121561219857612197611858565b5b5f6121a5888289016120aa565b95505060206121b6888289016120e1565b94505060406121c7888289016120f5565b93505060606121d88882890161211f565b92505060806121e98882890161216b565b9150509295509295909350565b5f612200826118ba565b915061220b836118ba565b9250828202612219816118ba565b915082820484148315176122305761222f611ee5565b5b5092915050565b5f60408201905061224a5f83018561195e565b6122576020830184611b9a565b9392505050565b61226781611c57565b8114612271575f80fd5b50565b5f815190506122828161225e565b92915050565b5f6020828403121561229d5761229c611858565b5b5f6122aa84828501612274565b91505092915050565b7f5045524d49545f444541444c494e455f455850495245440000000000000000005f82015250565b5f6122e76017836117b8565b91506122f2826122b3565b602082019050919050565b5f6020820190508181035f830152612314816122db565b9050919050565b5f60c08201905061232e5f830189611b47565b61233b6020830188611b9a565b6123486040830187611b9a565b612355606083018661195e565b612362608083018561195e565b61236f60a083018461195e565b979650505050505050565b5f81905092915050565b7f19010000000000000000000000000000000000000000000000000000000000005f82015250565b5f6123b860028361237a565b91506123c382612384565b600282019050919050565b5f819050919050565b6123e86123e382611b3e565b6123ce565b82525050565b5f6123f8826123ac565b915061240482856123d7565b60208201915061241482846123d7565b6020820191508190509392505050565b5f6080820190506124375f830187611b47565b6124446020830186611b16565b6124516040830185611b47565b61245e6060830184611b47565b95945050505050565b7f494e56414c49445f5349474e45520000000000000000000000000000000000005f82015250565b5f61249b600e836117b8565b91506124a682612467565b602082019050919050565b5f6020820190508181035f8301526124c88161248f565b9050919050565b5f81905092915050565b5f819050815f5260205f209050919050565b5f81546124f781611e33565b61250181866124cf565b9450600182165f811461251b576001811461253057612562565b60ff1983168652811515820286019350612562565b612539856124d9565b5f5b8381101561255a5781548189015260018201915060208101905061253b565b838801955050505b50505092915050565b5f61257682846124eb565b915081905092915050565b5f60a0820190506125945f830188611b47565b6125a16020830187611b47565b6125ae6040830186611b47565b6125bb606083018561195e565b6125c86080830184611b9a565b969550505050505056fea2646970667358221220ede9ffe1910ca0ad090f9c3456e25f724c8cd892a1cade86cb5c8b611e6f769664736f6c63430008140033",
  "linkReferences": {},
  "deployedLinkReferences": {}
}