{
  "_format": "hh-sol-artifact-1",
  "contractName": "APE",
  "sourceName": "src/APE.sol",
  "abi": [
    {
      "inputs": [],
      "stateMutability": "nonpayable",
      "type": "constructor"
    },
    {
      "anonymous": false,
      "inputs": [
        {
          "indexed": true,
          "internalType": "address",
          "name": "owner",
          "type": "address"
        },
        {
          "indexed": true,
          "internalType": "address",
          "name": "spender",
          "type": "address"
        },
        {
          "indexed": false,
          "internalType": "uint256",
          "name": "amount",
          "type": "uint256"
        }
      ],
      "name": "Approval",
      "type": "event"
    },
    {
      "anonymous": false,
      "inputs": [
        {
          "indexed": true,
          "internalType": "address",
          "name": "from",
          "type": "address"
        },
        {
          "indexed": true,
          "internalType": "address",
          "name": "to",
          "type": "address"
        },
        {
          "indexed": false,
          "internalType": "uint256",
          "name": "amount",
          "type": "uint256"
        }
      ],
      "name": "Transfer",
      "type": "event"
    },
    {
      "inputs": [],
      "name": "DOMAIN_SEPARATOR",
      "outputs": [
        {
          "internalType": "bytes32",
          "name": "",
          "type": "bytes32"
        }
      ],
      "stateMutability": "view",
      "type": "function"
    },
    {
      "inputs": [],
      "name": "OWNER",
      "outputs": [
        {
          "internalType": "address",
          "name": "",
          "type": "address"
        }
      ],
      "stateMutability": "view",
      "type": "function"
    },
    {
      "inputs": [],
      "name": "PERMIT_TYPEHASH",
      "outputs": [
        {
          "internalType": "bytes32",
          "name": "",
          "type": "bytes32"
        }
      ],
      "stateMutability": "view",
      "type": "function"
    },
    {
      "inputs": [
        {
          "internalType": "address",
          "name": "",
          "type": "address"
        },
        {
          "internalType": "address",
          "name": "",
          "type": "address"
        }
      ],
      "name": "allowance",
      "outputs": [
        {
          "internalType": "uint256",
          "name": "",
          "type": "uint256"
        }
      ],
      "stateMutability": "view",
      "type": "function"
    },
    {
      "inputs": [
        {
          "internalType": "address",
          "name": "spender",
          "type": "address"
        },
        {
          "internalType": "uint256",
          "name": "amount",
          "type": "uint256"
        }
      ],
      "name": "approve",
      "outputs": [
        {
          "internalType": "bool",
          "name": "",
          "type": "bool"
        }
      ],
      "stateMutability": "nonpayable",
      "type": "function"
    },
    {
      "inputs": [
        {
          "internalType": "address",
          "name": "",
          "type": "address"
        }
      ],
      "name": "balanceOf",
      "outputs": [
        {
          "internalType": "uint256",
          "name": "",
          "type": "uint256"
        }
      ],
      "stateMutability": "view",
      "type": "function"
    },
    {
      "inputs": [
        {
          "internalType": "address",
          "name": "from",
          "type": "address"
        },
        {
          "internalType": "uint256",
          "name": "amount",
          "type": "uint256"
        }
      ],
      "name": "burn",
      "outputs": [],
      "stateMutability": "nonpayable",
      "type": "function"
    },
    {
      "inputs": [],
      "name": "collateralToken",
      "outputs": [
        {
          "internalType": "address",
          "name": "",
          "type": "address"
        }
      ],
      "stateMutability": "view",
      "type": "function"
    },
    {
      "inputs": [],
      "name": "debtToken",
      "outputs": [
        {
          "internalType": "address",
          "name": "",
          "type": "address"
        }
      ],
      "stateMutability": "view",
      "type": "function"
    },
    {
      "inputs": [],
      "name": "decimals",
      "outputs": [
        {
          "internalType": "uint8",
          "name": "",
          "type": "uint8"
        }
      ],
      "stateMutability": "view",
      "type": "function"
    },
    {
      "inputs": [],
      "name": "leverageTier",
      "outputs": [
        {
          "internalType": "int8",
          "name": "",
          "type": "int8"
        }
      ],
      "stateMutability": "view",
      "type": "function"
    },
    {
      "inputs": [
        {
          "internalType": "address",
          "name": "to",
          "type": "address"
        },
        {
          "internalType": "uint256",
          "name": "amount",
          "type": "uint256"
        }
      ],
      "name": "mint",
      "outputs": [],
      "stateMutability": "nonpayable",
      "type": "function"
    },
    {
      "inputs": [],
      "name": "name",
      "outputs": [
        {
          "internalType": "string",
          "name": "",
          "type": "string"
        }
      ],
      "stateMutability": "view",
      "type": "function"
    },
    {
      "inputs": [
        {
          "internalType": "address",
          "name": "",
          "type": "address"
        }
      ],
      "name": "nonces",
      "outputs": [
        {
          "internalType": "uint256",
          "name": "",
          "type": "uint256"
        }
      ],
      "stateMutability": "view",
      "type": "function"
    },
    {
      "inputs": [
        {
          "internalType": "address",
          "name": "owner",
          "type": "address"
        },
        {
          "internalType": "address",
          "name": "spender",
          "type": "address"
        },
        {
          "internalType": "uint256",
          "name": "value",
          "type": "uint256"
        },
        {
          "internalType": "uint256",
          "name": "deadline",
          "type": "uint256"
        },
        {
          "internalType": "uint8",
          "name": "v",
          "type": "uint8"
        },
        {
          "internalType": "bytes32",
          "name": "r",
          "type": "bytes32"
        },
        {
          "internalType": "bytes32",
          "name": "s",
          "type": "bytes32"
        }
      ],
      "name": "permit",
      "outputs": [],
      "stateMutability": "nonpayable",
      "type": "function"
    },
    {
      "inputs": [],
      "name": "symbol",
      "outputs": [
        {
          "internalType": "string",
          "name": "",
          "type": "string"
        }
      ],
      "stateMutability": "view",
      "type": "function"
    },
    {
      "inputs": [],
      "name": "totalSupply",
      "outputs": [
        {
          "internalType": "uint256",
          "name": "",
          "type": "uint256"
        }
      ],
      "stateMutability": "view",
      "type": "function"
    },
    {
      "inputs": [
        {
          "internalType": "address",
          "name": "to",
          "type": "address"
        },
        {
          "internalType": "uint256",
          "name": "amount",
          "type": "uint256"
        }
      ],
      "name": "transfer",
      "outputs": [
        {
          "internalType": "bool",
          "name": "",
          "type": "bool"
        }
      ],
      "stateMutability": "nonpayable",
      "type": "function"
    },
    {
      "inputs": [
        {
          "internalType": "address",
          "name": "from",
          "type": "address"
        },
        {
          "internalType": "address",
          "name": "to",
          "type": "address"
        },
        {
          "internalType": "uint256",
          "name": "amount",
          "type": "uint256"
        }
      ],
      "name": "transferFrom",
      "outputs": [
        {
          "internalType": "bool",
          "name": "",
          "type": "bool"
        }
      ],
      "stateMutability": "nonpayable",
      "type": "function"
    }
  ],
  "bytecode": "0x61016060405234801562000011575f80fd5b503373ffffffffffffffffffffffffffffffffffffffff1660808173ffffffffffffffffffffffffffffffffffffffff16815250503373ffffffffffffffffffffffffffffffffffffffff166360e0970a6040518163ffffffff1660e01b81526004015f604051808303815f875af115801562000090573d5f803e3d5ffd5b505050506040513d5f823e3d601f19601f82011682018060405250810190620000ba91906200047a565b5f8060015f845f0b60e0905f0b8152508573ffffffffffffffffffffffffffffffffffffffff1660c09073ffffffffffffffffffffffffffffffffffffffff168152508673ffffffffffffffffffffffffffffffffffffffff1660a09073ffffffffffffffffffffffffffffffffffffffff168152508760ff166101009060ff1681525088919050908162000150919062000787565b5087919050908162000163919062000787565b50505050505050466101208181525050620001836200019160201b60201c565b6101408181525050620009c2565b5f7f8b73c3c69bb8fe3d512ecc4cf759cc79239f7b179b0ffacaa9a75d522b39400f5f604051620001c3919062000913565b60405180910390207fc89efdaa54c0f20c7adf612882df0950f5a951637e0307cdcb4c672f298b8bc646306040516020016200020495949392919062000967565b60405160208183030381529060405280519060200120905090565b5f604051905090565b5f80fd5b5f80fd5b5f80fd5b5f80fd5b5f601f19601f8301169050919050565b7f4e487b71000000000000000000000000000000000000000000000000000000005f52604160045260245ffd5b620002808262000238565b810181811067ffffffffffffffff82111715620002a257620002a162000248565b5b80604052505050565b5f620002b66200021f565b9050620002c4828262000275565b919050565b5f67ffffffffffffffff821115620002e657620002e562000248565b5b620002f18262000238565b9050602081019050919050565b5f5b838110156200031d57808201518184015260208101905062000300565b5f8484015250505050565b5f6200033e6200033884620002c9565b620002ab565b9050828152602081018484840111156200035d576200035c62000234565b5b6200036a848285620002fe565b509392505050565b5f82601f83011262000389576200038862000230565b5b81516200039b84826020860162000328565b91505092915050565b5f60ff82169050919050565b620003bb81620003a4565b8114620003c6575f80fd5b50565b5f81519050620003d981620003b0565b92915050565b5f73ffffffffffffffffffffffffffffffffffffffff82169050919050565b5f6200040a82620003df565b9050919050565b6200041c81620003fe565b811462000427575f80fd5b50565b5f815190506200043a8162000411565b92915050565b5f815f0b9050919050565b620004568162000440565b811462000461575f80fd5b50565b5f8151905062000474816200044b565b92915050565b5f805f805f8060c0878903121562000497576200049662000228565b5b5f87015167ffffffffffffffff811115620004b757620004b66200022c565b5b620004c589828a0162000372565b965050602087015167ffffffffffffffff811115620004e957620004e86200022c565b5b620004f789828a0162000372565b95505060406200050a89828a01620003c9565b94505060606200051d89828a016200042a565b93505060806200053089828a016200042a565b92505060a06200054389828a0162000464565b9150509295509295509295565b5f81519050919050565b7f4e487b71000000000000000000000000000000000000000000000000000000005f52602260045260245ffd5b5f60028204905060018216806200059f57607f821691505b602082108103620005b557620005b46200055a565b5b50919050565b5f819050815f5260205f209050919050565b5f6020601f8301049050919050565b5f82821b905092915050565b5f60088302620006197fffffffffffffffffffffffffffffffffffffffffffffffffffffffffffffffff82620005dc565b620006258683620005dc565b95508019841693508086168417925050509392505050565b5f819050919050565b5f819050919050565b5f6200066f6200066962000663846200063d565b62000646565b6200063d565b9050919050565b5f819050919050565b6200068a836200064f565b620006a2620006998262000676565b848454620005e8565b825550505050565b5f90565b620006b8620006aa565b620006c58184846200067f565b505050565b5b81811015620006ec57620006e05f82620006ae565b600181019050620006cb565b5050565b601f8211156200073b576200070581620005bb565b6200071084620005cd565b8101602085101562000720578190505b620007386200072f85620005cd565b830182620006ca565b50505b505050565b5f82821c905092915050565b5f6200075d5f198460080262000740565b1980831691505092915050565b5f6200077783836200074c565b9150826002028217905092915050565b620007928262000550565b67ffffffffffffffff811115620007ae57620007ad62000248565b5b620007ba825462000587565b620007c7828285620006f0565b5f60209050601f831160018114620007fd575f8415620007e8578287015190505b620007f485826200076a565b86555062000863565b601f1984166200080d86620005bb565b5f5b8281101562000836578489015182556001820191506020850194506020810190506200080f565b8683101562000856578489015162000852601f8916826200074c565b8355505b6001600288020188555050505b505050505050565b5f81905092915050565b5f819050815f5260205f209050919050565b5f8154620008958162000587565b620008a181866200086b565b9450600182165f8114620008be5760018114620008d4576200090a565b60ff19831686528115158202860193506200090a565b620008df8562000875565b5f5b838110156200090257815481890152600182019150602081019050620008e1565b838801955050505b50505092915050565b5f62000920828462000887565b915081905092915050565b5f819050919050565b6200093f816200092b565b82525050565b62000950816200063d565b82525050565b6200096181620003fe565b82525050565b5f60a0820190506200097c5f83018862000934565b6200098b602083018762000934565b6200099a604083018662000934565b620009a9606083018562000945565b620009b8608083018462000956565b9695505050505050565b60805160a05160c05160e0516101005161012051610140516118d162000a225f395f61081f01525f6107eb01525f6107c601525f61084601525f610c7101525f610fa201525f818161053d015281816108810152610a5901526118d15ff3fe608060405234801561000f575f80fd5b506004361061011f575f3560e01c806340c10f19116100ab578063a9059cbb1161006f578063a9059cbb1461030b578063b2016bd41461033b578063d505accf14610359578063dd62ed3e14610375578063f8d89898146103a55761011f565b806340c10f191461025557806370a08231146102715780637ecebe00146102a157806395d89b41146102d15780639dc29fac146102ef5761011f565b806323b872dd116100f257806323b872dd146101ad57806330adf81f146101dd578063313ce567146101fb5780633644e515146102195780633e28fb8c146102375761011f565b806306fdde0314610123578063095ea7b314610141578063117803e31461017157806318160ddd1461018f575b5f80fd5b61012b6103c3565b60405161013891906110d8565b60405180910390f35b61015b60048036038101906101569190611189565b61044e565b60405161016891906111e1565b60405180910390f35b61017961053b565b6040516101869190611209565b60405180910390f35b61019761055f565b6040516101a49190611231565b60405180910390f35b6101c760048036038101906101c2919061124a565b610565565b6040516101d491906111e1565b60405180910390f35b6101e56107a0565b6040516101f291906112b2565b60405180910390f35b6102036107c4565b60405161021091906112e6565b60405180910390f35b6102216107e8565b60405161022e91906112b2565b60405180910390f35b61023f610844565b60405161024c9190611319565b60405180910390f35b61026f600480360381019061026a9190611189565b610868565b005b61028b60048036038101906102869190611332565b61098a565b6040516102989190611231565b60405180910390f35b6102bb60048036038101906102b69190611332565b61099f565b6040516102c89190611231565b60405180910390f35b6102d96109b4565b6040516102e691906110d8565b60405180910390f35b61030960048036038101906103049190611189565b610a40565b005b61032560048036038101906103209190611189565b610b62565b60405161033291906111e1565b60405180910390f35b610343610c6f565b6040516103509190611209565b60405180910390f35b610373600480360381019061036e91906113b1565b610c93565b005b61038f600480360381019061038a919061144e565b610f80565b60405161039c9190611231565b60405180910390f35b6103ad610fa0565b6040516103ba9190611209565b60405180910390f35b5f80546103cf906114b9565b80601f01602080910402602001604051908101604052809291908181526020018280546103fb906114b9565b80156104465780601f1061041d57610100808354040283529160200191610446565b820191905f5260205f20905b81548152906001019060200180831161042957829003601f168201915b505050505081565b5f8160045f3373ffffffffffffffffffffffffffffffffffffffff1673ffffffffffffffffffffffffffffffffffffffff1681526020019081526020015f205f8573ffffffffffffffffffffffffffffffffffffffff1673ffffffffffffffffffffffffffffffffffffffff1681526020019081526020015f20819055508273ffffffffffffffffffffffffffffffffffffffff163373ffffffffffffffffffffffffffffffffffffffff167f8c5be1e5ebec7d5bd14f71427d1e84f3dd0314c0f7b2291e5b200ac8c7c3b925846040516105299190611231565b60405180910390a36001905092915050565b7f000000000000000000000000000000000000000000000000000000000000000081565b60025481565b5f8060045f8673ffffffffffffffffffffffffffffffffffffffff1673ffffffffffffffffffffffffffffffffffffffff1681526020019081526020015f205f3373ffffffffffffffffffffffffffffffffffffffff1673ffffffffffffffffffffffffffffffffffffffff1681526020019081526020015f205490507fffffffffffffffffffffffffffffffffffffffffffffffffffffffffffffffff81146106925782816106159190611516565b60045f8773ffffffffffffffffffffffffffffffffffffffff1673ffffffffffffffffffffffffffffffffffffffff1681526020019081526020015f205f3373ffffffffffffffffffffffffffffffffffffffff1673ffffffffffffffffffffffffffffffffffffffff1681526020019081526020015f20819055505b8260035f8773ffffffffffffffffffffffffffffffffffffffff1673ffffffffffffffffffffffffffffffffffffffff1681526020019081526020015f205f8282546106de9190611516565b925050819055508260035f8673ffffffffffffffffffffffffffffffffffffffff1673ffffffffffffffffffffffffffffffffffffffff1681526020019081526020015f205f82825401925050819055508373ffffffffffffffffffffffffffffffffffffffff168573ffffffffffffffffffffffffffffffffffffffff167fddf252ad1be2c89b69c2b068fc378daa952ba7f163c4a11628f55a4df523b3ef8560405161078c9190611231565b60405180910390a360019150509392505050565b7f6e71edae12b1b97f4d1f60370fef10105fa2faae0126114a169c64845d6126c981565b7f000000000000000000000000000000000000000000000000000000000000000081565b5f7f0000000000000000000000000000000000000000000000000000000000000000461461081d57610818610fc4565b61083f565b7f00000000000000000000000000000000000000000000000000000000000000005b905090565b7f000000000000000000000000000000000000000000000000000000000000000081565b3373ffffffffffffffffffffffffffffffffffffffff167f000000000000000000000000000000000000000000000000000000000000000073ffffffffffffffffffffffffffffffffffffffff16146108bf575f80fd5b8060025f8282546108d09190611549565b925050819055508060035f8473ffffffffffffffffffffffffffffffffffffffff1673ffffffffffffffffffffffffffffffffffffffff1681526020019081526020015f205f82825401925050819055508173ffffffffffffffffffffffffffffffffffffffff165f73ffffffffffffffffffffffffffffffffffffffff167fddf252ad1be2c89b69c2b068fc378daa952ba7f163c4a11628f55a4df523b3ef8360405161097e9190611231565b60405180910390a35050565b6003602052805f5260405f205f915090505481565b6005602052805f5260405f205f915090505481565b600180546109c1906114b9565b80601f01602080910402602001604051908101604052809291908181526020018280546109ed906114b9565b8015610a385780601f10610a0f57610100808354040283529160200191610a38565b820191905f5260205f20905b815481529060010190602001808311610a1b57829003601f168201915b505050505081565b3373ffffffffffffffffffffffffffffffffffffffff167f000000000000000000000000000000000000000000000000000000000000000073ffffffffffffffffffffffffffffffffffffffff1614610a97575f80fd5b8060035f8473ffffffffffffffffffffffffffffffffffffffff1673ffffffffffffffffffffffffffffffffffffffff1681526020019081526020015f205f828254610ae39190611516565b925050819055508060025f82825403925050819055505f73ffffffffffffffffffffffffffffffffffffffff168273ffffffffffffffffffffffffffffffffffffffff167fddf252ad1be2c89b69c2b068fc378daa952ba7f163c4a11628f55a4df523b3ef83604051610b569190611231565b60405180910390a35050565b5f8160035f3373ffffffffffffffffffffffffffffffffffffffff1673ffffffffffffffffffffffffffffffffffffffff1681526020019081526020015f205f828254610baf9190611516565b925050819055508160035f8573ffffffffffffffffffffffffffffffffffffffff1673ffffffffffffffffffffffffffffffffffffffff1681526020019081526020015f205f82825401925050819055508273ffffffffffffffffffffffffffffffffffffffff163373ffffffffffffffffffffffffffffffffffffffff167fddf252ad1be2c89b69c2b068fc378daa952ba7f163c4a11628f55a4df523b3ef84604051610c5d9190611231565b60405180910390a36001905092915050565b7f000000000000000000000000000000000000000000000000000000000000000081565b42841015610cd6576040517f08c379a0000000000000000000000000000000000000000000000000000000008152600401610ccd906115c6565b60405180910390fd5b5f6001610ce16107e8565b7f6e71edae12b1b97f4d1f60370fef10105fa2faae0126114a169c64845d6126c98a8a8a60055f8f73ffffffffffffffffffffffffffffffffffffffff1673ffffffffffffffffffffffffffffffffffffffff1681526020019081526020015f205f815480929190600101919050558b604051602001610d66969594939291906115e4565b60405160208183030381529060405280519060200120604051602001610d8d9291906116b7565b604051602081830303815290604052805190602001208585856040515f8152602001604052604051610dc294939291906116ed565b6020604051602081039080840390855afa158015610de2573d5f803e3d5ffd5b5050506020604051035190505f73ffffffffffffffffffffffffffffffffffffffff168173ffffffffffffffffffffffffffffffffffffffff1614158015610e5557508773ffffffffffffffffffffffffffffffffffffffff168173ffffffffffffffffffffffffffffffffffffffff16145b610e94576040517f08c379a0000000000000000000000000000000000000000000000000000000008152600401610e8b9061177a565b60405180910390fd5b8560045f8373ffffffffffffffffffffffffffffffffffffffff1673ffffffffffffffffffffffffffffffffffffffff1681526020019081526020015f205f8973ffffffffffffffffffffffffffffffffffffffff1673ffffffffffffffffffffffffffffffffffffffff1681526020019081526020015f2081905550508573ffffffffffffffffffffffffffffffffffffffff168773ffffffffffffffffffffffffffffffffffffffff167f8c5be1e5ebec7d5bd14f71427d1e84f3dd0314c0f7b2291e5b200ac8c7c3b92587604051610f6f9190611231565b60405180910390a350505050505050565b6004602052815f5260405f20602052805f5260405f205f91509150505481565b7f000000000000000000000000000000000000000000000000000000000000000081565b5f7f8b73c3c69bb8fe3d512ecc4cf759cc79239f7b179b0ffacaa9a75d522b39400f5f604051610ff49190611834565b60405180910390207fc89efdaa54c0f20c7adf612882df0950f5a951637e0307cdcb4c672f298b8bc6463060405160200161103395949392919061184a565b60405160208183030381529060405280519060200120905090565b5f81519050919050565b5f82825260208201905092915050565b5f5b8381101561108557808201518184015260208101905061106a565b5f8484015250505050565b5f601f19601f8301169050919050565b5f6110aa8261104e565b6110b48185611058565b93506110c4818560208601611068565b6110cd81611090565b840191505092915050565b5f6020820190508181035f8301526110f081846110a0565b905092915050565b5f80fd5b5f73ffffffffffffffffffffffffffffffffffffffff82169050919050565b5f611125826110fc565b9050919050565b6111358161111b565b811461113f575f80fd5b50565b5f813590506111508161112c565b92915050565b5f819050919050565b61116881611156565b8114611172575f80fd5b50565b5f813590506111838161115f565b92915050565b5f806040838503121561119f5761119e6110f8565b5b5f6111ac85828601611142565b92505060206111bd85828601611175565b9150509250929050565b5f8115159050919050565b6111db816111c7565b82525050565b5f6020820190506111f45f8301846111d2565b92915050565b6112038161111b565b82525050565b5f60208201905061121c5f8301846111fa565b92915050565b61122b81611156565b82525050565b5f6020820190506112445f830184611222565b92915050565b5f805f60608486031215611261576112606110f8565b5b5f61126e86828701611142565b935050602061127f86828701611142565b925050604061129086828701611175565b9150509250925092565b5f819050919050565b6112ac8161129a565b82525050565b5f6020820190506112c55f8301846112a3565b92915050565b5f60ff82169050919050565b6112e0816112cb565b82525050565b5f6020820190506112f95f8301846112d7565b92915050565b5f815f0b9050919050565b611313816112ff565b82525050565b5f60208201905061132c5f83018461130a565b92915050565b5f60208284031215611347576113466110f8565b5b5f61135484828501611142565b91505092915050565b611366816112cb565b8114611370575f80fd5b50565b5f813590506113818161135d565b92915050565b6113908161129a565b811461139a575f80fd5b50565b5f813590506113ab81611387565b92915050565b5f805f805f805f60e0888a0312156113cc576113cb6110f8565b5b5f6113d98a828b01611142565b97505060206113ea8a828b01611142565b96505060406113fb8a828b01611175565b955050606061140c8a828b01611175565b945050608061141d8a828b01611373565b93505060a061142e8a828b0161139d565b92505060c061143f8a828b0161139d565b91505092959891949750929550565b5f8060408385031215611464576114636110f8565b5b5f61147185828601611142565b925050602061148285828601611142565b9150509250929050565b7f4e487b71000000000000000000000000000000000000000000000000000000005f52602260045260245ffd5b5f60028204905060018216806114d057607f821691505b6020821081036114e3576114e261148c565b5b50919050565b7f4e487b71000000000000000000000000000000000000000000000000000000005f52601160045260245ffd5b5f61152082611156565b915061152b83611156565b9250828203905081811115611543576115426114e9565b5b92915050565b5f61155382611156565b915061155e83611156565b9250828201905080821115611576576115756114e9565b5b92915050565b7f5045524d49545f444541444c494e455f455850495245440000000000000000005f82015250565b5f6115b0601783611058565b91506115bb8261157c565b602082019050919050565b5f6020820190508181035f8301526115dd816115a4565b9050919050565b5f60c0820190506115f75f8301896112a3565b61160460208301886111fa565b61161160408301876111fa565b61161e6060830186611222565b61162b6080830185611222565b61163860a0830184611222565b979650505050505050565b5f81905092915050565b7f19010000000000000000000000000000000000000000000000000000000000005f82015250565b5f611681600283611643565b915061168c8261164d565b600282019050919050565b5f819050919050565b6116b16116ac8261129a565b611697565b82525050565b5f6116c182611675565b91506116cd82856116a0565b6020820191506116dd82846116a0565b6020820191508190509392505050565b5f6080820190506117005f8301876112a3565b61170d60208301866112d7565b61171a60408301856112a3565b61172760608301846112a3565b95945050505050565b7f494e56414c49445f5349474e45520000000000000000000000000000000000005f82015250565b5f611764600e83611058565b915061176f82611730565b602082019050919050565b5f6020820190508181035f83015261179181611758565b9050919050565b5f81905092915050565b5f819050815f5260205f209050919050565b5f81546117c0816114b9565b6117ca8186611798565b9450600182165f81146117e457600181146117f95761182b565b60ff198316865281151582028601935061182b565b611802856117a2565b5f5b8381101561182357815481890152600182019150602081019050611804565b838801955050505b50505092915050565b5f61183f82846117b4565b915081905092915050565b5f60a08201905061185d5f8301886112a3565b61186a60208301876112a3565b61187760408301866112a3565b6118846060830185611222565b61189160808301846111fa565b969550505050505056fea2646970667358221220c78a61424cc6bba91116e7a7223b5fd16ecdff69b1dd8532c70ec6b83a99487b64736f6c63430008140033",
  "linkReferences": {},
  "deployedLinkReferences": {}
}