{
  "_format": "hh-sol-artifact-1",
  "contractName": "$FloatingPoint",
  "sourceName": "src/test/FloatingPoint.sol",
  "abi": [
    {
      "inputs": [],
      "stateMutability": "payable",
      "type": "constructor"
    },
    {
      "inputs": [],
      "name": "$INFINITY",
      "outputs": [
        {
          "internalType": "bytes16",
          "name": "",
          "type": "bytes16"
        }
      ],
      "stateMutability": "pure",
      "type": "function"
    },
    {
      "inputs": [],
      "name": "$ONE",
      "outputs": [
        {
          "internalType": "bytes16",
          "name": "",
          "type": "bytes16"
        }
      ],
      "stateMutability": "pure",
      "type": "function"
    },
    {
      "inputs": [],
      "name": "$ZERO",
      "outputs": [
        {
          "internalType": "bytes16",
          "name": "",
          "type": "bytes16"
        }
      ],
      "stateMutability": "pure",
      "type": "function"
    },
    {
      "inputs": [
        {
          "internalType": "bytes16",
          "name": "x",
          "type": "bytes16"
        },
        {
          "internalType": "bytes16",
          "name": "y",
          "type": "bytes16"
        }
      ],
      "name": "$add",
      "outputs": [
        {
          "internalType": "bytes16",
          "name": "ret0",
          "type": "bytes16"
        }
      ],
      "stateMutability": "pure",
      "type": "function"
    },
    {
      "inputs": [
        {
          "internalType": "bytes16",
          "name": "x",
          "type": "bytes16"
        },
        {
          "internalType": "bytes16",
          "name": "y",
          "type": "bytes16"
        }
      ],
      "name": "$addUp",
      "outputs": [
        {
          "internalType": "bytes16",
          "name": "ret0",
          "type": "bytes16"
        }
      ],
      "stateMutability": "pure",
      "type": "function"
    },
    {
      "inputs": [
        {
          "internalType": "bytes16",
          "name": "x",
          "type": "bytes16"
        },
        {
          "internalType": "bytes16",
          "name": "y",
          "type": "bytes16"
        }
      ],
      "name": "$cmp",
      "outputs": [
        {
          "internalType": "int8",
          "name": "ret0",
          "type": "int8"
        }
      ],
      "stateMutability": "pure",
      "type": "function"
    },
    {
      "inputs": [
        {
          "internalType": "bytes16",
          "name": "x",
          "type": "bytes16"
        }
      ],
      "name": "$dec",
      "outputs": [
        {
          "internalType": "bytes16",
          "name": "ret0",
          "type": "bytes16"
        }
      ],
      "stateMutability": "pure",
      "type": "function"
    },
    {
      "inputs": [
        {
          "internalType": "bytes16",
          "name": "x",
          "type": "bytes16"
        },
        {
          "internalType": "bytes16",
          "name": "y",
          "type": "bytes16"
        }
      ],
      "name": "$div",
      "outputs": [
        {
          "internalType": "bytes16",
          "name": "ret0",
          "type": "bytes16"
        }
      ],
      "stateMutability": "pure",
      "type": "function"
    },
    {
      "inputs": [
        {
          "internalType": "uint256",
          "name": "x",
          "type": "uint256"
        },
        {
          "internalType": "uint256",
          "name": "y",
          "type": "uint256"
        }
      ],
      "name": "$divu",
      "outputs": [
        {
          "internalType": "bytes16",
          "name": "ret0",
          "type": "bytes16"
        }
      ],
      "stateMutability": "pure",
      "type": "function"
    },
    {
      "inputs": [
        {
          "internalType": "int256",
          "name": "x",
          "type": "int256"
        }
      ],
      "name": "$fromInt",
      "outputs": [
        {
          "internalType": "bytes16",
          "name": "ret0",
          "type": "bytes16"
        }
      ],
      "stateMutability": "pure",
      "type": "function"
    },
    {
      "inputs": [
        {
          "internalType": "uint256",
          "name": "x",
          "type": "uint256"
        }
      ],
      "name": "$fromUInt",
      "outputs": [
        {
          "internalType": "bytes16",
          "name": "ret0",
          "type": "bytes16"
        }
      ],
      "stateMutability": "pure",
      "type": "function"
    },
    {
      "inputs": [
        {
          "internalType": "uint256",
          "name": "x",
          "type": "uint256"
        }
      ],
      "name": "$fromUIntUp",
      "outputs": [
        {
          "internalType": "bytes16",
          "name": "ret0",
          "type": "bytes16"
        }
      ],
      "stateMutability": "pure",
      "type": "function"
    },
    {
      "inputs": [
        {
          "internalType": "bytes16",
          "name": "x",
          "type": "bytes16"
        }
      ],
      "name": "$inc",
      "outputs": [
        {
          "internalType": "bytes16",
          "name": "ret0",
          "type": "bytes16"
        }
      ],
      "stateMutability": "pure",
      "type": "function"
    },
    {
      "inputs": [
        {
          "internalType": "bytes16",
          "name": "x",
          "type": "bytes16"
        }
      ],
      "name": "$inv",
      "outputs": [
        {
          "internalType": "bytes16",
          "name": "ret0",
          "type": "bytes16"
        }
      ],
      "stateMutability": "pure",
      "type": "function"
    },
    {
      "inputs": [
        {
          "internalType": "bytes16",
          "name": "x",
          "type": "bytes16"
        },
        {
          "internalType": "bytes16",
          "name": "y",
          "type": "bytes16"
        }
      ],
      "name": "$mul",
      "outputs": [
        {
          "internalType": "bytes16",
          "name": "ret0",
          "type": "bytes16"
        }
      ],
      "stateMutability": "pure",
      "type": "function"
    },
    {
      "inputs": [
        {
          "internalType": "bytes16",
          "name": "x",
          "type": "bytes16"
        },
        {
          "internalType": "uint256",
          "name": "y",
          "type": "uint256"
        },
        {
          "internalType": "bytes16",
          "name": "z",
          "type": "bytes16"
        }
      ],
      "name": "$mulDiv",
      "outputs": [
        {
          "internalType": "uint256",
          "name": "ret0",
          "type": "uint256"
        }
      ],
      "stateMutability": "pure",
      "type": "function"
    },
    {
      "inputs": [
        {
          "internalType": "bytes16",
          "name": "x",
          "type": "bytes16"
        },
        {
          "internalType": "uint256",
          "name": "y",
          "type": "uint256"
        },
        {
          "internalType": "uint256",
          "name": "z",
          "type": "uint256"
        }
      ],
      "name": "$mulDivu",
      "outputs": [
        {
          "internalType": "bytes16",
          "name": "ret0",
          "type": "bytes16"
        }
      ],
      "stateMutability": "pure",
      "type": "function"
    },
    {
      "inputs": [
        {
          "internalType": "bytes16",
          "name": "x",
          "type": "bytes16"
        },
        {
          "internalType": "uint256",
          "name": "y",
          "type": "uint256"
        },
        {
          "internalType": "uint256",
          "name": "z",
          "type": "uint256"
        }
      ],
      "name": "$mulDivuUp",
      "outputs": [
        {
          "internalType": "bytes16",
          "name": "ret0",
          "type": "bytes16"
        }
      ],
      "stateMutability": "pure",
      "type": "function"
    },
    {
      "inputs": [
        {
          "internalType": "bytes16",
          "name": "x",
          "type": "bytes16"
        },
        {
          "internalType": "bytes16",
          "name": "y",
          "type": "bytes16"
        }
      ],
      "name": "$mulUp",
      "outputs": [
        {
          "internalType": "bytes16",
          "name": "ret0",
          "type": "bytes16"
        }
      ],
      "stateMutability": "pure",
      "type": "function"
    },
    {
      "inputs": [
        {
          "internalType": "bytes16",
          "name": "x",
          "type": "bytes16"
        },
        {
          "internalType": "uint256",
          "name": "y",
          "type": "uint256"
        }
      ],
      "name": "$mulu",
      "outputs": [
        {
          "internalType": "uint256",
          "name": "ret0",
          "type": "uint256"
        }
      ],
      "stateMutability": "pure",
      "type": "function"
    },
    {
      "inputs": [
        {
          "internalType": "bytes16",
          "name": "x",
          "type": "bytes16"
        },
        {
          "internalType": "bytes16",
          "name": "y",
          "type": "bytes16"
        }
      ],
      "name": "$pow",
      "outputs": [
        {
          "internalType": "bytes16",
          "name": "ret0",
          "type": "bytes16"
        }
      ],
      "stateMutability": "pure",
      "type": "function"
    },
    {
      "inputs": [
        {
          "internalType": "bytes16",
          "name": "x",
          "type": "bytes16"
        }
      ],
      "name": "$pow_2",
      "outputs": [
        {
          "internalType": "bytes16",
          "name": "ret0",
          "type": "bytes16"
        }
      ],
      "stateMutability": "pure",
      "type": "function"
    },
    {
      "inputs": [
        {
          "internalType": "bytes16",
          "name": "x",
          "type": "bytes16"
        }
      ],
      "name": "$sign",
      "outputs": [
        {
          "internalType": "int8",
          "name": "ret0",
          "type": "int8"
        }
      ],
      "stateMutability": "pure",
      "type": "function"
    },
    {
      "inputs": [
        {
          "internalType": "bytes16",
          "name": "x",
          "type": "bytes16"
        },
        {
          "internalType": "bytes16",
          "name": "y",
          "type": "bytes16"
        }
      ],
      "name": "$sub",
      "outputs": [
        {
          "internalType": "bytes16",
          "name": "ret0",
          "type": "bytes16"
        }
      ],
      "stateMutability": "pure",
      "type": "function"
    },
    {
      "inputs": [
        {
          "internalType": "bytes16",
          "name": "x",
          "type": "bytes16"
        },
        {
          "internalType": "bytes16",
          "name": "y",
          "type": "bytes16"
        }
      ],
      "name": "$subUp",
      "outputs": [
        {
          "internalType": "bytes16",
          "name": "ret0",
          "type": "bytes16"
        }
      ],
      "stateMutability": "pure",
      "type": "function"
    },
    {
      "inputs": [
        {
          "internalType": "bytes16",
          "name": "x",
          "type": "bytes16"
        }
      ],
      "name": "$toUInt",
      "outputs": [
        {
          "internalType": "uint256",
          "name": "ret0",
          "type": "uint256"
        }
      ],
      "stateMutability": "pure",
      "type": "function"
    },
    {
      "inputs": [],
      "name": "__hh_exposed_bytecode_marker",
      "outputs": [
        {
          "internalType": "bytes32",
          "name": "",
          "type": "bytes32"
        }
      ],
      "stateMutability": "view",
      "type": "function"
    },
    {
      "stateMutability": "payable",
      "type": "receive"
    }
  ],
  "bytecode": "0x60806040527f686172646861742d6578706f73656400000000000000000000000000000000005f5561432e806100345f395ff3fe60806040526004361061019f575f3560e01c806375c0895a116100eb578063b3b59de211610089578063d75fa51711610063578063d75fa517146106c6578063e9eb91b714610702578063ec074bb61461073e578063ee20353a1461077a576101a6565b8063b3b59de214610636578063b78f7d6a14610660578063c542f4ca1461068a576101a6565b806381de1c0d116100c557806381de1c0d146105585780638979a6b8146105825780639a5f493e146105be5780639bb4240d146105fa576101a6565b806375c0895a146104a45780637a23f3c3146104e05780637bc30cdc1461051c576101a6565b80634a4e0c741161015857806351c472851161013257806351c47285146103b4578063542d1b5f146103f057806364eac4011461042c5780636d0ba37b14610468576101a6565b80634a4e0c74146103005780634d59b36b1461033c5780634ef78a0f14610378576101a6565b8063055a8779146101aa578063065a03a3146101e65780630aa7a858146102225780631b513d421461025e5780632d52b3a81461029a578063342db739146102d6576101a6565b366101a657005b5f80fd5b3480156101b5575f80fd5b506101d060048036038101906101cb9190613ebd565b6107b6565b6040516101dd9190613f0a565b60405180910390f35b3480156101f1575f80fd5b5061020c60048036038101906102079190613ebd565b6107c9565b6040516102199190613f0a565b60405180910390f35b34801561022d575f80fd5b5061024860048036038101906102439190613ebd565b6107dc565b6040516102559190613f0a565b60405180910390f35b348015610269575f80fd5b50610284600480360381019061027f9190613f23565b6107ef565b6040516102919190613f68565b60405180910390f35b3480156102a5575f80fd5b506102c060048036038101906102bb9190613fb4565b610800565b6040516102cd9190614013565b60405180910390f35b3480156102e1575f80fd5b506102ea610815565b6040516102f79190614044565b60405180910390f35b34801561030b575f80fd5b5061032660048036038101906103219190613ebd565b61081a565b6040516103339190613f0a565b60405180910390f35b348015610347575f80fd5b50610362600480360381019061035d9190613ebd565b61082d565b60405161036f9190613f0a565b60405180910390f35b348015610383575f80fd5b5061039e6004803603810190610399919061405d565b610840565b6040516103ab9190613f0a565b60405180910390f35b3480156103bf575f80fd5b506103da60048036038101906103d591906140ad565b610855565b6040516103e79190613f0a565b60405180910390f35b3480156103fb575f80fd5b5061041660048036038101906104119190613f23565b610866565b6040516104239190613f0a565b60405180910390f35b348015610437575f80fd5b50610452600480360381019061044d91906140d8565b610877565b60405161045f9190613f0a565b60405180910390f35b348015610473575f80fd5b5061048e600480360381019061048991906140ad565b61088a565b60405161049b9190613f0a565b60405180910390f35b3480156104af575f80fd5b506104ca60048036038101906104c59190613f23565b61089b565b6040516104d79190614013565b60405180910390f35b3480156104eb575f80fd5b5061050660048036038101906105019190613ebd565b6108ac565b6040516105139190613f0a565b60405180910390f35b348015610527575f80fd5b50610542600480360381019061053d9190613f23565b6108bf565b60405161054f9190613f0a565b60405180910390f35b348015610563575f80fd5b5061056c6108d0565b6040516105799190613f0a565b60405180910390f35b34801561058d575f80fd5b506105a860048036038101906105a39190613f23565b6108ea565b6040516105b59190613f0a565b60405180910390f35b3480156105c9575f80fd5b506105e460048036038101906105df9190613f23565b6108fb565b6040516105f19190613f0a565b60405180910390f35b348015610605575f80fd5b50610620600480360381019061061b9190614116565b61090c565b60405161062d9190614013565b60405180910390f35b348015610641575f80fd5b5061064a61091f565b6040516106579190613f0a565b60405180910390f35b34801561066b575f80fd5b50610674610939565b6040516106819190613f0a565b60405180910390f35b348015610695575f80fd5b506106b060048036038101906106ab9190613ebd565b610943565b6040516106bd9190613f0a565b60405180910390f35b3480156106d1575f80fd5b506106ec60048036038101906106e79190613ebd565b610956565b6040516106f99190613f0a565b60405180910390f35b34801561070d575f80fd5b5061072860048036038101906107239190613ebd565b610969565b6040516107359190613f68565b60405180910390f35b348015610749575f80fd5b50610764600480360381019061075f919061405d565b61097c565b6040516107719190613f0a565b60405180910390f35b348015610785575f80fd5b506107a0600480360381019061079b9190614187565b610991565b6040516107ad9190613f0a565b60405180910390f35b5f6107c183836109a2565b905092915050565b5f6107d483836109b6565b905092915050565b5f6107e783836109e6565b905092915050565b5f6107f9826109fa565b9050919050565b5f61080c848484610a96565b90509392505050565b5f5481565b5f6108258383610ac7565b905092915050565b5f6108388383610adc565b905092915050565b5f61084c848484610af1565b90509392505050565b5f61085f82610b08565b9050919050565b5f61087082610b30565b9050919050565b5f6108828383610b56565b905092915050565b5f61089482610b7e565b9050919050565b5f6108a582610ba7565b9050919050565b5f6108b78383610cb4565b905092915050565b5f6108c982610cc8565b9050919050565b5f6f7fff000000000000000000000000000060801b905090565b5f6108f482610ced565b9050919050565b5f61090582612593565b9050919050565b5f61091783836125b9565b905092915050565b5f6f3fff000000000000000000000000000060801b905090565b5f8060801b905090565b5f61094e83836125e0565b905092915050565b5f610961838361283c565b905092915050565b5f610974838361287e565b905092915050565b5f610988848484612b0f565b90509392505050565b5f61099b82612b25565b9050919050565b5f6109ae83835f612b83565b905092915050565b5f806109c1846109fa565b5f0b12156109d2576109d16141b2565b5b6109de83836001612b83565b905092915050565b5f6109f283835f612e20565b905092915050565b5f806f7fffffffffffffffffffffffffffffff8360801c1690505f816fffffffffffffffffffffffffffffffff1603610a36575f915050610a91565b6f800000000000000000000000000000008360801c6fffffffffffffffffffffffffffffffff1610610a8b577fffffffffffffffffffffffffffffffffffffffffffffffffffffffffffffffff915050610a91565b60019150505b919050565b5f80610aa2838661287e565b5f0b1215610ab357610ab26141b2565b5b610abe848484613140565b90509392505050565b5f610ad483836001613377565b905092915050565b5f610ae983836001612e20565b905092915050565b5f610aff84848460016136d1565b90509392505050565b5f808203610b1b575f60801b9050610b2b565b610b25825f613919565b60801b90505b919050565b5f610b4f826f3fff000000000000000000000000000060801b5f613377565b9050919050565b5f610b766f3fff000000000000000000000000000060801b84845f6136d1565b905092915050565b5f808203610b91575f60801b9050610ba2565b610b9c826001613919565b60801b90505b919050565b5f8060708360801c6fffffffffffffffffffffffffffffffff16901c6fffffffffffffffffffffffffffffffff1690506140fe811115610bea57610be96141b2565b5b5f811180610c2057505f60801b6fffffffffffffffffffffffffffffffff1916836fffffffffffffffffffffffffffffffff1916145b610c2d57610c2c6141b2565b5b613fff811015610c40575f915050610caf565b5f6e0100000000000000000000000000006dffffffffffffffffffffffffffff8560801c6fffffffffffffffffffffffffffffffff161617905061406f821015610c93578161406f0381901c9050610ca9565b61406f821115610ca85761406f820381901b90505b5b80925050505b919050565b5f610cc083835f613377565b905092915050565b5f610ce66f3fff000000000000000000000000000060801b836125e0565b9050919050565b5f806f800000000000000000000000000000008360801c6fffffffffffffffffffffffffffffffff161190505f617fff60708560801c6fffffffffffffffffffffffffffffffff16901c166fffffffffffffffffffffffffffffffff1690505f6e0100000000000000000000000000006dffffffffffffffffffffffffffff8660801c16176fffffffffffffffffffffffffffffffff16905061400d821080610d935750825b610da057610d9f6141b2565b5b61400d821115610db8575f60801b935050505061258e565b613f7f821015610de0576f3fff000000000000000000000000000060801b935050505061258e565b613fef821115610df957613fef820381901b9050610e0f565b613fef821015610e0e5781613fef0381901c90505b5b828015610e2d575071406e0000000000000000000000000000000081115b15610e40575f60801b935050505061258e565b5f608082901c90506fffffffffffffffffffffffffffffffff82169150838015610e6a57505f8214155b15610e7a57811991506001810190505b5f6f8000000000000000000000000000000090505f6f8000000000000000000000000000000084161115610ec357608070016a09e667f3bcc908b2fb1366ea957d3e8202901c90505b5f6f4000000000000000000000000000000084161115610ef85760807001306fe0a31b7152de8d5a46305c85edec8202901c90505b5f6f2000000000000000000000000000000084161115610f2d5760807001172b83c7d517adcdf7c8c50eb14a791f8202901c90505b5f6f1000000000000000000000000000000084161115610f6257608070010b5586cf9890f6298b92b71842a983638202901c90505b5f6f0800000000000000000000000000000084161115610f975760807001059b0d31585743ae7c548eb68ca417fd8202901c90505b5f6f0400000000000000000000000000000084161115610fcc576080700102c9a3e778060ee6f7caca4f7a29bde88202901c90505b5f6f020000000000000000000000000000008416111561100157608070010163da9fb33356d84a66ae336dcdfa3f8202901c90505b5f6f0100000000000000000000000000000084161115611036576080700100b1afa5abcbed6129ab13ec11dc95438202901c90505b5f6e8000000000000000000000000000008416111561106a57608070010058c86da1c09ea1ff19d294cf2f679b8202901c90505b5f6e4000000000000000000000000000008416111561109e5760807001002c605e2e8cec506d21bfc89a23a00f8202901c90505b5f6e200000000000000000000000000000841611156110d2576080700100162f3904051fa128bca9c55c31e5df8202901c90505b5f6e100000000000000000000000000000841611156111065760807001000b175effdc76ba38e31671ca9397258202901c90505b5f6e0800000000000000000000000000008416111561113a576080700100058ba01fb9f96d6cacd4b180917c3d8202901c90505b5f6e0400000000000000000000000000008416111561116e57608070010002c5cc37da9491d0985c348c68e7b38202901c90505b5f6e020000000000000000000000000000841611156111a25760807001000162e525ee054754457d59952920268202901c90505b5f6e010000000000000000000000000000841611156111d657608070010000b17255775c040618bf4a4ade83fc8202901c90505b5f6d8000000000000000000000000000841611156112095760807001000058b91b5bc9ae2eed81e9b7d4cfab8202901c90505b5f6d40000000000000000000000000008416111561123c576080700100002c5c89d5ec6ca4d7c8acc017b7c98202901c90505b5f6d20000000000000000000000000008416111561126f57608070010000162e43f4f831060e02d839a9d16d8202901c90505b5f6d1000000000000000000000000000841611156112a2576080700100000b1721bcfc99d9f890ea069117638202901c90505b5f6d0800000000000000000000000000841611156112d557608070010000058b90cf1e6d97f9ca14dbcc16288202901c90505b5f6d0400000000000000000000000000841611156113085760807001000002c5c863b73f016468f6bac5ca2b8202901c90505b5f6d02000000000000000000000000008416111561133b576080700100000162e430e5a18f6119e3c02282a58202901c90505b5f6d01000000000000000000000000008416111561136e5760807001000000b1721835514b86e6d96efd1bfe8202901c90505b5f6c80000000000000000000000000841611156113a0576080700100000058b90c0b48c6be5df846c5b2ef8202901c90505b5f6c40000000000000000000000000841611156113d257608070010000002c5c8601cc6b9e94213c72737a8202901c90505b5f6c20000000000000000000000000841611156114045760807001000000162e42fff037df38aa2b219f068202901c90505b5f6c100000000000000000000000008416111561143657608070010000000b17217fba9c739aa5819f44f98202901c90505b5f6c08000000000000000000000000841611156114685760807001000000058b90bfcdee5acd3c1cedc8238202901c90505b5f6c040000000000000000000000008416111561149a576080700100000002c5c85fe31f35a6a30da1be508202901c90505b5f6c02000000000000000000000000841611156114cc57608070010000000162e42ff0999ce3541b9fffcf8202901c90505b5f6c01000000000000000000000000841611156114fe576080700100000000b17217f80f4ef5aadda455548202901c90505b5f6b8000000000000000000000008416111561152f57608070010000000058b90bfbf8479bd5a81b51ad8202901c90505b5f6b400000000000000000000000841611156115605760807001000000002c5c85fdf84bd62ae30a74cc8202901c90505b5f6b20000000000000000000000084161115611591576080700100000000162e42fefb2fed257559bdaa8202901c90505b5f6b100000000000000000000000841611156115c25760807001000000000b17217f7d5a7716bba4a9ae8202901c90505b5f6b080000000000000000000000841611156115f3576080700100000000058b90bfbe9ddbac5e109cce8202901c90505b5f6b0400000000000000000000008416111561162457608070010000000002c5c85fdf4b15de6f17eb0d8202901c90505b5f6b020000000000000000000000841611156116555760807001000000000162e42fefa494f1478fde058202901c90505b5f6b0100000000000000000000008416111561168657608070010000000000b17217f7d20cf927c8e94c8202901c90505b5f6a8000000000000000000000841611156116b65760807001000000000058b90bfbe8f71cb4e4b33d8202901c90505b5f6a4000000000000000000000841611156116e6576080700100000000002c5c85fdf477b662b269458202901c90505b5f6a20000000000000000000008416111561171657608070010000000000162e42fefa3ae53369388c8202901c90505b5f6a100000000000000000000084161115611746576080700100000000000b17217f7d1d351a389d408202901c90505b5f6a08000000000000000000008416111561177657608070010000000000058b90bfbe8e8b2d3d4ede8202901c90505b5f6a0400000000000000000000841611156117a65760807001000000000002c5c85fdf4741bea6e77e8202901c90505b5f6a0200000000000000000000841611156117d6576080700100000000000162e42fefa39fe95583c28202901c90505b5f6a0100000000000000000000841611156118065760807001000000000000b17217f7d1cfb72b45e18202901c90505b5f698000000000000000000084161115611835576080700100000000000058b90bfbe8e7cc35c3f08202901c90505b5f69400000000000000000008416111561186457608070010000000000002c5c85fdf473e242ea388202901c90505b5f6920000000000000000000841611156118935760807001000000000000162e42fefa39f02b772c8202901c90505b5f6910000000000000000000841611156118c257608070010000000000000b17217f7d1cf7d83c1a8202901c90505b5f6908000000000000000000841611156118f15760807001000000000000058b90bfbe8e7bdcbe2e8202901c90505b5f690400000000000000000084161115611920576080700100000000000002c5c85fdf473dea871f8202901c90505b5f69020000000000000000008416111561194f57608070010000000000000162e42fefa39ef44d918202901c90505b5f69010000000000000000008416111561197e576080700100000000000000b17217f7d1cf79e9498202901c90505b5f68800000000000000000841611156119ac57608070010000000000000058b90bfbe8e7bce5448202901c90505b5f68400000000000000000841611156119da5760807001000000000000002c5c85fdf473de6eca8202901c90505b5f6820000000000000000084161115611a08576080700100000000000000162e42fefa39ef366f8202901c90505b5f6810000000000000000084161115611a365760807001000000000000000b17217f7d1cf79afa8202901c90505b5f6808000000000000000084161115611a64576080700100000000000000058b90bfbe8e7bcd6d8202901c90505b5f6804000000000000000084161115611a9257608070010000000000000002c5c85fdf473de6b28202901c90505b5f6802000000000000000084161115611ac05760807001000000000000000162e42fefa39ef3588202901c90505b5f6801000000000000000084161115611aee57608070010000000000000000b17217f7d1cf79ab8202901c90505b5f67800000000000000084161115611b1b5760807001000000000000000058b90bfbe8e7bcd58202901c90505b5f67400000000000000084161115611b48576080700100000000000000002c5c85fdf473de6a8202901c90505b5f67200000000000000084161115611b7557608070010000000000000000162e42fefa39ef348202901c90505b5f67100000000000000084161115611ba2576080700100000000000000000b17217f7d1cf7998202901c90505b5f67080000000000000084161115611bcf57608070010000000000000000058b90bfbe8e7bcc8202901c90505b5f67040000000000000084161115611bfc5760807001000000000000000002c5c85fdf473de58202901c90505b5f67020000000000000084161115611c29576080700100000000000000000162e42fefa39ef28202901c90505b5f67010000000000000084161115611c565760807001000000000000000000b17217f7d1cf788202901c90505b5f668000000000000084161115611c82576080700100000000000000000058b90bfbe8e7bb8202901c90505b5f664000000000000084161115611cae57608070010000000000000000002c5c85fdf473dd8202901c90505b5f662000000000000084161115611cda5760807001000000000000000000162e42fefa39ee8202901c90505b5f661000000000000084161115611d0657608070010000000000000000000b17217f7d1cf68202901c90505b5f660800000000000084161115611d325760807001000000000000000000058b90bfbe8e7a8202901c90505b5f660400000000000084161115611d5e576080700100000000000000000002c5c85fdf473c8202901c90505b5f660200000000000084161115611d8a57608070010000000000000000000162e42fefa39d8202901c90505b5f660100000000000084161115611db6576080700100000000000000000000b17217f7d1ce8202901c90505b5f6580000000000084161115611de157608070010000000000000000000058b90bfbe8e68202901c90505b5f6540000000000084161115611e0c5760807001000000000000000000002c5c85fdf4728202901c90505b5f6520000000000084161115611e37576080700100000000000000000000162e42fefa388202901c90505b5f6510000000000084161115611e625760807001000000000000000000000b17217f7d1b8202901c90505b5f6508000000000084161115611e8d576080700100000000000000000000058b90bfbe8d8202901c90505b5f6504000000000084161115611eb857608070010000000000000000000002c5c85fdf468202901c90505b5f6502000000000084161115611ee35760807001000000000000000000000162e42fefa28202901c90505b5f6501000000000084161115611f0e57608070010000000000000000000000b17217f7d08202901c90505b5f64800000000084161115611f385760807001000000000000000000000058b90bfbe78202901c90505b5f64400000000084161115611f62576080700100000000000000000000002c5c85fdf38202901c90505b5f64200000000084161115611f8c57608070010000000000000000000000162e42fef98202901c90505b5f64100000000084161115611fb6576080700100000000000000000000000b17217f7c8202901c90505b5f64080000000084161115611fe057608070010000000000000000000000058b90bfbd8202901c90505b5f6404000000008416111561200a5760807001000000000000000000000002c5c85fde8202901c90505b5f64020000000084161115612034576080700100000000000000000000000162e42fee8202901c90505b5f6401000000008416111561205e5760807001000000000000000000000000b17217f68202901c90505b5f638000000084161115612087576080700100000000000000000000000058b90bfa8202901c90505b5f6340000000841611156120b057608070010000000000000000000000002c5c85fc8202901c90505b5f6320000000841611156120d95760807001000000000000000000000000162e42fd8202901c90505b5f63100000008416111561210257608070010000000000000000000000000b17217e8202901c90505b5f63080000008416111561212b5760807001000000000000000000000000058b90be8202901c90505b5f630400000084161115612154576080700100000000000000000000000002c5c85e8202901c90505b5f63020000008416111561217d57608070010000000000000000000000000162e42e8202901c90505b5f6301000000841611156121a6576080700100000000000000000000000000b172168202901c90505b5f62800000841611156121ce57608070010000000000000000000000000058b90a8202901c90505b5f62400000841611156121f65760807001000000000000000000000000002c5c848202901c90505b5f622000008416111561221e576080700100000000000000000000000000162e418202901c90505b5f62100000841611156122465760807001000000000000000000000000000b17208202901c90505b5f620800008416111561226e576080700100000000000000000000000000058b8f8202901c90505b5f620400008416111561229657608070010000000000000000000000000002c5c78202901c90505b5f62020000841611156122be5760807001000000000000000000000000000162e38202901c90505b5f62010000841611156122e657608070010000000000000000000000000000b1718202901c90505b5f6180008416111561230d5760807001000000000000000000000000000058b88202901c90505b5f61400084161115612334576080700100000000000000000000000000002c5b8202901c90505b5f6120008416111561235b57608070010000000000000000000000000000162d8202901c90505b5f61100084161115612382576080700100000000000000000000000000000b168202901c90505b5f610800841611156123a957608070010000000000000000000000000000058a8202901c90505b5f610400841611156123d05760807001000000000000000000000000000002c48202901c90505b5f610200841611156123f75760807001000000000000000000000000000001618202901c90505b5f6101008416111561241e5760807001000000000000000000000000000000b08202901c90505b5f6080841611156124445760807001000000000000000000000000000000578202901c90505b5f60408416111561246a57608070010000000000000000000000000000002b8202901c90505b5f6020841611156124905760807001000000000000000000000000000000158202901c90505b5f6010841611156124b657608070010000000000000000000000000000000a8202901c90505b5f6008841611156124dc5760807001000000000000000000000000000000048202901c90505b5f6004841611156125025760807001000000000000000000000000000000018202901c90505b8461252a576dffffffffffffffffffffffffffff600f82901c169050613fff82019150612565565b613ffe8211612556576dffffffffffffffffffffffffffff600f82901c16905081613fff039150612564565b613fef820381901c90505f91505b5b5f820361257c575f60801b9550505050505061258e565b80607083901b1760801b955050505050505b919050565b5f6125b2826f3fff000000000000000000000000000060801b5f612e20565b9050919050565b5f6125d883836f3fff000000000000000000000000000060801b613140565b905092915050565b5f8060708460801c6fffffffffffffffffffffffffffffffff16901c6fffffffffffffffffffffffffffffffff1690505f60716e0100000000000000000000000000006dffffffffffffffffffffffffffff8760801c166fffffffffffffffffffffffffffffffff1617901b90505f60708560801c6fffffffffffffffffffffffffffffffff16901c6fffffffffffffffffffffffffffffffff1690505f6e0100000000000000000000000000006dffffffffffffffffffffffffffff8760801c16176fffffffffffffffffffffffffffffffff169050617fff841080156126c95750617fff82105b6126d6576126d56141b2565b5b5f82116126e6576126e56141b2565b5b5f60801b6fffffffffffffffffffffffffffffffff1916876fffffffffffffffffffffffffffffffff191603612725575f60801b945050505050612836565b5f8411612735576127346141b2565b5b808381612745576127446141df565b5b0492506d1000000000000000000000000000831015801561277457506e04000000000000000000000000000083105b612781576127806141b2565b5b5f6e0200000000000000000000000000008410156127a05760706127a3565b60715b60ff169050614070830181860111156127d6576f7fff000000000000000000000000000060801b95505050505050612836565b82613f8e82870101116127f3575f60801b95505050505050612836565b6070811115612806576070810384901c93505b6dffffffffffffffffffffffffffff8416935082613f8e8201038501945083607086901b1760801b955050505050505b92915050565b5f8061284b835f60801b61287e565b5f0b121561285c5761285b6141b2565b5b61287661287161286b856139af565b846109a2565b610ced565b905092915050565b5f806f7fffffffffffffffffffffffffffffff8460801c1690505f6f7fffffffffffffffffffffffffffffff8460801c1690506f7fff0000000000000000000000000000826fffffffffffffffffffffffffffffffff1611156128e4576128e36141b2565b5b6f7fff0000000000000000000000000000816fffffffffffffffffffffffffffffffff161115612917576129166141b2565b5b836fffffffffffffffffffffffffffffffff1916856fffffffffffffffffffffffffffffffff191614158061296d57506f7fff0000000000000000000000000000826fffffffffffffffffffffffffffffffff16105b612975575f80fd5b836fffffffffffffffffffffffffffffffff1916856fffffffffffffffffffffffffffffffff1916036129ac575f92505050612b09565b5f6f800000000000000000000000000000008660801c6fffffffffffffffffffffffffffffffff16101590505f6f800000000000000000000000000000008660801c6fffffffffffffffffffffffffffffffff16101590508115612a9b578015612a6f57826fffffffffffffffffffffffffffffffff16846fffffffffffffffffffffffffffffffff1611612a42576001612a64565b7fffffffffffffffffffffffffffffffffffffffffffffffffffffffffffffffff5b945050505050612b09565b7fffffffffffffffffffffffffffffffffffffffffffffffffffffffffffffffff945050505050612b09565b8015612aae576001945050505050612b09565b826fffffffffffffffffffffffffffffffff16846fffffffffffffffffffffffffffffffff1611612aff577fffffffffffffffffffffffffffffffffffffffffffffffffffffffffffffffff612b02565b60015b9450505050505b92915050565b5f612b1c8484845f6136d1565b90509392505050565b5f808203612b38575f60801b9050612b7e565b5f808313612b4857825f03612b4a565b825b9050612b56815f613919565b90505f831215612b76576f80000000000000000000000000000000811790505b8060801b9150505b919050565b5f80617fff60708660801c6fffffffffffffffffffffffffffffffff16901c166fffffffffffffffffffffffffffffffff1690505f60708560801c6fffffffffffffffffffffffffffffffff16901c6fffffffffffffffffffffffffffffffff169050617fff82108015612bf85750617fff81105b612c0557612c046141b2565b5b5f60801b6fffffffffffffffffffffffffffffffff1916866fffffffffffffffffffffffffffffffff19161480612c6457505f60801b6fffffffffffffffffffffffffffffffff1916856fffffffffffffffffffffffffffffffff1916145b15612c76575f60801b92505050612e19565b5f6e0100000000000000000000000000006dffffffffffffffffffffffffffff8860801c16176fffffffffffffffffffffffffffffffff1690505f6e0100000000000000000000000000006dffffffffffffffffffffffffffff8860801c16176fffffffffffffffffffffffffffffffff1690505f84118015612cf857505f83115b612d0557612d046141b2565b5b808202915082840193505f7c0200000000000000000000000000000000000000000000000000000000831015612d3c5760e0612d3f565b60e15b60ff1690506140e08186011015612d60575f60801b95505050505050612e19565b8615612da05760016070820360018503901c0192506e0200000000000000000000000000008310612d9b57600183901c925084806001019550505b612daa565b6070810383901c92505b61c0dd8186011115612dbf57612dbe6141b2565b5b6dffffffffffffffffffffffffffff831692506140df81860103945082607086901b6f8000000000000000000000000000000060801b8b1660801c6fffffffffffffffffffffffffffffffff16171760801b955050505050505b9392505050565b5f8060708560801c6fffffffffffffffffffffffffffffffff16901c6fffffffffffffffffffffffffffffffff1690505f60708560801c6fffffffffffffffffffffffffffffffff16901c6fffffffffffffffffffffffffffffffff169050617fff82108015612e915750617fff81105b612e9e57612e9d6141b2565b5b5f60801b6fffffffffffffffffffffffffffffffff1916866fffffffffffffffffffffffffffffffff191603612ed8578492505050613139565b5f60801b6fffffffffffffffffffffffffffffffff1916856fffffffffffffffffffffffffffffffff191603612f12578592505050613139565b5f6e0100000000000000000000000000006dffffffffffffffffffffffffffff8860801c16176fffffffffffffffffffffffffffffffff1690505f6e0100000000000000000000000000006dffffffffffffffffffffffffffff8860801c16176fffffffffffffffffffffffffffffffff1690505f84118015612f9457505f83115b612fa157612fa06141b2565b5b5f8385039050861561302e576070811315612fbf5760019150613029565b5f811315612fd85760018160018403901c019150613028565b7fffffffffffffffffffffffffffffffffffffffffffffffffffffffffffffff9081121561300c5760019250839450613027565b5f811215613026576001815f0360018503901c0192508394505b5b5b5b6130a2565b6070811315613044578895505050505050613139565b5f811315613057578082901c91506130a1565b7fffffffffffffffffffffffffffffffffffffffffffffffffffffffffffffff9081121561308c578795505050505050613139565b5f8112156130a057805f0383901c92508394505b5b5b81830192506e02000000000000000000000000000083106130e257866130cc57600183901c6130d7565b60018060018503901c015b925084806001019550505b617fff85106130f4576130f36141b2565b5b6e010000000000000000000000000000831015613113575f9450613127565b6dffffffffffffffffffffffffffff831692505b82607086901b1760801b955050505050505b9392505050565b5f8060708560801c6fffffffffffffffffffffffffffffffff16901c6fffffffffffffffffffffffffffffffff1690505f6e0100000000000000000000000000006dffffffffffffffffffffffffffff8760801c16176fffffffffffffffffffffffffffffffff1690505f60708560801c6fffffffffffffffffffffffffffffffff16901c6fffffffffffffffffffffffffffffffff1690505f6e0100000000000000000000000000006dffffffffffffffffffffffffffff8760801c16176fffffffffffffffffffffffffffffffff169050617fff841080156132255750617fff82105b613232576132316141b2565b5b5f8211613242576132416141b2565b5b5f60801b6fffffffffffffffffffffffffffffffff1916886fffffffffffffffffffffffffffffffff1916148061327857505f87145b15613289575f945050505050613370565b5f8411613299576132986141b2565b5b608f82018411156132df575f6132ae88613c28565b9050610100830185820111156132c7576132c66141b2565b5b608f84901b9350608f8386030388901b97505061335e565b818411156132f45781840383901b925061335d565b81608f8501101561334b575f61330988613c28565b9050826001868301011015613325575f95505050505050613370565b608f82901b9150608f8584030361333d858a85613d0b565b901c95505050505050613370565b8184101561335c5783820381901b90505b5b5b613369838883613d0b565b9450505050505b9392505050565b5f80613383858561287e565b5f0b121561338f575f80fd5b5f60708560801c6fffffffffffffffffffffffffffffffff16901c6fffffffffffffffffffffffffffffffff1690505f60708560801c6fffffffffffffffffffffffffffffffff16901c6fffffffffffffffffffffffffffffffff169050617fff821080156133ff5750617fff81105b61340c5761340b6141b2565b5b5f6e0100000000000000000000000000006dffffffffffffffffffffffffffff8860801c16176fffffffffffffffffffffffffffffffff1690505f6e0100000000000000000000000000006dffffffffffffffffffffffffffff8860801c16176fffffffffffffffffffffffffffffffff1690505f60801b6fffffffffffffffffffffffffffffffff1916876fffffffffffffffffffffffffffffffff1916036134bc57879450505050506136ca565b5f60801b6fffffffffffffffffffffffffffffffff1916886fffffffffffffffffffffffffffffffff191603613527576040517f08c379a000000000000000000000000000000000000000000000000000000000815260040161351e90614266565b60405180910390fd5b5f8411801561353557505f83115b613542576135416141b2565b5b5f838503905086156135785760708111156135645788955050505050506136ca565b5f811115613573578082901c91505b6135ba565b5f81111561358e57600183901b92506001850394505b60708111156135a057600191506135b9565b60018111156135b857600180820360018403901c0191505b5b5b81830392505f83036135d6575f60801b955050505050506136ca565b5f6135e084613c28565b9050871580156135f05750607181145b15613617576dffffffffffffffffffffffffffff600185901c1693506001860195506136a5565b6070811015613690575f8160700390508087111561364f576dffffffffffffffffffffffffffff8186901b169450808703965061368a565b6040517f08c379a000000000000000000000000000000000000000000000000000000000815260040161368190614266565b60405180910390fd5b506136a4565b6dffffffffffffffffffffffffffff841693505b5b617fff86036136b7576136b66141b2565b5b83607087901b1760801b96505050505050505b9392505050565b5f8083036136e2576136e16141b2565b5b5f60708660801c6fffffffffffffffffffffffffffffffff16901c600f0b9050617fff8112613714576137136141b2565b5b5f60801b6fffffffffffffffffffffffffffffffff1916866fffffffffffffffffffffffffffffffff1916148061374a57505f85145b1561375b575f60801b915050613911565b5f811361376b5761376a6141b2565b5b5f6e0100000000000000000000000000006dffffffffffffffffffffffffffff8860801c16176fffffffffffffffffffffffffffffffff1690505f6137af87613c28565b90505f6137bb87613c28565b90508082136137e257600183901b925081810388901b975060018183030384019350613804565b608d8101821315613803575f608d8201830390508089901c98508085019450505b5b8561381957613814838989613d0b565b613825565b613824838989613dfc565b5b92505f830361383d575f60801b945050505050613911565b5f61384784613c28565b9050607081860113613863575f60801b95505050505050613911565b60708113156138bb5786156138ac5760016070820360018603901c0193506e02000000000000000000000000000084106138a757600184901c935084806001019550505b6138b6565b6070810384901c93505b6138cf565b60708112156138ce578060700384901b93505b5b61806e81860113156138e4576138e36141b2565b5b6dffffffffffffffffffffffffffff84169350607081038501945083607086901b1760801b955050505050505b949350505050565b5f8061392484613c28565b9050607081101561393d578060700384901b935061398b565b607081111561398a57821561397f5760016070820360018603901c0193506e020000000000000000000000000000840361397a5780806001019150505b613989565b6070810384901c93505b5b5b607081613fff01901b6dffffffffffffffffffffffffffff85161791505092915050565b5f6f3fff000000000000000000000000000060801b6fffffffffffffffffffffffffffffffff1916826fffffffffffffffffffffffffffffffff1916036139fb575f60801b9050613c23565b5f60801b6fffffffffffffffffffffffffffffffff1916826fffffffffffffffffffffffffffffffff191603613a46576fc00cfff800000000000000000000000060801b9050613c23565b5f60708360801c6fffffffffffffffffffffffffffffffff16901c6fffffffffffffffffffffffffffffffff1690506f3fff00000000000000000000000000008360801c6fffffffffffffffffffffffffffffffff161115613aab57613aaa6141b2565b5b5f8111613abb57613aba6141b2565b5b5f6e0100000000000000000000000000006dffffffffffffffffffffffffffff8560801c166fffffffffffffffffffffffffffffffff161790505f8061406f90505f613fff8510613b1c575f9250613fff85039050600f84901b9350613b2f565b6001925084613ffe039050600f84901b93505b6f800000000000000000000000000000008403613b73578215613b53576001810190505b5f613b5d82613c28565b60700390508082901b9150808303925050613bd1565b5f83613b7f575f613b82565b60015b60ff1690505b6e010000000000000000000000000000821015613bcf57600182901b915060018303925084850294505f60ff86901c90508181188301925080607f0186901c955050613b88565b505b6dffffffffffffffffffffffffffff8116607083901b84613bf2575f613c04565b6f800000000000000000000000000000005b6fffffffffffffffffffffffffffffffff16171760801b955050505050505b919050565b5f808211613c3957613c386141b2565b5b5f7001000000000000000000000000000000008310613c6057608083901c92506080810190505b680100000000000000008310613c7e57604083901c92506040810190505b6401000000008310613c9857602083901c92506020810190505b620100008310613cb057601083901c92506010810190505b6101008310613cc757600883901c92506008810190505b60108310613cdd57600483901c92506004810190505b60048310613cf357600283901c92506002810190505b60028310613d02576001810190505b80915050919050565b5f805f80198587098587029250828110838203039150505f8103613d40575f8411613d34575f80fd5b83820492505050613df5565b808411613d4b575f80fd5b5f8486880990508281118203915080830392505f856001877fffffffffffffffffffffffffffffffffffffffffffffffffffffffffffffffff030116905080860495508084049350600181825f0304019050808302841793505f600287600302189050808702600203810290508087026002038102905080870260020381029050808702600203810290508087026002038102905080870260020381029050808502955050505050505b9392505050565b5f613e08848484613d0b565b90505f8280613e1a57613e196141df565b5b8486091115613e5d577fffffffffffffffffffffffffffffffffffffffffffffffffffffffffffffffff8110613e4e575f80fd5b8080613e59906142b1565b9150505b9392505050565b5f80fd5b5f7fffffffffffffffffffffffffffffffff0000000000000000000000000000000082169050919050565b613e9c81613e68565b8114613ea6575f80fd5b50565b5f81359050613eb781613e93565b92915050565b5f8060408385031215613ed357613ed2613e64565b5b5f613ee085828601613ea9565b9250506020613ef185828601613ea9565b9150509250929050565b613f0481613e68565b82525050565b5f602082019050613f1d5f830184613efb565b92915050565b5f60208284031215613f3857613f37613e64565b5b5f613f4584828501613ea9565b91505092915050565b5f815f0b9050919050565b613f6281613f4e565b82525050565b5f602082019050613f7b5f830184613f59565b92915050565b5f819050919050565b613f9381613f81565b8114613f9d575f80fd5b50565b5f81359050613fae81613f8a565b92915050565b5f805f60608486031215613fcb57613fca613e64565b5b5f613fd886828701613ea9565b9350506020613fe986828701613fa0565b9250506040613ffa86828701613ea9565b9150509250925092565b61400d81613f81565b82525050565b5f6020820190506140265f830184614004565b92915050565b5f819050919050565b61403e8161402c565b82525050565b5f6020820190506140575f830184614035565b92915050565b5f805f6060848603121561407457614073613e64565b5b5f61408186828701613ea9565b935050602061409286828701613fa0565b92505060406140a386828701613fa0565b9150509250925092565b5f602082840312156140c2576140c1613e64565b5b5f6140cf84828501613fa0565b91505092915050565b5f80604083850312156140ee576140ed613e64565b5b5f6140fb85828601613fa0565b925050602061410c85828601613fa0565b9150509250929050565b5f806040838503121561412c5761412b613e64565b5b5f61413985828601613ea9565b925050602061414a85828601613fa0565b9150509250929050565b5f819050919050565b61416681614154565b8114614170575f80fd5b50565b5f813590506141818161415d565b92915050565b5f6020828403121561419c5761419b613e64565b5b5f6141a984828501614173565b91505092915050565b7f4e487b71000000000000000000000000000000000000000000000000000000005f52600160045260245ffd5b7f4e487b71000000000000000000000000000000000000000000000000000000005f52601260045260245ffd5b5f82825260208201905092915050565b7f55460000000000000000000000000000000000000000000000000000000000005f82015250565b5f61425060028361420c565b915061425b8261421c565b602082019050919050565b5f6020820190508181035f83015261427d81614244565b9050919050565b7f4e487b71000000000000000000000000000000000000000000000000000000005f52601160045260245ffd5b5f6142bb82613f81565b91507fffffffffffffffffffffffffffffffffffffffffffffffffffffffffffffffff82036142ed576142ec614284565b5b60018201905091905056fea2646970667358221220dbc71088df540b36ecb9445e2ccefd094e6937d8ecc070ed0c3cbac2566d7e5864736f6c63430008140033",
  "linkReferences": {},
  "deployedLinkReferences": {}
}