{"abi":[{"type":"constructor","inputs":[{"name":"systemControl","type":"address","internalType":"address"},{"name":"sir","type":"address","internalType":"address"},{"name":"oracle","type":"address","internalType":"address"}],"stateMutability":"nonpayable"},{"type":"function","name":"TIMESTAMP_ISSUANCE_START","inputs":[],"outputs":[{"name":"","type":"uint40","internalType":"uint40"}],"stateMutability":"view"},{"type":"function","name":"balanceOf","inputs":[{"name":"account","type":"address","internalType":"address"},{"name":"vaultId","type":"uint256","internalType":"uint256"}],"outputs":[{"name":"","type":"uint256","internalType":"uint256"}],"stateMutability":"view"},{"type":"function","name":"balanceOfBatch","inputs":[{"name":"owners","type":"address[]","internalType":"address[]"},{"name":"vaultIds","type":"uint256[]","internalType":"uint256[]"}],"outputs":[{"name":"balances_","type":"uint256[]","internalType":"uint256[]"}],"stateMutability":"view"},{"type":"function","name":"burn","inputs":[{"name":"isAPE","type":"bool","internalType":"bool"},{"name":"vaultParams","type":"tuple","internalType":"struct SirStructs.VaultParameters","components":[{"name":"debtToken","type":"address","internalType":"address"},{"name":"collateralToken","type":"address","internalType":"address"},{"name":"leverageTier","type":"int8","internalType":"int8"}]},{"name":"amount","type":"uint256","internalType":"uint256"}],"outputs":[{"name":"","type":"uint144","internalType":"uint144"}],"stateMutability":"nonpayable"},{"type":"function","name":"claimSIR","inputs":[{"name":"vaultId","type":"uint256","internalType":"uint256"},{"name":"lper","type":"address","internalType":"address"}],"outputs":[{"name":"","type":"uint80","internalType":"uint80"}],"stateMutability":"nonpayable"},{"type":"function","name":"collateralStates","inputs":[{"name":"token","type":"address","internalType":"address"}],"outputs":[{"name":"","type":"tuple","internalType":"struct SirStructs.CollateralState","components":[{"name":"totalFeesToStakers","type":"uint112","internalType":"uint112"},{"name":"total","type":"uint144","internalType":"uint144"}]}],"stateMutability":"view"},{"type":"function","name":"cumulativeSIRPerTEA","inputs":[{"name":"vaultId","type":"uint256","internalType":"uint256"}],"outputs":[{"name":"cumulativeSIRPerTEAx96","type":"uint176","internalType":"uint176"}],"stateMutability":"view"},{"type":"function","name":"getReserves","inputs":[{"name":"vaultParams","type":"tuple","internalType":"struct SirStructs.VaultParameters","components":[{"name":"debtToken","type":"address","internalType":"address"},{"name":"collateralToken","type":"address","internalType":"address"},{"name":"leverageTier","type":"int8","internalType":"int8"}]}],"outputs":[{"name":"","type":"tuple","internalType":"struct SirStructs.Reserves","components":[{"name":"reserveApes","type":"uint144","internalType":"uint144"},{"name":"reserveLPers","type":"uint144","internalType":"uint144"},{"name":"tickPriceX42","type":"int64","internalType":"int64"}]}],"stateMutability":"view"},{"type":"function","name":"initialize","inputs":[{"name":"vaultParams","type":"tuple","internalType":"struct SirStructs.VaultParameters","components":[{"name":"debtToken","type":"address","internalType":"address"},{"name":"collateralToken","type":"address","internalType":"address"},{"name":"leverageTier","type":"int8","internalType":"int8"}]}],"outputs":[],"stateMutability":"nonpayable"},{"type":"function","name":"isApprovedForAll","inputs":[{"name":"","type":"address","internalType":"address"},{"name":"","type":"address","internalType":"address"}],"outputs":[{"name":"","type":"bool","internalType":"bool"}],"stateMutability":"view"},{"type":"function","name":"latestTokenParams","inputs":[],"outputs":[{"name":"","type":"tuple","internalType":"struct SirStructs.TokenParameters","components":[{"name":"name","type":"string","internalType":"string"},{"name":"symbol","type":"string","internalType":"string"},{"name":"decimals","type":"uint8","internalType":"uint8"}]},{"name":"","type":"tuple","internalType":"struct SirStructs.VaultParameters","components":[{"name":"debtToken","type":"address","internalType":"address"},{"name":"collateralToken","type":"address","internalType":"address"},{"name":"leverageTier","type":"int8","internalType":"int8"}]}],"stateMutability":"view"},{"type":"function","name":"mint","inputs":[{"name":"isAPE","type":"bool","internalType":"bool"},{"name":"vaultParams","type":"tuple","internalType":"struct SirStructs.VaultParameters","components":[{"name":"debtToken","type":"address","internalType":"address"},{"name":"collateralToken","type":"address","internalType":"address"},{"name":"leverageTier","type":"int8","internalType":"int8"}]}],"outputs":[{"name":"amount","type":"uint256","internalType":"uint256"}],"stateMutability":"nonpayable"},{"type":"function","name":"numberOfVaults","inputs":[],"outputs":[{"name":"","type":"uint48","internalType":"uint48"}],"stateMutability":"view"},{"type":"function","name":"paramsById","inputs":[{"name":"vaultId","type":"uint48","internalType":"uint48"}],"outputs":[{"name":"","type":"tuple","internalType":"struct SirStructs.VaultParameters","components":[{"name":"debtToken","type":"address","internalType":"address"},{"name":"collateralToken","type":"address","internalType":"address"},{"name":"leverageTier","type":"int8","internalType":"int8"}]}],"stateMutability":"view"},{"type":"function","name":"safeBatchTransferFrom","inputs":[{"name":"from","type":"address","internalType":"address"},{"name":"to","type":"address","internalType":"address"},{"name":"vaultIds","type":"uint256[]","internalType":"uint256[]"},{"name":"amounts","type":"uint256[]","internalType":"uint256[]"},{"name":"data","type":"bytes","internalType":"bytes"}],"outputs":[],"stateMutability":"nonpayable"},{"type":"function","name":"safeTransferFrom","inputs":[{"name":"from","type":"address","internalType":"address"},{"name":"to","type":"address","internalType":"address"},{"name":"vaultId","type":"uint256","internalType":"uint256"},{"name":"amount","type":"uint256","internalType":"uint256"},{"name":"data","type":"bytes","internalType":"bytes"}],"outputs":[],"stateMutability":"nonpayable"},{"type":"function","name":"setApprovalForAll","inputs":[{"name":"operator","type":"address","internalType":"address"},{"name":"approved","type":"bool","internalType":"bool"}],"outputs":[],"stateMutability":"nonpayable"},{"type":"function","name":"supportsInterface","inputs":[{"name":"interfaceId","type":"bytes4","internalType":"bytes4"}],"outputs":[{"name":"","type":"bool","internalType":"bool"}],"stateMutability":"pure"},{"type":"function","name":"systemParams","inputs":[],"outputs":[{"name":"","type":"tuple","internalType":"struct SirStructs.SystemParameters","components":[{"name":"baseFee","type":"uint16","internalType":"uint16"},{"name":"lpFee","type":"uint16","internalType":"uint16"},{"name":"mintingStopped","type":"bool","internalType":"bool"},{"name":"cumulativeTax","type":"uint16","internalType":"uint16"}]}],"stateMutability":"view"},{"type":"function","name":"totalSupply","inputs":[{"name":"vaultId","type":"uint256","internalType":"uint256"}],"outputs":[{"name":"","type":"uint256","internalType":"uint256"}],"stateMutability":"view"},{"type":"function","name":"unclaimedRewards","inputs":[{"name":"vaultId","type":"uint256","internalType":"uint256"},{"name":"lper","type":"address","internalType":"address"}],"outputs":[{"name":"","type":"uint80","internalType":"uint80"}],"stateMutability":"view"},{"type":"function","name":"updateSystemState","inputs":[{"name":"baseFee","type":"uint16","internalType":"uint16"},{"name":"lpFee","type":"uint16","internalType":"uint16"},{"name":"mintingStopped","type":"bool","internalType":"bool"}],"outputs":[],"stateMutability":"nonpayable"},{"type":"function","name":"updateVaults","inputs":[{"name":"oldVaults","type":"uint48[]","internalType":"uint48[]"},{"name":"newVaults","type":"uint48[]","internalType":"uint48[]"},{"name":"newTaxes","type":"uint8[]","internalType":"uint8[]"},{"name":"cumulativeTax","type":"uint16","internalType":"uint16"}],"outputs":[],"stateMutability":"nonpayable"},{"type":"function","name":"uri","inputs":[{"name":"vaultId","type":"uint256","internalType":"uint256"}],"outputs":[{"name":"","type":"string","internalType":"string"}],"stateMutability":"view"},{"type":"function","name":"vaultStates","inputs":[{"name":"vaultParams","type":"tuple","internalType":"struct SirStructs.VaultParameters","components":[{"name":"debtToken","type":"address","internalType":"address"},{"name":"collateralToken","type":"address","internalType":"address"},{"name":"leverageTier","type":"int8","internalType":"int8"}]}],"outputs":[{"name":"","type":"tuple","internalType":"struct SirStructs.VaultState","components":[{"name":"reserve","type":"uint144","internalType":"uint144"},{"name":"tickPriceSatX42","type":"int64","internalType":"int64"},{"name":"vaultId","type":"uint48","internalType":"uint48"}]}],"stateMutability":"view"},{"type":"function","name":"vaultTax","inputs":[{"name":"vaultId","type":"uint48","internalType":"uint48"}],"outputs":[{"name":"","type":"uint8","internalType":"uint8"}],"stateMutability":"view"},{"type":"function","name":"withdrawFees","inputs":[{"name":"token","type":"address","internalType":"address"}],"outputs":[{"name":"totalFeesToStakers","type":"uint112","internalType":"uint112"}],"stateMutability":"nonpayable"},{"type":"function","name":"withdrawToSaveSystem","inputs":[{"name":"tokens","type":"address[]","internalType":"address[]"},{"name":"to","type":"address","internalType":"address"}],"outputs":[{"name":"amounts","type":"uint256[]","internalType":"uint256[]"}],"stateMutability":"nonpayable"},{"type":"event","name":"ApprovalForAll","inputs":[{"name":"account","type":"address","indexed":true,"internalType":"address"},{"name":"operator","type":"address","indexed":true,"internalType":"address"},{"name":"approved","type":"bool","indexed":false,"internalType":"bool"}],"anonymous":false},{"type":"event","name":"Burn","inputs":[{"name":"vaultId","type":"uint48","indexed":true,"internalType":"uint48"},{"name":"isAPE","type":"bool","indexed":false,"internalType":"bool"},{"name":"collateralWithdrawn","type":"uint144","indexed":false,"internalType":"uint144"},{"name":"collateralFeeToStakers","type":"uint144","indexed":false,"internalType":"uint144"},{"name":"collateralFeeToLPers","type":"uint144","indexed":false,"internalType":"uint144"}],"anonymous":false},{"type":"event","name":"FeesToStakers","inputs":[{"name":"collateralToken","type":"address","indexed":true,"internalType":"address"},{"name":"totalFeesToStakers","type":"uint112","indexed":false,"internalType":"uint112"}],"anonymous":false},{"type":"event","name":"Mint","inputs":[{"name":"vaultId","type":"uint48","indexed":true,"internalType":"uint48"},{"name":"isAPE","type":"bool","indexed":false,"internalType":"bool"},{"name":"collateralIn","type":"uint144","indexed":false,"internalType":"uint144"},{"name":"collateralFeeToStakers","type":"uint144","indexed":false,"internalType":"uint144"},{"name":"collateralFeeToLPers","type":"uint144","indexed":false,"internalType":"uint144"}],"anonymous":false},{"type":"event","name":"TransferBatch","inputs":[{"name":"operator","type":"address","indexed":true,"internalType":"address"},{"name":"from","type":"address","indexed":true,"internalType":"address"},{"name":"to","type":"address","indexed":true,"internalType":"address"},{"name":"vaultIds","type":"uint256[]","indexed":false,"internalType":"uint256[]"},{"name":"amounts","type":"uint256[]","indexed":false,"internalType":"uint256[]"}],"anonymous":false},{"type":"event","name":"TransferSingle","inputs":[{"name":"operator","type":"address","indexed":true,"internalType":"address"},{"name":"from","type":"address","indexed":true,"internalType":"address"},{"name":"to","type":"address","indexed":true,"internalType":"address"},{"name":"id","type":"uint256","indexed":false,"internalType":"uint256"},{"name":"amount","type":"uint256","indexed":false,"internalType":"uint256"}],"anonymous":false},{"type":"event","name":"URI","inputs":[{"name":"value","type":"string","indexed":false,"internalType":"string"},{"name":"id","type":"uint256","indexed":true,"internalType":"uint256"}],"anonymous":false},{"type":"event","name":"VaultNewTax","inputs":[{"name":"vault","type":"uint48","indexed":true,"internalType":"uint48"},{"name":"tax","type":"uint8","indexed":false,"internalType":"uint8"},{"name":"cumulativeTax","type":"uint16","indexed":false,"internalType":"uint16"}],"anonymous":false},{"type":"error","name":"LengthMismatch","inputs":[]},{"type":"error","name":"NotAuthorized","inputs":[]},{"type":"error","name":"TEAMaxSupplyExceeded","inputs":[]},{"type":"error","name":"TF","inputs":[]},{"type":"error","name":"UnsafeRecipient","inputs":[]}],"bytecode":{"object":"0x61010060405234801561001157600080fd5b506040516161753803806161758339810160408190526100309161015f565b6001600160a01b03928316608090815264ffffffffff421660a05291831660c052604080519283018152610fa08352610929602080850191909152600084830181905260609485018190526002805466ffffffffffffff19166309290fa017815593861660e05282519485018352808552908401818152918401818152600580546001810182559252935192027f036b6384b5eca791c62761152d0c79bb0604c104a5fb6f4eb0703f3154bb3db0810180549386166001600160a01b031990941693909317909255517f036b6384b5eca791c62761152d0c79bb0604c104a5fb6f4eb0703f3154bb3db19091018054925160ff16600160a01b026001600160a81b031990931691909316171790556101a2565b80516001600160a01b038116811461015a57600080fd5b919050565b60008060006060848603121561017457600080fd5b61017d84610143565b925061018b60208501610143565b915061019960408501610143565b90509250925092565b60805160a05160c05160e051615f62610213600039600081816112360152818161139401528181611dac0152612f8601526000818161097a01528181610b0d0152611b3201526000818161031a0152613fe40152600081816117e90152818161228201526126de0152615f626000f3fe608060405234801561001057600080fd5b50600436106101c35760003560e01c806361086e43116100f9578063bb147c5411610097578063d2f3fd0911610071578063d2f3fd091461067b578063e985e9c51461069b578063f242432a146106c9578063fbd98edf146106dc57600080fd5b8063bb147c5414610623578063bd85b03914610636578063c7c3d2dc1461066857600080fd5b80637a32af78116100d35780637a32af78146105a45780637a4996e8146105c357806394c050f8146105fd578063a22cb4651461061057600080fd5b806361086e43146104815780636cfcac0414610554578063777b1d431461059157600080fd5b80633fc621881161016657806346f907481161014057806346f907481461040a5780634e1273f4146104385780635ab2cef41461045857806360e0970a1461046b57600080fd5b80633fc62188146102df578063410cd41a14610315578063458e8e6b1461035257600080fd5b8063164e68de116101a2578063164e68de146102315780632eb2c2d6146102635780632edf3104146102785780633aa88670146102cc57600080fd5b8062fdd58e146101c857806301ffc9a7146101ee5780630e89341c14610211575b600080fd5b6101db6101d6366004614a86565b6106fc565b6040519081526020015b60405180910390f35b6102016101fc366004614ae0565b610790565b60405190151581526020016101e5565b61022461021f366004614afd565b610871565b6040516101e59190614b84565b61024461023f366004614b97565b610960565b6040516dffffffffffffffffffffffffffff90911681526020016101e5565b610276610271366004614c42565b610b48565b005b61028b610286366004614d1f565b611072565b60408051825171ffffffffffffffffffffffffffffffffffff16815260208084015160070b908201529181015165ffffffffffff16908201526060016101e5565b6102766102da366004614e1c565b6111c7565b6102f26102ed366004614e7e565b6112de565b60405171ffffffffffffffffffffffffffffffffffff90911681526020016101e5565b61033c7f000000000000000000000000000000000000000000000000000000000000000081565b60405164ffffffffff90911681526020016101e5565b6103c4604080516080810182526000808252602082018190529181018290526060810191909152506040805160808101825260025461ffff80821683526201000082048116602084015260ff640100000000830416151593830193909352650100000000009004909116606082015290565b6040516101e59190600060808201905061ffff835116825261ffff602084015116602083015260408301511515604083015261ffff606084015116606083015292915050565b61041d610418366004614ebe565b6116b1565b60405169ffffffffffffffffffff90911681526020016101e5565b61044b610446366004614eee565b6116d0565b6040516101e59190614f5f565b610276610466366004614fb4565b6117d1565b61047361190c565b6040516101e5929190614ffb565b61051561048f366004614b97565b60408051808201909152600080825260208201525073ffffffffffffffffffffffffffffffffffffffff166000908152600860209081526040918290208251808401909352546dffffffffffffffffffffffffffff811683526e010000000000000000000000000000900471ffffffffffffffffffffffffffffffffffff169082015290565b6040805182516dffffffffffffffffffffffffffff16815260209283015171ffffffffffffffffffffffffffffffffffff1692810192909252016101e5565b61057f6105623660046150cb565b65ffffffffffff1660009081526020819052604090205460ff1690565b60405160ff90911681526020016101e5565b61041d61059f366004614ebe565b611b18565b6105ac611c60565b60405165ffffffffffff90911681526020016101e5565b6105d66105d1366004614afd565b611c77565b60405175ffffffffffffffffffffffffffffffffffffffffffff90911681526020016101e5565b6101db61060b3660046150e8565b611d2e565b61027661061e36600461511e565b6121d3565b61027661063136600461514c565b61226a565b6101db610644366004614afd565b6000908152600460205260409020546fffffffffffffffffffffffffffffffff1690565b61044b610676366004615203565b6126c4565b61068e6106893660046150cb565b612a7a565b6040516101e5919061524f565b6102016106a93660046152a3565b600660209081526000928352604080842090915290825290205460ff1681565b6102766106d73660046152d1565b612b23565b6106ef6106ea366004614d1f565b612f22565b6040516101e5919061534d565b600073ffffffffffffffffffffffffffffffffffffffff831630146107515773ffffffffffffffffffffffffffffffffffffffff83166000908152600360209081526040808320858452909152902054610787565b60008281526004602052604090205470010000000000000000000000000000000090046fffffffffffffffffffffffffffffffff165b90505b92915050565b60007f01ffc9a7000000000000000000000000000000000000000000000000000000007fffffffff000000000000000000000000000000000000000000000000000000008316148061082357507fd9b67a26000000000000000000000000000000000000000000000000000000007fffffffff000000000000000000000000000000000000000000000000000000008316145b8061078a5750507fffffffff00000000000000000000000000000000000000000000000000000000167f0e89341c000000000000000000000000000000000000000000000000000000001490565b6000818152600460208190526040918290205491517f3ef6287c000000000000000000000000000000000000000000000000000000008152600591810191909152602481018390526fffffffffffffffffffffffffffffffff9091166044820181905260609173__$0d913f5ea2cc8398585c34a0416dbc1ef1$__90633ef6287c90606401600060405180830381865af4158015610913573d6000803e3d6000fd5b505050506040513d6000823e601f3d9081017fffffffffffffffffffffffffffffffffffffffffffffffffffffffffffffffe0168201604052610959919081019061539d565b9392505050565b60003373ffffffffffffffffffffffffffffffffffffffff7f000000000000000000000000000000000000000000000000000000000000000016146109a457600080fd5b5073ffffffffffffffffffffffffffffffffffffffff81166000908152600860209081526040918290208251808401909352546dffffffffffffffffffffffffffff81168084526e01000000000000000000000000000090910471ffffffffffffffffffffffffffffffffffff1691830191909152908115610b4257604051806040016040528060006dffffffffffffffffffffffffffff168152602001836dffffffffffffffffffffffffffff168360200151610a629190615480565b71ffffffffffffffffffffffffffffffffffff90811690915273ffffffffffffffffffffffffffffffffffffffff851660008181526008602090815260408083208651968301519095166e010000000000000000000000000000026dffffffffffffffffffffffffffff909616959095179093559251928352917fcd82d3b0662b3f7ad1373ff46ce247f38d4e9dd2419b198489e17f09b79cd93e910160405180910390a2610b42837f0000000000000000000000000000000000000000000000000000000000000000846dffffffffffffffffffffffffffff16612ff1565b50919050565b3073ffffffffffffffffffffffffffffffffffffffff891603610b6d57610b6d6154aa565b848314610ba6576040517fff633a3800000000000000000000000000000000000000000000000000000000815260040160405180910390fd5b3373ffffffffffffffffffffffffffffffffffffffff891614801590610bfd575073ffffffffffffffffffffffffffffffffffffffff8816600090815260066020908152604080832033845290915290205460ff16155b15610c34576040517fea8e4eb500000000000000000000000000000000000000000000000000000000815260040160405180910390fd5b6040805160808101825260008082526020820181905291810182905260608101829052905b86811015610e87576000888883818110610c7557610c756154d9565b9050602002013590506000878784818110610c9257610c926154d9565b90506020020135905060405180608001604052808d73ffffffffffffffffffffffffffffffffffffffff168152602001600360008f73ffffffffffffffffffffffffffffffffffffffff1673ffffffffffffffffffffffffffffffffffffffff16815260200190815260200160002060008581526020019081526020016000205481526020018c73ffffffffffffffffffffffffffffffffffffffff168152602001610d3e8d856106fc565b90526040805160808101825260025461ffff80821683526201000082048116602080850191909152640100000000830460ff90811615158587015265010000000000909304909116606080850191909152600088815280835285812086519283018752549384168252610100840464ffffffffff1692820192909252660100000000000090920475ffffffffffffffffffffffffffffffffffffffffffff1693820193909352929650610dfd92859190610df78361312a565b8961319b565b508084602001818151610e109190615508565b90525073ffffffffffffffffffffffffffffffffffffffff8c8116908c1614610e7d5760208085015173ffffffffffffffffffffffffffffffffffffffff8e16600090815260038352604080822086835290935291909120556060840151610e7d908c90849084016133e8565b5050600101610c59565b508773ffffffffffffffffffffffffffffffffffffffff168973ffffffffffffffffffffffffffffffffffffffff163373ffffffffffffffffffffffffffffffffffffffff167f4a39dc06d4c0dbc64b70af90fd698a233a518aa5d07e595d983b8c0526c8f7fb8a8a8a8a604051610f029493929190615566565b60405180910390a473ffffffffffffffffffffffffffffffffffffffff88163b156110175773ffffffffffffffffffffffffffffffffffffffff8816301480159061101257506040517fbc197c81000000000000000000000000000000000000000000000000000000008082529073ffffffffffffffffffffffffffffffffffffffff8a169063bc197c8190610faa9033908e908d908d908d908d908d908d906004016155e1565b6020604051808303816000875af1158015610fc9573d6000803e3d6000fd5b505050506040513d601f19601f82011682018060405250810190610fed9190615664565b7fffffffff000000000000000000000000000000000000000000000000000000001614155b611030565b73ffffffffffffffffffffffffffffffffffffffff8816155b15611067576040517f3da6393100000000000000000000000000000000000000000000000000000000815260040160405180910390fd5b505050505050505050565b6040805160608101825260008082526020820181905291810191909152600760006110a06020850185614b97565b73ffffffffffffffffffffffffffffffffffffffff1673ffffffffffffffffffffffffffffffffffffffff16815260200190815260200160002060008360200160208101906110ef9190614b97565b73ffffffffffffffffffffffffffffffffffffffff1673ffffffffffffffffffffffffffffffffffffffff168152602001908152602001600020600083604001602081019061113e9190615681565b600090810b8252602080830193909352604091820190208151606081018352905471ffffffffffffffffffffffffffffffffffff811682527201000000000000000000000000000000000000810460070b938201939093527a01000000000000000000000000000000000000000000000000000090920465ffffffffffff169082015292915050565b805173ffffffffffffffffffffffffffffffffffffffff90811660009081526007602090815260408083208286018051861685529083528184208287018051860b8652935281842091517fce3978b60000000000000000000000000000000000000000000000000000000081527f000000000000000000000000000000000000000000000000000000000000000086166004820152602481019290925260056044830152600960648301528551851660848301525190931660a484015251900b60c482015273__$0d913f5ea2cc8398585c34a0416dbc1ef1$__9063ce3978b69060e40160006040518083038186803b1580156112c357600080fd5b505af41580156112d7573d6000803e3d6000fd5b5050505050565b60008060026040518060800160405290816000820160009054906101000a900461ffff1661ffff1661ffff1681526020016000820160029054906101000a900461ffff1661ffff1661ffff1681526020016000820160049054906101000a900460ff161515151581526020016000820160059054906101000a900461ffff1661ffff1661ffff1681525050905060008060008073__$0d913f5ea2cc8398585c34a0416dbc1ef1$__63a80cf3ce60008b600860077f00000000000000000000000000000000000000000000000000000000000000008e6040518763ffffffff1660e01b81526004016113d596959493929190615700565b61014060405180830381865af41580156113f3573d6000803e3d6000fd5b505050506040513d601f19601f8201168201806040525081019061141791906157d7565b5060408381015165ffffffffffff1660009081526020818152828220835160608082018652915460ff81168252610100810464ffffffffff16828501526601000000000000900475ffffffffffffffffffffffffffffffffffffffffffff168186015284516080810186528481529283018490529382018390528101919091529498509296509094509250908a15611580578273ffffffffffffffffffffffffffffffffffffffff16638c2684273389600001518560000151888e6040518663ffffffff1660e01b81526004016114f29594939291906158de565b60e0604051808303816000875af1158015611511573d6000803e3d6000fd5b505050506040513d601f19601f8201168201806040525081019061153591906159ed565b6060810151919550915071ffffffffffffffffffffffffffffffffffff161561157b5761157b61156b60408c0160208d01614b97565b866040015186846060015161347a565b6115a4565b6115a161159360408c0160208d01614b97565b86604001518985888e613664565b90505b6115af85858c61387e565b6115e8600087836020015171ffffffffffffffffffffffffffffffffffff168d60200160208101906115e19190614b97565b8551613d62565b846040015165ffffffffffff167f7c6da711ffa6af277b820416f2daab1018c73a4fb0c4a49a38c5fb292b6c0e8b8c83600001518460200151856060015186604001516116359190615a19565b60408051941515855271ffffffffffffffffffffffffffffffffffff9384166020860152918316848301529091166060830152519081900360800190a26116a261168560408c0160208d01614b97565b8251339071ffffffffffffffffffffffffffffffffffff16612ff1565b519a9950505050505050505050565b600061078783836116c285876106fc565b6116cb87611c77565b613e99565b606083821461170b576040517fff633a3800000000000000000000000000000000000000000000000000000000815260040160405180910390fd5b8367ffffffffffffffff81111561172457611724614d3b565b60405190808252806020026020018201604052801561174d578160200160208202803683370190505b50905060005b848110156117c8576117a3868683818110611770576117706154d9565b90506020020160208101906117859190614b97565b858584818110611797576117976154d9565b905060200201356106fc565b8282815181106117b5576117b56154d9565b6020908102919091010152600101611753565b50949350505050565b3373ffffffffffffffffffffffffffffffffffffffff7f0000000000000000000000000000000000000000000000000000000000000000161461181357600080fd5b60408051608080820183526002805461ffff808216855262010000808304821660208088019190915264010000000080850460ff161515888a01526501000000000080860485166060998a019081528a519889018b529c85168089529b85169288018390529915159887018990529a51909216949095018490527fffffffffffffffffffffffffffffffffffffffffffffffffffffffff0000000090911690961795909202949094177fffffffffffffffffffffffffffffffffffffffffffffffffff000000ffffffff16919094027fffffffffffffffffffffffffffffffffffffffffffffffffff0000ffffffffff16179102179055565b604080516060808201835280825260208201526000918101919091526040805160608101825260008082526020820181905291810191909152600580546009919061195990600190615508565b81548110611969576119696154d9565b90600052602060002090600202018160405180606001604052908160008201805461199390615a43565b80601f01602080910402602001604051908101604052809291908181526020018280546119bf90615a43565b8015611a0c5780601f106119e157610100808354040283529160200191611a0c565b820191906000526020600020905b8154815290600101906020018083116119ef57829003601f168201915b50505050508152602001600182018054611a2590615a43565b80601f0160208091040260200160405190810160405280929190818152602001828054611a5190615a43565b8015611a9e5780601f10611a7357610100808354040283529160200191611a9e565b820191906000526020600020905b815481529060010190602001808311611a8157829003601f168201915b50505091835250506002919091015460ff1660209182015260408051606081018252845473ffffffffffffffffffffffffffffffffffffffff9081168252600190950154948516928101929092527401000000000000000000000000000000000000000090930460000b9281019290925294909350915050565b60003373ffffffffffffffffffffffffffffffffffffffff7f00000000000000000000000000000000000000000000000000000000000000001614611b5c57600080fd5b600060405180608001604052808473ffffffffffffffffffffffffffffffffffffffff168152602001611b8f85876106fc565b8152600060208083018290526040928301829052825160808101845260025461ffff8082168352620100008204811683850152640100000000820460ff90811615158488015265010000000000909204166060808401919091528a85528484529385902085519485018652549081168452610100810464ffffffffff1692840192909252660100000000000090910475ffffffffffffffffffffffffffffffffffffffffffff1692820192909252919250611c58916001918791611c528361312a565b8661319b565b949350505050565b600554600090611c7290600190615508565b905090565b6040805160808101825260025461ffff80821683526201000082048116602080850191909152640100000000830460ff90811615158587015265010000000000909304909116606080850191909152600086815280835285812086519283018752549384168252610100840464ffffffffff1692820192909252660100000000000090920475ffffffffffffffffffffffffffffffffffffffffffff169382019390935261078a9190611d298561312a565b613f84565b6040805160808101825260025461ffff80821683526201000082048116602084015260ff6401000000008304161580159484019490945265010000000000909104166060820152600091611d8157600080fd5b600080600080600073__$0d913f5ea2cc8398585c34a0416dbc1ef1$__63a80cf3ce60018b600860077f00000000000000000000000000000000000000000000000000000000000000008e6040518763ffffffff1660e01b8152600401611ded96959493929190615700565b61014060405180830381865af4158015611e0b573d6000803e3d6000fd5b505050506040513d601f19601f82011682018060405250810190611e2f91906157d7565b60408481015165ffffffffffff1660009081526020818152828220835160608082018652915460ff81168252610100810464ffffffffff16828501526601000000000000900475ffffffffffffffffffffffffffffffffffffffffffff16818601528451608081018652848152928301849052938201839052810191909152959a5093985091965094509250908a15611fb057875182516040517f6bc601d700000000000000000000000000000000000000000000000000000000815273ffffffffffffffffffffffffffffffffffffffff871692636bc601d792611f1e92339291908b908a90600401615a90565b610100604051808303816000875af1158015611f3e573d6000803e3d6000fd5b505050506040513d601f19601f82011682018060405250810190611f629190615b33565b6060820151909b50919650915071ffffffffffffffffffffffffffffffffffff1615611fab57611fab611f9b60408c0160208d01614b97565b876040015187846060015161347a565b611fd6565b611fd1611fc360408c0160208d01614b97565b87604001518a858988614110565b995090505b611fe186868c61387e565b612019600188836020015171ffffffffffffffffffffffffffffffffffff168d60200160208101906120139190614b97565b87613d62565b856040015165ffffffffffff167f2ea082b0ce379480d9dfb0d7ab365e33def58ee2bee64887c13e531723b5c8818c83600001518460200151856060015186604001510160405161209c9493929190931515845271ffffffffffffffffffffffffffffffffffff9283166020850152908216604084015216606082015260800190565b60405180910390a28a1580156120b25750333b15155b801561218e575060408087015190517ff23a6e6100000000000000000000000000000000000000000000000000000000808252336004830181905260006024840181905265ffffffffffff9094166044840152606483018d905260a0608484015260a4830193909352919063f23a6e619060c4016020604051808303816000875af1158015612145573d6000803e3d6000fd5b505050506040513d601f19601f820116820180604052508101906121699190615664565b7fffffffff000000000000000000000000000000000000000000000000000000001614155b156121c5576040517f3da6393100000000000000000000000000000000000000000000000000000000815260040160405180910390fd5b505050505050505092915050565b33600081815260066020908152604080832073ffffffffffffffffffffffffffffffffffffffff87168085529083529281902080547fffffffffffffffffffffffffffffffffffffffffffffffffffffffffffffff001686151590811790915590519081529192917f17307eab39ab6107e8899845ad3d59bd9653f200f220920489ca2b5937696c31910160405180910390a35050565b3373ffffffffffffffffffffffffffffffffffffffff7f000000000000000000000000000000000000000000000000000000000000000016146122ac57600080fd5b6000805b8781101561247f576122ef8989838181106122cd576122cd6154d9565b90506020020160208101906122e291906150cb565b65ffffffffffff16611c77565b91506040518060600160405280600060ff1681526020014264ffffffffff1681526020018375ffffffffffffffffffffffffffffffffffffffffffff168152506000808b8b85818110612344576123446154d9565b905060200201602081019061235991906150cb565b65ffffffffffff16815260208082019290925260409081016000208351815493850151949092015175ffffffffffffffffffffffffffffffffffffffffffff166601000000000000027fffffffff00000000000000000000000000000000000000000000ffffffffffff64ffffffffff909516610100027fffffffffffffffffffffffffffffffffffffffffffffffffffff00000000000090941660ff90931692909217929092179290921691909117905588888281811061241d5761241d6154d9565b905060200201602081019061243291906150cb565b604080516000808252602082015265ffffffffffff92909216917fc05b4c85e1a9e164c2764407bce9e5955a2e6435dea37ef8c4e62ec458ebf21a910160405180910390a26001016122b0565b5060005b8581101561267e576124a08787838181106122cd576122cd6154d9565b915060405180606001604052808686848181106124bf576124bf6154d9565b90506020020160208101906124d49190615b75565b60ff1681526020014264ffffffffff1681526020018375ffffffffffffffffffffffffffffffffffffffffffff1681525060008089898581811061251a5761251a6154d9565b905060200201602081019061252f91906150cb565b65ffffffffffff16815260208082019290925260409081016000208351815493850151949092015175ffffffffffffffffffffffffffffffffffffffffffff166601000000000000027fffffffff00000000000000000000000000000000000000000000ffffffffffff64ffffffffff909516610100027fffffffffffffffffffffffffffffffffffffffffffffffffffff00000000000090941660ff9093169290921792909217929092169190911790558686828181106125f3576125f36154d9565b905060200201602081019061260891906150cb565b65ffffffffffff167fc05b4c85e1a9e164c2764407bce9e5955a2e6435dea37ef8c4e62ec458ebf21a868684818110612643576126436154d9565b90506020020160208101906126589190615b75565b6040805160ff909216825261ffff871660208301520160405180910390a2600101612483565b50506002805461ffff90921665010000000000027fffffffffffffffffffffffffffffffffffffffffffffffffff0000ffffffffff909216919091179055505050505050565b60603373ffffffffffffffffffffffffffffffffffffffff7f0000000000000000000000000000000000000000000000000000000000000000161461270857600080fd5b8267ffffffffffffffff81111561272157612721614d3b565b60405190808252806020026020018201604052801561274a578160200160208202803683370190505b5090506000606060005b85811015612a705786868281811061276e5761276e6154d9565b90506020020160208101906127839190614b97565b604080513060248083019190915282518083039091018152604490910182526020810180517bffffffffffffffffffffffffffffffffffffffffffffffffffffffff167f70a0823100000000000000000000000000000000000000000000000000000000179052905173ffffffffffffffffffffffffffffffffffffffff92909216916128109190615b98565b6000604051808303816000865af19150503d806000811461284d576040519150601f19603f3d011682016040523d82523d6000602084013e612852565b606091505b509093509150828015612866575081516020145b15612a68578180602001905181019061287f9190615bb4565b848281518110612891576128916154d9565b60200260200101818152505060008482815181106128b1576128b16154d9565b60200260200101511115612a68578686828181106128d1576128d16154d9565b90506020020160208101906128e69190614b97565b73ffffffffffffffffffffffffffffffffffffffff1663a9059cbb60e01b86868481518110612917576129176154d9565b602090810291909101015160405173ffffffffffffffffffffffffffffffffffffffff90921660248301526044820152606401604080517fffffffffffffffffffffffffffffffffffffffffffffffffffffffffffffffe08184030181529181526020820180517bffffffffffffffffffffffffffffffffffffffffffffffffffffffff167fffffffff000000000000000000000000000000000000000000000000000000009094169390931790925290516129d39190615b98565b6000604051808303816000865af19150503d8060008114612a10576040519150601f19603f3d011682016040523d82523d6000602084013e612a15565b606091505b509093509150828015612a40575081511580612a40575081806020019051810190612a409190615bcd565b925082612a68576000848281518110612a5b57612a5b6154d9565b6020026020010181815250505b600101612754565b5050509392505050565b604080516060810182526000808252602082018190529181019190915260058265ffffffffffff1681548110612ab257612ab26154d9565b60009182526020808320604080516060810182526002909402909101805473ffffffffffffffffffffffffffffffffffffffff9081168552600190910154908116928401929092527401000000000000000000000000000000000000000090910490920b9181019190915292915050565b3073ffffffffffffffffffffffffffffffffffffffff871603612b4857612b486154aa565b3373ffffffffffffffffffffffffffffffffffffffff871614801590612b9f575073ffffffffffffffffffffffffffffffffffffffff8616600090815260066020908152604080832033845290915290205460ff16155b15612bd6576040517fea8e4eb500000000000000000000000000000000000000000000000000000000815260040160405180910390fd5b6040805160808101825273ffffffffffffffffffffffffffffffffffffffff808916808352600090815260036020908152848220898352815284822054908401529088169282019290925260608101612c2f88886106fc565b90526040805160808101825260025461ffff80821683526201000082048116602080850191909152640100000000830460ff9081161515858701526501000000000090930490911660608085019190915260008b815280835285812086519283018752549384168252610100840464ffffffffff1692820192909252660100000000000090920475ffffffffffffffffffffffffffffffffffffffffffff1693820193909352929350612ce892889190611c528361312a565b508381602001818151612cfb9190615508565b90525073ffffffffffffffffffffffffffffffffffffffff87811690871614612d685760208082015173ffffffffffffffffffffffffffffffffffffffff8916600090815260038352604080822089835290935291909120556060810151612d68908790879087016133e8565b604080518681526020810186905273ffffffffffffffffffffffffffffffffffffffff80891692908a169133917fc3d58168c5ae7397731d063d5bbf3d657854427343f4c083240f7aacaa2d0f62910160405180910390a473ffffffffffffffffffffffffffffffffffffffff86163b15612ec95773ffffffffffffffffffffffffffffffffffffffff86163014801590612ec457506040517ff23a6e61000000000000000000000000000000000000000000000000000000008082529073ffffffffffffffffffffffffffffffffffffffff88169063f23a6e6190612e5c9033908c908b908b908b908b90600401615bea565b6020604051808303816000875af1158015612e7b573d6000803e3d6000fd5b505050506040513d601f19601f82011682018060405250810190612e9f9190615664565b7fffffffff000000000000000000000000000000000000000000000000000000001614155b612ee2565b73ffffffffffffffffffffffffffffffffffffffff8616155b15612f19576040517f3da6393100000000000000000000000000000000000000000000000000000000815260040160405180910390fd5b50505050505050565b604080516060810182526000808252602082018190528183015290517f94215a4c00000000000000000000000000000000000000000000000000000000815273__$0d913f5ea2cc8398585c34a0416dbc1ef1$__906394215a4c90612fb0906007907f0000000000000000000000000000000000000000000000000000000000000000908790600401615c4e565b606060405180830381865af4158015612fcd573d6000803e3d6000fd5b505050506040513d601f19601f8201168201806040525081019061078a9190615c7e565b6040805173ffffffffffffffffffffffffffffffffffffffff8481166024830152604480830185905283518084039091018152606490920183526020820180517bffffffffffffffffffffffffffffffffffffffffffffffffffffffff167fa9059cbb0000000000000000000000000000000000000000000000000000000017905291516000928392908716916130889190615b98565b6000604051808303816000865af19150503d80600081146130c5576040519150601f19603f3d011682016040523d82523d6000602084013e6130ca565b606091505b50915091508180156130f45750805115806130f45750808060200190518101906130f49190615bcd565b6112d7576040517f8b98626500000000000000000000000000000000000000000000000000000000815260040160405180910390fd5b60008181526004602090815260408083208151808301909252546fffffffffffffffffffffffffffffffff80821680845270010000000000000000000000000000000090920416928201839052909161318291615c9a565b6fffffffffffffffffffffffffffffffff169392505050565b6000806131a9868686613f84565b90506131bf878460000151856020015184613e99565b915060405180604001604052808275ffffffffffffffffffffffffffffffffffffffffffff168152602001896131f557836131f8565b60005b69ffffffffffffffffffff9081169091526000898152600160209081526040808320885173ffffffffffffffffffffffffffffffffffffffff908116855290835292819020855195909201519093167601000000000000000000000000000000000000000000000275ffffffffffffffffffffffffffffffffffffffffffff9094169390931790925584015116301461334f5760405180604001604052808275ffffffffffffffffffffffffffffffffffffffffffff1681526020016132c8898660400151876060015186613e99565b69ffffffffffffffffffff90811690915260008981526001602090815260408083208882015173ffffffffffffffffffffffffffffffffffffffff1684528252909120835193909101519091167601000000000000000000000000000000000000000000000275ffffffffffffffffffffffffffffffffffffffffffff9092169190911790555b60009687526020879052604090962080547fffffffff000000000000000000000000000000000000000000000000000000ff16660100000000000075ffffffffffffffffffffffffffffffffffffffffffff909816979097027fffffffffffffffffffffffffffffffffffffffffffffffffffff0000000000ff16969096176101004264ffffffffff1602179095555092949350505050565b3073ffffffffffffffffffffffffffffffffffffffff84160361344657600082815260046020526040902080546fffffffffffffffffffffffffffffffff808416700100000000000000000000000000000000029116179055505050565b73ffffffffffffffffffffffffffffffffffffffff9290921660009081526003602090815260408083209383529290522055565b65ffffffffffff831660009081526004602090815260408083208151808301909252546fffffffffffffffffffffffffffffffff808216808452700100000000000000000000000000000000909204169282019290925291901561352a5761352582600001516fffffffffffffffffffffffffffffffff168471ffffffffffffffffffffffffffffffffffff16866020015171ffffffffffffffffffffffffffffffffffff166143b7565b61353a565b61353a8685602001518501614483565b825190915061ffff6f140eb6ae00000000000000000000000004036fffffffffffffffffffffffffffffffff168111156135a0576040517f6deac20700000000000000000000000000000000000000000000000000000000815260040160405180910390fd5b602082810180516fffffffffffffffffffffffffffffffff908401811682528451840181168552868301805171ffffffffffffffffffffffffffffffffffff90880116905265ffffffffffff8816600081815260048552604080822088519551851670010000000000000000000000000000000002959094169490941790925582519081529283018490523092909133917fc3d58168c5ae7397731d063d5bbf3d657854427343f4c083240f7aacaa2d0f62910160405180910390a4505050505050565b604080516080808201835260008083526020808401829052838501829052606080850183905265ffffffffffff8b16808452600483528684208751808901895290546fffffffffffffffffffffffffffffffff8082168352700100000000000000000000000000000000909104811682860190815233808852600387528a882085895287528a8820548b51998a018c529089529588018690523099880199909952928601859052965187519697969395946137279490938d928d9203168661319b565b506000613763876020015171ffffffffffffffffffffffffffffffffffff168786600001516fffffffffffffffffffffffffffffffff166143b7565b90508286111561377257600080fd5b33600090815260036020908152604080832065ffffffffffff8e1684528252909120878503905584518790036fffffffffffffffffffffffffffffffff168552878101805183900371ffffffffffffffffffffffffffffffffffff16905289015188516137e6918d918d9188918c87614693565b65ffffffffffff8b16600081815260046020908152604080832089518a8401516fffffffffffffffffffffffffffffffff90811670010000000000000000000000000000000002911617905580519384529083018a905292975091339182917fc3d58168c5ae7397731d063d5bbf3d657854427343f4c083240f7aacaa2d0f62910160405180910390a4505050509695505050505050565b602082015182510171ffffffffffffffffffffffffffffffffffff16808452600211156138aa57600080fd5b815171ffffffffffffffffffffffffffffffffffff166000036138da57677fffffffffffffff6020840152613bdc565b816020015171ffffffffffffffffffffffffffffffffffff16600003613925577fffffffffffffffffffffffffffffffffffffffffffffffff80000000000000006020840152613bdc565b6000806139386060840160408501615681565b60000b1215613959576139516060830160408401615681565b600003613969565b6139696060830160408401615681565b905060008061397e6060850160408601615681565b60000b13156139c1576020840151845171ffffffffffffffffffffffffffffffffffff918216911660ff84161b10156139b9575060016139f7565b5060006139f7565b6020840151845171ffffffffffffffffffffffffffffffffffff91821660ff85161b911610156139f3575060016139f7565b5060005b8015613aeb576000613a7681613a136060870160408801615681565b60000b1215613a3c57865171ffffffffffffffffffffffffffffffffffff1660ff85161b613a53565b865171ffffffffffffffffffffffffffffffffffff165b865171ffffffffffffffffffffffffffffffffffff1660ff861681901b01614872565b60070b9050600080613a8e6060870160408801615681565b60000b1215613aa3578360ff1682901b613aab565b8360ff1682901d5b604087015160070b019050677fffffffffffffff811315613ad957677fffffffffffffff6020880152613ae4565b600781900b60208801525b5050613bd9565b6000613b6781613b016060870160408801615681565b60000b1215613b2557865171ffffffffffffffffffffffffffffffffffff16613b41565b865171ffffffffffffffffffffffffffffffffffff1660ff85161b5b602087015171ffffffffffffffffffffffffffffffffffff1660ff861681901b01614872565b6040860151600791820b9250900b8190037fffffffffffffffffffffffffffffffffffffffffffffffff8000000000000000811215613bcb577fffffffffffffffffffffffffffffffffffffffffffffffff80000000000000006020880152613bd6565b600781900b60208801525b50505b50505b8260076000613bee6020850185614b97565b73ffffffffffffffffffffffffffffffffffffffff1673ffffffffffffffffffffffffffffffffffffffff1681526020019081526020016000206000836020016020810190613c3d9190614b97565b73ffffffffffffffffffffffffffffffffffffffff1673ffffffffffffffffffffffffffffffffffffffff1681526020019081526020016000206000836040016020810190613c8c9190615681565b600090810b8252602080830193909352604091820190208351815493850151949092015165ffffffffffff167a0100000000000000000000000000000000000000000000000000000279ffffffffffffffffffffffffffffffffffffffffffffffffffff67ffffffffffffffff9095167201000000000000000000000000000000000000027fffffffffffff000000000000000000000000000000000000000000000000000090941671ffffffffffffffffffffffffffffffffffff909316929092179290921792909216919091179055505050565b8351600090613d829085906dffffffffffffffffffffffffffff16615cf1565b90506dffffffffffffffffffffffffffff811115613d9f57600080fd5b6040518060400160405280826dffffffffffffffffffffffffffff16815260200187613dda57838760200151613dd59190615480565b613dea565b838760200151613dea9190615a19565b71ffffffffffffffffffffffffffffffffffff90811690915273ffffffffffffffffffffffffffffffffffffffff85166000818152600860209081526040918290208551868301519095166e010000000000000000000000000000026dffffffffffffffffffffffffffff95861617905590519285168352929750917fcd82d3b0662b3f7ad1373ff46ce247f38d4e9dd2419b198489e17f09b79cd93e910160405180910390a2505050505050565b60003073ffffffffffffffffffffffffffffffffffffffff851603613ec057506000611c58565b600085815260016020908152604080832073ffffffffffffffffffffffffffffffffffffffff88168452825280832081518083019092525475ffffffffffffffffffffffffffffffffffffffffffff81168252760100000000000000000000000000000000000000000000900469ffffffffffffffffffff169181019190915290849003613f5357602001519050611c58565b8051602090910151920375ffffffffffffffffffffffffffffffffffffffffffff169290920260601c019392505050565b6040820151825160ff1615801590613fae57504264ffffffffff16836020015164ffffffffff1614155b8015613fb957508115155b1561095957836060015161ffff16836000015160ff161115613fdd57613fdd6154aa565b60208301517f00000000000000000000000000000000000000000000000000000000000000006305a39a800164ffffffffff8082169083161015614086576060860151855160009161ffff169060ff166527d6140eb6ae028161404257614042615cc2565b0490508460608464ffffffffff168464ffffffffff164211614064574261406d565b8464ffffffffff165b038302901b8161407f5761407f615cc2565b0484019350505b8064ffffffffff164264ffffffffff161115614107576060860151855160009161ffff169060ff16653a1cc489993602816140c3576140c3615cc2565b0490508460608364ffffffffff168564ffffffffff16116140e457836140e6565b845b64ffffffffff1642038302901b8161410057614100615cc2565b0484019350505b50509392505050565b60408051608081018252600080825260208201819052918101829052606081019190915265ffffffffffff861660008181526004602090815260408083208151808301835290546fffffffffffffffffffffffffffffffff8082168352700100000000000000000000000000000000909104811682850190815233808752600386528487208888528652848720548551608081018752918252958101869052309481019490945260608401869052518251959692956141db93889390928e928e92919003168661319b565b506141f38b8b858c602001518c600001518c8c614693565b83519095506fffffffffffffffffffffffffffffffff16156142655761426083600001516fffffffffffffffffffffffffffffffff16866000015171ffffffffffffffffffffffffffffffffffff16896020015171ffffffffffffffffffffffffffffffffffff166143b7565b614279565b6142798b8860200151876000015101614483565b835190945061ffff6f140eb6ae00000000000000000000000004036fffffffffffffffffffffffffffffffff168411156142df576040517f6deac20700000000000000000000000000000000000000000000000000000000815260040160405180910390fd5b33600081815260036020908152604080832065ffffffffffff8f16808552908352818420878a01905587516fffffffffffffffffffffffffffffffff908a01811689528a518d8501805171ffffffffffffffffffffffffffffffffffff92019190911690528185526004845282852089518a8601518316700100000000000000000000000000000000029216919091179055815190815291820188905283917fc3d58168c5ae7397731d063d5bbf3d657854427343f4c083240f7aacaa2d0f62910160405180910390a4505050965096945050505050565b600080807fffffffffffffffffffffffffffffffffffffffffffffffffffffffffffffffff8587098587029250828110838203039150508060000361440e576000841161440357600080fd5b508290049050610959565b80841161441a57600080fd5b60008486880960026001871981018816978890046003810283188082028403028082028403028082028403028082028403028082028403029081029092039091026000889003889004909101858311909403939093029303949094049190911702949350505050565b6000808373ffffffffffffffffffffffffffffffffffffffff166318160ddd6040518163ffffffff1660e01b8152600401602060405180830381865afa1580156144d1573d6000803e3d6000fd5b505050506040513d601f19601f820116820180604052508101906144f59190615bb4565b905061ffff606067016345785d8a00006301e133806001614518600c600a615e27565b6145269063781a75c0615e36565b6145309190615508565b61453a9190615e4d565b614545906001615e7f565b6145619068ffffffffffffffffff1666f38a31408ae338615e36565b61456b9190615ea0565b68ffffffffffffffffff166fffffffffffffffffffffffffffffffff16901b6145949190615eb4565b6fffffffffffffffffffffffffffffffff1681116145c6578271ffffffffffffffffffffffffffffffffffff16611c58565b611c5861ffff606067016345785d8a00006301e1338060016145ea600c600a615e27565b6145f89063781a75c0615e36565b6146029190615508565b61460c9190615e4d565b614617906001615e7f565b6146339068ffffffffffffffffff1666f38a31408ae338615e36565b61463d9190615ea0565b68ffffffffffffffffff166fffffffffffffffffffffffffffffffff16901b6146669190615eb4565b6fffffffffffffffffffffffffffffffff168471ffffffffffffffffffffffffffffffffffff16836143b7565b6040805160808101825260008082526020820181905291810182905260608101919091526146c28286866149b6565b604081015160208501805190910171ffffffffffffffffffffffffffffffffffff16905286519091506000906fffffffffffffffffffffffffffffffff161561475b5761475687600001516fffffffffffffffffffffffffffffffff16836060015171ffffffffffffffffffffffffffffffffffff16866020015171ffffffffffffffffffffffffffffffffffff166143b7565b61476f565b61476f898560200151846060015101614483565b875190915061ffff6f140eb6ae00000000000000000000000004036fffffffffffffffffffffffffffffffff168111156147d5576040517f6deac20700000000000000000000000000000000000000000000000000000000815260040160405180910390fd5b6020878101805183016fffffffffffffffffffffffffffffffff908116909152885183011688526060830151858201805190910171ffffffffffffffffffffffffffffffffffff1690526040805165ffffffffffff8b168152918201839052309160009133917fc3d58168c5ae7397731d063d5bbf3d657854427343f4c083240f7aacaa2d0f62910160405180910390a450979650505050505050565b600081831015614884576148846154aa565b81600003614894576148946154aa565b60008284816148a5576148a5615cc2565b0490506fffffffffffffffffffffffffffffffff811160071b81811c67ffffffffffffffff811160061b90811c63ffffffff811160051b90811c61ffff811160041b90811c60ff8111600390811b91821c600f811160021b90811c918211600190811b92831c9790881196179094179092171790911717176080811061493357607f810383901c9150614947565b6149448682607f0360020a876143b7565b91505b603781901b60015b6037811161498457838402607f1c93508360801c80826037031b8317925084811c9450508061497d90615ef4565b905061494f565b5060c06149a98277d89e8c075c4155dd3213326cbbcf86fd1f63f5c205dd2ad2615e36565b901c979650505050505050565b60408051608081018252600080825260208201819052918101829052606081019190915261271061ffff841681018071ffffffffffffffffffffffffffffffffffff8716830281614a0957614a09615cc2565b0471ffffffffffffffffffffffffffffffffffff9081168085526109f69703811660ff95909516850296909604861660208401819052600a850487166060850181905294039390930390941660408201529392505050565b73ffffffffffffffffffffffffffffffffffffffff81168114614a8357600080fd5b50565b60008060408385031215614a9957600080fd5b8235614aa481614a61565b946020939093013593505050565b7fffffffff0000000000000000000000000000000000000000000000000000000081168114614a8357600080fd5b600060208284031215614af257600080fd5b813561095981614ab2565b600060208284031215614b0f57600080fd5b5035919050565b60005b83811015614b31578181015183820152602001614b19565b50506000910152565b60008151808452614b52816020860160208601614b16565b601f017fffffffffffffffffffffffffffffffffffffffffffffffffffffffffffffffe0169290920160200192915050565b6020815260006107876020830184614b3a565b600060208284031215614ba957600080fd5b813561095981614a61565b60008083601f840112614bc657600080fd5b50813567ffffffffffffffff811115614bde57600080fd5b6020830191508360208260051b8501011115614bf957600080fd5b9250929050565b60008083601f840112614c1257600080fd5b50813567ffffffffffffffff811115614c2a57600080fd5b602083019150836020828501011115614bf957600080fd5b60008060008060008060008060a0898b031215614c5e57600080fd5b8835614c6981614a61565b97506020890135614c7981614a61565b9650604089013567ffffffffffffffff811115614c9557600080fd5b614ca18b828c01614bb4565b909750955050606089013567ffffffffffffffff811115614cc157600080fd5b614ccd8b828c01614bb4565b909550935050608089013567ffffffffffffffff811115614ced57600080fd5b614cf98b828c01614c00565b999c989b5096995094979396929594505050565b600060608284031215610b4257600080fd5b600060608284031215614d3157600080fd5b6107878383614d0d565b7f4e487b7100000000000000000000000000000000000000000000000000000000600052604160045260246000fd5b6040516060810167ffffffffffffffff81118282101715614d8d57614d8d614d3b565b60405290565b6040805190810167ffffffffffffffff81118282101715614d8d57614d8d614d3b565b604051601f82017fffffffffffffffffffffffffffffffffffffffffffffffffffffffffffffffe016810167ffffffffffffffff81118282101715614dfd57614dfd614d3b565b604052919050565b8035600081900b8114614e1757600080fd5b919050565b60006060828403128015614e2f57600080fd5b50614e38614d6a565b8235614e4381614a61565b81526020830135614e5381614a61565b6020820152614e6460408401614e05565b60408201529392505050565b8015158114614a8357600080fd5b600080600060a08486031215614e9357600080fd5b8335614e9e81614e70565b9250614ead8560208601614d0d565b929592945050506080919091013590565b60008060408385031215614ed157600080fd5b823591506020830135614ee381614a61565b809150509250929050565b60008060008060408587031215614f0457600080fd5b843567ffffffffffffffff811115614f1b57600080fd5b614f2787828801614bb4565b909550935050602085013567ffffffffffffffff811115614f4757600080fd5b614f5387828801614bb4565b95989497509550505050565b602080825282518282018190526000918401906040840190835b81811015614f97578351835260209384019390920191600101614f79565b509095945050505050565b803561ffff81168114614e1757600080fd5b600080600060608486031215614fc957600080fd5b614fd284614fa2565b9250614fe060208501614fa2565b91506040840135614ff081614e70565b809150509250925092565b60808152600083516060608084015261501760e0840182614b3a565b905060208501517fffffffffffffffffffffffffffffffffffffffffffffffffffffffffffffff808483030160a08501526150528282614b3a565b604087015160ff1660c08601529250610959915050602083018473ffffffffffffffffffffffffffffffffffffffff815116825273ffffffffffffffffffffffffffffffffffffffff6020820151166020830152604081015160000b60408301525050565b65ffffffffffff81168114614a8357600080fd5b6000602082840312156150dd57600080fd5b8135610959816150b7565b600080608083850312156150fb57600080fd5b823561510681614e70565b91506151158460208501614d0d565b90509250929050565b6000806040838503121561513157600080fd5b823561513c81614a61565b91506020830135614ee381614e70565b60008060008060008060006080888a03121561516757600080fd5b873567ffffffffffffffff81111561517e57600080fd5b61518a8a828b01614bb4565b909850965050602088013567ffffffffffffffff8111156151aa57600080fd5b6151b68a828b01614bb4565b909650945050604088013567ffffffffffffffff8111156151d657600080fd5b6151e28a828b01614bb4565b90945092506151f5905060608901614fa2565b905092959891949750929550565b60008060006040848603121561521857600080fd5b833567ffffffffffffffff81111561522f57600080fd5b61523b86828701614bb4565b9094509250506020840135614ff081614a61565b6060810161078a828473ffffffffffffffffffffffffffffffffffffffff815116825273ffffffffffffffffffffffffffffffffffffffff6020820151166020830152604081015160000b60408301525050565b600080604083850312156152b657600080fd5b82356152c181614a61565b91506020830135614ee381614a61565b60008060008060008060a087890312156152ea57600080fd5b86356152f581614a61565b9550602087013561530581614a61565b94506040870135935060608701359250608087013567ffffffffffffffff81111561532f57600080fd5b61533b89828a01614c00565b979a9699509497509295939492505050565b6060810161078a828471ffffffffffffffffffffffffffffffffffff815116825271ffffffffffffffffffffffffffffffffffff6020820151166020830152604081015160070b60408301525050565b6000602082840312156153af57600080fd5b815167ffffffffffffffff8111156153c657600080fd5b8201601f810184136153d757600080fd5b805167ffffffffffffffff8111156153f1576153f1614d3b565b61542260207fffffffffffffffffffffffffffffffffffffffffffffffffffffffffffffffe0601f84011601614db6565b81815285602083850101111561543757600080fd5b615448826020830160208601614b16565b95945050505050565b7f4e487b7100000000000000000000000000000000000000000000000000000000600052601160045260246000fd5b71ffffffffffffffffffffffffffffffffffff828116828216039081111561078a5761078a615451565b7f4e487b7100000000000000000000000000000000000000000000000000000000600052600160045260246000fd5b7f4e487b7100000000000000000000000000000000000000000000000000000000600052603260045260246000fd5b8181038181111561078a5761078a615451565b81835260007f07ffffffffffffffffffffffffffffffffffffffffffffffffffffffffffffff83111561554d57600080fd5b8260051b80836020870137939093016020019392505050565b60408152600061557a60408301868861551b565b828103602084015261558d81858761551b565b979650505050505050565b8183528181602085013750600060208284010152600060207fffffffffffffffffffffffffffffffffffffffffffffffffffffffffffffffe0601f840116840101905092915050565b73ffffffffffffffffffffffffffffffffffffffff8916815273ffffffffffffffffffffffffffffffffffffffff8816602082015260a06040820152600061562d60a08301888a61551b565b828103606084015261564081878961551b565b90508281036080840152615655818587615598565b9b9a5050505050505050505050565b60006020828403121561567657600080fd5b815161095981614ab2565b60006020828403121561569357600080fd5b61078782614e05565b80356156a781614a61565b73ffffffffffffffffffffffffffffffffffffffff16825260208101356156cd81614a61565b73ffffffffffffffffffffffffffffffffffffffff1660208301526156f460408201614e05565b60000b60408301525050565b86151581528515156020820152604081018590526060810184905273ffffffffffffffffffffffffffffffffffffffff83166080820152610100810161558d60a083018461569c565b805171ffffffffffffffffffffffffffffffffffff81168114614e1757600080fd5b8051600781900b8114614e1757600080fd5b60006060828403121561578f57600080fd5b615797614d6a565b90506157a282615749565b81526157b060208301615749565b60208201526157c16040830161576b565b604082015292915050565b8051614e1781614a61565b60008060008060008587036101408112156157f157600080fd5b60408112156157ff57600080fd5b615807614d93565b87516dffffffffffffffffffffffffffff8116811461582557600080fd5b815261583360208901615749565b6020820152955060607fffffffffffffffffffffffffffffffffffffffffffffffffffffffffffffffc08201121561586a57600080fd5b50615873614d6a565b61587f60408801615749565b815261588d6060880161576b565b602082015260808701516158a0816150b7565b604082015293506158b48760a0880161577d565b92506158c361010087016157cc565b91506158d26101208701615749565b90509295509295909350565b73ffffffffffffffffffffffffffffffffffffffff8616815261ffff8516602082015260ff8416604082015260e0810161595d606083018571ffffffffffffffffffffffffffffffffffff815116825271ffffffffffffffffffffffffffffffffffff6020820151166020830152604081015160070b60408301525050565b8260c08301529695505050505050565b60006080828403121561597f57600080fd5b6040516080810167ffffffffffffffff811182821017156159a2576159a2614d3b565b6040529050806159b183615749565b81526159bf60208401615749565b60208201526159d060408401615749565b60408201526159e160608401615749565b60608201525092915050565b60008060e08385031215615a0057600080fd5b615a0a848461577d565b9150615115846060850161596d565b71ffffffffffffffffffffffffffffffffffff818116838216019081111561078a5761078a615451565b600181811c90821680615a5757607f821691505b602082108103610b42577f4e487b7100000000000000000000000000000000000000000000000000000000600052602260045260246000fd5b73ffffffffffffffffffffffffffffffffffffffff8616815261ffff8516602082015260ff8416604082015260e08101615b0f606083018571ffffffffffffffffffffffffffffffffffff815116825271ffffffffffffffffffffffffffffffffffff6020820151166020830152604081015160070b60408301525050565b71ffffffffffffffffffffffffffffffffffff831660c08301529695505050505050565b60008060006101008486031215615b4957600080fd5b615b53858561577d565b9250615b62856060860161596d565b60e0949094015192959394509192915050565b600060208284031215615b8757600080fd5b813560ff8116811461095957600080fd5b60008251615baa818460208701614b16565b9190910192915050565b600060208284031215615bc657600080fd5b5051919050565b600060208284031215615bdf57600080fd5b815161095981614e70565b73ffffffffffffffffffffffffffffffffffffffff8716815273ffffffffffffffffffffffffffffffffffffffff8616602082015284604082015283606082015260a060808201526000615c4260a083018486615598565b98975050505050505050565b83815273ffffffffffffffffffffffffffffffffffffffff8316602082015260a08101611c58604083018461569c565b600060608284031215615c9057600080fd5b610787838361577d565b6fffffffffffffffffffffffffffffffff828116828216039081111561078a5761078a615451565b7f4e487b7100000000000000000000000000000000000000000000000000000000600052601260045260246000fd5b8082018082111561078a5761078a615451565b6001815b6001841115615d3f57808504811115615d2357615d23615451565b6001841615615d3157908102905b60019390931c928002615d08565b935093915050565b600082615d565750600161078a565b81615d635750600061078a565b8160018114615d795760028114615d8357615d9f565b600191505061078a565b60ff841115615d9457615d94615451565b50506001821b61078a565b5060208310610133831016604e8410600b8410161715615dc2575081810a61078a565b615ded7fffffffffffffffffffffffffffffffffffffffffffffffffffffffffffffffff8484615d04565b807fffffffffffffffffffffffffffffffffffffffffffffffffffffffffffffffff04821115615e1f57615e1f615451565b029392505050565b600061078760ff841683615d47565b808202811582820484141761078a5761078a615451565b600068ffffffffffffffffff831680615e6857615e68615cc2565b8068ffffffffffffffffff84160491505092915050565b68ffffffffffffffffff818116838216019081111561078a5761078a615451565b600082615eaf57615eaf615cc2565b500490565b60006fffffffffffffffffffffffffffffffff831680615ed657615ed6615cc2565b806fffffffffffffffffffffffffffffffff84160491505092915050565b60007fffffffffffffffffffffffffffffffffffffffffffffffffffffffffffffffff8203615f2557615f25615451565b506001019056fea2646970667358221220e4d9eca0188063fc8a34f66ea4bf93002df65d022bca04de8b4771fa9d953efd64736f6c634300081a0033","linkReferences":{"src/libraries/VaultExternal.sol":{"VaultExternal":[{"start":2796,"length":20},{"start":5281,"length":20},{"start":5510,"length":20},{"start":8094,"length":20},{"start":12662,"length":20}]}}},"methodIdentifiers":{"TIMESTAMP_ISSUANCE_START()":"410cd41a","balanceOf(address,uint256)":"00fdd58e","balanceOfBatch(address[],uint256[])":"4e1273f4","burn(bool,(address,address,int8),uint256)":"3fc62188","claimSIR(uint256,address)":"777b1d43","collateralStates(address)":"61086e43","cumulativeSIRPerTEA(uint256)":"7a4996e8","getReserves((address,address,int8))":"fbd98edf","initialize((address,address,int8))":"3aa88670","isApprovedForAll(address,address)":"e985e9c5","latestTokenParams()":"60e0970a","mint(bool,(address,address,int8))":"94c050f8","numberOfVaults()":"7a32af78","paramsById(uint48)":"d2f3fd09","safeBatchTransferFrom(address,address,uint256[],uint256[],bytes)":"2eb2c2d6","safeTransferFrom(address,address,uint256,uint256,bytes)":"f242432a","setApprovalForAll(address,bool)":"a22cb465","supportsInterface(bytes4)":"01ffc9a7","systemParams()":"458e8e6b","totalSupply(uint256)":"bd85b039","unclaimedRewards(uint256,address)":"46f90748","updateSystemState(uint16,uint16,bool)":"5ab2cef4","updateVaults(uint48[],uint48[],uint8[],uint16)":"bb147c54","uri(uint256)":"0e89341c","vaultStates((address,address,int8))":"2edf3104","vaultTax(uint48)":"6cfcac04","withdrawFees(address)":"164e68de","withdrawToSaveSystem(address[],address)":"c7c3d2dc"},"id":85}