{"abi":[{"type":"constructor","inputs":[{"name":"systemControl","type":"address","internalType":"address"},{"name":"sir","type":"address","internalType":"address"},{"name":"oracle","type":"address","internalType":"address"},{"name":"apeImplementation","type":"address","internalType":"address"},{"name":"weth","type":"address","internalType":"address"}],"stateMutability":"nonpayable"},{"type":"function","name":"TIMESTAMP_ISSUANCE_START","inputs":[],"outputs":[{"name":"","type":"uint40","internalType":"uint40"}],"stateMutability":"view"},{"type":"function","name":"balanceOf","inputs":[{"name":"account","type":"address","internalType":"address"},{"name":"vaultId","type":"uint256","internalType":"uint256"}],"outputs":[{"name":"","type":"uint256","internalType":"uint256"}],"stateMutability":"view"},{"type":"function","name":"balanceOfBatch","inputs":[{"name":"owners","type":"address[]","internalType":"address[]"},{"name":"vaultIds","type":"uint256[]","internalType":"uint256[]"}],"outputs":[{"name":"balances_","type":"uint256[]","internalType":"uint256[]"}],"stateMutability":"view"},{"type":"function","name":"burn","inputs":[{"name":"isAPE","type":"bool","internalType":"bool"},{"name":"vaultParams","type":"tuple","internalType":"struct SirStructs.VaultParameters","components":[{"name":"debtToken","type":"address","internalType":"address"},{"name":"collateralToken","type":"address","internalType":"address"},{"name":"leverageTier","type":"int8","internalType":"int8"}]},{"name":"amount","type":"uint256","internalType":"uint256"}],"outputs":[{"name":"","type":"uint144","internalType":"uint144"}],"stateMutability":"nonpayable"},{"type":"function","name":"claimSIR","inputs":[{"name":"vaultId","type":"uint256","internalType":"uint256"},{"name":"lper","type":"address","internalType":"address"}],"outputs":[{"name":"","type":"uint80","internalType":"uint80"}],"stateMutability":"nonpayable"},{"type":"function","name":"cumulativeSIRPerTEA","inputs":[{"name":"vaultId","type":"uint256","internalType":"uint256"}],"outputs":[{"name":"cumulativeSIRPerTEAx96","type":"uint176","internalType":"uint176"}],"stateMutability":"view"},{"type":"function","name":"getReserves","inputs":[{"name":"vaultParams","type":"tuple","internalType":"struct SirStructs.VaultParameters","components":[{"name":"debtToken","type":"address","internalType":"address"},{"name":"collateralToken","type":"address","internalType":"address"},{"name":"leverageTier","type":"int8","internalType":"int8"}]}],"outputs":[{"name":"","type":"tuple","internalType":"struct SirStructs.Reserves","components":[{"name":"reserveApes","type":"uint144","internalType":"uint144"},{"name":"reserveLPers","type":"uint144","internalType":"uint144"},{"name":"tickPriceX42","type":"int64","internalType":"int64"}]}],"stateMutability":"view"},{"type":"function","name":"initialize","inputs":[{"name":"vaultParams","type":"tuple","internalType":"struct SirStructs.VaultParameters","components":[{"name":"debtToken","type":"address","internalType":"address"},{"name":"collateralToken","type":"address","internalType":"address"},{"name":"leverageTier","type":"int8","internalType":"int8"}]}],"outputs":[],"stateMutability":"nonpayable"},{"type":"function","name":"isApprovedForAll","inputs":[{"name":"","type":"address","internalType":"address"},{"name":"","type":"address","internalType":"address"}],"outputs":[{"name":"","type":"bool","internalType":"bool"}],"stateMutability":"view"},{"type":"function","name":"mint","inputs":[{"name":"isAPE","type":"bool","internalType":"bool"},{"name":"vaultParams","type":"tuple","internalType":"struct SirStructs.VaultParameters","components":[{"name":"debtToken","type":"address","internalType":"address"},{"name":"collateralToken","type":"address","internalType":"address"},{"name":"leverageTier","type":"int8","internalType":"int8"}]},{"name":"collateralToDeposit","type":"uint144","internalType":"uint144"}],"outputs":[{"name":"amount","type":"uint256","internalType":"uint256"}],"stateMutability":"payable"},{"type":"function","name":"numberOfVaults","inputs":[],"outputs":[{"name":"","type":"uint48","internalType":"uint48"}],"stateMutability":"view"},{"type":"function","name":"paramsById","inputs":[{"name":"vaultId","type":"uint48","internalType":"uint48"}],"outputs":[{"name":"","type":"tuple","internalType":"struct SirStructs.VaultParameters","components":[{"name":"debtToken","type":"address","internalType":"address"},{"name":"collateralToken","type":"address","internalType":"address"},{"name":"leverageTier","type":"int8","internalType":"int8"}]}],"stateMutability":"view"},{"type":"function","name":"safeBatchTransferFrom","inputs":[{"name":"from","type":"address","internalType":"address"},{"name":"to","type":"address","internalType":"address"},{"name":"vaultIds","type":"uint256[]","internalType":"uint256[]"},{"name":"amounts","type":"uint256[]","internalType":"uint256[]"},{"name":"data","type":"bytes","internalType":"bytes"}],"outputs":[],"stateMutability":"nonpayable"},{"type":"function","name":"safeTransferFrom","inputs":[{"name":"from","type":"address","internalType":"address"},{"name":"to","type":"address","internalType":"address"},{"name":"vaultId","type":"uint256","internalType":"uint256"},{"name":"amount","type":"uint256","internalType":"uint256"},{"name":"data","type":"bytes","internalType":"bytes"}],"outputs":[],"stateMutability":"nonpayable"},{"type":"function","name":"setApprovalForAll","inputs":[{"name":"operator","type":"address","internalType":"address"},{"name":"approved","type":"bool","internalType":"bool"}],"outputs":[],"stateMutability":"nonpayable"},{"type":"function","name":"supportsInterface","inputs":[{"name":"interfaceId","type":"bytes4","internalType":"bytes4"}],"outputs":[{"name":"","type":"bool","internalType":"bool"}],"stateMutability":"pure"},{"type":"function","name":"systemParams","inputs":[],"outputs":[{"name":"systemParams_","type":"tuple","internalType":"struct SirStructs.SystemParameters","components":[{"name":"baseFee","type":"tuple","internalType":"struct SirStructs.FeeStructure","components":[{"name":"fee","type":"uint16","internalType":"uint16"},{"name":"feeNew","type":"uint16","internalType":"uint16"},{"name":"timestampUpdate","type":"uint40","internalType":"uint40"}]},{"name":"lpFee","type":"tuple","internalType":"struct SirStructs.FeeStructure","components":[{"name":"fee","type":"uint16","internalType":"uint16"},{"name":"feeNew","type":"uint16","internalType":"uint16"},{"name":"timestampUpdate","type":"uint40","internalType":"uint40"}]},{"name":"mintingStopped","type":"bool","internalType":"bool"},{"name":"cumulativeTax","type":"uint16","internalType":"uint16"}]}],"stateMutability":"view"},{"type":"function","name":"totalReserves","inputs":[{"name":"collateral","type":"address","internalType":"address"}],"outputs":[{"name":"","type":"uint256","internalType":"uint256"}],"stateMutability":"view"},{"type":"function","name":"totalSupply","inputs":[{"name":"vaultId","type":"uint256","internalType":"uint256"}],"outputs":[{"name":"","type":"uint256","internalType":"uint256"}],"stateMutability":"view"},{"type":"function","name":"unclaimedRewards","inputs":[{"name":"vaultId","type":"uint256","internalType":"uint256"},{"name":"lper","type":"address","internalType":"address"}],"outputs":[{"name":"","type":"uint80","internalType":"uint80"}],"stateMutability":"view"},{"type":"function","name":"uniswapV3SwapCallback","inputs":[{"name":"amount0Delta","type":"int256","internalType":"int256"},{"name":"amount1Delta","type":"int256","internalType":"int256"},{"name":"data","type":"bytes","internalType":"bytes"}],"outputs":[],"stateMutability":"nonpayable"},{"type":"function","name":"updateSystemState","inputs":[{"name":"baseFee","type":"uint16","internalType":"uint16"},{"name":"lpFee","type":"uint16","internalType":"uint16"},{"name":"mintingStopped","type":"bool","internalType":"bool"}],"outputs":[],"stateMutability":"nonpayable"},{"type":"function","name":"updateVaults","inputs":[{"name":"oldVaults","type":"uint48[]","internalType":"uint48[]"},{"name":"newVaults","type":"uint48[]","internalType":"uint48[]"},{"name":"newTaxes","type":"uint8[]","internalType":"uint8[]"},{"name":"cumulativeTax","type":"uint16","internalType":"uint16"}],"outputs":[],"stateMutability":"nonpayable"},{"type":"function","name":"uri","inputs":[{"name":"vaultId","type":"uint256","internalType":"uint256"}],"outputs":[{"name":"","type":"string","internalType":"string"}],"stateMutability":"view"},{"type":"function","name":"vaultStates","inputs":[{"name":"vaultParams","type":"tuple","internalType":"struct SirStructs.VaultParameters","components":[{"name":"debtToken","type":"address","internalType":"address"},{"name":"collateralToken","type":"address","internalType":"address"},{"name":"leverageTier","type":"int8","internalType":"int8"}]}],"outputs":[{"name":"","type":"tuple","internalType":"struct SirStructs.VaultState","components":[{"name":"reserve","type":"uint144","internalType":"uint144"},{"name":"tickPriceSatX42","type":"int64","internalType":"int64"},{"name":"vaultId","type":"uint48","internalType":"uint48"}]}],"stateMutability":"view"},{"type":"function","name":"vaultTax","inputs":[{"name":"vaultId","type":"uint48","internalType":"uint48"}],"outputs":[{"name":"","type":"uint8","internalType":"uint8"}],"stateMutability":"view"},{"type":"function","name":"withdrawFees","inputs":[{"name":"token","type":"address","internalType":"address"}],"outputs":[{"name":"totalFeesToStakers","type":"uint256","internalType":"uint256"}],"stateMutability":"nonpayable"},{"type":"function","name":"withdrawToSaveSystem","inputs":[{"name":"tokens","type":"address[]","internalType":"address[]"},{"name":"to","type":"address","internalType":"address"}],"outputs":[{"name":"amounts","type":"uint256[]","internalType":"uint256[]"}],"stateMutability":"nonpayable"},{"type":"event","name":"ApprovalForAll","inputs":[{"name":"account","type":"address","indexed":true,"internalType":"address"},{"name":"operator","type":"address","indexed":true,"internalType":"address"},{"name":"approved","type":"bool","indexed":false,"internalType":"bool"}],"anonymous":false},{"type":"event","name":"Burn","inputs":[{"name":"vaultId","type":"uint48","indexed":true,"internalType":"uint48"},{"name":"isAPE","type":"bool","indexed":false,"internalType":"bool"},{"name":"collateralWithdrawn","type":"uint144","indexed":false,"internalType":"uint144"},{"name":"collateralFeeToStakers","type":"uint144","indexed":false,"internalType":"uint144"},{"name":"collateralFeeToLPers","type":"uint144","indexed":false,"internalType":"uint144"}],"anonymous":false},{"type":"event","name":"Mint","inputs":[{"name":"vaultId","type":"uint48","indexed":true,"internalType":"uint48"},{"name":"isAPE","type":"bool","indexed":false,"internalType":"bool"},{"name":"collateralIn","type":"uint144","indexed":false,"internalType":"uint144"},{"name":"collateralFeeToStakers","type":"uint144","indexed":false,"internalType":"uint144"},{"name":"collateralFeeToLPers","type":"uint144","indexed":false,"internalType":"uint144"}],"anonymous":false},{"type":"event","name":"TransferBatch","inputs":[{"name":"operator","type":"address","indexed":true,"internalType":"address"},{"name":"from","type":"address","indexed":true,"internalType":"address"},{"name":"to","type":"address","indexed":true,"internalType":"address"},{"name":"vaultIds","type":"uint256[]","indexed":false,"internalType":"uint256[]"},{"name":"amounts","type":"uint256[]","indexed":false,"internalType":"uint256[]"}],"anonymous":false},{"type":"event","name":"TransferSingle","inputs":[{"name":"operator","type":"address","indexed":true,"internalType":"address"},{"name":"from","type":"address","indexed":true,"internalType":"address"},{"name":"to","type":"address","indexed":true,"internalType":"address"},{"name":"id","type":"uint256","indexed":false,"internalType":"uint256"},{"name":"amount","type":"uint256","indexed":false,"internalType":"uint256"}],"anonymous":false},{"type":"event","name":"URI","inputs":[{"name":"value","type":"string","indexed":false,"internalType":"string"},{"name":"id","type":"uint256","indexed":true,"internalType":"uint256"}],"anonymous":false},{"type":"event","name":"VaultNewTax","inputs":[{"name":"vault","type":"uint48","indexed":true,"internalType":"uint48"},{"name":"tax","type":"uint8","indexed":false,"internalType":"uint8"},{"name":"cumulativeTax","type":"uint16","indexed":false,"internalType":"uint16"}],"anonymous":false},{"type":"error","name":"AmountTooLow","inputs":[]},{"type":"error","name":"LengthMismatch","inputs":[]},{"type":"error","name":"NotAWETHVault","inputs":[]},{"type":"error","name":"NotAuthorized","inputs":[]},{"type":"error","name":"TEAMaxSupplyExceeded","inputs":[]},{"type":"error","name":"UnsafeRecipient","inputs":[]}],"bytecode":{"object":"0x61014060405234801561001157600080fd5b50604051615e15380380615e158339810160408190526100309161020e565b6001600160a01b03948516608090815264ffffffffff42811660a090815295871660c09081526040805160e08082018352610bb895820195865260009982018a90529281018990529384528051606081810183526103dd825260208281018b81528385018c81528289018590528886018d90528389018d9052975180516002805483860151938901518b1664010000000090810264ffffffffff60201b1961ffff9687166201000090810263ffffffff199586169789169790971796909617811691909117845598516003805497519e51909d169091029c85169093029416919092161791909117909316969096179094556004805462ffffff1916905596891690915293871661010052918616610120528251918201835284825281018481529181018481526007805460018101825595529051939092027fa66cc928b5edb82af9bd49922954155ab7b0942694bea4ce44661d9a8736c688810180549486166001600160a01b031990951694909417909355517fa66cc928b5edb82af9bd49922954155ab7b0942694bea4ce44661d9a8736c6899092018054915160ff16600160a01b026001600160a81b03199092169290931691909117179055610273565b80516001600160a01b038116811461020957600080fd5b919050565b600080600080600060a0868803121561022657600080fd5b61022f866101f2565b945061023d602087016101f2565b935061024b604087016101f2565b9250610259606087016101f2565b9150610267608087016101f2565b90509295509295909350565b60805160a05160c05160e0516101005161012051615b1461030160003960008181610f8f0152611011015260006111b3015260008181611161015281816112980152818161281e0152612cfe0152600081816109b401528181610a960152611a750152600081816103760152613cac01526000818161189b01528181611ca501526120fd0152615b146000f3fe6080604052600436106101b65760003560e01c80636cfcac04116100ec578063bd85b0391161008a578063e985e9c511610064578063e985e9c514610691578063f242432a146106cc578063fa461e33146106ec578063fbd98edf1461070d57600080fd5b8063bd85b03914610605578063c7c3d2dc14610644578063d2f3fd091461066457600080fd5b80637a32af78116100c65780637a32af78146105525780637a4996e81461057e578063a22cb465146105c5578063bb147c54146105e557600080fd5b80636cfcac04146104bb5780636d0800bc14610505578063777b1d431461053257600080fd5b80633aa8867011610159578063458e8e6b11610133578063458e8e6b146103ae57806346f90748146104335780634e1273f41461046e5780635ab2cef41461049b57600080fd5b80633aa88670146103015780633fc6218814610321578063410cd41a1461036457600080fd5b8063164e68de11610195578063164e68de1461024b5780632eb2c2d61461026b5780632edf31041461028d57806332eaa625146102ee57600080fd5b8062fdd58e146101bb57806301ffc9a7146101ee5780630e89341c1461021e575b600080fd5b3480156101c757600080fd5b506101db6101d636600461478f565b61073a565b6040519081526020015b60405180910390f35b3480156101fa57600080fd5b5061020e6102093660046147e9565b6107ce565b60405190151581526020016101e5565b34801561022a57600080fd5b5061023e610239366004614806565b6108af565b6040516101e59190614843565b34801561025757600080fd5b506101db610266366004614894565b61099a565b34801561027757600080fd5b5061028b61028636600461493f565b610ac0565b005b34801561029957600080fd5b506102ad6102a8366004614a22565b610de5565b60408051825171ffffffffffffffffffffffffffffffffffff16815260208084015160070b908201529181015165ffffffffffff16908201526060016101e5565b6101db6102fc366004614a6c565b610f3a565b34801561030d57600080fd5b5061028b61031c366004614b6f565b6110f2565b34801561032d57600080fd5b5061034161033c366004614bc3565b61122c565b60405171ffffffffffffffffffffffffffffffffffff90911681526020016101e5565b34801561037057600080fd5b506103987f000000000000000000000000000000000000000000000000000000000000000081565b60405164ffffffffff90911681526020016101e5565b3480156103ba57600080fd5b506103c36115d7565b604080518251805161ffff90811683526020808301518216818501529184015164ffffffffff90811684860152828601518051831660608087019190915293810151831660808601528501511660a084015292840151151560c0830152909201511660e0820152610100016101e5565b34801561043f57600080fd5b5061045361044e366004614c03565b611763565b60405169ffffffffffffffffffff90911681526020016101e5565b34801561047a57600080fd5b5061048e610489366004614c33565b611782565b6040516101e59190614ca4565b3480156104a757600080fd5b5061028b6104b6366004614cf9565b611883565b3480156104c757600080fd5b506104f36104d6366004614d49565b65ffffffffffff1660009081526020819052604090205460ff1690565b60405160ff90911681526020016101e5565b34801561051157600080fd5b506101db610520366004614894565b600a6020526000908152604090205481565b34801561053e57600080fd5b5061045361054d366004614c03565b611a5b565b34801561055e57600080fd5b50610567611b64565b60405165ffffffffffff90911681526020016101e5565b34801561058a57600080fd5b5061059e610599366004614806565b611b7b565b60405175ffffffffffffffffffffffffffffffffffffffffffff90911681526020016101e5565b3480156105d157600080fd5b5061028b6105e0366004614d66565b611bf6565b3480156105f157600080fd5b5061028b610600366004614d94565b611c8d565b34801561061157600080fd5b506101db610620366004614806565b6000908152600660205260409020546fffffffffffffffffffffffffffffffff1690565b34801561065057600080fd5b5061048e61065f366004614e4b565b6120e3565b34801561067057600080fd5b5061068461067f366004614d49565b612499565b6040516101e59190614e97565b34801561069d57600080fd5b5061020e6106ac366004614eeb565b600860209081526000928352604080842090915290825290205460ff1681565b3480156106d857600080fd5b5061028b6106e7366004614f19565b612542565b3480156106f857600080fd5b5061028b610707366004614f95565b50505050565b34801561071957600080fd5b5061072d610728366004614a22565b6127ba565b6040516101e59190614fdc565b600073ffffffffffffffffffffffffffffffffffffffff8316301461078f5773ffffffffffffffffffffffffffffffffffffffff831660009081526005602090815260408083208584529091529020546107c5565b60008281526006602052604090205470010000000000000000000000000000000090046fffffffffffffffffffffffffffffffff165b90505b92915050565b60007f01ffc9a7000000000000000000000000000000000000000000000000000000007fffffffff000000000000000000000000000000000000000000000000000000008316148061086157507fd9b67a26000000000000000000000000000000000000000000000000000000007fffffffff000000000000000000000000000000000000000000000000000000008316145b806107c85750507fffffffff00000000000000000000000000000000000000000000000000000000167f0e89341c000000000000000000000000000000000000000000000000000000001490565b600081815260066020526040908190205490517f3ef6287c00000000000000000000000000000000000000000000000000000000815260076004820152602481018390526fffffffffffffffffffffffffffffffff9091166044820181905260609173__$0d913f5ea2cc8398585c34a0416dbc1ef1$__90633ef6287c90606401600060405180830381865af415801561094d573d6000803e3d6000fd5b505050506040513d6000823e601f3d9081017fffffffffffffffffffffffffffffffffffffffffffffffffffffffffffffffe0168201604052610993919081019061502c565b9392505050565b60003373ffffffffffffffffffffffffffffffffffffffff7f000000000000000000000000000000000000000000000000000000000000000016146109de57600080fd5b73ffffffffffffffffffffffffffffffffffffffff82166000818152600a6020526040908190205490517f70a082310000000000000000000000000000000000000000000000000000000081523060048201529091906370a0823190602401602060405180830381865afa158015610a5a573d6000803e3d6000fd5b505050506040513d601f19601f82011682018060405250810190610a7e91906150e0565b610a889190615128565b90508015610abb57610abb827f000000000000000000000000000000000000000000000000000000000000000083612889565b919050565b3073ffffffffffffffffffffffffffffffffffffffff891603610ae557610ae561513b565b848314610b1e576040517fff633a3800000000000000000000000000000000000000000000000000000000815260040160405180910390fd5b3373ffffffffffffffffffffffffffffffffffffffff891614801590610b75575073ffffffffffffffffffffffffffffffffffffffff8816600090815260086020908152604080832033845290915290205460ff16155b15610bac576040517fea8e4eb500000000000000000000000000000000000000000000000000000000815260040160405180910390fd5b60005b85811015610bfb57610bf38989898985818110610bce57610bce61516a565b90506020020135888886818110610be757610be761516a565b905060200201356129f7565b600101610baf565b508673ffffffffffffffffffffffffffffffffffffffff168873ffffffffffffffffffffffffffffffffffffffff163373ffffffffffffffffffffffffffffffffffffffff167f4a39dc06d4c0dbc64b70af90fd698a233a518aa5d07e595d983b8c0526c8f7fb89898989604051610c7694939291906151e4565b60405180910390a473ffffffffffffffffffffffffffffffffffffffff87163b15610d8b5773ffffffffffffffffffffffffffffffffffffffff87163014801590610d8657506040517fbc197c81000000000000000000000000000000000000000000000000000000008082529073ffffffffffffffffffffffffffffffffffffffff89169063bc197c8190610d1e9033908d908c908c908c908c908c908c9060040161525f565b6020604051808303816000875af1158015610d3d573d6000803e3d6000fd5b505050506040513d601f19601f82011682018060405250810190610d6191906152e2565b7fffffffff000000000000000000000000000000000000000000000000000000001614155b610da4565b73ffffffffffffffffffffffffffffffffffffffff8716155b15610ddb576040517f3da6393100000000000000000000000000000000000000000000000000000000815260040160405180910390fd5b5050505050505050565b604080516060810182526000808252602082018190529181019190915260096000610e136020850185614894565b73ffffffffffffffffffffffffffffffffffffffff1673ffffffffffffffffffffffffffffffffffffffff1681526020019081526020016000206000836020016020810190610e629190614894565b73ffffffffffffffffffffffffffffffffffffffff1673ffffffffffffffffffffffffffffffffffffffff1681526020019081526020016000206000836040016020810190610eb191906152ff565b600090810b8252602080830193909352604091820190208151606081018352905471ffffffffffffffffffffffffffffffffffff811682527201000000000000000000000000000000000000810460070b938201939093527a01000000000000000000000000000000000000000000000000000090920465ffffffffffff169082015292915050565b600034600003610f7857610f73610f576040850160208601614894565b33308571ffffffffffffffffffffffffffffffffffff16612b4d565b611091565b73ffffffffffffffffffffffffffffffffffffffff7f000000000000000000000000000000000000000000000000000000000000000016610fbf6040850160208601614894565b73ffffffffffffffffffffffffffffffffffffffff161461100c576040517f8efa29d600000000000000000000000000000000000000000000000000000000815260040160405180910390fd5b3491507f000000000000000000000000000000000000000000000000000000000000000073ffffffffffffffffffffffffffffffffffffffff1663d0e30db0346040518263ffffffff1660e01b81526004016000604051808303818588803b15801561107757600080fd5b505af115801561108b573d6000803e3d6000fd5b50505050505b8171ffffffffffffffffffffffffffffffffffff166000036110df576040517f1fbaba3500000000000000000000000000000000000000000000000000000000815260040160405180910390fd5b6110ea848484612cbe565b949350505050565b805173ffffffffffffffffffffffffffffffffffffffff90811660009081526009602090815260408083208286018051861685529083528184208287018051860b8652935281842091517fd1c790ba0000000000000000000000000000000000000000000000000000000081527f0000000000000000000000000000000000000000000000000000000000000000861660048201526024810192909252600760448301528551851660648301525184166084820152905190910b60a48201527f000000000000000000000000000000000000000000000000000000000000000090911660c482015273__$0d913f5ea2cc8398585c34a0416dbc1ef1$__9063d1c790ba9060e40160006040518083038186803b15801561121157600080fd5b505af4158015611225573d6000803e3d6000fd5b5050505050565b600081600003611268576040517f1fbaba3500000000000000000000000000000000000000000000000000000000815260040160405180910390fd5b60006112726115d7565b9050600080600073__$0d913f5ea2cc8398585c34a0416dbc1ef1$__6349a6b7e78960097f00000000000000000000000000000000000000000000000000000000000000008b6040518563ffffffff1660e01b81526004016112d7949392919061537e565b60e060405180830381865af41580156112f4573d6000803e3d6000fd5b505050506040513d601f19601f82011682018060405250810190611318919061541c565b60408381015165ffffffffffff1660009081526020818152828220835160608082018652915460ff81168252610100810464ffffffffff16828501526601000000000000900475ffffffffffffffffffffffffffffffffffffffffffff16818601528451918201855283825291810183905292830191909152939650919450925089156114785785515182516040517f8c26842700000000000000000000000000000000000000000000000000000000815273ffffffffffffffffffffffffffffffffffffffff861692638c268427926113fc92339291908a908f90600401615499565b60c0604051808303816000875af115801561141b573d6000803e3d6000fd5b505050506040513d601f19601f8201168201806040525081019061143f9190615572565b60408101516020830180519397509193509161145c9083906155a7565b71ffffffffffffffffffffffffffffffffffff1690525061148c565b61148985604001518784878c613188565b90505b61149785858b6133b8565b806020015181600001510171ffffffffffffffffffffffffffffffffffff16600a60008b60200160208101906114cd9190614894565b73ffffffffffffffffffffffffffffffffffffffff1673ffffffffffffffffffffffffffffffffffffffff16815260200190815260200160002060008282540392505081905550846040015165ffffffffffff167f7c6da711ffa6af277b820416f2daab1018c73a4fb0c4a49a38c5fb292b6c0e8b8b8360000151846020015185604001516040516115919493929190931515845271ffffffffffffffffffffffffffffffffffff9283166020850152908216604084015216606082015260800190565b60405180910390a26115c96115ac60408b0160208c01614894565b8251339071ffffffffffffffffffffffffffffffffffff16612889565b519998505050505050505050565b6040805160e08101825260006080820181815260a0830182905260c083018290528252825160608082018552828252602080830184905282860184905284019190915292820181905291810191909152506040805160e08101825260025461ffff8082166080840190815262010000808404831660a086015264ffffffffff64010000000094859004811660c087015291855285516060818101885260035480861683529283048516602083810191909152959092048316818801529385019390935260045460ff8116151585870152610100900490911691830191909152815190920151909116158015906116e757508051604001516116e390620d2f009064ffffffffff166155d1565b4210155b15611704578051602081015161ffff169052805160006040909101525b60208101516040015164ffffffffff161580159061173f5750620d2f0081602001516040015164ffffffffff1661173b91906155d1565b4210155b1561176057602080820180519182015161ffff169091525160006040909101525b90565b60006107c58383611774858761073a565b61177d87611b7b565b6138a7565b60608382146117bd576040517fff633a3800000000000000000000000000000000000000000000000000000000815260040160405180910390fd5b8367ffffffffffffffff8111156117d6576117d6614ab6565b6040519080825280602002602001820160405280156117ff578160200160208202803683370190505b50905060005b8481101561187a576118558686838181106118225761182261516a565b90506020020160208101906118379190614894565b8585848181106118495761184961516a565b9050602002013561073a565b8282815181106118675761186761516a565b6020908102919091010152600101611805565b50949350505050565b3373ffffffffffffffffffffffffffffffffffffffff7f000000000000000000000000000000000000000000000000000000000000000016146118c557600080fd5b60006118cf6115d7565b905061ffff8416156118fd57805164ffffffffff4216604090910152805161ffff8516602090910152611933565b61ffff83161561192a576020808201805164ffffffffff42166040909101525161ffff8516910152611933565b81151560408201525b805180516002805460208085015160409586015161ffff9586167fffffffffffffffffffffffffffffffffffffffffffffffffffffffff0000000094851617620100009287168302177fffffffffffffffffffffffffffffffffffffffffffffff0000000000ffffffff90811664010000000064ffffffffff9384168102919091179096558389015180516003805496830151928b0151918a16969097169590951790881690930292909217909116911690920291909117905590820151600480546060909401517fffffffffffffffffffffffffffffffffffffffffffffffffffffffffff0000009094169115157fffffffffffffffffffffffffffffffffffffffffffffffffffffffffff0000ff16919091176101009390921692909202179055505050565b60003373ffffffffffffffffffffffffffffffffffffffff7f00000000000000000000000000000000000000000000000000000000000000001614611a9f57600080fd5b600060405180608001604052808473ffffffffffffffffffffffffffffffffffffffff168152602001611ad2858761073a565b8152600060208083018290526040928301829052600454888352828252918390208351606081018552905460ff8116825261010080820464ffffffffff16938301939093526601000000000000900475ffffffffffffffffffffffffffffffffffffffffffff16938101939093529293506110ea9260019288929190910461ffff1690611b5e83613992565b86613a03565b600754600090611b7690600190615128565b905090565b6004546000828152602081815260408083208151606081018352905460ff8116825261010080820464ffffffffff16948301949094526601000000000000900475ffffffffffffffffffffffffffffffffffffffffffff169181019190915291926107c89291900461ffff1690611bf185613992565b613c50565b33600081815260086020908152604080832073ffffffffffffffffffffffffffffffffffffffff87168085529083529281902080547fffffffffffffffffffffffffffffffffffffffffffffffffffffffffffffff001686151590811790915590519081529192917f17307eab39ab6107e8899845ad3d59bd9653f200f220920489ca2b5937696c31910160405180910390a35050565b3373ffffffffffffffffffffffffffffffffffffffff7f00000000000000000000000000000000000000000000000000000000000000001614611ccf57600080fd5b6000805b87811015611ea257611d12898983818110611cf057611cf061516a565b9050602002016020810190611d059190614d49565b65ffffffffffff16611b7b565b91506040518060600160405280600060ff1681526020014264ffffffffff1681526020018375ffffffffffffffffffffffffffffffffffffffffffff168152506000808b8b85818110611d6757611d6761516a565b9050602002016020810190611d7c9190614d49565b65ffffffffffff16815260208082019290925260409081016000208351815493850151949092015175ffffffffffffffffffffffffffffffffffffffffffff166601000000000000027fffffffff00000000000000000000000000000000000000000000ffffffffffff64ffffffffff909516610100027fffffffffffffffffffffffffffffffffffffffffffffffffffff00000000000090941660ff909316929092179290921792909216919091179055888882818110611e4057611e4061516a565b9050602002016020810190611e559190614d49565b604080516000808252602082015265ffffffffffff92909216917fc05b4c85e1a9e164c2764407bce9e5955a2e6435dea37ef8c4e62ec458ebf21a910160405180910390a2600101611cd3565b5060005b858110156120a157611ec3878783818110611cf057611cf061516a565b91506040518060600160405280868684818110611ee257611ee261516a565b9050602002016020810190611ef791906155e4565b60ff1681526020014264ffffffffff1681526020018375ffffffffffffffffffffffffffffffffffffffffffff16815250600080898985818110611f3d57611f3d61516a565b9050602002016020810190611f529190614d49565b65ffffffffffff16815260208082019290925260409081016000208351815493850151949092015175ffffffffffffffffffffffffffffffffffffffffffff166601000000000000027fffffffff00000000000000000000000000000000000000000000ffffffffffff64ffffffffff909516610100027fffffffffffffffffffffffffffffffffffffffffffffffffffff00000000000090941660ff9093169290921792909217929092169190911790558686828181106120165761201661516a565b905060200201602081019061202b9190614d49565b65ffffffffffff167fc05b4c85e1a9e164c2764407bce9e5955a2e6435dea37ef8c4e62ec458ebf21a8686848181106120665761206661516a565b905060200201602081019061207b91906155e4565b6040805160ff909216825261ffff871660208301520160405180910390a2600101611ea6565b50506004805461ffff909216610100027fffffffffffffffffffffffffffffffffffffffffffffffffffffffffff0000ff909216919091179055505050505050565b60603373ffffffffffffffffffffffffffffffffffffffff7f0000000000000000000000000000000000000000000000000000000000000000161461212757600080fd5b8267ffffffffffffffff81111561214057612140614ab6565b604051908082528060200260200182016040528015612169578160200160208202803683370190505b5090506000606060005b8581101561248f5786868281811061218d5761218d61516a565b90506020020160208101906121a29190614894565b604080513060248083019190915282518083039091018152604490910182526020810180517bffffffffffffffffffffffffffffffffffffffffffffffffffffffff167f70a0823100000000000000000000000000000000000000000000000000000000179052905173ffffffffffffffffffffffffffffffffffffffff929092169161222f9190615607565b6000604051808303816000865af19150503d806000811461226c576040519150601f19603f3d011682016040523d82523d6000602084013e612271565b606091505b509093509150828015612285575081516020145b15612487578180602001905181019061229e91906150e0565b8482815181106122b0576122b061516a565b60200260200101818152505060008482815181106122d0576122d061516a565b60200260200101511115612487578686828181106122f0576122f061516a565b90506020020160208101906123059190614894565b73ffffffffffffffffffffffffffffffffffffffff1663a9059cbb60e01b868684815181106123365761233661516a565b602090810291909101015160405173ffffffffffffffffffffffffffffffffffffffff90921660248301526044820152606401604080517fffffffffffffffffffffffffffffffffffffffffffffffffffffffffffffffe08184030181529181526020820180517bffffffffffffffffffffffffffffffffffffffffffffffffffffffff167fffffffff000000000000000000000000000000000000000000000000000000009094169390931790925290516123f29190615607565b6000604051808303816000865af19150503d806000811461242f576040519150601f19603f3d011682016040523d82523d6000602084013e612434565b606091505b50909350915082801561245f57508151158061245f57508180602001905181019061245f9190615623565b92508261248757600084828151811061247a5761247a61516a565b6020026020010181815250505b600101612173565b5050509392505050565b604080516060810182526000808252602082018190529181019190915260078265ffffffffffff16815481106124d1576124d161516a565b60009182526020808320604080516060810182526002909402909101805473ffffffffffffffffffffffffffffffffffffffff9081168552600190910154908116928401929092527401000000000000000000000000000000000000000090910490920b9181019190915292915050565b3073ffffffffffffffffffffffffffffffffffffffff8716036125675761256761513b565b3373ffffffffffffffffffffffffffffffffffffffff8716148015906125be575073ffffffffffffffffffffffffffffffffffffffff8616600090815260086020908152604080832033845290915290205460ff16155b156125f5576040517fea8e4eb500000000000000000000000000000000000000000000000000000000815260040160405180910390fd5b612601868686866129f7565b604080518581526020810185905273ffffffffffffffffffffffffffffffffffffffff808816929089169133917fc3d58168c5ae7397731d063d5bbf3d657854427343f4c083240f7aacaa2d0f62910160405180910390a473ffffffffffffffffffffffffffffffffffffffff85163b156127625773ffffffffffffffffffffffffffffffffffffffff8516301480159061275d57506040517ff23a6e61000000000000000000000000000000000000000000000000000000008082529073ffffffffffffffffffffffffffffffffffffffff87169063f23a6e61906126f59033908b908a908a908a908a90600401615640565b6020604051808303816000875af1158015612714573d6000803e3d6000fd5b505050506040513d601f19601f8201168201806040525081019061273891906152e2565b7fffffffff000000000000000000000000000000000000000000000000000000001614155b61277b565b73ffffffffffffffffffffffffffffffffffffffff8516155b156127b2576040517f3da6393100000000000000000000000000000000000000000000000000000000815260040160405180910390fd5b505050505050565b604080516060810182526000808252602082018190528183015290517f94215a4c00000000000000000000000000000000000000000000000000000000815273__$0d913f5ea2cc8398585c34a0416dbc1ef1$__906394215a4c90612848906009907f00000000000000000000000000000000000000000000000000000000000000009087906004016156a4565b606060405180830381865af4158015612865573d6000803e3d6000fd5b505050506040513d601f19601f820116820180604052508101906107c891906156d4565b6040805173ffffffffffffffffffffffffffffffffffffffff8481166024830152604480830185905283518084039091018152606490920183526020820180517bffffffffffffffffffffffffffffffffffffffffffffffffffffffff167fa9059cbb0000000000000000000000000000000000000000000000000000000017905291516000928392908716916129209190615607565b6000604051808303816000865af19150503d806000811461295d576040519150601f19603f3d011682016040523d82523d6000602084013e612962565b606091505b509150915081801561298c57508051158061298c57508080602001905181019061298c9190615623565b611225576040517f08c379a000000000000000000000000000000000000000000000000000000000815260206004820152600260248201527f535400000000000000000000000000000000000000000000000000000000000060448201526064015b60405180910390fd5b6040805160808101825273ffffffffffffffffffffffffffffffffffffffff808716808352600090815260056020908152848220878352815284822054908401529086169282019290925260608101612a50868661073a565b90526004546000858152602081815260408083208151606081018352905460ff8116825261010080820464ffffffffff16948301949094526601000000000000900475ffffffffffffffffffffffffffffffffffffffffffff1691810191909152939450612acd939192879291900461ffff1690611b5e83613992565b508181602001818151612ae09190615128565b90525073ffffffffffffffffffffffffffffffffffffffff858116908516146112255760208082015173ffffffffffffffffffffffffffffffffffffffff871660009081526005835260408082208783529093529190912055606081015161122590859085908501613dd0565b6040805173ffffffffffffffffffffffffffffffffffffffff85811660248301528481166044830152606480830185905283518084039091018152608490920183526020820180517bffffffffffffffffffffffffffffffffffffffffffffffffffffffff167f23b872dd000000000000000000000000000000000000000000000000000000001790529151600092839290881691612bec9190615607565b6000604051808303816000865af19150503d8060008114612c29576040519150601f19603f3d011682016040523d82523d6000602084013e612c2e565b606091505b5091509150818015612c58575080511580612c58575080806020019051810190612c589190615623565b6127b2576040517f08c379a000000000000000000000000000000000000000000000000000000000815260206004820152600360248201527f535446000000000000000000000000000000000000000000000000000000000060448201526064016129ee565b600080612cc96115d7565b9050806040015115612cda57600080fd5b600080600073__$0d913f5ea2cc8398585c34a0416dbc1ef1$__6349a6b7e78960097f00000000000000000000000000000000000000000000000000000000000000008b6040518563ffffffff1660e01b8152600401612d3d949392919061537e565b60e060405180830381865af4158015612d5a573d6000803e3d6000fd5b505050506040513d601f19601f82011682018060405250810190612d7e919061541c565b60408381015165ffffffffffff1660009081526020818152828220835160608082018652915460ff81168252610100810464ffffffffff16828501526601000000000000900475ffffffffffffffffffffffffffffffffffffffffffff1681860152845191820185528382529181018390529283019190915293965091945092508915612ee35785515182516040517f6bc601d700000000000000000000000000000000000000000000000000000000815273ffffffffffffffffffffffffffffffffffffffff861692636bc601d792612e6292339291908a908f906004016156f0565b60e0604051808303816000875af1158015612e81573d6000803e3d6000fd5b505050506040513d601f19601f82011682018060405250810190612ea59190615793565b809950819350829650505050806040015184602001818151612ec791906155a7565b71ffffffffffffffffffffffffffffffffffff16905250612f09565b612f04612ef660408b0160208c01614894565b86604001518885888d613e62565b975090505b86600003612f43576040517f1fbaba3500000000000000000000000000000000000000000000000000000000815260040160405180910390fd5b612f4e85858b6133b8565b6020810151612f5d90896157d4565b71ffffffffffffffffffffffffffffffffffff16600a6000612f8560408d0160208e01614894565b73ffffffffffffffffffffffffffffffffffffffff1673ffffffffffffffffffffffffffffffffffffffff1681526020019081526020016000206000828254612fce91906155d1565b92505081905550846040015165ffffffffffff167f2ea082b0ce379480d9dfb0d7ab365e33def58ee2bee64887c13e531723b5c8818b8360000151846020015185604001516040516130529493929190931515845271ffffffffffffffffffffffffffffffffffff9283166020850152908216604084015216606082015260800190565b60405180910390a2891580156130685750333b15155b8015613144575060408581015190517ff23a6e6100000000000000000000000000000000000000000000000000000000808252336004830181905260006024840181905265ffffffffffff9094166044840152606483018b905260a0608484015260a4830193909352919063f23a6e619060c4016020604051808303816000875af11580156130fb573d6000803e3d6000fd5b505050506040513d601f19601f8201168201806040525081019061311f91906152e2565b7fffffffff000000000000000000000000000000000000000000000000000000001614155b1561317b576040517f3da6393100000000000000000000000000000000000000000000000000000000815260040160405180910390fd5b5050505050509392505050565b604080516060810182526000808252602080830182905282840182905265ffffffffffff8916808352600682528483208551808701875290546fffffffffffffffffffffffffffffffff80821683527001000000000000000000000000000000009091041681840152338452600583528584209184529152929020549091908084111561321457600080fd5b600060405180608001604052803373ffffffffffffffffffffffffffffffffffffffff1681526020018381526020013073ffffffffffffffffffffffffffffffffffffffff1681526020016000815250905061329d60008a65ffffffffffff168a606001518a87602001518860000151036fffffffffffffffffffffffffffffffff1686613a03565b506132d7866020015171ffffffffffffffffffffffffffffffffffff168685600001516fffffffffffffffffffffffffffffffff166142b8565b71ffffffffffffffffffffffffffffffffffff908116855233600081815260056020908152604080832065ffffffffffff8f168085529083528184208b8903905588516fffffffffffffffffffffffffffffffff908c900381168a528a518d85018051919091039097169096528084526006835281842089518a8501518816700100000000000000000000000000000000029716969096179095558051948552908401899052909282917fc3d58168c5ae7397731d063d5bbf3d657854427343f4c083240f7aacaa2d0f62910160405180910390a450505095945050505050565b602082015182516133c991906155a7565b71ffffffffffffffffffffffffffffffffffff16808452620f424011156133ef57600080fd5b815171ffffffffffffffffffffffffffffffffffff1660000361341f57677fffffffffffffff6020840152613721565b816020015171ffffffffffffffffffffffffffffffffffff1660000361346a577fffffffffffffffffffffffffffffffffffffffffffffffff80000000000000006020840152613721565b60008061347d60608401604085016152ff565b60000b121561349e5761349660608301604084016152ff565b6000036134ae565b6134ae60608301604084016152ff565b90506000806134c360608501604086016152ff565b60000b1315613506576020840151845171ffffffffffffffffffffffffffffffffffff918216911660ff84161b10156134fe5750600161353c565b50600061353c565b6020840151845171ffffffffffffffffffffffffffffffffffff91821660ff85161b911610156135385750600161353c565b5060005b80156136305760006135bb8161355860608701604088016152ff565b60000b121561358157865171ffffffffffffffffffffffffffffffffffff1660ff85161b613598565b865171ffffffffffffffffffffffffffffffffffff165b865171ffffffffffffffffffffffffffffffffffff1660ff861681901b01614384565b60070b90506000806135d360608701604088016152ff565b60000b12156135e8578360ff1682901b6135f0565b8360ff1682901d5b604087015160070b019050677fffffffffffffff81131561361e57677fffffffffffffff6020880152613629565b600781900b60208801525b505061371e565b60006136ac8161364660608701604088016152ff565b60000b121561366a57865171ffffffffffffffffffffffffffffffffffff16613686565b865171ffffffffffffffffffffffffffffffffffff1660ff85161b5b602087015171ffffffffffffffffffffffffffffffffffff1660ff861681901b01614384565b6040860151600791820b9250900b8190037fffffffffffffffffffffffffffffffffffffffffffffffff8000000000000000811215613710577fffffffffffffffffffffffffffffffffffffffffffffffff8000000000000000602088015261371b565b600781900b60208801525b50505b50505b82600960006137336020850185614894565b73ffffffffffffffffffffffffffffffffffffffff1673ffffffffffffffffffffffffffffffffffffffff16815260200190815260200160002060008360200160208101906137829190614894565b73ffffffffffffffffffffffffffffffffffffffff1673ffffffffffffffffffffffffffffffffffffffff16815260200190815260200160002060008360400160208101906137d191906152ff565b600090810b8252602080830193909352604091820190208351815493850151949092015165ffffffffffff167a0100000000000000000000000000000000000000000000000000000279ffffffffffffffffffffffffffffffffffffffffffffffffffff67ffffffffffffffff9095167201000000000000000000000000000000000000027fffffffffffff000000000000000000000000000000000000000000000000000090941671ffffffffffffffffffffffffffffffffffff909316929092179290921792909216919091179055505050565b60003073ffffffffffffffffffffffffffffffffffffffff8516036138ce575060006110ea565b600085815260016020908152604080832073ffffffffffffffffffffffffffffffffffffffff88168452825280832081518083019092525475ffffffffffffffffffffffffffffffffffffffffffff81168252760100000000000000000000000000000000000000000000900469ffffffffffffffffffff169181019190915290849003613961576020015190506110ea565b8051602090910151920375ffffffffffffffffffffffffffffffffffffffffffff169290920260601c019392505050565b60008181526006602090815260408083208151808301909252546fffffffffffffffffffffffffffffffff8082168084527001000000000000000000000000000000009092041692820183905290916139ea916157fe565b6fffffffffffffffffffffffffffffffff169392505050565b600080613a11868686613c50565b9050613a278784600001518560200151846138a7565b915060405180604001604052808275ffffffffffffffffffffffffffffffffffffffffffff16815260200189613a5d5783613a60565b60005b69ffffffffffffffffffff9081169091526000898152600160209081526040808320885173ffffffffffffffffffffffffffffffffffffffff908116855290835292819020855195909201519093167601000000000000000000000000000000000000000000000275ffffffffffffffffffffffffffffffffffffffffffff90941693909317909255840151163014613bb75760405180604001604052808275ffffffffffffffffffffffffffffffffffffffffffff168152602001613b308986604001518760600151866138a7565b69ffffffffffffffffffff90811690915260008981526001602090815260408083208882015173ffffffffffffffffffffffffffffffffffffffff1684528252909120835193909101519091167601000000000000000000000000000000000000000000000275ffffffffffffffffffffffffffffffffffffffffffff9092169190911790555b60009687526020879052604090962080547fffffffff000000000000000000000000000000000000000000000000000000ff16660100000000000075ffffffffffffffffffffffffffffffffffffffffffff909816979097027fffffffffffffffffffffffffffffffffffffffffffffffffffff0000000000ff16969096176101004264ffffffffff1602179095555092949350505050565b6040820151825160ff1615801590613c7a57504264ffffffffff16836020015164ffffffffff1614155b8015613c8557508115155b15610993578361ffff16836000015160ff161115613ca557613ca561513b565b60208301517f00000000000000000000000000000000000000000000000000000000000000006305a39a800164ffffffffff8082169083161015613d4a57845160009061ffff88169060ff166527d6140eb6ae0281613d0657613d06615826565b0490508460608464ffffffffff168464ffffffffff164211613d285742613d31565b8464ffffffffff165b038302901b81613d4357613d43615826565b0484019350505b8064ffffffffff164264ffffffffff161115613dc757845160009061ffff88169060ff16653a1cc48999360281613d8357613d83615826565b0490508460608364ffffffffff168564ffffffffff1611613da45783613da6565b845b64ffffffffff1642038302901b81613dc057613dc0615826565b0484019350505b50509392505050565b3073ffffffffffffffffffffffffffffffffffffffff841603613e2e57600082815260066020526040902080546fffffffffffffffffffffffffffffffff808416700100000000000000000000000000000000029116179055505050565b73ffffffffffffffffffffffffffffffffffffffff9290921660009081526005602090815260408083209383529290522055565b604080516060810182526000808252602082018190529181019190915265ffffffffffff861660008181526006602090815260408083208151808301835290546fffffffffffffffffffffffffffffffff8082168352700100000000000000000000000000000000909104811682850190815233808752600586528487208888528652848720548551608081018752918252958101869052309481019490945260608085018790528c0151905183519697889794969594613f2b94899492938f92031686613a03565b5082516fffffffffffffffffffffffffffffffff1615613f9757613f9283600001516fffffffffffffffffffffffffffffffff168871ffffffffffffffffffffffffffffffffffff168a6020015171ffffffffffffffffffffffffffffffffffff166142b8565b613fa7565b613fa78c896020015189016144c8565b835190945061ffff6f140eb6ae00000000000000000000000004036fffffffffffffffffffffffffffffffff1684111561400d576040517f6deac20700000000000000000000000000000000000000000000000000000000815260040160405180910390fd5b61401f878b60200151600001516146f2565b8051845191975061407f91869171ffffffffffffffffffffffffffffffffffff16906fffffffffffffffffffffffffffffffff161561405e5789614066565b8a602001518a015b71ffffffffffffffffffffffffffffffffffff166142b8565b94508484039350848201600560003373ffffffffffffffffffffffffffffffffffffffff1673ffffffffffffffffffffffffffffffffffffffff16815260200190815260200160002060008d65ffffffffffff168152602001908152602001600020819055508383602001818151019150906fffffffffffffffffffffffffffffffff1690816fffffffffffffffffffffffffffffffff168152505083850183600001818151019150906fffffffffffffffffffffffffffffffff1690816fffffffffffffffffffffffffffffffff168152505082600660008d65ffffffffffff16815260200190815260200160002060008201518160000160006101000a8154816fffffffffffffffffffffffffffffffff02191690836fffffffffffffffffffffffffffffffff16021790555060208201518160000160106101000a8154816fffffffffffffffffffffffffffffffff02191690836fffffffffffffffffffffffffffffffff160217905550905050505050838560200181815161420591906155a7565b71ffffffffffffffffffffffffffffffffffff169052506040805165ffffffffffff8a16815260208101849052339160009183917fc3d58168c5ae7397731d063d5bbf3d657854427343f4c083240f7aacaa2d0f62910160405180910390a46040805165ffffffffffff8a16815260208101839052309160009133917fc3d58168c5ae7397731d063d5bbf3d657854427343f4c083240f7aacaa2d0f62910160405180910390a450965096945050505050565b600080807fffffffffffffffffffffffffffffffffffffffffffffffffffffffffffffffff8587098587029250828110838203039150508060000361430f576000841161430457600080fd5b508290049050610993565b80841161431b57600080fd5b60008486880960026001871981018816978890046003810283188082028403028082028403028082028403028082028403028082028403029081029092039091026000889003889004909101858311909403939093029303949094049190911702949350505050565b6000818310156143965761439661513b565b816000036143a6576143a661513b565b60008284816143b7576143b7615826565b0490506fffffffffffffffffffffffffffffffff811160071b81811c67ffffffffffffffff811160061b90811c63ffffffff811160051b90811c61ffff811160041b90811c60ff8111600390811b91821c600f811160021b90811c918211600190811b92831c9790881196179094179092171790911717176080811061444557607f810383901c9150614459565b6144568682607f0360020a876142b8565b91505b603781901b60015b6037811161449657838402607f1c93508360801c80826037031b8317925084811c9450508061448f90615855565b9050614461565b5060c06144bb8277d89e8c075c4155dd3213326cbbcf86fd1f63f5c205dd2ad261588d565b901c979650505050505050565b6000808373ffffffffffffffffffffffffffffffffffffffff166318160ddd6040518163ffffffff1660e01b8152600401602060405180830381865afa158015614516573d6000803e3d6000fd5b505050506040513d601f19601f8201168201806040525081019061453a91906150e0565b9050620f424061ffff606067016345785d8a00006301e133806001614561600c600a6159c7565b61456f9063781a75c061588d565b6145799190615128565b61458391906159d6565b61458e906001615a08565b6145aa9068ffffffffffffffffff1666f38a31408ae33861588d565b6145b49190615a29565b68ffffffffffffffffff166fffffffffffffffffffffffffffffffff16901b6145dd9190615a3d565b6145e79190615a3d565b6fffffffffffffffffffffffffffffffff1681116146255761460c83620f4240615a7d565b71ffffffffffffffffffffffffffffffffffff166110ea565b6110ea61ffff606067016345785d8a00006301e133806001614649600c600a6159c7565b6146579063781a75c061588d565b6146619190615128565b61466b91906159d6565b614676906001615a08565b6146929068ffffffffffffffffff1666f38a31408ae33861588d565b61469c9190615a29565b68ffffffffffffffffff166fffffffffffffffffffffffffffffffff16901b6146c59190615a3d565b6fffffffffffffffffffffffffffffffff168471ffffffffffffffffffffffffffffffffffff16836142b8565b604080516060810182526000808252602082018190529181019190915261271061ffff831681018071ffffffffffffffffffffffffffffffffffff861683028161473e5761473e615826565b0471ffffffffffffffffffffffffffffffffffff90811680855290950390941660408301525092915050565b73ffffffffffffffffffffffffffffffffffffffff8116811461478c57600080fd5b50565b600080604083850312156147a257600080fd5b82356147ad8161476a565b946020939093013593505050565b7fffffffff000000000000000000000000000000000000000000000000000000008116811461478c57600080fd5b6000602082840312156147fb57600080fd5b8135610993816147bb565b60006020828403121561481857600080fd5b5035919050565b60005b8381101561483a578181015183820152602001614822565b50506000910152565b602081526000825180602084015261486281604085016020870161481f565b601f017fffffffffffffffffffffffffffffffffffffffffffffffffffffffffffffffe0169190910160400192915050565b6000602082840312156148a657600080fd5b81356109938161476a565b60008083601f8401126148c357600080fd5b50813567ffffffffffffffff8111156148db57600080fd5b6020830191508360208260051b85010111156148f657600080fd5b9250929050565b60008083601f84011261490f57600080fd5b50813567ffffffffffffffff81111561492757600080fd5b6020830191508360208285010111156148f657600080fd5b60008060008060008060008060a0898b03121561495b57600080fd5b88356149668161476a565b975060208901356149768161476a565b9650604089013567ffffffffffffffff81111561499257600080fd5b61499e8b828c016148b1565b909750955050606089013567ffffffffffffffff8111156149be57600080fd5b6149ca8b828c016148b1565b909550935050608089013567ffffffffffffffff8111156149ea57600080fd5b6149f68b828c016148fd565b999c989b5096995094979396929594505050565b600060608284031215614a1c57600080fd5b50919050565b600060608284031215614a3457600080fd5b6107c58383614a0a565b801515811461478c57600080fd5b71ffffffffffffffffffffffffffffffffffff8116811461478c57600080fd5b600080600060a08486031215614a8157600080fd5b8335614a8c81614a3e565b9250614a9b8560208601614a0a565b91506080840135614aab81614a4c565b809150509250925092565b7f4e487b7100000000000000000000000000000000000000000000000000000000600052604160045260246000fd5b6040516060810167ffffffffffffffff81118282101715614b0857614b08614ab6565b60405290565b604051601f82017fffffffffffffffffffffffffffffffffffffffffffffffffffffffffffffffe016810167ffffffffffffffff81118282101715614b5557614b55614ab6565b604052919050565b8035600081900b8114610abb57600080fd5b60006060828403128015614b8257600080fd5b50614b8b614ae5565b8235614b968161476a565b81526020830135614ba68161476a565b6020820152614bb760408401614b5d565b60408201529392505050565b600080600060a08486031215614bd857600080fd5b8335614be381614a3e565b9250614bf28560208601614a0a565b929592945050506080919091013590565b60008060408385031215614c1657600080fd5b823591506020830135614c288161476a565b809150509250929050565b60008060008060408587031215614c4957600080fd5b843567ffffffffffffffff811115614c6057600080fd5b614c6c878288016148b1565b909550935050602085013567ffffffffffffffff811115614c8c57600080fd5b614c98878288016148b1565b95989497509550505050565b602080825282518282018190526000918401906040840190835b81811015614cdc578351835260209384019390920191600101614cbe565b509095945050505050565b803561ffff81168114610abb57600080fd5b600080600060608486031215614d0e57600080fd5b614d1784614ce7565b9250614d2560208501614ce7565b91506040840135614aab81614a3e565b65ffffffffffff8116811461478c57600080fd5b600060208284031215614d5b57600080fd5b813561099381614d35565b60008060408385031215614d7957600080fd5b8235614d848161476a565b91506020830135614c2881614a3e565b60008060008060008060006080888a031215614daf57600080fd5b873567ffffffffffffffff811115614dc657600080fd5b614dd28a828b016148b1565b909850965050602088013567ffffffffffffffff811115614df257600080fd5b614dfe8a828b016148b1565b909650945050604088013567ffffffffffffffff811115614e1e57600080fd5b614e2a8a828b016148b1565b9094509250614e3d905060608901614ce7565b905092959891949750929550565b600080600060408486031215614e6057600080fd5b833567ffffffffffffffff811115614e7757600080fd5b614e83868287016148b1565b9094509250506020840135614aab8161476a565b606081016107c8828473ffffffffffffffffffffffffffffffffffffffff815116825273ffffffffffffffffffffffffffffffffffffffff6020820151166020830152604081015160000b60408301525050565b60008060408385031215614efe57600080fd5b8235614f098161476a565b91506020830135614c288161476a565b60008060008060008060a08789031215614f3257600080fd5b8635614f3d8161476a565b95506020870135614f4d8161476a565b94506040870135935060608701359250608087013567ffffffffffffffff811115614f7757600080fd5b614f8389828a016148fd565b979a9699509497509295939492505050565b60008060008060608587031215614fab57600080fd5b8435935060208501359250604085013567ffffffffffffffff811115614fd057600080fd5b614c98878288016148fd565b606081016107c8828471ffffffffffffffffffffffffffffffffffff815116825271ffffffffffffffffffffffffffffffffffff6020820151166020830152604081015160070b60408301525050565b60006020828403121561503e57600080fd5b815167ffffffffffffffff81111561505557600080fd5b8201601f8101841361506657600080fd5b805167ffffffffffffffff81111561508057615080614ab6565b6150b160207fffffffffffffffffffffffffffffffffffffffffffffffffffffffffffffffe0601f84011601614b0e565b8181528560208385010111156150c657600080fd5b6150d782602083016020860161481f565b95945050505050565b6000602082840312156150f257600080fd5b5051919050565b7f4e487b7100000000000000000000000000000000000000000000000000000000600052601160045260246000fd5b818103818111156107c8576107c86150f9565b7f4e487b7100000000000000000000000000000000000000000000000000000000600052600160045260246000fd5b7f4e487b7100000000000000000000000000000000000000000000000000000000600052603260045260246000fd5b81835260007f07ffffffffffffffffffffffffffffffffffffffffffffffffffffffffffffff8311156151cb57600080fd5b8260051b80836020870137939093016020019392505050565b6040815260006151f8604083018688615199565b828103602084015261520b818587615199565b979650505050505050565b8183528181602085013750600060208284010152600060207fffffffffffffffffffffffffffffffffffffffffffffffffffffffffffffffe0601f840116840101905092915050565b73ffffffffffffffffffffffffffffffffffffffff8916815273ffffffffffffffffffffffffffffffffffffffff8816602082015260a0604082015260006152ab60a08301888a615199565b82810360608401526152be818789615199565b905082810360808401526152d3818587615216565b9b9a5050505050505050505050565b6000602082840312156152f457600080fd5b8151610993816147bb565b60006020828403121561531157600080fd5b6107c582614b5d565b80356153258161476a565b73ffffffffffffffffffffffffffffffffffffffff168252602081013561534b8161476a565b73ffffffffffffffffffffffffffffffffffffffff16602083015261537260408201614b5d565b60000b60408301525050565b84151581526020810184905273ffffffffffffffffffffffffffffffffffffffff8316604082015260c081016150d7606083018461531a565b8051600781900b8114610abb57600080fd5b6000606082840312156153db57600080fd5b6153e3614ae5565b905081516153f081614a4c565b8152602082015161540081614a4c565b6020820152615411604083016153b7565b604082015292915050565b600080600083850360e081121561543257600080fd5b606081121561544057600080fd5b50615449614ae5565b845161545481614a4c565b8152615462602086016153b7565b6020820152604085015161547581614d35565b6040820152925061548985606086016153c9565b915060c0840151614aab8161476a565b73ffffffffffffffffffffffffffffffffffffffff8616815261ffff8516602082015260ff8416604082015260e08101615518606083018571ffffffffffffffffffffffffffffffffffff815116825271ffffffffffffffffffffffffffffffffffff6020820151166020830152604081015160070b60408301525050565b8260c08301529695505050505050565b60006060828403121561553a57600080fd5b615542614ae5565b9050815161554f81614a4c565b8152602082015161555f81614a4c565b6020820152604082015161541181614a4c565b60008060c0838503121561558557600080fd5b61558f84846153c9565b915061559e8460608501615528565b90509250929050565b71ffffffffffffffffffffffffffffffffffff81811683821601908111156107c8576107c86150f9565b808201808211156107c8576107c86150f9565b6000602082840312156155f657600080fd5b813560ff8116811461099357600080fd5b6000825161561981846020870161481f565b9190910192915050565b60006020828403121561563557600080fd5b815161099381614a3e565b73ffffffffffffffffffffffffffffffffffffffff8716815273ffffffffffffffffffffffffffffffffffffffff8616602082015284604082015283606082015260a06080820152600061569860a083018486615216565b98975050505050505050565b83815273ffffffffffffffffffffffffffffffffffffffff8316602082015260a081016110ea604083018461531a565b6000606082840312156156e657600080fd5b6107c583836153c9565b73ffffffffffffffffffffffffffffffffffffffff8616815261ffff8516602082015260ff8416604082015260e0810161576f606083018571ffffffffffffffffffffffffffffffffffff815116825271ffffffffffffffffffffffffffffffffffff6020820151166020830152604081015160070b60408301525050565b71ffffffffffffffffffffffffffffffffffff831660c08301529695505050505050565b600080600060e084860312156157a857600080fd5b6157b285856153c9565b92506157c18560608601615528565b60c0949094015192959394509192915050565b71ffffffffffffffffffffffffffffffffffff82811682821603908111156107c8576107c86150f9565b6fffffffffffffffffffffffffffffffff82811682821603908111156107c8576107c86150f9565b7f4e487b7100000000000000000000000000000000000000000000000000000000600052601260045260246000fd5b60007fffffffffffffffffffffffffffffffffffffffffffffffffffffffffffffffff8203615886576158866150f9565b5060010190565b80820281158282048414176107c8576107c86150f9565b6001815b60018411156158df578085048111156158c3576158c36150f9565b60018416156158d157908102905b60019390931c9280026158a8565b935093915050565b6000826158f6575060016107c8565b81615903575060006107c8565b816001811461591957600281146159235761593f565b60019150506107c8565b60ff841115615934576159346150f9565b50506001821b6107c8565b5060208310610133831016604e8410600b8410161715615962575081810a6107c8565b61598d7fffffffffffffffffffffffffffffffffffffffffffffffffffffffffffffffff84846158a4565b807fffffffffffffffffffffffffffffffffffffffffffffffffffffffffffffffff048211156159bf576159bf6150f9565b029392505050565b60006107c560ff8416836158e7565b600068ffffffffffffffffff8316806159f1576159f1615826565b8068ffffffffffffffffff84160491505092915050565b68ffffffffffffffffff81811683821601908111156107c8576107c86150f9565b600082615a3857615a38615826565b500490565b60006fffffffffffffffffffffffffffffffff831680615a5f57615a5f615826565b806fffffffffffffffffffffffffffffffff84160491505092915050565b600071ffffffffffffffffffffffffffffffffffff821671ffffffffffffffffffffffffffffffffffff841671ffffffffffffffffffffffffffffffffffff8183021692508183048114821517615ad657615ad66150f9565b50509291505056fea2646970667358221220a62eb708053b78ad2b6a950993e63ac135d5bc4f6756bec41b947ae850e1dafd64736f6c634300081c0033","linkReferences":{"src/libraries/VaultExternal.sol":{"VaultExternal":[{"start":3092,"length":20},{"start":5341,"length":20},{"start":5500,"length":20},{"start":11004,"length":20},{"start":12258,"length":20}]}}},"methodIdentifiers":{"TIMESTAMP_ISSUANCE_START()":"410cd41a","balanceOf(address,uint256)":"00fdd58e","balanceOfBatch(address[],uint256[])":"4e1273f4","burn(bool,(address,address,int8),uint256)":"3fc62188","claimSIR(uint256,address)":"777b1d43","cumulativeSIRPerTEA(uint256)":"7a4996e8","getReserves((address,address,int8))":"fbd98edf","initialize((address,address,int8))":"3aa88670","isApprovedForAll(address,address)":"e985e9c5","mint(bool,(address,address,int8),uint144)":"32eaa625","numberOfVaults()":"7a32af78","paramsById(uint48)":"d2f3fd09","safeBatchTransferFrom(address,address,uint256[],uint256[],bytes)":"2eb2c2d6","safeTransferFrom(address,address,uint256,uint256,bytes)":"f242432a","setApprovalForAll(address,bool)":"a22cb465","supportsInterface(bytes4)":"01ffc9a7","systemParams()":"458e8e6b","totalReserves(address)":"6d0800bc","totalSupply(uint256)":"bd85b039","unclaimedRewards(uint256,address)":"46f90748","uniswapV3SwapCallback(int256,int256,bytes)":"fa461e33","updateSystemState(uint16,uint16,bool)":"5ab2cef4","updateVaults(uint48[],uint48[],uint8[],uint16)":"bb147c54","uri(uint256)":"0e89341c","vaultStates((address,address,int8))":"2edf3104","vaultTax(uint48)":"6cfcac04","withdrawFees(address)":"164e68de","withdrawToSaveSystem(address[],address)":"c7c3d2dc"},"id":85}