{"abi":[{"type":"constructor","inputs":[{"name":"systemControl","type":"address","internalType":"address"},{"name":"sir","type":"address","internalType":"address"},{"name":"oracle","type":"address","internalType":"address"},{"name":"apeImplementation","type":"address","internalType":"address"},{"name":"weth","type":"address","internalType":"address"}],"stateMutability":"nonpayable"},{"type":"function","name":"TIMESTAMP_ISSUANCE_START","inputs":[],"outputs":[{"name":"","type":"uint40","internalType":"uint40"}],"stateMutability":"view"},{"type":"function","name":"balanceOf","inputs":[{"name":"account","type":"address","internalType":"address"},{"name":"vaultId","type":"uint256","internalType":"uint256"}],"outputs":[{"name":"","type":"uint256","internalType":"uint256"}],"stateMutability":"view"},{"type":"function","name":"balanceOfBatch","inputs":[{"name":"owners","type":"address[]","internalType":"address[]"},{"name":"vaultIds","type":"uint256[]","internalType":"uint256[]"}],"outputs":[{"name":"balances_","type":"uint256[]","internalType":"uint256[]"}],"stateMutability":"view"},{"type":"function","name":"burn","inputs":[{"name":"isAPE","type":"bool","internalType":"bool"},{"name":"vaultParams","type":"tuple","internalType":"struct SirStructs.VaultParameters","components":[{"name":"debtToken","type":"address","internalType":"address"},{"name":"collateralToken","type":"address","internalType":"address"},{"name":"leverageTier","type":"int8","internalType":"int8"}]},{"name":"amount","type":"uint256","internalType":"uint256"}],"outputs":[{"name":"","type":"uint144","internalType":"uint144"}],"stateMutability":"nonpayable"},{"type":"function","name":"claimSIR","inputs":[{"name":"vaultId","type":"uint256","internalType":"uint256"},{"name":"lper","type":"address","internalType":"address"}],"outputs":[{"name":"","type":"uint80","internalType":"uint80"}],"stateMutability":"nonpayable"},{"type":"function","name":"cumulativeSIRPerTEA","inputs":[{"name":"vaultId","type":"uint256","internalType":"uint256"}],"outputs":[{"name":"cumulativeSIRPerTEAx96","type":"uint176","internalType":"uint176"}],"stateMutability":"view"},{"type":"function","name":"getReserves","inputs":[{"name":"vaultParams","type":"tuple","internalType":"struct SirStructs.VaultParameters","components":[{"name":"debtToken","type":"address","internalType":"address"},{"name":"collateralToken","type":"address","internalType":"address"},{"name":"leverageTier","type":"int8","internalType":"int8"}]}],"outputs":[{"name":"","type":"tuple","internalType":"struct SirStructs.Reserves","components":[{"name":"reserveApes","type":"uint144","internalType":"uint144"},{"name":"reserveLPers","type":"uint144","internalType":"uint144"},{"name":"tickPriceX42","type":"int64","internalType":"int64"}]}],"stateMutability":"view"},{"type":"function","name":"initialize","inputs":[{"name":"vaultParams","type":"tuple","internalType":"struct SirStructs.VaultParameters","components":[{"name":"debtToken","type":"address","internalType":"address"},{"name":"collateralToken","type":"address","internalType":"address"},{"name":"leverageTier","type":"int8","internalType":"int8"}]}],"outputs":[],"stateMutability":"nonpayable"},{"type":"function","name":"isApprovedForAll","inputs":[{"name":"","type":"address","internalType":"address"},{"name":"","type":"address","internalType":"address"}],"outputs":[{"name":"","type":"bool","internalType":"bool"}],"stateMutability":"view"},{"type":"function","name":"mint","inputs":[{"name":"isAPE","type":"bool","internalType":"bool"},{"name":"vaultParams","type":"tuple","internalType":"struct SirStructs.VaultParameters","components":[{"name":"debtToken","type":"address","internalType":"address"},{"name":"collateralToken","type":"address","internalType":"address"},{"name":"leverageTier","type":"int8","internalType":"int8"}]},{"name":"amountToDeposit","type":"uint256","internalType":"uint256"},{"name":"collateralToDepositMin","type":"uint144","internalType":"uint144"}],"outputs":[{"name":"amount","type":"uint256","internalType":"uint256"}],"stateMutability":"payable"},{"type":"function","name":"numberOfVaults","inputs":[],"outputs":[{"name":"","type":"uint48","internalType":"uint48"}],"stateMutability":"view"},{"type":"function","name":"paramsById","inputs":[{"name":"vaultId","type":"uint48","internalType":"uint48"}],"outputs":[{"name":"","type":"tuple","internalType":"struct SirStructs.VaultParameters","components":[{"name":"debtToken","type":"address","internalType":"address"},{"name":"collateralToken","type":"address","internalType":"address"},{"name":"leverageTier","type":"int8","internalType":"int8"}]}],"stateMutability":"view"},{"type":"function","name":"safeBatchTransferFrom","inputs":[{"name":"from","type":"address","internalType":"address"},{"name":"to","type":"address","internalType":"address"},{"name":"vaultIds","type":"uint256[]","internalType":"uint256[]"},{"name":"amounts","type":"uint256[]","internalType":"uint256[]"},{"name":"data","type":"bytes","internalType":"bytes"}],"outputs":[],"stateMutability":"nonpayable"},{"type":"function","name":"safeTransferFrom","inputs":[{"name":"from","type":"address","internalType":"address"},{"name":"to","type":"address","internalType":"address"},{"name":"vaultId","type":"uint256","internalType":"uint256"},{"name":"amount","type":"uint256","internalType":"uint256"},{"name":"data","type":"bytes","internalType":"bytes"}],"outputs":[],"stateMutability":"nonpayable"},{"type":"function","name":"setApprovalForAll","inputs":[{"name":"operator","type":"address","internalType":"address"},{"name":"approved","type":"bool","internalType":"bool"}],"outputs":[],"stateMutability":"nonpayable"},{"type":"function","name":"supportsInterface","inputs":[{"name":"interfaceId","type":"bytes4","internalType":"bytes4"}],"outputs":[{"name":"","type":"bool","internalType":"bool"}],"stateMutability":"pure"},{"type":"function","name":"systemParams","inputs":[],"outputs":[{"name":"systemParams_","type":"tuple","internalType":"struct SirStructs.SystemParameters","components":[{"name":"baseFee","type":"tuple","internalType":"struct SirStructs.FeeStructure","components":[{"name":"fee","type":"uint16","internalType":"uint16"},{"name":"feeNew","type":"uint16","internalType":"uint16"},{"name":"timestampUpdate","type":"uint40","internalType":"uint40"}]},{"name":"lpFee","type":"tuple","internalType":"struct SirStructs.FeeStructure","components":[{"name":"fee","type":"uint16","internalType":"uint16"},{"name":"feeNew","type":"uint16","internalType":"uint16"},{"name":"timestampUpdate","type":"uint40","internalType":"uint40"}]},{"name":"mintingStopped","type":"bool","internalType":"bool"},{"name":"cumulativeTax","type":"uint16","internalType":"uint16"}]}],"stateMutability":"view"},{"type":"function","name":"totalReserves","inputs":[{"name":"collateral","type":"address","internalType":"address"}],"outputs":[{"name":"","type":"uint256","internalType":"uint256"}],"stateMutability":"view"},{"type":"function","name":"totalSupply","inputs":[{"name":"vaultId","type":"uint256","internalType":"uint256"}],"outputs":[{"name":"","type":"uint256","internalType":"uint256"}],"stateMutability":"view"},{"type":"function","name":"unclaimedRewards","inputs":[{"name":"vaultId","type":"uint256","internalType":"uint256"},{"name":"lper","type":"address","internalType":"address"}],"outputs":[{"name":"","type":"uint80","internalType":"uint80"}],"stateMutability":"view"},{"type":"function","name":"uniswapV3SwapCallback","inputs":[{"name":"amount0Delta","type":"int256","internalType":"int256"},{"name":"amount1Delta","type":"int256","internalType":"int256"},{"name":"data","type":"bytes","internalType":"bytes"}],"outputs":[],"stateMutability":"nonpayable"},{"type":"function","name":"updateSystemState","inputs":[{"name":"baseFee","type":"uint16","internalType":"uint16"},{"name":"lpFee","type":"uint16","internalType":"uint16"},{"name":"mintingStopped","type":"bool","internalType":"bool"}],"outputs":[],"stateMutability":"nonpayable"},{"type":"function","name":"updateVaults","inputs":[{"name":"oldVaults","type":"uint48[]","internalType":"uint48[]"},{"name":"newVaults","type":"uint48[]","internalType":"uint48[]"},{"name":"newTaxes","type":"uint8[]","internalType":"uint8[]"},{"name":"cumulativeTax","type":"uint16","internalType":"uint16"}],"outputs":[],"stateMutability":"nonpayable"},{"type":"function","name":"uri","inputs":[{"name":"vaultId","type":"uint256","internalType":"uint256"}],"outputs":[{"name":"","type":"string","internalType":"string"}],"stateMutability":"view"},{"type":"function","name":"vaultStates","inputs":[{"name":"vaultParams","type":"tuple","internalType":"struct SirStructs.VaultParameters","components":[{"name":"debtToken","type":"address","internalType":"address"},{"name":"collateralToken","type":"address","internalType":"address"},{"name":"leverageTier","type":"int8","internalType":"int8"}]}],"outputs":[{"name":"","type":"tuple","internalType":"struct SirStructs.VaultState","components":[{"name":"reserve","type":"uint144","internalType":"uint144"},{"name":"tickPriceSatX42","type":"int64","internalType":"int64"},{"name":"vaultId","type":"uint48","internalType":"uint48"}]}],"stateMutability":"view"},{"type":"function","name":"vaultTax","inputs":[{"name":"vaultId","type":"uint48","internalType":"uint48"}],"outputs":[{"name":"","type":"uint8","internalType":"uint8"}],"stateMutability":"view"},{"type":"function","name":"withdrawFees","inputs":[{"name":"token","type":"address","internalType":"address"}],"outputs":[{"name":"totalFeesToStakers","type":"uint256","internalType":"uint256"}],"stateMutability":"nonpayable"},{"type":"function","name":"withdrawToSaveSystem","inputs":[{"name":"tokens","type":"address[]","internalType":"address[]"},{"name":"to","type":"address","internalType":"address"}],"outputs":[{"name":"amounts","type":"uint256[]","internalType":"uint256[]"}],"stateMutability":"nonpayable"},{"type":"event","name":"ApprovalForAll","inputs":[{"name":"account","type":"address","indexed":true,"internalType":"address"},{"name":"operator","type":"address","indexed":true,"internalType":"address"},{"name":"approved","type":"bool","indexed":false,"internalType":"bool"}],"anonymous":false},{"type":"event","name":"Burn","inputs":[{"name":"vaultId","type":"uint48","indexed":true,"internalType":"uint48"},{"name":"isAPE","type":"bool","indexed":false,"internalType":"bool"},{"name":"collateralWithdrawn","type":"uint144","indexed":false,"internalType":"uint144"},{"name":"collateralFeeToStakers","type":"uint144","indexed":false,"internalType":"uint144"},{"name":"collateralFeeToLPers","type":"uint144","indexed":false,"internalType":"uint144"}],"anonymous":false},{"type":"event","name":"Mint","inputs":[{"name":"vaultId","type":"uint48","indexed":true,"internalType":"uint48"},{"name":"isAPE","type":"bool","indexed":false,"internalType":"bool"},{"name":"collateralIn","type":"uint144","indexed":false,"internalType":"uint144"},{"name":"collateralFeeToStakers","type":"uint144","indexed":false,"internalType":"uint144"},{"name":"collateralFeeToLPers","type":"uint144","indexed":false,"internalType":"uint144"}],"anonymous":false},{"type":"event","name":"TransferBatch","inputs":[{"name":"operator","type":"address","indexed":true,"internalType":"address"},{"name":"from","type":"address","indexed":true,"internalType":"address"},{"name":"to","type":"address","indexed":true,"internalType":"address"},{"name":"vaultIds","type":"uint256[]","indexed":false,"internalType":"uint256[]"},{"name":"amounts","type":"uint256[]","indexed":false,"internalType":"uint256[]"}],"anonymous":false},{"type":"event","name":"TransferSingle","inputs":[{"name":"operator","type":"address","indexed":true,"internalType":"address"},{"name":"from","type":"address","indexed":true,"internalType":"address"},{"name":"to","type":"address","indexed":true,"internalType":"address"},{"name":"id","type":"uint256","indexed":false,"internalType":"uint256"},{"name":"amount","type":"uint256","indexed":false,"internalType":"uint256"}],"anonymous":false},{"type":"event","name":"URI","inputs":[{"name":"value","type":"string","indexed":false,"internalType":"string"},{"name":"id","type":"uint256","indexed":true,"internalType":"uint256"}],"anonymous":false},{"type":"event","name":"VaultNewTax","inputs":[{"name":"vault","type":"uint48","indexed":true,"internalType":"uint48"},{"name":"tax","type":"uint8","indexed":false,"internalType":"uint8"},{"name":"cumulativeTax","type":"uint16","indexed":false,"internalType":"uint16"}],"anonymous":false},{"type":"error","name":"AmountTooLow","inputs":[]},{"type":"error","name":"InsufficientCollateralReceivedFromUniswap","inputs":[]},{"type":"error","name":"LengthMismatch","inputs":[]},{"type":"error","name":"Locked","inputs":[]},{"type":"error","name":"NotAWETHVault","inputs":[]},{"type":"error","name":"NotAuthorized","inputs":[]},{"type":"error","name":"TEAMaxSupplyExceeded","inputs":[]},{"type":"error","name":"UnsafeRecipient","inputs":[]}],"bytecode":{"object":"0x610140604052348015610010575f5ffd5b50604051615ea5380380615ea583398101604081905261002f9161020b565b6001600160a01b03948516608090815264ffffffffff42811660a090815295871660c09081526040805160e08082018352610bb89582019586525f9982018a90529281018990529384528051606081810183526103dd825260208281018b81528385018c81528289018590528886018d90528389018d9052975180516002805483860151938901518b1664010000000090810264ffffffffff60201b1961ffff9687166201000090810263ffffffff199586169789169790971796909617811691909117845598516003805497519e51909d169091029c85169093029416919092161791909117909316969096179094556004805462ffffff1916905596891690915293871661010052918616610120528251918201835284825281018481529181018481526007805460018101825595529051939092027fa66cc928b5edb82af9bd49922954155ab7b0942694bea4ce44661d9a8736c688810180549486166001600160a01b031990951694909417909355517fa66cc928b5edb82af9bd49922954155ab7b0942694bea4ce44661d9a8736c6899092018054915160ff16600160a01b026001600160a81b0319909216929093169190911717905561026c565b80516001600160a01b0381168114610206575f5ffd5b919050565b5f5f5f5f5f60a0868803121561021f575f5ffd5b610228866101f0565b9450610236602087016101f0565b9350610244604087016101f0565b9250610252606087016101f0565b9150610260608087016101f0565b90509295509295909350565b60805160a05160c05160e0516101005161012051615bb36102f25f395f818161216b01526121f701525f610ec101525f8181610e6f01528181610fde015281816122c2015261293501525f818161095e01528181610a29015261177b01525f818161031d01526135e401525f81816115b10152818161197a0152611dae0152615bb35ff3fe6080604052600436106101ae575f3560e01c80636d0800bc116100e7578063c7c3d2dc11610087578063e985e9c511610062578063e985e9c51461063a578063f242432a14610673578063fa461e3314610692578063fbd98edf146106b1575f5ffd5b8063c7c3d2dc146105dc578063cdf3a837146105fb578063d2f3fd091461060e575f5ffd5b80637a4996e8116100c25780637a4996e81461051b578063a22cb46514610561578063bb147c5414610580578063bd85b0391461059f575f5ffd5b80636d0800bc146104a6578063777b1d43146104d15780637a32af78146104f0575f5ffd5b80633fc621881161015257806346f907481161012d57806346f90748146103d95780634e1273f4146104135780635ab2cef41461043f5780636cfcac041461045e575f5ffd5b80633fc62188146102ca578063410cd41a1461030c578063458e8e6b14610355575f5ffd5b8063164e68de1161018d578063164e68de1461023f5780632eb2c2d61461025e5780632edf31041461027f5780633aa88670146102ab575f5ffd5b8062fdd58e146101b257806301ffc9a7146101e45780630e89341c14610213575b5f5ffd5b3480156101bd575f5ffd5b506101d16101cc3660046145b0565b6106dd565b6040519081526020015b60405180910390f35b3480156101ef575f5ffd5b506102036101fe366004614607565b610754565b60405190151581526020016101db565b34801561021e575f5ffd5b5061023261022d366004614622565b610834565b6040516101db9190614685565b34801561024a575f5ffd5b506101d1610259366004614697565b610911565b348015610269575f5ffd5b5061027d610278366004614738565b610a56565b005b34801561028a575f5ffd5b5061029e610299366004614811565b610cf4565b6040516101db919061482b565b3480156102b6575f5ffd5b5061027d6102c5366004614976565b610e0e565b3480156102d5575f5ffd5b506102e96102e43660046149a8565b610f36565b60405171ffffffffffffffffffffffffffffffffffff90911681526020016101db565b348015610317575f5ffd5b5061033f7f000000000000000000000000000000000000000000000000000000000000000081565b60405164ffffffffff90911681526020016101db565b348015610360575f5ffd5b506103696112ff565b604080518251805161ffff90811683526020808301518216818501529184015164ffffffffff90811684860152828601518051831660608087019190915293810151831660808601528501511660a084015292840151151560c0830152909201511660e0820152610100016101db565b3480156103e4575f5ffd5b506103f86103f33660046149e5565b611488565b60405169ffffffffffffffffffff90911681526020016101db565b34801561041e575f5ffd5b5061043261042d366004614a13565b6114a6565b6040516101db9190614a7f565b34801561044a575f5ffd5b5061027d610459366004614ad2565b6115a6565b348015610469575f5ffd5b50610494610478366004614b29565b65ffffffffffff165f9081526020819052604090205460ff1690565b60405160ff90911681526020016101db565b3480156104b1575f5ffd5b506101d16104c0366004614697565b600a6020525f908152604090205481565b3480156104dc575f5ffd5b506103f86104eb3660046149e5565b61176f565b3480156104fb575f5ffd5b50610504611856565b60405165ffffffffffff90911681526020016101db565b348015610526575f5ffd5b5061053a610535366004614622565b61186c565b60405175ffffffffffffffffffffffffffffffffffffffffffff90911681526020016101db565b34801561056c575f5ffd5b5061027d61057b366004614b44565b6118e6565b34801561058b575f5ffd5b5061027d61059a366004614b70565b61196f565b3480156105aa575f5ffd5b506101d16105b9366004614622565b5f908152600660205260409020546fffffffffffffffffffffffffffffffff1690565b3480156105e7575f5ffd5b506104326105f6366004614c1f565b611da1565b6101d1610609366004614c86565b612116565b348015610619575f5ffd5b5061062d610628366004614b29565b612565565b6040516101db9190614cd5565b348015610645575f5ffd5b50610203610654366004614d0e565b600860209081525f928352604080842090915290825290205460ff1681565b34801561067e575f5ffd5b5061027d61068d366004614d3a565b6125ff565b34801561069d575f5ffd5b5061027d6106ac366004614db1565b61280b565b3480156106bc575f5ffd5b506106d06106cb366004614811565b6128d2565b6040516101db9190614df4565b5f6001600160a01b0383163014610716576001600160a01b0383165f90815260056020908152604080832085845290915290205461074b565b5f8281526006602052604090205470010000000000000000000000000000000090046fffffffffffffffffffffffffffffffff165b90505b92915050565b5f7f01ffc9a7000000000000000000000000000000000000000000000000000000007fffffffff00000000000000000000000000000000000000000000000000000000831614806107e657507fd9b67a26000000000000000000000000000000000000000000000000000000007fffffffff000000000000000000000000000000000000000000000000000000008316145b8061074e5750507fffffffff00000000000000000000000000000000000000000000000000000000167f0e89341c000000000000000000000000000000000000000000000000000000001490565b5f81815260066020526040908190205490517f3ef6287c00000000000000000000000000000000000000000000000000000000815260076004820152602481018390526fffffffffffffffffffffffffffffffff909116604482015260609073__$0d913f5ea2cc8398585c34a0416dbc1ef1$__90633ef6287c906064015f60405180830381865af41580156108cc573d5f5f3e3d5ffd5b505050506040513d5f823e601f3d9081017fffffffffffffffffffffffffffffffffffffffffffffffffffffffffffffffe016820160405261074e9190810190614e44565b5f805c801561094c576040517f0f2e5b6c00000000000000000000000000000000000000000000000000000000815260040160405180910390fd5b506001805f5d50336001600160a01b037f00000000000000000000000000000000000000000000000000000000000000001614610987575f5ffd5b6001600160a01b0382165f818152600a6020526040908190205490517f70a082310000000000000000000000000000000000000000000000000000000081523060048201529091906370a0823190602401602060405180830381865afa1580156109f3573d5f5f3e3d5ffd5b505050506040513d601f19601f82011682018060405250810190610a179190614ef6565b610a219190614f3a565b9050610a4e827f00000000000000000000000000000000000000000000000000000000000000008361299e565b5f5f5d919050565b306001600160a01b03891603610a6e57610a6e614f4d565b848314610aa7576040517fff633a3800000000000000000000000000000000000000000000000000000000815260040160405180910390fd5b336001600160a01b03891614801590610ae357506001600160a01b0388165f90815260086020908152604080832033845290915290205460ff16155b15610b1a576040517fea8e4eb500000000000000000000000000000000000000000000000000000000815260040160405180910390fd5b5f5b85811015610b6857610b608989898985818110610b3b57610b3b614f7a565b90506020020135888886818110610b5457610b54614f7a565b90506020020135612afa565b600101610b1c565b50866001600160a01b0316886001600160a01b0316336001600160a01b03167f4a39dc06d4c0dbc64b70af90fd698a233a518aa5d07e595d983b8c0526c8f7fb89898989604051610bbc9493929190614ff0565b60405180910390a46001600160a01b0387163b15610ca7576001600160a01b0387163014801590610ca257506040517fbc197c8100000000000000000000000000000000000000000000000000000000808252906001600160a01b0389169063bc197c8190610c3d9033908d908c908c908c908c908c908c90600401615068565b6020604051808303815f875af1158015610c59573d5f5f3e3d5ffd5b505050506040513d601f19601f82011682018060405250810190610c7d91906150d0565b7fffffffff000000000000000000000000000000000000000000000000000000001614155b610cb3565b6001600160a01b038716155b15610cea576040517f3da6393100000000000000000000000000000000000000000000000000000000815260040160405180910390fd5b5050505050505050565b604080516060810182525f808252602082018190529181019190915260095f610d206020850185614697565b6001600160a01b03166001600160a01b031681526020019081526020015f205f836020016020810190610d539190614697565b6001600160a01b03166001600160a01b031681526020019081526020015f205f836040016020810190610d8691906150eb565b5f90810b8252602080830193909352604091820190208151606081018352905471ffffffffffffffffffffffffffffffffffff811682527201000000000000000000000000000000000000810460070b938201939093527a01000000000000000000000000000000000000000000000000000090920465ffffffffffff169082015292915050565b80516001600160a01b039081165f9081526009602090815260408083208286018051861685529083528184208287018051860b8652935281842091517fd1c790ba0000000000000000000000000000000000000000000000000000000081527f0000000000000000000000000000000000000000000000000000000000000000861660048201526024810192909252600760448301528551851660648301525184166084820152905190910b60a48201527f000000000000000000000000000000000000000000000000000000000000000090911660c482015273__$0d913f5ea2cc8398585c34a0416dbc1ef1$__9063d1c790ba9060e4015f6040518083038186803b158015610f1d575f5ffd5b505af4158015610f2f573d5f5f3e3d5ffd5b5050505050565b5f805c8015610f71576040517f0f2e5b6c00000000000000000000000000000000000000000000000000000000815260040160405180910390fd5b506001805f5d50815f03610fb1576040517f1fbaba3500000000000000000000000000000000000000000000000000000000815260040160405180910390fd5b5f610fba6112ff565b90505f5f5f73__$0d913f5ea2cc8398585c34a0416dbc1ef1$__6349a6b7e78960097f00000000000000000000000000000000000000000000000000000000000000008b6040518563ffffffff1660e01b815260040161101d949392919061514d565b61010060405180830381865af4158015611039573d5f5f3e3d5ffd5b505050506040513d601f19601f8201168201806040525081019061105d91906151d8565b5060408381015165ffffffffffff165f9081526020818152828220835160608082018652915460ff81168252610100810464ffffffffff16828501526601000000000000900475ffffffffffffffffffffffffffffffffffffffffffff16818601528451918201855283825291810183905292830191909152939650919450925089156111ad5785515182516040517f8c2684270000000000000000000000000000000000000000000000000000000081526001600160a01b03861692638c2684279261113492339291908a908f90600401615266565b60c0604051808303815f875af1158015611150573d5f5f3e3d5ffd5b505050506040513d601f19601f820116820180604052508101906111749190615330565b604081015160208301805193975091935091611191908390615363565b71ffffffffffffffffffffffffffffffffffff169052506111c1565b6111be85604001518784878c612c2c565b90505b6111da85856111d5368d90038d018d614976565b612e35565b8060200151815f01510171ffffffffffffffffffffffffffffffffffff16600a5f8b602001602081019061120e9190614697565b6001600160a01b03166001600160a01b031681526020019081526020015f205f8282540392505081905550846040015165ffffffffffff167f7c6da711ffa6af277b820416f2daab1018c73a4fb0c4a49a38c5fb292b6c0e8b8b835f0151846020015185604001516040516112b59493929190931515845271ffffffffffffffffffffffffffffffffffff9283166020850152908216604084015216606082015260800190565b60405180910390a26112ed6112d060408b0160208c01614697565b8251339071ffffffffffffffffffffffffffffffffffff1661299e565b51955050505050505f5f5d9392505050565b6040805160e0810182525f6080820181815260a0830182905260c083018290528252825160608082018552828252602080830184905282860184905284019190915292820181905291810191909152506040805160e08101825260025461ffff8082166080840190815262010000808404831660a086015264ffffffffff64010000000094859004811660c087015291855285516060818101885260035480861683529283048516602083810191909152959092048316818801529385019390935260045460ff81161515858701526101009004909116918301919091528151909201519091161580159061140e575080516040015161140a90620d2f009064ffffffffff1661538d565b4210155b1561142a578051602081015161ffff16905280515f6040909101525b60208101516040015164ffffffffff16158015906114655750620d2f0081602001516040015164ffffffffff16611461919061538d565b4210155b1561148557602080820180519182015161ffff16909152515f6040909101525b90565b5f61074b838361149885876106dd565b6114a18761186c565b613219565b60608382146114e1576040517fff633a3800000000000000000000000000000000000000000000000000000000815260040160405180910390fd5b8367ffffffffffffffff8111156114fa576114fa61486b565b604051908082528060200260200182016040528015611523578160200160208202803683370190505b5090505f5b8481101561159d5761157886868381811061154557611545614f7a565b905060200201602081019061155a9190614697565b85858481811061156c5761156c614f7a565b905060200201356106dd565b82828151811061158a5761158a614f7a565b6020908102919091010152600101611528565b50949350505050565b336001600160a01b037f000000000000000000000000000000000000000000000000000000000000000016146115da575f5ffd5b5f6115e36112ff565b905061ffff84161561161157805164ffffffffff4216604090910152805161ffff8516602090910152611647565b61ffff83161561163e576020808201805164ffffffffff42166040909101525161ffff8516910152611647565b81151560408201525b805180516002805460208085015160409586015161ffff9586167fffffffffffffffffffffffffffffffffffffffffffffffffffffffff0000000094851617620100009287168302177fffffffffffffffffffffffffffffffffffffffffffffff0000000000ffffffff90811664010000000064ffffffffff9384168102919091179096558389015180516003805496830151928b0151918a16969097169590951790881690930292909217909116911690920291909117905590820151600480546060909401517fffffffffffffffffffffffffffffffffffffffffffffffffffffffffff0000009094169115157fffffffffffffffffffffffffffffffffffffffffffffffffffffffffff0000ff16919091176101009390921692909202179055505050565b5f336001600160a01b037f000000000000000000000000000000000000000000000000000000000000000016146117a4575f5ffd5b6004545f84815260208181526040918290208251606081018452905460ff8116825261010080820464ffffffffff16938301939093526601000000000000900475ffffffffffffffffffffffffffffffffffffffffffff169281019290925261074b92600192879290910461ffff169061181d836132ec565b6040518060800160405280896001600160a01b031681526020016118418a8c6106dd565b81525f6020820181905260409091015261335c565b6007545f9061186790600190614f3a565b905090565b6004545f828152602081815260408083208151606081018352905460ff8116825261010080820464ffffffffff16948301949094526601000000000000900475ffffffffffffffffffffffffffffffffffffffffffff1691810191909152919261074e9291900461ffff16906118e1856132ec565b613589565b335f8181526008602090815260408083206001600160a01b0387168085529083529281902080547fffffffffffffffffffffffffffffffffffffffffffffffffffffffffffffff001686151590811790915590519081529192917f17307eab39ab6107e8899845ad3d59bd9653f200f220920489ca2b5937696c31910160405180910390a35050565b336001600160a01b037f000000000000000000000000000000000000000000000000000000000000000016146119a3575f5ffd5b5f5b86811015611b6857604080516060810182525f815264ffffffffff42166020820152908101611a018a8a858181106119df576119df614f7a565b90506020020160208101906119f49190614b29565b65ffffffffffff1661186c565b75ffffffffffffffffffffffffffffffffffffffffffff1690525f808a8a85818110611a2f57611a2f614f7a565b9050602002016020810190611a449190614b29565b65ffffffffffff16815260208082019290925260409081015f208351815493850151949092015175ffffffffffffffffffffffffffffffffffffffffffff166601000000000000027fffffffff00000000000000000000000000000000000000000000ffffffffffff64ffffffffff909516610100027fffffffffffffffffffffffffffffffffffffffffffffffffffff00000000000090941660ff909316929092179290921792909216919091179055878782818110611b0757611b07614f7a565b9050602002016020810190611b1c9190614b29565b604080515f808252602082015265ffffffffffff92909216917fc05b4c85e1a9e164c2764407bce9e5955a2e6435dea37ef8c4e62ec458ebf21a910160405180910390a26001016119a5565b505f5b84811015611d60576040518060600160405280858584818110611b9057611b90614f7a565b9050602002016020810190611ba591906153a0565b60ff1681526020014264ffffffffff168152602001611bcf8888858181106119df576119df614f7a565b75ffffffffffffffffffffffffffffffffffffffffffff1690525f80888885818110611bfd57611bfd614f7a565b9050602002016020810190611c129190614b29565b65ffffffffffff16815260208082019290925260409081015f208351815493850151949092015175ffffffffffffffffffffffffffffffffffffffffffff166601000000000000027fffffffff00000000000000000000000000000000000000000000ffffffffffff64ffffffffff909516610100027fffffffffffffffffffffffffffffffffffffffffffffffffffff00000000000090941660ff909316929092179290921792909216919091179055858582818110611cd557611cd5614f7a565b9050602002016020810190611cea9190614b29565b65ffffffffffff167fc05b4c85e1a9e164c2764407bce9e5955a2e6435dea37ef8c4e62ec458ebf21a858584818110611d2557611d25614f7a565b9050602002016020810190611d3a91906153a0565b6040805160ff909216825261ffff861660208301520160405180910390a2600101611b6b565b506004805461ffff909216610100027fffffffffffffffffffffffffffffffffffffffffffffffffffffffffff0000ff909216919091179055505050505050565b6060336001600160a01b037f00000000000000000000000000000000000000000000000000000000000000001614611dd7575f5ffd5b8267ffffffffffffffff811115611df057611df061486b565b604051908082528060200260200182016040528015611e19578160200160208202803683370190505b5090505f6060815b8581101561210c57868682818110611e3b57611e3b614f7a565b9050602002016020810190611e509190614697565b604080513060248083019190915282518083039091018152604490910182526020810180517bffffffffffffffffffffffffffffffffffffffffffffffffffffffff167f70a082310000000000000000000000000000000000000000000000000000000017905290516001600160a01b039290921691611ed091906153c0565b5f604051808303815f865af19150503d805f8114611f09576040519150601f19603f3d011682016040523d82523d5f602084013e611f0e565b606091505b509093509150828015611f22575081516020145b156121045781806020019051810190611f3b9190614ef6565b848281518110611f4d57611f4d614f7a565b6020026020010181815250505f848281518110611f6c57611f6c614f7a565b6020026020010151111561210457868682818110611f8c57611f8c614f7a565b9050602002016020810190611fa19190614697565b6001600160a01b031663a9059cbb60e01b86868481518110611fc557611fc5614f7a565b60209081029190910101516040516001600160a01b0390921660248301526044820152606401604080517fffffffffffffffffffffffffffffffffffffffffffffffffffffffffffffffe08184030181529181526020820180517bffffffffffffffffffffffffffffffffffffffffffffffffffffffff167fffffffff0000000000000000000000000000000000000000000000000000000090941693909317909252905161207491906153c0565b5f604051808303815f865af19150503d805f81146120ad576040519150601f19603f3d011682016040523d82523d5f602084013e6120b2565b606091505b5090935091508280156120dd5750815115806120dd5750818060200190518101906120dd91906153d6565b925082612104575f8482815181106120f7576120f7614f7a565b6020026020010181815250505b600101611e21565b5050509392505050565b5f805c8015612151576040517f0f2e5b6c00000000000000000000000000000000000000000000000000000000815260040160405180910390fd5b506001805f5d503415801590612266576001600160a01b037f00000000000000000000000000000000000000000000000000000000000000001671ffffffffffffffffffffffffffffffffffff8416156121ac5785516121b2565b85602001515b6001600160a01b0316146121f2576040517f8efa29d600000000000000000000000000000000000000000000000000000000815260040160405180910390fd5b3493507f00000000000000000000000000000000000000000000000000000000000000006001600160a01b031663d0e30db0346040518263ffffffff1660e01b81526004015f604051808303818588803b15801561224e575f5ffd5b505af1158015612260573d5f5f3e3d5ffd5b50505050505b835f0361229f576040517f1fbaba3500000000000000000000000000000000000000000000000000000000815260040160405180910390fd5b5f5f5f5f73__$0d913f5ea2cc8398585c34a0416dbc1ef1$__6349a6b7e78b60097f00000000000000000000000000000000000000000000000000000000000000008d6040518563ffffffff1660e01b815260040161230194939291906153f1565b61010060405180830381865af415801561231d573d5f5f3e3d5ffd5b505050506040513d601f19601f8201168201806040525081019061234191906151d8565b93509350935093508671ffffffffffffffffffffffffffffffffffff165f036123ae5771ffffffffffffffffffffffffffffffffffff881115612382575f5ffd5b61239033838b8b8888613707565b9550345f036123a9576123a9896020015133308b613ae6565b612555565b8060015d7f7fffffffffffffffffffffffffffffffffffffffffffffffffffffffffffffff8811156123de575f5ffd5b5f895f01516001600160a01b03168a602001516001600160a01b03161190505f33848c8888868c60405160200161241b9796959493929190615448565b60405160208183030381529060405290505f5f846001600160a01b031663128acb0830868f8861246957612464600173fffd8963efd1fc6a506488495d951d5263988d26615527565b612479565b6124796401000276a36001615546565b886040518663ffffffff1660e01b815260040161249a959493929190615565565b60408051808303815f875af11580156124b5573d5f5f3e3d5ffd5b505050506040513d601f19601f820116820180604052508101906124d991906155a3565b915091505f846124f1576124ec836155c5565b6124fa565b6124fa826155c5565b90508b71ffffffffffffffffffffffffffffffffffff1681101561254a576040517fc706314300000000000000000000000000000000000000000000000000000000815260040160405180910390fd5b60015c9a5050505050505b50505050505f5f5d949350505050565b604080516060810182525f808252602082018190529181019190915260078265ffffffffffff168154811061259c5761259c614f7a565b5f918252602080832060408051606081018252600290940290910180546001600160a01b039081168552600190910154908116928401929092527401000000000000000000000000000000000000000090910490920b9181019190915292915050565b306001600160a01b0387160361261757612617614f4d565b336001600160a01b0387161480159061265357506001600160a01b0386165f90815260086020908152604080832033845290915290205460ff16155b1561268a576040517fea8e4eb500000000000000000000000000000000000000000000000000000000815260040160405180910390fd5b61269686868686612afa565b60408051858152602081018590526001600160a01b03808816929089169133917fc3d58168c5ae7397731d063d5bbf3d657854427343f4c083240f7aacaa2d0f62910160405180910390a46001600160a01b0385163b156127c0576001600160a01b03851630148015906127bb57506040517ff23a6e6100000000000000000000000000000000000000000000000000000000808252906001600160a01b0387169063f23a6e61906127569033908b908a908a908a908a906004016155fb565b6020604051808303815f875af1158015612772573d5f5f3e3d5ffd5b505050506040513d601f19601f8201168201806040525081019061279691906150d0565b7fffffffff000000000000000000000000000000000000000000000000000000001614155b6127cc565b6001600160a01b038516155b15612803576040517f3da6393100000000000000000000000000000000000000000000000000000000815260040160405180910390fd5b505050505050565b60015c336001600160a01b03821614612822575f5ffd5b5f808080808080612835898b018b61568c565b96509650965096509650965096505f5f83612859576128538e6155c5565b8d612864565b6128628d6155c5565b8e5b91509150821561287b57865161287b908b8361299e565b71ffffffffffffffffffffffffffffffffffff821115612899575f5ffd5b5f6128a88a8a8a868b8b613707565b9050836128bd5787516128bd908b8d85613ae6565b8060015d505050505050505050505050505050565b604080516060810182525f808252602082018190528183015290517f94215a4c00000000000000000000000000000000000000000000000000000000815273__$0d913f5ea2cc8398585c34a0416dbc1ef1$__906394215a4c9061295f906009907f000000000000000000000000000000000000000000000000000000000000000090879060040161576c565b606060405180830381865af415801561297a573d5f5f3e3d5ffd5b505050506040513d601f19601f8201168201806040525081019061074e919061578f565b604080516001600160a01b038481166024830152604480830185905283518084039091018152606490920183526020820180517bffffffffffffffffffffffffffffffffffffffffffffffffffffffff167fa9059cbb0000000000000000000000000000000000000000000000000000000017905291515f92839290871691612a2791906153c0565b5f604051808303815f865af19150503d805f8114612a60576040519150601f19603f3d011682016040523d82523d5f602084013e612a65565b606091505b5091509150818015612a8f575080511580612a8f575080806020019051810190612a8f91906153d6565b610f2f576040517f08c379a000000000000000000000000000000000000000000000000000000000815260206004820152600260248201527f535400000000000000000000000000000000000000000000000000000000000060448201526064015b60405180910390fd5b604080516080810182526001600160a01b038087168083525f90815260056020908152848220878352815284822054908401529086169282019290925260608101612b4586866106dd565b90526004545f858152602081815260408083208151606081018352905460ff8116825261010080820464ffffffffff16948301949094526601000000000000900475ffffffffffffffffffffffffffffffffffffffffffff1691810191909152939450612bc7939192879291900461ffff1690612bc1836132ec565b8661335c565b508181602001818151612bda9190614f3a565b9052506001600160a01b0385811690851614610f2f576020808201516001600160a01b0387165f90815260058352604080822087835290935291909120556060810151610f2f90859085908501613c45565b604080516060810182525f808252602080830182905282840182905265ffffffffffff8916808352600682528483208551808701875290546fffffffffffffffffffffffffffffffff808216835270010000000000000000000000000000000090910416818401523384526005835285842091845291529290205490919080841115612cb6575f5ffd5b612d1d5f8965ffffffffffff168960600151898660200151875f0151036fffffffffffffffffffffffffffffffff166040518060800160405280336001600160a01b03168152602001888152602001306001600160a01b031681526020015f81525061335c565b50612d56856020015171ffffffffffffffffffffffffffffffffffff1685845f01516fffffffffffffffffffffffffffffffff16613cbb565b71ffffffffffffffffffffffffffffffffffff9081168452335f81815260056020908152604080832065ffffffffffff8e168085529083528184208a8803905587516fffffffffffffffffffffffffffffffff908b90038116895289518c8501805191909103909716909652808452600683528184208851898501518816700100000000000000000000000000000000029716969096179095558051948552908401889052909282917fc3d58168c5ae7397731d063d5bbf3d657854427343f4c083240f7aacaa2d0f62910160405180910390a4505095945050505050565b60208201518251612e469190615363565b71ffffffffffffffffffffffffffffffffffff16808452620f42401115612e6b575f5ffd5b815171ffffffffffffffffffffffffffffffffffff165f03612e9a57677fffffffffffffff6020840152613124565b816020015171ffffffffffffffffffffffffffffffffffff165f03612ee4577fffffffffffffffffffffffffffffffffffffffffffffffff80000000000000006020840152613124565b5f5f82604001515f0b121590505f81612f035782604001515f03612f09565b82604001515b90505f8215612f4b576020850151855171ffffffffffffffffffffffffffffffffffff918216911660ff84161b1015612f4457506001612f80565b505f612f80565b6020850151855171ffffffffffffffffffffffffffffffffffff91821660ff85161b91161015612f7d57506001612f80565b505f5b8015613048575f612fe984612faf57875171ffffffffffffffffffffffffffffffffffff1660ff85161b612fc6565b875171ffffffffffffffffffffffffffffffffffff165b875171ffffffffffffffffffffffffffffffffffff1660ff861681901b01613d80565b60070b90505f84613000578360ff1682901b613008565b8360ff1682901d5b604088015160070b019050677fffffffffffffff81131561303657677fffffffffffffff6020890152613041565b600781900b60208901525b5050613120565b5f6130ae8461306c57875171ffffffffffffffffffffffffffffffffffff16613088565b875171ffffffffffffffffffffffffffffffffffff1660ff85161b5b602088015171ffffffffffffffffffffffffffffffffffff1660ff861681901b01613d80565b6040870151600791820b9250900b8190037fffffffffffffffffffffffffffffffffffffffffffffffff8000000000000000811215613112577fffffffffffffffffffffffffffffffffffffffffffffffff8000000000000000602089015261311d565b600781900b60208901525b50505b5050505b80516001600160a01b039081165f90815260096020908152604080832082860151909416835292815282822093830151820b82529283528190208451815493860151929095015165ffffffffffff167a0100000000000000000000000000000000000000000000000000000279ffffffffffffffffffffffffffffffffffffffffffffffffffff67ffffffffffffffff9093167201000000000000000000000000000000000000027fffffffffffff000000000000000000000000000000000000000000000000000090941671ffffffffffffffffffffffffffffffffffff9096169590951792909217169290921790915550565b5f306001600160a01b0385160361323157505f6132e4565b5f8581526001602090815260408083206001600160a01b0388168452825280832081518083019092525475ffffffffffffffffffffffffffffffffffffffffffff81168252760100000000000000000000000000000000000000000000900469ffffffffffffffffffff1691810191909152908490036132b6576020015190506132e4565b6060815f0151840375ffffffffffffffffffffffffffffffffffffffffffff168502901c8160200151019150505b949350505050565b5f8181526006602090815260408083208151808301909252546fffffffffffffffffffffffffffffffff808216808452700100000000000000000000000000000000909204169282018390529091613343916157a9565b6fffffffffffffffffffffffffffffffff169392505050565b5f5f613369868686613589565b905061337e87845f0151856020015184613219565b915060405180604001604052808275ffffffffffffffffffffffffffffffffffffffffffff168152602001896133b457836133b6565b5f5b69ffffffffffffffffffff9081169091525f89815260016020908152604080832088516001600160a01b03908116855290835292819020855195909201519093167601000000000000000000000000000000000000000000000275ffffffffffffffffffffffffffffffffffffffffffff909416939093179092558401511630146134f15760405180604001604052808275ffffffffffffffffffffffffffffffffffffffffffff168152602001613478898660400151876060015186613219565b69ffffffffffffffffffff9081169091525f898152600160209081526040808320888201516001600160a01b031684528252909120835193909101519091167601000000000000000000000000000000000000000000000275ffffffffffffffffffffffffffffffffffffffffffff9092169190911790555b5f9687526020879052604090962080547fffffffff000000000000000000000000000000000000000000000000000000ff16660100000000000075ffffffffffffffffffffffffffffffffffffffffffff909816979097027fffffffffffffffffffffffffffffffffffffffffffffffffffff0000000000ff16969096176101004264ffffffffff1602179095555092949350505050565b6040820151825160ff16158015906135b357504264ffffffffff16836020015164ffffffffff1614155b80156135be57508115155b15613700578361ffff16835f015160ff1611156135dd576135dd614f4d565b60208301517f00000000000000000000000000000000000000000000000000000000000000006305a39a800164ffffffffff80821690831610156136815784515f9061ffff88169060ff166527d6140eb6ae028161363d5761363d6157d1565b0490508460608464ffffffffff168464ffffffffff16421161365f5742613668565b8464ffffffffff165b038302901b8161367a5761367a6157d1565b0484019350505b8064ffffffffff164264ffffffffff1611156136fd5784515f9061ffff88169060ff16653a1cc489993602816136b9576136b96157d1565b0490508460608364ffffffffff168564ffffffffff16116136da57836136dc565b845b64ffffffffff1642038302901b816136f6576136f66157d1565b0484019350505b50505b9392505050565b5f5f6137116112ff565b9050806040015115613721575f5ffd5b60408481015165ffffffffffff165f9081526020818152828220835160608082018652915460ff81168252610100810464ffffffffff16828501526601000000000000900475ffffffffffffffffffffffffffffffffffffffffffff16818601528451918201855283825291810183905292830191909152906001600160a01b0389161580159061386657896001600160a01b0316636bc601d78c865f01515f0151865f01518a8d6040518663ffffffff1660e01b81526004016137e99594939291906157fe565b60e0604051808303815f875af1158015613805573d5f5f3e3d5ffd5b505050506040513d601f19601f820116820180604052508101906138299190615894565b6040820151602084018051949a50919850919450909161384a908390615363565b71ffffffffffffffffffffffffffffffffffff16905250613882565b61387d8b8a60200151896040015187878b8e613ec1565b955091505b845f036138bb576040517f1fbaba3500000000000000000000000000000000000000000000000000000000815260040160405180910390fd5b6138c687878b612e35565b60208201516138d590896158d2565b71ffffffffffffffffffffffffffffffffffff16600a5f8b602001516001600160a01b03166001600160a01b031681526020019081526020015f205f82825461391e919061538d565b92505081905550866040015165ffffffffffff167f2ea082b0ce379480d9dfb0d7ab365e33def58ee2bee64887c13e531723b5c88182845f0151856020015186604001516040516139a19493929190931515845271ffffffffffffffffffffffffffffffffffff9283166020850152908216604084015216606082015260800190565b60405180910390a2801580156139c057505f8b6001600160a01b03163b115b8015613aa1575060408088015190517ff23a6e61000000000000000000000000000000000000000000000000000000008082526001600160a01b038e16600483018190525f6024840181905265ffffffffffff90941660448401526064830189905260a0608484015260a4830193909352919063f23a6e619060c4016020604051808303815f875af1158015613a58573d5f5f3e3d5ffd5b505050506040513d601f19601f82011682018060405250810190613a7c91906150d0565b7fffffffff000000000000000000000000000000000000000000000000000000001614155b15613ad8576040517f3da6393100000000000000000000000000000000000000000000000000000000815260040160405180910390fd5b505050509695505050505050565b604080516001600160a01b0385811660248301528481166044830152606480830185905283518084039091018152608490920183526020820180517bffffffffffffffffffffffffffffffffffffffffffffffffffffffff167f23b872dd0000000000000000000000000000000000000000000000000000000017905291515f92839290881691613b7791906153c0565b5f604051808303815f865af19150503d805f8114613bb0576040519150601f19603f3d011682016040523d82523d5f602084013e613bb5565b606091505b5091509150818015613bdf575080511580613bdf575080806020019051810190613bdf91906153d6565b612803576040517f08c379a000000000000000000000000000000000000000000000000000000000815260206004820152600360248201527f53544600000000000000000000000000000000000000000000000000000000006044820152606401612af1565b306001600160a01b03841603613c95575f82815260066020526040902080546fffffffffffffffffffffffffffffffff808416700100000000000000000000000000000000029116179055505050565b6001600160a01b03929092165f9081526005602090815260408083209383529290522055565b5f80807fffffffffffffffffffffffffffffffffffffffffffffffffffffffffffffffff858709858702925082811083820303915050805f03613d0e575f8411613d03575f5ffd5b508290049050613700565b808411613d19575f5ffd5b5f8486880960026001871981018816978890046003810283188082028403028082028403028082028403028082028403028082028403029081029092039091025f889003889004909101858311909403939093029303949094049190911702949350505050565b5f81831015613d9157613d91614f4d565b815f03613da057613da0614f4d565b5f828481613db057613db06157d1565b0490506fffffffffffffffffffffffffffffffff811160071b81811c67ffffffffffffffff811160061b90811c63ffffffff811160051b90811c61ffff811160041b90811c60ff8111600390811b91821c600f811160021b90811c918211600190811b92831c97908811961790941790921717909117171760808110613e3e57607f810383901c9150613e52565b613e4f8682607f0360020a87613cbb565b91505b603781901b60015b60378111613e8f57838402607f1c93508360801c80826037031b8317925084811c94505080613e88906158fc565b9050613e5a565b5060c0613eb48277d89e8c075c4155dd3213326cbbcf86fd1f63f5c205dd2ad2615933565b901c979650505050505050565b604080516060810182525f808252602082018190529181019190915265ffffffffffff86165f8181526006602090815260408083208151808301835290546fffffffffffffffffffffffffffffffff808216835270010000000000000000000000000000000090910481168285019081526001600160a01b038f16808752600586528487208888528652848720548551608081018752918252958101869052309481019490945260608085018790528c0151905183519697889794969594613f9194899492938f9203168661335c565b5082516fffffffffffffffffffffffffffffffff1615613ffc57613ff7835f01516fffffffffffffffffffffffffffffffff168871ffffffffffffffffffffffffffffffffffff168a6020015171ffffffffffffffffffffffffffffffffffff16613cbb565b61400c565b61400c8c89602001518901614308565b835190945061ffff6f140eb6ae00000000000000000000000004036fffffffffffffffffffffffffffffffff16841115614072576040517f6deac20700000000000000000000000000000000000000000000000000000000815260040160405180910390fd5b614083878b602001515f0151614522565b805184519197506140e391869171ffffffffffffffffffffffffffffffffffff16906fffffffffffffffffffffffffffffffff16156140c257896140ca565b8a602001518a015b71ffffffffffffffffffffffffffffffffffff16613cbb565b9450848403935084820160055f8f6001600160a01b03166001600160a01b031681526020019081526020015f205f8d65ffffffffffff1681526020019081526020015f20819055508383602001818151019150906fffffffffffffffffffffffffffffffff1690816fffffffffffffffffffffffffffffffff1681525050838501835f01818151019150906fffffffffffffffffffffffffffffffff1690816fffffffffffffffffffffffffffffffff16815250508260065f8d65ffffffffffff1681526020019081526020015f205f820151815f015f6101000a8154816fffffffffffffffffffffffffffffffff02191690836fffffffffffffffffffffffffffffffff1602179055506020820151815f0160106101000a8154816fffffffffffffffffffffffffffffffff02191690836fffffffffffffffffffffffffffffffff16021790555090505050505083856020018181516142449190615363565b71ffffffffffffffffffffffffffffffffffff169052506040805165ffffffffffff8a168152602081018490526001600160a01b038c16915f9183917fc3d58168c5ae7397731d063d5bbf3d657854427343f4c083240f7aacaa2d0f62910160405180910390a46040805165ffffffffffff8a1681526020810183905230915f916001600160a01b038e16917fc3d58168c5ae7397731d063d5bbf3d657854427343f4c083240f7aacaa2d0f62910160405180910390a45097509795505050505050565b5f5f836001600160a01b03166318160ddd6040518163ffffffff1660e01b8152600401602060405180830381865afa158015614346573d5f5f3e3d5ffd5b505050506040513d601f19601f8201168201806040525081019061436a9190614ef6565b9050620f424061ffff606067016345785d8a00006301e133806001614391600c600a615a6b565b61439f9063781a75c0615933565b6143a99190614f3a565b6143b39190615a79565b6143be906001615aaa565b6143da9068ffffffffffffffffff1666f38a31408ae338615933565b6143e49190615acb565b68ffffffffffffffffff166fffffffffffffffffffffffffffffffff16901b61440d9190615ade565b6144179190615ade565b6fffffffffffffffffffffffffffffffff1681116144555761443c83620f4240615b1d565b71ffffffffffffffffffffffffffffffffffff166132e4565b6132e461ffff606067016345785d8a00006301e133806001614479600c600a615a6b565b6144879063781a75c0615933565b6144919190614f3a565b61449b9190615a79565b6144a6906001615aaa565b6144c29068ffffffffffffffffff1666f38a31408ae338615933565b6144cc9190615acb565b68ffffffffffffffffff166fffffffffffffffffffffffffffffffff16901b6144f59190615ade565b6fffffffffffffffffffffffffffffffff168471ffffffffffffffffffffffffffffffffffff1683613cbb565b604080516060810182525f808252602082018190529181019190915261271061ffff831681018071ffffffffffffffffffffffffffffffffffff861683028161456d5761456d6157d1565b0471ffffffffffffffffffffffffffffffffffff90811680855290950390941660408301525092915050565b6001600160a01b03811681146145ad575f5ffd5b50565b5f5f604083850312156145c1575f5ffd5b82356145cc81614599565b946020939093013593505050565b7fffffffff00000000000000000000000000000000000000000000000000000000811681146145ad575f5ffd5b5f60208284031215614617575f5ffd5b8135613700816145da565b5f60208284031215614632575f5ffd5b5035919050565b5f81518084528060208401602086015e5f6020828601015260207fffffffffffffffffffffffffffffffffffffffffffffffffffffffffffffffe0601f83011685010191505092915050565b602081525f61074b6020830184614639565b5f602082840312156146a7575f5ffd5b813561370081614599565b5f5f83601f8401126146c2575f5ffd5b50813567ffffffffffffffff8111156146d9575f5ffd5b6020830191508360208260051b85010111156146f3575f5ffd5b9250929050565b5f5f83601f84011261470a575f5ffd5b50813567ffffffffffffffff811115614721575f5ffd5b6020830191508360208285010111156146f3575f5ffd5b5f5f5f5f5f5f5f5f60a0898b03121561474f575f5ffd5b883561475a81614599565b9750602089013561476a81614599565b9650604089013567ffffffffffffffff811115614785575f5ffd5b6147918b828c016146b2565b909750955050606089013567ffffffffffffffff8111156147b0575f5ffd5b6147bc8b828c016146b2565b909550935050608089013567ffffffffffffffff8111156147db575f5ffd5b6147e78b828c016146fa565b999c989b5096995094979396929594505050565b5f6060828403121561480b575f5ffd5b50919050565b5f60608284031215614821575f5ffd5b61074b83836147fb565b815171ffffffffffffffffffffffffffffffffffff16815260208083015160070b9082015260408083015165ffffffffffff16908201526060810161074e565b7f4e487b71000000000000000000000000000000000000000000000000000000005f52604160045260245ffd5b6040516060810167ffffffffffffffff811182821017156148bb576148bb61486b565b60405290565b604051601f82017fffffffffffffffffffffffffffffffffffffffffffffffffffffffffffffffe016810167ffffffffffffffff811182821017156149085761490861486b565b604052919050565b80355f81900b8114614920575f5ffd5b919050565b5f60608284031215614935575f5ffd5b61493d614898565b9050813561494a81614599565b8152602082013561495a81614599565b602082015261496b60408301614910565b604082015292915050565b5f60608284031215614986575f5ffd5b61074b8383614925565b80151581146145ad575f5ffd5b803561492081614990565b5f5f5f60a084860312156149ba575f5ffd5b83356149c581614990565b92506149d485602086016147fb565b929592945050506080919091013590565b5f5f604083850312156149f6575f5ffd5b823591506020830135614a0881614599565b809150509250929050565b5f5f5f5f60408587031215614a26575f5ffd5b843567ffffffffffffffff811115614a3c575f5ffd5b614a48878288016146b2565b909550935050602085013567ffffffffffffffff811115614a67575f5ffd5b614a73878288016146b2565b95989497509550505050565b602080825282518282018190525f918401906040840190835b81811015614ab6578351835260209384019390920191600101614a98565b509095945050505050565b803561ffff81168114614920575f5ffd5b5f5f5f60608486031215614ae4575f5ffd5b614aed84614ac1565b9250614afb60208501614ac1565b91506040840135614b0b81614990565b809150509250925092565b65ffffffffffff811681146145ad575f5ffd5b5f60208284031215614b39575f5ffd5b813561370081614b16565b5f5f60408385031215614b55575f5ffd5b8235614b6081614599565b91506020830135614a0881614990565b5f5f5f5f5f5f5f6080888a031215614b86575f5ffd5b873567ffffffffffffffff811115614b9c575f5ffd5b614ba88a828b016146b2565b909850965050602088013567ffffffffffffffff811115614bc7575f5ffd5b614bd38a828b016146b2565b909650945050604088013567ffffffffffffffff811115614bf2575f5ffd5b614bfe8a828b016146b2565b9094509250614c11905060608901614ac1565b905092959891949750929550565b5f5f5f60408486031215614c31575f5ffd5b833567ffffffffffffffff811115614c47575f5ffd5b614c53868287016146b2565b9094509250506020840135614b0b81614599565b71ffffffffffffffffffffffffffffffffffff811681146145ad575f5ffd5b5f5f5f5f60c08587031215614c99575f5ffd5b8435614ca481614990565b9350614cb38660208701614925565b92506080850135915060a0850135614cca81614c67565b939692955090935050565b6060810161074e82846001600160a01b0381511682526001600160a01b03602082015116602083015260408101515f0b60408301525050565b5f5f60408385031215614d1f575f5ffd5b8235614d2a81614599565b91506020830135614a0881614599565b5f5f5f5f5f5f60a08789031215614d4f575f5ffd5b8635614d5a81614599565b95506020870135614d6a81614599565b94506040870135935060608701359250608087013567ffffffffffffffff811115614d93575f5ffd5b614d9f89828a016146fa565b979a9699509497509295939492505050565b5f5f5f5f60608587031215614dc4575f5ffd5b8435935060208501359250604085013567ffffffffffffffff811115614de8575f5ffd5b614a73878288016146fa565b6060810161074e828471ffffffffffffffffffffffffffffffffffff815116825271ffffffffffffffffffffffffffffffffffff6020820151166020830152604081015160070b60408301525050565b5f60208284031215614e54575f5ffd5b815167ffffffffffffffff811115614e6a575f5ffd5b8201601f81018413614e7a575f5ffd5b805167ffffffffffffffff811115614e9457614e9461486b565b614ec560207fffffffffffffffffffffffffffffffffffffffffffffffffffffffffffffffe0601f840116016148c1565b818152856020838501011115614ed9575f5ffd5b8160208401602083015e5f91810160200191909152949350505050565b5f60208284031215614f06575f5ffd5b5051919050565b7f4e487b71000000000000000000000000000000000000000000000000000000005f52601160045260245ffd5b8181038181111561074e5761074e614f0d565b7f4e487b71000000000000000000000000000000000000000000000000000000005f52600160045260245ffd5b7f4e487b71000000000000000000000000000000000000000000000000000000005f52603260045260245ffd5b8183525f7f07ffffffffffffffffffffffffffffffffffffffffffffffffffffffffffffff831115614fd7575f5ffd5b8260051b80836020870137939093016020019392505050565b604081525f615003604083018688614fa7565b8281036020840152615016818587614fa7565b979650505050505050565b81835281816020850137505f602082840101525f60207fffffffffffffffffffffffffffffffffffffffffffffffffffffffffffffffe0601f840116840101905092915050565b6001600160a01b03891681526001600160a01b038816602082015260a060408201525f61509960a08301888a614fa7565b82810360608401526150ac818789614fa7565b905082810360808401526150c1818587615021565b9b9a5050505050505050505050565b5f602082840312156150e0575f5ffd5b8151613700816145da565b5f602082840312156150fb575f5ffd5b61074b82614910565b803561510f81614599565b6001600160a01b03168252602081013561512881614599565b6001600160a01b0316602083015261514260408201614910565b5f0b60408301525050565b8415158152602081018490526001600160a01b038316604082015260c081016151796060830184615104565b95945050505050565b8060070b81146145ad575f5ffd5b5f606082840312156151a0575f5ffd5b6151a8614898565b905081516151b581614c67565b815260208201516151c581614c67565b6020820152604082015161496b81615182565b5f5f5f5f8486036101008112156151ed575f5ffd5b60608112156151fa575f5ffd5b50615203614898565b855161520e81614c67565b8152602086015161521e81615182565b6020820152604086015161523181614b16565b604082015293506152458660608701615190565b925060c085015161525581614599565b60e0860151909250614cca81614599565b6001600160a01b038616815261ffff8516602082015260ff8416604082015260e081016152d8606083018571ffffffffffffffffffffffffffffffffffff815116825271ffffffffffffffffffffffffffffffffffff6020820151166020830152604081015160070b60408301525050565b8260c08301529695505050505050565b5f606082840312156152f8575f5ffd5b615300614898565b9050815161530d81614c67565b8152602082015161531d81614c67565b6020820152604082015161496b81614c67565b5f5f60c08385031215615341575f5ffd5b61534b8484615190565b915061535a84606085016152e8565b90509250929050565b71ffffffffffffffffffffffffffffffffffff818116838216019081111561074e5761074e614f0d565b8082018082111561074e5761074e614f0d565b5f602082840312156153b0575f5ffd5b813560ff81168114613700575f5ffd5b5f82518060208501845e5f920191825250919050565b5f602082840312156153e6575f5ffd5b815161370081614990565b8415158152602081018490526001600160a01b038316604082015260c0810161517960608301846001600160a01b0381511682526001600160a01b03602082015116602083015260408101515f0b60408301525050565b6001600160a01b038881168252871660208201526101a0810161549960408301886001600160a01b0381511682526001600160a01b03602082015116602083015260408101515f0b60408301525050565b855171ffffffffffffffffffffffffffffffffffff1660a0830152602086015160070b60c0830152604086015165ffffffffffff1660e0830152845171ffffffffffffffffffffffffffffffffffff908116610100840152602086015116610120830152604085015160070b6101408301529215156101608201529015156101809091015295945050505050565b6001600160a01b03828116828216039081111561074e5761074e614f0d565b6001600160a01b03818116838216019081111561074e5761074e614f0d565b6001600160a01b038616815284151560208201528360408201526001600160a01b038316606082015260a060808201525f61501660a0830184614639565b5f5f604083850312156155b4575f5ffd5b505080516020909101519092909150565b5f7f800000000000000000000000000000000000000000000000000000000000000082036155f5576155f5614f0d565b505f0390565b6001600160a01b03871681526001600160a01b038616602082015284604082015283606082015260a060808201525f61563860a083018486615021565b98975050505050505050565b5f60608284031215615654575f5ffd5b61565c614898565b9050813561566981614c67565b8152602082013561567981614c67565b6020820152604082013561496b81615182565b5f5f5f5f5f5f5f8789036101a08112156156a4575f5ffd5b88356156af81614599565b975060208901356156bf81614599565b96506156ce8a60408b01614925565b955060607fffffffffffffffffffffffffffffffffffffffffffffffffffffffffffffff60820112156156ff575f5ffd5b50615708614898565b60a089013561571681614c67565b815260c089013561572681615182565b602082015260e089013561573981614b16565b6040820152935061574e896101008a01615644565b925061575d610160890161499d565b9150614c11610180890161499d565b8381526001600160a01b038316602082015260a081016132e46040830184615104565b5f6060828403121561579f575f5ffd5b61074b8383615190565b6fffffffffffffffffffffffffffffffff828116828216039081111561074e5761074e614f0d565b7f4e487b71000000000000000000000000000000000000000000000000000000005f52601260045260245ffd5b6001600160a01b038616815261ffff8516602082015260ff8416604082015260e08101615870606083018571ffffffffffffffffffffffffffffffffffff815116825271ffffffffffffffffffffffffffffffffffff6020820151166020830152604081015160070b60408301525050565b71ffffffffffffffffffffffffffffffffffff831660c08301529695505050505050565b5f5f5f60e084860312156158a6575f5ffd5b6158b08585615190565b92506158bf85606086016152e8565b60c0949094015192959394509192915050565b71ffffffffffffffffffffffffffffffffffff828116828216039081111561074e5761074e614f0d565b5f7fffffffffffffffffffffffffffffffffffffffffffffffffffffffffffffffff820361592c5761592c614f0d565b5060010190565b808202811582820484141761074e5761074e614f0d565b6001815b60018411156159855780850481111561596957615969614f0d565b600184161561597757908102905b60019390931c92800261594e565b935093915050565b5f8261599b5750600161074e565b816159a757505f61074e565b81600181146159bd57600281146159c7576159e3565b600191505061074e565b60ff8411156159d8576159d8614f0d565b50506001821b61074e565b5060208310610133831016604e8410600b8410161715615a06575081810a61074e565b615a317fffffffffffffffffffffffffffffffffffffffffffffffffffffffffffffffff848461594a565b807fffffffffffffffffffffffffffffffffffffffffffffffffffffffffffffffff04821115615a6357615a63614f0d565b029392505050565b5f61074b60ff84168361598d565b5f68ffffffffffffffffff831680615a9357615a936157d1565b8068ffffffffffffffffff84160491505092915050565b68ffffffffffffffffff818116838216019081111561074e5761074e614f0d565b5f82615ad957615ad96157d1565b500490565b5f6fffffffffffffffffffffffffffffffff831680615aff57615aff6157d1565b806fffffffffffffffffffffffffffffffff84160491505092915050565b5f71ffffffffffffffffffffffffffffffffffff821671ffffffffffffffffffffffffffffffffffff841671ffffffffffffffffffffffffffffffffffff8183021692508183048114821517615b7557615b75614f0d565b50509291505056fea264697066735822122009eb0d35b25008607c96c6fed221d525ccbc7365c427fd764f5ff2b13acfd74164736f6c634300081c0033","linkReferences":{"src/libraries/VaultExternal.sol":{"VaultExternal":[{"start":2951,"length":20},{"start":4572,"length":20},{"start":4787,"length":20},{"start":9623,"length":20},{"start":11268,"length":20}]}}},"methodIdentifiers":{"TIMESTAMP_ISSUANCE_START()":"410cd41a","balanceOf(address,uint256)":"00fdd58e","balanceOfBatch(address[],uint256[])":"4e1273f4","burn(bool,(address,address,int8),uint256)":"3fc62188","claimSIR(uint256,address)":"777b1d43","cumulativeSIRPerTEA(uint256)":"7a4996e8","getReserves((address,address,int8))":"fbd98edf","initialize((address,address,int8))":"3aa88670","isApprovedForAll(address,address)":"e985e9c5","mint(bool,(address,address,int8),uint256,uint144)":"cdf3a837","numberOfVaults()":"7a32af78","paramsById(uint48)":"d2f3fd09","safeBatchTransferFrom(address,address,uint256[],uint256[],bytes)":"2eb2c2d6","safeTransferFrom(address,address,uint256,uint256,bytes)":"f242432a","setApprovalForAll(address,bool)":"a22cb465","supportsInterface(bytes4)":"01ffc9a7","systemParams()":"458e8e6b","totalReserves(address)":"6d0800bc","totalSupply(uint256)":"bd85b039","unclaimedRewards(uint256,address)":"46f90748","uniswapV3SwapCallback(int256,int256,bytes)":"fa461e33","updateSystemState(uint16,uint16,bool)":"5ab2cef4","updateVaults(uint48[],uint48[],uint8[],uint16)":"bb147c54","uri(uint256)":"0e89341c","vaultStates((address,address,int8))":"2edf3104","vaultTax(uint48)":"6cfcac04","withdrawFees(address)":"164e68de","withdrawToSaveSystem(address[],address)":"c7c3d2dc"},"id":62}