{"abi":[{"type":"constructor","inputs":[{"name":"systemControl","type":"address","internalType":"address"},{"name":"sir","type":"address","internalType":"address"},{"name":"oracle","type":"address","internalType":"address"}],"stateMutability":"nonpayable"},{"type":"function","name":"TIMESTAMP_ISSUANCE_START","inputs":[],"outputs":[{"name":"","type":"uint40","internalType":"uint40"}],"stateMutability":"view"},{"type":"function","name":"balanceOf","inputs":[{"name":"account","type":"address","internalType":"address"},{"name":"vaultId","type":"uint256","internalType":"uint256"}],"outputs":[{"name":"","type":"uint256","internalType":"uint256"}],"stateMutability":"view"},{"type":"function","name":"balanceOfBatch","inputs":[{"name":"owners","type":"address[]","internalType":"address[]"},{"name":"vaultIds","type":"uint256[]","internalType":"uint256[]"}],"outputs":[{"name":"balances_","type":"uint256[]","internalType":"uint256[]"}],"stateMutability":"view"},{"type":"function","name":"burn","inputs":[{"name":"isAPE","type":"bool","internalType":"bool"},{"name":"vaultParams","type":"tuple","internalType":"struct SirStructs.VaultParameters","components":[{"name":"debtToken","type":"address","internalType":"address"},{"name":"collateralToken","type":"address","internalType":"address"},{"name":"leverageTier","type":"int8","internalType":"int8"}]},{"name":"amount","type":"uint256","internalType":"uint256"}],"outputs":[{"name":"","type":"uint144","internalType":"uint144"}],"stateMutability":"nonpayable"},{"type":"function","name":"claimSIR","inputs":[{"name":"vaultId","type":"uint256","internalType":"uint256"},{"name":"lper","type":"address","internalType":"address"}],"outputs":[{"name":"","type":"uint80","internalType":"uint80"}],"stateMutability":"nonpayable"},{"type":"function","name":"collateralStates","inputs":[{"name":"token","type":"address","internalType":"address"}],"outputs":[{"name":"","type":"tuple","internalType":"struct SirStructs.CollateralState","components":[{"name":"totalFeesToStakers","type":"uint112","internalType":"uint112"},{"name":"total","type":"uint144","internalType":"uint144"}]}],"stateMutability":"view"},{"type":"function","name":"cumulativeSIRPerTEA","inputs":[{"name":"vaultId","type":"uint256","internalType":"uint256"}],"outputs":[{"name":"cumulativeSIRPerTEAx96","type":"uint176","internalType":"uint176"}],"stateMutability":"view"},{"type":"function","name":"getReserves","inputs":[{"name":"vaultParams","type":"tuple","internalType":"struct SirStructs.VaultParameters","components":[{"name":"debtToken","type":"address","internalType":"address"},{"name":"collateralToken","type":"address","internalType":"address"},{"name":"leverageTier","type":"int8","internalType":"int8"}]}],"outputs":[{"name":"","type":"tuple","internalType":"struct SirStructs.Reserves","components":[{"name":"reserveApes","type":"uint144","internalType":"uint144"},{"name":"reserveLPers","type":"uint144","internalType":"uint144"},{"name":"tickPriceX42","type":"int64","internalType":"int64"}]}],"stateMutability":"view"},{"type":"function","name":"initialize","inputs":[{"name":"vaultParams","type":"tuple","internalType":"struct SirStructs.VaultParameters","components":[{"name":"debtToken","type":"address","internalType":"address"},{"name":"collateralToken","type":"address","internalType":"address"},{"name":"leverageTier","type":"int8","internalType":"int8"}]}],"outputs":[],"stateMutability":"nonpayable"},{"type":"function","name":"isApprovedForAll","inputs":[{"name":"","type":"address","internalType":"address"},{"name":"","type":"address","internalType":"address"}],"outputs":[{"name":"","type":"bool","internalType":"bool"}],"stateMutability":"view"},{"type":"function","name":"latestTokenParams","inputs":[],"outputs":[{"name":"","type":"tuple","internalType":"struct SirStructs.TokenParameters","components":[{"name":"name","type":"string","internalType":"string"},{"name":"symbol","type":"string","internalType":"string"},{"name":"decimals","type":"uint8","internalType":"uint8"}]},{"name":"","type":"tuple","internalType":"struct SirStructs.VaultParameters","components":[{"name":"debtToken","type":"address","internalType":"address"},{"name":"collateralToken","type":"address","internalType":"address"},{"name":"leverageTier","type":"int8","internalType":"int8"}]}],"stateMutability":"view"},{"type":"function","name":"mint","inputs":[{"name":"isAPE","type":"bool","internalType":"bool"},{"name":"vaultParams","type":"tuple","internalType":"struct SirStructs.VaultParameters","components":[{"name":"debtToken","type":"address","internalType":"address"},{"name":"collateralToken","type":"address","internalType":"address"},{"name":"leverageTier","type":"int8","internalType":"int8"}]}],"outputs":[{"name":"amount","type":"uint256","internalType":"uint256"}],"stateMutability":"nonpayable"},{"type":"function","name":"numberOfVaults","inputs":[],"outputs":[{"name":"","type":"uint48","internalType":"uint48"}],"stateMutability":"view"},{"type":"function","name":"onERC1155BatchReceived","inputs":[{"name":"","type":"address","internalType":"address"},{"name":"","type":"address","internalType":"address"},{"name":"","type":"uint256[]","internalType":"uint256[]"},{"name":"","type":"uint256[]","internalType":"uint256[]"},{"name":"","type":"bytes","internalType":"bytes"}],"outputs":[{"name":"","type":"bytes4","internalType":"bytes4"}],"stateMutability":"nonpayable"},{"type":"function","name":"onERC1155Received","inputs":[{"name":"","type":"address","internalType":"address"},{"name":"","type":"address","internalType":"address"},{"name":"","type":"uint256","internalType":"uint256"},{"name":"","type":"uint256","internalType":"uint256"},{"name":"","type":"bytes","internalType":"bytes"}],"outputs":[{"name":"","type":"bytes4","internalType":"bytes4"}],"stateMutability":"nonpayable"},{"type":"function","name":"paramsById","inputs":[{"name":"vaultId","type":"uint48","internalType":"uint48"}],"outputs":[{"name":"","type":"tuple","internalType":"struct SirStructs.VaultParameters","components":[{"name":"debtToken","type":"address","internalType":"address"},{"name":"collateralToken","type":"address","internalType":"address"},{"name":"leverageTier","type":"int8","internalType":"int8"}]}],"stateMutability":"view"},{"type":"function","name":"safeBatchTransferFrom","inputs":[{"name":"from","type":"address","internalType":"address"},{"name":"to","type":"address","internalType":"address"},{"name":"vaultIds","type":"uint256[]","internalType":"uint256[]"},{"name":"amounts","type":"uint256[]","internalType":"uint256[]"},{"name":"data","type":"bytes","internalType":"bytes"}],"outputs":[],"stateMutability":"nonpayable"},{"type":"function","name":"safeTransferFrom","inputs":[{"name":"from","type":"address","internalType":"address"},{"name":"to","type":"address","internalType":"address"},{"name":"vaultId","type":"uint256","internalType":"uint256"},{"name":"amount","type":"uint256","internalType":"uint256"},{"name":"data","type":"bytes","internalType":"bytes"}],"outputs":[],"stateMutability":"nonpayable"},{"type":"function","name":"setApprovalForAll","inputs":[{"name":"operator","type":"address","internalType":"address"},{"name":"approved","type":"bool","internalType":"bool"}],"outputs":[],"stateMutability":"nonpayable"},{"type":"function","name":"supportsInterface","inputs":[{"name":"interfaceId","type":"bytes4","internalType":"bytes4"}],"outputs":[{"name":"","type":"bool","internalType":"bool"}],"stateMutability":"pure"},{"type":"function","name":"systemParams","inputs":[],"outputs":[{"name":"","type":"tuple","internalType":"struct SirStructs.SystemParameters","components":[{"name":"baseFee","type":"uint16","internalType":"uint16"},{"name":"lpFee","type":"uint16","internalType":"uint16"},{"name":"mintingStopped","type":"bool","internalType":"bool"},{"name":"cumulativeTax","type":"uint16","internalType":"uint16"}]}],"stateMutability":"view"},{"type":"function","name":"totalSupply","inputs":[{"name":"vaultId","type":"uint256","internalType":"uint256"}],"outputs":[{"name":"","type":"uint256","internalType":"uint256"}],"stateMutability":"view"},{"type":"function","name":"unclaimedRewards","inputs":[{"name":"vaultId","type":"uint256","internalType":"uint256"},{"name":"lper","type":"address","internalType":"address"}],"outputs":[{"name":"","type":"uint80","internalType":"uint80"}],"stateMutability":"view"},{"type":"function","name":"updateSystemState","inputs":[{"name":"baseFee","type":"uint16","internalType":"uint16"},{"name":"lpFee","type":"uint16","internalType":"uint16"},{"name":"mintingStopped","type":"bool","internalType":"bool"}],"outputs":[],"stateMutability":"nonpayable"},{"type":"function","name":"updateVaults","inputs":[{"name":"oldVaults","type":"uint48[]","internalType":"uint48[]"},{"name":"newVaults","type":"uint48[]","internalType":"uint48[]"},{"name":"newTaxes","type":"uint8[]","internalType":"uint8[]"},{"name":"cumulativeTax","type":"uint16","internalType":"uint16"}],"outputs":[],"stateMutability":"nonpayable"},{"type":"function","name":"uri","inputs":[{"name":"vaultId","type":"uint256","internalType":"uint256"}],"outputs":[{"name":"","type":"string","internalType":"string"}],"stateMutability":"view"},{"type":"function","name":"vaultStates","inputs":[{"name":"vaultParams","type":"tuple","internalType":"struct SirStructs.VaultParameters","components":[{"name":"debtToken","type":"address","internalType":"address"},{"name":"collateralToken","type":"address","internalType":"address"},{"name":"leverageTier","type":"int8","internalType":"int8"}]}],"outputs":[{"name":"","type":"tuple","internalType":"struct SirStructs.VaultState","components":[{"name":"reserve","type":"uint144","internalType":"uint144"},{"name":"tickPriceSatX42","type":"int64","internalType":"int64"},{"name":"vaultId","type":"uint48","internalType":"uint48"}]}],"stateMutability":"view"},{"type":"function","name":"vaultTax","inputs":[{"name":"vaultId","type":"uint48","internalType":"uint48"}],"outputs":[{"name":"","type":"uint8","internalType":"uint8"}],"stateMutability":"view"},{"type":"function","name":"withdrawFees","inputs":[{"name":"token","type":"address","internalType":"address"}],"outputs":[{"name":"totalFeesToStakers","type":"uint112","internalType":"uint112"}],"stateMutability":"nonpayable"},{"type":"function","name":"withdrawToSaveSystem","inputs":[{"name":"tokens","type":"address[]","internalType":"address[]"},{"name":"to","type":"address","internalType":"address"}],"outputs":[{"name":"amounts","type":"uint256[]","internalType":"uint256[]"}],"stateMutability":"nonpayable"},{"type":"event","name":"ApprovalForAll","inputs":[{"name":"account","type":"address","indexed":true,"internalType":"address"},{"name":"operator","type":"address","indexed":true,"internalType":"address"},{"name":"approved","type":"bool","indexed":false,"internalType":"bool"}],"anonymous":false},{"type":"event","name":"Burn","inputs":[{"name":"vaultId","type":"uint48","indexed":true,"internalType":"uint48"},{"name":"isAPE","type":"bool","indexed":false,"internalType":"bool"},{"name":"collateralWithdrawn","type":"uint144","indexed":false,"internalType":"uint144"},{"name":"collateralFeeToStakers","type":"uint144","indexed":false,"internalType":"uint144"},{"name":"collateralFeeToLPers","type":"uint144","indexed":false,"internalType":"uint144"}],"anonymous":false},{"type":"event","name":"Mint","inputs":[{"name":"vaultId","type":"uint48","indexed":true,"internalType":"uint48"},{"name":"isAPE","type":"bool","indexed":false,"internalType":"bool"},{"name":"collateralIn","type":"uint144","indexed":false,"internalType":"uint144"},{"name":"collateralFeeToStakers","type":"uint144","indexed":false,"internalType":"uint144"},{"name":"collateralFeeToLPers","type":"uint144","indexed":false,"internalType":"uint144"}],"anonymous":false},{"type":"event","name":"TransferBatch","inputs":[{"name":"operator","type":"address","indexed":true,"internalType":"address"},{"name":"from","type":"address","indexed":true,"internalType":"address"},{"name":"to","type":"address","indexed":true,"internalType":"address"},{"name":"vaultIds","type":"uint256[]","indexed":false,"internalType":"uint256[]"},{"name":"amounts","type":"uint256[]","indexed":false,"internalType":"uint256[]"}],"anonymous":false},{"type":"event","name":"TransferSingle","inputs":[{"name":"operator","type":"address","indexed":true,"internalType":"address"},{"name":"from","type":"address","indexed":true,"internalType":"address"},{"name":"to","type":"address","indexed":true,"internalType":"address"},{"name":"id","type":"uint256","indexed":false,"internalType":"uint256"},{"name":"amount","type":"uint256","indexed":false,"internalType":"uint256"}],"anonymous":false},{"type":"event","name":"URI","inputs":[{"name":"value","type":"string","indexed":false,"internalType":"string"},{"name":"id","type":"uint256","indexed":true,"internalType":"uint256"}],"anonymous":false},{"type":"event","name":"VaultNewTax","inputs":[{"name":"vault","type":"uint48","indexed":true,"internalType":"uint48"},{"name":"tax","type":"uint8","indexed":false,"internalType":"uint8"},{"name":"cumulativeTax","type":"uint16","indexed":false,"internalType":"uint16"}],"anonymous":false},{"type":"error","name":"LengthMismatch","inputs":[]},{"type":"error","name":"NotAuthorized","inputs":[]},{"type":"error","name":"TEAMaxSupplyExceeded","inputs":[]},{"type":"error","name":"TF","inputs":[]},{"type":"error","name":"UnsafeRecipient","inputs":[]}],"bytecode":{"object":"0x61010060405234801561001157600080fd5b506040516161b43803806161b48339810160408190526100309161015f565b6001600160a01b03928316608090815264ffffffffff421660a05291831660c052604080519283018152610fa08352610929602080850191909152600084830181905260609485018190526002805466ffffffffffffff19166309290fa017815593861660e05282519485018352808552908401818152918401818152600580546001810182559252935192027f036b6384b5eca791c62761152d0c79bb0604c104a5fb6f4eb0703f3154bb3db0810180549386166001600160a01b031990941693909317909255517f036b6384b5eca791c62761152d0c79bb0604c104a5fb6f4eb0703f3154bb3db19091018054925160ff16600160a01b026001600160a81b031990931691909316171790556101a2565b80516001600160a01b038116811461015a57600080fd5b919050565b60008060006060848603121561017457600080fd5b61017d84610143565b925061018b60208501610143565b915061019960408501610143565b90509250925092565b60805160a05160c05160e051615fa161021360003960008181611288015281816113a101528181611db90152612f9d015260008181610a0f01528181610b700152611b3f0152600081816103300152613fc90152600081816117f60152818161228f01526126eb0152615fa16000f3fe608060405234801561001057600080fd5b50600436106101d95760003560e01c80636cfcac0411610104578063bc197c81116100a2578063e985e9c511610071578063e985e9c51461071d578063f23a6e611461074b578063f242432a1461075e578063fbd98edf1461077157600080fd5b8063bc197c811461064c578063bd85b039146106b8578063c7c3d2dc146106ea578063d2f3fd09146106fd57600080fd5b80637a4996e8116100de5780637a4996e8146105d957806394c050f814610613578063a22cb46514610626578063bb147c541461063957600080fd5b80636cfcac041461056a578063777b1d43146105a75780637a32af78146105ba57600080fd5b80633fc621881161017c5780634e1273f41161014b5780634e1273f41461044e5780635ab2cef41461046e57806360e0970a1461048157806361086e431461049757600080fd5b80633fc62188146102f5578063410cd41a1461032b578063458e8e6b1461036857806346f907481461042057600080fd5b8063164e68de116101b8578063164e68de146102475780632eb2c2d6146102795780632edf31041461028e5780633aa88670146102e257600080fd5b8062fdd58e146101de57806301ffc9a7146102045780630e89341c14610227575b600080fd5b6101f16101ec366004614a6b565b610791565b6040519081526020015b60405180910390f35b610217610212366004614ac5565b610825565b60405190151581526020016101fb565b61023a610235366004614ae2565b610906565b6040516101fb9190614b69565b61025a610255366004614b7c565b6109f5565b6040516dffffffffffffffffffffffffffff90911681526020016101fb565b61028c610287366004614c27565b610b9d565b005b6102a161029c366004614d04565b6110a5565b60408051825171ffffffffffffffffffffffffffffffffffff16815260208084015160070b908201529181015165ffffffffffff16908201526060016101fb565b61028c6102f0366004614e01565b6111fa565b610308610303366004614e63565b6112eb565b60405171ffffffffffffffffffffffffffffffffffff90911681526020016101fb565b6103527f000000000000000000000000000000000000000000000000000000000000000081565b60405164ffffffffff90911681526020016101fb565b6103da604080516080810182526000808252602082018190529181018290526060810191909152506040805160808101825260025461ffff80821683526201000082048116602084015260ff640100000000830416151593830193909352650100000000009004909116606082015290565b6040516101fb9190600060808201905061ffff835116825261ffff602084015116602083015260408301511515604083015261ffff606084015116606083015292915050565b61043361042e366004614ea3565b6116be565b60405169ffffffffffffffffffff90911681526020016101fb565b61046161045c366004614ed3565b6116dd565b6040516101fb9190614f44565b61028c61047c366004614f99565b6117de565b610489611919565b6040516101fb929190614fe0565b61052b6104a5366004614b7c565b60408051808201909152600080825260208201525073ffffffffffffffffffffffffffffffffffffffff166000908152600860209081526040918290208251808401909352546dffffffffffffffffffffffffffff811683526e010000000000000000000000000000900471ffffffffffffffffffffffffffffffffffff169082015290565b6040805182516dffffffffffffffffffffffffffff16815260209283015171ffffffffffffffffffffffffffffffffffff1692810192909252016101fb565b6105956105783660046150b0565b65ffffffffffff1660009081526020819052604090205460ff1690565b60405160ff90911681526020016101fb565b6104336105b5366004614ea3565b611b25565b6105c2611c6d565b60405165ffffffffffff90911681526020016101fb565b6105ec6105e7366004614ae2565b611c84565b60405175ffffffffffffffffffffffffffffffffffffffffffff90911681526020016101fb565b6101f16106213660046150cd565b611d3b565b61028c610634366004615103565b6121e0565b61028c610647366004615131565b612277565b61068761065a366004614c27565b7fbc197c810000000000000000000000000000000000000000000000000000000098975050505050505050565b6040517fffffffff0000000000000000000000000000000000000000000000000000000090911681526020016101fb565b6101f16106c6366004614ae2565b6000908152600460205260409020546fffffffffffffffffffffffffffffffff1690565b6104616106f83660046151e8565b6126d1565b61071061070b3660046150b0565b612a87565b6040516101fb9190615234565b61021761072b366004615288565b600660209081526000928352604080842090915290825290205460ff1681565b6106876107593660046152b6565b612b30565b61028c61076c3660046152b6565b612b5c565b61078461077f366004614d04565b612f39565b6040516101fb9190615332565b600073ffffffffffffffffffffffffffffffffffffffff831630146107e65773ffffffffffffffffffffffffffffffffffffffff8316600090815260036020908152604080832085845290915290205461081c565b60008281526004602052604090205470010000000000000000000000000000000090046fffffffffffffffffffffffffffffffff165b90505b92915050565b60007f01ffc9a7000000000000000000000000000000000000000000000000000000007fffffffff00000000000000000000000000000000000000000000000000000000831614806108b857507fd9b67a26000000000000000000000000000000000000000000000000000000007fffffffff000000000000000000000000000000000000000000000000000000008316145b8061081f5750507fffffffff00000000000000000000000000000000000000000000000000000000167f0e89341c000000000000000000000000000000000000000000000000000000001490565b6000818152600460208190526040918290205491517f3ef6287c000000000000000000000000000000000000000000000000000000008152600591810191909152602481018390526fffffffffffffffffffffffffffffffff9091166044820181905260609173__$0d913f5ea2cc8398585c34a0416dbc1ef1$__90633ef6287c90606401600060405180830381865af41580156109a8573d6000803e3d6000fd5b505050506040513d6000823e601f3d9081017fffffffffffffffffffffffffffffffffffffffffffffffffffffffffffffffe01682016040526109ee9190810190615382565b9392505050565b60003373ffffffffffffffffffffffffffffffffffffffff7f00000000000000000000000000000000000000000000000000000000000000001614610a3957600080fd5b5073ffffffffffffffffffffffffffffffffffffffff81166000908152600860209081526040918290208251808401909352546dffffffffffffffffffffffffffff81168084526e01000000000000000000000000000090910471ffffffffffffffffffffffffffffffffffff1691830191909152908115610b9757604051806040016040528060006dffffffffffffffffffffffffffff168152602001836dffffffffffffffffffffffffffff168360200151610af79190615465565b71ffffffffffffffffffffffffffffffffffff90811690915273ffffffffffffffffffffffffffffffffffffffff85166000908152600860209081526040909120835193909101519091166e010000000000000000000000000000026dffffffffffffffffffffffffffff928316179055610b979084907f0000000000000000000000000000000000000000000000000000000000000000908516613008565b50919050565b3073ffffffffffffffffffffffffffffffffffffffff891603610bc257610bc261548f565b848314610bfb576040517fff633a3800000000000000000000000000000000000000000000000000000000815260040160405180910390fd5b3373ffffffffffffffffffffffffffffffffffffffff891614801590610c52575073ffffffffffffffffffffffffffffffffffffffff8816600090815260066020908152604080832033845290915290205460ff16155b15610c89576040517fea8e4eb500000000000000000000000000000000000000000000000000000000815260040160405180910390fd5b6040805160808101825260008082526020820181905291810182905260608101829052905b86811015610edc576000888883818110610cca57610cca6154be565b9050602002013590506000878784818110610ce757610ce76154be565b90506020020135905060405180608001604052808d73ffffffffffffffffffffffffffffffffffffffff168152602001600360008f73ffffffffffffffffffffffffffffffffffffffff1673ffffffffffffffffffffffffffffffffffffffff16815260200190815260200160002060008581526020019081526020016000205481526020018c73ffffffffffffffffffffffffffffffffffffffff168152602001610d938d85610791565b90526040805160808101825260025461ffff80821683526201000082048116602080850191909152640100000000830460ff90811615158587015265010000000000909304909116606080850191909152600088815280835285812086519283018752549384168252610100840464ffffffffff1692820192909252660100000000000090920475ffffffffffffffffffffffffffffffffffffffffffff1693820193909352929650610e5292859190610e4c83613141565b896131b2565b508084602001818151610e6591906154ed565b90525073ffffffffffffffffffffffffffffffffffffffff8c8116908c1614610ed25760208085015173ffffffffffffffffffffffffffffffffffffffff8e16600090815260038352604080822086835290935291909120556060840151610ed2908c90849084016133ff565b5050600101610cae565b508773ffffffffffffffffffffffffffffffffffffffff168973ffffffffffffffffffffffffffffffffffffffff163373ffffffffffffffffffffffffffffffffffffffff167f4a39dc06d4c0dbc64b70af90fd698a233a518aa5d07e595d983b8c0526c8f7fb8a8a8a8a604051610f57949392919061554b565b60405180910390a473ffffffffffffffffffffffffffffffffffffffff88163b1561104a576040517fbc197c81000000000000000000000000000000000000000000000000000000008082529073ffffffffffffffffffffffffffffffffffffffff8a169063bc197c8190610fde9033908e908d908d908d908d908d908d906004016155c6565b6020604051808303816000875af1158015610ffd573d6000803e3d6000fd5b505050506040513d601f19601f820116820180604052508101906110219190615649565b7fffffffff00000000000000000000000000000000000000000000000000000000161415611063565b73ffffffffffffffffffffffffffffffffffffffff8816155b1561109a576040517f3da6393100000000000000000000000000000000000000000000000000000000815260040160405180910390fd5b505050505050505050565b6040805160608101825260008082526020820181905291810191909152600760006110d36020850185614b7c565b73ffffffffffffffffffffffffffffffffffffffff1673ffffffffffffffffffffffffffffffffffffffff16815260200190815260200160002060008360200160208101906111229190614b7c565b73ffffffffffffffffffffffffffffffffffffffff1673ffffffffffffffffffffffffffffffffffffffff16815260200190815260200160002060008360400160208101906111719190615666565b600090810b8252602080830193909352604091820190208151606081018352905471ffffffffffffffffffffffffffffffffffff811682527201000000000000000000000000000000000000810460070b938201939093527a01000000000000000000000000000000000000000000000000000090920465ffffffffffff169082015292915050565b805173ffffffffffffffffffffffffffffffffffffffff908116600090815260076020908152604080832082860151909416835292815282822083850151830b8352905281902090517fce3978b600000000000000000000000000000000000000000000000000000000815273__$0d913f5ea2cc8398585c34a0416dbc1ef1$__9163ce3978b6916112b8917f0000000000000000000000000000000000000000000000000000000000000000916005906009908890600401615681565b60006040518083038186803b1580156112d057600080fd5b505af41580156112e4573d6000803e3d6000fd5b5050505050565b60008060026040518060800160405290816000820160009054906101000a900461ffff1661ffff1661ffff1681526020016000820160029054906101000a900461ffff1661ffff1661ffff1681526020016000820160049054906101000a900460ff161515151581526020016000820160059054906101000a900461ffff1661ffff1661ffff1681525050905060008060008073__$0d913f5ea2cc8398585c34a0416dbc1ef1$__63a80cf3ce60008b600860077f00000000000000000000000000000000000000000000000000000000000000008e6040518763ffffffff1660e01b81526004016113e29695949392919061573f565b61014060405180830381865af4158015611400573d6000803e3d6000fd5b505050506040513d601f19601f820116820180604052508101906114249190615816565b5060408381015165ffffffffffff1660009081526020818152828220835160608082018652915460ff81168252610100810464ffffffffff16828501526601000000000000900475ffffffffffffffffffffffffffffffffffffffffffff168186015284516080810186528481529283018490529382018390528101919091529498509296509094509250908a1561158d578273ffffffffffffffffffffffffffffffffffffffff16638c2684273389600001518560000151888e6040518663ffffffff1660e01b81526004016114ff95949392919061591d565b60e0604051808303816000875af115801561151e573d6000803e3d6000fd5b505050506040513d601f19601f820116820180604052508101906115429190615a2c565b6060810151919550915071ffffffffffffffffffffffffffffffffffff16156115885761158861157860408c0160208d01614b7c565b8660400151868460600151613491565b6115b1565b6115ae6115a060408c0160208d01614b7c565b86604001518985888e61367b565b90505b6115bc85858c613895565b6115f5600087836020015171ffffffffffffffffffffffffffffffffffff168d60200160208101906115ee9190614b7c565b8551613d79565b846040015165ffffffffffff167f7c6da711ffa6af277b820416f2daab1018c73a4fb0c4a49a38c5fb292b6c0e8b8c83600001518460200151856060015186604001516116429190615a58565b60408051941515855271ffffffffffffffffffffffffffffffffffff9384166020860152918316848301529091166060830152519081900360800190a26116af61169260408c0160208d01614b7c565b8251339071ffffffffffffffffffffffffffffffffffff16613008565b519a9950505050505050505050565b600061081c83836116cf8587610791565b6116d887611c84565b613e7e565b6060838214611718576040517fff633a3800000000000000000000000000000000000000000000000000000000815260040160405180910390fd5b8367ffffffffffffffff81111561173157611731614d20565b60405190808252806020026020018201604052801561175a578160200160208202803683370190505b50905060005b848110156117d5576117b086868381811061177d5761177d6154be565b90506020020160208101906117929190614b7c565b8585848181106117a4576117a46154be565b90506020020135610791565b8282815181106117c2576117c26154be565b6020908102919091010152600101611760565b50949350505050565b3373ffffffffffffffffffffffffffffffffffffffff7f0000000000000000000000000000000000000000000000000000000000000000161461182057600080fd5b60408051608080820183526002805461ffff808216855262010000808304821660208088019190915264010000000080850460ff161515888a01526501000000000080860485166060998a019081528a519889018b529c85168089529b85169288018390529915159887018990529a51909216949095018490527fffffffffffffffffffffffffffffffffffffffffffffffffffffffff0000000090911690961795909202949094177fffffffffffffffffffffffffffffffffffffffffffffffffff000000ffffffff16919094027fffffffffffffffffffffffffffffffffffffffffffffffffff0000ffffffffff16179102179055565b6040805160608082018352808252602082015260009181019190915260408051606081018252600080825260208201819052918101919091526005805460099190611966906001906154ed565b81548110611976576119766154be565b9060005260206000209060020201816040518060600160405290816000820180546119a090615a82565b80601f01602080910402602001604051908101604052809291908181526020018280546119cc90615a82565b8015611a195780601f106119ee57610100808354040283529160200191611a19565b820191906000526020600020905b8154815290600101906020018083116119fc57829003601f168201915b50505050508152602001600182018054611a3290615a82565b80601f0160208091040260200160405190810160405280929190818152602001828054611a5e90615a82565b8015611aab5780601f10611a8057610100808354040283529160200191611aab565b820191906000526020600020905b815481529060010190602001808311611a8e57829003601f168201915b50505091835250506002919091015460ff1660209182015260408051606081018252845473ffffffffffffffffffffffffffffffffffffffff9081168252600190950154948516928101929092527401000000000000000000000000000000000000000090930460000b9281019290925294909350915050565b60003373ffffffffffffffffffffffffffffffffffffffff7f00000000000000000000000000000000000000000000000000000000000000001614611b6957600080fd5b600060405180608001604052808473ffffffffffffffffffffffffffffffffffffffff168152602001611b9c8587610791565b8152600060208083018290526040928301829052825160808101845260025461ffff8082168352620100008204811683850152640100000000820460ff90811615158488015265010000000000909204166060808401919091528a85528484529385902085519485018652549081168452610100810464ffffffffff1692840192909252660100000000000090910475ffffffffffffffffffffffffffffffffffffffffffff1692820192909252919250611c65916001918791611c5f83613141565b866131b2565b949350505050565b600554600090611c7f906001906154ed565b905090565b6040805160808101825260025461ffff80821683526201000082048116602080850191909152640100000000830460ff90811615158587015265010000000000909304909116606080850191909152600086815280835285812086519283018752549384168252610100840464ffffffffff1692820192909252660100000000000090920475ffffffffffffffffffffffffffffffffffffffffffff169382019390935261081f9190611d3685613141565b613f69565b6040805160808101825260025461ffff80821683526201000082048116602084015260ff6401000000008304161580159484019490945265010000000000909104166060820152600091611d8e57600080fd5b600080600080600073__$0d913f5ea2cc8398585c34a0416dbc1ef1$__63a80cf3ce60018b600860077f00000000000000000000000000000000000000000000000000000000000000008e6040518763ffffffff1660e01b8152600401611dfa9695949392919061573f565b61014060405180830381865af4158015611e18573d6000803e3d6000fd5b505050506040513d601f19601f82011682018060405250810190611e3c9190615816565b60408481015165ffffffffffff1660009081526020818152828220835160608082018652915460ff81168252610100810464ffffffffff16828501526601000000000000900475ffffffffffffffffffffffffffffffffffffffffffff16818601528451608081018652848152928301849052938201839052810191909152959a5093985091965094509250908a15611fbd57875182516040517f6bc601d700000000000000000000000000000000000000000000000000000000815273ffffffffffffffffffffffffffffffffffffffff871692636bc601d792611f2b92339291908b908a90600401615acf565b610100604051808303816000875af1158015611f4b573d6000803e3d6000fd5b505050506040513d601f19601f82011682018060405250810190611f6f9190615b72565b6060820151909b50919650915071ffffffffffffffffffffffffffffffffffff1615611fb857611fb8611fa860408c0160208d01614b7c565b8760400151878460600151613491565b611fe3565b611fde611fd060408c0160208d01614b7c565b87604001518a8589886140f5565b995090505b611fee86868c613895565b612026600188836020015171ffffffffffffffffffffffffffffffffffff168d60200160208101906120209190614b7c565b87613d79565b856040015165ffffffffffff167f2ea082b0ce379480d9dfb0d7ab365e33def58ee2bee64887c13e531723b5c8818c8360000151846020015185606001518660400151016040516120a99493929190931515845271ffffffffffffffffffffffffffffffffffff9283166020850152908216604084015216606082015260800190565b60405180910390a28a1580156120bf5750333b15155b801561219b575060408087015190517ff23a6e6100000000000000000000000000000000000000000000000000000000808252336004830181905260006024840181905265ffffffffffff9094166044840152606483018d905260a0608484015260a4830193909352919063f23a6e619060c4016020604051808303816000875af1158015612152573d6000803e3d6000fd5b505050506040513d601f19601f820116820180604052508101906121769190615649565b7fffffffff000000000000000000000000000000000000000000000000000000001614155b156121d2576040517f3da6393100000000000000000000000000000000000000000000000000000000815260040160405180910390fd5b505050505050505092915050565b33600081815260066020908152604080832073ffffffffffffffffffffffffffffffffffffffff87168085529083529281902080547fffffffffffffffffffffffffffffffffffffffffffffffffffffffffffffff001686151590811790915590519081529192917f17307eab39ab6107e8899845ad3d59bd9653f200f220920489ca2b5937696c31910160405180910390a35050565b3373ffffffffffffffffffffffffffffffffffffffff7f000000000000000000000000000000000000000000000000000000000000000016146122b957600080fd5b6000805b8781101561248c576122fc8989838181106122da576122da6154be565b90506020020160208101906122ef91906150b0565b65ffffffffffff16611c84565b91506040518060600160405280600060ff1681526020014264ffffffffff1681526020018375ffffffffffffffffffffffffffffffffffffffffffff168152506000808b8b85818110612351576123516154be565b905060200201602081019061236691906150b0565b65ffffffffffff16815260208082019290925260409081016000208351815493850151949092015175ffffffffffffffffffffffffffffffffffffffffffff166601000000000000027fffffffff00000000000000000000000000000000000000000000ffffffffffff64ffffffffff909516610100027fffffffffffffffffffffffffffffffffffffffffffffffffffff00000000000090941660ff90931692909217929092179290921691909117905588888281811061242a5761242a6154be565b905060200201602081019061243f91906150b0565b604080516000808252602082015265ffffffffffff92909216917fc05b4c85e1a9e164c2764407bce9e5955a2e6435dea37ef8c4e62ec458ebf21a910160405180910390a26001016122bd565b5060005b8581101561268b576124ad8787838181106122da576122da6154be565b915060405180606001604052808686848181106124cc576124cc6154be565b90506020020160208101906124e19190615bb4565b60ff1681526020014264ffffffffff1681526020018375ffffffffffffffffffffffffffffffffffffffffffff16815250600080898985818110612527576125276154be565b905060200201602081019061253c91906150b0565b65ffffffffffff16815260208082019290925260409081016000208351815493850151949092015175ffffffffffffffffffffffffffffffffffffffffffff166601000000000000027fffffffff00000000000000000000000000000000000000000000ffffffffffff64ffffffffff909516610100027fffffffffffffffffffffffffffffffffffffffffffffffffffff00000000000090941660ff909316929092179290921792909216919091179055868682818110612600576126006154be565b905060200201602081019061261591906150b0565b65ffffffffffff167fc05b4c85e1a9e164c2764407bce9e5955a2e6435dea37ef8c4e62ec458ebf21a868684818110612650576126506154be565b90506020020160208101906126659190615bb4565b6040805160ff909216825261ffff871660208301520160405180910390a2600101612490565b50506002805461ffff90921665010000000000027fffffffffffffffffffffffffffffffffffffffffffffffffff0000ffffffffff909216919091179055505050505050565b60603373ffffffffffffffffffffffffffffffffffffffff7f0000000000000000000000000000000000000000000000000000000000000000161461271557600080fd5b8267ffffffffffffffff81111561272e5761272e614d20565b604051908082528060200260200182016040528015612757578160200160208202803683370190505b5090506000606060005b85811015612a7d5786868281811061277b5761277b6154be565b90506020020160208101906127909190614b7c565b604080513060248083019190915282518083039091018152604490910182526020810180517bffffffffffffffffffffffffffffffffffffffffffffffffffffffff167f70a0823100000000000000000000000000000000000000000000000000000000179052905173ffffffffffffffffffffffffffffffffffffffff929092169161281d9190615bd7565b6000604051808303816000865af19150503d806000811461285a576040519150601f19603f3d011682016040523d82523d6000602084013e61285f565b606091505b509093509150828015612873575081516020145b15612a75578180602001905181019061288c9190615bf3565b84828151811061289e5761289e6154be565b60200260200101818152505060008482815181106128be576128be6154be565b60200260200101511115612a75578686828181106128de576128de6154be565b90506020020160208101906128f39190614b7c565b73ffffffffffffffffffffffffffffffffffffffff1663a9059cbb60e01b86868481518110612924576129246154be565b602090810291909101015160405173ffffffffffffffffffffffffffffffffffffffff90921660248301526044820152606401604080517fffffffffffffffffffffffffffffffffffffffffffffffffffffffffffffffe08184030181529181526020820180517bffffffffffffffffffffffffffffffffffffffffffffffffffffffff167fffffffff000000000000000000000000000000000000000000000000000000009094169390931790925290516129e09190615bd7565b6000604051808303816000865af19150503d8060008114612a1d576040519150601f19603f3d011682016040523d82523d6000602084013e612a22565b606091505b509093509150828015612a4d575081511580612a4d575081806020019051810190612a4d9190615c0c565b925082612a75576000848281518110612a6857612a686154be565b6020026020010181815250505b600101612761565b5050509392505050565b604080516060810182526000808252602082018190529181019190915260058265ffffffffffff1681548110612abf57612abf6154be565b60009182526020808320604080516060810182526002909402909101805473ffffffffffffffffffffffffffffffffffffffff9081168552600190910154908116928401929092527401000000000000000000000000000000000000000090910490920b9181019190915292915050565b7ff23a6e61000000000000000000000000000000000000000000000000000000005b9695505050505050565b3073ffffffffffffffffffffffffffffffffffffffff871603612b8157612b8161548f565b3373ffffffffffffffffffffffffffffffffffffffff871614801590612bd8575073ffffffffffffffffffffffffffffffffffffffff8616600090815260066020908152604080832033845290915290205460ff16155b15612c0f576040517fea8e4eb500000000000000000000000000000000000000000000000000000000815260040160405180910390fd5b6040805160808101825273ffffffffffffffffffffffffffffffffffffffff808916808352600090815260036020908152848220898352815284822054908401529088169282019290925260608101612c688888610791565b90526040805160808101825260025461ffff80821683526201000082048116602080850191909152640100000000830460ff9081161515858701526501000000000090930490911660608085019190915260008b815280835285812086519283018752549384168252610100840464ffffffffff1692820192909252660100000000000090920475ffffffffffffffffffffffffffffffffffffffffffff1693820193909352929350612d2192889190611c5f83613141565b508381602001818151612d3491906154ed565b90525073ffffffffffffffffffffffffffffffffffffffff87811690871614612da15760208082015173ffffffffffffffffffffffffffffffffffffffff8916600090815260038352604080822089835290935291909120556060810151612da1908790879087016133ff565b604080518681526020810186905273ffffffffffffffffffffffffffffffffffffffff80891692908a169133917fc3d58168c5ae7397731d063d5bbf3d657854427343f4c083240f7aacaa2d0f62910160405180910390a473ffffffffffffffffffffffffffffffffffffffff86163b15612ee0576040517ff23a6e61000000000000000000000000000000000000000000000000000000008082529073ffffffffffffffffffffffffffffffffffffffff88169063f23a6e6190612e749033908c908b908b908b908b90600401615c29565b6020604051808303816000875af1158015612e93573d6000803e3d6000fd5b505050506040513d601f19601f82011682018060405250810190612eb79190615649565b7fffffffff00000000000000000000000000000000000000000000000000000000161415612ef9565b73ffffffffffffffffffffffffffffffffffffffff8616155b15612f30576040517f3da6393100000000000000000000000000000000000000000000000000000000815260040160405180910390fd5b50505050505050565b604080516060810182526000808252602082018190528183015290517f94215a4c00000000000000000000000000000000000000000000000000000000815273__$0d913f5ea2cc8398585c34a0416dbc1ef1$__906394215a4c90612fc7906007907f0000000000000000000000000000000000000000000000000000000000000000908790600401615c8d565b606060405180830381865af4158015612fe4573d6000803e3d6000fd5b505050506040513d601f19601f8201168201806040525081019061081f9190615cbd565b6040805173ffffffffffffffffffffffffffffffffffffffff8481166024830152604480830185905283518084039091018152606490920183526020820180517bffffffffffffffffffffffffffffffffffffffffffffffffffffffff167fa9059cbb00000000000000000000000000000000000000000000000000000000179052915160009283929087169161309f9190615bd7565b6000604051808303816000865af19150503d80600081146130dc576040519150601f19603f3d011682016040523d82523d6000602084013e6130e1565b606091505b509150915081801561310b57508051158061310b57508080602001905181019061310b9190615c0c565b6112e4576040517f8b98626500000000000000000000000000000000000000000000000000000000815260040160405180910390fd5b60008181526004602090815260408083208151808301909252546fffffffffffffffffffffffffffffffff80821680845270010000000000000000000000000000000090920416928201839052909161319991615cd9565b6fffffffffffffffffffffffffffffffff169392505050565b6000806131c0868686613f69565b90506131d6878460000151856020015184613e7e565b915060405180604001604052808275ffffffffffffffffffffffffffffffffffffffffffff1681526020018961320c578361320f565b60005b69ffffffffffffffffffff9081169091526000898152600160209081526040808320885173ffffffffffffffffffffffffffffffffffffffff908116855290835292819020855195909201519093167601000000000000000000000000000000000000000000000275ffffffffffffffffffffffffffffffffffffffffffff909416939093179092558401511630146133665760405180604001604052808275ffffffffffffffffffffffffffffffffffffffffffff1681526020016132df898660400151876060015186613e7e565b69ffffffffffffffffffff90811690915260008981526001602090815260408083208882015173ffffffffffffffffffffffffffffffffffffffff1684528252909120835193909101519091167601000000000000000000000000000000000000000000000275ffffffffffffffffffffffffffffffffffffffffffff9092169190911790555b60009687526020879052604090962080547fffffffff000000000000000000000000000000000000000000000000000000ff16660100000000000075ffffffffffffffffffffffffffffffffffffffffffff909816979097027fffffffffffffffffffffffffffffffffffffffffffffffffffff0000000000ff16969096176101004264ffffffffff1602179095555092949350505050565b3073ffffffffffffffffffffffffffffffffffffffff84160361345d57600082815260046020526040902080546fffffffffffffffffffffffffffffffff808416700100000000000000000000000000000000029116179055505050565b73ffffffffffffffffffffffffffffffffffffffff9290921660009081526003602090815260408083209383529290522055565b65ffffffffffff831660009081526004602090815260408083208151808301909252546fffffffffffffffffffffffffffffffff80821680845270010000000000000000000000000000000090920416928201929092529190156135415761353c82600001516fffffffffffffffffffffffffffffffff168471ffffffffffffffffffffffffffffffffffff16866020015171ffffffffffffffffffffffffffffffffffff1661439c565b613551565b6135518685602001518501614468565b825190915061ffff6f140eb6ae00000000000000000000000004036fffffffffffffffffffffffffffffffff168111156135b7576040517f6deac20700000000000000000000000000000000000000000000000000000000815260040160405180910390fd5b602082810180516fffffffffffffffffffffffffffffffff908401811682528451840181168552868301805171ffffffffffffffffffffffffffffffffffff90880116905265ffffffffffff8816600081815260048552604080822088519551851670010000000000000000000000000000000002959094169490941790925582519081529283018490523092909133917fc3d58168c5ae7397731d063d5bbf3d657854427343f4c083240f7aacaa2d0f62910160405180910390a4505050505050565b604080516080808201835260008083526020808401829052838501829052606080850183905265ffffffffffff8b16808452600483528684208751808901895290546fffffffffffffffffffffffffffffffff8082168352700100000000000000000000000000000000909104811682860190815233808852600387528a882085895287528a8820548b51998a018c5290895295880186905230998801999099529286018590529651875196979693959461373e9490938d928d920316866131b2565b50600061377a876020015171ffffffffffffffffffffffffffffffffffff168786600001516fffffffffffffffffffffffffffffffff1661439c565b90508286111561378957600080fd5b33600090815260036020908152604080832065ffffffffffff8e1684528252909120878503905584518790036fffffffffffffffffffffffffffffffff168552878101805183900371ffffffffffffffffffffffffffffffffffff16905289015188516137fd918d918d9188918c87614678565b65ffffffffffff8b16600081815260046020908152604080832089518a8401516fffffffffffffffffffffffffffffffff90811670010000000000000000000000000000000002911617905580519384529083018a905292975091339182917fc3d58168c5ae7397731d063d5bbf3d657854427343f4c083240f7aacaa2d0f62910160405180910390a4505050509695505050505050565b602082015182510171ffffffffffffffffffffffffffffffffffff16808452600211156138c157600080fd5b815171ffffffffffffffffffffffffffffffffffff166000036138f157677fffffffffffffff6020840152613bf3565b816020015171ffffffffffffffffffffffffffffffffffff1660000361393c577fffffffffffffffffffffffffffffffffffffffffffffffff80000000000000006020840152613bf3565b60008061394f6060840160408501615666565b60000b1215613970576139686060830160408401615666565b600003613980565b6139806060830160408401615666565b90506000806139956060850160408601615666565b60000b13156139d8576020840151845171ffffffffffffffffffffffffffffffffffff918216911660ff84161b10156139d057506001613a0e565b506000613a0e565b6020840151845171ffffffffffffffffffffffffffffffffffff91821660ff85161b91161015613a0a57506001613a0e565b5060005b8015613b02576000613a8d81613a2a6060870160408801615666565b60000b1215613a5357865171ffffffffffffffffffffffffffffffffffff1660ff85161b613a6a565b865171ffffffffffffffffffffffffffffffffffff165b865171ffffffffffffffffffffffffffffffffffff1660ff861681901b01614857565b60070b9050600080613aa56060870160408801615666565b60000b1215613aba578360ff1682901b613ac2565b8360ff1682901d5b604087015160070b019050677fffffffffffffff811315613af057677fffffffffffffff6020880152613afb565b600781900b60208801525b5050613bf0565b6000613b7e81613b186060870160408801615666565b60000b1215613b3c57865171ffffffffffffffffffffffffffffffffffff16613b58565b865171ffffffffffffffffffffffffffffffffffff1660ff85161b5b602087015171ffffffffffffffffffffffffffffffffffff1660ff861681901b01614857565b6040860151600791820b9250900b8190037fffffffffffffffffffffffffffffffffffffffffffffffff8000000000000000811215613be2577fffffffffffffffffffffffffffffffffffffffffffffffff80000000000000006020880152613bed565b600781900b60208801525b50505b50505b8260076000613c056020850185614b7c565b73ffffffffffffffffffffffffffffffffffffffff1673ffffffffffffffffffffffffffffffffffffffff1681526020019081526020016000206000836020016020810190613c549190614b7c565b73ffffffffffffffffffffffffffffffffffffffff1673ffffffffffffffffffffffffffffffffffffffff1681526020019081526020016000206000836040016020810190613ca39190615666565b600090810b8252602080830193909352604091820190208351815493850151949092015165ffffffffffff167a0100000000000000000000000000000000000000000000000000000279ffffffffffffffffffffffffffffffffffffffffffffffffffff67ffffffffffffffff9095167201000000000000000000000000000000000000027fffffffffffff000000000000000000000000000000000000000000000000000090941671ffffffffffffffffffffffffffffffffffff909316929092179290921792909216919091179055505050565b8351600090613d999085906dffffffffffffffffffffffffffff16615d30565b90506dffffffffffffffffffffffffffff811115613db657600080fd5b6040518060400160405280826dffffffffffffffffffffffffffff16815260200187613df157838760200151613dec9190615465565b613e01565b838760200151613e019190615a58565b71ffffffffffffffffffffffffffffffffffff90811690915273ffffffffffffffffffffffffffffffffffffffff9094166000908152600860209081526040909120825191909201519094166e010000000000000000000000000000026dffffffffffffffffffffffffffff909416939093179092555050505050565b60003073ffffffffffffffffffffffffffffffffffffffff851603613ea557506000611c65565b600085815260016020908152604080832073ffffffffffffffffffffffffffffffffffffffff88168452825280832081518083019092525475ffffffffffffffffffffffffffffffffffffffffffff81168252760100000000000000000000000000000000000000000000900469ffffffffffffffffffff169181019190915290849003613f3857602001519050611c65565b8051602090910151920375ffffffffffffffffffffffffffffffffffffffffffff169290920260601c019392505050565b6040820151825160ff1615801590613f9357504264ffffffffff16836020015164ffffffffff1614155b8015613f9e57508115155b156109ee57836060015161ffff16836000015160ff161115613fc257613fc261548f565b60208301517f00000000000000000000000000000000000000000000000000000000000000006305a39a800164ffffffffff808216908316101561406b576060860151855160009161ffff169060ff166527d6140eb6ae028161402757614027615d01565b0490508460608464ffffffffff168464ffffffffff1642116140495742614052565b8464ffffffffff165b038302901b8161406457614064615d01565b0484019350505b8064ffffffffff164264ffffffffff1611156140ec576060860151855160009161ffff169060ff16653a1cc489993602816140a8576140a8615d01565b0490508460608364ffffffffff168564ffffffffff16116140c957836140cb565b845b64ffffffffff1642038302901b816140e5576140e5615d01565b0484019350505b50509392505050565b60408051608081018252600080825260208201819052918101829052606081019190915265ffffffffffff861660008181526004602090815260408083208151808301835290546fffffffffffffffffffffffffffffffff8082168352700100000000000000000000000000000000909104811682850190815233808752600386528487208888528652848720548551608081018752918252958101869052309481019490945260608401869052518251959692956141c093889390928e928e9291900316866131b2565b506141d88b8b858c602001518c600001518c8c614678565b83519095506fffffffffffffffffffffffffffffffff161561424a5761424583600001516fffffffffffffffffffffffffffffffff16866000015171ffffffffffffffffffffffffffffffffffff16896020015171ffffffffffffffffffffffffffffffffffff1661439c565b61425e565b61425e8b8860200151876000015101614468565b835190945061ffff6f140eb6ae00000000000000000000000004036fffffffffffffffffffffffffffffffff168411156142c4576040517f6deac20700000000000000000000000000000000000000000000000000000000815260040160405180910390fd5b33600081815260036020908152604080832065ffffffffffff8f16808552908352818420878a01905587516fffffffffffffffffffffffffffffffff908a01811689528a518d8501805171ffffffffffffffffffffffffffffffffffff92019190911690528185526004845282852089518a8601518316700100000000000000000000000000000000029216919091179055815190815291820188905283917fc3d58168c5ae7397731d063d5bbf3d657854427343f4c083240f7aacaa2d0f62910160405180910390a4505050965096945050505050565b600080807fffffffffffffffffffffffffffffffffffffffffffffffffffffffffffffffff858709858702925082811083820303915050806000036143f357600084116143e857600080fd5b5082900490506109ee565b8084116143ff57600080fd5b60008486880960026001871981018816978890046003810283188082028403028082028403028082028403028082028403028082028403029081029092039091026000889003889004909101858311909403939093029303949094049190911702949350505050565b6000808373ffffffffffffffffffffffffffffffffffffffff166318160ddd6040518163ffffffff1660e01b8152600401602060405180830381865afa1580156144b6573d6000803e3d6000fd5b505050506040513d601f19601f820116820180604052508101906144da9190615bf3565b905061ffff606067016345785d8a00006301e1338060016144fd600c600a615e66565b61450b9063781a75c0615e75565b61451591906154ed565b61451f9190615e8c565b61452a906001615ebe565b6145469068ffffffffffffffffff1666f38a31408ae338615e75565b6145509190615edf565b68ffffffffffffffffff166fffffffffffffffffffffffffffffffff16901b6145799190615ef3565b6fffffffffffffffffffffffffffffffff1681116145ab578271ffffffffffffffffffffffffffffffffffff16611c65565b611c6561ffff606067016345785d8a00006301e1338060016145cf600c600a615e66565b6145dd9063781a75c0615e75565b6145e791906154ed565b6145f19190615e8c565b6145fc906001615ebe565b6146189068ffffffffffffffffff1666f38a31408ae338615e75565b6146229190615edf565b68ffffffffffffffffff166fffffffffffffffffffffffffffffffff16901b61464b9190615ef3565b6fffffffffffffffffffffffffffffffff168471ffffffffffffffffffffffffffffffffffff168361439c565b6040805160808101825260008082526020820181905291810182905260608101919091526146a782868661499b565b604081015160208501805190910171ffffffffffffffffffffffffffffffffffff16905286519091506000906fffffffffffffffffffffffffffffffff16156147405761473b87600001516fffffffffffffffffffffffffffffffff16836060015171ffffffffffffffffffffffffffffffffffff16866020015171ffffffffffffffffffffffffffffffffffff1661439c565b614754565b614754898560200151846060015101614468565b875190915061ffff6f140eb6ae00000000000000000000000004036fffffffffffffffffffffffffffffffff168111156147ba576040517f6deac20700000000000000000000000000000000000000000000000000000000815260040160405180910390fd5b6020878101805183016fffffffffffffffffffffffffffffffff908116909152885183011688526060830151858201805190910171ffffffffffffffffffffffffffffffffffff1690526040805165ffffffffffff8b168152918201839052309160009133917fc3d58168c5ae7397731d063d5bbf3d657854427343f4c083240f7aacaa2d0f62910160405180910390a450979650505050505050565b6000818310156148695761486961548f565b816000036148795761487961548f565b600082848161488a5761488a615d01565b0490506fffffffffffffffffffffffffffffffff811160071b81811c67ffffffffffffffff811160061b90811c63ffffffff811160051b90811c61ffff811160041b90811c60ff8111600390811b91821c600f811160021b90811c918211600190811b92831c9790881196179094179092171790911717176080811061491857607f810383901c915061492c565b6149298682607f0360020a8761439c565b91505b603781901b60015b6037811161496957838402607f1c93508360801c80826037031b8317925084811c9450508061496290615f33565b9050614934565b5060c061498e8277d89e8c075c4155dd3213326cbbcf86fd1f63f5c205dd2ad2615e75565b901c979650505050505050565b60408051608081018252600080825260208201819052918101829052606081019190915261271061ffff841681018071ffffffffffffffffffffffffffffffffffff87168302816149ee576149ee615d01565b0471ffffffffffffffffffffffffffffffffffff9081168085526109f69703811660ff95909516850296909604861660208401819052600a850487166060850181905294039390930390941660408201529392505050565b73ffffffffffffffffffffffffffffffffffffffff81168114614a6857600080fd5b50565b60008060408385031215614a7e57600080fd5b8235614a8981614a46565b946020939093013593505050565b7fffffffff0000000000000000000000000000000000000000000000000000000081168114614a6857600080fd5b600060208284031215614ad757600080fd5b81356109ee81614a97565b600060208284031215614af457600080fd5b5035919050565b60005b83811015614b16578181015183820152602001614afe565b50506000910152565b60008151808452614b37816020860160208601614afb565b601f017fffffffffffffffffffffffffffffffffffffffffffffffffffffffffffffffe0169290920160200192915050565b60208152600061081c6020830184614b1f565b600060208284031215614b8e57600080fd5b81356109ee81614a46565b60008083601f840112614bab57600080fd5b50813567ffffffffffffffff811115614bc357600080fd5b6020830191508360208260051b8501011115614bde57600080fd5b9250929050565b60008083601f840112614bf757600080fd5b50813567ffffffffffffffff811115614c0f57600080fd5b602083019150836020828501011115614bde57600080fd5b60008060008060008060008060a0898b031215614c4357600080fd5b8835614c4e81614a46565b97506020890135614c5e81614a46565b9650604089013567ffffffffffffffff811115614c7a57600080fd5b614c868b828c01614b99565b909750955050606089013567ffffffffffffffff811115614ca657600080fd5b614cb28b828c01614b99565b909550935050608089013567ffffffffffffffff811115614cd257600080fd5b614cde8b828c01614be5565b999c989b5096995094979396929594505050565b600060608284031215610b9757600080fd5b600060608284031215614d1657600080fd5b61081c8383614cf2565b7f4e487b7100000000000000000000000000000000000000000000000000000000600052604160045260246000fd5b6040516060810167ffffffffffffffff81118282101715614d7257614d72614d20565b60405290565b6040805190810167ffffffffffffffff81118282101715614d7257614d72614d20565b604051601f82017fffffffffffffffffffffffffffffffffffffffffffffffffffffffffffffffe016810167ffffffffffffffff81118282101715614de257614de2614d20565b604052919050565b8035600081900b8114614dfc57600080fd5b919050565b60006060828403128015614e1457600080fd5b50614e1d614d4f565b8235614e2881614a46565b81526020830135614e3881614a46565b6020820152614e4960408401614dea565b60408201529392505050565b8015158114614a6857600080fd5b600080600060a08486031215614e7857600080fd5b8335614e8381614e55565b9250614e928560208601614cf2565b929592945050506080919091013590565b60008060408385031215614eb657600080fd5b823591506020830135614ec881614a46565b809150509250929050565b60008060008060408587031215614ee957600080fd5b843567ffffffffffffffff811115614f0057600080fd5b614f0c87828801614b99565b909550935050602085013567ffffffffffffffff811115614f2c57600080fd5b614f3887828801614b99565b95989497509550505050565b602080825282518282018190526000918401906040840190835b81811015614f7c578351835260209384019390920191600101614f5e565b509095945050505050565b803561ffff81168114614dfc57600080fd5b600080600060608486031215614fae57600080fd5b614fb784614f87565b9250614fc560208501614f87565b91506040840135614fd581614e55565b809150509250925092565b608081526000835160606080840152614ffc60e0840182614b1f565b905060208501517fffffffffffffffffffffffffffffffffffffffffffffffffffffffffffffff808483030160a08501526150378282614b1f565b604087015160ff1660c086015292506109ee915050602083018473ffffffffffffffffffffffffffffffffffffffff815116825273ffffffffffffffffffffffffffffffffffffffff6020820151166020830152604081015160000b60408301525050565b65ffffffffffff81168114614a6857600080fd5b6000602082840312156150c257600080fd5b81356109ee8161509c565b600080608083850312156150e057600080fd5b82356150eb81614e55565b91506150fa8460208501614cf2565b90509250929050565b6000806040838503121561511657600080fd5b823561512181614a46565b91506020830135614ec881614e55565b60008060008060008060006080888a03121561514c57600080fd5b873567ffffffffffffffff81111561516357600080fd5b61516f8a828b01614b99565b909850965050602088013567ffffffffffffffff81111561518f57600080fd5b61519b8a828b01614b99565b909650945050604088013567ffffffffffffffff8111156151bb57600080fd5b6151c78a828b01614b99565b90945092506151da905060608901614f87565b905092959891949750929550565b6000806000604084860312156151fd57600080fd5b833567ffffffffffffffff81111561521457600080fd5b61522086828701614b99565b9094509250506020840135614fd581614a46565b6060810161081f828473ffffffffffffffffffffffffffffffffffffffff815116825273ffffffffffffffffffffffffffffffffffffffff6020820151166020830152604081015160000b60408301525050565b6000806040838503121561529b57600080fd5b82356152a681614a46565b91506020830135614ec881614a46565b60008060008060008060a087890312156152cf57600080fd5b86356152da81614a46565b955060208701356152ea81614a46565b94506040870135935060608701359250608087013567ffffffffffffffff81111561531457600080fd5b61532089828a01614be5565b979a9699509497509295939492505050565b6060810161081f828471ffffffffffffffffffffffffffffffffffff815116825271ffffffffffffffffffffffffffffffffffff6020820151166020830152604081015160070b60408301525050565b60006020828403121561539457600080fd5b815167ffffffffffffffff8111156153ab57600080fd5b8201601f810184136153bc57600080fd5b805167ffffffffffffffff8111156153d6576153d6614d20565b61540760207fffffffffffffffffffffffffffffffffffffffffffffffffffffffffffffffe0601f84011601614d9b565b81815285602083850101111561541c57600080fd5b61542d826020830160208601614afb565b95945050505050565b7f4e487b7100000000000000000000000000000000000000000000000000000000600052601160045260246000fd5b71ffffffffffffffffffffffffffffffffffff828116828216039081111561081f5761081f615436565b7f4e487b7100000000000000000000000000000000000000000000000000000000600052600160045260246000fd5b7f4e487b7100000000000000000000000000000000000000000000000000000000600052603260045260246000fd5b8181038181111561081f5761081f615436565b81835260007f07ffffffffffffffffffffffffffffffffffffffffffffffffffffffffffffff83111561553257600080fd5b8260051b80836020870137939093016020019392505050565b60408152600061555f604083018688615500565b8281036020840152615572818587615500565b979650505050505050565b8183528181602085013750600060208284010152600060207fffffffffffffffffffffffffffffffffffffffffffffffffffffffffffffffe0601f840116840101905092915050565b73ffffffffffffffffffffffffffffffffffffffff8916815273ffffffffffffffffffffffffffffffffffffffff8816602082015260a06040820152600061561260a08301888a615500565b8281036060840152615625818789615500565b9050828103608084015261563a81858761557d565b9b9a5050505050505050505050565b60006020828403121561565b57600080fd5b81516109ee81614a97565b60006020828403121561567857600080fd5b61081c82614dea565b73ffffffffffffffffffffffffffffffffffffffff868116825260208083018790526040808401879052606084018690528451831660808501529084015190911660a083015282015160000b60c082015260e08101612b52565b80356156e681614a46565b73ffffffffffffffffffffffffffffffffffffffff168252602081013561570c81614a46565b73ffffffffffffffffffffffffffffffffffffffff16602083015261573360408201614dea565b60000b60408301525050565b86151581528515156020820152604081018590526060810184905273ffffffffffffffffffffffffffffffffffffffff83166080820152610100810161557260a08301846156db565b805171ffffffffffffffffffffffffffffffffffff81168114614dfc57600080fd5b8051600781900b8114614dfc57600080fd5b6000606082840312156157ce57600080fd5b6157d6614d4f565b90506157e182615788565b81526157ef60208301615788565b6020820152615800604083016157aa565b604082015292915050565b8051614dfc81614a46565b600080600080600085870361014081121561583057600080fd5b604081121561583e57600080fd5b615846614d78565b87516dffffffffffffffffffffffffffff8116811461586457600080fd5b815261587260208901615788565b6020820152955060607fffffffffffffffffffffffffffffffffffffffffffffffffffffffffffffffc0820112156158a957600080fd5b506158b2614d4f565b6158be60408801615788565b81526158cc606088016157aa565b602082015260808701516158df8161509c565b604082015293506158f38760a088016157bc565b9250615902610100870161580b565b91506159116101208701615788565b90509295509295909350565b73ffffffffffffffffffffffffffffffffffffffff8616815261ffff8516602082015260ff8416604082015260e0810161599c606083018571ffffffffffffffffffffffffffffffffffff815116825271ffffffffffffffffffffffffffffffffffff6020820151166020830152604081015160070b60408301525050565b8260c08301529695505050505050565b6000608082840312156159be57600080fd5b6040516080810167ffffffffffffffff811182821017156159e1576159e1614d20565b6040529050806159f083615788565b81526159fe60208401615788565b6020820152615a0f60408401615788565b6040820152615a2060608401615788565b60608201525092915050565b60008060e08385031215615a3f57600080fd5b615a4984846157bc565b91506150fa84606085016159ac565b71ffffffffffffffffffffffffffffffffffff818116838216019081111561081f5761081f615436565b600181811c90821680615a9657607f821691505b602082108103610b97577f4e487b7100000000000000000000000000000000000000000000000000000000600052602260045260246000fd5b73ffffffffffffffffffffffffffffffffffffffff8616815261ffff8516602082015260ff8416604082015260e08101615b4e606083018571ffffffffffffffffffffffffffffffffffff815116825271ffffffffffffffffffffffffffffffffffff6020820151166020830152604081015160070b60408301525050565b71ffffffffffffffffffffffffffffffffffff831660c08301529695505050505050565b60008060006101008486031215615b8857600080fd5b615b9285856157bc565b9250615ba185606086016159ac565b60e0949094015192959394509192915050565b600060208284031215615bc657600080fd5b813560ff811681146109ee57600080fd5b60008251615be9818460208701614afb565b9190910192915050565b600060208284031215615c0557600080fd5b5051919050565b600060208284031215615c1e57600080fd5b81516109ee81614e55565b73ffffffffffffffffffffffffffffffffffffffff8716815273ffffffffffffffffffffffffffffffffffffffff8616602082015284604082015283606082015260a060808201526000615c8160a08301848661557d565b98975050505050505050565b83815273ffffffffffffffffffffffffffffffffffffffff8316602082015260a08101611c6560408301846156db565b600060608284031215615ccf57600080fd5b61081c83836157bc565b6fffffffffffffffffffffffffffffffff828116828216039081111561081f5761081f615436565b7f4e487b7100000000000000000000000000000000000000000000000000000000600052601260045260246000fd5b8082018082111561081f5761081f615436565b6001815b6001841115615d7e57808504811115615d6257615d62615436565b6001841615615d7057908102905b60019390931c928002615d47565b935093915050565b600082615d955750600161081f565b81615da25750600061081f565b8160018114615db85760028114615dc257615dde565b600191505061081f565b60ff841115615dd357615dd3615436565b50506001821b61081f565b5060208310610133831016604e8410600b8410161715615e01575081810a61081f565b615e2c7fffffffffffffffffffffffffffffffffffffffffffffffffffffffffffffffff8484615d43565b807fffffffffffffffffffffffffffffffffffffffffffffffffffffffffffffffff04821115615e5e57615e5e615436565b029392505050565b600061081c60ff841683615d86565b808202811582820484141761081f5761081f615436565b600068ffffffffffffffffff831680615ea757615ea7615d01565b8068ffffffffffffffffff84160491505092915050565b68ffffffffffffffffff818116838216019081111561081f5761081f615436565b600082615eee57615eee615d01565b500490565b60006fffffffffffffffffffffffffffffffff831680615f1557615f15615d01565b806fffffffffffffffffffffffffffffffff84160491505092915050565b60007fffffffffffffffffffffffffffffffffffffffffffffffffffffffffffffffff8203615f6457615f64615436565b506001019056fea2646970667358221220296418ff56c67a5a6b212ddc5d4f527859fbbc5b7cb3446d84a321cb17bc195264736f6c634300081a0033","linkReferences":{"src/libraries/VaultExternal.sol":{"VaultExternal":[{"start":2945,"length":20},{"start":5243,"length":20},{"start":5523,"length":20},{"start":8107,"length":20},{"start":12685,"length":20}]}}},"methodIdentifiers":{"TIMESTAMP_ISSUANCE_START()":"410cd41a","balanceOf(address,uint256)":"00fdd58e","balanceOfBatch(address[],uint256[])":"4e1273f4","burn(bool,(address,address,int8),uint256)":"3fc62188","claimSIR(uint256,address)":"777b1d43","collateralStates(address)":"61086e43","cumulativeSIRPerTEA(uint256)":"7a4996e8","getReserves((address,address,int8))":"fbd98edf","initialize((address,address,int8))":"3aa88670","isApprovedForAll(address,address)":"e985e9c5","latestTokenParams()":"60e0970a","mint(bool,(address,address,int8))":"94c050f8","numberOfVaults()":"7a32af78","onERC1155BatchReceived(address,address,uint256[],uint256[],bytes)":"bc197c81","onERC1155Received(address,address,uint256,uint256,bytes)":"f23a6e61","paramsById(uint48)":"d2f3fd09","safeBatchTransferFrom(address,address,uint256[],uint256[],bytes)":"2eb2c2d6","safeTransferFrom(address,address,uint256,uint256,bytes)":"f242432a","setApprovalForAll(address,bool)":"a22cb465","supportsInterface(bytes4)":"01ffc9a7","systemParams()":"458e8e6b","totalSupply(uint256)":"bd85b039","unclaimedRewards(uint256,address)":"46f90748","updateSystemState(uint16,uint16,bool)":"5ab2cef4","updateVaults(uint48[],uint48[],uint8[],uint16)":"bb147c54","uri(uint256)":"0e89341c","vaultStates((address,address,int8))":"2edf3104","vaultTax(uint48)":"6cfcac04","withdrawFees(address)":"164e68de","withdrawToSaveSystem(address[],address)":"c7c3d2dc"},"id":85}