{"abi":[{"type":"constructor","inputs":[{"name":"systemControl","type":"address","internalType":"address"},{"name":"sir","type":"address","internalType":"address"},{"name":"oracle","type":"address","internalType":"address"},{"name":"apeImplementation","type":"address","internalType":"address"}],"stateMutability":"nonpayable"},{"type":"function","name":"TIMESTAMP_ISSUANCE_START","inputs":[],"outputs":[{"name":"","type":"uint40","internalType":"uint40"}],"stateMutability":"view"},{"type":"function","name":"balanceOf","inputs":[{"name":"account","type":"address","internalType":"address"},{"name":"vaultId","type":"uint256","internalType":"uint256"}],"outputs":[{"name":"","type":"uint256","internalType":"uint256"}],"stateMutability":"view"},{"type":"function","name":"balanceOfBatch","inputs":[{"name":"owners","type":"address[]","internalType":"address[]"},{"name":"vaultIds","type":"uint256[]","internalType":"uint256[]"}],"outputs":[{"name":"balances_","type":"uint256[]","internalType":"uint256[]"}],"stateMutability":"view"},{"type":"function","name":"burn","inputs":[{"name":"isAPE","type":"bool","internalType":"bool"},{"name":"vaultParams","type":"tuple","internalType":"struct SirStructs.VaultParameters","components":[{"name":"debtToken","type":"address","internalType":"address"},{"name":"collateralToken","type":"address","internalType":"address"},{"name":"leverageTier","type":"int8","internalType":"int8"}]},{"name":"amount","type":"uint256","internalType":"uint256"}],"outputs":[{"name":"","type":"uint144","internalType":"uint144"}],"stateMutability":"nonpayable"},{"type":"function","name":"claimSIR","inputs":[{"name":"vaultId","type":"uint256","internalType":"uint256"},{"name":"lper","type":"address","internalType":"address"}],"outputs":[{"name":"","type":"uint80","internalType":"uint80"}],"stateMutability":"nonpayable"},{"type":"function","name":"collateralStates","inputs":[{"name":"token","type":"address","internalType":"address"}],"outputs":[{"name":"","type":"tuple","internalType":"struct SirStructs.CollateralState","components":[{"name":"totalFeesToStakers","type":"uint112","internalType":"uint112"},{"name":"total","type":"uint144","internalType":"uint144"}]}],"stateMutability":"view"},{"type":"function","name":"cumulativeSIRPerTEA","inputs":[{"name":"vaultId","type":"uint256","internalType":"uint256"}],"outputs":[{"name":"cumulativeSIRPerTEAx96","type":"uint176","internalType":"uint176"}],"stateMutability":"view"},{"type":"function","name":"getReserves","inputs":[{"name":"vaultParams","type":"tuple","internalType":"struct SirStructs.VaultParameters","components":[{"name":"debtToken","type":"address","internalType":"address"},{"name":"collateralToken","type":"address","internalType":"address"},{"name":"leverageTier","type":"int8","internalType":"int8"}]}],"outputs":[{"name":"","type":"tuple","internalType":"struct SirStructs.Reserves","components":[{"name":"reserveApes","type":"uint144","internalType":"uint144"},{"name":"reserveLPers","type":"uint144","internalType":"uint144"},{"name":"tickPriceX42","type":"int64","internalType":"int64"}]}],"stateMutability":"view"},{"type":"function","name":"initialize","inputs":[{"name":"vaultParams","type":"tuple","internalType":"struct SirStructs.VaultParameters","components":[{"name":"debtToken","type":"address","internalType":"address"},{"name":"collateralToken","type":"address","internalType":"address"},{"name":"leverageTier","type":"int8","internalType":"int8"}]}],"outputs":[],"stateMutability":"nonpayable"},{"type":"function","name":"isApprovedForAll","inputs":[{"name":"","type":"address","internalType":"address"},{"name":"","type":"address","internalType":"address"}],"outputs":[{"name":"","type":"bool","internalType":"bool"}],"stateMutability":"view"},{"type":"function","name":"mint","inputs":[{"name":"isAPE","type":"bool","internalType":"bool"},{"name":"vaultParams","type":"tuple","internalType":"struct SirStructs.VaultParameters","components":[{"name":"debtToken","type":"address","internalType":"address"},{"name":"collateralToken","type":"address","internalType":"address"},{"name":"leverageTier","type":"int8","internalType":"int8"}]},{"name":"collateralToDeposit","type":"uint144","internalType":"uint144"}],"outputs":[{"name":"amount","type":"uint256","internalType":"uint256"}],"stateMutability":"payable"},{"type":"function","name":"numberOfVaults","inputs":[],"outputs":[{"name":"","type":"uint48","internalType":"uint48"}],"stateMutability":"view"},{"type":"function","name":"paramsById","inputs":[{"name":"vaultId","type":"uint48","internalType":"uint48"}],"outputs":[{"name":"","type":"tuple","internalType":"struct SirStructs.VaultParameters","components":[{"name":"debtToken","type":"address","internalType":"address"},{"name":"collateralToken","type":"address","internalType":"address"},{"name":"leverageTier","type":"int8","internalType":"int8"}]}],"stateMutability":"view"},{"type":"function","name":"safeBatchTransferFrom","inputs":[{"name":"from","type":"address","internalType":"address"},{"name":"to","type":"address","internalType":"address"},{"name":"vaultIds","type":"uint256[]","internalType":"uint256[]"},{"name":"amounts","type":"uint256[]","internalType":"uint256[]"},{"name":"data","type":"bytes","internalType":"bytes"}],"outputs":[],"stateMutability":"nonpayable"},{"type":"function","name":"safeTransferFrom","inputs":[{"name":"from","type":"address","internalType":"address"},{"name":"to","type":"address","internalType":"address"},{"name":"vaultId","type":"uint256","internalType":"uint256"},{"name":"amount","type":"uint256","internalType":"uint256"},{"name":"data","type":"bytes","internalType":"bytes"}],"outputs":[],"stateMutability":"nonpayable"},{"type":"function","name":"setApprovalForAll","inputs":[{"name":"operator","type":"address","internalType":"address"},{"name":"approved","type":"bool","internalType":"bool"}],"outputs":[],"stateMutability":"nonpayable"},{"type":"function","name":"supportsInterface","inputs":[{"name":"interfaceId","type":"bytes4","internalType":"bytes4"}],"outputs":[{"name":"","type":"bool","internalType":"bool"}],"stateMutability":"pure"},{"type":"function","name":"systemParams","inputs":[],"outputs":[{"name":"","type":"tuple","internalType":"struct SirStructs.SystemParameters","components":[{"name":"baseFee","type":"uint16","internalType":"uint16"},{"name":"lpFee","type":"uint16","internalType":"uint16"},{"name":"mintingStopped","type":"bool","internalType":"bool"},{"name":"cumulativeTax","type":"uint16","internalType":"uint16"}]}],"stateMutability":"view"},{"type":"function","name":"totalSupply","inputs":[{"name":"vaultId","type":"uint256","internalType":"uint256"}],"outputs":[{"name":"","type":"uint256","internalType":"uint256"}],"stateMutability":"view"},{"type":"function","name":"unclaimedRewards","inputs":[{"name":"vaultId","type":"uint256","internalType":"uint256"},{"name":"lper","type":"address","internalType":"address"}],"outputs":[{"name":"","type":"uint80","internalType":"uint80"}],"stateMutability":"view"},{"type":"function","name":"updateSystemState","inputs":[{"name":"baseFee","type":"uint16","internalType":"uint16"},{"name":"lpFee","type":"uint16","internalType":"uint16"},{"name":"mintingStopped","type":"bool","internalType":"bool"}],"outputs":[],"stateMutability":"nonpayable"},{"type":"function","name":"updateVaults","inputs":[{"name":"oldVaults","type":"uint48[]","internalType":"uint48[]"},{"name":"newVaults","type":"uint48[]","internalType":"uint48[]"},{"name":"newTaxes","type":"uint8[]","internalType":"uint8[]"},{"name":"cumulativeTax","type":"uint16","internalType":"uint16"}],"outputs":[],"stateMutability":"nonpayable"},{"type":"function","name":"uri","inputs":[{"name":"vaultId","type":"uint256","internalType":"uint256"}],"outputs":[{"name":"","type":"string","internalType":"string"}],"stateMutability":"view"},{"type":"function","name":"vaultStates","inputs":[{"name":"vaultParams","type":"tuple","internalType":"struct SirStructs.VaultParameters","components":[{"name":"debtToken","type":"address","internalType":"address"},{"name":"collateralToken","type":"address","internalType":"address"},{"name":"leverageTier","type":"int8","internalType":"int8"}]}],"outputs":[{"name":"","type":"tuple","internalType":"struct SirStructs.VaultState","components":[{"name":"reserve","type":"uint144","internalType":"uint144"},{"name":"tickPriceSatX42","type":"int64","internalType":"int64"},{"name":"vaultId","type":"uint48","internalType":"uint48"}]}],"stateMutability":"view"},{"type":"function","name":"vaultTax","inputs":[{"name":"vaultId","type":"uint48","internalType":"uint48"}],"outputs":[{"name":"","type":"uint8","internalType":"uint8"}],"stateMutability":"view"},{"type":"function","name":"withdrawFees","inputs":[{"name":"token","type":"address","internalType":"address"}],"outputs":[{"name":"totalFeesToStakers","type":"uint112","internalType":"uint112"}],"stateMutability":"nonpayable"},{"type":"function","name":"withdrawToSaveSystem","inputs":[{"name":"tokens","type":"address[]","internalType":"address[]"},{"name":"to","type":"address","internalType":"address"}],"outputs":[{"name":"amounts","type":"uint256[]","internalType":"uint256[]"}],"stateMutability":"nonpayable"},{"type":"event","name":"ApprovalForAll","inputs":[{"name":"account","type":"address","indexed":true,"internalType":"address"},{"name":"operator","type":"address","indexed":true,"internalType":"address"},{"name":"approved","type":"bool","indexed":false,"internalType":"bool"}],"anonymous":false},{"type":"event","name":"Burn","inputs":[{"name":"vaultId","type":"uint48","indexed":true,"internalType":"uint48"},{"name":"isAPE","type":"bool","indexed":false,"internalType":"bool"},{"name":"collateralWithdrawn","type":"uint144","indexed":false,"internalType":"uint144"},{"name":"collateralFeeToStakers","type":"uint144","indexed":false,"internalType":"uint144"},{"name":"collateralFeeToLPers","type":"uint144","indexed":false,"internalType":"uint144"}],"anonymous":false},{"type":"event","name":"FeesToStakers","inputs":[{"name":"collateralToken","type":"address","indexed":true,"internalType":"address"},{"name":"totalFeesToStakers","type":"uint112","indexed":false,"internalType":"uint112"}],"anonymous":false},{"type":"event","name":"Mint","inputs":[{"name":"vaultId","type":"uint48","indexed":true,"internalType":"uint48"},{"name":"isAPE","type":"bool","indexed":false,"internalType":"bool"},{"name":"collateralIn","type":"uint144","indexed":false,"internalType":"uint144"},{"name":"collateralFeeToStakers","type":"uint144","indexed":false,"internalType":"uint144"},{"name":"collateralFeeToLPers","type":"uint144","indexed":false,"internalType":"uint144"}],"anonymous":false},{"type":"event","name":"TransferBatch","inputs":[{"name":"operator","type":"address","indexed":true,"internalType":"address"},{"name":"from","type":"address","indexed":true,"internalType":"address"},{"name":"to","type":"address","indexed":true,"internalType":"address"},{"name":"vaultIds","type":"uint256[]","indexed":false,"internalType":"uint256[]"},{"name":"amounts","type":"uint256[]","indexed":false,"internalType":"uint256[]"}],"anonymous":false},{"type":"event","name":"TransferSingle","inputs":[{"name":"operator","type":"address","indexed":true,"internalType":"address"},{"name":"from","type":"address","indexed":true,"internalType":"address"},{"name":"to","type":"address","indexed":true,"internalType":"address"},{"name":"id","type":"uint256","indexed":false,"internalType":"uint256"},{"name":"amount","type":"uint256","indexed":false,"internalType":"uint256"}],"anonymous":false},{"type":"event","name":"URI","inputs":[{"name":"value","type":"string","indexed":false,"internalType":"string"},{"name":"id","type":"uint256","indexed":true,"internalType":"uint256"}],"anonymous":false},{"type":"event","name":"VaultNewTax","inputs":[{"name":"vault","type":"uint48","indexed":true,"internalType":"uint48"},{"name":"tax","type":"uint8","indexed":false,"internalType":"uint8"},{"name":"cumulativeTax","type":"uint16","indexed":false,"internalType":"uint16"}],"anonymous":false},{"type":"error","name":"LengthMismatch","inputs":[]},{"type":"error","name":"NotAWETHVault","inputs":[]},{"type":"error","name":"NotAuthorized","inputs":[]},{"type":"error","name":"TEAMaxSupplyExceeded","inputs":[]},{"type":"error","name":"UnsafeRecipient","inputs":[]}],"bytecode":{"object":"0x61012060405234801561001157600080fd5b5060405161604c38038061604c83398101604081905261003091610168565b6001600160a01b03938416608090815264ffffffffff421660a05292841660c052604080519384018152610fa08452610929602080860191909152600085830181905260609586018190526002805466ffffffffffffff19166309290fa017815594871660e052928616610100528151948501825282855284018281529084018281526005805460018101825593529351919092027f036b6384b5eca791c62761152d0c79bb0604c104a5fb6f4eb0703f3154bb3db0810180549286166001600160a01b03199093169290921790915590517f036b6384b5eca791c62761152d0c79bb0604c104a5fb6f4eb0703f3154bb3db19091018054925160ff16600160a01b026001600160a81b031990931691909316171790556101bc565b80516001600160a01b038116811461016357600080fd5b919050565b6000806000806080858703121561017e57600080fd5b6101878561014c565b93506101956020860161014c565b92506101a36040860161014c565b91506101b16060860161014c565b905092959194509250565b60805160a05160c05160e05161010051615e14610238600039600061175a01526000818161125101528181611708015281816118710152612c03015260008181610a9e01528181610c310152611ddb01526000818161038a01526141ae015260008181611c9e0152818161208601526124e20152615e146000f3fe6080604052600436106101ab5760003560e01c80635ab2cef4116100ec578063bb147c541161008a578063d2f3fd0911610064578063d2f3fd091461076b578063e985e9c514610798578063f242432a146107d3578063fbd98edf146107f357600080fd5b8063bb147c54146106ec578063bd85b0391461070c578063c7c3d2dc1461074b57600080fd5b8063777b1d43116100c6578063777b1d43146106395780637a32af78146106595780637a4996e814610685578063a22cb465146106cc57600080fd5b80635ab2cef4146104ef57806361086e431461050f5780636cfcac04146105ef57600080fd5b806332eaa62511610159578063410cd41a11610133578063410cd41a14610378578063458e8e6b146103c257806346f90748146104875780634e1273f4146104c257600080fd5b806332eaa625146103025780633aa88670146103155780633fc621881461033557600080fd5b8063164e68de1161018a578063164e68de146102405780632eb2c2d61461027f5780632edf3104146102a157600080fd5b8062fdd58e146101b057806301ffc9a7146101e35780630e89341c14610213575b600080fd5b3480156101bc57600080fd5b506101d06101cb366004614a3b565b610820565b6040519081526020015b60405180910390f35b3480156101ef57600080fd5b506102036101fe366004614a95565b6108b4565b60405190151581526020016101da565b34801561021f57600080fd5b5061023361022e366004614ab2565b610995565b6040516101da9190614aef565b34801561024c57600080fd5b5061026061025b366004614b40565b610a84565b6040516dffffffffffffffffffffffffffff90911681526020016101da565b34801561028b57600080fd5b5061029f61029a366004614beb565b610c6c565b005b3480156102ad57600080fd5b506102c16102bc366004614cc8565b610f91565b60408051825171ffffffffffffffffffffffffffffffffffff16815260208084015160070b908201529181015165ffffffffffff16908201526060016101da565b6101d0610310366004614d12565b6110e6565b34801561032157600080fd5b5061029f610330366004614e3d565b611699565b34801561034157600080fd5b50610355610350366004614e91565b6117d3565b60405171ffffffffffffffffffffffffffffffffffff90911681526020016101da565b34801561038457600080fd5b506103ac7f000000000000000000000000000000000000000000000000000000000000000081565b60405164ffffffffff90911681526020016101da565b3480156103ce57600080fd5b50610441604080516080810182526000808252602082018190529181018290526060810191909152506040805160808101825260025461ffff80821683526201000082048116602084015260ff640100000000830416151593830193909352650100000000009004909116606082015290565b6040516101da9190600060808201905061ffff835116825261ffff602084015116602083015260408301511515604083015261ffff606084015116606083015292915050565b34801561049357600080fd5b506104a76104a2366004614ed1565b611b66565b60405169ffffffffffffffffffff90911681526020016101da565b3480156104ce57600080fd5b506104e26104dd366004614f01565b611b85565b6040516101da9190614f72565b3480156104fb57600080fd5b5061029f61050a366004614fc7565b611c86565b34801561051b57600080fd5b506105b061052a366004614b40565b60408051808201909152600080825260208201525073ffffffffffffffffffffffffffffffffffffffff166000908152600860209081526040918290208251808401909352546dffffffffffffffffffffffffffff811683526e010000000000000000000000000000900471ffffffffffffffffffffffffffffffffffff169082015290565b6040805182516dffffffffffffffffffffffffffff16815260209283015171ffffffffffffffffffffffffffffffffffff1692810192909252016101da565b3480156105fb57600080fd5b5061062761060a366004615017565b65ffffffffffff1660009081526020819052604090205460ff1690565b60405160ff90911681526020016101da565b34801561064557600080fd5b506104a7610654366004614ed1565b611dc1565b34801561066557600080fd5b5061066e611f09565b60405165ffffffffffff90911681526020016101da565b34801561069157600080fd5b506106a56106a0366004614ab2565b611f20565b60405175ffffffffffffffffffffffffffffffffffffffffffff90911681526020016101da565b3480156106d857600080fd5b5061029f6106e7366004615034565b611fd7565b3480156106f857600080fd5b5061029f610707366004615062565b61206e565b34801561071857600080fd5b506101d0610727366004614ab2565b6000908152600460205260409020546fffffffffffffffffffffffffffffffff1690565b34801561075757600080fd5b506104e2610766366004615119565b6124c8565b34801561077757600080fd5b5061078b610786366004615017565b61287e565b6040516101da9190615165565b3480156107a457600080fd5b506102036107b33660046151b9565b600660209081526000928352604080842090915290825290205460ff1681565b3480156107df57600080fd5b5061029f6107ee3660046151e7565b612927565b3480156107ff57600080fd5b5061081361080e366004614cc8565b612b9f565b6040516101da9190615263565b600073ffffffffffffffffffffffffffffffffffffffff831630146108755773ffffffffffffffffffffffffffffffffffffffff831660009081526003602090815260408083208584529091529020546108ab565b60008281526004602052604090205470010000000000000000000000000000000090046fffffffffffffffffffffffffffffffff165b90505b92915050565b60007f01ffc9a7000000000000000000000000000000000000000000000000000000007fffffffff000000000000000000000000000000000000000000000000000000008316148061094757507fd9b67a26000000000000000000000000000000000000000000000000000000007fffffffff000000000000000000000000000000000000000000000000000000008316145b806108ae5750507fffffffff00000000000000000000000000000000000000000000000000000000167f0e89341c000000000000000000000000000000000000000000000000000000001490565b6000818152600460208190526040918290205491517f3ef6287c000000000000000000000000000000000000000000000000000000008152600591810191909152602481018390526fffffffffffffffffffffffffffffffff9091166044820181905260609173__$0d913f5ea2cc8398585c34a0416dbc1ef1$__90633ef6287c90606401600060405180830381865af4158015610a37573d6000803e3d6000fd5b505050506040513d6000823e601f3d9081017fffffffffffffffffffffffffffffffffffffffffffffffffffffffffffffffe0168201604052610a7d91908101906152b3565b9392505050565b60003373ffffffffffffffffffffffffffffffffffffffff7f00000000000000000000000000000000000000000000000000000000000000001614610ac857600080fd5b5073ffffffffffffffffffffffffffffffffffffffff81166000908152600860209081526040918290208251808401909352546dffffffffffffffffffffffffffff81168084526e01000000000000000000000000000090910471ffffffffffffffffffffffffffffffffffff1691830191909152908115610c6657604051806040016040528060006dffffffffffffffffffffffffffff168152602001836dffffffffffffffffffffffffffff168360200151610b869190615396565b71ffffffffffffffffffffffffffffffffffff90811690915273ffffffffffffffffffffffffffffffffffffffff851660008181526008602090815260408083208651968301519095166e010000000000000000000000000000026dffffffffffffffffffffffffffff909616959095179093559251928352917fcd82d3b0662b3f7ad1373ff46ce247f38d4e9dd2419b198489e17f09b79cd93e910160405180910390a2610c66837f0000000000000000000000000000000000000000000000000000000000000000846dffffffffffffffffffffffffffff16612c6e565b50919050565b3073ffffffffffffffffffffffffffffffffffffffff891603610c9157610c916153c0565b848314610cca576040517fff633a3800000000000000000000000000000000000000000000000000000000815260040160405180910390fd5b3373ffffffffffffffffffffffffffffffffffffffff891614801590610d21575073ffffffffffffffffffffffffffffffffffffffff8816600090815260066020908152604080832033845290915290205460ff16155b15610d58576040517fea8e4eb500000000000000000000000000000000000000000000000000000000815260040160405180910390fd5b60005b85811015610da757610d9f8989898985818110610d7a57610d7a6153ef565b90506020020135888886818110610d9357610d936153ef565b90506020020135612ddc565b600101610d5b565b508673ffffffffffffffffffffffffffffffffffffffff168873ffffffffffffffffffffffffffffffffffffffff163373ffffffffffffffffffffffffffffffffffffffff167f4a39dc06d4c0dbc64b70af90fd698a233a518aa5d07e595d983b8c0526c8f7fb89898989604051610e229493929190615469565b60405180910390a473ffffffffffffffffffffffffffffffffffffffff87163b15610f375773ffffffffffffffffffffffffffffffffffffffff87163014801590610f3257506040517fbc197c81000000000000000000000000000000000000000000000000000000008082529073ffffffffffffffffffffffffffffffffffffffff89169063bc197c8190610eca9033908d908c908c908c908c908c908c906004016154e4565b6020604051808303816000875af1158015610ee9573d6000803e3d6000fd5b505050506040513d601f19601f82011682018060405250810190610f0d9190615567565b7fffffffff000000000000000000000000000000000000000000000000000000001614155b610f50565b73ffffffffffffffffffffffffffffffffffffffff8716155b15610f87576040517f3da6393100000000000000000000000000000000000000000000000000000000815260040160405180910390fd5b5050505050505050565b604080516060810182526000808252602082018190529181019190915260076000610fbf6020850185614b40565b73ffffffffffffffffffffffffffffffffffffffff1673ffffffffffffffffffffffffffffffffffffffff168152602001908152602001600020600083602001602081019061100e9190614b40565b73ffffffffffffffffffffffffffffffffffffffff1673ffffffffffffffffffffffffffffffffffffffff168152602001908152602001600020600083604001602081019061105d9190615584565b600090810b8252602080830193909352604091820190208151606081018352905471ffffffffffffffffffffffffffffffffffff811682527201000000000000000000000000000000000000810460070b938201939093527a01000000000000000000000000000000000000000000000000000090920465ffffffffffff169082015292915050565b600034156111d95773c02aaa39b223fe8d0a0e5c4f27ead9083c756cc26111136040850160208601614b40565b73ffffffffffffffffffffffffffffffffffffffff1614611160576040517f8efa29d600000000000000000000000000000000000000000000000000000000815260040160405180910390fd5b34915073c02aaa39b223fe8d0a0e5c4f27ead9083c756cc273ffffffffffffffffffffffffffffffffffffffff1663d0e30db0346040518263ffffffff1660e01b81526004016000604051808303818588803b1580156111bf57600080fd5b505af11580156111d3573d6000803e3d6000fd5b50505050505b6040805160808101825260025461ffff80821683526201000082048116602084015260ff64010000000083041615801594840194909452650100000000009091041660608201529061122a57600080fd5b60008060008073__$0d913f5ea2cc8398585c34a0416dbc1ef1$__634d95f9978a600860077f00000000000000000000000000000000000000000000000000000000000000008d6040518663ffffffff1660e01b8152600401611291959493929190615603565b61012060405180830381865af41580156112af573d6000803e3d6000fd5b505050506040513d601f19601f820116820180604052508101906112d391906156bd565b60408381015165ffffffffffff1660009081526020818152828220835160608082018652915460ff81168252610100810464ffffffffff16828501526601000000000000900475ffffffffffffffffffffffffffffffffffffffffffff168186015284516080810186528481529283018490529382018390528101919091529498509296509094509250908a1561143f578273ffffffffffffffffffffffffffffffffffffffff16636bc601d73389600001518560000151888e6040518663ffffffff1660e01b81526004016113ad9594939291906157b6565b610100604051808303816000875af11580156113cd573d6000803e3d6000fd5b505050506040513d601f19601f820116820180604052508101906113f191906158e4565b6060820151909a50919550915071ffffffffffffffffffffffffffffffffffff161561143a5761143a61142a60408c0160208d01614b40565b8660400151868460600151612f6e565b611465565b61146061145260408c0160208d01614b40565b86604001518985888e613158565b985090505b61147085858c6133ff565b6114a8600187836020015171ffffffffffffffffffffffffffffffffffff168d60200160208101906114a29190614b40565b8d6138e3565b846040015165ffffffffffff167f2ea082b0ce379480d9dfb0d7ab365e33def58ee2bee64887c13e531723b5c8818c83600001518460200151856060015186604001510160405161152b9493929190931515845271ffffffffffffffffffffffffffffffffffff9283166020850152908216604084015216606082015260800190565b60405180910390a23460000361156a5761156a61154e60408c0160208d01614b40565b33308c71ffffffffffffffffffffffffffffffffffff16613a1a565b8a1580156115785750333b15155b8015611654575060408581015190517ff23a6e6100000000000000000000000000000000000000000000000000000000808252336004830181905260006024840181905265ffffffffffff9094166044840152606483018c905260a0608484015260a4830193909352919063f23a6e619060c4016020604051808303816000875af115801561160b573d6000803e3d6000fd5b505050506040513d601f19601f8201168201806040525081019061162f9190615567565b7fffffffff000000000000000000000000000000000000000000000000000000001614155b1561168b576040517f3da6393100000000000000000000000000000000000000000000000000000000815260040160405180910390fd5b505050505050509392505050565b805173ffffffffffffffffffffffffffffffffffffffff90811660009081526007602090815260408083208286018051861685529083528184208287018051860b8652935281842091517fd1c790ba0000000000000000000000000000000000000000000000000000000081527f0000000000000000000000000000000000000000000000000000000000000000861660048201526024810192909252600560448301528551851660648301525184166084820152905190910b60a48201527f000000000000000000000000000000000000000000000000000000000000000090911660c482015273__$0d913f5ea2cc8398585c34a0416dbc1ef1$__9063d1c790ba9060e40160006040518083038186803b1580156117b857600080fd5b505af41580156117cc573d6000803e3d6000fd5b5050505050565b6040805160808101825260025461ffff80821683526201000082048116602084015260ff6401000000008304161515838501526501000000000090910416606082015290517f4d95f99700000000000000000000000000000000000000000000000000000000815260009190829081908190819073__$0d913f5ea2cc8398585c34a0416dbc1ef1$__90634d95f9979061189b908c906008906007907f0000000000000000000000000000000000000000000000000000000000000000908f90600401615603565b61012060405180830381865af41580156118b9573d6000803e3d6000fd5b505050506040513d601f19601f820116820180604052508101906118dd91906156bd565b60408381015165ffffffffffff1660009081526020818152828220835160608082018652915460ff81168252610100810464ffffffffff16828501526601000000000000900475ffffffffffffffffffffffffffffffffffffffffffff168186015284516080810186528481529283018490529382018390528101919091529498509296509094509250908a15611a35578273ffffffffffffffffffffffffffffffffffffffff16638c2684273389600001518560000151888e6040518663ffffffff1660e01b81526004016119b7959493929190615926565b60e0604051808303816000875af11580156119d6573d6000803e3d6000fd5b505050506040513d601f19601f820116820180604052508101906119fa91906159b5565b6060810151919550915071ffffffffffffffffffffffffffffffffffff1615611a3057611a3061142a60408c0160208d01614b40565b611a59565b611a56611a4860408c0160208d01614b40565b86604001518985888e613b8b565b90505b611a6485858c6133ff565b611a9d600087836020015171ffffffffffffffffffffffffffffffffffff168d6020016020810190611a969190614b40565b85516138e3565b846040015165ffffffffffff167f7c6da711ffa6af277b820416f2daab1018c73a4fb0c4a49a38c5fb292b6c0e8b8c8360000151846020015185606001518660400151611aea91906159ea565b60408051941515855271ffffffffffffffffffffffffffffffffffff9384166020860152918316848301529091166060830152519081900360800190a2611b57611b3a60408c0160208d01614b40565b8251339071ffffffffffffffffffffffffffffffffffff16612c6e565b519a9950505050505050505050565b60006108ab8383611b778587610820565b611b8087611f20565b613da5565b6060838214611bc0576040517fff633a3800000000000000000000000000000000000000000000000000000000815260040160405180910390fd5b8367ffffffffffffffff811115611bd957611bd9614d5c565b604051908082528060200260200182016040528015611c02578160200160208202803683370190505b50905060005b84811015611c7d57611c58868683818110611c2557611c256153ef565b9050602002016020810190611c3a9190614b40565b858584818110611c4c57611c4c6153ef565b90506020020135610820565b828281518110611c6a57611c6a6153ef565b6020908102919091010152600101611c08565b50949350505050565b3373ffffffffffffffffffffffffffffffffffffffff7f00000000000000000000000000000000000000000000000000000000000000001614611cc857600080fd5b60408051608080820183526002805461ffff808216855262010000808304821660208088019190915264010000000080850460ff161515888a01526501000000000080860485166060998a019081528a519889018b529c85168089529b85169288018390529915159887018990529a51909216949095018490527fffffffffffffffffffffffffffffffffffffffffffffffffffffffff0000000090911690961795909202949094177fffffffffffffffffffffffffffffffffffffffffffffffffff000000ffffffff16919094027fffffffffffffffffffffffffffffffffffffffffffffffffff0000ffffffffff16179102179055565b60003373ffffffffffffffffffffffffffffffffffffffff7f00000000000000000000000000000000000000000000000000000000000000001614611e0557600080fd5b600060405180608001604052808473ffffffffffffffffffffffffffffffffffffffff168152602001611e388587610820565b8152600060208083018290526040928301829052825160808101845260025461ffff8082168352620100008204811683850152640100000000820460ff90811615158488015265010000000000909204166060808401919091528a85528484529385902085519485018652549081168452610100810464ffffffffff1692840192909252660100000000000090910475ffffffffffffffffffffffffffffffffffffffffffff1692820192909252919250611f01916001918791611efb83613e90565b86613f01565b949350505050565b600554600090611f1b90600190615a14565b905090565b6040805160808101825260025461ffff80821683526201000082048116602080850191909152640100000000830460ff90811615158587015265010000000000909304909116606080850191909152600086815280835285812086519283018752549384168252610100840464ffffffffff1692820192909252660100000000000090920475ffffffffffffffffffffffffffffffffffffffffffff16938201939093526108ae9190611fd285613e90565b61414e565b33600081815260066020908152604080832073ffffffffffffffffffffffffffffffffffffffff87168085529083529281902080547fffffffffffffffffffffffffffffffffffffffffffffffffffffffffffffff001686151590811790915590519081529192917f17307eab39ab6107e8899845ad3d59bd9653f200f220920489ca2b5937696c31910160405180910390a35050565b3373ffffffffffffffffffffffffffffffffffffffff7f000000000000000000000000000000000000000000000000000000000000000016146120b057600080fd5b6000805b87811015612283576120f38989838181106120d1576120d16153ef565b90506020020160208101906120e69190615017565b65ffffffffffff16611f20565b91506040518060600160405280600060ff1681526020014264ffffffffff1681526020018375ffffffffffffffffffffffffffffffffffffffffffff168152506000808b8b85818110612148576121486153ef565b905060200201602081019061215d9190615017565b65ffffffffffff16815260208082019290925260409081016000208351815493850151949092015175ffffffffffffffffffffffffffffffffffffffffffff166601000000000000027fffffffff00000000000000000000000000000000000000000000ffffffffffff64ffffffffff909516610100027fffffffffffffffffffffffffffffffffffffffffffffffffffff00000000000090941660ff909316929092179290921792909216919091179055888882818110612221576122216153ef565b90506020020160208101906122369190615017565b604080516000808252602082015265ffffffffffff92909216917fc05b4c85e1a9e164c2764407bce9e5955a2e6435dea37ef8c4e62ec458ebf21a910160405180910390a26001016120b4565b5060005b85811015612482576122a48787838181106120d1576120d16153ef565b915060405180606001604052808686848181106122c3576122c36153ef565b90506020020160208101906122d89190615a27565b60ff1681526020014264ffffffffff1681526020018375ffffffffffffffffffffffffffffffffffffffffffff1681525060008089898581811061231e5761231e6153ef565b90506020020160208101906123339190615017565b65ffffffffffff16815260208082019290925260409081016000208351815493850151949092015175ffffffffffffffffffffffffffffffffffffffffffff166601000000000000027fffffffff00000000000000000000000000000000000000000000ffffffffffff64ffffffffff909516610100027fffffffffffffffffffffffffffffffffffffffffffffffffffff00000000000090941660ff9093169290921792909217929092169190911790558686828181106123f7576123f76153ef565b905060200201602081019061240c9190615017565b65ffffffffffff167fc05b4c85e1a9e164c2764407bce9e5955a2e6435dea37ef8c4e62ec458ebf21a868684818110612447576124476153ef565b905060200201602081019061245c9190615a27565b6040805160ff909216825261ffff871660208301520160405180910390a2600101612287565b50506002805461ffff90921665010000000000027fffffffffffffffffffffffffffffffffffffffffffffffffff0000ffffffffff909216919091179055505050505050565b60603373ffffffffffffffffffffffffffffffffffffffff7f0000000000000000000000000000000000000000000000000000000000000000161461250c57600080fd5b8267ffffffffffffffff81111561252557612525614d5c565b60405190808252806020026020018201604052801561254e578160200160208202803683370190505b5090506000606060005b8581101561287457868682818110612572576125726153ef565b90506020020160208101906125879190614b40565b604080513060248083019190915282518083039091018152604490910182526020810180517bffffffffffffffffffffffffffffffffffffffffffffffffffffffff167f70a0823100000000000000000000000000000000000000000000000000000000179052905173ffffffffffffffffffffffffffffffffffffffff92909216916126149190615a4a565b6000604051808303816000865af19150503d8060008114612651576040519150601f19603f3d011682016040523d82523d6000602084013e612656565b606091505b50909350915082801561266a575081516020145b1561286c57818060200190518101906126839190615a66565b848281518110612695576126956153ef565b60200260200101818152505060008482815181106126b5576126b56153ef565b6020026020010151111561286c578686828181106126d5576126d56153ef565b90506020020160208101906126ea9190614b40565b73ffffffffffffffffffffffffffffffffffffffff1663a9059cbb60e01b8686848151811061271b5761271b6153ef565b602090810291909101015160405173ffffffffffffffffffffffffffffffffffffffff90921660248301526044820152606401604080517fffffffffffffffffffffffffffffffffffffffffffffffffffffffffffffffe08184030181529181526020820180517bffffffffffffffffffffffffffffffffffffffffffffffffffffffff167fffffffff000000000000000000000000000000000000000000000000000000009094169390931790925290516127d79190615a4a565b6000604051808303816000865af19150503d8060008114612814576040519150601f19603f3d011682016040523d82523d6000602084013e612819565b606091505b5090935091508280156128445750815115806128445750818060200190518101906128449190615a7f565b92508261286c57600084828151811061285f5761285f6153ef565b6020026020010181815250505b600101612558565b5050509392505050565b604080516060810182526000808252602082018190529181019190915260058265ffffffffffff16815481106128b6576128b66153ef565b60009182526020808320604080516060810182526002909402909101805473ffffffffffffffffffffffffffffffffffffffff9081168552600190910154908116928401929092527401000000000000000000000000000000000000000090910490920b9181019190915292915050565b3073ffffffffffffffffffffffffffffffffffffffff87160361294c5761294c6153c0565b3373ffffffffffffffffffffffffffffffffffffffff8716148015906129a3575073ffffffffffffffffffffffffffffffffffffffff8616600090815260066020908152604080832033845290915290205460ff16155b156129da576040517fea8e4eb500000000000000000000000000000000000000000000000000000000815260040160405180910390fd5b6129e686868686612ddc565b604080518581526020810185905273ffffffffffffffffffffffffffffffffffffffff808816929089169133917fc3d58168c5ae7397731d063d5bbf3d657854427343f4c083240f7aacaa2d0f62910160405180910390a473ffffffffffffffffffffffffffffffffffffffff85163b15612b475773ffffffffffffffffffffffffffffffffffffffff85163014801590612b4257506040517ff23a6e61000000000000000000000000000000000000000000000000000000008082529073ffffffffffffffffffffffffffffffffffffffff87169063f23a6e6190612ada9033908b908a908a908a908a90600401615a9c565b6020604051808303816000875af1158015612af9573d6000803e3d6000fd5b505050506040513d601f19601f82011682018060405250810190612b1d9190615567565b7fffffffff000000000000000000000000000000000000000000000000000000001614155b612b60565b73ffffffffffffffffffffffffffffffffffffffff8516155b15612b97576040517f3da6393100000000000000000000000000000000000000000000000000000000815260040160405180910390fd5b505050505050565b604080516060810182526000808252602082018190528183015290517f94215a4c00000000000000000000000000000000000000000000000000000000815273__$0d913f5ea2cc8398585c34a0416dbc1ef1$__906394215a4c90612c2d906007907f0000000000000000000000000000000000000000000000000000000000000000908790600401615b00565b606060405180830381865af4158015612c4a573d6000803e3d6000fd5b505050506040513d601f19601f820116820180604052508101906108ae9190615b30565b6040805173ffffffffffffffffffffffffffffffffffffffff8481166024830152604480830185905283518084039091018152606490920183526020820180517bffffffffffffffffffffffffffffffffffffffffffffffffffffffff167fa9059cbb000000000000000000000000000000000000000000000000000000001790529151600092839290871691612d059190615a4a565b6000604051808303816000865af19150503d8060008114612d42576040519150601f19603f3d011682016040523d82523d6000602084013e612d47565b606091505b5091509150818015612d71575080511580612d71575080806020019051810190612d719190615a7f565b6117cc576040517f08c379a000000000000000000000000000000000000000000000000000000000815260206004820152600260248201527f535400000000000000000000000000000000000000000000000000000000000060448201526064015b60405180910390fd5b6040805160808101825273ffffffffffffffffffffffffffffffffffffffff808716808352600090815260036020908152848220878352815284822054908401529086169282019290925260608101612e358686610820565b90526040805160808101825260025461ffff80821683526201000082048116602080850191909152640100000000830460ff90811615158587015265010000000000909304909116606080850191909152600089815280835285812086519283018752549384168252610100840464ffffffffff1692820192909252660100000000000090920475ffffffffffffffffffffffffffffffffffffffffffff1693820193909352929350612eee92869190611efb83613e90565b508181602001818151612f019190615a14565b90525073ffffffffffffffffffffffffffffffffffffffff858116908516146117cc5760208082015173ffffffffffffffffffffffffffffffffffffffff87166000908152600383526040808220878352909352919091205560608101516117cc908590859085016142da565b65ffffffffffff831660009081526004602090815260408083208151808301909252546fffffffffffffffffffffffffffffffff808216808452700100000000000000000000000000000000909204169282019290925291901561301e5761301982600001516fffffffffffffffffffffffffffffffff168471ffffffffffffffffffffffffffffffffffff16866020015171ffffffffffffffffffffffffffffffffffff1661436c565b61302e565b61302e8685602001518501614438565b825190915061ffff6f140eb6ae00000000000000000000000004036fffffffffffffffffffffffffffffffff16811115613094576040517f6deac20700000000000000000000000000000000000000000000000000000000815260040160405180910390fd5b602082810180516fffffffffffffffffffffffffffffffff908401811682528451840181168552868301805171ffffffffffffffffffffffffffffffffffff90880116905265ffffffffffff8816600081815260048552604080822088519551851670010000000000000000000000000000000002959094169490941790925582519081529283018490523092909133917fc3d58168c5ae7397731d063d5bbf3d657854427343f4c083240f7aacaa2d0f62910160405180910390a4505050505050565b60408051608081018252600080825260208201819052918101829052606081019190915265ffffffffffff861660008181526004602090815260408083208151808301835290546fffffffffffffffffffffffffffffffff80821683527001000000000000000000000000000000009091048116828501908152338087526003865284872088885286528487205485516080810187529182529581018690523094810194909452606084018690525182519596929561322393889390928e928e929190031686613f01565b5061323b8b8b858c602001518c600001518c8c614648565b83519095506fffffffffffffffffffffffffffffffff16156132ad576132a883600001516fffffffffffffffffffffffffffffffff16866000015171ffffffffffffffffffffffffffffffffffff16896020015171ffffffffffffffffffffffffffffffffffff1661436c565b6132c1565b6132c18b8860200151876000015101614438565b835190945061ffff6f140eb6ae00000000000000000000000004036fffffffffffffffffffffffffffffffff16841115613327576040517f6deac20700000000000000000000000000000000000000000000000000000000815260040160405180910390fd5b33600081815260036020908152604080832065ffffffffffff8f16808552908352818420878a01905587516fffffffffffffffffffffffffffffffff908a01811689528a518d8501805171ffffffffffffffffffffffffffffffffffff92019190911690528185526004845282852089518a8601518316700100000000000000000000000000000000029216919091179055815190815291820188905283917fc3d58168c5ae7397731d063d5bbf3d657854427343f4c083240f7aacaa2d0f62910160405180910390a4505050965096945050505050565b602082015182510171ffffffffffffffffffffffffffffffffffff168084526002111561342b57600080fd5b815171ffffffffffffffffffffffffffffffffffff1660000361345b57677fffffffffffffff602084015261375d565b816020015171ffffffffffffffffffffffffffffffffffff166000036134a6577fffffffffffffffffffffffffffffffffffffffffffffffff8000000000000000602084015261375d565b6000806134b96060840160408501615584565b60000b12156134da576134d26060830160408401615584565b6000036134ea565b6134ea6060830160408401615584565b90506000806134ff6060850160408601615584565b60000b1315613542576020840151845171ffffffffffffffffffffffffffffffffffff918216911660ff84161b101561353a57506001613578565b506000613578565b6020840151845171ffffffffffffffffffffffffffffffffffff91821660ff85161b9116101561357457506001613578565b5060005b801561366c5760006135f7816135946060870160408801615584565b60000b12156135bd57865171ffffffffffffffffffffffffffffffffffff1660ff85161b6135d4565b865171ffffffffffffffffffffffffffffffffffff165b865171ffffffffffffffffffffffffffffffffffff1660ff861681901b01614827565b60070b905060008061360f6060870160408801615584565b60000b1215613624578360ff1682901b61362c565b8360ff1682901d5b604087015160070b019050677fffffffffffffff81131561365a57677fffffffffffffff6020880152613665565b600781900b60208801525b505061375a565b60006136e8816136826060870160408801615584565b60000b12156136a657865171ffffffffffffffffffffffffffffffffffff166136c2565b865171ffffffffffffffffffffffffffffffffffff1660ff85161b5b602087015171ffffffffffffffffffffffffffffffffffff1660ff861681901b01614827565b6040860151600791820b9250900b8190037fffffffffffffffffffffffffffffffffffffffffffffffff800000000000000081121561374c577fffffffffffffffffffffffffffffffffffffffffffffffff80000000000000006020880152613757565b600781900b60208801525b50505b50505b826007600061376f6020850185614b40565b73ffffffffffffffffffffffffffffffffffffffff1673ffffffffffffffffffffffffffffffffffffffff16815260200190815260200160002060008360200160208101906137be9190614b40565b73ffffffffffffffffffffffffffffffffffffffff1673ffffffffffffffffffffffffffffffffffffffff168152602001908152602001600020600083604001602081019061380d9190615584565b600090810b8252602080830193909352604091820190208351815493850151949092015165ffffffffffff167a0100000000000000000000000000000000000000000000000000000279ffffffffffffffffffffffffffffffffffffffffffffffffffff67ffffffffffffffff9095167201000000000000000000000000000000000000027fffffffffffff000000000000000000000000000000000000000000000000000090941671ffffffffffffffffffffffffffffffffffff909316929092179290921792909216919091179055505050565b83516000906139039085906dffffffffffffffffffffffffffff16615b7b565b90506dffffffffffffffffffffffffffff81111561392057600080fd5b6040518060400160405280826dffffffffffffffffffffffffffff1681526020018761395b578387602001516139569190615396565b61396b565b83876020015161396b91906159ea565b71ffffffffffffffffffffffffffffffffffff90811690915273ffffffffffffffffffffffffffffffffffffffff85166000818152600860209081526040918290208551868301519095166e010000000000000000000000000000026dffffffffffffffffffffffffffff95861617905590519285168352929750917fcd82d3b0662b3f7ad1373ff46ce247f38d4e9dd2419b198489e17f09b79cd93e910160405180910390a2505050505050565b6040805173ffffffffffffffffffffffffffffffffffffffff85811660248301528481166044830152606480830185905283518084039091018152608490920183526020820180517bffffffffffffffffffffffffffffffffffffffffffffffffffffffff167f23b872dd000000000000000000000000000000000000000000000000000000001790529151600092839290881691613ab99190615a4a565b6000604051808303816000865af19150503d8060008114613af6576040519150601f19603f3d011682016040523d82523d6000602084013e613afb565b606091505b5091509150818015613b25575080511580613b25575080806020019051810190613b259190615a7f565b612b97576040517f08c379a000000000000000000000000000000000000000000000000000000000815260206004820152600360248201527f53544600000000000000000000000000000000000000000000000000000000006044820152606401612dd3565b604080516080808201835260008083526020808401829052838501829052606080850183905265ffffffffffff8b16808452600483528684208751808901895290546fffffffffffffffffffffffffffffffff8082168352700100000000000000000000000000000000909104811682860190815233808852600387528a882085895287528a8820548b51998a018c52908952958801869052309988019990995292860185905296518751969796939594613c4e9490938d928d92031686613f01565b506000613c8a876020015171ffffffffffffffffffffffffffffffffffff168786600001516fffffffffffffffffffffffffffffffff1661436c565b905082861115613c9957600080fd5b33600090815260036020908152604080832065ffffffffffff8e1684528252909120878503905584518790036fffffffffffffffffffffffffffffffff168552878101805183900371ffffffffffffffffffffffffffffffffffff1690528901518851613d0d918d918d9188918c87614648565b65ffffffffffff8b16600081815260046020908152604080832089518a8401516fffffffffffffffffffffffffffffffff90811670010000000000000000000000000000000002911617905580519384529083018a905292975091339182917fc3d58168c5ae7397731d063d5bbf3d657854427343f4c083240f7aacaa2d0f62910160405180910390a4505050509695505050505050565b60003073ffffffffffffffffffffffffffffffffffffffff851603613dcc57506000611f01565b600085815260016020908152604080832073ffffffffffffffffffffffffffffffffffffffff88168452825280832081518083019092525475ffffffffffffffffffffffffffffffffffffffffffff81168252760100000000000000000000000000000000000000000000900469ffffffffffffffffffff169181019190915290849003613e5f57602001519050611f01565b8051602090910151920375ffffffffffffffffffffffffffffffffffffffffffff169290920260601c019392505050565b60008181526004602090815260408083208151808301909252546fffffffffffffffffffffffffffffffff808216808452700100000000000000000000000000000000909204169282018390529091613ee891615b8e565b6fffffffffffffffffffffffffffffffff169392505050565b600080613f0f86868661414e565b9050613f25878460000151856020015184613da5565b915060405180604001604052808275ffffffffffffffffffffffffffffffffffffffffffff16815260200189613f5b5783613f5e565b60005b69ffffffffffffffffffff9081169091526000898152600160209081526040808320885173ffffffffffffffffffffffffffffffffffffffff908116855290835292819020855195909201519093167601000000000000000000000000000000000000000000000275ffffffffffffffffffffffffffffffffffffffffffff909416939093179092558401511630146140b55760405180604001604052808275ffffffffffffffffffffffffffffffffffffffffffff16815260200161402e898660400151876060015186613da5565b69ffffffffffffffffffff90811690915260008981526001602090815260408083208882015173ffffffffffffffffffffffffffffffffffffffff1684528252909120835193909101519091167601000000000000000000000000000000000000000000000275ffffffffffffffffffffffffffffffffffffffffffff9092169190911790555b60009687526020879052604090962080547fffffffff000000000000000000000000000000000000000000000000000000ff16660100000000000075ffffffffffffffffffffffffffffffffffffffffffff909816979097027fffffffffffffffffffffffffffffffffffffffffffffffffffff0000000000ff16969096176101004264ffffffffff1602179095555092949350505050565b6040820151825160ff161580159061417857504264ffffffffff16836020015164ffffffffff1614155b801561418357508115155b15610a7d57836060015161ffff16836000015160ff1611156141a7576141a76153c0565b60208301517f00000000000000000000000000000000000000000000000000000000000000006305a39a800164ffffffffff8082169083161015614250576060860151855160009161ffff169060ff166527d6140eb6ae028161420c5761420c615b4c565b0490508460608464ffffffffff168464ffffffffff16421161422e5742614237565b8464ffffffffff165b038302901b8161424957614249615b4c565b0484019350505b8064ffffffffff164264ffffffffff1611156142d1576060860151855160009161ffff169060ff16653a1cc4899936028161428d5761428d615b4c565b0490508460608364ffffffffff168564ffffffffff16116142ae57836142b0565b845b64ffffffffff1642038302901b816142ca576142ca615b4c565b0484019350505b50509392505050565b3073ffffffffffffffffffffffffffffffffffffffff84160361433857600082815260046020526040902080546fffffffffffffffffffffffffffffffff808416700100000000000000000000000000000000029116179055505050565b73ffffffffffffffffffffffffffffffffffffffff9290921660009081526003602090815260408083209383529290522055565b600080807fffffffffffffffffffffffffffffffffffffffffffffffffffffffffffffffff858709858702925082811083820303915050806000036143c357600084116143b857600080fd5b508290049050610a7d565b8084116143cf57600080fd5b60008486880960026001871981018816978890046003810283188082028403028082028403028082028403028082028403028082028403029081029092039091026000889003889004909101858311909403939093029303949094049190911702949350505050565b6000808373ffffffffffffffffffffffffffffffffffffffff166318160ddd6040518163ffffffff1660e01b8152600401602060405180830381865afa158015614486573d6000803e3d6000fd5b505050506040513d601f19601f820116820180604052508101906144aa9190615a66565b905061ffff606067016345785d8a00006301e1338060016144cd600c600a615cd9565b6144db9063781a75c0615ce8565b6144e59190615a14565b6144ef9190615cff565b6144fa906001615d31565b6145169068ffffffffffffffffff1666f38a31408ae338615ce8565b6145209190615d52565b68ffffffffffffffffff166fffffffffffffffffffffffffffffffff16901b6145499190615d66565b6fffffffffffffffffffffffffffffffff16811161457b578271ffffffffffffffffffffffffffffffffffff16611f01565b611f0161ffff606067016345785d8a00006301e13380600161459f600c600a615cd9565b6145ad9063781a75c0615ce8565b6145b79190615a14565b6145c19190615cff565b6145cc906001615d31565b6145e89068ffffffffffffffffff1666f38a31408ae338615ce8565b6145f29190615d52565b68ffffffffffffffffff166fffffffffffffffffffffffffffffffff16901b61461b9190615d66565b6fffffffffffffffffffffffffffffffff168471ffffffffffffffffffffffffffffffffffff168361436c565b60408051608081018252600080825260208201819052918101829052606081019190915261467782868661496b565b604081015160208501805190910171ffffffffffffffffffffffffffffffffffff16905286519091506000906fffffffffffffffffffffffffffffffff16156147105761470b87600001516fffffffffffffffffffffffffffffffff16836060015171ffffffffffffffffffffffffffffffffffff16866020015171ffffffffffffffffffffffffffffffffffff1661436c565b614724565b614724898560200151846060015101614438565b875190915061ffff6f140eb6ae00000000000000000000000004036fffffffffffffffffffffffffffffffff1681111561478a576040517f6deac20700000000000000000000000000000000000000000000000000000000815260040160405180910390fd5b6020878101805183016fffffffffffffffffffffffffffffffff908116909152885183011688526060830151858201805190910171ffffffffffffffffffffffffffffffffffff1690526040805165ffffffffffff8b168152918201839052309160009133917fc3d58168c5ae7397731d063d5bbf3d657854427343f4c083240f7aacaa2d0f62910160405180910390a450979650505050505050565b600081831015614839576148396153c0565b81600003614849576148496153c0565b600082848161485a5761485a615b4c565b0490506fffffffffffffffffffffffffffffffff811160071b81811c67ffffffffffffffff811160061b90811c63ffffffff811160051b90811c61ffff811160041b90811c60ff8111600390811b91821c600f811160021b90811c918211600190811b92831c979088119617909417909217179091171717608081106148e857607f810383901c91506148fc565b6148f98682607f0360020a8761436c565b91505b603781901b60015b6037811161493957838402607f1c93508360801c80826037031b8317925084811c9450508061493290615da6565b9050614904565b5060c061495e8277d89e8c075c4155dd3213326cbbcf86fd1f63f5c205dd2ad2615ce8565b901c979650505050505050565b60408051608081018252600080825260208201819052918101829052606081019190915261271061ffff841681018071ffffffffffffffffffffffffffffffffffff87168302816149be576149be615b4c565b0471ffffffffffffffffffffffffffffffffffff9081168085526109f69703811660ff95909516850296909604861660208401819052600a850487166060850181905294039390930390941660408201529392505050565b73ffffffffffffffffffffffffffffffffffffffff81168114614a3857600080fd5b50565b60008060408385031215614a4e57600080fd5b8235614a5981614a16565b946020939093013593505050565b7fffffffff0000000000000000000000000000000000000000000000000000000081168114614a3857600080fd5b600060208284031215614aa757600080fd5b8135610a7d81614a67565b600060208284031215614ac457600080fd5b5035919050565b60005b83811015614ae6578181015183820152602001614ace565b50506000910152565b6020815260008251806020840152614b0e816040850160208701614acb565b601f017fffffffffffffffffffffffffffffffffffffffffffffffffffffffffffffffe0169190910160400192915050565b600060208284031215614b5257600080fd5b8135610a7d81614a16565b60008083601f840112614b6f57600080fd5b50813567ffffffffffffffff811115614b8757600080fd5b6020830191508360208260051b8501011115614ba257600080fd5b9250929050565b60008083601f840112614bbb57600080fd5b50813567ffffffffffffffff811115614bd357600080fd5b602083019150836020828501011115614ba257600080fd5b60008060008060008060008060a0898b031215614c0757600080fd5b8835614c1281614a16565b97506020890135614c2281614a16565b9650604089013567ffffffffffffffff811115614c3e57600080fd5b614c4a8b828c01614b5d565b909750955050606089013567ffffffffffffffff811115614c6a57600080fd5b614c768b828c01614b5d565b909550935050608089013567ffffffffffffffff811115614c9657600080fd5b614ca28b828c01614ba9565b999c989b5096995094979396929594505050565b600060608284031215610c6657600080fd5b600060608284031215614cda57600080fd5b6108ab8383614cb6565b8015158114614a3857600080fd5b71ffffffffffffffffffffffffffffffffffff81168114614a3857600080fd5b600080600060a08486031215614d2757600080fd5b8335614d3281614ce4565b9250614d418560208601614cb6565b91506080840135614d5181614cf2565b809150509250925092565b7f4e487b7100000000000000000000000000000000000000000000000000000000600052604160045260246000fd5b6040516060810167ffffffffffffffff81118282101715614dae57614dae614d5c565b60405290565b6040805190810167ffffffffffffffff81118282101715614dae57614dae614d5c565b604051601f82017fffffffffffffffffffffffffffffffffffffffffffffffffffffffffffffffe016810167ffffffffffffffff81118282101715614e1e57614e1e614d5c565b604052919050565b8035600081900b8114614e3857600080fd5b919050565b60006060828403128015614e5057600080fd5b50614e59614d8b565b8235614e6481614a16565b81526020830135614e7481614a16565b6020820152614e8560408401614e26565b60408201529392505050565b600080600060a08486031215614ea657600080fd5b8335614eb181614ce4565b9250614ec08560208601614cb6565b929592945050506080919091013590565b60008060408385031215614ee457600080fd5b823591506020830135614ef681614a16565b809150509250929050565b60008060008060408587031215614f1757600080fd5b843567ffffffffffffffff811115614f2e57600080fd5b614f3a87828801614b5d565b909550935050602085013567ffffffffffffffff811115614f5a57600080fd5b614f6687828801614b5d565b95989497509550505050565b602080825282518282018190526000918401906040840190835b81811015614faa578351835260209384019390920191600101614f8c565b509095945050505050565b803561ffff81168114614e3857600080fd5b600080600060608486031215614fdc57600080fd5b614fe584614fb5565b9250614ff360208501614fb5565b91506040840135614d5181614ce4565b65ffffffffffff81168114614a3857600080fd5b60006020828403121561502957600080fd5b8135610a7d81615003565b6000806040838503121561504757600080fd5b823561505281614a16565b91506020830135614ef681614ce4565b60008060008060008060006080888a03121561507d57600080fd5b873567ffffffffffffffff81111561509457600080fd5b6150a08a828b01614b5d565b909850965050602088013567ffffffffffffffff8111156150c057600080fd5b6150cc8a828b01614b5d565b909650945050604088013567ffffffffffffffff8111156150ec57600080fd5b6150f88a828b01614b5d565b909450925061510b905060608901614fb5565b905092959891949750929550565b60008060006040848603121561512e57600080fd5b833567ffffffffffffffff81111561514557600080fd5b61515186828701614b5d565b9094509250506020840135614d5181614a16565b606081016108ae828473ffffffffffffffffffffffffffffffffffffffff815116825273ffffffffffffffffffffffffffffffffffffffff6020820151166020830152604081015160000b60408301525050565b600080604083850312156151cc57600080fd5b82356151d781614a16565b91506020830135614ef681614a16565b60008060008060008060a0878903121561520057600080fd5b863561520b81614a16565b9550602087013561521b81614a16565b94506040870135935060608701359250608087013567ffffffffffffffff81111561524557600080fd5b61525189828a01614ba9565b979a9699509497509295939492505050565b606081016108ae828471ffffffffffffffffffffffffffffffffffff815116825271ffffffffffffffffffffffffffffffffffff6020820151166020830152604081015160070b60408301525050565b6000602082840312156152c557600080fd5b815167ffffffffffffffff8111156152dc57600080fd5b8201601f810184136152ed57600080fd5b805167ffffffffffffffff81111561530757615307614d5c565b61533860207fffffffffffffffffffffffffffffffffffffffffffffffffffffffffffffffe0601f84011601614dd7565b81815285602083850101111561534d57600080fd5b61535e826020830160208601614acb565b95945050505050565b7f4e487b7100000000000000000000000000000000000000000000000000000000600052601160045260246000fd5b71ffffffffffffffffffffffffffffffffffff82811682821603908111156108ae576108ae615367565b7f4e487b7100000000000000000000000000000000000000000000000000000000600052600160045260246000fd5b7f4e487b7100000000000000000000000000000000000000000000000000000000600052603260045260246000fd5b81835260007f07ffffffffffffffffffffffffffffffffffffffffffffffffffffffffffffff83111561545057600080fd5b8260051b80836020870137939093016020019392505050565b60408152600061547d60408301868861541e565b828103602084015261549081858761541e565b979650505050505050565b8183528181602085013750600060208284010152600060207fffffffffffffffffffffffffffffffffffffffffffffffffffffffffffffffe0601f840116840101905092915050565b73ffffffffffffffffffffffffffffffffffffffff8916815273ffffffffffffffffffffffffffffffffffffffff8816602082015260a06040820152600061553060a08301888a61541e565b828103606084015261554381878961541e565b9050828103608084015261555881858761549b565b9b9a5050505050505050505050565b60006020828403121561557957600080fd5b8151610a7d81614a67565b60006020828403121561559657600080fd5b6108ab82614e26565b80356155aa81614a16565b73ffffffffffffffffffffffffffffffffffffffff16825260208101356155d081614a16565b73ffffffffffffffffffffffffffffffffffffffff1660208301526155f760408201614e26565b60000b60408301525050565b8515158152602081018590526040810184905273ffffffffffffffffffffffffffffffffffffffff8316606082015260e08101615643608083018461559f565b9695505050505050565b8051600781900b8114614e3857600080fd5b60006060828403121561567157600080fd5b615679614d8b565b9050815161568681614cf2565b8152602082015161569681614cf2565b60208201526156a76040830161564d565b604082015292915050565b8051614e3881614a16565b6000806000808486036101208112156156d557600080fd5b60408112156156e357600080fd5b6156eb614db4565b86516dffffffffffffffffffffffffffff8116811461570957600080fd5b8152602087015161571981614cf2565b6020820152945060607fffffffffffffffffffffffffffffffffffffffffffffffffffffffffffffffc08201121561575057600080fd5b50615759614d8b565b604086015161576781614cf2565b81526157756060870161564d565b6020820152608086015161578881615003565b6040820152925061579c8660a0870161565f565b91506157ab61010086016156b2565b905092959194509250565b73ffffffffffffffffffffffffffffffffffffffff8616815261ffff8516602082015260ff8416604082015260e08101615835606083018571ffffffffffffffffffffffffffffffffffff815116825271ffffffffffffffffffffffffffffffffffff6020820151166020830152604081015160070b60408301525050565b71ffffffffffffffffffffffffffffffffffff831660c08301529695505050505050565b60006080828403121561586b57600080fd5b6040516080810167ffffffffffffffff8111828210171561588e5761588e614d5c565b806040525080915082516158a181614cf2565b815260208301516158b181614cf2565b602082015260408301516158c481614cf2565b604082015260608301516158d781614cf2565b6060919091015292915050565b600080600061010084860312156158fa57600080fd5b615904858561565f565b92506159138560608601615859565b60e0949094015192959394509192915050565b73ffffffffffffffffffffffffffffffffffffffff8616815261ffff8516602082015260ff8416604082015260e081016159a5606083018571ffffffffffffffffffffffffffffffffffff815116825271ffffffffffffffffffffffffffffffffffff6020820151166020830152604081015160070b60408301525050565b8260c08301529695505050505050565b60008060e083850312156159c857600080fd5b6159d2848461565f565b91506159e18460608501615859565b90509250929050565b71ffffffffffffffffffffffffffffffffffff81811683821601908111156108ae576108ae615367565b818103818111156108ae576108ae615367565b600060208284031215615a3957600080fd5b813560ff81168114610a7d57600080fd5b60008251615a5c818460208701614acb565b9190910192915050565b600060208284031215615a7857600080fd5b5051919050565b600060208284031215615a9157600080fd5b8151610a7d81614ce4565b73ffffffffffffffffffffffffffffffffffffffff8716815273ffffffffffffffffffffffffffffffffffffffff8616602082015284604082015283606082015260a060808201526000615af460a08301848661549b565b98975050505050505050565b83815273ffffffffffffffffffffffffffffffffffffffff8316602082015260a08101611f01604083018461559f565b600060608284031215615b4257600080fd5b6108ab838361565f565b7f4e487b7100000000000000000000000000000000000000000000000000000000600052601260045260246000fd5b808201808211156108ae576108ae615367565b6fffffffffffffffffffffffffffffffff82811682821603908111156108ae576108ae615367565b6001815b6001841115615bf157808504811115615bd557615bd5615367565b6001841615615be357908102905b60019390931c928002615bba565b935093915050565b600082615c08575060016108ae565b81615c15575060006108ae565b8160018114615c2b5760028114615c3557615c51565b60019150506108ae565b60ff841115615c4657615c46615367565b50506001821b6108ae565b5060208310610133831016604e8410600b8410161715615c74575081810a6108ae565b615c9f7fffffffffffffffffffffffffffffffffffffffffffffffffffffffffffffffff8484615bb6565b807fffffffffffffffffffffffffffffffffffffffffffffffffffffffffffffffff04821115615cd157615cd1615367565b029392505050565b60006108ab60ff841683615bf9565b80820281158282048414176108ae576108ae615367565b600068ffffffffffffffffff831680615d1a57615d1a615b4c565b8068ffffffffffffffffff84160491505092915050565b68ffffffffffffffffff81811683821601908111156108ae576108ae615367565b600082615d6157615d61615b4c565b500490565b60006fffffffffffffffffffffffffffffffff831680615d8857615d88615b4c565b806fffffffffffffffffffffffffffffffff84160491505092915050565b60007fffffffffffffffffffffffffffffffffffffffffffffffffffffffffffffffff8203615dd757615dd7615367565b506001019056fea2646970667358221220687f78011f32927a25ee4980a153b74656ae1568a0bfc001a2abe03c7b4823bf64736f6c634300081a0033","linkReferences":{"src/libraries/VaultExternal.sol":{"VaultExternal":[{"start":3125,"length":20},{"start":5226,"length":20},{"start":6587,"length":20},{"start":6785,"length":20},{"start":11800,"length":20}]}}},"methodIdentifiers":{"TIMESTAMP_ISSUANCE_START()":"410cd41a","balanceOf(address,uint256)":"00fdd58e","balanceOfBatch(address[],uint256[])":"4e1273f4","burn(bool,(address,address,int8),uint256)":"3fc62188","claimSIR(uint256,address)":"777b1d43","collateralStates(address)":"61086e43","cumulativeSIRPerTEA(uint256)":"7a4996e8","getReserves((address,address,int8))":"fbd98edf","initialize((address,address,int8))":"3aa88670","isApprovedForAll(address,address)":"e985e9c5","mint(bool,(address,address,int8),uint144)":"32eaa625","numberOfVaults()":"7a32af78","paramsById(uint48)":"d2f3fd09","safeBatchTransferFrom(address,address,uint256[],uint256[],bytes)":"2eb2c2d6","safeTransferFrom(address,address,uint256,uint256,bytes)":"f242432a","setApprovalForAll(address,bool)":"a22cb465","supportsInterface(bytes4)":"01ffc9a7","systemParams()":"458e8e6b","totalSupply(uint256)":"bd85b039","unclaimedRewards(uint256,address)":"46f90748","updateSystemState(uint16,uint16,bool)":"5ab2cef4","updateVaults(uint48[],uint48[],uint8[],uint16)":"bb147c54","uri(uint256)":"0e89341c","vaultStates((address,address,int8))":"2edf3104","vaultTax(uint48)":"6cfcac04","withdrawFees(address)":"164e68de","withdrawToSaveSystem(address[],address)":"c7c3d2dc"},"id":85}