{"abi":[{"type":"constructor","inputs":[{"name":"systemControl","type":"address","internalType":"address"},{"name":"sir","type":"address","internalType":"address"},{"name":"oracle","type":"address","internalType":"address"},{"name":"apeImplementation","type":"address","internalType":"address"},{"name":"weth","type":"address","internalType":"address"}],"stateMutability":"nonpayable"},{"type":"function","name":"TIMESTAMP_ISSUANCE_START","inputs":[],"outputs":[{"name":"","type":"uint40","internalType":"uint40"}],"stateMutability":"view"},{"type":"function","name":"balanceOf","inputs":[{"name":"account","type":"address","internalType":"address"},{"name":"vaultId","type":"uint256","internalType":"uint256"}],"outputs":[{"name":"","type":"uint256","internalType":"uint256"}],"stateMutability":"view"},{"type":"function","name":"balanceOfBatch","inputs":[{"name":"owners","type":"address[]","internalType":"address[]"},{"name":"vaultIds","type":"uint256[]","internalType":"uint256[]"}],"outputs":[{"name":"balances_","type":"uint256[]","internalType":"uint256[]"}],"stateMutability":"view"},{"type":"function","name":"burn","inputs":[{"name":"isAPE","type":"bool","internalType":"bool"},{"name":"vaultParams","type":"tuple","internalType":"struct SirStructs.VaultParameters","components":[{"name":"debtToken","type":"address","internalType":"address"},{"name":"collateralToken","type":"address","internalType":"address"},{"name":"leverageTier","type":"int8","internalType":"int8"}]},{"name":"amount","type":"uint256","internalType":"uint256"}],"outputs":[{"name":"","type":"uint144","internalType":"uint144"}],"stateMutability":"nonpayable"},{"type":"function","name":"claimSIR","inputs":[{"name":"vaultId","type":"uint256","internalType":"uint256"},{"name":"lper","type":"address","internalType":"address"}],"outputs":[{"name":"","type":"uint80","internalType":"uint80"}],"stateMutability":"nonpayable"},{"type":"function","name":"cumulativeSIRPerTEA","inputs":[{"name":"vaultId","type":"uint256","internalType":"uint256"}],"outputs":[{"name":"cumulativeSIRPerTEAx96","type":"uint176","internalType":"uint176"}],"stateMutability":"view"},{"type":"function","name":"getReserves","inputs":[{"name":"vaultParams","type":"tuple","internalType":"struct SirStructs.VaultParameters","components":[{"name":"debtToken","type":"address","internalType":"address"},{"name":"collateralToken","type":"address","internalType":"address"},{"name":"leverageTier","type":"int8","internalType":"int8"}]}],"outputs":[{"name":"","type":"tuple","internalType":"struct SirStructs.Reserves","components":[{"name":"reserveApes","type":"uint144","internalType":"uint144"},{"name":"reserveLPers","type":"uint144","internalType":"uint144"},{"name":"tickPriceX42","type":"int64","internalType":"int64"}]}],"stateMutability":"view"},{"type":"function","name":"initialize","inputs":[{"name":"vaultParams","type":"tuple","internalType":"struct SirStructs.VaultParameters","components":[{"name":"debtToken","type":"address","internalType":"address"},{"name":"collateralToken","type":"address","internalType":"address"},{"name":"leverageTier","type":"int8","internalType":"int8"}]}],"outputs":[],"stateMutability":"nonpayable"},{"type":"function","name":"isApprovedForAll","inputs":[{"name":"","type":"address","internalType":"address"},{"name":"","type":"address","internalType":"address"}],"outputs":[{"name":"","type":"bool","internalType":"bool"}],"stateMutability":"view"},{"type":"function","name":"mint","inputs":[{"name":"isAPE","type":"bool","internalType":"bool"},{"name":"vaultParams","type":"tuple","internalType":"struct SirStructs.VaultParameters","components":[{"name":"debtToken","type":"address","internalType":"address"},{"name":"collateralToken","type":"address","internalType":"address"},{"name":"leverageTier","type":"int8","internalType":"int8"}]},{"name":"collateralToDeposit","type":"uint144","internalType":"uint144"}],"outputs":[{"name":"amount","type":"uint256","internalType":"uint256"}],"stateMutability":"payable"},{"type":"function","name":"numberOfVaults","inputs":[],"outputs":[{"name":"","type":"uint48","internalType":"uint48"}],"stateMutability":"view"},{"type":"function","name":"paramsById","inputs":[{"name":"vaultId","type":"uint48","internalType":"uint48"}],"outputs":[{"name":"","type":"tuple","internalType":"struct SirStructs.VaultParameters","components":[{"name":"debtToken","type":"address","internalType":"address"},{"name":"collateralToken","type":"address","internalType":"address"},{"name":"leverageTier","type":"int8","internalType":"int8"}]}],"stateMutability":"view"},{"type":"function","name":"safeBatchTransferFrom","inputs":[{"name":"from","type":"address","internalType":"address"},{"name":"to","type":"address","internalType":"address"},{"name":"vaultIds","type":"uint256[]","internalType":"uint256[]"},{"name":"amounts","type":"uint256[]","internalType":"uint256[]"},{"name":"data","type":"bytes","internalType":"bytes"}],"outputs":[],"stateMutability":"nonpayable"},{"type":"function","name":"safeTransferFrom","inputs":[{"name":"from","type":"address","internalType":"address"},{"name":"to","type":"address","internalType":"address"},{"name":"vaultId","type":"uint256","internalType":"uint256"},{"name":"amount","type":"uint256","internalType":"uint256"},{"name":"data","type":"bytes","internalType":"bytes"}],"outputs":[],"stateMutability":"nonpayable"},{"type":"function","name":"setApprovalForAll","inputs":[{"name":"operator","type":"address","internalType":"address"},{"name":"approved","type":"bool","internalType":"bool"}],"outputs":[],"stateMutability":"nonpayable"},{"type":"function","name":"supportsInterface","inputs":[{"name":"interfaceId","type":"bytes4","internalType":"bytes4"}],"outputs":[{"name":"","type":"bool","internalType":"bool"}],"stateMutability":"pure"},{"type":"function","name":"systemParams","inputs":[],"outputs":[{"name":"systemParams_","type":"tuple","internalType":"struct SirStructs.SystemParameters","components":[{"name":"baseFee","type":"tuple","internalType":"struct SirStructs.FeeStructure","components":[{"name":"fee","type":"uint16","internalType":"uint16"},{"name":"feeNew","type":"uint16","internalType":"uint16"},{"name":"timestampUpdate","type":"uint40","internalType":"uint40"}]},{"name":"lpFee","type":"tuple","internalType":"struct SirStructs.FeeStructure","components":[{"name":"fee","type":"uint16","internalType":"uint16"},{"name":"feeNew","type":"uint16","internalType":"uint16"},{"name":"timestampUpdate","type":"uint40","internalType":"uint40"}]},{"name":"mintingStopped","type":"bool","internalType":"bool"},{"name":"cumulativeTax","type":"uint16","internalType":"uint16"}]}],"stateMutability":"view"},{"type":"function","name":"totalReserves","inputs":[{"name":"collateral","type":"address","internalType":"address"}],"outputs":[{"name":"","type":"uint256","internalType":"uint256"}],"stateMutability":"view"},{"type":"function","name":"totalSupply","inputs":[{"name":"vaultId","type":"uint256","internalType":"uint256"}],"outputs":[{"name":"","type":"uint256","internalType":"uint256"}],"stateMutability":"view"},{"type":"function","name":"unclaimedRewards","inputs":[{"name":"vaultId","type":"uint256","internalType":"uint256"},{"name":"lper","type":"address","internalType":"address"}],"outputs":[{"name":"","type":"uint80","internalType":"uint80"}],"stateMutability":"view"},{"type":"function","name":"updateSystemState","inputs":[{"name":"baseFee","type":"uint16","internalType":"uint16"},{"name":"lpFee","type":"uint16","internalType":"uint16"},{"name":"mintingStopped","type":"bool","internalType":"bool"}],"outputs":[],"stateMutability":"nonpayable"},{"type":"function","name":"updateVaults","inputs":[{"name":"oldVaults","type":"uint48[]","internalType":"uint48[]"},{"name":"newVaults","type":"uint48[]","internalType":"uint48[]"},{"name":"newTaxes","type":"uint8[]","internalType":"uint8[]"},{"name":"cumulativeTax","type":"uint16","internalType":"uint16"}],"outputs":[],"stateMutability":"nonpayable"},{"type":"function","name":"uri","inputs":[{"name":"vaultId","type":"uint256","internalType":"uint256"}],"outputs":[{"name":"","type":"string","internalType":"string"}],"stateMutability":"view"},{"type":"function","name":"vaultStates","inputs":[{"name":"vaultParams","type":"tuple","internalType":"struct SirStructs.VaultParameters","components":[{"name":"debtToken","type":"address","internalType":"address"},{"name":"collateralToken","type":"address","internalType":"address"},{"name":"leverageTier","type":"int8","internalType":"int8"}]}],"outputs":[{"name":"","type":"tuple","internalType":"struct SirStructs.VaultState","components":[{"name":"reserve","type":"uint144","internalType":"uint144"},{"name":"tickPriceSatX42","type":"int64","internalType":"int64"},{"name":"vaultId","type":"uint48","internalType":"uint48"}]}],"stateMutability":"view"},{"type":"function","name":"vaultTax","inputs":[{"name":"vaultId","type":"uint48","internalType":"uint48"}],"outputs":[{"name":"","type":"uint8","internalType":"uint8"}],"stateMutability":"view"},{"type":"function","name":"withdrawFees","inputs":[{"name":"token","type":"address","internalType":"address"}],"outputs":[{"name":"totalFeesToStakers","type":"uint256","internalType":"uint256"}],"stateMutability":"nonpayable"},{"type":"function","name":"withdrawToSaveSystem","inputs":[{"name":"tokens","type":"address[]","internalType":"address[]"},{"name":"to","type":"address","internalType":"address"}],"outputs":[{"name":"amounts","type":"uint256[]","internalType":"uint256[]"}],"stateMutability":"nonpayable"},{"type":"event","name":"ApprovalForAll","inputs":[{"name":"account","type":"address","indexed":true,"internalType":"address"},{"name":"operator","type":"address","indexed":true,"internalType":"address"},{"name":"approved","type":"bool","indexed":false,"internalType":"bool"}],"anonymous":false},{"type":"event","name":"Burn","inputs":[{"name":"vaultId","type":"uint48","indexed":true,"internalType":"uint48"},{"name":"isAPE","type":"bool","indexed":false,"internalType":"bool"},{"name":"collateralWithdrawn","type":"uint144","indexed":false,"internalType":"uint144"},{"name":"collateralFeeToStakers","type":"uint144","indexed":false,"internalType":"uint144"},{"name":"collateralFeeToLPers","type":"uint144","indexed":false,"internalType":"uint144"}],"anonymous":false},{"type":"event","name":"Mint","inputs":[{"name":"vaultId","type":"uint48","indexed":true,"internalType":"uint48"},{"name":"isAPE","type":"bool","indexed":false,"internalType":"bool"},{"name":"collateralIn","type":"uint144","indexed":false,"internalType":"uint144"},{"name":"collateralFeeToStakers","type":"uint144","indexed":false,"internalType":"uint144"},{"name":"collateralFeeToLPers","type":"uint144","indexed":false,"internalType":"uint144"}],"anonymous":false},{"type":"event","name":"TransferBatch","inputs":[{"name":"operator","type":"address","indexed":true,"internalType":"address"},{"name":"from","type":"address","indexed":true,"internalType":"address"},{"name":"to","type":"address","indexed":true,"internalType":"address"},{"name":"vaultIds","type":"uint256[]","indexed":false,"internalType":"uint256[]"},{"name":"amounts","type":"uint256[]","indexed":false,"internalType":"uint256[]"}],"anonymous":false},{"type":"event","name":"TransferSingle","inputs":[{"name":"operator","type":"address","indexed":true,"internalType":"address"},{"name":"from","type":"address","indexed":true,"internalType":"address"},{"name":"to","type":"address","indexed":true,"internalType":"address"},{"name":"id","type":"uint256","indexed":false,"internalType":"uint256"},{"name":"amount","type":"uint256","indexed":false,"internalType":"uint256"}],"anonymous":false},{"type":"event","name":"URI","inputs":[{"name":"value","type":"string","indexed":false,"internalType":"string"},{"name":"id","type":"uint256","indexed":true,"internalType":"uint256"}],"anonymous":false},{"type":"event","name":"VaultNewTax","inputs":[{"name":"vault","type":"uint48","indexed":true,"internalType":"uint48"},{"name":"tax","type":"uint8","indexed":false,"internalType":"uint8"},{"name":"cumulativeTax","type":"uint16","indexed":false,"internalType":"uint16"}],"anonymous":false},{"type":"error","name":"AmountTooLow","inputs":[]},{"type":"error","name":"LengthMismatch","inputs":[]},{"type":"error","name":"NotAWETHVault","inputs":[]},{"type":"error","name":"NotAuthorized","inputs":[]},{"type":"error","name":"TEAMaxSupplyExceeded","inputs":[]},{"type":"error","name":"UnsafeRecipient","inputs":[]}],"bytecode":{"object":"0x61014060405234801561001157600080fd5b50604051615d97380380615d978339810160408190526100309161020e565b6001600160a01b03948516608090815264ffffffffff42811660a090815295871660c09081526040805160e08082018352610bb895820195865260009982018a90529281018990529384528051606081810183526103dd825260208281018b81528385018c81528289018590528886018d90528389018d9052975180516002805483860151938901518b1664010000000090810264ffffffffff60201b1961ffff9687166201000090810263ffffffff199586169789169790971796909617811691909117845598516003805497519e51909d169091029c85169093029416919092161791909117909316969096179094556004805462ffffff1916905596891690915293871661010052918616610120528251918201835284825281018481529181018481526007805460018101825595529051939092027fa66cc928b5edb82af9bd49922954155ab7b0942694bea4ce44661d9a8736c688810180549486166001600160a01b031990951694909417909355517fa66cc928b5edb82af9bd49922954155ab7b0942694bea4ce44661d9a8736c6899092018054915160ff16600160a01b026001600160a81b03199092169290931691909117179055610273565b80516001600160a01b038116811461020957600080fd5b919050565b600080600080600060a0868803121561022657600080fd5b61022f866101f2565b945061023d602087016101f2565b935061024b604087016101f2565b9250610259606087016101f2565b9150610267608087016101f2565b90509295509295909350565b60805160a05160c05160e0516101005161012051615a9661030160003960008181610f2d0152610faf0152600061163e0152600081816110bc015281816115ec015281816117230152612cb101526000818161098801528181610a6a0152611f0001526000818161036b01526140cb015260008181611d260152818161213801526125900152615a966000f3fe6080604052600436106101ab5760003560e01c80635ab2cef4116100ec578063bb147c541161008a578063d2f3fd0911610064578063d2f3fd0914610659578063e985e9c514610686578063f242432a146106c1578063fbd98edf146106e157600080fd5b8063bb147c54146105da578063bd85b039146105fa578063c7c3d2dc1461063957600080fd5b8063777b1d43116100c6578063777b1d43146105275780637a32af78146105475780637a4996e814610573578063a22cb465146105ba57600080fd5b80635ab2cef4146104905780636cfcac04146104b05780636d0800bc146104fa57600080fd5b806332eaa62511610159578063410cd41a11610133578063410cd41a14610359578063458e8e6b146103a357806346f90748146104285780634e1273f41461046357600080fd5b806332eaa625146102e35780633aa88670146102f65780633fc621881461031657600080fd5b8063164e68de1161018a578063164e68de146102405780632eb2c2d6146102605780632edf31041461028257600080fd5b8062fdd58e146101b057806301ffc9a7146101e35780630e89341c14610213575b600080fd5b3480156101bc57600080fd5b506101d06101cb366004614758565b61070e565b6040519081526020015b60405180910390f35b3480156101ef57600080fd5b506102036101fe3660046147b2565b6107a2565b60405190151581526020016101da565b34801561021f57600080fd5b5061023361022e3660046147cf565b610883565b6040516101da919061480c565b34801561024c57600080fd5b506101d061025b36600461485d565b61096e565b34801561026c57600080fd5b5061028061027b366004614908565b610a94565b005b34801561028e57600080fd5b506102a261029d3660046149eb565b610db9565b60408051825171ffffffffffffffffffffffffffffffffffff16815260208084015160070b908201529181015165ffffffffffff16908201526060016101da565b6101d06102f1366004614a35565b610f0e565b34801561030257600080fd5b50610280610311366004614b38565b61157d565b34801561032257600080fd5b50610336610331366004614b8c565b6116b7565b60405171ffffffffffffffffffffffffffffffffffff90911681526020016101da565b34801561036557600080fd5b5061038d7f000000000000000000000000000000000000000000000000000000000000000081565b60405164ffffffffff90911681526020016101da565b3480156103af57600080fd5b506103b8611a62565b604080518251805161ffff90811683526020808301518216818501529184015164ffffffffff90811684860152828601518051831660608087019190915293810151831660808601528501511660a084015292840151151560c0830152909201511660e0820152610100016101da565b34801561043457600080fd5b50610448610443366004614bcc565b611bee565b60405169ffffffffffffffffffff90911681526020016101da565b34801561046f57600080fd5b5061048361047e366004614bfc565b611c0d565b6040516101da9190614c6d565b34801561049c57600080fd5b506102806104ab366004614cc2565b611d0e565b3480156104bc57600080fd5b506104e86104cb366004614d12565b65ffffffffffff1660009081526020819052604090205460ff1690565b60405160ff90911681526020016101da565b34801561050657600080fd5b506101d061051536600461485d565b600a6020526000908152604090205481565b34801561053357600080fd5b50610448610542366004614bcc565b611ee6565b34801561055357600080fd5b5061055c611ff7565b60405165ffffffffffff90911681526020016101da565b34801561057f57600080fd5b5061059361058e3660046147cf565b61200e565b60405175ffffffffffffffffffffffffffffffffffffffffffff90911681526020016101da565b3480156105c657600080fd5b506102806105d5366004614d2f565b612089565b3480156105e657600080fd5b506102806105f5366004614d5d565b612120565b34801561060657600080fd5b506101d06106153660046147cf565b6000908152600660205260409020546fffffffffffffffffffffffffffffffff1690565b34801561064557600080fd5b50610483610654366004614e14565b612576565b34801561066557600080fd5b50610679610674366004614d12565b61292c565b6040516101da9190614e60565b34801561069257600080fd5b506102036106a1366004614eb4565b600860209081526000928352604080842090915290825290205460ff1681565b3480156106cd57600080fd5b506102806106dc366004614ee2565b6129d5565b3480156106ed57600080fd5b506107016106fc3660046149eb565b612c4d565b6040516101da9190614f5e565b600073ffffffffffffffffffffffffffffffffffffffff831630146107635773ffffffffffffffffffffffffffffffffffffffff83166000908152600560209081526040808320858452909152902054610799565b60008281526006602052604090205470010000000000000000000000000000000090046fffffffffffffffffffffffffffffffff165b90505b92915050565b60007f01ffc9a7000000000000000000000000000000000000000000000000000000007fffffffff000000000000000000000000000000000000000000000000000000008316148061083557507fd9b67a26000000000000000000000000000000000000000000000000000000007fffffffff000000000000000000000000000000000000000000000000000000008316145b8061079c5750507fffffffff00000000000000000000000000000000000000000000000000000000167f0e89341c000000000000000000000000000000000000000000000000000000001490565b600081815260066020526040908190205490517f3ef6287c00000000000000000000000000000000000000000000000000000000815260076004820152602481018390526fffffffffffffffffffffffffffffffff9091166044820181905260609173__$0d913f5ea2cc8398585c34a0416dbc1ef1$__90633ef6287c90606401600060405180830381865af4158015610921573d6000803e3d6000fd5b505050506040513d6000823e601f3d9081017fffffffffffffffffffffffffffffffffffffffffffffffffffffffffffffffe01682016040526109679190810190614fae565b9392505050565b60003373ffffffffffffffffffffffffffffffffffffffff7f000000000000000000000000000000000000000000000000000000000000000016146109b257600080fd5b73ffffffffffffffffffffffffffffffffffffffff82166000818152600a6020526040908190205490517f70a082310000000000000000000000000000000000000000000000000000000081523060048201529091906370a0823190602401602060405180830381865afa158015610a2e573d6000803e3d6000fd5b505050506040513d601f19601f82011682018060405250810190610a529190615062565b610a5c91906150aa565b90508015610a8f57610a8f827f000000000000000000000000000000000000000000000000000000000000000083612d1c565b919050565b3073ffffffffffffffffffffffffffffffffffffffff891603610ab957610ab96150bd565b848314610af2576040517fff633a3800000000000000000000000000000000000000000000000000000000815260040160405180910390fd5b3373ffffffffffffffffffffffffffffffffffffffff891614801590610b49575073ffffffffffffffffffffffffffffffffffffffff8816600090815260086020908152604080832033845290915290205460ff16155b15610b80576040517fea8e4eb500000000000000000000000000000000000000000000000000000000815260040160405180910390fd5b60005b85811015610bcf57610bc78989898985818110610ba257610ba26150ec565b90506020020135888886818110610bbb57610bbb6150ec565b90506020020135612e8a565b600101610b83565b508673ffffffffffffffffffffffffffffffffffffffff168873ffffffffffffffffffffffffffffffffffffffff163373ffffffffffffffffffffffffffffffffffffffff167f4a39dc06d4c0dbc64b70af90fd698a233a518aa5d07e595d983b8c0526c8f7fb89898989604051610c4a9493929190615166565b60405180910390a473ffffffffffffffffffffffffffffffffffffffff87163b15610d5f5773ffffffffffffffffffffffffffffffffffffffff87163014801590610d5a57506040517fbc197c81000000000000000000000000000000000000000000000000000000008082529073ffffffffffffffffffffffffffffffffffffffff89169063bc197c8190610cf29033908d908c908c908c908c908c908c906004016151e1565b6020604051808303816000875af1158015610d11573d6000803e3d6000fd5b505050506040513d601f19601f82011682018060405250810190610d359190615264565b7fffffffff000000000000000000000000000000000000000000000000000000001614155b610d78565b73ffffffffffffffffffffffffffffffffffffffff8716155b15610daf576040517f3da6393100000000000000000000000000000000000000000000000000000000815260040160405180910390fd5b5050505050505050565b604080516060810182526000808252602082018190529181019190915260096000610de7602085018561485d565b73ffffffffffffffffffffffffffffffffffffffff1673ffffffffffffffffffffffffffffffffffffffff1681526020019081526020016000206000836020016020810190610e36919061485d565b73ffffffffffffffffffffffffffffffffffffffff1673ffffffffffffffffffffffffffffffffffffffff1681526020019081526020016000206000836040016020810190610e859190615281565b600090810b8252602080830193909352604091820190208151606081018352905471ffffffffffffffffffffffffffffffffffff811682527201000000000000000000000000000000000000810460070b938201939093527a01000000000000000000000000000000000000000000000000000090920465ffffffffffff169082015292915050565b6000341561102f5773ffffffffffffffffffffffffffffffffffffffff7f000000000000000000000000000000000000000000000000000000000000000016610f5d604085016020860161485d565b73ffffffffffffffffffffffffffffffffffffffff1614610faa576040517f8efa29d600000000000000000000000000000000000000000000000000000000815260040160405180910390fd5b3491507f000000000000000000000000000000000000000000000000000000000000000073ffffffffffffffffffffffffffffffffffffffff1663d0e30db0346040518263ffffffff1660e01b81526004016000604051808303818588803b15801561101557600080fd5b505af1158015611029573d6000803e3d6000fd5b50505050505b8171ffffffffffffffffffffffffffffffffffff1660000361107d576040517f1fbaba3500000000000000000000000000000000000000000000000000000000815260040160405180910390fd5b6000611087611a62565b905080604001511561109857600080fd5b600080600073__$0d913f5ea2cc8398585c34a0416dbc1ef1$__6349a6b7e78960097f00000000000000000000000000000000000000000000000000000000000000008b6040518563ffffffff1660e01b81526004016110fb9493929190615300565b60e060405180830381865af4158015611118573d6000803e3d6000fd5b505050506040513d601f19601f8201168201806040525081019061113c919061539e565b60408381015165ffffffffffff1660009081526020818152828220835160608082018652915460ff81168252610100810464ffffffffff16828501526601000000000000900475ffffffffffffffffffffffffffffffffffffffffffff16818601528451918201855283825291810183905292830191909152939650919450925089156112a15785515182516040517f6bc601d700000000000000000000000000000000000000000000000000000000815273ffffffffffffffffffffffffffffffffffffffff861692636bc601d79261122092339291908a908f9060040161541b565b60e0604051808303816000875af115801561123f573d6000803e3d6000fd5b505050506040513d601f19601f820116820180604052508101906112639190615508565b8099508193508296505050508060400151846020018181516112859190615549565b71ffffffffffffffffffffffffffffffffffff169052506112c7565b6112c26112b460408b0160208c0161485d565b86604001518885888d612fe0565b975090505b86600003611301576040517f1fbaba3500000000000000000000000000000000000000000000000000000000815260040160405180910390fd5b61130c85858b613436565b602081015161131b9089615573565b71ffffffffffffffffffffffffffffffffffff16600a600061134360408d0160208e0161485d565b73ffffffffffffffffffffffffffffffffffffffff1673ffffffffffffffffffffffffffffffffffffffff168152602001908152602001600020600082825461138c919061559d565b92505081905550846040015165ffffffffffff167f2ea082b0ce379480d9dfb0d7ab365e33def58ee2bee64887c13e531723b5c8818b8360000151846020015185604001516040516114109493929190931515845271ffffffffffffffffffffffffffffffffffff9283166020850152908216604084015216606082015260800190565b60405180910390a23460000361144f5761144f61143360408b0160208c0161485d565b33308b71ffffffffffffffffffffffffffffffffffff16613925565b8915801561145d5750333b15155b8015611539575060408581015190517ff23a6e6100000000000000000000000000000000000000000000000000000000808252336004830181905260006024840181905265ffffffffffff9094166044840152606483018b905260a0608484015260a4830193909352919063f23a6e619060c4016020604051808303816000875af11580156114f0573d6000803e3d6000fd5b505050506040513d601f19601f820116820180604052508101906115149190615264565b7fffffffff000000000000000000000000000000000000000000000000000000001614155b15611570576040517f3da6393100000000000000000000000000000000000000000000000000000000815260040160405180910390fd5b5050505050509392505050565b805173ffffffffffffffffffffffffffffffffffffffff90811660009081526009602090815260408083208286018051861685529083528184208287018051860b8652935281842091517fd1c790ba0000000000000000000000000000000000000000000000000000000081527f0000000000000000000000000000000000000000000000000000000000000000861660048201526024810192909252600760448301528551851660648301525184166084820152905190910b60a48201527f000000000000000000000000000000000000000000000000000000000000000090911660c482015273__$0d913f5ea2cc8398585c34a0416dbc1ef1$__9063d1c790ba9060e40160006040518083038186803b15801561169c57600080fd5b505af41580156116b0573d6000803e3d6000fd5b5050505050565b6000816000036116f3576040517f1fbaba3500000000000000000000000000000000000000000000000000000000815260040160405180910390fd5b60006116fd611a62565b9050600080600073__$0d913f5ea2cc8398585c34a0416dbc1ef1$__6349a6b7e78960097f00000000000000000000000000000000000000000000000000000000000000008b6040518563ffffffff1660e01b81526004016117629493929190615300565b60e060405180830381865af415801561177f573d6000803e3d6000fd5b505050506040513d601f19601f820116820180604052508101906117a3919061539e565b60408381015165ffffffffffff1660009081526020818152828220835160608082018652915460ff81168252610100810464ffffffffff16828501526601000000000000900475ffffffffffffffffffffffffffffffffffffffffffff16818601528451918201855283825291810183905292830191909152939650919450925089156119035785515182516040517f8c26842700000000000000000000000000000000000000000000000000000000815273ffffffffffffffffffffffffffffffffffffffff861692638c2684279261188792339291908a908f906004016155b0565b60c0604051808303816000875af11580156118a6573d6000803e3d6000fd5b505050506040513d601f19601f820116820180604052508101906118ca919061563f565b6040810151602083018051939750919350916118e7908390615549565b71ffffffffffffffffffffffffffffffffffff16905250611917565b61191485604001518784878c613a96565b90505b61192285858b613436565b806020015181600001510171ffffffffffffffffffffffffffffffffffff16600a60008b6020016020810190611958919061485d565b73ffffffffffffffffffffffffffffffffffffffff1673ffffffffffffffffffffffffffffffffffffffff16815260200190815260200160002060008282540392505081905550846040015165ffffffffffff167f7c6da711ffa6af277b820416f2daab1018c73a4fb0c4a49a38c5fb292b6c0e8b8b836000015184602001518560400151604051611a1c9493929190931515845271ffffffffffffffffffffffffffffffffffff9283166020850152908216604084015216606082015260800190565b60405180910390a2611a54611a3760408b0160208c0161485d565b8251339071ffffffffffffffffffffffffffffffffffff16612d1c565b519998505050505050505050565b6040805160e08101825260006080820181815260a0830182905260c083018290528252825160608082018552828252602080830184905282860184905284019190915292820181905291810191909152506040805160e08101825260025461ffff8082166080840190815262010000808404831660a086015264ffffffffff64010000000094859004811660c087015291855285516060818101885260035480861683529283048516602083810191909152959092048316818801529385019390935260045460ff811615158587015261010090049091169183019190915281519092015190911615801590611b725750805160400151611b6e90620d2f009064ffffffffff1661559d565b4210155b15611b8f578051602081015161ffff169052805160006040909101525b60208101516040015164ffffffffff1615801590611bca5750620d2f0081602001516040015164ffffffffff16611bc6919061559d565b4210155b15611beb57602080820180519182015161ffff169091525160006040909101525b90565b60006107998383611bff858761070e565b611c088761200e565b613cc6565b6060838214611c48576040517fff633a3800000000000000000000000000000000000000000000000000000000815260040160405180910390fd5b8367ffffffffffffffff811115611c6157611c61614a7f565b604051908082528060200260200182016040528015611c8a578160200160208202803683370190505b50905060005b84811015611d0557611ce0868683818110611cad57611cad6150ec565b9050602002016020810190611cc2919061485d565b858584818110611cd457611cd46150ec565b9050602002013561070e565b828281518110611cf257611cf26150ec565b6020908102919091010152600101611c90565b50949350505050565b3373ffffffffffffffffffffffffffffffffffffffff7f00000000000000000000000000000000000000000000000000000000000000001614611d5057600080fd5b6000611d5a611a62565b905061ffff841615611d8857805164ffffffffff4216604090910152805161ffff8516602090910152611dbe565b61ffff831615611db5576020808201805164ffffffffff42166040909101525161ffff8516910152611dbe565b81151560408201525b805180516002805460208085015160409586015161ffff9586167fffffffffffffffffffffffffffffffffffffffffffffffffffffffff0000000094851617620100009287168302177fffffffffffffffffffffffffffffffffffffffffffffff0000000000ffffffff90811664010000000064ffffffffff9384168102919091179096558389015180516003805496830151928b0151918a16969097169590951790881690930292909217909116911690920291909117905590820151600480546060909401517fffffffffffffffffffffffffffffffffffffffffffffffffffffffffff0000009094169115157fffffffffffffffffffffffffffffffffffffffffffffffffffffffffff0000ff16919091176101009390921692909202179055505050565b60003373ffffffffffffffffffffffffffffffffffffffff7f00000000000000000000000000000000000000000000000000000000000000001614611f2a57600080fd5b600060405180608001604052808473ffffffffffffffffffffffffffffffffffffffff168152602001611f5d858761070e565b8152600060208083018290526040928301829052600454888352828252918390208351606081018552905460ff8116825261010080820464ffffffffff16938301939093526601000000000000900475ffffffffffffffffffffffffffffffffffffffffffff1693810193909352929350611fef9260019288929190910461ffff1690611fe983613db1565b86613e22565b949350505050565b600754600090612009906001906150aa565b905090565b6004546000828152602081815260408083208151606081018352905460ff8116825261010080820464ffffffffff16948301949094526601000000000000900475ffffffffffffffffffffffffffffffffffffffffffff1691810191909152919261079c9291900461ffff169061208485613db1565b61406f565b33600081815260086020908152604080832073ffffffffffffffffffffffffffffffffffffffff87168085529083529281902080547fffffffffffffffffffffffffffffffffffffffffffffffffffffffffffffff001686151590811790915590519081529192917f17307eab39ab6107e8899845ad3d59bd9653f200f220920489ca2b5937696c31910160405180910390a35050565b3373ffffffffffffffffffffffffffffffffffffffff7f0000000000000000000000000000000000000000000000000000000000000000161461216257600080fd5b6000805b87811015612335576121a5898983818110612183576121836150ec565b90506020020160208101906121989190614d12565b65ffffffffffff1661200e565b91506040518060600160405280600060ff1681526020014264ffffffffff1681526020018375ffffffffffffffffffffffffffffffffffffffffffff168152506000808b8b858181106121fa576121fa6150ec565b905060200201602081019061220f9190614d12565b65ffffffffffff16815260208082019290925260409081016000208351815493850151949092015175ffffffffffffffffffffffffffffffffffffffffffff166601000000000000027fffffffff00000000000000000000000000000000000000000000ffffffffffff64ffffffffff909516610100027fffffffffffffffffffffffffffffffffffffffffffffffffffff00000000000090941660ff9093169290921792909217929092169190911790558888828181106122d3576122d36150ec565b90506020020160208101906122e89190614d12565b604080516000808252602082015265ffffffffffff92909216917fc05b4c85e1a9e164c2764407bce9e5955a2e6435dea37ef8c4e62ec458ebf21a910160405180910390a2600101612166565b5060005b8581101561253457612356878783818110612183576121836150ec565b91506040518060600160405280868684818110612375576123756150ec565b905060200201602081019061238a9190615674565b60ff1681526020014264ffffffffff1681526020018375ffffffffffffffffffffffffffffffffffffffffffff168152506000808989858181106123d0576123d06150ec565b90506020020160208101906123e59190614d12565b65ffffffffffff16815260208082019290925260409081016000208351815493850151949092015175ffffffffffffffffffffffffffffffffffffffffffff166601000000000000027fffffffff00000000000000000000000000000000000000000000ffffffffffff64ffffffffff909516610100027fffffffffffffffffffffffffffffffffffffffffffffffffffff00000000000090941660ff9093169290921792909217929092169190911790558686828181106124a9576124a96150ec565b90506020020160208101906124be9190614d12565b65ffffffffffff167fc05b4c85e1a9e164c2764407bce9e5955a2e6435dea37ef8c4e62ec458ebf21a8686848181106124f9576124f96150ec565b905060200201602081019061250e9190615674565b6040805160ff909216825261ffff871660208301520160405180910390a2600101612339565b50506004805461ffff909216610100027fffffffffffffffffffffffffffffffffffffffffffffffffffffffffff0000ff909216919091179055505050505050565b60603373ffffffffffffffffffffffffffffffffffffffff7f000000000000000000000000000000000000000000000000000000000000000016146125ba57600080fd5b8267ffffffffffffffff8111156125d3576125d3614a7f565b6040519080825280602002602001820160405280156125fc578160200160208202803683370190505b5090506000606060005b8581101561292257868682818110612620576126206150ec565b9050602002016020810190612635919061485d565b604080513060248083019190915282518083039091018152604490910182526020810180517bffffffffffffffffffffffffffffffffffffffffffffffffffffffff167f70a0823100000000000000000000000000000000000000000000000000000000179052905173ffffffffffffffffffffffffffffffffffffffff92909216916126c29190615697565b6000604051808303816000865af19150503d80600081146126ff576040519150601f19603f3d011682016040523d82523d6000602084013e612704565b606091505b509093509150828015612718575081516020145b1561291a57818060200190518101906127319190615062565b848281518110612743576127436150ec565b6020026020010181815250506000848281518110612763576127636150ec565b6020026020010151111561291a57868682818110612783576127836150ec565b9050602002016020810190612798919061485d565b73ffffffffffffffffffffffffffffffffffffffff1663a9059cbb60e01b868684815181106127c9576127c96150ec565b602090810291909101015160405173ffffffffffffffffffffffffffffffffffffffff90921660248301526044820152606401604080517fffffffffffffffffffffffffffffffffffffffffffffffffffffffffffffffe08184030181529181526020820180517bffffffffffffffffffffffffffffffffffffffffffffffffffffffff167fffffffff000000000000000000000000000000000000000000000000000000009094169390931790925290516128859190615697565b6000604051808303816000865af19150503d80600081146128c2576040519150601f19603f3d011682016040523d82523d6000602084013e6128c7565b606091505b5090935091508280156128f25750815115806128f25750818060200190518101906128f291906156b3565b92508261291a57600084828151811061290d5761290d6150ec565b6020026020010181815250505b600101612606565b5050509392505050565b604080516060810182526000808252602082018190529181019190915260078265ffffffffffff1681548110612964576129646150ec565b60009182526020808320604080516060810182526002909402909101805473ffffffffffffffffffffffffffffffffffffffff9081168552600190910154908116928401929092527401000000000000000000000000000000000000000090910490920b9181019190915292915050565b3073ffffffffffffffffffffffffffffffffffffffff8716036129fa576129fa6150bd565b3373ffffffffffffffffffffffffffffffffffffffff871614801590612a51575073ffffffffffffffffffffffffffffffffffffffff8616600090815260086020908152604080832033845290915290205460ff16155b15612a88576040517fea8e4eb500000000000000000000000000000000000000000000000000000000815260040160405180910390fd5b612a9486868686612e8a565b604080518581526020810185905273ffffffffffffffffffffffffffffffffffffffff808816929089169133917fc3d58168c5ae7397731d063d5bbf3d657854427343f4c083240f7aacaa2d0f62910160405180910390a473ffffffffffffffffffffffffffffffffffffffff85163b15612bf55773ffffffffffffffffffffffffffffffffffffffff85163014801590612bf057506040517ff23a6e61000000000000000000000000000000000000000000000000000000008082529073ffffffffffffffffffffffffffffffffffffffff87169063f23a6e6190612b889033908b908a908a908a908a906004016156d0565b6020604051808303816000875af1158015612ba7573d6000803e3d6000fd5b505050506040513d601f19601f82011682018060405250810190612bcb9190615264565b7fffffffff000000000000000000000000000000000000000000000000000000001614155b612c0e565b73ffffffffffffffffffffffffffffffffffffffff8516155b15612c45576040517f3da6393100000000000000000000000000000000000000000000000000000000815260040160405180910390fd5b505050505050565b604080516060810182526000808252602082018190528183015290517f94215a4c00000000000000000000000000000000000000000000000000000000815273__$0d913f5ea2cc8398585c34a0416dbc1ef1$__906394215a4c90612cdb906009907f0000000000000000000000000000000000000000000000000000000000000000908790600401615734565b606060405180830381865af4158015612cf8573d6000803e3d6000fd5b505050506040513d601f19601f8201168201806040525081019061079c9190615764565b6040805173ffffffffffffffffffffffffffffffffffffffff8481166024830152604480830185905283518084039091018152606490920183526020820180517bffffffffffffffffffffffffffffffffffffffffffffffffffffffff167fa9059cbb000000000000000000000000000000000000000000000000000000001790529151600092839290871691612db39190615697565b6000604051808303816000865af19150503d8060008114612df0576040519150601f19603f3d011682016040523d82523d6000602084013e612df5565b606091505b5091509150818015612e1f575080511580612e1f575080806020019051810190612e1f91906156b3565b6116b0576040517f08c379a000000000000000000000000000000000000000000000000000000000815260206004820152600260248201527f535400000000000000000000000000000000000000000000000000000000000060448201526064015b60405180910390fd5b6040805160808101825273ffffffffffffffffffffffffffffffffffffffff808716808352600090815260056020908152848220878352815284822054908401529086169282019290925260608101612ee3868661070e565b90526004546000858152602081815260408083208151606081018352905460ff8116825261010080820464ffffffffff16948301949094526601000000000000900475ffffffffffffffffffffffffffffffffffffffffffff1691810191909152939450612f60939192879291900461ffff1690611fe983613db1565b508181602001818151612f7391906150aa565b90525073ffffffffffffffffffffffffffffffffffffffff858116908516146116b05760208082015173ffffffffffffffffffffffffffffffffffffffff87166000908152600583526040808220878352909352919091205560608101516116b0908590859085016141ef565b604080516060810182526000808252602082018190529181019190915265ffffffffffff861660008181526006602090815260408083208151808301835290546fffffffffffffffffffffffffffffffff8082168352700100000000000000000000000000000000909104811682850190815233808752600586528487208888528652848720548551608081018752918252958101869052309481019490945260608085018790528c01519051835196978897949695946130a994899492938f92031686613e22565b5082516fffffffffffffffffffffffffffffffff16156131155761311083600001516fffffffffffffffffffffffffffffffff168871ffffffffffffffffffffffffffffffffffff168a6020015171ffffffffffffffffffffffffffffffffffff16614281565b613125565b6131258c8960200151890161434d565b835190945061ffff6f140eb6ae00000000000000000000000004036fffffffffffffffffffffffffffffffff1684111561318b576040517f6deac20700000000000000000000000000000000000000000000000000000000815260040160405180910390fd5b61319d878b6020015160000151614577565b805184519197506131fd91869171ffffffffffffffffffffffffffffffffffff16906fffffffffffffffffffffffffffffffff16156131dc57896131e4565b8a602001518a015b71ffffffffffffffffffffffffffffffffffff16614281565b94508484039350848201600560003373ffffffffffffffffffffffffffffffffffffffff1673ffffffffffffffffffffffffffffffffffffffff16815260200190815260200160002060008d65ffffffffffff168152602001908152602001600020819055508383602001818151019150906fffffffffffffffffffffffffffffffff1690816fffffffffffffffffffffffffffffffff168152505083850183600001818151019150906fffffffffffffffffffffffffffffffff1690816fffffffffffffffffffffffffffffffff168152505082600660008d65ffffffffffff16815260200190815260200160002060008201518160000160006101000a8154816fffffffffffffffffffffffffffffffff02191690836fffffffffffffffffffffffffffffffff16021790555060208201518160000160106101000a8154816fffffffffffffffffffffffffffffffff02191690836fffffffffffffffffffffffffffffffff16021790555090505050505083856020018181516133839190615549565b71ffffffffffffffffffffffffffffffffffff169052506040805165ffffffffffff8a16815260208101849052339160009183917fc3d58168c5ae7397731d063d5bbf3d657854427343f4c083240f7aacaa2d0f62910160405180910390a46040805165ffffffffffff8a16815260208101839052309160009133917fc3d58168c5ae7397731d063d5bbf3d657854427343f4c083240f7aacaa2d0f62910160405180910390a450965096945050505050565b602082015182516134479190615549565b71ffffffffffffffffffffffffffffffffffff16808452620f4240111561346d57600080fd5b815171ffffffffffffffffffffffffffffffffffff1660000361349d57677fffffffffffffff602084015261379f565b816020015171ffffffffffffffffffffffffffffffffffff166000036134e8577fffffffffffffffffffffffffffffffffffffffffffffffff8000000000000000602084015261379f565b6000806134fb6060840160408501615281565b60000b121561351c576135146060830160408401615281565b60000361352c565b61352c6060830160408401615281565b90506000806135416060850160408601615281565b60000b1315613584576020840151845171ffffffffffffffffffffffffffffffffffff918216911660ff84161b101561357c575060016135ba565b5060006135ba565b6020840151845171ffffffffffffffffffffffffffffffffffff91821660ff85161b911610156135b6575060016135ba565b5060005b80156136ae576000613639816135d66060870160408801615281565b60000b12156135ff57865171ffffffffffffffffffffffffffffffffffff1660ff85161b613616565b865171ffffffffffffffffffffffffffffffffffff165b865171ffffffffffffffffffffffffffffffffffff1660ff861681901b016145ef565b60070b90506000806136516060870160408801615281565b60000b1215613666578360ff1682901b61366e565b8360ff1682901d5b604087015160070b019050677fffffffffffffff81131561369c57677fffffffffffffff60208801526136a7565b600781900b60208801525b505061379c565b600061372a816136c46060870160408801615281565b60000b12156136e857865171ffffffffffffffffffffffffffffffffffff16613704565b865171ffffffffffffffffffffffffffffffffffff1660ff85161b5b602087015171ffffffffffffffffffffffffffffffffffff1660ff861681901b016145ef565b6040860151600791820b9250900b8190037fffffffffffffffffffffffffffffffffffffffffffffffff800000000000000081121561378e577fffffffffffffffffffffffffffffffffffffffffffffffff80000000000000006020880152613799565b600781900b60208801525b50505b50505b82600960006137b1602085018561485d565b73ffffffffffffffffffffffffffffffffffffffff1673ffffffffffffffffffffffffffffffffffffffff1681526020019081526020016000206000836020016020810190613800919061485d565b73ffffffffffffffffffffffffffffffffffffffff1673ffffffffffffffffffffffffffffffffffffffff168152602001908152602001600020600083604001602081019061384f9190615281565b600090810b8252602080830193909352604091820190208351815493850151949092015165ffffffffffff167a0100000000000000000000000000000000000000000000000000000279ffffffffffffffffffffffffffffffffffffffffffffffffffff67ffffffffffffffff9095167201000000000000000000000000000000000000027fffffffffffff000000000000000000000000000000000000000000000000000090941671ffffffffffffffffffffffffffffffffffff909316929092179290921792909216919091179055505050565b6040805173ffffffffffffffffffffffffffffffffffffffff85811660248301528481166044830152606480830185905283518084039091018152608490920183526020820180517bffffffffffffffffffffffffffffffffffffffffffffffffffffffff167f23b872dd0000000000000000000000000000000000000000000000000000000017905291516000928392908816916139c49190615697565b6000604051808303816000865af19150503d8060008114613a01576040519150601f19603f3d011682016040523d82523d6000602084013e613a06565b606091505b5091509150818015613a30575080511580613a30575080806020019051810190613a3091906156b3565b612c45576040517f08c379a000000000000000000000000000000000000000000000000000000000815260206004820152600360248201527f53544600000000000000000000000000000000000000000000000000000000006044820152606401612e81565b604080516060810182526000808252602080830182905282840182905265ffffffffffff8916808352600682528483208551808701875290546fffffffffffffffffffffffffffffffff808216835270010000000000000000000000000000000090910416818401523384526005835285842091845291529290205490919080841115613b2257600080fd5b600060405180608001604052803373ffffffffffffffffffffffffffffffffffffffff1681526020018381526020013073ffffffffffffffffffffffffffffffffffffffff16815260200160008152509050613bab60008a65ffffffffffff168a606001518a87602001518860000151036fffffffffffffffffffffffffffffffff1686613e22565b50613be5866020015171ffffffffffffffffffffffffffffffffffff168685600001516fffffffffffffffffffffffffffffffff16614281565b71ffffffffffffffffffffffffffffffffffff908116855233600081815260056020908152604080832065ffffffffffff8f168085529083528184208b8903905588516fffffffffffffffffffffffffffffffff908c900381168a528a518d85018051919091039097169096528084526006835281842089518a8501518816700100000000000000000000000000000000029716969096179095558051948552908401899052909282917fc3d58168c5ae7397731d063d5bbf3d657854427343f4c083240f7aacaa2d0f62910160405180910390a450505095945050505050565b60003073ffffffffffffffffffffffffffffffffffffffff851603613ced57506000611fef565b600085815260016020908152604080832073ffffffffffffffffffffffffffffffffffffffff88168452825280832081518083019092525475ffffffffffffffffffffffffffffffffffffffffffff81168252760100000000000000000000000000000000000000000000900469ffffffffffffffffffff169181019190915290849003613d8057602001519050611fef565b8051602090910151920375ffffffffffffffffffffffffffffffffffffffffffff169290920260601c019392505050565b60008181526006602090815260408083208151808301909252546fffffffffffffffffffffffffffffffff808216808452700100000000000000000000000000000000909204169282018390529091613e09916157af565b6fffffffffffffffffffffffffffffffff169392505050565b600080613e3086868661406f565b9050613e46878460000151856020015184613cc6565b915060405180604001604052808275ffffffffffffffffffffffffffffffffffffffffffff16815260200189613e7c5783613e7f565b60005b69ffffffffffffffffffff9081169091526000898152600160209081526040808320885173ffffffffffffffffffffffffffffffffffffffff908116855290835292819020855195909201519093167601000000000000000000000000000000000000000000000275ffffffffffffffffffffffffffffffffffffffffffff90941693909317909255840151163014613fd65760405180604001604052808275ffffffffffffffffffffffffffffffffffffffffffff168152602001613f4f898660400151876060015186613cc6565b69ffffffffffffffffffff90811690915260008981526001602090815260408083208882015173ffffffffffffffffffffffffffffffffffffffff1684528252909120835193909101519091167601000000000000000000000000000000000000000000000275ffffffffffffffffffffffffffffffffffffffffffff9092169190911790555b60009687526020879052604090962080547fffffffff000000000000000000000000000000000000000000000000000000ff16660100000000000075ffffffffffffffffffffffffffffffffffffffffffff909816979097027fffffffffffffffffffffffffffffffffffffffffffffffffffff0000000000ff16969096176101004264ffffffffff1602179095555092949350505050565b6040820151825160ff161580159061409957504264ffffffffff16836020015164ffffffffff1614155b80156140a457508115155b15610967578361ffff16836000015160ff1611156140c4576140c46150bd565b60208301517f00000000000000000000000000000000000000000000000000000000000000006305a39a800164ffffffffff808216908316101561416957845160009061ffff88169060ff166527d6140eb6ae028161412557614125615780565b0490508460608464ffffffffff168464ffffffffff1642116141475742614150565b8464ffffffffff165b038302901b8161416257614162615780565b0484019350505b8064ffffffffff164264ffffffffff1611156141e657845160009061ffff88169060ff16653a1cc489993602816141a2576141a2615780565b0490508460608364ffffffffff168564ffffffffff16116141c357836141c5565b845b64ffffffffff1642038302901b816141df576141df615780565b0484019350505b50509392505050565b3073ffffffffffffffffffffffffffffffffffffffff84160361424d57600082815260066020526040902080546fffffffffffffffffffffffffffffffff808416700100000000000000000000000000000000029116179055505050565b73ffffffffffffffffffffffffffffffffffffffff9290921660009081526005602090815260408083209383529290522055565b600080807fffffffffffffffffffffffffffffffffffffffffffffffffffffffffffffffff858709858702925082811083820303915050806000036142d857600084116142cd57600080fd5b508290049050610967565b8084116142e457600080fd5b60008486880960026001871981018816978890046003810283188082028403028082028403028082028403028082028403028082028403029081029092039091026000889003889004909101858311909403939093029303949094049190911702949350505050565b6000808373ffffffffffffffffffffffffffffffffffffffff166318160ddd6040518163ffffffff1660e01b8152600401602060405180830381865afa15801561439b573d6000803e3d6000fd5b505050506040513d601f19601f820116820180604052508101906143bf9190615062565b9050620f424061ffff606067016345785d8a00006301e1338060016143e6600c600a6158fa565b6143f49063781a75c0615909565b6143fe91906150aa565b6144089190615920565b614413906001615952565b61442f9068ffffffffffffffffff1666f38a31408ae338615909565b6144399190615973565b68ffffffffffffffffff166fffffffffffffffffffffffffffffffff16901b6144629190615987565b61446c9190615987565b6fffffffffffffffffffffffffffffffff1681116144aa5761449183620f42406159c7565b71ffffffffffffffffffffffffffffffffffff16611fef565b611fef61ffff606067016345785d8a00006301e1338060016144ce600c600a6158fa565b6144dc9063781a75c0615909565b6144e691906150aa565b6144f09190615920565b6144fb906001615952565b6145179068ffffffffffffffffff1666f38a31408ae338615909565b6145219190615973565b68ffffffffffffffffff166fffffffffffffffffffffffffffffffff16901b61454a9190615987565b6fffffffffffffffffffffffffffffffff168471ffffffffffffffffffffffffffffffffffff1683614281565b604080516060810182526000808252602082018190529181019190915261271061ffff831681018071ffffffffffffffffffffffffffffffffffff86168302816145c3576145c3615780565b0471ffffffffffffffffffffffffffffffffffff90811680855290950390941660408301525092915050565b600081831015614601576146016150bd565b81600003614611576146116150bd565b600082848161462257614622615780565b0490506fffffffffffffffffffffffffffffffff811160071b81811c67ffffffffffffffff811160061b90811c63ffffffff811160051b90811c61ffff811160041b90811c60ff8111600390811b91821c600f811160021b90811c918211600190811b92831c979088119617909417909217179091171717608081106146b057607f810383901c91506146c4565b6146c18682607f0360020a87614281565b91505b603781901b60015b6037811161470157838402607f1c93508360801c80826037031b8317925084811c945050806146fa90615a28565b90506146cc565b5060c06147268277d89e8c075c4155dd3213326cbbcf86fd1f63f5c205dd2ad2615909565b901c979650505050505050565b73ffffffffffffffffffffffffffffffffffffffff8116811461475557600080fd5b50565b6000806040838503121561476b57600080fd5b823561477681614733565b946020939093013593505050565b7fffffffff000000000000000000000000000000000000000000000000000000008116811461475557600080fd5b6000602082840312156147c457600080fd5b813561096781614784565b6000602082840312156147e157600080fd5b5035919050565b60005b838110156148035781810151838201526020016147eb565b50506000910152565b602081526000825180602084015261482b8160408501602087016147e8565b601f017fffffffffffffffffffffffffffffffffffffffffffffffffffffffffffffffe0169190910160400192915050565b60006020828403121561486f57600080fd5b813561096781614733565b60008083601f84011261488c57600080fd5b50813567ffffffffffffffff8111156148a457600080fd5b6020830191508360208260051b85010111156148bf57600080fd5b9250929050565b60008083601f8401126148d857600080fd5b50813567ffffffffffffffff8111156148f057600080fd5b6020830191508360208285010111156148bf57600080fd5b60008060008060008060008060a0898b03121561492457600080fd5b883561492f81614733565b9750602089013561493f81614733565b9650604089013567ffffffffffffffff81111561495b57600080fd5b6149678b828c0161487a565b909750955050606089013567ffffffffffffffff81111561498757600080fd5b6149938b828c0161487a565b909550935050608089013567ffffffffffffffff8111156149b357600080fd5b6149bf8b828c016148c6565b999c989b5096995094979396929594505050565b6000606082840312156149e557600080fd5b50919050565b6000606082840312156149fd57600080fd5b61079983836149d3565b801515811461475557600080fd5b71ffffffffffffffffffffffffffffffffffff8116811461475557600080fd5b600080600060a08486031215614a4a57600080fd5b8335614a5581614a07565b9250614a6485602086016149d3565b91506080840135614a7481614a15565b809150509250925092565b7f4e487b7100000000000000000000000000000000000000000000000000000000600052604160045260246000fd5b6040516060810167ffffffffffffffff81118282101715614ad157614ad1614a7f565b60405290565b604051601f82017fffffffffffffffffffffffffffffffffffffffffffffffffffffffffffffffe016810167ffffffffffffffff81118282101715614b1e57614b1e614a7f565b604052919050565b8035600081900b8114610a8f57600080fd5b60006060828403128015614b4b57600080fd5b50614b54614aae565b8235614b5f81614733565b81526020830135614b6f81614733565b6020820152614b8060408401614b26565b60408201529392505050565b600080600060a08486031215614ba157600080fd5b8335614bac81614a07565b9250614bbb85602086016149d3565b929592945050506080919091013590565b60008060408385031215614bdf57600080fd5b823591506020830135614bf181614733565b809150509250929050565b60008060008060408587031215614c1257600080fd5b843567ffffffffffffffff811115614c2957600080fd5b614c358782880161487a565b909550935050602085013567ffffffffffffffff811115614c5557600080fd5b614c618782880161487a565b95989497509550505050565b602080825282518282018190526000918401906040840190835b81811015614ca5578351835260209384019390920191600101614c87565b509095945050505050565b803561ffff81168114610a8f57600080fd5b600080600060608486031215614cd757600080fd5b614ce084614cb0565b9250614cee60208501614cb0565b91506040840135614a7481614a07565b65ffffffffffff8116811461475557600080fd5b600060208284031215614d2457600080fd5b813561096781614cfe565b60008060408385031215614d4257600080fd5b8235614d4d81614733565b91506020830135614bf181614a07565b60008060008060008060006080888a031215614d7857600080fd5b873567ffffffffffffffff811115614d8f57600080fd5b614d9b8a828b0161487a565b909850965050602088013567ffffffffffffffff811115614dbb57600080fd5b614dc78a828b0161487a565b909650945050604088013567ffffffffffffffff811115614de757600080fd5b614df38a828b0161487a565b9094509250614e06905060608901614cb0565b905092959891949750929550565b600080600060408486031215614e2957600080fd5b833567ffffffffffffffff811115614e4057600080fd5b614e4c8682870161487a565b9094509250506020840135614a7481614733565b6060810161079c828473ffffffffffffffffffffffffffffffffffffffff815116825273ffffffffffffffffffffffffffffffffffffffff6020820151166020830152604081015160000b60408301525050565b60008060408385031215614ec757600080fd5b8235614ed281614733565b91506020830135614bf181614733565b60008060008060008060a08789031215614efb57600080fd5b8635614f0681614733565b95506020870135614f1681614733565b94506040870135935060608701359250608087013567ffffffffffffffff811115614f4057600080fd5b614f4c89828a016148c6565b979a9699509497509295939492505050565b6060810161079c828471ffffffffffffffffffffffffffffffffffff815116825271ffffffffffffffffffffffffffffffffffff6020820151166020830152604081015160070b60408301525050565b600060208284031215614fc057600080fd5b815167ffffffffffffffff811115614fd757600080fd5b8201601f81018413614fe857600080fd5b805167ffffffffffffffff81111561500257615002614a7f565b61503360207fffffffffffffffffffffffffffffffffffffffffffffffffffffffffffffffe0601f84011601614ad7565b81815285602083850101111561504857600080fd5b6150598260208301602086016147e8565b95945050505050565b60006020828403121561507457600080fd5b5051919050565b7f4e487b7100000000000000000000000000000000000000000000000000000000600052601160045260246000fd5b8181038181111561079c5761079c61507b565b7f4e487b7100000000000000000000000000000000000000000000000000000000600052600160045260246000fd5b7f4e487b7100000000000000000000000000000000000000000000000000000000600052603260045260246000fd5b81835260007f07ffffffffffffffffffffffffffffffffffffffffffffffffffffffffffffff83111561514d57600080fd5b8260051b80836020870137939093016020019392505050565b60408152600061517a60408301868861511b565b828103602084015261518d81858761511b565b979650505050505050565b8183528181602085013750600060208284010152600060207fffffffffffffffffffffffffffffffffffffffffffffffffffffffffffffffe0601f840116840101905092915050565b73ffffffffffffffffffffffffffffffffffffffff8916815273ffffffffffffffffffffffffffffffffffffffff8816602082015260a06040820152600061522d60a08301888a61511b565b828103606084015261524081878961511b565b90508281036080840152615255818587615198565b9b9a5050505050505050505050565b60006020828403121561527657600080fd5b815161096781614784565b60006020828403121561529357600080fd5b61079982614b26565b80356152a781614733565b73ffffffffffffffffffffffffffffffffffffffff16825260208101356152cd81614733565b73ffffffffffffffffffffffffffffffffffffffff1660208301526152f460408201614b26565b60000b60408301525050565b84151581526020810184905273ffffffffffffffffffffffffffffffffffffffff8316604082015260c08101615059606083018461529c565b8051600781900b8114610a8f57600080fd5b60006060828403121561535d57600080fd5b615365614aae565b9050815161537281614a15565b8152602082015161538281614a15565b602082015261539360408301615339565b604082015292915050565b600080600083850360e08112156153b457600080fd5b60608112156153c257600080fd5b506153cb614aae565b84516153d681614a15565b81526153e460208601615339565b602082015260408501516153f781614cfe565b6040820152925061540b856060860161534b565b915060c0840151614a7481614733565b73ffffffffffffffffffffffffffffffffffffffff8616815261ffff8516602082015260ff8416604082015260e0810161549a606083018571ffffffffffffffffffffffffffffffffffff815116825271ffffffffffffffffffffffffffffffffffff6020820151166020830152604081015160070b60408301525050565b71ffffffffffffffffffffffffffffffffffff831660c08301529695505050505050565b6000606082840312156154d057600080fd5b6154d8614aae565b905081516154e581614a15565b815260208201516154f581614a15565b6020820152604082015161539381614a15565b600080600060e0848603121561551d57600080fd5b615527858561534b565b925061553685606086016154be565b60c0949094015192959394509192915050565b71ffffffffffffffffffffffffffffffffffff818116838216019081111561079c5761079c61507b565b71ffffffffffffffffffffffffffffffffffff828116828216039081111561079c5761079c61507b565b8082018082111561079c5761079c61507b565b73ffffffffffffffffffffffffffffffffffffffff8616815261ffff8516602082015260ff8416604082015260e0810161562f606083018571ffffffffffffffffffffffffffffffffffff815116825271ffffffffffffffffffffffffffffffffffff6020820151166020830152604081015160070b60408301525050565b8260c08301529695505050505050565b60008060c0838503121561565257600080fd5b61565c848461534b565b915061566b84606085016154be565b90509250929050565b60006020828403121561568657600080fd5b813560ff8116811461096757600080fd5b600082516156a98184602087016147e8565b9190910192915050565b6000602082840312156156c557600080fd5b815161096781614a07565b73ffffffffffffffffffffffffffffffffffffffff8716815273ffffffffffffffffffffffffffffffffffffffff8616602082015284604082015283606082015260a06080820152600061572860a083018486615198565b98975050505050505050565b83815273ffffffffffffffffffffffffffffffffffffffff8316602082015260a08101611fef604083018461529c565b60006060828403121561577657600080fd5b610799838361534b565b7f4e487b7100000000000000000000000000000000000000000000000000000000600052601260045260246000fd5b6fffffffffffffffffffffffffffffffff828116828216039081111561079c5761079c61507b565b6001815b6001841115615812578085048111156157f6576157f661507b565b600184161561580457908102905b60019390931c9280026157db565b935093915050565b6000826158295750600161079c565b816158365750600061079c565b816001811461584c576002811461585657615872565b600191505061079c565b60ff8411156158675761586761507b565b50506001821b61079c565b5060208310610133831016604e8410600b8410161715615895575081810a61079c565b6158c07fffffffffffffffffffffffffffffffffffffffffffffffffffffffffffffffff84846157d7565b807fffffffffffffffffffffffffffffffffffffffffffffffffffffffffffffffff048211156158f2576158f261507b565b029392505050565b600061079960ff84168361581a565b808202811582820484141761079c5761079c61507b565b600068ffffffffffffffffff83168061593b5761593b615780565b8068ffffffffffffffffff84160491505092915050565b68ffffffffffffffffff818116838216019081111561079c5761079c61507b565b60008261598257615982615780565b500490565b60006fffffffffffffffffffffffffffffffff8316806159a9576159a9615780565b806fffffffffffffffffffffffffffffffff84160491505092915050565b600071ffffffffffffffffffffffffffffffffffff821671ffffffffffffffffffffffffffffffffffff841671ffffffffffffffffffffffffffffffffffff8183021692508183048114821517615a2057615a2061507b565b505092915050565b60007fffffffffffffffffffffffffffffffffffffffffffffffffffffffffffffffff8203615a5957615a5961507b565b506001019056fea26469706673582212204091baebcec8f66b78512880a6c9c7cb6605a45ac9b0e35c856565246c0f1ed864736f6c634300081c0033","linkReferences":{"src/libraries/VaultExternal.sol":{"VaultExternal":[{"start":3048,"length":20},{"start":5024,"length":20},{"start":6504,"length":20},{"start":6663,"length":20},{"start":12175,"length":20}]}}},"methodIdentifiers":{"TIMESTAMP_ISSUANCE_START()":"410cd41a","balanceOf(address,uint256)":"00fdd58e","balanceOfBatch(address[],uint256[])":"4e1273f4","burn(bool,(address,address,int8),uint256)":"3fc62188","claimSIR(uint256,address)":"777b1d43","cumulativeSIRPerTEA(uint256)":"7a4996e8","getReserves((address,address,int8))":"fbd98edf","initialize((address,address,int8))":"3aa88670","isApprovedForAll(address,address)":"e985e9c5","mint(bool,(address,address,int8),uint144)":"32eaa625","numberOfVaults()":"7a32af78","paramsById(uint48)":"d2f3fd09","safeBatchTransferFrom(address,address,uint256[],uint256[],bytes)":"2eb2c2d6","safeTransferFrom(address,address,uint256,uint256,bytes)":"f242432a","setApprovalForAll(address,bool)":"a22cb465","supportsInterface(bytes4)":"01ffc9a7","systemParams()":"458e8e6b","totalReserves(address)":"6d0800bc","totalSupply(uint256)":"bd85b039","unclaimedRewards(uint256,address)":"46f90748","updateSystemState(uint16,uint16,bool)":"5ab2cef4","updateVaults(uint48[],uint48[],uint8[],uint16)":"bb147c54","uri(uint256)":"0e89341c","vaultStates((address,address,int8))":"2edf3104","vaultTax(uint48)":"6cfcac04","withdrawFees(address)":"164e68de","withdrawToSaveSystem(address[],address)":"c7c3d2dc"},"id":54}