{"abi":[{"type":"constructor","inputs":[{"name":"systemControl","type":"address","internalType":"address"},{"name":"sir","type":"address","internalType":"address"},{"name":"oracle","type":"address","internalType":"address"},{"name":"apeImplementation","type":"address","internalType":"address"}],"stateMutability":"nonpayable"},{"type":"function","name":"TIMESTAMP_ISSUANCE_START","inputs":[],"outputs":[{"name":"","type":"uint40","internalType":"uint40"}],"stateMutability":"view"},{"type":"function","name":"balanceOf","inputs":[{"name":"account","type":"address","internalType":"address"},{"name":"vaultId","type":"uint256","internalType":"uint256"}],"outputs":[{"name":"","type":"uint256","internalType":"uint256"}],"stateMutability":"view"},{"type":"function","name":"balanceOfBatch","inputs":[{"name":"owners","type":"address[]","internalType":"address[]"},{"name":"vaultIds","type":"uint256[]","internalType":"uint256[]"}],"outputs":[{"name":"balances_","type":"uint256[]","internalType":"uint256[]"}],"stateMutability":"view"},{"type":"function","name":"burn","inputs":[{"name":"isAPE","type":"bool","internalType":"bool"},{"name":"vaultParams","type":"tuple","internalType":"struct SirStructs.VaultParameters","components":[{"name":"debtToken","type":"address","internalType":"address"},{"name":"collateralToken","type":"address","internalType":"address"},{"name":"leverageTier","type":"int8","internalType":"int8"}]},{"name":"amount","type":"uint256","internalType":"uint256"}],"outputs":[{"name":"","type":"uint144","internalType":"uint144"}],"stateMutability":"nonpayable"},{"type":"function","name":"claimSIR","inputs":[{"name":"vaultId","type":"uint256","internalType":"uint256"},{"name":"lper","type":"address","internalType":"address"}],"outputs":[{"name":"","type":"uint80","internalType":"uint80"}],"stateMutability":"nonpayable"},{"type":"function","name":"collateralStates","inputs":[{"name":"token","type":"address","internalType":"address"}],"outputs":[{"name":"","type":"tuple","internalType":"struct SirStructs.CollateralState","components":[{"name":"totalFeesToStakers","type":"uint112","internalType":"uint112"},{"name":"total","type":"uint144","internalType":"uint144"}]}],"stateMutability":"view"},{"type":"function","name":"cumulativeSIRPerTEA","inputs":[{"name":"vaultId","type":"uint256","internalType":"uint256"}],"outputs":[{"name":"cumulativeSIRPerTEAx96","type":"uint176","internalType":"uint176"}],"stateMutability":"view"},{"type":"function","name":"getReserves","inputs":[{"name":"vaultParams","type":"tuple","internalType":"struct SirStructs.VaultParameters","components":[{"name":"debtToken","type":"address","internalType":"address"},{"name":"collateralToken","type":"address","internalType":"address"},{"name":"leverageTier","type":"int8","internalType":"int8"}]}],"outputs":[{"name":"","type":"tuple","internalType":"struct SirStructs.Reserves","components":[{"name":"reserveApes","type":"uint144","internalType":"uint144"},{"name":"reserveLPers","type":"uint144","internalType":"uint144"},{"name":"tickPriceX42","type":"int64","internalType":"int64"}]}],"stateMutability":"view"},{"type":"function","name":"initialize","inputs":[{"name":"vaultParams","type":"tuple","internalType":"struct SirStructs.VaultParameters","components":[{"name":"debtToken","type":"address","internalType":"address"},{"name":"collateralToken","type":"address","internalType":"address"},{"name":"leverageTier","type":"int8","internalType":"int8"}]}],"outputs":[],"stateMutability":"nonpayable"},{"type":"function","name":"isApprovedForAll","inputs":[{"name":"","type":"address","internalType":"address"},{"name":"","type":"address","internalType":"address"}],"outputs":[{"name":"","type":"bool","internalType":"bool"}],"stateMutability":"view"},{"type":"function","name":"mint","inputs":[{"name":"isAPE","type":"bool","internalType":"bool"},{"name":"vaultParams","type":"tuple","internalType":"struct SirStructs.VaultParameters","components":[{"name":"debtToken","type":"address","internalType":"address"},{"name":"collateralToken","type":"address","internalType":"address"},{"name":"leverageTier","type":"int8","internalType":"int8"}]}],"outputs":[{"name":"amount","type":"uint256","internalType":"uint256"}],"stateMutability":"nonpayable"},{"type":"function","name":"numberOfVaults","inputs":[],"outputs":[{"name":"","type":"uint48","internalType":"uint48"}],"stateMutability":"view"},{"type":"function","name":"paramsById","inputs":[{"name":"vaultId","type":"uint48","internalType":"uint48"}],"outputs":[{"name":"","type":"tuple","internalType":"struct SirStructs.VaultParameters","components":[{"name":"debtToken","type":"address","internalType":"address"},{"name":"collateralToken","type":"address","internalType":"address"},{"name":"leverageTier","type":"int8","internalType":"int8"}]}],"stateMutability":"view"},{"type":"function","name":"safeBatchTransferFrom","inputs":[{"name":"from","type":"address","internalType":"address"},{"name":"to","type":"address","internalType":"address"},{"name":"vaultIds","type":"uint256[]","internalType":"uint256[]"},{"name":"amounts","type":"uint256[]","internalType":"uint256[]"},{"name":"data","type":"bytes","internalType":"bytes"}],"outputs":[],"stateMutability":"nonpayable"},{"type":"function","name":"safeTransferFrom","inputs":[{"name":"from","type":"address","internalType":"address"},{"name":"to","type":"address","internalType":"address"},{"name":"vaultId","type":"uint256","internalType":"uint256"},{"name":"amount","type":"uint256","internalType":"uint256"},{"name":"data","type":"bytes","internalType":"bytes"}],"outputs":[],"stateMutability":"nonpayable"},{"type":"function","name":"setApprovalForAll","inputs":[{"name":"operator","type":"address","internalType":"address"},{"name":"approved","type":"bool","internalType":"bool"}],"outputs":[],"stateMutability":"nonpayable"},{"type":"function","name":"supportsInterface","inputs":[{"name":"interfaceId","type":"bytes4","internalType":"bytes4"}],"outputs":[{"name":"","type":"bool","internalType":"bool"}],"stateMutability":"pure"},{"type":"function","name":"systemParams","inputs":[],"outputs":[{"name":"","type":"tuple","internalType":"struct SirStructs.SystemParameters","components":[{"name":"baseFee","type":"uint16","internalType":"uint16"},{"name":"lpFee","type":"uint16","internalType":"uint16"},{"name":"mintingStopped","type":"bool","internalType":"bool"},{"name":"cumulativeTax","type":"uint16","internalType":"uint16"}]}],"stateMutability":"view"},{"type":"function","name":"totalSupply","inputs":[{"name":"vaultId","type":"uint256","internalType":"uint256"}],"outputs":[{"name":"","type":"uint256","internalType":"uint256"}],"stateMutability":"view"},{"type":"function","name":"unclaimedRewards","inputs":[{"name":"vaultId","type":"uint256","internalType":"uint256"},{"name":"lper","type":"address","internalType":"address"}],"outputs":[{"name":"","type":"uint80","internalType":"uint80"}],"stateMutability":"view"},{"type":"function","name":"updateSystemState","inputs":[{"name":"baseFee","type":"uint16","internalType":"uint16"},{"name":"lpFee","type":"uint16","internalType":"uint16"},{"name":"mintingStopped","type":"bool","internalType":"bool"}],"outputs":[],"stateMutability":"nonpayable"},{"type":"function","name":"updateVaults","inputs":[{"name":"oldVaults","type":"uint48[]","internalType":"uint48[]"},{"name":"newVaults","type":"uint48[]","internalType":"uint48[]"},{"name":"newTaxes","type":"uint8[]","internalType":"uint8[]"},{"name":"cumulativeTax","type":"uint16","internalType":"uint16"}],"outputs":[],"stateMutability":"nonpayable"},{"type":"function","name":"uri","inputs":[{"name":"vaultId","type":"uint256","internalType":"uint256"}],"outputs":[{"name":"","type":"string","internalType":"string"}],"stateMutability":"view"},{"type":"function","name":"vaultStates","inputs":[{"name":"vaultParams","type":"tuple","internalType":"struct SirStructs.VaultParameters","components":[{"name":"debtToken","type":"address","internalType":"address"},{"name":"collateralToken","type":"address","internalType":"address"},{"name":"leverageTier","type":"int8","internalType":"int8"}]}],"outputs":[{"name":"","type":"tuple","internalType":"struct SirStructs.VaultState","components":[{"name":"reserve","type":"uint144","internalType":"uint144"},{"name":"tickPriceSatX42","type":"int64","internalType":"int64"},{"name":"vaultId","type":"uint48","internalType":"uint48"}]}],"stateMutability":"view"},{"type":"function","name":"vaultTax","inputs":[{"name":"vaultId","type":"uint48","internalType":"uint48"}],"outputs":[{"name":"","type":"uint8","internalType":"uint8"}],"stateMutability":"view"},{"type":"function","name":"withdrawFees","inputs":[{"name":"token","type":"address","internalType":"address"}],"outputs":[{"name":"totalFeesToStakers","type":"uint112","internalType":"uint112"}],"stateMutability":"nonpayable"},{"type":"function","name":"withdrawToSaveSystem","inputs":[{"name":"tokens","type":"address[]","internalType":"address[]"},{"name":"to","type":"address","internalType":"address"}],"outputs":[{"name":"amounts","type":"uint256[]","internalType":"uint256[]"}],"stateMutability":"nonpayable"},{"type":"event","name":"ApprovalForAll","inputs":[{"name":"account","type":"address","indexed":true,"internalType":"address"},{"name":"operator","type":"address","indexed":true,"internalType":"address"},{"name":"approved","type":"bool","indexed":false,"internalType":"bool"}],"anonymous":false},{"type":"event","name":"Burn","inputs":[{"name":"vaultId","type":"uint48","indexed":true,"internalType":"uint48"},{"name":"isAPE","type":"bool","indexed":false,"internalType":"bool"},{"name":"collateralWithdrawn","type":"uint144","indexed":false,"internalType":"uint144"},{"name":"collateralFeeToStakers","type":"uint144","indexed":false,"internalType":"uint144"},{"name":"collateralFeeToLPers","type":"uint144","indexed":false,"internalType":"uint144"}],"anonymous":false},{"type":"event","name":"FeesToStakers","inputs":[{"name":"collateralToken","type":"address","indexed":true,"internalType":"address"},{"name":"totalFeesToStakers","type":"uint112","indexed":false,"internalType":"uint112"}],"anonymous":false},{"type":"event","name":"Mint","inputs":[{"name":"vaultId","type":"uint48","indexed":true,"internalType":"uint48"},{"name":"isAPE","type":"bool","indexed":false,"internalType":"bool"},{"name":"collateralIn","type":"uint144","indexed":false,"internalType":"uint144"},{"name":"collateralFeeToStakers","type":"uint144","indexed":false,"internalType":"uint144"},{"name":"collateralFeeToLPers","type":"uint144","indexed":false,"internalType":"uint144"}],"anonymous":false},{"type":"event","name":"TransferBatch","inputs":[{"name":"operator","type":"address","indexed":true,"internalType":"address"},{"name":"from","type":"address","indexed":true,"internalType":"address"},{"name":"to","type":"address","indexed":true,"internalType":"address"},{"name":"vaultIds","type":"uint256[]","indexed":false,"internalType":"uint256[]"},{"name":"amounts","type":"uint256[]","indexed":false,"internalType":"uint256[]"}],"anonymous":false},{"type":"event","name":"TransferSingle","inputs":[{"name":"operator","type":"address","indexed":true,"internalType":"address"},{"name":"from","type":"address","indexed":true,"internalType":"address"},{"name":"to","type":"address","indexed":true,"internalType":"address"},{"name":"id","type":"uint256","indexed":false,"internalType":"uint256"},{"name":"amount","type":"uint256","indexed":false,"internalType":"uint256"}],"anonymous":false},{"type":"event","name":"URI","inputs":[{"name":"value","type":"string","indexed":false,"internalType":"string"},{"name":"id","type":"uint256","indexed":true,"internalType":"uint256"}],"anonymous":false},{"type":"event","name":"VaultNewTax","inputs":[{"name":"vault","type":"uint48","indexed":true,"internalType":"uint48"},{"name":"tax","type":"uint8","indexed":false,"internalType":"uint8"},{"name":"cumulativeTax","type":"uint16","indexed":false,"internalType":"uint16"}],"anonymous":false},{"type":"error","name":"LengthMismatch","inputs":[]},{"type":"error","name":"NotAuthorized","inputs":[]},{"type":"error","name":"TEAMaxSupplyExceeded","inputs":[]},{"type":"error","name":"TF","inputs":[]},{"type":"error","name":"UnsafeRecipient","inputs":[]}],"bytecode":{"object":"0x61012060405234801561001157600080fd5b50604051615e7b380380615e7b83398101604081905261003091610168565b6001600160a01b03938416608090815264ffffffffff421660a05292841660c052604080519384018152610fa08452610929602080860191909152600085830181905260609586018190526002805466ffffffffffffff19166309290fa017815594871660e052928616610100528151948501825282855284018281529084018281526005805460018101825593529351919092027f036b6384b5eca791c62761152d0c79bb0604c104a5fb6f4eb0703f3154bb3db0810180549286166001600160a01b03199093169290921790915590517f036b6384b5eca791c62761152d0c79bb0604c104a5fb6f4eb0703f3154bb3db19091018054925160ff16600160a01b026001600160a81b031990931691909316171790556101bc565b80516001600160a01b038116811461016357600080fd5b919050565b6000806000806080858703121561017e57600080fd5b6101878561014c565b93506101956020860161014c565b92506101a36040860161014c565b91506101b16060860161014c565b905092959194509250565b60805160a05160c05160e05161010051615c4361023860003960006112670152600081816112150152818161139601528181611ba20152612d7c01526000818161095901528181610aec015261192801526000818161030f0152613dda0152600081816117eb0152818161207801526124d40152615c436000f3fe608060405234801561001057600080fd5b50600436106101b85760003560e01c806361086e43116100f9578063bb147c5411610097578063d2f3fd0911610071578063d2f3fd091461065a578063e985e9c51461067a578063f242432a146106a8578063fbd98edf146106bb57600080fd5b8063bb147c5414610602578063bd85b03914610615578063c7c3d2dc1461064757600080fd5b80637a32af78116100d35780637a32af78146105835780637a4996e8146105a257806394c050f8146105dc578063a22cb465146105ef57600080fd5b806361086e43146104605780636cfcac0414610533578063777b1d431461057057600080fd5b80633aa8867011610166578063458e8e6b11610140578063458e8e6b1461034757806346f90748146103ff5780634e1273f41461042d5780635ab2cef41461044d57600080fd5b80633aa88670146102c15780633fc62188146102d4578063410cd41a1461030a57600080fd5b8063164e68de11610197578063164e68de146102265780632eb2c2d6146102585780632edf31041461026d57600080fd5b8062fdd58e146101bd57806301ffc9a7146101e35780630e89341c14610206575b600080fd5b6101d06101cb36600461487c565b6106db565b6040519081526020015b60405180910390f35b6101f66101f13660046148d6565b61076f565b60405190151581526020016101da565b6102196102143660046148f3565b610850565b6040516101da9190614930565b610239610234366004614981565b61093f565b6040516dffffffffffffffffffffffffffff90911681526020016101da565b61026b610266366004614a2c565b610b27565b005b61028061027b366004614b09565b611051565b60408051825171ffffffffffffffffffffffffffffffffffff16815260208084015160070b908201529181015165ffffffffffff16908201526060016101da565b61026b6102cf366004614c06565b6111a6565b6102e76102e2366004614c68565b6112e0565b60405171ffffffffffffffffffffffffffffffffffff90911681526020016101da565b6103317f000000000000000000000000000000000000000000000000000000000000000081565b60405164ffffffffff90911681526020016101da565b6103b9604080516080810182526000808252602082018190529181018290526060810191909152506040805160808101825260025461ffff80821683526201000082048116602084015260ff640100000000830416151593830193909352650100000000009004909116606082015290565b6040516101da9190600060808201905061ffff835116825261ffff602084015116602083015260408301511515604083015261ffff606084015116606083015292915050565b61041261040d366004614ca8565b6116b3565b60405169ffffffffffffffffffff90911681526020016101da565b61044061043b366004614cd8565b6116d2565b6040516101da9190614d49565b61026b61045b366004614d9e565b6117d3565b6104f461046e366004614981565b60408051808201909152600080825260208201525073ffffffffffffffffffffffffffffffffffffffff166000908152600860209081526040918290208251808401909352546dffffffffffffffffffffffffffff811683526e010000000000000000000000000000900471ffffffffffffffffffffffffffffffffffff169082015290565b6040805182516dffffffffffffffffffffffffffff16815260209283015171ffffffffffffffffffffffffffffffffffff1692810192909252016101da565b61055e610541366004614df9565b65ffffffffffff1660009081526020819052604090205460ff1690565b60405160ff90911681526020016101da565b61041261057e366004614ca8565b61190e565b61058b611a56565b60405165ffffffffffff90911681526020016101da565b6105b56105b03660046148f3565b611a6d565b60405175ffffffffffffffffffffffffffffffffffffffffffff90911681526020016101da565b6101d06105ea366004614e16565b611b24565b61026b6105fd366004614e4c565b611fc9565b61026b610610366004614e7a565b612060565b6101d06106233660046148f3565b6000908152600460205260409020546fffffffffffffffffffffffffffffffff1690565b610440610655366004614f31565b6124ba565b61066d610668366004614df9565b612870565b6040516101da9190614f7d565b6101f6610688366004614fd1565b600660209081526000928352604080842090915290825290205460ff1681565b61026b6106b6366004614fff565b612919565b6106ce6106c9366004614b09565b612d18565b6040516101da919061507b565b600073ffffffffffffffffffffffffffffffffffffffff831630146107305773ffffffffffffffffffffffffffffffffffffffff83166000908152600360209081526040808320858452909152902054610766565b60008281526004602052604090205470010000000000000000000000000000000090046fffffffffffffffffffffffffffffffff165b90505b92915050565b60007f01ffc9a7000000000000000000000000000000000000000000000000000000007fffffffff000000000000000000000000000000000000000000000000000000008316148061080257507fd9b67a26000000000000000000000000000000000000000000000000000000007fffffffff000000000000000000000000000000000000000000000000000000008316145b806107695750507fffffffff00000000000000000000000000000000000000000000000000000000167f0e89341c000000000000000000000000000000000000000000000000000000001490565b6000818152600460208190526040918290205491517f3ef6287c000000000000000000000000000000000000000000000000000000008152600591810191909152602481018390526fffffffffffffffffffffffffffffffff9091166044820181905260609173__$0d913f5ea2cc8398585c34a0416dbc1ef1$__90633ef6287c90606401600060405180830381865af41580156108f2573d6000803e3d6000fd5b505050506040513d6000823e601f3d9081017fffffffffffffffffffffffffffffffffffffffffffffffffffffffffffffffe016820160405261093891908101906150cb565b9392505050565b60003373ffffffffffffffffffffffffffffffffffffffff7f0000000000000000000000000000000000000000000000000000000000000000161461098357600080fd5b5073ffffffffffffffffffffffffffffffffffffffff81166000908152600860209081526040918290208251808401909352546dffffffffffffffffffffffffffff81168084526e01000000000000000000000000000090910471ffffffffffffffffffffffffffffffffffff1691830191909152908115610b2157604051806040016040528060006dffffffffffffffffffffffffffff168152602001836dffffffffffffffffffffffffffff168360200151610a4191906151ae565b71ffffffffffffffffffffffffffffffffffff90811690915273ffffffffffffffffffffffffffffffffffffffff851660008181526008602090815260408083208651968301519095166e010000000000000000000000000000026dffffffffffffffffffffffffffff909616959095179093559251928352917fcd82d3b0662b3f7ad1373ff46ce247f38d4e9dd2419b198489e17f09b79cd93e910160405180910390a2610b21837f0000000000000000000000000000000000000000000000000000000000000000846dffffffffffffffffffffffffffff16612de7565b50919050565b3073ffffffffffffffffffffffffffffffffffffffff891603610b4c57610b4c6151d8565b848314610b85576040517fff633a3800000000000000000000000000000000000000000000000000000000815260040160405180910390fd5b3373ffffffffffffffffffffffffffffffffffffffff891614801590610bdc575073ffffffffffffffffffffffffffffffffffffffff8816600090815260066020908152604080832033845290915290205460ff16155b15610c13576040517fea8e4eb500000000000000000000000000000000000000000000000000000000815260040160405180910390fd5b6040805160808101825260008082526020820181905291810182905260608101829052905b86811015610e66576000888883818110610c5457610c54615207565b9050602002013590506000878784818110610c7157610c71615207565b90506020020135905060405180608001604052808d73ffffffffffffffffffffffffffffffffffffffff168152602001600360008f73ffffffffffffffffffffffffffffffffffffffff1673ffffffffffffffffffffffffffffffffffffffff16815260200190815260200160002060008581526020019081526020016000205481526020018c73ffffffffffffffffffffffffffffffffffffffff168152602001610d1d8d856106db565b90526040805160808101825260025461ffff80821683526201000082048116602080850191909152640100000000830460ff90811615158587015265010000000000909304909116606080850191909152600088815280835285812086519283018752549384168252610100840464ffffffffff1692820192909252660100000000000090920475ffffffffffffffffffffffffffffffffffffffffffff1693820193909352929650610ddc92859190610dd683612f20565b89612f91565b508084602001818151610def9190615236565b90525073ffffffffffffffffffffffffffffffffffffffff8c8116908c1614610e5c5760208085015173ffffffffffffffffffffffffffffffffffffffff8e16600090815260038352604080822086835290935291909120556060840151610e5c908c90849084016131de565b5050600101610c38565b508773ffffffffffffffffffffffffffffffffffffffff168973ffffffffffffffffffffffffffffffffffffffff163373ffffffffffffffffffffffffffffffffffffffff167f4a39dc06d4c0dbc64b70af90fd698a233a518aa5d07e595d983b8c0526c8f7fb8a8a8a8a604051610ee19493929190615294565b60405180910390a473ffffffffffffffffffffffffffffffffffffffff88163b15610ff65773ffffffffffffffffffffffffffffffffffffffff88163014801590610ff157506040517fbc197c81000000000000000000000000000000000000000000000000000000008082529073ffffffffffffffffffffffffffffffffffffffff8a169063bc197c8190610f899033908e908d908d908d908d908d908d9060040161530f565b6020604051808303816000875af1158015610fa8573d6000803e3d6000fd5b505050506040513d601f19601f82011682018060405250810190610fcc9190615392565b7fffffffff000000000000000000000000000000000000000000000000000000001614155b61100f565b73ffffffffffffffffffffffffffffffffffffffff8816155b15611046576040517f3da6393100000000000000000000000000000000000000000000000000000000815260040160405180910390fd5b505050505050505050565b60408051606081018252600080825260208201819052918101919091526007600061107f6020850185614981565b73ffffffffffffffffffffffffffffffffffffffff1673ffffffffffffffffffffffffffffffffffffffff16815260200190815260200160002060008360200160208101906110ce9190614981565b73ffffffffffffffffffffffffffffffffffffffff1673ffffffffffffffffffffffffffffffffffffffff168152602001908152602001600020600083604001602081019061111d91906153af565b600090810b8252602080830193909352604091820190208151606081018352905471ffffffffffffffffffffffffffffffffffff811682527201000000000000000000000000000000000000810460070b938201939093527a01000000000000000000000000000000000000000000000000000090920465ffffffffffff169082015292915050565b805173ffffffffffffffffffffffffffffffffffffffff90811660009081526007602090815260408083208286018051861685529083528184208287018051860b8652935281842091517fd1c790ba0000000000000000000000000000000000000000000000000000000081527f0000000000000000000000000000000000000000000000000000000000000000861660048201526024810192909252600560448301528551851660648301525184166084820152905190910b60a48201527f000000000000000000000000000000000000000000000000000000000000000090911660c482015273__$0d913f5ea2cc8398585c34a0416dbc1ef1$__9063d1c790ba9060e40160006040518083038186803b1580156112c557600080fd5b505af41580156112d9573d6000803e3d6000fd5b5050505050565b60008060026040518060800160405290816000820160009054906101000a900461ffff1661ffff1661ffff1681526020016000820160029054906101000a900461ffff1661ffff1661ffff1681526020016000820160049054906101000a900460ff161515151581526020016000820160059054906101000a900461ffff1661ffff1661ffff1681525050905060008060008073__$0d913f5ea2cc8398585c34a0416dbc1ef1$__63a80cf3ce60008b600860077f00000000000000000000000000000000000000000000000000000000000000008e6040518763ffffffff1660e01b81526004016113d79695949392919061542e565b61014060405180830381865af41580156113f5573d6000803e3d6000fd5b505050506040513d601f19601f820116820180604052508101906114199190615505565b5060408381015165ffffffffffff1660009081526020818152828220835160608082018652915460ff81168252610100810464ffffffffff16828501526601000000000000900475ffffffffffffffffffffffffffffffffffffffffffff168186015284516080810186528481529283018490529382018390528101919091529498509296509094509250908a15611582578273ffffffffffffffffffffffffffffffffffffffff16638c2684273389600001518560000151888e6040518663ffffffff1660e01b81526004016114f495949392919061560c565b60e0604051808303816000875af1158015611513573d6000803e3d6000fd5b505050506040513d601f19601f82011682018060405250810190611537919061571b565b6060810151919550915071ffffffffffffffffffffffffffffffffffff161561157d5761157d61156d60408c0160208d01614981565b8660400151868460600151613270565b6115a6565b6115a361159560408c0160208d01614981565b86604001518985888e61345a565b90505b6115b185858c613674565b6115ea600087836020015171ffffffffffffffffffffffffffffffffffff168d60200160208101906115e39190614981565b8551613b58565b846040015165ffffffffffff167f7c6da711ffa6af277b820416f2daab1018c73a4fb0c4a49a38c5fb292b6c0e8b8c83600001518460200151856060015186604001516116379190615747565b60408051941515855271ffffffffffffffffffffffffffffffffffff9384166020860152918316848301529091166060830152519081900360800190a26116a461168760408c0160208d01614981565b8251339071ffffffffffffffffffffffffffffffffffff16612de7565b519a9950505050505050505050565b600061076683836116c485876106db565b6116cd87611a6d565b613c8f565b606083821461170d576040517fff633a3800000000000000000000000000000000000000000000000000000000815260040160405180910390fd5b8367ffffffffffffffff81111561172657611726614b25565b60405190808252806020026020018201604052801561174f578160200160208202803683370190505b50905060005b848110156117ca576117a586868381811061177257611772615207565b90506020020160208101906117879190614981565b85858481811061179957611799615207565b905060200201356106db565b8282815181106117b7576117b7615207565b6020908102919091010152600101611755565b50949350505050565b3373ffffffffffffffffffffffffffffffffffffffff7f0000000000000000000000000000000000000000000000000000000000000000161461181557600080fd5b60408051608080820183526002805461ffff808216855262010000808304821660208088019190915264010000000080850460ff161515888a01526501000000000080860485166060998a019081528a519889018b529c85168089529b85169288018390529915159887018990529a51909216949095018490527fffffffffffffffffffffffffffffffffffffffffffffffffffffffff0000000090911690961795909202949094177fffffffffffffffffffffffffffffffffffffffffffffffffff000000ffffffff16919094027fffffffffffffffffffffffffffffffffffffffffffffffffff0000ffffffffff16179102179055565b60003373ffffffffffffffffffffffffffffffffffffffff7f0000000000000000000000000000000000000000000000000000000000000000161461195257600080fd5b600060405180608001604052808473ffffffffffffffffffffffffffffffffffffffff16815260200161198585876106db565b8152600060208083018290526040928301829052825160808101845260025461ffff8082168352620100008204811683850152640100000000820460ff90811615158488015265010000000000909204166060808401919091528a85528484529385902085519485018652549081168452610100810464ffffffffff1692840192909252660100000000000090910475ffffffffffffffffffffffffffffffffffffffffffff1692820192909252919250611a4e916001918791611a4883612f20565b86612f91565b949350505050565b600554600090611a6890600190615236565b905090565b6040805160808101825260025461ffff80821683526201000082048116602080850191909152640100000000830460ff90811615158587015265010000000000909304909116606080850191909152600086815280835285812086519283018752549384168252610100840464ffffffffff1692820192909252660100000000000090920475ffffffffffffffffffffffffffffffffffffffffffff16938201939093526107699190611b1f85612f20565b613d7a565b6040805160808101825260025461ffff80821683526201000082048116602084015260ff6401000000008304161580159484019490945265010000000000909104166060820152600091611b7757600080fd5b600080600080600073__$0d913f5ea2cc8398585c34a0416dbc1ef1$__63a80cf3ce60018b600860077f00000000000000000000000000000000000000000000000000000000000000008e6040518763ffffffff1660e01b8152600401611be39695949392919061542e565b61014060405180830381865af4158015611c01573d6000803e3d6000fd5b505050506040513d601f19601f82011682018060405250810190611c259190615505565b60408481015165ffffffffffff1660009081526020818152828220835160608082018652915460ff81168252610100810464ffffffffff16828501526601000000000000900475ffffffffffffffffffffffffffffffffffffffffffff16818601528451608081018652848152928301849052938201839052810191909152959a5093985091965094509250908a15611da657875182516040517f6bc601d700000000000000000000000000000000000000000000000000000000815273ffffffffffffffffffffffffffffffffffffffff871692636bc601d792611d1492339291908b908a90600401615771565b610100604051808303816000875af1158015611d34573d6000803e3d6000fd5b505050506040513d601f19601f82011682018060405250810190611d589190615814565b6060820151909b50919650915071ffffffffffffffffffffffffffffffffffff1615611da157611da1611d9160408c0160208d01614981565b8760400151878460600151613270565b611dcc565b611dc7611db960408c0160208d01614981565b87604001518a858988613f06565b995090505b611dd786868c613674565b611e0f600188836020015171ffffffffffffffffffffffffffffffffffff168d6020016020810190611e099190614981565b87613b58565b856040015165ffffffffffff167f2ea082b0ce379480d9dfb0d7ab365e33def58ee2bee64887c13e531723b5c8818c836000015184602001518560600151866040015101604051611e929493929190931515845271ffffffffffffffffffffffffffffffffffff9283166020850152908216604084015216606082015260800190565b60405180910390a28a158015611ea85750333b15155b8015611f84575060408087015190517ff23a6e6100000000000000000000000000000000000000000000000000000000808252336004830181905260006024840181905265ffffffffffff9094166044840152606483018d905260a0608484015260a4830193909352919063f23a6e619060c4016020604051808303816000875af1158015611f3b573d6000803e3d6000fd5b505050506040513d601f19601f82011682018060405250810190611f5f9190615392565b7fffffffff000000000000000000000000000000000000000000000000000000001614155b15611fbb576040517f3da6393100000000000000000000000000000000000000000000000000000000815260040160405180910390fd5b505050505050505092915050565b33600081815260066020908152604080832073ffffffffffffffffffffffffffffffffffffffff87168085529083529281902080547fffffffffffffffffffffffffffffffffffffffffffffffffffffffffffffff001686151590811790915590519081529192917f17307eab39ab6107e8899845ad3d59bd9653f200f220920489ca2b5937696c31910160405180910390a35050565b3373ffffffffffffffffffffffffffffffffffffffff7f000000000000000000000000000000000000000000000000000000000000000016146120a257600080fd5b6000805b87811015612275576120e58989838181106120c3576120c3615207565b90506020020160208101906120d89190614df9565b65ffffffffffff16611a6d565b91506040518060600160405280600060ff1681526020014264ffffffffff1681526020018375ffffffffffffffffffffffffffffffffffffffffffff168152506000808b8b8581811061213a5761213a615207565b905060200201602081019061214f9190614df9565b65ffffffffffff16815260208082019290925260409081016000208351815493850151949092015175ffffffffffffffffffffffffffffffffffffffffffff166601000000000000027fffffffff00000000000000000000000000000000000000000000ffffffffffff64ffffffffff909516610100027fffffffffffffffffffffffffffffffffffffffffffffffffffff00000000000090941660ff90931692909217929092179290921691909117905588888281811061221357612213615207565b90506020020160208101906122289190614df9565b604080516000808252602082015265ffffffffffff92909216917fc05b4c85e1a9e164c2764407bce9e5955a2e6435dea37ef8c4e62ec458ebf21a910160405180910390a26001016120a6565b5060005b85811015612474576122968787838181106120c3576120c3615207565b915060405180606001604052808686848181106122b5576122b5615207565b90506020020160208101906122ca9190615856565b60ff1681526020014264ffffffffff1681526020018375ffffffffffffffffffffffffffffffffffffffffffff1681525060008089898581811061231057612310615207565b90506020020160208101906123259190614df9565b65ffffffffffff16815260208082019290925260409081016000208351815493850151949092015175ffffffffffffffffffffffffffffffffffffffffffff166601000000000000027fffffffff00000000000000000000000000000000000000000000ffffffffffff64ffffffffff909516610100027fffffffffffffffffffffffffffffffffffffffffffffffffffff00000000000090941660ff9093169290921792909217929092169190911790558686828181106123e9576123e9615207565b90506020020160208101906123fe9190614df9565b65ffffffffffff167fc05b4c85e1a9e164c2764407bce9e5955a2e6435dea37ef8c4e62ec458ebf21a86868481811061243957612439615207565b905060200201602081019061244e9190615856565b6040805160ff909216825261ffff871660208301520160405180910390a2600101612279565b50506002805461ffff90921665010000000000027fffffffffffffffffffffffffffffffffffffffffffffffffff0000ffffffffff909216919091179055505050505050565b60603373ffffffffffffffffffffffffffffffffffffffff7f000000000000000000000000000000000000000000000000000000000000000016146124fe57600080fd5b8267ffffffffffffffff81111561251757612517614b25565b604051908082528060200260200182016040528015612540578160200160208202803683370190505b5090506000606060005b858110156128665786868281811061256457612564615207565b90506020020160208101906125799190614981565b604080513060248083019190915282518083039091018152604490910182526020810180517bffffffffffffffffffffffffffffffffffffffffffffffffffffffff167f70a0823100000000000000000000000000000000000000000000000000000000179052905173ffffffffffffffffffffffffffffffffffffffff92909216916126069190615879565b6000604051808303816000865af19150503d8060008114612643576040519150601f19603f3d011682016040523d82523d6000602084013e612648565b606091505b50909350915082801561265c575081516020145b1561285e57818060200190518101906126759190615895565b84828151811061268757612687615207565b60200260200101818152505060008482815181106126a7576126a7615207565b6020026020010151111561285e578686828181106126c7576126c7615207565b90506020020160208101906126dc9190614981565b73ffffffffffffffffffffffffffffffffffffffff1663a9059cbb60e01b8686848151811061270d5761270d615207565b602090810291909101015160405173ffffffffffffffffffffffffffffffffffffffff90921660248301526044820152606401604080517fffffffffffffffffffffffffffffffffffffffffffffffffffffffffffffffe08184030181529181526020820180517bffffffffffffffffffffffffffffffffffffffffffffffffffffffff167fffffffff000000000000000000000000000000000000000000000000000000009094169390931790925290516127c99190615879565b6000604051808303816000865af19150503d8060008114612806576040519150601f19603f3d011682016040523d82523d6000602084013e61280b565b606091505b50909350915082801561283657508151158061283657508180602001905181019061283691906158ae565b92508261285e57600084828151811061285157612851615207565b6020026020010181815250505b60010161254a565b5050509392505050565b604080516060810182526000808252602082018190529181019190915260058265ffffffffffff16815481106128a8576128a8615207565b60009182526020808320604080516060810182526002909402909101805473ffffffffffffffffffffffffffffffffffffffff9081168552600190910154908116928401929092527401000000000000000000000000000000000000000090910490920b9181019190915292915050565b3073ffffffffffffffffffffffffffffffffffffffff87160361293e5761293e6151d8565b3373ffffffffffffffffffffffffffffffffffffffff871614801590612995575073ffffffffffffffffffffffffffffffffffffffff8616600090815260066020908152604080832033845290915290205460ff16155b156129cc576040517fea8e4eb500000000000000000000000000000000000000000000000000000000815260040160405180910390fd5b6040805160808101825273ffffffffffffffffffffffffffffffffffffffff808916808352600090815260036020908152848220898352815284822054908401529088169282019290925260608101612a2588886106db565b90526040805160808101825260025461ffff80821683526201000082048116602080850191909152640100000000830460ff9081161515858701526501000000000090930490911660608085019190915260008b815280835285812086519283018752549384168252610100840464ffffffffff1692820192909252660100000000000090920475ffffffffffffffffffffffffffffffffffffffffffff1693820193909352929350612ade92889190611a4883612f20565b508381602001818151612af19190615236565b90525073ffffffffffffffffffffffffffffffffffffffff87811690871614612b5e5760208082015173ffffffffffffffffffffffffffffffffffffffff8916600090815260038352604080822089835290935291909120556060810151612b5e908790879087016131de565b604080518681526020810186905273ffffffffffffffffffffffffffffffffffffffff80891692908a169133917fc3d58168c5ae7397731d063d5bbf3d657854427343f4c083240f7aacaa2d0f62910160405180910390a473ffffffffffffffffffffffffffffffffffffffff86163b15612cbf5773ffffffffffffffffffffffffffffffffffffffff86163014801590612cba57506040517ff23a6e61000000000000000000000000000000000000000000000000000000008082529073ffffffffffffffffffffffffffffffffffffffff88169063f23a6e6190612c529033908c908b908b908b908b906004016158cb565b6020604051808303816000875af1158015612c71573d6000803e3d6000fd5b505050506040513d601f19601f82011682018060405250810190612c959190615392565b7fffffffff000000000000000000000000000000000000000000000000000000001614155b612cd8565b73ffffffffffffffffffffffffffffffffffffffff8616155b15612d0f576040517f3da6393100000000000000000000000000000000000000000000000000000000815260040160405180910390fd5b50505050505050565b604080516060810182526000808252602082018190528183015290517f94215a4c00000000000000000000000000000000000000000000000000000000815273__$0d913f5ea2cc8398585c34a0416dbc1ef1$__906394215a4c90612da6906007907f000000000000000000000000000000000000000000000000000000000000000090879060040161592f565b606060405180830381865af4158015612dc3573d6000803e3d6000fd5b505050506040513d601f19601f82011682018060405250810190610769919061595f565b6040805173ffffffffffffffffffffffffffffffffffffffff8481166024830152604480830185905283518084039091018152606490920183526020820180517bffffffffffffffffffffffffffffffffffffffffffffffffffffffff167fa9059cbb000000000000000000000000000000000000000000000000000000001790529151600092839290871691612e7e9190615879565b6000604051808303816000865af19150503d8060008114612ebb576040519150601f19603f3d011682016040523d82523d6000602084013e612ec0565b606091505b5091509150818015612eea575080511580612eea575080806020019051810190612eea91906158ae565b6112d9576040517f8b98626500000000000000000000000000000000000000000000000000000000815260040160405180910390fd5b60008181526004602090815260408083208151808301909252546fffffffffffffffffffffffffffffffff808216808452700100000000000000000000000000000000909204169282018390529091612f789161597b565b6fffffffffffffffffffffffffffffffff169392505050565b600080612f9f868686613d7a565b9050612fb5878460000151856020015184613c8f565b915060405180604001604052808275ffffffffffffffffffffffffffffffffffffffffffff16815260200189612feb5783612fee565b60005b69ffffffffffffffffffff9081169091526000898152600160209081526040808320885173ffffffffffffffffffffffffffffffffffffffff908116855290835292819020855195909201519093167601000000000000000000000000000000000000000000000275ffffffffffffffffffffffffffffffffffffffffffff909416939093179092558401511630146131455760405180604001604052808275ffffffffffffffffffffffffffffffffffffffffffff1681526020016130be898660400151876060015186613c8f565b69ffffffffffffffffffff90811690915260008981526001602090815260408083208882015173ffffffffffffffffffffffffffffffffffffffff1684528252909120835193909101519091167601000000000000000000000000000000000000000000000275ffffffffffffffffffffffffffffffffffffffffffff9092169190911790555b60009687526020879052604090962080547fffffffff000000000000000000000000000000000000000000000000000000ff16660100000000000075ffffffffffffffffffffffffffffffffffffffffffff909816979097027fffffffffffffffffffffffffffffffffffffffffffffffffffff0000000000ff16969096176101004264ffffffffff1602179095555092949350505050565b3073ffffffffffffffffffffffffffffffffffffffff84160361323c57600082815260046020526040902080546fffffffffffffffffffffffffffffffff808416700100000000000000000000000000000000029116179055505050565b73ffffffffffffffffffffffffffffffffffffffff9290921660009081526003602090815260408083209383529290522055565b65ffffffffffff831660009081526004602090815260408083208151808301909252546fffffffffffffffffffffffffffffffff80821680845270010000000000000000000000000000000090920416928201929092529190156133205761331b82600001516fffffffffffffffffffffffffffffffff168471ffffffffffffffffffffffffffffffffffff16866020015171ffffffffffffffffffffffffffffffffffff166141ad565b613330565b6133308685602001518501614279565b825190915061ffff6f140eb6ae00000000000000000000000004036fffffffffffffffffffffffffffffffff16811115613396576040517f6deac20700000000000000000000000000000000000000000000000000000000815260040160405180910390fd5b602082810180516fffffffffffffffffffffffffffffffff908401811682528451840181168552868301805171ffffffffffffffffffffffffffffffffffff90880116905265ffffffffffff8816600081815260048552604080822088519551851670010000000000000000000000000000000002959094169490941790925582519081529283018490523092909133917fc3d58168c5ae7397731d063d5bbf3d657854427343f4c083240f7aacaa2d0f62910160405180910390a4505050505050565b604080516080808201835260008083526020808401829052838501829052606080850183905265ffffffffffff8b16808452600483528684208751808901895290546fffffffffffffffffffffffffffffffff8082168352700100000000000000000000000000000000909104811682860190815233808852600387528a882085895287528a8820548b51998a018c5290895295880186905230998801999099529286018590529651875196979693959461351d9490938d928d92031686612f91565b506000613559876020015171ffffffffffffffffffffffffffffffffffff168786600001516fffffffffffffffffffffffffffffffff166141ad565b90508286111561356857600080fd5b33600090815260036020908152604080832065ffffffffffff8e1684528252909120878503905584518790036fffffffffffffffffffffffffffffffff168552878101805183900371ffffffffffffffffffffffffffffffffffff16905289015188516135dc918d918d9188918c87614489565b65ffffffffffff8b16600081815260046020908152604080832089518a8401516fffffffffffffffffffffffffffffffff90811670010000000000000000000000000000000002911617905580519384529083018a905292975091339182917fc3d58168c5ae7397731d063d5bbf3d657854427343f4c083240f7aacaa2d0f62910160405180910390a4505050509695505050505050565b602082015182510171ffffffffffffffffffffffffffffffffffff16808452600211156136a057600080fd5b815171ffffffffffffffffffffffffffffffffffff166000036136d057677fffffffffffffff60208401526139d2565b816020015171ffffffffffffffffffffffffffffffffffff1660000361371b577fffffffffffffffffffffffffffffffffffffffffffffffff800000000000000060208401526139d2565b60008061372e60608401604085016153af565b60000b121561374f5761374760608301604084016153af565b60000361375f565b61375f60608301604084016153af565b905060008061377460608501604086016153af565b60000b13156137b7576020840151845171ffffffffffffffffffffffffffffffffffff918216911660ff84161b10156137af575060016137ed565b5060006137ed565b6020840151845171ffffffffffffffffffffffffffffffffffff91821660ff85161b911610156137e9575060016137ed565b5060005b80156138e157600061386c8161380960608701604088016153af565b60000b121561383257865171ffffffffffffffffffffffffffffffffffff1660ff85161b613849565b865171ffffffffffffffffffffffffffffffffffff165b865171ffffffffffffffffffffffffffffffffffff1660ff861681901b01614668565b60070b905060008061388460608701604088016153af565b60000b1215613899578360ff1682901b6138a1565b8360ff1682901d5b604087015160070b019050677fffffffffffffff8113156138cf57677fffffffffffffff60208801526138da565b600781900b60208801525b50506139cf565b600061395d816138f760608701604088016153af565b60000b121561391b57865171ffffffffffffffffffffffffffffffffffff16613937565b865171ffffffffffffffffffffffffffffffffffff1660ff85161b5b602087015171ffffffffffffffffffffffffffffffffffff1660ff861681901b01614668565b6040860151600791820b9250900b8190037fffffffffffffffffffffffffffffffffffffffffffffffff80000000000000008112156139c1577fffffffffffffffffffffffffffffffffffffffffffffffff800000000000000060208801526139cc565b600781900b60208801525b50505b50505b82600760006139e46020850185614981565b73ffffffffffffffffffffffffffffffffffffffff1673ffffffffffffffffffffffffffffffffffffffff1681526020019081526020016000206000836020016020810190613a339190614981565b73ffffffffffffffffffffffffffffffffffffffff1673ffffffffffffffffffffffffffffffffffffffff1681526020019081526020016000206000836040016020810190613a8291906153af565b600090810b8252602080830193909352604091820190208351815493850151949092015165ffffffffffff167a0100000000000000000000000000000000000000000000000000000279ffffffffffffffffffffffffffffffffffffffffffffffffffff67ffffffffffffffff9095167201000000000000000000000000000000000000027fffffffffffff000000000000000000000000000000000000000000000000000090941671ffffffffffffffffffffffffffffffffffff909316929092179290921792909216919091179055505050565b8351600090613b789085906dffffffffffffffffffffffffffff166159d2565b90506dffffffffffffffffffffffffffff811115613b9557600080fd5b6040518060400160405280826dffffffffffffffffffffffffffff16815260200187613bd057838760200151613bcb91906151ae565b613be0565b838760200151613be09190615747565b71ffffffffffffffffffffffffffffffffffff90811690915273ffffffffffffffffffffffffffffffffffffffff85166000818152600860209081526040918290208551868301519095166e010000000000000000000000000000026dffffffffffffffffffffffffffff95861617905590519285168352929750917fcd82d3b0662b3f7ad1373ff46ce247f38d4e9dd2419b198489e17f09b79cd93e910160405180910390a2505050505050565b60003073ffffffffffffffffffffffffffffffffffffffff851603613cb657506000611a4e565b600085815260016020908152604080832073ffffffffffffffffffffffffffffffffffffffff88168452825280832081518083019092525475ffffffffffffffffffffffffffffffffffffffffffff81168252760100000000000000000000000000000000000000000000900469ffffffffffffffffffff169181019190915290849003613d4957602001519050611a4e565b8051602090910151920375ffffffffffffffffffffffffffffffffffffffffffff169290920260601c019392505050565b6040820151825160ff1615801590613da457504264ffffffffff16836020015164ffffffffff1614155b8015613daf57508115155b1561093857836060015161ffff16836000015160ff161115613dd357613dd36151d8565b60208301517f00000000000000000000000000000000000000000000000000000000000000006305a39a800164ffffffffff8082169083161015613e7c576060860151855160009161ffff169060ff166527d6140eb6ae0281613e3857613e386159a3565b0490508460608464ffffffffff168464ffffffffff164211613e5a5742613e63565b8464ffffffffff165b038302901b81613e7557613e756159a3565b0484019350505b8064ffffffffff164264ffffffffff161115613efd576060860151855160009161ffff169060ff16653a1cc48999360281613eb957613eb96159a3565b0490508460608364ffffffffff168564ffffffffff1611613eda5783613edc565b845b64ffffffffff1642038302901b81613ef657613ef66159a3565b0484019350505b50509392505050565b60408051608081018252600080825260208201819052918101829052606081019190915265ffffffffffff861660008181526004602090815260408083208151808301835290546fffffffffffffffffffffffffffffffff808216835270010000000000000000000000000000000090910481168285019081523380875260038652848720888852865284872054855160808101875291825295810186905230948101949094526060840186905251825195969295613fd193889390928e928e929190031686612f91565b50613fe98b8b858c602001518c600001518c8c614489565b83519095506fffffffffffffffffffffffffffffffff161561405b5761405683600001516fffffffffffffffffffffffffffffffff16866000015171ffffffffffffffffffffffffffffffffffff16896020015171ffffffffffffffffffffffffffffffffffff166141ad565b61406f565b61406f8b8860200151876000015101614279565b835190945061ffff6f140eb6ae00000000000000000000000004036fffffffffffffffffffffffffffffffff168411156140d5576040517f6deac20700000000000000000000000000000000000000000000000000000000815260040160405180910390fd5b33600081815260036020908152604080832065ffffffffffff8f16808552908352818420878a01905587516fffffffffffffffffffffffffffffffff908a01811689528a518d8501805171ffffffffffffffffffffffffffffffffffff92019190911690528185526004845282852089518a8601518316700100000000000000000000000000000000029216919091179055815190815291820188905283917fc3d58168c5ae7397731d063d5bbf3d657854427343f4c083240f7aacaa2d0f62910160405180910390a4505050965096945050505050565b600080807fffffffffffffffffffffffffffffffffffffffffffffffffffffffffffffffff8587098587029250828110838203039150508060000361420457600084116141f957600080fd5b508290049050610938565b80841161421057600080fd5b60008486880960026001871981018816978890046003810283188082028403028082028403028082028403028082028403028082028403029081029092039091026000889003889004909101858311909403939093029303949094049190911702949350505050565b6000808373ffffffffffffffffffffffffffffffffffffffff166318160ddd6040518163ffffffff1660e01b8152600401602060405180830381865afa1580156142c7573d6000803e3d6000fd5b505050506040513d601f19601f820116820180604052508101906142eb9190615895565b905061ffff606067016345785d8a00006301e13380600161430e600c600a615b08565b61431c9063781a75c0615b17565b6143269190615236565b6143309190615b2e565b61433b906001615b60565b6143579068ffffffffffffffffff1666f38a31408ae338615b17565b6143619190615b81565b68ffffffffffffffffff166fffffffffffffffffffffffffffffffff16901b61438a9190615b95565b6fffffffffffffffffffffffffffffffff1681116143bc578271ffffffffffffffffffffffffffffffffffff16611a4e565b611a4e61ffff606067016345785d8a00006301e1338060016143e0600c600a615b08565b6143ee9063781a75c0615b17565b6143f89190615236565b6144029190615b2e565b61440d906001615b60565b6144299068ffffffffffffffffff1666f38a31408ae338615b17565b6144339190615b81565b68ffffffffffffffffff166fffffffffffffffffffffffffffffffff16901b61445c9190615b95565b6fffffffffffffffffffffffffffffffff168471ffffffffffffffffffffffffffffffffffff16836141ad565b6040805160808101825260008082526020820181905291810182905260608101919091526144b88286866147ac565b604081015160208501805190910171ffffffffffffffffffffffffffffffffffff16905286519091506000906fffffffffffffffffffffffffffffffff16156145515761454c87600001516fffffffffffffffffffffffffffffffff16836060015171ffffffffffffffffffffffffffffffffffff16866020015171ffffffffffffffffffffffffffffffffffff166141ad565b614565565b614565898560200151846060015101614279565b875190915061ffff6f140eb6ae00000000000000000000000004036fffffffffffffffffffffffffffffffff168111156145cb576040517f6deac20700000000000000000000000000000000000000000000000000000000815260040160405180910390fd5b6020878101805183016fffffffffffffffffffffffffffffffff908116909152885183011688526060830151858201805190910171ffffffffffffffffffffffffffffffffffff1690526040805165ffffffffffff8b168152918201839052309160009133917fc3d58168c5ae7397731d063d5bbf3d657854427343f4c083240f7aacaa2d0f62910160405180910390a450979650505050505050565b60008183101561467a5761467a6151d8565b8160000361468a5761468a6151d8565b600082848161469b5761469b6159a3565b0490506fffffffffffffffffffffffffffffffff811160071b81811c67ffffffffffffffff811160061b90811c63ffffffff811160051b90811c61ffff811160041b90811c60ff8111600390811b91821c600f811160021b90811c918211600190811b92831c9790881196179094179092171790911717176080811061472957607f810383901c915061473d565b61473a8682607f0360020a876141ad565b91505b603781901b60015b6037811161477a57838402607f1c93508360801c80826037031b8317925084811c9450508061477390615bd5565b9050614745565b5060c061479f8277d89e8c075c4155dd3213326cbbcf86fd1f63f5c205dd2ad2615b17565b901c979650505050505050565b60408051608081018252600080825260208201819052918101829052606081019190915261271061ffff841681018071ffffffffffffffffffffffffffffffffffff87168302816147ff576147ff6159a3565b0471ffffffffffffffffffffffffffffffffffff9081168085526109f69703811660ff95909516850296909604861660208401819052600a850487166060850181905294039390930390941660408201529392505050565b73ffffffffffffffffffffffffffffffffffffffff8116811461487957600080fd5b50565b6000806040838503121561488f57600080fd5b823561489a81614857565b946020939093013593505050565b7fffffffff000000000000000000000000000000000000000000000000000000008116811461487957600080fd5b6000602082840312156148e857600080fd5b8135610938816148a8565b60006020828403121561490557600080fd5b5035919050565b60005b8381101561492757818101518382015260200161490f565b50506000910152565b602081526000825180602084015261494f81604085016020870161490c565b601f017fffffffffffffffffffffffffffffffffffffffffffffffffffffffffffffffe0169190910160400192915050565b60006020828403121561499357600080fd5b813561093881614857565b60008083601f8401126149b057600080fd5b50813567ffffffffffffffff8111156149c857600080fd5b6020830191508360208260051b85010111156149e357600080fd5b9250929050565b60008083601f8401126149fc57600080fd5b50813567ffffffffffffffff811115614a1457600080fd5b6020830191508360208285010111156149e357600080fd5b60008060008060008060008060a0898b031215614a4857600080fd5b8835614a5381614857565b97506020890135614a6381614857565b9650604089013567ffffffffffffffff811115614a7f57600080fd5b614a8b8b828c0161499e565b909750955050606089013567ffffffffffffffff811115614aab57600080fd5b614ab78b828c0161499e565b909550935050608089013567ffffffffffffffff811115614ad757600080fd5b614ae38b828c016149ea565b999c989b5096995094979396929594505050565b600060608284031215610b2157600080fd5b600060608284031215614b1b57600080fd5b6107668383614af7565b7f4e487b7100000000000000000000000000000000000000000000000000000000600052604160045260246000fd5b6040516060810167ffffffffffffffff81118282101715614b7757614b77614b25565b60405290565b6040805190810167ffffffffffffffff81118282101715614b7757614b77614b25565b604051601f82017fffffffffffffffffffffffffffffffffffffffffffffffffffffffffffffffe016810167ffffffffffffffff81118282101715614be757614be7614b25565b604052919050565b8035600081900b8114614c0157600080fd5b919050565b60006060828403128015614c1957600080fd5b50614c22614b54565b8235614c2d81614857565b81526020830135614c3d81614857565b6020820152614c4e60408401614bef565b60408201529392505050565b801515811461487957600080fd5b600080600060a08486031215614c7d57600080fd5b8335614c8881614c5a565b9250614c978560208601614af7565b929592945050506080919091013590565b60008060408385031215614cbb57600080fd5b823591506020830135614ccd81614857565b809150509250929050565b60008060008060408587031215614cee57600080fd5b843567ffffffffffffffff811115614d0557600080fd5b614d118782880161499e565b909550935050602085013567ffffffffffffffff811115614d3157600080fd5b614d3d8782880161499e565b95989497509550505050565b602080825282518282018190526000918401906040840190835b81811015614d81578351835260209384019390920191600101614d63565b509095945050505050565b803561ffff81168114614c0157600080fd5b600080600060608486031215614db357600080fd5b614dbc84614d8c565b9250614dca60208501614d8c565b91506040840135614dda81614c5a565b809150509250925092565b65ffffffffffff8116811461487957600080fd5b600060208284031215614e0b57600080fd5b813561093881614de5565b60008060808385031215614e2957600080fd5b8235614e3481614c5a565b9150614e438460208501614af7565b90509250929050565b60008060408385031215614e5f57600080fd5b8235614e6a81614857565b91506020830135614ccd81614c5a565b60008060008060008060006080888a031215614e9557600080fd5b873567ffffffffffffffff811115614eac57600080fd5b614eb88a828b0161499e565b909850965050602088013567ffffffffffffffff811115614ed857600080fd5b614ee48a828b0161499e565b909650945050604088013567ffffffffffffffff811115614f0457600080fd5b614f108a828b0161499e565b9094509250614f23905060608901614d8c565b905092959891949750929550565b600080600060408486031215614f4657600080fd5b833567ffffffffffffffff811115614f5d57600080fd5b614f698682870161499e565b9094509250506020840135614dda81614857565b60608101610769828473ffffffffffffffffffffffffffffffffffffffff815116825273ffffffffffffffffffffffffffffffffffffffff6020820151166020830152604081015160000b60408301525050565b60008060408385031215614fe457600080fd5b8235614fef81614857565b91506020830135614ccd81614857565b60008060008060008060a0878903121561501857600080fd5b863561502381614857565b9550602087013561503381614857565b94506040870135935060608701359250608087013567ffffffffffffffff81111561505d57600080fd5b61506989828a016149ea565b979a9699509497509295939492505050565b60608101610769828471ffffffffffffffffffffffffffffffffffff815116825271ffffffffffffffffffffffffffffffffffff6020820151166020830152604081015160070b60408301525050565b6000602082840312156150dd57600080fd5b815167ffffffffffffffff8111156150f457600080fd5b8201601f8101841361510557600080fd5b805167ffffffffffffffff81111561511f5761511f614b25565b61515060207fffffffffffffffffffffffffffffffffffffffffffffffffffffffffffffffe0601f84011601614ba0565b81815285602083850101111561516557600080fd5b61517682602083016020860161490c565b95945050505050565b7f4e487b7100000000000000000000000000000000000000000000000000000000600052601160045260246000fd5b71ffffffffffffffffffffffffffffffffffff82811682821603908111156107695761076961517f565b7f4e487b7100000000000000000000000000000000000000000000000000000000600052600160045260246000fd5b7f4e487b7100000000000000000000000000000000000000000000000000000000600052603260045260246000fd5b818103818111156107695761076961517f565b81835260007f07ffffffffffffffffffffffffffffffffffffffffffffffffffffffffffffff83111561527b57600080fd5b8260051b80836020870137939093016020019392505050565b6040815260006152a8604083018688615249565b82810360208401526152bb818587615249565b979650505050505050565b8183528181602085013750600060208284010152600060207fffffffffffffffffffffffffffffffffffffffffffffffffffffffffffffffe0601f840116840101905092915050565b73ffffffffffffffffffffffffffffffffffffffff8916815273ffffffffffffffffffffffffffffffffffffffff8816602082015260a06040820152600061535b60a08301888a615249565b828103606084015261536e818789615249565b905082810360808401526153838185876152c6565b9b9a5050505050505050505050565b6000602082840312156153a457600080fd5b8151610938816148a8565b6000602082840312156153c157600080fd5b61076682614bef565b80356153d581614857565b73ffffffffffffffffffffffffffffffffffffffff16825260208101356153fb81614857565b73ffffffffffffffffffffffffffffffffffffffff16602083015261542260408201614bef565b60000b60408301525050565b86151581528515156020820152604081018590526060810184905273ffffffffffffffffffffffffffffffffffffffff8316608082015261010081016152bb60a08301846153ca565b805171ffffffffffffffffffffffffffffffffffff81168114614c0157600080fd5b8051600781900b8114614c0157600080fd5b6000606082840312156154bd57600080fd5b6154c5614b54565b90506154d082615477565b81526154de60208301615477565b60208201526154ef60408301615499565b604082015292915050565b8051614c0181614857565b600080600080600085870361014081121561551f57600080fd5b604081121561552d57600080fd5b615535614b7d565b87516dffffffffffffffffffffffffffff8116811461555357600080fd5b815261556160208901615477565b6020820152955060607fffffffffffffffffffffffffffffffffffffffffffffffffffffffffffffffc08201121561559857600080fd5b506155a1614b54565b6155ad60408801615477565b81526155bb60608801615499565b602082015260808701516155ce81614de5565b604082015293506155e28760a088016154ab565b92506155f161010087016154fa565b91506156006101208701615477565b90509295509295909350565b73ffffffffffffffffffffffffffffffffffffffff8616815261ffff8516602082015260ff8416604082015260e0810161568b606083018571ffffffffffffffffffffffffffffffffffff815116825271ffffffffffffffffffffffffffffffffffff6020820151166020830152604081015160070b60408301525050565b8260c08301529695505050505050565b6000608082840312156156ad57600080fd5b6040516080810167ffffffffffffffff811182821017156156d0576156d0614b25565b6040529050806156df83615477565b81526156ed60208401615477565b60208201526156fe60408401615477565b604082015261570f60608401615477565b60608201525092915050565b60008060e0838503121561572e57600080fd5b61573884846154ab565b9150614e43846060850161569b565b71ffffffffffffffffffffffffffffffffffff81811683821601908111156107695761076961517f565b73ffffffffffffffffffffffffffffffffffffffff8616815261ffff8516602082015260ff8416604082015260e081016157f0606083018571ffffffffffffffffffffffffffffffffffff815116825271ffffffffffffffffffffffffffffffffffff6020820151166020830152604081015160070b60408301525050565b71ffffffffffffffffffffffffffffffffffff831660c08301529695505050505050565b6000806000610100848603121561582a57600080fd5b61583485856154ab565b9250615843856060860161569b565b60e0949094015192959394509192915050565b60006020828403121561586857600080fd5b813560ff8116811461093857600080fd5b6000825161588b81846020870161490c565b9190910192915050565b6000602082840312156158a757600080fd5b5051919050565b6000602082840312156158c057600080fd5b815161093881614c5a565b73ffffffffffffffffffffffffffffffffffffffff8716815273ffffffffffffffffffffffffffffffffffffffff8616602082015284604082015283606082015260a06080820152600061592360a0830184866152c6565b98975050505050505050565b83815273ffffffffffffffffffffffffffffffffffffffff8316602082015260a08101611a4e60408301846153ca565b60006060828403121561597157600080fd5b61076683836154ab565b6fffffffffffffffffffffffffffffffff82811682821603908111156107695761076961517f565b7f4e487b7100000000000000000000000000000000000000000000000000000000600052601260045260246000fd5b808201808211156107695761076961517f565b6001815b6001841115615a2057808504811115615a0457615a0461517f565b6001841615615a1257908102905b60019390931c9280026159e9565b935093915050565b600082615a3757506001610769565b81615a4457506000610769565b8160018114615a5a5760028114615a6457615a80565b6001915050610769565b60ff841115615a7557615a7561517f565b50506001821b610769565b5060208310610133831016604e8410600b8410161715615aa3575081810a610769565b615ace7fffffffffffffffffffffffffffffffffffffffffffffffffffffffffffffffff84846159e5565b807fffffffffffffffffffffffffffffffffffffffffffffffffffffffffffffffff04821115615b0057615b0061517f565b029392505050565b600061076660ff841683615a28565b80820281158282048414176107695761076961517f565b600068ffffffffffffffffff831680615b4957615b496159a3565b8068ffffffffffffffffff84160491505092915050565b68ffffffffffffffffff81811683821601908111156107695761076961517f565b600082615b9057615b906159a3565b500490565b60006fffffffffffffffffffffffffffffffff831680615bb757615bb76159a3565b806fffffffffffffffffffffffffffffffff84160491505092915050565b60007fffffffffffffffffffffffffffffffffffffffffffffffffffffffffffffffff8203615c0657615c0661517f565b506001019056fea264697066735822122044c78f636fa8b0ef37daee145c3b2c378ac70b37d36ec717b1ef652aefb8e28664736f6c634300081a0033","linkReferences":{"src/libraries/VaultExternal.sol":{"VaultExternal":[{"start":2800,"length":20},{"start":5320,"length":20},{"start":5549,"length":20},{"start":7609,"length":20},{"start":12177,"length":20}]}}},"methodIdentifiers":{"TIMESTAMP_ISSUANCE_START()":"410cd41a","balanceOf(address,uint256)":"00fdd58e","balanceOfBatch(address[],uint256[])":"4e1273f4","burn(bool,(address,address,int8),uint256)":"3fc62188","claimSIR(uint256,address)":"777b1d43","collateralStates(address)":"61086e43","cumulativeSIRPerTEA(uint256)":"7a4996e8","getReserves((address,address,int8))":"fbd98edf","initialize((address,address,int8))":"3aa88670","isApprovedForAll(address,address)":"e985e9c5","mint(bool,(address,address,int8))":"94c050f8","numberOfVaults()":"7a32af78","paramsById(uint48)":"d2f3fd09","safeBatchTransferFrom(address,address,uint256[],uint256[],bytes)":"2eb2c2d6","safeTransferFrom(address,address,uint256,uint256,bytes)":"f242432a","setApprovalForAll(address,bool)":"a22cb465","supportsInterface(bytes4)":"01ffc9a7","systemParams()":"458e8e6b","totalSupply(uint256)":"bd85b039","unclaimedRewards(uint256,address)":"46f90748","updateSystemState(uint16,uint16,bool)":"5ab2cef4","updateVaults(uint48[],uint48[],uint8[],uint16)":"bb147c54","uri(uint256)":"0e89341c","vaultStates((address,address,int8))":"2edf3104","vaultTax(uint48)":"6cfcac04","withdrawFees(address)":"164e68de","withdrawToSaveSystem(address[],address)":"c7c3d2dc"},"id":92}