{"abi":[{"type":"constructor","inputs":[{"name":"systemControl","type":"address","internalType":"address"},{"name":"sir","type":"address","internalType":"address"},{"name":"oracle","type":"address","internalType":"address"},{"name":"apeImplementation","type":"address","internalType":"address"},{"name":"weth","type":"address","internalType":"address"}],"stateMutability":"nonpayable"},{"type":"function","name":"TIMESTAMP_ISSUANCE_START","inputs":[],"outputs":[{"name":"","type":"uint40","internalType":"uint40"}],"stateMutability":"view"},{"type":"function","name":"balanceOf","inputs":[{"name":"account","type":"address","internalType":"address"},{"name":"vaultId","type":"uint256","internalType":"uint256"}],"outputs":[{"name":"","type":"uint256","internalType":"uint256"}],"stateMutability":"view"},{"type":"function","name":"balanceOfBatch","inputs":[{"name":"owners","type":"address[]","internalType":"address[]"},{"name":"vaultIds","type":"uint256[]","internalType":"uint256[]"}],"outputs":[{"name":"balances_","type":"uint256[]","internalType":"uint256[]"}],"stateMutability":"view"},{"type":"function","name":"burn","inputs":[{"name":"isAPE","type":"bool","internalType":"bool"},{"name":"vaultParams","type":"tuple","internalType":"struct SirStructs.VaultParameters","components":[{"name":"debtToken","type":"address","internalType":"address"},{"name":"collateralToken","type":"address","internalType":"address"},{"name":"leverageTier","type":"int8","internalType":"int8"}]},{"name":"amount","type":"uint256","internalType":"uint256"}],"outputs":[{"name":"","type":"uint144","internalType":"uint144"}],"stateMutability":"nonpayable"},{"type":"function","name":"claimSIR","inputs":[{"name":"vaultId","type":"uint256","internalType":"uint256"},{"name":"lper","type":"address","internalType":"address"}],"outputs":[{"name":"","type":"uint80","internalType":"uint80"}],"stateMutability":"nonpayable"},{"type":"function","name":"cumulativeSIRPerTEA","inputs":[{"name":"vaultId","type":"uint256","internalType":"uint256"}],"outputs":[{"name":"cumulativeSIRPerTEAx96","type":"uint176","internalType":"uint176"}],"stateMutability":"view"},{"type":"function","name":"getReserves","inputs":[{"name":"vaultParams","type":"tuple","internalType":"struct SirStructs.VaultParameters","components":[{"name":"debtToken","type":"address","internalType":"address"},{"name":"collateralToken","type":"address","internalType":"address"},{"name":"leverageTier","type":"int8","internalType":"int8"}]}],"outputs":[{"name":"","type":"tuple","internalType":"struct SirStructs.Reserves","components":[{"name":"reserveApes","type":"uint144","internalType":"uint144"},{"name":"reserveLPers","type":"uint144","internalType":"uint144"},{"name":"tickPriceX42","type":"int64","internalType":"int64"}]}],"stateMutability":"view"},{"type":"function","name":"initialize","inputs":[{"name":"vaultParams","type":"tuple","internalType":"struct SirStructs.VaultParameters","components":[{"name":"debtToken","type":"address","internalType":"address"},{"name":"collateralToken","type":"address","internalType":"address"},{"name":"leverageTier","type":"int8","internalType":"int8"}]}],"outputs":[],"stateMutability":"nonpayable"},{"type":"function","name":"isApprovedForAll","inputs":[{"name":"","type":"address","internalType":"address"},{"name":"","type":"address","internalType":"address"}],"outputs":[{"name":"","type":"bool","internalType":"bool"}],"stateMutability":"view"},{"type":"function","name":"mint","inputs":[{"name":"isAPE","type":"bool","internalType":"bool"},{"name":"vaultParams","type":"tuple","internalType":"struct SirStructs.VaultParameters","components":[{"name":"debtToken","type":"address","internalType":"address"},{"name":"collateralToken","type":"address","internalType":"address"},{"name":"leverageTier","type":"int8","internalType":"int8"}]},{"name":"amountToDeposit","type":"uint256","internalType":"uint256"},{"name":"collateralToDepositMin","type":"uint144","internalType":"uint144"}],"outputs":[{"name":"amount","type":"uint256","internalType":"uint256"}],"stateMutability":"payable"},{"type":"function","name":"numberOfVaults","inputs":[],"outputs":[{"name":"","type":"uint48","internalType":"uint48"}],"stateMutability":"view"},{"type":"function","name":"paramsById","inputs":[{"name":"vaultId","type":"uint48","internalType":"uint48"}],"outputs":[{"name":"","type":"tuple","internalType":"struct SirStructs.VaultParameters","components":[{"name":"debtToken","type":"address","internalType":"address"},{"name":"collateralToken","type":"address","internalType":"address"},{"name":"leverageTier","type":"int8","internalType":"int8"}]}],"stateMutability":"view"},{"type":"function","name":"safeBatchTransferFrom","inputs":[{"name":"from","type":"address","internalType":"address"},{"name":"to","type":"address","internalType":"address"},{"name":"vaultIds","type":"uint256[]","internalType":"uint256[]"},{"name":"amounts","type":"uint256[]","internalType":"uint256[]"},{"name":"data","type":"bytes","internalType":"bytes"}],"outputs":[],"stateMutability":"nonpayable"},{"type":"function","name":"safeTransferFrom","inputs":[{"name":"from","type":"address","internalType":"address"},{"name":"to","type":"address","internalType":"address"},{"name":"vaultId","type":"uint256","internalType":"uint256"},{"name":"amount","type":"uint256","internalType":"uint256"},{"name":"data","type":"bytes","internalType":"bytes"}],"outputs":[],"stateMutability":"nonpayable"},{"type":"function","name":"setApprovalForAll","inputs":[{"name":"operator","type":"address","internalType":"address"},{"name":"approved","type":"bool","internalType":"bool"}],"outputs":[],"stateMutability":"nonpayable"},{"type":"function","name":"supportsInterface","inputs":[{"name":"interfaceId","type":"bytes4","internalType":"bytes4"}],"outputs":[{"name":"","type":"bool","internalType":"bool"}],"stateMutability":"pure"},{"type":"function","name":"systemParams","inputs":[],"outputs":[{"name":"systemParams_","type":"tuple","internalType":"struct SirStructs.SystemParameters","components":[{"name":"baseFee","type":"tuple","internalType":"struct SirStructs.FeeStructure","components":[{"name":"fee","type":"uint16","internalType":"uint16"},{"name":"feeNew","type":"uint16","internalType":"uint16"},{"name":"timestampUpdate","type":"uint40","internalType":"uint40"}]},{"name":"lpFee","type":"tuple","internalType":"struct SirStructs.FeeStructure","components":[{"name":"fee","type":"uint16","internalType":"uint16"},{"name":"feeNew","type":"uint16","internalType":"uint16"},{"name":"timestampUpdate","type":"uint40","internalType":"uint40"}]},{"name":"mintingStopped","type":"bool","internalType":"bool"},{"name":"cumulativeTax","type":"uint16","internalType":"uint16"}]}],"stateMutability":"view"},{"type":"function","name":"totalReserves","inputs":[{"name":"collateral","type":"address","internalType":"address"}],"outputs":[{"name":"","type":"uint256","internalType":"uint256"}],"stateMutability":"view"},{"type":"function","name":"totalSupply","inputs":[{"name":"vaultId","type":"uint256","internalType":"uint256"}],"outputs":[{"name":"","type":"uint256","internalType":"uint256"}],"stateMutability":"view"},{"type":"function","name":"unclaimedRewards","inputs":[{"name":"vaultId","type":"uint256","internalType":"uint256"},{"name":"lper","type":"address","internalType":"address"}],"outputs":[{"name":"","type":"uint80","internalType":"uint80"}],"stateMutability":"view"},{"type":"function","name":"uniswapV3SwapCallback","inputs":[{"name":"amount0Delta","type":"int256","internalType":"int256"},{"name":"amount1Delta","type":"int256","internalType":"int256"},{"name":"data","type":"bytes","internalType":"bytes"}],"outputs":[],"stateMutability":"nonpayable"},{"type":"function","name":"updateSystemState","inputs":[{"name":"baseFee","type":"uint16","internalType":"uint16"},{"name":"lpFee","type":"uint16","internalType":"uint16"},{"name":"mintingStopped","type":"bool","internalType":"bool"}],"outputs":[],"stateMutability":"nonpayable"},{"type":"function","name":"updateVaults","inputs":[{"name":"oldVaults","type":"uint48[]","internalType":"uint48[]"},{"name":"newVaults","type":"uint48[]","internalType":"uint48[]"},{"name":"newTaxes","type":"uint8[]","internalType":"uint8[]"},{"name":"cumulativeTax","type":"uint16","internalType":"uint16"}],"outputs":[],"stateMutability":"nonpayable"},{"type":"function","name":"uri","inputs":[{"name":"vaultId","type":"uint256","internalType":"uint256"}],"outputs":[{"name":"","type":"string","internalType":"string"}],"stateMutability":"view"},{"type":"function","name":"vaultStates","inputs":[{"name":"vaultParams","type":"tuple","internalType":"struct SirStructs.VaultParameters","components":[{"name":"debtToken","type":"address","internalType":"address"},{"name":"collateralToken","type":"address","internalType":"address"},{"name":"leverageTier","type":"int8","internalType":"int8"}]}],"outputs":[{"name":"","type":"tuple","internalType":"struct SirStructs.VaultState","components":[{"name":"reserve","type":"uint144","internalType":"uint144"},{"name":"tickPriceSatX42","type":"int64","internalType":"int64"},{"name":"vaultId","type":"uint48","internalType":"uint48"}]}],"stateMutability":"view"},{"type":"function","name":"vaultTax","inputs":[{"name":"vaultId","type":"uint48","internalType":"uint48"}],"outputs":[{"name":"","type":"uint8","internalType":"uint8"}],"stateMutability":"view"},{"type":"function","name":"withdrawFees","inputs":[{"name":"token","type":"address","internalType":"address"}],"outputs":[{"name":"totalFeesToStakers","type":"uint256","internalType":"uint256"}],"stateMutability":"nonpayable"},{"type":"function","name":"withdrawToSaveSystem","inputs":[{"name":"tokens","type":"address[]","internalType":"address[]"},{"name":"to","type":"address","internalType":"address"}],"outputs":[{"name":"amounts","type":"uint256[]","internalType":"uint256[]"}],"stateMutability":"nonpayable"},{"type":"event","name":"ApprovalForAll","inputs":[{"name":"account","type":"address","indexed":true,"internalType":"address"},{"name":"operator","type":"address","indexed":true,"internalType":"address"},{"name":"approved","type":"bool","indexed":false,"internalType":"bool"}],"anonymous":false},{"type":"event","name":"Burn","inputs":[{"name":"vaultId","type":"uint48","indexed":true,"internalType":"uint48"},{"name":"isAPE","type":"bool","indexed":false,"internalType":"bool"},{"name":"collateralWithdrawn","type":"uint144","indexed":false,"internalType":"uint144"},{"name":"collateralFeeToStakers","type":"uint144","indexed":false,"internalType":"uint144"},{"name":"collateralFeeToLPers","type":"uint144","indexed":false,"internalType":"uint144"}],"anonymous":false},{"type":"event","name":"Mint","inputs":[{"name":"vaultId","type":"uint48","indexed":true,"internalType":"uint48"},{"name":"isAPE","type":"bool","indexed":false,"internalType":"bool"},{"name":"collateralIn","type":"uint144","indexed":false,"internalType":"uint144"},{"name":"collateralFeeToStakers","type":"uint144","indexed":false,"internalType":"uint144"},{"name":"collateralFeeToLPers","type":"uint144","indexed":false,"internalType":"uint144"}],"anonymous":false},{"type":"event","name":"TransferBatch","inputs":[{"name":"operator","type":"address","indexed":true,"internalType":"address"},{"name":"from","type":"address","indexed":true,"internalType":"address"},{"name":"to","type":"address","indexed":true,"internalType":"address"},{"name":"vaultIds","type":"uint256[]","indexed":false,"internalType":"uint256[]"},{"name":"amounts","type":"uint256[]","indexed":false,"internalType":"uint256[]"}],"anonymous":false},{"type":"event","name":"TransferSingle","inputs":[{"name":"operator","type":"address","indexed":true,"internalType":"address"},{"name":"from","type":"address","indexed":true,"internalType":"address"},{"name":"to","type":"address","indexed":true,"internalType":"address"},{"name":"id","type":"uint256","indexed":false,"internalType":"uint256"},{"name":"amount","type":"uint256","indexed":false,"internalType":"uint256"}],"anonymous":false},{"type":"event","name":"URI","inputs":[{"name":"value","type":"string","indexed":false,"internalType":"string"},{"name":"id","type":"uint256","indexed":true,"internalType":"uint256"}],"anonymous":false},{"type":"event","name":"VaultNewTax","inputs":[{"name":"vault","type":"uint48","indexed":true,"internalType":"uint48"},{"name":"tax","type":"uint8","indexed":false,"internalType":"uint8"},{"name":"cumulativeTax","type":"uint16","indexed":false,"internalType":"uint16"}],"anonymous":false},{"type":"error","name":"AmountTooLow","inputs":[]},{"type":"error","name":"LengthMismatch","inputs":[]},{"type":"error","name":"NotAuthorized","inputs":[]},{"type":"error","name":"TEAMaxSupplyExceeded","inputs":[]},{"type":"error","name":"UnsafeRecipient","inputs":[]}],"bytecode":{"object":"0x610140604052348015610010575f5ffd5b506040516162b73803806162b783398101604081905261002f9161020b565b6001600160a01b03948516608090815264ffffffffff42811660a090815295871660c09081526040805160e08082018352610bb89582019586525f9982018a90529281018990529384528051606081810183526103dd825260208281018b81528385018c81528289018590528886018d90528389018d9052975180516002805483860151938901518b1664010000000090810264ffffffffff60201b1961ffff9687166201000090810263ffffffff199586169789169790971796909617811691909117845598516003805497519e51909d169091029c85169093029416919092161791909117909316969096179094556004805462ffffff1916905596891690915293871661010052918616610120528251918201835284825281018481529181018481526007805460018101825595529051939092027fa66cc928b5edb82af9bd49922954155ab7b0942694bea4ce44661d9a8736c688810180549486166001600160a01b031990951694909417909355517fa66cc928b5edb82af9bd49922954155ab7b0942694bea4ce44661d9a8736c6899092018054915160ff16600160a01b026001600160a81b0319909216929093169190911717905561026c565b80516001600160a01b0381168114610206575f5ffd5b919050565b5f5f5f5f5f60a0868803121561021f575f5ffd5b610228866101f0565b9450610236602087016101f0565b9350610244604087016101f0565b9250610252606087016101f0565b9150610260608087016101f0565b90509295509295909350565b60805160a05160c05160e0516101005161012051615fcc6102eb5f395f61229c01525f610f8301525f8181610f310152818161105f0152818161236201526129e601525f818161094d01528181610a2b015261183901525f818161031d015261373c01525f818161166201528181611a6b0152611eba0152615fcc5ff3fe6080604052600436106101ae575f3560e01c80636d0800bc116100e7578063c7c3d2dc11610087578063e985e9c511610062578063e985e9c51461063a578063f242432a14610673578063fa461e3314610692578063fbd98edf146106b1575f5ffd5b8063c7c3d2dc146105dc578063cdf3a837146105fb578063d2f3fd091461060e575f5ffd5b80637a4996e8116100c25780637a4996e81461051b578063a22cb46514610561578063bb147c5414610580578063bd85b0391461059f575f5ffd5b80636d0800bc146104a6578063777b1d43146104d15780637a32af78146104f0575f5ffd5b80633fc621881161015257806346f907481161012d57806346f90748146103d95780634e1273f4146104135780635ab2cef41461043f5780636cfcac041461045e575f5ffd5b80633fc62188146102ca578063410cd41a1461030c578063458e8e6b14610355575f5ffd5b8063164e68de1161018d578063164e68de1461023f5780632eb2c2d61461025e5780632edf31041461027f5780633aa88670146102ab575f5ffd5b8062fdd58e146101b257806301ffc9a7146101e45780630e89341c14610213575b5f5ffd5b3480156101bd575f5ffd5b506101d16101cc36600461482b565b6106dd565b6040519081526020015b60405180910390f35b3480156101ef575f5ffd5b506102036101fe366004614882565b61076e565b60405190151581526020016101db565b34801561021e575f5ffd5b5061023261022d36600461489d565b61084e565b6040516101db9190614900565b34801561024a575f5ffd5b506101d1610259366004614912565b610934565b348015610269575f5ffd5b5061027d6102783660046149b3565b610a55565b005b34801561028a575f5ffd5b5061029e610299366004614a8c565b610d75565b6040516101db9190614aa6565b3480156102b6575f5ffd5b5061027d6102c5366004614bec565b610ec3565b3480156102d5575f5ffd5b506102e96102e4366004614c1e565b610ff8565b60405171ffffffffffffffffffffffffffffffffffff90911681526020016101db565b348015610317575f5ffd5b5061033f7f000000000000000000000000000000000000000000000000000000000000000081565b60405164ffffffffff90911681526020016101db565b348015610360575f5ffd5b506103696113a3565b604080518251805161ffff90811683526020808301518216818501529184015164ffffffffff90811684860152828601518051831660608087019190915293810151831660808601528501511660a084015292840151151560c0830152909201511660e0820152610100016101db565b3480156103e4575f5ffd5b506103f86103f3366004614c5b565b61152c565b60405169ffffffffffffffffffff90911681526020016101db565b34801561041e575f5ffd5b5061043261042d366004614c89565b61154a565b6040516101db9190614cf5565b34801561044a575f5ffd5b5061027d610459366004614d48565b61164a565b348015610469575f5ffd5b50610494610478366004614d9f565b65ffffffffffff165f9081526020819052604090205460ff1690565b60405160ff90911681526020016101db565b3480156104b1575f5ffd5b506101d16104c0366004614912565b600a6020525f908152604090205481565b3480156104dc575f5ffd5b506103f86104eb366004614c5b565b611820565b3480156104fb575f5ffd5b5061050461192d565b60405165ffffffffffff90911681526020016101db565b348015610526575f5ffd5b5061053a61053536600461489d565b611943565b60405175ffffffffffffffffffffffffffffffffffffffffffff90911681526020016101db565b34801561056c575f5ffd5b5061027d61057b366004614dba565b6119bd565b34801561058b575f5ffd5b5061027d61059a366004614de6565b611a53565b3480156105aa575f5ffd5b506101d16105b936600461489d565b5f908152600660205260409020546fffffffffffffffffffffffffffffffff1690565b3480156105e7575f5ffd5b506104326105f6366004614e95565b611ea0565b6101d1610609366004614efc565b612249565b348015610619575f5ffd5b5061062d610628366004614d9f565b6125b0565b6040516101db9190614f4b565b348015610645575f5ffd5b50610203610654366004614f9e565b600860209081525f928352604080842090915290825290205460ff1681565b34801561067e575f5ffd5b5061027d61068d366004614fca565b612657565b34801561069d575f5ffd5b5061027d6106ac366004615041565b6128cb565b3480156106bc575f5ffd5b506106d06106cb366004614a8c565b612983565b6040516101db9190615084565b5f73ffffffffffffffffffffffffffffffffffffffff831630146107305773ffffffffffffffffffffffffffffffffffffffff83165f908152600560209081526040808320858452909152902054610765565b5f8281526006602052604090205470010000000000000000000000000000000090046fffffffffffffffffffffffffffffffff165b90505b92915050565b5f7f01ffc9a7000000000000000000000000000000000000000000000000000000007fffffffff000000000000000000000000000000000000000000000000000000008316148061080057507fd9b67a26000000000000000000000000000000000000000000000000000000007fffffffff000000000000000000000000000000000000000000000000000000008316145b806107685750507fffffffff00000000000000000000000000000000000000000000000000000000167f0e89341c000000000000000000000000000000000000000000000000000000001490565b5f81815260066020526040908190205490517f3ef6287c00000000000000000000000000000000000000000000000000000000815260076004820152602481018390526fffffffffffffffffffffffffffffffff9091166044820181905260609173__$0d913f5ea2cc8398585c34a0416dbc1ef1$__90633ef6287c906064015f60405180830381865af41580156108e8573d5f5f3e3d5ffd5b505050506040513d5f823e601f3d9081017fffffffffffffffffffffffffffffffffffffffffffffffffffffffffffffffe016820160405261092d91908101906150d4565b9392505050565b5f3373ffffffffffffffffffffffffffffffffffffffff7f00000000000000000000000000000000000000000000000000000000000000001614610976575f5ffd5b73ffffffffffffffffffffffffffffffffffffffff82165f818152600a6020526040908190205490517f70a082310000000000000000000000000000000000000000000000000000000081523060048201529091906370a0823190602401602060405180830381865afa1580156109ef573d5f5f3e3d5ffd5b505050506040513d601f19601f82011682018060405250810190610a139190615186565b610a1d91906151ca565b90508015610a5057610a50827f000000000000000000000000000000000000000000000000000000000000000083612a4f565b919050565b3073ffffffffffffffffffffffffffffffffffffffff891603610a7a57610a7a6151dd565b848314610ab3576040517fff633a3800000000000000000000000000000000000000000000000000000000815260040160405180910390fd5b3373ffffffffffffffffffffffffffffffffffffffff891614801590610b09575073ffffffffffffffffffffffffffffffffffffffff88165f90815260086020908152604080832033845290915290205460ff16155b15610b40576040517fea8e4eb500000000000000000000000000000000000000000000000000000000815260040160405180910390fd5b5f5b85811015610b8e57610b868989898985818110610b6157610b6161520a565b90506020020135888886818110610b7a57610b7a61520a565b90506020020135612bb8565b600101610b42565b508673ffffffffffffffffffffffffffffffffffffffff168873ffffffffffffffffffffffffffffffffffffffff163373ffffffffffffffffffffffffffffffffffffffff167f4a39dc06d4c0dbc64b70af90fd698a233a518aa5d07e595d983b8c0526c8f7fb89898989604051610c099493929190615280565b60405180910390a473ffffffffffffffffffffffffffffffffffffffff87163b15610d1b5773ffffffffffffffffffffffffffffffffffffffff87163014801590610d1657506040517fbc197c81000000000000000000000000000000000000000000000000000000008082529073ffffffffffffffffffffffffffffffffffffffff89169063bc197c8190610cb19033908d908c908c908c908c908c908c906004016152f8565b6020604051808303815f875af1158015610ccd573d5f5f3e3d5ffd5b505050506040513d601f19601f82011682018060405250810190610cf1919061537a565b7fffffffff000000000000000000000000000000000000000000000000000000001614155b610d34565b73ffffffffffffffffffffffffffffffffffffffff8716155b15610d6b576040517f3da6393100000000000000000000000000000000000000000000000000000000815260040160405180910390fd5b5050505050505050565b604080516060810182525f808252602082018190529181019190915260095f610da16020850185614912565b73ffffffffffffffffffffffffffffffffffffffff1673ffffffffffffffffffffffffffffffffffffffff1681526020019081526020015f205f836020016020810190610dee9190614912565b73ffffffffffffffffffffffffffffffffffffffff1673ffffffffffffffffffffffffffffffffffffffff1681526020019081526020015f205f836040016020810190610e3b9190615395565b5f90810b8252602080830193909352604091820190208151606081018352905471ffffffffffffffffffffffffffffffffffff811682527201000000000000000000000000000000000000810460070b938201939093527a01000000000000000000000000000000000000000000000000000090920465ffffffffffff169082015292915050565b805173ffffffffffffffffffffffffffffffffffffffff9081165f9081526009602090815260408083208286018051861685529083528184208287018051860b8652935281842091517fd1c790ba0000000000000000000000000000000000000000000000000000000081527f0000000000000000000000000000000000000000000000000000000000000000861660048201526024810192909252600760448301528551851660648301525184166084820152905190910b60a48201527f000000000000000000000000000000000000000000000000000000000000000090911660c482015273__$0d913f5ea2cc8398585c34a0416dbc1ef1$__9063d1c790ba9060e4015f6040518083038186803b158015610fdf575f5ffd5b505af4158015610ff1573d5f5f3e3d5ffd5b5050505050565b5f815f03611032576040517f1fbaba3500000000000000000000000000000000000000000000000000000000815260040160405180910390fd5b5f61103b6113a3565b90505f5f5f73__$0d913f5ea2cc8398585c34a0416dbc1ef1$__6349a6b7e78960097f00000000000000000000000000000000000000000000000000000000000000008b6040518563ffffffff1660e01b815260040161109e9493929190615411565b61010060405180830381865af41580156110ba573d5f5f3e3d5ffd5b505050506040513d601f19601f820116820180604052508101906110de91906154a9565b5060408381015165ffffffffffff165f9081526020818152828220835160608082018652915460ff81168252610100810464ffffffffff16828501526601000000000000900475ffffffffffffffffffffffffffffffffffffffffffff168186015284519182018552838252918101839052928301919091529396509194509250891561123b5785515182516040517f8c26842700000000000000000000000000000000000000000000000000000000815273ffffffffffffffffffffffffffffffffffffffff861692638c268427926111c292339291908a908f90600401615537565b60c0604051808303815f875af11580156111de573d5f5f3e3d5ffd5b505050506040513d601f19601f82011682018060405250810190611202919061560e565b60408101516020830180519397509193509161121f908390615641565b71ffffffffffffffffffffffffffffffffffff1690525061124f565b61124c85604001518784878c612d0b565b90505b6112688585611263368d90038d018d614bec565b612f33565b8060200151815f01510171ffffffffffffffffffffffffffffffffffff16600a5f8b602001602081019061129c9190614912565b73ffffffffffffffffffffffffffffffffffffffff1673ffffffffffffffffffffffffffffffffffffffff1681526020019081526020015f205f8282540392505081905550846040015165ffffffffffff167f7c6da711ffa6af277b820416f2daab1018c73a4fb0c4a49a38c5fb292b6c0e8b8b835f01518460200151856040015160405161135d9493929190931515845271ffffffffffffffffffffffffffffffffffff9283166020850152908216604084015216606082015260800190565b60405180910390a261139561137860408b0160208c01614912565b8251339071ffffffffffffffffffffffffffffffffffff16612a4f565b519998505050505050505050565b6040805160e0810182525f6080820181815260a0830182905260c083018290528252825160608082018552828252602080830184905282860184905284019190915292820181905291810191909152506040805160e08101825260025461ffff8082166080840190815262010000808404831660a086015264ffffffffff64010000000094859004811660c087015291855285516060818101885260035480861683529283048516602083810191909152959092048316818801529385019390935260045460ff8116151585870152610100900490911691830191909152815190920151909116158015906114b257508051604001516114ae90620d2f009064ffffffffff1661566b565b4210155b156114ce578051602081015161ffff16905280515f6040909101525b60208101516040015164ffffffffff16158015906115095750620d2f0081602001516040015164ffffffffff16611505919061566b565b4210155b1561152957602080820180519182015161ffff16909152515f6040909101525b90565b5f610765838361153c85876106dd565b61154587611943565b613342565b6060838214611585576040517fff633a3800000000000000000000000000000000000000000000000000000000815260040160405180910390fd5b8367ffffffffffffffff81111561159e5761159e614ae6565b6040519080825280602002602001820160405280156115c7578160200160208202803683370190505b5090505f5b848110156116415761161c8686838181106115e9576115e961520a565b90506020020160208101906115fe9190614912565b8585848181106116105761161061520a565b905060200201356106dd565b82828151811061162e5761162e61520a565b60209081029190910101526001016115cc565b50949350505050565b3373ffffffffffffffffffffffffffffffffffffffff7f0000000000000000000000000000000000000000000000000000000000000000161461168b575f5ffd5b5f6116946113a3565b905061ffff8416156116c257805164ffffffffff4216604090910152805161ffff85166020909101526116f8565b61ffff8316156116ef576020808201805164ffffffffff42166040909101525161ffff85169101526116f8565b81151560408201525b805180516002805460208085015160409586015161ffff9586167fffffffffffffffffffffffffffffffffffffffffffffffffffffffff0000000094851617620100009287168302177fffffffffffffffffffffffffffffffffffffffffffffff0000000000ffffffff90811664010000000064ffffffffff9384168102919091179096558389015180516003805496830151928b0151918a16969097169590951790881690930292909217909116911690920291909117905590820151600480546060909401517fffffffffffffffffffffffffffffffffffffffffffffffffffffffffff0000009094169115157fffffffffffffffffffffffffffffffffffffffffffffffffffffffffff0000ff16919091176101009390921692909202179055505050565b5f3373ffffffffffffffffffffffffffffffffffffffff7f00000000000000000000000000000000000000000000000000000000000000001614611862575f5ffd5b5f60405180608001604052808473ffffffffffffffffffffffffffffffffffffffff16815260200161189485876106dd565b81525f60208083018290526040928301829052600454888352828252918390208351606081018552905460ff8116825261010080820464ffffffffff16938301939093526601000000000000900475ffffffffffffffffffffffffffffffffffffffffffff16938101939093529293506119259260019288929190910461ffff169061191f8361342a565b8661349a565b949350505050565b6007545f9061193e906001906151ca565b905090565b6004545f828152602081815260408083208151606081018352905460ff8116825261010080820464ffffffffff16948301949094526601000000000000900475ffffffffffffffffffffffffffffffffffffffffffff169181019190915291926107689291900461ffff16906119b88561342a565b6136e1565b335f81815260086020908152604080832073ffffffffffffffffffffffffffffffffffffffff87168085529083529281902080547fffffffffffffffffffffffffffffffffffffffffffffffffffffffffffffff001686151590811790915590519081529192917f17307eab39ab6107e8899845ad3d59bd9653f200f220920489ca2b5937696c31910160405180910390a35050565b3373ffffffffffffffffffffffffffffffffffffffff7f00000000000000000000000000000000000000000000000000000000000000001614611a94575f5ffd5b5f805b87811015611c6257611ad6898983818110611ab457611ab461520a565b9050602002016020810190611ac99190614d9f565b65ffffffffffff16611943565b915060405180606001604052805f60ff1681526020014264ffffffffff1681526020018375ffffffffffffffffffffffffffffffffffffffffffff168152505f5f8b8b85818110611b2957611b2961520a565b9050602002016020810190611b3e9190614d9f565b65ffffffffffff16815260208082019290925260409081015f208351815493850151949092015175ffffffffffffffffffffffffffffffffffffffffffff166601000000000000027fffffffff00000000000000000000000000000000000000000000ffffffffffff64ffffffffff909516610100027fffffffffffffffffffffffffffffffffffffffffffffffffffff00000000000090941660ff909316929092179290921792909216919091179055888882818110611c0157611c0161520a565b9050602002016020810190611c169190614d9f565b604080515f808252602082015265ffffffffffff92909216917fc05b4c85e1a9e164c2764407bce9e5955a2e6435dea37ef8c4e62ec458ebf21a910160405180910390a2600101611a97565b505f5b85811015611e5e57611c82878783818110611ab457611ab461520a565b91506040518060600160405280868684818110611ca157611ca161520a565b9050602002016020810190611cb6919061567e565b60ff1681526020014264ffffffffff1681526020018375ffffffffffffffffffffffffffffffffffffffffffff168152505f5f898985818110611cfb57611cfb61520a565b9050602002016020810190611d109190614d9f565b65ffffffffffff16815260208082019290925260409081015f208351815493850151949092015175ffffffffffffffffffffffffffffffffffffffffffff166601000000000000027fffffffff00000000000000000000000000000000000000000000ffffffffffff64ffffffffff909516610100027fffffffffffffffffffffffffffffffffffffffffffffffffffff00000000000090941660ff909316929092179290921792909216919091179055868682818110611dd357611dd361520a565b9050602002016020810190611de89190614d9f565b65ffffffffffff167fc05b4c85e1a9e164c2764407bce9e5955a2e6435dea37ef8c4e62ec458ebf21a868684818110611e2357611e2361520a565b9050602002016020810190611e38919061567e565b6040805160ff909216825261ffff871660208301520160405180910390a2600101611c65565b50506004805461ffff909216610100027fffffffffffffffffffffffffffffffffffffffffffffffffffffffffff0000ff909216919091179055505050505050565b60603373ffffffffffffffffffffffffffffffffffffffff7f00000000000000000000000000000000000000000000000000000000000000001614611ee3575f5ffd5b8267ffffffffffffffff811115611efc57611efc614ae6565b604051908082528060200260200182016040528015611f25578160200160208202803683370190505b5090505f6060815b8581101561223f57868682818110611f4757611f4761520a565b9050602002016020810190611f5c9190614912565b604080513060248083019190915282518083039091018152604490910182526020810180517bffffffffffffffffffffffffffffffffffffffffffffffffffffffff167f70a0823100000000000000000000000000000000000000000000000000000000179052905173ffffffffffffffffffffffffffffffffffffffff9290921691611fe9919061569e565b5f604051808303815f865af19150503d805f8114612022576040519150601f19603f3d011682016040523d82523d5f602084013e612027565b606091505b50909350915082801561203b575081516020145b1561223757818060200190518101906120549190615186565b8482815181106120665761206661520a565b6020026020010181815250505f8482815181106120855761208561520a565b60200260200101511115612237578686828181106120a5576120a561520a565b90506020020160208101906120ba9190614912565b73ffffffffffffffffffffffffffffffffffffffff1663a9059cbb60e01b868684815181106120eb576120eb61520a565b602090810291909101015160405173ffffffffffffffffffffffffffffffffffffffff90921660248301526044820152606401604080517fffffffffffffffffffffffffffffffffffffffffffffffffffffffffffffffe08184030181529181526020820180517bffffffffffffffffffffffffffffffffffffffffffffffffffffffff167fffffffff000000000000000000000000000000000000000000000000000000009094169390931790925290516121a7919061569e565b5f604051808303815f865af19150503d805f81146121e0576040519150601f19603f3d011682016040523d82523d5f602084013e6121e5565b606091505b50909350915082801561221057508151158061221057508180602001905181019061221091906156b4565b925082612237575f84828151811061222a5761222a61520a565b6020026020010181815250505b600101611f2d565b5050509392505050565b5f3415612306576040517fcee05c5100000000000000000000000000000000000000000000000000000000815273__$0d913f5ea2cc8398585c34a0416dbc1ef1$__9063cee05c51906122c490879086907f0000000000000000000000000000000000000000000000000000000000000000906004016156cf565b602060405180830381865af41580156122df573d5f5f3e3d5ffd5b505050506040513d601f19601f820116820180604052508101906123039190615186565b92505b825f0361233f576040517f1fbaba3500000000000000000000000000000000000000000000000000000000815260040160405180910390fd5b5f5f5f5f73__$0d913f5ea2cc8398585c34a0416dbc1ef1$__6349a6b7e78a60097f00000000000000000000000000000000000000000000000000000000000000008c6040518563ffffffff1660e01b81526004016123a19493929190615760565b61010060405180830381865af41580156123bd573d5f5f3e3d5ffd5b505050506040513d601f19601f820116820180604052508101906123e191906154a9565b93509350935093508571ffffffffffffffffffffffffffffffffffff165f0361244e5771ffffffffffffffffffffffffffffffffffff871115612422575f5ffd5b61243033838a8a888861385e565b9450345f0361244957612449886020015133308a613cdf565b6125a4565b805f5d7f7fffffffffffffffffffffffffffffffffffffffffffffffffffffffffffffff87111561247d575f5ffd5b5f885f015173ffffffffffffffffffffffffffffffffffffffff16896020015173ffffffffffffffffffffffffffffffffffffffff161190505f33848b8888866040516020016124d2969594939291906157de565b60405160208183030381529060405290508273ffffffffffffffffffffffffffffffffffffffff1663128acb0833848c8661252b57612526600173fffd8963efd1fc6a506488495d951d5263988d266158dc565b61253b565b61253b6401000276a36001615908565b866040518663ffffffff1660e01b815260040161255c959493929190615934565b60408051808303815f875af1158015612577573d5f5f3e3d5ffd5b505050506040513d601f19601f8201168201806040525081019061259b919061598c565b50505f5c965050505b50505050949350505050565b604080516060810182525f808252602082018190529181019190915260078265ffffffffffff16815481106125e7576125e761520a565b5f9182526020808320604080516060810182526002909402909101805473ffffffffffffffffffffffffffffffffffffffff9081168552600190910154908116928401929092527401000000000000000000000000000000000000000090910490920b9181019190915292915050565b3073ffffffffffffffffffffffffffffffffffffffff87160361267c5761267c6151dd565b3373ffffffffffffffffffffffffffffffffffffffff8716148015906126d2575073ffffffffffffffffffffffffffffffffffffffff86165f90815260086020908152604080832033845290915290205460ff16155b15612709576040517fea8e4eb500000000000000000000000000000000000000000000000000000000815260040160405180910390fd5b61271586868686612bb8565b604080518581526020810185905273ffffffffffffffffffffffffffffffffffffffff808816929089169133917fc3d58168c5ae7397731d063d5bbf3d657854427343f4c083240f7aacaa2d0f62910160405180910390a473ffffffffffffffffffffffffffffffffffffffff85163b156128735773ffffffffffffffffffffffffffffffffffffffff8516301480159061286e57506040517ff23a6e61000000000000000000000000000000000000000000000000000000008082529073ffffffffffffffffffffffffffffffffffffffff87169063f23a6e61906128099033908b908a908a908a908a906004016159ae565b6020604051808303815f875af1158015612825573d5f5f3e3d5ffd5b505050506040513d601f19601f82011682018060405250810190612849919061537a565b7fffffffff000000000000000000000000000000000000000000000000000000001614155b61288c565b73ffffffffffffffffffffffffffffffffffffffff8516155b156128c3576040517f3da6393100000000000000000000000000000000000000000000000000000000815260040160405180910390fd5b505050505050565b5f5c3373ffffffffffffffffffffffffffffffffffffffff8216146128ee575f5ffd5b5f8080808080612900888a018a615a59565b9550955095509550955095505f5f826129225761291c8d615b35565b8c61292d565b61292b8c615b35565b8d5b909250905071ffffffffffffffffffffffffffffffffffff821115612950575f5ffd5b5f61295f898989868a8a61385e565b9050612970875f01518a8c85613cdf565b805f5d5050505050505050505050505050565b604080516060810182525f808252602082018190528183015290517f94215a4c00000000000000000000000000000000000000000000000000000000815273__$0d913f5ea2cc8398585c34a0416dbc1ef1$__906394215a4c90612a10906009907f0000000000000000000000000000000000000000000000000000000000000000908790600401615b6b565b606060405180830381865af4158015612a2b573d5f5f3e3d5ffd5b505050506040513d601f19601f820116820180604052508101906107689190615b9b565b6040805173ffffffffffffffffffffffffffffffffffffffff8481166024830152604480830185905283518084039091018152606490920183526020820180517bffffffffffffffffffffffffffffffffffffffffffffffffffffffff167fa9059cbb0000000000000000000000000000000000000000000000000000000017905291515f92839290871691612ae5919061569e565b5f604051808303815f865af19150503d805f8114612b1e576040519150601f19603f3d011682016040523d82523d5f602084013e612b23565b606091505b5091509150818015612b4d575080511580612b4d575080806020019051810190612b4d91906156b4565b610ff1576040517f08c379a000000000000000000000000000000000000000000000000000000000815260206004820152600260248201527f535400000000000000000000000000000000000000000000000000000000000060448201526064015b60405180910390fd5b6040805160808101825273ffffffffffffffffffffffffffffffffffffffff8087168083525f90815260056020908152848220878352815284822054908401529086169282019290925260608101612c1086866106dd565b90526004545f858152602081815260408083208151606081018352905460ff8116825261010080820464ffffffffff16948301949094526601000000000000900475ffffffffffffffffffffffffffffffffffffffffffff1691810191909152939450612c8c939192879291900461ffff169061191f8361342a565b508181602001818151612c9f91906151ca565b90525073ffffffffffffffffffffffffffffffffffffffff85811690851614610ff15760208082015173ffffffffffffffffffffffffffffffffffffffff87165f90815260058352604080822087835290935291909120556060810151610ff190859085908501613e4b565b604080516060810182525f808252602080830182905282840182905265ffffffffffff8916808352600682528483208551808701875290546fffffffffffffffffffffffffffffffff808216835270010000000000000000000000000000000090910416818401523384526005835285842091845291529290205490919080841115612d95575f5ffd5b5f60405180608001604052803373ffffffffffffffffffffffffffffffffffffffff1681526020018381526020013073ffffffffffffffffffffffffffffffffffffffff1681526020015f8152509050612e1a5f8a65ffffffffffff168a606001518a8760200151885f0151036fffffffffffffffffffffffffffffffff168661349a565b50612e53866020015171ffffffffffffffffffffffffffffffffffff1686855f01516fffffffffffffffffffffffffffffffff16613edb565b71ffffffffffffffffffffffffffffffffffff9081168552335f81815260056020908152604080832065ffffffffffff8f168085529083528184208b8903905588516fffffffffffffffffffffffffffffffff908c900381168a528a518d85018051919091039097169096528084526006835281842089518a8501518816700100000000000000000000000000000000029716969096179095558051948552908401899052909282917fc3d58168c5ae7397731d063d5bbf3d657854427343f4c083240f7aacaa2d0f62910160405180910390a450505095945050505050565b60208201518251612f449190615641565b71ffffffffffffffffffffffffffffffffffff16808452620f42401115612f69575f5ffd5b815171ffffffffffffffffffffffffffffffffffff165f03612f9857677fffffffffffffff6020840152613240565b816020015171ffffffffffffffffffffffffffffffffffff165f03612fe2577fffffffffffffffffffffffffffffffffffffffffffffffff80000000000000006020840152613240565b5f5f82604001515f0b1215612ffd5781604001515f03613003565b81604001515b90505f5f83604001515f0b131561304d576020840151845171ffffffffffffffffffffffffffffffffffff918216911660ff84161b101561304657506001613082565b505f613082565b6020840151845171ffffffffffffffffffffffffffffffffffff91821660ff85161b9116101561307f57506001613082565b505f5b801561315c575f6130f45f85604001515f0b12156130ba57865171ffffffffffffffffffffffffffffffffffff1660ff85161b6130d1565b865171ffffffffffffffffffffffffffffffffffff165b865171ffffffffffffffffffffffffffffffffffff1660ff861681901b01613fa0565b60070b90505f5f85604001515f0b1215613114578360ff1682901b61311c565b8360ff1682901d5b604087015160070b019050677fffffffffffffff81131561314a57677fffffffffffffff6020880152613155565b600781900b60208801525b505061323d565b5f6131cb5f85604001515f0b121561318957865171ffffffffffffffffffffffffffffffffffff166131a5565b865171ffffffffffffffffffffffffffffffffffff1660ff85161b5b602087015171ffffffffffffffffffffffffffffffffffff1660ff861681901b01613fa0565b6040860151600791820b9250900b8190037fffffffffffffffffffffffffffffffffffffffffffffffff800000000000000081121561322f577fffffffffffffffffffffffffffffffffffffffffffffffff8000000000000000602088015261323a565b600781900b60208801525b50505b50505b805173ffffffffffffffffffffffffffffffffffffffff9081165f90815260096020908152604080832082860151909416835292815282822093830151820b82529283528190208451815493860151929095015165ffffffffffff167a0100000000000000000000000000000000000000000000000000000279ffffffffffffffffffffffffffffffffffffffffffffffffffff67ffffffffffffffff9093167201000000000000000000000000000000000000027fffffffffffff000000000000000000000000000000000000000000000000000090941671ffffffffffffffffffffffffffffffffffff9096169590951792909217169290921790915550565b5f3073ffffffffffffffffffffffffffffffffffffffff85160361336757505f611925565b5f85815260016020908152604080832073ffffffffffffffffffffffffffffffffffffffff88168452825280832081518083019092525475ffffffffffffffffffffffffffffffffffffffffffff81168252760100000000000000000000000000000000000000000000900469ffffffffffffffffffff1691810191909152908490036133f957602001519050611925565b8051602090910151920375ffffffffffffffffffffffffffffffffffffffffffff169290920260601c019392505050565b5f8181526006602090815260408083208151808301909252546fffffffffffffffffffffffffffffffff80821680845270010000000000000000000000000000000090920416928201839052909161348191615bb5565b6fffffffffffffffffffffffffffffffff169392505050565b5f5f6134a78686866136e1565b90506134bc87845f0151856020015184613342565b915060405180604001604052808275ffffffffffffffffffffffffffffffffffffffffffff168152602001896134f257836134f4565b5f5b69ffffffffffffffffffff9081169091525f898152600160209081526040808320885173ffffffffffffffffffffffffffffffffffffffff908116855290835292819020855195909201519093167601000000000000000000000000000000000000000000000275ffffffffffffffffffffffffffffffffffffffffffff909416939093179092558401511630146136495760405180604001604052808275ffffffffffffffffffffffffffffffffffffffffffff1681526020016135c3898660400151876060015186613342565b69ffffffffffffffffffff9081169091525f8981526001602090815260408083208882015173ffffffffffffffffffffffffffffffffffffffff1684528252909120835193909101519091167601000000000000000000000000000000000000000000000275ffffffffffffffffffffffffffffffffffffffffffff9092169190911790555b5f9687526020879052604090962080547fffffffff000000000000000000000000000000000000000000000000000000ff16660100000000000075ffffffffffffffffffffffffffffffffffffffffffff909816979097027fffffffffffffffffffffffffffffffffffffffffffffffffffff0000000000ff16969096176101004264ffffffffff1602179095555092949350505050565b6040820151825160ff161580159061370b57504264ffffffffff16836020015164ffffffffff1614155b801561371657508115155b1561092d578361ffff16835f015160ff161115613735576137356151dd565b60208301517f00000000000000000000000000000000000000000000000000000000000000006305a39a800164ffffffffff80821690831610156137d95784515f9061ffff88169060ff166527d6140eb6ae028161379557613795615bdd565b0490508460608464ffffffffff168464ffffffffff1642116137b757426137c0565b8464ffffffffff165b038302901b816137d2576137d2615bdd565b0484019350505b8064ffffffffff164264ffffffffff1611156138555784515f9061ffff88169060ff16653a1cc4899936028161381157613811615bdd565b0490508460608364ffffffffff168564ffffffffff16116138325783613834565b845b64ffffffffff1642038302901b8161384e5761384e615bdd565b0484019350505b50509392505050565b5f5f6138686113a3565b9050806040015115613878575f5ffd5b60408481015165ffffffffffff165f9081526020818152828220835160608082018652915460ff81168252610100810464ffffffffff16828501526601000000000000900475ffffffffffffffffffffffffffffffffffffffffffff168186015284519182018552838252918101839052928301919091529073ffffffffffffffffffffffffffffffffffffffff8916156139e75782515182516040517f6bc601d700000000000000000000000000000000000000000000000000000000815273ffffffffffffffffffffffffffffffffffffffff8c1692636bc601d79261396a928f9291908b908e90600401615c0a565b60e0604051808303815f875af1158015613986573d5f5f3e3d5ffd5b505050506040513d601f19601f820116820180604052508101906139aa9190615cad565b604082015160208401805194995091975091935090916139cb908390615641565b71ffffffffffffffffffffffffffffffffffff16905250613a03565b6139fe8a8960200151886040015186868a8d6140e1565b945090505b835f03613a3c576040517f1fbaba3500000000000000000000000000000000000000000000000000000000815260040160405180910390fd5b613a4786868a612f33565b6020810151613a569088615ceb565b71ffffffffffffffffffffffffffffffffffff16600a5f8a6020015173ffffffffffffffffffffffffffffffffffffffff1673ffffffffffffffffffffffffffffffffffffffff1681526020019081526020015f205f828254613ab9919061566b565b92505081905550856040015165ffffffffffff167f2ea082b0ce379480d9dfb0d7ab365e33def58ee2bee64887c13e531723b5c8815f73ffffffffffffffffffffffffffffffffffffffff168b73ffffffffffffffffffffffffffffffffffffffff161415835f015184602001518560400151604051613b6b9493929190931515845271ffffffffffffffffffffffffffffffffffff9283166020850152908216604084015216606082015260800190565b60405180910390a273ffffffffffffffffffffffffffffffffffffffff8916158015613bad57505f8a73ffffffffffffffffffffffffffffffffffffffff163b115b8015613c9b575060408681015190517ff23a6e610000000000000000000000000000000000000000000000000000000080825273ffffffffffffffffffffffffffffffffffffffff8d16600483018190525f6024840181905265ffffffffffff90941660448401526064830188905260a0608484015260a4830193909352919063f23a6e619060c4016020604051808303815f875af1158015613c52573d5f5f3e3d5ffd5b505050506040513d601f19601f82011682018060405250810190613c76919061537a565b7fffffffff000000000000000000000000000000000000000000000000000000001614155b15613cd2576040517f3da6393100000000000000000000000000000000000000000000000000000000815260040160405180910390fd5b5050509695505050505050565b6040805173ffffffffffffffffffffffffffffffffffffffff85811660248301528481166044830152606480830185905283518084039091018152608490920183526020820180517bffffffffffffffffffffffffffffffffffffffffffffffffffffffff167f23b872dd0000000000000000000000000000000000000000000000000000000017905291515f92839290881691613d7d919061569e565b5f604051808303815f865af19150503d805f8114613db6576040519150601f19603f3d011682016040523d82523d5f602084013e613dbb565b606091505b5091509150818015613de5575080511580613de5575080806020019051810190613de591906156b4565b6128c3576040517f08c379a000000000000000000000000000000000000000000000000000000000815260206004820152600360248201527f53544600000000000000000000000000000000000000000000000000000000006044820152606401612baf565b3073ffffffffffffffffffffffffffffffffffffffff841603613ea8575f82815260066020526040902080546fffffffffffffffffffffffffffffffff808416700100000000000000000000000000000000029116179055505050565b73ffffffffffffffffffffffffffffffffffffffff929092165f9081526005602090815260408083209383529290522055565b5f80807fffffffffffffffffffffffffffffffffffffffffffffffffffffffffffffffff858709858702925082811083820303915050805f03613f2e575f8411613f23575f5ffd5b50829004905061092d565b808411613f39575f5ffd5b5f8486880960026001871981018816978890046003810283188082028403028082028403028082028403028082028403028082028403029081029092039091025f889003889004909101858311909403939093029303949094049190911702949350505050565b5f81831015613fb157613fb16151dd565b815f03613fc057613fc06151dd565b5f828481613fd057613fd0615bdd565b0490506fffffffffffffffffffffffffffffffff811160071b81811c67ffffffffffffffff811160061b90811c63ffffffff811160051b90811c61ffff811160041b90811c60ff8111600390811b91821c600f811160021b90811c918211600190811b92831c9790881196179094179092171790911717176080811061405e57607f810383901c9150614072565b61406f8682607f0360020a87613edb565b91505b603781901b60015b603781116140af57838402607f1c93508360801c80826037031b8317925084811c945050806140a890615d15565b905061407a565b5060c06140d48277d89e8c075c4155dd3213326cbbcf86fd1f63f5c205dd2ad2615d4c565b901c979650505050505050565b604080516060810182525f808252602082018190529181019190915265ffffffffffff86165f8181526006602090815260408083208151808301835290546fffffffffffffffffffffffffffffffff8082168352700100000000000000000000000000000000909104811682850190815273ffffffffffffffffffffffffffffffffffffffff8f16808752600586528487208888528652848720548551608081018752918252958101869052309481019490945260608085018790528c01519051835196978897949695946141be94899492938f9203168661349a565b5082516fffffffffffffffffffffffffffffffff161561422957614224835f01516fffffffffffffffffffffffffffffffff168871ffffffffffffffffffffffffffffffffffff168a6020015171ffffffffffffffffffffffffffffffffffff16613edb565b614239565b6142398c89602001518901614569565b835190945061ffff6f140eb6ae00000000000000000000000004036fffffffffffffffffffffffffffffffff1684111561429f576040517f6deac20700000000000000000000000000000000000000000000000000000000815260040160405180910390fd5b6142b0878b602001515f0151614790565b8051845191975061431091869171ffffffffffffffffffffffffffffffffffff16906fffffffffffffffffffffffffffffffff16156142ef57896142f7565b8a602001518a015b71ffffffffffffffffffffffffffffffffffff16613edb565b9450848403935084820160055f8f73ffffffffffffffffffffffffffffffffffffffff1673ffffffffffffffffffffffffffffffffffffffff1681526020019081526020015f205f8d65ffffffffffff1681526020019081526020015f20819055508383602001818151019150906fffffffffffffffffffffffffffffffff1690816fffffffffffffffffffffffffffffffff1681525050838501835f01818151019150906fffffffffffffffffffffffffffffffff1690816fffffffffffffffffffffffffffffffff16815250508260065f8d65ffffffffffff1681526020019081526020015f205f820151815f015f6101000a8154816fffffffffffffffffffffffffffffffff02191690836fffffffffffffffffffffffffffffffff1602179055506020820151815f0160106101000a8154816fffffffffffffffffffffffffffffffff02191690836fffffffffffffffffffffffffffffffff160217905550905050505050838560200181815161448b9190615641565b71ffffffffffffffffffffffffffffffffffff169052506040805165ffffffffffff8a1681526020810184905273ffffffffffffffffffffffffffffffffffffffff8c16915f9183917fc3d58168c5ae7397731d063d5bbf3d657854427343f4c083240f7aacaa2d0f62910160405180910390a46040805165ffffffffffff8a1681526020810183905230915f9173ffffffffffffffffffffffffffffffffffffffff8e16917fc3d58168c5ae7397731d063d5bbf3d657854427343f4c083240f7aacaa2d0f62910160405180910390a45097509795505050505050565b5f5f8373ffffffffffffffffffffffffffffffffffffffff166318160ddd6040518163ffffffff1660e01b8152600401602060405180830381865afa1580156145b4573d5f5f3e3d5ffd5b505050506040513d601f19601f820116820180604052508101906145d89190615186565b9050620f424061ffff606067016345785d8a00006301e1338060016145ff600c600a615e84565b61460d9063781a75c0615d4c565b61461791906151ca565b6146219190615e92565b61462c906001615ec3565b6146489068ffffffffffffffffff1666f38a31408ae338615d4c565b6146529190615ee4565b68ffffffffffffffffff166fffffffffffffffffffffffffffffffff16901b61467b9190615ef7565b6146859190615ef7565b6fffffffffffffffffffffffffffffffff1681116146c3576146aa83620f4240615f36565b71ffffffffffffffffffffffffffffffffffff16611925565b61192561ffff606067016345785d8a00006301e1338060016146e7600c600a615e84565b6146f59063781a75c0615d4c565b6146ff91906151ca565b6147099190615e92565b614714906001615ec3565b6147309068ffffffffffffffffff1666f38a31408ae338615d4c565b61473a9190615ee4565b68ffffffffffffffffff166fffffffffffffffffffffffffffffffff16901b6147639190615ef7565b6fffffffffffffffffffffffffffffffff168471ffffffffffffffffffffffffffffffffffff1683613edb565b604080516060810182525f808252602082018190529181019190915261271061ffff831681018071ffffffffffffffffffffffffffffffffffff86168302816147db576147db615bdd565b0471ffffffffffffffffffffffffffffffffffff90811680855290950390941660408301525092915050565b73ffffffffffffffffffffffffffffffffffffffff81168114614828575f5ffd5b50565b5f5f6040838503121561483c575f5ffd5b823561484781614807565b946020939093013593505050565b7fffffffff0000000000000000000000000000000000000000000000000000000081168114614828575f5ffd5b5f60208284031215614892575f5ffd5b813561092d81614855565b5f602082840312156148ad575f5ffd5b5035919050565b5f81518084528060208401602086015e5f6020828601015260207fffffffffffffffffffffffffffffffffffffffffffffffffffffffffffffffe0601f83011685010191505092915050565b602081525f61076560208301846148b4565b5f60208284031215614922575f5ffd5b813561092d81614807565b5f5f83601f84011261493d575f5ffd5b50813567ffffffffffffffff811115614954575f5ffd5b6020830191508360208260051b850101111561496e575f5ffd5b9250929050565b5f5f83601f840112614985575f5ffd5b50813567ffffffffffffffff81111561499c575f5ffd5b60208301915083602082850101111561496e575f5ffd5b5f5f5f5f5f5f5f5f60a0898b0312156149ca575f5ffd5b88356149d581614807565b975060208901356149e581614807565b9650604089013567ffffffffffffffff811115614a00575f5ffd5b614a0c8b828c0161492d565b909750955050606089013567ffffffffffffffff811115614a2b575f5ffd5b614a378b828c0161492d565b909550935050608089013567ffffffffffffffff811115614a56575f5ffd5b614a628b828c01614975565b999c989b5096995094979396929594505050565b5f60608284031215614a86575f5ffd5b50919050565b5f60608284031215614a9c575f5ffd5b6107658383614a76565b815171ffffffffffffffffffffffffffffffffffff16815260208083015160070b9082015260408083015165ffffffffffff169082015260608101610768565b7f4e487b71000000000000000000000000000000000000000000000000000000005f52604160045260245ffd5b6040516060810167ffffffffffffffff81118282101715614b3657614b36614ae6565b60405290565b604051601f82017fffffffffffffffffffffffffffffffffffffffffffffffffffffffffffffffe016810167ffffffffffffffff81118282101715614b8357614b83614ae6565b604052919050565b80355f81900b8114610a50575f5ffd5b5f60608284031215614bab575f5ffd5b614bb3614b13565b90508135614bc081614807565b81526020820135614bd081614807565b6020820152614be160408301614b8b565b604082015292915050565b5f60608284031215614bfc575f5ffd5b6107658383614b9b565b8015158114614828575f5ffd5b8035610a5081614c06565b5f5f5f60a08486031215614c30575f5ffd5b8335614c3b81614c06565b9250614c4a8560208601614a76565b929592945050506080919091013590565b5f5f60408385031215614c6c575f5ffd5b823591506020830135614c7e81614807565b809150509250929050565b5f5f5f5f60408587031215614c9c575f5ffd5b843567ffffffffffffffff811115614cb2575f5ffd5b614cbe8782880161492d565b909550935050602085013567ffffffffffffffff811115614cdd575f5ffd5b614ce98782880161492d565b95989497509550505050565b602080825282518282018190525f918401906040840190835b81811015614d2c578351835260209384019390920191600101614d0e565b509095945050505050565b803561ffff81168114610a50575f5ffd5b5f5f5f60608486031215614d5a575f5ffd5b614d6384614d37565b9250614d7160208501614d37565b91506040840135614d8181614c06565b809150509250925092565b65ffffffffffff81168114614828575f5ffd5b5f60208284031215614daf575f5ffd5b813561092d81614d8c565b5f5f60408385031215614dcb575f5ffd5b8235614dd681614807565b91506020830135614c7e81614c06565b5f5f5f5f5f5f5f6080888a031215614dfc575f5ffd5b873567ffffffffffffffff811115614e12575f5ffd5b614e1e8a828b0161492d565b909850965050602088013567ffffffffffffffff811115614e3d575f5ffd5b614e498a828b0161492d565b909650945050604088013567ffffffffffffffff811115614e68575f5ffd5b614e748a828b0161492d565b9094509250614e87905060608901614d37565b905092959891949750929550565b5f5f5f60408486031215614ea7575f5ffd5b833567ffffffffffffffff811115614ebd575f5ffd5b614ec98682870161492d565b9094509250506020840135614d8181614807565b71ffffffffffffffffffffffffffffffffffff81168114614828575f5ffd5b5f5f5f5f60c08587031215614f0f575f5ffd5b8435614f1a81614c06565b9350614f298660208701614b9b565b92506080850135915060a0850135614f4081614edd565b939692955090935050565b60608101610768828473ffffffffffffffffffffffffffffffffffffffff815116825273ffffffffffffffffffffffffffffffffffffffff602082015116602083015260408101515f0b60408301525050565b5f5f60408385031215614faf575f5ffd5b8235614fba81614807565b91506020830135614c7e81614807565b5f5f5f5f5f5f60a08789031215614fdf575f5ffd5b8635614fea81614807565b95506020870135614ffa81614807565b94506040870135935060608701359250608087013567ffffffffffffffff811115615023575f5ffd5b61502f89828a01614975565b979a9699509497509295939492505050565b5f5f5f5f60608587031215615054575f5ffd5b8435935060208501359250604085013567ffffffffffffffff811115615078575f5ffd5b614ce987828801614975565b60608101610768828471ffffffffffffffffffffffffffffffffffff815116825271ffffffffffffffffffffffffffffffffffff6020820151166020830152604081015160070b60408301525050565b5f602082840312156150e4575f5ffd5b815167ffffffffffffffff8111156150fa575f5ffd5b8201601f8101841361510a575f5ffd5b805167ffffffffffffffff81111561512457615124614ae6565b61515560207fffffffffffffffffffffffffffffffffffffffffffffffffffffffffffffffe0601f84011601614b3c565b818152856020838501011115615169575f5ffd5b8160208401602083015e5f91810160200191909152949350505050565b5f60208284031215615196575f5ffd5b5051919050565b7f4e487b71000000000000000000000000000000000000000000000000000000005f52601160045260245ffd5b818103818111156107685761076861519d565b7f4e487b71000000000000000000000000000000000000000000000000000000005f52600160045260245ffd5b7f4e487b71000000000000000000000000000000000000000000000000000000005f52603260045260245ffd5b8183525f7f07ffffffffffffffffffffffffffffffffffffffffffffffffffffffffffffff831115615267575f5ffd5b8260051b80836020870137939093016020019392505050565b604081525f615293604083018688615237565b82810360208401526152a6818587615237565b979650505050505050565b81835281816020850137505f602082840101525f60207fffffffffffffffffffffffffffffffffffffffffffffffffffffffffffffffe0601f840116840101905092915050565b73ffffffffffffffffffffffffffffffffffffffff8916815273ffffffffffffffffffffffffffffffffffffffff8816602082015260a060408201525f61534360a08301888a615237565b8281036060840152615356818789615237565b9050828103608084015261536b8185876152b1565b9b9a5050505050505050505050565b5f6020828403121561538a575f5ffd5b815161092d81614855565b5f602082840312156153a5575f5ffd5b61076582614b8b565b80356153b981614807565b73ffffffffffffffffffffffffffffffffffffffff16825260208101356153df81614807565b73ffffffffffffffffffffffffffffffffffffffff16602083015261540660408201614b8b565b5f0b60408301525050565b84151581526020810184905273ffffffffffffffffffffffffffffffffffffffff8316604082015260c0810161544a60608301846153ae565b95945050505050565b8060070b8114614828575f5ffd5b5f60608284031215615471575f5ffd5b615479614b13565b9050815161548681614edd565b8152602082015161549681614edd565b60208201526040820151614be181615453565b5f5f5f5f8486036101008112156154be575f5ffd5b60608112156154cb575f5ffd5b506154d4614b13565b85516154df81614edd565b815260208601516154ef81615453565b6020820152604086015161550281614d8c565b604082015293506155168660608701615461565b925060c085015161552681614807565b60e0860151909250614f4081614807565b73ffffffffffffffffffffffffffffffffffffffff8616815261ffff8516602082015260ff8416604082015260e081016155b6606083018571ffffffffffffffffffffffffffffffffffff815116825271ffffffffffffffffffffffffffffffffffff6020820151166020830152604081015160070b60408301525050565b8260c08301529695505050505050565b5f606082840312156155d6575f5ffd5b6155de614b13565b905081516155eb81614edd565b815260208201516155fb81614edd565b60208201526040820151614be181614edd565b5f5f60c0838503121561561f575f5ffd5b6156298484615461565b915061563884606085016155c6565b90509250929050565b71ffffffffffffffffffffffffffffffffffff81811683821601908111156107685761076861519d565b808201808211156107685761076861519d565b5f6020828403121561568e575f5ffd5b813560ff8116811461092d575f5ffd5b5f82518060208501845e5f920191825250919050565b5f602082840312156156c4575f5ffd5b815161092d81614c06565b60a08101615722828673ffffffffffffffffffffffffffffffffffffffff815116825273ffffffffffffffffffffffffffffffffffffffff602082015116602083015260408101515f0b60408301525050565b71ffffffffffffffffffffffffffffffffffff8416606083015273ffffffffffffffffffffffffffffffffffffffff83166080830152949350505050565b84151581526020810184905273ffffffffffffffffffffffffffffffffffffffff8316604082015260c0810161544a606083018473ffffffffffffffffffffffffffffffffffffffff815116825273ffffffffffffffffffffffffffffffffffffffff602082015116602083015260408101515f0b60408301525050565b73ffffffffffffffffffffffffffffffffffffffff8781168252861660208201526101808101615856604083018773ffffffffffffffffffffffffffffffffffffffff815116825273ffffffffffffffffffffffffffffffffffffffff602082015116602083015260408101515f0b60408301525050565b845171ffffffffffffffffffffffffffffffffffff1660a0830152602085015160070b60c0830152604085015165ffffffffffff1660e0830152835171ffffffffffffffffffffffffffffffffffff908116610100840152602085015116610120830152604084015160070b610140830152821515610160830152979650505050505050565b73ffffffffffffffffffffffffffffffffffffffff82811682821603908111156107685761076861519d565b73ffffffffffffffffffffffffffffffffffffffff81811683821601908111156107685761076861519d565b73ffffffffffffffffffffffffffffffffffffffff86168152841515602082015283604082015273ffffffffffffffffffffffffffffffffffffffff8316606082015260a060808201525f6152a660a08301846148b4565b5f5f6040838503121561599d575f5ffd5b505080516020909101519092909150565b73ffffffffffffffffffffffffffffffffffffffff8716815273ffffffffffffffffffffffffffffffffffffffff8616602082015284604082015283606082015260a060808201525f615a0560a0830184866152b1565b98975050505050505050565b5f60608284031215615a21575f5ffd5b615a29614b13565b90508135615a3681614edd565b81526020820135615a4681614edd565b60208201526040820135614be181615453565b5f5f5f5f5f5f868803610180811215615a70575f5ffd5b8735615a7b81614807565b96506020880135615a8b81614807565b9550615a9a8960408a01614b9b565b945060607fffffffffffffffffffffffffffffffffffffffffffffffffffffffffffffff6082011215615acb575f5ffd5b50615ad4614b13565b60a0880135615ae281614edd565b815260c0880135615af281615453565b602082015260e0880135615b0581614d8c565b60408201529250615b1a886101008901615a11565b9150615b296101608801614c13565b90509295509295509295565b5f7f80000000000000000000000000000000000000000000000000000000000000008203615b6557615b6561519d565b505f0390565b83815273ffffffffffffffffffffffffffffffffffffffff8316602082015260a0810161192560408301846153ae565b5f60608284031215615bab575f5ffd5b6107658383615461565b6fffffffffffffffffffffffffffffffff82811682821603908111156107685761076861519d565b7f4e487b71000000000000000000000000000000000000000000000000000000005f52601260045260245ffd5b73ffffffffffffffffffffffffffffffffffffffff8616815261ffff8516602082015260ff8416604082015260e08101615c89606083018571ffffffffffffffffffffffffffffffffffff815116825271ffffffffffffffffffffffffffffffffffff6020820151166020830152604081015160070b60408301525050565b71ffffffffffffffffffffffffffffffffffff831660c08301529695505050505050565b5f5f5f60e08486031215615cbf575f5ffd5b615cc98585615461565b9250615cd885606086016155c6565b60c0949094015192959394509192915050565b71ffffffffffffffffffffffffffffffffffff82811682821603908111156107685761076861519d565b5f7fffffffffffffffffffffffffffffffffffffffffffffffffffffffffffffffff8203615d4557615d4561519d565b5060010190565b80820281158282048414176107685761076861519d565b6001815b6001841115615d9e57808504811115615d8257615d8261519d565b6001841615615d9057908102905b60019390931c928002615d67565b935093915050565b5f82615db457506001610768565b81615dc057505f610768565b8160018114615dd65760028114615de057615dfc565b6001915050610768565b60ff841115615df157615df161519d565b50506001821b610768565b5060208310610133831016604e8410600b8410161715615e1f575081810a610768565b615e4a7fffffffffffffffffffffffffffffffffffffffffffffffffffffffffffffffff8484615d63565b807fffffffffffffffffffffffffffffffffffffffffffffffffffffffffffffffff04821115615e7c57615e7c61519d565b029392505050565b5f61076560ff841683615da6565b5f68ffffffffffffffffff831680615eac57615eac615bdd565b8068ffffffffffffffffff84160491505092915050565b68ffffffffffffffffff81811683821601908111156107685761076861519d565b5f82615ef257615ef2615bdd565b500490565b5f6fffffffffffffffffffffffffffffffff831680615f1857615f18615bdd565b806fffffffffffffffffffffffffffffffff84160491505092915050565b5f71ffffffffffffffffffffffffffffffffffff821671ffffffffffffffffffffffffffffffffffff841671ffffffffffffffffffffffffffffffffffff8183021692508183048114821517615f8e57615f8e61519d565b50509291505056fea26469706673582212201b0472ecfedec9f6f1611b327889de730d86fbf11c915e6151b88db8a7838eb564736f6c634300081c0033","linkReferences":{"src/libraries/VaultExternal.sol":{"VaultExternal":[{"start":2972,"length":20},{"start":4759,"length":20},{"start":4909,"length":20},{"start":9571,"length":20},{"start":9776,"length":20},{"start":11438,"length":20}]}}},"methodIdentifiers":{"TIMESTAMP_ISSUANCE_START()":"410cd41a","balanceOf(address,uint256)":"00fdd58e","balanceOfBatch(address[],uint256[])":"4e1273f4","burn(bool,(address,address,int8),uint256)":"3fc62188","claimSIR(uint256,address)":"777b1d43","cumulativeSIRPerTEA(uint256)":"7a4996e8","getReserves((address,address,int8))":"fbd98edf","initialize((address,address,int8))":"3aa88670","isApprovedForAll(address,address)":"e985e9c5","mint(bool,(address,address,int8),uint256,uint144)":"cdf3a837","numberOfVaults()":"7a32af78","paramsById(uint48)":"d2f3fd09","safeBatchTransferFrom(address,address,uint256[],uint256[],bytes)":"2eb2c2d6","safeTransferFrom(address,address,uint256,uint256,bytes)":"f242432a","setApprovalForAll(address,bool)":"a22cb465","supportsInterface(bytes4)":"01ffc9a7","systemParams()":"458e8e6b","totalReserves(address)":"6d0800bc","totalSupply(uint256)":"bd85b039","unclaimedRewards(uint256,address)":"46f90748","uniswapV3SwapCallback(int256,int256,bytes)":"fa461e33","updateSystemState(uint16,uint16,bool)":"5ab2cef4","updateVaults(uint48[],uint48[],uint8[],uint16)":"bb147c54","uri(uint256)":"0e89341c","vaultStates((address,address,int8))":"2edf3104","vaultTax(uint48)":"6cfcac04","withdrawFees(address)":"164e68de","withdrawToSaveSystem(address[],address)":"c7c3d2dc"},"id":59}