{"abi":[{"type":"constructor","inputs":[{"name":"systemControl","type":"address","internalType":"address"},{"name":"sir","type":"address","internalType":"address"},{"name":"oracle","type":"address","internalType":"address"},{"name":"apeImplementation","type":"address","internalType":"address"}],"stateMutability":"nonpayable"},{"type":"function","name":"TIMESTAMP_ISSUANCE_START","inputs":[],"outputs":[{"name":"","type":"uint40","internalType":"uint40"}],"stateMutability":"view"},{"type":"function","name":"balanceOf","inputs":[{"name":"account","type":"address","internalType":"address"},{"name":"vaultId","type":"uint256","internalType":"uint256"}],"outputs":[{"name":"","type":"uint256","internalType":"uint256"}],"stateMutability":"view"},{"type":"function","name":"balanceOfBatch","inputs":[{"name":"owners","type":"address[]","internalType":"address[]"},{"name":"vaultIds","type":"uint256[]","internalType":"uint256[]"}],"outputs":[{"name":"balances_","type":"uint256[]","internalType":"uint256[]"}],"stateMutability":"view"},{"type":"function","name":"burn","inputs":[{"name":"isAPE","type":"bool","internalType":"bool"},{"name":"vaultParams","type":"tuple","internalType":"struct SirStructs.VaultParameters","components":[{"name":"debtToken","type":"address","internalType":"address"},{"name":"collateralToken","type":"address","internalType":"address"},{"name":"leverageTier","type":"int8","internalType":"int8"}]},{"name":"amount","type":"uint256","internalType":"uint256"}],"outputs":[{"name":"","type":"uint144","internalType":"uint144"}],"stateMutability":"nonpayable"},{"type":"function","name":"claimSIR","inputs":[{"name":"vaultId","type":"uint256","internalType":"uint256"},{"name":"lper","type":"address","internalType":"address"}],"outputs":[{"name":"","type":"uint80","internalType":"uint80"}],"stateMutability":"nonpayable"},{"type":"function","name":"cumulativeSIRPerTEA","inputs":[{"name":"vaultId","type":"uint256","internalType":"uint256"}],"outputs":[{"name":"cumulativeSIRPerTEAx96","type":"uint176","internalType":"uint176"}],"stateMutability":"view"},{"type":"function","name":"getReserves","inputs":[{"name":"vaultParams","type":"tuple","internalType":"struct SirStructs.VaultParameters","components":[{"name":"debtToken","type":"address","internalType":"address"},{"name":"collateralToken","type":"address","internalType":"address"},{"name":"leverageTier","type":"int8","internalType":"int8"}]}],"outputs":[{"name":"","type":"tuple","internalType":"struct SirStructs.Reserves","components":[{"name":"reserveApes","type":"uint144","internalType":"uint144"},{"name":"reserveLPers","type":"uint144","internalType":"uint144"},{"name":"tickPriceX42","type":"int64","internalType":"int64"}]}],"stateMutability":"view"},{"type":"function","name":"initialize","inputs":[{"name":"vaultParams","type":"tuple","internalType":"struct SirStructs.VaultParameters","components":[{"name":"debtToken","type":"address","internalType":"address"},{"name":"collateralToken","type":"address","internalType":"address"},{"name":"leverageTier","type":"int8","internalType":"int8"}]}],"outputs":[],"stateMutability":"nonpayable"},{"type":"function","name":"isApprovedForAll","inputs":[{"name":"","type":"address","internalType":"address"},{"name":"","type":"address","internalType":"address"}],"outputs":[{"name":"","type":"bool","internalType":"bool"}],"stateMutability":"view"},{"type":"function","name":"mint","inputs":[{"name":"isAPE","type":"bool","internalType":"bool"},{"name":"vaultParams","type":"tuple","internalType":"struct SirStructs.VaultParameters","components":[{"name":"debtToken","type":"address","internalType":"address"},{"name":"collateralToken","type":"address","internalType":"address"},{"name":"leverageTier","type":"int8","internalType":"int8"}]},{"name":"collateralToDeposit","type":"uint144","internalType":"uint144"}],"outputs":[{"name":"amount","type":"uint256","internalType":"uint256"}],"stateMutability":"payable"},{"type":"function","name":"numberOfVaults","inputs":[],"outputs":[{"name":"","type":"uint48","internalType":"uint48"}],"stateMutability":"view"},{"type":"function","name":"paramsById","inputs":[{"name":"vaultId","type":"uint48","internalType":"uint48"}],"outputs":[{"name":"","type":"tuple","internalType":"struct SirStructs.VaultParameters","components":[{"name":"debtToken","type":"address","internalType":"address"},{"name":"collateralToken","type":"address","internalType":"address"},{"name":"leverageTier","type":"int8","internalType":"int8"}]}],"stateMutability":"view"},{"type":"function","name":"safeBatchTransferFrom","inputs":[{"name":"from","type":"address","internalType":"address"},{"name":"to","type":"address","internalType":"address"},{"name":"vaultIds","type":"uint256[]","internalType":"uint256[]"},{"name":"amounts","type":"uint256[]","internalType":"uint256[]"},{"name":"data","type":"bytes","internalType":"bytes"}],"outputs":[],"stateMutability":"nonpayable"},{"type":"function","name":"safeTransferFrom","inputs":[{"name":"from","type":"address","internalType":"address"},{"name":"to","type":"address","internalType":"address"},{"name":"vaultId","type":"uint256","internalType":"uint256"},{"name":"amount","type":"uint256","internalType":"uint256"},{"name":"data","type":"bytes","internalType":"bytes"}],"outputs":[],"stateMutability":"nonpayable"},{"type":"function","name":"setApprovalForAll","inputs":[{"name":"operator","type":"address","internalType":"address"},{"name":"approved","type":"bool","internalType":"bool"}],"outputs":[],"stateMutability":"nonpayable"},{"type":"function","name":"supportsInterface","inputs":[{"name":"interfaceId","type":"bytes4","internalType":"bytes4"}],"outputs":[{"name":"","type":"bool","internalType":"bool"}],"stateMutability":"pure"},{"type":"function","name":"systemParams","inputs":[],"outputs":[{"name":"","type":"tuple","internalType":"struct SirStructs.SystemParameters","components":[{"name":"baseFee","type":"uint16","internalType":"uint16"},{"name":"lpFee","type":"uint16","internalType":"uint16"},{"name":"mintingStopped","type":"bool","internalType":"bool"},{"name":"cumulativeTax","type":"uint16","internalType":"uint16"}]}],"stateMutability":"view"},{"type":"function","name":"totalReserves","inputs":[{"name":"collateral","type":"address","internalType":"address"}],"outputs":[{"name":"","type":"uint256","internalType":"uint256"}],"stateMutability":"view"},{"type":"function","name":"totalSupply","inputs":[{"name":"vaultId","type":"uint256","internalType":"uint256"}],"outputs":[{"name":"","type":"uint256","internalType":"uint256"}],"stateMutability":"view"},{"type":"function","name":"unclaimedRewards","inputs":[{"name":"vaultId","type":"uint256","internalType":"uint256"},{"name":"lper","type":"address","internalType":"address"}],"outputs":[{"name":"","type":"uint80","internalType":"uint80"}],"stateMutability":"view"},{"type":"function","name":"updateSystemState","inputs":[{"name":"baseFee","type":"uint16","internalType":"uint16"},{"name":"lpFee","type":"uint16","internalType":"uint16"},{"name":"mintingStopped","type":"bool","internalType":"bool"}],"outputs":[],"stateMutability":"nonpayable"},{"type":"function","name":"updateVaults","inputs":[{"name":"oldVaults","type":"uint48[]","internalType":"uint48[]"},{"name":"newVaults","type":"uint48[]","internalType":"uint48[]"},{"name":"newTaxes","type":"uint8[]","internalType":"uint8[]"},{"name":"cumulativeTax","type":"uint16","internalType":"uint16"}],"outputs":[],"stateMutability":"nonpayable"},{"type":"function","name":"uri","inputs":[{"name":"vaultId","type":"uint256","internalType":"uint256"}],"outputs":[{"name":"","type":"string","internalType":"string"}],"stateMutability":"view"},{"type":"function","name":"vaultStates","inputs":[{"name":"vaultParams","type":"tuple","internalType":"struct SirStructs.VaultParameters","components":[{"name":"debtToken","type":"address","internalType":"address"},{"name":"collateralToken","type":"address","internalType":"address"},{"name":"leverageTier","type":"int8","internalType":"int8"}]}],"outputs":[{"name":"","type":"tuple","internalType":"struct SirStructs.VaultState","components":[{"name":"reserve","type":"uint144","internalType":"uint144"},{"name":"tickPriceSatX42","type":"int64","internalType":"int64"},{"name":"vaultId","type":"uint48","internalType":"uint48"}]}],"stateMutability":"view"},{"type":"function","name":"vaultTax","inputs":[{"name":"vaultId","type":"uint48","internalType":"uint48"}],"outputs":[{"name":"","type":"uint8","internalType":"uint8"}],"stateMutability":"view"},{"type":"function","name":"withdrawFees","inputs":[{"name":"token","type":"address","internalType":"address"}],"outputs":[{"name":"totalFeesToStakers","type":"uint256","internalType":"uint256"}],"stateMutability":"nonpayable"},{"type":"function","name":"withdrawToSaveSystem","inputs":[{"name":"tokens","type":"address[]","internalType":"address[]"},{"name":"to","type":"address","internalType":"address"}],"outputs":[{"name":"amounts","type":"uint256[]","internalType":"uint256[]"}],"stateMutability":"nonpayable"},{"type":"event","name":"ApprovalForAll","inputs":[{"name":"account","type":"address","indexed":true,"internalType":"address"},{"name":"operator","type":"address","indexed":true,"internalType":"address"},{"name":"approved","type":"bool","indexed":false,"internalType":"bool"}],"anonymous":false},{"type":"event","name":"Burn","inputs":[{"name":"vaultId","type":"uint48","indexed":true,"internalType":"uint48"},{"name":"isAPE","type":"bool","indexed":false,"internalType":"bool"},{"name":"collateralWithdrawn","type":"uint144","indexed":false,"internalType":"uint144"},{"name":"collateralFeeToStakers","type":"uint144","indexed":false,"internalType":"uint144"},{"name":"collateralFeeToLPers","type":"uint144","indexed":false,"internalType":"uint144"}],"anonymous":false},{"type":"event","name":"Mint","inputs":[{"name":"vaultId","type":"uint48","indexed":true,"internalType":"uint48"},{"name":"isAPE","type":"bool","indexed":false,"internalType":"bool"},{"name":"collateralIn","type":"uint144","indexed":false,"internalType":"uint144"},{"name":"collateralFeeToStakers","type":"uint144","indexed":false,"internalType":"uint144"},{"name":"collateralFeeToLPers","type":"uint144","indexed":false,"internalType":"uint144"}],"anonymous":false},{"type":"event","name":"TransferBatch","inputs":[{"name":"operator","type":"address","indexed":true,"internalType":"address"},{"name":"from","type":"address","indexed":true,"internalType":"address"},{"name":"to","type":"address","indexed":true,"internalType":"address"},{"name":"vaultIds","type":"uint256[]","indexed":false,"internalType":"uint256[]"},{"name":"amounts","type":"uint256[]","indexed":false,"internalType":"uint256[]"}],"anonymous":false},{"type":"event","name":"TransferSingle","inputs":[{"name":"operator","type":"address","indexed":true,"internalType":"address"},{"name":"from","type":"address","indexed":true,"internalType":"address"},{"name":"to","type":"address","indexed":true,"internalType":"address"},{"name":"id","type":"uint256","indexed":false,"internalType":"uint256"},{"name":"amount","type":"uint256","indexed":false,"internalType":"uint256"}],"anonymous":false},{"type":"event","name":"URI","inputs":[{"name":"value","type":"string","indexed":false,"internalType":"string"},{"name":"id","type":"uint256","indexed":true,"internalType":"uint256"}],"anonymous":false},{"type":"event","name":"VaultNewTax","inputs":[{"name":"vault","type":"uint48","indexed":true,"internalType":"uint48"},{"name":"tax","type":"uint8","indexed":false,"internalType":"uint8"},{"name":"cumulativeTax","type":"uint16","indexed":false,"internalType":"uint16"}],"anonymous":false},{"type":"error","name":"LengthMismatch","inputs":[]},{"type":"error","name":"NotAWETHVault","inputs":[]},{"type":"error","name":"NotAuthorized","inputs":[]},{"type":"error","name":"TEAMaxSupplyExceeded","inputs":[]},{"type":"error","name":"UnsafeRecipient","inputs":[]}],"bytecode":{"object":"0x61012060405234801561001157600080fd5b50604051615d2e380380615d2e83398101604081905261003091610168565b6001600160a01b03938416608090815264ffffffffff421660a05292841660c052604080519384018152610fa08452610929602080860191909152600085830181905260609586018190526002805466ffffffffffffff19166309290fa017815594871660e052928616610100528151948501825282855284018281529084018281526005805460018101825593529351919092027f036b6384b5eca791c62761152d0c79bb0604c104a5fb6f4eb0703f3154bb3db0810180549286166001600160a01b03199093169290921790915590517f036b6384b5eca791c62761152d0c79bb0604c104a5fb6f4eb0703f3154bb3db19091018054925160ff16600160a01b026001600160a81b031990931691909316171790556101bc565b80516001600160a01b038116811461016357600080fd5b919050565b6000806000806080858703121561017e57600080fd5b6101878561014c565b93506101956020860161014c565b92506101a36040860161014c565b91506101b16060860161014c565b905092959194509250565b60805160a05160c05160e05161010051615af661023860003960006116110152600081816110ba015281816115bf015281816117230152612b130152600081816109cc01528181610aae0152611ceb01526000818161036b0152613f87015260008181611bae01528181611f9601526123f20152615af66000f3fe6080604052600436106101ab5760003560e01c80635ab2cef4116100ec578063bb147c541161008a578063d2f3fd0911610064578063d2f3fd0914610699578063e985e9c5146106c6578063f242432a14610701578063fbd98edf1461072157600080fd5b8063bb147c541461061a578063bd85b0391461063a578063c7c3d2dc1461067957600080fd5b8063777b1d43116100c6578063777b1d43146105675780637a32af78146105875780637a4996e8146105b3578063a22cb465146105fa57600080fd5b80635ab2cef4146104d05780636cfcac04146104f05780636d0800bc1461053a57600080fd5b806332eaa62511610159578063410cd41a11610133578063410cd41a14610359578063458e8e6b146103a357806346f90748146104685780634e1273f4146104a357600080fd5b806332eaa625146102e35780633aa88670146102f65780633fc621881461031657600080fd5b8063164e68de1161018a578063164e68de146102405780632eb2c2d6146102605780632edf31041461028257600080fd5b8062fdd58e146101b057806301ffc9a7146101e35780630e89341c14610213575b600080fd5b3480156101bc57600080fd5b506101d06101cb366004614814565b61074e565b6040519081526020015b60405180910390f35b3480156101ef57600080fd5b506102036101fe36600461486e565b6107e2565b60405190151581526020016101da565b34801561021f57600080fd5b5061023361022e36600461488b565b6108c3565b6040516101da91906148c8565b34801561024c57600080fd5b506101d061025b366004614919565b6109b2565b34801561026c57600080fd5b5061028061027b3660046149c4565b610ad8565b005b34801561028e57600080fd5b506102a261029d366004614aa7565b610dfd565b60408051825171ffffffffffffffffffffffffffffffffffff16815260208084015160070b908201529181015165ffffffffffff16908201526060016101da565b6101d06102f1366004614af1565b610f52565b34801561030257600080fd5b50610280610311366004614bf4565b611550565b34801561032257600080fd5b50610336610331366004614c48565b61168a565b60405171ffffffffffffffffffffffffffffffffffff90911681526020016101da565b34801561036557600080fd5b5061038d7f000000000000000000000000000000000000000000000000000000000000000081565b60405164ffffffffff90911681526020016101da565b3480156103af57600080fd5b50610422604080516080810182526000808252602082018190529181018290526060810191909152506040805160808101825260025461ffff80821683526201000082048116602084015260ff640100000000830416151593830193909352650100000000009004909116606082015290565b6040516101da9190600060808201905061ffff835116825261ffff602084015116602083015260408301511515604083015261ffff606084015116606083015292915050565b34801561047457600080fd5b50610488610483366004614c88565b611a76565b60405169ffffffffffffffffffff90911681526020016101da565b3480156104af57600080fd5b506104c36104be366004614cb8565b611a95565b6040516101da9190614d29565b3480156104dc57600080fd5b506102806104eb366004614d7e565b611b96565b3480156104fc57600080fd5b5061052861050b366004614dce565b65ffffffffffff1660009081526020819052604090205460ff1690565b60405160ff90911681526020016101da565b34801561054657600080fd5b506101d0610555366004614919565b60086020526000908152604090205481565b34801561057357600080fd5b50610488610582366004614c88565b611cd1565b34801561059357600080fd5b5061059c611e19565b60405165ffffffffffff90911681526020016101da565b3480156105bf57600080fd5b506105d36105ce36600461488b565b611e30565b60405175ffffffffffffffffffffffffffffffffffffffffffff90911681526020016101da565b34801561060657600080fd5b50610280610615366004614deb565b611ee7565b34801561062657600080fd5b50610280610635366004614e19565b611f7e565b34801561064657600080fd5b506101d061065536600461488b565b6000908152600460205260409020546fffffffffffffffffffffffffffffffff1690565b34801561068557600080fd5b506104c3610694366004614ed0565b6123d8565b3480156106a557600080fd5b506106b96106b4366004614dce565b61278e565b6040516101da9190614f1c565b3480156106d257600080fd5b506102036106e1366004614f70565b600660209081526000928352604080842090915290825290205460ff1681565b34801561070d57600080fd5b5061028061071c366004614f9e565b612837565b34801561072d57600080fd5b5061074161073c366004614aa7565b612aaf565b6040516101da919061501a565b600073ffffffffffffffffffffffffffffffffffffffff831630146107a35773ffffffffffffffffffffffffffffffffffffffff831660009081526003602090815260408083208584529091529020546107d9565b60008281526004602052604090205470010000000000000000000000000000000090046fffffffffffffffffffffffffffffffff165b90505b92915050565b60007f01ffc9a7000000000000000000000000000000000000000000000000000000007fffffffff000000000000000000000000000000000000000000000000000000008316148061087557507fd9b67a26000000000000000000000000000000000000000000000000000000007fffffffff000000000000000000000000000000000000000000000000000000008316145b806107dc5750507fffffffff00000000000000000000000000000000000000000000000000000000167f0e89341c000000000000000000000000000000000000000000000000000000001490565b6000818152600460208190526040918290205491517f3ef6287c000000000000000000000000000000000000000000000000000000008152600591810191909152602481018390526fffffffffffffffffffffffffffffffff9091166044820181905260609173__$0d913f5ea2cc8398585c34a0416dbc1ef1$__90633ef6287c90606401600060405180830381865af4158015610965573d6000803e3d6000fd5b505050506040513d6000823e601f3d9081017fffffffffffffffffffffffffffffffffffffffffffffffffffffffffffffffe01682016040526109ab919081019061506a565b9392505050565b60003373ffffffffffffffffffffffffffffffffffffffff7f000000000000000000000000000000000000000000000000000000000000000016146109f657600080fd5b73ffffffffffffffffffffffffffffffffffffffff8216600081815260086020526040908190205490517f70a082310000000000000000000000000000000000000000000000000000000081523060048201529091906370a0823190602401602060405180830381865afa158015610a72573d6000803e3d6000fd5b505050506040513d601f19601f82011682018060405250810190610a96919061511e565b610aa09190615166565b90508015610ad357610ad3827f000000000000000000000000000000000000000000000000000000000000000083612b7e565b919050565b3073ffffffffffffffffffffffffffffffffffffffff891603610afd57610afd615179565b848314610b36576040517fff633a3800000000000000000000000000000000000000000000000000000000815260040160405180910390fd5b3373ffffffffffffffffffffffffffffffffffffffff891614801590610b8d575073ffffffffffffffffffffffffffffffffffffffff8816600090815260066020908152604080832033845290915290205460ff16155b15610bc4576040517fea8e4eb500000000000000000000000000000000000000000000000000000000815260040160405180910390fd5b60005b85811015610c1357610c0b8989898985818110610be657610be66151a8565b90506020020135888886818110610bff57610bff6151a8565b90506020020135612cec565b600101610bc7565b508673ffffffffffffffffffffffffffffffffffffffff168873ffffffffffffffffffffffffffffffffffffffff163373ffffffffffffffffffffffffffffffffffffffff167f4a39dc06d4c0dbc64b70af90fd698a233a518aa5d07e595d983b8c0526c8f7fb89898989604051610c8e9493929190615222565b60405180910390a473ffffffffffffffffffffffffffffffffffffffff87163b15610da35773ffffffffffffffffffffffffffffffffffffffff87163014801590610d9e57506040517fbc197c81000000000000000000000000000000000000000000000000000000008082529073ffffffffffffffffffffffffffffffffffffffff89169063bc197c8190610d369033908d908c908c908c908c908c908c9060040161529d565b6020604051808303816000875af1158015610d55573d6000803e3d6000fd5b505050506040513d601f19601f82011682018060405250810190610d799190615320565b7fffffffff000000000000000000000000000000000000000000000000000000001614155b610dbc565b73ffffffffffffffffffffffffffffffffffffffff8716155b15610df3576040517f3da6393100000000000000000000000000000000000000000000000000000000815260040160405180910390fd5b5050505050505050565b604080516060810182526000808252602082018190529181019190915260076000610e2b6020850185614919565b73ffffffffffffffffffffffffffffffffffffffff1673ffffffffffffffffffffffffffffffffffffffff1681526020019081526020016000206000836020016020810190610e7a9190614919565b73ffffffffffffffffffffffffffffffffffffffff1673ffffffffffffffffffffffffffffffffffffffff1681526020019081526020016000206000836040016020810190610ec9919061533d565b600090810b8252602080830193909352604091820190208151606081018352905471ffffffffffffffffffffffffffffffffffff811682527201000000000000000000000000000000000000810460070b938201939093527a01000000000000000000000000000000000000000000000000000090920465ffffffffffff169082015292915050565b600034156110455773c02aaa39b223fe8d0a0e5c4f27ead9083c756cc2610f7f6040850160208601614919565b73ffffffffffffffffffffffffffffffffffffffff1614610fcc576040517f8efa29d600000000000000000000000000000000000000000000000000000000815260040160405180910390fd5b34915073c02aaa39b223fe8d0a0e5c4f27ead9083c756cc273ffffffffffffffffffffffffffffffffffffffff1663d0e30db0346040518263ffffffff1660e01b81526004016000604051808303818588803b15801561102b57600080fd5b505af115801561103f573d6000803e3d6000fd5b50505050505b6040805160808101825260025461ffff80821683526201000082048116602084015260ff64010000000083041615801594840194909452650100000000009091041660608201529061109657600080fd5b600080600073__$0d913f5ea2cc8398585c34a0416dbc1ef1$__6349a6b7e78960077f00000000000000000000000000000000000000000000000000000000000000008b6040518563ffffffff1660e01b81526004016110f994939291906153bc565b60e060405180830381865af4158015611116573d6000803e3d6000fd5b505050506040513d601f19601f8201168201806040525081019061113a919061545a565b60408381015165ffffffffffff1660009081526020818152828220835160608082018652915460ff81168252610100810464ffffffffff16828501526601000000000000900475ffffffffffffffffffffffffffffffffffffffffffff1681860152845160808101865284815292830184905293820183905281019190915293965091945092509089156112b657855182516040517f6bc601d700000000000000000000000000000000000000000000000000000000815273ffffffffffffffffffffffffffffffffffffffff861692636bc601d79261122492339291908a908f906004016154d7565b610100604051808303816000875af1158015611244573d6000803e3d6000fd5b505050506040513d601f19601f820116820180604052508101906112689190615605565b6060820151909950919550915071ffffffffffffffffffffffffffffffffffff16156112b1576112b16112a160408b0160208c01614919565b8660400151868460600151612e7e565b6112dc565b6112d76112c960408b0160208c01614919565b86604001518885888d613068565b975090505b6112e785858b61330f565b8060200151880371ffffffffffffffffffffffffffffffffffff16600860008b60200160208101906113199190614919565b73ffffffffffffffffffffffffffffffffffffffff1673ffffffffffffffffffffffffffffffffffffffff16815260200190815260200160002060008282540192505081905550846040015165ffffffffffff167f2ea082b0ce379480d9dfb0d7ab365e33def58ee2bee64887c13e531723b5c8818b8360000151846020015185606001518660400151016040516113e39493929190931515845271ffffffffffffffffffffffffffffffffffff9283166020850152908216604084015216606082015260800190565b60405180910390a2346000036114225761142261140660408b0160208c01614919565b33308b71ffffffffffffffffffffffffffffffffffff166137f3565b891580156114305750333b15155b801561150c575060408581015190517ff23a6e6100000000000000000000000000000000000000000000000000000000808252336004830181905260006024840181905265ffffffffffff9094166044840152606483018b905260a0608484015260a4830193909352919063f23a6e619060c4016020604051808303816000875af11580156114c3573d6000803e3d6000fd5b505050506040513d601f19601f820116820180604052508101906114e79190615320565b7fffffffff000000000000000000000000000000000000000000000000000000001614155b15611543576040517f3da6393100000000000000000000000000000000000000000000000000000000815260040160405180910390fd5b5050505050509392505050565b805173ffffffffffffffffffffffffffffffffffffffff90811660009081526007602090815260408083208286018051861685529083528184208287018051860b8652935281842091517fd1c790ba0000000000000000000000000000000000000000000000000000000081527f0000000000000000000000000000000000000000000000000000000000000000861660048201526024810192909252600560448301528551851660648301525184166084820152905190910b60a48201527f000000000000000000000000000000000000000000000000000000000000000090911660c482015273__$0d913f5ea2cc8398585c34a0416dbc1ef1$__9063d1c790ba9060e40160006040518083038186803b15801561166f57600080fd5b505af4158015611683573d6000803e3d6000fd5b5050505050565b6040805160808101825260025461ffff80821683526201000082048116602084015260ff6401000000008304161515838501526501000000000090910416606082015290517f49a6b7e70000000000000000000000000000000000000000000000000000000081526000919082908190819073__$0d913f5ea2cc8398585c34a0416dbc1ef1$__906349a6b7e79061174d908b906007907f0000000000000000000000000000000000000000000000000000000000000000908d906004016153bc565b60e060405180830381865af415801561176a573d6000803e3d6000fd5b505050506040513d601f19601f8201168201806040525081019061178e919061545a565b60408381015165ffffffffffff1660009081526020818152828220835160608082018652915460ff81168252610100810464ffffffffff16828501526601000000000000900475ffffffffffffffffffffffffffffffffffffffffffff1681860152845160808101865284815292830184905293820183905281019190915293965091945092509089156118f657855182516040517f8c26842700000000000000000000000000000000000000000000000000000000815273ffffffffffffffffffffffffffffffffffffffff861692638c2684279261187892339291908a908f90600401615647565b60e0604051808303816000875af1158015611897573d6000803e3d6000fd5b505050506040513d601f19601f820116820180604052508101906118bb91906156d6565b6060810151919550915071ffffffffffffffffffffffffffffffffffff16156118f1576118f16112a160408b0160208c01614919565b61191a565b61191761190960408b0160208c01614919565b86604001518885888d613964565b90505b61192585858b61330f565b60208101518151611936919061570b565b71ffffffffffffffffffffffffffffffffffff166008600061195e60408d0160208e01614919565b73ffffffffffffffffffffffffffffffffffffffff1673ffffffffffffffffffffffffffffffffffffffff16815260200190815260200160002060008282546119a79190615166565b92505081905550846040015165ffffffffffff167f7c6da711ffa6af277b820416f2daab1018c73a4fb0c4a49a38c5fb292b6c0e8b8b83600001518460200151856060015186604001516119fb919061570b565b60408051941515855271ffffffffffffffffffffffffffffffffffff9384166020860152918316848301529091166060830152519081900360800190a2611a68611a4b60408b0160208c01614919565b8251339071ffffffffffffffffffffffffffffffffffff16612b7e565b519998505050505050505050565b60006107d98383611a87858761074e565b611a9087611e30565b613b7e565b6060838214611ad0576040517fff633a3800000000000000000000000000000000000000000000000000000000815260040160405180910390fd5b8367ffffffffffffffff811115611ae957611ae9614b3b565b604051908082528060200260200182016040528015611b12578160200160208202803683370190505b50905060005b84811015611b8d57611b68868683818110611b3557611b356151a8565b9050602002016020810190611b4a9190614919565b858584818110611b5c57611b5c6151a8565b9050602002013561074e565b828281518110611b7a57611b7a6151a8565b6020908102919091010152600101611b18565b50949350505050565b3373ffffffffffffffffffffffffffffffffffffffff7f00000000000000000000000000000000000000000000000000000000000000001614611bd857600080fd5b60408051608080820183526002805461ffff808216855262010000808304821660208088019190915264010000000080850460ff161515888a01526501000000000080860485166060998a019081528a519889018b529c85168089529b85169288018390529915159887018990529a51909216949095018490527fffffffffffffffffffffffffffffffffffffffffffffffffffffffff0000000090911690961795909202949094177fffffffffffffffffffffffffffffffffffffffffffffffffff000000ffffffff16919094027fffffffffffffffffffffffffffffffffffffffffffffffffff0000ffffffffff16179102179055565b60003373ffffffffffffffffffffffffffffffffffffffff7f00000000000000000000000000000000000000000000000000000000000000001614611d1557600080fd5b600060405180608001604052808473ffffffffffffffffffffffffffffffffffffffff168152602001611d48858761074e565b8152600060208083018290526040928301829052825160808101845260025461ffff8082168352620100008204811683850152640100000000820460ff90811615158488015265010000000000909204166060808401919091528a85528484529385902085519485018652549081168452610100810464ffffffffff1692840192909252660100000000000090910475ffffffffffffffffffffffffffffffffffffffffffff1692820192909252919250611e11916001918791611e0b83613c69565b86613cda565b949350505050565b600554600090611e2b90600190615166565b905090565b6040805160808101825260025461ffff80821683526201000082048116602080850191909152640100000000830460ff90811615158587015265010000000000909304909116606080850191909152600086815280835285812086519283018752549384168252610100840464ffffffffff1692820192909252660100000000000090920475ffffffffffffffffffffffffffffffffffffffffffff16938201939093526107dc9190611ee285613c69565b613f27565b33600081815260066020908152604080832073ffffffffffffffffffffffffffffffffffffffff87168085529083529281902080547fffffffffffffffffffffffffffffffffffffffffffffffffffffffffffffff001686151590811790915590519081529192917f17307eab39ab6107e8899845ad3d59bd9653f200f220920489ca2b5937696c31910160405180910390a35050565b3373ffffffffffffffffffffffffffffffffffffffff7f00000000000000000000000000000000000000000000000000000000000000001614611fc057600080fd5b6000805b8781101561219357612003898983818110611fe157611fe16151a8565b9050602002016020810190611ff69190614dce565b65ffffffffffff16611e30565b91506040518060600160405280600060ff1681526020014264ffffffffff1681526020018375ffffffffffffffffffffffffffffffffffffffffffff168152506000808b8b85818110612058576120586151a8565b905060200201602081019061206d9190614dce565b65ffffffffffff16815260208082019290925260409081016000208351815493850151949092015175ffffffffffffffffffffffffffffffffffffffffffff166601000000000000027fffffffff00000000000000000000000000000000000000000000ffffffffffff64ffffffffff909516610100027fffffffffffffffffffffffffffffffffffffffffffffffffffff00000000000090941660ff909316929092179290921792909216919091179055888882818110612131576121316151a8565b90506020020160208101906121469190614dce565b604080516000808252602082015265ffffffffffff92909216917fc05b4c85e1a9e164c2764407bce9e5955a2e6435dea37ef8c4e62ec458ebf21a910160405180910390a2600101611fc4565b5060005b85811015612392576121b4878783818110611fe157611fe16151a8565b915060405180606001604052808686848181106121d3576121d36151a8565b90506020020160208101906121e89190615735565b60ff1681526020014264ffffffffff1681526020018375ffffffffffffffffffffffffffffffffffffffffffff1681525060008089898581811061222e5761222e6151a8565b90506020020160208101906122439190614dce565b65ffffffffffff16815260208082019290925260409081016000208351815493850151949092015175ffffffffffffffffffffffffffffffffffffffffffff166601000000000000027fffffffff00000000000000000000000000000000000000000000ffffffffffff64ffffffffff909516610100027fffffffffffffffffffffffffffffffffffffffffffffffffffff00000000000090941660ff909316929092179290921792909216919091179055868682818110612307576123076151a8565b905060200201602081019061231c9190614dce565b65ffffffffffff167fc05b4c85e1a9e164c2764407bce9e5955a2e6435dea37ef8c4e62ec458ebf21a868684818110612357576123576151a8565b905060200201602081019061236c9190615735565b6040805160ff909216825261ffff871660208301520160405180910390a2600101612197565b50506002805461ffff90921665010000000000027fffffffffffffffffffffffffffffffffffffffffffffffffff0000ffffffffff909216919091179055505050505050565b60603373ffffffffffffffffffffffffffffffffffffffff7f0000000000000000000000000000000000000000000000000000000000000000161461241c57600080fd5b8267ffffffffffffffff81111561243557612435614b3b565b60405190808252806020026020018201604052801561245e578160200160208202803683370190505b5090506000606060005b8581101561278457868682818110612482576124826151a8565b90506020020160208101906124979190614919565b604080513060248083019190915282518083039091018152604490910182526020810180517bffffffffffffffffffffffffffffffffffffffffffffffffffffffff167f70a0823100000000000000000000000000000000000000000000000000000000179052905173ffffffffffffffffffffffffffffffffffffffff92909216916125249190615758565b6000604051808303816000865af19150503d8060008114612561576040519150601f19603f3d011682016040523d82523d6000602084013e612566565b606091505b50909350915082801561257a575081516020145b1561277c5781806020019051810190612593919061511e565b8482815181106125a5576125a56151a8565b60200260200101818152505060008482815181106125c5576125c56151a8565b6020026020010151111561277c578686828181106125e5576125e56151a8565b90506020020160208101906125fa9190614919565b73ffffffffffffffffffffffffffffffffffffffff1663a9059cbb60e01b8686848151811061262b5761262b6151a8565b602090810291909101015160405173ffffffffffffffffffffffffffffffffffffffff90921660248301526044820152606401604080517fffffffffffffffffffffffffffffffffffffffffffffffffffffffffffffffe08184030181529181526020820180517bffffffffffffffffffffffffffffffffffffffffffffffffffffffff167fffffffff000000000000000000000000000000000000000000000000000000009094169390931790925290516126e79190615758565b6000604051808303816000865af19150503d8060008114612724576040519150601f19603f3d011682016040523d82523d6000602084013e612729565b606091505b5090935091508280156127545750815115806127545750818060200190518101906127549190615774565b92508261277c57600084828151811061276f5761276f6151a8565b6020026020010181815250505b600101612468565b5050509392505050565b604080516060810182526000808252602082018190529181019190915260058265ffffffffffff16815481106127c6576127c66151a8565b60009182526020808320604080516060810182526002909402909101805473ffffffffffffffffffffffffffffffffffffffff9081168552600190910154908116928401929092527401000000000000000000000000000000000000000090910490920b9181019190915292915050565b3073ffffffffffffffffffffffffffffffffffffffff87160361285c5761285c615179565b3373ffffffffffffffffffffffffffffffffffffffff8716148015906128b3575073ffffffffffffffffffffffffffffffffffffffff8616600090815260066020908152604080832033845290915290205460ff16155b156128ea576040517fea8e4eb500000000000000000000000000000000000000000000000000000000815260040160405180910390fd5b6128f686868686612cec565b604080518581526020810185905273ffffffffffffffffffffffffffffffffffffffff808816929089169133917fc3d58168c5ae7397731d063d5bbf3d657854427343f4c083240f7aacaa2d0f62910160405180910390a473ffffffffffffffffffffffffffffffffffffffff85163b15612a575773ffffffffffffffffffffffffffffffffffffffff85163014801590612a5257506040517ff23a6e61000000000000000000000000000000000000000000000000000000008082529073ffffffffffffffffffffffffffffffffffffffff87169063f23a6e61906129ea9033908b908a908a908a908a90600401615791565b6020604051808303816000875af1158015612a09573d6000803e3d6000fd5b505050506040513d601f19601f82011682018060405250810190612a2d9190615320565b7fffffffff000000000000000000000000000000000000000000000000000000001614155b612a70565b73ffffffffffffffffffffffffffffffffffffffff8516155b15612aa7576040517f3da6393100000000000000000000000000000000000000000000000000000000815260040160405180910390fd5b505050505050565b604080516060810182526000808252602082018190528183015290517f94215a4c00000000000000000000000000000000000000000000000000000000815273__$0d913f5ea2cc8398585c34a0416dbc1ef1$__906394215a4c90612b3d906007907f00000000000000000000000000000000000000000000000000000000000000009087906004016157f5565b606060405180830381865af4158015612b5a573d6000803e3d6000fd5b505050506040513d601f19601f820116820180604052508101906107dc9190615825565b6040805173ffffffffffffffffffffffffffffffffffffffff8481166024830152604480830185905283518084039091018152606490920183526020820180517bffffffffffffffffffffffffffffffffffffffffffffffffffffffff167fa9059cbb000000000000000000000000000000000000000000000000000000001790529151600092839290871691612c159190615758565b6000604051808303816000865af19150503d8060008114612c52576040519150601f19603f3d011682016040523d82523d6000602084013e612c57565b606091505b5091509150818015612c81575080511580612c81575080806020019051810190612c819190615774565b611683576040517f08c379a000000000000000000000000000000000000000000000000000000000815260206004820152600260248201527f535400000000000000000000000000000000000000000000000000000000000060448201526064015b60405180910390fd5b6040805160808101825273ffffffffffffffffffffffffffffffffffffffff808716808352600090815260036020908152848220878352815284822054908401529086169282019290925260608101612d45868661074e565b90526040805160808101825260025461ffff80821683526201000082048116602080850191909152640100000000830460ff90811615158587015265010000000000909304909116606080850191909152600089815280835285812086519283018752549384168252610100840464ffffffffff1692820192909252660100000000000090920475ffffffffffffffffffffffffffffffffffffffffffff1693820193909352929350612dfe92869190611e0b83613c69565b508181602001818151612e119190615166565b90525073ffffffffffffffffffffffffffffffffffffffff858116908516146116835760208082015173ffffffffffffffffffffffffffffffffffffffff8716600090815260038352604080822087835290935291909120556060810151611683908590859085016140b3565b65ffffffffffff831660009081526004602090815260408083208151808301909252546fffffffffffffffffffffffffffffffff8082168084527001000000000000000000000000000000009092041692820192909252919015612f2e57612f2982600001516fffffffffffffffffffffffffffffffff168471ffffffffffffffffffffffffffffffffffff16866020015171ffffffffffffffffffffffffffffffffffff16614145565b612f3e565b612f3e8685602001518501614211565b825190915061ffff6f140eb6ae00000000000000000000000004036fffffffffffffffffffffffffffffffff16811115612fa4576040517f6deac20700000000000000000000000000000000000000000000000000000000815260040160405180910390fd5b602082810180516fffffffffffffffffffffffffffffffff908401811682528451840181168552868301805171ffffffffffffffffffffffffffffffffffff90880116905265ffffffffffff8816600081815260048552604080822088519551851670010000000000000000000000000000000002959094169490941790925582519081529283018490523092909133917fc3d58168c5ae7397731d063d5bbf3d657854427343f4c083240f7aacaa2d0f62910160405180910390a4505050505050565b60408051608081018252600080825260208201819052918101829052606081019190915265ffffffffffff861660008181526004602090815260408083208151808301835290546fffffffffffffffffffffffffffffffff80821683527001000000000000000000000000000000009091048116828501908152338087526003865284872088885286528487205485516080810187529182529581018690523094810194909452606084018690525182519596929561313393889390928e928e929190031686613cda565b5061314b8b8b858c602001518c600001518c8c614421565b83519095506fffffffffffffffffffffffffffffffff16156131bd576131b883600001516fffffffffffffffffffffffffffffffff16866000015171ffffffffffffffffffffffffffffffffffff16896020015171ffffffffffffffffffffffffffffffffffff16614145565b6131d1565b6131d18b8860200151876000015101614211565b835190945061ffff6f140eb6ae00000000000000000000000004036fffffffffffffffffffffffffffffffff16841115613237576040517f6deac20700000000000000000000000000000000000000000000000000000000815260040160405180910390fd5b33600081815260036020908152604080832065ffffffffffff8f16808552908352818420878a01905587516fffffffffffffffffffffffffffffffff908a01811689528a518d8501805171ffffffffffffffffffffffffffffffffffff92019190911690528185526004845282852089518a8601518316700100000000000000000000000000000000029216919091179055815190815291820188905283917fc3d58168c5ae7397731d063d5bbf3d657854427343f4c083240f7aacaa2d0f62910160405180910390a4505050965096945050505050565b602082015182510171ffffffffffffffffffffffffffffffffffff168084526002111561333b57600080fd5b815171ffffffffffffffffffffffffffffffffffff1660000361336b57677fffffffffffffff602084015261366d565b816020015171ffffffffffffffffffffffffffffffffffff166000036133b6577fffffffffffffffffffffffffffffffffffffffffffffffff8000000000000000602084015261366d565b6000806133c9606084016040850161533d565b60000b12156133ea576133e2606083016040840161533d565b6000036133fa565b6133fa606083016040840161533d565b905060008061340f606085016040860161533d565b60000b1315613452576020840151845171ffffffffffffffffffffffffffffffffffff918216911660ff84161b101561344a57506001613488565b506000613488565b6020840151845171ffffffffffffffffffffffffffffffffffff91821660ff85161b9116101561348457506001613488565b5060005b801561357c576000613507816134a4606087016040880161533d565b60000b12156134cd57865171ffffffffffffffffffffffffffffffffffff1660ff85161b6134e4565b865171ffffffffffffffffffffffffffffffffffff165b865171ffffffffffffffffffffffffffffffffffff1660ff861681901b01614600565b60070b905060008061351f606087016040880161533d565b60000b1215613534578360ff1682901b61353c565b8360ff1682901d5b604087015160070b019050677fffffffffffffff81131561356a57677fffffffffffffff6020880152613575565b600781900b60208801525b505061366a565b60006135f881613592606087016040880161533d565b60000b12156135b657865171ffffffffffffffffffffffffffffffffffff166135d2565b865171ffffffffffffffffffffffffffffffffffff1660ff85161b5b602087015171ffffffffffffffffffffffffffffffffffff1660ff861681901b01614600565b6040860151600791820b9250900b8190037fffffffffffffffffffffffffffffffffffffffffffffffff800000000000000081121561365c577fffffffffffffffffffffffffffffffffffffffffffffffff80000000000000006020880152613667565b600781900b60208801525b50505b50505b826007600061367f6020850185614919565b73ffffffffffffffffffffffffffffffffffffffff1673ffffffffffffffffffffffffffffffffffffffff16815260200190815260200160002060008360200160208101906136ce9190614919565b73ffffffffffffffffffffffffffffffffffffffff1673ffffffffffffffffffffffffffffffffffffffff168152602001908152602001600020600083604001602081019061371d919061533d565b600090810b8252602080830193909352604091820190208351815493850151949092015165ffffffffffff167a0100000000000000000000000000000000000000000000000000000279ffffffffffffffffffffffffffffffffffffffffffffffffffff67ffffffffffffffff9095167201000000000000000000000000000000000000027fffffffffffff000000000000000000000000000000000000000000000000000090941671ffffffffffffffffffffffffffffffffffff909316929092179290921792909216919091179055505050565b6040805173ffffffffffffffffffffffffffffffffffffffff85811660248301528481166044830152606480830185905283518084039091018152608490920183526020820180517bffffffffffffffffffffffffffffffffffffffffffffffffffffffff167f23b872dd0000000000000000000000000000000000000000000000000000000017905291516000928392908816916138929190615758565b6000604051808303816000865af19150503d80600081146138cf576040519150601f19603f3d011682016040523d82523d6000602084013e6138d4565b606091505b50915091508180156138fe5750805115806138fe5750808060200190518101906138fe9190615774565b612aa7576040517f08c379a000000000000000000000000000000000000000000000000000000000815260206004820152600360248201527f53544600000000000000000000000000000000000000000000000000000000006044820152606401612ce3565b604080516080808201835260008083526020808401829052838501829052606080850183905265ffffffffffff8b16808452600483528684208751808901895290546fffffffffffffffffffffffffffffffff8082168352700100000000000000000000000000000000909104811682860190815233808852600387528a882085895287528a8820548b51998a018c52908952958801869052309988019990995292860185905296518751969796939594613a279490938d928d92031686613cda565b506000613a63876020015171ffffffffffffffffffffffffffffffffffff168786600001516fffffffffffffffffffffffffffffffff16614145565b905082861115613a7257600080fd5b33600090815260036020908152604080832065ffffffffffff8e1684528252909120878503905584518790036fffffffffffffffffffffffffffffffff168552878101805183900371ffffffffffffffffffffffffffffffffffff1690528901518851613ae6918d918d9188918c87614421565b65ffffffffffff8b16600081815260046020908152604080832089518a8401516fffffffffffffffffffffffffffffffff90811670010000000000000000000000000000000002911617905580519384529083018a905292975091339182917fc3d58168c5ae7397731d063d5bbf3d657854427343f4c083240f7aacaa2d0f62910160405180910390a4505050509695505050505050565b60003073ffffffffffffffffffffffffffffffffffffffff851603613ba557506000611e11565b600085815260016020908152604080832073ffffffffffffffffffffffffffffffffffffffff88168452825280832081518083019092525475ffffffffffffffffffffffffffffffffffffffffffff81168252760100000000000000000000000000000000000000000000900469ffffffffffffffffffff169181019190915290849003613c3857602001519050611e11565b8051602090910151920375ffffffffffffffffffffffffffffffffffffffffffff169290920260601c019392505050565b60008181526004602090815260408083208151808301909252546fffffffffffffffffffffffffffffffff808216808452700100000000000000000000000000000000909204169282018390529091613cc191615870565b6fffffffffffffffffffffffffffffffff169392505050565b600080613ce8868686613f27565b9050613cfe878460000151856020015184613b7e565b915060405180604001604052808275ffffffffffffffffffffffffffffffffffffffffffff16815260200189613d345783613d37565b60005b69ffffffffffffffffffff9081169091526000898152600160209081526040808320885173ffffffffffffffffffffffffffffffffffffffff908116855290835292819020855195909201519093167601000000000000000000000000000000000000000000000275ffffffffffffffffffffffffffffffffffffffffffff90941693909317909255840151163014613e8e5760405180604001604052808275ffffffffffffffffffffffffffffffffffffffffffff168152602001613e07898660400151876060015186613b7e565b69ffffffffffffffffffff90811690915260008981526001602090815260408083208882015173ffffffffffffffffffffffffffffffffffffffff1684528252909120835193909101519091167601000000000000000000000000000000000000000000000275ffffffffffffffffffffffffffffffffffffffffffff9092169190911790555b60009687526020879052604090962080547fffffffff000000000000000000000000000000000000000000000000000000ff16660100000000000075ffffffffffffffffffffffffffffffffffffffffffff909816979097027fffffffffffffffffffffffffffffffffffffffffffffffffffff0000000000ff16969096176101004264ffffffffff1602179095555092949350505050565b6040820151825160ff1615801590613f5157504264ffffffffff16836020015164ffffffffff1614155b8015613f5c57508115155b156109ab57836060015161ffff16836000015160ff161115613f8057613f80615179565b60208301517f00000000000000000000000000000000000000000000000000000000000000006305a39a800164ffffffffff8082169083161015614029576060860151855160009161ffff169060ff166527d6140eb6ae0281613fe557613fe5615841565b0490508460608464ffffffffff168464ffffffffff1642116140075742614010565b8464ffffffffff165b038302901b8161402257614022615841565b0484019350505b8064ffffffffff164264ffffffffff1611156140aa576060860151855160009161ffff169060ff16653a1cc4899936028161406657614066615841565b0490508460608364ffffffffff168564ffffffffff16116140875783614089565b845b64ffffffffff1642038302901b816140a3576140a3615841565b0484019350505b50509392505050565b3073ffffffffffffffffffffffffffffffffffffffff84160361411157600082815260046020526040902080546fffffffffffffffffffffffffffffffff808416700100000000000000000000000000000000029116179055505050565b73ffffffffffffffffffffffffffffffffffffffff9290921660009081526003602090815260408083209383529290522055565b600080807fffffffffffffffffffffffffffffffffffffffffffffffffffffffffffffffff8587098587029250828110838203039150508060000361419c576000841161419157600080fd5b5082900490506109ab565b8084116141a857600080fd5b60008486880960026001871981018816978890046003810283188082028403028082028403028082028403028082028403028082028403029081029092039091026000889003889004909101858311909403939093029303949094049190911702949350505050565b6000808373ffffffffffffffffffffffffffffffffffffffff166318160ddd6040518163ffffffff1660e01b8152600401602060405180830381865afa15801561425f573d6000803e3d6000fd5b505050506040513d601f19601f82011682018060405250810190614283919061511e565b905061ffff606067016345785d8a00006301e1338060016142a6600c600a6159bb565b6142b49063781a75c06159ca565b6142be9190615166565b6142c891906159e1565b6142d3906001615a13565b6142ef9068ffffffffffffffffff1666f38a31408ae3386159ca565b6142f99190615a34565b68ffffffffffffffffff166fffffffffffffffffffffffffffffffff16901b6143229190615a48565b6fffffffffffffffffffffffffffffffff168111614354578271ffffffffffffffffffffffffffffffffffff16611e11565b611e1161ffff606067016345785d8a00006301e133806001614378600c600a6159bb565b6143869063781a75c06159ca565b6143909190615166565b61439a91906159e1565b6143a5906001615a13565b6143c19068ffffffffffffffffff1666f38a31408ae3386159ca565b6143cb9190615a34565b68ffffffffffffffffff166fffffffffffffffffffffffffffffffff16901b6143f49190615a48565b6fffffffffffffffffffffffffffffffff168471ffffffffffffffffffffffffffffffffffff1683614145565b604080516080810182526000808252602082018190529181018290526060810191909152614450828686614744565b604081015160208501805190910171ffffffffffffffffffffffffffffffffffff16905286519091506000906fffffffffffffffffffffffffffffffff16156144e9576144e487600001516fffffffffffffffffffffffffffffffff16836060015171ffffffffffffffffffffffffffffffffffff16866020015171ffffffffffffffffffffffffffffffffffff16614145565b6144fd565b6144fd898560200151846060015101614211565b875190915061ffff6f140eb6ae00000000000000000000000004036fffffffffffffffffffffffffffffffff16811115614563576040517f6deac20700000000000000000000000000000000000000000000000000000000815260040160405180910390fd5b6020878101805183016fffffffffffffffffffffffffffffffff908116909152885183011688526060830151858201805190910171ffffffffffffffffffffffffffffffffffff1690526040805165ffffffffffff8b168152918201839052309160009133917fc3d58168c5ae7397731d063d5bbf3d657854427343f4c083240f7aacaa2d0f62910160405180910390a450979650505050505050565b60008183101561461257614612615179565b8160000361462257614622615179565b600082848161463357614633615841565b0490506fffffffffffffffffffffffffffffffff811160071b81811c67ffffffffffffffff811160061b90811c63ffffffff811160051b90811c61ffff811160041b90811c60ff8111600390811b91821c600f811160021b90811c918211600190811b92831c979088119617909417909217179091171717608081106146c157607f810383901c91506146d5565b6146d28682607f0360020a87614145565b91505b603781901b60015b6037811161471257838402607f1c93508360801c80826037031b8317925084811c9450508061470b90615a88565b90506146dd565b5060c06147378277d89e8c075c4155dd3213326cbbcf86fd1f63f5c205dd2ad26159ca565b901c979650505050505050565b60408051608081018252600080825260208201819052918101829052606081019190915261271061ffff841681018071ffffffffffffffffffffffffffffffffffff871683028161479757614797615841565b0471ffffffffffffffffffffffffffffffffffff9081168085526109f69703811660ff95909516850296909604861660208401819052600a850487166060850181905294039390930390941660408201529392505050565b73ffffffffffffffffffffffffffffffffffffffff8116811461481157600080fd5b50565b6000806040838503121561482757600080fd5b8235614832816147ef565b946020939093013593505050565b7fffffffff000000000000000000000000000000000000000000000000000000008116811461481157600080fd5b60006020828403121561488057600080fd5b81356109ab81614840565b60006020828403121561489d57600080fd5b5035919050565b60005b838110156148bf5781810151838201526020016148a7565b50506000910152565b60208152600082518060208401526148e78160408501602087016148a4565b601f017fffffffffffffffffffffffffffffffffffffffffffffffffffffffffffffffe0169190910160400192915050565b60006020828403121561492b57600080fd5b81356109ab816147ef565b60008083601f84011261494857600080fd5b50813567ffffffffffffffff81111561496057600080fd5b6020830191508360208260051b850101111561497b57600080fd5b9250929050565b60008083601f84011261499457600080fd5b50813567ffffffffffffffff8111156149ac57600080fd5b60208301915083602082850101111561497b57600080fd5b60008060008060008060008060a0898b0312156149e057600080fd5b88356149eb816147ef565b975060208901356149fb816147ef565b9650604089013567ffffffffffffffff811115614a1757600080fd5b614a238b828c01614936565b909750955050606089013567ffffffffffffffff811115614a4357600080fd5b614a4f8b828c01614936565b909550935050608089013567ffffffffffffffff811115614a6f57600080fd5b614a7b8b828c01614982565b999c989b5096995094979396929594505050565b600060608284031215614aa157600080fd5b50919050565b600060608284031215614ab957600080fd5b6107d98383614a8f565b801515811461481157600080fd5b71ffffffffffffffffffffffffffffffffffff8116811461481157600080fd5b600080600060a08486031215614b0657600080fd5b8335614b1181614ac3565b9250614b208560208601614a8f565b91506080840135614b3081614ad1565b809150509250925092565b7f4e487b7100000000000000000000000000000000000000000000000000000000600052604160045260246000fd5b6040516060810167ffffffffffffffff81118282101715614b8d57614b8d614b3b565b60405290565b604051601f82017fffffffffffffffffffffffffffffffffffffffffffffffffffffffffffffffe016810167ffffffffffffffff81118282101715614bda57614bda614b3b565b604052919050565b8035600081900b8114610ad357600080fd5b60006060828403128015614c0757600080fd5b50614c10614b6a565b8235614c1b816147ef565b81526020830135614c2b816147ef565b6020820152614c3c60408401614be2565b60408201529392505050565b600080600060a08486031215614c5d57600080fd5b8335614c6881614ac3565b9250614c778560208601614a8f565b929592945050506080919091013590565b60008060408385031215614c9b57600080fd5b823591506020830135614cad816147ef565b809150509250929050565b60008060008060408587031215614cce57600080fd5b843567ffffffffffffffff811115614ce557600080fd5b614cf187828801614936565b909550935050602085013567ffffffffffffffff811115614d1157600080fd5b614d1d87828801614936565b95989497509550505050565b602080825282518282018190526000918401906040840190835b81811015614d61578351835260209384019390920191600101614d43565b509095945050505050565b803561ffff81168114610ad357600080fd5b600080600060608486031215614d9357600080fd5b614d9c84614d6c565b9250614daa60208501614d6c565b91506040840135614b3081614ac3565b65ffffffffffff8116811461481157600080fd5b600060208284031215614de057600080fd5b81356109ab81614dba565b60008060408385031215614dfe57600080fd5b8235614e09816147ef565b91506020830135614cad81614ac3565b60008060008060008060006080888a031215614e3457600080fd5b873567ffffffffffffffff811115614e4b57600080fd5b614e578a828b01614936565b909850965050602088013567ffffffffffffffff811115614e7757600080fd5b614e838a828b01614936565b909650945050604088013567ffffffffffffffff811115614ea357600080fd5b614eaf8a828b01614936565b9094509250614ec2905060608901614d6c565b905092959891949750929550565b600080600060408486031215614ee557600080fd5b833567ffffffffffffffff811115614efc57600080fd5b614f0886828701614936565b9094509250506020840135614b30816147ef565b606081016107dc828473ffffffffffffffffffffffffffffffffffffffff815116825273ffffffffffffffffffffffffffffffffffffffff6020820151166020830152604081015160000b60408301525050565b60008060408385031215614f8357600080fd5b8235614f8e816147ef565b91506020830135614cad816147ef565b60008060008060008060a08789031215614fb757600080fd5b8635614fc2816147ef565b95506020870135614fd2816147ef565b94506040870135935060608701359250608087013567ffffffffffffffff811115614ffc57600080fd5b61500889828a01614982565b979a9699509497509295939492505050565b606081016107dc828471ffffffffffffffffffffffffffffffffffff815116825271ffffffffffffffffffffffffffffffffffff6020820151166020830152604081015160070b60408301525050565b60006020828403121561507c57600080fd5b815167ffffffffffffffff81111561509357600080fd5b8201601f810184136150a457600080fd5b805167ffffffffffffffff8111156150be576150be614b3b565b6150ef60207fffffffffffffffffffffffffffffffffffffffffffffffffffffffffffffffe0601f84011601614b93565b81815285602083850101111561510457600080fd5b6151158260208301602086016148a4565b95945050505050565b60006020828403121561513057600080fd5b5051919050565b7f4e487b7100000000000000000000000000000000000000000000000000000000600052601160045260246000fd5b818103818111156107dc576107dc615137565b7f4e487b7100000000000000000000000000000000000000000000000000000000600052600160045260246000fd5b7f4e487b7100000000000000000000000000000000000000000000000000000000600052603260045260246000fd5b81835260007f07ffffffffffffffffffffffffffffffffffffffffffffffffffffffffffffff83111561520957600080fd5b8260051b80836020870137939093016020019392505050565b6040815260006152366040830186886151d7565b82810360208401526152498185876151d7565b979650505050505050565b8183528181602085013750600060208284010152600060207fffffffffffffffffffffffffffffffffffffffffffffffffffffffffffffffe0601f840116840101905092915050565b73ffffffffffffffffffffffffffffffffffffffff8916815273ffffffffffffffffffffffffffffffffffffffff8816602082015260a0604082015260006152e960a08301888a6151d7565b82810360608401526152fc8187896151d7565b90508281036080840152615311818587615254565b9b9a5050505050505050505050565b60006020828403121561533257600080fd5b81516109ab81614840565b60006020828403121561534f57600080fd5b6107d982614be2565b8035615363816147ef565b73ffffffffffffffffffffffffffffffffffffffff1682526020810135615389816147ef565b73ffffffffffffffffffffffffffffffffffffffff1660208301526153b060408201614be2565b60000b60408301525050565b84151581526020810184905273ffffffffffffffffffffffffffffffffffffffff8316604082015260c081016151156060830184615358565b8051600781900b8114610ad357600080fd5b60006060828403121561541957600080fd5b615421614b6a565b9050815161542e81614ad1565b8152602082015161543e81614ad1565b602082015261544f604083016153f5565b604082015292915050565b600080600083850360e081121561547057600080fd5b606081121561547e57600080fd5b50615487614b6a565b845161549281614ad1565b81526154a0602086016153f5565b602082015260408501516154b381614dba565b604082015292506154c78560608601615407565b915060c0840151614b30816147ef565b73ffffffffffffffffffffffffffffffffffffffff8616815261ffff8516602082015260ff8416604082015260e08101615556606083018571ffffffffffffffffffffffffffffffffffff815116825271ffffffffffffffffffffffffffffffffffff6020820151166020830152604081015160070b60408301525050565b71ffffffffffffffffffffffffffffffffffff831660c08301529695505050505050565b60006080828403121561558c57600080fd5b6040516080810167ffffffffffffffff811182821017156155af576155af614b3b565b806040525080915082516155c281614ad1565b815260208301516155d281614ad1565b602082015260408301516155e581614ad1565b604082015260608301516155f881614ad1565b6060919091015292915050565b6000806000610100848603121561561b57600080fd5b6156258585615407565b9250615634856060860161557a565b60e0949094015192959394509192915050565b73ffffffffffffffffffffffffffffffffffffffff8616815261ffff8516602082015260ff8416604082015260e081016156c6606083018571ffffffffffffffffffffffffffffffffffff815116825271ffffffffffffffffffffffffffffffffffff6020820151166020830152604081015160070b60408301525050565b8260c08301529695505050505050565b60008060e083850312156156e957600080fd5b6156f38484615407565b9150615702846060850161557a565b90509250929050565b71ffffffffffffffffffffffffffffffffffff81811683821601908111156107dc576107dc615137565b60006020828403121561574757600080fd5b813560ff811681146109ab57600080fd5b6000825161576a8184602087016148a4565b9190910192915050565b60006020828403121561578657600080fd5b81516109ab81614ac3565b73ffffffffffffffffffffffffffffffffffffffff8716815273ffffffffffffffffffffffffffffffffffffffff8616602082015284604082015283606082015260a0608082015260006157e960a083018486615254565b98975050505050505050565b83815273ffffffffffffffffffffffffffffffffffffffff8316602082015260a08101611e116040830184615358565b60006060828403121561583757600080fd5b6107d98383615407565b7f4e487b7100000000000000000000000000000000000000000000000000000000600052601260045260246000fd5b6fffffffffffffffffffffffffffffffff82811682821603908111156107dc576107dc615137565b6001815b60018411156158d3578085048111156158b7576158b7615137565b60018416156158c557908102905b60019390931c92800261589c565b935093915050565b6000826158ea575060016107dc565b816158f7575060006107dc565b816001811461590d576002811461591757615933565b60019150506107dc565b60ff84111561592857615928615137565b50506001821b6107dc565b5060208310610133831016604e8410600b8410161715615956575081810a6107dc565b6159817fffffffffffffffffffffffffffffffffffffffffffffffffffffffffffffffff8484615898565b807fffffffffffffffffffffffffffffffffffffffffffffffffffffffffffffffff048211156159b3576159b3615137565b029392505050565b60006107d960ff8416836158db565b80820281158282048414176107dc576107dc615137565b600068ffffffffffffffffff8316806159fc576159fc615841565b8068ffffffffffffffffff84160491505092915050565b68ffffffffffffffffff81811683821601908111156107dc576107dc615137565b600082615a4357615a43615841565b500490565b60006fffffffffffffffffffffffffffffffff831680615a6a57615a6a615841565b806fffffffffffffffffffffffffffffffff84160491505092915050565b60007fffffffffffffffffffffffffffffffffffffffffffffffffffffffffffffffff8203615ab957615ab9615137565b506001019056fea2646970667358221220fc5a019b4cd63c85a5d5c1dfcaa1d2e49155085dc3ebce691e64f23d57fa69dd64736f6c634300081a0033","linkReferences":{"src/libraries/VaultExternal.sol":{"VaultExternal":[{"start":2915,"length":20},{"start":4821,"length":20},{"start":6258,"length":20},{"start":6454,"length":20},{"start":11560,"length":20}]}}},"methodIdentifiers":{"TIMESTAMP_ISSUANCE_START()":"410cd41a","balanceOf(address,uint256)":"00fdd58e","balanceOfBatch(address[],uint256[])":"4e1273f4","burn(bool,(address,address,int8),uint256)":"3fc62188","claimSIR(uint256,address)":"777b1d43","cumulativeSIRPerTEA(uint256)":"7a4996e8","getReserves((address,address,int8))":"fbd98edf","initialize((address,address,int8))":"3aa88670","isApprovedForAll(address,address)":"e985e9c5","mint(bool,(address,address,int8),uint144)":"32eaa625","numberOfVaults()":"7a32af78","paramsById(uint48)":"d2f3fd09","safeBatchTransferFrom(address,address,uint256[],uint256[],bytes)":"2eb2c2d6","safeTransferFrom(address,address,uint256,uint256,bytes)":"f242432a","setApprovalForAll(address,bool)":"a22cb465","supportsInterface(bytes4)":"01ffc9a7","systemParams()":"458e8e6b","totalReserves(address)":"6d0800bc","totalSupply(uint256)":"bd85b039","unclaimedRewards(uint256,address)":"46f90748","updateSystemState(uint16,uint16,bool)":"5ab2cef4","updateVaults(uint48[],uint48[],uint8[],uint16)":"bb147c54","uri(uint256)":"0e89341c","vaultStates((address,address,int8))":"2edf3104","vaultTax(uint48)":"6cfcac04","withdrawFees(address)":"164e68de","withdrawToSaveSystem(address[],address)":"c7c3d2dc"},"id":67}