{"abi":[{"type":"constructor","inputs":[{"name":"systemControl","type":"address","internalType":"address"},{"name":"sir","type":"address","internalType":"address"},{"name":"oracle","type":"address","internalType":"address"},{"name":"apeImplementation","type":"address","internalType":"address"}],"stateMutability":"nonpayable"},{"type":"function","name":"TIMESTAMP_ISSUANCE_START","inputs":[],"outputs":[{"name":"","type":"uint40","internalType":"uint40"}],"stateMutability":"view"},{"type":"function","name":"balanceOf","inputs":[{"name":"account","type":"address","internalType":"address"},{"name":"vaultId","type":"uint256","internalType":"uint256"}],"outputs":[{"name":"","type":"uint256","internalType":"uint256"}],"stateMutability":"view"},{"type":"function","name":"balanceOfBatch","inputs":[{"name":"owners","type":"address[]","internalType":"address[]"},{"name":"vaultIds","type":"uint256[]","internalType":"uint256[]"}],"outputs":[{"name":"balances_","type":"uint256[]","internalType":"uint256[]"}],"stateMutability":"view"},{"type":"function","name":"burn","inputs":[{"name":"isAPE","type":"bool","internalType":"bool"},{"name":"vaultParams","type":"tuple","internalType":"struct SirStructs.VaultParameters","components":[{"name":"debtToken","type":"address","internalType":"address"},{"name":"collateralToken","type":"address","internalType":"address"},{"name":"leverageTier","type":"int8","internalType":"int8"}]},{"name":"amount","type":"uint256","internalType":"uint256"}],"outputs":[{"name":"","type":"uint144","internalType":"uint144"}],"stateMutability":"nonpayable"},{"type":"function","name":"claimSIR","inputs":[{"name":"vaultId","type":"uint256","internalType":"uint256"},{"name":"lper","type":"address","internalType":"address"}],"outputs":[{"name":"","type":"uint80","internalType":"uint80"}],"stateMutability":"nonpayable"},{"type":"function","name":"collateralStates","inputs":[{"name":"token","type":"address","internalType":"address"}],"outputs":[{"name":"","type":"tuple","internalType":"struct SirStructs.CollateralState","components":[{"name":"totalFeesToStakers","type":"uint112","internalType":"uint112"},{"name":"total","type":"uint144","internalType":"uint144"}]}],"stateMutability":"view"},{"type":"function","name":"cumulativeSIRPerTEA","inputs":[{"name":"vaultId","type":"uint256","internalType":"uint256"}],"outputs":[{"name":"cumulativeSIRPerTEAx96","type":"uint176","internalType":"uint176"}],"stateMutability":"view"},{"type":"function","name":"getReserves","inputs":[{"name":"vaultParams","type":"tuple","internalType":"struct SirStructs.VaultParameters","components":[{"name":"debtToken","type":"address","internalType":"address"},{"name":"collateralToken","type":"address","internalType":"address"},{"name":"leverageTier","type":"int8","internalType":"int8"}]}],"outputs":[{"name":"","type":"tuple","internalType":"struct SirStructs.Reserves","components":[{"name":"reserveApes","type":"uint144","internalType":"uint144"},{"name":"reserveLPers","type":"uint144","internalType":"uint144"},{"name":"tickPriceX42","type":"int64","internalType":"int64"}]}],"stateMutability":"view"},{"type":"function","name":"initialize","inputs":[{"name":"vaultParams","type":"tuple","internalType":"struct SirStructs.VaultParameters","components":[{"name":"debtToken","type":"address","internalType":"address"},{"name":"collateralToken","type":"address","internalType":"address"},{"name":"leverageTier","type":"int8","internalType":"int8"}]}],"outputs":[],"stateMutability":"nonpayable"},{"type":"function","name":"isApprovedForAll","inputs":[{"name":"","type":"address","internalType":"address"},{"name":"","type":"address","internalType":"address"}],"outputs":[{"name":"","type":"bool","internalType":"bool"}],"stateMutability":"view"},{"type":"function","name":"mint","inputs":[{"name":"isAPE","type":"bool","internalType":"bool"},{"name":"vaultParams","type":"tuple","internalType":"struct SirStructs.VaultParameters","components":[{"name":"debtToken","type":"address","internalType":"address"},{"name":"collateralToken","type":"address","internalType":"address"},{"name":"leverageTier","type":"int8","internalType":"int8"}]},{"name":"collateralToDeposit","type":"uint144","internalType":"uint144"}],"outputs":[{"name":"amount","type":"uint256","internalType":"uint256"}],"stateMutability":"nonpayable"},{"type":"function","name":"numberOfVaults","inputs":[],"outputs":[{"name":"","type":"uint48","internalType":"uint48"}],"stateMutability":"view"},{"type":"function","name":"paramsById","inputs":[{"name":"vaultId","type":"uint48","internalType":"uint48"}],"outputs":[{"name":"","type":"tuple","internalType":"struct SirStructs.VaultParameters","components":[{"name":"debtToken","type":"address","internalType":"address"},{"name":"collateralToken","type":"address","internalType":"address"},{"name":"leverageTier","type":"int8","internalType":"int8"}]}],"stateMutability":"view"},{"type":"function","name":"safeBatchTransferFrom","inputs":[{"name":"from","type":"address","internalType":"address"},{"name":"to","type":"address","internalType":"address"},{"name":"vaultIds","type":"uint256[]","internalType":"uint256[]"},{"name":"amounts","type":"uint256[]","internalType":"uint256[]"},{"name":"data","type":"bytes","internalType":"bytes"}],"outputs":[],"stateMutability":"nonpayable"},{"type":"function","name":"safeTransferFrom","inputs":[{"name":"from","type":"address","internalType":"address"},{"name":"to","type":"address","internalType":"address"},{"name":"vaultId","type":"uint256","internalType":"uint256"},{"name":"amount","type":"uint256","internalType":"uint256"},{"name":"data","type":"bytes","internalType":"bytes"}],"outputs":[],"stateMutability":"nonpayable"},{"type":"function","name":"setApprovalForAll","inputs":[{"name":"operator","type":"address","internalType":"address"},{"name":"approved","type":"bool","internalType":"bool"}],"outputs":[],"stateMutability":"nonpayable"},{"type":"function","name":"supportsInterface","inputs":[{"name":"interfaceId","type":"bytes4","internalType":"bytes4"}],"outputs":[{"name":"","type":"bool","internalType":"bool"}],"stateMutability":"pure"},{"type":"function","name":"systemParams","inputs":[],"outputs":[{"name":"","type":"tuple","internalType":"struct SirStructs.SystemParameters","components":[{"name":"baseFee","type":"uint16","internalType":"uint16"},{"name":"lpFee","type":"uint16","internalType":"uint16"},{"name":"mintingStopped","type":"bool","internalType":"bool"},{"name":"cumulativeTax","type":"uint16","internalType":"uint16"}]}],"stateMutability":"view"},{"type":"function","name":"totalSupply","inputs":[{"name":"vaultId","type":"uint256","internalType":"uint256"}],"outputs":[{"name":"","type":"uint256","internalType":"uint256"}],"stateMutability":"view"},{"type":"function","name":"unclaimedRewards","inputs":[{"name":"vaultId","type":"uint256","internalType":"uint256"},{"name":"lper","type":"address","internalType":"address"}],"outputs":[{"name":"","type":"uint80","internalType":"uint80"}],"stateMutability":"view"},{"type":"function","name":"updateSystemState","inputs":[{"name":"baseFee","type":"uint16","internalType":"uint16"},{"name":"lpFee","type":"uint16","internalType":"uint16"},{"name":"mintingStopped","type":"bool","internalType":"bool"}],"outputs":[],"stateMutability":"nonpayable"},{"type":"function","name":"updateVaults","inputs":[{"name":"oldVaults","type":"uint48[]","internalType":"uint48[]"},{"name":"newVaults","type":"uint48[]","internalType":"uint48[]"},{"name":"newTaxes","type":"uint8[]","internalType":"uint8[]"},{"name":"cumulativeTax","type":"uint16","internalType":"uint16"}],"outputs":[],"stateMutability":"nonpayable"},{"type":"function","name":"uri","inputs":[{"name":"vaultId","type":"uint256","internalType":"uint256"}],"outputs":[{"name":"","type":"string","internalType":"string"}],"stateMutability":"view"},{"type":"function","name":"vaultStates","inputs":[{"name":"vaultParams","type":"tuple","internalType":"struct SirStructs.VaultParameters","components":[{"name":"debtToken","type":"address","internalType":"address"},{"name":"collateralToken","type":"address","internalType":"address"},{"name":"leverageTier","type":"int8","internalType":"int8"}]}],"outputs":[{"name":"","type":"tuple","internalType":"struct SirStructs.VaultState","components":[{"name":"reserve","type":"uint144","internalType":"uint144"},{"name":"tickPriceSatX42","type":"int64","internalType":"int64"},{"name":"vaultId","type":"uint48","internalType":"uint48"}]}],"stateMutability":"view"},{"type":"function","name":"vaultTax","inputs":[{"name":"vaultId","type":"uint48","internalType":"uint48"}],"outputs":[{"name":"","type":"uint8","internalType":"uint8"}],"stateMutability":"view"},{"type":"function","name":"withdrawFees","inputs":[{"name":"token","type":"address","internalType":"address"}],"outputs":[{"name":"totalFeesToStakers","type":"uint112","internalType":"uint112"}],"stateMutability":"nonpayable"},{"type":"function","name":"withdrawToSaveSystem","inputs":[{"name":"tokens","type":"address[]","internalType":"address[]"},{"name":"to","type":"address","internalType":"address"}],"outputs":[{"name":"amounts","type":"uint256[]","internalType":"uint256[]"}],"stateMutability":"nonpayable"},{"type":"event","name":"ApprovalForAll","inputs":[{"name":"account","type":"address","indexed":true,"internalType":"address"},{"name":"operator","type":"address","indexed":true,"internalType":"address"},{"name":"approved","type":"bool","indexed":false,"internalType":"bool"}],"anonymous":false},{"type":"event","name":"Burn","inputs":[{"name":"vaultId","type":"uint48","indexed":true,"internalType":"uint48"},{"name":"isAPE","type":"bool","indexed":false,"internalType":"bool"},{"name":"collateralWithdrawn","type":"uint144","indexed":false,"internalType":"uint144"},{"name":"collateralFeeToStakers","type":"uint144","indexed":false,"internalType":"uint144"},{"name":"collateralFeeToLPers","type":"uint144","indexed":false,"internalType":"uint144"}],"anonymous":false},{"type":"event","name":"FeesToStakers","inputs":[{"name":"collateralToken","type":"address","indexed":true,"internalType":"address"},{"name":"totalFeesToStakers","type":"uint112","indexed":false,"internalType":"uint112"}],"anonymous":false},{"type":"event","name":"Mint","inputs":[{"name":"vaultId","type":"uint48","indexed":true,"internalType":"uint48"},{"name":"isAPE","type":"bool","indexed":false,"internalType":"bool"},{"name":"collateralIn","type":"uint144","indexed":false,"internalType":"uint144"},{"name":"collateralFeeToStakers","type":"uint144","indexed":false,"internalType":"uint144"},{"name":"collateralFeeToLPers","type":"uint144","indexed":false,"internalType":"uint144"}],"anonymous":false},{"type":"event","name":"TransferBatch","inputs":[{"name":"operator","type":"address","indexed":true,"internalType":"address"},{"name":"from","type":"address","indexed":true,"internalType":"address"},{"name":"to","type":"address","indexed":true,"internalType":"address"},{"name":"vaultIds","type":"uint256[]","indexed":false,"internalType":"uint256[]"},{"name":"amounts","type":"uint256[]","indexed":false,"internalType":"uint256[]"}],"anonymous":false},{"type":"event","name":"TransferSingle","inputs":[{"name":"operator","type":"address","indexed":true,"internalType":"address"},{"name":"from","type":"address","indexed":true,"internalType":"address"},{"name":"to","type":"address","indexed":true,"internalType":"address"},{"name":"id","type":"uint256","indexed":false,"internalType":"uint256"},{"name":"amount","type":"uint256","indexed":false,"internalType":"uint256"}],"anonymous":false},{"type":"event","name":"URI","inputs":[{"name":"value","type":"string","indexed":false,"internalType":"string"},{"name":"id","type":"uint256","indexed":true,"internalType":"uint256"}],"anonymous":false},{"type":"event","name":"VaultNewTax","inputs":[{"name":"vault","type":"uint48","indexed":true,"internalType":"uint48"},{"name":"tax","type":"uint8","indexed":false,"internalType":"uint8"},{"name":"cumulativeTax","type":"uint16","indexed":false,"internalType":"uint16"}],"anonymous":false},{"type":"error","name":"LengthMismatch","inputs":[]},{"type":"error","name":"NotAuthorized","inputs":[]},{"type":"error","name":"TEAMaxSupplyExceeded","inputs":[]},{"type":"error","name":"UnsafeRecipient","inputs":[]}],"bytecode":{"object":"0x61012060405234801561001157600080fd5b5060405161601038038061601083398101604081905261003091610168565b6001600160a01b03938416608090815264ffffffffff421660a05292841660c052604080519384018152610fa08452610929602080860191909152600085830181905260609586018190526002805466ffffffffffffff19166309290fa017815594871660e052928616610100528151948501825282855284018281529084018281526005805460018101825593529351919092027f036b6384b5eca791c62761152d0c79bb0604c104a5fb6f4eb0703f3154bb3db0810180549286166001600160a01b03199093169290921790915590517f036b6384b5eca791c62761152d0c79bb0604c104a5fb6f4eb0703f3154bb3db19091018054925160ff16600160a01b026001600160a81b031990931691909316171790556101bc565b80516001600160a01b038116811461016357600080fd5b919050565b6000806000806080858703121561017e57600080fd5b6101878561014c565b93506101956020860161014c565b92506101a36040860161014c565b91506101b16060860161014c565b905092959194509250565b60805160a05160c05160e05161010051615dd86102386000396000611721015260008181611220015281816116cf015281816118380152612d5101526000818161095901528181610aec0152611da20152600081816103220152614204015260008181611c650152818161204d01526124a90152615dd86000f3fe608060405234801561001057600080fd5b50600436106101b85760003560e01c80635ab2cef4116100f9578063bb147c5411610097578063d2f3fd0911610071578063d2f3fd091461065a578063e985e9c51461067a578063f242432a146106a8578063fbd98edf146106bb57600080fd5b8063bb147c5414610602578063bd85b03914610615578063c7c3d2dc1461064757600080fd5b8063777b1d43116100d3578063777b1d43146105835780637a32af78146105965780637a4996e8146105b5578063a22cb465146105ef57600080fd5b80635ab2cef41461046057806361086e43146104735780636cfcac041461054657600080fd5b806332eaa62511610166578063410cd41a11610140578063410cd41a1461031d578063458e8e6b1461035a57806346f90748146104125780634e1273f41461044057600080fd5b806332eaa625146102c15780633aa88670146102d45780633fc62188146102e757600080fd5b8063164e68de11610197578063164e68de146102265780632eb2c2d6146102585780632edf31041461026d57600080fd5b8062fdd58e146101bd57806301ffc9a7146101e35780630e89341c14610206575b600080fd5b6101d06101cb3660046149ff565b6106db565b6040519081526020015b60405180910390f35b6101f66101f1366004614a59565b61076f565b60405190151581526020016101da565b610219610214366004614a76565b610850565b6040516101da9190614ab3565b610239610234366004614b04565b61093f565b6040516dffffffffffffffffffffffffffff90911681526020016101da565b61026b610266366004614baf565b610b27565b005b61028061027b366004614c8c565b611051565b60408051825171ffffffffffffffffffffffffffffffffffff16815260208084015160070b908201529181015165ffffffffffff16908201526060016101da565b6101d06102cf366004614cd6565b6111a6565b61026b6102e2366004614e01565b611660565b6102fa6102f5366004614e55565b61179a565b60405171ffffffffffffffffffffffffffffffffffff90911681526020016101da565b6103447f000000000000000000000000000000000000000000000000000000000000000081565b60405164ffffffffff90911681526020016101da565b6103cc604080516080810182526000808252602082018190529181018290526060810191909152506040805160808101825260025461ffff80821683526201000082048116602084015260ff640100000000830416151593830193909352650100000000009004909116606082015290565b6040516101da9190600060808201905061ffff835116825261ffff602084015116602083015260408301511515604083015261ffff606084015116606083015292915050565b610425610420366004614e95565b611b2d565b60405169ffffffffffffffffffff90911681526020016101da565b61045361044e366004614ec5565b611b4c565b6040516101da9190614f36565b61026b61046e366004614f8b565b611c4d565b610507610481366004614b04565b60408051808201909152600080825260208201525073ffffffffffffffffffffffffffffffffffffffff166000908152600860209081526040918290208251808401909352546dffffffffffffffffffffffffffff811683526e010000000000000000000000000000900471ffffffffffffffffffffffffffffffffffff169082015290565b6040805182516dffffffffffffffffffffffffffff16815260209283015171ffffffffffffffffffffffffffffffffffff1692810192909252016101da565b610571610554366004614fdb565b65ffffffffffff1660009081526020819052604090205460ff1690565b60405160ff90911681526020016101da565b610425610591366004614e95565b611d88565b61059e611ed0565b60405165ffffffffffff90911681526020016101da565b6105c86105c3366004614a76565b611ee7565b60405175ffffffffffffffffffffffffffffffffffffffffffff90911681526020016101da565b61026b6105fd366004614ff8565b611f9e565b61026b610610366004615026565b612035565b6101d0610623366004614a76565b6000908152600460205260409020546fffffffffffffffffffffffffffffffff1690565b6104536106553660046150dd565b61248f565b61066d610668366004614fdb565b612845565b6040516101da9190615129565b6101f661068836600461517d565b600660209081526000928352604080842090915290825290205460ff1681565b61026b6106b63660046151ab565b6128ee565b6106ce6106c9366004614c8c565b612ced565b6040516101da9190615227565b600073ffffffffffffffffffffffffffffffffffffffff831630146107305773ffffffffffffffffffffffffffffffffffffffff83166000908152600360209081526040808320858452909152902054610766565b60008281526004602052604090205470010000000000000000000000000000000090046fffffffffffffffffffffffffffffffff165b90505b92915050565b60007f01ffc9a7000000000000000000000000000000000000000000000000000000007fffffffff000000000000000000000000000000000000000000000000000000008316148061080257507fd9b67a26000000000000000000000000000000000000000000000000000000007fffffffff000000000000000000000000000000000000000000000000000000008316145b806107695750507fffffffff00000000000000000000000000000000000000000000000000000000167f0e89341c000000000000000000000000000000000000000000000000000000001490565b6000818152600460208190526040918290205491517f3ef6287c000000000000000000000000000000000000000000000000000000008152600591810191909152602481018390526fffffffffffffffffffffffffffffffff9091166044820181905260609173__$0d913f5ea2cc8398585c34a0416dbc1ef1$__90633ef6287c90606401600060405180830381865af41580156108f2573d6000803e3d6000fd5b505050506040513d6000823e601f3d9081017fffffffffffffffffffffffffffffffffffffffffffffffffffffffffffffffe01682016040526109389190810190615277565b9392505050565b60003373ffffffffffffffffffffffffffffffffffffffff7f0000000000000000000000000000000000000000000000000000000000000000161461098357600080fd5b5073ffffffffffffffffffffffffffffffffffffffff81166000908152600860209081526040918290208251808401909352546dffffffffffffffffffffffffffff81168084526e01000000000000000000000000000090910471ffffffffffffffffffffffffffffffffffff1691830191909152908115610b2157604051806040016040528060006dffffffffffffffffffffffffffff168152602001836dffffffffffffffffffffffffffff168360200151610a41919061535a565b71ffffffffffffffffffffffffffffffffffff90811690915273ffffffffffffffffffffffffffffffffffffffff851660008181526008602090815260408083208651968301519095166e010000000000000000000000000000026dffffffffffffffffffffffffffff909616959095179093559251928352917fcd82d3b0662b3f7ad1373ff46ce247f38d4e9dd2419b198489e17f09b79cd93e910160405180910390a2610b21837f0000000000000000000000000000000000000000000000000000000000000000846dffffffffffffffffffffffffffff16612dbc565b50919050565b3073ffffffffffffffffffffffffffffffffffffffff891603610b4c57610b4c615384565b848314610b85576040517fff633a3800000000000000000000000000000000000000000000000000000000815260040160405180910390fd5b3373ffffffffffffffffffffffffffffffffffffffff891614801590610bdc575073ffffffffffffffffffffffffffffffffffffffff8816600090815260066020908152604080832033845290915290205460ff16155b15610c13576040517fea8e4eb500000000000000000000000000000000000000000000000000000000815260040160405180910390fd5b6040805160808101825260008082526020820181905291810182905260608101829052905b86811015610e66576000888883818110610c5457610c546153b3565b9050602002013590506000878784818110610c7157610c716153b3565b90506020020135905060405180608001604052808d73ffffffffffffffffffffffffffffffffffffffff168152602001600360008f73ffffffffffffffffffffffffffffffffffffffff1673ffffffffffffffffffffffffffffffffffffffff16815260200190815260200160002060008581526020019081526020016000205481526020018c73ffffffffffffffffffffffffffffffffffffffff168152602001610d1d8d856106db565b90526040805160808101825260025461ffff80821683526201000082048116602080850191909152640100000000830460ff90811615158587015265010000000000909304909116606080850191909152600088815280835285812086519283018752549384168252610100840464ffffffffff1692820192909252660100000000000090920475ffffffffffffffffffffffffffffffffffffffffffff1693820193909352929650610ddc92859190610dd683612f2a565b89612f9b565b508084602001818151610def91906153e2565b90525073ffffffffffffffffffffffffffffffffffffffff8c8116908c1614610e5c5760208085015173ffffffffffffffffffffffffffffffffffffffff8e16600090815260038352604080822086835290935291909120556060840151610e5c908c90849084016131e8565b5050600101610c38565b508773ffffffffffffffffffffffffffffffffffffffff168973ffffffffffffffffffffffffffffffffffffffff163373ffffffffffffffffffffffffffffffffffffffff167f4a39dc06d4c0dbc64b70af90fd698a233a518aa5d07e595d983b8c0526c8f7fb8a8a8a8a604051610ee19493929190615440565b60405180910390a473ffffffffffffffffffffffffffffffffffffffff88163b15610ff65773ffffffffffffffffffffffffffffffffffffffff88163014801590610ff157506040517fbc197c81000000000000000000000000000000000000000000000000000000008082529073ffffffffffffffffffffffffffffffffffffffff8a169063bc197c8190610f899033908e908d908d908d908d908d908d906004016154bb565b6020604051808303816000875af1158015610fa8573d6000803e3d6000fd5b505050506040513d601f19601f82011682018060405250810190610fcc919061553e565b7fffffffff000000000000000000000000000000000000000000000000000000001614155b61100f565b73ffffffffffffffffffffffffffffffffffffffff8816155b15611046576040517f3da6393100000000000000000000000000000000000000000000000000000000815260040160405180910390fd5b505050505050505050565b60408051606081018252600080825260208201819052918101919091526007600061107f6020850185614b04565b73ffffffffffffffffffffffffffffffffffffffff1673ffffffffffffffffffffffffffffffffffffffff16815260200190815260200160002060008360200160208101906110ce9190614b04565b73ffffffffffffffffffffffffffffffffffffffff1673ffffffffffffffffffffffffffffffffffffffff168152602001908152602001600020600083604001602081019061111d919061555b565b600090810b8252602080830193909352604091820190208151606081018352905471ffffffffffffffffffffffffffffffffffff811682527201000000000000000000000000000000000000810460070b938201939093527a01000000000000000000000000000000000000000000000000000090920465ffffffffffff169082015292915050565b6040805160808101825260025461ffff80821683526201000082048116602084015260ff64010000000083041615801594840194909452650100000000009091041660608201526000916111f957600080fd5b60008060008073__$0d913f5ea2cc8398585c34a0416dbc1ef1$__634d95f9978a600860077f00000000000000000000000000000000000000000000000000000000000000008d6040518663ffffffff1660e01b81526004016112609594939291906155da565b61012060405180830381865af415801561127e573d6000803e3d6000fd5b505050506040513d601f19601f820116820180604052508101906112a29190615694565b60408381015165ffffffffffff1660009081526020818152828220835160608082018652915460ff81168252610100810464ffffffffff16828501526601000000000000900475ffffffffffffffffffffffffffffffffffffffffffff168186015284516080810186528481529283018490529382018390528101919091529498509296509094509250908a1561140e578273ffffffffffffffffffffffffffffffffffffffff16636bc601d73389600001518560000151888e6040518663ffffffff1660e01b815260040161137c95949392919061578d565b610100604051808303816000875af115801561139c573d6000803e3d6000fd5b505050506040513d601f19601f820116820180604052508101906113c091906158bb565b6060820151909a50919550915071ffffffffffffffffffffffffffffffffffff1615611409576114096113f960408c0160208d01614b04565b866040015186846060015161327a565b611434565b61142f61142160408c0160208d01614b04565b86604001518985888e613464565b985090505b61143f85858c61370b565b611477600187836020015171ffffffffffffffffffffffffffffffffffff168d60200160208101906114719190614b04565b8d613bef565b846040015165ffffffffffff167f2ea082b0ce379480d9dfb0d7ab365e33def58ee2bee64887c13e531723b5c8818c8360000151846020015185606001518660400151016040516114fa9493929190931515845271ffffffffffffffffffffffffffffffffffff9283166020850152908216604084015216606082015260800190565b60405180910390a261153161151560408c0160208d01614b04565b33308c71ffffffffffffffffffffffffffffffffffff16613d26565b8a15801561153f5750333b15155b801561161b575060408581015190517ff23a6e6100000000000000000000000000000000000000000000000000000000808252336004830181905260006024840181905265ffffffffffff9094166044840152606483018c905260a0608484015260a4830193909352919063f23a6e619060c4016020604051808303816000875af11580156115d2573d6000803e3d6000fd5b505050506040513d601f19601f820116820180604052508101906115f6919061553e565b7fffffffff000000000000000000000000000000000000000000000000000000001614155b15611652576040517f3da6393100000000000000000000000000000000000000000000000000000000815260040160405180910390fd5b505050505050509392505050565b805173ffffffffffffffffffffffffffffffffffffffff90811660009081526007602090815260408083208286018051861685529083528184208287018051860b8652935281842091517fd1c790ba0000000000000000000000000000000000000000000000000000000081527f0000000000000000000000000000000000000000000000000000000000000000861660048201526024810192909252600560448301528551851660648301525184166084820152905190910b60a48201527f000000000000000000000000000000000000000000000000000000000000000090911660c482015273__$0d913f5ea2cc8398585c34a0416dbc1ef1$__9063d1c790ba9060e40160006040518083038186803b15801561177f57600080fd5b505af4158015611793573d6000803e3d6000fd5b5050505050565b6040805160808101825260025461ffff80821683526201000082048116602084015260ff6401000000008304161515838501526501000000000090910416606082015290517f4d95f99700000000000000000000000000000000000000000000000000000000815260009190829081908190819073__$0d913f5ea2cc8398585c34a0416dbc1ef1$__90634d95f99790611862908c906008906007907f0000000000000000000000000000000000000000000000000000000000000000908f906004016155da565b61012060405180830381865af4158015611880573d6000803e3d6000fd5b505050506040513d601f19601f820116820180604052508101906118a49190615694565b60408381015165ffffffffffff1660009081526020818152828220835160608082018652915460ff81168252610100810464ffffffffff16828501526601000000000000900475ffffffffffffffffffffffffffffffffffffffffffff168186015284516080810186528481529283018490529382018390528101919091529498509296509094509250908a156119fc578273ffffffffffffffffffffffffffffffffffffffff16638c2684273389600001518560000151888e6040518663ffffffff1660e01b815260040161197e9594939291906158fd565b60e0604051808303816000875af115801561199d573d6000803e3d6000fd5b505050506040513d601f19601f820116820180604052508101906119c1919061598c565b6060810151919550915071ffffffffffffffffffffffffffffffffffff16156119f7576119f76113f960408c0160208d01614b04565b611a20565b611a1d611a0f60408c0160208d01614b04565b86604001518985888e613e9f565b90505b611a2b85858c61370b565b611a64600087836020015171ffffffffffffffffffffffffffffffffffff168d6020016020810190611a5d9190614b04565b8551613bef565b846040015165ffffffffffff167f7c6da711ffa6af277b820416f2daab1018c73a4fb0c4a49a38c5fb292b6c0e8b8c8360000151846020015185606001518660400151611ab191906159c1565b60408051941515855271ffffffffffffffffffffffffffffffffffff9384166020860152918316848301529091166060830152519081900360800190a2611b1e611b0160408c0160208d01614b04565b8251339071ffffffffffffffffffffffffffffffffffff16612dbc565b519a9950505050505050505050565b60006107668383611b3e85876106db565b611b4787611ee7565b6140b9565b6060838214611b87576040517fff633a3800000000000000000000000000000000000000000000000000000000815260040160405180910390fd5b8367ffffffffffffffff811115611ba057611ba0614d20565b604051908082528060200260200182016040528015611bc9578160200160208202803683370190505b50905060005b84811015611c4457611c1f868683818110611bec57611bec6153b3565b9050602002016020810190611c019190614b04565b858584818110611c1357611c136153b3565b905060200201356106db565b828281518110611c3157611c316153b3565b6020908102919091010152600101611bcf565b50949350505050565b3373ffffffffffffffffffffffffffffffffffffffff7f00000000000000000000000000000000000000000000000000000000000000001614611c8f57600080fd5b60408051608080820183526002805461ffff808216855262010000808304821660208088019190915264010000000080850460ff161515888a01526501000000000080860485166060998a019081528a519889018b529c85168089529b85169288018390529915159887018990529a51909216949095018490527fffffffffffffffffffffffffffffffffffffffffffffffffffffffff0000000090911690961795909202949094177fffffffffffffffffffffffffffffffffffffffffffffffffff000000ffffffff16919094027fffffffffffffffffffffffffffffffffffffffffffffffffff0000ffffffffff16179102179055565b60003373ffffffffffffffffffffffffffffffffffffffff7f00000000000000000000000000000000000000000000000000000000000000001614611dcc57600080fd5b600060405180608001604052808473ffffffffffffffffffffffffffffffffffffffff168152602001611dff85876106db565b8152600060208083018290526040928301829052825160808101845260025461ffff8082168352620100008204811683850152640100000000820460ff90811615158488015265010000000000909204166060808401919091528a85528484529385902085519485018652549081168452610100810464ffffffffff1692840192909252660100000000000090910475ffffffffffffffffffffffffffffffffffffffffffff1692820192909252919250611ec8916001918791611ec283612f2a565b86612f9b565b949350505050565b600554600090611ee2906001906153e2565b905090565b6040805160808101825260025461ffff80821683526201000082048116602080850191909152640100000000830460ff90811615158587015265010000000000909304909116606080850191909152600086815280835285812086519283018752549384168252610100840464ffffffffff1692820192909252660100000000000090920475ffffffffffffffffffffffffffffffffffffffffffff16938201939093526107699190611f9985612f2a565b6141a4565b33600081815260066020908152604080832073ffffffffffffffffffffffffffffffffffffffff87168085529083529281902080547fffffffffffffffffffffffffffffffffffffffffffffffffffffffffffffff001686151590811790915590519081529192917f17307eab39ab6107e8899845ad3d59bd9653f200f220920489ca2b5937696c31910160405180910390a35050565b3373ffffffffffffffffffffffffffffffffffffffff7f0000000000000000000000000000000000000000000000000000000000000000161461207757600080fd5b6000805b8781101561224a576120ba898983818110612098576120986153b3565b90506020020160208101906120ad9190614fdb565b65ffffffffffff16611ee7565b91506040518060600160405280600060ff1681526020014264ffffffffff1681526020018375ffffffffffffffffffffffffffffffffffffffffffff168152506000808b8b8581811061210f5761210f6153b3565b90506020020160208101906121249190614fdb565b65ffffffffffff16815260208082019290925260409081016000208351815493850151949092015175ffffffffffffffffffffffffffffffffffffffffffff166601000000000000027fffffffff00000000000000000000000000000000000000000000ffffffffffff64ffffffffff909516610100027fffffffffffffffffffffffffffffffffffffffffffffffffffff00000000000090941660ff9093169290921792909217929092169190911790558888828181106121e8576121e86153b3565b90506020020160208101906121fd9190614fdb565b604080516000808252602082015265ffffffffffff92909216917fc05b4c85e1a9e164c2764407bce9e5955a2e6435dea37ef8c4e62ec458ebf21a910160405180910390a260010161207b565b5060005b858110156124495761226b878783818110612098576120986153b3565b9150604051806060016040528086868481811061228a5761228a6153b3565b905060200201602081019061229f91906159eb565b60ff1681526020014264ffffffffff1681526020018375ffffffffffffffffffffffffffffffffffffffffffff168152506000808989858181106122e5576122e56153b3565b90506020020160208101906122fa9190614fdb565b65ffffffffffff16815260208082019290925260409081016000208351815493850151949092015175ffffffffffffffffffffffffffffffffffffffffffff166601000000000000027fffffffff00000000000000000000000000000000000000000000ffffffffffff64ffffffffff909516610100027fffffffffffffffffffffffffffffffffffffffffffffffffffff00000000000090941660ff9093169290921792909217929092169190911790558686828181106123be576123be6153b3565b90506020020160208101906123d39190614fdb565b65ffffffffffff167fc05b4c85e1a9e164c2764407bce9e5955a2e6435dea37ef8c4e62ec458ebf21a86868481811061240e5761240e6153b3565b905060200201602081019061242391906159eb565b6040805160ff909216825261ffff871660208301520160405180910390a260010161224e565b50506002805461ffff90921665010000000000027fffffffffffffffffffffffffffffffffffffffffffffffffff0000ffffffffff909216919091179055505050505050565b60603373ffffffffffffffffffffffffffffffffffffffff7f000000000000000000000000000000000000000000000000000000000000000016146124d357600080fd5b8267ffffffffffffffff8111156124ec576124ec614d20565b604051908082528060200260200182016040528015612515578160200160208202803683370190505b5090506000606060005b8581101561283b57868682818110612539576125396153b3565b905060200201602081019061254e9190614b04565b604080513060248083019190915282518083039091018152604490910182526020810180517bffffffffffffffffffffffffffffffffffffffffffffffffffffffff167f70a0823100000000000000000000000000000000000000000000000000000000179052905173ffffffffffffffffffffffffffffffffffffffff92909216916125db9190615a0e565b6000604051808303816000865af19150503d8060008114612618576040519150601f19603f3d011682016040523d82523d6000602084013e61261d565b606091505b509093509150828015612631575081516020145b15612833578180602001905181019061264a9190615a2a565b84828151811061265c5761265c6153b3565b602002602001018181525050600084828151811061267c5761267c6153b3565b602002602001015111156128335786868281811061269c5761269c6153b3565b90506020020160208101906126b19190614b04565b73ffffffffffffffffffffffffffffffffffffffff1663a9059cbb60e01b868684815181106126e2576126e26153b3565b602090810291909101015160405173ffffffffffffffffffffffffffffffffffffffff90921660248301526044820152606401604080517fffffffffffffffffffffffffffffffffffffffffffffffffffffffffffffffe08184030181529181526020820180517bffffffffffffffffffffffffffffffffffffffffffffffffffffffff167fffffffff0000000000000000000000000000000000000000000000000000000090941693909317909252905161279e9190615a0e565b6000604051808303816000865af19150503d80600081146127db576040519150601f19603f3d011682016040523d82523d6000602084013e6127e0565b606091505b50909350915082801561280b57508151158061280b57508180602001905181019061280b9190615a43565b925082612833576000848281518110612826576128266153b3565b6020026020010181815250505b60010161251f565b5050509392505050565b604080516060810182526000808252602082018190529181019190915260058265ffffffffffff168154811061287d5761287d6153b3565b60009182526020808320604080516060810182526002909402909101805473ffffffffffffffffffffffffffffffffffffffff9081168552600190910154908116928401929092527401000000000000000000000000000000000000000090910490920b9181019190915292915050565b3073ffffffffffffffffffffffffffffffffffffffff87160361291357612913615384565b3373ffffffffffffffffffffffffffffffffffffffff87161480159061296a575073ffffffffffffffffffffffffffffffffffffffff8616600090815260066020908152604080832033845290915290205460ff16155b156129a1576040517fea8e4eb500000000000000000000000000000000000000000000000000000000815260040160405180910390fd5b6040805160808101825273ffffffffffffffffffffffffffffffffffffffff8089168083526000908152600360209081528482208983528152848220549084015290881692820192909252606081016129fa88886106db565b90526040805160808101825260025461ffff80821683526201000082048116602080850191909152640100000000830460ff9081161515858701526501000000000090930490911660608085019190915260008b815280835285812086519283018752549384168252610100840464ffffffffff1692820192909252660100000000000090920475ffffffffffffffffffffffffffffffffffffffffffff1693820193909352929350612ab392889190611ec283612f2a565b508381602001818151612ac691906153e2565b90525073ffffffffffffffffffffffffffffffffffffffff87811690871614612b335760208082015173ffffffffffffffffffffffffffffffffffffffff8916600090815260038352604080822089835290935291909120556060810151612b33908790879087016131e8565b604080518681526020810186905273ffffffffffffffffffffffffffffffffffffffff80891692908a169133917fc3d58168c5ae7397731d063d5bbf3d657854427343f4c083240f7aacaa2d0f62910160405180910390a473ffffffffffffffffffffffffffffffffffffffff86163b15612c945773ffffffffffffffffffffffffffffffffffffffff86163014801590612c8f57506040517ff23a6e61000000000000000000000000000000000000000000000000000000008082529073ffffffffffffffffffffffffffffffffffffffff88169063f23a6e6190612c279033908c908b908b908b908b90600401615a60565b6020604051808303816000875af1158015612c46573d6000803e3d6000fd5b505050506040513d601f19601f82011682018060405250810190612c6a919061553e565b7fffffffff000000000000000000000000000000000000000000000000000000001614155b612cad565b73ffffffffffffffffffffffffffffffffffffffff8616155b15612ce4576040517f3da6393100000000000000000000000000000000000000000000000000000000815260040160405180910390fd5b50505050505050565b604080516060810182526000808252602082018190528183015290517f94215a4c00000000000000000000000000000000000000000000000000000000815273__$0d913f5ea2cc8398585c34a0416dbc1ef1$__906394215a4c90612d7b906007907f0000000000000000000000000000000000000000000000000000000000000000908790600401615ac4565b606060405180830381865af4158015612d98573d6000803e3d6000fd5b505050506040513d601f19601f820116820180604052508101906107699190615af4565b6040805173ffffffffffffffffffffffffffffffffffffffff8481166024830152604480830185905283518084039091018152606490920183526020820180517bffffffffffffffffffffffffffffffffffffffffffffffffffffffff167fa9059cbb000000000000000000000000000000000000000000000000000000001790529151600092839290871691612e539190615a0e565b6000604051808303816000865af19150503d8060008114612e90576040519150601f19603f3d011682016040523d82523d6000602084013e612e95565b606091505b5091509150818015612ebf575080511580612ebf575080806020019051810190612ebf9190615a43565b611793576040517f08c379a000000000000000000000000000000000000000000000000000000000815260206004820152600260248201527f535400000000000000000000000000000000000000000000000000000000000060448201526064015b60405180910390fd5b60008181526004602090815260408083208151808301909252546fffffffffffffffffffffffffffffffff808216808452700100000000000000000000000000000000909204169282018390529091612f8291615b10565b6fffffffffffffffffffffffffffffffff169392505050565b600080612fa98686866141a4565b9050612fbf8784600001518560200151846140b9565b915060405180604001604052808275ffffffffffffffffffffffffffffffffffffffffffff16815260200189612ff55783612ff8565b60005b69ffffffffffffffffffff9081169091526000898152600160209081526040808320885173ffffffffffffffffffffffffffffffffffffffff908116855290835292819020855195909201519093167601000000000000000000000000000000000000000000000275ffffffffffffffffffffffffffffffffffffffffffff9094169390931790925584015116301461314f5760405180604001604052808275ffffffffffffffffffffffffffffffffffffffffffff1681526020016130c88986604001518760600151866140b9565b69ffffffffffffffffffff90811690915260008981526001602090815260408083208882015173ffffffffffffffffffffffffffffffffffffffff1684528252909120835193909101519091167601000000000000000000000000000000000000000000000275ffffffffffffffffffffffffffffffffffffffffffff9092169190911790555b60009687526020879052604090962080547fffffffff000000000000000000000000000000000000000000000000000000ff16660100000000000075ffffffffffffffffffffffffffffffffffffffffffff909816979097027fffffffffffffffffffffffffffffffffffffffffffffffffffff0000000000ff16969096176101004264ffffffffff1602179095555092949350505050565b3073ffffffffffffffffffffffffffffffffffffffff84160361324657600082815260046020526040902080546fffffffffffffffffffffffffffffffff808416700100000000000000000000000000000000029116179055505050565b73ffffffffffffffffffffffffffffffffffffffff9290921660009081526003602090815260408083209383529290522055565b65ffffffffffff831660009081526004602090815260408083208151808301909252546fffffffffffffffffffffffffffffffff808216808452700100000000000000000000000000000000909204169282019290925291901561332a5761332582600001516fffffffffffffffffffffffffffffffff168471ffffffffffffffffffffffffffffffffffff16866020015171ffffffffffffffffffffffffffffffffffff16614330565b61333a565b61333a86856020015185016143fc565b825190915061ffff6f140eb6ae00000000000000000000000004036fffffffffffffffffffffffffffffffff168111156133a0576040517f6deac20700000000000000000000000000000000000000000000000000000000815260040160405180910390fd5b602082810180516fffffffffffffffffffffffffffffffff908401811682528451840181168552868301805171ffffffffffffffffffffffffffffffffffff90880116905265ffffffffffff8816600081815260048552604080822088519551851670010000000000000000000000000000000002959094169490941790925582519081529283018490523092909133917fc3d58168c5ae7397731d063d5bbf3d657854427343f4c083240f7aacaa2d0f62910160405180910390a4505050505050565b60408051608081018252600080825260208201819052918101829052606081019190915265ffffffffffff861660008181526004602090815260408083208151808301835290546fffffffffffffffffffffffffffffffff80821683527001000000000000000000000000000000009091048116828501908152338087526003865284872088885286528487205485516080810187529182529581018690523094810194909452606084018690525182519596929561352f93889390928e928e929190031686612f9b565b506135478b8b858c602001518c600001518c8c61460c565b83519095506fffffffffffffffffffffffffffffffff16156135b9576135b483600001516fffffffffffffffffffffffffffffffff16866000015171ffffffffffffffffffffffffffffffffffff16896020015171ffffffffffffffffffffffffffffffffffff16614330565b6135cd565b6135cd8b88602001518760000151016143fc565b835190945061ffff6f140eb6ae00000000000000000000000004036fffffffffffffffffffffffffffffffff16841115613633576040517f6deac20700000000000000000000000000000000000000000000000000000000815260040160405180910390fd5b33600081815260036020908152604080832065ffffffffffff8f16808552908352818420878a01905587516fffffffffffffffffffffffffffffffff908a01811689528a518d8501805171ffffffffffffffffffffffffffffffffffff92019190911690528185526004845282852089518a8601518316700100000000000000000000000000000000029216919091179055815190815291820188905283917fc3d58168c5ae7397731d063d5bbf3d657854427343f4c083240f7aacaa2d0f62910160405180910390a4505050965096945050505050565b602082015182510171ffffffffffffffffffffffffffffffffffff168084526002111561373757600080fd5b815171ffffffffffffffffffffffffffffffffffff1660000361376757677fffffffffffffff6020840152613a69565b816020015171ffffffffffffffffffffffffffffffffffff166000036137b2577fffffffffffffffffffffffffffffffffffffffffffffffff80000000000000006020840152613a69565b6000806137c5606084016040850161555b565b60000b12156137e6576137de606083016040840161555b565b6000036137f6565b6137f6606083016040840161555b565b905060008061380b606085016040860161555b565b60000b131561384e576020840151845171ffffffffffffffffffffffffffffffffffff918216911660ff84161b101561384657506001613884565b506000613884565b6020840151845171ffffffffffffffffffffffffffffffffffff91821660ff85161b9116101561388057506001613884565b5060005b8015613978576000613903816138a0606087016040880161555b565b60000b12156138c957865171ffffffffffffffffffffffffffffffffffff1660ff85161b6138e0565b865171ffffffffffffffffffffffffffffffffffff165b865171ffffffffffffffffffffffffffffffffffff1660ff861681901b016147eb565b60070b905060008061391b606087016040880161555b565b60000b1215613930578360ff1682901b613938565b8360ff1682901d5b604087015160070b019050677fffffffffffffff81131561396657677fffffffffffffff6020880152613971565b600781900b60208801525b5050613a66565b60006139f48161398e606087016040880161555b565b60000b12156139b257865171ffffffffffffffffffffffffffffffffffff166139ce565b865171ffffffffffffffffffffffffffffffffffff1660ff85161b5b602087015171ffffffffffffffffffffffffffffffffffff1660ff861681901b016147eb565b6040860151600791820b9250900b8190037fffffffffffffffffffffffffffffffffffffffffffffffff8000000000000000811215613a58577fffffffffffffffffffffffffffffffffffffffffffffffff80000000000000006020880152613a63565b600781900b60208801525b50505b50505b8260076000613a7b6020850185614b04565b73ffffffffffffffffffffffffffffffffffffffff1673ffffffffffffffffffffffffffffffffffffffff1681526020019081526020016000206000836020016020810190613aca9190614b04565b73ffffffffffffffffffffffffffffffffffffffff1673ffffffffffffffffffffffffffffffffffffffff1681526020019081526020016000206000836040016020810190613b19919061555b565b600090810b8252602080830193909352604091820190208351815493850151949092015165ffffffffffff167a0100000000000000000000000000000000000000000000000000000279ffffffffffffffffffffffffffffffffffffffffffffffffffff67ffffffffffffffff9095167201000000000000000000000000000000000000027fffffffffffff000000000000000000000000000000000000000000000000000090941671ffffffffffffffffffffffffffffffffffff909316929092179290921792909216919091179055505050565b8351600090613c0f9085906dffffffffffffffffffffffffffff16615b67565b90506dffffffffffffffffffffffffffff811115613c2c57600080fd5b6040518060400160405280826dffffffffffffffffffffffffffff16815260200187613c6757838760200151613c62919061535a565b613c77565b838760200151613c7791906159c1565b71ffffffffffffffffffffffffffffffffffff90811690915273ffffffffffffffffffffffffffffffffffffffff85166000818152600860209081526040918290208551868301519095166e010000000000000000000000000000026dffffffffffffffffffffffffffff95861617905590519285168352929750917fcd82d3b0662b3f7ad1373ff46ce247f38d4e9dd2419b198489e17f09b79cd93e910160405180910390a2505050505050565b6040805173ffffffffffffffffffffffffffffffffffffffff85811660248301528481166044830152606480830185905283518084039091018152608490920183526020820180517bffffffffffffffffffffffffffffffffffffffffffffffffffffffff167f23b872dd000000000000000000000000000000000000000000000000000000001790529151600092839290881691613dc59190615a0e565b6000604051808303816000865af19150503d8060008114613e02576040519150601f19603f3d011682016040523d82523d6000602084013e613e07565b606091505b5091509150818015613e31575080511580613e31575080806020019051810190613e319190615a43565b613e97576040517f08c379a000000000000000000000000000000000000000000000000000000000815260206004820152600360248201527f53544600000000000000000000000000000000000000000000000000000000006044820152606401612f21565b505050505050565b604080516080808201835260008083526020808401829052838501829052606080850183905265ffffffffffff8b16808452600483528684208751808901895290546fffffffffffffffffffffffffffffffff8082168352700100000000000000000000000000000000909104811682860190815233808852600387528a882085895287528a8820548b51998a018c52908952958801869052309988019990995292860185905296518751969796939594613f629490938d928d92031686612f9b565b506000613f9e876020015171ffffffffffffffffffffffffffffffffffff168786600001516fffffffffffffffffffffffffffffffff16614330565b905082861115613fad57600080fd5b33600090815260036020908152604080832065ffffffffffff8e1684528252909120878503905584518790036fffffffffffffffffffffffffffffffff168552878101805183900371ffffffffffffffffffffffffffffffffffff1690528901518851614021918d918d9188918c8761460c565b65ffffffffffff8b16600081815260046020908152604080832089518a8401516fffffffffffffffffffffffffffffffff90811670010000000000000000000000000000000002911617905580519384529083018a905292975091339182917fc3d58168c5ae7397731d063d5bbf3d657854427343f4c083240f7aacaa2d0f62910160405180910390a4505050509695505050505050565b60003073ffffffffffffffffffffffffffffffffffffffff8516036140e057506000611ec8565b600085815260016020908152604080832073ffffffffffffffffffffffffffffffffffffffff88168452825280832081518083019092525475ffffffffffffffffffffffffffffffffffffffffffff81168252760100000000000000000000000000000000000000000000900469ffffffffffffffffffff16918101919091529084900361417357602001519050611ec8565b8051602090910151920375ffffffffffffffffffffffffffffffffffffffffffff169290920260601c019392505050565b6040820151825160ff16158015906141ce57504264ffffffffff16836020015164ffffffffff1614155b80156141d957508115155b1561093857836060015161ffff16836000015160ff1611156141fd576141fd615384565b60208301517f00000000000000000000000000000000000000000000000000000000000000006305a39a800164ffffffffff80821690831610156142a6576060860151855160009161ffff169060ff166527d6140eb6ae028161426257614262615b38565b0490508460608464ffffffffff168464ffffffffff164211614284574261428d565b8464ffffffffff165b038302901b8161429f5761429f615b38565b0484019350505b8064ffffffffff164264ffffffffff161115614327576060860151855160009161ffff169060ff16653a1cc489993602816142e3576142e3615b38565b0490508460608364ffffffffff168564ffffffffff16116143045783614306565b845b64ffffffffff1642038302901b8161432057614320615b38565b0484019350505b50509392505050565b600080807fffffffffffffffffffffffffffffffffffffffffffffffffffffffffffffffff85870985870292508281108382030391505080600003614387576000841161437c57600080fd5b508290049050610938565b80841161439357600080fd5b60008486880960026001871981018816978890046003810283188082028403028082028403028082028403028082028403028082028403029081029092039091026000889003889004909101858311909403939093029303949094049190911702949350505050565b6000808373ffffffffffffffffffffffffffffffffffffffff166318160ddd6040518163ffffffff1660e01b8152600401602060405180830381865afa15801561444a573d6000803e3d6000fd5b505050506040513d601f19601f8201168201806040525081019061446e9190615a2a565b905061ffff606067016345785d8a00006301e133806001614491600c600a615c9d565b61449f9063781a75c0615cac565b6144a991906153e2565b6144b39190615cc3565b6144be906001615cf5565b6144da9068ffffffffffffffffff1666f38a31408ae338615cac565b6144e49190615d16565b68ffffffffffffffffff166fffffffffffffffffffffffffffffffff16901b61450d9190615d2a565b6fffffffffffffffffffffffffffffffff16811161453f578271ffffffffffffffffffffffffffffffffffff16611ec8565b611ec861ffff606067016345785d8a00006301e133806001614563600c600a615c9d565b6145719063781a75c0615cac565b61457b91906153e2565b6145859190615cc3565b614590906001615cf5565b6145ac9068ffffffffffffffffff1666f38a31408ae338615cac565b6145b69190615d16565b68ffffffffffffffffff166fffffffffffffffffffffffffffffffff16901b6145df9190615d2a565b6fffffffffffffffffffffffffffffffff168471ffffffffffffffffffffffffffffffffffff1683614330565b60408051608081018252600080825260208201819052918101829052606081019190915261463b82868661492f565b604081015160208501805190910171ffffffffffffffffffffffffffffffffffff16905286519091506000906fffffffffffffffffffffffffffffffff16156146d4576146cf87600001516fffffffffffffffffffffffffffffffff16836060015171ffffffffffffffffffffffffffffffffffff16866020015171ffffffffffffffffffffffffffffffffffff16614330565b6146e8565b6146e88985602001518460600151016143fc565b875190915061ffff6f140eb6ae00000000000000000000000004036fffffffffffffffffffffffffffffffff1681111561474e576040517f6deac20700000000000000000000000000000000000000000000000000000000815260040160405180910390fd5b6020878101805183016fffffffffffffffffffffffffffffffff908116909152885183011688526060830151858201805190910171ffffffffffffffffffffffffffffffffffff1690526040805165ffffffffffff8b168152918201839052309160009133917fc3d58168c5ae7397731d063d5bbf3d657854427343f4c083240f7aacaa2d0f62910160405180910390a450979650505050505050565b6000818310156147fd576147fd615384565b8160000361480d5761480d615384565b600082848161481e5761481e615b38565b0490506fffffffffffffffffffffffffffffffff811160071b81811c67ffffffffffffffff811160061b90811c63ffffffff811160051b90811c61ffff811160041b90811c60ff8111600390811b91821c600f811160021b90811c918211600190811b92831c979088119617909417909217179091171717608081106148ac57607f810383901c91506148c0565b6148bd8682607f0360020a87614330565b91505b603781901b60015b603781116148fd57838402607f1c93508360801c80826037031b8317925084811c945050806148f690615d6a565b90506148c8565b5060c06149228277d89e8c075c4155dd3213326cbbcf86fd1f63f5c205dd2ad2615cac565b901c979650505050505050565b60408051608081018252600080825260208201819052918101829052606081019190915261271061ffff841681018071ffffffffffffffffffffffffffffffffffff871683028161498257614982615b38565b0471ffffffffffffffffffffffffffffffffffff9081168085526109f69703811660ff95909516850296909604861660208401819052600a850487166060850181905294039390930390941660408201529392505050565b73ffffffffffffffffffffffffffffffffffffffff811681146149fc57600080fd5b50565b60008060408385031215614a1257600080fd5b8235614a1d816149da565b946020939093013593505050565b7fffffffff00000000000000000000000000000000000000000000000000000000811681146149fc57600080fd5b600060208284031215614a6b57600080fd5b813561093881614a2b565b600060208284031215614a8857600080fd5b5035919050565b60005b83811015614aaa578181015183820152602001614a92565b50506000910152565b6020815260008251806020840152614ad2816040850160208701614a8f565b601f017fffffffffffffffffffffffffffffffffffffffffffffffffffffffffffffffe0169190910160400192915050565b600060208284031215614b1657600080fd5b8135610938816149da565b60008083601f840112614b3357600080fd5b50813567ffffffffffffffff811115614b4b57600080fd5b6020830191508360208260051b8501011115614b6657600080fd5b9250929050565b60008083601f840112614b7f57600080fd5b50813567ffffffffffffffff811115614b9757600080fd5b602083019150836020828501011115614b6657600080fd5b60008060008060008060008060a0898b031215614bcb57600080fd5b8835614bd6816149da565b97506020890135614be6816149da565b9650604089013567ffffffffffffffff811115614c0257600080fd5b614c0e8b828c01614b21565b909750955050606089013567ffffffffffffffff811115614c2e57600080fd5b614c3a8b828c01614b21565b909550935050608089013567ffffffffffffffff811115614c5a57600080fd5b614c668b828c01614b6d565b999c989b5096995094979396929594505050565b600060608284031215610b2157600080fd5b600060608284031215614c9e57600080fd5b6107668383614c7a565b80151581146149fc57600080fd5b71ffffffffffffffffffffffffffffffffffff811681146149fc57600080fd5b600080600060a08486031215614ceb57600080fd5b8335614cf681614ca8565b9250614d058560208601614c7a565b91506080840135614d1581614cb6565b809150509250925092565b7f4e487b7100000000000000000000000000000000000000000000000000000000600052604160045260246000fd5b6040516060810167ffffffffffffffff81118282101715614d7257614d72614d20565b60405290565b6040805190810167ffffffffffffffff81118282101715614d7257614d72614d20565b604051601f82017fffffffffffffffffffffffffffffffffffffffffffffffffffffffffffffffe016810167ffffffffffffffff81118282101715614de257614de2614d20565b604052919050565b8035600081900b8114614dfc57600080fd5b919050565b60006060828403128015614e1457600080fd5b50614e1d614d4f565b8235614e28816149da565b81526020830135614e38816149da565b6020820152614e4960408401614dea565b60408201529392505050565b600080600060a08486031215614e6a57600080fd5b8335614e7581614ca8565b9250614e848560208601614c7a565b929592945050506080919091013590565b60008060408385031215614ea857600080fd5b823591506020830135614eba816149da565b809150509250929050565b60008060008060408587031215614edb57600080fd5b843567ffffffffffffffff811115614ef257600080fd5b614efe87828801614b21565b909550935050602085013567ffffffffffffffff811115614f1e57600080fd5b614f2a87828801614b21565b95989497509550505050565b602080825282518282018190526000918401906040840190835b81811015614f6e578351835260209384019390920191600101614f50565b509095945050505050565b803561ffff81168114614dfc57600080fd5b600080600060608486031215614fa057600080fd5b614fa984614f79565b9250614fb760208501614f79565b91506040840135614d1581614ca8565b65ffffffffffff811681146149fc57600080fd5b600060208284031215614fed57600080fd5b813561093881614fc7565b6000806040838503121561500b57600080fd5b8235615016816149da565b91506020830135614eba81614ca8565b60008060008060008060006080888a03121561504157600080fd5b873567ffffffffffffffff81111561505857600080fd5b6150648a828b01614b21565b909850965050602088013567ffffffffffffffff81111561508457600080fd5b6150908a828b01614b21565b909650945050604088013567ffffffffffffffff8111156150b057600080fd5b6150bc8a828b01614b21565b90945092506150cf905060608901614f79565b905092959891949750929550565b6000806000604084860312156150f257600080fd5b833567ffffffffffffffff81111561510957600080fd5b61511586828701614b21565b9094509250506020840135614d15816149da565b60608101610769828473ffffffffffffffffffffffffffffffffffffffff815116825273ffffffffffffffffffffffffffffffffffffffff6020820151166020830152604081015160000b60408301525050565b6000806040838503121561519057600080fd5b823561519b816149da565b91506020830135614eba816149da565b60008060008060008060a087890312156151c457600080fd5b86356151cf816149da565b955060208701356151df816149da565b94506040870135935060608701359250608087013567ffffffffffffffff81111561520957600080fd5b61521589828a01614b6d565b979a9699509497509295939492505050565b60608101610769828471ffffffffffffffffffffffffffffffffffff815116825271ffffffffffffffffffffffffffffffffffff6020820151166020830152604081015160070b60408301525050565b60006020828403121561528957600080fd5b815167ffffffffffffffff8111156152a057600080fd5b8201601f810184136152b157600080fd5b805167ffffffffffffffff8111156152cb576152cb614d20565b6152fc60207fffffffffffffffffffffffffffffffffffffffffffffffffffffffffffffffe0601f84011601614d9b565b81815285602083850101111561531157600080fd5b615322826020830160208601614a8f565b95945050505050565b7f4e487b7100000000000000000000000000000000000000000000000000000000600052601160045260246000fd5b71ffffffffffffffffffffffffffffffffffff82811682821603908111156107695761076961532b565b7f4e487b7100000000000000000000000000000000000000000000000000000000600052600160045260246000fd5b7f4e487b7100000000000000000000000000000000000000000000000000000000600052603260045260246000fd5b818103818111156107695761076961532b565b81835260007f07ffffffffffffffffffffffffffffffffffffffffffffffffffffffffffffff83111561542757600080fd5b8260051b80836020870137939093016020019392505050565b6040815260006154546040830186886153f5565b82810360208401526154678185876153f5565b979650505050505050565b8183528181602085013750600060208284010152600060207fffffffffffffffffffffffffffffffffffffffffffffffffffffffffffffffe0601f840116840101905092915050565b73ffffffffffffffffffffffffffffffffffffffff8916815273ffffffffffffffffffffffffffffffffffffffff8816602082015260a06040820152600061550760a08301888a6153f5565b828103606084015261551a8187896153f5565b9050828103608084015261552f818587615472565b9b9a5050505050505050505050565b60006020828403121561555057600080fd5b815161093881614a2b565b60006020828403121561556d57600080fd5b61076682614dea565b8035615581816149da565b73ffffffffffffffffffffffffffffffffffffffff16825260208101356155a7816149da565b73ffffffffffffffffffffffffffffffffffffffff1660208301526155ce60408201614dea565b60000b60408301525050565b8515158152602081018590526040810184905273ffffffffffffffffffffffffffffffffffffffff8316606082015260e0810161561a6080830184615576565b9695505050505050565b8051600781900b8114614dfc57600080fd5b60006060828403121561564857600080fd5b615650614d4f565b9050815161565d81614cb6565b8152602082015161566d81614cb6565b602082015261567e60408301615624565b604082015292915050565b8051614dfc816149da565b6000806000808486036101208112156156ac57600080fd5b60408112156156ba57600080fd5b6156c2614d78565b86516dffffffffffffffffffffffffffff811681146156e057600080fd5b815260208701516156f081614cb6565b6020820152945060607fffffffffffffffffffffffffffffffffffffffffffffffffffffffffffffffc08201121561572757600080fd5b50615730614d4f565b604086015161573e81614cb6565b815261574c60608701615624565b6020820152608086015161575f81614fc7565b604082015292506157738660a08701615636565b91506157826101008601615689565b905092959194509250565b73ffffffffffffffffffffffffffffffffffffffff8616815261ffff8516602082015260ff8416604082015260e0810161580c606083018571ffffffffffffffffffffffffffffffffffff815116825271ffffffffffffffffffffffffffffffffffff6020820151166020830152604081015160070b60408301525050565b71ffffffffffffffffffffffffffffffffffff831660c08301529695505050505050565b60006080828403121561584257600080fd5b6040516080810167ffffffffffffffff8111828210171561586557615865614d20565b8060405250809150825161587881614cb6565b8152602083015161588881614cb6565b6020820152604083015161589b81614cb6565b604082015260608301516158ae81614cb6565b6060919091015292915050565b600080600061010084860312156158d157600080fd5b6158db8585615636565b92506158ea8560608601615830565b60e0949094015192959394509192915050565b73ffffffffffffffffffffffffffffffffffffffff8616815261ffff8516602082015260ff8416604082015260e0810161597c606083018571ffffffffffffffffffffffffffffffffffff815116825271ffffffffffffffffffffffffffffffffffff6020820151166020830152604081015160070b60408301525050565b8260c08301529695505050505050565b60008060e0838503121561599f57600080fd5b6159a98484615636565b91506159b88460608501615830565b90509250929050565b71ffffffffffffffffffffffffffffffffffff81811683821601908111156107695761076961532b565b6000602082840312156159fd57600080fd5b813560ff8116811461093857600080fd5b60008251615a20818460208701614a8f565b9190910192915050565b600060208284031215615a3c57600080fd5b5051919050565b600060208284031215615a5557600080fd5b815161093881614ca8565b73ffffffffffffffffffffffffffffffffffffffff8716815273ffffffffffffffffffffffffffffffffffffffff8616602082015284604082015283606082015260a060808201526000615ab860a083018486615472565b98975050505050505050565b83815273ffffffffffffffffffffffffffffffffffffffff8316602082015260a08101611ec86040830184615576565b600060608284031215615b0657600080fd5b6107668383615636565b6fffffffffffffffffffffffffffffffff82811682821603908111156107695761076961532b565b7f4e487b7100000000000000000000000000000000000000000000000000000000600052601260045260246000fd5b808201808211156107695761076961532b565b6001815b6001841115615bb557808504811115615b9957615b9961532b565b6001841615615ba757908102905b60019390931c928002615b7e565b935093915050565b600082615bcc57506001610769565b81615bd957506000610769565b8160018114615bef5760028114615bf957615c15565b6001915050610769565b60ff841115615c0a57615c0a61532b565b50506001821b610769565b5060208310610133831016604e8410600b8410161715615c38575081810a610769565b615c637fffffffffffffffffffffffffffffffffffffffffffffffffffffffffffffffff8484615b7a565b807fffffffffffffffffffffffffffffffffffffffffffffffffffffffffffffffff04821115615c9557615c9561532b565b029392505050565b600061076660ff841683615bbd565b80820281158282048414176107695761076961532b565b600068ffffffffffffffffff831680615cde57615cde615b38565b8068ffffffffffffffffff84160491505092915050565b68ffffffffffffffffff81811683821601908111156107695761076961532b565b600082615d2557615d25615b38565b500490565b60006fffffffffffffffffffffffffffffffff831680615d4c57615d4c615b38565b806fffffffffffffffffffffffffffffffff84160491505092915050565b60007fffffffffffffffffffffffffffffffffffffffffffffffffffffffffffffffff8203615d9b57615d9b61532b565b506001019056fea26469706673582212209e0270412fac63664d180067469780e008e56d05ffedf937ba1b28bd69d7375164736f6c634300081a0033","linkReferences":{"src/libraries/VaultExternal.sol":{"VaultExternal":[{"start":2800,"length":20},{"start":5177,"length":20},{"start":6530,"length":20},{"start":6728,"length":20},{"start":12134,"length":20}]}}},"methodIdentifiers":{"TIMESTAMP_ISSUANCE_START()":"410cd41a","balanceOf(address,uint256)":"00fdd58e","balanceOfBatch(address[],uint256[])":"4e1273f4","burn(bool,(address,address,int8),uint256)":"3fc62188","claimSIR(uint256,address)":"777b1d43","collateralStates(address)":"61086e43","cumulativeSIRPerTEA(uint256)":"7a4996e8","getReserves((address,address,int8))":"fbd98edf","initialize((address,address,int8))":"3aa88670","isApprovedForAll(address,address)":"e985e9c5","mint(bool,(address,address,int8),uint144)":"32eaa625","numberOfVaults()":"7a32af78","paramsById(uint48)":"d2f3fd09","safeBatchTransferFrom(address,address,uint256[],uint256[],bytes)":"2eb2c2d6","safeTransferFrom(address,address,uint256,uint256,bytes)":"f242432a","setApprovalForAll(address,bool)":"a22cb465","supportsInterface(bytes4)":"01ffc9a7","systemParams()":"458e8e6b","totalSupply(uint256)":"bd85b039","unclaimedRewards(uint256,address)":"46f90748","updateSystemState(uint16,uint16,bool)":"5ab2cef4","updateVaults(uint48[],uint48[],uint8[],uint16)":"bb147c54","uri(uint256)":"0e89341c","vaultStates((address,address,int8))":"2edf3104","vaultTax(uint48)":"6cfcac04","withdrawFees(address)":"164e68de","withdrawToSaveSystem(address[],address)":"c7c3d2dc"},"id":59}