{"abi":[{"type":"constructor","inputs":[{"name":"systemControl","type":"address","internalType":"address"},{"name":"sir","type":"address","internalType":"address"},{"name":"oracle","type":"address","internalType":"address"}],"stateMutability":"nonpayable"},{"type":"function","name":"TIMESTAMP_ISSUANCE_START","inputs":[],"outputs":[{"name":"","type":"uint40","internalType":"uint40"}],"stateMutability":"view"},{"type":"function","name":"balanceOf","inputs":[{"name":"account","type":"address","internalType":"address"},{"name":"vaultId","type":"uint256","internalType":"uint256"}],"outputs":[{"name":"","type":"uint256","internalType":"uint256"}],"stateMutability":"view"},{"type":"function","name":"balanceOfBatch","inputs":[{"name":"owners","type":"address[]","internalType":"address[]"},{"name":"vaultIds","type":"uint256[]","internalType":"uint256[]"}],"outputs":[{"name":"balances_","type":"uint256[]","internalType":"uint256[]"}],"stateMutability":"view"},{"type":"function","name":"burn","inputs":[{"name":"isAPE","type":"bool","internalType":"bool"},{"name":"vaultParams","type":"tuple","internalType":"struct SirStructs.VaultParameters","components":[{"name":"debtToken","type":"address","internalType":"address"},{"name":"collateralToken","type":"address","internalType":"address"},{"name":"leverageTier","type":"int8","internalType":"int8"}]},{"name":"amount","type":"uint256","internalType":"uint256"}],"outputs":[{"name":"","type":"uint144","internalType":"uint144"}],"stateMutability":"nonpayable"},{"type":"function","name":"claimSIR","inputs":[{"name":"vaultId","type":"uint256","internalType":"uint256"},{"name":"lper","type":"address","internalType":"address"}],"outputs":[{"name":"","type":"uint80","internalType":"uint80"}],"stateMutability":"nonpayable"},{"type":"function","name":"collateralStates","inputs":[{"name":"token","type":"address","internalType":"address"}],"outputs":[{"name":"","type":"tuple","internalType":"struct SirStructs.CollateralState","components":[{"name":"totalFeesToStakers","type":"uint112","internalType":"uint112"},{"name":"total","type":"uint144","internalType":"uint144"}]}],"stateMutability":"view"},{"type":"function","name":"cumulativeSIRPerTEA","inputs":[{"name":"vaultId","type":"uint256","internalType":"uint256"}],"outputs":[{"name":"cumulativeSIRPerTEAx96","type":"uint176","internalType":"uint176"}],"stateMutability":"view"},{"type":"function","name":"getReserves","inputs":[{"name":"vaultParams","type":"tuple","internalType":"struct SirStructs.VaultParameters","components":[{"name":"debtToken","type":"address","internalType":"address"},{"name":"collateralToken","type":"address","internalType":"address"},{"name":"leverageTier","type":"int8","internalType":"int8"}]}],"outputs":[{"name":"","type":"tuple","internalType":"struct SirStructs.Reserves","components":[{"name":"reserveApes","type":"uint144","internalType":"uint144"},{"name":"reserveLPers","type":"uint144","internalType":"uint144"},{"name":"tickPriceX42","type":"int64","internalType":"int64"}]}],"stateMutability":"view"},{"type":"function","name":"initialize","inputs":[{"name":"vaultParams","type":"tuple","internalType":"struct SirStructs.VaultParameters","components":[{"name":"debtToken","type":"address","internalType":"address"},{"name":"collateralToken","type":"address","internalType":"address"},{"name":"leverageTier","type":"int8","internalType":"int8"}]}],"outputs":[],"stateMutability":"nonpayable"},{"type":"function","name":"isApprovedForAll","inputs":[{"name":"","type":"address","internalType":"address"},{"name":"","type":"address","internalType":"address"}],"outputs":[{"name":"","type":"bool","internalType":"bool"}],"stateMutability":"view"},{"type":"function","name":"latestTokenParams","inputs":[],"outputs":[{"name":"","type":"tuple","internalType":"struct SirStructs.TokenParameters","components":[{"name":"name","type":"string","internalType":"string"},{"name":"symbol","type":"string","internalType":"string"},{"name":"decimals","type":"uint8","internalType":"uint8"}]},{"name":"","type":"tuple","internalType":"struct SirStructs.VaultParameters","components":[{"name":"debtToken","type":"address","internalType":"address"},{"name":"collateralToken","type":"address","internalType":"address"},{"name":"leverageTier","type":"int8","internalType":"int8"}]}],"stateMutability":"view"},{"type":"function","name":"mint","inputs":[{"name":"isAPE","type":"bool","internalType":"bool"},{"name":"vaultParams","type":"tuple","internalType":"struct SirStructs.VaultParameters","components":[{"name":"debtToken","type":"address","internalType":"address"},{"name":"collateralToken","type":"address","internalType":"address"},{"name":"leverageTier","type":"int8","internalType":"int8"}]}],"outputs":[{"name":"amount","type":"uint256","internalType":"uint256"}],"stateMutability":"nonpayable"},{"type":"function","name":"numberOfVaults","inputs":[],"outputs":[{"name":"","type":"uint48","internalType":"uint48"}],"stateMutability":"view"},{"type":"function","name":"onERC1155BatchReceived","inputs":[{"name":"","type":"address","internalType":"address"},{"name":"","type":"address","internalType":"address"},{"name":"","type":"uint256[]","internalType":"uint256[]"},{"name":"","type":"uint256[]","internalType":"uint256[]"},{"name":"","type":"bytes","internalType":"bytes"}],"outputs":[{"name":"","type":"bytes4","internalType":"bytes4"}],"stateMutability":"nonpayable"},{"type":"function","name":"onERC1155Received","inputs":[{"name":"","type":"address","internalType":"address"},{"name":"","type":"address","internalType":"address"},{"name":"","type":"uint256","internalType":"uint256"},{"name":"","type":"uint256","internalType":"uint256"},{"name":"","type":"bytes","internalType":"bytes"}],"outputs":[{"name":"","type":"bytes4","internalType":"bytes4"}],"stateMutability":"nonpayable"},{"type":"function","name":"paramsById","inputs":[{"name":"vaultId","type":"uint48","internalType":"uint48"}],"outputs":[{"name":"","type":"tuple","internalType":"struct SirStructs.VaultParameters","components":[{"name":"debtToken","type":"address","internalType":"address"},{"name":"collateralToken","type":"address","internalType":"address"},{"name":"leverageTier","type":"int8","internalType":"int8"}]}],"stateMutability":"view"},{"type":"function","name":"safeBatchTransferFrom","inputs":[{"name":"from","type":"address","internalType":"address"},{"name":"to","type":"address","internalType":"address"},{"name":"vaultIds","type":"uint256[]","internalType":"uint256[]"},{"name":"amounts","type":"uint256[]","internalType":"uint256[]"},{"name":"data","type":"bytes","internalType":"bytes"}],"outputs":[],"stateMutability":"nonpayable"},{"type":"function","name":"safeTransferFrom","inputs":[{"name":"from","type":"address","internalType":"address"},{"name":"to","type":"address","internalType":"address"},{"name":"vaultId","type":"uint256","internalType":"uint256"},{"name":"amount","type":"uint256","internalType":"uint256"},{"name":"data","type":"bytes","internalType":"bytes"}],"outputs":[],"stateMutability":"nonpayable"},{"type":"function","name":"setApprovalForAll","inputs":[{"name":"operator","type":"address","internalType":"address"},{"name":"approved","type":"bool","internalType":"bool"}],"outputs":[],"stateMutability":"nonpayable"},{"type":"function","name":"supportsInterface","inputs":[{"name":"interfaceId","type":"bytes4","internalType":"bytes4"}],"outputs":[{"name":"","type":"bool","internalType":"bool"}],"stateMutability":"pure"},{"type":"function","name":"systemParams","inputs":[],"outputs":[{"name":"","type":"tuple","internalType":"struct SirStructs.SystemParameters","components":[{"name":"baseFee","type":"uint16","internalType":"uint16"},{"name":"lpFee","type":"uint16","internalType":"uint16"},{"name":"mintingStopped","type":"bool","internalType":"bool"},{"name":"cumulativeTax","type":"uint16","internalType":"uint16"}]}],"stateMutability":"view"},{"type":"function","name":"totalSupply","inputs":[{"name":"vaultId","type":"uint256","internalType":"uint256"}],"outputs":[{"name":"","type":"uint256","internalType":"uint256"}],"stateMutability":"view"},{"type":"function","name":"unclaimedRewards","inputs":[{"name":"vaultId","type":"uint256","internalType":"uint256"},{"name":"lper","type":"address","internalType":"address"}],"outputs":[{"name":"","type":"uint80","internalType":"uint80"}],"stateMutability":"view"},{"type":"function","name":"updateSystemState","inputs":[{"name":"baseFee","type":"uint16","internalType":"uint16"},{"name":"lpFee","type":"uint16","internalType":"uint16"},{"name":"mintingStopped","type":"bool","internalType":"bool"}],"outputs":[],"stateMutability":"nonpayable"},{"type":"function","name":"updateVaults","inputs":[{"name":"oldVaults","type":"uint48[]","internalType":"uint48[]"},{"name":"newVaults","type":"uint48[]","internalType":"uint48[]"},{"name":"newTaxes","type":"uint8[]","internalType":"uint8[]"},{"name":"cumulativeTax","type":"uint16","internalType":"uint16"}],"outputs":[],"stateMutability":"nonpayable"},{"type":"function","name":"uri","inputs":[{"name":"vaultId","type":"uint256","internalType":"uint256"}],"outputs":[{"name":"","type":"string","internalType":"string"}],"stateMutability":"view"},{"type":"function","name":"vaultStates","inputs":[{"name":"vaultParams","type":"tuple","internalType":"struct SirStructs.VaultParameters","components":[{"name":"debtToken","type":"address","internalType":"address"},{"name":"collateralToken","type":"address","internalType":"address"},{"name":"leverageTier","type":"int8","internalType":"int8"}]}],"outputs":[{"name":"","type":"tuple","internalType":"struct SirStructs.VaultState","components":[{"name":"reserve","type":"uint144","internalType":"uint144"},{"name":"tickPriceSatX42","type":"int64","internalType":"int64"},{"name":"vaultId","type":"uint48","internalType":"uint48"}]}],"stateMutability":"view"},{"type":"function","name":"vaultTax","inputs":[{"name":"vaultId","type":"uint48","internalType":"uint48"}],"outputs":[{"name":"","type":"uint8","internalType":"uint8"}],"stateMutability":"view"},{"type":"function","name":"withdrawFees","inputs":[{"name":"token","type":"address","internalType":"address"}],"outputs":[{"name":"totalFeesToStakers","type":"uint112","internalType":"uint112"}],"stateMutability":"nonpayable"},{"type":"function","name":"withdrawToSaveSystem","inputs":[{"name":"tokens","type":"address[]","internalType":"address[]"},{"name":"to","type":"address","internalType":"address"}],"outputs":[{"name":"amounts","type":"uint256[]","internalType":"uint256[]"}],"stateMutability":"nonpayable"},{"type":"event","name":"ApprovalForAll","inputs":[{"name":"account","type":"address","indexed":true,"internalType":"address"},{"name":"operator","type":"address","indexed":true,"internalType":"address"},{"name":"approved","type":"bool","indexed":false,"internalType":"bool"}],"anonymous":false},{"type":"event","name":"Burn","inputs":[{"name":"vaultId","type":"uint48","indexed":true,"internalType":"uint48"},{"name":"isAPE","type":"bool","indexed":false,"internalType":"bool"},{"name":"collateralWithdrawn","type":"uint144","indexed":false,"internalType":"uint144"},{"name":"collateralFeeToStakers","type":"uint144","indexed":false,"internalType":"uint144"},{"name":"collateralFeeToLPers","type":"uint144","indexed":false,"internalType":"uint144"}],"anonymous":false},{"type":"event","name":"FeesToStakers","inputs":[{"name":"collateralToken","type":"address","indexed":true,"internalType":"address"},{"name":"totalFeesToStakers","type":"uint112","indexed":false,"internalType":"uint112"}],"anonymous":false},{"type":"event","name":"Mint","inputs":[{"name":"vaultId","type":"uint48","indexed":true,"internalType":"uint48"},{"name":"isAPE","type":"bool","indexed":false,"internalType":"bool"},{"name":"collateralIn","type":"uint144","indexed":false,"internalType":"uint144"},{"name":"collateralFeeToStakers","type":"uint144","indexed":false,"internalType":"uint144"},{"name":"collateralFeeToLPers","type":"uint144","indexed":false,"internalType":"uint144"}],"anonymous":false},{"type":"event","name":"TransferBatch","inputs":[{"name":"operator","type":"address","indexed":true,"internalType":"address"},{"name":"from","type":"address","indexed":true,"internalType":"address"},{"name":"to","type":"address","indexed":true,"internalType":"address"},{"name":"vaultIds","type":"uint256[]","indexed":false,"internalType":"uint256[]"},{"name":"amounts","type":"uint256[]","indexed":false,"internalType":"uint256[]"}],"anonymous":false},{"type":"event","name":"TransferSingle","inputs":[{"name":"operator","type":"address","indexed":true,"internalType":"address"},{"name":"from","type":"address","indexed":true,"internalType":"address"},{"name":"to","type":"address","indexed":true,"internalType":"address"},{"name":"id","type":"uint256","indexed":false,"internalType":"uint256"},{"name":"amount","type":"uint256","indexed":false,"internalType":"uint256"}],"anonymous":false},{"type":"event","name":"URI","inputs":[{"name":"value","type":"string","indexed":false,"internalType":"string"},{"name":"id","type":"uint256","indexed":true,"internalType":"uint256"}],"anonymous":false},{"type":"event","name":"VaultNewTax","inputs":[{"name":"vault","type":"uint48","indexed":true,"internalType":"uint48"},{"name":"tax","type":"uint8","indexed":false,"internalType":"uint8"},{"name":"cumulativeTax","type":"uint16","indexed":false,"internalType":"uint16"}],"anonymous":false},{"type":"error","name":"LengthMismatch","inputs":[]},{"type":"error","name":"NotAuthorized","inputs":[]},{"type":"error","name":"TEAMaxSupplyExceeded","inputs":[]},{"type":"error","name":"TF","inputs":[]},{"type":"error","name":"UnsafeRecipient","inputs":[]}],"bytecode":{"object":"0x61010060405234801561001157600080fd5b506040516162263803806162268339810160408190526100309161015f565b6001600160a01b03928316608090815264ffffffffff421660a05291831660c052604080519283018152610fa08352610929602080850191909152600084830181905260609485018190526002805466ffffffffffffff19166309290fa017815593861660e05282519485018352808552908401818152918401818152600580546001810182559252935192027f036b6384b5eca791c62761152d0c79bb0604c104a5fb6f4eb0703f3154bb3db0810180549386166001600160a01b031990941693909317909255517f036b6384b5eca791c62761152d0c79bb0604c104a5fb6f4eb0703f3154bb3db19091018054925160ff16600160a01b026001600160a81b031990931691909316171790556101a2565b80516001600160a01b038116811461015a57600080fd5b919050565b60008060006060848603121561017457600080fd5b61017d84610143565b925061018b60208501610143565b915061019960408501610143565b90509250925092565b60805160a05160c05160e051616013610213600039600081816112c8015281816113e101528181611df90152612fdd015260008181610a0f01528181610ba20152611b7f015260008181610330015261403b015260008181611836015281816122cf015261272b01526160136000f3fe608060405234801561001057600080fd5b50600436106101d95760003560e01c80636cfcac0411610104578063bc197c81116100a2578063e985e9c511610071578063e985e9c51461071d578063f23a6e611461074b578063f242432a1461075e578063fbd98edf1461077157600080fd5b8063bc197c811461064c578063bd85b039146106b8578063c7c3d2dc146106ea578063d2f3fd09146106fd57600080fd5b80637a4996e8116100de5780637a4996e8146105d957806394c050f814610613578063a22cb46514610626578063bb147c541461063957600080fd5b80636cfcac041461056a578063777b1d43146105a75780637a32af78146105ba57600080fd5b80633fc621881161017c5780634e1273f41161014b5780634e1273f41461044e5780635ab2cef41461046e57806360e0970a1461048157806361086e431461049757600080fd5b80633fc62188146102f5578063410cd41a1461032b578063458e8e6b1461036857806346f907481461042057600080fd5b8063164e68de116101b8578063164e68de146102475780632eb2c2d6146102795780632edf31041461028e5780633aa88670146102e257600080fd5b8062fdd58e146101de57806301ffc9a7146102045780630e89341c14610227575b600080fd5b6101f16101ec366004614add565b610791565b6040519081526020015b60405180910390f35b610217610212366004614b37565b610825565b60405190151581526020016101fb565b61023a610235366004614b54565b610906565b6040516101fb9190614bdb565b61025a610255366004614bee565b6109f5565b6040516dffffffffffffffffffffffffffff90911681526020016101fb565b61028c610287366004614c99565b610bdd565b005b6102a161029c366004614d76565b6110e5565b60408051825171ffffffffffffffffffffffffffffffffffff16815260208084015160070b908201529181015165ffffffffffff16908201526060016101fb565b61028c6102f0366004614e73565b61123a565b610308610303366004614ed5565b61132b565b60405171ffffffffffffffffffffffffffffffffffff90911681526020016101fb565b6103527f000000000000000000000000000000000000000000000000000000000000000081565b60405164ffffffffff90911681526020016101fb565b6103da604080516080810182526000808252602082018190529181018290526060810191909152506040805160808101825260025461ffff80821683526201000082048116602084015260ff640100000000830416151593830193909352650100000000009004909116606082015290565b6040516101fb9190600060808201905061ffff835116825261ffff602084015116602083015260408301511515604083015261ffff606084015116606083015292915050565b61043361042e366004614f15565b6116fe565b60405169ffffffffffffffffffff90911681526020016101fb565b61046161045c366004614f45565b61171d565b6040516101fb9190614fb6565b61028c61047c36600461500b565b61181e565b610489611959565b6040516101fb929190615052565b61052b6104a5366004614bee565b60408051808201909152600080825260208201525073ffffffffffffffffffffffffffffffffffffffff166000908152600860209081526040918290208251808401909352546dffffffffffffffffffffffffffff811683526e010000000000000000000000000000900471ffffffffffffffffffffffffffffffffffff169082015290565b6040805182516dffffffffffffffffffffffffffff16815260209283015171ffffffffffffffffffffffffffffffffffff1692810192909252016101fb565b610595610578366004615122565b65ffffffffffff1660009081526020819052604090205460ff1690565b60405160ff90911681526020016101fb565b6104336105b5366004614f15565b611b65565b6105c2611cad565b60405165ffffffffffff90911681526020016101fb565b6105ec6105e7366004614b54565b611cc4565b60405175ffffffffffffffffffffffffffffffffffffffffffff90911681526020016101fb565b6101f161062136600461513f565b611d7b565b61028c610634366004615175565b612220565b61028c6106473660046151a3565b6122b7565b61068761065a366004614c99565b7fbc197c810000000000000000000000000000000000000000000000000000000098975050505050505050565b6040517fffffffff0000000000000000000000000000000000000000000000000000000090911681526020016101fb565b6101f16106c6366004614b54565b6000908152600460205260409020546fffffffffffffffffffffffffffffffff1690565b6104616106f836600461525a565b612711565b61071061070b366004615122565b612ac7565b6040516101fb91906152a6565b61021761072b3660046152fa565b600660209081526000928352604080842090915290825290205460ff1681565b610687610759366004615328565b612b70565b61028c61076c366004615328565b612b9c565b61078461077f366004614d76565b612f79565b6040516101fb91906153a4565b600073ffffffffffffffffffffffffffffffffffffffff831630146107e65773ffffffffffffffffffffffffffffffffffffffff8316600090815260036020908152604080832085845290915290205461081c565b60008281526004602052604090205470010000000000000000000000000000000090046fffffffffffffffffffffffffffffffff165b90505b92915050565b60007f01ffc9a7000000000000000000000000000000000000000000000000000000007fffffffff00000000000000000000000000000000000000000000000000000000831614806108b857507fd9b67a26000000000000000000000000000000000000000000000000000000007fffffffff000000000000000000000000000000000000000000000000000000008316145b8061081f5750507fffffffff00000000000000000000000000000000000000000000000000000000167f0e89341c000000000000000000000000000000000000000000000000000000001490565b6000818152600460208190526040918290205491517f3ef6287c000000000000000000000000000000000000000000000000000000008152600591810191909152602481018390526fffffffffffffffffffffffffffffffff9091166044820181905260609173__$0d913f5ea2cc8398585c34a0416dbc1ef1$__90633ef6287c90606401600060405180830381865af41580156109a8573d6000803e3d6000fd5b505050506040513d6000823e601f3d9081017fffffffffffffffffffffffffffffffffffffffffffffffffffffffffffffffe01682016040526109ee91908101906153f4565b9392505050565b60003373ffffffffffffffffffffffffffffffffffffffff7f00000000000000000000000000000000000000000000000000000000000000001614610a3957600080fd5b5073ffffffffffffffffffffffffffffffffffffffff81166000908152600860209081526040918290208251808401909352546dffffffffffffffffffffffffffff81168084526e01000000000000000000000000000090910471ffffffffffffffffffffffffffffffffffff1691830191909152908115610bd757604051806040016040528060006dffffffffffffffffffffffffffff168152602001836dffffffffffffffffffffffffffff168360200151610af791906154d7565b71ffffffffffffffffffffffffffffffffffff90811690915273ffffffffffffffffffffffffffffffffffffffff851660008181526008602090815260408083208651968301519095166e010000000000000000000000000000026dffffffffffffffffffffffffffff909616959095179093559251928352917fcd82d3b0662b3f7ad1373ff46ce247f38d4e9dd2419b198489e17f09b79cd93e910160405180910390a2610bd7837f0000000000000000000000000000000000000000000000000000000000000000846dffffffffffffffffffffffffffff16613048565b50919050565b3073ffffffffffffffffffffffffffffffffffffffff891603610c0257610c02615501565b848314610c3b576040517fff633a3800000000000000000000000000000000000000000000000000000000815260040160405180910390fd5b3373ffffffffffffffffffffffffffffffffffffffff891614801590610c92575073ffffffffffffffffffffffffffffffffffffffff8816600090815260066020908152604080832033845290915290205460ff16155b15610cc9576040517fea8e4eb500000000000000000000000000000000000000000000000000000000815260040160405180910390fd5b6040805160808101825260008082526020820181905291810182905260608101829052905b86811015610f1c576000888883818110610d0a57610d0a615530565b9050602002013590506000878784818110610d2757610d27615530565b90506020020135905060405180608001604052808d73ffffffffffffffffffffffffffffffffffffffff168152602001600360008f73ffffffffffffffffffffffffffffffffffffffff1673ffffffffffffffffffffffffffffffffffffffff16815260200190815260200160002060008581526020019081526020016000205481526020018c73ffffffffffffffffffffffffffffffffffffffff168152602001610dd38d85610791565b90526040805160808101825260025461ffff80821683526201000082048116602080850191909152640100000000830460ff90811615158587015265010000000000909304909116606080850191909152600088815280835285812086519283018752549384168252610100840464ffffffffff1692820192909252660100000000000090920475ffffffffffffffffffffffffffffffffffffffffffff1693820193909352929650610e9292859190610e8c83613181565b896131f2565b508084602001818151610ea5919061555f565b90525073ffffffffffffffffffffffffffffffffffffffff8c8116908c1614610f125760208085015173ffffffffffffffffffffffffffffffffffffffff8e16600090815260038352604080822086835290935291909120556060840151610f12908c908490840161343f565b5050600101610cee565b508773ffffffffffffffffffffffffffffffffffffffff168973ffffffffffffffffffffffffffffffffffffffff163373ffffffffffffffffffffffffffffffffffffffff167f4a39dc06d4c0dbc64b70af90fd698a233a518aa5d07e595d983b8c0526c8f7fb8a8a8a8a604051610f9794939291906155bd565b60405180910390a473ffffffffffffffffffffffffffffffffffffffff88163b1561108a576040517fbc197c81000000000000000000000000000000000000000000000000000000008082529073ffffffffffffffffffffffffffffffffffffffff8a169063bc197c819061101e9033908e908d908d908d908d908d908d90600401615638565b6020604051808303816000875af115801561103d573d6000803e3d6000fd5b505050506040513d601f19601f8201168201806040525081019061106191906156bb565b7fffffffff000000000000000000000000000000000000000000000000000000001614156110a3565b73ffffffffffffffffffffffffffffffffffffffff8816155b156110da576040517f3da6393100000000000000000000000000000000000000000000000000000000815260040160405180910390fd5b505050505050505050565b6040805160608101825260008082526020820181905291810191909152600760006111136020850185614bee565b73ffffffffffffffffffffffffffffffffffffffff1673ffffffffffffffffffffffffffffffffffffffff16815260200190815260200160002060008360200160208101906111629190614bee565b73ffffffffffffffffffffffffffffffffffffffff1673ffffffffffffffffffffffffffffffffffffffff16815260200190815260200160002060008360400160208101906111b191906156d8565b600090810b8252602080830193909352604091820190208151606081018352905471ffffffffffffffffffffffffffffffffffff811682527201000000000000000000000000000000000000810460070b938201939093527a01000000000000000000000000000000000000000000000000000090920465ffffffffffff169082015292915050565b805173ffffffffffffffffffffffffffffffffffffffff908116600090815260076020908152604080832082860151909416835292815282822083850151830b8352905281902090517fce3978b600000000000000000000000000000000000000000000000000000000815273__$0d913f5ea2cc8398585c34a0416dbc1ef1$__9163ce3978b6916112f8917f00000000000000000000000000000000000000000000000000000000000000009160059060099088906004016156f3565b60006040518083038186803b15801561131057600080fd5b505af4158015611324573d6000803e3d6000fd5b5050505050565b60008060026040518060800160405290816000820160009054906101000a900461ffff1661ffff1661ffff1681526020016000820160029054906101000a900461ffff1661ffff1661ffff1681526020016000820160049054906101000a900460ff161515151581526020016000820160059054906101000a900461ffff1661ffff1661ffff1681525050905060008060008073__$0d913f5ea2cc8398585c34a0416dbc1ef1$__63a80cf3ce60008b600860077f00000000000000000000000000000000000000000000000000000000000000008e6040518763ffffffff1660e01b8152600401611422969594939291906157b1565b61014060405180830381865af4158015611440573d6000803e3d6000fd5b505050506040513d601f19601f820116820180604052508101906114649190615888565b5060408381015165ffffffffffff1660009081526020818152828220835160608082018652915460ff81168252610100810464ffffffffff16828501526601000000000000900475ffffffffffffffffffffffffffffffffffffffffffff168186015284516080810186528481529283018490529382018390528101919091529498509296509094509250908a156115cd578273ffffffffffffffffffffffffffffffffffffffff16638c2684273389600001518560000151888e6040518663ffffffff1660e01b815260040161153f95949392919061598f565b60e0604051808303816000875af115801561155e573d6000803e3d6000fd5b505050506040513d601f19601f820116820180604052508101906115829190615a9e565b6060810151919550915071ffffffffffffffffffffffffffffffffffff16156115c8576115c86115b860408c0160208d01614bee565b86604001518684606001516134d1565b6115f1565b6115ee6115e060408c0160208d01614bee565b86604001518985888e6136bb565b90505b6115fc85858c6138d5565b611635600087836020015171ffffffffffffffffffffffffffffffffffff168d602001602081019061162e9190614bee565b8551613db9565b846040015165ffffffffffff167f7c6da711ffa6af277b820416f2daab1018c73a4fb0c4a49a38c5fb292b6c0e8b8c83600001518460200151856060015186604001516116829190615aca565b60408051941515855271ffffffffffffffffffffffffffffffffffff9384166020860152918316848301529091166060830152519081900360800190a26116ef6116d260408c0160208d01614bee565b8251339071ffffffffffffffffffffffffffffffffffff16613048565b519a9950505050505050505050565b600061081c838361170f8587610791565b61171887611cc4565b613ef0565b6060838214611758576040517fff633a3800000000000000000000000000000000000000000000000000000000815260040160405180910390fd5b8367ffffffffffffffff81111561177157611771614d92565b60405190808252806020026020018201604052801561179a578160200160208202803683370190505b50905060005b84811015611815576117f08686838181106117bd576117bd615530565b90506020020160208101906117d29190614bee565b8585848181106117e4576117e4615530565b90506020020135610791565b82828151811061180257611802615530565b60209081029190910101526001016117a0565b50949350505050565b3373ffffffffffffffffffffffffffffffffffffffff7f0000000000000000000000000000000000000000000000000000000000000000161461186057600080fd5b60408051608080820183526002805461ffff808216855262010000808304821660208088019190915264010000000080850460ff161515888a01526501000000000080860485166060998a019081528a519889018b529c85168089529b85169288018390529915159887018990529a51909216949095018490527fffffffffffffffffffffffffffffffffffffffffffffffffffffffff0000000090911690961795909202949094177fffffffffffffffffffffffffffffffffffffffffffffffffff000000ffffffff16919094027fffffffffffffffffffffffffffffffffffffffffffffffffff0000ffffffffff16179102179055565b60408051606080820183528082526020820152600091810191909152604080516060810182526000808252602082018190529181019190915260058054600991906119a69060019061555f565b815481106119b6576119b6615530565b9060005260206000209060020201816040518060600160405290816000820180546119e090615af4565b80601f0160208091040260200160405190810160405280929190818152602001828054611a0c90615af4565b8015611a595780601f10611a2e57610100808354040283529160200191611a59565b820191906000526020600020905b815481529060010190602001808311611a3c57829003601f168201915b50505050508152602001600182018054611a7290615af4565b80601f0160208091040260200160405190810160405280929190818152602001828054611a9e90615af4565b8015611aeb5780601f10611ac057610100808354040283529160200191611aeb565b820191906000526020600020905b815481529060010190602001808311611ace57829003601f168201915b50505091835250506002919091015460ff1660209182015260408051606081018252845473ffffffffffffffffffffffffffffffffffffffff9081168252600190950154948516928101929092527401000000000000000000000000000000000000000090930460000b9281019290925294909350915050565b60003373ffffffffffffffffffffffffffffffffffffffff7f00000000000000000000000000000000000000000000000000000000000000001614611ba957600080fd5b600060405180608001604052808473ffffffffffffffffffffffffffffffffffffffff168152602001611bdc8587610791565b8152600060208083018290526040928301829052825160808101845260025461ffff8082168352620100008204811683850152640100000000820460ff90811615158488015265010000000000909204166060808401919091528a85528484529385902085519485018652549081168452610100810464ffffffffff1692840192909252660100000000000090910475ffffffffffffffffffffffffffffffffffffffffffff1692820192909252919250611ca5916001918791611c9f83613181565b866131f2565b949350505050565b600554600090611cbf9060019061555f565b905090565b6040805160808101825260025461ffff80821683526201000082048116602080850191909152640100000000830460ff90811615158587015265010000000000909304909116606080850191909152600086815280835285812086519283018752549384168252610100840464ffffffffff1692820192909252660100000000000090920475ffffffffffffffffffffffffffffffffffffffffffff169382019390935261081f9190611d7685613181565b613fdb565b6040805160808101825260025461ffff80821683526201000082048116602084015260ff6401000000008304161580159484019490945265010000000000909104166060820152600091611dce57600080fd5b600080600080600073__$0d913f5ea2cc8398585c34a0416dbc1ef1$__63a80cf3ce60018b600860077f00000000000000000000000000000000000000000000000000000000000000008e6040518763ffffffff1660e01b8152600401611e3a969594939291906157b1565b61014060405180830381865af4158015611e58573d6000803e3d6000fd5b505050506040513d601f19601f82011682018060405250810190611e7c9190615888565b60408481015165ffffffffffff1660009081526020818152828220835160608082018652915460ff81168252610100810464ffffffffff16828501526601000000000000900475ffffffffffffffffffffffffffffffffffffffffffff16818601528451608081018652848152928301849052938201839052810191909152959a5093985091965094509250908a15611ffd57875182516040517f6bc601d700000000000000000000000000000000000000000000000000000000815273ffffffffffffffffffffffffffffffffffffffff871692636bc601d792611f6b92339291908b908a90600401615b41565b610100604051808303816000875af1158015611f8b573d6000803e3d6000fd5b505050506040513d601f19601f82011682018060405250810190611faf9190615be4565b6060820151909b50919650915071ffffffffffffffffffffffffffffffffffff1615611ff857611ff8611fe860408c0160208d01614bee565b87604001518784606001516134d1565b612023565b61201e61201060408c0160208d01614bee565b87604001518a858988614167565b995090505b61202e86868c6138d5565b612066600188836020015171ffffffffffffffffffffffffffffffffffff168d60200160208101906120609190614bee565b87613db9565b856040015165ffffffffffff167f2ea082b0ce379480d9dfb0d7ab365e33def58ee2bee64887c13e531723b5c8818c8360000151846020015185606001518660400151016040516120e99493929190931515845271ffffffffffffffffffffffffffffffffffff9283166020850152908216604084015216606082015260800190565b60405180910390a28a1580156120ff5750333b15155b80156121db575060408087015190517ff23a6e6100000000000000000000000000000000000000000000000000000000808252336004830181905260006024840181905265ffffffffffff9094166044840152606483018d905260a0608484015260a4830193909352919063f23a6e619060c4016020604051808303816000875af1158015612192573d6000803e3d6000fd5b505050506040513d601f19601f820116820180604052508101906121b691906156bb565b7fffffffff000000000000000000000000000000000000000000000000000000001614155b15612212576040517f3da6393100000000000000000000000000000000000000000000000000000000815260040160405180910390fd5b505050505050505092915050565b33600081815260066020908152604080832073ffffffffffffffffffffffffffffffffffffffff87168085529083529281902080547fffffffffffffffffffffffffffffffffffffffffffffffffffffffffffffff001686151590811790915590519081529192917f17307eab39ab6107e8899845ad3d59bd9653f200f220920489ca2b5937696c31910160405180910390a35050565b3373ffffffffffffffffffffffffffffffffffffffff7f000000000000000000000000000000000000000000000000000000000000000016146122f957600080fd5b6000805b878110156124cc5761233c89898381811061231a5761231a615530565b905060200201602081019061232f9190615122565b65ffffffffffff16611cc4565b91506040518060600160405280600060ff1681526020014264ffffffffff1681526020018375ffffffffffffffffffffffffffffffffffffffffffff168152506000808b8b8581811061239157612391615530565b90506020020160208101906123a69190615122565b65ffffffffffff16815260208082019290925260409081016000208351815493850151949092015175ffffffffffffffffffffffffffffffffffffffffffff166601000000000000027fffffffff00000000000000000000000000000000000000000000ffffffffffff64ffffffffff909516610100027fffffffffffffffffffffffffffffffffffffffffffffffffffff00000000000090941660ff90931692909217929092179290921691909117905588888281811061246a5761246a615530565b905060200201602081019061247f9190615122565b604080516000808252602082015265ffffffffffff92909216917fc05b4c85e1a9e164c2764407bce9e5955a2e6435dea37ef8c4e62ec458ebf21a910160405180910390a26001016122fd565b5060005b858110156126cb576124ed87878381811061231a5761231a615530565b9150604051806060016040528086868481811061250c5761250c615530565b90506020020160208101906125219190615c26565b60ff1681526020014264ffffffffff1681526020018375ffffffffffffffffffffffffffffffffffffffffffff1681525060008089898581811061256757612567615530565b905060200201602081019061257c9190615122565b65ffffffffffff16815260208082019290925260409081016000208351815493850151949092015175ffffffffffffffffffffffffffffffffffffffffffff166601000000000000027fffffffff00000000000000000000000000000000000000000000ffffffffffff64ffffffffff909516610100027fffffffffffffffffffffffffffffffffffffffffffffffffffff00000000000090941660ff90931692909217929092179290921691909117905586868281811061264057612640615530565b90506020020160208101906126559190615122565b65ffffffffffff167fc05b4c85e1a9e164c2764407bce9e5955a2e6435dea37ef8c4e62ec458ebf21a86868481811061269057612690615530565b90506020020160208101906126a59190615c26565b6040805160ff909216825261ffff871660208301520160405180910390a26001016124d0565b50506002805461ffff90921665010000000000027fffffffffffffffffffffffffffffffffffffffffffffffffff0000ffffffffff909216919091179055505050505050565b60603373ffffffffffffffffffffffffffffffffffffffff7f0000000000000000000000000000000000000000000000000000000000000000161461275557600080fd5b8267ffffffffffffffff81111561276e5761276e614d92565b604051908082528060200260200182016040528015612797578160200160208202803683370190505b5090506000606060005b85811015612abd578686828181106127bb576127bb615530565b90506020020160208101906127d09190614bee565b604080513060248083019190915282518083039091018152604490910182526020810180517bffffffffffffffffffffffffffffffffffffffffffffffffffffffff167f70a0823100000000000000000000000000000000000000000000000000000000179052905173ffffffffffffffffffffffffffffffffffffffff929092169161285d9190615c49565b6000604051808303816000865af19150503d806000811461289a576040519150601f19603f3d011682016040523d82523d6000602084013e61289f565b606091505b5090935091508280156128b3575081516020145b15612ab557818060200190518101906128cc9190615c65565b8482815181106128de576128de615530565b60200260200101818152505060008482815181106128fe576128fe615530565b60200260200101511115612ab55786868281811061291e5761291e615530565b90506020020160208101906129339190614bee565b73ffffffffffffffffffffffffffffffffffffffff1663a9059cbb60e01b8686848151811061296457612964615530565b602090810291909101015160405173ffffffffffffffffffffffffffffffffffffffff90921660248301526044820152606401604080517fffffffffffffffffffffffffffffffffffffffffffffffffffffffffffffffe08184030181529181526020820180517bffffffffffffffffffffffffffffffffffffffffffffffffffffffff167fffffffff00000000000000000000000000000000000000000000000000000000909416939093179092529051612a209190615c49565b6000604051808303816000865af19150503d8060008114612a5d576040519150601f19603f3d011682016040523d82523d6000602084013e612a62565b606091505b509093509150828015612a8d575081511580612a8d575081806020019051810190612a8d9190615c7e565b925082612ab5576000848281518110612aa857612aa8615530565b6020026020010181815250505b6001016127a1565b5050509392505050565b604080516060810182526000808252602082018190529181019190915260058265ffffffffffff1681548110612aff57612aff615530565b60009182526020808320604080516060810182526002909402909101805473ffffffffffffffffffffffffffffffffffffffff9081168552600190910154908116928401929092527401000000000000000000000000000000000000000090910490920b9181019190915292915050565b7ff23a6e61000000000000000000000000000000000000000000000000000000005b9695505050505050565b3073ffffffffffffffffffffffffffffffffffffffff871603612bc157612bc1615501565b3373ffffffffffffffffffffffffffffffffffffffff871614801590612c18575073ffffffffffffffffffffffffffffffffffffffff8616600090815260066020908152604080832033845290915290205460ff16155b15612c4f576040517fea8e4eb500000000000000000000000000000000000000000000000000000000815260040160405180910390fd5b6040805160808101825273ffffffffffffffffffffffffffffffffffffffff808916808352600090815260036020908152848220898352815284822054908401529088169282019290925260608101612ca88888610791565b90526040805160808101825260025461ffff80821683526201000082048116602080850191909152640100000000830460ff9081161515858701526501000000000090930490911660608085019190915260008b815280835285812086519283018752549384168252610100840464ffffffffff1692820192909252660100000000000090920475ffffffffffffffffffffffffffffffffffffffffffff1693820193909352929350612d6192889190611c9f83613181565b508381602001818151612d74919061555f565b90525073ffffffffffffffffffffffffffffffffffffffff87811690871614612de15760208082015173ffffffffffffffffffffffffffffffffffffffff8916600090815260038352604080822089835290935291909120556060810151612de19087908790870161343f565b604080518681526020810186905273ffffffffffffffffffffffffffffffffffffffff80891692908a169133917fc3d58168c5ae7397731d063d5bbf3d657854427343f4c083240f7aacaa2d0f62910160405180910390a473ffffffffffffffffffffffffffffffffffffffff86163b15612f20576040517ff23a6e61000000000000000000000000000000000000000000000000000000008082529073ffffffffffffffffffffffffffffffffffffffff88169063f23a6e6190612eb49033908c908b908b908b908b90600401615c9b565b6020604051808303816000875af1158015612ed3573d6000803e3d6000fd5b505050506040513d601f19601f82011682018060405250810190612ef791906156bb565b7fffffffff00000000000000000000000000000000000000000000000000000000161415612f39565b73ffffffffffffffffffffffffffffffffffffffff8616155b15612f70576040517f3da6393100000000000000000000000000000000000000000000000000000000815260040160405180910390fd5b50505050505050565b604080516060810182526000808252602082018190528183015290517f94215a4c00000000000000000000000000000000000000000000000000000000815273__$0d913f5ea2cc8398585c34a0416dbc1ef1$__906394215a4c90613007906007907f0000000000000000000000000000000000000000000000000000000000000000908790600401615cff565b606060405180830381865af4158015613024573d6000803e3d6000fd5b505050506040513d601f19601f8201168201806040525081019061081f9190615d2f565b6040805173ffffffffffffffffffffffffffffffffffffffff8481166024830152604480830185905283518084039091018152606490920183526020820180517bffffffffffffffffffffffffffffffffffffffffffffffffffffffff167fa9059cbb0000000000000000000000000000000000000000000000000000000017905291516000928392908716916130df9190615c49565b6000604051808303816000865af19150503d806000811461311c576040519150601f19603f3d011682016040523d82523d6000602084013e613121565b606091505b509150915081801561314b57508051158061314b57508080602001905181019061314b9190615c7e565b611324576040517f8b98626500000000000000000000000000000000000000000000000000000000815260040160405180910390fd5b60008181526004602090815260408083208151808301909252546fffffffffffffffffffffffffffffffff8082168084527001000000000000000000000000000000009092041692820183905290916131d991615d4b565b6fffffffffffffffffffffffffffffffff169392505050565b600080613200868686613fdb565b9050613216878460000151856020015184613ef0565b915060405180604001604052808275ffffffffffffffffffffffffffffffffffffffffffff1681526020018961324c578361324f565b60005b69ffffffffffffffffffff9081169091526000898152600160209081526040808320885173ffffffffffffffffffffffffffffffffffffffff908116855290835292819020855195909201519093167601000000000000000000000000000000000000000000000275ffffffffffffffffffffffffffffffffffffffffffff909416939093179092558401511630146133a65760405180604001604052808275ffffffffffffffffffffffffffffffffffffffffffff16815260200161331f898660400151876060015186613ef0565b69ffffffffffffffffffff90811690915260008981526001602090815260408083208882015173ffffffffffffffffffffffffffffffffffffffff1684528252909120835193909101519091167601000000000000000000000000000000000000000000000275ffffffffffffffffffffffffffffffffffffffffffff9092169190911790555b60009687526020879052604090962080547fffffffff000000000000000000000000000000000000000000000000000000ff16660100000000000075ffffffffffffffffffffffffffffffffffffffffffff909816979097027fffffffffffffffffffffffffffffffffffffffffffffffffffff0000000000ff16969096176101004264ffffffffff1602179095555092949350505050565b3073ffffffffffffffffffffffffffffffffffffffff84160361349d57600082815260046020526040902080546fffffffffffffffffffffffffffffffff808416700100000000000000000000000000000000029116179055505050565b73ffffffffffffffffffffffffffffffffffffffff9290921660009081526003602090815260408083209383529290522055565b65ffffffffffff831660009081526004602090815260408083208151808301909252546fffffffffffffffffffffffffffffffff80821680845270010000000000000000000000000000000090920416928201929092529190156135815761357c82600001516fffffffffffffffffffffffffffffffff168471ffffffffffffffffffffffffffffffffffff16866020015171ffffffffffffffffffffffffffffffffffff1661440e565b613591565b61359186856020015185016144da565b825190915061ffff6f140eb6ae00000000000000000000000004036fffffffffffffffffffffffffffffffff168111156135f7576040517f6deac20700000000000000000000000000000000000000000000000000000000815260040160405180910390fd5b602082810180516fffffffffffffffffffffffffffffffff908401811682528451840181168552868301805171ffffffffffffffffffffffffffffffffffff90880116905265ffffffffffff8816600081815260048552604080822088519551851670010000000000000000000000000000000002959094169490941790925582519081529283018490523092909133917fc3d58168c5ae7397731d063d5bbf3d657854427343f4c083240f7aacaa2d0f62910160405180910390a4505050505050565b604080516080808201835260008083526020808401829052838501829052606080850183905265ffffffffffff8b16808452600483528684208751808901895290546fffffffffffffffffffffffffffffffff8082168352700100000000000000000000000000000000909104811682860190815233808852600387528a882085895287528a8820548b51998a018c5290895295880186905230998801999099529286018590529651875196979693959461377e9490938d928d920316866131f2565b5060006137ba876020015171ffffffffffffffffffffffffffffffffffff168786600001516fffffffffffffffffffffffffffffffff1661440e565b9050828611156137c957600080fd5b33600090815260036020908152604080832065ffffffffffff8e1684528252909120878503905584518790036fffffffffffffffffffffffffffffffff168552878101805183900371ffffffffffffffffffffffffffffffffffff169052890151885161383d918d918d9188918c876146ea565b65ffffffffffff8b16600081815260046020908152604080832089518a8401516fffffffffffffffffffffffffffffffff90811670010000000000000000000000000000000002911617905580519384529083018a905292975091339182917fc3d58168c5ae7397731d063d5bbf3d657854427343f4c083240f7aacaa2d0f62910160405180910390a4505050509695505050505050565b602082015182510171ffffffffffffffffffffffffffffffffffff168084526002111561390157600080fd5b815171ffffffffffffffffffffffffffffffffffff1660000361393157677fffffffffffffff6020840152613c33565b816020015171ffffffffffffffffffffffffffffffffffff1660000361397c577fffffffffffffffffffffffffffffffffffffffffffffffff80000000000000006020840152613c33565b60008061398f60608401604085016156d8565b60000b12156139b0576139a860608301604084016156d8565b6000036139c0565b6139c060608301604084016156d8565b90506000806139d560608501604086016156d8565b60000b1315613a18576020840151845171ffffffffffffffffffffffffffffffffffff918216911660ff84161b1015613a1057506001613a4e565b506000613a4e565b6020840151845171ffffffffffffffffffffffffffffffffffff91821660ff85161b91161015613a4a57506001613a4e565b5060005b8015613b42576000613acd81613a6a60608701604088016156d8565b60000b1215613a9357865171ffffffffffffffffffffffffffffffffffff1660ff85161b613aaa565b865171ffffffffffffffffffffffffffffffffffff165b865171ffffffffffffffffffffffffffffffffffff1660ff861681901b016148c9565b60070b9050600080613ae560608701604088016156d8565b60000b1215613afa578360ff1682901b613b02565b8360ff1682901d5b604087015160070b019050677fffffffffffffff811315613b3057677fffffffffffffff6020880152613b3b565b600781900b60208801525b5050613c30565b6000613bbe81613b5860608701604088016156d8565b60000b1215613b7c57865171ffffffffffffffffffffffffffffffffffff16613b98565b865171ffffffffffffffffffffffffffffffffffff1660ff85161b5b602087015171ffffffffffffffffffffffffffffffffffff1660ff861681901b016148c9565b6040860151600791820b9250900b8190037fffffffffffffffffffffffffffffffffffffffffffffffff8000000000000000811215613c22577fffffffffffffffffffffffffffffffffffffffffffffffff80000000000000006020880152613c2d565b600781900b60208801525b50505b50505b8260076000613c456020850185614bee565b73ffffffffffffffffffffffffffffffffffffffff1673ffffffffffffffffffffffffffffffffffffffff1681526020019081526020016000206000836020016020810190613c949190614bee565b73ffffffffffffffffffffffffffffffffffffffff1673ffffffffffffffffffffffffffffffffffffffff1681526020019081526020016000206000836040016020810190613ce391906156d8565b600090810b8252602080830193909352604091820190208351815493850151949092015165ffffffffffff167a0100000000000000000000000000000000000000000000000000000279ffffffffffffffffffffffffffffffffffffffffffffffffffff67ffffffffffffffff9095167201000000000000000000000000000000000000027fffffffffffff000000000000000000000000000000000000000000000000000090941671ffffffffffffffffffffffffffffffffffff909316929092179290921792909216919091179055505050565b8351600090613dd99085906dffffffffffffffffffffffffffff16615da2565b90506dffffffffffffffffffffffffffff811115613df657600080fd5b6040518060400160405280826dffffffffffffffffffffffffffff16815260200187613e3157838760200151613e2c91906154d7565b613e41565b838760200151613e419190615aca565b71ffffffffffffffffffffffffffffffffffff90811690915273ffffffffffffffffffffffffffffffffffffffff85166000818152600860209081526040918290208551868301519095166e010000000000000000000000000000026dffffffffffffffffffffffffffff95861617905590519285168352929750917fcd82d3b0662b3f7ad1373ff46ce247f38d4e9dd2419b198489e17f09b79cd93e910160405180910390a2505050505050565b60003073ffffffffffffffffffffffffffffffffffffffff851603613f1757506000611ca5565b600085815260016020908152604080832073ffffffffffffffffffffffffffffffffffffffff88168452825280832081518083019092525475ffffffffffffffffffffffffffffffffffffffffffff81168252760100000000000000000000000000000000000000000000900469ffffffffffffffffffff169181019190915290849003613faa57602001519050611ca5565b8051602090910151920375ffffffffffffffffffffffffffffffffffffffffffff169290920260601c019392505050565b6040820151825160ff161580159061400557504264ffffffffff16836020015164ffffffffff1614155b801561401057508115155b156109ee57836060015161ffff16836000015160ff16111561403457614034615501565b60208301517f00000000000000000000000000000000000000000000000000000000000000006305a39a800164ffffffffff80821690831610156140dd576060860151855160009161ffff169060ff166527d6140eb6ae028161409957614099615d73565b0490508460608464ffffffffff168464ffffffffff1642116140bb57426140c4565b8464ffffffffff165b038302901b816140d6576140d6615d73565b0484019350505b8064ffffffffff164264ffffffffff16111561415e576060860151855160009161ffff169060ff16653a1cc4899936028161411a5761411a615d73565b0490508460608364ffffffffff168564ffffffffff161161413b578361413d565b845b64ffffffffff1642038302901b8161415757614157615d73565b0484019350505b50509392505050565b60408051608081018252600080825260208201819052918101829052606081019190915265ffffffffffff861660008181526004602090815260408083208151808301835290546fffffffffffffffffffffffffffffffff80821683527001000000000000000000000000000000009091048116828501908152338087526003865284872088885286528487205485516080810187529182529581018690523094810194909452606084018690525182519596929561423293889390928e928e9291900316866131f2565b5061424a8b8b858c602001518c600001518c8c6146ea565b83519095506fffffffffffffffffffffffffffffffff16156142bc576142b783600001516fffffffffffffffffffffffffffffffff16866000015171ffffffffffffffffffffffffffffffffffff16896020015171ffffffffffffffffffffffffffffffffffff1661440e565b6142d0565b6142d08b88602001518760000151016144da565b835190945061ffff6f140eb6ae00000000000000000000000004036fffffffffffffffffffffffffffffffff16841115614336576040517f6deac20700000000000000000000000000000000000000000000000000000000815260040160405180910390fd5b33600081815260036020908152604080832065ffffffffffff8f16808552908352818420878a01905587516fffffffffffffffffffffffffffffffff908a01811689528a518d8501805171ffffffffffffffffffffffffffffffffffff92019190911690528185526004845282852089518a8601518316700100000000000000000000000000000000029216919091179055815190815291820188905283917fc3d58168c5ae7397731d063d5bbf3d657854427343f4c083240f7aacaa2d0f62910160405180910390a4505050965096945050505050565b600080807fffffffffffffffffffffffffffffffffffffffffffffffffffffffffffffffff85870985870292508281108382030391505080600003614465576000841161445a57600080fd5b5082900490506109ee565b80841161447157600080fd5b60008486880960026001871981018816978890046003810283188082028403028082028403028082028403028082028403028082028403029081029092039091026000889003889004909101858311909403939093029303949094049190911702949350505050565b6000808373ffffffffffffffffffffffffffffffffffffffff166318160ddd6040518163ffffffff1660e01b8152600401602060405180830381865afa158015614528573d6000803e3d6000fd5b505050506040513d601f19601f8201168201806040525081019061454c9190615c65565b905061ffff606067016345785d8a00006301e13380600161456f600c600a615ed8565b61457d9063781a75c0615ee7565b614587919061555f565b6145919190615efe565b61459c906001615f30565b6145b89068ffffffffffffffffff1666f38a31408ae338615ee7565b6145c29190615f51565b68ffffffffffffffffff166fffffffffffffffffffffffffffffffff16901b6145eb9190615f65565b6fffffffffffffffffffffffffffffffff16811161461d578271ffffffffffffffffffffffffffffffffffff16611ca5565b611ca561ffff606067016345785d8a00006301e133806001614641600c600a615ed8565b61464f9063781a75c0615ee7565b614659919061555f565b6146639190615efe565b61466e906001615f30565b61468a9068ffffffffffffffffff1666f38a31408ae338615ee7565b6146949190615f51565b68ffffffffffffffffff166fffffffffffffffffffffffffffffffff16901b6146bd9190615f65565b6fffffffffffffffffffffffffffffffff168471ffffffffffffffffffffffffffffffffffff168361440e565b604080516080810182526000808252602082018190529181018290526060810191909152614719828686614a0d565b604081015160208501805190910171ffffffffffffffffffffffffffffffffffff16905286519091506000906fffffffffffffffffffffffffffffffff16156147b2576147ad87600001516fffffffffffffffffffffffffffffffff16836060015171ffffffffffffffffffffffffffffffffffff16866020015171ffffffffffffffffffffffffffffffffffff1661440e565b6147c6565b6147c68985602001518460600151016144da565b875190915061ffff6f140eb6ae00000000000000000000000004036fffffffffffffffffffffffffffffffff1681111561482c576040517f6deac20700000000000000000000000000000000000000000000000000000000815260040160405180910390fd5b6020878101805183016fffffffffffffffffffffffffffffffff908116909152885183011688526060830151858201805190910171ffffffffffffffffffffffffffffffffffff1690526040805165ffffffffffff8b168152918201839052309160009133917fc3d58168c5ae7397731d063d5bbf3d657854427343f4c083240f7aacaa2d0f62910160405180910390a450979650505050505050565b6000818310156148db576148db615501565b816000036148eb576148eb615501565b60008284816148fc576148fc615d73565b0490506fffffffffffffffffffffffffffffffff811160071b81811c67ffffffffffffffff811160061b90811c63ffffffff811160051b90811c61ffff811160041b90811c60ff8111600390811b91821c600f811160021b90811c918211600190811b92831c9790881196179094179092171790911717176080811061498a57607f810383901c915061499e565b61499b8682607f0360020a8761440e565b91505b603781901b60015b603781116149db57838402607f1c93508360801c80826037031b8317925084811c945050806149d490615fa5565b90506149a6565b5060c0614a008277d89e8c075c4155dd3213326cbbcf86fd1f63f5c205dd2ad2615ee7565b901c979650505050505050565b60408051608081018252600080825260208201819052918101829052606081019190915261271061ffff841681018071ffffffffffffffffffffffffffffffffffff8716830281614a6057614a60615d73565b0471ffffffffffffffffffffffffffffffffffff9081168085526109f69703811660ff95909516850296909604861660208401819052600a850487166060850181905294039390930390941660408201529392505050565b73ffffffffffffffffffffffffffffffffffffffff81168114614ada57600080fd5b50565b60008060408385031215614af057600080fd5b8235614afb81614ab8565b946020939093013593505050565b7fffffffff0000000000000000000000000000000000000000000000000000000081168114614ada57600080fd5b600060208284031215614b4957600080fd5b81356109ee81614b09565b600060208284031215614b6657600080fd5b5035919050565b60005b83811015614b88578181015183820152602001614b70565b50506000910152565b60008151808452614ba9816020860160208601614b6d565b601f017fffffffffffffffffffffffffffffffffffffffffffffffffffffffffffffffe0169290920160200192915050565b60208152600061081c6020830184614b91565b600060208284031215614c0057600080fd5b81356109ee81614ab8565b60008083601f840112614c1d57600080fd5b50813567ffffffffffffffff811115614c3557600080fd5b6020830191508360208260051b8501011115614c5057600080fd5b9250929050565b60008083601f840112614c6957600080fd5b50813567ffffffffffffffff811115614c8157600080fd5b602083019150836020828501011115614c5057600080fd5b60008060008060008060008060a0898b031215614cb557600080fd5b8835614cc081614ab8565b97506020890135614cd081614ab8565b9650604089013567ffffffffffffffff811115614cec57600080fd5b614cf88b828c01614c0b565b909750955050606089013567ffffffffffffffff811115614d1857600080fd5b614d248b828c01614c0b565b909550935050608089013567ffffffffffffffff811115614d4457600080fd5b614d508b828c01614c57565b999c989b5096995094979396929594505050565b600060608284031215610bd757600080fd5b600060608284031215614d8857600080fd5b61081c8383614d64565b7f4e487b7100000000000000000000000000000000000000000000000000000000600052604160045260246000fd5b6040516060810167ffffffffffffffff81118282101715614de457614de4614d92565b60405290565b6040805190810167ffffffffffffffff81118282101715614de457614de4614d92565b604051601f82017fffffffffffffffffffffffffffffffffffffffffffffffffffffffffffffffe016810167ffffffffffffffff81118282101715614e5457614e54614d92565b604052919050565b8035600081900b8114614e6e57600080fd5b919050565b60006060828403128015614e8657600080fd5b50614e8f614dc1565b8235614e9a81614ab8565b81526020830135614eaa81614ab8565b6020820152614ebb60408401614e5c565b60408201529392505050565b8015158114614ada57600080fd5b600080600060a08486031215614eea57600080fd5b8335614ef581614ec7565b9250614f048560208601614d64565b929592945050506080919091013590565b60008060408385031215614f2857600080fd5b823591506020830135614f3a81614ab8565b809150509250929050565b60008060008060408587031215614f5b57600080fd5b843567ffffffffffffffff811115614f7257600080fd5b614f7e87828801614c0b565b909550935050602085013567ffffffffffffffff811115614f9e57600080fd5b614faa87828801614c0b565b95989497509550505050565b602080825282518282018190526000918401906040840190835b81811015614fee578351835260209384019390920191600101614fd0565b509095945050505050565b803561ffff81168114614e6e57600080fd5b60008060006060848603121561502057600080fd5b61502984614ff9565b925061503760208501614ff9565b9150604084013561504781614ec7565b809150509250925092565b60808152600083516060608084015261506e60e0840182614b91565b905060208501517fffffffffffffffffffffffffffffffffffffffffffffffffffffffffffffff808483030160a08501526150a98282614b91565b604087015160ff1660c086015292506109ee915050602083018473ffffffffffffffffffffffffffffffffffffffff815116825273ffffffffffffffffffffffffffffffffffffffff6020820151166020830152604081015160000b60408301525050565b65ffffffffffff81168114614ada57600080fd5b60006020828403121561513457600080fd5b81356109ee8161510e565b6000806080838503121561515257600080fd5b823561515d81614ec7565b915061516c8460208501614d64565b90509250929050565b6000806040838503121561518857600080fd5b823561519381614ab8565b91506020830135614f3a81614ec7565b60008060008060008060006080888a0312156151be57600080fd5b873567ffffffffffffffff8111156151d557600080fd5b6151e18a828b01614c0b565b909850965050602088013567ffffffffffffffff81111561520157600080fd5b61520d8a828b01614c0b565b909650945050604088013567ffffffffffffffff81111561522d57600080fd5b6152398a828b01614c0b565b909450925061524c905060608901614ff9565b905092959891949750929550565b60008060006040848603121561526f57600080fd5b833567ffffffffffffffff81111561528657600080fd5b61529286828701614c0b565b909450925050602084013561504781614ab8565b6060810161081f828473ffffffffffffffffffffffffffffffffffffffff815116825273ffffffffffffffffffffffffffffffffffffffff6020820151166020830152604081015160000b60408301525050565b6000806040838503121561530d57600080fd5b823561531881614ab8565b91506020830135614f3a81614ab8565b60008060008060008060a0878903121561534157600080fd5b863561534c81614ab8565b9550602087013561535c81614ab8565b94506040870135935060608701359250608087013567ffffffffffffffff81111561538657600080fd5b61539289828a01614c57565b979a9699509497509295939492505050565b6060810161081f828471ffffffffffffffffffffffffffffffffffff815116825271ffffffffffffffffffffffffffffffffffff6020820151166020830152604081015160070b60408301525050565b60006020828403121561540657600080fd5b815167ffffffffffffffff81111561541d57600080fd5b8201601f8101841361542e57600080fd5b805167ffffffffffffffff81111561544857615448614d92565b61547960207fffffffffffffffffffffffffffffffffffffffffffffffffffffffffffffffe0601f84011601614e0d565b81815285602083850101111561548e57600080fd5b61549f826020830160208601614b6d565b95945050505050565b7f4e487b7100000000000000000000000000000000000000000000000000000000600052601160045260246000fd5b71ffffffffffffffffffffffffffffffffffff828116828216039081111561081f5761081f6154a8565b7f4e487b7100000000000000000000000000000000000000000000000000000000600052600160045260246000fd5b7f4e487b7100000000000000000000000000000000000000000000000000000000600052603260045260246000fd5b8181038181111561081f5761081f6154a8565b81835260007f07ffffffffffffffffffffffffffffffffffffffffffffffffffffffffffffff8311156155a457600080fd5b8260051b80836020870137939093016020019392505050565b6040815260006155d1604083018688615572565b82810360208401526155e4818587615572565b979650505050505050565b8183528181602085013750600060208284010152600060207fffffffffffffffffffffffffffffffffffffffffffffffffffffffffffffffe0601f840116840101905092915050565b73ffffffffffffffffffffffffffffffffffffffff8916815273ffffffffffffffffffffffffffffffffffffffff8816602082015260a06040820152600061568460a08301888a615572565b8281036060840152615697818789615572565b905082810360808401526156ac8185876155ef565b9b9a5050505050505050505050565b6000602082840312156156cd57600080fd5b81516109ee81614b09565b6000602082840312156156ea57600080fd5b61081c82614e5c565b73ffffffffffffffffffffffffffffffffffffffff868116825260208083018790526040808401879052606084018690528451831660808501529084015190911660a083015282015160000b60c082015260e08101612b92565b803561575881614ab8565b73ffffffffffffffffffffffffffffffffffffffff168252602081013561577e81614ab8565b73ffffffffffffffffffffffffffffffffffffffff1660208301526157a560408201614e5c565b60000b60408301525050565b86151581528515156020820152604081018590526060810184905273ffffffffffffffffffffffffffffffffffffffff8316608082015261010081016155e460a083018461574d565b805171ffffffffffffffffffffffffffffffffffff81168114614e6e57600080fd5b8051600781900b8114614e6e57600080fd5b60006060828403121561584057600080fd5b615848614dc1565b9050615853826157fa565b8152615861602083016157fa565b60208201526158726040830161581c565b604082015292915050565b8051614e6e81614ab8565b60008060008060008587036101408112156158a257600080fd5b60408112156158b057600080fd5b6158b8614dea565b87516dffffffffffffffffffffffffffff811681146158d657600080fd5b81526158e4602089016157fa565b6020820152955060607fffffffffffffffffffffffffffffffffffffffffffffffffffffffffffffffc08201121561591b57600080fd5b50615924614dc1565b615930604088016157fa565b815261593e6060880161581c565b602082015260808701516159518161510e565b604082015293506159658760a0880161582e565b9250615974610100870161587d565b915061598361012087016157fa565b90509295509295909350565b73ffffffffffffffffffffffffffffffffffffffff8616815261ffff8516602082015260ff8416604082015260e08101615a0e606083018571ffffffffffffffffffffffffffffffffffff815116825271ffffffffffffffffffffffffffffffffffff6020820151166020830152604081015160070b60408301525050565b8260c08301529695505050505050565b600060808284031215615a3057600080fd5b6040516080810167ffffffffffffffff81118282101715615a5357615a53614d92565b604052905080615a62836157fa565b8152615a70602084016157fa565b6020820152615a81604084016157fa565b6040820152615a92606084016157fa565b60608201525092915050565b60008060e08385031215615ab157600080fd5b615abb848461582e565b915061516c8460608501615a1e565b71ffffffffffffffffffffffffffffffffffff818116838216019081111561081f5761081f6154a8565b600181811c90821680615b0857607f821691505b602082108103610bd7577f4e487b7100000000000000000000000000000000000000000000000000000000600052602260045260246000fd5b73ffffffffffffffffffffffffffffffffffffffff8616815261ffff8516602082015260ff8416604082015260e08101615bc0606083018571ffffffffffffffffffffffffffffffffffff815116825271ffffffffffffffffffffffffffffffffffff6020820151166020830152604081015160070b60408301525050565b71ffffffffffffffffffffffffffffffffffff831660c08301529695505050505050565b60008060006101008486031215615bfa57600080fd5b615c04858561582e565b9250615c138560608601615a1e565b60e0949094015192959394509192915050565b600060208284031215615c3857600080fd5b813560ff811681146109ee57600080fd5b60008251615c5b818460208701614b6d565b9190910192915050565b600060208284031215615c7757600080fd5b5051919050565b600060208284031215615c9057600080fd5b81516109ee81614ec7565b73ffffffffffffffffffffffffffffffffffffffff8716815273ffffffffffffffffffffffffffffffffffffffff8616602082015284604082015283606082015260a060808201526000615cf360a0830184866155ef565b98975050505050505050565b83815273ffffffffffffffffffffffffffffffffffffffff8316602082015260a08101611ca5604083018461574d565b600060608284031215615d4157600080fd5b61081c838361582e565b6fffffffffffffffffffffffffffffffff828116828216039081111561081f5761081f6154a8565b7f4e487b7100000000000000000000000000000000000000000000000000000000600052601260045260246000fd5b8082018082111561081f5761081f6154a8565b6001815b6001841115615df057808504811115615dd457615dd46154a8565b6001841615615de257908102905b60019390931c928002615db9565b935093915050565b600082615e075750600161081f565b81615e145750600061081f565b8160018114615e2a5760028114615e3457615e50565b600191505061081f565b60ff841115615e4557615e456154a8565b50506001821b61081f565b5060208310610133831016604e8410600b8410161715615e73575081810a61081f565b615e9e7fffffffffffffffffffffffffffffffffffffffffffffffffffffffffffffffff8484615db5565b807fffffffffffffffffffffffffffffffffffffffffffffffffffffffffffffffff04821115615ed057615ed06154a8565b029392505050565b600061081c60ff841683615df8565b808202811582820484141761081f5761081f6154a8565b600068ffffffffffffffffff831680615f1957615f19615d73565b8068ffffffffffffffffff84160491505092915050565b68ffffffffffffffffff818116838216019081111561081f5761081f6154a8565b600082615f6057615f60615d73565b500490565b60006fffffffffffffffffffffffffffffffff831680615f8757615f87615d73565b806fffffffffffffffffffffffffffffffff84160491505092915050565b60007fffffffffffffffffffffffffffffffffffffffffffffffffffffffffffffffff8203615fd657615fd66154a8565b506001019056fea2646970667358221220c9b8ba7eaf9e925008d5430c60bcf178248b3799429a7993912296539335fea264736f6c634300081a0033","linkReferences":{"src/libraries/VaultExternal.sol":{"VaultExternal":[{"start":2945,"length":20},{"start":5307,"length":20},{"start":5587,"length":20},{"start":8171,"length":20},{"start":12749,"length":20}]}}},"methodIdentifiers":{"TIMESTAMP_ISSUANCE_START()":"410cd41a","balanceOf(address,uint256)":"00fdd58e","balanceOfBatch(address[],uint256[])":"4e1273f4","burn(bool,(address,address,int8),uint256)":"3fc62188","claimSIR(uint256,address)":"777b1d43","collateralStates(address)":"61086e43","cumulativeSIRPerTEA(uint256)":"7a4996e8","getReserves((address,address,int8))":"fbd98edf","initialize((address,address,int8))":"3aa88670","isApprovedForAll(address,address)":"e985e9c5","latestTokenParams()":"60e0970a","mint(bool,(address,address,int8))":"94c050f8","numberOfVaults()":"7a32af78","onERC1155BatchReceived(address,address,uint256[],uint256[],bytes)":"bc197c81","onERC1155Received(address,address,uint256,uint256,bytes)":"f23a6e61","paramsById(uint48)":"d2f3fd09","safeBatchTransferFrom(address,address,uint256[],uint256[],bytes)":"2eb2c2d6","safeTransferFrom(address,address,uint256,uint256,bytes)":"f242432a","setApprovalForAll(address,bool)":"a22cb465","supportsInterface(bytes4)":"01ffc9a7","systemParams()":"458e8e6b","totalSupply(uint256)":"bd85b039","unclaimedRewards(uint256,address)":"46f90748","updateSystemState(uint16,uint16,bool)":"5ab2cef4","updateVaults(uint48[],uint48[],uint8[],uint16)":"bb147c54","uri(uint256)":"0e89341c","vaultStates((address,address,int8))":"2edf3104","vaultTax(uint48)":"6cfcac04","withdrawFees(address)":"164e68de","withdrawToSaveSystem(address[],address)":"c7c3d2dc"},"id":62}