{"abi":[{"type":"constructor","inputs":[{"name":"systemControl","type":"address","internalType":"address"},{"name":"sir","type":"address","internalType":"address"},{"name":"oracle","type":"address","internalType":"address"}],"stateMutability":"nonpayable"},{"type":"function","name":"TS_ISSUANCE_START","inputs":[],"outputs":[{"name":"","type":"uint40","internalType":"uint40"}],"stateMutability":"view"},{"type":"function","name":"balanceOf","inputs":[{"name":"account","type":"address","internalType":"address"},{"name":"vaultId","type":"uint256","internalType":"uint256"}],"outputs":[{"name":"","type":"uint256","internalType":"uint256"}],"stateMutability":"view"},{"type":"function","name":"balanceOfBatch","inputs":[{"name":"owners","type":"address[]","internalType":"address[]"},{"name":"vaultIds","type":"uint256[]","internalType":"uint256[]"}],"outputs":[{"name":"balances_","type":"uint256[]","internalType":"uint256[]"}],"stateMutability":"view"},{"type":"function","name":"burn","inputs":[{"name":"isAPE","type":"bool","internalType":"bool"},{"name":"vaultParams","type":"tuple","internalType":"struct SirStructs.VaultParameters","components":[{"name":"debtToken","type":"address","internalType":"address"},{"name":"collateralToken","type":"address","internalType":"address"},{"name":"leverageTier","type":"int8","internalType":"int8"}]},{"name":"amount","type":"uint256","internalType":"uint256"}],"outputs":[{"name":"","type":"uint144","internalType":"uint144"}],"stateMutability":"nonpayable"},{"type":"function","name":"claimSIR","inputs":[{"name":"vaultId","type":"uint256","internalType":"uint256"},{"name":"lper","type":"address","internalType":"address"}],"outputs":[{"name":"","type":"uint80","internalType":"uint80"}],"stateMutability":"nonpayable"},{"type":"function","name":"collateralStates","inputs":[{"name":"token","type":"address","internalType":"address"}],"outputs":[{"name":"","type":"tuple","internalType":"struct SirStructs.CollateralState","components":[{"name":"totalFeesToStakers","type":"uint112","internalType":"uint112"},{"name":"total","type":"uint144","internalType":"uint144"}]}],"stateMutability":"view"},{"type":"function","name":"cumulativeSIRPerTEA","inputs":[{"name":"vaultId","type":"uint256","internalType":"uint256"}],"outputs":[{"name":"cumSIRPerTEAx96","type":"uint176","internalType":"uint176"}],"stateMutability":"view"},{"type":"function","name":"getReserves","inputs":[{"name":"vaultParams","type":"tuple","internalType":"struct SirStructs.VaultParameters","components":[{"name":"debtToken","type":"address","internalType":"address"},{"name":"collateralToken","type":"address","internalType":"address"},{"name":"leverageTier","type":"int8","internalType":"int8"}]}],"outputs":[{"name":"","type":"tuple","internalType":"struct SirStructs.Reserves","components":[{"name":"reserveApes","type":"uint144","internalType":"uint144"},{"name":"reserveLPers","type":"uint144","internalType":"uint144"},{"name":"tickPriceX42","type":"int64","internalType":"int64"}]}],"stateMutability":"view"},{"type":"function","name":"initialize","inputs":[{"name":"vaultParams","type":"tuple","internalType":"struct SirStructs.VaultParameters","components":[{"name":"debtToken","type":"address","internalType":"address"},{"name":"collateralToken","type":"address","internalType":"address"},{"name":"leverageTier","type":"int8","internalType":"int8"}]}],"outputs":[],"stateMutability":"nonpayable"},{"type":"function","name":"isApprovedForAll","inputs":[{"name":"","type":"address","internalType":"address"},{"name":"","type":"address","internalType":"address"}],"outputs":[{"name":"","type":"bool","internalType":"bool"}],"stateMutability":"view"},{"type":"function","name":"latestTokenParams","inputs":[],"outputs":[{"name":"","type":"tuple","internalType":"struct SirStructs.TokenParameters","components":[{"name":"name","type":"string","internalType":"string"},{"name":"symbol","type":"string","internalType":"string"},{"name":"decimals","type":"uint8","internalType":"uint8"}]},{"name":"","type":"tuple","internalType":"struct SirStructs.VaultParameters","components":[{"name":"debtToken","type":"address","internalType":"address"},{"name":"collateralToken","type":"address","internalType":"address"},{"name":"leverageTier","type":"int8","internalType":"int8"}]}],"stateMutability":"view"},{"type":"function","name":"mint","inputs":[{"name":"isAPE","type":"bool","internalType":"bool"},{"name":"vaultParams","type":"tuple","internalType":"struct SirStructs.VaultParameters","components":[{"name":"debtToken","type":"address","internalType":"address"},{"name":"collateralToken","type":"address","internalType":"address"},{"name":"leverageTier","type":"int8","internalType":"int8"}]}],"outputs":[{"name":"amount","type":"uint256","internalType":"uint256"}],"stateMutability":"nonpayable"},{"type":"function","name":"numberOfVaults","inputs":[],"outputs":[{"name":"","type":"uint48","internalType":"uint48"}],"stateMutability":"view"},{"type":"function","name":"onERC1155BatchReceived","inputs":[{"name":"","type":"address","internalType":"address"},{"name":"","type":"address","internalType":"address"},{"name":"","type":"uint256[]","internalType":"uint256[]"},{"name":"","type":"uint256[]","internalType":"uint256[]"},{"name":"","type":"bytes","internalType":"bytes"}],"outputs":[{"name":"","type":"bytes4","internalType":"bytes4"}],"stateMutability":"nonpayable"},{"type":"function","name":"onERC1155Received","inputs":[{"name":"","type":"address","internalType":"address"},{"name":"","type":"address","internalType":"address"},{"name":"","type":"uint256","internalType":"uint256"},{"name":"","type":"uint256","internalType":"uint256"},{"name":"","type":"bytes","internalType":"bytes"}],"outputs":[{"name":"","type":"bytes4","internalType":"bytes4"}],"stateMutability":"nonpayable"},{"type":"function","name":"paramsById","inputs":[{"name":"vaultId","type":"uint48","internalType":"uint48"}],"outputs":[{"name":"","type":"tuple","internalType":"struct SirStructs.VaultParameters","components":[{"name":"debtToken","type":"address","internalType":"address"},{"name":"collateralToken","type":"address","internalType":"address"},{"name":"leverageTier","type":"int8","internalType":"int8"}]}],"stateMutability":"view"},{"type":"function","name":"safeBatchTransferFrom","inputs":[{"name":"from","type":"address","internalType":"address"},{"name":"to","type":"address","internalType":"address"},{"name":"vaultIds","type":"uint256[]","internalType":"uint256[]"},{"name":"amounts","type":"uint256[]","internalType":"uint256[]"},{"name":"data","type":"bytes","internalType":"bytes"}],"outputs":[],"stateMutability":"nonpayable"},{"type":"function","name":"safeTransferFrom","inputs":[{"name":"from","type":"address","internalType":"address"},{"name":"to","type":"address","internalType":"address"},{"name":"vaultId","type":"uint256","internalType":"uint256"},{"name":"amount","type":"uint256","internalType":"uint256"},{"name":"data","type":"bytes","internalType":"bytes"}],"outputs":[],"stateMutability":"nonpayable"},{"type":"function","name":"setApprovalForAll","inputs":[{"name":"operator","type":"address","internalType":"address"},{"name":"approved","type":"bool","internalType":"bool"}],"outputs":[],"stateMutability":"nonpayable"},{"type":"function","name":"supportsInterface","inputs":[{"name":"interfaceId","type":"bytes4","internalType":"bytes4"}],"outputs":[{"name":"","type":"bool","internalType":"bool"}],"stateMutability":"pure"},{"type":"function","name":"systemParams","inputs":[],"outputs":[{"name":"","type":"tuple","internalType":"struct SirStructs.SystemParameters","components":[{"name":"baseFee","type":"uint16","internalType":"uint16"},{"name":"lpFee","type":"uint16","internalType":"uint16"},{"name":"mintingStopped","type":"bool","internalType":"bool"},{"name":"cumTax","type":"uint16","internalType":"uint16"}]}],"stateMutability":"view"},{"type":"function","name":"totalSupply","inputs":[{"name":"vaultId","type":"uint256","internalType":"uint256"}],"outputs":[{"name":"","type":"uint256","internalType":"uint256"}],"stateMutability":"view"},{"type":"function","name":"unclaimedRewards","inputs":[{"name":"vaultId","type":"uint256","internalType":"uint256"},{"name":"lper","type":"address","internalType":"address"}],"outputs":[{"name":"","type":"uint80","internalType":"uint80"}],"stateMutability":"view"},{"type":"function","name":"updateSystemState","inputs":[{"name":"baseFee","type":"uint16","internalType":"uint16"},{"name":"lpFee","type":"uint16","internalType":"uint16"},{"name":"mintingStopped","type":"bool","internalType":"bool"}],"outputs":[],"stateMutability":"nonpayable"},{"type":"function","name":"updateVaults","inputs":[{"name":"oldVaults","type":"uint48[]","internalType":"uint48[]"},{"name":"newVaults","type":"uint48[]","internalType":"uint48[]"},{"name":"newTaxes","type":"uint8[]","internalType":"uint8[]"},{"name":"cumTax","type":"uint16","internalType":"uint16"}],"outputs":[],"stateMutability":"nonpayable"},{"type":"function","name":"uri","inputs":[{"name":"vaultId","type":"uint256","internalType":"uint256"}],"outputs":[{"name":"","type":"string","internalType":"string"}],"stateMutability":"view"},{"type":"function","name":"vaultStates","inputs":[{"name":"vaultParams","type":"tuple","internalType":"struct SirStructs.VaultParameters","components":[{"name":"debtToken","type":"address","internalType":"address"},{"name":"collateralToken","type":"address","internalType":"address"},{"name":"leverageTier","type":"int8","internalType":"int8"}]}],"outputs":[{"name":"","type":"tuple","internalType":"struct SirStructs.VaultState","components":[{"name":"reserve","type":"uint144","internalType":"uint144"},{"name":"tickPriceSatX42","type":"int64","internalType":"int64"},{"name":"vaultId","type":"uint48","internalType":"uint48"}]}],"stateMutability":"view"},{"type":"function","name":"vaultTax","inputs":[{"name":"vaultId","type":"uint48","internalType":"uint48"}],"outputs":[{"name":"","type":"uint8","internalType":"uint8"}],"stateMutability":"view"},{"type":"function","name":"withdrawFees","inputs":[{"name":"token","type":"address","internalType":"address"}],"outputs":[{"name":"totalFeesToStakers","type":"uint112","internalType":"uint112"}],"stateMutability":"nonpayable"},{"type":"function","name":"withdrawToSaveSystem","inputs":[{"name":"tokens","type":"address[]","internalType":"address[]"},{"name":"to","type":"address","internalType":"address"}],"outputs":[{"name":"amounts","type":"uint256[]","internalType":"uint256[]"}],"stateMutability":"nonpayable"},{"type":"event","name":"ApprovalForAll","inputs":[{"name":"account","type":"address","indexed":true,"internalType":"address"},{"name":"operator","type":"address","indexed":true,"internalType":"address"},{"name":"approved","type":"bool","indexed":false,"internalType":"bool"}],"anonymous":false},{"type":"event","name":"Burn","inputs":[{"name":"vaultId","type":"uint48","indexed":true,"internalType":"uint48"},{"name":"isAPE","type":"bool","indexed":false,"internalType":"bool"},{"name":"collateralWithdrawn","type":"uint144","indexed":false,"internalType":"uint144"},{"name":"collateralFeeToStakers","type":"uint144","indexed":false,"internalType":"uint144"},{"name":"collateralFeeToLPers","type":"uint144","indexed":false,"internalType":"uint144"}],"anonymous":false},{"type":"event","name":"Mint","inputs":[{"name":"vaultId","type":"uint48","indexed":true,"internalType":"uint48"},{"name":"isAPE","type":"bool","indexed":false,"internalType":"bool"},{"name":"collateralIn","type":"uint144","indexed":false,"internalType":"uint144"},{"name":"collateralFeeToStakers","type":"uint144","indexed":false,"internalType":"uint144"},{"name":"collateralFeeToLPers","type":"uint144","indexed":false,"internalType":"uint144"}],"anonymous":false},{"type":"event","name":"TransferBatch","inputs":[{"name":"operator","type":"address","indexed":true,"internalType":"address"},{"name":"from","type":"address","indexed":true,"internalType":"address"},{"name":"to","type":"address","indexed":true,"internalType":"address"},{"name":"vaultIds","type":"uint256[]","indexed":false,"internalType":"uint256[]"},{"name":"amounts","type":"uint256[]","indexed":false,"internalType":"uint256[]"}],"anonymous":false},{"type":"event","name":"TransferSingle","inputs":[{"name":"operator","type":"address","indexed":true,"internalType":"address"},{"name":"from","type":"address","indexed":true,"internalType":"address"},{"name":"to","type":"address","indexed":true,"internalType":"address"},{"name":"id","type":"uint256","indexed":false,"internalType":"uint256"},{"name":"amount","type":"uint256","indexed":false,"internalType":"uint256"}],"anonymous":false},{"type":"event","name":"URI","inputs":[{"name":"value","type":"string","indexed":false,"internalType":"string"},{"name":"id","type":"uint256","indexed":true,"internalType":"uint256"}],"anonymous":false},{"type":"event","name":"VaultNewTax","inputs":[{"name":"vault","type":"uint48","indexed":true,"internalType":"uint48"},{"name":"tax","type":"uint8","indexed":false,"internalType":"uint8"},{"name":"cumTax","type":"uint16","indexed":false,"internalType":"uint16"}],"anonymous":false},{"type":"error","name":"LengthMismatch","inputs":[]},{"type":"error","name":"NotAuthorized","inputs":[]},{"type":"error","name":"TEAMaxSupplyExceeded","inputs":[]},{"type":"error","name":"UnsafeRecipient","inputs":[]}],"bytecode":{"object":"0x6101006040523480156200001257600080fd5b50604051620060f0380380620060f0833981016040819052620000359162000166565b6001600160a01b03928316608090815264ffffffffff421660a05291831660c052604080519283018152610fa08352610929602080850191909152600084830181905260609485018190526002805466ffffffffffffff19166309290fa017815593861660e05282519485018352808552908401818152918401818152600580546001810182559252935192027f036b6384b5eca791c62761152d0c79bb0604c104a5fb6f4eb0703f3154bb3db0810180549386166001600160a01b031990941693909317909255517f036b6384b5eca791c62761152d0c79bb0604c104a5fb6f4eb0703f3154bb3db19091018054925160ff16600160a01b026001600160a81b03199093169190931617179055620001b0565b80516001600160a01b03811681146200016157600080fd5b919050565b6000806000606084860312156200017c57600080fd5b620001878462000149565b9250620001976020850162000149565b9150620001a76040850162000149565b90509250925092565b60805160a05160c05160e051615ece62000222600039600081816112800152818161139901528181611db10152612faf015260008181610a0701528181610b680152611b37015260008181610751015261400f0152600081816117ee0152818161228701526126f30152615ece6000f3fe608060405234801561001057600080fd5b50600436106101d95760003560e01c8063777b1d4311610104578063bd85b039116100a2578063f23a6e6111610071578063f23a6e6114610706578063f242432a14610719578063fbd98edf1461072c578063ffda9c601461074c57600080fd5b8063bd85b03914610673578063c7c3d2dc146106a5578063d2f3fd09146106b8578063e985e9c5146106d857600080fd5b806394c050f8116100de57806394c050f8146105ce578063a22cb465146105e1578063bb147c54146105f4578063bc197c811461060757600080fd5b8063777b1d43146105625780637a32af78146105755780637a4996e81461059457600080fd5b80633fc621881161017c5780635ab2cef41161014b5780635ab2cef41461042957806360e0970a1461043c57806361086e43146104525780636cfcac041461052557600080fd5b80633fc62188146102f5578063458e8e6b1461032b57806346f90748146103db5780634e1273f41461040957600080fd5b8063164e68de116101b8578063164e68de146102475780632eb2c2d6146102795780632edf31041461028e5780633aa88670146102e257600080fd5b8062fdd58e146101de57806301ffc9a7146102045780630e89341c14610227575b600080fd5b6101f16101ec366004614ab1565b610789565b6040519081526020015b60405180910390f35b610217610212366004614b0b565b61081d565b60405190151581526020016101fb565b61023a610235366004614b28565b6108fe565b6040516101fb9190614baf565b61025a610255366004614bc2565b6109ed565b6040516dffffffffffffffffffffffffffff90911681526020016101fb565b61028c610287366004614c6d565b610b95565b005b6102a161029c366004614d3e565b61109d565b60408051825171ffffffffffffffffffffffffffffffffffff16815260208084015160070b908201529181015165ffffffffffff16908201526060016101fb565b61028c6102f0366004614dec565b6111f2565b610308610303366004614e4c565b6112e3565b60405171ffffffffffffffffffffffffffffffffffff90911681526020016101fb565b61039d604080516080810182526000808252602082018190529181018290526060810191909152506040805160808101825260025461ffff80821683526201000082048116602084015260ff640100000000830416151593830193909352650100000000009004909116606082015290565b6040516101fb9190815161ffff9081168252602080840151821690830152604080840151151590830152606092830151169181019190915260800190565b6103ee6103e9366004614e8b565b6116b6565b60405169ffffffffffffffffffff90911681526020016101fb565b61041c610417366004614ebb565b6116d5565b6040516101fb9190614f27565b61028c610437366004614f7d565b6117d6565b610444611911565b6040516101fb929190614fc4565b6104e6610460366004614bc2565b60408051808201909152600080825260208201525073ffffffffffffffffffffffffffffffffffffffff166000908152600860209081526040918290208251808401909352546dffffffffffffffffffffffffffff811683526e010000000000000000000000000000900471ffffffffffffffffffffffffffffffffffff169082015290565b6040805182516dffffffffffffffffffffffffffff16815260209283015171ffffffffffffffffffffffffffffffffffff1692810192909252016101fb565b61055061053336600461507d565b65ffffffffffff1660009081526020819052604090205460ff1690565b60405160ff90911681526020016101fb565b6103ee610570366004614e8b565b611b1d565b61057d611c65565b60405165ffffffffffff90911681526020016101fb565b6105a76105a2366004614b28565b611c7c565b60405175ffffffffffffffffffffffffffffffffffffffffffff90911681526020016101fb565b6101f16105dc36600461509a565b611d33565b61028c6105ef3660046150d0565b6121d8565b61028c6106023660046150fe565b61226f565b610642610615366004614c6d565b7fbc197c810000000000000000000000000000000000000000000000000000000098975050505050505050565b6040517fffffffff0000000000000000000000000000000000000000000000000000000090911681526020016101fb565b6101f1610681366004614b28565b6000908152600460205260409020546fffffffffffffffffffffffffffffffff1690565b61041c6106b33660046151a9565b6126d9565b6106cb6106c636600461507d565b612a99565b6040516101fb91906151f5565b6102176106e6366004615234565b600660209081526000928352604080842090915290825290205460ff1681565b610642610714366004615262565b612b42565b61028c610727366004615262565b612b6e565b61073f61073a366004614d3e565b612f4b565b6040516101fb91906152de565b6107737f000000000000000000000000000000000000000000000000000000000000000081565b60405164ffffffffff90911681526020016101fb565b600073ffffffffffffffffffffffffffffffffffffffff831630146107de5773ffffffffffffffffffffffffffffffffffffffff83166000908152600360209081526040808320858452909152902054610814565b60008281526004602052604090205470010000000000000000000000000000000090046fffffffffffffffffffffffffffffffff165b90505b92915050565b60007f01ffc9a7000000000000000000000000000000000000000000000000000000007fffffffff00000000000000000000000000000000000000000000000000000000831614806108b057507fd9b67a26000000000000000000000000000000000000000000000000000000007fffffffff000000000000000000000000000000000000000000000000000000008316145b806108175750507fffffffff00000000000000000000000000000000000000000000000000000000167f0e89341c000000000000000000000000000000000000000000000000000000001490565b6000818152600460208190526040918290205491517f3ef6287c000000000000000000000000000000000000000000000000000000008152600591810191909152602481018390526fffffffffffffffffffffffffffffffff9091166044820181905260609173__$0d913f5ea2cc8398585c34a0416dbc1ef1$__90633ef6287c90606401600060405180830381865af41580156109a0573d6000803e3d6000fd5b505050506040513d6000823e601f3d9081017fffffffffffffffffffffffffffffffffffffffffffffffffffffffffffffffe01682016040526109e6919081019061531b565b9392505050565b60003373ffffffffffffffffffffffffffffffffffffffff7f00000000000000000000000000000000000000000000000000000000000000001614610a3157600080fd5b5073ffffffffffffffffffffffffffffffffffffffff81166000908152600860209081526040918290208251808401909352546dffffffffffffffffffffffffffff81168084526e01000000000000000000000000000090910471ffffffffffffffffffffffffffffffffffff1691830191909152908115610b8f57604051806040016040528060006dffffffffffffffffffffffffffff168152602001836dffffffffffffffffffffffffffff168360200151610aef9190615415565b71ffffffffffffffffffffffffffffffffffff90811690915273ffffffffffffffffffffffffffffffffffffffff85166000908152600860209081526040909120835193909101519091166e010000000000000000000000000000026dffffffffffffffffffffffffffff928316179055610b8f9084907f000000000000000000000000000000000000000000000000000000000000000090851661301a565b50919050565b3073ffffffffffffffffffffffffffffffffffffffff891603610bba57610bba615447565b848314610bf3576040517fff633a3800000000000000000000000000000000000000000000000000000000815260040160405180910390fd5b3373ffffffffffffffffffffffffffffffffffffffff891614801590610c4a575073ffffffffffffffffffffffffffffffffffffffff8816600090815260066020908152604080832033845290915290205460ff16155b15610c81576040517fea8e4eb500000000000000000000000000000000000000000000000000000000815260040160405180910390fd5b6040805160808101825260008082526020820181905291810182905260608101829052905b86811015610ed4576000888883818110610cc257610cc2615476565b9050602002013590506000878784818110610cdf57610cdf615476565b90506020020135905060405180608001604052808d73ffffffffffffffffffffffffffffffffffffffff168152602001600360008f73ffffffffffffffffffffffffffffffffffffffff1673ffffffffffffffffffffffffffffffffffffffff16815260200190815260200160002060008581526020019081526020016000205481526020018c73ffffffffffffffffffffffffffffffffffffffff168152602001610d8b8d85610789565b90526040805160808101825260025461ffff80821683526201000082048116602080850191909152640100000000830460ff90811615158587015265010000000000909304909116606080850191909152600088815280835285812086519283018752549384168252610100840464ffffffffff1692820192909252660100000000000090920475ffffffffffffffffffffffffffffffffffffffffffff1693820193909352929650610e4a92859190610e4483613187565b896131f8565b508084602001818151610e5d91906154a5565b90525073ffffffffffffffffffffffffffffffffffffffff8c8116908c1614610eca5760208085015173ffffffffffffffffffffffffffffffffffffffff8e16600090815260038352604080822086835290935291909120556060840151610eca908c9084908401613445565b5050600101610ca6565b508773ffffffffffffffffffffffffffffffffffffffff168973ffffffffffffffffffffffffffffffffffffffff163373ffffffffffffffffffffffffffffffffffffffff167f4a39dc06d4c0dbc64b70af90fd698a233a518aa5d07e595d983b8c0526c8f7fb8a8a8a8a604051610f4f9493929190615503565b60405180910390a473ffffffffffffffffffffffffffffffffffffffff88163b15611042576040517fbc197c81000000000000000000000000000000000000000000000000000000008082529073ffffffffffffffffffffffffffffffffffffffff8a169063bc197c8190610fd69033908e908d908d908d908d908d908d90600401615573565b6020604051808303816000875af1158015610ff5573d6000803e3d6000fd5b505050506040513d601f19601f8201168201806040525081019061101991906155e4565b7fffffffff0000000000000000000000000000000000000000000000000000000016141561105b565b73ffffffffffffffffffffffffffffffffffffffff8816155b15611092576040517f3da6393100000000000000000000000000000000000000000000000000000000815260040160405180910390fd5b505050505050505050565b6040805160608101825260008082526020820181905291810191909152600760006110cb6020850185614bc2565b73ffffffffffffffffffffffffffffffffffffffff1673ffffffffffffffffffffffffffffffffffffffff168152602001908152602001600020600083602001602081019061111a9190614bc2565b73ffffffffffffffffffffffffffffffffffffffff1673ffffffffffffffffffffffffffffffffffffffff16815260200190815260200160002060008360400160208101906111699190615601565b600090810b8252602080830193909352604091820190208151606081018352905471ffffffffffffffffffffffffffffffffffff811682527201000000000000000000000000000000000000810460070b938201939093527a01000000000000000000000000000000000000000000000000000090920465ffffffffffff169082015292915050565b805173ffffffffffffffffffffffffffffffffffffffff908116600090815260076020908152604080832082860151909416835292815282822083850151830b8352905281902090517fce3978b600000000000000000000000000000000000000000000000000000000815273__$0d913f5ea2cc8398585c34a0416dbc1ef1$__9163ce3978b6916112b0917f000000000000000000000000000000000000000000000000000000000000000091600590600990889060040161561c565b60006040518083038186803b1580156112c857600080fd5b505af41580156112dc573d6000803e3d6000fd5b5050505050565b60008060026040518060800160405290816000820160009054906101000a900461ffff1661ffff1661ffff1681526020016000820160029054906101000a900461ffff1661ffff1661ffff1681526020016000820160049054906101000a900460ff161515151581526020016000820160059054906101000a900461ffff1661ffff1661ffff1681525050905060008060008073__$0d913f5ea2cc8398585c34a0416dbc1ef1$__63a80cf3ce60008b600860077f00000000000000000000000000000000000000000000000000000000000000008e6040518763ffffffff1660e01b81526004016113da969594939291906156c8565b61014060405180830381865af41580156113f8573d6000803e3d6000fd5b505050506040513d601f19601f8201168201806040525081019061141c919061579f565b5060408381015165ffffffffffff1660009081526020818152828220835160608082018652915460ff81168252610100810464ffffffffff16828501526601000000000000900475ffffffffffffffffffffffffffffffffffffffffffff168186015284516080810186528481529283018490529382018390528101919091529498509296509094509250908a15611585578273ffffffffffffffffffffffffffffffffffffffff16638c2684273389600001518560000151888e6040518663ffffffff1660e01b81526004016114f79594939291906158a6565b60e0604051808303816000875af1158015611516573d6000803e3d6000fd5b505050506040513d601f19601f8201168201806040525081019061153a91906159a5565b6060810151919550915071ffffffffffffffffffffffffffffffffffff16156115805761158061157060408c0160208d01614bc2565b86604001518684606001516134d7565b6115a9565b6115a661159860408c0160208d01614bc2565b86604001518985888e6136c1565b90505b6115b485858c6138db565b6115ed600087836020015171ffffffffffffffffffffffffffffffffffff168d60200160208101906115e69190614bc2565b8551613dbf565b846040015165ffffffffffff167f7c6da711ffa6af277b820416f2daab1018c73a4fb0c4a49a38c5fb292b6c0e8b8c836000015184602001518560600151866040015161163a91906159d1565b60408051941515855271ffffffffffffffffffffffffffffffffffff9384166020860152918316848301529091166060830152519081900360800190a26116a761168a60408c0160208d01614bc2565b8251339071ffffffffffffffffffffffffffffffffffff1661301a565b519a9950505050505050505050565b600061081483836116c78587610789565b6116d087611c7c565b613ec4565b6060838214611710576040517fff633a3800000000000000000000000000000000000000000000000000000000815260040160405180910390fd5b8367ffffffffffffffff81111561172957611729614d5a565b604051908082528060200260200182016040528015611752578160200160208202803683370190505b50905060005b848110156117cd576117a886868381811061177557611775615476565b905060200201602081019061178a9190614bc2565b85858481811061179c5761179c615476565b90506020020135610789565b8282815181106117ba576117ba615476565b6020908102919091010152600101611758565b50949350505050565b3373ffffffffffffffffffffffffffffffffffffffff7f0000000000000000000000000000000000000000000000000000000000000000161461181857600080fd5b60408051608080820183526002805461ffff808216855262010000808304821660208088019190915264010000000080850460ff161515888a01526501000000000080860485166060998a019081528a519889018b529c85168089529b85169288018390529915159887018990529a51909216949095018490527fffffffffffffffffffffffffffffffffffffffffffffffffffffffff0000000090911690961795909202949094177fffffffffffffffffffffffffffffffffffffffffffffffffff000000ffffffff16919094027fffffffffffffffffffffffffffffffffffffffffffffffffff0000ffffffffff16179102179055565b604080516060808201835280825260208201526000918101919091526040805160608101825260008082526020820181905291810191909152600580546009919061195e906001906154a5565b8154811061196e5761196e615476565b906000526020600020906002020181604051806060016040529081600082018054611998906159fc565b80601f01602080910402602001604051908101604052809291908181526020018280546119c4906159fc565b8015611a115780601f106119e657610100808354040283529160200191611a11565b820191906000526020600020905b8154815290600101906020018083116119f457829003601f168201915b50505050508152602001600182018054611a2a906159fc565b80601f0160208091040260200160405190810160405280929190818152602001828054611a56906159fc565b8015611aa35780601f10611a7857610100808354040283529160200191611aa3565b820191906000526020600020905b815481529060010190602001808311611a8657829003601f168201915b50505091835250506002919091015460ff1660209182015260408051606081018252845473ffffffffffffffffffffffffffffffffffffffff9081168252600190950154948516928101929092527401000000000000000000000000000000000000000090930460000b9281019290925294909350915050565b60003373ffffffffffffffffffffffffffffffffffffffff7f00000000000000000000000000000000000000000000000000000000000000001614611b6157600080fd5b600060405180608001604052808473ffffffffffffffffffffffffffffffffffffffff168152602001611b948587610789565b8152600060208083018290526040928301829052825160808101845260025461ffff8082168352620100008204811683850152640100000000820460ff90811615158488015265010000000000909204166060808401919091528a85528484529385902085519485018652549081168452610100810464ffffffffff1692840192909252660100000000000090910475ffffffffffffffffffffffffffffffffffffffffffff1692820192909252919250611c5d916001918791611c5783613187565b866131f8565b949350505050565b600554600090611c77906001906154a5565b905090565b6040805160808101825260025461ffff80821683526201000082048116602080850191909152640100000000830460ff90811615158587015265010000000000909304909116606080850191909152600086815280835285812086519283018752549384168252610100840464ffffffffff1692820192909252660100000000000090920475ffffffffffffffffffffffffffffffffffffffffffff16938201939093526108179190611d2e85613187565b613faf565b6040805160808101825260025461ffff80821683526201000082048116602084015260ff6401000000008304161580159484019490945265010000000000909104166060820152600091611d8657600080fd5b600080600080600073__$0d913f5ea2cc8398585c34a0416dbc1ef1$__63a80cf3ce60018b600860077f00000000000000000000000000000000000000000000000000000000000000008e6040518763ffffffff1660e01b8152600401611df2969594939291906156c8565b61014060405180830381865af4158015611e10573d6000803e3d6000fd5b505050506040513d601f19601f82011682018060405250810190611e34919061579f565b60408481015165ffffffffffff1660009081526020818152828220835160608082018652915460ff81168252610100810464ffffffffff16828501526601000000000000900475ffffffffffffffffffffffffffffffffffffffffffff16818601528451608081018652848152928301849052938201839052810191909152959a5093985091965094509250908a15611fb557875182516040517f6bc601d700000000000000000000000000000000000000000000000000000000815273ffffffffffffffffffffffffffffffffffffffff871692636bc601d792611f2392339291908b908a90600401615a49565b610100604051808303816000875af1158015611f43573d6000803e3d6000fd5b505050506040513d601f19601f82011682018060405250810190611f679190615adc565b6060820151909b50919650915071ffffffffffffffffffffffffffffffffffff1615611fb057611fb0611fa060408c0160208d01614bc2565b87604001518784606001516134d7565b611fdb565b611fd6611fc860408c0160208d01614bc2565b87604001518a85898861413b565b995090505b611fe686868c6138db565b61201e600188836020015171ffffffffffffffffffffffffffffffffffff168d60200160208101906120189190614bc2565b87613dbf565b856040015165ffffffffffff167f2ea082b0ce379480d9dfb0d7ab365e33def58ee2bee64887c13e531723b5c8818c8360000151846020015185606001518660400151016040516120a19493929190931515845271ffffffffffffffffffffffffffffffffffff9283166020850152908216604084015216606082015260800190565b60405180910390a28a1580156120b75750333b15155b8015612193575060408087015190517ff23a6e6100000000000000000000000000000000000000000000000000000000808252336004830181905260006024840181905265ffffffffffff9094166044840152606483018d905260a0608484015260a4830193909352919063f23a6e619060c4016020604051808303816000875af115801561214a573d6000803e3d6000fd5b505050506040513d601f19601f8201168201806040525081019061216e91906155e4565b7fffffffff000000000000000000000000000000000000000000000000000000001614155b156121ca576040517f3da6393100000000000000000000000000000000000000000000000000000000815260040160405180910390fd5b505050505050505092915050565b33600081815260066020908152604080832073ffffffffffffffffffffffffffffffffffffffff87168085529083529281902080547fffffffffffffffffffffffffffffffffffffffffffffffffffffffffffffff001686151590811790915590519081529192917f17307eab39ab6107e8899845ad3d59bd9653f200f220920489ca2b5937696c31910160405180910390a35050565b3373ffffffffffffffffffffffffffffffffffffffff7f000000000000000000000000000000000000000000000000000000000000000016146122b157600080fd5b6000805b8781101561248c576122f48989838181106122d2576122d2615476565b90506020020160208101906122e7919061507d565b65ffffffffffff16611c7c565b91506040518060600160405280600060ff1681526020014264ffffffffff1681526020018375ffffffffffffffffffffffffffffffffffffffffffff168152506000808b8b8581811061234957612349615476565b905060200201602081019061235e919061507d565b65ffffffffffff16815260208082019290925260409081016000208351815493850151949092015175ffffffffffffffffffffffffffffffffffffffffffff166601000000000000027fffffffff00000000000000000000000000000000000000000000ffffffffffff64ffffffffff909516610100027fffffffffffffffffffffffffffffffffffffffffffffffffffff00000000000090941660ff90931692909217929092179290921691909117905588888281811061242257612422615476565b9050602002016020810190612437919061507d565b604080516000808252602082015265ffffffffffff92909216917fc05b4c85e1a9e164c2764407bce9e5955a2e6435dea37ef8c4e62ec458ebf21a910160405180910390a261248581615b1b565b90506122b5565b5060005b85811015612693576124ad8787838181106122d2576122d2615476565b915060405180606001604052808686848181106124cc576124cc615476565b90506020020160208101906124e19190615b53565b60ff1681526020014264ffffffffff1681526020018375ffffffffffffffffffffffffffffffffffffffffffff1681525060008089898581811061252757612527615476565b905060200201602081019061253c919061507d565b65ffffffffffff16815260208082019290925260409081016000208351815493850151949092015175ffffffffffffffffffffffffffffffffffffffffffff166601000000000000027fffffffff00000000000000000000000000000000000000000000ffffffffffff64ffffffffff909516610100027fffffffffffffffffffffffffffffffffffffffffffffffffffff00000000000090941660ff90931692909217929092179290921691909117905586868281811061260057612600615476565b9050602002016020810190612615919061507d565b65ffffffffffff167fc05b4c85e1a9e164c2764407bce9e5955a2e6435dea37ef8c4e62ec458ebf21a86868481811061265057612650615476565b90506020020160208101906126659190615b53565b6040805160ff909216825261ffff871660208301520160405180910390a261268c81615b1b565b9050612490565b50506002805461ffff90921665010000000000027fffffffffffffffffffffffffffffffffffffffffffffffffff0000ffffffffff909216919091179055505050505050565b60603373ffffffffffffffffffffffffffffffffffffffff7f0000000000000000000000000000000000000000000000000000000000000000161461271d57600080fd5b8267ffffffffffffffff81111561273657612736614d5a565b60405190808252806020026020018201604052801561275f578160200160208202803683370190505b5090506000606060005b85811015612a8f5786868281811061278357612783615476565b90506020020160208101906127989190614bc2565b604080513060248083019190915282518083039091018152604490910182526020810180517bffffffffffffffffffffffffffffffffffffffffffffffffffffffff167f70a0823100000000000000000000000000000000000000000000000000000000179052905173ffffffffffffffffffffffffffffffffffffffff92909216916128259190615b76565b6000604051808303816000865af19150503d8060008114612862576040519150601f19603f3d011682016040523d82523d6000602084013e612867565b606091505b50909350915082801561287b575081516020145b15612a7d57818060200190518101906128949190615b92565b8482815181106128a6576128a6615476565b60200260200101818152505060008482815181106128c6576128c6615476565b60200260200101511115612a7d578686828181106128e6576128e6615476565b90506020020160208101906128fb9190614bc2565b73ffffffffffffffffffffffffffffffffffffffff1663a9059cbb60e01b8686848151811061292c5761292c615476565b602090810291909101015160405173ffffffffffffffffffffffffffffffffffffffff90921660248301526044820152606401604080517fffffffffffffffffffffffffffffffffffffffffffffffffffffffffffffffe08184030181529181526020820180517bffffffffffffffffffffffffffffffffffffffffffffffffffffffff167fffffffff000000000000000000000000000000000000000000000000000000009094169390931790925290516129e89190615b76565b6000604051808303816000865af19150503d8060008114612a25576040519150601f19603f3d011682016040523d82523d6000602084013e612a2a565b606091505b509093509150828015612a55575081511580612a55575081806020019051810190612a559190615bab565b925082612a7d576000848281518110612a7057612a70615476565b6020026020010181815250505b80612a8781615b1b565b915050612769565b5050509392505050565b604080516060810182526000808252602082018190529181019190915260058265ffffffffffff1681548110612ad157612ad1615476565b60009182526020808320604080516060810182526002909402909101805473ffffffffffffffffffffffffffffffffffffffff9081168552600190910154908116928401929092527401000000000000000000000000000000000000000090910490920b9181019190915292915050565b7ff23a6e61000000000000000000000000000000000000000000000000000000005b9695505050505050565b3073ffffffffffffffffffffffffffffffffffffffff871603612b9357612b93615447565b3373ffffffffffffffffffffffffffffffffffffffff871614801590612bea575073ffffffffffffffffffffffffffffffffffffffff8616600090815260066020908152604080832033845290915290205460ff16155b15612c21576040517fea8e4eb500000000000000000000000000000000000000000000000000000000815260040160405180910390fd5b6040805160808101825273ffffffffffffffffffffffffffffffffffffffff808916808352600090815260036020908152848220898352815284822054908401529088169282019290925260608101612c7a8888610789565b90526040805160808101825260025461ffff80821683526201000082048116602080850191909152640100000000830460ff9081161515858701526501000000000090930490911660608085019190915260008b815280835285812086519283018752549384168252610100840464ffffffffff1692820192909252660100000000000090920475ffffffffffffffffffffffffffffffffffffffffffff1693820193909352929350612d3392889190611c5783613187565b508381602001818151612d4691906154a5565b90525073ffffffffffffffffffffffffffffffffffffffff87811690871614612db35760208082015173ffffffffffffffffffffffffffffffffffffffff8916600090815260038352604080822089835290935291909120556060810151612db390879087908701613445565b604080518681526020810186905273ffffffffffffffffffffffffffffffffffffffff80891692908a169133917fc3d58168c5ae7397731d063d5bbf3d657854427343f4c083240f7aacaa2d0f62910160405180910390a473ffffffffffffffffffffffffffffffffffffffff86163b15612ef2576040517ff23a6e61000000000000000000000000000000000000000000000000000000008082529073ffffffffffffffffffffffffffffffffffffffff88169063f23a6e6190612e869033908c908b908b908b908b90600401615bc8565b6020604051808303816000875af1158015612ea5573d6000803e3d6000fd5b505050506040513d601f19601f82011682018060405250810190612ec991906155e4565b7fffffffff00000000000000000000000000000000000000000000000000000000161415612f0b565b73ffffffffffffffffffffffffffffffffffffffff8616155b15612f42576040517f3da6393100000000000000000000000000000000000000000000000000000000815260040160405180910390fd5b50505050505050565b604080516060810182526000808252602082018190528183015290517f94215a4c00000000000000000000000000000000000000000000000000000000815273__$0d913f5ea2cc8398585c34a0416dbc1ef1$__906394215a4c90612fd9906007907f0000000000000000000000000000000000000000000000000000000000000000908790600401615c1a565b606060405180830381865af4158015612ff6573d6000803e3d6000fd5b505050506040513d601f19601f820116820180604052508101906108179190615c4a565b6040805173ffffffffffffffffffffffffffffffffffffffff8481166024830152604480830185905283518084039091018152606490920183526020820180517bffffffffffffffffffffffffffffffffffffffffffffffffffffffff167fa9059cbb0000000000000000000000000000000000000000000000000000000017905291516000928392908716916130b19190615b76565b6000604051808303816000865af19150503d80600081146130ee576040519150601f19603f3d011682016040523d82523d6000602084013e6130f3565b606091505b509150915081801561311d57508051158061311d57508080602001905181019061311d9190615bab565b6112dc576040517f08c379a000000000000000000000000000000000000000000000000000000000815260206004820152600260248201527f5354000000000000000000000000000000000000000000000000000000000000604482015260640160405180910390fd5b60008181526004602090815260408083208151808301909252546fffffffffffffffffffffffffffffffff8082168084527001000000000000000000000000000000009092041692820183905290916131df91615c66565b6fffffffffffffffffffffffffffffffff169392505050565b600080613206868686613faf565b905061321c878460000151856020015184613ec4565b915060405180604001604052808275ffffffffffffffffffffffffffffffffffffffffffff168152602001896132525783613255565b60005b69ffffffffffffffffffff9081169091526000898152600160209081526040808320885173ffffffffffffffffffffffffffffffffffffffff908116855290835292819020855195909201519093167601000000000000000000000000000000000000000000000275ffffffffffffffffffffffffffffffffffffffffffff909416939093179092558401511630146133ac5760405180604001604052808275ffffffffffffffffffffffffffffffffffffffffffff168152602001613325898660400151876060015186613ec4565b69ffffffffffffffffffff90811690915260008981526001602090815260408083208882015173ffffffffffffffffffffffffffffffffffffffff1684528252909120835193909101519091167601000000000000000000000000000000000000000000000275ffffffffffffffffffffffffffffffffffffffffffff9092169190911790555b60009687526020879052604090962080547fffffffff000000000000000000000000000000000000000000000000000000ff16660100000000000075ffffffffffffffffffffffffffffffffffffffffffff909816979097027fffffffffffffffffffffffffffffffffffffffffffffffffffff0000000000ff16969096176101004264ffffffffff1602179095555092949350505050565b3073ffffffffffffffffffffffffffffffffffffffff8416036134a357600082815260046020526040902080546fffffffffffffffffffffffffffffffff808416700100000000000000000000000000000000029116179055505050565b73ffffffffffffffffffffffffffffffffffffffff9290921660009081526003602090815260408083209383529290522055565b65ffffffffffff831660009081526004602090815260408083208151808301909252546fffffffffffffffffffffffffffffffff80821680845270010000000000000000000000000000000090920416928201929092529190156135875761358282600001516fffffffffffffffffffffffffffffffff168471ffffffffffffffffffffffffffffffffffff16866020015171ffffffffffffffffffffffffffffffffffff166143e2565b613597565b61359786856020015185016144ae565b825190915061ffff6f140eb6ae00000000000000000000000004036fffffffffffffffffffffffffffffffff168111156135fd576040517f6deac20700000000000000000000000000000000000000000000000000000000815260040160405180910390fd5b602082810180516fffffffffffffffffffffffffffffffff908401811682528451840181168552868301805171ffffffffffffffffffffffffffffffffffff90880116905265ffffffffffff8816600081815260048552604080822088519551851670010000000000000000000000000000000002959094169490941790925582519081529283018490523092909133917fc3d58168c5ae7397731d063d5bbf3d657854427343f4c083240f7aacaa2d0f62910160405180910390a4505050505050565b604080516080808201835260008083526020808401829052838501829052606080850183905265ffffffffffff8b16808452600483528684208751808901895290546fffffffffffffffffffffffffffffffff8082168352700100000000000000000000000000000000909104811682860190815233808852600387528a882085895287528a8820548b51998a018c529089529588018690523099880199909952928601859052965187519697969395946137849490938d928d920316866131f8565b5060006137c0876020015171ffffffffffffffffffffffffffffffffffff168786600001516fffffffffffffffffffffffffffffffff166143e2565b9050828611156137cf57600080fd5b33600090815260036020908152604080832065ffffffffffff8e1684528252909120878503905584518790036fffffffffffffffffffffffffffffffff168552878101805183900371ffffffffffffffffffffffffffffffffffff1690528901518851613843918d918d9188918c876146be565b65ffffffffffff8b16600081815260046020908152604080832089518a8401516fffffffffffffffffffffffffffffffff90811670010000000000000000000000000000000002911617905580519384529083018a905292975091339182917fc3d58168c5ae7397731d063d5bbf3d657854427343f4c083240f7aacaa2d0f62910160405180910390a4505050509695505050505050565b602082015182510171ffffffffffffffffffffffffffffffffffff168084526002111561390757600080fd5b815171ffffffffffffffffffffffffffffffffffff1660000361393757677fffffffffffffff6020840152613c39565b816020015171ffffffffffffffffffffffffffffffffffff16600003613982577fffffffffffffffffffffffffffffffffffffffffffffffff80000000000000006020840152613c39565b6000806139956060840160408501615601565b60000b12156139b6576139ae6060830160408401615601565b6000036139c6565b6139c66060830160408401615601565b90506000806139db6060850160408601615601565b60000b1315613a1e576020840151845171ffffffffffffffffffffffffffffffffffff918216911660ff84161b1015613a1657506001613a54565b506000613a54565b6020840151845171ffffffffffffffffffffffffffffffffffff91821660ff85161b91161015613a5057506001613a54565b5060005b8015613b48576000613ad381613a706060870160408801615601565b60000b1215613a9957865171ffffffffffffffffffffffffffffffffffff1660ff85161b613ab0565b865171ffffffffffffffffffffffffffffffffffff165b865171ffffffffffffffffffffffffffffffffffff1660ff861681901b0161489d565b60070b9050600080613aeb6060870160408801615601565b60000b1215613b00578360ff1682901b613b08565b8360ff1682901d5b604087015160070b019050677fffffffffffffff811315613b3657677fffffffffffffff6020880152613b41565b600781900b60208801525b5050613c36565b6000613bc481613b5e6060870160408801615601565b60000b1215613b8257865171ffffffffffffffffffffffffffffffffffff16613b9e565b865171ffffffffffffffffffffffffffffffffffff1660ff85161b5b602087015171ffffffffffffffffffffffffffffffffffff1660ff861681901b0161489d565b6040860151600791820b9250900b8190037fffffffffffffffffffffffffffffffffffffffffffffffff8000000000000000811215613c28577fffffffffffffffffffffffffffffffffffffffffffffffff80000000000000006020880152613c33565b600781900b60208801525b50505b50505b8260076000613c4b6020850185614bc2565b73ffffffffffffffffffffffffffffffffffffffff1673ffffffffffffffffffffffffffffffffffffffff1681526020019081526020016000206000836020016020810190613c9a9190614bc2565b73ffffffffffffffffffffffffffffffffffffffff1673ffffffffffffffffffffffffffffffffffffffff1681526020019081526020016000206000836040016020810190613ce99190615601565b600090810b8252602080830193909352604091820190208351815493850151949092015165ffffffffffff167a0100000000000000000000000000000000000000000000000000000279ffffffffffffffffffffffffffffffffffffffffffffffffffff67ffffffffffffffff9095167201000000000000000000000000000000000000027fffffffffffff000000000000000000000000000000000000000000000000000090941671ffffffffffffffffffffffffffffffffffff909316929092179290921792909216919091179055505050565b8351600090613ddf9085906dffffffffffffffffffffffffffff16615cbe565b90506dffffffffffffffffffffffffffff811115613dfc57600080fd5b6040518060400160405280826dffffffffffffffffffffffffffff16815260200187613e3757838760200151613e329190615415565b613e47565b838760200151613e4791906159d1565b71ffffffffffffffffffffffffffffffffffff90811690915273ffffffffffffffffffffffffffffffffffffffff9094166000908152600860209081526040909120825191909201519094166e010000000000000000000000000000026dffffffffffffffffffffffffffff909416939093179092555050505050565b60003073ffffffffffffffffffffffffffffffffffffffff851603613eeb57506000611c5d565b600085815260016020908152604080832073ffffffffffffffffffffffffffffffffffffffff88168452825280832081518083019092525475ffffffffffffffffffffffffffffffffffffffffffff81168252760100000000000000000000000000000000000000000000900469ffffffffffffffffffff169181019190915290849003613f7e57602001519050611c5d565b8051602090910151920375ffffffffffffffffffffffffffffffffffffffffffff169290920260601c019392505050565b6040820151825160ff1615801590613fd957504264ffffffffff16836020015164ffffffffff1614155b8015613fe457508115155b156109e657836060015161ffff16836000015160ff16111561400857614008615447565b60208301517f00000000000000000000000000000000000000000000000000000000000000006305a39a800164ffffffffff80821690831610156140b1576060860151855160009161ffff169060ff166527d6140eb6ae028161406d5761406d615c8f565b0490508460608464ffffffffff168464ffffffffff16421161408f5742614098565b8464ffffffffff165b038302901b816140aa576140aa615c8f565b0484019350505b8064ffffffffff164264ffffffffff161115614132576060860151855160009161ffff169060ff16653a1cc489993602816140ee576140ee615c8f565b0490508460608364ffffffffff168564ffffffffff161161410f5783614111565b845b64ffffffffff1642038302901b8161412b5761412b615c8f565b0484019350505b50509392505050565b60408051608081018252600080825260208201819052918101829052606081019190915265ffffffffffff861660008181526004602090815260408083208151808301835290546fffffffffffffffffffffffffffffffff80821683527001000000000000000000000000000000009091048116828501908152338087526003865284872088885286528487205485516080810187529182529581018690523094810194909452606084018690525182519596929561420693889390928e928e9291900316866131f8565b5061421e8b8b858c602001518c600001518c8c6146be565b83519095506fffffffffffffffffffffffffffffffff16156142905761428b83600001516fffffffffffffffffffffffffffffffff16866000015171ffffffffffffffffffffffffffffffffffff16896020015171ffffffffffffffffffffffffffffffffffff166143e2565b6142a4565b6142a48b88602001518760000151016144ae565b835190945061ffff6f140eb6ae00000000000000000000000004036fffffffffffffffffffffffffffffffff1684111561430a576040517f6deac20700000000000000000000000000000000000000000000000000000000815260040160405180910390fd5b33600081815260036020908152604080832065ffffffffffff8f16808552908352818420878a01905587516fffffffffffffffffffffffffffffffff908a01811689528a518d8501805171ffffffffffffffffffffffffffffffffffff92019190911690528185526004845282852089518a8601518316700100000000000000000000000000000000029216919091179055815190815291820188905283917fc3d58168c5ae7397731d063d5bbf3d657854427343f4c083240f7aacaa2d0f62910160405180910390a4505050965096945050505050565b600080807fffffffffffffffffffffffffffffffffffffffffffffffffffffffffffffffff85870985870292508281108382030391505080600003614439576000841161442e57600080fd5b5082900490506109e6565b80841161444557600080fd5b60008486880960026001871981018816978890046003810283188082028403028082028403028082028403028082028403028082028403029081029092039091026000889003889004909101858311909403939093029303949094049190911702949350505050565b6000808373ffffffffffffffffffffffffffffffffffffffff166318160ddd6040518163ffffffff1660e01b8152600401602060405180830381865afa1580156144fc573d6000803e3d6000fd5b505050506040513d601f19601f820116820180604052508101906145209190615b92565b905061ffff606067016345785d8a00006301e133806001614543600c600a615df1565b6145519063781a75c0615e00565b61455b91906154a5565b6145659190615e17565b614570906001615e3f565b61458c9068ffffffffffffffffff1666f38a31408ae338615e00565b6145969190615e61565b68ffffffffffffffffff166fffffffffffffffffffffffffffffffff16901b6145bf9190615e75565b6fffffffffffffffffffffffffffffffff1681116145f1578271ffffffffffffffffffffffffffffffffffff16611c5d565b611c5d61ffff606067016345785d8a00006301e133806001614615600c600a615df1565b6146239063781a75c0615e00565b61462d91906154a5565b6146379190615e17565b614642906001615e3f565b61465e9068ffffffffffffffffff1666f38a31408ae338615e00565b6146689190615e61565b68ffffffffffffffffff166fffffffffffffffffffffffffffffffff16901b6146919190615e75565b6fffffffffffffffffffffffffffffffff168471ffffffffffffffffffffffffffffffffffff16836143e2565b6040805160808101825260008082526020820181905291810182905260608101919091526146ed8286866149e1565b604081015160208501805190910171ffffffffffffffffffffffffffffffffffff16905286519091506000906fffffffffffffffffffffffffffffffff16156147865761478187600001516fffffffffffffffffffffffffffffffff16836060015171ffffffffffffffffffffffffffffffffffff16866020015171ffffffffffffffffffffffffffffffffffff166143e2565b61479a565b61479a8985602001518460600151016144ae565b875190915061ffff6f140eb6ae00000000000000000000000004036fffffffffffffffffffffffffffffffff16811115614800576040517f6deac20700000000000000000000000000000000000000000000000000000000815260040160405180910390fd5b6020878101805183016fffffffffffffffffffffffffffffffff908116909152885183011688526060830151858201805190910171ffffffffffffffffffffffffffffffffffff1690526040805165ffffffffffff8b168152918201839052309160009133917fc3d58168c5ae7397731d063d5bbf3d657854427343f4c083240f7aacaa2d0f62910160405180910390a450979650505050505050565b6000818310156148af576148af615447565b816000036148bf576148bf615447565b60008284816148d0576148d0615c8f565b0490506fffffffffffffffffffffffffffffffff811160071b81811c67ffffffffffffffff811160061b90811c63ffffffff811160051b90811c61ffff811160041b90811c60ff8111600390811b91821c600f811160021b90811c918211600190811b92831c9790881196179094179092171790911717176080811061495e57607f810383901c9150614972565b61496f8682607f0360020a876143e2565b91505b603781901b60015b603781116149af57838402607f1c93508360801c80826037031b8317925084811c945050806149a890615b1b565b905061497a565b5060c06149d48277d89e8c075c4155dd3213326cbbcf86fd1f63f5c205dd2ad2615e00565b901c979650505050505050565b60408051608081018252600080825260208201819052918101829052606081019190915261271061ffff841681018071ffffffffffffffffffffffffffffffffffff8716830281614a3457614a34615c8f565b0471ffffffffffffffffffffffffffffffffffff9081168085526109f69703811660ff95909516850296909604861660208401819052600a850487166060850181905294039390930390941660408201529392505050565b73ffffffffffffffffffffffffffffffffffffffff81168114614aae57600080fd5b50565b60008060408385031215614ac457600080fd5b8235614acf81614a8c565b946020939093013593505050565b7fffffffff0000000000000000000000000000000000000000000000000000000081168114614aae57600080fd5b600060208284031215614b1d57600080fd5b81356109e681614add565b600060208284031215614b3a57600080fd5b5035919050565b60005b83811015614b5c578181015183820152602001614b44565b50506000910152565b60008151808452614b7d816020860160208601614b41565b601f017fffffffffffffffffffffffffffffffffffffffffffffffffffffffffffffffe0169290920160200192915050565b6020815260006108146020830184614b65565b600060208284031215614bd457600080fd5b81356109e681614a8c565b60008083601f840112614bf157600080fd5b50813567ffffffffffffffff811115614c0957600080fd5b6020830191508360208260051b8501011115614c2457600080fd5b9250929050565b60008083601f840112614c3d57600080fd5b50813567ffffffffffffffff811115614c5557600080fd5b602083019150836020828501011115614c2457600080fd5b60008060008060008060008060a0898b031215614c8957600080fd5b8835614c9481614a8c565b97506020890135614ca481614a8c565b9650604089013567ffffffffffffffff80821115614cc157600080fd5b614ccd8c838d01614bdf565b909850965060608b0135915080821115614ce657600080fd5b614cf28c838d01614bdf565b909650945060808b0135915080821115614d0b57600080fd5b50614d188b828c01614c2b565b999c989b5096995094979396929594505050565b600060608284031215610b8f57600080fd5b600060608284031215614d5057600080fd5b6108148383614d2c565b7f4e487b7100000000000000000000000000000000000000000000000000000000600052604160045260246000fd5b6040516060810167ffffffffffffffff81118282101715614dac57614dac614d5a565b60405290565b6040805190810167ffffffffffffffff81118282101715614dac57614dac614d5a565b8035600081900b8114614de757600080fd5b919050565b600060608284031215614dfe57600080fd5b614e06614d89565b8235614e1181614a8c565b81526020830135614e2181614a8c565b6020820152614e3260408401614dd5565b60408201529392505050565b8015158114614aae57600080fd5b600080600060a08486031215614e6157600080fd5b8335614e6c81614e3e565b9250614e7b8560208601614d2c565b9150608084013590509250925092565b60008060408385031215614e9e57600080fd5b823591506020830135614eb081614a8c565b809150509250929050565b60008060008060408587031215614ed157600080fd5b843567ffffffffffffffff80821115614ee957600080fd5b614ef588838901614bdf565b90965094506020870135915080821115614f0e57600080fd5b50614f1b87828801614bdf565b95989497509550505050565b6020808252825182820181905260009190848201906040850190845b81811015614f5f57835183529284019291840191600101614f43565b50909695505050505050565b803561ffff81168114614de757600080fd5b600080600060608486031215614f9257600080fd5b614f9b84614f6b565b9250614fa960208501614f6b565b91506040840135614fb981614e3e565b809150509250925092565b608081526000835160606080840152614fe060e0840182614b65565b905060208501517fffffffffffffffffffffffffffffffffffffffffffffffffffffffffffffff808483030160a085015261501b8282614b65565b60408781015160ff1660c0870152865173ffffffffffffffffffffffffffffffffffffffff908116602080890191909152880151168682015286015160000b606086015292506109e6915050565b65ffffffffffff81168114614aae57600080fd5b60006020828403121561508f57600080fd5b81356109e681615069565b600080608083850312156150ad57600080fd5b82356150b881614e3e565b91506150c78460208501614d2c565b90509250929050565b600080604083850312156150e357600080fd5b82356150ee81614a8c565b91506020830135614eb081614e3e565b60008060008060008060006080888a03121561511957600080fd5b873567ffffffffffffffff8082111561513157600080fd5b61513d8b838c01614bdf565b909950975060208a013591508082111561515657600080fd5b6151628b838c01614bdf565b909750955060408a013591508082111561517b57600080fd5b506151888a828b01614bdf565b909450925061519b905060608901614f6b565b905092959891949750929550565b6000806000604084860312156151be57600080fd5b833567ffffffffffffffff8111156151d557600080fd5b6151e186828701614bdf565b9094509250506020840135614fb981614a8c565b815173ffffffffffffffffffffffffffffffffffffffff90811682526020808401519091169082015260408083015160000b9082015260608101610817565b6000806040838503121561524757600080fd5b823561525281614a8c565b91506020830135614eb081614a8c565b60008060008060008060a0878903121561527b57600080fd5b863561528681614a8c565b9550602087013561529681614a8c565b94506040870135935060608701359250608087013567ffffffffffffffff8111156152c057600080fd5b6152cc89828a01614c2b565b979a9699509497509295939492505050565b815171ffffffffffffffffffffffffffffffffffff90811682526020808401519091169082015260408083015160070b9082015260608101610817565b60006020828403121561532d57600080fd5b815167ffffffffffffffff8082111561534557600080fd5b818401915084601f83011261535957600080fd5b81518181111561536b5761536b614d5a565b604051601f82017fffffffffffffffffffffffffffffffffffffffffffffffffffffffffffffffe0908116603f011681019083821181831017156153b1576153b1614d5a565b816040528281528760208487010111156153ca57600080fd5b6153db836020830160208801614b41565b979650505050505050565b7f4e487b7100000000000000000000000000000000000000000000000000000000600052601160045260246000fd5b71ffffffffffffffffffffffffffffffffffff828116828216039080821115615440576154406153e6565b5092915050565b7f4e487b7100000000000000000000000000000000000000000000000000000000600052600160045260246000fd5b7f4e487b7100000000000000000000000000000000000000000000000000000000600052603260045260246000fd5b81810381811115610817576108176153e6565b81835260007f07ffffffffffffffffffffffffffffffffffffffffffffffffffffffffffffff8311156154ea57600080fd5b8260051b80836020870137939093016020019392505050565b6040815260006155176040830186886154b8565b82810360208401526153db8185876154b8565b8183528181602085013750600060208284010152600060207fffffffffffffffffffffffffffffffffffffffffffffffffffffffffffffffe0601f840116840101905092915050565b600073ffffffffffffffffffffffffffffffffffffffff808b168352808a1660208401525060a060408301526155ad60a08301888a6154b8565b82810360608401526155c08187896154b8565b905082810360808401526155d581858761552a565b9b9a5050505050505050505050565b6000602082840312156155f657600080fd5b81516109e681614add565b60006020828403121561561357600080fd5b61081482614dd5565b73ffffffffffffffffffffffffffffffffffffffff868116825260208083018790526040808401879052606084018690528451831660808501529084015190911660a083015282015160000b60c082015260e08101612b64565b803561568181614a8c565b73ffffffffffffffffffffffffffffffffffffffff90811683526020820135906156aa82614a8c565b1660208301526156bc60408201614dd5565b60000b60408301525050565b86151581528515156020820152604081018590526060810184905273ffffffffffffffffffffffffffffffffffffffff8316608082015261010081016153db60a0830184615676565b805171ffffffffffffffffffffffffffffffffffff81168114614de757600080fd5b8051600781900b8114614de757600080fd5b60006060828403121561575757600080fd5b61575f614d89565b905061576a82615711565b815261577860208301615711565b602082015261578960408301615733565b604082015292915050565b8051614de781614a8c565b60008060008060008587036101408112156157b957600080fd5b60408112156157c757600080fd5b6157cf614db2565b87516dffffffffffffffffffffffffffff811681146157ed57600080fd5b81526157fb60208901615711565b6020820152955060607fffffffffffffffffffffffffffffffffffffffffffffffffffffffffffffffc08201121561583257600080fd5b5061583b614d89565b61584760408801615711565b815261585560608801615733565b6020820152608087015161586881615069565b6040820152935061587c8760a08801615745565b925061588b6101008701615794565b915061589a6101208701615711565b90509295509295909350565b73ffffffffffffffffffffffffffffffffffffffff8616815261ffff8516602082015260ff8416604082015260e08101615915606083018571ffffffffffffffffffffffffffffffffffff80825116835280602083015116602084015250604081015160070b60408301525050565b8260c08301529695505050505050565b60006080828403121561593757600080fd5b6040516080810181811067ffffffffffffffff8211171561595a5761595a614d5a565b60405290508061596983615711565b815261597760208401615711565b602082015261598860408401615711565b604082015261599960608401615711565b60608201525092915050565b60008060e083850312156159b857600080fd5b6159c28484615745565b91506150c78460608501615925565b71ffffffffffffffffffffffffffffffffffff818116838216019080821115615440576154406153e6565b600181811c90821680615a1057607f821691505b602082108103610b8f577f4e487b7100000000000000000000000000000000000000000000000000000000600052602260045260246000fd5b73ffffffffffffffffffffffffffffffffffffffff8616815261ffff8516602082015260ff8416604082015260e08101615ab8606083018571ffffffffffffffffffffffffffffffffffff80825116835280602083015116602084015250604081015160070b60408301525050565b71ffffffffffffffffffffffffffffffffffff831660c08301529695505050505050565b60008060006101008486031215615af257600080fd5b615afc8585615745565b9250615b0b8560608601615925565b915060e084015190509250925092565b60007fffffffffffffffffffffffffffffffffffffffffffffffffffffffffffffffff8203615b4c57615b4c6153e6565b5060010190565b600060208284031215615b6557600080fd5b813560ff811681146109e657600080fd5b60008251615b88818460208701614b41565b9190910192915050565b600060208284031215615ba457600080fd5b5051919050565b600060208284031215615bbd57600080fd5b81516109e681614e3e565b600073ffffffffffffffffffffffffffffffffffffffff808916835280881660208401525085604083015284606083015260a06080830152615c0e60a08301848661552a565b98975050505050505050565b83815273ffffffffffffffffffffffffffffffffffffffff8316602082015260a08101611c5d6040830184615676565b600060608284031215615c5c57600080fd5b6108148383615745565b6fffffffffffffffffffffffffffffffff828116828216039080821115615440576154406153e6565b7f4e487b7100000000000000000000000000000000000000000000000000000000600052601260045260246000fd5b80820180821115610817576108176153e6565b600181815b80851115615d2a57817fffffffffffffffffffffffffffffffffffffffffffffffffffffffffffffffff04821115615d1057615d106153e6565b80851615615d1d57918102915b93841c9390800290615cd6565b509250929050565b600082615d4157506001610817565b81615d4e57506000610817565b8160018114615d645760028114615d6e57615d8a565b6001915050610817565b60ff841115615d7f57615d7f6153e6565b50506001821b610817565b5060208310610133831016604e8410600b8410161715615dad575081810a610817565b615db78383615cd1565b807fffffffffffffffffffffffffffffffffffffffffffffffffffffffffffffffff04821115615de957615de96153e6565b029392505050565b600061081460ff841683615d32565b8082028115828204841417610817576108176153e6565b600068ffffffffffffffffff80841680615e3357615e33615c8f565b92169190910492915050565b68ffffffffffffffffff818116838216019080821115615440576154406153e6565b600082615e7057615e70615c8f565b500490565b60006fffffffffffffffffffffffffffffffff80841680615e3357615e33615c8f56fea2646970667358221220e947303a77541d1142d423f0802b205afe95a398eb111f2b138b87efd152117f64736f6c63430008150033","linkReferences":{"src/libraries/VaultExternal.sol":{"VaultExternal":[{"start":2952,"length":20},{"start":5250,"length":20},{"start":5530,"length":20},{"start":8114,"length":20},{"start":12718,"length":20}]}}},"methodIdentifiers":{"TS_ISSUANCE_START()":"ffda9c60","balanceOf(address,uint256)":"00fdd58e","balanceOfBatch(address[],uint256[])":"4e1273f4","burn(bool,(address,address,int8),uint256)":"3fc62188","claimSIR(uint256,address)":"777b1d43","collateralStates(address)":"61086e43","cumulativeSIRPerTEA(uint256)":"7a4996e8","getReserves((address,address,int8))":"fbd98edf","initialize((address,address,int8))":"3aa88670","isApprovedForAll(address,address)":"e985e9c5","latestTokenParams()":"60e0970a","mint(bool,(address,address,int8))":"94c050f8","numberOfVaults()":"7a32af78","onERC1155BatchReceived(address,address,uint256[],uint256[],bytes)":"bc197c81","onERC1155Received(address,address,uint256,uint256,bytes)":"f23a6e61","paramsById(uint48)":"d2f3fd09","safeBatchTransferFrom(address,address,uint256[],uint256[],bytes)":"2eb2c2d6","safeTransferFrom(address,address,uint256,uint256,bytes)":"f242432a","setApprovalForAll(address,bool)":"a22cb465","supportsInterface(bytes4)":"01ffc9a7","systemParams()":"458e8e6b","totalSupply(uint256)":"bd85b039","unclaimedRewards(uint256,address)":"46f90748","updateSystemState(uint16,uint16,bool)":"5ab2cef4","updateVaults(uint48[],uint48[],uint8[],uint16)":"bb147c54","uri(uint256)":"0e89341c","vaultStates((address,address,int8))":"2edf3104","vaultTax(uint48)":"6cfcac04","withdrawFees(address)":"164e68de","withdrawToSaveSystem(address[],address)":"c7c3d2dc"},"id":47}