{"abi":[{"type":"constructor","inputs":[{"name":"systemControl","type":"address","internalType":"address"},{"name":"sir","type":"address","internalType":"address"},{"name":"oracle","type":"address","internalType":"address"}],"stateMutability":"nonpayable"},{"type":"function","name":"TS_ISSUANCE_START","inputs":[],"outputs":[{"name":"","type":"uint40","internalType":"uint40"}],"stateMutability":"view"},{"type":"function","name":"balanceOf","inputs":[{"name":"account","type":"address","internalType":"address"},{"name":"vaultId","type":"uint256","internalType":"uint256"}],"outputs":[{"name":"","type":"uint256","internalType":"uint256"}],"stateMutability":"view"},{"type":"function","name":"balanceOfBatch","inputs":[{"name":"owners","type":"address[]","internalType":"address[]"},{"name":"vaultIds","type":"uint256[]","internalType":"uint256[]"}],"outputs":[{"name":"balances_","type":"uint256[]","internalType":"uint256[]"}],"stateMutability":"view"},{"type":"function","name":"burn","inputs":[{"name":"isAPE","type":"bool","internalType":"bool"},{"name":"vaultParams","type":"tuple","internalType":"struct SirStructs.VaultParameters","components":[{"name":"debtToken","type":"address","internalType":"address"},{"name":"collateralToken","type":"address","internalType":"address"},{"name":"leverageTier","type":"int8","internalType":"int8"}]},{"name":"amount","type":"uint256","internalType":"uint256"}],"outputs":[{"name":"","type":"uint144","internalType":"uint144"}],"stateMutability":"nonpayable"},{"type":"function","name":"claimSIR","inputs":[{"name":"vaultId","type":"uint256","internalType":"uint256"},{"name":"lper","type":"address","internalType":"address"}],"outputs":[{"name":"","type":"uint80","internalType":"uint80"}],"stateMutability":"nonpayable"},{"type":"function","name":"collateralStates","inputs":[{"name":"token","type":"address","internalType":"address"}],"outputs":[{"name":"","type":"tuple","internalType":"struct SirStructs.CollateralState","components":[{"name":"totalFeesToStakers","type":"uint112","internalType":"uint112"},{"name":"total","type":"uint144","internalType":"uint144"}]}],"stateMutability":"view"},{"type":"function","name":"cumulativeSIRPerTEA","inputs":[{"name":"vaultId","type":"uint256","internalType":"uint256"}],"outputs":[{"name":"cumSIRPerTEAx96","type":"uint176","internalType":"uint176"}],"stateMutability":"view"},{"type":"function","name":"getReserves","inputs":[{"name":"vaultParams","type":"tuple","internalType":"struct SirStructs.VaultParameters","components":[{"name":"debtToken","type":"address","internalType":"address"},{"name":"collateralToken","type":"address","internalType":"address"},{"name":"leverageTier","type":"int8","internalType":"int8"}]}],"outputs":[{"name":"","type":"tuple","internalType":"struct SirStructs.Reserves","components":[{"name":"reserveApes","type":"uint144","internalType":"uint144"},{"name":"reserveLPers","type":"uint144","internalType":"uint144"},{"name":"tickPriceX42","type":"int64","internalType":"int64"}]}],"stateMutability":"view"},{"type":"function","name":"initialize","inputs":[{"name":"vaultParams","type":"tuple","internalType":"struct SirStructs.VaultParameters","components":[{"name":"debtToken","type":"address","internalType":"address"},{"name":"collateralToken","type":"address","internalType":"address"},{"name":"leverageTier","type":"int8","internalType":"int8"}]}],"outputs":[],"stateMutability":"nonpayable"},{"type":"function","name":"isApprovedForAll","inputs":[{"name":"","type":"address","internalType":"address"},{"name":"","type":"address","internalType":"address"}],"outputs":[{"name":"","type":"bool","internalType":"bool"}],"stateMutability":"view"},{"type":"function","name":"latestTokenParams","inputs":[],"outputs":[{"name":"","type":"tuple","internalType":"struct SirStructs.TokenParameters","components":[{"name":"name","type":"string","internalType":"string"},{"name":"symbol","type":"string","internalType":"string"},{"name":"decimals","type":"uint8","internalType":"uint8"}]},{"name":"","type":"tuple","internalType":"struct SirStructs.VaultParameters","components":[{"name":"debtToken","type":"address","internalType":"address"},{"name":"collateralToken","type":"address","internalType":"address"},{"name":"leverageTier","type":"int8","internalType":"int8"}]}],"stateMutability":"view"},{"type":"function","name":"mint","inputs":[{"name":"isAPE","type":"bool","internalType":"bool"},{"name":"vaultParams","type":"tuple","internalType":"struct SirStructs.VaultParameters","components":[{"name":"debtToken","type":"address","internalType":"address"},{"name":"collateralToken","type":"address","internalType":"address"},{"name":"leverageTier","type":"int8","internalType":"int8"}]}],"outputs":[{"name":"amount","type":"uint256","internalType":"uint256"}],"stateMutability":"nonpayable"},{"type":"function","name":"numberOfVaults","inputs":[],"outputs":[{"name":"","type":"uint48","internalType":"uint48"}],"stateMutability":"view"},{"type":"function","name":"onERC1155BatchReceived","inputs":[{"name":"","type":"address","internalType":"address"},{"name":"","type":"address","internalType":"address"},{"name":"","type":"uint256[]","internalType":"uint256[]"},{"name":"","type":"uint256[]","internalType":"uint256[]"},{"name":"","type":"bytes","internalType":"bytes"}],"outputs":[{"name":"","type":"bytes4","internalType":"bytes4"}],"stateMutability":"nonpayable"},{"type":"function","name":"onERC1155Received","inputs":[{"name":"","type":"address","internalType":"address"},{"name":"","type":"address","internalType":"address"},{"name":"","type":"uint256","internalType":"uint256"},{"name":"","type":"uint256","internalType":"uint256"},{"name":"","type":"bytes","internalType":"bytes"}],"outputs":[{"name":"","type":"bytes4","internalType":"bytes4"}],"stateMutability":"nonpayable"},{"type":"function","name":"paramsById","inputs":[{"name":"vaultId","type":"uint48","internalType":"uint48"}],"outputs":[{"name":"","type":"tuple","internalType":"struct SirStructs.VaultParameters","components":[{"name":"debtToken","type":"address","internalType":"address"},{"name":"collateralToken","type":"address","internalType":"address"},{"name":"leverageTier","type":"int8","internalType":"int8"}]}],"stateMutability":"view"},{"type":"function","name":"safeBatchTransferFrom","inputs":[{"name":"from","type":"address","internalType":"address"},{"name":"to","type":"address","internalType":"address"},{"name":"vaultIds","type":"uint256[]","internalType":"uint256[]"},{"name":"amounts","type":"uint256[]","internalType":"uint256[]"},{"name":"data","type":"bytes","internalType":"bytes"}],"outputs":[],"stateMutability":"nonpayable"},{"type":"function","name":"safeTransferFrom","inputs":[{"name":"from","type":"address","internalType":"address"},{"name":"to","type":"address","internalType":"address"},{"name":"vaultId","type":"uint256","internalType":"uint256"},{"name":"amount","type":"uint256","internalType":"uint256"},{"name":"data","type":"bytes","internalType":"bytes"}],"outputs":[],"stateMutability":"nonpayable"},{"type":"function","name":"setApprovalForAll","inputs":[{"name":"operator","type":"address","internalType":"address"},{"name":"approved","type":"bool","internalType":"bool"}],"outputs":[],"stateMutability":"nonpayable"},{"type":"function","name":"supportsInterface","inputs":[{"name":"interfaceId","type":"bytes4","internalType":"bytes4"}],"outputs":[{"name":"","type":"bool","internalType":"bool"}],"stateMutability":"pure"},{"type":"function","name":"systemParams","inputs":[],"outputs":[{"name":"","type":"tuple","internalType":"struct SirStructs.SystemParameters","components":[{"name":"baseFee","type":"uint16","internalType":"uint16"},{"name":"lpFee","type":"uint16","internalType":"uint16"},{"name":"mintingStopped","type":"bool","internalType":"bool"},{"name":"cumTax","type":"uint16","internalType":"uint16"}]}],"stateMutability":"view"},{"type":"function","name":"totalSupply","inputs":[{"name":"vaultId","type":"uint256","internalType":"uint256"}],"outputs":[{"name":"","type":"uint256","internalType":"uint256"}],"stateMutability":"view"},{"type":"function","name":"unclaimedRewards","inputs":[{"name":"vaultId","type":"uint256","internalType":"uint256"},{"name":"lper","type":"address","internalType":"address"}],"outputs":[{"name":"","type":"uint80","internalType":"uint80"}],"stateMutability":"view"},{"type":"function","name":"updateSystemState","inputs":[{"name":"baseFee","type":"uint16","internalType":"uint16"},{"name":"lpFee","type":"uint16","internalType":"uint16"},{"name":"mintingStopped","type":"bool","internalType":"bool"}],"outputs":[],"stateMutability":"nonpayable"},{"type":"function","name":"updateVaults","inputs":[{"name":"oldVaults","type":"uint48[]","internalType":"uint48[]"},{"name":"newVaults","type":"uint48[]","internalType":"uint48[]"},{"name":"newTaxes","type":"uint8[]","internalType":"uint8[]"},{"name":"cumTax","type":"uint16","internalType":"uint16"}],"outputs":[],"stateMutability":"nonpayable"},{"type":"function","name":"uri","inputs":[{"name":"vaultId","type":"uint256","internalType":"uint256"}],"outputs":[{"name":"","type":"string","internalType":"string"}],"stateMutability":"view"},{"type":"function","name":"vaultStates","inputs":[{"name":"vaultParams","type":"tuple","internalType":"struct SirStructs.VaultParameters","components":[{"name":"debtToken","type":"address","internalType":"address"},{"name":"collateralToken","type":"address","internalType":"address"},{"name":"leverageTier","type":"int8","internalType":"int8"}]}],"outputs":[{"name":"","type":"tuple","internalType":"struct SirStructs.VaultState","components":[{"name":"reserve","type":"uint144","internalType":"uint144"},{"name":"tickPriceSatX42","type":"int64","internalType":"int64"},{"name":"vaultId","type":"uint48","internalType":"uint48"}]}],"stateMutability":"view"},{"type":"function","name":"vaultTax","inputs":[{"name":"vaultId","type":"uint48","internalType":"uint48"}],"outputs":[{"name":"","type":"uint8","internalType":"uint8"}],"stateMutability":"view"},{"type":"function","name":"withdrawFees","inputs":[{"name":"token","type":"address","internalType":"address"}],"outputs":[{"name":"totalFeesToStakers","type":"uint112","internalType":"uint112"}],"stateMutability":"nonpayable"},{"type":"function","name":"withdrawToSaveSystem","inputs":[{"name":"tokens","type":"address[]","internalType":"address[]"},{"name":"to","type":"address","internalType":"address"}],"outputs":[{"name":"amounts","type":"uint256[]","internalType":"uint256[]"}],"stateMutability":"nonpayable"},{"type":"event","name":"ApprovalForAll","inputs":[{"name":"account","type":"address","indexed":true,"internalType":"address"},{"name":"operator","type":"address","indexed":true,"internalType":"address"},{"name":"approved","type":"bool","indexed":false,"internalType":"bool"}],"anonymous":false},{"type":"event","name":"Burn","inputs":[{"name":"vaultId","type":"uint48","indexed":true,"internalType":"uint48"},{"name":"isAPE","type":"bool","indexed":false,"internalType":"bool"},{"name":"collateralWithdrawn","type":"uint144","indexed":false,"internalType":"uint144"},{"name":"collateralFeeToStakers","type":"uint144","indexed":false,"internalType":"uint144"},{"name":"collateralFeeToLPers","type":"uint144","indexed":false,"internalType":"uint144"}],"anonymous":false},{"type":"event","name":"Mint","inputs":[{"name":"vaultId","type":"uint48","indexed":true,"internalType":"uint48"},{"name":"isAPE","type":"bool","indexed":false,"internalType":"bool"},{"name":"collateralIn","type":"uint144","indexed":false,"internalType":"uint144"},{"name":"collateralFeeToStakers","type":"uint144","indexed":false,"internalType":"uint144"},{"name":"collateralFeeToLPers","type":"uint144","indexed":false,"internalType":"uint144"}],"anonymous":false},{"type":"event","name":"TransferBatch","inputs":[{"name":"operator","type":"address","indexed":true,"internalType":"address"},{"name":"from","type":"address","indexed":true,"internalType":"address"},{"name":"to","type":"address","indexed":true,"internalType":"address"},{"name":"vaultIds","type":"uint256[]","indexed":false,"internalType":"uint256[]"},{"name":"amounts","type":"uint256[]","indexed":false,"internalType":"uint256[]"}],"anonymous":false},{"type":"event","name":"TransferSingle","inputs":[{"name":"operator","type":"address","indexed":true,"internalType":"address"},{"name":"from","type":"address","indexed":true,"internalType":"address"},{"name":"to","type":"address","indexed":true,"internalType":"address"},{"name":"id","type":"uint256","indexed":false,"internalType":"uint256"},{"name":"amount","type":"uint256","indexed":false,"internalType":"uint256"}],"anonymous":false},{"type":"event","name":"URI","inputs":[{"name":"value","type":"string","indexed":false,"internalType":"string"},{"name":"id","type":"uint256","indexed":true,"internalType":"uint256"}],"anonymous":false},{"type":"event","name":"VaultNewTax","inputs":[{"name":"vault","type":"uint48","indexed":true,"internalType":"uint48"},{"name":"tax","type":"uint8","indexed":false,"internalType":"uint8"},{"name":"cumTax","type":"uint16","indexed":false,"internalType":"uint16"}],"anonymous":false},{"type":"error","name":"LengthMismatch","inputs":[]},{"type":"error","name":"NotAuthorized","inputs":[]},{"type":"error","name":"TEAMaxSupplyExceeded","inputs":[]},{"type":"error","name":"UnsafeRecipient","inputs":[]}],"bytecode":{"object":"0x61010060405234801561001157600080fd5b506040516161e83803806161e88339810160408190526100309161015f565b6001600160a01b03928316608090815264ffffffffff421660a05291831660c052604080519283018152610fa08352610929602080850191909152600084830181905260609485018190526002805466ffffffffffffff19166309290fa017815593861660e05282519485018352808552908401818152918401818152600580546001810182559252935192027f036b6384b5eca791c62761152d0c79bb0604c104a5fb6f4eb0703f3154bb3db0810180549386166001600160a01b031990941693909317909255517f036b6384b5eca791c62761152d0c79bb0604c104a5fb6f4eb0703f3154bb3db19091018054925160ff16600160a01b026001600160a81b031990931691909316171790556101a2565b80516001600160a01b038116811461015a57600080fd5b919050565b60008060006060848603121561017457600080fd5b61017d84610143565b925061018b60208501610143565b915061019960408501610143565b90509250925092565b60805160a05160c05160e051615fd561021360003960008181611288015281816113a101528181611db90152612f9d015260008181610a0f01528181610b700152611b3f0152600081816107590152613ffd0152600081816117f60152818161228f01526126eb0152615fd56000f3fe608060405234801561001057600080fd5b50600436106101d95760003560e01c8063777b1d4311610104578063bd85b039116100a2578063f23a6e6111610071578063f23a6e611461070e578063f242432a14610721578063fbd98edf14610734578063ffda9c601461075457600080fd5b8063bd85b0391461067b578063c7c3d2dc146106ad578063d2f3fd09146106c0578063e985e9c5146106e057600080fd5b806394c050f8116100de57806394c050f8146105d6578063a22cb465146105e9578063bb147c54146105fc578063bc197c811461060f57600080fd5b8063777b1d431461056a5780637a32af781461057d5780637a4996e81461059c57600080fd5b80633fc621881161017c5780635ab2cef41161014b5780635ab2cef41461043157806360e0970a1461044457806361086e431461045a5780636cfcac041461052d57600080fd5b80633fc62188146102f5578063458e8e6b1461032b57806346f90748146103e35780634e1273f41461041157600080fd5b8063164e68de116101b8578063164e68de146102475780632eb2c2d6146102795780632edf31041461028e5780633aa88670146102e257600080fd5b8062fdd58e146101de57806301ffc9a7146102045780630e89341c14610227575b600080fd5b6101f16101ec366004614a9f565b610791565b6040519081526020015b60405180910390f35b610217610212366004614af9565b610825565b60405190151581526020016101fb565b61023a610235366004614b16565b610906565b6040516101fb9190614b9d565b61025a610255366004614bb0565b6109f5565b6040516dffffffffffffffffffffffffffff90911681526020016101fb565b61028c610287366004614c5b565b610b9d565b005b6102a161029c366004614d38565b6110a5565b60408051825171ffffffffffffffffffffffffffffffffffff16815260208084015160070b908201529181015165ffffffffffff16908201526060016101fb565b61028c6102f0366004614e35565b6111fa565b610308610303366004614e97565b6112eb565b60405171ffffffffffffffffffffffffffffffffffff90911681526020016101fb565b61039d604080516080810182526000808252602082018190529181018290526060810191909152506040805160808101825260025461ffff80821683526201000082048116602084015260ff640100000000830416151593830193909352650100000000009004909116606082015290565b6040516101fb9190600060808201905061ffff835116825261ffff602084015116602083015260408301511515604083015261ffff606084015116606083015292915050565b6103f66103f1366004614ed7565b6116be565b60405169ffffffffffffffffffff90911681526020016101fb565b61042461041f366004614f07565b6116dd565b6040516101fb9190614f78565b61028c61043f366004614fcd565b6117de565b61044c611919565b6040516101fb929190615014565b6104ee610468366004614bb0565b60408051808201909152600080825260208201525073ffffffffffffffffffffffffffffffffffffffff166000908152600860209081526040918290208251808401909352546dffffffffffffffffffffffffffff811683526e010000000000000000000000000000900471ffffffffffffffffffffffffffffffffffff169082015290565b6040805182516dffffffffffffffffffffffffffff16815260209283015171ffffffffffffffffffffffffffffffffffff1692810192909252016101fb565b61055861053b3660046150e4565b65ffffffffffff1660009081526020819052604090205460ff1690565b60405160ff90911681526020016101fb565b6103f6610578366004614ed7565b611b25565b610585611c6d565b60405165ffffffffffff90911681526020016101fb565b6105af6105aa366004614b16565b611c84565b60405175ffffffffffffffffffffffffffffffffffffffffffff90911681526020016101fb565b6101f16105e4366004615101565b611d3b565b61028c6105f7366004615137565b6121e0565b61028c61060a366004615165565b612277565b61064a61061d366004614c5b565b7fbc197c810000000000000000000000000000000000000000000000000000000098975050505050505050565b6040517fffffffff0000000000000000000000000000000000000000000000000000000090911681526020016101fb565b6101f1610689366004614b16565b6000908152600460205260409020546fffffffffffffffffffffffffffffffff1690565b6104246106bb36600461521c565b6126d1565b6106d36106ce3660046150e4565b612a87565b6040516101fb9190615268565b6102176106ee3660046152bc565b600660209081526000928352604080842090915290825290205460ff1681565b61064a61071c3660046152ea565b612b30565b61028c61072f3660046152ea565b612b5c565b610747610742366004614d38565b612f39565b6040516101fb9190615366565b61077b7f000000000000000000000000000000000000000000000000000000000000000081565b60405164ffffffffff90911681526020016101fb565b600073ffffffffffffffffffffffffffffffffffffffff831630146107e65773ffffffffffffffffffffffffffffffffffffffff8316600090815260036020908152604080832085845290915290205461081c565b60008281526004602052604090205470010000000000000000000000000000000090046fffffffffffffffffffffffffffffffff165b90505b92915050565b60007f01ffc9a7000000000000000000000000000000000000000000000000000000007fffffffff00000000000000000000000000000000000000000000000000000000831614806108b857507fd9b67a26000000000000000000000000000000000000000000000000000000007fffffffff000000000000000000000000000000000000000000000000000000008316145b8061081f5750507fffffffff00000000000000000000000000000000000000000000000000000000167f0e89341c000000000000000000000000000000000000000000000000000000001490565b6000818152600460208190526040918290205491517f3ef6287c000000000000000000000000000000000000000000000000000000008152600591810191909152602481018390526fffffffffffffffffffffffffffffffff9091166044820181905260609173__$0d913f5ea2cc8398585c34a0416dbc1ef1$__90633ef6287c90606401600060405180830381865af41580156109a8573d6000803e3d6000fd5b505050506040513d6000823e601f3d9081017fffffffffffffffffffffffffffffffffffffffffffffffffffffffffffffffe01682016040526109ee91908101906153b6565b9392505050565b60003373ffffffffffffffffffffffffffffffffffffffff7f00000000000000000000000000000000000000000000000000000000000000001614610a3957600080fd5b5073ffffffffffffffffffffffffffffffffffffffff81166000908152600860209081526040918290208251808401909352546dffffffffffffffffffffffffffff81168084526e01000000000000000000000000000090910471ffffffffffffffffffffffffffffffffffff1691830191909152908115610b9757604051806040016040528060006dffffffffffffffffffffffffffff168152602001836dffffffffffffffffffffffffffff168360200151610af79190615499565b71ffffffffffffffffffffffffffffffffffff90811690915273ffffffffffffffffffffffffffffffffffffffff85166000908152600860209081526040909120835193909101519091166e010000000000000000000000000000026dffffffffffffffffffffffffffff928316179055610b979084907f0000000000000000000000000000000000000000000000000000000000000000908516613008565b50919050565b3073ffffffffffffffffffffffffffffffffffffffff891603610bc257610bc26154c3565b848314610bfb576040517fff633a3800000000000000000000000000000000000000000000000000000000815260040160405180910390fd5b3373ffffffffffffffffffffffffffffffffffffffff891614801590610c52575073ffffffffffffffffffffffffffffffffffffffff8816600090815260066020908152604080832033845290915290205460ff16155b15610c89576040517fea8e4eb500000000000000000000000000000000000000000000000000000000815260040160405180910390fd5b6040805160808101825260008082526020820181905291810182905260608101829052905b86811015610edc576000888883818110610cca57610cca6154f2565b9050602002013590506000878784818110610ce757610ce76154f2565b90506020020135905060405180608001604052808d73ffffffffffffffffffffffffffffffffffffffff168152602001600360008f73ffffffffffffffffffffffffffffffffffffffff1673ffffffffffffffffffffffffffffffffffffffff16815260200190815260200160002060008581526020019081526020016000205481526020018c73ffffffffffffffffffffffffffffffffffffffff168152602001610d938d85610791565b90526040805160808101825260025461ffff80821683526201000082048116602080850191909152640100000000830460ff90811615158587015265010000000000909304909116606080850191909152600088815280835285812086519283018752549384168252610100840464ffffffffff1692820192909252660100000000000090920475ffffffffffffffffffffffffffffffffffffffffffff1693820193909352929650610e5292859190610e4c83613175565b896131e6565b508084602001818151610e659190615521565b90525073ffffffffffffffffffffffffffffffffffffffff8c8116908c1614610ed25760208085015173ffffffffffffffffffffffffffffffffffffffff8e16600090815260038352604080822086835290935291909120556060840151610ed2908c9084908401613433565b5050600101610cae565b508773ffffffffffffffffffffffffffffffffffffffff168973ffffffffffffffffffffffffffffffffffffffff163373ffffffffffffffffffffffffffffffffffffffff167f4a39dc06d4c0dbc64b70af90fd698a233a518aa5d07e595d983b8c0526c8f7fb8a8a8a8a604051610f57949392919061557f565b60405180910390a473ffffffffffffffffffffffffffffffffffffffff88163b1561104a576040517fbc197c81000000000000000000000000000000000000000000000000000000008082529073ffffffffffffffffffffffffffffffffffffffff8a169063bc197c8190610fde9033908e908d908d908d908d908d908d906004016155fa565b6020604051808303816000875af1158015610ffd573d6000803e3d6000fd5b505050506040513d601f19601f82011682018060405250810190611021919061567d565b7fffffffff00000000000000000000000000000000000000000000000000000000161415611063565b73ffffffffffffffffffffffffffffffffffffffff8816155b1561109a576040517f3da6393100000000000000000000000000000000000000000000000000000000815260040160405180910390fd5b505050505050505050565b6040805160608101825260008082526020820181905291810191909152600760006110d36020850185614bb0565b73ffffffffffffffffffffffffffffffffffffffff1673ffffffffffffffffffffffffffffffffffffffff16815260200190815260200160002060008360200160208101906111229190614bb0565b73ffffffffffffffffffffffffffffffffffffffff1673ffffffffffffffffffffffffffffffffffffffff1681526020019081526020016000206000836040016020810190611171919061569a565b600090810b8252602080830193909352604091820190208151606081018352905471ffffffffffffffffffffffffffffffffffff811682527201000000000000000000000000000000000000810460070b938201939093527a01000000000000000000000000000000000000000000000000000090920465ffffffffffff169082015292915050565b805173ffffffffffffffffffffffffffffffffffffffff908116600090815260076020908152604080832082860151909416835292815282822083850151830b8352905281902090517fce3978b600000000000000000000000000000000000000000000000000000000815273__$0d913f5ea2cc8398585c34a0416dbc1ef1$__9163ce3978b6916112b8917f00000000000000000000000000000000000000000000000000000000000000009160059060099088906004016156b5565b60006040518083038186803b1580156112d057600080fd5b505af41580156112e4573d6000803e3d6000fd5b5050505050565b60008060026040518060800160405290816000820160009054906101000a900461ffff1661ffff1661ffff1681526020016000820160029054906101000a900461ffff1661ffff1661ffff1681526020016000820160049054906101000a900460ff161515151581526020016000820160059054906101000a900461ffff1661ffff1661ffff1681525050905060008060008073__$0d913f5ea2cc8398585c34a0416dbc1ef1$__63a80cf3ce60008b600860077f00000000000000000000000000000000000000000000000000000000000000008e6040518763ffffffff1660e01b81526004016113e296959493929190615773565b61014060405180830381865af4158015611400573d6000803e3d6000fd5b505050506040513d601f19601f82011682018060405250810190611424919061584a565b5060408381015165ffffffffffff1660009081526020818152828220835160608082018652915460ff81168252610100810464ffffffffff16828501526601000000000000900475ffffffffffffffffffffffffffffffffffffffffffff168186015284516080810186528481529283018490529382018390528101919091529498509296509094509250908a1561158d578273ffffffffffffffffffffffffffffffffffffffff16638c2684273389600001518560000151888e6040518663ffffffff1660e01b81526004016114ff959493929190615951565b60e0604051808303816000875af115801561151e573d6000803e3d6000fd5b505050506040513d601f19601f820116820180604052508101906115429190615a60565b6060810151919550915071ffffffffffffffffffffffffffffffffffff16156115885761158861157860408c0160208d01614bb0565b86604001518684606001516134c5565b6115b1565b6115ae6115a060408c0160208d01614bb0565b86604001518985888e6136af565b90505b6115bc85858c6138c9565b6115f5600087836020015171ffffffffffffffffffffffffffffffffffff168d60200160208101906115ee9190614bb0565b8551613dad565b846040015165ffffffffffff167f7c6da711ffa6af277b820416f2daab1018c73a4fb0c4a49a38c5fb292b6c0e8b8c83600001518460200151856060015186604001516116429190615a8c565b60408051941515855271ffffffffffffffffffffffffffffffffffff9384166020860152918316848301529091166060830152519081900360800190a26116af61169260408c0160208d01614bb0565b8251339071ffffffffffffffffffffffffffffffffffff16613008565b519a9950505050505050505050565b600061081c83836116cf8587610791565b6116d887611c84565b613eb2565b6060838214611718576040517fff633a3800000000000000000000000000000000000000000000000000000000815260040160405180910390fd5b8367ffffffffffffffff81111561173157611731614d54565b60405190808252806020026020018201604052801561175a578160200160208202803683370190505b50905060005b848110156117d5576117b086868381811061177d5761177d6154f2565b90506020020160208101906117929190614bb0565b8585848181106117a4576117a46154f2565b90506020020135610791565b8282815181106117c2576117c26154f2565b6020908102919091010152600101611760565b50949350505050565b3373ffffffffffffffffffffffffffffffffffffffff7f0000000000000000000000000000000000000000000000000000000000000000161461182057600080fd5b60408051608080820183526002805461ffff808216855262010000808304821660208088019190915264010000000080850460ff161515888a01526501000000000080860485166060998a019081528a519889018b529c85168089529b85169288018390529915159887018990529a51909216949095018490527fffffffffffffffffffffffffffffffffffffffffffffffffffffffff0000000090911690961795909202949094177fffffffffffffffffffffffffffffffffffffffffffffffffff000000ffffffff16919094027fffffffffffffffffffffffffffffffffffffffffffffffffff0000ffffffffff16179102179055565b604080516060808201835280825260208201526000918101919091526040805160608101825260008082526020820181905291810191909152600580546009919061196690600190615521565b81548110611976576119766154f2565b9060005260206000209060020201816040518060600160405290816000820180546119a090615ab6565b80601f01602080910402602001604051908101604052809291908181526020018280546119cc90615ab6565b8015611a195780601f106119ee57610100808354040283529160200191611a19565b820191906000526020600020905b8154815290600101906020018083116119fc57829003601f168201915b50505050508152602001600182018054611a3290615ab6565b80601f0160208091040260200160405190810160405280929190818152602001828054611a5e90615ab6565b8015611aab5780601f10611a8057610100808354040283529160200191611aab565b820191906000526020600020905b815481529060010190602001808311611a8e57829003601f168201915b50505091835250506002919091015460ff1660209182015260408051606081018252845473ffffffffffffffffffffffffffffffffffffffff9081168252600190950154948516928101929092527401000000000000000000000000000000000000000090930460000b9281019290925294909350915050565b60003373ffffffffffffffffffffffffffffffffffffffff7f00000000000000000000000000000000000000000000000000000000000000001614611b6957600080fd5b600060405180608001604052808473ffffffffffffffffffffffffffffffffffffffff168152602001611b9c8587610791565b8152600060208083018290526040928301829052825160808101845260025461ffff8082168352620100008204811683850152640100000000820460ff90811615158488015265010000000000909204166060808401919091528a85528484529385902085519485018652549081168452610100810464ffffffffff1692840192909252660100000000000090910475ffffffffffffffffffffffffffffffffffffffffffff1692820192909252919250611c65916001918791611c5f83613175565b866131e6565b949350505050565b600554600090611c7f90600190615521565b905090565b6040805160808101825260025461ffff80821683526201000082048116602080850191909152640100000000830460ff90811615158587015265010000000000909304909116606080850191909152600086815280835285812086519283018752549384168252610100840464ffffffffff1692820192909252660100000000000090920475ffffffffffffffffffffffffffffffffffffffffffff169382019390935261081f9190611d3685613175565b613f9d565b6040805160808101825260025461ffff80821683526201000082048116602084015260ff6401000000008304161580159484019490945265010000000000909104166060820152600091611d8e57600080fd5b600080600080600073__$0d913f5ea2cc8398585c34a0416dbc1ef1$__63a80cf3ce60018b600860077f00000000000000000000000000000000000000000000000000000000000000008e6040518763ffffffff1660e01b8152600401611dfa96959493929190615773565b61014060405180830381865af4158015611e18573d6000803e3d6000fd5b505050506040513d601f19601f82011682018060405250810190611e3c919061584a565b60408481015165ffffffffffff1660009081526020818152828220835160608082018652915460ff81168252610100810464ffffffffff16828501526601000000000000900475ffffffffffffffffffffffffffffffffffffffffffff16818601528451608081018652848152928301849052938201839052810191909152959a5093985091965094509250908a15611fbd57875182516040517f6bc601d700000000000000000000000000000000000000000000000000000000815273ffffffffffffffffffffffffffffffffffffffff871692636bc601d792611f2b92339291908b908a90600401615b03565b610100604051808303816000875af1158015611f4b573d6000803e3d6000fd5b505050506040513d601f19601f82011682018060405250810190611f6f9190615ba6565b6060820151909b50919650915071ffffffffffffffffffffffffffffffffffff1615611fb857611fb8611fa860408c0160208d01614bb0565b87604001518784606001516134c5565b611fe3565b611fde611fd060408c0160208d01614bb0565b87604001518a858988614129565b995090505b611fee86868c6138c9565b612026600188836020015171ffffffffffffffffffffffffffffffffffff168d60200160208101906120209190614bb0565b87613dad565b856040015165ffffffffffff167f2ea082b0ce379480d9dfb0d7ab365e33def58ee2bee64887c13e531723b5c8818c8360000151846020015185606001518660400151016040516120a99493929190931515845271ffffffffffffffffffffffffffffffffffff9283166020850152908216604084015216606082015260800190565b60405180910390a28a1580156120bf5750333b15155b801561219b575060408087015190517ff23a6e6100000000000000000000000000000000000000000000000000000000808252336004830181905260006024840181905265ffffffffffff9094166044840152606483018d905260a0608484015260a4830193909352919063f23a6e619060c4016020604051808303816000875af1158015612152573d6000803e3d6000fd5b505050506040513d601f19601f82011682018060405250810190612176919061567d565b7fffffffff000000000000000000000000000000000000000000000000000000001614155b156121d2576040517f3da6393100000000000000000000000000000000000000000000000000000000815260040160405180910390fd5b505050505050505092915050565b33600081815260066020908152604080832073ffffffffffffffffffffffffffffffffffffffff87168085529083529281902080547fffffffffffffffffffffffffffffffffffffffffffffffffffffffffffffff001686151590811790915590519081529192917f17307eab39ab6107e8899845ad3d59bd9653f200f220920489ca2b5937696c31910160405180910390a35050565b3373ffffffffffffffffffffffffffffffffffffffff7f000000000000000000000000000000000000000000000000000000000000000016146122b957600080fd5b6000805b8781101561248c576122fc8989838181106122da576122da6154f2565b90506020020160208101906122ef91906150e4565b65ffffffffffff16611c84565b91506040518060600160405280600060ff1681526020014264ffffffffff1681526020018375ffffffffffffffffffffffffffffffffffffffffffff168152506000808b8b85818110612351576123516154f2565b905060200201602081019061236691906150e4565b65ffffffffffff16815260208082019290925260409081016000208351815493850151949092015175ffffffffffffffffffffffffffffffffffffffffffff166601000000000000027fffffffff00000000000000000000000000000000000000000000ffffffffffff64ffffffffff909516610100027fffffffffffffffffffffffffffffffffffffffffffffffffffff00000000000090941660ff90931692909217929092179290921691909117905588888281811061242a5761242a6154f2565b905060200201602081019061243f91906150e4565b604080516000808252602082015265ffffffffffff92909216917fc05b4c85e1a9e164c2764407bce9e5955a2e6435dea37ef8c4e62ec458ebf21a910160405180910390a26001016122bd565b5060005b8581101561268b576124ad8787838181106122da576122da6154f2565b915060405180606001604052808686848181106124cc576124cc6154f2565b90506020020160208101906124e19190615be8565b60ff1681526020014264ffffffffff1681526020018375ffffffffffffffffffffffffffffffffffffffffffff16815250600080898985818110612527576125276154f2565b905060200201602081019061253c91906150e4565b65ffffffffffff16815260208082019290925260409081016000208351815493850151949092015175ffffffffffffffffffffffffffffffffffffffffffff166601000000000000027fffffffff00000000000000000000000000000000000000000000ffffffffffff64ffffffffff909516610100027fffffffffffffffffffffffffffffffffffffffffffffffffffff00000000000090941660ff909316929092179290921792909216919091179055868682818110612600576126006154f2565b905060200201602081019061261591906150e4565b65ffffffffffff167fc05b4c85e1a9e164c2764407bce9e5955a2e6435dea37ef8c4e62ec458ebf21a868684818110612650576126506154f2565b90506020020160208101906126659190615be8565b6040805160ff909216825261ffff871660208301520160405180910390a2600101612490565b50506002805461ffff90921665010000000000027fffffffffffffffffffffffffffffffffffffffffffffffffff0000ffffffffff909216919091179055505050505050565b60603373ffffffffffffffffffffffffffffffffffffffff7f0000000000000000000000000000000000000000000000000000000000000000161461271557600080fd5b8267ffffffffffffffff81111561272e5761272e614d54565b604051908082528060200260200182016040528015612757578160200160208202803683370190505b5090506000606060005b85811015612a7d5786868281811061277b5761277b6154f2565b90506020020160208101906127909190614bb0565b604080513060248083019190915282518083039091018152604490910182526020810180517bffffffffffffffffffffffffffffffffffffffffffffffffffffffff167f70a0823100000000000000000000000000000000000000000000000000000000179052905173ffffffffffffffffffffffffffffffffffffffff929092169161281d9190615c0b565b6000604051808303816000865af19150503d806000811461285a576040519150601f19603f3d011682016040523d82523d6000602084013e61285f565b606091505b509093509150828015612873575081516020145b15612a75578180602001905181019061288c9190615c27565b84828151811061289e5761289e6154f2565b60200260200101818152505060008482815181106128be576128be6154f2565b60200260200101511115612a75578686828181106128de576128de6154f2565b90506020020160208101906128f39190614bb0565b73ffffffffffffffffffffffffffffffffffffffff1663a9059cbb60e01b86868481518110612924576129246154f2565b602090810291909101015160405173ffffffffffffffffffffffffffffffffffffffff90921660248301526044820152606401604080517fffffffffffffffffffffffffffffffffffffffffffffffffffffffffffffffe08184030181529181526020820180517bffffffffffffffffffffffffffffffffffffffffffffffffffffffff167fffffffff000000000000000000000000000000000000000000000000000000009094169390931790925290516129e09190615c0b565b6000604051808303816000865af19150503d8060008114612a1d576040519150601f19603f3d011682016040523d82523d6000602084013e612a22565b606091505b509093509150828015612a4d575081511580612a4d575081806020019051810190612a4d9190615c40565b925082612a75576000848281518110612a6857612a686154f2565b6020026020010181815250505b600101612761565b5050509392505050565b604080516060810182526000808252602082018190529181019190915260058265ffffffffffff1681548110612abf57612abf6154f2565b60009182526020808320604080516060810182526002909402909101805473ffffffffffffffffffffffffffffffffffffffff9081168552600190910154908116928401929092527401000000000000000000000000000000000000000090910490920b9181019190915292915050565b7ff23a6e61000000000000000000000000000000000000000000000000000000005b9695505050505050565b3073ffffffffffffffffffffffffffffffffffffffff871603612b8157612b816154c3565b3373ffffffffffffffffffffffffffffffffffffffff871614801590612bd8575073ffffffffffffffffffffffffffffffffffffffff8616600090815260066020908152604080832033845290915290205460ff16155b15612c0f576040517fea8e4eb500000000000000000000000000000000000000000000000000000000815260040160405180910390fd5b6040805160808101825273ffffffffffffffffffffffffffffffffffffffff808916808352600090815260036020908152848220898352815284822054908401529088169282019290925260608101612c688888610791565b90526040805160808101825260025461ffff80821683526201000082048116602080850191909152640100000000830460ff9081161515858701526501000000000090930490911660608085019190915260008b815280835285812086519283018752549384168252610100840464ffffffffff1692820192909252660100000000000090920475ffffffffffffffffffffffffffffffffffffffffffff1693820193909352929350612d2192889190611c5f83613175565b508381602001818151612d349190615521565b90525073ffffffffffffffffffffffffffffffffffffffff87811690871614612da15760208082015173ffffffffffffffffffffffffffffffffffffffff8916600090815260038352604080822089835290935291909120556060810151612da190879087908701613433565b604080518681526020810186905273ffffffffffffffffffffffffffffffffffffffff80891692908a169133917fc3d58168c5ae7397731d063d5bbf3d657854427343f4c083240f7aacaa2d0f62910160405180910390a473ffffffffffffffffffffffffffffffffffffffff86163b15612ee0576040517ff23a6e61000000000000000000000000000000000000000000000000000000008082529073ffffffffffffffffffffffffffffffffffffffff88169063f23a6e6190612e749033908c908b908b908b908b90600401615c5d565b6020604051808303816000875af1158015612e93573d6000803e3d6000fd5b505050506040513d601f19601f82011682018060405250810190612eb7919061567d565b7fffffffff00000000000000000000000000000000000000000000000000000000161415612ef9565b73ffffffffffffffffffffffffffffffffffffffff8616155b15612f30576040517f3da6393100000000000000000000000000000000000000000000000000000000815260040160405180910390fd5b50505050505050565b604080516060810182526000808252602082018190528183015290517f94215a4c00000000000000000000000000000000000000000000000000000000815273__$0d913f5ea2cc8398585c34a0416dbc1ef1$__906394215a4c90612fc7906007907f0000000000000000000000000000000000000000000000000000000000000000908790600401615cc1565b606060405180830381865af4158015612fe4573d6000803e3d6000fd5b505050506040513d601f19601f8201168201806040525081019061081f9190615cf1565b6040805173ffffffffffffffffffffffffffffffffffffffff8481166024830152604480830185905283518084039091018152606490920183526020820180517bffffffffffffffffffffffffffffffffffffffffffffffffffffffff167fa9059cbb00000000000000000000000000000000000000000000000000000000179052915160009283929087169161309f9190615c0b565b6000604051808303816000865af19150503d80600081146130dc576040519150601f19603f3d011682016040523d82523d6000602084013e6130e1565b606091505b509150915081801561310b57508051158061310b57508080602001905181019061310b9190615c40565b6112e4576040517f08c379a000000000000000000000000000000000000000000000000000000000815260206004820152600260248201527f5354000000000000000000000000000000000000000000000000000000000000604482015260640160405180910390fd5b60008181526004602090815260408083208151808301909252546fffffffffffffffffffffffffffffffff8082168084527001000000000000000000000000000000009092041692820183905290916131cd91615d0d565b6fffffffffffffffffffffffffffffffff169392505050565b6000806131f4868686613f9d565b905061320a878460000151856020015184613eb2565b915060405180604001604052808275ffffffffffffffffffffffffffffffffffffffffffff168152602001896132405783613243565b60005b69ffffffffffffffffffff9081169091526000898152600160209081526040808320885173ffffffffffffffffffffffffffffffffffffffff908116855290835292819020855195909201519093167601000000000000000000000000000000000000000000000275ffffffffffffffffffffffffffffffffffffffffffff9094169390931790925584015116301461339a5760405180604001604052808275ffffffffffffffffffffffffffffffffffffffffffff168152602001613313898660400151876060015186613eb2565b69ffffffffffffffffffff90811690915260008981526001602090815260408083208882015173ffffffffffffffffffffffffffffffffffffffff1684528252909120835193909101519091167601000000000000000000000000000000000000000000000275ffffffffffffffffffffffffffffffffffffffffffff9092169190911790555b60009687526020879052604090962080547fffffffff000000000000000000000000000000000000000000000000000000ff16660100000000000075ffffffffffffffffffffffffffffffffffffffffffff909816979097027fffffffffffffffffffffffffffffffffffffffffffffffffffff0000000000ff16969096176101004264ffffffffff1602179095555092949350505050565b3073ffffffffffffffffffffffffffffffffffffffff84160361349157600082815260046020526040902080546fffffffffffffffffffffffffffffffff808416700100000000000000000000000000000000029116179055505050565b73ffffffffffffffffffffffffffffffffffffffff9290921660009081526003602090815260408083209383529290522055565b65ffffffffffff831660009081526004602090815260408083208151808301909252546fffffffffffffffffffffffffffffffff80821680845270010000000000000000000000000000000090920416928201929092529190156135755761357082600001516fffffffffffffffffffffffffffffffff168471ffffffffffffffffffffffffffffffffffff16866020015171ffffffffffffffffffffffffffffffffffff166143d0565b613585565b613585868560200151850161449c565b825190915061ffff6f140eb6ae00000000000000000000000004036fffffffffffffffffffffffffffffffff168111156135eb576040517f6deac20700000000000000000000000000000000000000000000000000000000815260040160405180910390fd5b602082810180516fffffffffffffffffffffffffffffffff908401811682528451840181168552868301805171ffffffffffffffffffffffffffffffffffff90880116905265ffffffffffff8816600081815260048552604080822088519551851670010000000000000000000000000000000002959094169490941790925582519081529283018490523092909133917fc3d58168c5ae7397731d063d5bbf3d657854427343f4c083240f7aacaa2d0f62910160405180910390a4505050505050565b604080516080808201835260008083526020808401829052838501829052606080850183905265ffffffffffff8b16808452600483528684208751808901895290546fffffffffffffffffffffffffffffffff8082168352700100000000000000000000000000000000909104811682860190815233808852600387528a882085895287528a8820548b51998a018c529089529588018690523099880199909952928601859052965187519697969395946137729490938d928d920316866131e6565b5060006137ae876020015171ffffffffffffffffffffffffffffffffffff168786600001516fffffffffffffffffffffffffffffffff166143d0565b9050828611156137bd57600080fd5b33600090815260036020908152604080832065ffffffffffff8e1684528252909120878503905584518790036fffffffffffffffffffffffffffffffff168552878101805183900371ffffffffffffffffffffffffffffffffffff1690528901518851613831918d918d9188918c876146ac565b65ffffffffffff8b16600081815260046020908152604080832089518a8401516fffffffffffffffffffffffffffffffff90811670010000000000000000000000000000000002911617905580519384529083018a905292975091339182917fc3d58168c5ae7397731d063d5bbf3d657854427343f4c083240f7aacaa2d0f62910160405180910390a4505050509695505050505050565b602082015182510171ffffffffffffffffffffffffffffffffffff16808452600211156138f557600080fd5b815171ffffffffffffffffffffffffffffffffffff1660000361392557677fffffffffffffff6020840152613c27565b816020015171ffffffffffffffffffffffffffffffffffff16600003613970577fffffffffffffffffffffffffffffffffffffffffffffffff80000000000000006020840152613c27565b600080613983606084016040850161569a565b60000b12156139a45761399c606083016040840161569a565b6000036139b4565b6139b4606083016040840161569a565b90506000806139c9606085016040860161569a565b60000b1315613a0c576020840151845171ffffffffffffffffffffffffffffffffffff918216911660ff84161b1015613a0457506001613a42565b506000613a42565b6020840151845171ffffffffffffffffffffffffffffffffffff91821660ff85161b91161015613a3e57506001613a42565b5060005b8015613b36576000613ac181613a5e606087016040880161569a565b60000b1215613a8757865171ffffffffffffffffffffffffffffffffffff1660ff85161b613a9e565b865171ffffffffffffffffffffffffffffffffffff165b865171ffffffffffffffffffffffffffffffffffff1660ff861681901b0161488b565b60070b9050600080613ad9606087016040880161569a565b60000b1215613aee578360ff1682901b613af6565b8360ff1682901d5b604087015160070b019050677fffffffffffffff811315613b2457677fffffffffffffff6020880152613b2f565b600781900b60208801525b5050613c24565b6000613bb281613b4c606087016040880161569a565b60000b1215613b7057865171ffffffffffffffffffffffffffffffffffff16613b8c565b865171ffffffffffffffffffffffffffffffffffff1660ff85161b5b602087015171ffffffffffffffffffffffffffffffffffff1660ff861681901b0161488b565b6040860151600791820b9250900b8190037fffffffffffffffffffffffffffffffffffffffffffffffff8000000000000000811215613c16577fffffffffffffffffffffffffffffffffffffffffffffffff80000000000000006020880152613c21565b600781900b60208801525b50505b50505b8260076000613c396020850185614bb0565b73ffffffffffffffffffffffffffffffffffffffff1673ffffffffffffffffffffffffffffffffffffffff1681526020019081526020016000206000836020016020810190613c889190614bb0565b73ffffffffffffffffffffffffffffffffffffffff1673ffffffffffffffffffffffffffffffffffffffff1681526020019081526020016000206000836040016020810190613cd7919061569a565b600090810b8252602080830193909352604091820190208351815493850151949092015165ffffffffffff167a0100000000000000000000000000000000000000000000000000000279ffffffffffffffffffffffffffffffffffffffffffffffffffff67ffffffffffffffff9095167201000000000000000000000000000000000000027fffffffffffff000000000000000000000000000000000000000000000000000090941671ffffffffffffffffffffffffffffffffffff909316929092179290921792909216919091179055505050565b8351600090613dcd9085906dffffffffffffffffffffffffffff16615d64565b90506dffffffffffffffffffffffffffff811115613dea57600080fd5b6040518060400160405280826dffffffffffffffffffffffffffff16815260200187613e2557838760200151613e209190615499565b613e35565b838760200151613e359190615a8c565b71ffffffffffffffffffffffffffffffffffff90811690915273ffffffffffffffffffffffffffffffffffffffff9094166000908152600860209081526040909120825191909201519094166e010000000000000000000000000000026dffffffffffffffffffffffffffff909416939093179092555050505050565b60003073ffffffffffffffffffffffffffffffffffffffff851603613ed957506000611c65565b600085815260016020908152604080832073ffffffffffffffffffffffffffffffffffffffff88168452825280832081518083019092525475ffffffffffffffffffffffffffffffffffffffffffff81168252760100000000000000000000000000000000000000000000900469ffffffffffffffffffff169181019190915290849003613f6c57602001519050611c65565b8051602090910151920375ffffffffffffffffffffffffffffffffffffffffffff169290920260601c019392505050565b6040820151825160ff1615801590613fc757504264ffffffffff16836020015164ffffffffff1614155b8015613fd257508115155b156109ee57836060015161ffff16836000015160ff161115613ff657613ff66154c3565b60208301517f00000000000000000000000000000000000000000000000000000000000000006305a39a800164ffffffffff808216908316101561409f576060860151855160009161ffff169060ff166527d6140eb6ae028161405b5761405b615d35565b0490508460608464ffffffffff168464ffffffffff16421161407d5742614086565b8464ffffffffff165b038302901b8161409857614098615d35565b0484019350505b8064ffffffffff164264ffffffffff161115614120576060860151855160009161ffff169060ff16653a1cc489993602816140dc576140dc615d35565b0490508460608364ffffffffff168564ffffffffff16116140fd57836140ff565b845b64ffffffffff1642038302901b8161411957614119615d35565b0484019350505b50509392505050565b60408051608081018252600080825260208201819052918101829052606081019190915265ffffffffffff861660008181526004602090815260408083208151808301835290546fffffffffffffffffffffffffffffffff8082168352700100000000000000000000000000000000909104811682850190815233808752600386528487208888528652848720548551608081018752918252958101869052309481019490945260608401869052518251959692956141f493889390928e928e9291900316866131e6565b5061420c8b8b858c602001518c600001518c8c6146ac565b83519095506fffffffffffffffffffffffffffffffff161561427e5761427983600001516fffffffffffffffffffffffffffffffff16866000015171ffffffffffffffffffffffffffffffffffff16896020015171ffffffffffffffffffffffffffffffffffff166143d0565b614292565b6142928b886020015187600001510161449c565b835190945061ffff6f140eb6ae00000000000000000000000004036fffffffffffffffffffffffffffffffff168411156142f8576040517f6deac20700000000000000000000000000000000000000000000000000000000815260040160405180910390fd5b33600081815260036020908152604080832065ffffffffffff8f16808552908352818420878a01905587516fffffffffffffffffffffffffffffffff908a01811689528a518d8501805171ffffffffffffffffffffffffffffffffffff92019190911690528185526004845282852089518a8601518316700100000000000000000000000000000000029216919091179055815190815291820188905283917fc3d58168c5ae7397731d063d5bbf3d657854427343f4c083240f7aacaa2d0f62910160405180910390a4505050965096945050505050565b600080807fffffffffffffffffffffffffffffffffffffffffffffffffffffffffffffffff85870985870292508281108382030391505080600003614427576000841161441c57600080fd5b5082900490506109ee565b80841161443357600080fd5b60008486880960026001871981018816978890046003810283188082028403028082028403028082028403028082028403028082028403029081029092039091026000889003889004909101858311909403939093029303949094049190911702949350505050565b6000808373ffffffffffffffffffffffffffffffffffffffff166318160ddd6040518163ffffffff1660e01b8152600401602060405180830381865afa1580156144ea573d6000803e3d6000fd5b505050506040513d601f19601f8201168201806040525081019061450e9190615c27565b905061ffff606067016345785d8a00006301e133806001614531600c600a615e9a565b61453f9063781a75c0615ea9565b6145499190615521565b6145539190615ec0565b61455e906001615ef2565b61457a9068ffffffffffffffffff1666f38a31408ae338615ea9565b6145849190615f13565b68ffffffffffffffffff166fffffffffffffffffffffffffffffffff16901b6145ad9190615f27565b6fffffffffffffffffffffffffffffffff1681116145df578271ffffffffffffffffffffffffffffffffffff16611c65565b611c6561ffff606067016345785d8a00006301e133806001614603600c600a615e9a565b6146119063781a75c0615ea9565b61461b9190615521565b6146259190615ec0565b614630906001615ef2565b61464c9068ffffffffffffffffff1666f38a31408ae338615ea9565b6146569190615f13565b68ffffffffffffffffff166fffffffffffffffffffffffffffffffff16901b61467f9190615f27565b6fffffffffffffffffffffffffffffffff168471ffffffffffffffffffffffffffffffffffff16836143d0565b6040805160808101825260008082526020820181905291810182905260608101919091526146db8286866149cf565b604081015160208501805190910171ffffffffffffffffffffffffffffffffffff16905286519091506000906fffffffffffffffffffffffffffffffff16156147745761476f87600001516fffffffffffffffffffffffffffffffff16836060015171ffffffffffffffffffffffffffffffffffff16866020015171ffffffffffffffffffffffffffffffffffff166143d0565b614788565b61478889856020015184606001510161449c565b875190915061ffff6f140eb6ae00000000000000000000000004036fffffffffffffffffffffffffffffffff168111156147ee576040517f6deac20700000000000000000000000000000000000000000000000000000000815260040160405180910390fd5b6020878101805183016fffffffffffffffffffffffffffffffff908116909152885183011688526060830151858201805190910171ffffffffffffffffffffffffffffffffffff1690526040805165ffffffffffff8b168152918201839052309160009133917fc3d58168c5ae7397731d063d5bbf3d657854427343f4c083240f7aacaa2d0f62910160405180910390a450979650505050505050565b60008183101561489d5761489d6154c3565b816000036148ad576148ad6154c3565b60008284816148be576148be615d35565b0490506fffffffffffffffffffffffffffffffff811160071b81811c67ffffffffffffffff811160061b90811c63ffffffff811160051b90811c61ffff811160041b90811c60ff8111600390811b91821c600f811160021b90811c918211600190811b92831c9790881196179094179092171790911717176080811061494c57607f810383901c9150614960565b61495d8682607f0360020a876143d0565b91505b603781901b60015b6037811161499d57838402607f1c93508360801c80826037031b8317925084811c9450508061499690615f67565b9050614968565b5060c06149c28277d89e8c075c4155dd3213326cbbcf86fd1f63f5c205dd2ad2615ea9565b901c979650505050505050565b60408051608081018252600080825260208201819052918101829052606081019190915261271061ffff841681018071ffffffffffffffffffffffffffffffffffff8716830281614a2257614a22615d35565b0471ffffffffffffffffffffffffffffffffffff9081168085526109f69703811660ff95909516850296909604861660208401819052600a850487166060850181905294039390930390941660408201529392505050565b73ffffffffffffffffffffffffffffffffffffffff81168114614a9c57600080fd5b50565b60008060408385031215614ab257600080fd5b8235614abd81614a7a565b946020939093013593505050565b7fffffffff0000000000000000000000000000000000000000000000000000000081168114614a9c57600080fd5b600060208284031215614b0b57600080fd5b81356109ee81614acb565b600060208284031215614b2857600080fd5b5035919050565b60005b83811015614b4a578181015183820152602001614b32565b50506000910152565b60008151808452614b6b816020860160208601614b2f565b601f017fffffffffffffffffffffffffffffffffffffffffffffffffffffffffffffffe0169290920160200192915050565b60208152600061081c6020830184614b53565b600060208284031215614bc257600080fd5b81356109ee81614a7a565b60008083601f840112614bdf57600080fd5b50813567ffffffffffffffff811115614bf757600080fd5b6020830191508360208260051b8501011115614c1257600080fd5b9250929050565b60008083601f840112614c2b57600080fd5b50813567ffffffffffffffff811115614c4357600080fd5b602083019150836020828501011115614c1257600080fd5b60008060008060008060008060a0898b031215614c7757600080fd5b8835614c8281614a7a565b97506020890135614c9281614a7a565b9650604089013567ffffffffffffffff811115614cae57600080fd5b614cba8b828c01614bcd565b909750955050606089013567ffffffffffffffff811115614cda57600080fd5b614ce68b828c01614bcd565b909550935050608089013567ffffffffffffffff811115614d0657600080fd5b614d128b828c01614c19565b999c989b5096995094979396929594505050565b600060608284031215610b9757600080fd5b600060608284031215614d4a57600080fd5b61081c8383614d26565b7f4e487b7100000000000000000000000000000000000000000000000000000000600052604160045260246000fd5b6040516060810167ffffffffffffffff81118282101715614da657614da6614d54565b60405290565b6040805190810167ffffffffffffffff81118282101715614da657614da6614d54565b604051601f82017fffffffffffffffffffffffffffffffffffffffffffffffffffffffffffffffe016810167ffffffffffffffff81118282101715614e1657614e16614d54565b604052919050565b8035600081900b8114614e3057600080fd5b919050565b60006060828403128015614e4857600080fd5b50614e51614d83565b8235614e5c81614a7a565b81526020830135614e6c81614a7a565b6020820152614e7d60408401614e1e565b60408201529392505050565b8015158114614a9c57600080fd5b600080600060a08486031215614eac57600080fd5b8335614eb781614e89565b9250614ec68560208601614d26565b929592945050506080919091013590565b60008060408385031215614eea57600080fd5b823591506020830135614efc81614a7a565b809150509250929050565b60008060008060408587031215614f1d57600080fd5b843567ffffffffffffffff811115614f3457600080fd5b614f4087828801614bcd565b909550935050602085013567ffffffffffffffff811115614f6057600080fd5b614f6c87828801614bcd565b95989497509550505050565b602080825282518282018190526000918401906040840190835b81811015614fb0578351835260209384019390920191600101614f92565b509095945050505050565b803561ffff81168114614e3057600080fd5b600080600060608486031215614fe257600080fd5b614feb84614fbb565b9250614ff960208501614fbb565b9150604084013561500981614e89565b809150509250925092565b60808152600083516060608084015261503060e0840182614b53565b905060208501517fffffffffffffffffffffffffffffffffffffffffffffffffffffffffffffff808483030160a085015261506b8282614b53565b604087015160ff1660c086015292506109ee915050602083018473ffffffffffffffffffffffffffffffffffffffff815116825273ffffffffffffffffffffffffffffffffffffffff6020820151166020830152604081015160000b60408301525050565b65ffffffffffff81168114614a9c57600080fd5b6000602082840312156150f657600080fd5b81356109ee816150d0565b6000806080838503121561511457600080fd5b823561511f81614e89565b915061512e8460208501614d26565b90509250929050565b6000806040838503121561514a57600080fd5b823561515581614a7a565b91506020830135614efc81614e89565b60008060008060008060006080888a03121561518057600080fd5b873567ffffffffffffffff81111561519757600080fd5b6151a38a828b01614bcd565b909850965050602088013567ffffffffffffffff8111156151c357600080fd5b6151cf8a828b01614bcd565b909650945050604088013567ffffffffffffffff8111156151ef57600080fd5b6151fb8a828b01614bcd565b909450925061520e905060608901614fbb565b905092959891949750929550565b60008060006040848603121561523157600080fd5b833567ffffffffffffffff81111561524857600080fd5b61525486828701614bcd565b909450925050602084013561500981614a7a565b6060810161081f828473ffffffffffffffffffffffffffffffffffffffff815116825273ffffffffffffffffffffffffffffffffffffffff6020820151166020830152604081015160000b60408301525050565b600080604083850312156152cf57600080fd5b82356152da81614a7a565b91506020830135614efc81614a7a565b60008060008060008060a0878903121561530357600080fd5b863561530e81614a7a565b9550602087013561531e81614a7a565b94506040870135935060608701359250608087013567ffffffffffffffff81111561534857600080fd5b61535489828a01614c19565b979a9699509497509295939492505050565b6060810161081f828471ffffffffffffffffffffffffffffffffffff815116825271ffffffffffffffffffffffffffffffffffff6020820151166020830152604081015160070b60408301525050565b6000602082840312156153c857600080fd5b815167ffffffffffffffff8111156153df57600080fd5b8201601f810184136153f057600080fd5b805167ffffffffffffffff81111561540a5761540a614d54565b61543b60207fffffffffffffffffffffffffffffffffffffffffffffffffffffffffffffffe0601f84011601614dcf565b81815285602083850101111561545057600080fd5b615461826020830160208601614b2f565b95945050505050565b7f4e487b7100000000000000000000000000000000000000000000000000000000600052601160045260246000fd5b71ffffffffffffffffffffffffffffffffffff828116828216039081111561081f5761081f61546a565b7f4e487b7100000000000000000000000000000000000000000000000000000000600052600160045260246000fd5b7f4e487b7100000000000000000000000000000000000000000000000000000000600052603260045260246000fd5b8181038181111561081f5761081f61546a565b81835260007f07ffffffffffffffffffffffffffffffffffffffffffffffffffffffffffffff83111561556657600080fd5b8260051b80836020870137939093016020019392505050565b604081526000615593604083018688615534565b82810360208401526155a6818587615534565b979650505050505050565b8183528181602085013750600060208284010152600060207fffffffffffffffffffffffffffffffffffffffffffffffffffffffffffffffe0601f840116840101905092915050565b73ffffffffffffffffffffffffffffffffffffffff8916815273ffffffffffffffffffffffffffffffffffffffff8816602082015260a06040820152600061564660a08301888a615534565b8281036060840152615659818789615534565b9050828103608084015261566e8185876155b1565b9b9a5050505050505050505050565b60006020828403121561568f57600080fd5b81516109ee81614acb565b6000602082840312156156ac57600080fd5b61081c82614e1e565b73ffffffffffffffffffffffffffffffffffffffff868116825260208083018790526040808401879052606084018690528451831660808501529084015190911660a083015282015160000b60c082015260e08101612b52565b803561571a81614a7a565b73ffffffffffffffffffffffffffffffffffffffff168252602081013561574081614a7a565b73ffffffffffffffffffffffffffffffffffffffff16602083015261576760408201614e1e565b60000b60408301525050565b86151581528515156020820152604081018590526060810184905273ffffffffffffffffffffffffffffffffffffffff8316608082015261010081016155a660a083018461570f565b805171ffffffffffffffffffffffffffffffffffff81168114614e3057600080fd5b8051600781900b8114614e3057600080fd5b60006060828403121561580257600080fd5b61580a614d83565b9050615815826157bc565b8152615823602083016157bc565b6020820152615834604083016157de565b604082015292915050565b8051614e3081614a7a565b600080600080600085870361014081121561586457600080fd5b604081121561587257600080fd5b61587a614dac565b87516dffffffffffffffffffffffffffff8116811461589857600080fd5b81526158a6602089016157bc565b6020820152955060607fffffffffffffffffffffffffffffffffffffffffffffffffffffffffffffffc0820112156158dd57600080fd5b506158e6614d83565b6158f2604088016157bc565b8152615900606088016157de565b60208201526080870151615913816150d0565b604082015293506159278760a088016157f0565b9250615936610100870161583f565b915061594561012087016157bc565b90509295509295909350565b73ffffffffffffffffffffffffffffffffffffffff8616815261ffff8516602082015260ff8416604082015260e081016159d0606083018571ffffffffffffffffffffffffffffffffffff815116825271ffffffffffffffffffffffffffffffffffff6020820151166020830152604081015160070b60408301525050565b8260c08301529695505050505050565b6000608082840312156159f257600080fd5b6040516080810167ffffffffffffffff81118282101715615a1557615a15614d54565b604052905080615a24836157bc565b8152615a32602084016157bc565b6020820152615a43604084016157bc565b6040820152615a54606084016157bc565b60608201525092915050565b60008060e08385031215615a7357600080fd5b615a7d84846157f0565b915061512e84606085016159e0565b71ffffffffffffffffffffffffffffffffffff818116838216019081111561081f5761081f61546a565b600181811c90821680615aca57607f821691505b602082108103610b97577f4e487b7100000000000000000000000000000000000000000000000000000000600052602260045260246000fd5b73ffffffffffffffffffffffffffffffffffffffff8616815261ffff8516602082015260ff8416604082015260e08101615b82606083018571ffffffffffffffffffffffffffffffffffff815116825271ffffffffffffffffffffffffffffffffffff6020820151166020830152604081015160070b60408301525050565b71ffffffffffffffffffffffffffffffffffff831660c08301529695505050505050565b60008060006101008486031215615bbc57600080fd5b615bc685856157f0565b9250615bd585606086016159e0565b60e0949094015192959394509192915050565b600060208284031215615bfa57600080fd5b813560ff811681146109ee57600080fd5b60008251615c1d818460208701614b2f565b9190910192915050565b600060208284031215615c3957600080fd5b5051919050565b600060208284031215615c5257600080fd5b81516109ee81614e89565b73ffffffffffffffffffffffffffffffffffffffff8716815273ffffffffffffffffffffffffffffffffffffffff8616602082015284604082015283606082015260a060808201526000615cb560a0830184866155b1565b98975050505050505050565b83815273ffffffffffffffffffffffffffffffffffffffff8316602082015260a08101611c65604083018461570f565b600060608284031215615d0357600080fd5b61081c83836157f0565b6fffffffffffffffffffffffffffffffff828116828216039081111561081f5761081f61546a565b7f4e487b7100000000000000000000000000000000000000000000000000000000600052601260045260246000fd5b8082018082111561081f5761081f61546a565b6001815b6001841115615db257808504811115615d9657615d9661546a565b6001841615615da457908102905b60019390931c928002615d7b565b935093915050565b600082615dc95750600161081f565b81615dd65750600061081f565b8160018114615dec5760028114615df657615e12565b600191505061081f565b60ff841115615e0757615e0761546a565b50506001821b61081f565b5060208310610133831016604e8410600b8410161715615e35575081810a61081f565b615e607fffffffffffffffffffffffffffffffffffffffffffffffffffffffffffffffff8484615d77565b807fffffffffffffffffffffffffffffffffffffffffffffffffffffffffffffffff04821115615e9257615e9261546a565b029392505050565b600061081c60ff841683615dba565b808202811582820484141761081f5761081f61546a565b600068ffffffffffffffffff831680615edb57615edb615d35565b8068ffffffffffffffffff84160491505092915050565b68ffffffffffffffffff818116838216019081111561081f5761081f61546a565b600082615f2257615f22615d35565b500490565b60006fffffffffffffffffffffffffffffffff831680615f4957615f49615d35565b806fffffffffffffffffffffffffffffffff84160491505092915050565b60007fffffffffffffffffffffffffffffffffffffffffffffffffffffffffffffffff8203615f9857615f9861546a565b506001019056fea2646970667358221220ca28db04338452b8ba107d8a5737d1cdcaaa0fc446e15410d2b60d074089394364736f6c634300081a0033","linkReferences":{"src/libraries/VaultExternal.sol":{"VaultExternal":[{"start":2945,"length":20},{"start":5243,"length":20},{"start":5523,"length":20},{"start":8107,"length":20},{"start":12685,"length":20}]}}},"methodIdentifiers":{"TS_ISSUANCE_START()":"ffda9c60","balanceOf(address,uint256)":"00fdd58e","balanceOfBatch(address[],uint256[])":"4e1273f4","burn(bool,(address,address,int8),uint256)":"3fc62188","claimSIR(uint256,address)":"777b1d43","collateralStates(address)":"61086e43","cumulativeSIRPerTEA(uint256)":"7a4996e8","getReserves((address,address,int8))":"fbd98edf","initialize((address,address,int8))":"3aa88670","isApprovedForAll(address,address)":"e985e9c5","latestTokenParams()":"60e0970a","mint(bool,(address,address,int8))":"94c050f8","numberOfVaults()":"7a32af78","onERC1155BatchReceived(address,address,uint256[],uint256[],bytes)":"bc197c81","onERC1155Received(address,address,uint256,uint256,bytes)":"f23a6e61","paramsById(uint48)":"d2f3fd09","safeBatchTransferFrom(address,address,uint256[],uint256[],bytes)":"2eb2c2d6","safeTransferFrom(address,address,uint256,uint256,bytes)":"f242432a","setApprovalForAll(address,bool)":"a22cb465","supportsInterface(bytes4)":"01ffc9a7","systemParams()":"458e8e6b","totalSupply(uint256)":"bd85b039","unclaimedRewards(uint256,address)":"46f90748","updateSystemState(uint16,uint16,bool)":"5ab2cef4","updateVaults(uint48[],uint48[],uint8[],uint16)":"bb147c54","uri(uint256)":"0e89341c","vaultStates((address,address,int8))":"2edf3104","vaultTax(uint48)":"6cfcac04","withdrawFees(address)":"164e68de","withdrawToSaveSystem(address[],address)":"c7c3d2dc"},"id":48}