{
  "_format": "hh-sol-artifact-1",
  "contractName": "DeployerOfOracles",
  "sourceName": "src/libraries/DeployerOfOracles.sol",
  "abi": [
    {
      "inputs": [
        {
          "internalType": "address",
          "name": "factory",
          "type": "address"
        },
        {
          "internalType": "address",
          "name": "tokenA",
          "type": "address"
        },
        {
          "internalType": "address",
          "name": "tokenB",
          "type": "address"
        }
      ],
      "name": "getAddress",
      "outputs": [
        {
          "internalType": "address",
          "name": "",
          "type": "address"
        }
      ],
      "stateMutability": "pure",
      "type": "function"
    }
  ],
  "bytecode": "0x616e6e61004e600b8282823980515f1a607314610042577f4e487b71000000000000000000000000000000000000000000000000000000005f525f60045260245ffd5b305f52607381538281f3fe730000000000000000000000000000000000000000301460806040526004361062000042575f3560e01c806301a74291146200004657806359ed94031462000089575b5f80fd5b81801562000052575f80fd5b506200007160048036038101906200006b9190620005ae565b620000bf565b60405162000080919062000637565b60405180910390f35b620000a76004803603810190620000a1919062000652565b620001b0565b604051620000b6919062000637565b60405180910390f35b5f80620000ce308686620001c7565b90505f8173ffffffffffffffffffffffffffffffffffffffff163b03620001a4575f8086866040516200010190620002bb565b6200010e929190620006bc565b8190604051809103905ff59050801580156200012c573d5f803e3d5ffd5b5090508073ffffffffffffffffffffffffffffffffffffffff1663278e8c5a856040518263ffffffff1660e01b81526004016200016a919062000805565b5f604051808303815f87803b15801562000182575f80fd5b505af115801562000195573d5f803e3d5ffd5b505050508092505050620001a9565b809150505b9392505050565b5f620001be848484620001c7565b90509392505050565b5f8173ffffffffffffffffffffffffffffffffffffffff168373ffffffffffffffffffffffffffffffffffffffff16111562000209575f829050839250809350505b60ff60f81b845f801b604051806020016200022490620002bb565b6020820181038252601f19601f8201166040525086866040516020016200024d929190620006bc565b6040516020818303038152906040526040516020016200026f9291906200089b565b604051602081830303815290604052805190602001206040516020016200029a94939291906200098b565b604051602081830303815290604052805190602001205f1c90509392505050565b61645880620009e183390190565b5f604051905090565b5f80fd5b5f80fd5b5f73ffffffffffffffffffffffffffffffffffffffff82169050919050565b5f6200030582620002da565b9050919050565b6200031781620002f9565b811462000322575f80fd5b50565b5f8135905062000335816200030c565b92915050565b5f80fd5b5f601f19601f8301169050919050565b7f4e487b71000000000000000000000000000000000000000000000000000000005f52604160045260245ffd5b62000387826200033f565b810181811067ffffffffffffffff82111715620003a957620003a86200034f565b5b80604052505050565b5f620003bd620002c9565b9050620003cb82826200037c565b919050565b5f67ffffffffffffffff821115620003ed57620003ec6200034f565b5b602082029050602081019050919050565b5f80fd5b5f80fd5b5f62ffffff82169050919050565b6200041f8162000406565b81146200042a575f80fd5b50565b5f813590506200043d8162000414565b92915050565b5f7fffffffffffffffffffffffffffffffff0000000000000000000000000000000082169050919050565b620004798162000443565b811462000484575f80fd5b50565b5f8135905062000497816200046e565b92915050565b5f60608284031215620004b557620004b462000402565b5b620004c16060620003b2565b90505f620004d2848285016200042d565b5f830152506020620004e7848285016200042d565b6020830152506040620004fd8482850162000487565b60408301525092915050565b5f6200051f6200051984620003d0565b620003b2565b90508083825260208201905060608402830185811115620005455762000544620003fe565b5b835b818110156200057257806200055d88826200049d565b84526020840193505060608101905062000547565b5050509392505050565b5f82601f8301126200059357620005926200033b565b5b8135620005a584826020860162000509565b91505092915050565b5f805f60608486031215620005c857620005c7620002d2565b5b5f620005d78682870162000325565b9350506020620005ea8682870162000325565b925050604084013567ffffffffffffffff8111156200060e576200060d620002d6565b5b6200061c868287016200057c565b9150509250925092565b6200063181620002f9565b82525050565b5f6020820190506200064c5f83018462000626565b92915050565b5f805f606084860312156200066c576200066b620002d2565b5b5f6200067b8682870162000325565b93505060206200068e8682870162000325565b9250506040620006a18682870162000325565b9150509250925092565b620006b681620002f9565b82525050565b5f604082019050620006d15f830185620006ab565b620006e06020830184620006ab565b9392505050565b5f81519050919050565b5f82825260208201905092915050565b5f819050602082019050919050565b6200071b8162000406565b82525050565b6200072c8162000443565b82525050565b606082015f820151620007485f85018262000710565b5060208201516200075d602085018262000710565b50604082015162000772604085018262000721565b50505050565b5f62000785838362000732565b60608301905092915050565b5f602082019050919050565b5f620007a982620006e7565b620007b58185620006f1565b9350620007c28362000701565b805f5b83811015620007f8578151620007dc888262000778565b9750620007e98362000791565b925050600181019050620007c5565b5085935050505092915050565b5f6020820190508181035f8301526200081f81846200079d565b905092915050565b5f81519050919050565b5f81905092915050565b5f5b838110156200085a5780820151818401526020810190506200083d565b5f8484015250505050565b5f620008718262000827565b6200087d818562000831565b93506200088f8185602086016200083b565b80840191505092915050565b5f620008a8828562000865565b9150620008b6828462000865565b91508190509392505050565b5f7fff0000000000000000000000000000000000000000000000000000000000000082169050919050565b5f819050919050565b6200090b6200090582620008c2565b620008ed565b82525050565b5f8160601b9050919050565b5f620009298262000911565b9050919050565b5f6200093c826200091d565b9050919050565b620009586200095282620002f9565b62000930565b82525050565b5f819050919050565b5f819050919050565b620009856200097f826200095e565b62000967565b82525050565b5f620009988287620008f6565b600182019150620009aa828662000943565b601482019150620009bc828562000970565b602082019150620009ce828462000970565b6020820191508190509594505050505056fe60c060405234801562000010575f80fd5b5060405162006458380380620064588339818101604052810190620000369190620001a5565b8073ffffffffffffffffffffffffffffffffffffffff168273ffffffffffffffffffffffffffffffffffffffff1611156200007657808280925081935050505b8173ffffffffffffffffffffffffffffffffffffffff1660808173ffffffffffffffffffffffffffffffffffffffff16815250508073ffffffffffffffffffffffffffffffffffffffff1660a08173ffffffffffffffffffffffffffffffffffffffff16815250508073ffffffffffffffffffffffffffffffffffffffff168273ffffffffffffffffffffffffffffffffffffffff167f45d3585a3f850aedc39bbe7f3040a53dd7f10f6d540d4cba7379bcabea39de9460405160405180910390a35050620001ea565b5f80fd5b5f73ffffffffffffffffffffffffffffffffffffffff82169050919050565b5f6200016f8262000144565b9050919050565b620001818162000163565b81146200018c575f80fd5b50565b5f815190506200019f8162000176565b92915050565b5f8060408385031215620001be57620001bd62000140565b5b5f620001cd858286016200018f565b9250506020620001e0858286016200018f565b9150509250929050565b60805160a051616237620002215f395f8181610fc2015281816134e4015261360e01525f81816111dc015261362f01526162375ff3fe608060405234801561000f575f80fd5b506004361061009c575f3560e01c806377a670b01161006457806377a670b01461016a578063879ac8f81461019a5780638c64a238146101b8578063c070734e146101d6578063ff709ee8146102085761009c565b8063264dcbfc146100a0578063278e8c5a146100d057806330444c9b146100ec57806341976e091461011c578063499f712e1461014c575b5f80fd5b6100ba60048036038101906100b59190614ec7565b610226565b6040516100c79190614f2c565b60405180910390f35b6100ea60048036038101906100e5919061515c565b610a07565b005b610106600480360381019061010191906151a3565b610e51565b6040516101139190615229565b60405180910390f35b61013660048036038101906101319190614ec7565b610e81565b6040516101439190614f2c565b60405180910390f35b610154610fc0565b6040516101619190615251565b60405180910390f35b610184600480360381019061017f91906151a3565b610fe4565b6040516101919190615284565b60405180910390f35b6101a2611175565b6040516101af91906152b9565b60405180910390f35b6101c061117b565b6040516101cd91906152b9565b60405180910390f35b6101f060048036038101906101eb9190615305565b611181565b6040516101ff9392919061533f565b60405180910390f35b6102106111da565b60405161021d9190615251565b60405180910390f35b5f6401000000004261023891906153a1565b63ffffffff165f60109054906101000a900463ffffffff1663ffffffff160361026f575f8054906101000a900460801b9050610a02565b5f6102c160015f60149054906101000a900465ffffffffffff1665ffffffffffff16815481106102a2576102a16153d1565b5b905f5260205f20015f015f9054906101000a900462ffffff165f6111fe565b90508060600151156103df5760025f60015f60149054906101000a900465ffffffffffff1665ffffffffffff16815481106102ff576102fe6153d1565b5b905f5260205f20015f015f9054906101000a900462ffffff1662ffffff1662ffffff1681526020019081526020015f205f9054906101000a900473ffffffffffffffffffffffffffffffffffffffff1673ffffffffffffffffffffffffffffffffffffffff166332148f676001600c600161025861037d919061542b565b6103879190615460565b6103919190615490565b6040518263ffffffff1660e01b81526004016103ad91906152b9565b5f604051808303815f87803b1580156103c4575f80fd5b505af11580156103d6573d5f803e3d5ffd5b50505050610889565b5f61043160015f601a9054906101000a900465ffffffffffff1665ffffffffffff1681548110610412576104116153d1565b5b905f5260205f20015f015f9054906101000a900462ffffff165f6111fe565b90505f60015f60149054906101000a900465ffffffffffff1665ffffffffffff1681548110610463576104626153d1565b5b905f5260205f20015f0160039054906101000a900462ffffff1662ffffff16604860015f60149054906101000a900465ffffffffffff1665ffffffffffff16815481106104b3576104b26153d1565b5b905f5260205f20015f015f9054906101000a900462ffffff1662ffffff16856020015173ffffffffffffffffffffffffffffffffffffffff166104f691906154c5565b901b6105029190615506565b90505f60015f601a9054906101000a900465ffffffffffff1665ffffffffffff1681548110610534576105336153d1565b5b905f5260205f20015f0160039054906101000a900462ffffff1662ffffff16604860015f601a9054906101000a900465ffffffffffff1665ffffffffffff1681548110610584576105836153d1565b5b905f5260205f20015f015f9054906101000a900462ffffff1662ffffff16856020015173ffffffffffffffffffffffffffffffffffffffff166105c791906154c5565b901b6105d39190615506565b90508082106106c55760018054905060015f601a9054906101000a900465ffffffffffff166106029190615547565b61060c9190615580565b5f601a6101000a81548165ffffffffffff021916908365ffffffffffff1602179055505f60149054906101000a900465ffffffffffff1665ffffffffffff165f601a9054906101000a900465ffffffffffff1665ffffffffffff16036106c05760018054905060015f601a9054906101000a900465ffffffffffff166106929190615547565b61069c9190615580565b5f601a6101000a81548165ffffffffffff021916908365ffffffffffff1602179055505b610885565b610e1061ffff16836040015163ffffffff161061076b575f601a9054906101000a900465ffffffffffff165f60146101000a81548165ffffffffffff021916908365ffffffffffff16021790555060018054905060015f601a9054906101000a900465ffffffffffff166107399190615547565b6107439190615580565b5f601a6101000a81548165ffffffffffff021916908365ffffffffffff160217905550610884565b8260600151156108835760025f60015f601a9054906101000a900465ffffffffffff1665ffffffffffff16815481106107a7576107a66153d1565b5b905f5260205f20015f015f9054906101000a900462ffffff1662ffffff1662ffffff1681526020019081526020015f205f9054906101000a900473ffffffffffffffffffffffffffffffffffffffff1673ffffffffffffffffffffffffffffffffffffffff166332148f676001600c6001610258610825919061542b565b61082f9190615460565b6108399190615490565b6040518263ffffffff1660e01b815260040161085591906152b9565b5f604051808303815f87803b15801561086c575f80fd5b505af115801561087e573d5f803e3d5ffd5b505050505b5b5b5050505b5f6109016108e96f3ff22e8a3a504218b0777ee4f3ff131c60801b6108c8856040015163ffffffff16865f015160070b6108c391906155b9565b611a45565b6fffffffffffffffffffffffffffffffff1916611aa390919063ffffffff16565b6fffffffffffffffffffffffffffffffff1916611ab7565b905061090c8161335d565b5f806101000a8154816fffffffffffffffffffffffffffffffff021916908360801c02179055507fe8b744e70519b3c6e53ea04c6240a0672a7a31cd260b2e54079f2d4f86dae13c5f8054906101000a900460801b60405161096e9190614f2c565b60405180910390a15f8054906101000a900460801b6fffffffffffffffffffffffffffffffff1916816fffffffffffffffffffffffffffffffff1916146109e7577f48859a3f1d9d94dc57f3b07d8c9047679887caac4f3fac6db7f0500f889d8b4a816040516109de9190614f2c565b60405180910390a15b6109fd845f8054906101000a900460801b6134e0565b925050505b919050565b5f60018054905014610a17575f80fd5b5f815190505f808265ffffffffffff1667ffffffffffffffff811115610a4057610a3f614f59565b5b604051908082528060200260200182016040528015610a6e5781602001602082028036833780820191505090505b5090505f5b8365ffffffffffff168165ffffffffffff161015610b6d575f610ab7868365ffffffffffff1681518110610aaa57610aa96153d1565b5b60200260200101516135ef565b90508080610ac25750835b93505f610af5878465ffffffffffff1681518110610ae357610ae26153d1565b5b60200260200101515f015160016111fe565b90508115610b58578060200151848465ffffffffffff1681518110610b1d57610b1c6153d1565b5b602002602001019073ffffffffffffffffffffffffffffffffffffffff16908173ffffffffffffffffffffffffffffffffffffffff16815250505b50508080610b6590615621565b915050610a73565b5081610bae576040517f08c379a0000000000000000000000000000000000000000000000000000000008152600401610ba5906156a8565b60405180910390fd5b5f805f90505b8465ffffffffffff168165ffffffffffff161015610cbb575f868265ffffffffffff1681518110610be857610be76153d1565b5b60200260200101516020015162ffffff166048888465ffffffffffff1681518110610c1657610c156153d1565b5b60200260200101515f015162ffffff16868565ffffffffffff1681518110610c4157610c406153d1565b5b602002602001015173ffffffffffffffffffffffffffffffffffffffff16610c6991906154c5565b901b610c759190615506565b905082811115610ca757815f60146101000a81548165ffffffffffff021916908365ffffffffffff1602179055508092505b508080610cb390615621565b915050610bb4565b505f8111610cfe576040517f08c379a0000000000000000000000000000000000000000000000000000000008152600401610cf590615710565b60405180910390fd5b60025f865f60149054906101000a900465ffffffffffff1665ffffffffffff1681518110610d2f57610d2e6153d1565b5b60200260200101515f015162ffffff1662ffffff1681526020019081526020015f205f9054906101000a900473ffffffffffffffffffffffffffffffffffffffff1673ffffffffffffffffffffffffffffffffffffffff166332148f676001600c6001610e10610d9f919061542b565b610da99190615460565b610db39190615490565b6040518263ffffffff1660e01b8152600401610dcf91906152b9565b5f604051808303815f87803b158015610de6575f80fd5b505af1158015610df8573d5f803e3d5ffd5b505050508360015f60149054906101000a900465ffffffffffff16610e1d9190615547565b610e279190615580565b5f601a6101000a81548165ffffffffffff021916908365ffffffffffff1602179055505050505050565b6002602052805f5260405f205f915054906101000a900473ffffffffffffffffffffffffffffffffffffffff1681565b5f64010000000042610e9391906153a1565b63ffffffff165f60109054906101000a900463ffffffff1663ffffffff1603610ed357610ecc825f8054906101000a900460801b6134e0565b9050610fbb565b5f610f2560015f60149054906101000a900465ffffffffffff1665ffffffffffff1681548110610f0657610f056153d1565b5b905f5260205f20015f015f9054906101000a900462ffffff165f6111fe565b90505f610f9f610f876f3ff22e8a3a504218b0777ee4f3ff131c60801b610f66856040015163ffffffff16865f015160070b610f6191906155b9565b611a45565b6fffffffffffffffffffffffffffffffff1916611aa390919063ffffffff16565b6fffffffffffffffffffffffffffffffff1916611ab7565b9050610faa8161335d565b9050610fb684826134e0565b925050505b919050565b7f000000000000000000000000000000000000000000000000000000000000000081565b5f80731f98431c8ad98523631ae4a59f267346ea31f98473ffffffffffffffffffffffffffffffffffffffff166322afcccb846040518263ffffffff1660e01b8152600401611033919061572e565b602060405180830381865afa15801561104e573d5f803e3d5ffd5b505050506040513d601f19601f82011682018060405250810190611072919061577d565b90505f8160020b13611082575f80fd5b5f73ffffffffffffffffffffffffffffffffffffffff1660025f8562ffffff1662ffffff1681526020019081526020015f205f9054906101000a900473ffffffffffffffffffffffffffffffffffffffff1673ffffffffffffffffffffffffffffffffffffffff161461112a576040517f08c379a000000000000000000000000000000000000000000000000000000000815260040161112190615818565b60405180910390fd5b61116d60405180606001604052808562ffffff1681526020018362ffffff1681526020015f60801b6fffffffffffffffffffffffffffffffff19168152506135ef565b915050919050565b610e1081565b61025881565b60018181548110611190575f80fd5b905f5260205f20015f91509050805f015f9054906101000a900462ffffff1690805f0160039054906101000a900462ffffff1690805f0160069054906101000a900460801b905083565b7f000000000000000000000000000000000000000000000000000000000000000081565b611206614dc8565b5f600267ffffffffffffffff81111561122257611221614f59565b5b6040519080825280602002602001820160405280156112505781602001602082028036833780820191505090505b5090508261126057610e10611263565b60015b61ffff16815f8151811061127a576112796153d1565b5b602002602001019063ffffffff16908163ffffffff16815250505f816001815181106112a9576112a86153d1565b5b602002602001019063ffffffff16908163ffffffff168152505060608060025f8762ffffff1662ffffff1681526020019081526020015f205f9054906101000a900473ffffffffffffffffffffffffffffffffffffffff1673ffffffffffffffffffffffffffffffffffffffff1663883bdbfd846040518263ffffffff1660e01b815260040161133991906158fc565b5f60405180830381865afa92505050801561137657506040513d5f823e3d601f19601f820116820180604052508101906113739190615afc565b60015b6118ef57611382615b7e565b806308c379a0036118e05750611396615b9d565b806113a157506118e2565b6040518060400160405280600381526020017f4f4c440000000000000000000000000000000000000000000000000000000000815250805190602001208180519060200120146113f45750505050611a3f565b5f805f60025f8b62ffffff1662ffffff1681526020019081526020015f205f9054906101000a900473ffffffffffffffffffffffffffffffffffffffff1673ffffffffffffffffffffffffffffffffffffffff16633850c7bd6040518163ffffffff1660e01b815260040160e060405180830381865afa15801561147a573d5f803e3d5ffd5b505050506040513d601f19601f8201168201806040525081019061149e9190615cb6565b909192939495509091929394509050508094508195508293505050505f8060025f8d62ffffff1662ffffff1681526020019081526020015f205f9054906101000a900473ffffffffffffffffffffffffffffffffffffffff1673ffffffffffffffffffffffffffffffffffffffff1663252c09d7866001866115209190615490565b61152a9190615d53565b6040518263ffffffff1660e01b81526004016115469190615db3565b608060405180830381865afa158015611561573d5f803e3d5ffd5b505050506040513d601f19601f820116820180604052508101906115859190615df6565b90915090508092508193505050806116635760025f8d62ffffff1662ffffff1681526020019081526020015f205f9054906101000a900473ffffffffffffffffffffffffffffffffffffffff1673ffffffffffffffffffffffffffffffffffffffff1663252c09d75f6040518263ffffffff1660e01b815260040161160a9190615e93565b608060405180830381865afa158015611625573d5f803e3d5ffd5b505050506040513d601f19601f820116820180604052508101906116499190615df6565b909150905050809250506001836116609190615490565b94505b600167ffffffffffffffff81111561167e5761167d614f59565b5b6040519080825280602002602001820160405280156116ac5781602001602082028036833780820191505090505b5098508163ffffffff16426116c19190615eac565b895f815181106116d4576116d36153d1565b5b602002602001019063ffffffff16908163ffffffff168152505060608060025f8f62ffffff1662ffffff1681526020019081526020015f205f9054906101000a900473ffffffffffffffffffffffffffffffffffffffff1673ffffffffffffffffffffffffffffffffffffffff1663883bdbfd8c6040518263ffffffff1660e01b815260040161176491906158fc565b5f60405180830381865afa15801561177e573d5f803e3d5ffd5b505050506040513d5f823e3d601f19601f820116820180604052508101906117a69190615afc565b8092508193505050815f815181106117c1576117c06153d1565b5b60200260200101518a5f815181106117dc576117db6153d1565b5b602002602001019060060b908160060b81525050805f81518110611803576118026153d1565b5b6020026020010151895f8151811061181e5761181d6153d1565b5b602002602001019073ffffffffffffffffffffffffffffffffffffffff16908173ffffffffffffffffffffffffffffffffffffffff16815250505f60018c5f8151811061186e5761186d6153d1565b5b602002602001015163ffffffff166001610e1061ffff168b61ffff1661189491906154c5565b61189e9190615eac565b6118a89190615506565b6118b29190615edf565b90508661ffff168111156118d25760018d60600190151590811515815250505b5050505050505050506118ea565b505b3d5f803e3d5ffd5b6118f8565b81935080925050505b805f8151811061190b5761190a6153d1565b5b602002602001015181600181518110611927576119266153d1565b5b60200260200101516119399190615f12565b6080845f8151811061194e5761194d6153d1565b5b602002602001015163ffffffff1673ffffffffffffffffffffffffffffffffffffffff16901b61197e9190615f59565b846020019073ffffffffffffffffffffffffffffffffffffffff16908173ffffffffffffffffffffffffffffffffffffffff1681525050815f815181106119c8576119c76153d1565b5b6020026020010151826001815181106119e4576119e36153d1565b5b60200260200101516119f69190615f89565b60060b845f019060070b908160070b81525050825f81518110611a1c57611a1b6153d1565b5b6020026020010151846040019063ffffffff16908163ffffffff16815250505050505b92915050565b5f808203611a58575f60801b9050611a9e565b5f808313611a6857825f03611a6a565b825b9050611a76815f61391f565b90505f831215611a96576f80000000000000000000000000000000811790505b8060801b9150505b919050565b5f611aaf83835f6139b5565b905092915050565b5f806f800000000000000000000000000000008360801c6fffffffffffffffffffffffffffffffff161190505f617fff60708560801c6fffffffffffffffffffffffffffffffff16901c166fffffffffffffffffffffffffffffffff1690505f6e0100000000000000000000000000006dffffffffffffffffffffffffffff8660801c16176fffffffffffffffffffffffffffffffff16905061400d821080611b5d5750825b611b6a57611b69615fe7565b5b61400d821115611b82575f60801b9350505050613358565b613f7f821015611baa576f3fff000000000000000000000000000060801b9350505050613358565b613fef821115611bc357613fef820381901b9050611bd9565b613fef821015611bd85781613fef0381901c90505b5b828015611bf7575071406e0000000000000000000000000000000081115b15611c0a575f60801b9350505050613358565b5f608082901c90506fffffffffffffffffffffffffffffffff82169150838015611c3457505f8214155b15611c4457811991506001810190505b5f6f8000000000000000000000000000000090505f6f8000000000000000000000000000000084161115611c8d57608070016a09e667f3bcc908b2fb1366ea957d3e8202901c90505b5f6f4000000000000000000000000000000084161115611cc25760807001306fe0a31b7152de8d5a46305c85edec8202901c90505b5f6f2000000000000000000000000000000084161115611cf75760807001172b83c7d517adcdf7c8c50eb14a791f8202901c90505b5f6f1000000000000000000000000000000084161115611d2c57608070010b5586cf9890f6298b92b71842a983638202901c90505b5f6f0800000000000000000000000000000084161115611d615760807001059b0d31585743ae7c548eb68ca417fd8202901c90505b5f6f0400000000000000000000000000000084161115611d96576080700102c9a3e778060ee6f7caca4f7a29bde88202901c90505b5f6f0200000000000000000000000000000084161115611dcb57608070010163da9fb33356d84a66ae336dcdfa3f8202901c90505b5f6f0100000000000000000000000000000084161115611e00576080700100b1afa5abcbed6129ab13ec11dc95438202901c90505b5f6e80000000000000000000000000000084161115611e3457608070010058c86da1c09ea1ff19d294cf2f679b8202901c90505b5f6e40000000000000000000000000000084161115611e685760807001002c605e2e8cec506d21bfc89a23a00f8202901c90505b5f6e20000000000000000000000000000084161115611e9c576080700100162f3904051fa128bca9c55c31e5df8202901c90505b5f6e10000000000000000000000000000084161115611ed05760807001000b175effdc76ba38e31671ca9397258202901c90505b5f6e08000000000000000000000000000084161115611f04576080700100058ba01fb9f96d6cacd4b180917c3d8202901c90505b5f6e04000000000000000000000000000084161115611f3857608070010002c5cc37da9491d0985c348c68e7b38202901c90505b5f6e02000000000000000000000000000084161115611f6c5760807001000162e525ee054754457d59952920268202901c90505b5f6e01000000000000000000000000000084161115611fa057608070010000b17255775c040618bf4a4ade83fc8202901c90505b5f6d800000000000000000000000000084161115611fd35760807001000058b91b5bc9ae2eed81e9b7d4cfab8202901c90505b5f6d400000000000000000000000000084161115612006576080700100002c5c89d5ec6ca4d7c8acc017b7c98202901c90505b5f6d20000000000000000000000000008416111561203957608070010000162e43f4f831060e02d839a9d16d8202901c90505b5f6d10000000000000000000000000008416111561206c576080700100000b1721bcfc99d9f890ea069117638202901c90505b5f6d08000000000000000000000000008416111561209f57608070010000058b90cf1e6d97f9ca14dbcc16288202901c90505b5f6d0400000000000000000000000000841611156120d25760807001000002c5c863b73f016468f6bac5ca2b8202901c90505b5f6d020000000000000000000000000084161115612105576080700100000162e430e5a18f6119e3c02282a58202901c90505b5f6d0100000000000000000000000000841611156121385760807001000000b1721835514b86e6d96efd1bfe8202901c90505b5f6c800000000000000000000000008416111561216a576080700100000058b90c0b48c6be5df846c5b2ef8202901c90505b5f6c400000000000000000000000008416111561219c57608070010000002c5c8601cc6b9e94213c72737a8202901c90505b5f6c20000000000000000000000000841611156121ce5760807001000000162e42fff037df38aa2b219f068202901c90505b5f6c100000000000000000000000008416111561220057608070010000000b17217fba9c739aa5819f44f98202901c90505b5f6c08000000000000000000000000841611156122325760807001000000058b90bfcdee5acd3c1cedc8238202901c90505b5f6c0400000000000000000000000084161115612264576080700100000002c5c85fe31f35a6a30da1be508202901c90505b5f6c020000000000000000000000008416111561229657608070010000000162e42ff0999ce3541b9fffcf8202901c90505b5f6c01000000000000000000000000841611156122c8576080700100000000b17217f80f4ef5aadda455548202901c90505b5f6b800000000000000000000000841611156122f957608070010000000058b90bfbf8479bd5a81b51ad8202901c90505b5f6b4000000000000000000000008416111561232a5760807001000000002c5c85fdf84bd62ae30a74cc8202901c90505b5f6b2000000000000000000000008416111561235b576080700100000000162e42fefb2fed257559bdaa8202901c90505b5f6b1000000000000000000000008416111561238c5760807001000000000b17217f7d5a7716bba4a9ae8202901c90505b5f6b080000000000000000000000841611156123bd576080700100000000058b90bfbe9ddbac5e109cce8202901c90505b5f6b040000000000000000000000841611156123ee57608070010000000002c5c85fdf4b15de6f17eb0d8202901c90505b5f6b0200000000000000000000008416111561241f5760807001000000000162e42fefa494f1478fde058202901c90505b5f6b0100000000000000000000008416111561245057608070010000000000b17217f7d20cf927c8e94c8202901c90505b5f6a8000000000000000000000841611156124805760807001000000000058b90bfbe8f71cb4e4b33d8202901c90505b5f6a4000000000000000000000841611156124b0576080700100000000002c5c85fdf477b662b269458202901c90505b5f6a2000000000000000000000841611156124e057608070010000000000162e42fefa3ae53369388c8202901c90505b5f6a100000000000000000000084161115612510576080700100000000000b17217f7d1d351a389d408202901c90505b5f6a08000000000000000000008416111561254057608070010000000000058b90bfbe8e8b2d3d4ede8202901c90505b5f6a0400000000000000000000841611156125705760807001000000000002c5c85fdf4741bea6e77e8202901c90505b5f6a0200000000000000000000841611156125a0576080700100000000000162e42fefa39fe95583c28202901c90505b5f6a0100000000000000000000841611156125d05760807001000000000000b17217f7d1cfb72b45e18202901c90505b5f6980000000000000000000841611156125ff576080700100000000000058b90bfbe8e7cc35c3f08202901c90505b5f69400000000000000000008416111561262e57608070010000000000002c5c85fdf473e242ea388202901c90505b5f69200000000000000000008416111561265d5760807001000000000000162e42fefa39f02b772c8202901c90505b5f69100000000000000000008416111561268c57608070010000000000000b17217f7d1cf7d83c1a8202901c90505b5f6908000000000000000000841611156126bb5760807001000000000000058b90bfbe8e7bdcbe2e8202901c90505b5f6904000000000000000000841611156126ea576080700100000000000002c5c85fdf473dea871f8202901c90505b5f69020000000000000000008416111561271957608070010000000000000162e42fefa39ef44d918202901c90505b5f690100000000000000000084161115612748576080700100000000000000b17217f7d1cf79e9498202901c90505b5f688000000000000000008416111561277657608070010000000000000058b90bfbe8e7bce5448202901c90505b5f68400000000000000000841611156127a45760807001000000000000002c5c85fdf473de6eca8202901c90505b5f68200000000000000000841611156127d2576080700100000000000000162e42fefa39ef366f8202901c90505b5f68100000000000000000841611156128005760807001000000000000000b17217f7d1cf79afa8202901c90505b5f680800000000000000008416111561282e576080700100000000000000058b90bfbe8e7bcd6d8202901c90505b5f680400000000000000008416111561285c57608070010000000000000002c5c85fdf473de6b28202901c90505b5f680200000000000000008416111561288a5760807001000000000000000162e42fefa39ef3588202901c90505b5f68010000000000000000841611156128b857608070010000000000000000b17217f7d1cf79ab8202901c90505b5f678000000000000000841611156128e55760807001000000000000000058b90bfbe8e7bcd58202901c90505b5f67400000000000000084161115612912576080700100000000000000002c5c85fdf473de6a8202901c90505b5f6720000000000000008416111561293f57608070010000000000000000162e42fefa39ef348202901c90505b5f6710000000000000008416111561296c576080700100000000000000000b17217f7d1cf7998202901c90505b5f6708000000000000008416111561299957608070010000000000000000058b90bfbe8e7bcc8202901c90505b5f670400000000000000841611156129c65760807001000000000000000002c5c85fdf473de58202901c90505b5f670200000000000000841611156129f3576080700100000000000000000162e42fefa39ef28202901c90505b5f67010000000000000084161115612a205760807001000000000000000000b17217f7d1cf788202901c90505b5f668000000000000084161115612a4c576080700100000000000000000058b90bfbe8e7bb8202901c90505b5f664000000000000084161115612a7857608070010000000000000000002c5c85fdf473dd8202901c90505b5f662000000000000084161115612aa45760807001000000000000000000162e42fefa39ee8202901c90505b5f661000000000000084161115612ad057608070010000000000000000000b17217f7d1cf68202901c90505b5f660800000000000084161115612afc5760807001000000000000000000058b90bfbe8e7a8202901c90505b5f660400000000000084161115612b28576080700100000000000000000002c5c85fdf473c8202901c90505b5f660200000000000084161115612b5457608070010000000000000000000162e42fefa39d8202901c90505b5f660100000000000084161115612b80576080700100000000000000000000b17217f7d1ce8202901c90505b5f6580000000000084161115612bab57608070010000000000000000000058b90bfbe8e68202901c90505b5f6540000000000084161115612bd65760807001000000000000000000002c5c85fdf4728202901c90505b5f6520000000000084161115612c01576080700100000000000000000000162e42fefa388202901c90505b5f6510000000000084161115612c2c5760807001000000000000000000000b17217f7d1b8202901c90505b5f6508000000000084161115612c57576080700100000000000000000000058b90bfbe8d8202901c90505b5f6504000000000084161115612c8257608070010000000000000000000002c5c85fdf468202901c90505b5f6502000000000084161115612cad5760807001000000000000000000000162e42fefa28202901c90505b5f6501000000000084161115612cd857608070010000000000000000000000b17217f7d08202901c90505b5f64800000000084161115612d025760807001000000000000000000000058b90bfbe78202901c90505b5f64400000000084161115612d2c576080700100000000000000000000002c5c85fdf38202901c90505b5f64200000000084161115612d5657608070010000000000000000000000162e42fef98202901c90505b5f64100000000084161115612d80576080700100000000000000000000000b17217f7c8202901c90505b5f64080000000084161115612daa57608070010000000000000000000000058b90bfbd8202901c90505b5f64040000000084161115612dd45760807001000000000000000000000002c5c85fde8202901c90505b5f64020000000084161115612dfe576080700100000000000000000000000162e42fee8202901c90505b5f64010000000084161115612e285760807001000000000000000000000000b17217f68202901c90505b5f638000000084161115612e51576080700100000000000000000000000058b90bfa8202901c90505b5f634000000084161115612e7a57608070010000000000000000000000002c5c85fc8202901c90505b5f632000000084161115612ea35760807001000000000000000000000000162e42fd8202901c90505b5f631000000084161115612ecc57608070010000000000000000000000000b17217e8202901c90505b5f630800000084161115612ef55760807001000000000000000000000000058b90be8202901c90505b5f630400000084161115612f1e576080700100000000000000000000000002c5c85e8202901c90505b5f630200000084161115612f4757608070010000000000000000000000000162e42e8202901c90505b5f630100000084161115612f70576080700100000000000000000000000000b172168202901c90505b5f6280000084161115612f9857608070010000000000000000000000000058b90a8202901c90505b5f6240000084161115612fc05760807001000000000000000000000000002c5c848202901c90505b5f6220000084161115612fe8576080700100000000000000000000000000162e418202901c90505b5f62100000841611156130105760807001000000000000000000000000000b17208202901c90505b5f6208000084161115613038576080700100000000000000000000000000058b8f8202901c90505b5f620400008416111561306057608070010000000000000000000000000002c5c78202901c90505b5f62020000841611156130885760807001000000000000000000000000000162e38202901c90505b5f62010000841611156130b057608070010000000000000000000000000000b1718202901c90505b5f618000841611156130d75760807001000000000000000000000000000058b88202901c90505b5f614000841611156130fe576080700100000000000000000000000000002c5b8202901c90505b5f6120008416111561312557608070010000000000000000000000000000162d8202901c90505b5f6110008416111561314c576080700100000000000000000000000000000b168202901c90505b5f6108008416111561317357608070010000000000000000000000000000058a8202901c90505b5f6104008416111561319a5760807001000000000000000000000000000002c48202901c90505b5f610200841611156131c15760807001000000000000000000000000000001618202901c90505b5f610100841611156131e85760807001000000000000000000000000000000b08202901c90505b5f60808416111561320e5760807001000000000000000000000000000000578202901c90505b5f60408416111561323457608070010000000000000000000000000000002b8202901c90505b5f60208416111561325a5760807001000000000000000000000000000000158202901c90505b5f60108416111561328057608070010000000000000000000000000000000a8202901c90505b5f6008841611156132a65760807001000000000000000000000000000000048202901c90505b5f6004841611156132cc5760807001000000000000000000000000000000018202901c90505b846132f4576dffffffffffffffffffffffffffff600f82901c169050613fff8201915061332f565b613ffe8211613320576dffffffffffffffffffffffffffff600f82901c16905081613fff03915061332e565b613fef820381901c90505f91505b5b5f8203613346575f60801b95505050505050613358565b80607083901b1760801b955050505050505b919050565b5f806133f561338d5f60109054906101000a900463ffffffff1663ffffffff16426133889190615eac565b613c52565b60015f60149054906101000a900465ffffffffffff1665ffffffffffff16815481106133bc576133bb6153d1565b5b905f5260205f20015f0160069054906101000a900460801b6fffffffffffffffffffffffffffffffff1916613c7a90919063ffffffff16565b90505f61342a825f8054906101000a900460801b6fffffffffffffffffffffffffffffffff1916613cbc90919063ffffffff16565b90505f61345382866fffffffffffffffffffffffffffffffff1916613f1890919063ffffffff16565b5f0b13156134655780925050506134db565b5f613498835f8054906101000a900460801b6fffffffffffffffffffffffffffffffff1916611aa390919063ffffffff16565b90505f6134c182876fffffffffffffffffffffffffffffffff1916613f1890919063ffffffff16565b5f0b12156134d4578093505050506134db565b8493505050505b919050565b5f807f000000000000000000000000000000000000000000000000000000000000000073ffffffffffffffffffffffffffffffffffffffff168473ffffffffffffffffffffffffffffffffffffffff1614613547575f8054906101000a900460801b613564565b613563836fffffffffffffffffffffffffffffffff19166141a9565b5b90505f6135a06f7fff000000000000000000000000000060801b836fffffffffffffffffffffffffffffffff1916613f1890919063ffffffff16565b5f0b1280156135d857505f6135d45f60801b836fffffffffffffffffffffffffffffffff1916613f1890919063ffffffff16565b5f0b135b6135e5576135e4615fe7565b5b8091505092915050565b5f8061365c731f98431c8ad98523631ae4a59f267346ea31f9846136577f00000000000000000000000000000000000000000000000000000000000000007f0000000000000000000000000000000000000000000000000000000000000000875f01516141ce565b61426a565b90508060025f855f015162ffffff1662ffffff1681526020019081526020015f205f6101000a81548173ffffffffffffffffffffffffffffffffffffffff021916908373ffffffffffffffffffffffffffffffffffffffff16021790555061373f6f3ff9111111111111111111111111111160801b61371e6136e9865f015162ffffff166207a120614335565b6f3fff000000000000000000000000000060801b6fffffffffffffffffffffffffffffffff191661435d90919063ffffffff16565b6fffffffffffffffffffffffffffffffff1916613c7a90919063ffffffff16565b83604001906fffffffffffffffffffffffffffffffff191690816fffffffffffffffffffffffffffffffff191681525050600183908060018154018082558091505060019003905f5260205f20015f909190919091505f820151815f015f6101000a81548162ffffff021916908362ffffff1602179055506020820151815f0160036101000a81548162ffffff021916908362ffffff1602179055506040820151815f0160066101000a8154816fffffffffffffffffffffffffffffffff021916908360801c021790555050508073ffffffffffffffffffffffffffffffffffffffff167f71af982ce81c7b91e5c15054a64a008ec0f8cc8c3fefc38c27fcc5f2e9cd15d760405160405180910390a25f8173ffffffffffffffffffffffffffffffffffffffff163b03613876575f91505061391a565b5f8173ffffffffffffffffffffffffffffffffffffffff16633850c7bd6040518163ffffffff1660e01b815260040160e060405180830381865afa1580156138c0573d5f803e3d5ffd5b505050506040513d601f19601f820116820180604052508101906138e49190615cb6565b50505050505090505f8173ffffffffffffffffffffffffffffffffffffffff1603613913575f9250505061391a565b6001925050505b919050565b5f8061392a84614371565b90506070811015613943578060700384901b9350613991565b60708111156139905782156139855760016070820360018603901c0193506e02000000000000000000000000000084036139805780806001019150505b61398f565b6070810384901c93505b5b5b607081613fff01901b6dffffffffffffffffffffffffffff85161791505092915050565b5f80617fff60708660801c6fffffffffffffffffffffffffffffffff16901c166fffffffffffffffffffffffffffffffff1690505f60708560801c6fffffffffffffffffffffffffffffffff16901c6fffffffffffffffffffffffffffffffff169050617fff82108015613a2a5750617fff81105b613a3757613a36615fe7565b5b5f60801b6fffffffffffffffffffffffffffffffff1916866fffffffffffffffffffffffffffffffff19161480613a9657505f60801b6fffffffffffffffffffffffffffffffff1916856fffffffffffffffffffffffffffffffff1916145b15613aa8575f60801b92505050613c4b565b5f6e0100000000000000000000000000006dffffffffffffffffffffffffffff8860801c16176fffffffffffffffffffffffffffffffff1690505f6e0100000000000000000000000000006dffffffffffffffffffffffffffff8860801c16176fffffffffffffffffffffffffffffffff1690505f84118015613b2a57505f83115b613b3757613b36615fe7565b5b808202915082840193505f7c0200000000000000000000000000000000000000000000000000000000831015613b6e5760e0613b71565b60e15b60ff1690506140e08186011015613b92575f60801b95505050505050613c4b565b8615613bd25760016070820360018503901c0192506e0200000000000000000000000000008310613bcd57600183901c925084806001019550505b613bdc565b6070810383901c92505b61c0dd8186011115613bf157613bf0615fe7565b5b6dffffffffffffffffffffffffffff831692506140df81860103945082607086901b6f8000000000000000000000000000000060801b8b1660801c6fffffffffffffffffffffffffffffffff16171760801b955050505050505b9392505050565b5f808203613c65575f60801b9050613c75565b613c6f825f61391f565b60801b90505b919050565b5f80613c89835f60801b613f18565b5f0b1215613c9a57613c99615fe7565b5b613cb4613caf613ca985614454565b84611aa3565b611ab7565b905092915050565b5f8060708460801c6fffffffffffffffffffffffffffffffff16901c6fffffffffffffffffffffffffffffffff1690505f60716e0100000000000000000000000000006dffffffffffffffffffffffffffff8760801c166fffffffffffffffffffffffffffffffff1617901b90505f60708560801c6fffffffffffffffffffffffffffffffff16901c6fffffffffffffffffffffffffffffffff1690505f6e0100000000000000000000000000006dffffffffffffffffffffffffffff8760801c16176fffffffffffffffffffffffffffffffff169050617fff84108015613da55750617fff82105b613db257613db1615fe7565b5b5f8211613dc257613dc1615fe7565b5b5f60801b6fffffffffffffffffffffffffffffffff1916876fffffffffffffffffffffffffffffffff191603613e01575f60801b945050505050613f12565b5f8411613e1157613e10615fe7565b5b808381613e2157613e20615374565b5b0492506d10000000000000000000000000008310158015613e5057506e04000000000000000000000000000083105b613e5d57613e5c615fe7565b5b5f6e020000000000000000000000000000841015613e7c576070613e7f565b60715b60ff16905061407083018186011115613eb2576f7fff000000000000000000000000000060801b95505050505050613f12565b82613f8e8287010111613ecf575f60801b95505050505050613f12565b6070811115613ee2576070810384901c93505b6dffffffffffffffffffffffffffff8416935082613f8e8201038501945083607086901b1760801b955050505050505b92915050565b5f806f7fffffffffffffffffffffffffffffff8460801c1690505f6f7fffffffffffffffffffffffffffffff8460801c1690506f7fff0000000000000000000000000000826fffffffffffffffffffffffffffffffff161115613f7e57613f7d615fe7565b5b6f7fff0000000000000000000000000000816fffffffffffffffffffffffffffffffff161115613fb157613fb0615fe7565b5b836fffffffffffffffffffffffffffffffff1916856fffffffffffffffffffffffffffffffff191614158061400757506f7fff0000000000000000000000000000826fffffffffffffffffffffffffffffffff16105b61400f575f80fd5b836fffffffffffffffffffffffffffffffff1916856fffffffffffffffffffffffffffffffff191603614046575f925050506141a3565b5f6f800000000000000000000000000000008660801c6fffffffffffffffffffffffffffffffff16101590505f6f800000000000000000000000000000008660801c6fffffffffffffffffffffffffffffffff1610159050811561413557801561410957826fffffffffffffffffffffffffffffffff16846fffffffffffffffffffffffffffffffff16116140dc5760016140fe565b7fffffffffffffffffffffffffffffffffffffffffffffffffffffffffffffffff5b9450505050506141a3565b7fffffffffffffffffffffffffffffffffffffffffffffffffffffffffffffffff9450505050506141a3565b80156141485760019450505050506141a3565b826fffffffffffffffffffffffffffffffff16846fffffffffffffffffffffffffffffffff1611614199577fffffffffffffffffffffffffffffffffffffffffffffffffffffffffffffffff61419c565b60015b9450505050505b92915050565b5f6141c76f3fff000000000000000000000000000060801b83613cbc565b9050919050565b6141d6614e0d565b8273ffffffffffffffffffffffffffffffffffffffff168473ffffffffffffffffffffffffffffffffffffffff16111561421557828480945081955050505b60405180606001604052808573ffffffffffffffffffffffffffffffffffffffff1681526020018473ffffffffffffffffffffffffffffffffffffffff1681526020018362ffffff1681525090509392505050565b5f816020015173ffffffffffffffffffffffffffffffffffffffff16825f015173ffffffffffffffffffffffffffffffffffffffff16106142a9575f80fd5b82825f0151836020015184604001516040516020016142ca93929190616014565b604051602081830303815290604052805190602001207fe34f199b19b2b4f47f68442619d555527d244f78a3297ea89325f843f87b8b545f1b6040516020016143159392919061610b565b604051602081830303815290604052805190602001205f1c905092915050565b5f6143556f3fff000000000000000000000000000060801b84845f6146cd565b905092915050565b5f61436983835f614915565b905092915050565b5f80821161438257614381615fe7565b5b5f70010000000000000000000000000000000083106143a957608083901c92506080810190505b6801000000000000000083106143c757604083901c92506040810190505b64010000000083106143e157602083901c92506020810190505b6201000083106143f957601083901c92506010810190505b610100831061441057600883901c92506008810190505b6010831061442657600483901c92506004810190505b6004831061443c57600283901c92506002810190505b6002831061444b576001810190505b80915050919050565b5f6f3fff000000000000000000000000000060801b6fffffffffffffffffffffffffffffffff1916826fffffffffffffffffffffffffffffffff1916036144a0575f60801b90506146c8565b5f60801b6fffffffffffffffffffffffffffffffff1916826fffffffffffffffffffffffffffffffff1916036144eb576fc00cfff800000000000000000000000060801b90506146c8565b5f60708360801c6fffffffffffffffffffffffffffffffff16901c6fffffffffffffffffffffffffffffffff1690506f3fff00000000000000000000000000008360801c6fffffffffffffffffffffffffffffffff1611156145505761454f615fe7565b5b5f81116145605761455f615fe7565b5b5f6e0100000000000000000000000000006dffffffffffffffffffffffffffff8560801c166fffffffffffffffffffffffffffffffff161790505f8061406f90505f613fff85106145c1575f9250613fff85039050600f84901b93506145d4565b6001925084613ffe039050600f84901b93505b6f8000000000000000000000000000000084036146185782156145f8576001810190505b5f61460282614371565b60700390508082901b9150808303925050614676565b5f83614624575f614627565b60015b60ff1690505b6e01000000000000000000000000000082101561467457600182901b915060018303925084850294505f60ff86901c90508181188301925080607f0186901c95505061462d565b505b6dffffffffffffffffffffffffffff8116607083901b84614697575f6146a9565b6f800000000000000000000000000000005b6fffffffffffffffffffffffffffffffff16171760801b955050505050505b919050565b5f8083036146de576146dd615fe7565b5b5f60708660801c6fffffffffffffffffffffffffffffffff16901c600f0b9050617fff81126147105761470f615fe7565b5b5f60801b6fffffffffffffffffffffffffffffffff1916866fffffffffffffffffffffffffffffffff1916148061474657505f85145b15614757575f60801b91505061490d565b5f811361476757614766615fe7565b5b5f6e0100000000000000000000000000006dffffffffffffffffffffffffffff8860801c16176fffffffffffffffffffffffffffffffff1690505f6147ab87614371565b90505f6147b787614371565b90508082136147de57600183901b925081810388901b975060018183030384019350614800565b608d81018213156147ff575f608d8201830390508089901c98508085019450505b5b8561481557614810838989614c6f565b614821565b614820838989614d60565b5b92505f8303614839575f60801b94505050505061490d565b5f61484384614371565b905060708186011361485f575f60801b9550505050505061490d565b60708113156148b75786156148a85760016070820360018603901c0193506e02000000000000000000000000000084106148a357600184901c935084806001019550505b6148b2565b6070810384901c93505b6148cb565b60708112156148ca578060700384901b93505b5b61806e81860113156148e0576148df615fe7565b5b6dffffffffffffffffffffffffffff84169350607081038501945083607086901b1760801b955050505050505b949350505050565b5f806149218585613f18565b5f0b121561492d575f80fd5b5f60708560801c6fffffffffffffffffffffffffffffffff16901c6fffffffffffffffffffffffffffffffff1690505f60708560801c6fffffffffffffffffffffffffffffffff16901c6fffffffffffffffffffffffffffffffff169050617fff8210801561499d5750617fff81105b6149aa576149a9615fe7565b5b5f6e0100000000000000000000000000006dffffffffffffffffffffffffffff8860801c16176fffffffffffffffffffffffffffffffff1690505f6e0100000000000000000000000000006dffffffffffffffffffffffffffff8860801c16176fffffffffffffffffffffffffffffffff1690505f60801b6fffffffffffffffffffffffffffffffff1916876fffffffffffffffffffffffffffffffff191603614a5a5787945050505050614c68565b5f60801b6fffffffffffffffffffffffffffffffff1916886fffffffffffffffffffffffffffffffff191603614ac5576040517f08c379a0000000000000000000000000000000000000000000000000000000008152600401614abc9061619c565b60405180910390fd5b5f84118015614ad357505f83115b614ae057614adf615fe7565b5b5f83850390508615614b16576070811115614b02578895505050505050614c68565b5f811115614b11578082901c91505b614b58565b5f811115614b2c57600183901b92506001850394505b6070811115614b3e5760019150614b57565b6001811115614b5657600180820360018403901c0191505b5b5b81830392505f8303614b74575f60801b95505050505050614c68565b5f614b7e84614371565b905087158015614b8e5750607181145b15614bb5576dffffffffffffffffffffffffffff600185901c169350600186019550614c43565b6070811015614c2e575f81607003905080871115614bed576dffffffffffffffffffffffffffff8186901b1694508087039650614c28565b6040517f08c379a0000000000000000000000000000000000000000000000000000000008152600401614c1f9061619c565b60405180910390fd5b50614c42565b6dffffffffffffffffffffffffffff841693505b5b617fff8603614c5557614c54615fe7565b5b83607087901b1760801b96505050505050505b9392505050565b5f805f80198587098587029250828110838203039150505f8103614ca4575f8411614c98575f80fd5b83820492505050614d59565b808411614caf575f80fd5b5f8486880990508281118203915080830392505f856001877fffffffffffffffffffffffffffffffffffffffffffffffffffffffffffffffff030116905080860495508084049350600181825f0304019050808302841793505f600287600302189050808702600203810290508087026002038102905080870260020381029050808702600203810290508087026002038102905080870260020381029050808502955050505050505b9392505050565b5f614d6c848484614c6f565b90505f8280614d7e57614d7d615374565b5b8486091115614dc1577fffffffffffffffffffffffffffffffffffffffffffffffffffffffffffffffff8110614db2575f80fd5b8080614dbd906161ba565b9150505b9392505050565b60405180608001604052805f60070b81526020015f73ffffffffffffffffffffffffffffffffffffffff1681526020015f63ffffffff1681526020015f151581525090565b60405180606001604052805f73ffffffffffffffffffffffffffffffffffffffff1681526020015f73ffffffffffffffffffffffffffffffffffffffff1681526020015f62ffffff1681525090565b5f604051905090565b5f80fd5b5f80fd5b5f73ffffffffffffffffffffffffffffffffffffffff82169050919050565b5f614e9682614e6d565b9050919050565b614ea681614e8c565b8114614eb0575f80fd5b50565b5f81359050614ec181614e9d565b92915050565b5f60208284031215614edc57614edb614e65565b5b5f614ee984828501614eb3565b91505092915050565b5f7fffffffffffffffffffffffffffffffff0000000000000000000000000000000082169050919050565b614f2681614ef2565b82525050565b5f602082019050614f3f5f830184614f1d565b92915050565b5f80fd5b5f601f19601f8301169050919050565b7f4e487b71000000000000000000000000000000000000000000000000000000005f52604160045260245ffd5b614f8f82614f49565b810181811067ffffffffffffffff82111715614fae57614fad614f59565b5b80604052505050565b5f614fc0614e5c565b9050614fcc8282614f86565b919050565b5f67ffffffffffffffff821115614feb57614fea614f59565b5b602082029050602081019050919050565b5f80fd5b5f80fd5b5f62ffffff82169050919050565b61501b81615004565b8114615025575f80fd5b50565b5f8135905061503681615012565b92915050565b61504581614ef2565b811461504f575f80fd5b50565b5f813590506150608161503c565b92915050565b5f6060828403121561507b5761507a615000565b5b6150856060614fb7565b90505f61509484828501615028565b5f8301525060206150a784828501615028565b60208301525060406150bb84828501615052565b60408301525092915050565b5f6150d96150d484614fd1565b614fb7565b905080838252602082019050606084028301858111156150fc576150fb614ffc565b5b835b8181101561512557806151118882615066565b8452602084019350506060810190506150fe565b5050509392505050565b5f82601f83011261514357615142614f45565b5b81356151538482602086016150c7565b91505092915050565b5f6020828403121561517157615170614e65565b5b5f82013567ffffffffffffffff81111561518e5761518d614e69565b5b61519a8482850161512f565b91505092915050565b5f602082840312156151b8576151b7614e65565b5b5f6151c584828501615028565b91505092915050565b5f819050919050565b5f6151f16151ec6151e784614e6d565b6151ce565b614e6d565b9050919050565b5f615202826151d7565b9050919050565b5f615213826151f8565b9050919050565b61522381615209565b82525050565b5f60208201905061523c5f83018461521a565b92915050565b61524b81614e8c565b82525050565b5f6020820190506152645f830184615242565b92915050565b5f8115159050919050565b61527e8161526a565b82525050565b5f6020820190506152975f830184615275565b92915050565b5f61ffff82169050919050565b6152b38161529d565b82525050565b5f6020820190506152cc5f8301846152aa565b92915050565b5f819050919050565b6152e4816152d2565b81146152ee575f80fd5b50565b5f813590506152ff816152db565b92915050565b5f6020828403121561531a57615319614e65565b5b5f615327848285016152f1565b91505092915050565b61533981615004565b82525050565b5f6060820190506153525f830186615330565b61535f6020830185615330565b61536c6040830184614f1d565b949350505050565b7f4e487b71000000000000000000000000000000000000000000000000000000005f52601260045260245ffd5b5f6153ab826152d2565b91506153b6836152d2565b9250826153c6576153c5615374565b5b828206905092915050565b7f4e487b71000000000000000000000000000000000000000000000000000000005f52603260045260245ffd5b7f4e487b71000000000000000000000000000000000000000000000000000000005f52601160045260245ffd5b5f6154358261529d565b91506154408361529d565b9250828203905061ffff81111561545a576154596153fe565b5b92915050565b5f61546a8261529d565b91506154758361529d565b92508261548557615484615374565b5b828204905092915050565b5f61549a8261529d565b91506154a58361529d565b9250828201905061ffff8111156154bf576154be6153fe565b5b92915050565b5f6154cf826152d2565b91506154da836152d2565b92508282026154e8816152d2565b915082820484148315176154ff576154fe6153fe565b5b5092915050565b5f615510826152d2565b915061551b836152d2565b92508261552b5761552a615374565b5b828204905092915050565b5f65ffffffffffff82169050919050565b5f61555182615536565b915061555c83615536565b9250828201905065ffffffffffff81111561557a576155796153fe565b5b92915050565b5f61558a82615536565b915061559583615536565b9250826155a5576155a4615374565b5b828206905092915050565b5f819050919050565b5f6155c3826155b0565b91506155ce836155b0565b9250826155de576155dd615374565b5b60015f0383147f800000000000000000000000000000000000000000000000000000000000000083141615615616576156156153fe565b5b828205905092915050565b5f61562b82615536565b915065ffffffffffff8203615643576156426153fe565b5b600182019050919050565b5f82825260208201905092915050565b7f4e6f20696e697469616c697a656420556e697377617020763320706f6f6c00005f82015250565b5f615692601e8361564e565b915061569d8261565e565b602082019050919050565b5f6020820190508181035f8301526156bf81615686565b9050919050565b7f4e6f20556e69737761702076332077697468206c6971756964697479000000005f82015250565b5f6156fa601c8361564e565b9150615705826156c6565b602082019050919050565b5f6020820190508181035f830152615727816156ee565b9050919050565b5f6020820190506157415f830184615330565b92915050565b5f8160020b9050919050565b61575c81615747565b8114615766575f80fd5b50565b5f8151905061577781615753565b92915050565b5f6020828403121561579257615791614e65565b5b5f61579f84828501615769565b91505092915050565b7f556e697377617020763320706f6f6c20616c72656164792072656769737465725f8201527f65642e0000000000000000000000000000000000000000000000000000000000602082015250565b5f61580260238361564e565b915061580d826157a8565b604082019050919050565b5f6020820190508181035f83015261582f816157f6565b9050919050565b5f81519050919050565b5f82825260208201905092915050565b5f819050602082019050919050565b5f63ffffffff82169050919050565b6158778161585f565b82525050565b5f615888838361586e565b60208301905092915050565b5f602082019050919050565b5f6158aa82615836565b6158b48185615840565b93506158bf83615850565b805f5b838110156158ef5781516158d6888261587d565b97506158e183615894565b9250506001810190506158c2565b5085935050505092915050565b5f6020820190508181035f83015261591481846158a0565b905092915050565b5f67ffffffffffffffff82111561593657615935614f59565b5b602082029050602081019050919050565b5f8160060b9050919050565b61595c81615947565b8114615966575f80fd5b50565b5f8151905061597781615953565b92915050565b5f61598f61598a8461591c565b614fb7565b905080838252602082019050602084028301858111156159b2576159b1614ffc565b5b835b818110156159db57806159c78882615969565b8452602084019350506020810190506159b4565b5050509392505050565b5f82601f8301126159f9576159f8614f45565b5b8151615a0984826020860161597d565b91505092915050565b5f67ffffffffffffffff821115615a2c57615a2b614f59565b5b602082029050602081019050919050565b615a4681614e6d565b8114615a50575f80fd5b50565b5f81519050615a6181615a3d565b92915050565b5f615a79615a7484615a12565b614fb7565b90508083825260208201905060208402830185811115615a9c57615a9b614ffc565b5b835b81811015615ac55780615ab18882615a53565b845260208401935050602081019050615a9e565b5050509392505050565b5f82601f830112615ae357615ae2614f45565b5b8151615af3848260208601615a67565b91505092915050565b5f8060408385031215615b1257615b11614e65565b5b5f83015167ffffffffffffffff811115615b2f57615b2e614e69565b5b615b3b858286016159e5565b925050602083015167ffffffffffffffff811115615b5c57615b5b614e69565b5b615b6885828601615acf565b9150509250929050565b5f8160e01c9050919050565b5f60033d1115615b9a5760045f803e615b975f51615b72565b90505b90565b5f60443d10615c2957615bae614e5c565b60043d036004823e80513d602482011167ffffffffffffffff82111715615bd6575050615c29565b808201805167ffffffffffffffff811115615bf45750505050615c29565b80602083010160043d038501811115615c11575050505050615c29565b615c2082602001850186614f86565b82955050505050505b90565b615c358161529d565b8114615c3f575f80fd5b50565b5f81519050615c5081615c2c565b92915050565b5f60ff82169050919050565b615c6b81615c56565b8114615c75575f80fd5b50565b5f81519050615c8681615c62565b92915050565b615c958161526a565b8114615c9f575f80fd5b50565b5f81519050615cb081615c8c565b92915050565b5f805f805f805f60e0888a031215615cd157615cd0614e65565b5b5f615cde8a828b01615a53565b9750506020615cef8a828b01615769565b9650506040615d008a828b01615c42565b9550506060615d118a828b01615c42565b9450506080615d228a828b01615c42565b93505060a0615d338a828b01615c78565b92505060c0615d448a828b01615ca2565b91505092959891949750929550565b5f615d5d8261529d565b9150615d688361529d565b925082615d7857615d77615374565b5b828206905092915050565b5f615d9d615d98615d938461529d565b6151ce565b6152d2565b9050919050565b615dad81615d83565b82525050565b5f602082019050615dc65f830184615da4565b92915050565b615dd58161585f565b8114615ddf575f80fd5b50565b5f81519050615df081615dcc565b92915050565b5f805f8060808587031215615e0e57615e0d614e65565b5b5f615e1b87828801615de2565b9450506020615e2c87828801615969565b9350506040615e3d87828801615a53565b9250506060615e4e87828801615ca2565b91505092959194509250565b5f819050919050565b5f615e7d615e78615e7384615e5a565b6151ce565b6152d2565b9050919050565b615e8d81615e63565b82525050565b5f602082019050615ea65f830184615e84565b92915050565b5f615eb6826152d2565b9150615ec1836152d2565b9250828203905081811115615ed957615ed86153fe565b5b92915050565b5f615ee9826152d2565b9150615ef4836152d2565b9250828201905080821115615f0c57615f0b6153fe565b5b92915050565b5f615f1c82614e6d565b9150615f2783614e6d565b9250828203905073ffffffffffffffffffffffffffffffffffffffff811115615f5357615f526153fe565b5b92915050565b5f615f6382614e6d565b9150615f6e83614e6d565b925082615f7e57615f7d615374565b5b828204905092915050565b5f615f9382615947565b9150615f9e83615947565b92508282039050667fffffffffffff81137fffffffffffffffffffffffffffffffffffffffffffffffffff8000000000000082121715615fe157615fe06153fe565b5b92915050565b7f4e487b71000000000000000000000000000000000000000000000000000000005f52600160045260245ffd5b5f6060820190506160275f830186615242565b6160346020830185615242565b6160416040830184615330565b949350505050565b5f81905092915050565b7fff000000000000000000000000000000000000000000000000000000000000005f82015250565b5f616087600183616049565b915061609282616053565b600182019050919050565b5f8160601b9050919050565b5f6160b38261609d565b9050919050565b5f6160c4826160a9565b9050919050565b6160dc6160d782614e8c565b6160ba565b82525050565b5f819050919050565b5f819050919050565b616105616100826160e2565b6160eb565b82525050565b5f6161158261607b565b915061612182866160cb565b60148201915061613182856160f4565b60208201915061614182846160f4565b602082019150819050949350505050565b7f55460000000000000000000000000000000000000000000000000000000000005f82015250565b5f61618660028361564e565b915061619182616152565b602082019050919050565b5f6020820190508181035f8301526161b38161617a565b9050919050565b5f6161c4826152d2565b91507fffffffffffffffffffffffffffffffffffffffffffffffffffffffffffffffff82036161f6576161f56153fe565b5b60018201905091905056fea2646970667358221220d2b661fbdb3408d5fb4700a9957a8c4c18d463bc355b73fabdfd72961fa6902164736f6c63430008140033a26469706673582212205e4006d4b73e71880c5e6d56a9b14578c93e6162023ef6ab581dc2f7f0d80ad664736f6c63430008140033",
  "linkReferences": {},
  "deployedLinkReferences": {}
}