{
  "_format": "hh-sol-artifact-1",
  "contractName": "Oracle",
  "sourceName": "src/Oracle.sol",
  "abi": [
    {
      "inputs": [],
      "name": "NoUniswapV3Pool",
      "type": "error"
    },
    {
      "inputs": [],
      "name": "OracleAlreadyInitialized",
      "type": "error"
    },
    {
      "inputs": [],
      "name": "OracleNotInitialized",
      "type": "error"
    },
    {
      "inputs": [],
      "name": "UniswapFeeTierIndexOutOfBounds",
      "type": "error"
    },
    {
      "anonymous": false,
      "inputs": [
        {
          "indexed": false,
          "internalType": "address",
          "name": "tokenA",
          "type": "address"
        },
        {
          "indexed": false,
          "internalType": "address",
          "name": "tokenB",
          "type": "address"
        },
        {
          "indexed": false,
          "internalType": "uint24",
          "name": "feeTier",
          "type": "uint24"
        }
      ],
      "name": "OracleFeeTierChanged",
      "type": "event"
    },
    {
      "anonymous": false,
      "inputs": [
        {
          "indexed": false,
          "internalType": "address",
          "name": "tokenA",
          "type": "address"
        },
        {
          "indexed": false,
          "internalType": "address",
          "name": "tokenB",
          "type": "address"
        },
        {
          "indexed": false,
          "internalType": "uint24",
          "name": "feeTier",
          "type": "uint24"
        }
      ],
      "name": "OracleInitialized",
      "type": "event"
    },
    {
      "anonymous": false,
      "inputs": [
        {
          "indexed": false,
          "internalType": "address",
          "name": "tokenA",
          "type": "address"
        },
        {
          "indexed": false,
          "internalType": "address",
          "name": "tokenB",
          "type": "address"
        },
        {
          "indexed": false,
          "internalType": "int64",
          "name": "priceTickX42",
          "type": "int64"
        }
      ],
      "name": "PriceTruncated",
      "type": "event"
    },
    {
      "anonymous": false,
      "inputs": [
        {
          "indexed": false,
          "internalType": "address",
          "name": "tokenA",
          "type": "address"
        },
        {
          "indexed": false,
          "internalType": "address",
          "name": "tokenB",
          "type": "address"
        },
        {
          "indexed": false,
          "internalType": "int64",
          "name": "priceTickX42",
          "type": "int64"
        }
      ],
      "name": "PriceUpdated",
      "type": "event"
    },
    {
      "anonymous": false,
      "inputs": [
        {
          "indexed": false,
          "internalType": "uint24",
          "name": "fee",
          "type": "uint24"
        }
      ],
      "name": "UniswapFeeTierAdded",
      "type": "event"
    },
    {
      "inputs": [],
      "name": "TWAP_DELTA",
      "outputs": [
        {
          "internalType": "uint32",
          "name": "",
          "type": "uint32"
        }
      ],
      "stateMutability": "view",
      "type": "function"
    },
    {
      "inputs": [],
      "name": "TWAP_DURATION",
      "outputs": [
        {
          "internalType": "uint32",
          "name": "",
          "type": "uint32"
        }
      ],
      "stateMutability": "view",
      "type": "function"
    },
    {
      "inputs": [
        {
          "internalType": "address",
          "name": "collateralToken",
          "type": "address"
        },
        {
          "internalType": "address",
          "name": "debtToken",
          "type": "address"
        }
      ],
      "name": "getPrice",
      "outputs": [
        {
          "internalType": "int64",
          "name": "",
          "type": "int64"
        }
      ],
      "stateMutability": "view",
      "type": "function"
    },
    {
      "inputs": [],
      "name": "getUniswapFeeTiers",
      "outputs": [
        {
          "components": [
            {
              "internalType": "uint24",
              "name": "fee",
              "type": "uint24"
            },
            {
              "internalType": "int24",
              "name": "tickSpacing",
              "type": "int24"
            }
          ],
          "internalType": "struct Oracle.UniswapFeeTier[]",
          "name": "uniswapFeeTiers",
          "type": "tuple[]"
        }
      ],
      "stateMutability": "view",
      "type": "function"
    },
    {
      "inputs": [
        {
          "internalType": "address",
          "name": "tokenA",
          "type": "address"
        },
        {
          "internalType": "address",
          "name": "tokenB",
          "type": "address"
        }
      ],
      "name": "initialize",
      "outputs": [],
      "stateMutability": "nonpayable",
      "type": "function"
    },
    {
      "inputs": [
        {
          "internalType": "uint24",
          "name": "fee",
          "type": "uint24"
        }
      ],
      "name": "newUniswapFeeTier",
      "outputs": [],
      "stateMutability": "nonpayable",
      "type": "function"
    },
    {
      "inputs": [
        {
          "internalType": "address",
          "name": "tokenA",
          "type": "address"
        },
        {
          "internalType": "address",
          "name": "tokenB",
          "type": "address"
        }
      ],
      "name": "oracleStates",
      "outputs": [
        {
          "internalType": "int64",
          "name": "tickPriceX42",
          "type": "int64"
        },
        {
          "internalType": "uint40",
          "name": "timeStamp",
          "type": "uint40"
        },
        {
          "internalType": "uint8",
          "name": "indexFeeTier",
          "type": "uint8"
        },
        {
          "internalType": "uint8",
          "name": "indexFeeTierProbeNext",
          "type": "uint8"
        },
        {
          "internalType": "bool",
          "name": "initialized",
          "type": "bool"
        },
        {
          "components": [
            {
              "internalType": "uint24",
              "name": "fee",
              "type": "uint24"
            },
            {
              "internalType": "int24",
              "name": "tickSpacing",
              "type": "int24"
            }
          ],
          "internalType": "struct Oracle.UniswapFeeTier",
          "name": "uniswapFeeTier",
          "type": "tuple"
        }
      ],
      "stateMutability": "view",
      "type": "function"
    },
    {
      "inputs": [
        {
          "internalType": "address",
          "name": "collateralToken",
          "type": "address"
        },
        {
          "internalType": "address",
          "name": "debtToken",
          "type": "address"
        }
      ],
      "name": "updateOracleState",
      "outputs": [
        {
          "internalType": "int64",
          "name": "",
          "type": "int64"
        }
      ],
      "stateMutability": "nonpayable",
      "type": "function"
    }
  ],
  "bytecode": "0x608060405234801561000f575f80fd5b506132d48061001d5f395ff3fe608060405234801561000f575f80fd5b5060043610610086575f3560e01c80638c64a238116100595780638c64a23814610110578063ac41865a1461012e578063bbbe310f1461015e578063de4c6b051461017c57610086565b806304b7ca551461008a578063485cc955146100ba57806379b00adf146100d6578063879ac8f8146100f2575b5f80fd5b6100a4600480360381019061009f9190612232565b6101b1565b6040516100b1919061228b565b60405180910390f35b6100d460048036038101906100cf9190612232565b610898565b005b6100f060048036038101906100eb91906122dc565b610e28565b005b6100fa611009565b6040516101079190612325565b60405180910390f35b61011861100f565b6040516101259190612325565b60405180910390f35b61014860048036038101906101439190612232565b611014565b604051610155919061228b565b60405180910390f35b610166611248565b604051610173919061243d565b60405180910390f35b61019660048036038101906101919190612232565b611438565b6040516101a8969594939291906124de565b60405180910390f35b5f805f6101be8585611501565b915091505f805f8473ffffffffffffffffffffffffffffffffffffffff1673ffffffffffffffffffffffffffffffffffffffff1681526020019081526020015f205f8373ffffffffffffffffffffffffffffffffffffffff1673ffffffffffffffffffffffffffffffffffffffff1681526020019081526020015f206040518060c00160405290815f82015f9054906101000a900460070b60070b60070b81526020015f820160089054906101000a900464ffffffffff1664ffffffffff1664ffffffffff1681526020015f8201600d9054906101000a900460ff1660ff1660ff1681526020015f8201600e9054906101000a900460ff1660ff1660ff1681526020015f8201600f9054906101000a900460ff16151515158152602001600182016040518060400160405290815f82015f9054906101000a900462ffffff1662ffffff1662ffffff1681526020015f820160039054906101000a900460020b60020b60020b815250508152505090508060800151610368576040517f4eb0db8f00000000000000000000000000000000000000000000000000000000815260040160405180910390fd5b5f61037c84848460a001515f01515f61154f565b90506103888282611cf3565b156103cc577f35e9384e1700ad4ca28199da2a557d85d51daa9ce9f08ec1e9596fc0063dc5e08484845f01516040516103c39392919061254c565b60405180910390a15b4263ffffffff16826020015164ffffffffff1614610679575f6103f28360600151611db1565b90505f6104048686845f01515f61154f565b90505f61041984602001518660a00151611f2c565b90505f61042a836020015185611f2c565b90508082106104c9575f856060015161ffff1611156104c4575f61045689898960a001515f0151611f77565b90508073ffffffffffffffffffffffffffffffffffffffff166332148f6787606001516040518263ffffffff1660e01b8152600401610495919061259d565b5f604051808303815f87803b1580156104ac575f80fd5b505af11580156104be573d5f803e3d5ffd5b50505050505b6105d4565b5f836060015161ffff16111561055a575f6104e88989875f0151611f77565b90508073ffffffffffffffffffffffffffffffffffffffff166332148f6785606001516040518263ffffffff1660e01b8152600401610527919061259d565b5f604051808303815f87803b15801561053e575f80fd5b505af1158015610550573d5f803e3d5ffd5b50505050506105d3565b61070863ffffffff16836040015164ffffffffff16106105d2578560600151866040019060ff16908160ff1681525050838660a001819052507f88f196f3b1d280609351ac798fd9a2a00d8339c2934cc9d062d2f35f8e21a3718888865f01516040516105c9939291906125c5565b60405180910390a15b5b5b5f60015460046105e49190612627565b60ff16905080600188606001516105fb9190612627565b6106059190612688565b876060019060ff16908160ff1681525050866060015160ff16876040015160ff160361065957806001886060015161063d9190612627565b6106479190612688565b876060019060ff16908160ff16815250505b42876020019064ffffffffff16908164ffffffffff168152505050505050505b815f808673ffffffffffffffffffffffffffffffffffffffff1673ffffffffffffffffffffffffffffffffffffffff1681526020019081526020015f205f8573ffffffffffffffffffffffffffffffffffffffff1673ffffffffffffffffffffffffffffffffffffffff1681526020019081526020015f205f820151815f015f6101000a81548167ffffffffffffffff021916908360070b67ffffffffffffffff1602179055506020820151815f0160086101000a81548164ffffffffff021916908364ffffffffff1602179055506040820151815f01600d6101000a81548160ff021916908360ff1602179055506060820151815f01600e6101000a81548160ff021916908360ff1602179055506080820151815f01600f6101000a81548160ff02191690831515021790555060a0820151816001015f820151815f015f6101000a81548162ffffff021916908362ffffff1602179055506020820151815f0160036101000a81548162ffffff021916908360020b62ffffff16021790555050509050507fca5f49f8a8607217bf410328d72ff5ec4318f7c53b3d69a5ca6a37748c243f848484845f01516040516108349392919061254c565b60405180910390a18273ffffffffffffffffffffffffffffffffffffffff168773ffffffffffffffffffffffffffffffffffffffff160361088757815f015161087c906126b8565b945050505050610892565b815f01519450505050505b92915050565b6108a28282611501565b80925081935050505f805f8473ffffffffffffffffffffffffffffffffffffffff1673ffffffffffffffffffffffffffffffffffffffff1681526020019081526020015f205f8373ffffffffffffffffffffffffffffffffffffffff1673ffffffffffffffffffffffffffffffffffffffff1681526020019081526020015f206040518060c00160405290815f82015f9054906101000a900460070b60070b60070b81526020015f820160089054906101000a900464ffffffffff1664ffffffffff1664ffffffffff1681526020015f8201600d9054906101000a900460ff1660ff1660ff1681526020015f8201600e9054906101000a900460ff1660ff1660ff1681526020015f8201600f9054906101000a900460ff16151515158152602001600182016040518060400160405290815f82015f9054906101000a900462ffffff1662ffffff1662ffffff1681526020015f820160039054906101000a900460020b60020b60020b81525050815250509050806080015115610a255750610e24565b5f610a2e611248565b90505f805f5b8351811015610af2575f610a688888878581518110610a5657610a556126fe565b5b60200260200101515f0151600161154f565b90505f816020015173ffffffffffffffffffffffffffffffffffffffff161115610ade575f610ab58260200151878581518110610aa857610aa76126fe565b5b6020026020010151611f2c565b905084811115610adc5782876040019060ff16908160ff1681525050816060015193508094505b505b508080610aea90612734565b915050610a34565b505f8203610b2c576040517f51389a9800000000000000000000000000000000000000000000000000000000815260040160405180910390fd5b825160018560400151610b3f9190612627565b610b499190612688565b846060019060ff16908160ff1681525050600184608001901515908115158152505082846040015160ff1681518110610b8557610b846126fe565b5b60200260200101518460a001819052505f8161ffff161115610c3b575f610bd1878786886040015160ff1681518110610bc157610bc06126fe565b5b60200260200101515f0151611f77565b90508073ffffffffffffffffffffffffffffffffffffffff166332148f67836040518263ffffffff1660e01b8152600401610c0c919061259d565b5f604051808303815f87803b158015610c23575f80fd5b505af1158015610c35573d5f803e3d5ffd5b50505050505b835f808873ffffffffffffffffffffffffffffffffffffffff1673ffffffffffffffffffffffffffffffffffffffff1681526020019081526020015f205f8773ffffffffffffffffffffffffffffffffffffffff1673ffffffffffffffffffffffffffffffffffffffff1681526020019081526020015f205f820151815f015f6101000a81548167ffffffffffffffff021916908360070b67ffffffffffffffff1602179055506020820151815f0160086101000a81548164ffffffffff021916908364ffffffffff1602179055506040820151815f01600d6101000a81548160ff021916908360ff1602179055506060820151815f01600e6101000a81548160ff021916908360ff1602179055506080820151815f01600f6101000a81548160ff02191690831515021790555060a0820151816001015f820151815f015f6101000a81548162ffffff021916908362ffffff1602179055506020820151815f0160036101000a81548162ffffff021916908360020b62ffffff16021790555050509050507fb19e14c26f31c4bf3f0b45dbcec5b8cc496815005ca0727f5b596a8a2b93f2ba868685876040015160ff1681518110610dfd57610dfc6126fe565b5b60200260200101515f0151604051610e17939291906125c5565b60405180910390a1505050505b5050565b5f610e31611248565b90506009815110610e40575f80fd5b5f731f98431c8ad98523631ae4a59f267346ea31f98473ffffffffffffffffffffffffffffffffffffffff166322afcccb846040518263ffffffff1660e01b8152600401610e8e919061277b565b602060405180830381865afa158015610ea9573d5f803e3d5ffd5b505050506040513d601f19601f82011682018060405250810190610ecd91906127be565b90505f8160020b13610edd575f80fd5b5f5b8251811015610f2d57828181518110610efb57610efa6126fe565b5b60200260200101515f015162ffffff168462ffffff1603610f1a575f80fd5b8080610f2590612734565b915050610edf565b5060048251610f3c91906127e9565b6030610f48919061281c565b6008610f54919061285d565b60188262ffffff16901b62ffffff168462ffffff1617901b60015f82825417925050819055505f60015460ff1690507effffffffffffffffffffffffffffffffffffffffffffffffffffffffffff0060015f8282541692505081905550600181610fbe919061285d565b60015f82825417925050819055507f37838f2f499547532188da41cb82201ea74862853547fdaf0da38a33bbfe482184604051610ffb919061277b565b60405180910390a150505050565b61070881565b603c81565b5f805f6110218585611501565b915091505f805f8473ffffffffffffffffffffffffffffffffffffffff1673ffffffffffffffffffffffffffffffffffffffff1681526020019081526020015f205f8373ffffffffffffffffffffffffffffffffffffffff1673ffffffffffffffffffffffffffffffffffffffff1681526020019081526020015f206040518060c00160405290815f82015f9054906101000a900460070b60070b60070b81526020015f820160089054906101000a900464ffffffffff1664ffffffffff1664ffffffffff1681526020015f8201600d9054906101000a900460ff1660ff1660ff1681526020015f8201600e9054906101000a900460ff1660ff1660ff1681526020015f8201600f9054906101000a900460ff16151515158152602001600182016040518060400160405290815f82015f9054906101000a900462ffffff1662ffffff1662ffffff1681526020015f820160039054906101000a900460020b60020b60020b8152505081525050905080608001516111cb576040517f4eb0db8f00000000000000000000000000000000000000000000000000000000815260040160405180910390fd5b5f6111df84848460a001515f01515f61154f565b90506111eb8282611cf3565b508273ffffffffffffffffffffffffffffffffffffffff168773ffffffffffffffffffffffffffffffffffffffff160361123757815f015161122c906126b8565b945050505050611242565b815f01519450505050505b92915050565b60605f60015490505f8160ff169050806004611264919061285d565b67ffffffffffffffff81111561127d5761127c612890565b5b6040519080825280602002602001820160405280156112b657816020015b6112a3612110565b81526020019060019003908161129b5790505b5092506040518060400160405280606462ffffff168152602001600160020b815250835f815181106112eb576112ea6126fe565b5b602002602001018190525060405180604001604052806101f462ffffff168152602001600a60020b8152508360018151811061132a576113296126fe565b5b60200260200101819052506040518060400160405280610bb862ffffff168152602001603c60020b81525083600281518110611369576113686126fe565b5b6020026020010181905250604051806040016040528061271062ffffff16815260200160c860020b815250836003815181106113a8576113a76126fe565b5b60200260200101819052505f81111561143357600882901c91505f5b818110156114315760405180604001604052808462ffffff168152602001601885901c60020b815250848260046113fb919061285d565b8151811061140c5761140b6126fe565b5b6020026020010181905250603083901c9250808061142990612734565b9150506113c4565b505b505090565b5f602052815f5260405f20602052805f5260405f205f9150915050805f015f9054906101000a900460070b90805f0160089054906101000a900464ffffffffff1690805f01600d9054906101000a900460ff1690805f01600e9054906101000a900460ff1690805f01600f9054906101000a900460ff1690806001016040518060400160405290815f82015f9054906101000a900462ffffff1662ffffff1662ffffff1681526020015f820160039054906101000a900460020b60020b60020b81525050905086565b5f808273ffffffffffffffffffffffffffffffffffffffff168473ffffffffffffffffffffffffffffffffffffffff16111561154257828480945081955050505b8383915091509250929050565b611557612130565b5f611563868686611f77565b90505f8173ffffffffffffffffffffffffffffffffffffffff163b036115895750611ceb565b5f600267ffffffffffffffff8111156115a5576115a4612890565b5b6040519080825280602002602001820160405280156115d35781602001602082028036833780820191505090505b509050836115e3576107086115e6565b60015b815f815181106115f9576115f86126fe565b5b602002602001019063ffffffff16908163ffffffff16815250505f81600181518110611628576116276126fe565b5b602002602001019063ffffffff16908163ffffffff16815250506060808373ffffffffffffffffffffffffffffffffffffffff1663883bdbfd846040518263ffffffff1660e01b815260040161167e9190612974565b5f60405180830381865afa9250505080156116bb57506040513d5f823e3d601f19601f820116820180604052508101906116b89190612bd7565b60015b611b95576116c7612c59565b806308c379a003611b8657506116db612c78565b806116e65750611b88565b6040518060400160405280600381526020017f4f4c4400000000000000000000000000000000000000000000000000000000008152508051906020012081805190602001201461173a575050505050611ceb565b5f805f8773ffffffffffffffffffffffffffffffffffffffff16633850c7bd6040518163ffffffff1660e01b815260040160e060405180830381865afa158015611786573d5f803e3d5ffd5b505050506040513d601f19601f820116820180604052508101906117aa9190612d85565b909192939495509091929394509050508094508195508293505050505f808973ffffffffffffffffffffffffffffffffffffffff1663252c09d7866001866117f29190612e22565b6117fc9190612e57565b6040518263ffffffff1660e01b81526004016118189190612ec0565b608060405180830381865afa158015611833573d5f803e3d5ffd5b505050506040513d601f19601f820116820180604052508101906118579190612f03565b8363ffffffff169350909150905080925081935050508061190d578973ffffffffffffffffffffffffffffffffffffffff1663252c09d75f6040518263ffffffff1660e01b81526004016118ab9190612fa0565b608060405180830381865afa1580156118c6573d5f803e3d5ffd5b505050506040513d601f19601f820116820180604052508101906118ea9190612f03565b8363ffffffff1693509091509050508092505060018361190a9190612e22565b94505b600167ffffffffffffffff81111561192857611927612890565b5b6040519080825280602002602001820160405280156119565781602001602082028036833780820191505090505b5098508164ffffffffff164261196c91906127e9565b895f8151811061197f5761197e6126fe565b5b602002602001019063ffffffff16908163ffffffff16815250506060808b73ffffffffffffffffffffffffffffffffffffffff1663883bdbfd8c6040518263ffffffff1660e01b81526004016119d59190612974565b5f60405180830381865afa1580156119ef573d5f803e3d5ffd5b505050506040513d5f823e3d601f19601f82011682018060405250810190611a179190612bd7565b8092508193505050815f81518110611a3257611a316126fe565b5b60200260200101518a5f81518110611a4d57611a4c6126fe565b5b602002602001019060060b908160060b81525050805f81518110611a7457611a736126fe565b5b6020026020010151895f81518110611a8f57611a8e6126fe565b5b602002602001019073ffffffffffffffffffffffffffffffffffffffff16908173ffffffffffffffffffffffffffffffffffffffff16815250505f60018c5f81518110611adf57611ade6126fe565b5b602002602001015163ffffffff16600161070863ffffffff168b61ffff16611b07919061281c565b611b1191906127e9565b611b1b9190612fb9565b611b25919061285d565b90508661ffff16811115611b78576001600c6001603c611b459190612fe9565b611b4f9190613020565b88611b5a9190612e22565b611b649190612e22565b8e6060019061ffff16908161ffff16815250505b505050505050505050611b90565b505b3d5f803e3d5ffd5b611b9e565b81935080925050505b805f81518110611bb157611bb06126fe565b5b602002602001015181600181518110611bcd57611bcc6126fe565b5b6020026020010151611bdf9190613050565b6080845f81518110611bf457611bf36126fe565b5b602002602001015163ffffffff1673ffffffffffffffffffffffffffffffffffffffff16901b611c249190613097565b856020019073ffffffffffffffffffffffffffffffffffffffff16908173ffffffffffffffffffffffffffffffffffffffff1681525050815f81518110611c6e57611c6d6126fe565b5b602002602001015182600181518110611c8a57611c896126fe565b5b6020026020010151611c9c91906130c7565b855f019060060b908160060b81525050825f81518110611cbf57611cbe6126fe565b5b602002602001015163ffffffff16856040019064ffffffffff16908164ffffffffff1681525050505050505b949350505050565b5f80826040015164ffffffffff16602a845f015160060b901b81611d1a57611d1961265b565b5b0590505f846020015164ffffffffff1642036504000000000002905080855f015160070b01821315611d665780855f018181510191509060070b908160070b8152505060019250611da9565b845f015160070b8183011215611d965780855f018181510391509060070b908160070b8152505060019250611da8565b81855f019060070b908160070b815250505b5b505092915050565b611db9612110565b5f8260ff1603611de9576040518060400160405280606462ffffff168152602001600160020b8152509050611f27565b60018260ff1603611e1b5760405180604001604052806101f462ffffff168152602001600a60020b8152509050611f27565b60028260ff1603611e4d576040518060400160405280610bb862ffffff168152602001603c60020b8152509050611f27565b60038260ff1603611e7f57604051806040016040528061271062ffffff16815260200160c860020b8152509050611f27565b5f60015490505f8160ff169050600481611e99919061285d565b8460ff1610611ed4576040517fd8463cb800000000000000000000000000000000000000000000000000000000815260040160405180910390fd5b600484611ee19190613125565b6030611eed9190613159565b6008611ef99190612627565b60ff1682901c915060405180604001604052808362ffffff168152602001601884901c60020b815250925050505b919050565b5f816020015162ffffff166048835f015162ffffff168573ffffffffffffffffffffffffffffffffffffffff16611f63919061281c565b901b611f6f9190612fb9565b905092915050565b5f611fa0731f98431c8ad98523631ae4a59f267346ea31f984611f9b868686611fa9565b612045565b90509392505050565b611fb1612178565b8273ffffffffffffffffffffffffffffffffffffffff168473ffffffffffffffffffffffffffffffffffffffff161115611ff057828480945081955050505b60405180606001604052808573ffffffffffffffffffffffffffffffffffffffff1681526020018473ffffffffffffffffffffffffffffffffffffffff1681526020018362ffffff1681525090509392505050565b5f816020015173ffffffffffffffffffffffffffffffffffffffff16825f015173ffffffffffffffffffffffffffffffffffffffff1610612084575f80fd5b82825f0151836020015184604001516040516020016120a5939291906125c5565b604051602081830303815290604052805190602001207fe34f199b19b2b4f47f68442619d555527d244f78a3297ea89325f843f87b8b545f1b6040516020016120f093929190613257565b604051602081830303815290604052805190602001205f1c905092915050565b60405180604001604052805f62ffffff1681526020015f60020b81525090565b60405180608001604052805f60060b81526020015f73ffffffffffffffffffffffffffffffffffffffff1681526020015f64ffffffffff1681526020015f61ffff1681525090565b60405180606001604052805f73ffffffffffffffffffffffffffffffffffffffff1681526020015f73ffffffffffffffffffffffffffffffffffffffff1681526020015f62ffffff1681525090565b5f604051905090565b5f80fd5b5f80fd5b5f73ffffffffffffffffffffffffffffffffffffffff82169050919050565b5f612201826121d8565b9050919050565b612211816121f7565b811461221b575f80fd5b50565b5f8135905061222c81612208565b92915050565b5f8060408385031215612248576122476121d0565b5b5f6122558582860161221e565b92505060206122668582860161221e565b9150509250929050565b5f8160070b9050919050565b61228581612270565b82525050565b5f60208201905061229e5f83018461227c565b92915050565b5f62ffffff82169050919050565b6122bb816122a4565b81146122c5575f80fd5b50565b5f813590506122d6816122b2565b92915050565b5f602082840312156122f1576122f06121d0565b5b5f6122fe848285016122c8565b91505092915050565b5f63ffffffff82169050919050565b61231f81612307565b82525050565b5f6020820190506123385f830184612316565b92915050565b5f81519050919050565b5f82825260208201905092915050565b5f819050602082019050919050565b612370816122a4565b82525050565b5f8160020b9050919050565b61238b81612376565b82525050565b604082015f8201516123a55f850182612367565b5060208201516123b86020850182612382565b50505050565b5f6123c98383612391565b60408301905092915050565b5f602082019050919050565b5f6123eb8261233e565b6123f58185612348565b935061240083612358565b805f5b8381101561243057815161241788826123be565b9750612422836123d5565b925050600181019050612403565b5085935050505092915050565b5f6020820190508181035f83015261245581846123e1565b905092915050565b5f64ffffffffff82169050919050565b6124768161245d565b82525050565b5f60ff82169050919050565b6124918161247c565b82525050565b5f8115159050919050565b6124ab81612497565b82525050565b604082015f8201516124c55f850182612367565b5060208201516124d86020850182612382565b50505050565b5f60e0820190506124f15f83018961227c565b6124fe602083018861246d565b61250b6040830187612488565b6125186060830186612488565b61252560808301856124a2565b61253260a08301846124b1565b979650505050505050565b612546816121f7565b82525050565b5f60608201905061255f5f83018661253d565b61256c602083018561253d565b612579604083018461227c565b949350505050565b5f61ffff82169050919050565b61259781612581565b82525050565b5f6020820190506125b05f83018461258e565b92915050565b6125bf816122a4565b82525050565b5f6060820190506125d85f83018661253d565b6125e5602083018561253d565b6125f260408301846125b6565b949350505050565b7f4e487b71000000000000000000000000000000000000000000000000000000005f52601160045260245ffd5b5f6126318261247c565b915061263c8361247c565b9250828201905060ff811115612655576126546125fa565b5b92915050565b7f4e487b71000000000000000000000000000000000000000000000000000000005f52601260045260245ffd5b5f6126928261247c565b915061269d8361247c565b9250826126ad576126ac61265b565b5b828206905092915050565b5f6126c282612270565b91507fffffffffffffffffffffffffffffffffffffffffffffffff800000000000000082036126f4576126f36125fa565b5b815f039050919050565b7f4e487b71000000000000000000000000000000000000000000000000000000005f52603260045260245ffd5b5f819050919050565b5f61273e8261272b565b91507fffffffffffffffffffffffffffffffffffffffffffffffffffffffffffffffff82036127705761276f6125fa565b5b600182019050919050565b5f60208201905061278e5f8301846125b6565b92915050565b61279d81612376565b81146127a7575f80fd5b50565b5f815190506127b881612794565b92915050565b5f602082840312156127d3576127d26121d0565b5b5f6127e0848285016127aa565b91505092915050565b5f6127f38261272b565b91506127fe8361272b565b9250828203905081811115612816576128156125fa565b5b92915050565b5f6128268261272b565b91506128318361272b565b925082820261283f8161272b565b91508282048414831517612856576128556125fa565b5b5092915050565b5f6128678261272b565b91506128728361272b565b925082820190508082111561288a576128896125fa565b5b92915050565b7f4e487b71000000000000000000000000000000000000000000000000000000005f52604160045260245ffd5b5f81519050919050565b5f82825260208201905092915050565b5f819050602082019050919050565b6128ef81612307565b82525050565b5f61290083836128e6565b60208301905092915050565b5f602082019050919050565b5f612922826128bd565b61292c81856128c7565b9350612937836128d7565b805f5b8381101561296757815161294e88826128f5565b97506129598361290c565b92505060018101905061293a565b5085935050505092915050565b5f6020820190508181035f83015261298c8184612918565b905092915050565b5f80fd5b5f601f19601f8301169050919050565b6129b182612998565b810181811067ffffffffffffffff821117156129d0576129cf612890565b5b80604052505050565b5f6129e26121c7565b90506129ee82826129a8565b919050565b5f67ffffffffffffffff821115612a0d57612a0c612890565b5b602082029050602081019050919050565b5f80fd5b5f8160060b9050919050565b612a3781612a22565b8114612a41575f80fd5b50565b5f81519050612a5281612a2e565b92915050565b5f612a6a612a65846129f3565b6129d9565b90508083825260208201905060208402830185811115612a8d57612a8c612a1e565b5b835b81811015612ab65780612aa28882612a44565b845260208401935050602081019050612a8f565b5050509392505050565b5f82601f830112612ad457612ad3612994565b5b8151612ae4848260208601612a58565b91505092915050565b5f67ffffffffffffffff821115612b0757612b06612890565b5b602082029050602081019050919050565b612b21816121d8565b8114612b2b575f80fd5b50565b5f81519050612b3c81612b18565b92915050565b5f612b54612b4f84612aed565b6129d9565b90508083825260208201905060208402830185811115612b7757612b76612a1e565b5b835b81811015612ba05780612b8c8882612b2e565b845260208401935050602081019050612b79565b5050509392505050565b5f82601f830112612bbe57612bbd612994565b5b8151612bce848260208601612b42565b91505092915050565b5f8060408385031215612bed57612bec6121d0565b5b5f83015167ffffffffffffffff811115612c0a57612c096121d4565b5b612c1685828601612ac0565b925050602083015167ffffffffffffffff811115612c3757612c366121d4565b5b612c4385828601612baa565b9150509250929050565b5f8160e01c9050919050565b5f60033d1115612c755760045f803e612c725f51612c4d565b90505b90565b5f60443d10612d0457612c896121c7565b60043d036004823e80513d602482011167ffffffffffffffff82111715612cb1575050612d04565b808201805167ffffffffffffffff811115612ccf5750505050612d04565b80602083010160043d038501811115612cec575050505050612d04565b612cfb826020018501866129a8565b82955050505050505b90565b612d1081612581565b8114612d1a575f80fd5b50565b5f81519050612d2b81612d07565b92915050565b612d3a8161247c565b8114612d44575f80fd5b50565b5f81519050612d5581612d31565b92915050565b612d6481612497565b8114612d6e575f80fd5b50565b5f81519050612d7f81612d5b565b92915050565b5f805f805f805f60e0888a031215612da057612d9f6121d0565b5b5f612dad8a828b01612b2e565b9750506020612dbe8a828b016127aa565b9650506040612dcf8a828b01612d1d565b9550506060612de08a828b01612d1d565b9450506080612df18a828b01612d1d565b93505060a0612e028a828b01612d47565b92505060c0612e138a828b01612d71565b91505092959891949750929550565b5f612e2c82612581565b9150612e3783612581565b9250828201905061ffff811115612e5157612e506125fa565b5b92915050565b5f612e6182612581565b9150612e6c83612581565b925082612e7c57612e7b61265b565b5b828206905092915050565b5f819050919050565b5f612eaa612ea5612ea084612581565b612e87565b61272b565b9050919050565b612eba81612e90565b82525050565b5f602082019050612ed35f830184612eb1565b92915050565b612ee281612307565b8114612eec575f80fd5b50565b5f81519050612efd81612ed9565b92915050565b5f805f8060808587031215612f1b57612f1a6121d0565b5b5f612f2887828801612eef565b9450506020612f3987828801612a44565b9350506040612f4a87828801612b2e565b9250506060612f5b87828801612d71565b91505092959194509250565b5f819050919050565b5f612f8a612f85612f8084612f67565b612e87565b61272b565b9050919050565b612f9a81612f70565b82525050565b5f602082019050612fb35f830184612f91565b92915050565b5f612fc38261272b565b9150612fce8361272b565b925082612fde57612fdd61265b565b5b828204905092915050565b5f612ff382612307565b9150612ffe83612307565b9250828203905063ffffffff81111561301a576130196125fa565b5b92915050565b5f61302a82612307565b915061303583612307565b9250826130455761304461265b565b5b828204905092915050565b5f61305a826121d8565b9150613065836121d8565b9250828203905073ffffffffffffffffffffffffffffffffffffffff811115613091576130906125fa565b5b92915050565b5f6130a1826121d8565b91506130ac836121d8565b9250826130bc576130bb61265b565b5b828204905092915050565b5f6130d182612a22565b91506130dc83612a22565b92508282039050667fffffffffffff81137fffffffffffffffffffffffffffffffffffffffffffffffffff800000000000008212171561311f5761311e6125fa565b5b92915050565b5f61312f8261247c565b915061313a8361247c565b9250828203905060ff811115613153576131526125fa565b5b92915050565b5f6131638261247c565b915061316e8361247c565b925082820261317c8161247c565b915080821461318e5761318d6125fa565b5b5092915050565b5f81905092915050565b7fff000000000000000000000000000000000000000000000000000000000000005f82015250565b5f6131d3600183613195565b91506131de8261319f565b600182019050919050565b5f8160601b9050919050565b5f6131ff826131e9565b9050919050565b5f613210826131f5565b9050919050565b613228613223826121f7565b613206565b82525050565b5f819050919050565b5f819050919050565b61325161324c8261322e565b613237565b82525050565b5f613261826131c7565b915061326d8286613217565b60148201915061327d8285613240565b60208201915061328d8284613240565b60208201915081905094935050505056fea264697066735822122037a3f268729993f3626e809a6fbd0caf5855abf06185be1f9675b9c12b8695d964736f6c63430008140033",
  "linkReferences": {},
  "deployedLinkReferences": {}
}