{
  "_format": "hh-sol-artifact-1",
  "contractName": "MockLiquidityAmounts",
  "sourceName": "src/test/MockLiquidityAmounts.sol",
  "abi": [
    {
      "inputs": [
        {
          "internalType": "uint160",
          "name": "sqrtRatioX96",
          "type": "uint160"
        },
        {
          "internalType": "uint160",
          "name": "sqrtRatioAX96",
          "type": "uint160"
        },
        {
          "internalType": "uint160",
          "name": "sqrtRatioBX96",
          "type": "uint160"
        },
        {
          "internalType": "uint128",
          "name": "liquidity",
          "type": "uint128"
        }
      ],
      "name": "getAmountsForLiquidity",
      "outputs": [
        {
          "internalType": "uint256",
          "name": "amount0",
          "type": "uint256"
        },
        {
          "internalType": "uint256",
          "name": "amount1",
          "type": "uint256"
        }
      ],
      "stateMutability": "pure",
      "type": "function"
    }
  ],
  "bytecode": "0x608060405234801561000f575f80fd5b506105f08061001d5f395ff3fe608060405234801561000f575f80fd5b5060043610610029575f3560e01c8063c72e160b1461002d575b5f80fd5b61004760048036038101906100429190610446565b61005e565b6040516100559291906104c2565b60405180910390f35b5f8061006c86868686610079565b9150915094509492505050565b5f808373ffffffffffffffffffffffffffffffffffffffff168573ffffffffffffffffffffffffffffffffffffffff1611156100ba57838580955081965050505b8473ffffffffffffffffffffffffffffffffffffffff168673ffffffffffffffffffffffffffffffffffffffff16116100ff576100f885858561016a565b9150610161565b8373ffffffffffffffffffffffffffffffffffffffff168673ffffffffffffffffffffffffffffffffffffffff1610156101525761013e86858561016a565b915061014b85878561022f565b9050610160565b61015d85858561022f565b90505b5b94509492505050565b5f8273ffffffffffffffffffffffffffffffffffffffff168473ffffffffffffffffffffffffffffffffffffffff1611156101aa57828480945081955050505b8373ffffffffffffffffffffffffffffffffffffffff1661021c606060ff16846fffffffffffffffffffffffffffffffff16901b86866101ea9190610516565b73ffffffffffffffffffffffffffffffffffffffff168673ffffffffffffffffffffffffffffffffffffffff166102c3565b610226919061058a565b90509392505050565b5f8273ffffffffffffffffffffffffffffffffffffffff168473ffffffffffffffffffffffffffffffffffffffff16111561026f57828480945081955050505b6102ba826fffffffffffffffffffffffffffffffff1685856102919190610516565b73ffffffffffffffffffffffffffffffffffffffff166c010000000000000000000000006102c3565b90509392505050565b5f805f80198587098587029250828110838203039150505f81036102f8575f84116102ec575f80fd5b838204925050506103ad565b808411610303575f80fd5b5f8486880990508281118203915080830392505f856001877fffffffffffffffffffffffffffffffffffffffffffffffffffffffffffffffff030116905080860495508084049350600181825f0304019050808302841793505f600287600302189050808702600203810290508087026002038102905080870260020381029050808702600203810290508087026002038102905080870260020381029050808502955050505050505b9392505050565b5f80fd5b5f73ffffffffffffffffffffffffffffffffffffffff82169050919050565b6103e0816103b8565b81146103ea575f80fd5b50565b5f813590506103fb816103d7565b92915050565b5f6fffffffffffffffffffffffffffffffff82169050919050565b61042581610401565b811461042f575f80fd5b50565b5f813590506104408161041c565b92915050565b5f805f806080858703121561045e5761045d6103b4565b5b5f61046b878288016103ed565b945050602061047c878288016103ed565b935050604061048d878288016103ed565b925050606061049e87828801610432565b91505092959194509250565b5f819050919050565b6104bc816104aa565b82525050565b5f6040820190506104d55f8301856104b3565b6104e260208301846104b3565b9392505050565b7f4e487b71000000000000000000000000000000000000000000000000000000005f52601160045260245ffd5b5f610520826103b8565b915061052b836103b8565b9250828203905073ffffffffffffffffffffffffffffffffffffffff811115610557576105566104e9565b5b92915050565b7f4e487b71000000000000000000000000000000000000000000000000000000005f52601260045260245ffd5b5f610594826104aa565b915061059f836104aa565b9250826105af576105ae61055d565b5b82820490509291505056fea26469706673582212207b4d169b08835bc7b6bbf5551ffdc7745f11965c08947eae2bc05e0d2a531e9864736f6c63430008140033",
  "linkReferences": {},
  "deployedLinkReferences": {}
}