{"abi":[{"type":"constructor","inputs":[{"name":"uniswapV3Factory","type":"address","internalType":"address"}],"stateMutability":"nonpayable"},{"type":"function","name":"TWAP_DURATION","inputs":[],"outputs":[{"name":"","type":"uint40","internalType":"uint40"}],"stateMutability":"view"},{"type":"function","name":"getPrice","inputs":[{"name":"collateralToken","type":"address","internalType":"address"},{"name":"debtToken","type":"address","internalType":"address"}],"outputs":[{"name":"","type":"int64","internalType":"int64"}],"stateMutability":"view"},{"type":"function","name":"getUniswapFeeTiers","inputs":[],"outputs":[{"name":"uniswapFeeTiers","type":"tuple[]","internalType":"struct SirStructs.UniswapFeeTier[]","components":[{"name":"fee","type":"uint24","internalType":"uint24"},{"name":"tickSpacing","type":"int24","internalType":"int24"}]}],"stateMutability":"view"},{"type":"function","name":"initialize","inputs":[{"name":"tokenA","type":"address","internalType":"address"},{"name":"tokenB","type":"address","internalType":"address"}],"outputs":[],"stateMutability":"nonpayable"},{"type":"function","name":"newUniswapFeeTier","inputs":[{"name":"fee","type":"uint24","internalType":"uint24"}],"outputs":[],"stateMutability":"nonpayable"},{"type":"function","name":"state","inputs":[{"name":"token0","type":"address","internalType":"address"},{"name":"token1","type":"address","internalType":"address"}],"outputs":[{"name":"","type":"tuple","internalType":"struct SirStructs.OracleState","components":[{"name":"tickPriceX42","type":"int64","internalType":"int64"},{"name":"timeStampPrice","type":"uint40","internalType":"uint40"},{"name":"indexFeeTier","type":"uint8","internalType":"uint8"},{"name":"indexFeeTierProbeNext","type":"uint8","internalType":"uint8"},{"name":"timeStampFeeTier","type":"uint40","internalType":"uint40"},{"name":"initialized","type":"bool","internalType":"bool"},{"name":"uniswapFeeTier","type":"tuple","internalType":"struct SirStructs.UniswapFeeTier","components":[{"name":"fee","type":"uint24","internalType":"uint24"},{"name":"tickSpacing","type":"int24","internalType":"int24"}]}]}],"stateMutability":"view"},{"type":"function","name":"updateOracleState","inputs":[{"name":"collateralToken","type":"address","internalType":"address"},{"name":"debtToken","type":"address","internalType":"address"}],"outputs":[{"name":"","type":"int64","internalType":"int64"}],"stateMutability":"nonpayable"},{"type":"event","name":"OracleFeeTierChanged","inputs":[{"name":"feeTierPrevious","type":"uint24","indexed":false,"internalType":"uint24"},{"name":"feeTierSelected","type":"uint24","indexed":false,"internalType":"uint24"}],"anonymous":false},{"type":"event","name":"OracleInitialized","inputs":[{"name":"token0","type":"address","indexed":true,"internalType":"address"},{"name":"token1","type":"address","indexed":true,"internalType":"address"},{"name":"feeTierSelected","type":"uint24","indexed":false,"internalType":"uint24"},{"name":"avLiquidity","type":"uint160","indexed":false,"internalType":"uint160"},{"name":"period","type":"uint40","indexed":false,"internalType":"uint40"}],"anonymous":false},{"type":"event","name":"PriceUpdated","inputs":[{"name":"token0","type":"address","indexed":true,"internalType":"address"},{"name":"token1","type":"address","indexed":true,"internalType":"address"},{"name":"priceTruncated","type":"bool","indexed":false,"internalType":"bool"},{"name":"priceTickX42","type":"int64","indexed":false,"internalType":"int64"}],"anonymous":false},{"type":"event","name":"UniswapFeeTierAdded","inputs":[{"name":"fee","type":"uint24","indexed":false,"internalType":"uint24"}],"anonymous":false},{"type":"event","name":"UniswapOracleProbed","inputs":[{"name":"fee","type":"uint24","indexed":false,"internalType":"uint24"},{"name":"aggPriceTick","type":"int56","indexed":false,"internalType":"int56"},{"name":"avLiquidity","type":"uint160","indexed":false,"internalType":"uint160"},{"name":"period","type":"uint40","indexed":false,"internalType":"uint40"},{"name":"cardinalityToIncrease","type":"uint16","indexed":false,"internalType":"uint16"}],"anonymous":false},{"type":"error","name":"NoUniswapPool","inputs":[]},{"type":"error","name":"OracleAlreadyInitialized","inputs":[]},{"type":"error","name":"OracleNotInitialized","inputs":[]},{"type":"error","name":"UniswapFeeTierIndexOutOfBounds","inputs":[]}],"bytecode":{"object":"0x60a0604052348015600f57600080fd5b50604051613067380380613067833981016040819052602c91603c565b6001600160a01b0316608052606a565b600060208284031215604d57600080fd5b81516001600160a01b0381168114606357600080fd5b9392505050565b608051612fdb61008c6000396000818161116d01526124c10152612fdb6000f3fe608060405234801561001057600080fd5b506004361061007d5760003560e01c8063879ac8f81161005b578063879ac8f8146100d5578063ac41865a146100f4578063bbbe310f14610107578063ca4bc9f11461011c57600080fd5b806304b7ca5514610082578063485cc955146100ad57806379b00adf146100c2575b600080fd5b610095610090366004612708565b61013c565b60405160079190910b81526020015b60405180910390f35b6100c06100bb366004612708565b610a5a565b005b6100c06100d0366004612741565b61110b565b6100de61070881565b60405164ffffffffff90911681526020016100a4565b610095610102366004612708565b611304565b61010f61156d565b6040516100a49190612766565b61012f61012a366004612708565b61174d565b6040516100a491906127c6565b600080600061014b8585611896565b73ffffffffffffffffffffffffffffffffffffffff808316600090815260208181526040808320938516835292815290829020825160e0810184528154600781900b825264ffffffffff68010000000000000000820481168386015260ff6d010000000000000000000000000083048116848801526e0100000000000000000000000000008304811660608501526f01000000000000000000000000000000830490911660808401527401000000000000000000000000000000000000000090910416151560a08201908152845180860190955260019092015462ffffff811685526301000000900460020b9284019290925260c0820192909252905192945090925090610285576040517f4eb0db8f00000000000000000000000000000000000000000000000000000000815260040160405180910390fd5b42816020015164ffffffffff1614610a065760006102ac84848460c00151600001516118d9565b60c08301515160208201516040808401516060850151608086015192519596507f487b013f17cafba123a7a321c8d013db7d2dd5d0ddc4213ed6382ffe6ed9bf2e956103439594939062ffffff95909516855260069390930b602085015273ffffffffffffffffffffffffffffffffffffffff91909116604084015264ffffffffff16606083015261ffff16608082015260a00190565b60405180910390a1806060015164ffffffffff166001036103e6576000816000015173ffffffffffffffffffffffffffffffffffffffff16633850c7bd6040518163ffffffff1660e01b815260040160e060405180830381865afa1580156103af573d6000803e3d6000fd5b505050506040513d601f19601f820116820180604052508101906103d3919061287e565b5050505060029190910b60208501525050505b60006103f2838361225c565b90508373ffffffffffffffffffffffffffffffffffffffff168573ffffffffffffffffffffffffffffffffffffffff167f751600799d4232b751da1b16a16cbaa54e27b2069fe5659d8936eb3a3a8efad7838660000151604051610465929190911515825260070b602082015260400190565b60405180910390a364ffffffffff4281166020850152608084015161048e91610e10911661293d565b421061082657600080836060015164ffffffffff161180156104be5750836060015160ff16846040015160ff1614155b156107315760006104d28560600151612329565b905060006104e5888884600001516118d9565b825160208201516040808401516060850151608086015192519596507f487b013f17cafba123a7a321c8d013db7d2dd5d0ddc4213ed6382ffe6ed9bf2e956105789594939062ffffff95909516855260069390930b602085015273ffffffffffffffffffffffffffffffffffffffff91909116604084015264ffffffffff16606083015261ffff16608082015260a00190565b60405180910390a1604081015173ffffffffffffffffffffffffffffffffffffffff16156107255760006105ca866040015173ffffffffffffffffffffffffffffffffffffffff168860c00151612475565b905060006105f2836040015173ffffffffffffffffffffffffffffffffffffffff1685612475565b90508181111561071957608083015161ffff161561069b57825160808401516040517f32148f6700000000000000000000000000000000000000000000000000000000815261ffff909116600482015273ffffffffffffffffffffffffffffffffffffffff909116906332148f6790602401600060405180830381600087803b15801561067e57600080fd5b505af1158015610692573d6000803e3d6000fd5b5050505061071e565b61070864ffffffffff16836060015164ffffffffff161061071457606088015160ff166040808a019190915260c0890151518551825162ffffff9283168152911660208201527f050d6709031a30cdd3bca5de123ee39fa8c5bdefa6b19d8bfdf5491416addd5d910160405180910390a160c088018490525b61071e565b600194505b505061072a565b600192505b5050610735565b5060015b80801561074a57506000836080015161ffff16115b156107dc57825160808401516040517f32148f6700000000000000000000000000000000000000000000000000000000815261ffff909116600482015273ffffffffffffffffffffffffffffffffffffffff909116906332148f6790602401600060405180830381600087803b1580156107c357600080fd5b505af11580156107d7573d6000803e3d6000fd5b505050505b600060015460046107ed9190612950565b60ff16905080856060015160016108049190612950565b61080e9190612998565b60ff166060860152505064ffffffffff421660808401525b505073ffffffffffffffffffffffffffffffffffffffff8084166000908152602081815260408083209386168352928152908290208351815483860151948601516060870151608088015160a0890151151574010000000000000000000000000000000000000000027fffffffffffffffffffffff00ffffffffffffffffffffffffffffffffffffffff64ffffffffff9283166f0100000000000000000000000000000002167fffffffffffffffffffffff000000000000ffffffffffffffffffffffffffffff60ff9485166e010000000000000000000000000000027fffffffffffffffffffffffffffffffffff00ffffffffffffffffffffffffffff959096166d010000000000000000000000000002949094167fffffffffffffffffffffffffffffffffff0000ffffffffffffffffffffffffff93909a1668010000000000000000027fffffffffffffffffffffffffffffffffffffff0000000000000000000000000090961667ffffffffffffffff9097169690961794909417169690961717949094161792909217825560c0830151805160019093018054919092015162ffffff9081166301000000027fffffffffffffffffffffffffffffffffffffffffffffffffffff0000000000009092169316929092179190911790555b8173ffffffffffffffffffffffffffffffffffffffff168673ffffffffffffffffffffffffffffffffffffffff1603610a4e578051610a44906129ba565b9350505050610a54565b51925050505b92915050565b610a648282611896565b73ffffffffffffffffffffffffffffffffffffffff808316600090815260208181526040808320938516835292815290829020825160e0810184528154600781900b825264ffffffffff68010000000000000000820481168386015260ff6d010000000000000000000000000083048116848801526e0100000000000000000000000000008304811660608501526f01000000000000000000000000000000830490911660808401527401000000000000000000000000000000000000000090910416151560a08201908152845180860190955260019092015462ffffff811685526301000000900460020b9284019290925260c082019290925290519294509092509015610b7257505050565b6000610b7c61156d565b6040805160a0810182526000808252602082018190529181018290526060810182905260808101829052919250906040805160a08101825260008082526020820181905291810182905260608101829052608081019190915260005b8451811015610d5957610c098888878481518110610bf857610bf86129f8565b6020026020010151600001516118d9565b92507f487b013f17cafba123a7a321c8d013db7d2dd5d0ddc4213ed6382ffe6ed9bf2e858281518110610c3e57610c3e6129f8565b6020026020010151600001518460200151856040015186606001518760800151604051610cb895949392919062ffffff95909516855260069390930b602085015273ffffffffffffffffffffffffffffffffffffffff91909116604084015264ffffffffff16606083015261ffff16608082015260a00190565b60405180910390a1604083015173ffffffffffffffffffffffffffffffffffffffff1615610d51576000610d35846060015164ffffffffff16856040015173ffffffffffffffffffffffffffffffffffffffff16610d169190612a27565b878481518110610d2857610d286129f8565b6020026020010151612475565b905084811115610d4f5760ff821660408801529350829150835b505b600101610bd8565b5082600003610d94576040517f94113d8100000000000000000000000000000000000000000000000000000000815260040160405180910390fd5b83516040860151610da6906001612950565b610db09190612998565b60ff9081166060870152600160a087015260408601518551869291909116908110610ddd57610ddd6129f8565b602090810291909101015160c086015264ffffffffff421660808087019190915281015161ffff1615610e9757805160808201516040517f32148f6700000000000000000000000000000000000000000000000000000000815261ffff909116600482015273ffffffffffffffffffffffffffffffffffffffff909116906332148f6790602401600060405180830381600087803b158015610e7e57600080fd5b505af1158015610e92573d6000803e3d6000fd5b505050505b846000808973ffffffffffffffffffffffffffffffffffffffff1673ffffffffffffffffffffffffffffffffffffffff16815260200190815260200160002060008873ffffffffffffffffffffffffffffffffffffffff1673ffffffffffffffffffffffffffffffffffffffff16815260200190815260200160002060008201518160000160006101000a81548167ffffffffffffffff021916908360070b67ffffffffffffffff16021790555060208201518160000160086101000a81548164ffffffffff021916908364ffffffffff160217905550604082015181600001600d6101000a81548160ff021916908360ff160217905550606082015181600001600e6101000a81548160ff021916908360ff160217905550608082015181600001600f6101000a81548164ffffffffff021916908364ffffffffff16021790555060a08201518160000160146101000a81548160ff02191690831515021790555060c08201518160010160008201518160000160006101000a81548162ffffff021916908362ffffff16021790555060208201518160000160036101000a81548162ffffff021916908360020b62ffffff16021790555050509050508573ffffffffffffffffffffffffffffffffffffffff168773ffffffffffffffffffffffffffffffffffffffff167f19b5907e6a7c6dfd1a24b4266946f8672a5b51d6caa6d0a2aaa5c17562a833608760c0015160000151846040015185606001516040516110fa9392919062ffffff93909316835273ffffffffffffffffffffffffffffffffffffffff91909116602083015264ffffffffff16604082015260600190565b60405180910390a350505050505050565b60008162ffffff161161111d57600080fd5b600061112761156d565b9050600981511061113757600080fd5b6040517f22afcccb00000000000000000000000000000000000000000000000000000000815262ffffff831660048201526000907f000000000000000000000000000000000000000000000000000000000000000073ffffffffffffffffffffffffffffffffffffffff16906322afcccb90602401602060405180830381865afa1580156111c9573d6000803e3d6000fd5b505050506040513d601f19601f820116820180604052508101906111ed9190612a3e565b905060008160020b136111ff57600080fd5b60005b82518110156112465782818151811061121d5761121d6129f8565b60200260200101516000015162ffffff168462ffffff160361123e57600080fd5b600101611202565b50600482516112559190612a59565b611260906030612a27565b61126b90600861293d565b60018054601884901b65ffffff0000001662ffffff87161790921b9091177effffffffffffffffffffffffffffffffffffffffffffffffffffffffffff008116825560ff16906112bc90829061293d565b6001805491909117905560405162ffffff851681527f37838f2f499547532188da41cb82201ea74862853547fdaf0da38a33bbfe48219060200160405180910390a150505050565b60008060006113138585611896565b73ffffffffffffffffffffffffffffffffffffffff808316600090815260208181526040808320938516835292815290829020825160e0810184528154600781900b825264ffffffffff68010000000000000000820481168386015260ff6d010000000000000000000000000083048116848801526e0100000000000000000000000000008304811660608501526f01000000000000000000000000000000830490911660808401527401000000000000000000000000000000000000000090910416151560a08201908152845180860190955260019092015462ffffff811685526301000000900460020b9284019290925260c082019290925290519294509092509061144d576040517f4eb0db8f00000000000000000000000000000000000000000000000000000000815260040160405180910390fd5b42816020015164ffffffffff161461151e57600061147484848460c00151600001516118d9565b9050806060015164ffffffffff16600103611511576000816000015173ffffffffffffffffffffffffffffffffffffffff16633850c7bd6040518163ffffffff1660e01b815260040160e060405180830381865afa1580156114da573d6000803e3d6000fd5b505050506040513d601f19601f820116820180604052508101906114fe919061287e565b5050505060029190910b60208501525050505b61151b828261225c565b50505b8173ffffffffffffffffffffffffffffffffffffffff168673ffffffffffffffffffffffffffffffffffffffff1614611558578051611563565b8051611563906129ba565b9695505050505050565b60015460609060ff811661158281600461293d565b67ffffffffffffffff81111561159a5761159a612a6c565b6040519080825280602002602001820160405280156115df57816020015b60408051808201909152600080825260208201528152602001906001900390816115b85790505b5092506040518060400160405280606462ffffff168152602001600160020b81525083600081518110611614576116146129f8565b602002602001018190525060405180604001604052806101f462ffffff168152602001600a60020b81525083600181518110611652576116526129f8565b60200260200101819052506040518060400160405280610bb862ffffff168152602001603c60020b81525083600281518110611690576116906129f8565b6020026020010181905250604051806040016040528061271062ffffff16815260200160c860020b815250836003815181106116ce576116ce6129f8565b6020908102919091010152801561174857600882901c915060005b81811015611746576040805180820190915262ffffff84168152601884901c60020b60208201528461171c83600461293d565b8151811061172c5761172c6129f8565b602090810291909101015260309290921c916001016116e9565b505b505090565b6117996040805160e08101825260008082526020808301829052828401829052606083018290526080830182905260a0830182905283518085019094528184528301529060c082015290565b5073ffffffffffffffffffffffffffffffffffffffff918216600090815260208181526040808320939094168252918252829020825160e0810184528154600781900b825264ffffffffff68010000000000000000820481168386015260ff6d010000000000000000000000000083048116848801526e0100000000000000000000000000008304811660608501526f01000000000000000000000000000000830490911660808401527401000000000000000000000000000000000000000090910416151560a0820152835180850190945260019091015462ffffff811684526301000000900460020b9183019190915260c081019190915290565b6000808273ffffffffffffffffffffffffffffffffffffffff168473ffffffffffffffffffffffffffffffffffffffff1611156118d1579192915b509192909150565b6040805160a08101825260008082526020820181905291810182905260608101829052608081019190915261190f8484846124ba565b73ffffffffffffffffffffffffffffffffffffffff168082523b156122555760408051600280825260608201835260009260208301908036833701905050905061070881600081518110611965576119656129f8565b602002602001019063ffffffff16908163ffffffff1681525050600081600181518110611994576119946129f8565b602002602001019063ffffffff16908163ffffffff1681525050606080836000015173ffffffffffffffffffffffffffffffffffffffff1663883bdbfd846040518263ffffffff1660e01b81526004016119ee9190612a9b565b600060405180830381865afa925050508015611a4a57506040513d6000823e601f3d9081017fffffffffffffffffffffffffffffffffffffffffffffffffffffffffffffffe0168201604052611a479190810190612bd7565b60015b61213a57611a56612cae565b806308c379a00361212e5750611a6a612cca565b80611a755750612130565b60408051808201909152600381527f4f4c4400000000000000000000000000000000000000000000000000000000006020918201528151908201207fd30c0d219016dd7e5cf2b2c30c4d7c091820fc329f335b57cab26b9ff3384a9e14611adf5750505050612255565b6000806000876000015173ffffffffffffffffffffffffffffffffffffffff16633850c7bd6040518163ffffffff1660e01b815260040160e060405180830381865afa158015611b33573d6000803e3d6000fd5b505050506040513d601f19601f82011682018060405250810190611b57919061287e565b50508c5160408051600180825281830190925294995092975090955073ffffffffffffffffffffffffffffffffffffffff16935063883bdbfd925060208083019080368337019050506040518263ffffffff1660e01b8152600401611bbc9190612a9b565b600060405180830381865afa158015611bd9573d6000803e3d6000fd5b505050506040513d6000823e601f3d9081017fffffffffffffffffffffffffffffffffffffffffffffffffffffffffffffffe0168201604052611c1f9190810190612bd7565b8096508197505050600086600081518110611c3c57611c3c6129f8565b60200260200101519050600086600081518110611c5b57611c5b6129f8565b60200260200101519050600267ffffffffffffffff811115611c7f57611c7f612a6c565b604051908082528060200260200182016040528015611ca8578160200160208202803683370190505b50604080516002808252606082018352929a5091906020830190803683370190505096508188600181518110611ce057611ce06129f8565b602002602001019060060b908160060b815250508087600181518110611d0857611d086129f8565b602002602001019073ffffffffffffffffffffffffffffffffffffffff16908173ffffffffffffffffffffffffffffffffffffffff168152505060008060018661ffff161115611e0b578b5173ffffffffffffffffffffffffffffffffffffffff1663252c09d787611d7b8a6001612d8b565b611d859190612da5565b6040517fffffffff0000000000000000000000000000000000000000000000000000000060e084901b16815261ffff9091166004820152602401608060405180830381865afa158015611ddc573d6000803e3d6000fd5b505050506040513d601f19601f82011682018060405250810190611e009190612dc9565b919650945090925090505b80611eb8578b516040517f252c09d70000000000000000000000000000000000000000000000000000000081526000600482015273ffffffffffffffffffffffffffffffffffffffff9091169063252c09d790602401608060405180830381865afa158015611e7e573d6000803e3d6000fd5b505050506040513d601f19601f82011682018060405250810190611ea29190612dc9565b5090955093509150611eb5876001612d8b565b95505b50611ec963ffffffff821642612a59565b8a600081518110611edc57611edc6129f8565b602002602001019063ffffffff16908163ffffffff168152505089600081518110611f0957611f096129f8565b602002602001015163ffffffff16600003612009578a6000015173ffffffffffffffffffffffffffffffffffffffff16631a6865026040518163ffffffff1660e01b8152600401602060405180830381865afa158015611f6d573d6000803e3d6000fd5b505050506040513d601f19601f82011682018060405250810190611f919190612e2a565b6fffffffffffffffffffffffffffffffff1660408c01819052600003611fb957600160408c01525b600160608c01819052600c90611fd090603c612e5c565b611fda9190612e79565b611fe5906001612d8b565b611ff0906001612d8b565b61ffff1660808c01525061225598505050505050505050565b60008a60008151811061201e5761201e6129f8565b602002602001015163ffffffff16600161070864ffffffffff168861ffff166120479190612a27565b6120519190612a59565b61205b9190612ea3565b61206690600161293d565b90508461ffff168111156120ab57600c6120826001603c612e5c565b61208c9190612e79565b612097906001612d8b565b6120a19086612d8b565b61ffff1660808d01525b838a6000815181106120bf576120bf6129f8565b602002602001019060060b908160060b8152505082896000815181106120e7576120e76129f8565b602002602001019073ffffffffffffffffffffffffffffffffffffffff16908173ffffffffffffffffffffffffffffffffffffffff16815250505050505050505050612140565b505b3d6000803e3d6000fd5b90925090505b80600081518110612153576121536129f8565b60200260200101518160018151811061216e5761216e6129f8565b60200260200101516121809190612eb7565b608084600081518110612195576121956129f8565b602002602001015163ffffffff1673ffffffffffffffffffffffffffffffffffffffff16901b6121c59190612ee3565b73ffffffffffffffffffffffffffffffffffffffff166040850152815182906000906121f3576121f36129f8565b60200260200101518260018151811061220e5761220e6129f8565b60200260200101516122209190612f2b565b60060b60208501528251839060009061223b5761223b6129f8565b602090810291909101015163ffffffff1660608501525050505b9392505050565b600080602a836020015160060b901b90506001836060015164ffffffffff16111561229f57826060015164ffffffffff16818161229b5761229b612969565b0590505b836020015164ffffffffff166000036122be57600781900b8452612322565b6020840151845164ffffffffff909116420365040000000000029060070b81018213156122f7578451810160070b855260019250612320565b845160070b828201121561231857845181900360070b855260019250612320565b600782900b85525b505b5092915050565b60408051808201909152600080825260208201528160ff1660000361236257505060408051808201909152606481526001602082015290565b8160ff16600103612388575050604080518082019091526101f48152600a602082015290565b8160ff166002036123ae57505060408051808201909152610bb88152603c602082015290565b8160ff166003036123d457505060408051808201909152612710815260c8602082015290565b60015460ff81166123e681600461293d565b8460ff1610612421576040517fd8463cb800000000000000000000000000000000000000000000000000000000815260040160405180910390fd5b61242c600485612f70565b612437906030612f89565b612442906008612950565b6040805180820190915260ff919091169290921c62ffffff8116835260181c60020b60208301525092915050565b919050565b6000816020015162ffffff1660016048846000015162ffffff168661249a9190612a27565b6124a592911b612a59565b6124af9190612ea3565b61225590600161293d565b60006124f07f00000000000000000000000000000000000000000000000000000000000000006124eb8686866124f8565b61258a565b949350505050565b60408051606081018252600080825260208201819052918101919091528273ffffffffffffffffffffffffffffffffffffffff168473ffffffffffffffffffffffffffffffffffffffff16111561254d579192915b506040805160608101825273ffffffffffffffffffffffffffffffffffffffff948516815292909316602083015262ffffff169181019190915290565b6000816020015173ffffffffffffffffffffffffffffffffffffffff16826000015173ffffffffffffffffffffffffffffffffffffffff16106125cc57600080fd5b8151602080840151604080860151815173ffffffffffffffffffffffffffffffffffffffff95861681860152949092168482015262ffffff90911660608085019190915281518085038201815260808501909252815191909201207fff0000000000000000000000000000000000000000000000000000000000000060a08401529085901b7fffffffffffffffffffffffffffffffffffffffff0000000000000000000000001660a183015260b58201527fe34f199b19b2b4f47f68442619d555527d244f78a3297ea89325f843f87b8b5460d582015260f501604080517fffffffffffffffffffffffffffffffffffffffffffffffffffffffffffffffe081840301815291905280516020909101209392505050565b73ffffffffffffffffffffffffffffffffffffffff8116811461270557600080fd5b50565b6000806040838503121561271b57600080fd5b8235612726816126e3565b91506020830135612736816126e3565b809150509250929050565b60006020828403121561275357600080fd5b813562ffffff8116811461225557600080fd5b602080825282518282018190526000918401906040840190835b818110156127bb576127a5838551805162ffffff16825260209081015160020b910152565b6020939093019260409290920191600101612780565b509095945050505050565b600061010082019050825160070b825264ffffffffff602084015116602083015260ff604084015116604083015260ff606084015116606083015264ffffffffff608084015116608083015260a083015161282560a084018215159052565b5060c083015161232260c0840182805162ffffff16825260209081015160020b910152565b8051600281900b811461247057600080fd5b805161ffff8116811461247057600080fd5b8051801515811461247057600080fd5b600080600080600080600060e0888a03121561289957600080fd5b87516128a4816126e3565b96506128b26020890161284a565b95506128c06040890161285c565b94506128ce6060890161285c565b93506128dc6080890161285c565b925060a088015160ff811681146128f257600080fd5b915061290060c0890161286e565b905092959891949750929550565b7f4e487b7100000000000000000000000000000000000000000000000000000000600052601160045260246000fd5b80820180821115610a5457610a5461290e565b60ff8181168382160190811115610a5457610a5461290e565b7f4e487b7100000000000000000000000000000000000000000000000000000000600052601260045260246000fd5b600060ff8316806129ab576129ab612969565b8060ff84160691505092915050565b60008160070b7fffffffffffffffffffffffffffffffffffffffffffffffff800000000000000081036129ef576129ef61290e565b60000392915050565b7f4e487b7100000000000000000000000000000000000000000000000000000000600052603260045260246000fd5b8082028115828204841417610a5457610a5461290e565b600060208284031215612a5057600080fd5b6122558261284a565b81810381811115610a5457610a5461290e565b7f4e487b7100000000000000000000000000000000000000000000000000000000600052604160045260246000fd5b602080825282518282018190526000918401906040840190835b818110156127bb57835163ffffffff16835260209384019390920191600101612ab5565b7fffffffffffffffffffffffffffffffffffffffffffffffffffffffffffffffe0601f830116810181811067ffffffffffffffff82111715612b1d57612b1d612a6c565b6040525050565b600067ffffffffffffffff821115612b3e57612b3e612a6c565b5060051b60200190565b8051600681900b811461247057600080fd5b600082601f830112612b6b57600080fd5b8151612b7681612b24565b604051612b838282612ad9565b80915082815260208101915060208360051b860101925085831115612ba757600080fd5b602085015b83811015612bcd578051612bbf816126e3565b835260209283019201612bac565b5095945050505050565b60008060408385031215612bea57600080fd5b825167ffffffffffffffff811115612c0157600080fd5b8301601f81018513612c1257600080fd5b8051612c1d81612b24565b604051612c2a8282612ad9565b80915082815260208101915060208360051b850101925087831115612c4e57600080fd5b6020840193505b82841015612c7757612c6684612b48565b825260209384019390910190612c55565b80955050505050602083015167ffffffffffffffff811115612c9857600080fd5b612ca485828601612b5a565b9150509250929050565b600060033d1115612cc75760046000803e5060005160e01c5b90565b600060443d1015612cd85790565b6040517ffffffffffffffffffffffffffffffffffffffffffffffffffffffffffffffffc3d016004823e80513d602482011167ffffffffffffffff82111715612d2057505090565b808201805167ffffffffffffffff811115612d3c575050505090565b7ffffffffffffffffffffffffffffffffffffffffffffffffffffffffffffffffc3d8501016020828401011115612d74575050505090565b612d8360208285010185612ad9565b509392505050565b61ffff8181168382160190811115610a5457610a5461290e565b600061ffff831680612db957612db9612969565b8061ffff84160691505092915050565b60008060008060808587031215612ddf57600080fd5b845163ffffffff81168114612df357600080fd5b9350612e0160208601612b48565b92506040850151612e11816126e3565b9150612e1f6060860161286e565b905092959194509250565b600060208284031215612e3c57600080fd5b81516fffffffffffffffffffffffffffffffff8116811461225557600080fd5b64ffffffffff8281168282160390811115610a5457610a5461290e565b600064ffffffffff831680612e9057612e90612969565b8064ffffffffff84160491505092915050565b600082612eb257612eb2612969565b500490565b73ffffffffffffffffffffffffffffffffffffffff8281168282160390811115610a5457610a5461290e565b600073ffffffffffffffffffffffffffffffffffffffff831680612f0957612f09612969565b8073ffffffffffffffffffffffffffffffffffffffff84160491505092915050565b600682810b9082900b037fffffffffffffffffffffffffffffffffffffffffffffffffff800000000000008112667fffffffffffff82131715610a5457610a5461290e565b60ff8281168282160390811115610a5457610a5461290e565b60ff81811683821602908116908181146123225761232261290e56fea2646970667358221220944e302e3f835fdefa7188f4b6e78e9d1e4ae75de670c54e08837a6b3d8e6b5964736f6c634300081a0033","linkReferences":{}},"methodIdentifiers":{"TWAP_DURATION()":"879ac8f8","getPrice(address,address)":"ac41865a","getUniswapFeeTiers()":"bbbe310f","initialize(address,address)":"485cc955","newUniswapFeeTier(uint24)":"79b00adf","state(address,address)":"ca4bc9f1","updateOracleState(address,address)":"04b7ca55"},"id":77}