{"abi":[{"type":"constructor","inputs":[{"name":"uniswapV3Factory","type":"address","internalType":"address"}],"stateMutability":"nonpayable"},{"type":"function","name":"TWAP_DURATION","inputs":[],"outputs":[{"name":"","type":"uint40","internalType":"uint40"}],"stateMutability":"view"},{"type":"function","name":"getPrice","inputs":[{"name":"collateralToken","type":"address","internalType":"address"},{"name":"debtToken","type":"address","internalType":"address"}],"outputs":[{"name":"","type":"int64","internalType":"int64"}],"stateMutability":"view"},{"type":"function","name":"getUniswapFeeTiers","inputs":[],"outputs":[{"name":"uniswapFeeTiers","type":"tuple[]","internalType":"struct SirStructs.UniswapFeeTier[]","components":[{"name":"fee","type":"uint24","internalType":"uint24"},{"name":"tickSpacing","type":"int24","internalType":"int24"}]}],"stateMutability":"view"},{"type":"function","name":"initialize","inputs":[{"name":"tokenA","type":"address","internalType":"address"},{"name":"tokenB","type":"address","internalType":"address"}],"outputs":[],"stateMutability":"nonpayable"},{"type":"function","name":"newUniswapFeeTier","inputs":[{"name":"fee","type":"uint24","internalType":"uint24"}],"outputs":[],"stateMutability":"nonpayable"},{"type":"function","name":"state","inputs":[{"name":"token0","type":"address","internalType":"address"},{"name":"token1","type":"address","internalType":"address"}],"outputs":[{"name":"","type":"tuple","internalType":"struct SirStructs.OracleState","components":[{"name":"tickPriceX42","type":"int64","internalType":"int64"},{"name":"timeStampPrice","type":"uint40","internalType":"uint40"},{"name":"indexFeeTier","type":"uint8","internalType":"uint8"},{"name":"indexFeeTierProbeNext","type":"uint8","internalType":"uint8"},{"name":"timeStampFeeTier","type":"uint40","internalType":"uint40"},{"name":"initialized","type":"bool","internalType":"bool"},{"name":"uniswapFeeTier","type":"tuple","internalType":"struct SirStructs.UniswapFeeTier","components":[{"name":"fee","type":"uint24","internalType":"uint24"},{"name":"tickSpacing","type":"int24","internalType":"int24"}]}]}],"stateMutability":"view"},{"type":"function","name":"updateOracleState","inputs":[{"name":"collateralToken","type":"address","internalType":"address"},{"name":"debtToken","type":"address","internalType":"address"}],"outputs":[{"name":"","type":"int64","internalType":"int64"}],"stateMutability":"nonpayable"},{"type":"event","name":"OracleFeeTierChanged","inputs":[{"name":"feeTierPrevious","type":"uint24","indexed":false,"internalType":"uint24"},{"name":"feeTierSelected","type":"uint24","indexed":false,"internalType":"uint24"}],"anonymous":false},{"type":"event","name":"OracleInitialized","inputs":[{"name":"token0","type":"address","indexed":true,"internalType":"address"},{"name":"token1","type":"address","indexed":true,"internalType":"address"},{"name":"feeTierSelected","type":"uint24","indexed":false,"internalType":"uint24"},{"name":"avLiquidity","type":"uint136","indexed":false,"internalType":"uint136"},{"name":"period","type":"uint40","indexed":false,"internalType":"uint40"}],"anonymous":false},{"type":"event","name":"PriceUpdated","inputs":[{"name":"token0","type":"address","indexed":true,"internalType":"address"},{"name":"token1","type":"address","indexed":true,"internalType":"address"},{"name":"priceTruncated","type":"bool","indexed":false,"internalType":"bool"},{"name":"priceTickX42","type":"int64","indexed":false,"internalType":"int64"}],"anonymous":false},{"type":"event","name":"UniswapFeeTierAdded","inputs":[{"name":"fee","type":"uint24","indexed":false,"internalType":"uint24"}],"anonymous":false},{"type":"event","name":"UniswapOracleProbed","inputs":[{"name":"fee","type":"uint24","indexed":false,"internalType":"uint24"},{"name":"aggPriceTick","type":"int56","indexed":false,"internalType":"int56"},{"name":"avLiquidity","type":"uint136","indexed":false,"internalType":"uint136"},{"name":"period","type":"uint40","indexed":false,"internalType":"uint40"},{"name":"cardinalityToIncrease","type":"uint16","indexed":false,"internalType":"uint16"}],"anonymous":false},{"type":"error","name":"NoUniswapPool","inputs":[]},{"type":"error","name":"OracleAlreadyInitialized","inputs":[]},{"type":"error","name":"OracleNotInitialized","inputs":[]},{"type":"error","name":"UniswapFeeTierIndexOutOfBounds","inputs":[]}],"bytecode":{"object":"0x60a0604052348015600f57600080fd5b506040516131c13803806131c1833981016040819052602c91603c565b6001600160a01b0316608052606a565b600060208284031215604d57600080fd5b81516001600160a01b0381168114606357600080fd5b9392505050565b60805161313561008c6000396000818161115001526124bb01526131356000f3fe608060405234801561001057600080fd5b506004361061007d5760003560e01c8063879ac8f81161005b578063879ac8f8146100d5578063ac41865a146100f4578063bbbe310f14610107578063ca4bc9f11461011c57600080fd5b806304b7ca5514610082578063485cc955146100ad57806379b00adf146100c2575b600080fd5b610095610090366004612702565b61013c565b60405160079190910b81526020015b60405180910390f35b6100c06100bb366004612702565b610a4c565b005b6100c06100d036600461273b565b6110ec565b6100de61070881565b60405164ffffffffff90911681526020016100a4565b610095610102366004612702565b6112e4565b61010f611548565b6040516100a49190612760565b61012f61012a366004612702565b61171c565b6040516100a491906127c0565b600080600061014b8585611865565b73ffffffffffffffffffffffffffffffffffffffff808316600090815260208181526040808320938516835292815290829020825160e0810184528154600781900b825264ffffffffff68010000000000000000820481168386015260ff6d010000000000000000000000000083048116848801526e0100000000000000000000000000008304811660608501526f01000000000000000000000000000000830490911660808401527401000000000000000000000000000000000000000090910416151560a08201908152845180860190955260019092015462ffffff811685526301000000900460020b9284019290925260c0820192909252905192945090925090610285576040517f4eb0db8f00000000000000000000000000000000000000000000000000000000815260040160405180910390fd5b42816020015164ffffffffff16146109f85760006102ac84848460c00151600001516118a8565b60c08301515160208201516040808401516060850151608086015192519596507f5036c0ab047f93973e52c62487e173e8eabdd2e7f5f4431c85f3c44dc8c00232956103409594939062ffffff95909516855260069390930b602085015270ffffffffffffffffffffffffffffffffff91909116604084015264ffffffffff16606083015261ffff16608082015260a00190565b60405180910390a1806060015164ffffffffff166001036103e3576000816000015173ffffffffffffffffffffffffffffffffffffffff16633850c7bd6040518163ffffffff1660e01b815260040160e060405180830381865afa1580156103ac573d6000803e3d6000fd5b505050506040513d601f19601f820116820180604052508101906103d09190612878565b5050505060029190910b60208501525050505b60006103ef8383612228565b90508373ffffffffffffffffffffffffffffffffffffffff168573ffffffffffffffffffffffffffffffffffffffff167f751600799d4232b751da1b16a16cbaa54e27b2069fe5659d8936eb3a3a8efad7838660000151604051610462929190911515825260070b602082015260400190565b60405180910390a364ffffffffff4281166020850152608084015161048c91620151809116612937565b421061081857600080836060015164ffffffffff161180156104bc5750836060015160ff16846040015160ff1614155b156107235760006104d08560600151612323565b905060006104e3888884600001516118a8565b825160208201516040808401516060850151608086015192519596507f5036c0ab047f93973e52c62487e173e8eabdd2e7f5f4431c85f3c44dc8c00232956105739594939062ffffff95909516855260069390930b602085015270ffffffffffffffffffffffffffffffffff91909116604084015264ffffffffff16606083015261ffff16608082015260a00190565b60405180910390a1604081015170ffffffffffffffffffffffffffffffffff16156107175760006105bf866040015170ffffffffffffffffffffffffffffffffff168860c0015161246f565b905060006105e4836040015170ffffffffffffffffffffffffffffffffff168561246f565b90508181111561070b57608083015161ffff161561068d57825160808401516040517f32148f6700000000000000000000000000000000000000000000000000000000815261ffff909116600482015273ffffffffffffffffffffffffffffffffffffffff909116906332148f6790602401600060405180830381600087803b15801561067057600080fd5b505af1158015610684573d6000803e3d6000fd5b50505050610710565b61070864ffffffffff16836060015164ffffffffff161061070657606088015160ff166040808a019190915260c0890151518551825162ffffff9283168152911660208201527f050d6709031a30cdd3bca5de123ee39fa8c5bdefa6b19d8bfdf5491416addd5d910160405180910390a160c088018490525b610710565b600194505b505061071c565b600192505b5050610727565b5060015b80801561073c57506000836080015161ffff16115b156107ce57825160808401516040517f32148f6700000000000000000000000000000000000000000000000000000000815261ffff909116600482015273ffffffffffffffffffffffffffffffffffffffff909116906332148f6790602401600060405180830381600087803b1580156107b557600080fd5b505af11580156107c9573d6000803e3d6000fd5b505050505b600060015460046107df919061294a565b60ff16905080856060015160016107f6919061294a565b6108009190612992565b60ff166060860152505064ffffffffff421660808401525b505073ffffffffffffffffffffffffffffffffffffffff8084166000908152602081815260408083209386168352928152908290208351815483860151948601516060870151608088015160a0890151151574010000000000000000000000000000000000000000027fffffffffffffffffffffff00ffffffffffffffffffffffffffffffffffffffff64ffffffffff9283166f0100000000000000000000000000000002167fffffffffffffffffffffff000000000000ffffffffffffffffffffffffffffff60ff9485166e010000000000000000000000000000027fffffffffffffffffffffffffffffffffff00ffffffffffffffffffffffffffff959096166d010000000000000000000000000002949094167fffffffffffffffffffffffffffffffffff0000ffffffffffffffffffffffffff93909a1668010000000000000000027fffffffffffffffffffffffffffffffffffffff0000000000000000000000000090961667ffffffffffffffff9097169690961794909417169690961717949094161792909217825560c0830151805160019093018054919092015162ffffff9081166301000000027fffffffffffffffffffffffffffffffffffffffffffffffffffff0000000000009092169316929092179190911790555b8173ffffffffffffffffffffffffffffffffffffffff168673ffffffffffffffffffffffffffffffffffffffff1603610a40578051610a36906129b4565b9350505050610a46565b51925050505b92915050565b610a568282611865565b73ffffffffffffffffffffffffffffffffffffffff808316600090815260208181526040808320938516835292815290829020825160e0810184528154600781900b825264ffffffffff68010000000000000000820481168386015260ff6d010000000000000000000000000083048116848801526e0100000000000000000000000000008304811660608501526f01000000000000000000000000000000830490911660808401527401000000000000000000000000000000000000000090910416151560a08201908152845180860190955260019092015462ffffff811685526301000000900460020b9284019290925260c082019290925290519294509092509015610b6457505050565b6000610b6e611548565b80516040805160a081018252600080825260208201819052918101829052606081018290526080810182905292935090916040805160a08101825260008082526020820181905291810182905260608101829052608081019190915260005b84811015610d3b57610bfd8989888481518110610bec57610bec6129f2565b6020026020010151600001516118a8565b92507f5036c0ab047f93973e52c62487e173e8eabdd2e7f5f4431c85f3c44dc8c00232868281518110610c3257610c326129f2565b6020026020010151600001518460200151856040015186606001518760800151604051610ca995949392919062ffffff95909516855260069390930b602085015270ffffffffffffffffffffffffffffffffff91909116604084015264ffffffffff16606083015261ffff16608082015260a00190565b60405180910390a1604083015170ffffffffffffffffffffffffffffffffff1615610d33576000610d17846060015164ffffffffff16856040015170ffffffffffffffffffffffffffffffffff1602888481518110610d0a57610d0a6129f2565b602002602001015161246f565b905084811115610d315760ff821660408901529350829150835b505b600101610bcd565b5082600003610d76576040517f94113d8100000000000000000000000000000000000000000000000000000000815260040160405180910390fd5b8360ff16866040015160010160ff1681610d9257610d92612963565b0660ff9081166060880152600160a088015260408701518651879291909116908110610dc057610dc06129f2565b602090810291909101015160c087015264ffffffffff421660808088019190915281015161ffff1615610e7a57805160808201516040517f32148f6700000000000000000000000000000000000000000000000000000000815261ffff909116600482015273ffffffffffffffffffffffffffffffffffffffff909116906332148f6790602401600060405180830381600087803b158015610e6157600080fd5b505af1158015610e75573d6000803e3d6000fd5b505050505b856000808a73ffffffffffffffffffffffffffffffffffffffff1673ffffffffffffffffffffffffffffffffffffffff16815260200190815260200160002060008973ffffffffffffffffffffffffffffffffffffffff1673ffffffffffffffffffffffffffffffffffffffff16815260200190815260200160002060008201518160000160006101000a81548167ffffffffffffffff021916908360070b67ffffffffffffffff16021790555060208201518160000160086101000a81548164ffffffffff021916908364ffffffffff160217905550604082015181600001600d6101000a81548160ff021916908360ff160217905550606082015181600001600e6101000a81548160ff021916908360ff160217905550608082015181600001600f6101000a81548164ffffffffff021916908364ffffffffff16021790555060a08201518160000160146101000a81548160ff02191690831515021790555060c08201518160010160008201518160000160006101000a81548162ffffff021916908362ffffff16021790555060208201518160000160036101000a81548162ffffff021916908360020b62ffffff16021790555050509050508673ffffffffffffffffffffffffffffffffffffffff168873ffffffffffffffffffffffffffffffffffffffff167fc358c6596f9b51f4378cf53b7b2a45ddaf005b76af5c24f1e291e4cf1382f0578860c0015160000151846040015185606001516040516110da9392919062ffffff93909316835270ffffffffffffffffffffffffffffffffff91909116602083015264ffffffffff16604082015260600190565b60405180910390a35050505050505050565b60008162ffffff16116110fe57600080fd5b6000611108611548565b80519091506009811061111a57600080fd5b6040517f22afcccb00000000000000000000000000000000000000000000000000000000815262ffffff841660048201526000907f000000000000000000000000000000000000000000000000000000000000000073ffffffffffffffffffffffffffffffffffffffff16906322afcccb90602401602060405180830381865afa1580156111ac573d6000803e3d6000fd5b505050506040513d601f19601f820116820180604052508101906111d09190612a21565b905060008160020b136111e257600080fd5b60005b82811015611228578381815181106111ff576111ff6129f2565b60200260200101516000015162ffffff168562ffffff160361122057600080fd5b6001016111e5565b50611234600483612a3c565b61123f906030612a4f565b61124a906008612937565b60018054601884901b65ffffff0000001662ffffff88161790921b9091177effffffffffffffffffffffffffffffffffffffffffffffffffffffffffff008116825560ff169061129b908290612937565b6001805491909117905560405162ffffff861681527f37838f2f499547532188da41cb82201ea74862853547fdaf0da38a33bbfe48219060200160405180910390a15050505050565b60008060006112f38585611865565b73ffffffffffffffffffffffffffffffffffffffff808316600090815260208181526040808320938516835292815290829020825160e0810184528154600781900b825264ffffffffff68010000000000000000820481168386015260ff6d010000000000000000000000000083048116848801526e0100000000000000000000000000008304811660608501526f01000000000000000000000000000000830490911660808401527401000000000000000000000000000000000000000090910416151560a08201908152845180860190955260019092015462ffffff811685526301000000900460020b9284019290925260c082019290925290519294509092509061142d576040517f4eb0db8f00000000000000000000000000000000000000000000000000000000815260040160405180910390fd5b42816020015164ffffffffff16146114fe57600061145484848460c00151600001516118a8565b9050806060015164ffffffffff166001036114f1576000816000015173ffffffffffffffffffffffffffffffffffffffff16633850c7bd6040518163ffffffff1660e01b815260040160e060405180830381865afa1580156114ba573d6000803e3d6000fd5b505050506040513d601f19601f820116820180604052508101906114de9190612878565b5050505060029190910b60208501525050505b6114fb8282612228565b50505b8173ffffffffffffffffffffffffffffffffffffffff168673ffffffffffffffffffffffffffffffffffffffff161461153857805161153e565b80516000035b9695505050505050565b60015460609060ff81166004810167ffffffffffffffff81111561156e5761156e612a66565b6040519080825280602002602001820160405280156115b357816020015b604080518082019091526000808252602082015281526020019060019003908161158c5790505b5092506040518060400160405280606462ffffff168152602001600160020b815250836000815181106115e8576115e86129f2565b602002602001018190525060405180604001604052806101f462ffffff168152602001600a60020b81525083600181518110611626576116266129f2565b60200260200101819052506040518060400160405280610bb862ffffff168152602001603c60020b81525083600281518110611664576116646129f2565b6020026020010181905250604051806040016040528061271062ffffff16815260200160c860020b815250836003815181106116a2576116a26129f2565b6020908102919091010152801561171757600882901c915060005b818110156117155760405180604001604052808462ffffff168152602001601885901c60020b8152508482600401815181106116fb576116fb6129f2565b602090810291909101015260309290921c916001016116bd565b505b505090565b6117686040805160e08101825260008082526020808301829052828401829052606083018290526080830182905260a0830182905283518085019094528184528301529060c082015290565b5073ffffffffffffffffffffffffffffffffffffffff918216600090815260208181526040808320939094168252918252829020825160e0810184528154600781900b825264ffffffffff68010000000000000000820481168386015260ff6d010000000000000000000000000083048116848801526e0100000000000000000000000000008304811660608501526f01000000000000000000000000000000830490911660808401527401000000000000000000000000000000000000000090910416151560a0820152835180850190945260019091015462ffffff811684526301000000900460020b9183019190915260c081019190915290565b6000808273ffffffffffffffffffffffffffffffffffffffff168473ffffffffffffffffffffffffffffffffffffffff1611156118a0579192915b509192909150565b6040805160a0810182526000808252602082018190529181018290526060810182905260808101919091526118de8484846124b4565b73ffffffffffffffffffffffffffffffffffffffff168082523b156122215760408051600280825260608201835260009260208301908036833701905050905061070881600081518110611934576119346129f2565b602002602001019063ffffffff16908163ffffffff1681525050600081600181518110611963576119636129f2565b602002602001019063ffffffff16908163ffffffff1681525050606080836000015173ffffffffffffffffffffffffffffffffffffffff1663883bdbfd846040518263ffffffff1660e01b81526004016119bd9190612a95565b600060405180830381865afa925050508015611a1957506040513d6000823e601f3d9081017fffffffffffffffffffffffffffffffffffffffffffffffffffffffffffffffe0168201604052611a169190810190612bd1565b60015b61210957611a25612ca8565b806308c379a0036120fd5750611a39612cc4565b80611a4457506120ff565b60408051808201909152600381527f4f4c4400000000000000000000000000000000000000000000000000000000006020918201528151908201207fd30c0d219016dd7e5cf2b2c30c4d7c091820fc329f335b57cab26b9ff3384a9e14611aae5750505050612221565b6000806000876000015173ffffffffffffffffffffffffffffffffffffffff16633850c7bd6040518163ffffffff1660e01b815260040160e060405180830381865afa158015611b02573d6000803e3d6000fd5b505050506040513d601f19601f82011682018060405250810190611b269190612878565b50508c5160408051600180825281830190925294995092975090955073ffffffffffffffffffffffffffffffffffffffff16935063883bdbfd925060208083019080368337019050506040518263ffffffff1660e01b8152600401611b8b9190612a95565b600060405180830381865afa158015611ba8573d6000803e3d6000fd5b505050506040513d6000823e601f3d9081017fffffffffffffffffffffffffffffffffffffffffffffffffffffffffffffffe0168201604052611bee9190810190612bd1565b8096508197505050600086600081518110611c0b57611c0b6129f2565b60200260200101519050600086600081518110611c2a57611c2a6129f2565b60200260200101519050600267ffffffffffffffff811115611c4e57611c4e612a66565b604051908082528060200260200182016040528015611c77578160200160208202803683370190505b50604080516002808252606082018352929a5091906020830190803683370190505096508188600181518110611caf57611caf6129f2565b602002602001019060060b908160060b815250508087600181518110611cd757611cd76129f2565b602002602001019073ffffffffffffffffffffffffffffffffffffffff16908173ffffffffffffffffffffffffffffffffffffffff168152505060008060018661ffff161115611dda578b5173ffffffffffffffffffffffffffffffffffffffff1663252c09d787611d4a8a6001612d85565b611d549190612d9f565b6040517fffffffff0000000000000000000000000000000000000000000000000000000060e084901b16815261ffff9091166004820152602401608060405180830381865afa158015611dab573d6000803e3d6000fd5b505050506040513d601f19601f82011682018060405250810190611dcf9190612dc3565b919650945090925090505b80611e87578b516040517f252c09d70000000000000000000000000000000000000000000000000000000081526000600482015273ffffffffffffffffffffffffffffffffffffffff9091169063252c09d790602401608060405180830381865afa158015611e4d573d6000803e3d6000fd5b505050506040513d601f19601f82011682018060405250810190611e719190612dc3565b5090955093509150611e84876001612d85565b95505b50611e9863ffffffff821642612a3c565b8a600081518110611eab57611eab6129f2565b602002602001019063ffffffff16908163ffffffff168152505089600081518110611ed857611ed86129f2565b602002602001015163ffffffff16600003611fd8578a6000015173ffffffffffffffffffffffffffffffffffffffff16631a6865026040518163ffffffff1660e01b8152600401602060405180830381865afa158015611f3c573d6000803e3d6000fd5b505050506040513d601f19601f82011682018060405250810190611f609190612e24565b6fffffffffffffffffffffffffffffffff1660408c01819052600003611f8857600160408c01525b600160608c01819052600c90611f9f90603c612e56565b611fa99190612e73565b611fb4906001612d85565b611fbf906001612d85565b61ffff1660808c01525061222198505050505050505050565b60008a600081518110611fed57611fed6129f2565b602002602001015163ffffffff16600161070864ffffffffff168861ffff166120169190612a4f565b6120209190612a3c565b61202a9190612e9d565b612035906001612937565b90508461ffff1681111561207a57600c6120516001603c612e56565b61205b9190612e73565b612066906001612d85565b6120709086612d85565b61ffff1660808d01525b838a60008151811061208e5761208e6129f2565b602002602001019060060b908160060b8152505082896000815181106120b6576120b66129f2565b602002602001019073ffffffffffffffffffffffffffffffffffffffff16908173ffffffffffffffffffffffffffffffffffffffff1681525050505050505050505061210f565b505b3d6000803e3d6000fd5b90925090505b80600081518110612122576121226129f2565b60200260200101518160018151811061213d5761213d6129f2565b602002602001015161214f9190612eb1565b608084600081518110612164576121646129f2565b602002602001015163ffffffff1673ffffffffffffffffffffffffffffffffffffffff16901b6121949190612edd565b70ffffffffffffffffffffffffffffffffff166040850152815182906000906121bf576121bf6129f2565b6020026020010151826001815181106121da576121da6129f2565b60200260200101516121ec9190612f25565b60060b602085015282518390600090612207576122076129f2565b602090810291909101015163ffffffff1660608501525050505b9392505050565b600080602a836020015160060b901b90506001836060015164ffffffffff1611156122665760608301516122639064ffffffffff1682612f6a565b90505b836020015164ffffffffff1660000361228557600781900b845261231c565b602084015160009065040000000000906122a69064ffffffffff1642612a3c565b6122b09190612fd2565b85519091506122c390829060070b61301e565b8213156122eb5780856000018181516122dc919061303e565b60070b9052506001925061231a565b845160070b6122fa828461301e565b12156123125780856000018181516122dc9190613084565b600782900b85525b505b5092915050565b60408051808201909152600080825260208201528160ff1660000361235c57505060408051808201909152606481526001602082015290565b8160ff16600103612382575050604080518082019091526101f48152600a602082015290565b8160ff166002036123a857505060408051808201909152610bb88152603c602082015290565b8160ff166003036123ce57505060408051808201909152612710815260c8602082015290565b60015460ff81166123e0816004612937565b8460ff161061241b576040517fd8463cb800000000000000000000000000000000000000000000000000000000815260040160405180910390fd5b6124266004856130ca565b6124319060306130e3565b61243c90600861294a565b6040805180820190915260ff919091169290921c62ffffff8116835260181c60020b60208301525092915050565b919050565b6000816020015162ffffff1660016048846000015162ffffff16866124949190612a4f565b61249f92911b612a3c565b6124a99190612e9d565b612221906001612937565b60006124ea7f00000000000000000000000000000000000000000000000000000000000000006124e58686866124f2565b612584565b949350505050565b60408051606081018252600080825260208201819052918101919091528273ffffffffffffffffffffffffffffffffffffffff168473ffffffffffffffffffffffffffffffffffffffff161115612547579192915b506040805160608101825273ffffffffffffffffffffffffffffffffffffffff948516815292909316602083015262ffffff169181019190915290565b6000816020015173ffffffffffffffffffffffffffffffffffffffff16826000015173ffffffffffffffffffffffffffffffffffffffff16106125c657600080fd5b8151602080840151604080860151815173ffffffffffffffffffffffffffffffffffffffff95861681860152949092168482015262ffffff90911660608085019190915281518085038201815260808501909252815191909201207fff0000000000000000000000000000000000000000000000000000000000000060a08401529085901b7fffffffffffffffffffffffffffffffffffffffff0000000000000000000000001660a183015260b58201527fe34f199b19b2b4f47f68442619d555527d244f78a3297ea89325f843f87b8b5460d582015260f501604080517fffffffffffffffffffffffffffffffffffffffffffffffffffffffffffffffe081840301815291905280516020909101209392505050565b73ffffffffffffffffffffffffffffffffffffffff811681146126ff57600080fd5b50565b6000806040838503121561271557600080fd5b8235612720816126dd565b91506020830135612730816126dd565b809150509250929050565b60006020828403121561274d57600080fd5b813562ffffff8116811461222157600080fd5b602080825282518282018190526000918401906040840190835b818110156127b55761279f838551805162ffffff16825260209081015160020b910152565b602093909301926040929092019160010161277a565b509095945050505050565b600061010082019050825160070b825264ffffffffff602084015116602083015260ff604084015116604083015260ff606084015116606083015264ffffffffff608084015116608083015260a083015161281f60a084018215159052565b5060c083015161231c60c0840182805162ffffff16825260209081015160020b910152565b8051600281900b811461246a57600080fd5b805161ffff8116811461246a57600080fd5b8051801515811461246a57600080fd5b600080600080600080600060e0888a03121561289357600080fd5b875161289e816126dd565b96506128ac60208901612844565b95506128ba60408901612856565b94506128c860608901612856565b93506128d660808901612856565b925060a088015160ff811681146128ec57600080fd5b91506128fa60c08901612868565b905092959891949750929550565b7f4e487b7100000000000000000000000000000000000000000000000000000000600052601160045260246000fd5b80820180821115610a4657610a46612908565b60ff8181168382160190811115610a4657610a46612908565b7f4e487b7100000000000000000000000000000000000000000000000000000000600052601260045260246000fd5b600060ff8316806129a5576129a5612963565b8060ff84160691505092915050565b60008160070b7fffffffffffffffffffffffffffffffffffffffffffffffff800000000000000081036129e9576129e9612908565b60000392915050565b7f4e487b7100000000000000000000000000000000000000000000000000000000600052603260045260246000fd5b600060208284031215612a3357600080fd5b61222182612844565b81810381811115610a4657610a46612908565b8082028115828204841417610a4657610a46612908565b7f4e487b7100000000000000000000000000000000000000000000000000000000600052604160045260246000fd5b602080825282518282018190526000918401906040840190835b818110156127b557835163ffffffff16835260209384019390920191600101612aaf565b7fffffffffffffffffffffffffffffffffffffffffffffffffffffffffffffffe0601f830116810181811067ffffffffffffffff82111715612b1757612b17612a66565b6040525050565b600067ffffffffffffffff821115612b3857612b38612a66565b5060051b60200190565b8051600681900b811461246a57600080fd5b600082601f830112612b6557600080fd5b8151612b7081612b1e565b604051612b7d8282612ad3565b80915082815260208101915060208360051b860101925085831115612ba157600080fd5b602085015b83811015612bc7578051612bb9816126dd565b835260209283019201612ba6565b5095945050505050565b60008060408385031215612be457600080fd5b825167ffffffffffffffff811115612bfb57600080fd5b8301601f81018513612c0c57600080fd5b8051612c1781612b1e565b604051612c248282612ad3565b80915082815260208101915060208360051b850101925087831115612c4857600080fd5b6020840193505b82841015612c7157612c6084612b42565b825260209384019390910190612c4f565b80955050505050602083015167ffffffffffffffff811115612c9257600080fd5b612c9e85828601612b54565b9150509250929050565b600060033d1115612cc15760046000803e5060005160e01c5b90565b600060443d1015612cd25790565b6040517ffffffffffffffffffffffffffffffffffffffffffffffffffffffffffffffffc3d016004823e80513d602482011167ffffffffffffffff82111715612d1a57505090565b808201805167ffffffffffffffff811115612d36575050505090565b7ffffffffffffffffffffffffffffffffffffffffffffffffffffffffffffffffc3d8501016020828401011115612d6e575050505090565b612d7d60208285010185612ad3565b509392505050565b61ffff8181168382160190811115610a4657610a46612908565b600061ffff831680612db357612db3612963565b8061ffff84160691505092915050565b60008060008060808587031215612dd957600080fd5b845163ffffffff81168114612ded57600080fd5b9350612dfb60208601612b42565b92506040850151612e0b816126dd565b9150612e1960608601612868565b905092959194509250565b600060208284031215612e3657600080fd5b81516fffffffffffffffffffffffffffffffff8116811461222157600080fd5b64ffffffffff8281168282160390811115610a4657610a46612908565b600064ffffffffff831680612e8a57612e8a612963565b8064ffffffffff84160491505092915050565b600082612eac57612eac612963565b500490565b73ffffffffffffffffffffffffffffffffffffffff8281168282160390811115610a4657610a46612908565b600073ffffffffffffffffffffffffffffffffffffffff831680612f0357612f03612963565b8073ffffffffffffffffffffffffffffffffffffffff84160491505092915050565b600682810b9082900b037fffffffffffffffffffffffffffffffffffffffffffffffffff800000000000008112667fffffffffffff82131715610a4657610a46612908565b600082612f7957612f79612963565b7fffffffffffffffffffffffffffffffffffffffffffffffffffffffffffffffff83147f800000000000000000000000000000000000000000000000000000000000000083141615612fcd57612fcd612908565b500590565b808202600082127f80000000000000000000000000000000000000000000000000000000000000008414161561300a5761300a612908565b8181058314821517610a4657610a46612908565b808201828112600083128015821682158216171561231a5761231a612908565b600781810b9083900b01677fffffffffffffff81137fffffffffffffffffffffffffffffffffffffffffffffffff800000000000000082121715610a4657610a46612908565b600782810b9082900b037fffffffffffffffffffffffffffffffffffffffffffffffff80000000000000008112677fffffffffffffff82131715610a4657610a46612908565b60ff8281168282160390811115610a4657610a46612908565b60ff818116838216029081169081811461231c5761231c61290856fea26469706673582212204310b3d075ac232f13e171c7954a1e4a7e18f27cda5038a924e6fc99cac216aa64736f6c634300081a0033","linkReferences":{}},"methodIdentifiers":{"TWAP_DURATION()":"879ac8f8","getPrice(address,address)":"ac41865a","getUniswapFeeTiers()":"bbbe310f","initialize(address,address)":"485cc955","newUniswapFeeTier(uint24)":"79b00adf","state(address,address)":"ca4bc9f1","updateOracleState(address,address)":"04b7ca55"},"id":43}