{"abi":[{"type":"constructor","inputs":[{"name":"uniswapV3Factory","type":"address","internalType":"address"}],"stateMutability":"nonpayable"},{"type":"function","name":"TWAP_DURATION","inputs":[],"outputs":[{"name":"","type":"uint40","internalType":"uint40"}],"stateMutability":"view"},{"type":"function","name":"getPrice","inputs":[{"name":"collateralToken","type":"address","internalType":"address"},{"name":"debtToken","type":"address","internalType":"address"}],"outputs":[{"name":"","type":"int64","internalType":"int64"}],"stateMutability":"view"},{"type":"function","name":"getUniswapFeeTiers","inputs":[],"outputs":[{"name":"uniswapFeeTiers","type":"tuple[]","internalType":"struct SirStructs.UniswapFeeTier[]","components":[{"name":"fee","type":"uint24","internalType":"uint24"},{"name":"tickSpacing","type":"int24","internalType":"int24"}]}],"stateMutability":"view"},{"type":"function","name":"initialize","inputs":[{"name":"tokenA","type":"address","internalType":"address"},{"name":"tokenB","type":"address","internalType":"address"}],"outputs":[],"stateMutability":"nonpayable"},{"type":"function","name":"newUniswapFeeTier","inputs":[{"name":"fee","type":"uint24","internalType":"uint24"}],"outputs":[],"stateMutability":"nonpayable"},{"type":"function","name":"state","inputs":[{"name":"token0","type":"address","internalType":"address"},{"name":"token1","type":"address","internalType":"address"}],"outputs":[{"name":"","type":"tuple","internalType":"struct SirStructs.OracleState","components":[{"name":"tickPriceX42","type":"int64","internalType":"int64"},{"name":"timeStampPrice","type":"uint40","internalType":"uint40"},{"name":"indexFeeTier","type":"uint8","internalType":"uint8"},{"name":"indexFeeTierProbeNext","type":"uint8","internalType":"uint8"},{"name":"timeStampFeeTier","type":"uint40","internalType":"uint40"},{"name":"initialized","type":"bool","internalType":"bool"},{"name":"uniswapFeeTier","type":"tuple","internalType":"struct SirStructs.UniswapFeeTier","components":[{"name":"fee","type":"uint24","internalType":"uint24"},{"name":"tickSpacing","type":"int24","internalType":"int24"}]}]}],"stateMutability":"view"},{"type":"function","name":"uniswapFeeTierAddressOf","inputs":[{"name":"tokenA","type":"address","internalType":"address"},{"name":"tokenB","type":"address","internalType":"address"}],"outputs":[{"name":"","type":"address","internalType":"address"}],"stateMutability":"view"},{"type":"function","name":"uniswapFeeTierOf","inputs":[{"name":"tokenA","type":"address","internalType":"address"},{"name":"tokenB","type":"address","internalType":"address"}],"outputs":[{"name":"","type":"uint24","internalType":"uint24"}],"stateMutability":"view"},{"type":"function","name":"updateOracleState","inputs":[{"name":"collateralToken","type":"address","internalType":"address"},{"name":"debtToken","type":"address","internalType":"address"}],"outputs":[{"name":"tickPriceX42","type":"int64","internalType":"int64"},{"name":"uniswapPoolAddress","type":"address","internalType":"address"}],"stateMutability":"nonpayable"},{"type":"event","name":"OracleFeeTierChanged","inputs":[{"name":"feeTierPrevious","type":"uint24","indexed":false,"internalType":"uint24"},{"name":"feeTierSelected","type":"uint24","indexed":false,"internalType":"uint24"}],"anonymous":false},{"type":"event","name":"OracleInitialized","inputs":[{"name":"token0","type":"address","indexed":true,"internalType":"address"},{"name":"token1","type":"address","indexed":true,"internalType":"address"},{"name":"feeTierSelected","type":"uint24","indexed":false,"internalType":"uint24"},{"name":"avLiquidity","type":"uint136","indexed":false,"internalType":"uint136"},{"name":"period","type":"uint40","indexed":false,"internalType":"uint40"}],"anonymous":false},{"type":"event","name":"PriceUpdated","inputs":[{"name":"token0","type":"address","indexed":true,"internalType":"address"},{"name":"token1","type":"address","indexed":true,"internalType":"address"},{"name":"priceTruncated","type":"bool","indexed":false,"internalType":"bool"},{"name":"priceTickX42","type":"int64","indexed":false,"internalType":"int64"}],"anonymous":false},{"type":"event","name":"UniswapFeeTierAdded","inputs":[{"name":"fee","type":"uint24","indexed":false,"internalType":"uint24"}],"anonymous":false},{"type":"event","name":"UniswapOracleProbed","inputs":[{"name":"fee","type":"uint24","indexed":false,"internalType":"uint24"},{"name":"aggPriceTick","type":"int56","indexed":false,"internalType":"int56"},{"name":"avLiquidity","type":"uint136","indexed":false,"internalType":"uint136"},{"name":"period","type":"uint40","indexed":false,"internalType":"uint40"},{"name":"cardinalityToIncrease","type":"uint16","indexed":false,"internalType":"uint16"}],"anonymous":false},{"type":"error","name":"NoUniswapPool","inputs":[]},{"type":"error","name":"OracleAlreadyInitialized","inputs":[]},{"type":"error","name":"OracleNotInitialized","inputs":[]},{"type":"error","name":"UniswapFeeTierIndexOutOfBounds","inputs":[]}],"bytecode":{"object":"0x60a0604052348015600e575f5ffd5b506040516132c93803806132c9833981016040819052602b91603b565b6001600160a01b03166080526066565b5f60208284031215604a575f5ffd5b81516001600160a01b0381168114605f575f5ffd5b9392505050565b60805161323d61008c5f395f81816111de015281816119ab0152612608015261323d5ff3fe608060405234801561000f575f5ffd5b506004361061009f575f3560e01c8063ac41865a11610072578063c7dd5c0a11610058578063c7dd5c0a1461016c578063ca4bc9f114610193578063f3209e00146101b3575f5ffd5b8063ac41865a14610131578063bbbe310f14610157575f5ffd5b806304b7ca55146100a3578063485cc955146100ea57806379b00adf146100ff578063879ac8f814610112575b5f5ffd5b6100b66100b1366004612845565b6101eb565b6040805160079390930b835273ffffffffffffffffffffffffffffffffffffffff9091166020830152015b60405180910390f35b6100fd6100f8366004612845565b610afe565b005b6100fd61010d36600461287c565b61117f565b61011b61070881565b60405164ffffffffff90911681526020016100e1565b61014461013f366004612845565b61136b565b60405160079190910b81526020016100e1565b61015f6115c7565b6040516100e1919061289e565b61017f61017a366004612845565b611798565b60405162ffffff90911681526020016100e1565b6101a66101a1366004612845565b6117e4565b6040516100e191906128fd565b6101c66101c1366004612845565b611962565b60405173ffffffffffffffffffffffffffffffffffffffff90911681526020016100e1565b5f5f5f5f6101f986866119e9565b73ffffffffffffffffffffffffffffffffffffffff8083165f90815260208181526040808320938516835292815290829020825160e0810184528154600781900b825264ffffffffff68010000000000000000820481168386015260ff6d010000000000000000000000000083048116848801526e0100000000000000000000000000008304811660608501526f01000000000000000000000000000000830490911660808401527401000000000000000000000000000000000000000090910416151560a08201908152845180860190955260019092015462ffffff811685526301000000900460020b9284019290925260c0820192909252905192945090925090610332576040517f4eb0db8f00000000000000000000000000000000000000000000000000000000815260040160405180910390fd5b42816020015164ffffffffff1614610a98575f61035784848460c001515f0151611a2b565b805160c0840151516020830151604080850151606086015160808701519251959b509596507f5036c0ab047f93973e52c62487e173e8eabdd2e7f5f4431c85f3c44dc8c00232956103f1959192909162ffffff95909516855260069390930b602085015270ffffffffffffffffffffffffffffffffff91909116604084015264ffffffffff16606083015261ffff16608082015260a00190565b60405180910390a1806060015164ffffffffff16600103610490575f815f015173ffffffffffffffffffffffffffffffffffffffff16633850c7bd6040518163ffffffff1660e01b815260040160e060405180830381865afa158015610459573d5f5f3e3d5ffd5b505050506040513d601f19601f8201168201806040525081019061047d91906129b1565b5050505060029190910b60208501525050505b5f61049b838361237f565b90508373ffffffffffffffffffffffffffffffffffffffff168573ffffffffffffffffffffffffffffffffffffffff167f751600799d4232b751da1b16a16cbaa54e27b2069fe5659d8936eb3a3a8efad783865f015160405161050d929190911515825260070b602082015260400190565b60405180910390a364ffffffffff428116602085015260808401516105379162015f909116612a68565b42106108b5575f5f836060015164ffffffffff161180156105665750836060015160ff16846040015160ff1614155b156107c7575f6105798560600151612475565b90505f61058a8888845f0151611a2b565b825160208201516040808401516060850151608086015192519596507f5036c0ab047f93973e52c62487e173e8eabdd2e7f5f4431c85f3c44dc8c002329561061a9594939062ffffff95909516855260069390930b602085015270ffffffffffffffffffffffffffffffffff91909116604084015264ffffffffff16606083015261ffff16608082015260a00190565b60405180910390a1604081015170ffffffffffffffffffffffffffffffffff16156107bb575f610665866040015170ffffffffffffffffffffffffffffffffff168860c001516125bf565b90505f610689836040015170ffffffffffffffffffffffffffffffffff16856125bf565b9050818111156107af57608083015161ffff161561072d57825160808401516040517f32148f6700000000000000000000000000000000000000000000000000000000815261ffff909116600482015273ffffffffffffffffffffffffffffffffffffffff909116906332148f67906024015f604051808303815f87803b158015610712575f5ffd5b505af1158015610724573d5f5f3e3d5ffd5b505050506107b4565b61070864ffffffffff16836060015164ffffffffff16106107aa57606088015160ff166040808a019190915260c0890151518551825162ffffff9283168152911660208201527f050d6709031a30cdd3bca5de123ee39fa8c5bdefa6b19d8bfdf5491416addd5d910160405180910390a160c0880184905282519a505b6107b4565b600194505b50506107c0565b600192505b50506107cb565b5060015b8080156107df57505f836080015161ffff16115b1561086c57825160808401516040517f32148f6700000000000000000000000000000000000000000000000000000000815261ffff909116600482015273ffffffffffffffffffffffffffffffffffffffff909116906332148f67906024015f604051808303815f87803b158015610855575f5ffd5b505af1158015610867573d5f5f3e3d5ffd5b505050505b5f600154600461087c9190612a7b565b60ff16905080856060015160016108939190612a7b565b61089d9190612ac1565b60ff166060860152505064ffffffffff421660808401525b505073ffffffffffffffffffffffffffffffffffffffff8084165f908152602081815260408083209386168352928152908290208351815483860151948601516060870151608088015160a0890151151574010000000000000000000000000000000000000000027fffffffffffffffffffffff00ffffffffffffffffffffffffffffffffffffffff64ffffffffff9283166f0100000000000000000000000000000002167fffffffffffffffffffffff000000000000ffffffffffffffffffffffffffffff60ff9485166e010000000000000000000000000000027fffffffffffffffffffffffffffffffffff00ffffffffffffffffffffffffffff959096166d010000000000000000000000000002949094167fffffffffffffffffffffffffffffffffff0000ffffffffffffffffffffffffff93909a1668010000000000000000027fffffffffffffffffffffffffffffffffffffff0000000000000000000000000090961667ffffffffffffffff9097169690961794909417169690961717949094161792909217825560c0830151805160019093018054919092015162ffffff9081166301000000027fffffffffffffffffffffffffffffffffffffffffffffffffffff000000000000909216931692909217919091179055610aad565b610aaa83838360c001515f0151612602565b93505b8173ffffffffffffffffffffffffffffffffffffffff168773ffffffffffffffffffffffffffffffffffffffff1614610ae7578051610af2565b8051610af290612ae2565b94505050509250929050565b610b0882826119e9565b73ffffffffffffffffffffffffffffffffffffffff8083165f90815260208181526040808320938516835292815290829020825160e0810184528154600781900b825264ffffffffff68010000000000000000820481168386015260ff6d010000000000000000000000000083048116848801526e0100000000000000000000000000008304811660608501526f01000000000000000000000000000000830490911660808401527401000000000000000000000000000000000000000090910416151560a08201908152845180860190955260019092015462ffffff811685526301000000900460020b9284019290925260c082019290925290519294509092509015610c1557505050565b5f610c1e6115c7565b80516040805160a0810182525f80825260208201819052918101829052606081018290526080810182905292935090916040805160a0810182525f808252602082018190529181018290526060810182905260808101919091525f5b84811015610de557610ca98989888481518110610c9957610c99612b1e565b60200260200101515f0151611a2b565b92507f5036c0ab047f93973e52c62487e173e8eabdd2e7f5f4431c85f3c44dc8c00232868281518110610cde57610cde612b1e565b60200260200101515f01518460200151856040015186606001518760800151604051610d5495949392919062ffffff95909516855260069390930b602085015270ffffffffffffffffffffffffffffffffff91909116604084015264ffffffffff16606083015261ffff16608082015260a00190565b60405180910390a1604083015170ffffffffffffffffffffffffffffffffff1615610ddd575f610dc1846060015164ffffffffff16856040015170ffffffffffffffffffffffffffffffffff1602888481518110610db457610db4612b1e565b60200260200101516125bf565b905084811115610ddb5760ff821660408901529350829150835b505b600101610c7a565b50825f03610e1f576040517f94113d8100000000000000000000000000000000000000000000000000000000815260040160405180910390fd5b8360ff16866040015160010160ff1681610e3b57610e3b612a94565b0660ff9081166060880152600160a088015260408701518651879291909116908110610e6957610e69612b1e565b602090810291909101015160c087015264ffffffffff421660808088019190915281015161ffff1615610f1e57805160808201516040517f32148f6700000000000000000000000000000000000000000000000000000000815261ffff909116600482015273ffffffffffffffffffffffffffffffffffffffff909116906332148f67906024015f604051808303815f87803b158015610f07575f5ffd5b505af1158015610f19573d5f5f3e3d5ffd5b505050505b855f5f8a73ffffffffffffffffffffffffffffffffffffffff1673ffffffffffffffffffffffffffffffffffffffff1681526020019081526020015f205f8973ffffffffffffffffffffffffffffffffffffffff1673ffffffffffffffffffffffffffffffffffffffff1681526020019081526020015f205f820151815f015f6101000a81548167ffffffffffffffff021916908360070b67ffffffffffffffff1602179055506020820151815f0160086101000a81548164ffffffffff021916908364ffffffffff1602179055506040820151815f01600d6101000a81548160ff021916908360ff1602179055506060820151815f01600e6101000a81548160ff021916908360ff1602179055506080820151815f01600f6101000a81548164ffffffffff021916908364ffffffffff16021790555060a0820151815f0160146101000a81548160ff02191690831515021790555060c0820151816001015f820151815f015f6101000a81548162ffffff021916908362ffffff1602179055506020820151815f0160036101000a81548162ffffff021916908360020b62ffffff16021790555050509050508673ffffffffffffffffffffffffffffffffffffffff168873ffffffffffffffffffffffffffffffffffffffff167fc358c6596f9b51f4378cf53b7b2a45ddaf005b76af5c24f1e291e4cf1382f0578860c001515f01518460400151856060015160405161116d9392919062ffffff93909316835270ffffffffffffffffffffffffffffffffff91909116602083015264ffffffffff16604082015260600190565b60405180910390a35050505050505050565b5f8162ffffff161161118f575f5ffd5b5f6111986115c7565b8051909150600981106111a9575f5ffd5b6040517f22afcccb00000000000000000000000000000000000000000000000000000000815262ffffff841660048201525f907f000000000000000000000000000000000000000000000000000000000000000073ffffffffffffffffffffffffffffffffffffffff16906322afcccb90602401602060405180830381865afa158015611238573d5f5f3e3d5ffd5b505050506040513d601f19601f8201168201806040525081019061125c9190612b4b565b90505f8160020b1361126c575f5ffd5b5f5b828110156112af5783818151811061128857611288612b1e565b60200260200101515f015162ffffff168562ffffff16036112a7575f5ffd5b60010161126e565b506112bb600483612b64565b6112c6906030612b77565b6112d1906008612a68565b60018054601884901b65ffffff0000001662ffffff88161790921b9091177effffffffffffffffffffffffffffffffffffffffffffffffffffffffffff008116825560ff1690611322908290612a68565b6001805491909117905560405162ffffff861681527f37838f2f499547532188da41cb82201ea74862853547fdaf0da38a33bbfe48219060200160405180910390a15050505050565b5f5f5f61137885856119e9565b73ffffffffffffffffffffffffffffffffffffffff8083165f90815260208181526040808320938516835292815290829020825160e0810184528154600781900b825264ffffffffff68010000000000000000820481168386015260ff6d010000000000000000000000000083048116848801526e0100000000000000000000000000008304811660608501526f01000000000000000000000000000000830490911660808401527401000000000000000000000000000000000000000090910416151560a08201908152845180860190955260019092015462ffffff811685526301000000900460020b9284019290925260c08201929092529051929450909250906114b1576040517f4eb0db8f00000000000000000000000000000000000000000000000000000000815260040160405180910390fd5b42816020015164ffffffffff161461157c575f6114d684848460c001515f0151611a2b565b9050806060015164ffffffffff1660010361156f575f815f015173ffffffffffffffffffffffffffffffffffffffff16633850c7bd6040518163ffffffff1660e01b815260040160e060405180830381865afa158015611538573d5f5f3e3d5ffd5b505050506040513d601f19601f8201168201806040525081019061155c91906129b1565b5050505060029190910b60208501525050505b611579828261237f565b50505b8173ffffffffffffffffffffffffffffffffffffffff168673ffffffffffffffffffffffffffffffffffffffff16146115b65780516115bb565b80515f035b93505050505b92915050565b60015460609060ff81166004810167ffffffffffffffff8111156115ed576115ed612b8e565b60405190808252806020026020018201604052801561163157816020015b604080518082019091525f808252602082015281526020019060019003908161160b5790505b5092506040518060400160405280606462ffffff168152602001600160020b815250835f8151811061166557611665612b1e565b602002602001018190525060405180604001604052806101f462ffffff168152602001600a60020b815250836001815181106116a3576116a3612b1e565b60200260200101819052506040518060400160405280610bb862ffffff168152602001603c60020b815250836002815181106116e1576116e1612b1e565b6020026020010181905250604051806040016040528061271062ffffff16815260200160c860020b8152508360038151811061171f5761171f612b1e565b602090810291909101015280156117935760089190911c905f5b818110156117915760405180604001604052808462ffffff168152602001601885901c60020b81525084826004018151811061177757611777612b1e565b602090810291909101015260309290921c91600101611739565b505b505090565b5f6117a383836119e9565b73ffffffffffffffffffffffffffffffffffffffff9182165f9081526020818152604080832093909416825291909152206001015462ffffff169392505050565b61182f6040805160e0810182525f8082526020808301829052828401829052606083018290526080830182905260a0830182905283518085019094528184528301529060c082015290565b8173ffffffffffffffffffffffffffffffffffffffff168373ffffffffffffffffffffffffffffffffffffffff1610611866575f5ffd5b5073ffffffffffffffffffffffffffffffffffffffff9182165f90815260208181526040808320939094168252918252829020825160e0810184528154600781900b825264ffffffffff68010000000000000000820481168386015260ff6d010000000000000000000000000083048116848801526e0100000000000000000000000000008304811660608501526f01000000000000000000000000000000830490911660808401527401000000000000000000000000000000000000000090910416151560a0820152835180850190945260019091015462ffffff811684526301000000900460020b9183019190915260c081019190915290565b5f61196d83836119e9565b73ffffffffffffffffffffffffffffffffffffffff8083165f908152602081815260408083209385168352929052206001015491945092506119e2907f0000000000000000000000000000000000000000000000000000000000000000906119dd908690869062ffffff1661263a565b6126cb565b9392505050565b5f5f8273ffffffffffffffffffffffffffffffffffffffff168473ffffffffffffffffffffffffffffffffffffffff161115611a23579192915b509192909150565b6040805160a0810182525f80825260208201819052918101829052606081018290526080810191909152611a60848484612602565b73ffffffffffffffffffffffffffffffffffffffff168082523b156119e2576040805160028082526060820183525f92602083019080368337019050509050610708815f81518110611ab457611ab4612b1e565b602002602001019063ffffffff16908163ffffffff16815250505f81600181518110611ae257611ae2612b1e565b602002602001019063ffffffff16908163ffffffff1681525050606080835f015173ffffffffffffffffffffffffffffffffffffffff1663883bdbfd846040518263ffffffff1660e01b8152600401611b3b9190612bbb565b5f60405180830381865afa925050508015611b9557506040513d5f823e601f3d9081017fffffffffffffffffffffffffffffffffffffffffffffffffffffffffffffffe0168201604052611b929190810190612cf1565b60015b61226557611ba1612dc2565b806308c379a00361225b5750611bb5612ddb565b80611bc0575061225d565b60408051808201909152600381527f4f4c4400000000000000000000000000000000000000000000000000000000006020918201528151908201207fd30c0d219016dd7e5cf2b2c30c4d7c091820fc329f335b57cab26b9ff3384a9e14611c2a57505050506119e2565b5f5f5f875f015173ffffffffffffffffffffffffffffffffffffffff16633850c7bd6040518163ffffffff1660e01b815260040160e060405180830381865afa158015611c79573d5f5f3e3d5ffd5b505050506040513d601f19601f82011682018060405250810190611c9d91906129b1565b50508c5160408051600180825281830190925294995092975090955073ffffffffffffffffffffffffffffffffffffffff16935063883bdbfd925060208083019080368337019050506040518263ffffffff1660e01b8152600401611d029190612bbb565b5f60405180830381865afa158015611d1c573d5f5f3e3d5ffd5b505050506040513d5f823e601f3d9081017fffffffffffffffffffffffffffffffffffffffffffffffffffffffffffffffe0168201604052611d619190810190612cf1565b80965081975050505f865f81518110611d7c57611d7c612b1e565b602002602001015190505f865f81518110611d9957611d99612b1e565b60200260200101519050600267ffffffffffffffff811115611dbd57611dbd612b8e565b604051908082528060200260200182016040528015611de6578160200160208202803683370190505b50604080516002808252606082018352929a5091906020830190803683370190505096508188600181518110611e1e57611e1e612b1e565b602002602001019060060b908160060b815250508087600181518110611e4657611e46612b1e565b602002602001019073ffffffffffffffffffffffffffffffffffffffff16908173ffffffffffffffffffffffffffffffffffffffff16815250505f5f60018661ffff161115611f46578b5173ffffffffffffffffffffffffffffffffffffffff1663252c09d787611eb88a6001612e9b565b611ec29190612eb5565b6040517fffffffff0000000000000000000000000000000000000000000000000000000060e084901b16815261ffff9091166004820152602401608060405180830381865afa158015611f17573d5f5f3e3d5ffd5b505050506040513d601f19601f82011682018060405250810190611f3b9190612ed8565b919650945090925090505b80611ff0578b516040517f252c09d70000000000000000000000000000000000000000000000000000000081525f600482015273ffffffffffffffffffffffffffffffffffffffff9091169063252c09d790602401608060405180830381865afa158015611fb6573d5f5f3e3d5ffd5b505050506040513d601f19601f82011682018060405250810190611fda9190612ed8565b5090955093509150611fed876001612e9b565b95505b5061200163ffffffff821642612b64565b8a5f8151811061201357612013612b1e565b602002602001019063ffffffff16908163ffffffff1681525050895f8151811061203f5761203f612b1e565b602002602001015163ffffffff165f0361213a578a5f015173ffffffffffffffffffffffffffffffffffffffff16631a6865026040518163ffffffff1660e01b8152600401602060405180830381865afa15801561209f573d5f5f3e3d5ffd5b505050506040513d601f19601f820116820180604052508101906120c39190612f35565b6fffffffffffffffffffffffffffffffff1660408c018190525f036120ea57600160408c01525b600160608c01819052600c9061210190603c612f64565b61210b9190612f81565b612116906001612e9b565b612121906001612e9b565b61ffff1660808c0152506119e298505050505050505050565b5f8a5f8151811061214d5761214d612b1e565b602002602001015163ffffffff16600161070864ffffffffff168861ffff166121769190612b77565b6121809190612b64565b61218a9190612faa565b612195906001612a68565b90508461ffff168111156121da57600c6121b16001603c612f64565b6121bb9190612f81565b6121c6906001612e9b565b6121d09086612e9b565b61ffff1660808d01525b838a5f815181106121ed576121ed612b1e565b602002602001019060060b908160060b8152505082895f8151811061221457612214612b1e565b602002602001019073ffffffffffffffffffffffffffffffffffffffff16908173ffffffffffffffffffffffffffffffffffffffff1681525050505050505050505061226b565b505b3d5f5f3e3d5ffd5b90925090505b805f8151811061227d5761227d612b1e565b60200260200101518160018151811061229857612298612b1e565b60200260200101516122aa9190612fbd565b6080845f815181106122be576122be612b1e565b602002602001015163ffffffff1673ffffffffffffffffffffffffffffffffffffffff16901b6122ee9190612fe9565b70ffffffffffffffffffffffffffffffffff166040850152815182905f9061231857612318612b1e565b60200260200101518260018151811061233357612333612b1e565b60200260200101516123459190613030565b60060b6020850152825183905f9061235f5761235f612b1e565b602090810291909101015163ffffffff1660608501525050509392505050565b5f5f602a836020015160060b901b90506001836060015164ffffffffff1611156123bc5760608301516123b99064ffffffffff1682613075565b90505b836020015164ffffffffff165f036123da57600781900b845261246e565b60208401515f9065040000000000906123fa9064ffffffffff1642612b64565b61240491906130dc565b855190915061241790829060070b613127565b82131561243e5780855f0181815161242f9190613146565b60070b9052506001925061246c565b845160070b61244d8284613127565b12156124645780855f0181815161242f919061318c565b600782900b85525b505b5092915050565b604080518082019091525f80825260208201528160ff165f036124ac57505060408051808201909152606481526001602082015290565b8160ff166001036124d2575050604080518082019091526101f48152600a602082015290565b8160ff166002036124f857505060408051808201909152610bb88152603c602082015290565b8160ff1660030361251e57505060408051808201909152612710815260c8602082015290565b60015460ff8116612530816004612a68565b8460ff161061256b576040517fd8463cb800000000000000000000000000000000000000000000000000000000815260040160405180910390fd5b6125766004856131d2565b6125819060306131eb565b61258c906008612a7b565b6040805180820190915260ff919091169290921c62ffffff8116835260181c60020b60208301525092915050565b919050565b5f816020015162ffffff1660016048845f015162ffffff16866125e29190612b77565b6125ed92911b612b64565b6125f79190612faa565b6119e2906001612a68565b5f6126327f00000000000000000000000000000000000000000000000000000000000000006119dd86868661263a565b949350505050565b604080516060810182525f80825260208201819052918101919091528273ffffffffffffffffffffffffffffffffffffffff168473ffffffffffffffffffffffffffffffffffffffff16111561268e579192915b506040805160608101825273ffffffffffffffffffffffffffffffffffffffff948516815292909316602083015262ffffff169181019190915290565b5f816020015173ffffffffffffffffffffffffffffffffffffffff16825f015173ffffffffffffffffffffffffffffffffffffffff161061270a575f5ffd5b8151602080840151604080860151815173ffffffffffffffffffffffffffffffffffffffff95861681860152949092168482015262ffffff90911660608085019190915281518085038201815260808501909252815191909201207fff0000000000000000000000000000000000000000000000000000000000000060a08401529085901b7fffffffffffffffffffffffffffffffffffffffff0000000000000000000000001660a183015260b58201527fe34f199b19b2b4f47f68442619d555527d244f78a3297ea89325f843f87b8b5460d582015260f501604080517fffffffffffffffffffffffffffffffffffffffffffffffffffffffffffffffe081840301815291905280516020909101209392505050565b73ffffffffffffffffffffffffffffffffffffffff81168114612842575f5ffd5b50565b5f5f60408385031215612856575f5ffd5b823561286181612821565b9150602083013561287181612821565b809150509250929050565b5f6020828403121561288c575f5ffd5b813562ffffff811681146119e2575f5ffd5b602080825282518282018190525f918401906040840190835b818110156128f2576128dc838551805162ffffff16825260209081015160020b910152565b60209390930192604092909201916001016128b7565b509095945050505050565b5f61010082019050825160070b825264ffffffffff602084015116602083015260ff604084015116604083015260ff606084015116606083015264ffffffffff608084015116608083015260a083015161295b60a084018215159052565b5060c083015161246e60c0840182805162ffffff16825260209081015160020b910152565b8051600281900b81146125ba575f5ffd5b805161ffff811681146125ba575f5ffd5b805180151581146125ba575f5ffd5b5f5f5f5f5f5f5f60e0888a0312156129c7575f5ffd5b87516129d281612821565b96506129e060208901612980565b95506129ee60408901612991565b94506129fc60608901612991565b9350612a0a60808901612991565b925060a088015160ff81168114612a1f575f5ffd5b9150612a2d60c089016129a2565b905092959891949750929550565b7f4e487b71000000000000000000000000000000000000000000000000000000005f52601160045260245ffd5b808201808211156115c1576115c1612a3b565b60ff81811683821601908111156115c1576115c1612a3b565b7f4e487b71000000000000000000000000000000000000000000000000000000005f52601260045260245ffd5b5f60ff831680612ad357612ad3612a94565b8060ff84160691505092915050565b5f8160070b7fffffffffffffffffffffffffffffffffffffffffffffffff80000000000000008103612b1657612b16612a3b565b5f0392915050565b7f4e487b71000000000000000000000000000000000000000000000000000000005f52603260045260245ffd5b5f60208284031215612b5b575f5ffd5b6119e282612980565b818103818111156115c1576115c1612a3b565b80820281158282048414176115c1576115c1612a3b565b7f4e487b71000000000000000000000000000000000000000000000000000000005f52604160045260245ffd5b602080825282518282018190525f918401906040840190835b818110156128f257835163ffffffff16835260209384019390920191600101612bd4565b7fffffffffffffffffffffffffffffffffffffffffffffffffffffffffffffffe0601f830116810181811067ffffffffffffffff82111715612c3c57612c3c612b8e565b6040525050565b5f67ffffffffffffffff821115612c5c57612c5c612b8e565b5060051b60200190565b8051600681900b81146125ba575f5ffd5b5f82601f830112612c86575f5ffd5b8151612c9181612c43565b604051612c9e8282612bf8565b80915082815260208101915060208360051b860101925085831115612cc1575f5ffd5b602085015b83811015612ce7578051612cd981612821565b835260209283019201612cc6565b5095945050505050565b5f5f60408385031215612d02575f5ffd5b825167ffffffffffffffff811115612d18575f5ffd5b8301601f81018513612d28575f5ffd5b8051612d3381612c43565b604051612d408282612bf8565b80915082815260208101915060208360051b850101925087831115612d63575f5ffd5b6020840193505b82841015612d8c57612d7b84612c66565b825260209384019390910190612d6a565b80955050505050602083015167ffffffffffffffff811115612dac575f5ffd5b612db885828601612c77565b9150509250929050565b5f60033d1115612dd85760045f5f3e505f5160e01c5b90565b5f60443d1015612de85790565b6040517ffffffffffffffffffffffffffffffffffffffffffffffffffffffffffffffffc3d016004823e80513d602482011167ffffffffffffffff82111715612e3057505090565b808201805167ffffffffffffffff811115612e4c575050505090565b7ffffffffffffffffffffffffffffffffffffffffffffffffffffffffffffffffc3d8501016020828401011115612e84575050505090565b612e9360208285010185612bf8565b509392505050565b61ffff81811683821601908111156115c1576115c1612a3b565b5f61ffff831680612ec857612ec8612a94565b8061ffff84160691505092915050565b5f5f5f5f60808587031215612eeb575f5ffd5b845163ffffffff81168114612efe575f5ffd5b9350612f0c60208601612c66565b92506040850151612f1c81612821565b9150612f2a606086016129a2565b905092959194509250565b5f60208284031215612f45575f5ffd5b81516fffffffffffffffffffffffffffffffff811681146119e2575f5ffd5b64ffffffffff82811682821603908111156115c1576115c1612a3b565b5f64ffffffffff831680612f9757612f97612a94565b8064ffffffffff84160491505092915050565b5f82612fb857612fb8612a94565b500490565b73ffffffffffffffffffffffffffffffffffffffff82811682821603908111156115c1576115c1612a3b565b5f73ffffffffffffffffffffffffffffffffffffffff83168061300e5761300e612a94565b8073ffffffffffffffffffffffffffffffffffffffff84160491505092915050565b600682810b9082900b037fffffffffffffffffffffffffffffffffffffffffffffffffff800000000000008112667fffffffffffff821317156115c1576115c1612a3b565b5f8261308357613083612a94565b7fffffffffffffffffffffffffffffffffffffffffffffffffffffffffffffffff83147f8000000000000000000000000000000000000000000000000000000000000000831416156130d7576130d7612a3b565b500590565b8082025f82127f80000000000000000000000000000000000000000000000000000000000000008414161561311357613113612a3b565b81810583148215176115c1576115c1612a3b565b8082018281125f83128015821682158216171561246c5761246c612a3b565b600781810b9083900b01677fffffffffffffff81137fffffffffffffffffffffffffffffffffffffffffffffffff8000000000000000821217156115c1576115c1612a3b565b600782810b9082900b037fffffffffffffffffffffffffffffffffffffffffffffffff80000000000000008112677fffffffffffffff821317156115c1576115c1612a3b565b60ff82811682821603908111156115c1576115c1612a3b565b60ff818116838216029081169081811461246e5761246e612a3b56fea26469706673582212204a665097a267af5762f5a027d78fcf2b2319e68f18dfd9ac74ed147ed2796b3664736f6c634300081c0033","linkReferences":{}},"methodIdentifiers":{"TWAP_DURATION()":"879ac8f8","getPrice(address,address)":"ac41865a","getUniswapFeeTiers()":"bbbe310f","initialize(address,address)":"485cc955","newUniswapFeeTier(uint24)":"79b00adf","state(address,address)":"ca4bc9f1","uniswapFeeTierAddressOf(address,address)":"f3209e00","uniswapFeeTierOf(address,address)":"c7dd5c0a","updateOracleState(address,address)":"04b7ca55"},"id":121}