{"abi":[{"type":"constructor","inputs":[{"name":"uniswapV3Factory","type":"address","internalType":"address"}],"stateMutability":"nonpayable"},{"type":"function","name":"TWAP_DURATION","inputs":[],"outputs":[{"name":"","type":"uint40","internalType":"uint40"}],"stateMutability":"view"},{"type":"function","name":"getPrice","inputs":[{"name":"collateralToken","type":"address","internalType":"address"},{"name":"debtToken","type":"address","internalType":"address"}],"outputs":[{"name":"","type":"int64","internalType":"int64"}],"stateMutability":"view"},{"type":"function","name":"getUniswapFeeTiers","inputs":[],"outputs":[{"name":"uniswapFeeTiers","type":"tuple[]","internalType":"struct SirStructs.UniswapFeeTier[]","components":[{"name":"fee","type":"uint24","internalType":"uint24"},{"name":"tickSpacing","type":"int24","internalType":"int24"}]}],"stateMutability":"view"},{"type":"function","name":"initialize","inputs":[{"name":"tokenA","type":"address","internalType":"address"},{"name":"tokenB","type":"address","internalType":"address"}],"outputs":[],"stateMutability":"nonpayable"},{"type":"function","name":"newUniswapFeeTier","inputs":[{"name":"fee","type":"uint24","internalType":"uint24"}],"outputs":[],"stateMutability":"nonpayable"},{"type":"function","name":"state","inputs":[{"name":"token0","type":"address","internalType":"address"},{"name":"token1","type":"address","internalType":"address"}],"outputs":[{"name":"","type":"tuple","internalType":"struct SirStructs.OracleState","components":[{"name":"tickPriceX42","type":"int64","internalType":"int64"},{"name":"timeStampPrice","type":"uint40","internalType":"uint40"},{"name":"indexFeeTier","type":"uint8","internalType":"uint8"},{"name":"indexFeeTierProbeNext","type":"uint8","internalType":"uint8"},{"name":"timeStampFeeTier","type":"uint40","internalType":"uint40"},{"name":"initialized","type":"bool","internalType":"bool"},{"name":"uniswapFeeTier","type":"tuple","internalType":"struct SirStructs.UniswapFeeTier","components":[{"name":"fee","type":"uint24","internalType":"uint24"},{"name":"tickSpacing","type":"int24","internalType":"int24"}]}]}],"stateMutability":"view"},{"type":"function","name":"uniswapFeeTierOf","inputs":[{"name":"tokenA","type":"address","internalType":"address"},{"name":"tokenB","type":"address","internalType":"address"}],"outputs":[{"name":"","type":"uint24","internalType":"uint24"}],"stateMutability":"view"},{"type":"function","name":"updateOracleState","inputs":[{"name":"collateralToken","type":"address","internalType":"address"},{"name":"debtToken","type":"address","internalType":"address"}],"outputs":[{"name":"tickPriceX42","type":"int64","internalType":"int64"},{"name":"uniswapPoolAddress","type":"address","internalType":"address"}],"stateMutability":"nonpayable"},{"type":"event","name":"OracleFeeTierChanged","inputs":[{"name":"feeTierPrevious","type":"uint24","indexed":false,"internalType":"uint24"},{"name":"feeTierSelected","type":"uint24","indexed":false,"internalType":"uint24"}],"anonymous":false},{"type":"event","name":"OracleInitialized","inputs":[{"name":"token0","type":"address","indexed":true,"internalType":"address"},{"name":"token1","type":"address","indexed":true,"internalType":"address"},{"name":"feeTierSelected","type":"uint24","indexed":false,"internalType":"uint24"},{"name":"avLiquidity","type":"uint136","indexed":false,"internalType":"uint136"},{"name":"period","type":"uint40","indexed":false,"internalType":"uint40"}],"anonymous":false},{"type":"event","name":"PriceUpdated","inputs":[{"name":"token0","type":"address","indexed":true,"internalType":"address"},{"name":"token1","type":"address","indexed":true,"internalType":"address"},{"name":"priceTruncated","type":"bool","indexed":false,"internalType":"bool"},{"name":"priceTickX42","type":"int64","indexed":false,"internalType":"int64"}],"anonymous":false},{"type":"event","name":"UniswapFeeTierAdded","inputs":[{"name":"fee","type":"uint24","indexed":false,"internalType":"uint24"}],"anonymous":false},{"type":"event","name":"UniswapOracleProbed","inputs":[{"name":"fee","type":"uint24","indexed":false,"internalType":"uint24"},{"name":"aggPriceTick","type":"int56","indexed":false,"internalType":"int56"},{"name":"avLiquidity","type":"uint136","indexed":false,"internalType":"uint136"},{"name":"period","type":"uint40","indexed":false,"internalType":"uint40"},{"name":"cardinalityToIncrease","type":"uint16","indexed":false,"internalType":"uint16"}],"anonymous":false},{"type":"error","name":"NoUniswapPool","inputs":[]},{"type":"error","name":"OracleAlreadyInitialized","inputs":[]},{"type":"error","name":"OracleNotInitialized","inputs":[]},{"type":"error","name":"UniswapFeeTierIndexOutOfBounds","inputs":[]}],"bytecode":{"object":"0x60a0604052348015600e575f5ffd5b506040516131ef3803806131ef833981016040819052602b91603b565b6001600160a01b03166080526066565b5f60208284031215604a575f5ffd5b81516001600160a01b0381168114605f575f5ffd5b9392505050565b60805161316a6100855f395f818161118c0152612530015261316a5ff3fe608060405234801561000f575f5ffd5b5060043610610085575f3560e01c8063ac41865a11610058578063ac41865a14610117578063bbbe310f1461013d578063c7dd5c0a14610152578063ca4bc9f114610179575f5ffd5b806304b7ca5514610089578063485cc955146100d057806379b00adf146100e5578063879ac8f8146100f8575b5f5ffd5b61009c610097366004612772565b610199565b6040805160079390930b835273ffffffffffffffffffffffffffffffffffffffff9091166020830152015b60405180910390f35b6100e36100de366004612772565b610aac565b005b6100e36100f33660046127a9565b61112d565b61010161070881565b60405164ffffffffff90911681526020016100c7565b61012a610125366004612772565b611319565b60405160079190910b81526020016100c7565b610145611575565b6040516100c791906127cb565b610165610160366004612772565b611746565b60405162ffffff90911681526020016100c7565b61018c610187366004612772565b611792565b6040516100c7919061282a565b5f5f5f5f6101a78686611910565b73ffffffffffffffffffffffffffffffffffffffff8083165f90815260208181526040808320938516835292815290829020825160e0810184528154600781900b825264ffffffffff68010000000000000000820481168386015260ff6d010000000000000000000000000083048116848801526e0100000000000000000000000000008304811660608501526f01000000000000000000000000000000830490911660808401527401000000000000000000000000000000000000000090910416151560a08201908152845180860190955260019092015462ffffff811685526301000000900460020b9284019290925260c08201929092529051929450909250906102e0576040517f4eb0db8f00000000000000000000000000000000000000000000000000000000815260040160405180910390fd5b42816020015164ffffffffff1614610a46575f61030584848460c001515f0151611952565b805160c0840151516020830151604080850151606086015160808701519251959b509596507f5036c0ab047f93973e52c62487e173e8eabdd2e7f5f4431c85f3c44dc8c002329561039f959192909162ffffff95909516855260069390930b602085015270ffffffffffffffffffffffffffffffffff91909116604084015264ffffffffff16606083015261ffff16608082015260a00190565b60405180910390a1806060015164ffffffffff1660010361043e575f815f015173ffffffffffffffffffffffffffffffffffffffff16633850c7bd6040518163ffffffff1660e01b815260040160e060405180830381865afa158015610407573d5f5f3e3d5ffd5b505050506040513d601f19601f8201168201806040525081019061042b91906128de565b5050505060029190910b60208501525050505b5f61044983836122a7565b90508373ffffffffffffffffffffffffffffffffffffffff168573ffffffffffffffffffffffffffffffffffffffff167f751600799d4232b751da1b16a16cbaa54e27b2069fe5659d8936eb3a3a8efad783865f01516040516104bb929190911515825260070b602082015260400190565b60405180910390a364ffffffffff428116602085015260808401516104e59162015f909116612995565b4210610863575f5f836060015164ffffffffff161180156105145750836060015160ff16846040015160ff1614155b15610775575f610527856060015161239d565b90505f6105388888845f0151611952565b825160208201516040808401516060850151608086015192519596507f5036c0ab047f93973e52c62487e173e8eabdd2e7f5f4431c85f3c44dc8c00232956105c89594939062ffffff95909516855260069390930b602085015270ffffffffffffffffffffffffffffffffff91909116604084015264ffffffffff16606083015261ffff16608082015260a00190565b60405180910390a1604081015170ffffffffffffffffffffffffffffffffff1615610769575f610613866040015170ffffffffffffffffffffffffffffffffff168860c001516124e7565b90505f610637836040015170ffffffffffffffffffffffffffffffffff16856124e7565b90508181111561075d57608083015161ffff16156106db57825160808401516040517f32148f6700000000000000000000000000000000000000000000000000000000815261ffff909116600482015273ffffffffffffffffffffffffffffffffffffffff909116906332148f67906024015f604051808303815f87803b1580156106c0575f5ffd5b505af11580156106d2573d5f5f3e3d5ffd5b50505050610762565b61070864ffffffffff16836060015164ffffffffff161061075857606088015160ff166040808a019190915260c0890151518551825162ffffff9283168152911660208201527f050d6709031a30cdd3bca5de123ee39fa8c5bdefa6b19d8bfdf5491416addd5d910160405180910390a160c0880184905282519a505b610762565b600194505b505061076e565b600192505b5050610779565b5060015b80801561078d57505f836080015161ffff16115b1561081a57825160808401516040517f32148f6700000000000000000000000000000000000000000000000000000000815261ffff909116600482015273ffffffffffffffffffffffffffffffffffffffff909116906332148f67906024015f604051808303815f87803b158015610803575f5ffd5b505af1158015610815573d5f5f3e3d5ffd5b505050505b5f600154600461082a91906129a8565b60ff169050808560600151600161084191906129a8565b61084b91906129ee565b60ff166060860152505064ffffffffff421660808401525b505073ffffffffffffffffffffffffffffffffffffffff8084165f908152602081815260408083209386168352928152908290208351815483860151948601516060870151608088015160a0890151151574010000000000000000000000000000000000000000027fffffffffffffffffffffff00ffffffffffffffffffffffffffffffffffffffff64ffffffffff9283166f0100000000000000000000000000000002167fffffffffffffffffffffff000000000000ffffffffffffffffffffffffffffff60ff9485166e010000000000000000000000000000027fffffffffffffffffffffffffffffffffff00ffffffffffffffffffffffffffff959096166d010000000000000000000000000002949094167fffffffffffffffffffffffffffffffffff0000ffffffffffffffffffffffffff93909a1668010000000000000000027fffffffffffffffffffffffffffffffffffffff0000000000000000000000000090961667ffffffffffffffff9097169690961794909417169690961717949094161792909217825560c0830151805160019093018054919092015162ffffff9081166301000000027fffffffffffffffffffffffffffffffffffffffffffffffffffff000000000000909216931692909217919091179055610a5b565b610a5883838360c001515f015161252a565b93505b8173ffffffffffffffffffffffffffffffffffffffff168773ffffffffffffffffffffffffffffffffffffffff1614610a95578051610aa0565b8051610aa090612a0f565b94505050509250929050565b610ab68282611910565b73ffffffffffffffffffffffffffffffffffffffff8083165f90815260208181526040808320938516835292815290829020825160e0810184528154600781900b825264ffffffffff68010000000000000000820481168386015260ff6d010000000000000000000000000083048116848801526e0100000000000000000000000000008304811660608501526f01000000000000000000000000000000830490911660808401527401000000000000000000000000000000000000000090910416151560a08201908152845180860190955260019092015462ffffff811685526301000000900460020b9284019290925260c082019290925290519294509092509015610bc357505050565b5f610bcc611575565b80516040805160a0810182525f80825260208201819052918101829052606081018290526080810182905292935090916040805160a0810182525f808252602082018190529181018290526060810182905260808101919091525f5b84811015610d9357610c578989888481518110610c4757610c47612a4b565b60200260200101515f0151611952565b92507f5036c0ab047f93973e52c62487e173e8eabdd2e7f5f4431c85f3c44dc8c00232868281518110610c8c57610c8c612a4b565b60200260200101515f01518460200151856040015186606001518760800151604051610d0295949392919062ffffff95909516855260069390930b602085015270ffffffffffffffffffffffffffffffffff91909116604084015264ffffffffff16606083015261ffff16608082015260a00190565b60405180910390a1604083015170ffffffffffffffffffffffffffffffffff1615610d8b575f610d6f846060015164ffffffffff16856040015170ffffffffffffffffffffffffffffffffff1602888481518110610d6257610d62612a4b565b60200260200101516124e7565b905084811115610d895760ff821660408901529350829150835b505b600101610c28565b50825f03610dcd576040517f94113d8100000000000000000000000000000000000000000000000000000000815260040160405180910390fd5b8360ff16866040015160010160ff1681610de957610de96129c1565b0660ff9081166060880152600160a088015260408701518651879291909116908110610e1757610e17612a4b565b602090810291909101015160c087015264ffffffffff421660808088019190915281015161ffff1615610ecc57805160808201516040517f32148f6700000000000000000000000000000000000000000000000000000000815261ffff909116600482015273ffffffffffffffffffffffffffffffffffffffff909116906332148f67906024015f604051808303815f87803b158015610eb5575f5ffd5b505af1158015610ec7573d5f5f3e3d5ffd5b505050505b855f5f8a73ffffffffffffffffffffffffffffffffffffffff1673ffffffffffffffffffffffffffffffffffffffff1681526020019081526020015f205f8973ffffffffffffffffffffffffffffffffffffffff1673ffffffffffffffffffffffffffffffffffffffff1681526020019081526020015f205f820151815f015f6101000a81548167ffffffffffffffff021916908360070b67ffffffffffffffff1602179055506020820151815f0160086101000a81548164ffffffffff021916908364ffffffffff1602179055506040820151815f01600d6101000a81548160ff021916908360ff1602179055506060820151815f01600e6101000a81548160ff021916908360ff1602179055506080820151815f01600f6101000a81548164ffffffffff021916908364ffffffffff16021790555060a0820151815f0160146101000a81548160ff02191690831515021790555060c0820151816001015f820151815f015f6101000a81548162ffffff021916908362ffffff1602179055506020820151815f0160036101000a81548162ffffff021916908360020b62ffffff16021790555050509050508673ffffffffffffffffffffffffffffffffffffffff168873ffffffffffffffffffffffffffffffffffffffff167fc358c6596f9b51f4378cf53b7b2a45ddaf005b76af5c24f1e291e4cf1382f0578860c001515f01518460400151856060015160405161111b9392919062ffffff93909316835270ffffffffffffffffffffffffffffffffff91909116602083015264ffffffffff16604082015260600190565b60405180910390a35050505050505050565b5f8162ffffff161161113d575f5ffd5b5f611146611575565b805190915060098110611157575f5ffd5b6040517f22afcccb00000000000000000000000000000000000000000000000000000000815262ffffff841660048201525f907f000000000000000000000000000000000000000000000000000000000000000073ffffffffffffffffffffffffffffffffffffffff16906322afcccb90602401602060405180830381865afa1580156111e6573d5f5f3e3d5ffd5b505050506040513d601f19601f8201168201806040525081019061120a9190612a78565b90505f8160020b1361121a575f5ffd5b5f5b8281101561125d5783818151811061123657611236612a4b565b60200260200101515f015162ffffff168562ffffff1603611255575f5ffd5b60010161121c565b50611269600483612a91565b611274906030612aa4565b61127f906008612995565b60018054601884901b65ffffff0000001662ffffff88161790921b9091177effffffffffffffffffffffffffffffffffffffffffffffffffffffffffff008116825560ff16906112d0908290612995565b6001805491909117905560405162ffffff861681527f37838f2f499547532188da41cb82201ea74862853547fdaf0da38a33bbfe48219060200160405180910390a15050505050565b5f5f5f6113268585611910565b73ffffffffffffffffffffffffffffffffffffffff8083165f90815260208181526040808320938516835292815290829020825160e0810184528154600781900b825264ffffffffff68010000000000000000820481168386015260ff6d010000000000000000000000000083048116848801526e0100000000000000000000000000008304811660608501526f01000000000000000000000000000000830490911660808401527401000000000000000000000000000000000000000090910416151560a08201908152845180860190955260019092015462ffffff811685526301000000900460020b9284019290925260c082019290925290519294509092509061145f576040517f4eb0db8f00000000000000000000000000000000000000000000000000000000815260040160405180910390fd5b42816020015164ffffffffff161461152a575f61148484848460c001515f0151611952565b9050806060015164ffffffffff1660010361151d575f815f015173ffffffffffffffffffffffffffffffffffffffff16633850c7bd6040518163ffffffff1660e01b815260040160e060405180830381865afa1580156114e6573d5f5f3e3d5ffd5b505050506040513d601f19601f8201168201806040525081019061150a91906128de565b5050505060029190910b60208501525050505b61152782826122a7565b50505b8173ffffffffffffffffffffffffffffffffffffffff168673ffffffffffffffffffffffffffffffffffffffff1614611564578051611569565b80515f035b93505050505b92915050565b60015460609060ff81166004810167ffffffffffffffff81111561159b5761159b612abb565b6040519080825280602002602001820160405280156115df57816020015b604080518082019091525f80825260208201528152602001906001900390816115b95790505b5092506040518060400160405280606462ffffff168152602001600160020b815250835f8151811061161357611613612a4b565b602002602001018190525060405180604001604052806101f462ffffff168152602001600a60020b8152508360018151811061165157611651612a4b565b60200260200101819052506040518060400160405280610bb862ffffff168152602001603c60020b8152508360028151811061168f5761168f612a4b565b6020026020010181905250604051806040016040528061271062ffffff16815260200160c860020b815250836003815181106116cd576116cd612a4b565b602090810291909101015280156117415760089190911c905f5b8181101561173f5760405180604001604052808462ffffff168152602001601885901c60020b81525084826004018151811061172557611725612a4b565b602090810291909101015260309290921c916001016116e7565b505b505090565b5f6117518383611910565b73ffffffffffffffffffffffffffffffffffffffff9182165f9081526020818152604080832093909416825291909152206001015462ffffff169392505050565b6117dd6040805160e0810182525f8082526020808301829052828401829052606083018290526080830182905260a0830182905283518085019094528184528301529060c082015290565b8173ffffffffffffffffffffffffffffffffffffffff168373ffffffffffffffffffffffffffffffffffffffff1610611814575f5ffd5b5073ffffffffffffffffffffffffffffffffffffffff9182165f90815260208181526040808320939094168252918252829020825160e0810184528154600781900b825264ffffffffff68010000000000000000820481168386015260ff6d010000000000000000000000000083048116848801526e0100000000000000000000000000008304811660608501526f01000000000000000000000000000000830490911660808401527401000000000000000000000000000000000000000090910416151560a0820152835180850190945260019091015462ffffff811684526301000000900460020b9183019190915260c081019190915290565b5f5f8273ffffffffffffffffffffffffffffffffffffffff168473ffffffffffffffffffffffffffffffffffffffff16111561194a579192915b509192909150565b6040805160a0810182525f8082526020820181905291810182905260608101829052608081019190915261198784848461252a565b73ffffffffffffffffffffffffffffffffffffffff168082523b156122a0576040805160028082526060820183525f92602083019080368337019050509050610708815f815181106119db576119db612a4b565b602002602001019063ffffffff16908163ffffffff16815250505f81600181518110611a0957611a09612a4b565b602002602001019063ffffffff16908163ffffffff1681525050606080835f015173ffffffffffffffffffffffffffffffffffffffff1663883bdbfd846040518263ffffffff1660e01b8152600401611a629190612ae8565b5f60405180830381865afa925050508015611abc57506040513d5f823e601f3d9081017fffffffffffffffffffffffffffffffffffffffffffffffffffffffffffffffe0168201604052611ab99190810190612c1e565b60015b61218c57611ac8612cef565b806308c379a0036121825750611adc612d08565b80611ae75750612184565b60408051808201909152600381527f4f4c4400000000000000000000000000000000000000000000000000000000006020918201528151908201207fd30c0d219016dd7e5cf2b2c30c4d7c091820fc329f335b57cab26b9ff3384a9e14611b5157505050506122a0565b5f5f5f875f015173ffffffffffffffffffffffffffffffffffffffff16633850c7bd6040518163ffffffff1660e01b815260040160e060405180830381865afa158015611ba0573d5f5f3e3d5ffd5b505050506040513d601f19601f82011682018060405250810190611bc491906128de565b50508c5160408051600180825281830190925294995092975090955073ffffffffffffffffffffffffffffffffffffffff16935063883bdbfd925060208083019080368337019050506040518263ffffffff1660e01b8152600401611c299190612ae8565b5f60405180830381865afa158015611c43573d5f5f3e3d5ffd5b505050506040513d5f823e601f3d9081017fffffffffffffffffffffffffffffffffffffffffffffffffffffffffffffffe0168201604052611c889190810190612c1e565b80965081975050505f865f81518110611ca357611ca3612a4b565b602002602001015190505f865f81518110611cc057611cc0612a4b565b60200260200101519050600267ffffffffffffffff811115611ce457611ce4612abb565b604051908082528060200260200182016040528015611d0d578160200160208202803683370190505b50604080516002808252606082018352929a5091906020830190803683370190505096508188600181518110611d4557611d45612a4b565b602002602001019060060b908160060b815250508087600181518110611d6d57611d6d612a4b565b602002602001019073ffffffffffffffffffffffffffffffffffffffff16908173ffffffffffffffffffffffffffffffffffffffff16815250505f5f60018661ffff161115611e6d578b5173ffffffffffffffffffffffffffffffffffffffff1663252c09d787611ddf8a6001612dc8565b611de99190612de2565b6040517fffffffff0000000000000000000000000000000000000000000000000000000060e084901b16815261ffff9091166004820152602401608060405180830381865afa158015611e3e573d5f5f3e3d5ffd5b505050506040513d601f19601f82011682018060405250810190611e629190612e05565b919650945090925090505b80611f17578b516040517f252c09d70000000000000000000000000000000000000000000000000000000081525f600482015273ffffffffffffffffffffffffffffffffffffffff9091169063252c09d790602401608060405180830381865afa158015611edd573d5f5f3e3d5ffd5b505050506040513d601f19601f82011682018060405250810190611f019190612e05565b5090955093509150611f14876001612dc8565b95505b50611f2863ffffffff821642612a91565b8a5f81518110611f3a57611f3a612a4b565b602002602001019063ffffffff16908163ffffffff1681525050895f81518110611f6657611f66612a4b565b602002602001015163ffffffff165f03612061578a5f015173ffffffffffffffffffffffffffffffffffffffff16631a6865026040518163ffffffff1660e01b8152600401602060405180830381865afa158015611fc6573d5f5f3e3d5ffd5b505050506040513d601f19601f82011682018060405250810190611fea9190612e62565b6fffffffffffffffffffffffffffffffff1660408c018190525f0361201157600160408c01525b600160608c01819052600c9061202890603c612e91565b6120329190612eae565b61203d906001612dc8565b612048906001612dc8565b61ffff1660808c0152506122a098505050505050505050565b5f8a5f8151811061207457612074612a4b565b602002602001015163ffffffff16600161070864ffffffffff168861ffff1661209d9190612aa4565b6120a79190612a91565b6120b19190612ed7565b6120bc906001612995565b90508461ffff1681111561210157600c6120d86001603c612e91565b6120e29190612eae565b6120ed906001612dc8565b6120f79086612dc8565b61ffff1660808d01525b838a5f8151811061211457612114612a4b565b602002602001019060060b908160060b8152505082895f8151811061213b5761213b612a4b565b602002602001019073ffffffffffffffffffffffffffffffffffffffff16908173ffffffffffffffffffffffffffffffffffffffff16815250505050505050505050612192565b505b3d5f5f3e3d5ffd5b90925090505b805f815181106121a4576121a4612a4b565b6020026020010151816001815181106121bf576121bf612a4b565b60200260200101516121d19190612eea565b6080845f815181106121e5576121e5612a4b565b602002602001015163ffffffff1673ffffffffffffffffffffffffffffffffffffffff16901b6122159190612f16565b70ffffffffffffffffffffffffffffffffff166040850152815182905f9061223f5761223f612a4b565b60200260200101518260018151811061225a5761225a612a4b565b602002602001015161226c9190612f5d565b60060b6020850152825183905f9061228657612286612a4b565b602090810291909101015163ffffffff1660608501525050505b9392505050565b5f5f602a836020015160060b901b90506001836060015164ffffffffff1611156122e45760608301516122e19064ffffffffff1682612fa2565b90505b836020015164ffffffffff165f0361230257600781900b8452612396565b60208401515f9065040000000000906123229064ffffffffff1642612a91565b61232c9190613009565b855190915061233f90829060070b613054565b8213156123665780855f018181516123579190613073565b60070b90525060019250612394565b845160070b6123758284613054565b121561238c5780855f0181815161235791906130b9565b600782900b85525b505b5092915050565b604080518082019091525f80825260208201528160ff165f036123d457505060408051808201909152606481526001602082015290565b8160ff166001036123fa575050604080518082019091526101f48152600a602082015290565b8160ff1660020361242057505060408051808201909152610bb88152603c602082015290565b8160ff1660030361244657505060408051808201909152612710815260c8602082015290565b60015460ff8116612458816004612995565b8460ff1610612493576040517fd8463cb800000000000000000000000000000000000000000000000000000000815260040160405180910390fd5b61249e6004856130ff565b6124a9906030613118565b6124b49060086129a8565b6040805180820190915260ff919091169290921c62ffffff8116835260181c60020b60208301525092915050565b919050565b5f816020015162ffffff1660016048845f015162ffffff168661250a9190612aa4565b61251592911b612a91565b61251f9190612ed7565b6122a0906001612995565b5f61255f7f000000000000000000000000000000000000000000000000000000000000000061255a868686612567565b6125f8565b949350505050565b604080516060810182525f80825260208201819052918101919091528273ffffffffffffffffffffffffffffffffffffffff168473ffffffffffffffffffffffffffffffffffffffff1611156125bb579192915b506040805160608101825273ffffffffffffffffffffffffffffffffffffffff948516815292909316602083015262ffffff169181019190915290565b5f816020015173ffffffffffffffffffffffffffffffffffffffff16825f015173ffffffffffffffffffffffffffffffffffffffff1610612637575f5ffd5b8151602080840151604080860151815173ffffffffffffffffffffffffffffffffffffffff95861681860152949092168482015262ffffff90911660608085019190915281518085038201815260808501909252815191909201207fff0000000000000000000000000000000000000000000000000000000000000060a08401529085901b7fffffffffffffffffffffffffffffffffffffffff0000000000000000000000001660a183015260b58201527fe34f199b19b2b4f47f68442619d555527d244f78a3297ea89325f843f87b8b5460d582015260f501604080517fffffffffffffffffffffffffffffffffffffffffffffffffffffffffffffffe081840301815291905280516020909101209392505050565b73ffffffffffffffffffffffffffffffffffffffff8116811461276f575f5ffd5b50565b5f5f60408385031215612783575f5ffd5b823561278e8161274e565b9150602083013561279e8161274e565b809150509250929050565b5f602082840312156127b9575f5ffd5b813562ffffff811681146122a0575f5ffd5b602080825282518282018190525f918401906040840190835b8181101561281f57612809838551805162ffffff16825260209081015160020b910152565b60209390930192604092909201916001016127e4565b509095945050505050565b5f61010082019050825160070b825264ffffffffff602084015116602083015260ff604084015116604083015260ff606084015116606083015264ffffffffff608084015116608083015260a083015161288860a084018215159052565b5060c083015161239660c0840182805162ffffff16825260209081015160020b910152565b8051600281900b81146124e2575f5ffd5b805161ffff811681146124e2575f5ffd5b805180151581146124e2575f5ffd5b5f5f5f5f5f5f5f60e0888a0312156128f4575f5ffd5b87516128ff8161274e565b965061290d602089016128ad565b955061291b604089016128be565b9450612929606089016128be565b9350612937608089016128be565b925060a088015160ff8116811461294c575f5ffd5b915061295a60c089016128cf565b905092959891949750929550565b7f4e487b71000000000000000000000000000000000000000000000000000000005f52601160045260245ffd5b8082018082111561156f5761156f612968565b60ff818116838216019081111561156f5761156f612968565b7f4e487b71000000000000000000000000000000000000000000000000000000005f52601260045260245ffd5b5f60ff831680612a0057612a006129c1565b8060ff84160691505092915050565b5f8160070b7fffffffffffffffffffffffffffffffffffffffffffffffff80000000000000008103612a4357612a43612968565b5f0392915050565b7f4e487b71000000000000000000000000000000000000000000000000000000005f52603260045260245ffd5b5f60208284031215612a88575f5ffd5b6122a0826128ad565b8181038181111561156f5761156f612968565b808202811582820484141761156f5761156f612968565b7f4e487b71000000000000000000000000000000000000000000000000000000005f52604160045260245ffd5b602080825282518282018190525f918401906040840190835b8181101561281f57835163ffffffff16835260209384019390920191600101612b01565b7fffffffffffffffffffffffffffffffffffffffffffffffffffffffffffffffe0601f830116810181811067ffffffffffffffff82111715612b6957612b69612abb565b6040525050565b5f67ffffffffffffffff821115612b8957612b89612abb565b5060051b60200190565b8051600681900b81146124e2575f5ffd5b5f82601f830112612bb3575f5ffd5b8151612bbe81612b70565b604051612bcb8282612b25565b80915082815260208101915060208360051b860101925085831115612bee575f5ffd5b602085015b83811015612c14578051612c068161274e565b835260209283019201612bf3565b5095945050505050565b5f5f60408385031215612c2f575f5ffd5b825167ffffffffffffffff811115612c45575f5ffd5b8301601f81018513612c55575f5ffd5b8051612c6081612b70565b604051612c6d8282612b25565b80915082815260208101915060208360051b850101925087831115612c90575f5ffd5b6020840193505b82841015612cb957612ca884612b93565b825260209384019390910190612c97565b80955050505050602083015167ffffffffffffffff811115612cd9575f5ffd5b612ce585828601612ba4565b9150509250929050565b5f60033d1115612d055760045f5f3e505f5160e01c5b90565b5f60443d1015612d155790565b6040517ffffffffffffffffffffffffffffffffffffffffffffffffffffffffffffffffc3d016004823e80513d602482011167ffffffffffffffff82111715612d5d57505090565b808201805167ffffffffffffffff811115612d79575050505090565b7ffffffffffffffffffffffffffffffffffffffffffffffffffffffffffffffffc3d8501016020828401011115612db1575050505090565b612dc060208285010185612b25565b509392505050565b61ffff818116838216019081111561156f5761156f612968565b5f61ffff831680612df557612df56129c1565b8061ffff84160691505092915050565b5f5f5f5f60808587031215612e18575f5ffd5b845163ffffffff81168114612e2b575f5ffd5b9350612e3960208601612b93565b92506040850151612e498161274e565b9150612e57606086016128cf565b905092959194509250565b5f60208284031215612e72575f5ffd5b81516fffffffffffffffffffffffffffffffff811681146122a0575f5ffd5b64ffffffffff828116828216039081111561156f5761156f612968565b5f64ffffffffff831680612ec457612ec46129c1565b8064ffffffffff84160491505092915050565b5f82612ee557612ee56129c1565b500490565b73ffffffffffffffffffffffffffffffffffffffff828116828216039081111561156f5761156f612968565b5f73ffffffffffffffffffffffffffffffffffffffff831680612f3b57612f3b6129c1565b8073ffffffffffffffffffffffffffffffffffffffff84160491505092915050565b600682810b9082900b037fffffffffffffffffffffffffffffffffffffffffffffffffff800000000000008112667fffffffffffff8213171561156f5761156f612968565b5f82612fb057612fb06129c1565b7fffffffffffffffffffffffffffffffffffffffffffffffffffffffffffffffff83147f80000000000000000000000000000000000000000000000000000000000000008314161561300457613004612968565b500590565b8082025f82127f80000000000000000000000000000000000000000000000000000000000000008414161561304057613040612968565b818105831482151761156f5761156f612968565b8082018281125f83128015821682158216171561239457612394612968565b600781810b9083900b01677fffffffffffffff81137fffffffffffffffffffffffffffffffffffffffffffffffff80000000000000008212171561156f5761156f612968565b600782810b9082900b037fffffffffffffffffffffffffffffffffffffffffffffffff80000000000000008112677fffffffffffffff8213171561156f5761156f612968565b60ff828116828216039081111561156f5761156f612968565b60ff81811683821602908116908181146123965761239661296856fea2646970667358221220dab4bcbdd39305ecced1b5c5d3a0248f4a230c6c53c6cc3eac730fdf17b42af664736f6c634300081c0033","linkReferences":{}},"methodIdentifiers":{"TWAP_DURATION()":"879ac8f8","getPrice(address,address)":"ac41865a","getUniswapFeeTiers()":"bbbe310f","initialize(address,address)":"485cc955","newUniswapFeeTier(uint24)":"79b00adf","state(address,address)":"ca4bc9f1","uniswapFeeTierOf(address,address)":"c7dd5c0a","updateOracleState(address,address)":"04b7ca55"},"id":92}