{
  "_format": "hh-sol-artifact-1",
  "contractName": "SystemState",
  "sourceName": "src/SystemState.sol",
  "abi": [
    {
      "inputs": [
        {
          "internalType": "address",
          "name": "systemControl",
          "type": "address"
        }
      ],
      "stateMutability": "nonpayable",
      "type": "constructor"
    },
    {
      "anonymous": false,
      "inputs": [
        {
          "indexed": true,
          "internalType": "address",
          "name": "owner",
          "type": "address"
        },
        {
          "indexed": true,
          "internalType": "address",
          "name": "spender",
          "type": "address"
        },
        {
          "indexed": false,
          "internalType": "uint256",
          "name": "amount",
          "type": "uint256"
        }
      ],
      "name": "Approval",
      "type": "event"
    },
    {
      "anonymous": false,
      "inputs": [
        {
          "indexed": true,
          "internalType": "address",
          "name": "from",
          "type": "address"
        },
        {
          "indexed": true,
          "internalType": "address",
          "name": "to",
          "type": "address"
        },
        {
          "indexed": false,
          "internalType": "uint256",
          "name": "amount",
          "type": "uint256"
        }
      ],
      "name": "Transfer",
      "type": "event"
    },
    {
      "inputs": [],
      "name": "DOMAIN_SEPARATOR",
      "outputs": [
        {
          "internalType": "bytes32",
          "name": "",
          "type": "bytes32"
        }
      ],
      "stateMutability": "view",
      "type": "function"
    },
    {
      "inputs": [],
      "name": "ISSUANCE",
      "outputs": [
        {
          "internalType": "uint72",
          "name": "",
          "type": "uint72"
        }
      ],
      "stateMutability": "view",
      "type": "function"
    },
    {
      "inputs": [
        {
          "internalType": "address",
          "name": "pool",
          "type": "address"
        }
      ],
      "name": "LPerMint",
      "outputs": [],
      "stateMutability": "nonpayable",
      "type": "function"
    },
    {
      "inputs": [],
      "name": "SYSTEM_CONTROL",
      "outputs": [
        {
          "internalType": "address",
          "name": "",
          "type": "address"
        }
      ],
      "stateMutability": "view",
      "type": "function"
    },
    {
      "inputs": [
        {
          "internalType": "address",
          "name": "",
          "type": "address"
        },
        {
          "internalType": "address",
          "name": "",
          "type": "address"
        }
      ],
      "name": "allowance",
      "outputs": [
        {
          "internalType": "uint256",
          "name": "",
          "type": "uint256"
        }
      ],
      "stateMutability": "view",
      "type": "function"
    },
    {
      "inputs": [
        {
          "internalType": "address",
          "name": "spender",
          "type": "address"
        },
        {
          "internalType": "uint256",
          "name": "amount",
          "type": "uint256"
        }
      ],
      "name": "approve",
      "outputs": [
        {
          "internalType": "bool",
          "name": "",
          "type": "bool"
        }
      ],
      "stateMutability": "nonpayable",
      "type": "function"
    },
    {
      "inputs": [
        {
          "internalType": "address",
          "name": "",
          "type": "address"
        }
      ],
      "name": "balanceOf",
      "outputs": [
        {
          "internalType": "uint256",
          "name": "",
          "type": "uint256"
        }
      ],
      "stateMutability": "view",
      "type": "function"
    },
    {
      "inputs": [
        {
          "internalType": "address[]",
          "name": "prevContributors",
          "type": "address[]"
        },
        {
          "internalType": "address[]",
          "name": "nextContributors",
          "type": "address[]"
        },
        {
          "internalType": "uint72[]",
          "name": "issuances",
          "type": "uint72[]"
        },
        {
          "internalType": "bool",
          "name": "allowAnyTotalIssuance",
          "type": "bool"
        }
      ],
      "name": "changeContributorsIssuances",
      "outputs": [
        {
          "internalType": "bytes32",
          "name": "",
          "type": "bytes32"
        }
      ],
      "stateMutability": "nonpayable",
      "type": "function"
    },
    {
      "inputs": [
        {
          "internalType": "address[]",
          "name": "prevPools",
          "type": "address[]"
        },
        {
          "internalType": "bytes16[]",
          "name": "latestSuppliesMAAM",
          "type": "bytes16[]"
        },
        {
          "internalType": "address[]",
          "name": "nextPools",
          "type": "address[]"
        },
        {
          "internalType": "uint16[]",
          "name": "taxesToDAO",
          "type": "uint16[]"
        },
        {
          "internalType": "uint256",
          "name": "sumTaxes",
          "type": "uint256"
        }
      ],
      "name": "changePoolsIssuances",
      "outputs": [
        {
          "internalType": "bytes32",
          "name": "",
          "type": "bytes32"
        }
      ],
      "stateMutability": "nonpayable",
      "type": "function"
    },
    {
      "inputs": [],
      "name": "contributorMint",
      "outputs": [],
      "stateMutability": "nonpayable",
      "type": "function"
    },
    {
      "inputs": [],
      "name": "decimals",
      "outputs": [
        {
          "internalType": "uint8",
          "name": "",
          "type": "uint8"
        }
      ],
      "stateMutability": "view",
      "type": "function"
    },
    {
      "inputs": [
        {
          "internalType": "address",
          "name": "contributor",
          "type": "address"
        }
      ],
      "name": "getContributorIssuance",
      "outputs": [
        {
          "components": [
            {
              "internalType": "uint72",
              "name": "issuance",
              "type": "uint72"
            },
            {
              "internalType": "uint40",
              "name": "tsLastUpdate",
              "type": "uint40"
            },
            {
              "internalType": "uint128",
              "name": "rewards",
              "type": "uint128"
            }
          ],
          "internalType": "struct SystemState.ContributorIssuanceParams",
          "name": "contributorParams",
          "type": "tuple"
        }
      ],
      "stateMutability": "view",
      "type": "function"
    },
    {
      "inputs": [
        {
          "internalType": "address",
          "name": "pool",
          "type": "address"
        },
        {
          "internalType": "address",
          "name": "LPer",
          "type": "address"
        }
      ],
      "name": "getLPerIssuance",
      "outputs": [
        {
          "components": [
            {
              "internalType": "bytes16",
              "name": "cumSIRperMAAM",
              "type": "bytes16"
            },
            {
              "internalType": "uint104",
              "name": "rewards",
              "type": "uint104"
            },
            {
              "internalType": "uint24",
              "name": "indexLiquidations",
              "type": "uint24"
            }
          ],
          "internalType": "struct SystemState.LPerIssuanceParams",
          "name": "",
          "type": "tuple"
        }
      ],
      "stateMutability": "view",
      "type": "function"
    },
    {
      "inputs": [
        {
          "internalType": "bytes16",
          "name": "latestSupplyMAAM",
          "type": "bytes16"
        }
      ],
      "name": "haultLPersIssuances",
      "outputs": [],
      "stateMutability": "nonpayable",
      "type": "function"
    },
    {
      "inputs": [],
      "name": "maxSupply",
      "outputs": [
        {
          "internalType": "uint256",
          "name": "",
          "type": "uint256"
        }
      ],
      "stateMutability": "view",
      "type": "function"
    },
    {
      "inputs": [],
      "name": "name",
      "outputs": [
        {
          "internalType": "string",
          "name": "",
          "type": "string"
        }
      ],
      "stateMutability": "view",
      "type": "function"
    },
    {
      "inputs": [
        {
          "internalType": "address",
          "name": "",
          "type": "address"
        }
      ],
      "name": "nonces",
      "outputs": [
        {
          "internalType": "uint256",
          "name": "",
          "type": "uint256"
        }
      ],
      "stateMutability": "view",
      "type": "function"
    },
    {
      "inputs": [
        {
          "internalType": "address",
          "name": "owner",
          "type": "address"
        },
        {
          "internalType": "address",
          "name": "spender",
          "type": "address"
        },
        {
          "internalType": "uint256",
          "name": "value",
          "type": "uint256"
        },
        {
          "internalType": "uint256",
          "name": "deadline",
          "type": "uint256"
        },
        {
          "internalType": "uint8",
          "name": "v",
          "type": "uint8"
        },
        {
          "internalType": "bytes32",
          "name": "r",
          "type": "bytes32"
        },
        {
          "internalType": "bytes32",
          "name": "s",
          "type": "bytes32"
        }
      ],
      "name": "permit",
      "outputs": [],
      "stateMutability": "nonpayable",
      "type": "function"
    },
    {
      "inputs": [
        {
          "internalType": "address[]",
          "name": "pools",
          "type": "address[]"
        },
        {
          "internalType": "bytes16[]",
          "name": "latestSuppliesMAAM",
          "type": "bytes16[]"
        },
        {
          "internalType": "uint256",
          "name": "sumTaxes",
          "type": "uint256"
        }
      ],
      "name": "recalibratePoolsIssuances",
      "outputs": [],
      "stateMutability": "nonpayable",
      "type": "function"
    },
    {
      "inputs": [],
      "name": "symbol",
      "outputs": [
        {
          "internalType": "string",
          "name": "",
          "type": "string"
        }
      ],
      "stateMutability": "view",
      "type": "function"
    },
    {
      "inputs": [],
      "name": "systemParams",
      "outputs": [
        {
          "internalType": "uint40",
          "name": "tsIssuanceStart",
          "type": "uint40"
        },
        {
          "internalType": "uint16",
          "name": "basisFee",
          "type": "uint16"
        },
        {
          "internalType": "uint72",
          "name": "issuanceAllPools",
          "type": "uint72"
        },
        {
          "internalType": "bool",
          "name": "onlyWithdrawals",
          "type": "bool"
        }
      ],
      "stateMutability": "view",
      "type": "function"
    },
    {
      "inputs": [],
      "name": "totalSupply",
      "outputs": [
        {
          "internalType": "uint256",
          "name": "",
          "type": "uint256"
        }
      ],
      "stateMutability": "view",
      "type": "function"
    },
    {
      "inputs": [
        {
          "internalType": "address",
          "name": "to",
          "type": "address"
        },
        {
          "internalType": "uint256",
          "name": "amount",
          "type": "uint256"
        }
      ],
      "name": "transfer",
      "outputs": [
        {
          "internalType": "bool",
          "name": "",
          "type": "bool"
        }
      ],
      "stateMutability": "nonpayable",
      "type": "function"
    },
    {
      "inputs": [
        {
          "internalType": "address",
          "name": "from",
          "type": "address"
        },
        {
          "internalType": "address",
          "name": "to",
          "type": "address"
        },
        {
          "internalType": "uint256",
          "name": "amount",
          "type": "uint256"
        }
      ],
      "name": "transferFrom",
      "outputs": [
        {
          "internalType": "bool",
          "name": "",
          "type": "bool"
        }
      ],
      "stateMutability": "nonpayable",
      "type": "function"
    },
    {
      "inputs": [
        {
          "internalType": "address",
          "name": "LPer",
          "type": "address"
        },
        {
          "internalType": "bytes16",
          "name": "lastNonZeroBalance",
          "type": "bytes16"
        },
        {
          "internalType": "bytes16",
          "name": "latestBalance",
          "type": "bytes16"
        },
        {
          "internalType": "bytes16",
          "name": "latestSupplyMAAM",
          "type": "bytes16"
        }
      ],
      "name": "updateIssuance",
      "outputs": [],
      "stateMutability": "nonpayable",
      "type": "function"
    },
    {
      "inputs": [
        {
          "internalType": "uint40",
          "name": "tsIssuanceStart_",
          "type": "uint40"
        },
        {
          "internalType": "uint16",
          "name": "basisFee_",
          "type": "uint16"
        },
        {
          "internalType": "bool",
          "name": "onlyWithdrawals_",
          "type": "bool"
        }
      ],
      "name": "updateSystemParameters",
      "outputs": [],
      "stateMutability": "nonpayable",
      "type": "function"
    }
  ],
  "bytecode": "0x61010060405260405180608001604052805f64ffffffffff168152602001606461ffff16815260200168056bc75e2d6310000068ffffffffffffffffff1681526020015f1515815250600a5f820151815f015f6101000a81548164ffffffffff021916908364ffffffffff1602179055506020820151815f0160056101000a81548161ffff021916908361ffff1602179055506040820151815f0160076101000a81548168ffffffffffffffffff021916908368ffffffffffffffffff1602179055506060820151815f0160106101000a81548160ff0219169083151502179055505050348015620000ef575f80fd5b5060405162005984380380620059848339818101604052810190620001159190620002e8565b60405180606001604052806024815260200162005960602491396040518060400160405280600381526020017f53495200000000000000000000000000000000000000000000000000000000008152506012825f90816200017791906200057c565b5081600190816200018991906200057c565b508060ff1660808160ff16815250504660a08181525050620001b0620001f560201b60201c565b60c081815250505050508073ffffffffffffffffffffffffffffffffffffffff1660e08173ffffffffffffffffffffffffffffffffffffffff168152505050620007b7565b5f7f8b73c3c69bb8fe3d512ecc4cf759cc79239f7b179b0ffacaa9a75d522b39400f5f60405162000227919062000708565b60405180910390207fc89efdaa54c0f20c7adf612882df0950f5a951637e0307cdcb4c672f298b8bc64630604051602001620002689594939291906200075c565b60405160208183030381529060405280519060200120905090565b5f80fd5b5f73ffffffffffffffffffffffffffffffffffffffff82169050919050565b5f620002b28262000287565b9050919050565b620002c481620002a6565b8114620002cf575f80fd5b50565b5f81519050620002e281620002b9565b92915050565b5f602082840312156200030057620002ff62000283565b5b5f6200030f84828501620002d2565b91505092915050565b5f81519050919050565b7f4e487b71000000000000000000000000000000000000000000000000000000005f52604160045260245ffd5b7f4e487b71000000000000000000000000000000000000000000000000000000005f52602260045260245ffd5b5f60028204905060018216806200039457607f821691505b602082108103620003aa57620003a96200034f565b5b50919050565b5f819050815f5260205f209050919050565b5f6020601f8301049050919050565b5f82821b905092915050565b5f600883026200040e7fffffffffffffffffffffffffffffffffffffffffffffffffffffffffffffffff82620003d1565b6200041a8683620003d1565b95508019841693508086168417925050509392505050565b5f819050919050565b5f819050919050565b5f620004646200045e620004588462000432565b6200043b565b62000432565b9050919050565b5f819050919050565b6200047f8362000444565b620004976200048e826200046b565b848454620003dd565b825550505050565b5f90565b620004ad6200049f565b620004ba81848462000474565b505050565b5b81811015620004e157620004d55f82620004a3565b600181019050620004c0565b5050565b601f8211156200053057620004fa81620003b0565b6200050584620003c2565b8101602085101562000515578190505b6200052d6200052485620003c2565b830182620004bf565b50505b505050565b5f82821c905092915050565b5f620005525f198460080262000535565b1980831691505092915050565b5f6200056c838362000541565b9150826002028217905092915050565b620005878262000318565b67ffffffffffffffff811115620005a357620005a262000322565b5b620005af82546200037c565b620005bc828285620004e5565b5f60209050601f831160018114620005f2575f8415620005dd578287015190505b620005e985826200055f565b86555062000658565b601f1984166200060286620003b0565b5f5b828110156200062b5784890151825560018201915060208501945060208101905062000604565b868310156200064b578489015162000647601f89168262000541565b8355505b6001600288020188555050505b505050505050565b5f81905092915050565b5f819050815f5260205f209050919050565b5f81546200068a816200037c565b62000696818662000660565b9450600182165f8114620006b35760018114620006c957620006ff565b60ff1983168652811515820286019350620006ff565b620006d4856200066a565b5f5b83811015620006f757815481890152600182019150602081019050620006d6565b838801955050505b50505092915050565b5f6200071582846200067c565b915081905092915050565b5f819050919050565b620007348162000720565b82525050565b620007458162000432565b82525050565b6200075681620002a6565b82525050565b5f60a082019050620007715f83018862000729565b62000780602083018762000729565b6200078f604083018662000729565b6200079e60608301856200073a565b620007ad60808301846200074b565b9695505050505050565b60805160a05160c05160e05161516e620007f25f395f8181610802015261256201525f610c3b01525f610c0701525f610be2015261516e5ff3fe608060405234801561000f575f80fd5b506004361061018c575f3560e01c806370a08231116100dc578063b026737911610095578063d505accf1161006f578063d505accf146104ad578063d5abeb01146104c9578063dd62ed3e146104e7578063de53236d146105175761018c565b8063b026737914610457578063c2bf011e14610475578063c5bcfe39146104915761018c565b806370a08231146103495780637ecebe0014610379578063836f6389146103a957806395d89b41146103d9578063a0dba3aa146103f7578063a9059cbb146104275761018c565b806323b872dd11610149578063458e8e6b11610123578063458e8e6b146102ac578063472735db146102cd57806354f14cfc146102e95780636303d0d1146103195761018c565b806323b872dd14610240578063313ce567146102705780633644e5151461028e5761018c565b806306fdde0314610190578063095ea7b3146101ae578063138d052f146101de57806314c49db7146101e857806318160ddd146102065780631fdaee6114610224575b5f80fd5b610198610533565b6040516101a59190613c27565b60405180910390f35b6101c860048036038101906101c39190613ce5565b6105be565b6040516101d59190613d3d565b60405180910390f35b6101e66106ab565b005b6101f0610800565b6040516101fd9190613d65565b60405180910390f35b61020e610824565b60405161021b9190613d8d565b60405180910390f35b61023e60048036038101906102399190613da6565b61082a565b005b61025a60048036038101906102559190613dd1565b6109a5565b6040516102679190613d3d565b60405180910390f35b610278610be0565b6040516102859190613e3c565b60405180910390f35b610296610c04565b6040516102a39190613e6d565b60405180910390f35b6102b4610c60565b6040516102c49493929190613ee4565b60405180910390f35b6102e760048036038101906102e29190613fa5565b610cba565b005b61030360048036038101906102fe9190614238565b610daa565b6040516103109190613e6d565b60405180910390f35b610333600480360381019061032e919061432b565b611039565b60405161034091906143fc565b60405180910390f35b610363600480360381019061035e9190613da6565b6110da565b6040516103709190613d8d565b60405180910390f35b610393600480360381019061038e9190613da6565b6110ef565b6040516103a09190613d8d565b60405180910390f35b6103c360048036038101906103be919061446a565b611104565b6040516103d09190613e6d565b60405180910390f35b6103e161151b565b6040516103ee9190613c27565b60405180910390f35b610411600480360381019061040c9190613da6565b6115a7565b60405161041e91906145b6565b60405180910390f35b610441600480360381019061043c9190613ce5565b61190d565b60405161044e9190613d3d565b60405180910390f35b61045f611a1a565b60405161046c91906145cf565b60405180910390f35b61048f600480360381019061048a91906145e8565b611a27565b005b6104ab60048036038101906104a69190614613565b611b53565b005b6104c760048036038101906104c291906146cb565b611c9d565b005b6104d1611f8a565b6040516104de9190613d8d565b60405180910390f35b61050160048036038101906104fc919061432b565b612001565b60405161050e9190613d8d565b60405180910390f35b610531600480360381019061052c9190614768565b612021565b005b5f805461053f90614822565b80601f016020809104026020016040519081016040528092919081815260200182805461056b90614822565b80156105b65780601f1061058d576101008083540402835291602001916105b6565b820191905f5260205f20905b81548152906001019060200180831161059957829003601f168201915b505050505081565b5f8160045f3373ffffffffffffffffffffffffffffffffffffffff1673ffffffffffffffffffffffffffffffffffffffff1681526020019081526020015f205f8573ffffffffffffffffffffffffffffffffffffffff1673ffffffffffffffffffffffffffffffffffffffff1681526020019081526020015f20819055508273ffffffffffffffffffffffffffffffffffffffff163373ffffffffffffffffffffffffffffffffffffffff167f8c5be1e5ebec7d5bd14f71427d1e84f3dd0314c0f7b2291e5b200ac8c7c3b925846040516106999190613d8d565b60405180910390a36001905092915050565b5f6106b5336115a7565b90505f81604001516fffffffffffffffffffffffffffffffff16116106d8575f80fd5b6106f83382604001516fffffffffffffffffffffffffffffffff1661240b565b5f81604001906fffffffffffffffffffffffffffffffff1690816fffffffffffffffffffffffffffffffff16815250508060065f3373ffffffffffffffffffffffffffffffffffffffff1673ffffffffffffffffffffffffffffffffffffffff1681526020019081526020015f205f820151815f015f6101000a81548168ffffffffffffffffff021916908368ffffffffffffffffff1602179055506020820151815f0160096101000a81548164ffffffffff021916908364ffffffffff1602179055506040820151815f01600e6101000a8154816fffffffffffffffffffffffffffffffff02191690836fffffffffffffffffffffffffffffffff16021790555090505050565b7f000000000000000000000000000000000000000000000000000000000000000081565b60025481565b5f6108358233611039565b90505f81602001516cffffffffffffffffffffffffff1611610855575f80fd5b6108723382602001516cffffffffffffffffffffffffff1661240b565b5f81602001906cffffffffffffffffffffffffff1690816cffffffffffffffffffffffffff16815250508060095f8473ffffffffffffffffffffffffffffffffffffffff1673ffffffffffffffffffffffffffffffffffffffff1681526020019081526020015f205f3373ffffffffffffffffffffffffffffffffffffffff1673ffffffffffffffffffffffffffffffffffffffff1681526020019081526020015f205f820151815f015f6101000a8154816fffffffffffffffffffffffffffffffff021916908360801c02179055506020820151815f0160106101000a8154816cffffffffffffffffffffffffff02191690836cffffffffffffffffffffffffff1602179055506040820151815f01601d6101000a81548162ffffff021916908362ffffff1602179055509050505050565b5f8060045f8673ffffffffffffffffffffffffffffffffffffffff1673ffffffffffffffffffffffffffffffffffffffff1681526020019081526020015f205f3373ffffffffffffffffffffffffffffffffffffffff1673ffffffffffffffffffffffffffffffffffffffff1681526020019081526020015f205490507fffffffffffffffffffffffffffffffffffffffffffffffffffffffffffffffff8114610ad2578281610a55919061487f565b60045f8773ffffffffffffffffffffffffffffffffffffffff1673ffffffffffffffffffffffffffffffffffffffff1681526020019081526020015f205f3373ffffffffffffffffffffffffffffffffffffffff1673ffffffffffffffffffffffffffffffffffffffff1681526020019081526020015f20819055505b8260035f8773ffffffffffffffffffffffffffffffffffffffff1673ffffffffffffffffffffffffffffffffffffffff1681526020019081526020015f205f828254610b1e919061487f565b925050819055508260035f8673ffffffffffffffffffffffffffffffffffffffff1673ffffffffffffffffffffffffffffffffffffffff1681526020019081526020015f205f82825401925050819055508373ffffffffffffffffffffffffffffffffffffffff168573ffffffffffffffffffffffffffffffffffffffff167fddf252ad1be2c89b69c2b068fc378daa952ba7f163c4a11628f55a4df523b3ef85604051610bcc9190613d8d565b60405180910390a360019150509392505050565b7f000000000000000000000000000000000000000000000000000000000000000081565b5f7f00000000000000000000000000000000000000000000000000000000000000004614610c3957610c346124d6565b610c5b565b7f00000000000000000000000000000000000000000000000000000000000000005b905090565b600a805f015f9054906101000a900464ffffffffff1690805f0160059054906101000a900461ffff1690805f0160079054906101000a900468ffffffffffffffffff1690805f0160109054906101000a900460ff16905084565b610cc2612560565b5f8364ffffffffff161115610d57575f600a5f015f9054906101000a900464ffffffffff1664ffffffffff1614610d2e576040517f08c379a0000000000000000000000000000000000000000000000000000000008152600401610d25906148fc565b60405180910390fd5b82600a5f015f6101000a81548164ffffffffff021916908364ffffffffff160217905550610da5565b5f8261ffff161115610d875781600a5f0160056101000a81548161ffff021916908361ffff160217905550610da4565b80600a5f0160106101000a81548160ff0219169083151502179055505b5b505050565b5f610db3612560565b610dbf8989895f612021565b5f5b86869050811015611001574260075f898985818110610de357610de261491a565b5b9050602002016020810190610df89190613da6565b73ffffffffffffffffffffffffffffffffffffffff1673ffffffffffffffffffffffffffffffffffffffff1681526020019081526020015f205f01600b6101000a81548164ffffffffff021916908364ffffffffff160217905550848482818110610e6657610e6561491a565b5b9050602002016020810190610e7b9190614947565b60075f898985818110610e9157610e9061491a565b5b9050602002016020810190610ea69190613da6565b73ffffffffffffffffffffffffffffffffffffffff1673ffffffffffffffffffffffffffffffffffffffff1681526020019081526020015f205f015f6101000a81548161ffff021916908361ffff16021790555082858583818110610f0e57610f0d61491a565b5b9050602002016020810190610f239190614947565b61ffff16600a5f0160079054906101000a900468ffffffffffffffffff16610f4b9190614972565b68ffffffffffffffffff16610f6091906149db565b60075f898985818110610f7657610f7561491a565b5b9050602002016020810190610f8b9190613da6565b73ffffffffffffffffffffffffffffffffffffffff1673ffffffffffffffffffffffffffffffffffffffff1681526020019081526020015f205f0160026101000a81548168ffffffffffffffffff021916908368ffffffffffffffffff1602179055508080610ff990614a0b565b915050610dc1565b508585604051602001611015929190614b08565b60405160208183030381529060405280519060200120905098975050505050505050565b611041613b16565b5f805f8573ffffffffffffffffffffffffffffffffffffffff16632e2fdc7d866040518263ffffffff1660e01b815260040161107d9190613d65565b606060405180830381865afa158015611098573d5f803e3d5ffd5b505050506040513d601f19601f820116820180604052508101906110bc9190614b34565b9250925092506110cf86868585856125b9565b935050505092915050565b6003602052805f5260405f205f915090505481565b6005602052805f5260405f205f915090505481565b5f61110d612560565b5f5b8888905081101561127e575f61114b8a8a848181106111315761113061491a565b5b90506020020160208101906111469190613da6565b6115a7565b90505f815f019068ffffffffffffffffff16908168ffffffffffffffffff16815250508060065f8c8c868181106111855761118461491a565b5b905060200201602081019061119a9190613da6565b73ffffffffffffffffffffffffffffffffffffffff1673ffffffffffffffffffffffffffffffffffffffff1681526020019081526020015f205f820151815f015f6101000a81548168ffffffffffffffffff021916908368ffffffffffffffffff1602179055506020820151815f0160096101000a81548164ffffffffff021916908364ffffffffff1602179055506040820151815f01600e6101000a8154816fffffffffffffffffffffffffffffffff02191690836fffffffffffffffffffffffffffffffff16021790555090505050808061127690614a0b565b91505061110f565b505f805b87879050811015611411578585828181106112a05761129f61491a565b5b90506020020160208101906112b59190614bae565b60065f8a8a858181106112cb576112ca61491a565b5b90506020020160208101906112e09190613da6565b73ffffffffffffffffffffffffffffffffffffffff1673ffffffffffffffffffffffffffffffffffffffff1681526020019081526020015f205f015f6101000a81548168ffffffffffffffffff021916908368ffffffffffffffffff1602179055504260065f8a8a858181106113595761135861491a565b5b905060200201602081019061136e9190613da6565b73ffffffffffffffffffffffffffffffffffffffff1673ffffffffffffffffffffffffffffffffffffffff1681526020019081526020015f205f0160096101000a81548164ffffffffff021916908364ffffffffff1602179055508585828181106113dc576113db61491a565b5b90506020020160208101906113f19190614bae565b826113fc9190614bd9565b9150808061140990614a0b565b915050611282565b50821561145e578068056bc75e2d6310000061142d9190614c15565b600a5f0160076101000a81548168ffffffffffffffffff021916908368ffffffffffffffffff1602179055506114e4565b600a5f0160079054906101000a900468ffffffffffffffffff16816114839190614bd9565b68ffffffffffffffffff1668056bc75e2d6310000068ffffffffffffffffff16146114e3576040517f08c379a00000000000000000000000000000000000000000000000000000000081526004016114da90614c9b565b60405180910390fd5b5b86866040516020016114f7929190614b08565b60405160208183030381529060405280519060200120915050979650505050505050565b6001805461152890614822565b80601f016020809104026020016040519081016040528092919081815260200182805461155490614822565b801561159f5780601f106115765761010080835404028352916020019161159f565b820191905f5260205f20905b81548152906001019060200180831161158257829003601f168201915b505050505081565b6115af613b5b565b5f600a5f015f9054906101000a900464ffffffffff1664ffffffffff1603156119085760065f8373ffffffffffffffffffffffffffffffffffffffff1673ffffffffffffffffffffffffffffffffffffffff1681526020019081526020015f206040518060600160405290815f82015f9054906101000a900468ffffffffffffffffff1668ffffffffffffffffff1668ffffffffffffffffff1681526020015f820160099054906101000a900464ffffffffff1664ffffffffff1664ffffffffff1681526020015f8201600e9054906101000a90046fffffffffffffffffffffffffffffffff166fffffffffffffffffffffffffffffffff166fffffffffffffffffffffffffffffffff168152505090506301e13380600a5f015f9054906101000a900464ffffffffff1664ffffffffff166116eb9190614cb9565b4210156117ad57806020015164ffffffffff16600a5f015f9054906101000a900464ffffffffff1664ffffffffff161161172957806020015161173f565b600a5f015f9054906101000a900464ffffffffff165b64ffffffffff1642611751919061487f565b815f015168ffffffffffffffffff1661176a9190614cec565b8160400181815161177b9190614d28565b9150906fffffffffffffffffffffffffffffffff1690816fffffffffffffffffffffffffffffffff16815250506118ed565b6301e13380600a5f015f9054906101000a900464ffffffffff1664ffffffffff166117d89190614cb9565b816020015164ffffffffff1610156118cb57806020015164ffffffffff16600a5f015f9054906101000a900464ffffffffff1664ffffffffff1611611821578060200151611837565b600a5f015f9054906101000a900464ffffffffff165b64ffffffffff166301e13380600a5f015f9054906101000a900464ffffffffff1664ffffffffff166118699190614cb9565b611873919061487f565b815f015168ffffffffffffffffff1661188c9190614cec565b8160400181815161189d9190614d28565b9150906fffffffffffffffffffffffffffffffff1690816fffffffffffffffffffffffffffffffff16815250505b5f815f019068ffffffffffffffffff16908168ffffffffffffffffff16815250505b42816020019064ffffffffff16908164ffffffffff16815250505b919050565b5f8160035f3373ffffffffffffffffffffffffffffffffffffffff1673ffffffffffffffffffffffffffffffffffffffff1681526020019081526020015f205f82825461195a919061487f565b925050819055508160035f8573ffffffffffffffffffffffffffffffffffffffff1673ffffffffffffffffffffffffffffffffffffffff1681526020019081526020015f205f82825401925050819055508273ffffffffffffffffffffffffffffffffffffffff163373ffffffffffffffffffffffffffffffffffffffff167fddf252ad1be2c89b69c2b068fc378daa952ba7f163c4a11628f55a4df523b3ef84604051611a089190613d8d565b60405180910390a36001905092915050565b68056bc75e2d6310000081565b5f600a5f015f9054906101000a900464ffffffffff1664ffffffffff161480611aae57505f60075f3373ffffffffffffffffffffffffffffffffffffffff1673ffffffffffffffffffffffffffffffffffffffff1681526020019081526020015f205f0160029054906101000a900468ffffffffffffffffff1668ffffffffffffffffff16145b611b50575f611abc82612ac4565b905060085f3373ffffffffffffffffffffffffffffffffffffffff1673ffffffffffffffffffffffffffffffffffffffff1681526020019081526020015f2081908060018154018082558091505060019003905f5260205f2090600291828204019190066010029091909190916101000a8154816fffffffffffffffffffffffffffffffff021916908360801c0217905550505b50565b5f600a5f015f9054906101000a900464ffffffffff1664ffffffffff160315611c9757611b7f81612ac4565b505f611b8e33868686866125b9565b90508060095f3373ffffffffffffffffffffffffffffffffffffffff1673ffffffffffffffffffffffffffffffffffffffff1681526020019081526020015f205f8773ffffffffffffffffffffffffffffffffffffffff1673ffffffffffffffffffffffffffffffffffffffff1681526020019081526020015f205f820151815f015f6101000a8154816fffffffffffffffffffffffffffffffff021916908360801c02179055506020820151815f0160106101000a8154816cffffffffffffffffffffffffff02191690836cffffffffffffffffffffffffff1602179055506040820151815f01601d6101000a81548162ffffff021916908362ffffff160217905550905050505b50505050565b42841015611ce0576040517f08c379a0000000000000000000000000000000000000000000000000000000008152600401611cd790614db5565b60405180910390fd5b5f6001611ceb610c04565b7f6e71edae12b1b97f4d1f60370fef10105fa2faae0126114a169c64845d6126c98a8a8a60055f8f73ffffffffffffffffffffffffffffffffffffffff1673ffffffffffffffffffffffffffffffffffffffff1681526020019081526020015f205f815480929190600101919050558b604051602001611d7096959493929190614dd3565b60405160208183030381529060405280519060200120604051602001611d97929190614ea6565b604051602081830303815290604052805190602001208585856040515f8152602001604052604051611dcc9493929190614edc565b6020604051602081039080840390855afa158015611dec573d5f803e3d5ffd5b5050506020604051035190505f73ffffffffffffffffffffffffffffffffffffffff168173ffffffffffffffffffffffffffffffffffffffff1614158015611e5f57508773ffffffffffffffffffffffffffffffffffffffff168173ffffffffffffffffffffffffffffffffffffffff16145b611e9e576040517f08c379a0000000000000000000000000000000000000000000000000000000008152600401611e9590614f69565b60405180910390fd5b8560045f8373ffffffffffffffffffffffffffffffffffffffff1673ffffffffffffffffffffffffffffffffffffffff1681526020019081526020015f205f8973ffffffffffffffffffffffffffffffffffffffff1673ffffffffffffffffffffffffffffffffffffffff1681526020019081526020015f2081905550508573ffffffffffffffffffffffffffffffffffffffff168773ffffffffffffffffffffffffffffffffffffffff167f8c5be1e5ebec7d5bd14f71427d1e84f3dd0314c0f7b2291e5b200ac8c7c3b92587604051611f799190613d8d565b60405180910390a350505050505050565b5f80600a5f015f9054906101000a900464ffffffffff1664ffffffffff1603611fb5575f9050611ffe565b600a5f015f9054906101000a900464ffffffffff1664ffffffffff1642611fdc919061487f565b68056bc75e2d6310000068ffffffffffffffffff16611ffb9190614f87565b90505b90565b6004602052815f5260405f20602052805f5260405f205f91509150505481565b612029612560565b5f5b848490508110156124045761208185858381811061204c5761204b61491a565b5b90506020020160208101906120619190613da6565b8483815181106120745761207361491a565b5b6020026020010151612b9d565b60075f8787858181106120975761209661491a565b5b90506020020160208101906120ac9190613da6565b73ffffffffffffffffffffffffffffffffffffffff1673ffffffffffffffffffffffffffffffffffffffff1681526020019081526020015f205f0160106101000a8154816fffffffffffffffffffffffffffffffff021916908360801c02179055504260075f8787858181106121255761212461491a565b5b905060200201602081019061213a9190613da6565b73ffffffffffffffffffffffffffffffffffffffff1673ffffffffffffffffffffffffffffffffffffffff1681526020019081526020015f205f01600b6101000a81548164ffffffffff021916908364ffffffffff1602179055505f82036122b0575f60075f8787858181106121b3576121b261491a565b5b90506020020160208101906121c89190613da6565b73ffffffffffffffffffffffffffffffffffffffff1673ffffffffffffffffffffffffffffffffffffffff1681526020019081526020015f205f015f6101000a81548161ffff021916908361ffff1602179055505f60075f8787858181106122335761223261491a565b5b90506020020160208101906122489190613da6565b73ffffffffffffffffffffffffffffffffffffffff1673ffffffffffffffffffffffffffffffffffffffff1681526020019081526020015f205f0160026101000a81548168ffffffffffffffffff021916908368ffffffffffffffffff1602179055506123f1565b8160075f8787858181106122c7576122c661491a565b5b90506020020160208101906122dc9190613da6565b73ffffffffffffffffffffffffffffffffffffffff1673ffffffffffffffffffffffffffffffffffffffff1681526020019081526020015f205f015f9054906101000a900461ffff1661ffff16600a5f0160079054906101000a900468ffffffffffffffffff1661234d9190614972565b68ffffffffffffffffff1661236291906149db565b60075f8787858181106123785761237761491a565b5b905060200201602081019061238d9190613da6565b73ffffffffffffffffffffffffffffffffffffffff1673ffffffffffffffffffffffffffffffffffffffff1681526020019081526020015f205f0160026101000a81548168ffffffffffffffffff021916908368ffffffffffffffffff1602179055505b80806123fc90614a0b565b91505061202b565b5050505050565b8060025f82825461241c9190614cb9565b925050819055508060035f8473ffffffffffffffffffffffffffffffffffffffff1673ffffffffffffffffffffffffffffffffffffffff1681526020019081526020015f205f82825401925050819055508173ffffffffffffffffffffffffffffffffffffffff165f73ffffffffffffffffffffffffffffffffffffffff167fddf252ad1be2c89b69c2b068fc378daa952ba7f163c4a11628f55a4df523b3ef836040516124ca9190613d8d565b60405180910390a35050565b5f7f8b73c3c69bb8fe3d512ecc4cf759cc79239f7b179b0ffacaa9a75d522b39400f5f6040516125069190615064565b60405180910390207fc89efdaa54c0f20c7adf612882df0950f5a951637e0307cdcb4c672f298b8bc6463060405160200161254595949392919061507a565b60405160208183030381529060405280519060200120905090565b7f000000000000000000000000000000000000000000000000000000000000000073ffffffffffffffffffffffffffffffffffffffff163373ffffffffffffffffffffffffffffffffffffffff16146125b7575f80fd5b565b6125c1613b16565b5f600a5f015f9054906101000a900464ffffffffff1664ffffffffff160315612abb576125ee8683612b9d565b815f01906fffffffffffffffffffffffffffffffff191690816fffffffffffffffffffffffffffffffff1916815250505f60095f8873ffffffffffffffffffffffffffffffffffffffff1673ffffffffffffffffffffffffffffffffffffffff1681526020019081526020015f205f8773ffffffffffffffffffffffffffffffffffffffff1673ffffffffffffffffffffffffffffffffffffffff1681526020019081526020015f205f01601d9054906101000a900462ffffff1662ffffff1690505b60085f8873ffffffffffffffffffffffffffffffffffffffff1673ffffffffffffffffffffffffffffffffffffffff1681526020019081526020015f20805490508110801561281c57505f61281760085f8a73ffffffffffffffffffffffffffffffffffffffff1673ffffffffffffffffffffffffffffffffffffffff1681526020019081526020015f20838154811061274e5761274d61491a565b5b905f5260205f2090600291828204019190066010029054906101000a900460801b60095f8b73ffffffffffffffffffffffffffffffffffffffff1673ffffffffffffffffffffffffffffffffffffffff1681526020019081526020015f205f8a73ffffffffffffffffffffffffffffffffffffffff1673ffffffffffffffffffffffffffffffffffffffff1681526020019081526020015f205f015f9054906101000a900460801b6fffffffffffffffffffffffffffffffff1916612d9690919063ffffffff16565b5f0b12155b1561283457808061282c90614a0b565b9150506126b1565b5f60085f8973ffffffffffffffffffffffffffffffffffffffff1673ffffffffffffffffffffffffffffffffffffffff1681526020019081526020015f20805490508210905061294561292d8261288b578661288d565b875b8361289b57855f015161290c565b60085f8c73ffffffffffffffffffffffffffffffffffffffff1673ffffffffffffffffffffffffffffffffffffffff1681526020019081526020015f2085815481106128ea576128e961491a565b5b905f5260205f2090600291828204019190066010029054906101000a900460801b5b6fffffffffffffffffffffffffffffffff191661302790919063ffffffff16565b6fffffffffffffffffffffffffffffffff191661303b565b60095f8a73ffffffffffffffffffffffffffffffffffffffff1673ffffffffffffffffffffffffffffffffffffffff1681526020019081526020015f205f8973ffffffffffffffffffffffffffffffffffffffff1673ffffffffffffffffffffffffffffffffffffffff1681526020019081526020015f205f0160109054906101000a90046cffffffffffffffffffffffffff166129e391906150cb565b83602001906cffffffffffffffffffffffffff1690816cffffffffffffffffffffffffff168152505062ffffff801660085f8a73ffffffffffffffffffffffffffffffffffffffff1673ffffffffffffffffffffffffffffffffffffffff1681526020019081526020015f208054905010612a615762ffffff612aa3565b60085f8973ffffffffffffffffffffffffffffffffffffffff1673ffffffffffffffffffffffffffffffffffffffff1681526020019081526020015f20805490505b836040019062ffffff16908162ffffff168152505050505b95945050505050565b5f612acf3383612b9d565b90508060075f3373ffffffffffffffffffffffffffffffffffffffff1673ffffffffffffffffffffffffffffffffffffffff1681526020019081526020015f205f0160106101000a8154816fffffffffffffffffffffffffffffffff021916908360801c02179055504260075f3373ffffffffffffffffffffffffffffffffffffffff1673ffffffffffffffffffffffffffffffffffffffff1681526020019081526020015f205f01600b6101000a81548164ffffffffff021916908364ffffffffff160217905550919050565b5f80600a5f015f9054906101000a900464ffffffffff1664ffffffffff1603612bcb575f60801b9050612d90565b5f60075f8573ffffffffffffffffffffffffffffffffffffffff1673ffffffffffffffffffffffffffffffffffffffff1681526020019081526020015f2090505f815f0160109054906101000a900460801b90504264ffffffffff16825f01600b9054906101000a900464ffffffffff1664ffffffffff1603612c52578092505050612d90565b5f60801b6fffffffffffffffffffffffffffffffff1916846fffffffffffffffffffffffffffffffff191603612c8c578092505050612d90565b612d8b612d6985612d48855f01600b9054906101000a900464ffffffffff1664ffffffffff16600a5f015f9054906101000a900464ffffffffff1664ffffffffff1611612ced57855f01600b9054906101000a900464ffffffffff16612d03565b600a5f015f9054906101000a900464ffffffffff165b64ffffffffff1642612d15919061487f565b865f0160029054906101000a900468ffffffffffffffffff1668ffffffffffffffffff16612d439190614f87565b613148565b6fffffffffffffffffffffffffffffffff191661317090919063ffffffff16565b826fffffffffffffffffffffffffffffffff19166133cc90919063ffffffff16565b925050505b92915050565b5f806f7fffffffffffffffffffffffffffffff8460801c1690505f6f7fffffffffffffffffffffffffffffff8460801c1690506f7fff0000000000000000000000000000826fffffffffffffffffffffffffffffffff161115612dfc57612dfb61510b565b5b6f7fff0000000000000000000000000000816fffffffffffffffffffffffffffffffff161115612e2f57612e2e61510b565b5b836fffffffffffffffffffffffffffffffff1916856fffffffffffffffffffffffffffffffff1916141580612e8557506f7fff0000000000000000000000000000826fffffffffffffffffffffffffffffffff16105b612e8d575f80fd5b836fffffffffffffffffffffffffffffffff1916856fffffffffffffffffffffffffffffffff191603612ec4575f92505050613021565b5f6f800000000000000000000000000000008660801c6fffffffffffffffffffffffffffffffff16101590505f6f800000000000000000000000000000008660801c6fffffffffffffffffffffffffffffffff16101590508115612fb3578015612f8757826fffffffffffffffffffffffffffffffff16846fffffffffffffffffffffffffffffffff1611612f5a576001612f7c565b7fffffffffffffffffffffffffffffffffffffffffffffffffffffffffffffffff5b945050505050613021565b7fffffffffffffffffffffffffffffffffffffffffffffffffffffffffffffffff945050505050613021565b8015612fc6576001945050505050613021565b826fffffffffffffffffffffffffffffffff16846fffffffffffffffffffffffffffffffff1611613017577fffffffffffffffffffffffffffffffffffffffffffffffffffffffffffffffff61301a565b60015b9450505050505b92915050565b5f61303383835f6133e0565b905092915050565b5f8060708360801c6fffffffffffffffffffffffffffffffff16901c6fffffffffffffffffffffffffffffffff1690506140fe81111561307e5761307d61510b565b5b5f8111806130b457505f60801b6fffffffffffffffffffffffffffffffff1916836fffffffffffffffffffffffffffffffff1916145b6130c1576130c061510b565b5b613fff8110156130d4575f915050613143565b5f6e0100000000000000000000000000006dffffffffffffffffffffffffffff8560801c6fffffffffffffffffffffffffffffffff161617905061406f821015613127578161406f0381901c905061313d565b61406f82111561313c5761406f820381901b90505b5b80925050505b919050565b5f80820361315b575f60801b905061316b565b613165825f61367d565b60801b90505b919050565b5f8060708460801c6fffffffffffffffffffffffffffffffff16901c6fffffffffffffffffffffffffffffffff1690505f60716e0100000000000000000000000000006dffffffffffffffffffffffffffff8760801c166fffffffffffffffffffffffffffffffff1617901b90505f60708560801c6fffffffffffffffffffffffffffffffff16901c6fffffffffffffffffffffffffffffffff1690505f6e0100000000000000000000000000006dffffffffffffffffffffffffffff8760801c16176fffffffffffffffffffffffffffffffff169050617fff841080156132595750617fff82105b6132665761326561510b565b5b5f82116132765761327561510b565b5b5f60801b6fffffffffffffffffffffffffffffffff1916876fffffffffffffffffffffffffffffffff1916036132b5575f60801b9450505050506133c6565b5f84116132c5576132c461510b565b5b8083816132d5576132d46149ae565b5b0492506d1000000000000000000000000000831015801561330457506e04000000000000000000000000000083105b6133115761331061510b565b5b5f6e020000000000000000000000000000841015613330576070613333565b60715b60ff16905061407083018186011115613366576f7fff000000000000000000000000000060801b955050505050506133c6565b82613f8e8287010111613383575f60801b955050505050506133c6565b6070811115613396576070810384901c93505b6dffffffffffffffffffffffffffff8416935082613f8e8201038501945083607086901b1760801b955050505050505b92915050565b5f6133d883835f613713565b905092915050565b5f80617fff60708660801c6fffffffffffffffffffffffffffffffff16901c166fffffffffffffffffffffffffffffffff1690505f60708560801c6fffffffffffffffffffffffffffffffff16901c6fffffffffffffffffffffffffffffffff169050617fff821080156134555750617fff81105b6134625761346161510b565b5b5f60801b6fffffffffffffffffffffffffffffffff1916866fffffffffffffffffffffffffffffffff191614806134c157505f60801b6fffffffffffffffffffffffffffffffff1916856fffffffffffffffffffffffffffffffff1916145b156134d3575f60801b92505050613676565b5f6e0100000000000000000000000000006dffffffffffffffffffffffffffff8860801c16176fffffffffffffffffffffffffffffffff1690505f6e0100000000000000000000000000006dffffffffffffffffffffffffffff8860801c16176fffffffffffffffffffffffffffffffff1690505f8411801561355557505f83115b6135625761356161510b565b5b808202915082840193505f7c02000000000000000000000000000000000000000000000000000000008310156135995760e061359c565b60e15b60ff1690506140e081860110156135bd575f60801b95505050505050613676565b86156135fd5760016070820360018503901c0192506e02000000000000000000000000000083106135f857600183901c925084806001019550505b613607565b6070810383901c92505b61c0dd818601111561361c5761361b61510b565b5b6dffffffffffffffffffffffffffff831692506140df81860103945082607086901b6f8000000000000000000000000000000060801b8b1660801c6fffffffffffffffffffffffffffffffff16171760801b955050505050505b9392505050565b5f8061368884613a33565b905060708110156136a1578060700384901b93506136ef565b60708111156136ee5782156136e35760016070820360018603901c0193506e02000000000000000000000000000084036136de5780806001019150505b6136ed565b6070810384901c93505b5b5b607081613fff01901b6dffffffffffffffffffffffffffff85161791505092915050565b5f8060708560801c6fffffffffffffffffffffffffffffffff16901c6fffffffffffffffffffffffffffffffff1690505f60708560801c6fffffffffffffffffffffffffffffffff16901c6fffffffffffffffffffffffffffffffff169050617fff821080156137845750617fff81105b6137915761379061510b565b5b5f60801b6fffffffffffffffffffffffffffffffff1916866fffffffffffffffffffffffffffffffff1916036137cb578492505050613a2c565b5f60801b6fffffffffffffffffffffffffffffffff1916856fffffffffffffffffffffffffffffffff191603613805578592505050613a2c565b5f6e0100000000000000000000000000006dffffffffffffffffffffffffffff8860801c16176fffffffffffffffffffffffffffffffff1690505f6e0100000000000000000000000000006dffffffffffffffffffffffffffff8860801c16176fffffffffffffffffffffffffffffffff1690505f8411801561388757505f83115b6138945761389361510b565b5b5f838503905086156139215760708113156138b2576001915061391c565b5f8113156138cb5760018160018403901c01915061391b565b7fffffffffffffffffffffffffffffffffffffffffffffffffffffffffffffff908112156138ff576001925083945061391a565b5f811215613919576001815f0360018503901c0192508394505b5b5b5b613995565b6070811315613937578895505050505050613a2c565b5f81131561394a578082901c9150613994565b7fffffffffffffffffffffffffffffffffffffffffffffffffffffffffffffff9081121561397f578795505050505050613a2c565b5f81121561399357805f0383901c92508394505b5b5b81830192506e02000000000000000000000000000083106139d557866139bf57600183901c6139ca565b60018060018503901c015b925084806001019550505b617fff85106139e7576139e661510b565b5b6e010000000000000000000000000000831015613a06575f9450613a1a565b6dffffffffffffffffffffffffffff831692505b82607086901b1760801b955050505050505b9392505050565b5f808211613a4457613a4361510b565b5b5f7001000000000000000000000000000000008310613a6b57608083901c92506080810190505b680100000000000000008310613a8957604083901c92506040810190505b6401000000008310613aa357602083901c92506020810190505b620100008310613abb57601083901c92506010810190505b6101008310613ad257600883901c92506008810190505b60108310613ae857600483901c92506004810190505b60048310613afe57600283901c92506002810190505b60028310613b0d576001810190505b80915050919050565b60405180606001604052805f6fffffffffffffffffffffffffffffffff191681526020015f6cffffffffffffffffffffffffff1681526020015f62ffffff1681525090565b60405180606001604052805f68ffffffffffffffffff1681526020015f64ffffffffff1681526020015f6fffffffffffffffffffffffffffffffff1681525090565b5f81519050919050565b5f82825260208201905092915050565b5f5b83811015613bd4578082015181840152602081019050613bb9565b5f8484015250505050565b5f601f19601f8301169050919050565b5f613bf982613b9d565b613c038185613ba7565b9350613c13818560208601613bb7565b613c1c81613bdf565b840191505092915050565b5f6020820190508181035f830152613c3f8184613bef565b905092915050565b5f604051905090565b5f80fd5b5f80fd5b5f73ffffffffffffffffffffffffffffffffffffffff82169050919050565b5f613c8182613c58565b9050919050565b613c9181613c77565b8114613c9b575f80fd5b50565b5f81359050613cac81613c88565b92915050565b5f819050919050565b613cc481613cb2565b8114613cce575f80fd5b50565b5f81359050613cdf81613cbb565b92915050565b5f8060408385031215613cfb57613cfa613c50565b5b5f613d0885828601613c9e565b9250506020613d1985828601613cd1565b9150509250929050565b5f8115159050919050565b613d3781613d23565b82525050565b5f602082019050613d505f830184613d2e565b92915050565b613d5f81613c77565b82525050565b5f602082019050613d785f830184613d56565b92915050565b613d8781613cb2565b82525050565b5f602082019050613da05f830184613d7e565b92915050565b5f60208284031215613dbb57613dba613c50565b5b5f613dc884828501613c9e565b91505092915050565b5f805f60608486031215613de857613de7613c50565b5b5f613df586828701613c9e565b9350506020613e0686828701613c9e565b9250506040613e1786828701613cd1565b9150509250925092565b5f60ff82169050919050565b613e3681613e21565b82525050565b5f602082019050613e4f5f830184613e2d565b92915050565b5f819050919050565b613e6781613e55565b82525050565b5f602082019050613e805f830184613e5e565b92915050565b5f64ffffffffff82169050919050565b613e9f81613e86565b82525050565b5f61ffff82169050919050565b613ebb81613ea5565b82525050565b5f68ffffffffffffffffff82169050919050565b613ede81613ec1565b82525050565b5f608082019050613ef75f830187613e96565b613f046020830186613eb2565b613f116040830185613ed5565b613f1e6060830184613d2e565b95945050505050565b613f3081613e86565b8114613f3a575f80fd5b50565b5f81359050613f4b81613f27565b92915050565b613f5a81613ea5565b8114613f64575f80fd5b50565b5f81359050613f7581613f51565b92915050565b613f8481613d23565b8114613f8e575f80fd5b50565b5f81359050613f9f81613f7b565b92915050565b5f805f60608486031215613fbc57613fbb613c50565b5b5f613fc986828701613f3d565b9350506020613fda86828701613f67565b9250506040613feb86828701613f91565b9150509250925092565b5f80fd5b5f80fd5b5f80fd5b5f8083601f84011261401657614015613ff5565b5b8235905067ffffffffffffffff81111561403357614032613ff9565b5b60208301915083602082028301111561404f5761404e613ffd565b5b9250929050565b7f4e487b71000000000000000000000000000000000000000000000000000000005f52604160045260245ffd5b61408c82613bdf565b810181811067ffffffffffffffff821117156140ab576140aa614056565b5b80604052505050565b5f6140bd613c47565b90506140c98282614083565b919050565b5f67ffffffffffffffff8211156140e8576140e7614056565b5b602082029050602081019050919050565b5f7fffffffffffffffffffffffffffffffff0000000000000000000000000000000082169050919050565b61412d816140f9565b8114614137575f80fd5b50565b5f8135905061414881614124565b92915050565b5f61416061415b846140ce565b6140b4565b9050808382526020820190506020840283018581111561418357614182613ffd565b5b835b818110156141ac5780614198888261413a565b845260208401935050602081019050614185565b5050509392505050565b5f82601f8301126141ca576141c9613ff5565b5b81356141da84826020860161414e565b91505092915050565b5f8083601f8401126141f8576141f7613ff5565b5b8235905067ffffffffffffffff81111561421557614214613ff9565b5b60208301915083602082028301111561423157614230613ffd565b5b9250929050565b5f805f805f805f8060a0898b03121561425457614253613c50565b5b5f89013567ffffffffffffffff81111561427157614270613c54565b5b61427d8b828c01614001565b9850985050602089013567ffffffffffffffff8111156142a05761429f613c54565b5b6142ac8b828c016141b6565b965050604089013567ffffffffffffffff8111156142cd576142cc613c54565b5b6142d98b828c01614001565b9550955050606089013567ffffffffffffffff8111156142fc576142fb613c54565b5b6143088b828c016141e3565b9350935050608061431b8b828c01613cd1565b9150509295985092959890939650565b5f806040838503121561434157614340613c50565b5b5f61434e85828601613c9e565b925050602061435f85828601613c9e565b9150509250929050565b614372816140f9565b82525050565b5f6cffffffffffffffffffffffffff82169050919050565b61439981614378565b82525050565b5f62ffffff82169050919050565b6143b68161439f565b82525050565b606082015f8201516143d05f850182614369565b5060208201516143e36020850182614390565b5060408201516143f660408501826143ad565b50505050565b5f60608201905061440f5f8301846143bc565b92915050565b5f8083601f84011261442a57614429613ff5565b5b8235905067ffffffffffffffff81111561444757614446613ff9565b5b60208301915083602082028301111561446357614462613ffd565b5b9250929050565b5f805f805f805f6080888a03121561448557614484613c50565b5b5f88013567ffffffffffffffff8111156144a2576144a1613c54565b5b6144ae8a828b01614001565b9750975050602088013567ffffffffffffffff8111156144d1576144d0613c54565b5b6144dd8a828b01614001565b9550955050604088013567ffffffffffffffff811115614500576144ff613c54565b5b61450c8a828b01614415565b9350935050606061451f8a828b01613f91565b91505092959891949750929550565b61453781613ec1565b82525050565b61454681613e86565b82525050565b5f6fffffffffffffffffffffffffffffffff82169050919050565b6145708161454c565b82525050565b606082015f82015161458a5f85018261452e565b50602082015161459d602085018261453d565b5060408201516145b06040850182614567565b50505050565b5f6060820190506145c95f830184614576565b92915050565b5f6020820190506145e25f830184613ed5565b92915050565b5f602082840312156145fd576145fc613c50565b5b5f61460a8482850161413a565b91505092915050565b5f805f806080858703121561462b5761462a613c50565b5b5f61463887828801613c9e565b94505060206146498782880161413a565b935050604061465a8782880161413a565b925050606061466b8782880161413a565b91505092959194509250565b61468081613e21565b811461468a575f80fd5b50565b5f8135905061469b81614677565b92915050565b6146aa81613e55565b81146146b4575f80fd5b50565b5f813590506146c5816146a1565b92915050565b5f805f805f805f60e0888a0312156146e6576146e5613c50565b5b5f6146f38a828b01613c9e565b97505060206147048a828b01613c9e565b96505060406147158a828b01613cd1565b95505060606147268a828b01613cd1565b94505060806147378a828b0161468d565b93505060a06147488a828b016146b7565b92505060c06147598a828b016146b7565b91505092959891949750929550565b5f805f80606085870312156147805761477f613c50565b5b5f85013567ffffffffffffffff81111561479d5761479c613c54565b5b6147a987828801614001565b9450945050602085013567ffffffffffffffff8111156147cc576147cb613c54565b5b6147d8878288016141b6565b92505060406147e987828801613cd1565b91505092959194509250565b7f4e487b71000000000000000000000000000000000000000000000000000000005f52602260045260245ffd5b5f600282049050600182168061483957607f821691505b60208210810361484c5761484b6147f5565b5b50919050565b7f4e487b71000000000000000000000000000000000000000000000000000000005f52601160045260245ffd5b5f61488982613cb2565b915061489483613cb2565b92508282039050818111156148ac576148ab614852565b5b92915050565b7f49737375616e636520616c7265616479207374617274656400000000000000005f82015250565b5f6148e6601883613ba7565b91506148f1826148b2565b602082019050919050565b5f6020820190508181035f830152614913816148da565b9050919050565b7f4e487b71000000000000000000000000000000000000000000000000000000005f52603260045260245ffd5b5f6020828403121561495c5761495b613c50565b5b5f61496984828501613f67565b91505092915050565b5f61497c82613ec1565b915061498783613ec1565b925082820261499581613ec1565b91508082146149a7576149a6614852565b5b5092915050565b7f4e487b71000000000000000000000000000000000000000000000000000000005f52601260045260245ffd5b5f6149e582613cb2565b91506149f083613cb2565b925082614a00576149ff6149ae565b5b828204905092915050565b5f614a1582613cb2565b91507fffffffffffffffffffffffffffffffffffffffffffffffffffffffffffffffff8203614a4757614a46614852565b5b600182019050919050565b5f81905092915050565b5f819050919050565b614a6e81613c77565b82525050565b5f614a7f8383614a65565b60208301905092915050565b5f614a996020840184613c9e565b905092915050565b5f602082019050919050565b5f614ab88385614a52565b9350614ac382614a5c565b805f5b85811015614afb57614ad88284614a8b565b614ae28882614a74565b9750614aed83614aa1565b925050600181019050614ac6565b5085925050509392505050565b5f614b14828486614aad565b91508190509392505050565b5f81519050614b2e81614124565b92915050565b5f805f60608486031215614b4b57614b4a613c50565b5b5f614b5886828701614b20565b9350506020614b6986828701614b20565b9250506040614b7a86828701614b20565b9150509250925092565b614b8d81613ec1565b8114614b97575f80fd5b50565b5f81359050614ba881614b84565b92915050565b5f60208284031215614bc357614bc2613c50565b5b5f614bd084828501614b9a565b91505092915050565b5f614be382613ec1565b9150614bee83613ec1565b9250828201905068ffffffffffffffffff811115614c0f57614c0e614852565b5b92915050565b5f614c1f82613ec1565b9150614c2a83613ec1565b9250828203905068ffffffffffffffffff811115614c4b57614c4a614852565b5b92915050565b7f546f74616c2069737375616e6365206d757374206e6f74206368616e676500005f82015250565b5f614c85601e83613ba7565b9150614c9082614c51565b602082019050919050565b5f6020820190508181035f830152614cb281614c79565b9050919050565b5f614cc382613cb2565b9150614cce83613cb2565b9250828201905080821115614ce657614ce5614852565b5b92915050565b5f614cf68261454c565b9150614d018361454c565b9250828202614d0f8161454c565b9150808214614d2157614d20614852565b5b5092915050565b5f614d328261454c565b9150614d3d8361454c565b925082820190506fffffffffffffffffffffffffffffffff811115614d6557614d64614852565b5b92915050565b7f5045524d49545f444541444c494e455f455850495245440000000000000000005f82015250565b5f614d9f601783613ba7565b9150614daa82614d6b565b602082019050919050565b5f6020820190508181035f830152614dcc81614d93565b9050919050565b5f60c082019050614de65f830189613e5e565b614df36020830188613d56565b614e006040830187613d56565b614e0d6060830186613d7e565b614e1a6080830185613d7e565b614e2760a0830184613d7e565b979650505050505050565b5f81905092915050565b7f19010000000000000000000000000000000000000000000000000000000000005f82015250565b5f614e70600283614e32565b9150614e7b82614e3c565b600282019050919050565b5f819050919050565b614ea0614e9b82613e55565b614e86565b82525050565b5f614eb082614e64565b9150614ebc8285614e8f565b602082019150614ecc8284614e8f565b6020820191508190509392505050565b5f608082019050614eef5f830187613e5e565b614efc6020830186613e2d565b614f096040830185613e5e565b614f166060830184613e5e565b95945050505050565b7f494e56414c49445f5349474e45520000000000000000000000000000000000005f82015250565b5f614f53600e83613ba7565b9150614f5e82614f1f565b602082019050919050565b5f6020820190508181035f830152614f8081614f47565b9050919050565b5f614f9182613cb2565b9150614f9c83613cb2565b9250828202614faa81613cb2565b91508282048414831517614fc157614fc0614852565b5b5092915050565b5f81905092915050565b5f819050815f5260205f209050919050565b5f8154614ff081614822565b614ffa8186614fc8565b9450600182165f811461501457600181146150295761505b565b60ff198316865281151582028601935061505b565b61503285614fd2565b5f5b8381101561505357815481890152600182019150602081019050615034565b838801955050505b50505092915050565b5f61506f8284614fe4565b915081905092915050565b5f60a08201905061508d5f830188613e5e565b61509a6020830187613e5e565b6150a76040830186613e5e565b6150b46060830185613d7e565b6150c16080830184613d56565b9695505050505050565b5f6150d582614378565b91506150e083614378565b925082820190506cffffffffffffffffffffffffff81111561510557615104614852565b5b92915050565b7f4e487b71000000000000000000000000000000000000000000000000000000005f52600160045260245ffdfea26469706673582212201c2e5c321e1c414ff0c8cf256cbed0f8bf43bc180159972075d2dcc036026ea764736f6c63430008140033476f7665726e616e636520746f6b656e206f6620746865205349522070726f746f636f6c",
  "linkReferences": {},
  "deployedLinkReferences": {}
}