{
  "_format": "hh-sol-artifact-1",
  "contractName": "MockERC20",
  "sourceName": "src/test/MockERC20.sol",
  "abi": [
    {
      "inputs": [
        {
          "internalType": "string",
          "name": "name",
          "type": "string"
        },
        {
          "internalType": "string",
          "name": "symbol",
          "type": "string"
        },
        {
          "internalType": "uint8",
          "name": "decimals",
          "type": "uint8"
        }
      ],
      "stateMutability": "nonpayable",
      "type": "constructor"
    },
    {
      "anonymous": false,
      "inputs": [
        {
          "indexed": true,
          "internalType": "address",
          "name": "owner",
          "type": "address"
        },
        {
          "indexed": true,
          "internalType": "address",
          "name": "spender",
          "type": "address"
        },
        {
          "indexed": false,
          "internalType": "uint256",
          "name": "amount",
          "type": "uint256"
        }
      ],
      "name": "Approval",
      "type": "event"
    },
    {
      "anonymous": false,
      "inputs": [
        {
          "indexed": true,
          "internalType": "address",
          "name": "from",
          "type": "address"
        },
        {
          "indexed": true,
          "internalType": "address",
          "name": "to",
          "type": "address"
        },
        {
          "indexed": false,
          "internalType": "uint256",
          "name": "amount",
          "type": "uint256"
        }
      ],
      "name": "Transfer",
      "type": "event"
    },
    {
      "inputs": [],
      "name": "DOMAIN_SEPARATOR",
      "outputs": [
        {
          "internalType": "bytes32",
          "name": "",
          "type": "bytes32"
        }
      ],
      "stateMutability": "view",
      "type": "function"
    },
    {
      "inputs": [
        {
          "internalType": "address",
          "name": "",
          "type": "address"
        },
        {
          "internalType": "address",
          "name": "",
          "type": "address"
        }
      ],
      "name": "allowance",
      "outputs": [
        {
          "internalType": "uint256",
          "name": "",
          "type": "uint256"
        }
      ],
      "stateMutability": "view",
      "type": "function"
    },
    {
      "inputs": [
        {
          "internalType": "address",
          "name": "spender",
          "type": "address"
        },
        {
          "internalType": "uint256",
          "name": "amount",
          "type": "uint256"
        }
      ],
      "name": "approve",
      "outputs": [
        {
          "internalType": "bool",
          "name": "",
          "type": "bool"
        }
      ],
      "stateMutability": "nonpayable",
      "type": "function"
    },
    {
      "inputs": [
        {
          "internalType": "address",
          "name": "",
          "type": "address"
        }
      ],
      "name": "balanceOf",
      "outputs": [
        {
          "internalType": "uint256",
          "name": "",
          "type": "uint256"
        }
      ],
      "stateMutability": "view",
      "type": "function"
    },
    {
      "inputs": [
        {
          "internalType": "uint256",
          "name": "amount",
          "type": "uint256"
        }
      ],
      "name": "burn",
      "outputs": [],
      "stateMutability": "nonpayable",
      "type": "function"
    },
    {
      "inputs": [],
      "name": "burnAll",
      "outputs": [],
      "stateMutability": "nonpayable",
      "type": "function"
    },
    {
      "inputs": [],
      "name": "decimals",
      "outputs": [
        {
          "internalType": "uint8",
          "name": "",
          "type": "uint8"
        }
      ],
      "stateMutability": "view",
      "type": "function"
    },
    {
      "inputs": [
        {
          "internalType": "uint256",
          "name": "amount",
          "type": "uint256"
        }
      ],
      "name": "mint",
      "outputs": [],
      "stateMutability": "nonpayable",
      "type": "function"
    },
    {
      "inputs": [],
      "name": "name",
      "outputs": [
        {
          "internalType": "string",
          "name": "",
          "type": "string"
        }
      ],
      "stateMutability": "view",
      "type": "function"
    },
    {
      "inputs": [
        {
          "internalType": "address",
          "name": "",
          "type": "address"
        }
      ],
      "name": "nonces",
      "outputs": [
        {
          "internalType": "uint256",
          "name": "",
          "type": "uint256"
        }
      ],
      "stateMutability": "view",
      "type": "function"
    },
    {
      "inputs": [
        {
          "internalType": "address",
          "name": "owner",
          "type": "address"
        },
        {
          "internalType": "address",
          "name": "spender",
          "type": "address"
        },
        {
          "internalType": "uint256",
          "name": "value",
          "type": "uint256"
        },
        {
          "internalType": "uint256",
          "name": "deadline",
          "type": "uint256"
        },
        {
          "internalType": "uint8",
          "name": "v",
          "type": "uint8"
        },
        {
          "internalType": "bytes32",
          "name": "r",
          "type": "bytes32"
        },
        {
          "internalType": "bytes32",
          "name": "s",
          "type": "bytes32"
        }
      ],
      "name": "permit",
      "outputs": [],
      "stateMutability": "nonpayable",
      "type": "function"
    },
    {
      "inputs": [],
      "name": "symbol",
      "outputs": [
        {
          "internalType": "string",
          "name": "",
          "type": "string"
        }
      ],
      "stateMutability": "view",
      "type": "function"
    },
    {
      "inputs": [],
      "name": "totalSupply",
      "outputs": [
        {
          "internalType": "uint256",
          "name": "",
          "type": "uint256"
        }
      ],
      "stateMutability": "view",
      "type": "function"
    },
    {
      "inputs": [
        {
          "internalType": "address",
          "name": "to",
          "type": "address"
        },
        {
          "internalType": "uint256",
          "name": "amount",
          "type": "uint256"
        }
      ],
      "name": "transfer",
      "outputs": [
        {
          "internalType": "bool",
          "name": "",
          "type": "bool"
        }
      ],
      "stateMutability": "nonpayable",
      "type": "function"
    },
    {
      "inputs": [
        {
          "internalType": "address",
          "name": "from",
          "type": "address"
        },
        {
          "internalType": "address",
          "name": "to",
          "type": "address"
        },
        {
          "internalType": "uint256",
          "name": "amount",
          "type": "uint256"
        }
      ],
      "name": "transferFrom",
      "outputs": [
        {
          "internalType": "bool",
          "name": "",
          "type": "bool"
        }
      ],
      "stateMutability": "nonpayable",
      "type": "function"
    }
  ],
  "bytecode": "0x60e060405234801562000010575f80fd5b5060405162001f4238038062001f428339818101604052810190620000369190620002e3565b828282825f9081620000499190620005b1565b5081600190816200005b9190620005b1565b508060ff1660808160ff16815250504660a08181525050620000826200009560201b60201c565b60c081815250505050505050506200081e565b5f7f8b73c3c69bb8fe3d512ecc4cf759cc79239f7b179b0ffacaa9a75d522b39400f5f604051620000c791906200073d565b60405180910390207fc89efdaa54c0f20c7adf612882df0950f5a951637e0307cdcb4c672f298b8bc6463060405160200162000108959493929190620007c3565b60405160208183030381529060405280519060200120905090565b5f604051905090565b5f80fd5b5f80fd5b5f80fd5b5f80fd5b5f601f19601f8301169050919050565b7f4e487b71000000000000000000000000000000000000000000000000000000005f52604160045260245ffd5b62000184826200013c565b810181811067ffffffffffffffff82111715620001a657620001a56200014c565b5b80604052505050565b5f620001ba62000123565b9050620001c8828262000179565b919050565b5f67ffffffffffffffff821115620001ea57620001e96200014c565b5b620001f5826200013c565b9050602081019050919050565b5f5b838110156200022157808201518184015260208101905062000204565b5f8484015250505050565b5f620002426200023c84620001cd565b620001af565b90508281526020810184848401111562000261576200026062000138565b5b6200026e84828562000202565b509392505050565b5f82601f8301126200028d576200028c62000134565b5b81516200029f8482602086016200022c565b91505092915050565b5f60ff82169050919050565b620002bf81620002a8565b8114620002ca575f80fd5b50565b5f81519050620002dd81620002b4565b92915050565b5f805f60608486031215620002fd57620002fc6200012c565b5b5f84015167ffffffffffffffff8111156200031d576200031c62000130565b5b6200032b8682870162000276565b935050602084015167ffffffffffffffff8111156200034f576200034e62000130565b5b6200035d8682870162000276565b92505060406200037086828701620002cd565b9150509250925092565b5f81519050919050565b7f4e487b71000000000000000000000000000000000000000000000000000000005f52602260045260245ffd5b5f6002820490506001821680620003c957607f821691505b602082108103620003df57620003de62000384565b5b50919050565b5f819050815f5260205f209050919050565b5f6020601f8301049050919050565b5f82821b905092915050565b5f60088302620004437fffffffffffffffffffffffffffffffffffffffffffffffffffffffffffffffff8262000406565b6200044f868362000406565b95508019841693508086168417925050509392505050565b5f819050919050565b5f819050919050565b5f62000499620004936200048d8462000467565b62000470565b62000467565b9050919050565b5f819050919050565b620004b48362000479565b620004cc620004c382620004a0565b84845462000412565b825550505050565b5f90565b620004e2620004d4565b620004ef818484620004a9565b505050565b5b8181101562000516576200050a5f82620004d8565b600181019050620004f5565b5050565b601f82111562000565576200052f81620003e5565b6200053a84620003f7565b810160208510156200054a578190505b620005626200055985620003f7565b830182620004f4565b50505b505050565b5f82821c905092915050565b5f620005875f19846008026200056a565b1980831691505092915050565b5f620005a1838362000576565b9150826002028217905092915050565b620005bc826200037a565b67ffffffffffffffff811115620005d857620005d76200014c565b5b620005e48254620003b1565b620005f18282856200051a565b5f60209050601f83116001811462000627575f841562000612578287015190505b6200061e858262000594565b8655506200068d565b601f1984166200063786620003e5565b5f5b82811015620006605784890151825560018201915060208501945060208101905062000639565b868310156200068057848901516200067c601f89168262000576565b8355505b6001600288020188555050505b505050505050565b5f81905092915050565b5f819050815f5260205f209050919050565b5f8154620006bf81620003b1565b620006cb818662000695565b9450600182165f8114620006e85760018114620006fe5762000734565b60ff198316865281151582028601935062000734565b62000709856200069f565b5f5b838110156200072c578154818901526001820191506020810190506200070b565b838801955050505b50505092915050565b5f6200074a8284620006b1565b915081905092915050565b5f819050919050565b620007698162000755565b82525050565b6200077a8162000467565b82525050565b5f73ffffffffffffffffffffffffffffffffffffffff82169050919050565b5f620007ab8262000780565b9050919050565b620007bd816200079f565b82525050565b5f60a082019050620007d85f8301886200075e565b620007e760208301876200075e565b620007f660408301866200075e565b6200080560608301856200076f565b620008146080830184620007b2565b9695505050505050565b60805160a05160c0516116f9620008495f395f61071f01525f6106eb01525f6106c601526116f95ff3fe608060405234801561000f575f80fd5b50600436106100f3575f3560e01c806370a0823111610095578063a0712d6811610064578063a0712d6814610273578063a9059cbb1461028f578063d505accf146102bf578063dd62ed3e146102db576100f3565b806370a08231146101eb5780637ecebe001461021b57806395d89b411461024b5780639975038c14610269576100f3565b806323b872dd116100d157806323b872dd14610163578063313ce567146101935780633644e515146101b157806342966c68146101cf576100f3565b806306fdde03146100f7578063095ea7b31461011557806318160ddd14610145575b5f80fd5b6100ff61030b565b60405161010c9190610f21565b60405180910390f35b61012f600480360381019061012a9190610fd2565b610396565b60405161013c919061102a565b60405180910390f35b61014d610483565b60405161015a9190611052565b60405180910390f35b61017d6004803603810190610178919061106b565b610489565b60405161018a919061102a565b60405180910390f35b61019b6106c4565b6040516101a891906110d6565b60405180910390f35b6101b96106e8565b6040516101c69190611107565b60405180910390f35b6101e960048036038101906101e49190611120565b610744565b005b6102056004803603810190610200919061114b565b610751565b6040516102129190611052565b60405180910390f35b6102356004803603810190610230919061114b565b610766565b6040516102429190611052565b60405180910390f35b61025361077b565b6040516102609190610f21565b60405180910390f35b610271610807565b005b61028d60048036038101906102889190611120565b610850565b005b6102a960048036038101906102a49190610fd2565b61085d565b6040516102b6919061102a565b60405180910390f35b6102d960048036038101906102d491906111ca565b61096a565b005b6102f560048036038101906102f09190611267565b610c57565b6040516103029190611052565b60405180910390f35b5f8054610317906112d2565b80601f0160208091040260200160405190810160405280929190818152602001828054610343906112d2565b801561038e5780601f106103655761010080835404028352916020019161038e565b820191905f5260205f20905b81548152906001019060200180831161037157829003601f168201915b505050505081565b5f8160045f3373ffffffffffffffffffffffffffffffffffffffff1673ffffffffffffffffffffffffffffffffffffffff1681526020019081526020015f205f8573ffffffffffffffffffffffffffffffffffffffff1673ffffffffffffffffffffffffffffffffffffffff1681526020019081526020015f20819055508273ffffffffffffffffffffffffffffffffffffffff163373ffffffffffffffffffffffffffffffffffffffff167f8c5be1e5ebec7d5bd14f71427d1e84f3dd0314c0f7b2291e5b200ac8c7c3b925846040516104719190611052565b60405180910390a36001905092915050565b60025481565b5f8060045f8673ffffffffffffffffffffffffffffffffffffffff1673ffffffffffffffffffffffffffffffffffffffff1681526020019081526020015f205f3373ffffffffffffffffffffffffffffffffffffffff1673ffffffffffffffffffffffffffffffffffffffff1681526020019081526020015f205490507fffffffffffffffffffffffffffffffffffffffffffffffffffffffffffffffff81146105b6578281610539919061132f565b60045f8773ffffffffffffffffffffffffffffffffffffffff1673ffffffffffffffffffffffffffffffffffffffff1681526020019081526020015f205f3373ffffffffffffffffffffffffffffffffffffffff1673ffffffffffffffffffffffffffffffffffffffff1681526020019081526020015f20819055505b8260035f8773ffffffffffffffffffffffffffffffffffffffff1673ffffffffffffffffffffffffffffffffffffffff1681526020019081526020015f205f828254610602919061132f565b925050819055508260035f8673ffffffffffffffffffffffffffffffffffffffff1673ffffffffffffffffffffffffffffffffffffffff1681526020019081526020015f205f82825401925050819055508373ffffffffffffffffffffffffffffffffffffffff168573ffffffffffffffffffffffffffffffffffffffff167fddf252ad1be2c89b69c2b068fc378daa952ba7f163c4a11628f55a4df523b3ef856040516106b09190611052565b60405180910390a360019150509392505050565b7f000000000000000000000000000000000000000000000000000000000000000081565b5f7f0000000000000000000000000000000000000000000000000000000000000000461461071d57610718610c77565b61073f565b7f00000000000000000000000000000000000000000000000000000000000000005b905090565b61074e3382610d01565b50565b6003602052805f5260405f205f915090505481565b6005602052805f5260405f205f915090505481565b60018054610788906112d2565b80601f01602080910402602001604051908101604052809291908181526020018280546107b4906112d2565b80156107ff5780601f106107d6576101008083540402835291602001916107ff565b820191905f5260205f20905b8154815290600101906020018083116107e257829003601f168201915b505050505081565b61084e3360035f3373ffffffffffffffffffffffffffffffffffffffff1673ffffffffffffffffffffffffffffffffffffffff1681526020019081526020015f2054610d01565b565b61085a3382610dcc565b50565b5f8160035f3373ffffffffffffffffffffffffffffffffffffffff1673ffffffffffffffffffffffffffffffffffffffff1681526020019081526020015f205f8282546108aa919061132f565b925050819055508160035f8573ffffffffffffffffffffffffffffffffffffffff1673ffffffffffffffffffffffffffffffffffffffff1681526020019081526020015f205f82825401925050819055508273ffffffffffffffffffffffffffffffffffffffff163373ffffffffffffffffffffffffffffffffffffffff167fddf252ad1be2c89b69c2b068fc378daa952ba7f163c4a11628f55a4df523b3ef846040516109589190611052565b60405180910390a36001905092915050565b428410156109ad576040517f08c379a00000000000000000000000000000000000000000000000000000000081526004016109a4906113ac565b60405180910390fd5b5f60016109b86106e8565b7f6e71edae12b1b97f4d1f60370fef10105fa2faae0126114a169c64845d6126c98a8a8a60055f8f73ffffffffffffffffffffffffffffffffffffffff1673ffffffffffffffffffffffffffffffffffffffff1681526020019081526020015f205f815480929190600101919050558b604051602001610a3d969594939291906113d9565b60405160208183030381529060405280519060200120604051602001610a649291906114ac565b604051602081830303815290604052805190602001208585856040515f8152602001604052604051610a9994939291906114e2565b6020604051602081039080840390855afa158015610ab9573d5f803e3d5ffd5b5050506020604051035190505f73ffffffffffffffffffffffffffffffffffffffff168173ffffffffffffffffffffffffffffffffffffffff1614158015610b2c57508773ffffffffffffffffffffffffffffffffffffffff168173ffffffffffffffffffffffffffffffffffffffff16145b610b6b576040517f08c379a0000000000000000000000000000000000000000000000000000000008152600401610b629061156f565b60405180910390fd5b8560045f8373ffffffffffffffffffffffffffffffffffffffff1673ffffffffffffffffffffffffffffffffffffffff1681526020019081526020015f205f8973ffffffffffffffffffffffffffffffffffffffff1673ffffffffffffffffffffffffffffffffffffffff1681526020019081526020015f2081905550508573ffffffffffffffffffffffffffffffffffffffff168773ffffffffffffffffffffffffffffffffffffffff167f8c5be1e5ebec7d5bd14f71427d1e84f3dd0314c0f7b2291e5b200ac8c7c3b92587604051610c469190611052565b60405180910390a350505050505050565b6004602052815f5260405f20602052805f5260405f205f91509150505481565b5f7f8b73c3c69bb8fe3d512ecc4cf759cc79239f7b179b0ffacaa9a75d522b39400f5f604051610ca79190611629565b60405180910390207fc89efdaa54c0f20c7adf612882df0950f5a951637e0307cdcb4c672f298b8bc64630604051602001610ce695949392919061163f565b60405160208183030381529060405280519060200120905090565b8060035f8473ffffffffffffffffffffffffffffffffffffffff1673ffffffffffffffffffffffffffffffffffffffff1681526020019081526020015f205f828254610d4d919061132f565b925050819055508060025f82825403925050819055505f73ffffffffffffffffffffffffffffffffffffffff168273ffffffffffffffffffffffffffffffffffffffff167fddf252ad1be2c89b69c2b068fc378daa952ba7f163c4a11628f55a4df523b3ef83604051610dc09190611052565b60405180910390a35050565b8060025f828254610ddd9190611690565b925050819055508060035f8473ffffffffffffffffffffffffffffffffffffffff1673ffffffffffffffffffffffffffffffffffffffff1681526020019081526020015f205f82825401925050819055508173ffffffffffffffffffffffffffffffffffffffff165f73ffffffffffffffffffffffffffffffffffffffff167fddf252ad1be2c89b69c2b068fc378daa952ba7f163c4a11628f55a4df523b3ef83604051610e8b9190611052565b60405180910390a35050565b5f81519050919050565b5f82825260208201905092915050565b5f5b83811015610ece578082015181840152602081019050610eb3565b5f8484015250505050565b5f601f19601f8301169050919050565b5f610ef382610e97565b610efd8185610ea1565b9350610f0d818560208601610eb1565b610f1681610ed9565b840191505092915050565b5f6020820190508181035f830152610f398184610ee9565b905092915050565b5f80fd5b5f73ffffffffffffffffffffffffffffffffffffffff82169050919050565b5f610f6e82610f45565b9050919050565b610f7e81610f64565b8114610f88575f80fd5b50565b5f81359050610f9981610f75565b92915050565b5f819050919050565b610fb181610f9f565b8114610fbb575f80fd5b50565b5f81359050610fcc81610fa8565b92915050565b5f8060408385031215610fe857610fe7610f41565b5b5f610ff585828601610f8b565b925050602061100685828601610fbe565b9150509250929050565b5f8115159050919050565b61102481611010565b82525050565b5f60208201905061103d5f83018461101b565b92915050565b61104c81610f9f565b82525050565b5f6020820190506110655f830184611043565b92915050565b5f805f6060848603121561108257611081610f41565b5b5f61108f86828701610f8b565b93505060206110a086828701610f8b565b92505060406110b186828701610fbe565b9150509250925092565b5f60ff82169050919050565b6110d0816110bb565b82525050565b5f6020820190506110e95f8301846110c7565b92915050565b5f819050919050565b611101816110ef565b82525050565b5f60208201905061111a5f8301846110f8565b92915050565b5f6020828403121561113557611134610f41565b5b5f61114284828501610fbe565b91505092915050565b5f602082840312156111605761115f610f41565b5b5f61116d84828501610f8b565b91505092915050565b61117f816110bb565b8114611189575f80fd5b50565b5f8135905061119a81611176565b92915050565b6111a9816110ef565b81146111b3575f80fd5b50565b5f813590506111c4816111a0565b92915050565b5f805f805f805f60e0888a0312156111e5576111e4610f41565b5b5f6111f28a828b01610f8b565b97505060206112038a828b01610f8b565b96505060406112148a828b01610fbe565b95505060606112258a828b01610fbe565b94505060806112368a828b0161118c565b93505060a06112478a828b016111b6565b92505060c06112588a828b016111b6565b91505092959891949750929550565b5f806040838503121561127d5761127c610f41565b5b5f61128a85828601610f8b565b925050602061129b85828601610f8b565b9150509250929050565b7f4e487b71000000000000000000000000000000000000000000000000000000005f52602260045260245ffd5b5f60028204905060018216806112e957607f821691505b6020821081036112fc576112fb6112a5565b5b50919050565b7f4e487b71000000000000000000000000000000000000000000000000000000005f52601160045260245ffd5b5f61133982610f9f565b915061134483610f9f565b925082820390508181111561135c5761135b611302565b5b92915050565b7f5045524d49545f444541444c494e455f455850495245440000000000000000005f82015250565b5f611396601783610ea1565b91506113a182611362565b602082019050919050565b5f6020820190508181035f8301526113c38161138a565b9050919050565b6113d381610f64565b82525050565b5f60c0820190506113ec5f8301896110f8565b6113f960208301886113ca565b61140660408301876113ca565b6114136060830186611043565b6114206080830185611043565b61142d60a0830184611043565b979650505050505050565b5f81905092915050565b7f19010000000000000000000000000000000000000000000000000000000000005f82015250565b5f611476600283611438565b915061148182611442565b600282019050919050565b5f819050919050565b6114a66114a1826110ef565b61148c565b82525050565b5f6114b68261146a565b91506114c28285611495565b6020820191506114d28284611495565b6020820191508190509392505050565b5f6080820190506114f55f8301876110f8565b61150260208301866110c7565b61150f60408301856110f8565b61151c60608301846110f8565b95945050505050565b7f494e56414c49445f5349474e45520000000000000000000000000000000000005f82015250565b5f611559600e83610ea1565b915061156482611525565b602082019050919050565b5f6020820190508181035f8301526115868161154d565b9050919050565b5f81905092915050565b5f819050815f5260205f209050919050565b5f81546115b5816112d2565b6115bf818661158d565b9450600182165f81146115d957600181146115ee57611620565b60ff1983168652811515820286019350611620565b6115f785611597565b5f5b83811015611618578154818901526001820191506020810190506115f9565b838801955050505b50505092915050565b5f61163482846115a9565b915081905092915050565b5f60a0820190506116525f8301886110f8565b61165f60208301876110f8565b61166c60408301866110f8565b6116796060830185611043565b61168660808301846113ca565b9695505050505050565b5f61169a82610f9f565b91506116a583610f9f565b92508282019050808211156116bd576116bc611302565b5b9291505056fea264697066735822122064c6e4f943f4849e34a943a09647bf9cd82d36267e1830989ee978e9beaf570164736f6c63430008140033",
  "linkReferences": {},
  "deployedLinkReferences": {}
}