{
  "_format": "hh-sol-artifact-1",
  "contractName": "SystemControl",
  "sourceName": "src/SystemControl.sol",
  "abi": [
    {
      "inputs": [
        {
          "internalType": "address",
          "name": "systemState",
          "type": "address"
        },
        {
          "internalType": "address",
          "name": "sir",
          "type": "address"
        }
      ],
      "stateMutability": "nonpayable",
      "type": "constructor"
    },
    {
      "inputs": [],
      "name": "ArraysLengthMismatch",
      "type": "error"
    },
    {
      "inputs": [],
      "name": "CannotCallWhenBetaIsOver",
      "type": "error"
    },
    {
      "inputs": [],
      "name": "ContributorsIssuanceExceedsMaxIssuance",
      "type": "error"
    },
    {
      "inputs": [],
      "name": "NewTaxesTooHigh",
      "type": "error"
    },
    {
      "inputs": [],
      "name": "WrongNewVaultsOrder",
      "type": "error"
    },
    {
      "inputs": [],
      "name": "WrongOldVaultsOrder",
      "type": "error"
    },
    {
      "anonymous": false,
      "inputs": [],
      "name": "BetaIsOver",
      "type": "event"
    },
    {
      "anonymous": false,
      "inputs": [
        {
          "indexed": true,
          "internalType": "bool",
          "name": "",
          "type": "bool"
        }
      ],
      "name": "EmergencyStop",
      "type": "event"
    },
    {
      "anonymous": false,
      "inputs": [
        {
          "indexed": false,
          "internalType": "uint40",
          "name": "tsIssuanceStart",
          "type": "uint40"
        }
      ],
      "name": "IssuanceStart",
      "type": "event"
    },
    {
      "anonymous": false,
      "inputs": [
        {
          "indexed": false,
          "internalType": "uint16",
          "name": "baseFee",
          "type": "uint16"
        }
      ],
      "name": "NewBaseFee",
      "type": "event"
    },
    {
      "anonymous": false,
      "inputs": [
        {
          "indexed": false,
          "internalType": "uint8",
          "name": "lpFee",
          "type": "uint8"
        }
      ],
      "name": "NewLPFee",
      "type": "event"
    },
    {
      "anonymous": false,
      "inputs": [
        {
          "indexed": true,
          "internalType": "address",
          "name": "previousOwner",
          "type": "address"
        },
        {
          "indexed": true,
          "internalType": "address",
          "name": "newOwner",
          "type": "address"
        }
      ],
      "name": "OwnershipTransferred",
      "type": "event"
    },
    {
      "inputs": [],
      "name": "SIR_TOKEN",
      "outputs": [
        {
          "internalType": "contract SIR",
          "name": "",
          "type": "address"
        }
      ],
      "stateMutability": "view",
      "type": "function"
    },
    {
      "inputs": [],
      "name": "VAULT",
      "outputs": [
        {
          "internalType": "contract Vault",
          "name": "",
          "type": "address"
        }
      ],
      "stateMutability": "view",
      "type": "function"
    },
    {
      "inputs": [],
      "name": "betaPeriod",
      "outputs": [
        {
          "internalType": "bool",
          "name": "",
          "type": "bool"
        }
      ],
      "stateMutability": "view",
      "type": "function"
    },
    {
      "inputs": [],
      "name": "exitBeta",
      "outputs": [],
      "stateMutability": "nonpayable",
      "type": "function"
    },
    {
      "inputs": [],
      "name": "haultMinting",
      "outputs": [],
      "stateMutability": "nonpayable",
      "type": "function"
    },
    {
      "inputs": [],
      "name": "owner",
      "outputs": [
        {
          "internalType": "address",
          "name": "",
          "type": "address"
        }
      ],
      "stateMutability": "view",
      "type": "function"
    },
    {
      "inputs": [],
      "name": "renounceOwnership",
      "outputs": [],
      "stateMutability": "nonpayable",
      "type": "function"
    },
    {
      "inputs": [],
      "name": "resumeMinting",
      "outputs": [],
      "stateMutability": "nonpayable",
      "type": "function"
    },
    {
      "inputs": [
        {
          "internalType": "uint16",
          "name": "baseFee",
          "type": "uint16"
        }
      ],
      "name": "setBaseFee",
      "outputs": [],
      "stateMutability": "nonpayable",
      "type": "function"
    },
    {
      "inputs": [
        {
          "internalType": "uint8",
          "name": "lpFee",
          "type": "uint8"
        }
      ],
      "name": "setLPFee",
      "outputs": [],
      "stateMutability": "nonpayable",
      "type": "function"
    },
    {
      "inputs": [
        {
          "internalType": "uint40",
          "name": "tsStart",
          "type": "uint40"
        }
      ],
      "name": "startIssuanceOfSIR",
      "outputs": [],
      "stateMutability": "nonpayable",
      "type": "function"
    },
    {
      "inputs": [
        {
          "internalType": "address",
          "name": "newOwner",
          "type": "address"
        }
      ],
      "name": "transferOwnership",
      "outputs": [],
      "stateMutability": "nonpayable",
      "type": "function"
    },
    {
      "inputs": [
        {
          "internalType": "address[]",
          "name": "contributors",
          "type": "address[]"
        },
        {
          "internalType": "uint72[]",
          "name": "contributorIssuances",
          "type": "uint72[]"
        }
      ],
      "name": "updateContributorsIssuances",
      "outputs": [],
      "stateMutability": "nonpayable",
      "type": "function"
    },
    {
      "inputs": [
        {
          "internalType": "uint40[]",
          "name": "oldVaults",
          "type": "uint40[]"
        },
        {
          "internalType": "uint40[]",
          "name": "newVaults",
          "type": "uint40[]"
        },
        {
          "internalType": "uint16[]",
          "name": "newTaxes",
          "type": "uint16[]"
        }
      ],
      "name": "updateVaultsIssuances",
      "outputs": [],
      "stateMutability": "nonpayable",
      "type": "function"
    },
    {
      "inputs": [
        {
          "internalType": "uint40",
          "name": "vaultId",
          "type": "uint40"
        },
        {
          "internalType": "address",
          "name": "to",
          "type": "address"
        }
      ],
      "name": "widhtdrawDAOFees",
      "outputs": [],
      "stateMutability": "nonpayable",
      "type": "function"
    }
  ],
  "bytecode": "0x60c0604052600160025f6101000a81548160ff0219169083151502179055507fc5d2460186f7233c927e7db2dcc703c0e500b653ca82273b7bfad8045d85a4705f1b60035534801562000050575f80fd5b506040516200290b3803806200290b833981810160405281019062000076919062000233565b620000966200008a6200010660201b60201c565b6200010d60201b60201c565b8173ffffffffffffffffffffffffffffffffffffffff1660808173ffffffffffffffffffffffffffffffffffffffff16815250508073ffffffffffffffffffffffffffffffffffffffff1660a08173ffffffffffffffffffffffffffffffffffffffff1681525050505062000278565b5f33905090565b5f805f9054906101000a900473ffffffffffffffffffffffffffffffffffffffff169050815f806101000a81548173ffffffffffffffffffffffffffffffffffffffff021916908373ffffffffffffffffffffffffffffffffffffffff1602179055508173ffffffffffffffffffffffffffffffffffffffff168173ffffffffffffffffffffffffffffffffffffffff167f8be0079c531659141344cd1fd0a4f28419497f9722a3daafe3b4186f6b6457e060405160405180910390a35050565b5f80fd5b5f73ffffffffffffffffffffffffffffffffffffffff82169050919050565b5f620001fd82620001d2565b9050919050565b6200020f81620001f1565b81146200021a575f80fd5b50565b5f815190506200022d8162000204565b92915050565b5f80604083850312156200024c576200024b620001ce565b5b5f6200025b858286016200021d565b92505060206200026e858286016200021d565b9150509250929050565b60805160a051612639620002d25f395f8181611083015261116001525f81816104670152818161058201528181610728015281816107540152818161090c01528181610aff01528181610cc00152610e5401526126395ff3fe608060405234801561000f575f80fd5b50600436106100f3575f3560e01c8063715018a611610095578063b69bf53711610064578063b69bf537146101fb578063bed3070214610205578063d038a26814610221578063f2fde38b1461023f576100f3565b8063715018a6146101ad5780637e84e100146101b75780638022bdbd146101d35780638da5cb5b146101dd576100f3565b806359ae340e116100d157806359ae340e1461014d57806360205f9b1461015757806361f6b239146101755780637145355414610191576100f3565b8063229eb342146100f75780633b586c7f14610113578063411557d11461012f575b5f80fd5b610111600480360381019061010c9190611408565b61025b565b005b61012d600480360381019061012891906114ef565b610533565b005b610137610726565b6040516101449190611594565b60405180910390f35b61015561074a565b005b61015f6108f0565b60405161016c91906115c7565b60405180910390f35b61018f600480360381019061018a919061161a565b610902565b005b6101ab60048036038101906101a6919061167b565b610ab0565b005b6101b5610ca3565b005b6101d160048036038101906101cc91906116e1565b610cb6565b005b6101db610d4a565b005b6101e5610dde565b6040516101f2919061172e565b60405180910390f35b610203610e05565b005b61021f600480360381019061021a91906117f1565b610ff1565b005b61022961115e565b604051610236919061188f565b60405180910390f35b610259600480360381019061025491906118a8565b611182565b005b610263611204565b5f8484905090508083839050146102a6576040517ffc23596000000000000000000000000000000000000000000000000000000000815260040160405180910390fd5b86866040516020016102b9929190611989565b6040516020818303038152906040528051906020012060035414610309576040517ffeb60fb600000000000000000000000000000000000000000000000000000000815260040160405180910390fd5b5f805f90505b8281101561041a57600285858381811061032c5761032b6119a1565b5b905060200201602081019061034191906114ef565b61ffff1661034f9190611b33565b8261035a9190611b7d565b91505f811180156103d3575086866001836103759190611bb0565b818110610385576103846119a1565b5b905060200201602081019061039a919061161a565b64ffffffffff168787838181106103b4576103b36119a1565b5b90506020020160208101906103c9919061161a565b64ffffffffff1611155b15610409576040517e5165a700000000000000000000000000000000000000000000000000000000815260040160405180910390fd5b8061041390611be3565b905061030f565b50600261ffff801661042c9190611b33565b811115610465576040517f25541a6a00000000000000000000000000000000000000000000000000000000815260040160405180910390fd5b7f000000000000000000000000000000000000000000000000000000000000000073ffffffffffffffffffffffffffffffffffffffff1663f8955c615f805f805f8e8e8e8e8e8e6040518c63ffffffff1660e01b81526004016104d29b9a99989796959493929190611e10565b5f604051808303815f87803b1580156104e9575f80fd5b505af11580156104fb573d5f803e3d5ffd5b505050508585604051602001610512929190611989565b60405160208183030381529060405280519060200120505050505050505050565b61053b611204565b60025f9054906101000a900460ff16610580576040517fa6eb890100000000000000000000000000000000000000000000000000000000815260040160405180910390fd5b7f000000000000000000000000000000000000000000000000000000000000000073ffffffffffffffffffffffffffffffffffffffff1663f8955c615f835f805f8067ffffffffffffffff8111156105db576105da611ea7565b5b6040519080825280602002602001820160405280156106095781602001602082028036833780820191505090505b505f67ffffffffffffffff81111561062457610623611ea7565b5b6040519080825280602002602001820160405280156106525781602001602082028036833780820191505090505b505f67ffffffffffffffff81111561066d5761066c611ea7565b5b60405190808252806020026020018201604052801561069b5781602001602082028036833780820191505090505b506040518963ffffffff1660e01b81526004016106bf989796959493929190611fe5565b5f604051808303815f87803b1580156106d6575f80fd5b505af11580156106e8573d5f803e3d5ffd5b505050507f95704319ef4b9cab06f0898e050908d5a1abd11dae7ce87e9077c4f9a071a4878160405161071b9190612076565b60405180910390a150565b7f000000000000000000000000000000000000000000000000000000000000000081565b610752611204565b7f000000000000000000000000000000000000000000000000000000000000000073ffffffffffffffffffffffffffffffffffffffff1663f8955c615f805f8060015f67ffffffffffffffff8111156107ae576107ad611ea7565b5b6040519080825280602002602001820160405280156107dc5781602001602082028036833780820191505090505b505f67ffffffffffffffff8111156107f7576107f6611ea7565b5b6040519080825280602002602001820160405280156108255781602001602082028036833780820191505090505b505f67ffffffffffffffff8111156108405761083f611ea7565b5b60405190808252806020026020018201604052801561086e5781602001602082028036833780820191505090505b506040518963ffffffff1660e01b815260040161089298979695949392919061208f565b5f604051808303815f87803b1580156108a9575f80fd5b505af11580156108bb573d5f803e3d5ffd5b505050505f15157fcbe1b789cda412d9e1c647ed03d0c71e2f71484be36f9ca2b2a346b29edf1b7060405160405180910390a2565b60025f9054906101000a900460ff1681565b61090a611204565b7f000000000000000000000000000000000000000000000000000000000000000073ffffffffffffffffffffffffffffffffffffffff1663f8955c61825f805f805f67ffffffffffffffff81111561096557610964611ea7565b5b6040519080825280602002602001820160405280156109935781602001602082028036833780820191505090505b505f67ffffffffffffffff8111156109ae576109ad611ea7565b5b6040519080825280602002602001820160405280156109dc5781602001602082028036833780820191505090505b505f67ffffffffffffffff8111156109f7576109f6611ea7565b5b604051908082528060200260200182016040528015610a255781602001602082028036833780820191505090505b506040518963ffffffff1660e01b8152600401610a4998979695949392919061212f565b5f604051808303815f87803b158015610a60575f80fd5b505af1158015610a72573d5f803e3d5ffd5b505050507fca16588572a0da11defe197574fb992a4e20824a90306bd0073f6d39e193bb5c81604051610aa591906121c0565b60405180910390a150565b610ab8611204565b60025f9054906101000a900460ff16610afd576040517fa6eb890100000000000000000000000000000000000000000000000000000000815260040160405180910390fd5b7f000000000000000000000000000000000000000000000000000000000000000073ffffffffffffffffffffffffffffffffffffffff1663f8955c615f80845f805f67ffffffffffffffff811115610b5857610b57611ea7565b5b604051908082528060200260200182016040528015610b865781602001602082028036833780820191505090505b505f67ffffffffffffffff811115610ba157610ba0611ea7565b5b604051908082528060200260200182016040528015610bcf5781602001602082028036833780820191505090505b505f67ffffffffffffffff811115610bea57610be9611ea7565b5b604051908082528060200260200182016040528015610c185781602001602082028036833780820191505090505b506040518963ffffffff1660e01b8152600401610c3c9897969594939291906121e8565b5f604051808303815f87803b158015610c53575f80fd5b505af1158015610c65573d5f803e3d5ffd5b505050507fd4876f6620fd5382232a4dd0060f59464ed6b1938bea643dae7a03e812aeb85f81604051610c989190612279565b60405180910390a150565b610cab611204565b610cb45f611282565b565b610cbe611204565b7f000000000000000000000000000000000000000000000000000000000000000073ffffffffffffffffffffffffffffffffffffffff16637e84e10083836040518363ffffffff1660e01b8152600401610d19929190612292565b5f604051808303815f87803b158015610d30575f80fd5b505af1158015610d42573d5f803e3d5ffd5b505050505050565b610d52611204565b60025f9054906101000a900460ff16610d97576040517fa6eb890100000000000000000000000000000000000000000000000000000000815260040160405180910390fd5b5f60025f6101000a81548160ff0219169083151502179055507fb600022aa4f3eb9c5d1704c38bc238681459d40f792d4abac2dbf14adc20778260405160405180910390a1565b5f805f9054906101000a900473ffffffffffffffffffffffffffffffffffffffff16905090565b610e0d611204565b60025f9054906101000a900460ff16610e52576040517fa6eb890100000000000000000000000000000000000000000000000000000000815260040160405180910390fd5b7f000000000000000000000000000000000000000000000000000000000000000073ffffffffffffffffffffffffffffffffffffffff1663f8955c615f805f60015f8067ffffffffffffffff811115610eae57610ead611ea7565b5b604051908082528060200260200182016040528015610edc5781602001602082028036833780820191505090505b505f67ffffffffffffffff811115610ef757610ef6611ea7565b5b604051908082528060200260200182016040528015610f255781602001602082028036833780820191505090505b505f67ffffffffffffffff811115610f4057610f3f611ea7565b5b604051908082528060200260200182016040528015610f6e5781602001602082028036833780820191505090505b506040518963ffffffff1660e01b8152600401610f9298979695949392919061208f565b5f604051808303815f87803b158015610fa9575f80fd5b505af1158015610fbb573d5f803e3d5ffd5b50505050600115157fcbe1b789cda412d9e1c647ed03d0c71e2f71484be36f9ca2b2a346b29edf1b7060405160405180910390a2565b610ff9611204565b60025f9054906101000a900460ff1661103e576040517fa6eb890100000000000000000000000000000000000000000000000000000000815260040160405180910390fd5b5f848490509050808383905014611081576040517ffc23596000000000000000000000000000000000000000000000000000000000815260040160405180910390fd5b7f000000000000000000000000000000000000000000000000000000000000000073ffffffffffffffffffffffffffffffffffffffff16631b3c5ef8868686866040518563ffffffff1660e01b81526004016110e0949392919061246f565b6020604051808303815f875af11580156110fc573d5f803e3d5ffd5b505050506040513d601f19601f8201168201806040525081019061112091906124d2565b15611157576040517ff81460ff00000000000000000000000000000000000000000000000000000000815260040160405180910390fd5b5050505050565b7f000000000000000000000000000000000000000000000000000000000000000081565b61118a611204565b5f73ffffffffffffffffffffffffffffffffffffffff168173ffffffffffffffffffffffffffffffffffffffff16036111f8576040517f08c379a00000000000000000000000000000000000000000000000000000000081526004016111ef9061257d565b60405180910390fd5b61120181611282565b50565b61120c611343565b73ffffffffffffffffffffffffffffffffffffffff1661122a610dde565b73ffffffffffffffffffffffffffffffffffffffff1614611280576040517f08c379a0000000000000000000000000000000000000000000000000000000008152600401611277906125e5565b60405180910390fd5b565b5f805f9054906101000a900473ffffffffffffffffffffffffffffffffffffffff169050815f806101000a81548173ffffffffffffffffffffffffffffffffffffffff021916908373ffffffffffffffffffffffffffffffffffffffff1602179055508173ffffffffffffffffffffffffffffffffffffffff168173ffffffffffffffffffffffffffffffffffffffff167f8be0079c531659141344cd1fd0a4f28419497f9722a3daafe3b4186f6b6457e060405160405180910390a35050565b5f33905090565b5f80fd5b5f80fd5b5f80fd5b5f80fd5b5f80fd5b5f8083601f84011261137357611372611352565b5b8235905067ffffffffffffffff8111156113905761138f611356565b5b6020830191508360208202830111156113ac576113ab61135a565b5b9250929050565b5f8083601f8401126113c8576113c7611352565b5b8235905067ffffffffffffffff8111156113e5576113e4611356565b5b6020830191508360208202830111156114015761140061135a565b5b9250929050565b5f805f805f80606087890312156114225761142161134a565b5b5f87013567ffffffffffffffff81111561143f5761143e61134e565b5b61144b89828a0161135e565b9650965050602087013567ffffffffffffffff81111561146e5761146d61134e565b5b61147a89828a0161135e565b9450945050604087013567ffffffffffffffff81111561149d5761149c61134e565b5b6114a989828a016113b3565b92509250509295509295509295565b5f61ffff82169050919050565b6114ce816114b8565b81146114d8575f80fd5b50565b5f813590506114e9816114c5565b92915050565b5f602082840312156115045761150361134a565b5b5f611511848285016114db565b91505092915050565b5f73ffffffffffffffffffffffffffffffffffffffff82169050919050565b5f819050919050565b5f61155c6115576115528461151a565b611539565b61151a565b9050919050565b5f61156d82611542565b9050919050565b5f61157e82611563565b9050919050565b61158e81611574565b82525050565b5f6020820190506115a75f830184611585565b92915050565b5f8115159050919050565b6115c1816115ad565b82525050565b5f6020820190506115da5f8301846115b8565b92915050565b5f64ffffffffff82169050919050565b6115f9816115e0565b8114611603575f80fd5b50565b5f81359050611614816115f0565b92915050565b5f6020828403121561162f5761162e61134a565b5b5f61163c84828501611606565b91505092915050565b5f60ff82169050919050565b61165a81611645565b8114611664575f80fd5b50565b5f8135905061167581611651565b92915050565b5f602082840312156116905761168f61134a565b5b5f61169d84828501611667565b91505092915050565b5f6116b08261151a565b9050919050565b6116c0816116a6565b81146116ca575f80fd5b50565b5f813590506116db816116b7565b92915050565b5f80604083850312156116f7576116f661134a565b5b5f61170485828601611606565b9250506020611715858286016116cd565b9150509250929050565b611728816116a6565b82525050565b5f6020820190506117415f83018461171f565b92915050565b5f8083601f84011261175c5761175b611352565b5b8235905067ffffffffffffffff81111561177957611778611356565b5b6020830191508360208202830111156117955761179461135a565b5b9250929050565b5f8083601f8401126117b1576117b0611352565b5b8235905067ffffffffffffffff8111156117ce576117cd611356565b5b6020830191508360208202830111156117ea576117e961135a565b5b9250929050565b5f805f80604085870312156118095761180861134a565b5b5f85013567ffffffffffffffff8111156118265761182561134e565b5b61183287828801611747565b9450945050602085013567ffffffffffffffff8111156118555761185461134e565b5b6118618782880161179c565b925092505092959194509250565b5f61187982611563565b9050919050565b6118898161186f565b82525050565b5f6020820190506118a25f830184611880565b92915050565b5f602082840312156118bd576118bc61134a565b5b5f6118ca848285016116cd565b91505092915050565b5f81905092915050565b5f819050919050565b6118ef816115e0565b82525050565b5f61190083836118e6565b60208301905092915050565b5f61191a6020840184611606565b905092915050565b5f602082019050919050565b5f61193983856118d3565b9350611944826118dd565b805f5b8581101561197c57611959828461190c565b61196388826118f5565b975061196e83611922565b925050600181019050611947565b5085925050509392505050565b5f61199582848661192e565b91508190509392505050565b7f4e487b71000000000000000000000000000000000000000000000000000000005f52603260045260245ffd5b7f4e487b71000000000000000000000000000000000000000000000000000000005f52601160045260245ffd5b5f8160011c9050919050565b5f808291508390505b6001851115611a5057808604811115611a2c57611a2b6119ce565b5b6001851615611a3b5780820291505b8081029050611a49856119fb565b9450611a10565b94509492505050565b5f82611a685760019050611b23565b81611a75575f9050611b23565b8160018114611a8b5760028114611a9557611ac4565b6001915050611b23565b60ff841115611aa757611aa66119ce565b5b8360020a915084821115611abe57611abd6119ce565b5b50611b23565b5060208310610133831016604e8410600b8410161715611af95782820a905083811115611af457611af36119ce565b5b611b23565b611b068484846001611a07565b92509050818404811115611b1d57611b1c6119ce565b5b81810290505b9392505050565b5f819050919050565b5f611b3d82611b2a565b9150611b4883611645565b9250611b757fffffffffffffffffffffffffffffffffffffffffffffffffffffffffffffffff8484611a59565b905092915050565b5f611b8782611b2a565b9150611b9283611b2a565b9250828201905080821115611baa57611ba96119ce565b5b92915050565b5f611bba82611b2a565b9150611bc583611b2a565b9250828203905081811115611bdd57611bdc6119ce565b5b92915050565b5f611bed82611b2a565b91507fffffffffffffffffffffffffffffffffffffffffffffffffffffffffffffffff8203611c1f57611c1e6119ce565b5b600182019050919050565b5f819050919050565b5f611c4d611c48611c4384611c2a565b611539565b6115e0565b9050919050565b611c5d81611c33565b82525050565b5f611c7d611c78611c7384611c2a565b611539565b6114b8565b9050919050565b611c8d81611c63565b82525050565b5f611cad611ca8611ca384611c2a565b611539565b611645565b9050919050565b611cbd81611c93565b82525050565b5f82825260208201905092915050565b611cdc816115e0565b82525050565b5f611ced8383611cd3565b60208301905092915050565b5f611d048385611cc3565b9350611d0f826118dd565b805f5b85811015611d4757611d24828461190c565b611d2e8882611ce2565b9750611d3983611922565b925050600181019050611d12565b5085925050509392505050565b5f82825260208201905092915050565b5f819050919050565b611d76816114b8565b82525050565b5f611d878383611d6d565b60208301905092915050565b5f611da160208401846114db565b905092915050565b5f602082019050919050565b5f611dc08385611d54565b9350611dcb82611d64565b805f5b85811015611e0357611de08284611d93565b611dea8882611d7c565b9750611df583611da9565b925050600181019050611dce565b5085925050509392505050565b5f61010082019050611e245f83018e611c54565b611e31602083018d611c84565b611e3e604083018c611cb4565b611e4b606083018b6115b8565b611e58608083018a6115b8565b81810360a0830152611e6b81888a611cf9565b905081810360c0830152611e80818688611cf9565b905081810360e0830152611e95818486611db5565b90509c9b505050505050505050505050565b7f4e487b71000000000000000000000000000000000000000000000000000000005f52604160045260245ffd5b611edd816114b8565b82525050565b5f81519050919050565b5f819050602082019050919050565b5f602082019050919050565b5f611f1282611ee3565b611f1c8185611cc3565b9350611f2783611eed565b805f5b83811015611f57578151611f3e8882611ce2565b9750611f4983611efc565b925050600181019050611f2a565b5085935050505092915050565b5f81519050919050565b5f819050602082019050919050565b5f602082019050919050565b5f611f9382611f64565b611f9d8185611d54565b9350611fa883611f6e565b805f5b83811015611fd8578151611fbf8882611d7c565b9750611fca83611f7d565b925050600181019050611fab565b5085935050505092915050565b5f61010082019050611ff95f83018b611c54565b612006602083018a611ed4565b6120136040830189611cb4565b61202060608301886115b8565b61202d60808301876115b8565b81810360a083015261203f8186611f08565b905081810360c08301526120538185611f08565b905081810360e08301526120678184611f89565b90509998505050505050505050565b5f6020820190506120895f830184611ed4565b92915050565b5f610100820190506120a35f83018b611c54565b6120b0602083018a611c84565b6120bd6040830189611cb4565b6120ca60608301886115b8565b6120d760808301876115b8565b81810360a08301526120e98186611f08565b905081810360c08301526120fd8185611f08565b905081810360e08301526121118184611f89565b90509998505050505050505050565b612129816115e0565b82525050565b5f610100820190506121435f83018b612120565b612150602083018a611c84565b61215d6040830189611cb4565b61216a60608301886115b8565b61217760808301876115b8565b81810360a08301526121898186611f08565b905081810360c083015261219d8185611f08565b905081810360e08301526121b18184611f89565b90509998505050505050505050565b5f6020820190506121d35f830184612120565b92915050565b6121e281611645565b82525050565b5f610100820190506121fc5f83018b611c54565b612209602083018a611c84565b61221660408301896121d9565b61222360608301886115b8565b61223060808301876115b8565b81810360a08301526122428186611f08565b905081810360c08301526122568185611f08565b905081810360e083015261226a8184611f89565b90509998505050505050505050565b5f60208201905061228c5f8301846121d9565b92915050565b5f6040820190506122a55f830185612120565b6122b2602083018461171f565b9392505050565b5f82825260208201905092915050565b5f819050919050565b6122db816116a6565b82525050565b5f6122ec83836122d2565b60208301905092915050565b5f61230660208401846116cd565b905092915050565b5f602082019050919050565b5f61232583856122b9565b9350612330826122c9565b805f5b858110156123685761234582846122f8565b61234f88826122e1565b975061235a8361230e565b925050600181019050612333565b5085925050509392505050565b5f82825260208201905092915050565b5f819050919050565b5f68ffffffffffffffffff82169050919050565b6123ab8161238e565b82525050565b5f6123bc83836123a2565b60208301905092915050565b6123d18161238e565b81146123db575f80fd5b50565b5f813590506123ec816123c8565b92915050565b5f61240060208401846123de565b905092915050565b5f602082019050919050565b5f61241f8385612375565b935061242a82612385565b805f5b858110156124625761243f82846123f2565b61244988826123b1565b975061245483612408565b92505060018101905061242d565b5085925050509392505050565b5f6040820190508181035f83015261248881868861231a565b9050818103602083015261249d818486612414565b905095945050505050565b6124b1816115ad565b81146124bb575f80fd5b50565b5f815190506124cc816124a8565b92915050565b5f602082840312156124e7576124e661134a565b5b5f6124f4848285016124be565b91505092915050565b5f82825260208201905092915050565b7f4f776e61626c653a206e6577206f776e657220697320746865207a65726f20615f8201527f6464726573730000000000000000000000000000000000000000000000000000602082015250565b5f6125676026836124fd565b91506125728261250d565b604082019050919050565b5f6020820190508181035f8301526125948161255b565b9050919050565b7f4f776e61626c653a2063616c6c6572206973206e6f7420746865206f776e65725f82015250565b5f6125cf6020836124fd565b91506125da8261259b565b602082019050919050565b5f6020820190508181035f8301526125fc816125c3565b905091905056fea2646970667358221220a7024115cd9ce99f24a334b91f0e4d928177e10acdde3c5ddbdc95d919f72cdb64736f6c63430008140033",
  "linkReferences": {},
  "deployedLinkReferences": {}
}