{
  "_format": "hh-sol-artifact-1",
  "contractName": "SystemControl",
  "sourceName": "src/SystemControl.sol",
  "abi": [
    {
      "inputs": [
        {
          "internalType": "address",
          "name": "factory",
          "type": "address"
        },
        {
          "internalType": "address",
          "name": "systemState",
          "type": "address"
        }
      ],
      "stateMutability": "nonpayable",
      "type": "constructor"
    },
    {
      "anonymous": false,
      "inputs": [
        {
          "indexed": true,
          "internalType": "address",
          "name": "previousOwner",
          "type": "address"
        },
        {
          "indexed": true,
          "internalType": "address",
          "name": "newOwner",
          "type": "address"
        }
      ],
      "name": "OwnershipTransferred",
      "type": "event"
    },
    {
      "anonymous": false,
      "inputs": [],
      "name": "betaPeriodOver",
      "type": "event"
    },
    {
      "anonymous": false,
      "inputs": [],
      "name": "systemRunning",
      "type": "event"
    },
    {
      "anonymous": false,
      "inputs": [],
      "name": "withdrawalsOnly",
      "type": "event"
    },
    {
      "inputs": [],
      "name": "betaPeriod",
      "outputs": [
        {
          "internalType": "bool",
          "name": "",
          "type": "bool"
        }
      ],
      "stateMutability": "view",
      "type": "function"
    },
    {
      "inputs": [],
      "name": "disableMinting",
      "outputs": [],
      "stateMutability": "nonpayable",
      "type": "function"
    },
    {
      "inputs": [],
      "name": "enableMinting",
      "outputs": [],
      "stateMutability": "nonpayable",
      "type": "function"
    },
    {
      "inputs": [],
      "name": "exitBeta",
      "outputs": [],
      "stateMutability": "nonpayable",
      "type": "function"
    },
    {
      "inputs": [],
      "name": "hashContributors",
      "outputs": [
        {
          "internalType": "bytes32",
          "name": "",
          "type": "bytes32"
        }
      ],
      "stateMutability": "view",
      "type": "function"
    },
    {
      "inputs": [],
      "name": "hashPools",
      "outputs": [
        {
          "internalType": "bytes32",
          "name": "",
          "type": "bytes32"
        }
      ],
      "stateMutability": "view",
      "type": "function"
    },
    {
      "inputs": [],
      "name": "owner",
      "outputs": [
        {
          "internalType": "address",
          "name": "",
          "type": "address"
        }
      ],
      "stateMutability": "view",
      "type": "function"
    },
    {
      "inputs": [],
      "name": "renounceOwnership",
      "outputs": [],
      "stateMutability": "nonpayable",
      "type": "function"
    },
    {
      "inputs": [
        {
          "internalType": "uint16",
          "name": "basisFee",
          "type": "uint16"
        }
      ],
      "name": "setBasisFee",
      "outputs": [],
      "stateMutability": "nonpayable",
      "type": "function"
    },
    {
      "inputs": [],
      "name": "startSIR",
      "outputs": [],
      "stateMutability": "nonpayable",
      "type": "function"
    },
    {
      "inputs": [
        {
          "internalType": "address",
          "name": "newOwner",
          "type": "address"
        }
      ],
      "name": "transferOwnership",
      "outputs": [],
      "stateMutability": "nonpayable",
      "type": "function"
    },
    {
      "inputs": [
        {
          "internalType": "address[]",
          "name": "prevContributors",
          "type": "address[]"
        },
        {
          "internalType": "address[]",
          "name": "nextContributors",
          "type": "address[]"
        },
        {
          "internalType": "uint72[]",
          "name": "issuances",
          "type": "uint72[]"
        },
        {
          "internalType": "address[]",
          "name": "pools",
          "type": "address[]"
        }
      ],
      "name": "updateContributorsIssuances",
      "outputs": [],
      "stateMutability": "nonpayable",
      "type": "function"
    },
    {
      "inputs": [
        {
          "internalType": "address[]",
          "name": "prevContributors",
          "type": "address[]"
        },
        {
          "internalType": "address[]",
          "name": "nextContributors",
          "type": "address[]"
        },
        {
          "internalType": "uint72[]",
          "name": "issuances",
          "type": "uint72[]"
        }
      ],
      "name": "updateContributorsIssuances",
      "outputs": [],
      "stateMutability": "nonpayable",
      "type": "function"
    },
    {
      "inputs": [
        {
          "internalType": "address[]",
          "name": "prevPools",
          "type": "address[]"
        },
        {
          "internalType": "address[]",
          "name": "nextPools",
          "type": "address[]"
        },
        {
          "internalType": "uint16[]",
          "name": "taxesToDAO",
          "type": "uint16[]"
        }
      ],
      "name": "updatePoolsIssuances",
      "outputs": [],
      "stateMutability": "nonpayable",
      "type": "function"
    }
  ],
  "bytecode": "0x60c0604052600160025f6101000a81548160ff0219169083151502179055505f67ffffffffffffffff8111156200003b576200003a62000298565b5b6040519080825280602002602001820160405280156200006a5781602001602082028036833780820191505090505b506040516020016200007d9190620003b8565b604051602081830303815290604052805190602001206003555f67ffffffffffffffff811115620000b357620000b262000298565b5b604051908082528060200260200182016040528015620000e25781602001602082028036833780820191505090505b50604051602001620000f59190620003b8565b604051602081830303815290604052805190602001206004553480156200011a575f80fd5b5060405162002a8038038062002a80833981810160405281019062000140919062000403565b6200016062000154620001d060201b60201c565b620001d760201b60201c565b8173ffffffffffffffffffffffffffffffffffffffff1660808173ffffffffffffffffffffffffffffffffffffffff16815250508073ffffffffffffffffffffffffffffffffffffffff1660a08173ffffffffffffffffffffffffffffffffffffffff1681525050505062000448565b5f33905090565b5f805f9054906101000a900473ffffffffffffffffffffffffffffffffffffffff169050815f806101000a81548173ffffffffffffffffffffffffffffffffffffffff021916908373ffffffffffffffffffffffffffffffffffffffff1602179055508173ffffffffffffffffffffffffffffffffffffffff168173ffffffffffffffffffffffffffffffffffffffff167f8be0079c531659141344cd1fd0a4f28419497f9722a3daafe3b4186f6b6457e060405160405180910390a35050565b7f4e487b71000000000000000000000000000000000000000000000000000000005f52604160045260245ffd5b5f81519050919050565b5f81905092915050565b5f819050602082019050919050565b5f73ffffffffffffffffffffffffffffffffffffffff82169050919050565b5f6200031382620002e8565b9050919050565b620003258162000307565b82525050565b5f6200033883836200031a565b60208301905092915050565b5f602082019050919050565b5f6200035c82620002c5565b620003688185620002cf565b93506200037583620002d9565b805f5b83811015620003ab5781516200038f88826200032b565b97506200039c8362000344565b92505060018101905062000378565b5085935050505092915050565b5f620003c5828462000350565b915081905092915050565b5f80fd5b620003df8162000307565b8114620003ea575f80fd5b50565b5f81519050620003fd81620003d4565b92915050565b5f80604083850312156200041c576200041b620003d0565b5b5f6200042b85828601620003ed565b92505060206200043e85828601620003ed565b9150509250929050565b60805160a0516125de620004a25f395f818161022c015281816103f7015281816105ee015281816107260152818161082e0152818161093d01528181610e6301528181610f71015261113001525f610cad01526125de5ff3fe608060405234801561000f575f80fd5b50600436106100e8575f3560e01c80638da5cb5b1161008a578063afd353e111610064578063afd353e1146101c4578063e797ec1b146101e0578063f2fde38b146101ea578063f3d3885614610206576100e8565b80638da5cb5b1461016a5780638e93a5ba1461018857806397daf8b7146101a6576100e8565b806360205f9b116100c657806360205f9b1461012e578063715018a61461014c5780637e5cd5c1146101565780638022bdbd14610160576100e8565b806313893d8f146100ec57806324a190ec146100f65780632b215f5114610112575b5f80fd5b6100f4610222565b005b610110600480360381019061010b91906113e5565b6102b6565b005b61012c60048036038101906101279190611500565b610685565b005b6101366107b1565b6040516101439190611545565b60405180910390f35b6101546107c3565b005b61015e6107d6565b005b6101686108e5565b005b610172610a0c565b60405161017f919061159d565b60405180910390f35b610190610a33565b60405161019d91906115ce565b60405180910390f35b6101ae610a39565b6040516101bb91906115ce565b60405180910390f35b6101de60048036038101906101d9919061163c565b610a3f565b005b6101e8610f19565b005b61020460048036038101906101ff9190611716565b611027565b005b610220600480360381019061021b9190611741565b6110a9565b005b61022a6111e1565b7f000000000000000000000000000000000000000000000000000000000000000073ffffffffffffffffffffffffffffffffffffffff1663472735db425f806040518463ffffffff1660e01b815260040161028793929190611852565b5f604051808303815f87803b15801561029e575f80fd5b505af11580156102b0573d5f803e3d5ffd5b50505050565b6102be6111e1565b60025f9054906101000a900460ff1661030c576040517f08c379a0000000000000000000000000000000000000000000000000000000008152600401610303906118e1565b60405180910390fd5b83839050868690501461031d575f80fd5b60035488886040516020016103339291906119b5565b6040516020818303038152906040528051906020012014610389576040517f08c379a000000000000000000000000000000000000000000000000000000000815260040161038090611a17565b60405180910390fd5b600454828260405160200161039f9291906119b5565b60405160208183030381529060405280519060200120146103f5576040517f08c379a00000000000000000000000000000000000000000000000000000000081526004016103ec90611a7f565b60405180910390fd5b7f000000000000000000000000000000000000000000000000000000000000000073ffffffffffffffffffffffffffffffffffffffff1663836f638989898989898960016040518863ffffffff1660e01b815260040161045b9796959493929190611c28565b6020604051808303815f875af1158015610477573d5f803e3d5ffd5b505050506040513d601f19601f8201168201806040525081019061049b9190611cb0565b6003819055505f8282905067ffffffffffffffff8111156104bf576104be611cdb565b5b6040519080825280602002602001820160405280156104ed5781602001602082028036833780820191505090505b5090505f5b838390508110156105eb578383828181106105105761050f611d08565b5b90506020020160208101906105259190611716565b73ffffffffffffffffffffffffffffffffffffffff16632e7d82fe6040518163ffffffff1660e01b8152600401602060405180830381865afa15801561056d573d5f803e3d5ffd5b505050506040513d601f19601f820116820180604052508101906105919190611d8a565b8282815181106105a4576105a3611d08565b5b60200260200101906fffffffffffffffffffffffffffffffff191690816fffffffffffffffffffffffffffffffff19168152505080806105e390611deb565b9150506104f2565b507f000000000000000000000000000000000000000000000000000000000000000073ffffffffffffffffffffffffffffffffffffffff1663de53236d8484846001546040518563ffffffff1660e01b815260040161064d9493929190611ef8565b5f604051808303815f87803b158015610664575f80fd5b505af1158015610676573d5f803e3d5ffd5b50505050505050505050505050565b61068d6111e1565b60025f9054906101000a900460ff166106db576040517f08c379a00000000000000000000000000000000000000000000000000000000081526004016106d2906118e1565b60405180910390fd5b6103e88161ffff161115610724576040517f08c379a000000000000000000000000000000000000000000000000000000000815260040161071b90611f87565b60405180910390fd5b7f000000000000000000000000000000000000000000000000000000000000000073ffffffffffffffffffffffffffffffffffffffff1663472735db5f835f6040518463ffffffff1660e01b815260040161078193929190611fe4565b5f604051808303815f87803b158015610798575f80fd5b505af11580156107aa573d5f803e3d5ffd5b5050505050565b60025f9054906101000a900460ff1681565b6107cb6111e1565b6107d45f61125f565b565b6107de6111e1565b60025f9054906101000a900460ff1661082c576040517f08c379a0000000000000000000000000000000000000000000000000000000008152600401610823906118e1565b60405180910390fd5b7f000000000000000000000000000000000000000000000000000000000000000073ffffffffffffffffffffffffffffffffffffffff1663472735db5f8060016040518463ffffffff1660e01b815260040161088a93929190612019565b5f604051808303815f87803b1580156108a1575f80fd5b505af11580156108b3573d5f803e3d5ffd5b505050507feca7f894492fae1c6aa6b3a2bd91e1ad337b5d30d0f7aae9742b0e58e3d2370660405160405180910390a1565b6108ed6111e1565b60025f9054906101000a900460ff1661093b576040517f08c379a0000000000000000000000000000000000000000000000000000000008152600401610932906118e1565b60405180910390fd5b7f000000000000000000000000000000000000000000000000000000000000000073ffffffffffffffffffffffffffffffffffffffff1663472735db5f805f6040518463ffffffff1660e01b815260040161099893929190612019565b5f604051808303815f87803b1580156109af575f80fd5b505af11580156109c1573d5f803e3d5ffd5b505050505f60025f6101000a81548160ff0219169083151502179055507f0ce2a593c7a59b2c08c9299a15b580db921a5d85c1978abcc2fbb2552dedd3ca60405160405180910390a1565b5f805f9054906101000a900473ffffffffffffffffffffffffffffffffffffffff16905090565b60035481565b60045481565b610a476111e1565b5f84849050118015610a5e57508181905084849050145b610a66575f80fd5b6004548686604051602001610a7c9291906119b5565b6040516020818303038152906040528051906020012014610ad2576040517f08c379a0000000000000000000000000000000000000000000000000000000008152600401610ac990611a7f565b60405180910390fd5b5f8686905067ffffffffffffffff811115610af057610aef611cdb565b5b604051908082528060200260200182016040528015610b1e5781602001602082028036833780820191505090505b5090505f5b87879050811015610c1c57878782818110610b4157610b40611d08565b5b9050602002016020810190610b569190611716565b73ffffffffffffffffffffffffffffffffffffffff16632e7d82fe6040518163ffffffff1660e01b8152600401602060405180830381865afa158015610b9e573d5f803e3d5ffd5b505050506040513d601f19601f82011682018060405250810190610bc29190611d8a565b828281518110610bd557610bd4611d08565b5b60200260200101906fffffffffffffffffffffffffffffffff191690816fffffffffffffffffffffffffffffffff1916815250508080610c1490611deb565b915050610b23565b505f805f5b87879050811015610df157858582818110610c3f57610c3e611d08565b5b9050602002016020810190610c549190611500565b61ffff1683610c63919061204e565b92506002868683818110610c7a57610c79611d08565b5b9050602002016020810190610c8f9190611500565b61ffff16610c9d91906121bc565b82610ca8919061204e565b91505f7f000000000000000000000000000000000000000000000000000000000000000073ffffffffffffffffffffffffffffffffffffffff1663d4895b668a8a85818110610cfa57610cf9611d08565b5b9050602002016020810190610d0f9190611716565b6040518263ffffffff1660e01b8152600401610d2b919061159d565b608060405180830381865afa158015610d46573d5f803e3d5ffd5b505050506040513d601f19601f82011682018060405250810190610d6a919061224f565b50505090505f73ffffffffffffffffffffffffffffffffffffffff168173ffffffffffffffffffffffffffffffffffffffff1603610ddd576040517f08c379a0000000000000000000000000000000000000000000000000000000008152600401610dd4906122fd565b60405180910390fd5b508080610de990611deb565b915050610c21565b506305f5e100811115610e39576040517f08c379a0000000000000000000000000000000000000000000000000000000008152600401610e3090612365565b60405180910390fd5b816001819055505f5b87879050811015610e60578080610e5890611deb565b915050610e42565b507f000000000000000000000000000000000000000000000000000000000000000073ffffffffffffffffffffffffffffffffffffffff166354f14cfc8a8a868b8b8b8b8a6040518963ffffffff1660e01b8152600401610ec898979695949392919061243f565b6020604051808303815f875af1158015610ee4573d5f803e3d5ffd5b505050506040513d601f19601f82011682018060405250810190610f089190611cb0565b600481905550505050505050505050565b610f216111e1565b60025f9054906101000a900460ff16610f6f576040517f08c379a0000000000000000000000000000000000000000000000000000000008152600401610f66906118e1565b60405180910390fd5b7f000000000000000000000000000000000000000000000000000000000000000073ffffffffffffffffffffffffffffffffffffffff1663472735db5f805f6040518463ffffffff1660e01b8152600401610fcc93929190612019565b5f604051808303815f87803b158015610fe3575f80fd5b505af1158015610ff5573d5f803e3d5ffd5b505050507f99fcf6fb2a8c77f564436832131a61237df2af1f4427f47a755c590c721f3fd360405160405180910390a1565b61102f6111e1565b5f73ffffffffffffffffffffffffffffffffffffffff168173ffffffffffffffffffffffffffffffffffffffff160361109d576040517f08c379a000000000000000000000000000000000000000000000000000000000815260040161109490612522565b60405180910390fd5b6110a68161125f565b50565b6110b16111e1565b8181905084849050146110c2575f80fd5b60035486866040516020016110d89291906119b5565b604051602081830303815290604052805190602001201461112e576040517f08c379a000000000000000000000000000000000000000000000000000000000815260040161112590611a17565b60405180910390fd5b7f000000000000000000000000000000000000000000000000000000000000000073ffffffffffffffffffffffffffffffffffffffff1663836f63898787878787875f6040518863ffffffff1660e01b81526004016111939796959493929190611c28565b6020604051808303815f875af11580156111af573d5f803e3d5ffd5b505050506040513d601f19601f820116820180604052508101906111d39190611cb0565b600381905550505050505050565b6111e9611320565b73ffffffffffffffffffffffffffffffffffffffff16611207610a0c565b73ffffffffffffffffffffffffffffffffffffffff161461125d576040517f08c379a00000000000000000000000000000000000000000000000000000000081526004016112549061258a565b60405180910390fd5b565b5f805f9054906101000a900473ffffffffffffffffffffffffffffffffffffffff169050815f806101000a81548173ffffffffffffffffffffffffffffffffffffffff021916908373ffffffffffffffffffffffffffffffffffffffff1602179055508173ffffffffffffffffffffffffffffffffffffffff168173ffffffffffffffffffffffffffffffffffffffff167f8be0079c531659141344cd1fd0a4f28419497f9722a3daafe3b4186f6b6457e060405160405180910390a35050565b5f33905090565b5f80fd5b5f80fd5b5f80fd5b5f80fd5b5f80fd5b5f8083601f8401126113505761134f61132f565b5b8235905067ffffffffffffffff81111561136d5761136c611333565b5b60208301915083602082028301111561138957611388611337565b5b9250929050565b5f8083601f8401126113a5576113a461132f565b5b8235905067ffffffffffffffff8111156113c2576113c1611333565b5b6020830191508360208202830111156113de576113dd611337565b5b9250929050565b5f805f805f805f806080898b03121561140157611400611327565b5b5f89013567ffffffffffffffff81111561141e5761141d61132b565b5b61142a8b828c0161133b565b9850985050602089013567ffffffffffffffff81111561144d5761144c61132b565b5b6114598b828c0161133b565b9650965050604089013567ffffffffffffffff81111561147c5761147b61132b565b5b6114888b828c01611390565b9450945050606089013567ffffffffffffffff8111156114ab576114aa61132b565b5b6114b78b828c0161133b565b92509250509295985092959890939650565b5f61ffff82169050919050565b6114df816114c9565b81146114e9575f80fd5b50565b5f813590506114fa816114d6565b92915050565b5f6020828403121561151557611514611327565b5b5f611522848285016114ec565b91505092915050565b5f8115159050919050565b61153f8161152b565b82525050565b5f6020820190506115585f830184611536565b92915050565b5f73ffffffffffffffffffffffffffffffffffffffff82169050919050565b5f6115878261155e565b9050919050565b6115978161157d565b82525050565b5f6020820190506115b05f83018461158e565b92915050565b5f819050919050565b6115c8816115b6565b82525050565b5f6020820190506115e15f8301846115bf565b92915050565b5f8083601f8401126115fc576115fb61132f565b5b8235905067ffffffffffffffff81111561161957611618611333565b5b60208301915083602082028301111561163557611634611337565b5b9250929050565b5f805f805f806060878903121561165657611655611327565b5b5f87013567ffffffffffffffff8111156116735761167261132b565b5b61167f89828a0161133b565b9650965050602087013567ffffffffffffffff8111156116a2576116a161132b565b5b6116ae89828a0161133b565b9450945050604087013567ffffffffffffffff8111156116d1576116d061132b565b5b6116dd89828a016115e7565b92509250509295509295509295565b6116f58161157d565b81146116ff575f80fd5b50565b5f81359050611710816116ec565b92915050565b5f6020828403121561172b5761172a611327565b5b5f61173884828501611702565b91505092915050565b5f805f805f806060878903121561175b5761175a611327565b5b5f87013567ffffffffffffffff8111156117785761177761132b565b5b61178489828a0161133b565b9650965050602087013567ffffffffffffffff8111156117a7576117a661132b565b5b6117b389828a0161133b565b9450945050604087013567ffffffffffffffff8111156117d6576117d561132b565b5b6117e289828a01611390565b92509250509295509295509295565b5f64ffffffffff82169050919050565b61180a816117f1565b82525050565b5f819050919050565b5f819050919050565b5f61183c61183761183284611810565b611819565b6114c9565b9050919050565b61184c81611822565b82525050565b5f6060820190506118655f830186611801565b6118726020830185611843565b61187f6040830184611536565b949350505050565b5f82825260208201905092915050565b7f42657461206973206f76657200000000000000000000000000000000000000005f82015250565b5f6118cb600c83611887565b91506118d682611897565b602082019050919050565b5f6020820190508181035f8301526118f8816118bf565b9050919050565b5f81905092915050565b5f819050919050565b61191b8161157d565b82525050565b5f61192c8383611912565b60208301905092915050565b5f6119466020840184611702565b905092915050565b5f602082019050919050565b5f61196583856118ff565b935061197082611909565b805f5b858110156119a8576119858284611938565b61198f8882611921565b975061199a8361194e565b925050600181019050611973565b5085925050509392505050565b5f6119c182848661195a565b91508190509392505050565b7f496e636f7272656374206c697374206f6620636f6e7472696275746f727300005f82015250565b5f611a01601e83611887565b9150611a0c826119cd565b602082019050919050565b5f6020820190508181035f830152611a2e816119f5565b9050919050565b7f496e636f7272656374206c697374206f6620706f6f6c730000000000000000005f82015250565b5f611a69601783611887565b9150611a7482611a35565b602082019050919050565b5f6020820190508181035f830152611a9681611a5d565b9050919050565b5f82825260208201905092915050565b611ab68161157d565b82525050565b5f611ac78383611aad565b60208301905092915050565b5f611ade8385611a9d565b9350611ae982611909565b805f5b85811015611b2157611afe8284611938565b611b088882611abc565b9750611b138361194e565b925050600181019050611aec565b5085925050509392505050565b5f82825260208201905092915050565b5f819050919050565b5f68ffffffffffffffffff82169050919050565b611b6481611b47565b82525050565b5f611b758383611b5b565b60208301905092915050565b611b8a81611b47565b8114611b94575f80fd5b50565b5f81359050611ba581611b81565b92915050565b5f611bb96020840184611b97565b905092915050565b5f602082019050919050565b5f611bd88385611b2e565b9350611be382611b3e565b805f5b85811015611c1b57611bf88284611bab565b611c028882611b6a565b9750611c0d83611bc1565b925050600181019050611be6565b5085925050509392505050565b5f6080820190508181035f830152611c4181898b611ad3565b90508181036020830152611c56818789611ad3565b90508181036040830152611c6b818587611bcd565b9050611c7a6060830184611536565b98975050505050505050565b611c8f816115b6565b8114611c99575f80fd5b50565b5f81519050611caa81611c86565b92915050565b5f60208284031215611cc557611cc4611327565b5b5f611cd284828501611c9c565b91505092915050565b7f4e487b71000000000000000000000000000000000000000000000000000000005f52604160045260245ffd5b7f4e487b71000000000000000000000000000000000000000000000000000000005f52603260045260245ffd5b5f7fffffffffffffffffffffffffffffffff0000000000000000000000000000000082169050919050565b611d6981611d35565b8114611d73575f80fd5b50565b5f81519050611d8481611d60565b92915050565b5f60208284031215611d9f57611d9e611327565b5b5f611dac84828501611d76565b91505092915050565b7f4e487b71000000000000000000000000000000000000000000000000000000005f52601160045260245ffd5b5f819050919050565b5f611df582611de2565b91507fffffffffffffffffffffffffffffffffffffffffffffffffffffffffffffffff8203611e2757611e26611db5565b5b600182019050919050565b5f81519050919050565b5f82825260208201905092915050565b5f819050602082019050919050565b611e6481611d35565b82525050565b5f611e758383611e5b565b60208301905092915050565b5f602082019050919050565b5f611e9782611e32565b611ea18185611e3c565b9350611eac83611e4c565b805f5b83811015611edc578151611ec38882611e6a565b9750611ece83611e81565b925050600181019050611eaf565b5085935050505092915050565b611ef281611de2565b82525050565b5f6060820190508181035f830152611f11818688611ad3565b90508181036020830152611f258185611e8d565b9050611f346040830184611ee9565b95945050505050565b7f556e726561736f6e61626c7920686967682066656500000000000000000000005f82015250565b5f611f71601583611887565b9150611f7c82611f3d565b602082019050919050565b5f6020820190508181035f830152611f9e81611f65565b9050919050565b5f611fbf611fba611fb584611810565b611819565b6117f1565b9050919050565b611fcf81611fa5565b82525050565b611fde816114c9565b82525050565b5f606082019050611ff75f830186611fc6565b6120046020830185611fd5565b6120116040830184611536565b949350505050565b5f60608201905061202c5f830186611fc6565b6120396020830185611843565b6120466040830184611536565b949350505050565b5f61205882611de2565b915061206383611de2565b925082820190508082111561207b5761207a611db5565b5b92915050565b5f8160011c9050919050565b5f808291508390505b60018511156120d6578086048111156120b2576120b1611db5565b5b60018516156120c15780820291505b80810290506120cf85612081565b9450612096565b94509492505050565b5f826120ee57600190506121a9565b816120fb575f90506121a9565b8160018114612111576002811461211b5761214a565b60019150506121a9565b60ff84111561212d5761212c611db5565b5b8360020a91508482111561214457612143611db5565b5b506121a9565b5060208310610133831016604e8410600b841016171561217f5782820a90508381111561217a57612179611db5565b5b6121a9565b61218c848484600161208d565b925090508184048111156121a3576121a2611db5565b5b81810290505b9392505050565b5f60ff82169050919050565b5f6121c682611de2565b91506121d1836121b0565b92506121fe7fffffffffffffffffffffffffffffffffffffffffffffffffffffffffffffffff84846120df565b905092915050565b5f81519050612214816116ec565b92915050565b5f815f0b9050919050565b61222e8161221a565b8114612238575f80fd5b50565b5f8151905061224981612225565b92915050565b5f805f806080858703121561226757612266611327565b5b5f61227487828801612206565b945050602061228587828801612206565b935050604061229687828801612206565b92505060606122a78782880161223b565b91505092959194509250565b7f4e6f7420612053495220706f6f6c0000000000000000000000000000000000005f82015250565b5f6122e7600e83611887565b91506122f2826122b3565b602082019050919050565b5f6020820190508181035f830152612314816122db565b9050919050565b7f546178657320746f6f20686967680000000000000000000000000000000000005f82015250565b5f61234f600e83611887565b915061235a8261231b565b602082019050919050565b5f6020820190508181035f83015261237c81612343565b9050919050565b5f82825260208201905092915050565b5f819050919050565b6123a5816114c9565b82525050565b5f6123b6838361239c565b60208301905092915050565b5f6123d060208401846114ec565b905092915050565b5f602082019050919050565b5f6123ef8385612383565b93506123fa82612393565b805f5b858110156124325761240f82846123c2565b61241988826123ab565b9750612424836123d8565b9250506001810190506123fd565b5085925050509392505050565b5f60a0820190508181035f830152612458818a8c611ad3565b9050818103602083015261246c8189611e8d565b90508181036040830152612481818789611ad3565b905081810360608301526124968185876123e4565b90506124a56080830184611ee9565b9998505050505050505050565b7f4f776e61626c653a206e6577206f776e657220697320746865207a65726f20615f8201527f6464726573730000000000000000000000000000000000000000000000000000602082015250565b5f61250c602683611887565b9150612517826124b2565b604082019050919050565b5f6020820190508181035f83015261253981612500565b9050919050565b7f4f776e61626c653a2063616c6c6572206973206e6f7420746865206f776e65725f82015250565b5f612574602083611887565b915061257f82612540565b602082019050919050565b5f6020820190508181035f8301526125a181612568565b905091905056fea264697066735822122019eb309de6ca491668dff5d68aa5562d20df0c8d67bb0396d3728bc5ccc9fc3364736f6c63430008140033",
  "linkReferences": {},
  "deployedLinkReferences": {}
}