{"abi":[{"type":"constructor","inputs":[{"name":"weth","type":"address","internalType":"address"}],"stateMutability":"nonpayable"},{"type":"receive","stateMutability":"payable"},{"type":"function","name":"DOMAIN_SEPARATOR","inputs":[],"outputs":[{"name":"","type":"bytes32","internalType":"bytes32"}],"stateMutability":"view"},{"type":"function","name":"allowance","inputs":[{"name":"","type":"address","internalType":"address"},{"name":"","type":"address","internalType":"address"}],"outputs":[{"name":"","type":"uint256","internalType":"uint256"}],"stateMutability":"view"},{"type":"function","name":"approve","inputs":[{"name":"spender","type":"address","internalType":"address"},{"name":"amount","type":"uint256","internalType":"uint256"}],"outputs":[{"name":"","type":"bool","internalType":"bool"}],"stateMutability":"nonpayable"},{"type":"function","name":"auctions","inputs":[{"name":"token","type":"address","internalType":"address"}],"outputs":[{"name":"","type":"tuple","internalType":"struct SirStructs.Auction","components":[{"name":"bidder","type":"address","internalType":"address"},{"name":"bid","type":"uint96","internalType":"uint96"},{"name":"startTime","type":"uint40","internalType":"uint40"},{"name":"winnerPaid","type":"bool","internalType":"bool"}]}],"stateMutability":"view"},{"type":"function","name":"balanceOf","inputs":[{"name":"account","type":"address","internalType":"address"}],"outputs":[{"name":"","type":"uint256","internalType":"uint256"}],"stateMutability":"view"},{"type":"function","name":"bid","inputs":[{"name":"token","type":"address","internalType":"address"}],"outputs":[],"stateMutability":"nonpayable"},{"type":"function","name":"claim","inputs":[],"outputs":[{"name":"dividends_","type":"uint96","internalType":"uint96"}],"stateMutability":"nonpayable"},{"type":"function","name":"collectFeesAndStartAuction","inputs":[{"name":"token","type":"address","internalType":"address"}],"outputs":[{"name":"totalFeesToStakers","type":"uint112","internalType":"uint112"}],"stateMutability":"nonpayable"},{"type":"function","name":"contributorMint","inputs":[],"outputs":[{"name":"rewards","type":"uint80","internalType":"uint80"}],"stateMutability":"nonpayable"},{"type":"function","name":"contributorUnclaimedSIR","inputs":[{"name":"contributor","type":"address","internalType":"address"}],"outputs":[{"name":"","type":"uint80","internalType":"uint80"}],"stateMutability":"view"},{"type":"function","name":"decimals","inputs":[],"outputs":[{"name":"","type":"uint8","internalType":"uint8"}],"stateMutability":"view"},{"type":"function","name":"dividends","inputs":[{"name":"staker","type":"address","internalType":"address"}],"outputs":[{"name":"","type":"uint96","internalType":"uint96"}],"stateMutability":"view"},{"type":"function","name":"initialize","inputs":[{"name":"vault_","type":"address","internalType":"address"}],"outputs":[],"stateMutability":"nonpayable"},{"type":"function","name":"lPerMint","inputs":[{"name":"vaultId","type":"uint256","internalType":"uint256"}],"outputs":[{"name":"rewards","type":"uint80","internalType":"uint80"}],"stateMutability":"nonpayable"},{"type":"function","name":"maxTotalSupply","inputs":[],"outputs":[{"name":"","type":"uint256","internalType":"uint256"}],"stateMutability":"view"},{"type":"function","name":"name","inputs":[],"outputs":[{"name":"","type":"string","internalType":"string"}],"stateMutability":"view"},{"type":"function","name":"nonces","inputs":[{"name":"","type":"address","internalType":"address"}],"outputs":[{"name":"","type":"uint256","internalType":"uint256"}],"stateMutability":"view"},{"type":"function","name":"payAuctionWinner","inputs":[{"name":"token","type":"address","internalType":"address"}],"outputs":[],"stateMutability":"nonpayable"},{"type":"function","name":"permit","inputs":[{"name":"owner","type":"address","internalType":"address"},{"name":"spender","type":"address","internalType":"address"},{"name":"value","type":"uint256","internalType":"uint256"},{"name":"deadline","type":"uint256","internalType":"uint256"},{"name":"v","type":"uint8","internalType":"uint8"},{"name":"r","type":"bytes32","internalType":"bytes32"},{"name":"s","type":"bytes32","internalType":"bytes32"}],"outputs":[],"stateMutability":"nonpayable"},{"type":"function","name":"stake","inputs":[{"name":"amount","type":"uint80","internalType":"uint80"}],"outputs":[],"stateMutability":"nonpayable"},{"type":"function","name":"stakersParams","inputs":[{"name":"staker","type":"address","internalType":"address"}],"outputs":[{"name":"","type":"tuple","internalType":"struct SirStructs.StakingParams","components":[{"name":"stake","type":"uint80","internalType":"uint80"},{"name":"cumETHPerSIRx80","type":"uint176","internalType":"uint176"}]}],"stateMutability":"view"},{"type":"function","name":"supply","inputs":[],"outputs":[{"name":"","type":"uint256","internalType":"uint256"}],"stateMutability":"view"},{"type":"function","name":"symbol","inputs":[],"outputs":[{"name":"","type":"string","internalType":"string"}],"stateMutability":"view"},{"type":"function","name":"totalBalanceOf","inputs":[{"name":"account","type":"address","internalType":"address"}],"outputs":[{"name":"","type":"uint256","internalType":"uint256"}],"stateMutability":"view"},{"type":"function","name":"totalSupply","inputs":[],"outputs":[{"name":"","type":"uint256","internalType":"uint256"}],"stateMutability":"view"},{"type":"function","name":"transfer","inputs":[{"name":"to","type":"address","internalType":"address"},{"name":"amount","type":"uint256","internalType":"uint256"}],"outputs":[{"name":"","type":"bool","internalType":"bool"}],"stateMutability":"nonpayable"},{"type":"function","name":"transferFrom","inputs":[{"name":"from","type":"address","internalType":"address"},{"name":"to","type":"address","internalType":"address"},{"name":"amount","type":"uint256","internalType":"uint256"}],"outputs":[{"name":"","type":"bool","internalType":"bool"}],"stateMutability":"nonpayable"},{"type":"function","name":"unstake","inputs":[{"name":"amount","type":"uint80","internalType":"uint80"}],"outputs":[],"stateMutability":"nonpayable"},{"type":"event","name":"Approval","inputs":[{"name":"owner","type":"address","indexed":true,"internalType":"address"},{"name":"spender","type":"address","indexed":true,"internalType":"address"},{"name":"amount","type":"uint256","indexed":false,"internalType":"uint256"}],"anonymous":false},{"type":"event","name":"AuctionStarted","inputs":[{"name":"token","type":"address","indexed":true,"internalType":"address"}],"anonymous":false},{"type":"event","name":"AuctionedTokensSentToWinner","inputs":[{"name":"winner","type":"address","indexed":true,"internalType":"address"},{"name":"token","type":"address","indexed":true,"internalType":"address"},{"name":"reward","type":"uint256","indexed":false,"internalType":"uint256"}],"anonymous":false},{"type":"event","name":"BidReceived","inputs":[{"name":"bidder","type":"address","indexed":true,"internalType":"address"},{"name":"token","type":"address","indexed":true,"internalType":"address"},{"name":"previousBid","type":"uint96","indexed":false,"internalType":"uint96"},{"name":"newBid","type":"uint96","indexed":false,"internalType":"uint96"}],"anonymous":false},{"type":"event","name":"DividendsClaimed","inputs":[{"name":"staker","type":"address","indexed":true,"internalType":"address"},{"name":"amount","type":"uint96","indexed":false,"internalType":"uint96"}],"anonymous":false},{"type":"event","name":"DividendsPaid","inputs":[{"name":"amountETH","type":"uint256","indexed":false,"internalType":"uint256"}],"anonymous":false},{"type":"event","name":"Staked","inputs":[{"name":"staker","type":"address","indexed":true,"internalType":"address"},{"name":"amount","type":"uint256","indexed":false,"internalType":"uint256"}],"anonymous":false},{"type":"event","name":"Transfer","inputs":[{"name":"from","type":"address","indexed":true,"internalType":"address"},{"name":"to","type":"address","indexed":true,"internalType":"address"},{"name":"amount","type":"uint256","indexed":false,"internalType":"uint256"}],"anonymous":false},{"type":"event","name":"Unstaked","inputs":[{"name":"staker","type":"address","indexed":true,"internalType":"address"},{"name":"amount","type":"uint256","indexed":false,"internalType":"uint256"}],"anonymous":false},{"type":"error","name":"AuctionIsNotOver","inputs":[]},{"type":"error","name":"BidTooLow","inputs":[]},{"type":"error","name":"InvalidSigner","inputs":[]},{"type":"error","name":"NewAuctionCannotStartYet","inputs":[]},{"type":"error","name":"NoAuction","inputs":[]},{"type":"error","name":"NoAuctionLot","inputs":[]},{"type":"error","name":"NoFeesCollectedYet","inputs":[]},{"type":"error","name":"PermitDeadlineExpired","inputs":[]}],"bytecode":{"object":"0x61018060405260256101208181529062003a1761014039600190620000259082620001f3565b5060408051808201909152600381526229a4a960e91b60208201526002906200004f9082620001f3565b50600c60c0523480156200006257600080fd5b5060405162003a3c38038062003a3c8339810160408190526200008591620002bf565b336080526001600160a01b03811660a0524660e05280620000a5620000b2565b61010052506200036f9050565b60007f8b73c3c69bb8fe3d512ecc4cf759cc79239f7b179b0ffacaa9a75d522b39400f6001604051620000e69190620002f1565b6040805191829003822060208301939093528101919091527fc89efdaa54c0f20c7adf612882df0950f5a951637e0307cdcb4c672f298b8bc660608201524660808201523060a082015260c00160405160208183030381529060405280519060200120905090565b634e487b7160e01b600052604160045260246000fd5b600181811c908216806200017957607f821691505b6020821081036200019a57634e487b7160e01b600052602260045260246000fd5b50919050565b601f821115620001ee57600081815260208120601f850160051c81016020861015620001c95750805b601f850160051c820191505b81811015620001ea57828155600101620001d5565b5050505b505050565b81516001600160401b038111156200020f576200020f6200014e565b620002278162000220845462000164565b84620001a0565b602080601f8311600181146200025f5760008415620002465750858301515b600019600386901b1c1916600185901b178555620001ea565b600085815260208120601f198616915b8281101562000290578886015182559484019460019091019084016200026f565b5085821015620002af5787850151600019600388901b60f8161c191681555b5050505050600190811b01905550565b600060208284031215620002d257600080fd5b81516001600160a01b0381168114620002ea57600080fd5b9392505050565b6000808354620003018162000164565b600182811680156200031c5760018114620003325762000363565b60ff198416875282151583028701945062000363565b8760005260208060002060005b858110156200035a5781548a8201529084019082016200033f565b50505082870194505b50929695505050505050565b60805160a05160c05160e05161010051613639620003de6000396000610e1201526000610de201526000610405015260008181611776015281816118e101528181611e1c01528181612130015281816121cd0152818161291601526129f001526000611d5c01526136396000f3fe6080604052600436106101bb5760003560e01c80634c24946b116100ec5780639cf5453d1161008a578063c4d66de811610064578063c4d66de81461070f578063d181af7a1461072f578063d505accf1461076e578063dd62ed3e1461078e57600080fd5b80639cf5453d146106af5780639da16323146106cf578063a9059cbb146106ef57600080fd5b806368306e43116100c657806368306e43146105fe57806370a082311461061e5780637ecebe001461066d57806395d89b411461069a57600080fd5b80634c24946b1461058c5780634e71d92d146105ac5780634f7a21d2146105de57600080fd5b80632ab4d052116101595780633644e515116101335780633644e5151461045b578063460028c9146104705780634a62c384146104905780634b0ee02a1461056c57600080fd5b80632ab4d052146103de578063313ce567146103f3578063331ef1a51461043957600080fd5b8063138d052f11610195578063138d052f1461024957806318160ddd146102795780631d59410a1461028e57806323b872dd146103be57600080fd5b8063047fc9aa146101c757806306fdde03146101f7578063095ea7b31461021957600080fd5b366101c257005b600080fd5b3480156101d357600080fd5b5060045469ffffffffffffffffffff165b6040519081526020015b60405180910390f35b34801561020357600080fd5b5061020c6107c6565b6040516101ee9190612f6a565b34801561022557600080fd5b50610239610234366004612fdf565b610854565b60405190151581526020016101ee565b34801561025557600080fd5b5061025e6108ce565b60405169ffffffffffffffffffff90911681526020016101ee565b34801561028557600080fd5b506101e461093f565b34801561029a57600080fd5b5061035e6102a9366004613009565b6040805160808101825260008082526020820181905291810182905260608101919091525073ffffffffffffffffffffffffffffffffffffffff908116600090815260066020908152604091829020825160808101845281549485168152740100000000000000000000000000000000000000009094046bffffffffffffffffffffffff16918401919091526001015464ffffffffff81169183019190915265010000000000900460ff161515606082015290565b6040516101ee9190815173ffffffffffffffffffffffffffffffffffffffff1681526020808301516bffffffffffffffffffffffff169082015260408083015164ffffffffff169082015260609182015115159181019190915260800190565b3480156103ca57600080fd5b506102396103d9366004613024565b610972565b3480156103ea57600080fd5b506101e4610b09565b3480156103ff57600080fd5b506104277f000000000000000000000000000000000000000000000000000000000000000081565b60405160ff90911681526020016101ee565b34801561044557600080fd5b50610459610454366004613009565b610c06565b005b34801561046757600080fd5b506101e4610dde565b34801561047c57600080fd5b5061025e61048b366004613060565b610e34565b34801561049c57600080fd5b5061052d6104ab366004613009565b60408051808201909152600080825260208201525073ffffffffffffffffffffffffffffffffffffffff1660009081526008602090815260409182902082518084019093525469ffffffffffffffffffff811683526a0100000000000000000000900475ffffffffffffffffffffffffffffffffffffffffffff169082015290565b60408051825169ffffffffffffffffffff16815260209283015175ffffffffffffffffffffffffffffffffffffffffffff1692810192909252016101ee565b34801561057857600080fd5b506101e4610587366004613009565b610efa565b34801561059857600080fd5b506104596105a7366004613094565b610f56565b3480156105b857600080fd5b506105c1611193565b6040516bffffffffffffffffffffffff90911681526020016101ee565b3480156105ea57600080fd5b506104596105f9366004613094565b611365565b34801561060a57600080fd5b506105c1610619366004613009565b611591565b34801561062a57600080fd5b506101e4610639366004613009565b73ffffffffffffffffffffffffffffffffffffffff1660009081526007602052604090205469ffffffffffffffffffff1690565b34801561067957600080fd5b506101e4610688366004613009565b600a6020526000908152604090205481565b3480156106a657600080fd5b5061020c611654565b3480156106bb57600080fd5b506104596106ca366004613009565b611661565b3480156106db57600080fd5b5061025e6106ea366004613009565b611af7565b3480156106fb57600080fd5b5061023961070a366004612fdf565b611c43565b34801561071b57600080fd5b5061045961072a366004613009565b611d26565b34801561073b57600080fd5b5061074f61074a366004613009565b611e06565b6040516dffffffffffffffffffffffffffff90911681526020016101ee565b34801561077a57600080fd5b506104596107893660046130b1565b612259565b34801561079a57600080fd5b506101e46107a9366004613124565b600960209081526000928352604080842090915290825290205481565b600180546107d390613157565b80601f01602080910402602001604051908101604052809291908181526020018280546107ff90613157565b801561084c5780601f106108215761010080835404028352916020019161084c565b820191906000526020600020905b81548152906001019060200180831161082f57829003601f168201915b505050505081565b33600081815260096020908152604080832073ffffffffffffffffffffffffffffffffffffffff8716808552925280832085905551919290917f8c5be1e5ebec7d5bd14f71427d1e84f3dd0314c0f7b2291e5b200ac8c7c3b925906108bc9086815260200190565b60405180910390a35060015b92915050565b60006108d933611af7565b905060008169ffffffffffffffffffff16116108f457600080fd5b6108fe3382612518565b336000908152600b6020526040902080547fffffffffffffffffffffffffffffffffffffffffffffffffffffff0000000000164264ffffffffff1617905590565b6004546003546000916109619169ffffffffffffffffffff91821691166131d9565b69ffffffffffffffffffff16905090565b73ffffffffffffffffffffffffffffffffffffffff831660009081526009602090815260408083203384529091528120547fffffffffffffffffffffffffffffffffffffffffffffffffffffffffffffffff8114610a06576109d48382613203565b73ffffffffffffffffffffffffffffffffffffffff861660009081526009602090815260408083203384529091529020555b73ffffffffffffffffffffffffffffffffffffffff851660009081526007602052604090205469ffffffffffffffffffff1680841115610a4557600080fd5b73ffffffffffffffffffffffffffffffffffffffff808716600081815260076020526040808220805469ffffffffffffffffffff8a880381167fffffffffffffffffffffffffffffffffffffffffffff0000000000000000000092831617909255948a168084529282902080548083168b01909216919095161790935591517fddf252ad1be2c89b69c2b068fc378daa952ba7f163c4a11628f55a4df523b3ef90610af39088815260200190565b60405180910390a36001925050505b9392505050565b60008060009054906101000a900473ffffffffffffffffffffffffffffffffffffffff1673ffffffffffffffffffffffffffffffffffffffff1663ffda9c606040518163ffffffff1660e01b8152600401602060405180830381865afa158015610b77573d6000803e3d6000fd5b505050506040513d601f19601f82011682018060405250810190610b9b9190613216565b610bac9064ffffffffff1642613203565b6301e133806001610bbf600c600a61335d565b610bcd9063781a75c061336c565b610bd79190613203565b610be191906133b2565b610bec906001613401565b68ffffffffffffffffff16610c01919061336c565b905090565b73ffffffffffffffffffffffffffffffffffffffff818116600090815260066020908152604091829020825160808101845281549485168152740100000000000000000000000000000000000000009094046bffffffffffffffffffffffff16918401919091526001015464ffffffffff811691830182905265010000000000900460ff1615156060830152610ca0906201518090613423565b64ffffffffff16421015610cdf576040517e175ba800000000000000000000000000000000000000000000000000000000815260040160405180910390fd5b73ffffffffffffffffffffffffffffffffffffffff82166000908152600660209081526040822060010180547fffffffffffffffffffffffffffffffffffffffffffffffffffff00ffffffffff1665010000000000179055820151600554610d5591906bffffffffffffffffffffffff16613441565b600580547fffffffffffffffffffffffffffffffffffffffff000000000000000000000000166bffffffffffffffffffffffff83161790559050610d9983836125ca565b610dcf576040517fa90c149f00000000000000000000000000000000000000000000000000000000815260040160405180910390fd5b610dd8816128be565b50505050565b60007f00000000000000000000000000000000000000000000000000000000000000004614610e0f57610c01612ba8565b507f000000000000000000000000000000000000000000000000000000000000000090565b600080546040517f777b1d430000000000000000000000000000000000000000000000000000000081526004810184905233602482015273ffffffffffffffffffffffffffffffffffffffff9091169063777b1d43906044016020604051808303816000875af1158015610eac573d6000803e3d6000fd5b505050506040513d601f19601f82011682018060405250810190610ed09190613466565b905060008169ffffffffffffffffffff1611610eeb57600080fd5b610ef53382612518565b919050565b73ffffffffffffffffffffffffffffffffffffffff81166000908152600760209081526040808320546008909252822054610f449169ffffffffffffffffffff90811691166131d9565b69ffffffffffffffffffff1692915050565b33600081815260076020908152604080832081518083018352905469ffffffffffffffffffff80821683526bffffffffffffffffffffffff6a010000000000000000000092839004168386015283518085018552600354808316825275ffffffffffffffffffffffffffffffffffffffffffff9084900481168288015297875260088652848720855180870190965254918216808652929091049096169383019390935293929091611009908690613483565b905060405180604001604052808686600001510169ffffffffffffffffffff168152602001611039868686612c42565b6bffffffffffffffffffffffff90811690915233600081815260076020908152604080832086518154978401519096166a01000000000000000000009081027fffffffffffffffffffff0000000000000000000000000000000000000000000090981669ffffffffffffffffffff978816179790971790558051808201825287861681528983015175ffffffffffffffffffffffffffffffffffffffffffff90811682850190815286865260089094529382902090519251909316909502908416179055600480548084168a0184167fffffffffffffffffffffffffffffffffffffffffffff0000000000000000000091821617909155865160038054918b900390941691161790915590517f0f5bb82176feb1b5e747e28471aa92156a04d9f3ab9f45f28e2d704232b93f759061118490889069ffffffffffffffffffff91909116815260200190565b60405180910390a25050505050565b60408051808201825260035469ffffffffffffffffffff808216835275ffffffffffffffffffffffffffffffffffffffffffff6a0100000000000000000000928390048116602080860191909152336000818152600783528781208851808a018a52905480871682526bffffffffffffffffffffffff908890041681850152918152600883528781208851808a019099525494851688529490930490911690850152909261124391908390612c42565b33600081815260076020908152604080832080547fffffffffffffffffffff000000000000000000000000ffffffffffffffffffff908116909155868301516008909352818420805469ffffffffffffffffffff166a010000000000000000000075ffffffffffffffffffffffffffffffffffffffffffff9095168502179055600480549182166bffffffffffffffffffffffff9285900483168890038316909402939093179092555193955091926108fc9286168015939093029291818181858888f1935050505015801561131d573d6000803e3d6000fd5b506040516bffffffffffffffffffffffff8316815233907fce98842d3995a36decbd0af8544d33045ef9cbcd477386c9c633dc8e13f2992d9060200160405180910390a25090565b33600081815260076020908152604080832081518083018352905469ffffffffffffffffffff80821683526bffffffffffffffffffffffff6a010000000000000000000092839004168386015283518085018552600354808316825275ffffffffffffffffffffffffffffffffffffffffffff908490048116828801529787526008865284872085518087019096525491821685529190049095169282019290925281519193929091611419908690613483565b905060405180604001604052808269ffffffffffffffffffff168152602001611443868686612c42565b6bffffffffffffffffffffffff90811690915233600081815260076020908152604080832086518154978401519096166a01000000000000000000009081027fffffffffffffffffffff0000000000000000000000000000000000000000000090981669ffffffffffffffffffff978816179790971790558051808201825288518c01861681528983015175ffffffffffffffffffffffffffffffffffffffffffff90811682850190815286865260089094529382902090519251909316909502908416179055600480548084168a900384167fffffffffffffffffffffffffffffffffffffffffffff0000000000000000000091821617909155865160038054918b0190941691161790915590517f9e71bc8eea02a63969f509818f2dafb9254532904319f9dbda79b67bd34a5f3d9061118490889069ffffffffffffffffffff91909116815260200190565b73ffffffffffffffffffffffffffffffffffffffff8116600081815260076020908152604080832081518083018352905469ffffffffffffffffffff80821683526bffffffffffffffffffffffff6a010000000000000000000092839004168386015283518085018552600354808316825275ffffffffffffffffffffffffffffffffffffffffffff908490048116828801529787526008865284872085518087019096525491821685529190049095169282019290925291926108c892612c42565b600280546107d390613157565b73ffffffffffffffffffffffffffffffffffffffff818116600090815260066020908152604091829020825160808101845281549485168152740100000000000000000000000000000000000000009094046bffffffffffffffffffffffff16918401919091526001015464ffffffffff8082169284018390526501000000000090910460ff16151560608401526201518090910116421061172f576040517f71d00de200000000000000000000000000000000000000000000000000000000815260040160405180910390fd5b6005546040517f70a082310000000000000000000000000000000000000000000000000000000081523060048201526bffffffffffffffffffffffff9091169060009082907f000000000000000000000000000000000000000000000000000000000000000073ffffffffffffffffffffffffffffffffffffffff16906370a0823190602401602060405180830381865afa1580156117d2573d6000803e3d6000fd5b505050506040513d601f19601f820116820180604052508101906117f691906134a6565b8451919003915073ffffffffffffffffffffffffffffffffffffffff16330361185e57600580547fffffffffffffffffffffffffffffffffffffffff000000000000000000000000168284016bffffffffffffffffffffffff1617905560208301510161198b565b6020830151600580546bffffffffffffffffffffffff858501849003167fffffffffffffffffffffffffffffffffffffffff00000000000000000000000090911617905583516040517fa9059cbb00000000000000000000000000000000000000000000000000000000815273ffffffffffffffffffffffffffffffffffffffff7f0000000000000000000000000000000000000000000000000000000000000000169263a9059cbb926119469290919060040173ffffffffffffffffffffffffffffffffffffffff9290921682526bffffffffffffffffffffffff16602082015260400190565b6020604051808303816000875af1158015611965573d6000803e3d6000fd5b505050506040513d601f19601f8201168201806040525081019061198991906134bf565b505b82602001516bffffffffffffffffffffffff16816bffffffffffffffffffffffff16116119e4576040517fa0d26eb600000000000000000000000000000000000000000000000000000000815260040160405180910390fd5b60408051608081018252338082526bffffffffffffffffffffffff84811660208085018281528987015164ffffffffff90811687890190815260006060890181815273ffffffffffffffffffffffffffffffffffffffff8f811680845260068852928c90209a5195518916740100000000000000000000000000000000000000000295169490941789559051600190980180549351151565010000000000027fffffffffffffffffffffffffffffffffffffffffffffffffffff000000000000909416989092169790971791909117905588810151865193168352820152919290917f0aa963c9c96f25e87258ff077b609aab138a567d7617a8e86a21decf9e48984b910160405180910390a350505050565b600080611b0383612c9b565b66ffffffffffffff16905080600003611b1f5750600092915050565b60008060009054906101000a900473ffffffffffffffffffffffffffffffffffffffff1673ffffffffffffffffffffffffffffffffffffffff1663ffda9c606040518163ffffffff1660e01b8152600401602060405180830381865afa158015611b8d573d6000803e3d6000fd5b505050506040513d601f19601f82011682018060405250810190611bb19190613216565b73ffffffffffffffffffffffffffffffffffffffff85166000908152600b602052604090205490915064ffffffffff6305a39a80830181169116818110611bfe5750600095945050505050565b80600003611c10575064ffffffffff82165b66ffffffffffffff651246b07ae288850204600042841115611c325742611c34565b835b92909203029695505050505050565b3360009081526007602052604081205469ffffffffffffffffffff1680831115611c6c57600080fd5b33600081815260076020908152604080832080547fffffffffffffffffffffffffffffffffffffffffffff0000000000000000000090811689880369ffffffffffffffffffff9081169190911790925573ffffffffffffffffffffffffffffffffffffffff8a168086529483902080549182169183168a01909216179055518681529192917fddf252ad1be2c89b69c2b068fc378daa952ba7f163c4a11628f55a4df523b3ef910160405180910390a35060019392505050565b6005546c01000000000000000000000000900460ff16158015611d7e57503373ffffffffffffffffffffffffffffffffffffffff7f000000000000000000000000000000000000000000000000000000000000000016145b611d8757600080fd5b6000805473ffffffffffffffffffffffffffffffffffffffff9092167fffffffffffffffffffffffff0000000000000000000000000000000000000000909216919091179055600580547fffffffffffffffffffffffffffffffffffffff00ffffffffffffffffffffffff166c01000000000000000000000000179055565b6005546000906bffffffffffffffffffffffff167f000000000000000000000000000000000000000000000000000000000000000073ffffffffffffffffffffffffffffffffffffffff9081169084161461207d5773ffffffffffffffffffffffffffffffffffffffff838116600090815260066020908152604091829020825160808101845281549485168152740100000000000000000000000000000000000000009094046bffffffffffffffffffffffff16918401919091526001015464ffffffffff8082169284018390526501000000000090910460ff1615156060840152620d9170909101908116421015611f2c576040517f977a44ab00000000000000000000000000000000000000000000000000000000815260040160405180910390fd5b60408051608081018252600080825260208083018281524264ffffffffff9081168587019081526060860185815273ffffffffffffffffffffffffffffffffffffffff8d8116875260068652979095209551925192909616740100000000000000000000000000000000000000006bffffffffffffffffffffffff938416021785559451600190940180549351949095167fffffffffffffffffffffffffffffffffffffffffffffffffffff00000000000090931692909217650100000000009315159390930292909217909255830151600580547fffffffffffffffffffffffffffffffffffffffff00000000000000000000000016919095039182161790935561203885836125ca565b5060405173ffffffffffffffffffffffffffffffffffffffff8616907f5036af25bdace72875a429f12adf7d81782590b0da3dc10d149541bfc28863d090600090a250505b6000546040517f164e68de00000000000000000000000000000000000000000000000000000000815273ffffffffffffffffffffffffffffffffffffffff85811660048301529091169063164e68de906024016020604051808303816000875af11580156120ef573d6000803e3d6000fd5b505050506040513d601f19601f8201168201806040525081019061211391906134e1565b91506dffffffffffffffffffffffffffff821615801561217f57507f000000000000000000000000000000000000000000000000000000000000000073ffffffffffffffffffffffffffffffffffffffff168373ffffffffffffffffffffffffffffffffffffffff1614155b156121b6576040517f30de376600000000000000000000000000000000000000000000000000000000815260040160405180910390fd5b60006121c1826128be565b905080801561221b57507f000000000000000000000000000000000000000000000000000000000000000073ffffffffffffffffffffffffffffffffffffffff168473ffffffffffffffffffffffffffffffffffffffff16145b15612252576040517f30de376600000000000000000000000000000000000000000000000000000000815260040160405180910390fd5b5050919050565b42841015612293576040517f05787bdf00000000000000000000000000000000000000000000000000000000815260040160405180910390fd5b6000600161229f610dde565b73ffffffffffffffffffffffffffffffffffffffff8a81166000818152600a602090815260409182902080546001810190915582517f6e71edae12b1b97f4d1f60370fef10105fa2faae0126114a169c64845d6126c98184015280840194909452938d166060840152608083018c905260a083019390935260c08083018b90528151808403909101815260e0830190915280519201919091207f190100000000000000000000000000000000000000000000000000000000000061010083015261010282019290925261012281019190915261014201604080517fffffffffffffffffffffffffffffffffffffffffffffffffffffffffffffffe08184030181528282528051602091820120600084529083018083525260ff871690820152606081018590526080810184905260a0016020604051602081039080840390855afa1580156123f1573d6000803e3d6000fd5b50506040517fffffffffffffffffffffffffffffffffffffffffffffffffffffffffffffffe0015191505073ffffffffffffffffffffffffffffffffffffffff8116158061246b57508773ffffffffffffffffffffffffffffffffffffffff168173ffffffffffffffffffffffffffffffffffffffff1614155b156124a2576040517f815e1d6400000000000000000000000000000000000000000000000000000000815260040160405180910390fd5b73ffffffffffffffffffffffffffffffffffffffff90811660009081526009602090815260408083208a8516808552908352928190208990555188815291928a16917f8c5be1e5ebec7d5bd14f71427d1e84f3dd0314c0f7b2291e5b200ac8c7c3b925910160405180910390a350505050505050565b6004805469ffffffffffffffffffff808216840181167fffffffffffffffffffffffffffffffffffffffffffff000000000000000000009283161790925573ffffffffffffffffffffffffffffffffffffffff8416600081815260076020908152604080832080548088168901881696169590951790945592519385168452909290917fddf252ad1be2c89b69c2b068fc378daa952ba7f163c4a11628f55a4df523b3ef910160405180910390a35050565b60008160600151156125de575060006108c8565b81602001516bffffffffffffffffffffffff16600003612600575060006108c8565b60405130602482015260609073ffffffffffffffffffffffffffffffffffffffff851690604401604080517fffffffffffffffffffffffffffffffffffffffffffffffffffffffffffffffe08184030181529181526020820180517bffffffffffffffffffffffffffffffffffffffffffffffffffffffff167f70a0823100000000000000000000000000000000000000000000000000000000179052516126a89190613511565b6000604051808303816000865af19150503d80600081146126e5576040519150601f19603f3d011682016040523d82523d6000602084013e6126ea565b606091505b5090925090508115806126ff57508051602014155b1561270e5760009150506108c8565b60008180602001905181019061272491906134a6565b905080600003612739576001925050506108c8565b835160405173ffffffffffffffffffffffffffffffffffffffff91821660248201526044810183905290861690606401604080517fffffffffffffffffffffffffffffffffffffffffffffffffffffffffffffffe08184030181529181526020820180517bffffffffffffffffffffffffffffffffffffffffffffffffffffffff167fa9059cbb00000000000000000000000000000000000000000000000000000000179052516127ea9190613511565b6000604051808303816000865af19150503d8060008114612827576040519150601f19603f3d011682016040523d82523d6000602084013e61282c565b606091505b50805191945092501580159061285357508180602001905181019061285191906134bf565b155b15612863576000925050506108c8565b835160405182815273ffffffffffffffffffffffffffffffffffffffff8088169216907ff1e390dffccd4dabab220f97e89cff952db4e09071912ea3d657a0a621ea001d9060200160405180910390a3506001949350505050565b6040517f70a0823100000000000000000000000000000000000000000000000000000000815230600482015260009081906bffffffffffffffffffffffff84169073ffffffffffffffffffffffffffffffffffffffff7f000000000000000000000000000000000000000000000000000000000000000016906370a0823190602401602060405180830381865afa15801561295d573d6000803e3d6000fd5b505050506040513d601f19601f8201168201806040525081019061298191906134a6565b60045491900391506a010000000000000000000090046bffffffffffffffffffffffff164781900380830160008190036129c15750600195945050505050565b6040517f2e1a7d4d000000000000000000000000000000000000000000000000000000008152600481018590527f000000000000000000000000000000000000000000000000000000000000000073ffffffffffffffffffffffffffffffffffffffff1690632e1a7d4d90602401600060405180830381600087803b158015612a4957600080fd5b505af1158015612a5d573d6000803e3d6000fd5b50506040805180820190915260035469ffffffffffffffffffff81168083526a010000000000000000000090910475ffffffffffffffffffffffffffffffffffffffffffff1660208301529092506000039050612ac1575060019695505050505050565b805169ffffffffffffffffffff16605083901b81612ae157612ae1613383565b048160200151016003600001600a6101000a81548175ffffffffffffffffffffffffffffffffffffffffffff021916908375ffffffffffffffffffffffffffffffffffffffffffff1602179055508184016004600001600a6101000a8154816bffffffffffffffffffffffff02191690836bffffffffffffffffffffffff1602179055507f2c33998a0a762573e90ee90157bd106909dee9b230db902fcdfbab148f00e5c982604051612b9691815260200190565b60405180910390a15050505050919050565b60007f8b73c3c69bb8fe3d512ecc4cf759cc79239f7b179b0ffacaa9a75d522b39400f6001604051612bda919061352d565b6040805191829003822060208301939093528101919091527fc89efdaa54c0f20c7adf612882df0950f5a951637e0307cdcb4c672f298b8bc660608201524660808201523060a082015260c00160405160208183030381529060405280519060200120905090565b6020830151815169ffffffffffffffffffff1615610b025781516020808401519085015175ffffffffffffffffffffffffffffffffffffffffffff9190031669ffffffffffffffffffff9091160260501c019392505050565b60007fffffffffffffffffffffffffffffffffffffffffffffffffffffffffffffffef73ffffffffffffffffffffffffffffffffffffffff831601612ce85750665166658a4af5ec919050565b7fffffffffffffffffffffffffffffffffffffffffffffffffffffffffffffffee73ffffffffffffffffffffffffffffffffffffffff831601612d325750653e83e37ca410919050565b7fffffffffffffffffffffffffffffffffffffffffffffffffffffffffffffffed73ffffffffffffffffffffffffffffffffffffffff831601612d7c57506514d6a1298c05919050565b7fffffffffffffffffffffffffffffffffffffffffffffffffffffffffffffffec73ffffffffffffffffffffffffffffffffffffffff831601612dc757506628b332c5257af6919050565b7fffffffffffffffffffffffffffffffffffffffffffffffffffffffffffffffeb73ffffffffffffffffffffffffffffffffffffffff831601612e12575066059feee6b6e51d919050565b7fffffffffffffffffffffffffffffffffffffffffffffffffffffffffffffffea73ffffffffffffffffffffffffffffffffffffffff831601612e5d57506622bfe959c865c2919050565b7fffffffffffffffffffffffffffffffffffffffffffffffffffffffffffffffff73ffffffffffffffffffffffffffffffffffffffff831601612ea85750660554c07c013887919050565b7ffffffffffffffffffffffffffffffffffffffffffffffffffffffffffffffffe73ffffffffffffffffffffffffffffffffffffffff831601612ef35750663ff905d00ea654919050565b7ffffffffffffffffffffffffffffffffffffffffffffffffffffffffffffffffd73ffffffffffffffffffffffffffffffffffffffff831601612f3e57506617e56e9f5a354e919050565b506000919050565b60005b83811015612f61578181015183820152602001612f49565b50506000910152565b6020815260008251806020840152612f89816040850160208701612f46565b601f017fffffffffffffffffffffffffffffffffffffffffffffffffffffffffffffffe0169190910160400192915050565b803573ffffffffffffffffffffffffffffffffffffffff81168114610ef557600080fd5b60008060408385031215612ff257600080fd5b612ffb83612fbb565b946020939093013593505050565b60006020828403121561301b57600080fd5b610b0282612fbb565b60008060006060848603121561303957600080fd5b61304284612fbb565b925061305060208501612fbb565b9150604084013590509250925092565b60006020828403121561307257600080fd5b5035919050565b69ffffffffffffffffffff8116811461309157600080fd5b50565b6000602082840312156130a657600080fd5b8135610b0281613079565b600080600080600080600060e0888a0312156130cc57600080fd5b6130d588612fbb565b96506130e360208901612fbb565b95506040880135945060608801359350608088013560ff8116811461310757600080fd5b9699959850939692959460a0840135945060c09093013592915050565b6000806040838503121561313757600080fd5b61314083612fbb565b915061314e60208401612fbb565b90509250929050565b600181811c9082168061316b57607f821691505b6020821081036131a4577f4e487b7100000000000000000000000000000000000000000000000000000000600052602260045260246000fd5b50919050565b7f4e487b7100000000000000000000000000000000000000000000000000000000600052601160045260246000fd5b69ffffffffffffffffffff8181168382160190808211156131fc576131fc6131aa565b5092915050565b818103818111156108c8576108c86131aa565b60006020828403121561322857600080fd5b815164ffffffffff81168114610b0257600080fd5b600181815b8085111561329657817fffffffffffffffffffffffffffffffffffffffffffffffffffffffffffffffff0482111561327c5761327c6131aa565b8085161561328957918102915b93841c9390800290613242565b509250929050565b6000826132ad575060016108c8565b816132ba575060006108c8565b81600181146132d057600281146132da576132f6565b60019150506108c8565b60ff8411156132eb576132eb6131aa565b50506001821b6108c8565b5060208310610133831016604e8410600b8410161715613319575081810a6108c8565b613323838361323d565b807fffffffffffffffffffffffffffffffffffffffffffffffffffffffffffffffff04821115613355576133556131aa565b029392505050565b6000610b0260ff84168361329e565b80820281158282048414176108c8576108c86131aa565b7f4e487b7100000000000000000000000000000000000000000000000000000000600052601260045260246000fd5b600068ffffffffffffffffff808416806133f5577f4e487b7100000000000000000000000000000000000000000000000000000000600052601260045260246000fd5b92169190910492915050565b68ffffffffffffffffff8181168382160190808211156131fc576131fc6131aa565b64ffffffffff8181168382160190808211156131fc576131fc6131aa565b6bffffffffffffffffffffffff8281168282160390808211156131fc576131fc6131aa565b60006020828403121561347857600080fd5b8151610b0281613079565b69ffffffffffffffffffff8281168282160390808211156131fc576131fc6131aa565b6000602082840312156134b857600080fd5b5051919050565b6000602082840312156134d157600080fd5b81518015158114610b0257600080fd5b6000602082840312156134f357600080fd5b81516dffffffffffffffffffffffffffff81168114610b0257600080fd5b60008251613523818460208701612f46565b9190910192915050565b600080835481600182811c91508083168061354957607f831692505b60208084108203613581577f4e487b710000000000000000000000000000000000000000000000000000000086526022600452602486fd5b81801561359557600181146135c8576135f5565b7fffffffffffffffffffffffffffffffffffffffffffffffffffffffffffffff00861689528415158502890196506135f5565b60008a81526020902060005b868110156135ed5781548b8201529085019083016135d4565b505084890196505b50949897505050505050505056fea2646970667358221220d6e11c0bb466d31985d8b003ba523dd6a1ae5ebe6a38bdda12fa5a9a90168fa464736f6c6343000815003353796e74686574696320496e74656c6c6967656e742052656879706f746865636174696f6e","linkReferences":{}},"methodIdentifiers":{"DOMAIN_SEPARATOR()":"3644e515","allowance(address,address)":"dd62ed3e","approve(address,uint256)":"095ea7b3","auctions(address)":"1d59410a","balanceOf(address)":"70a08231","bid(address)":"9cf5453d","claim()":"4e71d92d","collectFeesAndStartAuction(address)":"d181af7a","contributorMint()":"138d052f","contributorUnclaimedSIR(address)":"9da16323","decimals()":"313ce567","dividends(address)":"68306e43","initialize(address)":"c4d66de8","lPerMint(uint256)":"460028c9","maxTotalSupply()":"2ab4d052","name()":"06fdde03","nonces(address)":"7ecebe00","payAuctionWinner(address)":"331ef1a5","permit(address,address,uint256,uint256,uint8,bytes32,bytes32)":"d505accf","stake(uint80)":"4f7a21d2","stakersParams(address)":"4a62c384","supply()":"047fc9aa","symbol()":"95d89b41","totalBalanceOf(address)":"4b0ee02a","totalSupply()":"18160ddd","transfer(address,uint256)":"a9059cbb","transferFrom(address,address,uint256)":"23b872dd","unstake(uint80)":"4c24946b"},"id":48}