{"abi":[{"type":"constructor","inputs":[{"name":"weth","type":"address","internalType":"address"}],"stateMutability":"nonpayable"},{"type":"receive","stateMutability":"payable"},{"type":"function","name":"DOMAIN_SEPARATOR","inputs":[],"outputs":[{"name":"","type":"bytes32","internalType":"bytes32"}],"stateMutability":"view"},{"type":"function","name":"allowance","inputs":[{"name":"","type":"address","internalType":"address"},{"name":"","type":"address","internalType":"address"}],"outputs":[{"name":"","type":"uint256","internalType":"uint256"}],"stateMutability":"view"},{"type":"function","name":"approve","inputs":[{"name":"spender","type":"address","internalType":"address"},{"name":"amount","type":"uint256","internalType":"uint256"}],"outputs":[{"name":"","type":"bool","internalType":"bool"}],"stateMutability":"nonpayable"},{"type":"function","name":"auctions","inputs":[{"name":"token","type":"address","internalType":"address"}],"outputs":[{"name":"","type":"tuple","internalType":"struct SirStructs.Auction","components":[{"name":"bidder","type":"address","internalType":"address"},{"name":"bid","type":"uint96","internalType":"uint96"},{"name":"startTime","type":"uint40","internalType":"uint40"}]}],"stateMutability":"view"},{"type":"function","name":"balanceOf","inputs":[{"name":"account","type":"address","internalType":"address"}],"outputs":[{"name":"","type":"uint256","internalType":"uint256"}],"stateMutability":"view"},{"type":"function","name":"bid","inputs":[{"name":"token","type":"address","internalType":"address"}],"outputs":[],"stateMutability":"nonpayable"},{"type":"function","name":"claim","inputs":[],"outputs":[{"name":"dividends_","type":"uint96","internalType":"uint96"}],"stateMutability":"nonpayable"},{"type":"function","name":"collectFeesAndStartAuction","inputs":[{"name":"token","type":"address","internalType":"address"}],"outputs":[{"name":"totalFeesToStakers","type":"uint112","internalType":"uint112"}],"stateMutability":"nonpayable"},{"type":"function","name":"contributorMint","inputs":[],"outputs":[{"name":"rewards","type":"uint80","internalType":"uint80"}],"stateMutability":"nonpayable"},{"type":"function","name":"contributorUnclaimedSIR","inputs":[{"name":"contributor","type":"address","internalType":"address"}],"outputs":[{"name":"","type":"uint80","internalType":"uint80"}],"stateMutability":"view"},{"type":"function","name":"decimals","inputs":[],"outputs":[{"name":"","type":"uint8","internalType":"uint8"}],"stateMutability":"view"},{"type":"function","name":"dividends","inputs":[{"name":"staker","type":"address","internalType":"address"}],"outputs":[{"name":"","type":"uint96","internalType":"uint96"}],"stateMutability":"view"},{"type":"function","name":"initialize","inputs":[{"name":"vault_","type":"address","internalType":"address"}],"outputs":[],"stateMutability":"nonpayable"},{"type":"function","name":"lPerMint","inputs":[{"name":"vaultId","type":"uint256","internalType":"uint256"}],"outputs":[{"name":"rewards","type":"uint80","internalType":"uint80"}],"stateMutability":"nonpayable"},{"type":"function","name":"maxTotalSupply","inputs":[],"outputs":[{"name":"","type":"uint256","internalType":"uint256"}],"stateMutability":"view"},{"type":"function","name":"name","inputs":[],"outputs":[{"name":"","type":"string","internalType":"string"}],"stateMutability":"view"},{"type":"function","name":"nonces","inputs":[{"name":"","type":"address","internalType":"address"}],"outputs":[{"name":"","type":"uint256","internalType":"uint256"}],"stateMutability":"view"},{"type":"function","name":"payAuctionWinner","inputs":[{"name":"token","type":"address","internalType":"address"}],"outputs":[],"stateMutability":"nonpayable"},{"type":"function","name":"permit","inputs":[{"name":"owner","type":"address","internalType":"address"},{"name":"spender","type":"address","internalType":"address"},{"name":"value","type":"uint256","internalType":"uint256"},{"name":"deadline","type":"uint256","internalType":"uint256"},{"name":"v","type":"uint8","internalType":"uint8"},{"name":"r","type":"bytes32","internalType":"bytes32"},{"name":"s","type":"bytes32","internalType":"bytes32"}],"outputs":[],"stateMutability":"nonpayable"},{"type":"function","name":"stake","inputs":[{"name":"amount","type":"uint80","internalType":"uint80"}],"outputs":[],"stateMutability":"nonpayable"},{"type":"function","name":"stakersParams","inputs":[{"name":"staker","type":"address","internalType":"address"}],"outputs":[{"name":"","type":"tuple","internalType":"struct SirStructs.StakingParams","components":[{"name":"stake","type":"uint80","internalType":"uint80"},{"name":"cumETHPerSIRx80","type":"uint176","internalType":"uint176"}]}],"stateMutability":"view"},{"type":"function","name":"supply","inputs":[],"outputs":[{"name":"","type":"uint256","internalType":"uint256"}],"stateMutability":"view"},{"type":"function","name":"symbol","inputs":[],"outputs":[{"name":"","type":"string","internalType":"string"}],"stateMutability":"view"},{"type":"function","name":"totalBalanceOf","inputs":[{"name":"account","type":"address","internalType":"address"}],"outputs":[{"name":"","type":"uint256","internalType":"uint256"}],"stateMutability":"view"},{"type":"function","name":"totalSupply","inputs":[],"outputs":[{"name":"","type":"uint256","internalType":"uint256"}],"stateMutability":"view"},{"type":"function","name":"transfer","inputs":[{"name":"to","type":"address","internalType":"address"},{"name":"amount","type":"uint256","internalType":"uint256"}],"outputs":[{"name":"","type":"bool","internalType":"bool"}],"stateMutability":"nonpayable"},{"type":"function","name":"transferFrom","inputs":[{"name":"from","type":"address","internalType":"address"},{"name":"to","type":"address","internalType":"address"},{"name":"amount","type":"uint256","internalType":"uint256"}],"outputs":[{"name":"","type":"bool","internalType":"bool"}],"stateMutability":"nonpayable"},{"type":"function","name":"unstake","inputs":[{"name":"amount","type":"uint80","internalType":"uint80"}],"outputs":[],"stateMutability":"nonpayable"},{"type":"event","name":"Approval","inputs":[{"name":"owner","type":"address","indexed":true,"internalType":"address"},{"name":"spender","type":"address","indexed":true,"internalType":"address"},{"name":"amount","type":"uint256","indexed":false,"internalType":"uint256"}],"anonymous":false},{"type":"event","name":"AuctionStarted","inputs":[{"name":"token","type":"address","indexed":true,"internalType":"address"}],"anonymous":false},{"type":"event","name":"AuctionedTokensSentToWinner","inputs":[{"name":"winner","type":"address","indexed":true,"internalType":"address"},{"name":"token","type":"address","indexed":true,"internalType":"address"},{"name":"reward","type":"uint256","indexed":false,"internalType":"uint256"}],"anonymous":false},{"type":"event","name":"BidReceived","inputs":[{"name":"bidder","type":"address","indexed":true,"internalType":"address"},{"name":"token","type":"address","indexed":true,"internalType":"address"},{"name":"previousBid","type":"uint96","indexed":false,"internalType":"uint96"},{"name":"newBid","type":"uint96","indexed":false,"internalType":"uint96"}],"anonymous":false},{"type":"event","name":"DividendsClaimed","inputs":[{"name":"staker","type":"address","indexed":true,"internalType":"address"},{"name":"amount","type":"uint96","indexed":false,"internalType":"uint96"}],"anonymous":false},{"type":"event","name":"DividendsPaid","inputs":[{"name":"amountETH","type":"uint256","indexed":false,"internalType":"uint256"}],"anonymous":false},{"type":"event","name":"Staked","inputs":[{"name":"staker","type":"address","indexed":true,"internalType":"address"},{"name":"amount","type":"uint256","indexed":false,"internalType":"uint256"}],"anonymous":false},{"type":"event","name":"Transfer","inputs":[{"name":"from","type":"address","indexed":true,"internalType":"address"},{"name":"to","type":"address","indexed":true,"internalType":"address"},{"name":"amount","type":"uint256","indexed":false,"internalType":"uint256"}],"anonymous":false},{"type":"event","name":"Unstaked","inputs":[{"name":"staker","type":"address","indexed":true,"internalType":"address"},{"name":"amount","type":"uint256","indexed":false,"internalType":"uint256"}],"anonymous":false},{"type":"error","name":"AuctionIsNotOver","inputs":[]},{"type":"error","name":"BidTooLow","inputs":[]},{"type":"error","name":"InvalidSigner","inputs":[]},{"type":"error","name":"NewAuctionCannotStartYet","inputs":[]},{"type":"error","name":"NoAuction","inputs":[]},{"type":"error","name":"NoAuctionLot","inputs":[]},{"type":"error","name":"NoFeesCollectedYet","inputs":[]},{"type":"error","name":"PermitDeadlineExpired","inputs":[]}],"bytecode":{"object":"0x610180604052602561012081815290620039a661014039600190620000259082620001f3565b5060408051808201909152600381526229a4a960e91b60208201526002906200004f9082620001f3565b50600c60c0523480156200006257600080fd5b50604051620039cb380380620039cb8339810160408190526200008591620002bf565b336080526001600160a01b03811660a0524660e05280620000a5620000b2565b61010052506200036f9050565b60007f8b73c3c69bb8fe3d512ecc4cf759cc79239f7b179b0ffacaa9a75d522b39400f6001604051620000e69190620002f1565b6040805191829003822060208301939093528101919091527fc89efdaa54c0f20c7adf612882df0950f5a951637e0307cdcb4c672f298b8bc660608201524660808201523060a082015260c00160405160208183030381529060405280519060200120905090565b634e487b7160e01b600052604160045260246000fd5b600181811c908216806200017957607f821691505b6020821081036200019a57634e487b7160e01b600052602260045260246000fd5b50919050565b601f821115620001ee57600081815260208120601f850160051c81016020861015620001c95750805b601f850160051c820191505b81811015620001ea57828155600101620001d5565b5050505b505050565b81516001600160401b038111156200020f576200020f6200014e565b620002278162000220845462000164565b84620001a0565b602080601f8311600181146200025f5760008415620002465750858301515b600019600386901b1c1916600185901b178555620001ea565b600085815260208120601f198616915b8281101562000290578886015182559484019460019091019084016200026f565b5085821015620002af5787850151600019600388901b60f8161c191681555b5050505050600190811b01905550565b600060208284031215620002d257600080fd5b81516001600160a01b0381168114620002ea57600080fd5b9392505050565b6000808354620003018162000164565b600182811680156200031c5760018114620003325762000363565b60ff198416875282151583028701945062000363565b8760005260208060002060005b858110156200035a5781548a8201529084019082016200033f565b50505082870194505b50929695505050505050565b60805160a05160c05160e051610100516135c1620003e56000396000610d9e01526000610d6e015260006103cc0152600081816116ee0152818161185901528181611d9a0152818161206a015281816121070152818161218e015281816125bc015261269601526000611cbe01526135c16000f3fe6080604052600436106101bb5760003560e01c80634c24946b116100ec5780639cf5453d1161008a578063c4d66de811610064578063c4d66de8146106d6578063d181af7a146106f6578063d505accf14610735578063dd62ed3e1461075557600080fd5b80639cf5453d146106765780639da1632314610696578063a9059cbb146106b657600080fd5b806368306e43116100c657806368306e43146105c557806370a08231146105e55780637ecebe001461063457806395d89b411461066157600080fd5b80634c24946b146105535780634e71d92d146105735780634f7a21d2146105a557600080fd5b80632ab4d052116101595780633644e515116101335780633644e51514610422578063460028c9146104375780634a62c384146104575780634b0ee02a1461053357600080fd5b80632ab4d052146103a5578063313ce567146103ba578063331ef1a51461040057600080fd5b8063138d052f11610195578063138d052f1461024957806318160ddd146102795780631d59410a1461028e57806323b872dd1461038557600080fd5b8063047fc9aa146101c757806306fdde03146101f7578063095ea7b31461021957600080fd5b366101c257005b600080fd5b3480156101d357600080fd5b5060045469ffffffffffffffffffff165b6040519081526020015b60405180910390f35b34801561020357600080fd5b5061020c61078d565b6040516101ee9190612ef2565b34801561022557600080fd5b50610239610234366004612f67565b61081b565b60405190151581526020016101ee565b34801561025557600080fd5b5061025e610895565b60405169ffffffffffffffffffff90911681526020016101ee565b34801561028557600080fd5b506101e4610906565b34801561029a57600080fd5b506103386102a9366004612f91565b60408051606080820183526000808352602080840182905292840181905273ffffffffffffffffffffffffffffffffffffffff9485168152600683528390208351918201845280549485168252740100000000000000000000000000000000000000009094046bffffffffffffffffffffffff169181019190915260019092015464ffffffffff169082015290565b60408051825173ffffffffffffffffffffffffffffffffffffffff1681526020808401516bffffffffffffffffffffffff16908201529181015164ffffffffff16908201526060016101ee565b34801561039157600080fd5b506102396103a0366004612fac565b610939565b3480156103b157600080fd5b506101e4610ad0565b3480156103c657600080fd5b506103ee7f000000000000000000000000000000000000000000000000000000000000000081565b60405160ff90911681526020016101ee565b34801561040c57600080fd5b5061042061041b366004612f91565b610bcd565b005b34801561042e57600080fd5b506101e4610d6a565b34801561044357600080fd5b5061025e610452366004612fe8565b610dc0565b34801561046357600080fd5b506104f4610472366004612f91565b60408051808201909152600080825260208201525073ffffffffffffffffffffffffffffffffffffffff1660009081526008602090815260409182902082518084019093525469ffffffffffffffffffff811683526a0100000000000000000000900475ffffffffffffffffffffffffffffffffffffffffffff169082015290565b60408051825169ffffffffffffffffffff16815260209283015175ffffffffffffffffffffffffffffffffffffffffffff1692810192909252016101ee565b34801561053f57600080fd5b506101e461054e366004612f91565b610e86565b34801561055f57600080fd5b5061042061056e36600461301c565b610ee2565b34801561057f57600080fd5b5061058861111f565b6040516bffffffffffffffffffffffff90911681526020016101ee565b3480156105b157600080fd5b506104206105c036600461301c565b6112f1565b3480156105d157600080fd5b506105886105e0366004612f91565b61151d565b3480156105f157600080fd5b506101e4610600366004612f91565b73ffffffffffffffffffffffffffffffffffffffff1660009081526007602052604090205469ffffffffffffffffffff1690565b34801561064057600080fd5b506101e461064f366004612f91565b600a6020526000908152604090205481565b34801561066d57600080fd5b5061020c6115e0565b34801561068257600080fd5b50610420610691366004612f91565b6115ed565b3480156106a257600080fd5b5061025e6106b1366004612f91565b611a59565b3480156106c257600080fd5b506102396106d1366004612f67565b611ba5565b3480156106e257600080fd5b506104206106f1366004612f91565b611c88565b34801561070257600080fd5b50610716610711366004612f91565b611d68565b6040516dffffffffffffffffffffffffffff90911681526020016101ee565b34801561074157600080fd5b50610420610750366004613039565b6121f3565b34801561076157600080fd5b506101e46107703660046130ac565b600960209081526000928352604080842090915290825290205481565b6001805461079a906130df565b80601f01602080910402602001604051908101604052809291908181526020018280546107c6906130df565b80156108135780601f106107e857610100808354040283529160200191610813565b820191906000526020600020905b8154815290600101906020018083116107f657829003601f168201915b505050505081565b33600081815260096020908152604080832073ffffffffffffffffffffffffffffffffffffffff8716808552925280832085905551919290917f8c5be1e5ebec7d5bd14f71427d1e84f3dd0314c0f7b2291e5b200ac8c7c3b925906108839086815260200190565b60405180910390a35060015b92915050565b60006108a033611a59565b905060008169ffffffffffffffffffff16116108bb57600080fd5b6108c533826124b2565b336000908152600b6020526040902080547fffffffffffffffffffffffffffffffffffffffffffffffffffffff0000000000164264ffffffffff1617905590565b6004546003546000916109289169ffffffffffffffffffff9182169116613161565b69ffffffffffffffffffff16905090565b73ffffffffffffffffffffffffffffffffffffffff831660009081526009602090815260408083203384529091528120547fffffffffffffffffffffffffffffffffffffffffffffffffffffffffffffffff81146109cd5761099b838261318b565b73ffffffffffffffffffffffffffffffffffffffff861660009081526009602090815260408083203384529091529020555b73ffffffffffffffffffffffffffffffffffffffff851660009081526007602052604090205469ffffffffffffffffffff1680841115610a0c57600080fd5b73ffffffffffffffffffffffffffffffffffffffff808716600081815260076020526040808220805469ffffffffffffffffffff8a880381167fffffffffffffffffffffffffffffffffffffffffffff0000000000000000000092831617909255948a168084529282902080548083168b01909216919095161790935591517fddf252ad1be2c89b69c2b068fc378daa952ba7f163c4a11628f55a4df523b3ef90610aba9088815260200190565b60405180910390a36001925050505b9392505050565b60008060009054906101000a900473ffffffffffffffffffffffffffffffffffffffff1673ffffffffffffffffffffffffffffffffffffffff1663ffda9c606040518163ffffffff1660e01b8152600401602060405180830381865afa158015610b3e573d6000803e3d6000fd5b505050506040513d601f19601f82011682018060405250810190610b62919061319e565b610b739064ffffffffff164261318b565b6301e133806001610b86600c600a6132e5565b610b949063781a75c06132f4565b610b9e919061318b565b610ba8919061333a565b610bb3906001613389565b68ffffffffffffffffff16610bc891906132f4565b905090565b73ffffffffffffffffffffffffffffffffffffffff818116600090815260066020908152604091829020825160608101845281549485168152740100000000000000000000000000000000000000009094046bffffffffffffffffffffffff16918401919091526001015464ffffffffff16908201819052610c539062015180906133ab565b64ffffffffff16421015610c92576040517e175ba800000000000000000000000000000000000000000000000000000000815260040160405180910390fd5b73ffffffffffffffffffffffffffffffffffffffff80831660009081526006602090815260408220805490931690925590820151600554610ce191906bffffffffffffffffffffffff166133c9565b600580547fffffffffffffffffffffffffffffffffffffffff000000000000000000000000166bffffffffffffffffffffffff83161790559050610d2481612564565b50610d2f838361284e565b610d65576040517fa90c149f00000000000000000000000000000000000000000000000000000000815260040160405180910390fd5b505050565b60007f00000000000000000000000000000000000000000000000000000000000000004614610d9b57610bc8612b30565b507f000000000000000000000000000000000000000000000000000000000000000090565b600080546040517f777b1d430000000000000000000000000000000000000000000000000000000081526004810184905233602482015273ffffffffffffffffffffffffffffffffffffffff9091169063777b1d43906044016020604051808303816000875af1158015610e38573d6000803e3d6000fd5b505050506040513d601f19601f82011682018060405250810190610e5c91906133ee565b905060008169ffffffffffffffffffff1611610e7757600080fd5b610e8133826124b2565b919050565b73ffffffffffffffffffffffffffffffffffffffff81166000908152600760209081526040808320546008909252822054610ed09169ffffffffffffffffffff9081169116613161565b69ffffffffffffffffffff1692915050565b33600081815260076020908152604080832081518083018352905469ffffffffffffffffffff80821683526bffffffffffffffffffffffff6a010000000000000000000092839004168386015283518085018552600354808316825275ffffffffffffffffffffffffffffffffffffffffffff9084900481168288015297875260088652848720855180870190965254918216808652929091049096169383019390935293929091610f9590869061340b565b905060405180604001604052808686600001510169ffffffffffffffffffff168152602001610fc5868686612bca565b6bffffffffffffffffffffffff90811690915233600081815260076020908152604080832086518154978401519096166a01000000000000000000009081027fffffffffffffffffffff0000000000000000000000000000000000000000000090981669ffffffffffffffffffff978816179790971790558051808201825287861681528983015175ffffffffffffffffffffffffffffffffffffffffffff90811682850190815286865260089094529382902090519251909316909502908416179055600480548084168a0184167fffffffffffffffffffffffffffffffffffffffffffff0000000000000000000091821617909155865160038054918b900390941691161790915590517f0f5bb82176feb1b5e747e28471aa92156a04d9f3ab9f45f28e2d704232b93f759061111090889069ffffffffffffffffffff91909116815260200190565b60405180910390a25050505050565b60408051808201825260035469ffffffffffffffffffff808216835275ffffffffffffffffffffffffffffffffffffffffffff6a0100000000000000000000928390048116602080860191909152336000818152600783528781208851808a018a52905480871682526bffffffffffffffffffffffff908890041681850152918152600883528781208851808a01909952549485168852949093049091169085015290926111cf91908390612bca565b33600081815260076020908152604080832080547fffffffffffffffffffff000000000000000000000000ffffffffffffffffffff908116909155868301516008909352818420805469ffffffffffffffffffff166a010000000000000000000075ffffffffffffffffffffffffffffffffffffffffffff9095168502179055600480549182166bffffffffffffffffffffffff9285900483168890038316909402939093179092555193955091926108fc9286168015939093029291818181858888f193505050501580156112a9573d6000803e3d6000fd5b506040516bffffffffffffffffffffffff8316815233907fce98842d3995a36decbd0af8544d33045ef9cbcd477386c9c633dc8e13f2992d9060200160405180910390a25090565b33600081815260076020908152604080832081518083018352905469ffffffffffffffffffff80821683526bffffffffffffffffffffffff6a010000000000000000000092839004168386015283518085018552600354808316825275ffffffffffffffffffffffffffffffffffffffffffff9084900481168288015297875260088652848720855180870190965254918216855291900490951692820192909252815191939290916113a590869061340b565b905060405180604001604052808269ffffffffffffffffffff1681526020016113cf868686612bca565b6bffffffffffffffffffffffff90811690915233600081815260076020908152604080832086518154978401519096166a01000000000000000000009081027fffffffffffffffffffff0000000000000000000000000000000000000000000090981669ffffffffffffffffffff978816179790971790558051808201825288518c01861681528983015175ffffffffffffffffffffffffffffffffffffffffffff90811682850190815286865260089094529382902090519251909316909502908416179055600480548084168a900384167fffffffffffffffffffffffffffffffffffffffffffff0000000000000000000091821617909155865160038054918b0190941691161790915590517f9e71bc8eea02a63969f509818f2dafb9254532904319f9dbda79b67bd34a5f3d9061111090889069ffffffffffffffffffff91909116815260200190565b73ffffffffffffffffffffffffffffffffffffffff8116600081815260076020908152604080832081518083018352905469ffffffffffffffffffff80821683526bffffffffffffffffffffffff6a010000000000000000000092839004168386015283518085018552600354808316825275ffffffffffffffffffffffffffffffffffffffffffff9084900481168288015297875260088652848720855180870190965254918216855291900490951692820192909252919261088f92612bca565b6002805461079a906130df565b73ffffffffffffffffffffffffffffffffffffffff818116600090815260066020908152604091829020825160608101845281549485168152740100000000000000000000000000000000000000009094046bffffffffffffffffffffffff16918401919091526001015464ffffffffff908116918301829052620151809091011642106116a7576040517f71d00de200000000000000000000000000000000000000000000000000000000815260040160405180910390fd5b6005546040517f70a082310000000000000000000000000000000000000000000000000000000081523060048201526bffffffffffffffffffffffff9091169060009082907f000000000000000000000000000000000000000000000000000000000000000073ffffffffffffffffffffffffffffffffffffffff16906370a0823190602401602060405180830381865afa15801561174a573d6000803e3d6000fd5b505050506040513d601f19601f8201168201806040525081019061176e919061342e565b8451919003915073ffffffffffffffffffffffffffffffffffffffff1633036117d657600580547fffffffffffffffffffffffffffffffffffffffff000000000000000000000000168284016bffffffffffffffffffffffff16179055602083015101611903565b6020830151600580546bffffffffffffffffffffffff858501849003167fffffffffffffffffffffffffffffffffffffffff00000000000000000000000090911617905583516040517fa9059cbb00000000000000000000000000000000000000000000000000000000815273ffffffffffffffffffffffffffffffffffffffff7f0000000000000000000000000000000000000000000000000000000000000000169263a9059cbb926118be9290919060040173ffffffffffffffffffffffffffffffffffffffff9290921682526bffffffffffffffffffffffff16602082015260400190565b6020604051808303816000875af11580156118dd573d6000803e3d6000fd5b505050506040513d601f19601f820116820180604052508101906119019190613447565b505b82602001516bffffffffffffffffffffffff16816bffffffffffffffffffffffff161161195c576040517fa0d26eb600000000000000000000000000000000000000000000000000000000815260040160405180910390fd5b60408051606081018252338082526bffffffffffffffffffffffff84811660208085018281528987015164ffffffffff90811687890190815273ffffffffffffffffffffffffffffffffffffffff8d81166000818152600687528b90209951945188167401000000000000000000000000000000000000000002949091169390931788555160019097018054979091167fffffffffffffffffffffffffffffffffffffffffffffffffffffff00000000009097169690961790955588810151865193168352820152919290917f0aa963c9c96f25e87258ff077b609aab138a567d7617a8e86a21decf9e48984b910160405180910390a350505050565b600080611a6583612c23565b66ffffffffffffff16905080600003611a815750600092915050565b60008060009054906101000a900473ffffffffffffffffffffffffffffffffffffffff1673ffffffffffffffffffffffffffffffffffffffff1663ffda9c606040518163ffffffff1660e01b8152600401602060405180830381865afa158015611aef573d6000803e3d6000fd5b505050506040513d601f19601f82011682018060405250810190611b13919061319e565b73ffffffffffffffffffffffffffffffffffffffff85166000908152600b602052604090205490915064ffffffffff6305a39a80830181169116818110611b605750600095945050505050565b80600003611b72575064ffffffffff82165b66ffffffffffffff651246b07ae288850204600042841115611b945742611b96565b835b92909203029695505050505050565b3360009081526007602052604081205469ffffffffffffffffffff1680831115611bce57600080fd5b33600081815260076020908152604080832080547fffffffffffffffffffffffffffffffffffffffffffff0000000000000000000090811689880369ffffffffffffffffffff9081169190911790925573ffffffffffffffffffffffffffffffffffffffff8a168086529483902080549182169183168a01909216179055518681529192917fddf252ad1be2c89b69c2b068fc378daa952ba7f163c4a11628f55a4df523b3ef910160405180910390a35060019392505050565b6005546c01000000000000000000000000900460ff16158015611ce057503373ffffffffffffffffffffffffffffffffffffffff7f000000000000000000000000000000000000000000000000000000000000000016145b611ce957600080fd5b6000805473ffffffffffffffffffffffffffffffffffffffff9092167fffffffffffffffffffffffff0000000000000000000000000000000000000000909216919091179055600580547fffffffffffffffffffffffffffffffffffffff00ffffffffffffffffffffffff166c01000000000000000000000000179055565b6005546040805160608101825260008082526020820181905291810182905290916bffffffffffffffffffffffff16907f000000000000000000000000000000000000000000000000000000000000000073ffffffffffffffffffffffffffffffffffffffff168473ffffffffffffffffffffffffffffffffffffffff1614611fb7575073ffffffffffffffffffffffffffffffffffffffff838116600090815260066020908152604091829020825160608101845281549485168152740100000000000000000000000000000000000000009094046bffffffffffffffffffffffff16918401919091526001015464ffffffffff908116918301829052620d9170909101908116421015611ea9576040517f977a44ab00000000000000000000000000000000000000000000000000000000815260040160405180910390fd5b60408051606081018252600080825260208083018281524264ffffffffff90811685870190815273ffffffffffffffffffffffffffffffffffffffff8c8116808752600686528887209751945194909116740100000000000000000000000000000000000000006bffffffffffffffffffffffff958616021787559051600190960180547fffffffffffffffffffffffffffffffffffffffffffffffffffffff0000000000169690921695909517905590860151600580547fffffffffffffffffffffffffffffffffffffffff000000000000000000000000169190980391821617909655915190917f5036af25bdace72875a429f12adf7d81782590b0da3dc10d149541bfc28863d091a2505b6000546040517f164e68de00000000000000000000000000000000000000000000000000000000815273ffffffffffffffffffffffffffffffffffffffff86811660048301529091169063164e68de906024016020604051808303816000875af1158015612029573d6000803e3d6000fd5b505050506040513d601f19601f8201168201806040525081019061204d9190613469565b92506dffffffffffffffffffffffffffff83161580156120b957507f000000000000000000000000000000000000000000000000000000000000000073ffffffffffffffffffffffffffffffffffffffff168473ffffffffffffffffffffffffffffffffffffffff1614155b156120f0576040517f30de376600000000000000000000000000000000000000000000000000000000815260040160405180910390fd5b60006120fb83612564565b905080801561215557507f000000000000000000000000000000000000000000000000000000000000000073ffffffffffffffffffffffffffffffffffffffff168573ffffffffffffffffffffffffffffffffffffffff16145b1561218c576040517f30de376600000000000000000000000000000000000000000000000000000000815260040160405180910390fd5b7f000000000000000000000000000000000000000000000000000000000000000073ffffffffffffffffffffffffffffffffffffffff168573ffffffffffffffffffffffffffffffffffffffff16146121eb576121e9858361284e565b505b505050919050565b4284101561222d576040517f05787bdf00000000000000000000000000000000000000000000000000000000815260040160405180910390fd5b60006001612239610d6a565b73ffffffffffffffffffffffffffffffffffffffff8a81166000818152600a602090815260409182902080546001810190915582517f6e71edae12b1b97f4d1f60370fef10105fa2faae0126114a169c64845d6126c98184015280840194909452938d166060840152608083018c905260a083019390935260c08083018b90528151808403909101815260e0830190915280519201919091207f190100000000000000000000000000000000000000000000000000000000000061010083015261010282019290925261012281019190915261014201604080517fffffffffffffffffffffffffffffffffffffffffffffffffffffffffffffffe08184030181528282528051602091820120600084529083018083525260ff871690820152606081018590526080810184905260a0016020604051602081039080840390855afa15801561238b573d6000803e3d6000fd5b50506040517fffffffffffffffffffffffffffffffffffffffffffffffffffffffffffffffe0015191505073ffffffffffffffffffffffffffffffffffffffff8116158061240557508773ffffffffffffffffffffffffffffffffffffffff168173ffffffffffffffffffffffffffffffffffffffff1614155b1561243c576040517f815e1d6400000000000000000000000000000000000000000000000000000000815260040160405180910390fd5b73ffffffffffffffffffffffffffffffffffffffff90811660009081526009602090815260408083208a8516808552908352928190208990555188815291928a16917f8c5be1e5ebec7d5bd14f71427d1e84f3dd0314c0f7b2291e5b200ac8c7c3b925910160405180910390a350505050505050565b6004805469ffffffffffffffffffff808216840181167fffffffffffffffffffffffffffffffffffffffffffff000000000000000000009283161790925573ffffffffffffffffffffffffffffffffffffffff8416600081815260076020908152604080832080548088168901881696169590951790945592519385168452909290917fddf252ad1be2c89b69c2b068fc378daa952ba7f163c4a11628f55a4df523b3ef910160405180910390a35050565b6040517f70a0823100000000000000000000000000000000000000000000000000000000815230600482015260009081906bffffffffffffffffffffffff84169073ffffffffffffffffffffffffffffffffffffffff7f000000000000000000000000000000000000000000000000000000000000000016906370a0823190602401602060405180830381865afa158015612603573d6000803e3d6000fd5b505050506040513d601f19601f82011682018060405250810190612627919061342e565b60045491900391506a010000000000000000000090046bffffffffffffffffffffffff164781900380830160008190036126675750600195945050505050565b6040517f2e1a7d4d000000000000000000000000000000000000000000000000000000008152600481018590527f000000000000000000000000000000000000000000000000000000000000000073ffffffffffffffffffffffffffffffffffffffff1690632e1a7d4d90602401600060405180830381600087803b1580156126ef57600080fd5b505af1158015612703573d6000803e3d6000fd5b50506040805180820190915260035469ffffffffffffffffffff81168083526a010000000000000000000090910475ffffffffffffffffffffffffffffffffffffffffffff1660208301529092506000039050612767575060019695505050505050565b805169ffffffffffffffffffff16605083901b816127875761278761330b565b048160200151016003600001600a6101000a81548175ffffffffffffffffffffffffffffffffffffffffffff021916908375ffffffffffffffffffffffffffffffffffffffffffff1602179055508184016004600001600a6101000a8154816bffffffffffffffffffffffff02191690836bffffffffffffffffffffffff1602179055507f2c33998a0a762573e90ee90157bd106909dee9b230db902fcdfbab148f00e5c98260405161283c91815260200190565b60405180910390a15050505050919050565b600081602001516bffffffffffffffffffffffff166000036128725750600061088f565b60405130602482015260609073ffffffffffffffffffffffffffffffffffffffff851690604401604080517fffffffffffffffffffffffffffffffffffffffffffffffffffffffffffffffe08184030181529181526020820180517bffffffffffffffffffffffffffffffffffffffffffffffffffffffff167f70a08231000000000000000000000000000000000000000000000000000000001790525161291a9190613499565b6000604051808303816000865af19150503d8060008114612957576040519150601f19603f3d011682016040523d82523d6000602084013e61295c565b606091505b50909250905081158061297157508051602014155b1561298057600091505061088f565b600081806020019051810190612996919061342e565b9050806000036129ab5760019250505061088f565b835160405173ffffffffffffffffffffffffffffffffffffffff91821660248201526044810183905290861690606401604080517fffffffffffffffffffffffffffffffffffffffffffffffffffffffffffffffe08184030181529181526020820180517bffffffffffffffffffffffffffffffffffffffffffffffffffffffff167fa9059cbb0000000000000000000000000000000000000000000000000000000017905251612a5c9190613499565b6000604051808303816000865af19150503d8060008114612a99576040519150601f19603f3d011682016040523d82523d6000602084013e612a9e565b606091505b508051919450925015801590612ac5575081806020019051810190612ac39190613447565b155b15612ad55760009250505061088f565b835160405182815273ffffffffffffffffffffffffffffffffffffffff8088169216907ff1e390dffccd4dabab220f97e89cff952db4e09071912ea3d657a0a621ea001d9060200160405180910390a3506001949350505050565b60007f8b73c3c69bb8fe3d512ecc4cf759cc79239f7b179b0ffacaa9a75d522b39400f6001604051612b6291906134b5565b6040805191829003822060208301939093528101919091527fc89efdaa54c0f20c7adf612882df0950f5a951637e0307cdcb4c672f298b8bc660608201524660808201523060a082015260c00160405160208183030381529060405280519060200120905090565b6020830151815169ffffffffffffffffffff1615610ac95781516020808401519085015175ffffffffffffffffffffffffffffffffffffffffffff9190031669ffffffffffffffffffff9091160260501c019392505050565b60007fffffffffffffffffffffffffffffffffffffffffffffffffffffffffffffffef73ffffffffffffffffffffffffffffffffffffffff831601612c705750665166658a4af5ec919050565b7fffffffffffffffffffffffffffffffffffffffffffffffffffffffffffffffee73ffffffffffffffffffffffffffffffffffffffff831601612cba5750653e83e37ca410919050565b7fffffffffffffffffffffffffffffffffffffffffffffffffffffffffffffffed73ffffffffffffffffffffffffffffffffffffffff831601612d0457506514d6a1298c05919050565b7fffffffffffffffffffffffffffffffffffffffffffffffffffffffffffffffec73ffffffffffffffffffffffffffffffffffffffff831601612d4f57506628b332c5257af6919050565b7fffffffffffffffffffffffffffffffffffffffffffffffffffffffffffffffeb73ffffffffffffffffffffffffffffffffffffffff831601612d9a575066059feee6b6e51d919050565b7fffffffffffffffffffffffffffffffffffffffffffffffffffffffffffffffea73ffffffffffffffffffffffffffffffffffffffff831601612de557506622bfe959c865c2919050565b7fffffffffffffffffffffffffffffffffffffffffffffffffffffffffffffffff73ffffffffffffffffffffffffffffffffffffffff831601612e305750660554c07c013887919050565b7ffffffffffffffffffffffffffffffffffffffffffffffffffffffffffffffffe73ffffffffffffffffffffffffffffffffffffffff831601612e7b5750663ff905d00ea654919050565b7ffffffffffffffffffffffffffffffffffffffffffffffffffffffffffffffffd73ffffffffffffffffffffffffffffffffffffffff831601612ec657506617e56e9f5a354e919050565b506000919050565b60005b83811015612ee9578181015183820152602001612ed1565b50506000910152565b6020815260008251806020840152612f11816040850160208701612ece565b601f017fffffffffffffffffffffffffffffffffffffffffffffffffffffffffffffffe0169190910160400192915050565b803573ffffffffffffffffffffffffffffffffffffffff81168114610e8157600080fd5b60008060408385031215612f7a57600080fd5b612f8383612f43565b946020939093013593505050565b600060208284031215612fa357600080fd5b610ac982612f43565b600080600060608486031215612fc157600080fd5b612fca84612f43565b9250612fd860208501612f43565b9150604084013590509250925092565b600060208284031215612ffa57600080fd5b5035919050565b69ffffffffffffffffffff8116811461301957600080fd5b50565b60006020828403121561302e57600080fd5b8135610ac981613001565b600080600080600080600060e0888a03121561305457600080fd5b61305d88612f43565b965061306b60208901612f43565b95506040880135945060608801359350608088013560ff8116811461308f57600080fd5b9699959850939692959460a0840135945060c09093013592915050565b600080604083850312156130bf57600080fd5b6130c883612f43565b91506130d660208401612f43565b90509250929050565b600181811c908216806130f357607f821691505b60208210810361312c577f4e487b7100000000000000000000000000000000000000000000000000000000600052602260045260246000fd5b50919050565b7f4e487b7100000000000000000000000000000000000000000000000000000000600052601160045260246000fd5b69ffffffffffffffffffff81811683821601908082111561318457613184613132565b5092915050565b8181038181111561088f5761088f613132565b6000602082840312156131b057600080fd5b815164ffffffffff81168114610ac957600080fd5b600181815b8085111561321e57817fffffffffffffffffffffffffffffffffffffffffffffffffffffffffffffffff0482111561320457613204613132565b8085161561321157918102915b93841c93908002906131ca565b509250929050565b6000826132355750600161088f565b816132425750600061088f565b816001811461325857600281146132625761327e565b600191505061088f565b60ff84111561327357613273613132565b50506001821b61088f565b5060208310610133831016604e8410600b84101617156132a1575081810a61088f565b6132ab83836131c5565b807fffffffffffffffffffffffffffffffffffffffffffffffffffffffffffffffff048211156132dd576132dd613132565b029392505050565b6000610ac960ff841683613226565b808202811582820484141761088f5761088f613132565b7f4e487b7100000000000000000000000000000000000000000000000000000000600052601260045260246000fd5b600068ffffffffffffffffff8084168061337d577f4e487b7100000000000000000000000000000000000000000000000000000000600052601260045260246000fd5b92169190910492915050565b68ffffffffffffffffff81811683821601908082111561318457613184613132565b64ffffffffff81811683821601908082111561318457613184613132565b6bffffffffffffffffffffffff82811682821603908082111561318457613184613132565b60006020828403121561340057600080fd5b8151610ac981613001565b69ffffffffffffffffffff82811682821603908082111561318457613184613132565b60006020828403121561344057600080fd5b5051919050565b60006020828403121561345957600080fd5b81518015158114610ac957600080fd5b60006020828403121561347b57600080fd5b81516dffffffffffffffffffffffffffff81168114610ac957600080fd5b600082516134ab818460208701612ece565b9190910192915050565b600080835481600182811c9150808316806134d157607f831692505b60208084108203613509577f4e487b710000000000000000000000000000000000000000000000000000000086526022600452602486fd5b81801561351d57600181146135505761357d565b7fffffffffffffffffffffffffffffffffffffffffffffffffffffffffffffff008616895284151585028901965061357d565b60008a81526020902060005b868110156135755781548b82015290850190830161355c565b505084890196505b50949897505050505050505056fea2646970667358221220ff09f8d2b25536407fb4d58475d653abe3fe41d321a1b7135bb901235c2e2b0164736f6c6343000815003353796e74686574696320496e74656c6c6967656e742052656879706f746865636174696f6e","linkReferences":{}},"methodIdentifiers":{"DOMAIN_SEPARATOR()":"3644e515","allowance(address,address)":"dd62ed3e","approve(address,uint256)":"095ea7b3","auctions(address)":"1d59410a","balanceOf(address)":"70a08231","bid(address)":"9cf5453d","claim()":"4e71d92d","collectFeesAndStartAuction(address)":"d181af7a","contributorMint()":"138d052f","contributorUnclaimedSIR(address)":"9da16323","decimals()":"313ce567","dividends(address)":"68306e43","initialize(address)":"c4d66de8","lPerMint(uint256)":"460028c9","maxTotalSupply()":"2ab4d052","name()":"06fdde03","nonces(address)":"7ecebe00","payAuctionWinner(address)":"331ef1a5","permit(address,address,uint256,uint256,uint8,bytes32,bytes32)":"d505accf","stake(uint80)":"4f7a21d2","stakersParams(address)":"4a62c384","supply()":"047fc9aa","symbol()":"95d89b41","totalBalanceOf(address)":"4b0ee02a","totalSupply()":"18160ddd","transfer(address,uint256)":"a9059cbb","transferFrom(address,address,uint256)":"23b872dd","unstake(uint80)":"4c24946b"},"id":66}