{"abi":[{"type":"receive","stateMutability":"payable"},{"type":"function","name":"DOMAIN_SEPARATOR","inputs":[],"outputs":[{"name":"","type":"bytes32","internalType":"bytes32"}],"stateMutability":"view"},{"type":"function","name":"ISSUANCE_RATE","inputs":[],"outputs":[{"name":"","type":"uint72","internalType":"uint72"}],"stateMutability":"pure"},{"type":"function","name":"LP_ISSUANCE_FIRST_3_YEARS","inputs":[],"outputs":[{"name":"","type":"uint72","internalType":"uint72"}],"stateMutability":"pure"},{"type":"function","name":"allowance","inputs":[{"name":"","type":"address","internalType":"address"},{"name":"","type":"address","internalType":"address"}],"outputs":[{"name":"","type":"uint256","internalType":"uint256"}],"stateMutability":"view"},{"type":"function","name":"approve","inputs":[{"name":"spender","type":"address","internalType":"address"},{"name":"amount","type":"uint256","internalType":"uint256"}],"outputs":[{"name":"","type":"bool","internalType":"bool"}],"stateMutability":"nonpayable"},{"type":"function","name":"auctions","inputs":[{"name":"token","type":"address","internalType":"address"}],"outputs":[{"name":"","type":"tuple","internalType":"struct SirStructs.Auction","components":[{"name":"bidder","type":"address","internalType":"address"},{"name":"bid","type":"uint96","internalType":"uint96"},{"name":"startTime","type":"uint40","internalType":"uint40"}]}],"stateMutability":"view"},{"type":"function","name":"balanceOf","inputs":[{"name":"account","type":"address","internalType":"address"}],"outputs":[{"name":"","type":"uint256","internalType":"uint256"}],"stateMutability":"view"},{"type":"function","name":"bid","inputs":[{"name":"token","type":"address","internalType":"address"},{"name":"amount","type":"uint96","internalType":"uint96"}],"outputs":[],"stateMutability":"nonpayable"},{"type":"function","name":"claim","inputs":[],"outputs":[{"name":"dividends_","type":"uint96","internalType":"uint96"}],"stateMutability":"nonpayable"},{"type":"function","name":"collectFeesAndStartAuction","inputs":[{"name":"token","type":"address","internalType":"address"}],"outputs":[{"name":"totalFeesToStakers","type":"uint112","internalType":"uint112"}],"stateMutability":"nonpayable"},{"type":"function","name":"contributorMint","inputs":[],"outputs":[{"name":"rewards","type":"uint80","internalType":"uint80"}],"stateMutability":"nonpayable"},{"type":"function","name":"contributorUnclaimedSIR","inputs":[{"name":"contributor","type":"address","internalType":"address"}],"outputs":[{"name":"","type":"uint80","internalType":"uint80"}],"stateMutability":"view"},{"type":"function","name":"decimals","inputs":[],"outputs":[{"name":"","type":"uint8","internalType":"uint8"}],"stateMutability":"view"},{"type":"function","name":"dividends","inputs":[{"name":"staker","type":"address","internalType":"address"}],"outputs":[{"name":"","type":"uint96","internalType":"uint96"}],"stateMutability":"view"},{"type":"function","name":"initialize","inputs":[{"name":"vault_","type":"address","internalType":"address"}],"outputs":[],"stateMutability":"nonpayable"},{"type":"function","name":"lPerMint","inputs":[{"name":"vaultId","type":"uint256","internalType":"uint256"}],"outputs":[{"name":"rewards","type":"uint80","internalType":"uint80"}],"stateMutability":"nonpayable"},{"type":"function","name":"maxTotalSupply","inputs":[],"outputs":[{"name":"","type":"uint256","internalType":"uint256"}],"stateMutability":"view"},{"type":"function","name":"name","inputs":[],"outputs":[{"name":"","type":"string","internalType":"string"}],"stateMutability":"view"},{"type":"function","name":"nonces","inputs":[{"name":"","type":"address","internalType":"address"}],"outputs":[{"name":"","type":"uint256","internalType":"uint256"}],"stateMutability":"view"},{"type":"function","name":"payAuctionWinner","inputs":[{"name":"token","type":"address","internalType":"address"}],"outputs":[],"stateMutability":"nonpayable"},{"type":"function","name":"permit","inputs":[{"name":"owner","type":"address","internalType":"address"},{"name":"spender","type":"address","internalType":"address"},{"name":"value","type":"uint256","internalType":"uint256"},{"name":"deadline","type":"uint256","internalType":"uint256"},{"name":"v","type":"uint8","internalType":"uint8"},{"name":"r","type":"bytes32","internalType":"bytes32"},{"name":"s","type":"bytes32","internalType":"bytes32"}],"outputs":[],"stateMutability":"nonpayable"},{"type":"function","name":"stake","inputs":[{"name":"amount","type":"uint80","internalType":"uint80"}],"outputs":[],"stateMutability":"nonpayable"},{"type":"function","name":"stakersParams","inputs":[{"name":"staker","type":"address","internalType":"address"}],"outputs":[{"name":"","type":"tuple","internalType":"struct SirStructs.StakingParams","components":[{"name":"stake","type":"uint80","internalType":"uint80"},{"name":"cumulativeETHPerSIRx80","type":"uint176","internalType":"uint176"}]}],"stateMutability":"view"},{"type":"function","name":"supply","inputs":[],"outputs":[{"name":"","type":"uint256","internalType":"uint256"}],"stateMutability":"view"},{"type":"function","name":"symbol","inputs":[],"outputs":[{"name":"","type":"string","internalType":"string"}],"stateMutability":"view"},{"type":"function","name":"totalBalanceOf","inputs":[{"name":"account","type":"address","internalType":"address"}],"outputs":[{"name":"","type":"uint256","internalType":"uint256"}],"stateMutability":"view"},{"type":"function","name":"totalSupply","inputs":[],"outputs":[{"name":"","type":"uint256","internalType":"uint256"}],"stateMutability":"view"},{"type":"function","name":"transfer","inputs":[{"name":"to","type":"address","internalType":"address"},{"name":"amount","type":"uint256","internalType":"uint256"}],"outputs":[{"name":"","type":"bool","internalType":"bool"}],"stateMutability":"nonpayable"},{"type":"function","name":"transferFrom","inputs":[{"name":"from","type":"address","internalType":"address"},{"name":"to","type":"address","internalType":"address"},{"name":"amount","type":"uint256","internalType":"uint256"}],"outputs":[{"name":"","type":"bool","internalType":"bool"}],"stateMutability":"nonpayable"},{"type":"function","name":"unstake","inputs":[{"name":"amount","type":"uint80","internalType":"uint80"}],"outputs":[],"stateMutability":"nonpayable"},{"type":"function","name":"unstakeAndClaim","inputs":[{"name":"amount","type":"uint80","internalType":"uint80"}],"outputs":[{"name":"dividends_","type":"uint96","internalType":"uint96"}],"stateMutability":"nonpayable"},{"type":"event","name":"Approval","inputs":[{"name":"owner","type":"address","indexed":true,"internalType":"address"},{"name":"spender","type":"address","indexed":true,"internalType":"address"},{"name":"amount","type":"uint256","indexed":false,"internalType":"uint256"}],"anonymous":false},{"type":"event","name":"AuctionStarted","inputs":[{"name":"token","type":"address","indexed":true,"internalType":"address"}],"anonymous":false},{"type":"event","name":"AuctionedTokensSentToWinner","inputs":[{"name":"winner","type":"address","indexed":true,"internalType":"address"},{"name":"token","type":"address","indexed":true,"internalType":"address"},{"name":"reward","type":"uint256","indexed":false,"internalType":"uint256"}],"anonymous":false},{"type":"event","name":"BidReceived","inputs":[{"name":"bidder","type":"address","indexed":true,"internalType":"address"},{"name":"token","type":"address","indexed":true,"internalType":"address"},{"name":"previousBid","type":"uint96","indexed":false,"internalType":"uint96"},{"name":"newBid","type":"uint96","indexed":false,"internalType":"uint96"}],"anonymous":false},{"type":"event","name":"DividendsClaimed","inputs":[{"name":"staker","type":"address","indexed":true,"internalType":"address"},{"name":"amount","type":"uint96","indexed":false,"internalType":"uint96"}],"anonymous":false},{"type":"event","name":"DividendsPaid","inputs":[{"name":"amountETH","type":"uint256","indexed":false,"internalType":"uint256"}],"anonymous":false},{"type":"event","name":"Staked","inputs":[{"name":"staker","type":"address","indexed":true,"internalType":"address"},{"name":"amount","type":"uint256","indexed":false,"internalType":"uint256"}],"anonymous":false},{"type":"event","name":"Transfer","inputs":[{"name":"from","type":"address","indexed":true,"internalType":"address"},{"name":"to","type":"address","indexed":true,"internalType":"address"},{"name":"amount","type":"uint256","indexed":false,"internalType":"uint256"}],"anonymous":false},{"type":"event","name":"Unstaked","inputs":[{"name":"staker","type":"address","indexed":true,"internalType":"address"},{"name":"amount","type":"uint256","indexed":false,"internalType":"uint256"}],"anonymous":false},{"type":"error","name":"AuctionIsNotOver","inputs":[]},{"type":"error","name":"BidTooLow","inputs":[]},{"type":"error","name":"InvalidSigner","inputs":[]},{"type":"error","name":"NewAuctionCannotStartYet","inputs":[]},{"type":"error","name":"NoAuction","inputs":[]},{"type":"error","name":"NoAuctionLot","inputs":[]},{"type":"error","name":"NoFeesCollectedYet","inputs":[]},{"type":"error","name":"PermitDeadlineExpired","inputs":[]}],"bytecode":{"object":"0x610100604052600c60a05234801561001657600080fd5b50336080524660c0526100f2604080518082018252601c81527f53796e7468657469637320496d706c656d656e7465642052696768740000000060209182015281517f8b73c3c69bb8fe3d512ecc4cf759cc79239f7b179b0ffacaa9a75d522b39400f818301527f0d614900cceb97813954e30e34c71083d521e4e429b1329383c635cfe8875f20818401527fc89efdaa54c0f20c7adf612882df0950f5a951637e0307cdcb4c672f298b8bc660608201524660808201523060a0808301919091528351808303909101815260c0909101909252815191012090565b60e05260805160a05160c05160e0516134f261012e6000396000610f0801526000610e0f0152600061045001526000611a2f01526134f26000f3fe6080604052600436106101dc5760003560e01c80634c24946b11610102578063a9059cbb11610095578063d181af7a11610064578063d181af7a146107c3578063d505accf14610802578063dd62ed3e14610822578063e2505abf1461085a57600080fd5b8063a9059cbb1461074e578063ac3dd8571461076e578063bffecd881461078e578063c4d66de8146107a357600080fd5b806370a08231116100d157806370a08231146106695780637ecebe00146106b857806395d89b41146106e55780639da163231461072e57600080fd5b80634c24946b146105d75780634e71d92d146105f75780634f7a21d21461062957806368306e431461064957600080fd5b80632ab4d0521161017a5780633644e515116101495780633644e515146104a6578063460028c9146104bb5780634a62c384146104db5780634b0ee02a146105b757600080fd5b80632ab4d052146103fa578063309295ee1461040f578063313ce5671461043e578063331ef1a51461048457600080fd5b8063138d052f116101b6578063138d052f1461029e57806318160ddd146102ce5780631d59410a146102e357806323b872dd146103da57600080fd5b8063047fc9aa146101e857806306fdde0314610218578063095ea7b31461026e57600080fd5b366101e357005b600080fd5b3480156101f457600080fd5b5060025469ffffffffffffffffffff165b6040519081526020015b60405180910390f35b34801561022457600080fd5b506102616040518060400160405280601c81526020017f53796e7468657469637320496d706c656d656e7465642052696768740000000081525081565b60405161020f9190612f15565b34801561027a57600080fd5b5061028e610289366004612f8a565b61087a565b604051901515815260200161020f565b3480156102aa57600080fd5b506102b36108f4565b60405169ffffffffffffffffffff909116815260200161020f565b3480156102da57600080fd5b50610205610965565b3480156102ef57600080fd5b5061038d6102fe366004612fb4565b60408051606080820183526000808352602080840182905292840181905273ffffffffffffffffffffffffffffffffffffffff9485168152600483528390208351918201845280549485168252740100000000000000000000000000000000000000009094046bffffffffffffffffffffffff169181019190915260019092015464ffffffffff169082015290565b60408051825173ffffffffffffffffffffffffffffffffffffffff1681526020808401516bffffffffffffffffffffffff16908201529181015164ffffffffff169082015260600161020f565b3480156103e657600080fd5b5061028e6103f5366004612fcf565b610998565b34801561040657600080fd5b50610205610b2f565b34801561041b57600080fd5b50610424610c2c565b60405168ffffffffffffffffff909116815260200161020f565b34801561044a57600080fd5b506104727f000000000000000000000000000000000000000000000000000000000000000081565b60405160ff909116815260200161020f565b34801561049057600080fd5b506104a461049f366004612fb4565b610c6e565b005b3480156104b257600080fd5b50610205610e0b565b3480156104c757600080fd5b506102b36104d636600461300c565b610f2a565b3480156104e757600080fd5b506105786104f6366004612fb4565b60408051808201909152600080825260208201525073ffffffffffffffffffffffffffffffffffffffff1660009081526006602090815260409182902082518084019093525469ffffffffffffffffffff811683526a0100000000000000000000900475ffffffffffffffffffffffffffffffffffffffffffff169082015290565b60408051825169ffffffffffffffffffff16815260209283015175ffffffffffffffffffffffffffffffffffffffffffff16928101929092520161020f565b3480156105c357600080fd5b506102056105d2366004612fb4565b610ff0565b3480156105e357600080fd5b506104a46105f2366004613040565b61104c565b34801561060357600080fd5b5061060c611289565b6040516bffffffffffffffffffffffff909116815260200161020f565b34801561063557600080fd5b506104a4610644366004613040565b611457565b34801561065557600080fd5b5061060c610664366004612fb4565b611683565b34801561067557600080fd5b50610205610684366004612fb4565b73ffffffffffffffffffffffffffffffffffffffff1660009081526005602052604090205469ffffffffffffffffffff1690565b3480156106c457600080fd5b506102056106d3366004612fb4565b60086020526000908152604090205481565b3480156106f157600080fd5b506102616040518060400160405280600381526020017f534952000000000000000000000000000000000000000000000000000000000081525081565b34801561073a57600080fd5b506102b3610749366004612fb4565b611746565b34801561075a57600080fd5b5061028e610769366004612f8a565b611892565b34801561077a57600080fd5b5061060c610789366004613040565b611975565b34801561079a57600080fd5b50610424611988565b3480156107af57600080fd5b506104a46107be366004612fb4565b6119f9565b3480156107cf57600080fd5b506107e36107de366004612fb4565b611ad9565b6040516dffffffffffffffffffffffffffff909116815260200161020f565b34801561080e57600080fd5b506104a461081d36600461305d565b611edc565b34801561082e57600080fd5b5061020561083d3660046130d0565b600760209081526000928352604080842090915290825290205481565b34801561086657600080fd5b506104a4610875366004613103565b61219b565b33600081815260076020908152604080832073ffffffffffffffffffffffffffffffffffffffff8716808552925280832085905551919290917f8c5be1e5ebec7d5bd14f71427d1e84f3dd0314c0f7b2291e5b200ac8c7c3b925906108e29086815260200190565b60405180910390a35060015b92915050565b60006108ff33611746565b905060008169ffffffffffffffffffff161161091a57600080fd5b61092433826125b3565b33600090815260096020526040902080547fffffffffffffffffffffffffffffffffffffffffffffffffffffff0000000000164264ffffffffff1617905590565b6002546001546000916109879169ffffffffffffffffffff918216911661317a565b69ffffffffffffffffffff16905090565b73ffffffffffffffffffffffffffffffffffffffff831660009081526007602090815260408083203384529091528120547fffffffffffffffffffffffffffffffffffffffffffffffffffffffffffffffff8114610a2c576109fa838261319c565b73ffffffffffffffffffffffffffffffffffffffff861660009081526007602090815260408083203384529091529020555b73ffffffffffffffffffffffffffffffffffffffff851660009081526005602052604090205469ffffffffffffffffffff1680841115610a6b57600080fd5b73ffffffffffffffffffffffffffffffffffffffff808716600081815260056020526040808220805469ffffffffffffffffffff8a880381167fffffffffffffffffffffffffffffffffffffffffffff0000000000000000000092831617909255948a168084529282902080548083168b01909216919095161790935591517fddf252ad1be2c89b69c2b068fc378daa952ba7f163c4a11628f55a4df523b3ef90610b199088815260200190565b60405180910390a36001925050505b9392505050565b60008060009054906101000a900473ffffffffffffffffffffffffffffffffffffffff1673ffffffffffffffffffffffffffffffffffffffff1663410cd41a6040518163ffffffff1660e01b8152600401602060405180830381865afa158015610b9d573d6000803e3d6000fd5b505050506040513d601f19601f82011682018060405250810190610bc191906131af565b610bd29064ffffffffff164261319c565b6301e133806001610be5600c600a6132f9565b610bf39063781a75c0613308565b610bfd919061319c565b610c07919061334e565b610c12906001613380565b68ffffffffffffffffff16610c279190613308565b905090565b60006301e133806001610c41600c600a6132f9565b610c4f9063781a75c0613308565b610c59919061319c565b610c63919061334e565b610c27906001613380565b73ffffffffffffffffffffffffffffffffffffffff818116600090815260046020908152604091829020825160608101845281549485168152740100000000000000000000000000000000000000009094046bffffffffffffffffffffffff16918401919091526001015464ffffffffff16908201819052610cf49062015180906133a1565b64ffffffffff16421015610d33576040517e175ba800000000000000000000000000000000000000000000000000000000815260040160405180910390fd5b73ffffffffffffffffffffffffffffffffffffffff80831660009081526004602090815260408220805490931690925590820151600354610d8291906bffffffffffffffffffffffff166133be565b600380547fffffffffffffffffffffffffffffffffffffffff000000000000000000000000166bffffffffffffffffffffffff83161790559050610dc581612665565b50610dd0838361290b565b610e06576040517fa90c149f00000000000000000000000000000000000000000000000000000000815260040160405180910390fd5b505050565b60007f00000000000000000000000000000000000000000000000000000000000000004614610f055750604080518082018252601c81527f53796e7468657469637320496d706c656d656e7465642052696768740000000060209182015281517f8b73c3c69bb8fe3d512ecc4cf759cc79239f7b179b0ffacaa9a75d522b39400f818301527f0d614900cceb97813954e30e34c71083d521e4e429b1329383c635cfe8875f20818401527fc89efdaa54c0f20c7adf612882df0950f5a951637e0307cdcb4c672f298b8bc660608201524660808201523060a0808301919091528351808303909101815260c0909101909252815191012090565b507f000000000000000000000000000000000000000000000000000000000000000090565b600080546040517f777b1d430000000000000000000000000000000000000000000000000000000081526004810184905233602482015273ffffffffffffffffffffffffffffffffffffffff9091169063777b1d43906044016020604051808303816000875af1158015610fa2573d6000803e3d6000fd5b505050506040513d601f19601f82011682018060405250810190610fc691906133e2565b905060008169ffffffffffffffffffff1611610fe157600080fd5b610feb33826125b3565b919050565b73ffffffffffffffffffffffffffffffffffffffff8116600090815260056020908152604080832054600690925282205461103a9169ffffffffffffffffffff908116911661317a565b69ffffffffffffffffffff1692915050565b33600081815260056020908152604080832081518083018352905469ffffffffffffffffffff80821683526bffffffffffffffffffffffff6a010000000000000000000092839004168386015283518085018552600154808316825275ffffffffffffffffffffffffffffffffffffffffffff90849004811682880152978752600686528487208551808701909652549182168086529290910490961693830193909352939290916110ff9086906133ff565b905060405180604001604052808686600001510169ffffffffffffffffffff16815260200161112f868686612bed565b6bffffffffffffffffffffffff90811690915233600081815260056020908152604080832086518154978401519096166a01000000000000000000009081027fffffffffffffffffffff0000000000000000000000000000000000000000000090981669ffffffffffffffffffff978816179790971790558051808201825287861681528983015175ffffffffffffffffffffffffffffffffffffffffffff90811682850190815286865260069094529382902090519251909316909502908416179055600280548084168a0184167fffffffffffffffffffffffffffffffffffffffffffff0000000000000000000091821617909155865160018054918b900390941691161790915590517f0f5bb82176feb1b5e747e28471aa92156a04d9f3ab9f45f28e2d704232b93f759061127a90889069ffffffffffffffffffff91909116815260200190565b60405180910390a25050505050565b60408051808201825260015469ffffffffffffffffffff808216835275ffffffffffffffffffffffffffffffffffffffffffff6a0100000000000000000000928390048116602080860191909152336000818152600583528781208851808a018a52905480871682526bffffffffffffffffffffffff908890041681850152918152600683528781208851808a019099525494851688529490930490911690850152909261133991908390612bed565b33600081815260056020908152604080832080547fffffffffffffffffffff000000000000000000000000ffffffffffffffffffff908116909155868301516006845293829020805469ffffffffffffffffffff166a010000000000000000000075ffffffffffffffffffffffffffffffffffffffffffff9096168602179055600280549182166bffffffffffffffffffffffff92869004831688900383169095029490941790935551918416825292945090917fce98842d3995a36decbd0af8544d33045ef9cbcd477386c9c633dc8e13f2992d910160405180910390a260405133906bffffffffffffffffffffffff841680156108fc02916000818181858888f19350505050158015611452573d6000803e3d6000fd5b505090565b33600081815260056020908152604080832081518083018352905469ffffffffffffffffffff80821683526bffffffffffffffffffffffff6a010000000000000000000092839004168386015283518085018552600154808316825275ffffffffffffffffffffffffffffffffffffffffffff90849004811682880152978752600686528487208551808701909652549182168552919004909516928201929092528151919392909161150b9086906133ff565b905060405180604001604052808269ffffffffffffffffffff168152602001611535868686612bed565b6bffffffffffffffffffffffff90811690915233600081815260056020908152604080832086518154978401519096166a01000000000000000000009081027fffffffffffffffffffff0000000000000000000000000000000000000000000090981669ffffffffffffffffffff978816179790971790558051808201825288518c01861681528983015175ffffffffffffffffffffffffffffffffffffffffffff90811682850190815286865260069094529382902090519251909316909502908416179055600280548084168a900384167fffffffffffffffffffffffffffffffffffffffffffff0000000000000000000091821617909155865160018054918b0190941691161790915590517f9e71bc8eea02a63969f509818f2dafb9254532904319f9dbda79b67bd34a5f3d9061127a90889069ffffffffffffffffffff91909116815260200190565b73ffffffffffffffffffffffffffffffffffffffff8116600081815260056020908152604080832081518083018352905469ffffffffffffffffffff80821683526bffffffffffffffffffffffff6a010000000000000000000092839004168386015283518085018552600154808316825275ffffffffffffffffffffffffffffffffffffffffffff908490048116828801529787526006865284872085518087019096525491821685529190049095169282019290925291926108ee92612bed565b60008061175283612c46565b66ffffffffffffff1690508060000361176e5750600092915050565b60008060009054906101000a900473ffffffffffffffffffffffffffffffffffffffff1673ffffffffffffffffffffffffffffffffffffffff1663410cd41a6040518163ffffffff1660e01b8152600401602060405180830381865afa1580156117dc573d6000803e3d6000fd5b505050506040513d601f19601f8201168201806040525081019061180091906131af565b73ffffffffffffffffffffffffffffffffffffffff851660009081526009602052604090205490915064ffffffffff6305a39a8083018116911681811061184d5750600095945050505050565b8060000361185f575064ffffffffff82165b66ffffffffffffff651246b07ae2888502046000428411156118815742611883565b835b92909203029695505050505050565b3360009081526005602052604081205469ffffffffffffffffffff16808311156118bb57600080fd5b33600081815260056020908152604080832080547fffffffffffffffffffffffffffffffffffffffffffff0000000000000000000090811689880369ffffffffffffffffffff9081169190911790925573ffffffffffffffffffffffffffffffffffffffff8a168086529483902080549182169183168a01909216179055518681529192917fddf252ad1be2c89b69c2b068fc378daa952ba7f163c4a11628f55a4df523b3ef910160405180910390a35060019392505050565b60006119808261104c565b6108ee611289565b600067016345785d8a00006301e1338060016119a6600c600a6132f9565b6119b49063781a75c0613308565b6119be919061319c565b6119c8919061334e565b6119d3906001613380565b6119ef9068ffffffffffffffffff1666f38a31408ae338613308565b610c279190613421565b6003546c01000000000000000000000000900460ff16158015611a5157503373ffffffffffffffffffffffffffffffffffffffff7f000000000000000000000000000000000000000000000000000000000000000016145b611a5a57600080fd5b6000805473ffffffffffffffffffffffffffffffffffffffff9092167fffffffffffffffffffffffff0000000000000000000000000000000000000000909216919091179055600380547fffffffffffffffffffffffffffffffffffffff00ffffffffffffffffffffffff166c01000000000000000000000000179055565b6003546040805160608101825260008082526020820181905291810182905290916bffffffffffffffffffffffff169073ffffffffffffffffffffffffffffffffffffffff841673c02aaa39b223fe8d0a0e5c4f27ead9083c756cc214611d06575073ffffffffffffffffffffffffffffffffffffffff838116600090815260046020908152604091829020825160608101845281549485168152740100000000000000000000000000000000000000009094046bffffffffffffffffffffffff16918401919091526001015464ffffffffff908116918301829052620d9170909101908116421015611bf8576040517f977a44ab00000000000000000000000000000000000000000000000000000000815260040160405180910390fd5b60408051606081018252600080825260208083018281524264ffffffffff90811685870190815273ffffffffffffffffffffffffffffffffffffffff8c8116808752600486528887209751945194909116740100000000000000000000000000000000000000006bffffffffffffffffffffffff958616021787559051600190960180547fffffffffffffffffffffffffffffffffffffffffffffffffffffff0000000000169690921695909517905590860151600380547fffffffffffffffffffffffffffffffffffffffff000000000000000000000000169190980391821617909655915190917f5036af25bdace72875a429f12adf7d81782590b0da3dc10d149541bfc28863d091a2505b6000546040517f164e68de00000000000000000000000000000000000000000000000000000000815273ffffffffffffffffffffffffffffffffffffffff86811660048301529091169063164e68de906024016020604051808303816000875af1158015611d78573d6000803e3d6000fd5b505050506040513d601f19601f82011682018060405250810190611d9c9190613435565b92506dffffffffffffffffffffffffffff8316158015611de6575073ffffffffffffffffffffffffffffffffffffffff841673c02aaa39b223fe8d0a0e5c4f27ead9083c756cc214155b15611e1d576040517f30de376600000000000000000000000000000000000000000000000000000000815260040160405180910390fd5b6000611e2883612665565b9050808015611e60575073ffffffffffffffffffffffffffffffffffffffff851673c02aaa39b223fe8d0a0e5c4f27ead9083c756cc2145b15611e97576040517f30de376600000000000000000000000000000000000000000000000000000000815260040160405180910390fd5b73ffffffffffffffffffffffffffffffffffffffff851673c02aaa39b223fe8d0a0e5c4f27ead9083c756cc214611ed457611ed2858361290b565b505b505050919050565b42841015611f16576040517f05787bdf00000000000000000000000000000000000000000000000000000000815260040160405180910390fd5b60006001611f22610e0b565b73ffffffffffffffffffffffffffffffffffffffff8a811660008181526008602090815260409182902080546001810190915582517f6e71edae12b1b97f4d1f60370fef10105fa2faae0126114a169c64845d6126c98184015280840194909452938d166060840152608083018c905260a083019390935260c08083018b90528151808403909101815260e0830190915280519201919091207f190100000000000000000000000000000000000000000000000000000000000061010083015261010282019290925261012281019190915261014201604080517fffffffffffffffffffffffffffffffffffffffffffffffffffffffffffffffe08184030181528282528051602091820120600084529083018083525260ff871690820152606081018590526080810184905260a0016020604051602081039080840390855afa158015612074573d6000803e3d6000fd5b50506040517fffffffffffffffffffffffffffffffffffffffffffffffffffffffffffffffe0015191505073ffffffffffffffffffffffffffffffffffffffff811615806120ee57508773ffffffffffffffffffffffffffffffffffffffff168173ffffffffffffffffffffffffffffffffffffffff1614155b15612125576040517f815e1d6400000000000000000000000000000000000000000000000000000000815260040160405180910390fd5b73ffffffffffffffffffffffffffffffffffffffff90811660009081526007602090815260408083208a8516808552908352928190208990555188815291928a16917f8c5be1e5ebec7d5bd14f71427d1e84f3dd0314c0f7b2291e5b200ac8c7c3b925910160405180910390a350505050505050565b73ffffffffffffffffffffffffffffffffffffffff828116600090815260046020908152604091829020825160608101845281549485168152740100000000000000000000000000000000000000009094046bffffffffffffffffffffffff16918401919091526001015464ffffffffff90811691830182905262015180909101164210612255576040517f71d00de200000000000000000000000000000000000000000000000000000000815260040160405180910390fd5b6040517f23b872dd0000000000000000000000000000000000000000000000000000000081523360048201523060248201526bffffffffffffffffffffffff8316604482015273c02aaa39b223fe8d0a0e5c4f27ead9083c756cc2906323b872dd906064016020604051808303816000875af11580156122d9573d6000803e3d6000fd5b505050506040513d601f19601f820116820180604052508101906122fd9190613465565b50805173ffffffffffffffffffffffffffffffffffffffff16330361236857600380546bffffffffffffffffffffffff8082168501167fffffffffffffffffffffffffffffffffffffffff00000000000000000000000090911617905560208101519091019061245e565b6020810151600380547fffffffffffffffffffffffffffffffffffffffff00000000000000000000000081168386036bffffffffffffffffffffffff9283160182161790915582516040517fa9059cbb00000000000000000000000000000000000000000000000000000000815273ffffffffffffffffffffffffffffffffffffffff90911660048201529116602482015273c02aaa39b223fe8d0a0e5c4f27ead9083c756cc29063a9059cbb906044016020604051808303816000875af1158015612438573d6000803e3d6000fd5b505050506040513d601f19601f8201168201806040525081019061245c9190613465565b505b80602001516bffffffffffffffffffffffff16826bffffffffffffffffffffffff16116124b7576040517fa0d26eb600000000000000000000000000000000000000000000000000000000815260040160405180910390fd5b60408051606081018252338082526bffffffffffffffffffffffff85811660208085018281528787015164ffffffffff90811687890190815273ffffffffffffffffffffffffffffffffffffffff8c81166000818152600487528b90209951945188167401000000000000000000000000000000000000000002949091169390931788555160019097018054979091167fffffffffffffffffffffffffffffffffffffffffffffffffffffff00000000009097169690961790955586810151865193168352820152919290917f0aa963c9c96f25e87258ff077b609aab138a567d7617a8e86a21decf9e48984b910160405180910390a3505050565b6002805469ffffffffffffffffffff808216840181167fffffffffffffffffffffffffffffffffffffffffffff000000000000000000009283161790925573ffffffffffffffffffffffffffffffffffffffff8416600081815260056020908152604080832080548088168901881696169590951790945592519385168452909290917fddf252ad1be2c89b69c2b068fc378daa952ba7f163c4a11628f55a4df523b3ef910160405180910390a35050565b6040517f70a0823100000000000000000000000000000000000000000000000000000000815230600482015260009081906bffffffffffffffffffffffff84169073c02aaa39b223fe8d0a0e5c4f27ead9083c756cc2906370a0823190602401602060405180830381865afa1580156126e2573d6000803e3d6000fd5b505050506040513d601f19601f820116820180604052508101906127069190613487565b60025491900391506a010000000000000000000090046bffffffffffffffffffffffff164781900380830160008190036127465750600195945050505050565b6040517f2e1a7d4d0000000000000000000000000000000000000000000000000000000081526004810185905273c02aaa39b223fe8d0a0e5c4f27ead9083c756cc290632e1a7d4d90602401600060405180830381600087803b1580156127ac57600080fd5b505af11580156127c0573d6000803e3d6000fd5b50506040805180820190915260015469ffffffffffffffffffff81168083526a010000000000000000000090910475ffffffffffffffffffffffffffffffffffffffffffff1660208301529092506000039050612824575060019695505050505050565b805169ffffffffffffffffffff16605083901b816128445761284461331f565b048160200151016001600001600a6101000a81548175ffffffffffffffffffffffffffffffffffffffffffff021916908375ffffffffffffffffffffffffffffffffffffffffffff1602179055508184016002600001600a6101000a8154816bffffffffffffffffffffffff02191690836bffffffffffffffffffffffff1602179055507f2c33998a0a762573e90ee90157bd106909dee9b230db902fcdfbab148f00e5c9826040516128f991815260200190565b60405180910390a15050505050919050565b600081602001516bffffffffffffffffffffffff1660000361292f575060006108ee565b60405130602482015260609073ffffffffffffffffffffffffffffffffffffffff851690604401604080517fffffffffffffffffffffffffffffffffffffffffffffffffffffffffffffffe08184030181529181526020820180517bffffffffffffffffffffffffffffffffffffffffffffffffffffffff167f70a0823100000000000000000000000000000000000000000000000000000000179052516129d791906134a0565b6000604051808303816000865af19150503d8060008114612a14576040519150601f19603f3d011682016040523d82523d6000602084013e612a19565b606091505b509092509050811580612a2e57508051602014155b15612a3d5760009150506108ee565b600081806020019051810190612a539190613487565b905080600003612a68576001925050506108ee565b835160405173ffffffffffffffffffffffffffffffffffffffff91821660248201526044810183905290861690606401604080517fffffffffffffffffffffffffffffffffffffffffffffffffffffffffffffffe08184030181529181526020820180517bffffffffffffffffffffffffffffffffffffffffffffffffffffffff167fa9059cbb0000000000000000000000000000000000000000000000000000000017905251612b1991906134a0565b6000604051808303816000865af19150503d8060008114612b56576040519150601f19603f3d011682016040523d82523d6000602084013e612b5b565b606091505b508051919450925015801590612b82575081806020019051810190612b809190613465565b155b15612b92576000925050506108ee565b835160405182815273ffffffffffffffffffffffffffffffffffffffff8088169216907ff1e390dffccd4dabab220f97e89cff952db4e09071912ea3d657a0a621ea001d9060200160405180910390a3506001949350505050565b6020830151815169ffffffffffffffffffff1615610b285781516020808401519085015175ffffffffffffffffffffffffffffffffffffffffffff9190031669ffffffffffffffffffff9091160260501c019392505050565b60007fffffffffffffffffffffffffffffffffffffffffffffffffffffffffffffffef73ffffffffffffffffffffffffffffffffffffffff831601612c935750665166658a4af5ec919050565b7fffffffffffffffffffffffffffffffffffffffffffffffffffffffffffffffee73ffffffffffffffffffffffffffffffffffffffff831601612cdd5750653e83e37ca410919050565b7fffffffffffffffffffffffffffffffffffffffffffffffffffffffffffffffed73ffffffffffffffffffffffffffffffffffffffff831601612d2757506514d6a1298c05919050565b7fffffffffffffffffffffffffffffffffffffffffffffffffffffffffffffffec73ffffffffffffffffffffffffffffffffffffffff831601612d7257506628b332c5257af6919050565b7fffffffffffffffffffffffffffffffffffffffffffffffffffffffffffffffeb73ffffffffffffffffffffffffffffffffffffffff831601612dbd575066059feee6b6e51d919050565b7fffffffffffffffffffffffffffffffffffffffffffffffffffffffffffffffea73ffffffffffffffffffffffffffffffffffffffff831601612e0857506622bfe959c865c2919050565b7fffffffffffffffffffffffffffffffffffffffffffffffffffffffffffffffff73ffffffffffffffffffffffffffffffffffffffff831601612e535750660554c07c013887919050565b7ffffffffffffffffffffffffffffffffffffffffffffffffffffffffffffffffe73ffffffffffffffffffffffffffffffffffffffff831601612e9e5750663ff905d00ea654919050565b7ffffffffffffffffffffffffffffffffffffffffffffffffffffffffffffffffd73ffffffffffffffffffffffffffffffffffffffff831601612ee957506617e56e9f5a354e919050565b506000919050565b60005b83811015612f0c578181015183820152602001612ef4565b50506000910152565b6020815260008251806020840152612f34816040850160208701612ef1565b601f017fffffffffffffffffffffffffffffffffffffffffffffffffffffffffffffffe0169190910160400192915050565b803573ffffffffffffffffffffffffffffffffffffffff81168114610feb57600080fd5b60008060408385031215612f9d57600080fd5b612fa683612f66565b946020939093013593505050565b600060208284031215612fc657600080fd5b610b2882612f66565b600080600060608486031215612fe457600080fd5b612fed84612f66565b9250612ffb60208501612f66565b929592945050506040919091013590565b60006020828403121561301e57600080fd5b5035919050565b69ffffffffffffffffffff8116811461303d57600080fd5b50565b60006020828403121561305257600080fd5b8135610b2881613025565b600080600080600080600060e0888a03121561307857600080fd5b61308188612f66565b965061308f60208901612f66565b95506040880135945060608801359350608088013560ff811681146130b357600080fd5b9699959850939692959460a0840135945060c09093013592915050565b600080604083850312156130e357600080fd5b6130ec83612f66565b91506130fa60208401612f66565b90509250929050565b6000806040838503121561311657600080fd5b61311f83612f66565b915060208301356bffffffffffffffffffffffff8116811461314057600080fd5b809150509250929050565b7f4e487b7100000000000000000000000000000000000000000000000000000000600052601160045260246000fd5b69ffffffffffffffffffff81811683821601908111156108ee576108ee61314b565b818103818111156108ee576108ee61314b565b6000602082840312156131c157600080fd5b815164ffffffffff81168114610b2857600080fd5b6001815b6001841115613211578085048111156131f5576131f561314b565b600184161561320357908102905b60019390931c9280026131da565b935093915050565b600082613228575060016108ee565b81613235575060006108ee565b816001811461324b576002811461325557613271565b60019150506108ee565b60ff8411156132665761326661314b565b50506001821b6108ee565b5060208310610133831016604e8410600b8410161715613294575081810a6108ee565b6132bf7fffffffffffffffffffffffffffffffffffffffffffffffffffffffffffffffff84846131d6565b807fffffffffffffffffffffffffffffffffffffffffffffffffffffffffffffffff048211156132f1576132f161314b565b029392505050565b6000610b2860ff841683613219565b80820281158282048414176108ee576108ee61314b565b7f4e487b7100000000000000000000000000000000000000000000000000000000600052601260045260246000fd5b600068ffffffffffffffffff8316806133695761336961331f565b8068ffffffffffffffffff84160491505092915050565b68ffffffffffffffffff81811683821601908111156108ee576108ee61314b565b64ffffffffff81811683821601908111156108ee576108ee61314b565b6bffffffffffffffffffffffff82811682821603908111156108ee576108ee61314b565b6000602082840312156133f457600080fd5b8151610b2881613025565b69ffffffffffffffffffff82811682821603908111156108ee576108ee61314b565b6000826134305761343061331f565b500490565b60006020828403121561344757600080fd5b81516dffffffffffffffffffffffffffff81168114610b2857600080fd5b60006020828403121561347757600080fd5b81518015158114610b2857600080fd5b60006020828403121561349957600080fd5b5051919050565b600082516134b2818460208701612ef1565b919091019291505056fea2646970667358221220b02c03f683e1fa41cbb73b7e310defe1f7459c72437421dc8f717fe4e184d8a064736f6c634300081a0033","linkReferences":{}},"methodIdentifiers":{"DOMAIN_SEPARATOR()":"3644e515","ISSUANCE_RATE()":"309295ee","LP_ISSUANCE_FIRST_3_YEARS()":"bffecd88","allowance(address,address)":"dd62ed3e","approve(address,uint256)":"095ea7b3","auctions(address)":"1d59410a","balanceOf(address)":"70a08231","bid(address,uint96)":"e2505abf","claim()":"4e71d92d","collectFeesAndStartAuction(address)":"d181af7a","contributorMint()":"138d052f","contributorUnclaimedSIR(address)":"9da16323","decimals()":"313ce567","dividends(address)":"68306e43","initialize(address)":"c4d66de8","lPerMint(uint256)":"460028c9","maxTotalSupply()":"2ab4d052","name()":"06fdde03","nonces(address)":"7ecebe00","payAuctionWinner(address)":"331ef1a5","permit(address,address,uint256,uint256,uint8,bytes32,bytes32)":"d505accf","stake(uint80)":"4f7a21d2","stakersParams(address)":"4a62c384","supply()":"047fc9aa","symbol()":"95d89b41","totalBalanceOf(address)":"4b0ee02a","totalSupply()":"18160ddd","transfer(address,uint256)":"a9059cbb","transferFrom(address,address,uint256)":"23b872dd","unstake(uint80)":"4c24946b","unstakeAndClaim(uint80)":"ac3dd857"},"id":45}