{"abi":[{"type":"constructor","inputs":[{"name":"weth","type":"address","internalType":"address"},{"name":"systemControl","type":"address","internalType":"address"}],"stateMutability":"nonpayable"},{"type":"receive","stateMutability":"payable"},{"type":"function","name":"DOMAIN_SEPARATOR","inputs":[],"outputs":[{"name":"","type":"bytes32","internalType":"bytes32"}],"stateMutability":"view"},{"type":"function","name":"ISSUANCE_RATE","inputs":[],"outputs":[{"name":"","type":"uint72","internalType":"uint72"}],"stateMutability":"pure"},{"type":"function","name":"LP_ISSUANCE_FIRST_3_YEARS","inputs":[],"outputs":[{"name":"","type":"uint72","internalType":"uint72"}],"stateMutability":"pure"},{"type":"function","name":"allowMinting","inputs":[{"name":"mintingOfSIRHalted_","type":"bool","internalType":"bool"}],"outputs":[],"stateMutability":"nonpayable"},{"type":"function","name":"allowance","inputs":[{"name":"","type":"address","internalType":"address"},{"name":"","type":"address","internalType":"address"}],"outputs":[{"name":"","type":"uint256","internalType":"uint256"}],"stateMutability":"view"},{"type":"function","name":"approve","inputs":[{"name":"spender","type":"address","internalType":"address"},{"name":"amount","type":"uint256","internalType":"uint256"}],"outputs":[{"name":"","type":"bool","internalType":"bool"}],"stateMutability":"nonpayable"},{"type":"function","name":"auctions","inputs":[{"name":"token","type":"address","internalType":"address"}],"outputs":[{"name":"","type":"tuple","internalType":"struct SirStructs.Auction","components":[{"name":"bidder","type":"address","internalType":"address"},{"name":"bid","type":"uint96","internalType":"uint96"},{"name":"startTime","type":"uint40","internalType":"uint40"}]}],"stateMutability":"view"},{"type":"function","name":"balanceOf","inputs":[{"name":"account","type":"address","internalType":"address"}],"outputs":[{"name":"","type":"uint256","internalType":"uint256"}],"stateMutability":"view"},{"type":"function","name":"bid","inputs":[{"name":"token","type":"address","internalType":"address"},{"name":"amount","type":"uint96","internalType":"uint96"}],"outputs":[],"stateMutability":"nonpayable"},{"type":"function","name":"claim","inputs":[],"outputs":[{"name":"dividends_","type":"uint96","internalType":"uint96"}],"stateMutability":"nonpayable"},{"type":"function","name":"collectFeesAndStartAuction","inputs":[{"name":"token","type":"address","internalType":"address"}],"outputs":[{"name":"totalFees","type":"uint256","internalType":"uint256"}],"stateMutability":"nonpayable"},{"type":"function","name":"contributorMint","inputs":[],"outputs":[{"name":"rewards","type":"uint80","internalType":"uint80"}],"stateMutability":"nonpayable"},{"type":"function","name":"contributorUnclaimedSIR","inputs":[{"name":"contributor","type":"address","internalType":"address"}],"outputs":[{"name":"","type":"uint80","internalType":"uint80"}],"stateMutability":"view"},{"type":"function","name":"decimals","inputs":[],"outputs":[{"name":"","type":"uint8","internalType":"uint8"}],"stateMutability":"view"},{"type":"function","name":"dividends","inputs":[{"name":"staker","type":"address","internalType":"address"}],"outputs":[{"name":"","type":"uint96","internalType":"uint96"}],"stateMutability":"view"},{"type":"function","name":"initialize","inputs":[{"name":"vault_","type":"address","internalType":"address"}],"outputs":[],"stateMutability":"nonpayable"},{"type":"function","name":"lPerMint","inputs":[{"name":"vaultId","type":"uint256","internalType":"uint256"}],"outputs":[{"name":"rewards","type":"uint80","internalType":"uint80"}],"stateMutability":"nonpayable"},{"type":"function","name":"lPerMintAndStake","inputs":[{"name":"vaultId","type":"uint256","internalType":"uint256"}],"outputs":[{"name":"rewards","type":"uint80","internalType":"uint80"}],"stateMutability":"nonpayable"},{"type":"function","name":"maxTotalSupply","inputs":[],"outputs":[{"name":"","type":"uint256","internalType":"uint256"}],"stateMutability":"view"},{"type":"function","name":"name","inputs":[],"outputs":[{"name":"","type":"string","internalType":"string"}],"stateMutability":"view"},{"type":"function","name":"nonces","inputs":[{"name":"","type":"address","internalType":"address"}],"outputs":[{"name":"","type":"uint256","internalType":"uint256"}],"stateMutability":"view"},{"type":"function","name":"payAuctionWinner","inputs":[{"name":"token","type":"address","internalType":"address"}],"outputs":[],"stateMutability":"nonpayable"},{"type":"function","name":"permit","inputs":[{"name":"owner","type":"address","internalType":"address"},{"name":"spender","type":"address","internalType":"address"},{"name":"value","type":"uint256","internalType":"uint256"},{"name":"deadline","type":"uint256","internalType":"uint256"},{"name":"v","type":"uint8","internalType":"uint8"},{"name":"r","type":"bytes32","internalType":"bytes32"},{"name":"s","type":"bytes32","internalType":"bytes32"}],"outputs":[],"stateMutability":"nonpayable"},{"type":"function","name":"stake","inputs":[{"name":"amount","type":"uint80","internalType":"uint80"}],"outputs":[],"stateMutability":"nonpayable"},{"type":"function","name":"stakersParams","inputs":[{"name":"staker","type":"address","internalType":"address"}],"outputs":[{"name":"","type":"tuple","internalType":"struct SirStructs.StakingParams","components":[{"name":"stake","type":"uint80","internalType":"uint80"},{"name":"cumulativeETHPerSIRx80","type":"uint176","internalType":"uint176"}]}],"stateMutability":"view"},{"type":"function","name":"supply","inputs":[],"outputs":[{"name":"","type":"uint256","internalType":"uint256"}],"stateMutability":"view"},{"type":"function","name":"symbol","inputs":[],"outputs":[{"name":"","type":"string","internalType":"string"}],"stateMutability":"view"},{"type":"function","name":"totalBalanceOf","inputs":[{"name":"account","type":"address","internalType":"address"}],"outputs":[{"name":"","type":"uint256","internalType":"uint256"}],"stateMutability":"view"},{"type":"function","name":"totalSupply","inputs":[],"outputs":[{"name":"","type":"uint256","internalType":"uint256"}],"stateMutability":"view"},{"type":"function","name":"transfer","inputs":[{"name":"to","type":"address","internalType":"address"},{"name":"amount","type":"uint256","internalType":"uint256"}],"outputs":[{"name":"","type":"bool","internalType":"bool"}],"stateMutability":"nonpayable"},{"type":"function","name":"transferFrom","inputs":[{"name":"from","type":"address","internalType":"address"},{"name":"to","type":"address","internalType":"address"},{"name":"amount","type":"uint256","internalType":"uint256"}],"outputs":[{"name":"","type":"bool","internalType":"bool"}],"stateMutability":"nonpayable"},{"type":"function","name":"unstake","inputs":[{"name":"amount","type":"uint80","internalType":"uint80"}],"outputs":[],"stateMutability":"nonpayable"},{"type":"function","name":"unstakeAndClaim","inputs":[{"name":"amount","type":"uint80","internalType":"uint80"}],"outputs":[{"name":"dividends_","type":"uint96","internalType":"uint96"}],"stateMutability":"nonpayable"},{"type":"event","name":"Approval","inputs":[{"name":"owner","type":"address","indexed":true,"internalType":"address"},{"name":"spender","type":"address","indexed":true,"internalType":"address"},{"name":"amount","type":"uint256","indexed":false,"internalType":"uint256"}],"anonymous":false},{"type":"event","name":"AuctionStarted","inputs":[{"name":"token","type":"address","indexed":true,"internalType":"address"},{"name":"feesToBeAuctioned","type":"uint256","indexed":false,"internalType":"uint256"}],"anonymous":false},{"type":"event","name":"AuctionedTokensSentToWinner","inputs":[{"name":"winner","type":"address","indexed":true,"internalType":"address"},{"name":"token","type":"address","indexed":true,"internalType":"address"},{"name":"reward","type":"uint256","indexed":false,"internalType":"uint256"}],"anonymous":false},{"type":"event","name":"BidReceived","inputs":[{"name":"bidder","type":"address","indexed":true,"internalType":"address"},{"name":"token","type":"address","indexed":true,"internalType":"address"},{"name":"previousBid","type":"uint96","indexed":false,"internalType":"uint96"},{"name":"newBid","type":"uint96","indexed":false,"internalType":"uint96"}],"anonymous":false},{"type":"event","name":"DividendsClaimed","inputs":[{"name":"staker","type":"address","indexed":true,"internalType":"address"},{"name":"amount","type":"uint96","indexed":false,"internalType":"uint96"}],"anonymous":false},{"type":"event","name":"DividendsPaid","inputs":[{"name":"amountETH","type":"uint96","indexed":false,"internalType":"uint96"},{"name":"amountStakedSIR","type":"uint80","indexed":false,"internalType":"uint80"}],"anonymous":false},{"type":"event","name":"RewardsClaimed","inputs":[{"name":"contributor","type":"address","indexed":true,"internalType":"address"},{"name":"vaultId","type":"uint256","indexed":true,"internalType":"uint256"},{"name":"rewards","type":"uint80","indexed":false,"internalType":"uint80"}],"anonymous":false},{"type":"event","name":"Staked","inputs":[{"name":"staker","type":"address","indexed":true,"internalType":"address"},{"name":"amount","type":"uint256","indexed":false,"internalType":"uint256"}],"anonymous":false},{"type":"event","name":"Transfer","inputs":[{"name":"from","type":"address","indexed":true,"internalType":"address"},{"name":"to","type":"address","indexed":true,"internalType":"address"},{"name":"amount","type":"uint256","indexed":false,"internalType":"uint256"}],"anonymous":false},{"type":"event","name":"Unstaked","inputs":[{"name":"staker","type":"address","indexed":true,"internalType":"address"},{"name":"amount","type":"uint256","indexed":false,"internalType":"uint256"}],"anonymous":false},{"type":"error","name":"AuctionIsNotOver","inputs":[]},{"type":"error","name":"BidTooLow","inputs":[]},{"type":"error","name":"InvalidSigner","inputs":[]},{"type":"error","name":"NewAuctionCannotStartYet","inputs":[]},{"type":"error","name":"NoAuction","inputs":[]},{"type":"error","name":"NoAuctionLot","inputs":[]},{"type":"error","name":"NoFeesCollected","inputs":[]},{"type":"error","name":"PermitDeadlineExpired","inputs":[]}],"bytecode":{"object":"0x610140604052600c60c052600a805460ff19166001179055348015610022575f5ffd5b5060405161376838038061376883398101604081905261004191610160565b6001600160a01b03821660a052336080524660e052808261012b604080518082018252601c81527f53796e7468657469637320496d706c656d656e7465642052696768740000000060209182015281517f8b73c3c69bb8fe3d512ecc4cf759cc79239f7b179b0ffacaa9a75d522b39400f818301527f0d614900cceb97813954e30e34c71083d521e4e429b1329383c635cfe8875f20818401527fc89efdaa54c0f20c7adf612882df0950f5a951637e0307cdcb4c672f298b8bc660608201524660808201523060a0808301919091528351808303909101815260c0909101909252815191012090565b61010052506001600160a01b031661012052506101919050565b80516001600160a01b038116811461015b575f5ffd5b919050565b5f5f60408385031215610171575f5ffd5b61017a83610145565b915061018860208401610145565b90509250929050565b60805160a05160c05160e05161010051610120516135746101f45f395f610c7301525f610fa501525f610eac01525f6104a001525f8181611bb90152818161236b015281816124eb015281816127b5015261288c01525f611afc01526135745ff3fe6080604052600436106101f8575f3560e01c80634b0ee02a116101175780639da16323116100ac578063c4d66de81161007c578063d505accf11610062578063d505accf1461081b578063dd62ed3e1461083a578063e2505abf14610870575f5ffd5b8063c4d66de8146107dd578063d181af7a146107fc575f5ffd5b80639da163231461076c578063a9059cbb1461078b578063ac3dd857146107aa578063bffecd88146107c9575f5ffd5b806368306e43116100e757806368306e431461068d57806370a08231146106ac5780637ecebe00146106f957806395d89b4114610724575f5ffd5b80634b0ee02a146105ff5780634c24946b1461061e5780634e71d92d1461063d5780634f7a21d21461066e575f5ffd5b80632ab4d0521161018d578063331ef1a51161015d578063331ef1a5146104d45780633644e515146104f3578063460028c9146105075780634a62c38414610526575f5ffd5b80632ab4d0521461042c5780632c5a8e8614610440578063309295ee14610461578063313ce5671461048f575f5ffd5b8063138d052f116101c8578063138d052f146102f057806318160ddd146103045780631d59410a1461031857806323b872dd1461040d575f5ffd5b8063047fc9aa1461020357806306fdde0314610232578063095ea7b3146102875780630fb3bd93146102b6575f5ffd5b366101ff57005b5f5ffd5b34801561020e575f5ffd5b5060025469ffffffffffffffffffff165b6040519081526020015b60405180910390f35b34801561023d575f5ffd5b5061027a6040518060400160405280601c81526020017f53796e7468657469637320496d706c656d656e7465642052696768740000000081525081565b6040516102299190612fd2565b348015610292575f5ffd5b506102a66102a1366004613048565b61088f565b6040519015158152602001610229565b3480156102c1575f5ffd5b506102d56102d0366004613070565b610908565b60405169ffffffffffffffffffff9091168152602001610229565b3480156102fb575f5ffd5b506102d5610922565b34801561030f575f5ffd5b5061021f61099e565b348015610323575f5ffd5b506103c0610332366004613087565b60408051606080820183525f808352602080840182905292840181905273ffffffffffffffffffffffffffffffffffffffff9485168152600483528390208351918201845280549485168252740100000000000000000000000000000000000000009094046bffffffffffffffffffffffff169181019190915260019092015464ffffffffff169082015290565b60408051825173ffffffffffffffffffffffffffffffffffffffff1681526020808401516bffffffffffffffffffffffff16908201529181015164ffffffffff1690820152606001610229565b348015610418575f5ffd5b506102a66104273660046130a0565b6109d0565b348015610437575f5ffd5b5061021f610b62565b34801561044b575f5ffd5b5061045f61045a3660046130ea565b610c5b565b005b34801561046c575f5ffd5b50610475610ccd565b60405168ffffffffffffffffff9091168152602001610229565b34801561049a575f5ffd5b506104c27f000000000000000000000000000000000000000000000000000000000000000081565b60405160ff9091168152602001610229565b3480156104df575f5ffd5b5061045f6104ee366004613087565b610d0e565b3480156104fe575f5ffd5b5061021f610ea9565b348015610512575f5ffd5b506102d5610521366004613070565b610fc7565b348015610531575f5ffd5b506105c0610540366004613087565b604080518082019091525f80825260208201525073ffffffffffffffffffffffffffffffffffffffff165f9081526006602090815260409182902082518084019093525469ffffffffffffffffffff811683526a0100000000000000000000900475ffffffffffffffffffffffffffffffffffffffffffff169082015290565b60408051825169ffffffffffffffffffff16815260209283015175ffffffffffffffffffffffffffffffffffffffffffff169281019290925201610229565b34801561060a575f5ffd5b5061021f610619366004613087565b6110d9565b348015610629575f5ffd5b5061045f61063836600461311c565b611134565b348015610648575f5ffd5b5061065161136e565b6040516bffffffffffffffffffffffff9091168152602001610229565b348015610679575f5ffd5b5061045f61068836600461311c565b611537565b348015610698575f5ffd5b506106516106a7366004613087565b611761565b3480156106b7575f5ffd5b5061021f6106c6366004613087565b73ffffffffffffffffffffffffffffffffffffffff165f9081526005602052604090205469ffffffffffffffffffff1690565b348015610704575f5ffd5b5061021f610713366004613087565b60086020525f908152604090205481565b34801561072f575f5ffd5b5061027a6040518060400160405280600381526020017f534952000000000000000000000000000000000000000000000000000000000081525081565b348015610777575f5ffd5b506102d5610786366004613087565b611823565b348015610796575f5ffd5b506102a66107a5366004613048565b611964565b3480156107b5575f5ffd5b506106516107c436600461311c565b611a44565b3480156107d4575f5ffd5b50610475611a56565b3480156107e8575f5ffd5b5061045f6107f7366004613087565b611ac6565b348015610807575f5ffd5b5061021f610816366004613087565b611ba4565b348015610826575f5ffd5b5061045f610835366004613137565b611fb1565b348015610845575f5ffd5b5061021f6108543660046131a4565b600760209081525f928352604080842090915290825290205481565b34801561087b575f5ffd5b5061045f61088a3660046131d5565b61226a565b335f81815260076020908152604080832073ffffffffffffffffffffffffffffffffffffffff8716808552925280832085905551919290917f8c5be1e5ebec7d5bd14f71427d1e84f3dd0314c0f7b2291e5b200ac8c7c3b925906108f69086815260200190565b60405180910390a35060015b92915050565b5f61091282610fc7565b905061091d81611537565b919050565b600a545f9060ff16610932575f5ffd5b61093b33611823565b90505f8169ffffffffffffffffffff1611610954575f5ffd5b61095e33826126ad565b335f90815260096020526040902080547fffffffffffffffffffffffffffffffffffffffffffffffffffffff0000000000164264ffffffffff1617905590565b6002546001545f916109bf9169ffffffffffffffffffff9182169116613247565b69ffffffffffffffffffff16905090565b73ffffffffffffffffffffffffffffffffffffffff83165f9081526007602090815260408083203384529091528120547fffffffffffffffffffffffffffffffffffffffffffffffffffffffffffffffff8114610a6257610a318382613269565b73ffffffffffffffffffffffffffffffffffffffff86165f9081526007602090815260408083203384529091529020555b73ffffffffffffffffffffffffffffffffffffffff85165f9081526005602052604090205469ffffffffffffffffffff1680841115610a9f575f5ffd5b73ffffffffffffffffffffffffffffffffffffffff8087165f81815260056020526040808220805469ffffffffffffffffffff8a880381167fffffffffffffffffffffffffffffffffffffffffffff0000000000000000000092831617909255948a168084529282902080548083168b01909216919095161790935591517fddf252ad1be2c89b69c2b068fc378daa952ba7f163c4a11628f55a4df523b3ef90610b4c9088815260200190565b60405180910390a36001925050505b9392505050565b5f5f5f9054906101000a900473ffffffffffffffffffffffffffffffffffffffff1673ffffffffffffffffffffffffffffffffffffffff1663410cd41a6040518163ffffffff1660e01b8152600401602060405180830381865afa158015610bcc573d5f5f3e3d5ffd5b505050506040513d601f19601f82011682018060405250810190610bf0919061327c565b610c019064ffffffffff1642613269565b6301e133806001610c14600c600a6133c1565b610c229063781a75c06133cf565b610c2c9190613269565b610c369190613413565b610c41906001613444565b68ffffffffffffffffff16610c5691906133cf565b905090565b3373ffffffffffffffffffffffffffffffffffffffff7f00000000000000000000000000000000000000000000000000000000000000001614610c9c575f5ffd5b600a80547fffffffffffffffffffffffffffffffffffffffffffffffffffffffffffffff0016911515919091179055565b5f6301e133806001610ce1600c600a6133c1565b610cef9063781a75c06133cf565b610cf99190613269565b610d039190613413565b610c56906001613444565b73ffffffffffffffffffffffffffffffffffffffff8181165f90815260046020908152604091829020825160608101845281549485168152740100000000000000000000000000000000000000009094046bffffffffffffffffffffffff16918401919091526001015464ffffffffff16908201819052610d93906201518090613465565b64ffffffffff16421015610dd2576040517e175ba800000000000000000000000000000000000000000000000000000000815260040160405180910390fd5b73ffffffffffffffffffffffffffffffffffffffff8083165f9081526004602090815260408220805490931690925590820151600354610e2091906bffffffffffffffffffffffff16613482565b600380547fffffffffffffffffffffffffffffffffffffffff000000000000000000000000166bffffffffffffffffffffffff83161790559050610e638161275e565b50610e6e8383612a48565b610ea4576040517fa90c149f00000000000000000000000000000000000000000000000000000000815260040160405180910390fd5b505050565b5f7f00000000000000000000000000000000000000000000000000000000000000004614610fa25750604080518082018252601c81527f53796e7468657469637320496d706c656d656e7465642052696768740000000060209182015281517f8b73c3c69bb8fe3d512ecc4cf759cc79239f7b179b0ffacaa9a75d522b39400f818301527f0d614900cceb97813954e30e34c71083d521e4e429b1329383c635cfe8875f20818401527fc89efdaa54c0f20c7adf612882df0950f5a951637e0307cdcb4c672f298b8bc660608201524660808201523060a0808301919091528351808303909101815260c0909101909252815191012090565b507f000000000000000000000000000000000000000000000000000000000000000090565b600a545f9060ff16610fd7575f5ffd5b5f546040517f777b1d430000000000000000000000000000000000000000000000000000000081526004810184905233602482015273ffffffffffffffffffffffffffffffffffffffff9091169063777b1d43906044016020604051808303815f875af115801561104a573d5f5f3e3d5ffd5b505050506040513d601f19601f8201168201806040525081019061106e91906134a6565b90505f8169ffffffffffffffffffff1611611087575f5ffd5b61109133826126ad565b60405169ffffffffffffffffffff82168152829033907fcb4638e0a42946ee6211d74938270204aa9bfa787e57f01113f475d7c4539b6d9060200160405180910390a3919050565b73ffffffffffffffffffffffffffffffffffffffff81165f9081526005602090815260408083205460069092528220546111229169ffffffffffffffffffff9081169116613247565b69ffffffffffffffffffff1692915050565b335f81815260056020908152604080832081518083018352905469ffffffffffffffffffff80821683526bffffffffffffffffffffffff6a010000000000000000000092839004168386015283518085018552600154808316825275ffffffffffffffffffffffffffffffffffffffffffff90849004811682880152978752600686528487208551808701909652549182168086529290910490961693830193909352939290916111e69086906134c1565b9050604051806040016040528086865f01510169ffffffffffffffffffff168152602001611215868686612d1b565b6bffffffffffffffffffffffff908116909152335f81815260056020908152604080832086518154978401519096166a01000000000000000000009081027fffffffffffffffffffff0000000000000000000000000000000000000000000090981669ffffffffffffffffffff978816179790971790558051808201825287861681528983015175ffffffffffffffffffffffffffffffffffffffffffff90811682850190815286865260069094529382902090519251909316909502908416179055600280548084168a0184167fffffffffffffffffffffffffffffffffffffffffffff0000000000000000000091821617909155865160018054918b900390941691161790915590517f0f5bb82176feb1b5e747e28471aa92156a04d9f3ab9f45f28e2d704232b93f759061135f90889069ffffffffffffffffffff91909116815260200190565b60405180910390a25050505050565b60408051808201825260015469ffffffffffffffffffff808216835275ffffffffffffffffffffffffffffffffffffffffffff6a0100000000000000000000928390048116602080860191909152335f818152600583528781208851808a018a52905480871682526bffffffffffffffffffffffff908890041681850152918152600683528781208851808a019099525494851688529490930490911690850152909261141d91908390612d1b565b335f81815260056020908152604080832080547fffffffffffffffffffff000000000000000000000000ffffffffffffffffffff908116909155868301516006845293829020805469ffffffffffffffffffff166a010000000000000000000075ffffffffffffffffffffffffffffffffffffffffffff9096168602179055600280549182166bffffffffffffffffffffffff92869004831688900383169095029490941790935551918416825292945090917fce98842d3995a36decbd0af8544d33045ef9cbcd477386c9c633dc8e13f2992d910160405180910390a260405133906bffffffffffffffffffffffff841680156108fc02915f818181858888f19350505050158015611532573d5f5f3e3d5ffd5b505090565b335f81815260056020908152604080832081518083018352905469ffffffffffffffffffff80821683526bffffffffffffffffffffffff6a010000000000000000000092839004168386015283518085018552600154808316825275ffffffffffffffffffffffffffffffffffffffffffff9084900481168288015297875260068652848720855180870190965254918216855291900490951692820192909252815191939290916115ea9086906134c1565b905060405180604001604052808269ffffffffffffffffffff168152602001611614868686612d1b565b6bffffffffffffffffffffffff908116909152335f81815260056020908152604080832086518154978401519096166a01000000000000000000009081027fffffffffffffffffffff0000000000000000000000000000000000000000000090981669ffffffffffffffffffff978816179790971790558051808201825288518c01861681528983015175ffffffffffffffffffffffffffffffffffffffffffff90811682850190815286865260069094529382902090519251909316909502908416179055600280548084168a900384167fffffffffffffffffffffffffffffffffffffffffffff0000000000000000000091821617909155865160018054918b0190941691161790915590517f9e71bc8eea02a63969f509818f2dafb9254532904319f9dbda79b67bd34a5f3d9061135f90889069ffffffffffffffffffff91909116815260200190565b73ffffffffffffffffffffffffffffffffffffffff81165f81815260056020908152604080832081518083018352905469ffffffffffffffffffff80821683526bffffffffffffffffffffffff6a010000000000000000000092839004168386015283518085018552600154808316825275ffffffffffffffffffffffffffffffffffffffffffff9084900481168288015297875260068652848720855180870190965254918216855291900490951692820192909252919261090292612d1b565b5f5f61182e83612d74565b66ffffffffffffff169050805f0361184857505f92915050565b5f5f5f9054906101000a900473ffffffffffffffffffffffffffffffffffffffff1673ffffffffffffffffffffffffffffffffffffffff1663410cd41a6040518163ffffffff1660e01b8152600401602060405180830381865afa1580156118b2573d5f5f3e3d5ffd5b505050506040513d601f19601f820116820180604052508101906118d6919061327c565b73ffffffffffffffffffffffffffffffffffffffff85165f9081526009602052604090205490915064ffffffffff6305a39a8083018116911681811061192157505f95945050505050565b805f03611932575064ffffffffff82165b66ffffffffffffff651246b07ae2888502045f428411156119535742611955565b835b92909203029695505050505050565b335f9081526005602052604081205469ffffffffffffffffffff168083111561198b575f5ffd5b335f81815260056020908152604080832080547fffffffffffffffffffffffffffffffffffffffffffff0000000000000000000090811689880369ffffffffffffffffffff9081169190911790925573ffffffffffffffffffffffffffffffffffffffff8a168086529483902080549182169183168a01909216179055518681529192917fddf252ad1be2c89b69c2b068fc378daa952ba7f163c4a11628f55a4df523b3ef910160405180910390a35060019392505050565b5f611a4e82611134565b61090261136e565b5f67016345785d8a00006301e133806001611a73600c600a6133c1565b611a819063781a75c06133cf565b611a8b9190613269565b611a959190613413565b611aa0906001613444565b611abc9068ffffffffffffffffff1666f38a31408ae3386133cf565b610c5691906134e3565b6003546c01000000000000000000000000900460ff16158015611b1e57503373ffffffffffffffffffffffffffffffffffffffff7f000000000000000000000000000000000000000000000000000000000000000016145b611b26575f5ffd5b5f805473ffffffffffffffffffffffffffffffffffffffff9092167fffffffffffffffffffffffff0000000000000000000000000000000000000000909216919091179055600380547fffffffffffffffffffffffffffffffffffffff00ffffffffffffffffffffffff166c01000000000000000000000000179055565b6003545f906bffffffffffffffffffffffff167f000000000000000000000000000000000000000000000000000000000000000073ffffffffffffffffffffffffffffffffffffffff90811690841614611ed15773ffffffffffffffffffffffffffffffffffffffff8381165f90815260046020908152604091829020825160608101845281549485168152740100000000000000000000000000000000000000009094046bffffffffffffffffffffffff16918401919091526001015464ffffffffff908116918301829052620d9170909101908116421015611cb4576040517f977a44ab00000000000000000000000000000000000000000000000000000000815260040160405180910390fd5b604080516060810182525f80825260208083018281524264ffffffffff90811685870190815273ffffffffffffffffffffffffffffffffffffffff8c8116865260048552969094209451915191909516740100000000000000000000000000000000000000006bffffffffffffffffffffffff928316021784559151600190930180547fffffffffffffffffffffffffffffffffffffffffffffffffffffff0000000000169390941692909217909255830151600380547fffffffffffffffffffffffffffffffffffffffff000000000000000000000000169190950391821617909355611da18361275e565b50611dac8583612a48565b505f546040517f164e68de00000000000000000000000000000000000000000000000000000000815273ffffffffffffffffffffffffffffffffffffffff87811660048301529091169063164e68de906024016020604051808303815f875af1158015611e1b573d5f5f3e3d5ffd5b505050506040513d601f19601f82011682018060405250810190611e3f91906134f6565b9350835f03611e7a576040517f8c887b1200000000000000000000000000000000000000000000000000000000815260040160405180910390fd5b8473ffffffffffffffffffffffffffffffffffffffff167fc087c4cdb16906b5ff7016a6bf927618f24ff32eb1de5e86eeaeb08b94831a6885604051611ec291815260200190565b60405180910390a25050611fab565b5f546040517f164e68de00000000000000000000000000000000000000000000000000000000815273ffffffffffffffffffffffffffffffffffffffff85811660048301529091169063164e68de906024016020604051808303815f875af1158015611f3f573d5f5f3e3d5ffd5b505050506040513d601f19601f82011682018060405250810190611f6391906134f6565b91505f611f6f8261275e565b90508015611fa9576040517f8c887b1200000000000000000000000000000000000000000000000000000000815260040160405180910390fd5b505b50919050565b42841015611feb576040517f05787bdf00000000000000000000000000000000000000000000000000000000815260040160405180910390fd5b5f6001611ff6610ea9565b73ffffffffffffffffffffffffffffffffffffffff8a81165f8181526008602090815260409182902080546001810190915582517f6e71edae12b1b97f4d1f60370fef10105fa2faae0126114a169c64845d6126c98184015280840194909452938d166060840152608083018c905260a083019390935260c08083018b90528151808403909101815260e0830190915280519201919091207f190100000000000000000000000000000000000000000000000000000000000061010083015261010282019290925261012281019190915261014201604080517fffffffffffffffffffffffffffffffffffffffffffffffffffffffffffffffe081840301815282825280516020918201205f84529083018083525260ff871690820152606081018590526080810184905260a0016020604051602081039080840390855afa158015612144573d5f5f3e3d5ffd5b50506040517fffffffffffffffffffffffffffffffffffffffffffffffffffffffffffffffe0015191505073ffffffffffffffffffffffffffffffffffffffff811615806121be57508773ffffffffffffffffffffffffffffffffffffffff168173ffffffffffffffffffffffffffffffffffffffff1614155b156121f5576040517f815e1d6400000000000000000000000000000000000000000000000000000000815260040160405180910390fd5b73ffffffffffffffffffffffffffffffffffffffff9081165f9081526007602090815260408083208a8516808552908352928190208990555188815291928a16917f8c5be1e5ebec7d5bd14f71427d1e84f3dd0314c0f7b2291e5b200ac8c7c3b925910160405180910390a350505050505050565b73ffffffffffffffffffffffffffffffffffffffff8281165f90815260046020908152604091829020825160608101845281549485168152740100000000000000000000000000000000000000009094046bffffffffffffffffffffffff16918401919091526001015464ffffffffff90811691830182905262015180909101164210612323576040517f71d00de200000000000000000000000000000000000000000000000000000000815260040160405180910390fd5b6040517f23b872dd0000000000000000000000000000000000000000000000000000000081523360048201523060248201526bffffffffffffffffffffffff831660448201527f000000000000000000000000000000000000000000000000000000000000000073ffffffffffffffffffffffffffffffffffffffff16906323b872dd906064016020604051808303815f875af11580156123c6573d5f5f3e3d5ffd5b505050506040513d601f19601f820116820180604052508101906123ea919061350d565b50805173ffffffffffffffffffffffffffffffffffffffff16330361245557600380546bffffffffffffffffffffffff8082168501167fffffffffffffffffffffffffffffffffffffffff000000000000000000000000909116179055602081015190910190612559565b6020810151600380547fffffffffffffffffffffffffffffffffffffffff00000000000000000000000081168386036bffffffffffffffffffffffff9283160182161790915582516040517fa9059cbb00000000000000000000000000000000000000000000000000000000815273ffffffffffffffffffffffffffffffffffffffff91821660048201529190921660248201527f00000000000000000000000000000000000000000000000000000000000000009091169063a9059cbb906044016020604051808303815f875af1158015612533573d5f5f3e3d5ffd5b505050506040513d601f19601f82011682018060405250810190612557919061350d565b505b80602001516bffffffffffffffffffffffff16826bffffffffffffffffffffffff16116125b2576040517fa0d26eb600000000000000000000000000000000000000000000000000000000815260040160405180910390fd5b60408051606081018252338082526bffffffffffffffffffffffff85811660208085018281528787015164ffffffffff90811687890190815273ffffffffffffffffffffffffffffffffffffffff8c81165f818152600487528b90209951945188167401000000000000000000000000000000000000000002949091169390931788555160019097018054979091167fffffffffffffffffffffffffffffffffffffffffffffffffffffff00000000009097169690961790955586810151865193168352820152919290917f0aa963c9c96f25e87258ff077b609aab138a567d7617a8e86a21decf9e48984b910160405180910390a3505050565b6002805469ffffffffffffffffffff808216840181167fffffffffffffffffffffffffffffffffffffffffffff000000000000000000009283161790925573ffffffffffffffffffffffffffffffffffffffff84165f81815260056020908152604080832080548088168901881696169590951790945592519385168452909290917fddf252ad1be2c89b69c2b068fc378daa952ba7f163c4a11628f55a4df523b3ef910160405180910390a35050565b6040517f70a082310000000000000000000000000000000000000000000000000000000081523060048201525f9081906bffffffffffffffffffffffff84169073ffffffffffffffffffffffffffffffffffffffff7f000000000000000000000000000000000000000000000000000000000000000016906370a0823190602401602060405180830381865afa1580156127fa573d5f5f3e3d5ffd5b505050506040513d601f19601f8201168201806040525081019061281e91906134f6565b60025491900391506a010000000000000000000090046bffffffffffffffffffffffff16478190038083015f81900361285d5750600195945050505050565b6040517f2e1a7d4d000000000000000000000000000000000000000000000000000000008152600481018590527f000000000000000000000000000000000000000000000000000000000000000073ffffffffffffffffffffffffffffffffffffffff1690632e1a7d4d906024015f604051808303815f87803b1580156128e2575f5ffd5b505af11580156128f4573d5f5f3e3d5ffd5b50506040805180820190915260015469ffffffffffffffffffff81168083526a010000000000000000000090910475ffffffffffffffffffffffffffffffffffffffffffff1660208301529092505f039050612957575060019695505050505050565b805169ffffffffffffffffffff16605083901b81612977576129776133e6565b6020838101516001805469ffffffffffffffffffff9081166a01000000000000000000009690950490920175ffffffffffffffffffffffffffffffffffffffffffff16850293909317909255600280547fffffffffffffffffffff000000000000000000000000ffffffffffffffffffff168689016bffffffffffffffffffffffff90811690950217905583516040805194871685529216908301527fceeff233d57f794a3c1d09ca382d09c9ba3af56793651463ab500a81026fe5ce910160405180910390a15050505050919050565b5f81602001516bffffffffffffffffffffffff165f03612a6957505f610902565b60405130602482015260609073ffffffffffffffffffffffffffffffffffffffff851690604401604080517fffffffffffffffffffffffffffffffffffffffffffffffffffffffffffffffe08184030181529181526020820180517bffffffffffffffffffffffffffffffffffffffffffffffffffffffff167f70a082310000000000000000000000000000000000000000000000000000000017905251612b119190613528565b5f604051808303815f865af19150503d805f8114612b4a576040519150601f19603f3d011682016040523d82523d5f602084013e612b4f565b606091505b509092509050811580612b6457508051602014155b15612b72575f915050610902565b5f81806020019051810190612b8791906134f6565b9050805f03612b9b57600192505050610902565b835160405173ffffffffffffffffffffffffffffffffffffffff91821660248201526044810183905290861690606401604080517fffffffffffffffffffffffffffffffffffffffffffffffffffffffffffffffe08184030181529181526020820180517bffffffffffffffffffffffffffffffffffffffffffffffffffffffff167fa9059cbb0000000000000000000000000000000000000000000000000000000017905251612c4c9190613528565b5f604051808303815f865af19150503d805f8114612c85576040519150601f19603f3d011682016040523d82523d5f602084013e612c8a565b606091505b508051919450925015801590612cb1575081806020019051810190612caf919061350d565b155b15612cc0575f92505050610902565b835160405182815273ffffffffffffffffffffffffffffffffffffffff8088169216907ff1e390dffccd4dabab220f97e89cff952db4e09071912ea3d657a0a621ea001d9060200160405180910390a3506001949350505050565b6020830151815169ffffffffffffffffffff1615610b5b5781516020808401519085015175ffffffffffffffffffffffffffffffffffffffffffff9190031669ffffffffffffffffffff9091160260501c019392505050565b5f7fffffffffffffffffffffffff6f08640914d3b078fc9a187a67d1e0efe16c46fa73ffffffffffffffffffffffffffffffffffffffff831601612dc05750665166658a4af5ec919050565b7fffffffffffffffffffffffffea2cb550abd98248283c987c65508e5ff5d3959b73ffffffffffffffffffffffffffffffffffffffff831601612e0a5750653e83e37ca410919050565b7fffffffffffffffffffffffff669aaf82e5aa433d96a3a745e904c827e64f5b2473ffffffffffffffffffffffffffffffffffffffff831601612e5457506514d6a1298c05919050565b7fffffffffffffffffffffffff689158bfd918d9aab249a805ab89c542f3c5f55773ffffffffffffffffffffffffffffffffffffffff831601612e9f57506628b332c5257af6919050565b7fffffffffffffffffffffffffeb238669b25d3f74dc9674c2c33835cde6c266ab73ffffffffffffffffffffffffffffffffffffffff831601612eea575066059feee6b6e51d919050565b7fffffffffffffffffffffffffc3bb32224956ff05d4a7a22d661fc2ed05bd6c4473ffffffffffffffffffffffffffffffffffffffff831601612f355750663aa557f9229b10919050565b7fffffffffffffffffffffffff0c60291ae55277090b3195477d8d86300046dd9a73ffffffffffffffffffffffffffffffffffffffff831601612f805750660554c07c013887919050565b7fffffffffffffffffffffffff8f66868f3ae7ed23c5fef382fe4af1f2e823863873ffffffffffffffffffffffffffffffffffffffff831601612fcb5750663ff905d00ea654919050565b505f919050565b602081525f82518060208401528060208501604085015e5f6040828501015260407fffffffffffffffffffffffffffffffffffffffffffffffffffffffffffffffe0601f83011684010191505092915050565b803573ffffffffffffffffffffffffffffffffffffffff8116811461091d575f5ffd5b5f5f60408385031215613059575f5ffd5b61306283613025565b946020939093013593505050565b5f60208284031215613080575f5ffd5b5035919050565b5f60208284031215613097575f5ffd5b610b5b82613025565b5f5f5f606084860312156130b2575f5ffd5b6130bb84613025565b92506130c960208501613025565b929592945050506040919091013590565b80151581146130e7575f5ffd5b50565b5f602082840312156130fa575f5ffd5b8135610b5b816130da565b69ffffffffffffffffffff811681146130e7575f5ffd5b5f6020828403121561312c575f5ffd5b8135610b5b81613105565b5f5f5f5f5f5f5f60e0888a03121561314d575f5ffd5b61315688613025565b965061316460208901613025565b95506040880135945060608801359350608088013560ff81168114613187575f5ffd5b9699959850939692959460a0840135945060c09093013592915050565b5f5f604083850312156131b5575f5ffd5b6131be83613025565b91506131cc60208401613025565b90509250929050565b5f5f604083850312156131e6575f5ffd5b6131ef83613025565b915060208301356bffffffffffffffffffffffff8116811461320f575f5ffd5b809150509250929050565b7f4e487b71000000000000000000000000000000000000000000000000000000005f52601160045260245ffd5b69ffffffffffffffffffff81811683821601908111156109025761090261321a565b818103818111156109025761090261321a565b5f6020828403121561328c575f5ffd5b815164ffffffffff81168114610b5b575f5ffd5b6001815b60018411156132db578085048111156132bf576132bf61321a565b60018416156132cd57908102905b60019390931c9280026132a4565b935093915050565b5f826132f157506001610902565b816132fd57505f610902565b8160018114613313576002811461331d57613339565b6001915050610902565b60ff84111561332e5761332e61321a565b50506001821b610902565b5060208310610133831016604e8410600b841016171561335c575081810a610902565b6133877fffffffffffffffffffffffffffffffffffffffffffffffffffffffffffffffff84846132a0565b807fffffffffffffffffffffffffffffffffffffffffffffffffffffffffffffffff048211156133b9576133b961321a565b029392505050565b5f610b5b60ff8416836132e3565b80820281158282048414176109025761090261321a565b7f4e487b71000000000000000000000000000000000000000000000000000000005f52601260045260245ffd5b5f68ffffffffffffffffff83168061342d5761342d6133e6565b8068ffffffffffffffffff84160491505092915050565b68ffffffffffffffffff81811683821601908111156109025761090261321a565b64ffffffffff81811683821601908111156109025761090261321a565b6bffffffffffffffffffffffff82811682821603908111156109025761090261321a565b5f602082840312156134b6575f5ffd5b8151610b5b81613105565b69ffffffffffffffffffff82811682821603908111156109025761090261321a565b5f826134f1576134f16133e6565b500490565b5f60208284031215613506575f5ffd5b5051919050565b5f6020828403121561351d575f5ffd5b8151610b5b816130da565b5f82518060208501845e5f92019182525091905056fea2646970667358221220571a3e5805831299069482d4a36470922fd213ebac3a03eff05a9615c3f61b4f64736f6c634300081c0033","linkReferences":{}},"methodIdentifiers":{"DOMAIN_SEPARATOR()":"3644e515","ISSUANCE_RATE()":"309295ee","LP_ISSUANCE_FIRST_3_YEARS()":"bffecd88","allowMinting(bool)":"2c5a8e86","allowance(address,address)":"dd62ed3e","approve(address,uint256)":"095ea7b3","auctions(address)":"1d59410a","balanceOf(address)":"70a08231","bid(address,uint96)":"e2505abf","claim()":"4e71d92d","collectFeesAndStartAuction(address)":"d181af7a","contributorMint()":"138d052f","contributorUnclaimedSIR(address)":"9da16323","decimals()":"313ce567","dividends(address)":"68306e43","initialize(address)":"c4d66de8","lPerMint(uint256)":"460028c9","lPerMintAndStake(uint256)":"0fb3bd93","maxTotalSupply()":"2ab4d052","name()":"06fdde03","nonces(address)":"7ecebe00","payAuctionWinner(address)":"331ef1a5","permit(address,address,uint256,uint256,uint8,bytes32,bytes32)":"d505accf","stake(uint80)":"4f7a21d2","stakersParams(address)":"4a62c384","supply()":"047fc9aa","symbol()":"95d89b41","totalBalanceOf(address)":"4b0ee02a","totalSupply()":"18160ddd","transfer(address,uint256)":"a9059cbb","transferFrom(address,address,uint256)":"23b872dd","unstake(uint80)":"4c24946b","unstakeAndClaim(uint80)":"ac3dd857"},"id":53}