{"abi":[{"type":"constructor","inputs":[{"name":"weth","type":"address","internalType":"address"},{"name":"systemControl","type":"address","internalType":"address"}],"stateMutability":"nonpayable"},{"type":"receive","stateMutability":"payable"},{"type":"function","name":"DOMAIN_SEPARATOR","inputs":[],"outputs":[{"name":"","type":"bytes32","internalType":"bytes32"}],"stateMutability":"view"},{"type":"function","name":"ISSUANCE_RATE","inputs":[],"outputs":[{"name":"","type":"uint72","internalType":"uint72"}],"stateMutability":"pure"},{"type":"function","name":"LP_ISSUANCE_FIRST_3_YEARS","inputs":[],"outputs":[{"name":"","type":"uint72","internalType":"uint72"}],"stateMutability":"pure"},{"type":"function","name":"allowMinting","inputs":[{"name":"mintingOfSIRHalted_","type":"bool","internalType":"bool"}],"outputs":[],"stateMutability":"nonpayable"},{"type":"function","name":"allowance","inputs":[{"name":"","type":"address","internalType":"address"},{"name":"","type":"address","internalType":"address"}],"outputs":[{"name":"","type":"uint256","internalType":"uint256"}],"stateMutability":"view"},{"type":"function","name":"approve","inputs":[{"name":"spender","type":"address","internalType":"address"},{"name":"amount","type":"uint256","internalType":"uint256"}],"outputs":[{"name":"","type":"bool","internalType":"bool"}],"stateMutability":"nonpayable"},{"type":"function","name":"auctions","inputs":[{"name":"token","type":"address","internalType":"address"}],"outputs":[{"name":"","type":"tuple","internalType":"struct SirStructs.Auction","components":[{"name":"bidder","type":"address","internalType":"address"},{"name":"bid","type":"uint96","internalType":"uint96"},{"name":"startTime","type":"uint40","internalType":"uint40"}]}],"stateMutability":"view"},{"type":"function","name":"balanceOf","inputs":[{"name":"account","type":"address","internalType":"address"}],"outputs":[{"name":"","type":"uint256","internalType":"uint256"}],"stateMutability":"view"},{"type":"function","name":"bid","inputs":[{"name":"token","type":"address","internalType":"address"},{"name":"amount","type":"uint96","internalType":"uint96"}],"outputs":[],"stateMutability":"nonpayable"},{"type":"function","name":"claim","inputs":[],"outputs":[{"name":"dividends_","type":"uint96","internalType":"uint96"}],"stateMutability":"nonpayable"},{"type":"function","name":"collectFeesAndStartAuction","inputs":[{"name":"token","type":"address","internalType":"address"}],"outputs":[{"name":"totalFees","type":"uint256","internalType":"uint256"}],"stateMutability":"nonpayable"},{"type":"function","name":"contributorMint","inputs":[],"outputs":[{"name":"rewards","type":"uint80","internalType":"uint80"}],"stateMutability":"nonpayable"},{"type":"function","name":"contributorUnclaimedSIR","inputs":[{"name":"contributor","type":"address","internalType":"address"}],"outputs":[{"name":"","type":"uint80","internalType":"uint80"}],"stateMutability":"view"},{"type":"function","name":"decimals","inputs":[],"outputs":[{"name":"","type":"uint8","internalType":"uint8"}],"stateMutability":"view"},{"type":"function","name":"dividends","inputs":[{"name":"staker","type":"address","internalType":"address"}],"outputs":[{"name":"","type":"uint96","internalType":"uint96"}],"stateMutability":"view"},{"type":"function","name":"initialize","inputs":[{"name":"vault_","type":"address","internalType":"address"}],"outputs":[],"stateMutability":"nonpayable"},{"type":"function","name":"lPerMint","inputs":[{"name":"vaultId","type":"uint256","internalType":"uint256"}],"outputs":[{"name":"rewards","type":"uint80","internalType":"uint80"}],"stateMutability":"nonpayable"},{"type":"function","name":"lPerMintAndStake","inputs":[{"name":"vaultId","type":"uint256","internalType":"uint256"}],"outputs":[{"name":"rewards","type":"uint80","internalType":"uint80"}],"stateMutability":"nonpayable"},{"type":"function","name":"maxTotalSupply","inputs":[],"outputs":[{"name":"","type":"uint256","internalType":"uint256"}],"stateMutability":"view"},{"type":"function","name":"name","inputs":[],"outputs":[{"name":"","type":"string","internalType":"string"}],"stateMutability":"view"},{"type":"function","name":"nonces","inputs":[{"name":"","type":"address","internalType":"address"}],"outputs":[{"name":"","type":"uint256","internalType":"uint256"}],"stateMutability":"view"},{"type":"function","name":"payAuctionWinner","inputs":[{"name":"token","type":"address","internalType":"address"}],"outputs":[],"stateMutability":"nonpayable"},{"type":"function","name":"permit","inputs":[{"name":"owner","type":"address","internalType":"address"},{"name":"spender","type":"address","internalType":"address"},{"name":"value","type":"uint256","internalType":"uint256"},{"name":"deadline","type":"uint256","internalType":"uint256"},{"name":"v","type":"uint8","internalType":"uint8"},{"name":"r","type":"bytes32","internalType":"bytes32"},{"name":"s","type":"bytes32","internalType":"bytes32"}],"outputs":[],"stateMutability":"nonpayable"},{"type":"function","name":"stake","inputs":[{"name":"amount","type":"uint80","internalType":"uint80"}],"outputs":[],"stateMutability":"nonpayable"},{"type":"function","name":"stakersParams","inputs":[{"name":"staker","type":"address","internalType":"address"}],"outputs":[{"name":"","type":"tuple","internalType":"struct SirStructs.StakingParams","components":[{"name":"stake","type":"uint80","internalType":"uint80"},{"name":"cumulativeETHPerSIRx80","type":"uint176","internalType":"uint176"}]}],"stateMutability":"view"},{"type":"function","name":"supply","inputs":[],"outputs":[{"name":"","type":"uint256","internalType":"uint256"}],"stateMutability":"view"},{"type":"function","name":"symbol","inputs":[],"outputs":[{"name":"","type":"string","internalType":"string"}],"stateMutability":"view"},{"type":"function","name":"totalBalanceOf","inputs":[{"name":"account","type":"address","internalType":"address"}],"outputs":[{"name":"","type":"uint256","internalType":"uint256"}],"stateMutability":"view"},{"type":"function","name":"totalSupply","inputs":[],"outputs":[{"name":"","type":"uint256","internalType":"uint256"}],"stateMutability":"view"},{"type":"function","name":"transfer","inputs":[{"name":"to","type":"address","internalType":"address"},{"name":"amount","type":"uint256","internalType":"uint256"}],"outputs":[{"name":"","type":"bool","internalType":"bool"}],"stateMutability":"nonpayable"},{"type":"function","name":"transferFrom","inputs":[{"name":"from","type":"address","internalType":"address"},{"name":"to","type":"address","internalType":"address"},{"name":"amount","type":"uint256","internalType":"uint256"}],"outputs":[{"name":"","type":"bool","internalType":"bool"}],"stateMutability":"nonpayable"},{"type":"function","name":"unstake","inputs":[{"name":"amount","type":"uint80","internalType":"uint80"}],"outputs":[],"stateMutability":"nonpayable"},{"type":"function","name":"unstakeAndClaim","inputs":[{"name":"amount","type":"uint80","internalType":"uint80"}],"outputs":[{"name":"dividends_","type":"uint96","internalType":"uint96"}],"stateMutability":"nonpayable"},{"type":"event","name":"Approval","inputs":[{"name":"owner","type":"address","indexed":true,"internalType":"address"},{"name":"spender","type":"address","indexed":true,"internalType":"address"},{"name":"amount","type":"uint256","indexed":false,"internalType":"uint256"}],"anonymous":false},{"type":"event","name":"AuctionStarted","inputs":[{"name":"token","type":"address","indexed":true,"internalType":"address"},{"name":"feesToBeAuctioned","type":"uint256","indexed":false,"internalType":"uint256"}],"anonymous":false},{"type":"event","name":"AuctionedTokensSentToWinner","inputs":[{"name":"winner","type":"address","indexed":true,"internalType":"address"},{"name":"token","type":"address","indexed":true,"internalType":"address"},{"name":"reward","type":"uint256","indexed":false,"internalType":"uint256"}],"anonymous":false},{"type":"event","name":"BidReceived","inputs":[{"name":"bidder","type":"address","indexed":true,"internalType":"address"},{"name":"token","type":"address","indexed":true,"internalType":"address"},{"name":"previousBid","type":"uint96","indexed":false,"internalType":"uint96"},{"name":"newBid","type":"uint96","indexed":false,"internalType":"uint96"}],"anonymous":false},{"type":"event","name":"DividendsClaimed","inputs":[{"name":"staker","type":"address","indexed":true,"internalType":"address"},{"name":"amount","type":"uint96","indexed":false,"internalType":"uint96"}],"anonymous":false},{"type":"event","name":"DividendsPaid","inputs":[{"name":"amountETH","type":"uint96","indexed":false,"internalType":"uint96"},{"name":"amountStakedSIR","type":"uint80","indexed":false,"internalType":"uint80"}],"anonymous":false},{"type":"event","name":"RewardsClaimed","inputs":[{"name":"contributor","type":"address","indexed":true,"internalType":"address"},{"name":"vaultId","type":"uint256","indexed":true,"internalType":"uint256"},{"name":"rewards","type":"uint80","indexed":false,"internalType":"uint80"}],"anonymous":false},{"type":"event","name":"Staked","inputs":[{"name":"staker","type":"address","indexed":true,"internalType":"address"},{"name":"amount","type":"uint256","indexed":false,"internalType":"uint256"}],"anonymous":false},{"type":"event","name":"Transfer","inputs":[{"name":"from","type":"address","indexed":true,"internalType":"address"},{"name":"to","type":"address","indexed":true,"internalType":"address"},{"name":"amount","type":"uint256","indexed":false,"internalType":"uint256"}],"anonymous":false},{"type":"event","name":"Unstaked","inputs":[{"name":"staker","type":"address","indexed":true,"internalType":"address"},{"name":"amount","type":"uint256","indexed":false,"internalType":"uint256"}],"anonymous":false},{"type":"error","name":"AuctionIsNotOver","inputs":[]},{"type":"error","name":"BidTooLow","inputs":[]},{"type":"error","name":"InvalidSigner","inputs":[]},{"type":"error","name":"NewAuctionCannotStartYet","inputs":[]},{"type":"error","name":"NoAuction","inputs":[]},{"type":"error","name":"NoAuctionLot","inputs":[]},{"type":"error","name":"NoFeesCollected","inputs":[]},{"type":"error","name":"PermitDeadlineExpired","inputs":[]}],"bytecode":{"object":"0x610140604052600c60c052600a805460ff1916600117905534801561002357600080fd5b5060405161386e38038061386e83398101604081905261004291610162565b6001600160a01b03821660a052336080524660e052808261012c604080518082018252601c81527f53796e7468657469637320496d706c656d656e7465642052696768740000000060209182015281517f8b73c3c69bb8fe3d512ecc4cf759cc79239f7b179b0ffacaa9a75d522b39400f818301527f0d614900cceb97813954e30e34c71083d521e4e429b1329383c635cfe8875f20818401527fc89efdaa54c0f20c7adf612882df0950f5a951637e0307cdcb4c672f298b8bc660608201524660808201523060a0808301919091528351808303909101815260c0909101909252815191012090565b61010052506001600160a01b031661012052506101959050565b80516001600160a01b038116811461015d57600080fd5b919050565b6000806040838503121561017557600080fd5b61017e83610146565b915061018c60208401610146565b90509250929050565b60805160a05160c05160e051610100516101205161366e6102006000396000610cb601526000610fed01526000610ef4015260006104b8015260008181611c28015281816123ed0152818161257001528181612840015261291a01526000611b68015261366e6000f3fe6080604052600436106102025760003560e01c80634b0ee02a1161011d5780639da16323116100b0578063c4d66de81161007f578063d505accf11610064578063d505accf14610849578063dd62ed3e14610869578063e2505abf146108a157600080fd5b8063c4d66de814610809578063d181af7a1461082957600080fd5b80639da1632314610794578063a9059cbb146107b4578063ac3dd857146107d4578063bffecd88146107f457600080fd5b806368306e43116100ec57806368306e43146106af57806370a08231146106cf5780637ecebe001461071e57806395d89b411461074b57600080fd5b80634b0ee02a1461061d5780634c24946b1461063d5780634e71d92d1461065d5780634f7a21d21461068f57600080fd5b80632ab4d05211610195578063331ef1a511610164578063331ef1a5146104ec5780633644e5151461050c578063460028c9146105215780634a62c3841461054157600080fd5b80632ab4d052146104405780632c5a8e8614610455578063309295ee14610477578063313ce567146104a657600080fd5b8063138d052f116101d1578063138d052f146102ff57806318160ddd146103145780631d59410a1461032957806323b872dd1461042057600080fd5b8063047fc9aa1461020e57806306fdde031461023e578063095ea7b3146102945780630fb3bd93146102c457600080fd5b3661020957005b600080fd5b34801561021a57600080fd5b5060025469ffffffffffffffffffff165b6040519081526020015b60405180910390f35b34801561024a57600080fd5b506102876040518060400160405280601c81526020017f53796e7468657469637320496d706c656d656e7465642052696768740000000081525081565b604051610235919061309b565b3480156102a057600080fd5b506102b46102af366004613110565b6108c1565b6040519015158152602001610235565b3480156102d057600080fd5b506102e46102df36600461313a565b61093b565b60405169ffffffffffffffffffff9091168152602001610235565b34801561030b57600080fd5b506102e4610956565b34801561032057600080fd5b5061022b6109d7565b34801561033557600080fd5b506103d3610344366004613153565b60408051606080820183526000808352602080840182905292840181905273ffffffffffffffffffffffffffffffffffffffff9485168152600483528390208351918201845280549485168252740100000000000000000000000000000000000000009094046bffffffffffffffffffffffff169181019190915260019092015464ffffffffff169082015290565b60408051825173ffffffffffffffffffffffffffffffffffffffff1681526020808401516bffffffffffffffffffffffff16908201529181015164ffffffffff1690820152606001610235565b34801561042c57600080fd5b506102b461043b36600461316e565b610a0a565b34801561044c57600080fd5b5061022b610ba1565b34801561046157600080fd5b506104756104703660046131bc565b610c9e565b005b34801561048357600080fd5b5061048c610d11565b60405168ffffffffffffffffff9091168152602001610235565b3480156104b257600080fd5b506104da7f000000000000000000000000000000000000000000000000000000000000000081565b60405160ff9091168152602001610235565b3480156104f857600080fd5b50610475610507366004613153565b610d53565b34801561051857600080fd5b5061022b610ef0565b34801561052d57600080fd5b506102e461053c36600461313a565b61100f565b34801561054d57600080fd5b506105de61055c366004613153565b60408051808201909152600080825260208201525073ffffffffffffffffffffffffffffffffffffffff1660009081526006602090815260409182902082518084019093525469ffffffffffffffffffff811683526a0100000000000000000000900475ffffffffffffffffffffffffffffffffffffffffffff169082015290565b60408051825169ffffffffffffffffffff16815260209283015175ffffffffffffffffffffffffffffffffffffffffffff169281019290925201610235565b34801561062957600080fd5b5061022b610638366004613153565b611129565b34801561064957600080fd5b506104756106583660046131f1565b611185565b34801561066957600080fd5b506106726113c2565b6040516bffffffffffffffffffffffff9091168152602001610235565b34801561069b57600080fd5b506104756106aa3660046131f1565b611590565b3480156106bb57600080fd5b506106726106ca366004613153565b6117bc565b3480156106db57600080fd5b5061022b6106ea366004613153565b73ffffffffffffffffffffffffffffffffffffffff1660009081526005602052604090205469ffffffffffffffffffff1690565b34801561072a57600080fd5b5061022b610739366004613153565b60086020526000908152604090205481565b34801561075757600080fd5b506102876040518060400160405280600381526020017f534952000000000000000000000000000000000000000000000000000000000081525081565b3480156107a057600080fd5b506102e46107af366004613153565b61187f565b3480156107c057600080fd5b506102b46107cf366004613110565b6119cb565b3480156107e057600080fd5b506106726107ef3660046131f1565b611aae565b34801561080057600080fd5b5061048c611ac1565b34801561081557600080fd5b50610475610824366004613153565b611b32565b34801561083557600080fd5b5061022b610844366004613153565b611c12565b34801561085557600080fd5b5061047561086436600461320e565b61202c565b34801561087557600080fd5b5061022b610884366004613281565b600760209081526000928352604080842090915290825290205481565b3480156108ad57600080fd5b506104756108bc3660046132b4565b6122eb565b33600081815260076020908152604080832073ffffffffffffffffffffffffffffffffffffffff8716808552925280832085905551919290917f8c5be1e5ebec7d5bd14f71427d1e84f3dd0314c0f7b2291e5b200ac8c7c3b925906109299086815260200190565b60405180910390a35060015b92915050565b60006109468261100f565b905061095181611590565b919050565b600a5460009060ff1661096857600080fd5b6109713361187f565b905060008169ffffffffffffffffffff161161098c57600080fd5b6109963382612736565b33600090815260096020526040902080547fffffffffffffffffffffffffffffffffffffffffffffffffffffff0000000000164264ffffffffff1617905590565b6002546001546000916109f99169ffffffffffffffffffff918216911661332b565b69ffffffffffffffffffff16905090565b73ffffffffffffffffffffffffffffffffffffffff831660009081526007602090815260408083203384529091528120547fffffffffffffffffffffffffffffffffffffffffffffffffffffffffffffffff8114610a9e57610a6c838261334d565b73ffffffffffffffffffffffffffffffffffffffff861660009081526007602090815260408083203384529091529020555b73ffffffffffffffffffffffffffffffffffffffff851660009081526005602052604090205469ffffffffffffffffffff1680841115610add57600080fd5b73ffffffffffffffffffffffffffffffffffffffff808716600081815260056020526040808220805469ffffffffffffffffffff8a880381167fffffffffffffffffffffffffffffffffffffffffffff0000000000000000000092831617909255948a168084529282902080548083168b01909216919095161790935591517fddf252ad1be2c89b69c2b068fc378daa952ba7f163c4a11628f55a4df523b3ef90610b8b9088815260200190565b60405180910390a36001925050505b9392505050565b60008060009054906101000a900473ffffffffffffffffffffffffffffffffffffffff1673ffffffffffffffffffffffffffffffffffffffff1663410cd41a6040518163ffffffff1660e01b8152600401602060405180830381865afa158015610c0f573d6000803e3d6000fd5b505050506040513d601f19601f82011682018060405250810190610c339190613360565b610c449064ffffffffff164261334d565b6301e133806001610c57600c600a6134aa565b610c659063781a75c06134b9565b610c6f919061334d565b610c7991906134ff565b610c84906001613531565b68ffffffffffffffffff16610c9991906134b9565b905090565b3373ffffffffffffffffffffffffffffffffffffffff7f00000000000000000000000000000000000000000000000000000000000000001614610ce057600080fd5b600a80547fffffffffffffffffffffffffffffffffffffffffffffffffffffffffffffff0016911515919091179055565b60006301e133806001610d26600c600a6134aa565b610d349063781a75c06134b9565b610d3e919061334d565b610d4891906134ff565b610c99906001613531565b73ffffffffffffffffffffffffffffffffffffffff818116600090815260046020908152604091829020825160608101845281549485168152740100000000000000000000000000000000000000009094046bffffffffffffffffffffffff16918401919091526001015464ffffffffff16908201819052610dd9906201518090613552565b64ffffffffff16421015610e18576040517e175ba800000000000000000000000000000000000000000000000000000000815260040160405180910390fd5b73ffffffffffffffffffffffffffffffffffffffff80831660009081526004602090815260408220805490931690925590820151600354610e6791906bffffffffffffffffffffffff1661356f565b600380547fffffffffffffffffffffffffffffffffffffffff000000000000000000000000166bffffffffffffffffffffffff83161790559050610eaa816127e8565b50610eb58383612adc565b610eeb576040517fa90c149f00000000000000000000000000000000000000000000000000000000815260040160405180910390fd5b505050565b60007f00000000000000000000000000000000000000000000000000000000000000004614610fea5750604080518082018252601c81527f53796e7468657469637320496d706c656d656e7465642052696768740000000060209182015281517f8b73c3c69bb8fe3d512ecc4cf759cc79239f7b179b0ffacaa9a75d522b39400f818301527f0d614900cceb97813954e30e34c71083d521e4e429b1329383c635cfe8875f20818401527fc89efdaa54c0f20c7adf612882df0950f5a951637e0307cdcb4c672f298b8bc660608201524660808201523060a0808301919091528351808303909101815260c0909101909252815191012090565b507f000000000000000000000000000000000000000000000000000000000000000090565b600a5460009060ff1661102157600080fd5b6000546040517f777b1d430000000000000000000000000000000000000000000000000000000081526004810184905233602482015273ffffffffffffffffffffffffffffffffffffffff9091169063777b1d43906044016020604051808303816000875af1158015611098573d6000803e3d6000fd5b505050506040513d601f19601f820116820180604052508101906110bc9190613593565b905060008169ffffffffffffffffffff16116110d757600080fd5b6110e13382612736565b60405169ffffffffffffffffffff82168152829033907fcb4638e0a42946ee6211d74938270204aa9bfa787e57f01113f475d7c4539b6d9060200160405180910390a3919050565b73ffffffffffffffffffffffffffffffffffffffff811660009081526005602090815260408083205460069092528220546111739169ffffffffffffffffffff908116911661332b565b69ffffffffffffffffffff1692915050565b33600081815260056020908152604080832081518083018352905469ffffffffffffffffffff80821683526bffffffffffffffffffffffff6a010000000000000000000092839004168386015283518085018552600154808316825275ffffffffffffffffffffffffffffffffffffffffffff90849004811682880152978752600686528487208551808701909652549182168086529290910490961693830193909352939290916112389086906135b0565b905060405180604001604052808686600001510169ffffffffffffffffffff168152602001611268868686612dbe565b6bffffffffffffffffffffffff90811690915233600081815260056020908152604080832086518154978401519096166a01000000000000000000009081027fffffffffffffffffffff0000000000000000000000000000000000000000000090981669ffffffffffffffffffff978816179790971790558051808201825287861681528983015175ffffffffffffffffffffffffffffffffffffffffffff90811682850190815286865260069094529382902090519251909316909502908416179055600280548084168a0184167fffffffffffffffffffffffffffffffffffffffffffff0000000000000000000091821617909155865160018054918b900390941691161790915590517f0f5bb82176feb1b5e747e28471aa92156a04d9f3ab9f45f28e2d704232b93f75906113b390889069ffffffffffffffffffff91909116815260200190565b60405180910390a25050505050565b60408051808201825260015469ffffffffffffffffffff808216835275ffffffffffffffffffffffffffffffffffffffffffff6a0100000000000000000000928390048116602080860191909152336000818152600583528781208851808a018a52905480871682526bffffffffffffffffffffffff908890041681850152918152600683528781208851808a019099525494851688529490930490911690850152909261147291908390612dbe565b33600081815260056020908152604080832080547fffffffffffffffffffff000000000000000000000000ffffffffffffffffffff908116909155868301516006845293829020805469ffffffffffffffffffff166a010000000000000000000075ffffffffffffffffffffffffffffffffffffffffffff9096168602179055600280549182166bffffffffffffffffffffffff92869004831688900383169095029490941790935551918416825292945090917fce98842d3995a36decbd0af8544d33045ef9cbcd477386c9c633dc8e13f2992d910160405180910390a260405133906bffffffffffffffffffffffff841680156108fc02916000818181858888f1935050505015801561158b573d6000803e3d6000fd5b505090565b33600081815260056020908152604080832081518083018352905469ffffffffffffffffffff80821683526bffffffffffffffffffffffff6a010000000000000000000092839004168386015283518085018552600154808316825275ffffffffffffffffffffffffffffffffffffffffffff9084900481168288015297875260068652848720855180870190965254918216855291900490951692820192909252815191939290916116449086906135b0565b905060405180604001604052808269ffffffffffffffffffff16815260200161166e868686612dbe565b6bffffffffffffffffffffffff90811690915233600081815260056020908152604080832086518154978401519096166a01000000000000000000009081027fffffffffffffffffffff0000000000000000000000000000000000000000000090981669ffffffffffffffffffff978816179790971790558051808201825288518c01861681528983015175ffffffffffffffffffffffffffffffffffffffffffff90811682850190815286865260069094529382902090519251909316909502908416179055600280548084168a900384167fffffffffffffffffffffffffffffffffffffffffffff0000000000000000000091821617909155865160018054918b0190941691161790915590517f9e71bc8eea02a63969f509818f2dafb9254532904319f9dbda79b67bd34a5f3d906113b390889069ffffffffffffffffffff91909116815260200190565b73ffffffffffffffffffffffffffffffffffffffff8116600081815260056020908152604080832081518083018352905469ffffffffffffffffffff80821683526bffffffffffffffffffffffff6a010000000000000000000092839004168386015283518085018552600154808316825275ffffffffffffffffffffffffffffffffffffffffffff9084900481168288015297875260068652848720855180870190965254918216855291900490951692820192909252919261093592612dbe565b60008061188b83612e17565b66ffffffffffffff169050806000036118a75750600092915050565b60008060009054906101000a900473ffffffffffffffffffffffffffffffffffffffff1673ffffffffffffffffffffffffffffffffffffffff1663410cd41a6040518163ffffffff1660e01b8152600401602060405180830381865afa158015611915573d6000803e3d6000fd5b505050506040513d601f19601f820116820180604052508101906119399190613360565b73ffffffffffffffffffffffffffffffffffffffff851660009081526009602052604090205490915064ffffffffff6305a39a808301811691168181106119865750600095945050505050565b80600003611998575064ffffffffff82165b66ffffffffffffff651246b07ae2888502046000428411156119ba57426119bc565b835b92909203029695505050505050565b3360009081526005602052604081205469ffffffffffffffffffff16808311156119f457600080fd5b33600081815260056020908152604080832080547fffffffffffffffffffffffffffffffffffffffffffff0000000000000000000090811689880369ffffffffffffffffffff9081169190911790925573ffffffffffffffffffffffffffffffffffffffff8a168086529483902080549182169183168a01909216179055518681529192917fddf252ad1be2c89b69c2b068fc378daa952ba7f163c4a11628f55a4df523b3ef910160405180910390a35060019392505050565b6000611ab982611185565b6109356113c2565b600067016345785d8a00006301e133806001611adf600c600a6134aa565b611aed9063781a75c06134b9565b611af7919061334d565b611b0191906134ff565b611b0c906001613531565b611b289068ffffffffffffffffff1666f38a31408ae3386134b9565b610c9991906135d2565b6003546c01000000000000000000000000900460ff16158015611b8a57503373ffffffffffffffffffffffffffffffffffffffff7f000000000000000000000000000000000000000000000000000000000000000016145b611b9357600080fd5b6000805473ffffffffffffffffffffffffffffffffffffffff9092167fffffffffffffffffffffffff0000000000000000000000000000000000000000909216919091179055600380547fffffffffffffffffffffffffffffffffffffff00ffffffffffffffffffffffff166c01000000000000000000000000179055565b6003546000906bffffffffffffffffffffffff167f000000000000000000000000000000000000000000000000000000000000000073ffffffffffffffffffffffffffffffffffffffff90811690841614611f475773ffffffffffffffffffffffffffffffffffffffff838116600090815260046020908152604091829020825160608101845281549485168152740100000000000000000000000000000000000000009094046bffffffffffffffffffffffff16918401919091526001015464ffffffffff908116918301829052620d9170909101908116421015611d24576040517f977a44ab00000000000000000000000000000000000000000000000000000000815260040160405180910390fd5b60408051606081018252600080825260208083018281524264ffffffffff90811685870190815273ffffffffffffffffffffffffffffffffffffffff8c8116865260048552969094209451915191909516740100000000000000000000000000000000000000006bffffffffffffffffffffffff928316021784559151600190930180547fffffffffffffffffffffffffffffffffffffffffffffffffffffff0000000000169390941692909217909255830151600380547fffffffffffffffffffffffffffffffffffffffff000000000000000000000000169190950391821617909355611e12836127e8565b50611e1d8583612adc565b506000546040517f164e68de00000000000000000000000000000000000000000000000000000000815273ffffffffffffffffffffffffffffffffffffffff87811660048301529091169063164e68de906024016020604051808303816000875af1158015611e90573d6000803e3d6000fd5b505050506040513d601f19601f82011682018060405250810190611eb491906135e6565b935083600003611ef0576040517f8c887b1200000000000000000000000000000000000000000000000000000000815260040160405180910390fd5b8473ffffffffffffffffffffffffffffffffffffffff167fc087c4cdb16906b5ff7016a6bf927618f24ff32eb1de5e86eeaeb08b94831a6885604051611f3891815260200190565b60405180910390a25050612026565b6000546040517f164e68de00000000000000000000000000000000000000000000000000000000815273ffffffffffffffffffffffffffffffffffffffff85811660048301529091169063164e68de906024016020604051808303816000875af1158015611fb9573d6000803e3d6000fd5b505050506040513d601f19601f82011682018060405250810190611fdd91906135e6565b91506000611fea826127e8565b90508015612024576040517f8c887b1200000000000000000000000000000000000000000000000000000000815260040160405180910390fd5b505b50919050565b42841015612066576040517f05787bdf00000000000000000000000000000000000000000000000000000000815260040160405180910390fd5b60006001612072610ef0565b73ffffffffffffffffffffffffffffffffffffffff8a811660008181526008602090815260409182902080546001810190915582517f6e71edae12b1b97f4d1f60370fef10105fa2faae0126114a169c64845d6126c98184015280840194909452938d166060840152608083018c905260a083019390935260c08083018b90528151808403909101815260e0830190915280519201919091207f190100000000000000000000000000000000000000000000000000000000000061010083015261010282019290925261012281019190915261014201604080517fffffffffffffffffffffffffffffffffffffffffffffffffffffffffffffffe08184030181528282528051602091820120600084529083018083525260ff871690820152606081018590526080810184905260a0016020604051602081039080840390855afa1580156121c4573d6000803e3d6000fd5b50506040517fffffffffffffffffffffffffffffffffffffffffffffffffffffffffffffffe0015191505073ffffffffffffffffffffffffffffffffffffffff8116158061223e57508773ffffffffffffffffffffffffffffffffffffffff168173ffffffffffffffffffffffffffffffffffffffff1614155b15612275576040517f815e1d6400000000000000000000000000000000000000000000000000000000815260040160405180910390fd5b73ffffffffffffffffffffffffffffffffffffffff90811660009081526007602090815260408083208a8516808552908352928190208990555188815291928a16917f8c5be1e5ebec7d5bd14f71427d1e84f3dd0314c0f7b2291e5b200ac8c7c3b925910160405180910390a350505050505050565b73ffffffffffffffffffffffffffffffffffffffff828116600090815260046020908152604091829020825160608101845281549485168152740100000000000000000000000000000000000000009094046bffffffffffffffffffffffff16918401919091526001015464ffffffffff908116918301829052620151809091011642106123a5576040517f71d00de200000000000000000000000000000000000000000000000000000000815260040160405180910390fd5b6040517f23b872dd0000000000000000000000000000000000000000000000000000000081523360048201523060248201526bffffffffffffffffffffffff831660448201527f000000000000000000000000000000000000000000000000000000000000000073ffffffffffffffffffffffffffffffffffffffff16906323b872dd906064016020604051808303816000875af115801561244b573d6000803e3d6000fd5b505050506040513d601f19601f8201168201806040525081019061246f91906135ff565b50805173ffffffffffffffffffffffffffffffffffffffff1633036124da57600380546bffffffffffffffffffffffff8082168501167fffffffffffffffffffffffffffffffffffffffff0000000000000000000000009091161790556020810151909101906125e1565b6020810151600380547fffffffffffffffffffffffffffffffffffffffff00000000000000000000000081168386036bffffffffffffffffffffffff9283160182161790915582516040517fa9059cbb00000000000000000000000000000000000000000000000000000000815273ffffffffffffffffffffffffffffffffffffffff91821660048201529190921660248201527f00000000000000000000000000000000000000000000000000000000000000009091169063a9059cbb906044016020604051808303816000875af11580156125bb573d6000803e3d6000fd5b505050506040513d601f19601f820116820180604052508101906125df91906135ff565b505b80602001516bffffffffffffffffffffffff16826bffffffffffffffffffffffff161161263a576040517fa0d26eb600000000000000000000000000000000000000000000000000000000815260040160405180910390fd5b60408051606081018252338082526bffffffffffffffffffffffff85811660208085018281528787015164ffffffffff90811687890190815273ffffffffffffffffffffffffffffffffffffffff8c81166000818152600487528b90209951945188167401000000000000000000000000000000000000000002949091169390931788555160019097018054979091167fffffffffffffffffffffffffffffffffffffffffffffffffffffff00000000009097169690961790955586810151865193168352820152919290917f0aa963c9c96f25e87258ff077b609aab138a567d7617a8e86a21decf9e48984b910160405180910390a3505050565b6002805469ffffffffffffffffffff808216840181167fffffffffffffffffffffffffffffffffffffffffffff000000000000000000009283161790925573ffffffffffffffffffffffffffffffffffffffff8416600081815260056020908152604080832080548088168901881696169590951790945592519385168452909290917fddf252ad1be2c89b69c2b068fc378daa952ba7f163c4a11628f55a4df523b3ef910160405180910390a35050565b6040517f70a0823100000000000000000000000000000000000000000000000000000000815230600482015260009081906bffffffffffffffffffffffff84169073ffffffffffffffffffffffffffffffffffffffff7f000000000000000000000000000000000000000000000000000000000000000016906370a0823190602401602060405180830381865afa158015612887573d6000803e3d6000fd5b505050506040513d601f19601f820116820180604052508101906128ab91906135e6565b60025491900391506a010000000000000000000090046bffffffffffffffffffffffff164781900380830160008190036128eb5750600195945050505050565b6040517f2e1a7d4d000000000000000000000000000000000000000000000000000000008152600481018590527f000000000000000000000000000000000000000000000000000000000000000073ffffffffffffffffffffffffffffffffffffffff1690632e1a7d4d90602401600060405180830381600087803b15801561297357600080fd5b505af1158015612987573d6000803e3d6000fd5b50506040805180820190915260015469ffffffffffffffffffff81168083526a010000000000000000000090910475ffffffffffffffffffffffffffffffffffffffffffff16602083015290925060000390506129eb575060019695505050505050565b805169ffffffffffffffffffff16605083901b81612a0b57612a0b6134d0565b6020838101516001805469ffffffffffffffffffff9081166a01000000000000000000009690950490920175ffffffffffffffffffffffffffffffffffffffffffff16850293909317909255600280547fffffffffffffffffffff000000000000000000000000ffffffffffffffffffff168689016bffffffffffffffffffffffff90811690950217905583516040805194871685529216908301527fceeff233d57f794a3c1d09ca382d09c9ba3af56793651463ab500a81026fe5ce910160405180910390a15050505050919050565b600081602001516bffffffffffffffffffffffff16600003612b0057506000610935565b60405130602482015260609073ffffffffffffffffffffffffffffffffffffffff851690604401604080517fffffffffffffffffffffffffffffffffffffffffffffffffffffffffffffffe08184030181529181526020820180517bffffffffffffffffffffffffffffffffffffffffffffffffffffffff167f70a082310000000000000000000000000000000000000000000000000000000017905251612ba8919061361c565b6000604051808303816000865af19150503d8060008114612be5576040519150601f19603f3d011682016040523d82523d6000602084013e612bea565b606091505b509092509050811580612bff57508051602014155b15612c0e576000915050610935565b600081806020019051810190612c2491906135e6565b905080600003612c3957600192505050610935565b835160405173ffffffffffffffffffffffffffffffffffffffff91821660248201526044810183905290861690606401604080517fffffffffffffffffffffffffffffffffffffffffffffffffffffffffffffffe08184030181529181526020820180517bffffffffffffffffffffffffffffffffffffffffffffffffffffffff167fa9059cbb0000000000000000000000000000000000000000000000000000000017905251612cea919061361c565b6000604051808303816000865af19150503d8060008114612d27576040519150601f19603f3d011682016040523d82523d6000602084013e612d2c565b606091505b508051919450925015801590612d53575081806020019051810190612d5191906135ff565b155b15612d6357600092505050610935565b835160405182815273ffffffffffffffffffffffffffffffffffffffff8088169216907ff1e390dffccd4dabab220f97e89cff952db4e09071912ea3d657a0a621ea001d9060200160405180910390a3506001949350505050565b6020830151815169ffffffffffffffffffff1615610b9a5781516020808401519085015175ffffffffffffffffffffffffffffffffffffffffffff9190031669ffffffffffffffffffff9091160260501c019392505050565b60007fffffffffffffffffffffffff6f08640914d3b078fc9a187a67d1e0efe16c46fa73ffffffffffffffffffffffffffffffffffffffff831601612e645750665166658a4af5ec919050565b7fffffffffffffffffffffffffea2cb550abd98248283c987c65508e5ff5d3959b73ffffffffffffffffffffffffffffffffffffffff831601612eae5750653e83e37ca410919050565b7fffffffffffffffffffffffff669aaf82e5aa433d96a3a745e904c827e64f5b2473ffffffffffffffffffffffffffffffffffffffff831601612ef857506514d6a1298c05919050565b7fffffffffffffffffffffffff689158bfd918d9aab249a805ab89c542f3c5f55773ffffffffffffffffffffffffffffffffffffffff831601612f4357506628b332c5257af6919050565b7fffffffffffffffffffffffffeb238669b25d3f74dc9674c2c33835cde6c266ab73ffffffffffffffffffffffffffffffffffffffff831601612f8e575066059feee6b6e51d919050565b7fffffffffffffffffffffffffc3bb32224956ff05d4a7a22d661fc2ed05bd6c4473ffffffffffffffffffffffffffffffffffffffff831601612fd95750663aa557f9229b10919050565b7fffffffffffffffffffffffff0c60291ae55277090b3195477d8d86300046dd9a73ffffffffffffffffffffffffffffffffffffffff8316016130245750660554c07c013887919050565b7fffffffffffffffffffffffff8f66868f3ae7ed23c5fef382fe4af1f2e823863873ffffffffffffffffffffffffffffffffffffffff83160161306f5750663ff905d00ea654919050565b506000919050565b60005b8381101561309257818101518382015260200161307a565b50506000910152565b60208152600082518060208401526130ba816040850160208701613077565b601f017fffffffffffffffffffffffffffffffffffffffffffffffffffffffffffffffe0169190910160400192915050565b803573ffffffffffffffffffffffffffffffffffffffff8116811461095157600080fd5b6000806040838503121561312357600080fd5b61312c836130ec565b946020939093013593505050565b60006020828403121561314c57600080fd5b5035919050565b60006020828403121561316557600080fd5b610b9a826130ec565b60008060006060848603121561318357600080fd5b61318c846130ec565b925061319a602085016130ec565b929592945050506040919091013590565b80151581146131b957600080fd5b50565b6000602082840312156131ce57600080fd5b8135610b9a816131ab565b69ffffffffffffffffffff811681146131b957600080fd5b60006020828403121561320357600080fd5b8135610b9a816131d9565b600080600080600080600060e0888a03121561322957600080fd5b613232886130ec565b9650613240602089016130ec565b95506040880135945060608801359350608088013560ff8116811461326457600080fd5b9699959850939692959460a0840135945060c09093013592915050565b6000806040838503121561329457600080fd5b61329d836130ec565b91506132ab602084016130ec565b90509250929050565b600080604083850312156132c757600080fd5b6132d0836130ec565b915060208301356bffffffffffffffffffffffff811681146132f157600080fd5b809150509250929050565b7f4e487b7100000000000000000000000000000000000000000000000000000000600052601160045260246000fd5b69ffffffffffffffffffff8181168382160190811115610935576109356132fc565b81810381811115610935576109356132fc565b60006020828403121561337257600080fd5b815164ffffffffff81168114610b9a57600080fd5b6001815b60018411156133c2578085048111156133a6576133a66132fc565b60018416156133b457908102905b60019390931c92800261338b565b935093915050565b6000826133d957506001610935565b816133e657506000610935565b81600181146133fc576002811461340657613422565b6001915050610935565b60ff841115613417576134176132fc565b50506001821b610935565b5060208310610133831016604e8410600b8410161715613445575081810a610935565b6134707fffffffffffffffffffffffffffffffffffffffffffffffffffffffffffffffff8484613387565b807fffffffffffffffffffffffffffffffffffffffffffffffffffffffffffffffff048211156134a2576134a26132fc565b029392505050565b6000610b9a60ff8416836133ca565b8082028115828204841417610935576109356132fc565b7f4e487b7100000000000000000000000000000000000000000000000000000000600052601260045260246000fd5b600068ffffffffffffffffff83168061351a5761351a6134d0565b8068ffffffffffffffffff84160491505092915050565b68ffffffffffffffffff8181168382160190811115610935576109356132fc565b64ffffffffff8181168382160190811115610935576109356132fc565b6bffffffffffffffffffffffff8281168282160390811115610935576109356132fc565b6000602082840312156135a557600080fd5b8151610b9a816131d9565b69ffffffffffffffffffff8281168282160390811115610935576109356132fc565b6000826135e1576135e16134d0565b500490565b6000602082840312156135f857600080fd5b5051919050565b60006020828403121561361157600080fd5b8151610b9a816131ab565b6000825161362e818460208701613077565b919091019291505056fea2646970667358221220ac5b56ecc5458373f5bd3852ffbde7a9f1cc5fcbdb15ca094bf0763903b57cd164736f6c634300081c0033","linkReferences":{}},"methodIdentifiers":{"DOMAIN_SEPARATOR()":"3644e515","ISSUANCE_RATE()":"309295ee","LP_ISSUANCE_FIRST_3_YEARS()":"bffecd88","allowMinting(bool)":"2c5a8e86","allowance(address,address)":"dd62ed3e","approve(address,uint256)":"095ea7b3","auctions(address)":"1d59410a","balanceOf(address)":"70a08231","bid(address,uint96)":"e2505abf","claim()":"4e71d92d","collectFeesAndStartAuction(address)":"d181af7a","contributorMint()":"138d052f","contributorUnclaimedSIR(address)":"9da16323","decimals()":"313ce567","dividends(address)":"68306e43","initialize(address)":"c4d66de8","lPerMint(uint256)":"460028c9","lPerMintAndStake(uint256)":"0fb3bd93","maxTotalSupply()":"2ab4d052","name()":"06fdde03","nonces(address)":"7ecebe00","payAuctionWinner(address)":"331ef1a5","permit(address,address,uint256,uint256,uint8,bytes32,bytes32)":"d505accf","stake(uint80)":"4f7a21d2","stakersParams(address)":"4a62c384","supply()":"047fc9aa","symbol()":"95d89b41","totalBalanceOf(address)":"4b0ee02a","totalSupply()":"18160ddd","transfer(address,uint256)":"a9059cbb","transferFrom(address,address,uint256)":"23b872dd","unstake(uint80)":"4c24946b","unstakeAndClaim(uint80)":"ac3dd857"},"id":79}