{"abi":[{"type":"constructor","inputs":[{"name":"weth","type":"address","internalType":"address"},{"name":"systemControl","type":"address","internalType":"address"}],"stateMutability":"nonpayable"},{"type":"receive","stateMutability":"payable"},{"type":"function","name":"DOMAIN_SEPARATOR","inputs":[],"outputs":[{"name":"","type":"bytes32","internalType":"bytes32"}],"stateMutability":"view"},{"type":"function","name":"ISSUANCE_RATE","inputs":[],"outputs":[{"name":"","type":"uint72","internalType":"uint72"}],"stateMutability":"pure"},{"type":"function","name":"LP_ISSUANCE_FIRST_3_YEARS","inputs":[],"outputs":[{"name":"","type":"uint72","internalType":"uint72"}],"stateMutability":"pure"},{"type":"function","name":"allowMinting","inputs":[{"name":"mintingOfSIRHalted_","type":"bool","internalType":"bool"}],"outputs":[],"stateMutability":"nonpayable"},{"type":"function","name":"allowance","inputs":[{"name":"","type":"address","internalType":"address"},{"name":"","type":"address","internalType":"address"}],"outputs":[{"name":"","type":"uint256","internalType":"uint256"}],"stateMutability":"view"},{"type":"function","name":"approve","inputs":[{"name":"spender","type":"address","internalType":"address"},{"name":"amount","type":"uint256","internalType":"uint256"}],"outputs":[{"name":"","type":"bool","internalType":"bool"}],"stateMutability":"nonpayable"},{"type":"function","name":"auctions","inputs":[{"name":"token","type":"address","internalType":"address"}],"outputs":[{"name":"","type":"tuple","internalType":"struct SirStructs.Auction","components":[{"name":"bidder","type":"address","internalType":"address"},{"name":"bid","type":"uint96","internalType":"uint96"},{"name":"startTime","type":"uint40","internalType":"uint40"}]}],"stateMutability":"view"},{"type":"function","name":"balanceOf","inputs":[{"name":"account","type":"address","internalType":"address"}],"outputs":[{"name":"","type":"uint256","internalType":"uint256"}],"stateMutability":"view"},{"type":"function","name":"bid","inputs":[{"name":"token","type":"address","internalType":"address"},{"name":"amount","type":"uint96","internalType":"uint96"}],"outputs":[],"stateMutability":"nonpayable"},{"type":"function","name":"claim","inputs":[],"outputs":[{"name":"dividends_","type":"uint96","internalType":"uint96"}],"stateMutability":"nonpayable"},{"type":"function","name":"collectFeesAndStartAuction","inputs":[{"name":"token","type":"address","internalType":"address"}],"outputs":[{"name":"totalFees","type":"uint256","internalType":"uint256"}],"stateMutability":"nonpayable"},{"type":"function","name":"contributorMint","inputs":[],"outputs":[{"name":"rewards","type":"uint80","internalType":"uint80"}],"stateMutability":"nonpayable"},{"type":"function","name":"contributorUnclaimedSIR","inputs":[{"name":"contributor","type":"address","internalType":"address"}],"outputs":[{"name":"","type":"uint80","internalType":"uint80"}],"stateMutability":"view"},{"type":"function","name":"decimals","inputs":[],"outputs":[{"name":"","type":"uint8","internalType":"uint8"}],"stateMutability":"view"},{"type":"function","name":"getAuctionLot","inputs":[{"name":"token","type":"address","internalType":"address"},{"name":"beneficiary","type":"address","internalType":"address"}],"outputs":[],"stateMutability":"nonpayable"},{"type":"function","name":"initialize","inputs":[{"name":"vault_","type":"address","internalType":"address"}],"outputs":[],"stateMutability":"nonpayable"},{"type":"function","name":"lPerMint","inputs":[{"name":"vaultId","type":"uint256","internalType":"uint256"}],"outputs":[{"name":"rewards","type":"uint80","internalType":"uint80"}],"stateMutability":"nonpayable"},{"type":"function","name":"lPerMintAndStake","inputs":[{"name":"vaultId","type":"uint256","internalType":"uint256"}],"outputs":[{"name":"rewards","type":"uint80","internalType":"uint80"}],"stateMutability":"nonpayable"},{"type":"function","name":"maxTotalSupply","inputs":[],"outputs":[{"name":"","type":"uint256","internalType":"uint256"}],"stateMutability":"view"},{"type":"function","name":"name","inputs":[],"outputs":[{"name":"","type":"string","internalType":"string"}],"stateMutability":"view"},{"type":"function","name":"nonces","inputs":[{"name":"","type":"address","internalType":"address"}],"outputs":[{"name":"","type":"uint256","internalType":"uint256"}],"stateMutability":"view"},{"type":"function","name":"permit","inputs":[{"name":"owner","type":"address","internalType":"address"},{"name":"spender","type":"address","internalType":"address"},{"name":"value","type":"uint256","internalType":"uint256"},{"name":"deadline","type":"uint256","internalType":"uint256"},{"name":"v","type":"uint8","internalType":"uint8"},{"name":"r","type":"bytes32","internalType":"bytes32"},{"name":"s","type":"bytes32","internalType":"bytes32"}],"outputs":[],"stateMutability":"nonpayable"},{"type":"function","name":"stake","inputs":[{"name":"amount","type":"uint80","internalType":"uint80"}],"outputs":[],"stateMutability":"nonpayable"},{"type":"function","name":"stakersParams","inputs":[{"name":"staker","type":"address","internalType":"address"}],"outputs":[{"name":"","type":"tuple","internalType":"struct SirStructs.StakingParams","components":[{"name":"stake","type":"uint80","internalType":"uint80"},{"name":"cumulativeETHPerSIRx80","type":"uint176","internalType":"uint176"}]}],"stateMutability":"view"},{"type":"function","name":"supply","inputs":[],"outputs":[{"name":"","type":"uint256","internalType":"uint256"}],"stateMutability":"view"},{"type":"function","name":"symbol","inputs":[],"outputs":[{"name":"","type":"string","internalType":"string"}],"stateMutability":"view"},{"type":"function","name":"totalBalanceOf","inputs":[{"name":"account","type":"address","internalType":"address"}],"outputs":[{"name":"","type":"uint256","internalType":"uint256"}],"stateMutability":"view"},{"type":"function","name":"totalSupply","inputs":[],"outputs":[{"name":"","type":"uint256","internalType":"uint256"}],"stateMutability":"view"},{"type":"function","name":"transfer","inputs":[{"name":"to","type":"address","internalType":"address"},{"name":"amount","type":"uint256","internalType":"uint256"}],"outputs":[{"name":"","type":"bool","internalType":"bool"}],"stateMutability":"nonpayable"},{"type":"function","name":"transferFrom","inputs":[{"name":"from","type":"address","internalType":"address"},{"name":"to","type":"address","internalType":"address"},{"name":"amount","type":"uint256","internalType":"uint256"}],"outputs":[{"name":"","type":"bool","internalType":"bool"}],"stateMutability":"nonpayable"},{"type":"function","name":"unclaimedDividends","inputs":[{"name":"staker","type":"address","internalType":"address"}],"outputs":[{"name":"","type":"uint96","internalType":"uint96"}],"stateMutability":"view"},{"type":"function","name":"unstake","inputs":[{"name":"amount","type":"uint80","internalType":"uint80"}],"outputs":[],"stateMutability":"nonpayable"},{"type":"function","name":"unstakeAndClaim","inputs":[{"name":"amount","type":"uint80","internalType":"uint80"}],"outputs":[{"name":"dividends_","type":"uint96","internalType":"uint96"}],"stateMutability":"nonpayable"},{"type":"event","name":"Approval","inputs":[{"name":"owner","type":"address","indexed":true,"internalType":"address"},{"name":"spender","type":"address","indexed":true,"internalType":"address"},{"name":"amount","type":"uint256","indexed":false,"internalType":"uint256"}],"anonymous":false},{"type":"event","name":"AuctionStarted","inputs":[{"name":"token","type":"address","indexed":true,"internalType":"address"},{"name":"feesToBeAuctioned","type":"uint256","indexed":false,"internalType":"uint256"}],"anonymous":false},{"type":"event","name":"AuctionedTokensSentToWinner","inputs":[{"name":"winner","type":"address","indexed":true,"internalType":"address"},{"name":"beneficiary","type":"address","indexed":true,"internalType":"address"},{"name":"token","type":"address","indexed":true,"internalType":"address"},{"name":"reward","type":"uint256","indexed":false,"internalType":"uint256"}],"anonymous":false},{"type":"event","name":"BidReceived","inputs":[{"name":"bidder","type":"address","indexed":true,"internalType":"address"},{"name":"token","type":"address","indexed":true,"internalType":"address"},{"name":"previousBid","type":"uint96","indexed":false,"internalType":"uint96"},{"name":"newBid","type":"uint96","indexed":false,"internalType":"uint96"}],"anonymous":false},{"type":"event","name":"DividendsClaimed","inputs":[{"name":"staker","type":"address","indexed":true,"internalType":"address"},{"name":"amount","type":"uint96","indexed":false,"internalType":"uint96"}],"anonymous":false},{"type":"event","name":"DividendsPaid","inputs":[{"name":"amountETH","type":"uint96","indexed":false,"internalType":"uint96"},{"name":"amountStakedSIR","type":"uint80","indexed":false,"internalType":"uint80"}],"anonymous":false},{"type":"event","name":"RewardsClaimed","inputs":[{"name":"contributor","type":"address","indexed":true,"internalType":"address"},{"name":"vaultId","type":"uint256","indexed":true,"internalType":"uint256"},{"name":"rewards","type":"uint80","indexed":false,"internalType":"uint80"}],"anonymous":false},{"type":"event","name":"Staked","inputs":[{"name":"staker","type":"address","indexed":true,"internalType":"address"},{"name":"amount","type":"uint256","indexed":false,"internalType":"uint256"}],"anonymous":false},{"type":"event","name":"Transfer","inputs":[{"name":"from","type":"address","indexed":true,"internalType":"address"},{"name":"to","type":"address","indexed":true,"internalType":"address"},{"name":"amount","type":"uint256","indexed":false,"internalType":"uint256"}],"anonymous":false},{"type":"event","name":"Unstaked","inputs":[{"name":"staker","type":"address","indexed":true,"internalType":"address"},{"name":"amount","type":"uint256","indexed":false,"internalType":"uint256"}],"anonymous":false},{"type":"error","name":"AuctionIsNotOver","inputs":[]},{"type":"error","name":"BidTooLow","inputs":[]},{"type":"error","name":"InvalidSigner","inputs":[]},{"type":"error","name":"NewAuctionCannotStartYet","inputs":[]},{"type":"error","name":"NoAuction","inputs":[]},{"type":"error","name":"NoAuctionLot","inputs":[]},{"type":"error","name":"NoFeesCollected","inputs":[]},{"type":"error","name":"NotTheAuctionWinner","inputs":[]},{"type":"error","name":"PermitDeadlineExpired","inputs":[]}],"bytecode":{"object":"0x610140604052600c60c052600a805460ff19166001179055348015610022575f5ffd5b5060405161381738038061381783398101604081905261004191610160565b6001600160a01b03821660a052336080524660e052808261012b604080518082018252601c81527f53796e7468657469637320496d706c656d656e7465642052696768740000000060209182015281517f8b73c3c69bb8fe3d512ecc4cf759cc79239f7b179b0ffacaa9a75d522b39400f818301527f0d614900cceb97813954e30e34c71083d521e4e429b1329383c635cfe8875f20818401527fc89efdaa54c0f20c7adf612882df0950f5a951637e0307cdcb4c672f298b8bc660608201524660808201523060a0808301919091528351808303909101815260c0909101909252815191012090565b61010052506001600160a01b031661012052506101919050565b80516001600160a01b038116811461015b575f5ffd5b919050565b5f5f60408385031215610171575f5ffd5b61017a83610145565b915061018860208401610145565b90509250929050565b60805160a05160c05160e05161010051610120516136236101f45f395f610d3a01525f610ed101525f610dd801525f6104dc01525f8181611c10015281816123c30152818161254301528181612866015261293d01525f611b5301526136235ff3fe6080604052600436106101f8575f3560e01c80634a62c384116101175780639da16323116100ac578063c4d66de81161007c578063d505accf11610062578063d505accf1461081b578063dd62ed3e1461083a578063e2505abf14610870575f5ffd5b8063c4d66de8146107dd578063d181af7a146107fc575f5ffd5b80639da163231461076c578063a9059cbb1461078b578063ac3dd857146107aa578063bffecd88146107c9575f5ffd5b80634f7a21d2116100e75780634f7a21d21461068d57806370a08231146106ac5780637ecebe00146106f957806395d89b4114610724575f5ffd5b80634a62c384146105625780634b0ee02a1461063b5780634c24946b1461065a5780634e71d92d14610679575f5ffd5b806323b872dd1161018d578063313ce5671161015d578063313ce567146104cb5780633644e51514610510578063460028c914610524578063475fd05c14610543575f5ffd5b806323b872dd146104495780632ab4d052146104685780632c5a8e861461047c578063309295ee1461049d575f5ffd5b80630fb3bd93116101c85780630fb3bd93146102f2578063138d052f1461032c57806318160ddd146103405780631d59410a14610354575f5ffd5b8063047fc9aa146102035780630490c71c1461023257806306fdde031461026e578063095ea7b3146102c3575f5ffd5b366101ff57005b5f5ffd5b34801561020e575f5ffd5b5060025469ffffffffffffffffffff165b6040519081526020015b60405180910390f35b34801561023d575f5ffd5b5061025161024c3660046130a4565b61088f565b6040516bffffffffffffffffffffffff9091168152602001610229565b348015610279575f5ffd5b506102b66040518060400160405280601c81526020017f53796e7468657469637320496d706c656d656e7465642052696768740000000081525081565b60405161022991906130bd565b3480156102ce575f5ffd5b506102e26102dd366004613110565b610957565b6040519015158152602001610229565b3480156102fd575f5ffd5b5061031161030c366004613138565b6109cf565b60405169ffffffffffffffffffff9091168152602001610229565b348015610337575f5ffd5b506103116109e9565b34801561034b575f5ffd5b5061021f610a65565b34801561035f575f5ffd5b506103fc61036e3660046130a4565b60408051606080820183525f808352602080840182905292840181905273ffffffffffffffffffffffffffffffffffffffff9485168152600483528390208351918201845280549485168252740100000000000000000000000000000000000000009094046bffffffffffffffffffffffff169181019190915260019092015464ffffffffff169082015290565b60408051825173ffffffffffffffffffffffffffffffffffffffff1681526020808401516bffffffffffffffffffffffff16908201529181015164ffffffffff1690820152606001610229565b348015610454575f5ffd5b506102e261046336600461314f565b610a97565b348015610473575f5ffd5b5061021f610c29565b348015610487575f5ffd5b5061049b610496366004613199565b610d22565b005b3480156104a8575f5ffd5b506104b1610d94565b60405168ffffffffffffffffff9091168152602001610229565b3480156104d6575f5ffd5b506104fe7f000000000000000000000000000000000000000000000000000000000000000081565b60405160ff9091168152602001610229565b34801561051b575f5ffd5b5061021f610dd5565b34801561052f575f5ffd5b5061031161053e366004613138565b610ef3565b34801561054e575f5ffd5b5061049b61055d3660046131b4565b611005565b34801561056d575f5ffd5b506105fc61057c3660046130a4565b604080518082019091525f80825260208201525073ffffffffffffffffffffffffffffffffffffffff165f9081526006602090815260409182902082518084019093525469ffffffffffffffffffff811683526a0100000000000000000000900475ffffffffffffffffffffffffffffffffffffffffffff169082015290565b60408051825169ffffffffffffffffffff16815260209283015175ffffffffffffffffffffffffffffffffffffffffffff169281019290925201610229565b348015610646575f5ffd5b5061021f6106553660046130a4565b6111f2565b348015610665575f5ffd5b5061049b6106743660046131fc565b61124d565b348015610684575f5ffd5b50610251611487565b348015610698575f5ffd5b5061049b6106a73660046131fc565b611650565b3480156106b7575f5ffd5b5061021f6106c63660046130a4565b73ffffffffffffffffffffffffffffffffffffffff165f9081526005602052604090205469ffffffffffffffffffff1690565b348015610704575f5ffd5b5061021f6107133660046130a4565b60086020525f908152604090205481565b34801561072f575f5ffd5b506102b66040518060400160405280600381526020017f534952000000000000000000000000000000000000000000000000000000000081525081565b348015610777575f5ffd5b506103116107863660046130a4565b61187a565b348015610796575f5ffd5b506102e26107a5366004613110565b6119bb565b3480156107b5575f5ffd5b506102516107c43660046131fc565b611a9b565b3480156107d4575f5ffd5b506104b1611aad565b3480156107e8575f5ffd5b5061049b6107f73660046130a4565b611b1d565b348015610807575f5ffd5b5061021f6108163660046130a4565b611bfb565b348015610826575f5ffd5b5061049b610835366004613217565b612009565b348015610845575f5ffd5b5061021f6108543660046131b4565b600760209081525f928352604080842090915290825290205481565b34801561087b575f5ffd5b5061049b61088a366004613284565b6122c2565b73ffffffffffffffffffffffffffffffffffffffff81165f81815260056020908152604080832081518083018352905469ffffffffffffffffffff80821683526bffffffffffffffffffffffff6a010000000000000000000092839004168386015283518085018552600154808316825275ffffffffffffffffffffffffffffffffffffffffffff9084900481168288015297875260068652848720855180870190965254918216855291900490951692820192909252919261095192612705565b92915050565b335f81815260076020908152604080832073ffffffffffffffffffffffffffffffffffffffff8716808552925280832085905551919290917f8c5be1e5ebec7d5bd14f71427d1e84f3dd0314c0f7b2291e5b200ac8c7c3b925906109be9086815260200190565b60405180910390a350600192915050565b5f6109d982610ef3565b90506109e481611650565b919050565b600a545f9060ff166109f9575f5ffd5b610a023361187a565b90505f8169ffffffffffffffffffff1611610a1b575f5ffd5b610a25338261275e565b335f90815260096020526040902080547fffffffffffffffffffffffffffffffffffffffffffffffffffffff0000000000164264ffffffffff1617905590565b6002546001545f91610a869169ffffffffffffffffffff91821691166132f6565b69ffffffffffffffffffff16905090565b73ffffffffffffffffffffffffffffffffffffffff83165f9081526007602090815260408083203384529091528120547fffffffffffffffffffffffffffffffffffffffffffffffffffffffffffffffff8114610b2957610af88382613318565b73ffffffffffffffffffffffffffffffffffffffff86165f9081526007602090815260408083203384529091529020555b73ffffffffffffffffffffffffffffffffffffffff85165f9081526005602052604090205469ffffffffffffffffffff1680841115610b66575f5ffd5b73ffffffffffffffffffffffffffffffffffffffff8087165f81815260056020526040808220805469ffffffffffffffffffff8a880381167fffffffffffffffffffffffffffffffffffffffffffff0000000000000000000092831617909255948a168084529282902080548083168b01909216919095161790935591517fddf252ad1be2c89b69c2b068fc378daa952ba7f163c4a11628f55a4df523b3ef90610c139088815260200190565b60405180910390a36001925050505b9392505050565b5f5f5f9054906101000a900473ffffffffffffffffffffffffffffffffffffffff1673ffffffffffffffffffffffffffffffffffffffff1663410cd41a6040518163ffffffff1660e01b8152600401602060405180830381865afa158015610c93573d5f5f3e3d5ffd5b505050506040513d601f19601f82011682018060405250810190610cb7919061332b565b610cc89064ffffffffff1642613318565b6301e133806001610cdb600c600a613470565b610ce99063781a75c061347e565b610cf39190613318565b610cfd91906134c2565b610d089060016134f3565b68ffffffffffffffffff16610d1d919061347e565b905090565b3373ffffffffffffffffffffffffffffffffffffffff7f00000000000000000000000000000000000000000000000000000000000000001614610d63575f5ffd5b600a80547fffffffffffffffffffffffffffffffffffffffffffffffffffffffffffffff0016911515919091179055565b5f6301e133806001610da8600c600a613470565b610db69063781a75c061347e565b610dc09190613318565b610dca91906134c2565b610d1d9060016134f3565b5f7f00000000000000000000000000000000000000000000000000000000000000004614610ece5750604080518082018252601c81527f53796e7468657469637320496d706c656d656e7465642052696768740000000060209182015281517f8b73c3c69bb8fe3d512ecc4cf759cc79239f7b179b0ffacaa9a75d522b39400f818301527f0d614900cceb97813954e30e34c71083d521e4e429b1329383c635cfe8875f20818401527fc89efdaa54c0f20c7adf612882df0950f5a951637e0307cdcb4c672f298b8bc660608201524660808201523060a0808301919091528351808303909101815260c0909101909252815191012090565b507f000000000000000000000000000000000000000000000000000000000000000090565b600a545f9060ff16610f03575f5ffd5b5f546040517f777b1d430000000000000000000000000000000000000000000000000000000081526004810184905233602482015273ffffffffffffffffffffffffffffffffffffffff9091169063777b1d43906044016020604051808303815f875af1158015610f76573d5f5f3e3d5ffd5b505050506040513d601f19601f82011682018060405250810190610f9a9190613514565b90505f8169ffffffffffffffffffff1611610fb3575f5ffd5b610fbd338261275e565b60405169ffffffffffffffffffff82168152829033907fcb4638e0a42946ee6211d74938270204aa9bfa787e57f01113f475d7c4539b6d9060200160405180910390a3919050565b73ffffffffffffffffffffffffffffffffffffffff8281165f90815260046020908152604091829020825160608101845281549485168152740100000000000000000000000000000000000000009094046bffffffffffffffffffffffff16918401919091526001015464ffffffffff1690820181905261108a90620151809061352f565b64ffffffffff164210156110c9576040517e175ba800000000000000000000000000000000000000000000000000000000815260040160405180910390fd5b805173ffffffffffffffffffffffffffffffffffffffff163314611119576040517f80f472e100000000000000000000000000000000000000000000000000000000815260040160405180910390fd5b73ffffffffffffffffffffffffffffffffffffffff8084165f908152600460209081526040822080549093169092559082015160035461116791906bffffffffffffffffffffffff1661354c565b600380547fffffffffffffffffffffffffffffffffffffffff000000000000000000000000166bffffffffffffffffffffffff831617905590506111aa8161280f565b506111b6848385612af9565b6111ec576040517fa90c149f00000000000000000000000000000000000000000000000000000000815260040160405180910390fd5b50505050565b73ffffffffffffffffffffffffffffffffffffffff81165f90815260056020908152604080832054600690925282205461123b9169ffffffffffffffffffff90811691166132f6565b69ffffffffffffffffffff1692915050565b335f81815260056020908152604080832081518083018352905469ffffffffffffffffffff80821683526bffffffffffffffffffffffff6a010000000000000000000092839004168386015283518085018552600154808316825275ffffffffffffffffffffffffffffffffffffffffffff90849004811682880152978752600686528487208551808701909652549182168086529290910490961693830193909352939290916112ff908690613570565b9050604051806040016040528086865f01510169ffffffffffffffffffff16815260200161132e868686612705565b6bffffffffffffffffffffffff908116909152335f81815260056020908152604080832086518154978401519096166a01000000000000000000009081027fffffffffffffffffffff0000000000000000000000000000000000000000000090981669ffffffffffffffffffff978816179790971790558051808201825287861681528983015175ffffffffffffffffffffffffffffffffffffffffffff90811682850190815286865260069094529382902090519251909316909502908416179055600280548084168a0184167fffffffffffffffffffffffffffffffffffffffffffff0000000000000000000091821617909155865160018054918b900390941691161790915590517f0f5bb82176feb1b5e747e28471aa92156a04d9f3ab9f45f28e2d704232b93f759061147890889069ffffffffffffffffffff91909116815260200190565b60405180910390a25050505050565b60408051808201825260015469ffffffffffffffffffff808216835275ffffffffffffffffffffffffffffffffffffffffffff6a0100000000000000000000928390048116602080860191909152335f818152600583528781208851808a018a52905480871682526bffffffffffffffffffffffff908890041681850152918152600683528781208851808a019099525494851688529490930490911690850152909261153691908390612705565b335f81815260056020908152604080832080547fffffffffffffffffffff000000000000000000000000ffffffffffffffffffff908116909155868301516006845293829020805469ffffffffffffffffffff166a010000000000000000000075ffffffffffffffffffffffffffffffffffffffffffff9096168602179055600280549182166bffffffffffffffffffffffff92869004831688900383169095029490941790935551918416825292945090917fce98842d3995a36decbd0af8544d33045ef9cbcd477386c9c633dc8e13f2992d910160405180910390a260405133906bffffffffffffffffffffffff841680156108fc02915f818181858888f1935050505015801561164b573d5f5f3e3d5ffd5b505090565b335f81815260056020908152604080832081518083018352905469ffffffffffffffffffff80821683526bffffffffffffffffffffffff6a010000000000000000000092839004168386015283518085018552600154808316825275ffffffffffffffffffffffffffffffffffffffffffff908490048116828801529787526006865284872085518087019096525491821685529190049095169282019290925281519193929091611703908690613570565b905060405180604001604052808269ffffffffffffffffffff16815260200161172d868686612705565b6bffffffffffffffffffffffff908116909152335f81815260056020908152604080832086518154978401519096166a01000000000000000000009081027fffffffffffffffffffff0000000000000000000000000000000000000000000090981669ffffffffffffffffffff978816179790971790558051808201825288518c01861681528983015175ffffffffffffffffffffffffffffffffffffffffffff90811682850190815286865260069094529382902090519251909316909502908416179055600280548084168a900384167fffffffffffffffffffffffffffffffffffffffffffff0000000000000000000091821617909155865160018054918b0190941691161790915590517f9e71bc8eea02a63969f509818f2dafb9254532904319f9dbda79b67bd34a5f3d9061147890889069ffffffffffffffffffff91909116815260200190565b5f5f61188583612e23565b66ffffffffffffff169050805f0361189f57505f92915050565b5f5f5f9054906101000a900473ffffffffffffffffffffffffffffffffffffffff1673ffffffffffffffffffffffffffffffffffffffff1663410cd41a6040518163ffffffff1660e01b8152600401602060405180830381865afa158015611909573d5f5f3e3d5ffd5b505050506040513d601f19601f8201168201806040525081019061192d919061332b565b73ffffffffffffffffffffffffffffffffffffffff85165f9081526009602052604090205490915064ffffffffff6305a39a8083018116911681811061197857505f95945050505050565b805f03611989575064ffffffffff82165b66ffffffffffffff651246b07ae2888502045f428411156119aa57426119ac565b835b92909203029695505050505050565b335f9081526005602052604081205469ffffffffffffffffffff16808311156119e2575f5ffd5b335f81815260056020908152604080832080547fffffffffffffffffffffffffffffffffffffffffffff0000000000000000000090811689880369ffffffffffffffffffff9081169190911790925573ffffffffffffffffffffffffffffffffffffffff8a168086529483902080549182169183168a01909216179055518681529192917fddf252ad1be2c89b69c2b068fc378daa952ba7f163c4a11628f55a4df523b3ef910160405180910390a35060019392505050565b5f611aa58261124d565b610951611487565b5f67016345785d8a00006301e133806001611aca600c600a613470565b611ad89063781a75c061347e565b611ae29190613318565b611aec91906134c2565b611af79060016134f3565b611b139068ffffffffffffffffff1666f38a31408ae33861347e565b610d1d9190613592565b6003546c01000000000000000000000000900460ff16158015611b7557503373ffffffffffffffffffffffffffffffffffffffff7f000000000000000000000000000000000000000000000000000000000000000016145b611b7d575f5ffd5b5f805473ffffffffffffffffffffffffffffffffffffffff9092167fffffffffffffffffffffffff0000000000000000000000000000000000000000909216919091179055600380547fffffffffffffffffffffffffffffffffffffff00ffffffffffffffffffffffff166c01000000000000000000000000179055565b6003545f906bffffffffffffffffffffffff167f000000000000000000000000000000000000000000000000000000000000000073ffffffffffffffffffffffffffffffffffffffff90811690841614611f295773ffffffffffffffffffffffffffffffffffffffff8381165f90815260046020908152604091829020825160608101845281549485168152740100000000000000000000000000000000000000009094046bffffffffffffffffffffffff16918401919091526001015464ffffffffff908116918301829052620d9170909101908116421015611d0b576040517f977a44ab00000000000000000000000000000000000000000000000000000000815260040160405180910390fd5b604080516060810182525f80825260208083018281524264ffffffffff90811685870190815273ffffffffffffffffffffffffffffffffffffffff8c8116865260048552969094209451915191909516740100000000000000000000000000000000000000006bffffffffffffffffffffffff928316021784559151600190930180547fffffffffffffffffffffffffffffffffffffffffffffffffffffff0000000000169390941692909217909255830151600380547fffffffffffffffffffffffffffffffffffffffff000000000000000000000000169190950391821617909355611df88361280f565b50611e0485835f612af9565b505f546040517f164e68de00000000000000000000000000000000000000000000000000000000815273ffffffffffffffffffffffffffffffffffffffff87811660048301529091169063164e68de906024016020604051808303815f875af1158015611e73573d5f5f3e3d5ffd5b505050506040513d601f19601f82011682018060405250810190611e9791906135a5565b9350835f03611ed2576040517f8c887b1200000000000000000000000000000000000000000000000000000000815260040160405180910390fd5b8473ffffffffffffffffffffffffffffffffffffffff167fc087c4cdb16906b5ff7016a6bf927618f24ff32eb1de5e86eeaeb08b94831a6885604051611f1a91815260200190565b60405180910390a25050612003565b5f546040517f164e68de00000000000000000000000000000000000000000000000000000000815273ffffffffffffffffffffffffffffffffffffffff85811660048301529091169063164e68de906024016020604051808303815f875af1158015611f97573d5f5f3e3d5ffd5b505050506040513d601f19601f82011682018060405250810190611fbb91906135a5565b91505f611fc78261280f565b90508015612001576040517f8c887b1200000000000000000000000000000000000000000000000000000000815260040160405180910390fd5b505b50919050565b42841015612043576040517f05787bdf00000000000000000000000000000000000000000000000000000000815260040160405180910390fd5b5f600161204e610dd5565b73ffffffffffffffffffffffffffffffffffffffff8a81165f8181526008602090815260409182902080546001810190915582517f6e71edae12b1b97f4d1f60370fef10105fa2faae0126114a169c64845d6126c98184015280840194909452938d166060840152608083018c905260a083019390935260c08083018b90528151808403909101815260e0830190915280519201919091207f190100000000000000000000000000000000000000000000000000000000000061010083015261010282019290925261012281019190915261014201604080517fffffffffffffffffffffffffffffffffffffffffffffffffffffffffffffffe081840301815282825280516020918201205f84529083018083525260ff871690820152606081018590526080810184905260a0016020604051602081039080840390855afa15801561219c573d5f5f3e3d5ffd5b50506040517fffffffffffffffffffffffffffffffffffffffffffffffffffffffffffffffe0015191505073ffffffffffffffffffffffffffffffffffffffff8116158061221657508773ffffffffffffffffffffffffffffffffffffffff168173ffffffffffffffffffffffffffffffffffffffff1614155b1561224d576040517f815e1d6400000000000000000000000000000000000000000000000000000000815260040160405180910390fd5b73ffffffffffffffffffffffffffffffffffffffff9081165f9081526007602090815260408083208a8516808552908352928190208990555188815291928a16917f8c5be1e5ebec7d5bd14f71427d1e84f3dd0314c0f7b2291e5b200ac8c7c3b925910160405180910390a350505050505050565b73ffffffffffffffffffffffffffffffffffffffff8281165f90815260046020908152604091829020825160608101845281549485168152740100000000000000000000000000000000000000009094046bffffffffffffffffffffffff16918401919091526001015464ffffffffff9081169183018290526201518090910116421061237b576040517f71d00de200000000000000000000000000000000000000000000000000000000815260040160405180910390fd5b6040517f23b872dd0000000000000000000000000000000000000000000000000000000081523360048201523060248201526bffffffffffffffffffffffff831660448201527f000000000000000000000000000000000000000000000000000000000000000073ffffffffffffffffffffffffffffffffffffffff16906323b872dd906064016020604051808303815f875af115801561241e573d5f5f3e3d5ffd5b505050506040513d601f19601f8201168201806040525081019061244291906135bc565b50805173ffffffffffffffffffffffffffffffffffffffff1633036124ad57600380546bffffffffffffffffffffffff8082168501167fffffffffffffffffffffffffffffffffffffffff0000000000000000000000009091161790556020810151909101906125b1565b6020810151600380547fffffffffffffffffffffffffffffffffffffffff00000000000000000000000081168386036bffffffffffffffffffffffff9283160182161790915582516040517fa9059cbb00000000000000000000000000000000000000000000000000000000815273ffffffffffffffffffffffffffffffffffffffff91821660048201529190921660248201527f00000000000000000000000000000000000000000000000000000000000000009091169063a9059cbb906044016020604051808303815f875af115801561258b573d5f5f3e3d5ffd5b505050506040513d601f19601f820116820180604052508101906125af91906135bc565b505b80602001516bffffffffffffffffffffffff16826bffffffffffffffffffffffff161161260a576040517fa0d26eb600000000000000000000000000000000000000000000000000000000815260040160405180910390fd5b60408051606081018252338082526bffffffffffffffffffffffff85811660208085018281528787015164ffffffffff90811687890190815273ffffffffffffffffffffffffffffffffffffffff8c81165f818152600487528b90209951945188167401000000000000000000000000000000000000000002949091169390931788555160019097018054979091167fffffffffffffffffffffffffffffffffffffffffffffffffffffff00000000009097169690961790955586810151865193168352820152919290917f0aa963c9c96f25e87258ff077b609aab138a567d7617a8e86a21decf9e48984b910160405180910390a3505050565b6020830151815169ffffffffffffffffffff1615610c225781516020808401519085015175ffffffffffffffffffffffffffffffffffffffffffff9190031669ffffffffffffffffffff9091160260501c019392505050565b6002805469ffffffffffffffffffff808216840181167fffffffffffffffffffffffffffffffffffffffffffff000000000000000000009283161790925573ffffffffffffffffffffffffffffffffffffffff84165f81815260056020908152604080832080548088168901881696169590951790945592519385168452909290917fddf252ad1be2c89b69c2b068fc378daa952ba7f163c4a11628f55a4df523b3ef910160405180910390a35050565b6040517f70a082310000000000000000000000000000000000000000000000000000000081523060048201525f9081906bffffffffffffffffffffffff84169073ffffffffffffffffffffffffffffffffffffffff7f000000000000000000000000000000000000000000000000000000000000000016906370a0823190602401602060405180830381865afa1580156128ab573d5f5f3e3d5ffd5b505050506040513d601f19601f820116820180604052508101906128cf91906135a5565b60025491900391506a010000000000000000000090046bffffffffffffffffffffffff16478190038083015f81900361290e5750600195945050505050565b6040517f2e1a7d4d000000000000000000000000000000000000000000000000000000008152600481018590527f000000000000000000000000000000000000000000000000000000000000000073ffffffffffffffffffffffffffffffffffffffff1690632e1a7d4d906024015f604051808303815f87803b158015612993575f5ffd5b505af11580156129a5573d5f5f3e3d5ffd5b50506040805180820190915260015469ffffffffffffffffffff81168083526a010000000000000000000090910475ffffffffffffffffffffffffffffffffffffffffffff1660208301529092505f039050612a08575060019695505050505050565b805169ffffffffffffffffffff16605083901b81612a2857612a28613495565b6020838101516001805469ffffffffffffffffffff9081166a01000000000000000000009690950490920175ffffffffffffffffffffffffffffffffffffffffffff16850293909317909255600280547fffffffffffffffffffff000000000000000000000000ffffffffffffffffffff168689016bffffffffffffffffffffffff90811690950217905583516040805194871685529216908301527fceeff233d57f794a3c1d09ca382d09c9ba3af56793651463ab500a81026fe5ce910160405180910390a15050505050919050565b5f82602001516bffffffffffffffffffffffff165f03612b1a57505f610c22565b60405130602482015260609073ffffffffffffffffffffffffffffffffffffffff861690604401604080517fffffffffffffffffffffffffffffffffffffffffffffffffffffffffffffffe08184030181529181526020820180517bffffffffffffffffffffffffffffffffffffffffffffffffffffffff167f70a082310000000000000000000000000000000000000000000000000000000017905251612bc291906135d7565b5f604051808303815f865af19150503d805f8114612bfb576040519150601f19603f3d011682016040523d82523d5f602084013e612c00565b606091505b509092509050811580612c1557508051602014155b15612c23575f915050610c22565b5f81806020019051810190612c3891906135a5565b9050805f03612c4c57600192505050610c22565b73ffffffffffffffffffffffffffffffffffffffff8416612c6c57845193505b60405173ffffffffffffffffffffffffffffffffffffffff858116602483015260448201839052871690606401604080517fffffffffffffffffffffffffffffffffffffffffffffffffffffffffffffffe08184030181529181526020820180517bffffffffffffffffffffffffffffffffffffffffffffffffffffffff167fa9059cbb0000000000000000000000000000000000000000000000000000000017905251612d1a91906135d7565b5f604051808303815f865af19150503d805f8114612d53576040519150601f19603f3d011682016040523d82523d5f602084013e612d58565b606091505b509093509150821580612d8757505f8251118015612d87575081806020019051810190612d8591906135bc565b155b15612d96575f92505050610c22565b8573ffffffffffffffffffffffffffffffffffffffff168473ffffffffffffffffffffffffffffffffffffffff16865f015173ffffffffffffffffffffffffffffffffffffffff167f638925a05402dc748e2fafcb7b68924f5506e8b5c3c729a4a1fed16f89fd39b984604051612e0f91815260200190565b60405180910390a450600195945050505050565b5f7fffffffffffffffffffffffff6f08640914d3b078fc9a187a67d1e0efe16c46fa73ffffffffffffffffffffffffffffffffffffffff831601612e6f5750665166658a4af5ec919050565b7fffffffffffffffffffffffffea2cb550abd98248283c987c65508e5ff5d3959b73ffffffffffffffffffffffffffffffffffffffff831601612eb95750653e83e37ca410919050565b7fffffffffffffffffffffffff669aaf82e5aa433d96a3a745e904c827e64f5b2473ffffffffffffffffffffffffffffffffffffffff831601612f0357506514d6a1298c05919050565b7fffffffffffffffffffffffff689158bfd918d9aab249a805ab89c542f3c5f55773ffffffffffffffffffffffffffffffffffffffff831601612f4e57506628b332c5257af6919050565b7fffffffffffffffffffffffffeb238669b25d3f74dc9674c2c33835cde6c266ab73ffffffffffffffffffffffffffffffffffffffff831601612f99575066059feee6b6e51d919050565b7fffffffffffffffffffffffffc3bb32224956ff05d4a7a22d661fc2ed05bd6c4473ffffffffffffffffffffffffffffffffffffffff831601612fe45750663aa557f9229b10919050565b7fffffffffffffffffffffffff0c60291ae55277090b3195477d8d86300046dd9a73ffffffffffffffffffffffffffffffffffffffff83160161302f5750660554c07c013887919050565b7fffffffffffffffffffffffff8f66868f3ae7ed23c5fef382fe4af1f2e823863873ffffffffffffffffffffffffffffffffffffffff83160161307a5750663ff905d00ea654919050565b505f919050565b803573ffffffffffffffffffffffffffffffffffffffff811681146109e4575f5ffd5b5f602082840312156130b4575f5ffd5b610c2282613081565b602081525f82518060208401528060208501604085015e5f6040828501015260407fffffffffffffffffffffffffffffffffffffffffffffffffffffffffffffffe0601f83011684010191505092915050565b5f5f60408385031215613121575f5ffd5b61312a83613081565b946020939093013593505050565b5f60208284031215613148575f5ffd5b5035919050565b5f5f5f60608486031215613161575f5ffd5b61316a84613081565b925061317860208501613081565b929592945050506040919091013590565b8015158114613196575f5ffd5b50565b5f602082840312156131a9575f5ffd5b8135610c2281613189565b5f5f604083850312156131c5575f5ffd5b6131ce83613081565b91506131dc60208401613081565b90509250929050565b69ffffffffffffffffffff81168114613196575f5ffd5b5f6020828403121561320c575f5ffd5b8135610c22816131e5565b5f5f5f5f5f5f5f60e0888a03121561322d575f5ffd5b61323688613081565b965061324460208901613081565b95506040880135945060608801359350608088013560ff81168114613267575f5ffd5b9699959850939692959460a0840135945060c09093013592915050565b5f5f60408385031215613295575f5ffd5b61329e83613081565b915060208301356bffffffffffffffffffffffff811681146132be575f5ffd5b809150509250929050565b7f4e487b71000000000000000000000000000000000000000000000000000000005f52601160045260245ffd5b69ffffffffffffffffffff8181168382160190811115610951576109516132c9565b81810381811115610951576109516132c9565b5f6020828403121561333b575f5ffd5b815164ffffffffff81168114610c22575f5ffd5b6001815b600184111561338a5780850481111561336e5761336e6132c9565b600184161561337c57908102905b60019390931c928002613353565b935093915050565b5f826133a057506001610951565b816133ac57505f610951565b81600181146133c257600281146133cc576133e8565b6001915050610951565b60ff8411156133dd576133dd6132c9565b50506001821b610951565b5060208310610133831016604e8410600b841016171561340b575081810a610951565b6134367fffffffffffffffffffffffffffffffffffffffffffffffffffffffffffffffff848461334f565b807fffffffffffffffffffffffffffffffffffffffffffffffffffffffffffffffff04821115613468576134686132c9565b029392505050565b5f610c2260ff841683613392565b8082028115828204841417610951576109516132c9565b7f4e487b71000000000000000000000000000000000000000000000000000000005f52601260045260245ffd5b5f68ffffffffffffffffff8316806134dc576134dc613495565b8068ffffffffffffffffff84160491505092915050565b68ffffffffffffffffff8181168382160190811115610951576109516132c9565b5f60208284031215613524575f5ffd5b8151610c22816131e5565b64ffffffffff8181168382160190811115610951576109516132c9565b6bffffffffffffffffffffffff8281168282160390811115610951576109516132c9565b69ffffffffffffffffffff8281168282160390811115610951576109516132c9565b5f826135a0576135a0613495565b500490565b5f602082840312156135b5575f5ffd5b5051919050565b5f602082840312156135cc575f5ffd5b8151610c2281613189565b5f82518060208501845e5f92019182525091905056fea2646970667358221220ae99e05f6bee3e3cf6193313b62c16d86b98b9afec9f8c2027c6efa82df8804f64736f6c634300081c0033","linkReferences":{}},"methodIdentifiers":{"DOMAIN_SEPARATOR()":"3644e515","ISSUANCE_RATE()":"309295ee","LP_ISSUANCE_FIRST_3_YEARS()":"bffecd88","allowMinting(bool)":"2c5a8e86","allowance(address,address)":"dd62ed3e","approve(address,uint256)":"095ea7b3","auctions(address)":"1d59410a","balanceOf(address)":"70a08231","bid(address,uint96)":"e2505abf","claim()":"4e71d92d","collectFeesAndStartAuction(address)":"d181af7a","contributorMint()":"138d052f","contributorUnclaimedSIR(address)":"9da16323","decimals()":"313ce567","getAuctionLot(address,address)":"475fd05c","initialize(address)":"c4d66de8","lPerMint(uint256)":"460028c9","lPerMintAndStake(uint256)":"0fb3bd93","maxTotalSupply()":"2ab4d052","name()":"06fdde03","nonces(address)":"7ecebe00","permit(address,address,uint256,uint256,uint8,bytes32,bytes32)":"d505accf","stake(uint80)":"4f7a21d2","stakersParams(address)":"4a62c384","supply()":"047fc9aa","symbol()":"95d89b41","totalBalanceOf(address)":"4b0ee02a","totalSupply()":"18160ddd","transfer(address,uint256)":"a9059cbb","transferFrom(address,address,uint256)":"23b872dd","unclaimedDividends(address)":"0490c71c","unstake(uint80)":"4c24946b","unstakeAndClaim(uint80)":"ac3dd857"},"id":56}