{"abi":[{"type":"constructor","inputs":[{"name":"weth","type":"address","internalType":"address"},{"name":"systemControl","type":"address","internalType":"address"}],"stateMutability":"nonpayable"},{"type":"receive","stateMutability":"payable"},{"type":"function","name":"DOMAIN_SEPARATOR","inputs":[],"outputs":[{"name":"","type":"bytes32","internalType":"bytes32"}],"stateMutability":"view"},{"type":"function","name":"ISSUANCE_RATE","inputs":[],"outputs":[{"name":"","type":"uint72","internalType":"uint72"}],"stateMutability":"pure"},{"type":"function","name":"LP_ISSUANCE_FIRST_3_YEARS","inputs":[],"outputs":[{"name":"","type":"uint72","internalType":"uint72"}],"stateMutability":"pure"},{"type":"function","name":"allowMinting","inputs":[{"name":"mintingOfSIRHalted_","type":"bool","internalType":"bool"}],"outputs":[],"stateMutability":"nonpayable"},{"type":"function","name":"allowance","inputs":[{"name":"","type":"address","internalType":"address"},{"name":"","type":"address","internalType":"address"}],"outputs":[{"name":"","type":"uint256","internalType":"uint256"}],"stateMutability":"view"},{"type":"function","name":"approve","inputs":[{"name":"spender","type":"address","internalType":"address"},{"name":"amount","type":"uint256","internalType":"uint256"}],"outputs":[{"name":"","type":"bool","internalType":"bool"}],"stateMutability":"nonpayable"},{"type":"function","name":"auctions","inputs":[{"name":"token","type":"address","internalType":"address"}],"outputs":[{"name":"","type":"tuple","internalType":"struct SirStructs.Auction","components":[{"name":"bidder","type":"address","internalType":"address"},{"name":"bid","type":"uint96","internalType":"uint96"},{"name":"startTime","type":"uint40","internalType":"uint40"}]}],"stateMutability":"view"},{"type":"function","name":"balanceOf","inputs":[{"name":"account","type":"address","internalType":"address"}],"outputs":[{"name":"","type":"uint256","internalType":"uint256"}],"stateMutability":"view"},{"type":"function","name":"bid","inputs":[{"name":"token","type":"address","internalType":"address"},{"name":"amount","type":"uint96","internalType":"uint96"}],"outputs":[],"stateMutability":"nonpayable"},{"type":"function","name":"claim","inputs":[],"outputs":[{"name":"dividends_","type":"uint96","internalType":"uint96"}],"stateMutability":"nonpayable"},{"type":"function","name":"collectFeesAndStartAuction","inputs":[{"name":"token","type":"address","internalType":"address"}],"outputs":[{"name":"totalFees","type":"uint256","internalType":"uint256"}],"stateMutability":"nonpayable"},{"type":"function","name":"contributorMint","inputs":[],"outputs":[{"name":"rewards","type":"uint80","internalType":"uint80"}],"stateMutability":"nonpayable"},{"type":"function","name":"contributorMintAndStake","inputs":[],"outputs":[{"name":"rewards","type":"uint80","internalType":"uint80"}],"stateMutability":"nonpayable"},{"type":"function","name":"contributorUnclaimedSIR","inputs":[{"name":"contributor","type":"address","internalType":"address"}],"outputs":[{"name":"","type":"uint80","internalType":"uint80"}],"stateMutability":"view"},{"type":"function","name":"decimals","inputs":[],"outputs":[{"name":"","type":"uint8","internalType":"uint8"}],"stateMutability":"view"},{"type":"function","name":"getAuctionLot","inputs":[{"name":"token","type":"address","internalType":"address"},{"name":"beneficiary","type":"address","internalType":"address"}],"outputs":[],"stateMutability":"nonpayable"},{"type":"function","name":"initialize","inputs":[{"name":"vault_","type":"address","internalType":"address"}],"outputs":[],"stateMutability":"nonpayable"},{"type":"function","name":"lPerMint","inputs":[{"name":"vaultId","type":"uint256","internalType":"uint256"}],"outputs":[{"name":"rewards","type":"uint80","internalType":"uint80"}],"stateMutability":"nonpayable"},{"type":"function","name":"lPerMintAndStake","inputs":[{"name":"vaultId","type":"uint256","internalType":"uint256"}],"outputs":[{"name":"rewards","type":"uint80","internalType":"uint80"}],"stateMutability":"nonpayable"},{"type":"function","name":"maxTotalSupply","inputs":[],"outputs":[{"name":"","type":"uint256","internalType":"uint256"}],"stateMutability":"view"},{"type":"function","name":"name","inputs":[],"outputs":[{"name":"","type":"string","internalType":"string"}],"stateMutability":"view"},{"type":"function","name":"nonces","inputs":[{"name":"","type":"address","internalType":"address"}],"outputs":[{"name":"","type":"uint256","internalType":"uint256"}],"stateMutability":"view"},{"type":"function","name":"permit","inputs":[{"name":"owner","type":"address","internalType":"address"},{"name":"spender","type":"address","internalType":"address"},{"name":"value","type":"uint256","internalType":"uint256"},{"name":"deadline","type":"uint256","internalType":"uint256"},{"name":"v","type":"uint8","internalType":"uint8"},{"name":"r","type":"bytes32","internalType":"bytes32"},{"name":"s","type":"bytes32","internalType":"bytes32"}],"outputs":[],"stateMutability":"nonpayable"},{"type":"function","name":"stake","inputs":[{"name":"amount","type":"uint80","internalType":"uint80"}],"outputs":[],"stateMutability":"nonpayable"},{"type":"function","name":"stakeOf","inputs":[{"name":"staker","type":"address","internalType":"address"}],"outputs":[{"name":"unlockedStake","type":"uint80","internalType":"uint80"},{"name":"lockedStake","type":"uint80","internalType":"uint80"}],"stateMutability":"view"},{"type":"function","name":"supply","inputs":[],"outputs":[{"name":"","type":"uint256","internalType":"uint256"}],"stateMutability":"view"},{"type":"function","name":"symbol","inputs":[],"outputs":[{"name":"","type":"string","internalType":"string"}],"stateMutability":"view"},{"type":"function","name":"totalBalanceOf","inputs":[{"name":"account","type":"address","internalType":"address"}],"outputs":[{"name":"","type":"uint256","internalType":"uint256"}],"stateMutability":"view"},{"type":"function","name":"totalSupply","inputs":[],"outputs":[{"name":"","type":"uint256","internalType":"uint256"}],"stateMutability":"view"},{"type":"function","name":"transfer","inputs":[{"name":"to","type":"address","internalType":"address"},{"name":"amount","type":"uint256","internalType":"uint256"}],"outputs":[{"name":"","type":"bool","internalType":"bool"}],"stateMutability":"nonpayable"},{"type":"function","name":"transferFrom","inputs":[{"name":"from","type":"address","internalType":"address"},{"name":"to","type":"address","internalType":"address"},{"name":"amount","type":"uint256","internalType":"uint256"}],"outputs":[{"name":"","type":"bool","internalType":"bool"}],"stateMutability":"nonpayable"},{"type":"function","name":"unclaimedDividends","inputs":[{"name":"staker","type":"address","internalType":"address"}],"outputs":[{"name":"","type":"uint96","internalType":"uint96"}],"stateMutability":"view"},{"type":"function","name":"unstake","inputs":[{"name":"amount","type":"uint80","internalType":"uint80"}],"outputs":[],"stateMutability":"nonpayable"},{"type":"function","name":"unstakeAndClaim","inputs":[{"name":"amount","type":"uint80","internalType":"uint80"}],"outputs":[{"name":"dividends_","type":"uint96","internalType":"uint96"}],"stateMutability":"nonpayable"},{"type":"event","name":"Approval","inputs":[{"name":"owner","type":"address","indexed":true,"internalType":"address"},{"name":"spender","type":"address","indexed":true,"internalType":"address"},{"name":"amount","type":"uint256","indexed":false,"internalType":"uint256"}],"anonymous":false},{"type":"event","name":"AuctionStarted","inputs":[{"name":"token","type":"address","indexed":true,"internalType":"address"},{"name":"feesToBeAuctioned","type":"uint256","indexed":false,"internalType":"uint256"}],"anonymous":false},{"type":"event","name":"AuctionedTokensSentToWinner","inputs":[{"name":"winner","type":"address","indexed":true,"internalType":"address"},{"name":"beneficiary","type":"address","indexed":true,"internalType":"address"},{"name":"token","type":"address","indexed":true,"internalType":"address"},{"name":"reward","type":"uint256","indexed":false,"internalType":"uint256"}],"anonymous":false},{"type":"event","name":"BidReceived","inputs":[{"name":"bidder","type":"address","indexed":true,"internalType":"address"},{"name":"token","type":"address","indexed":true,"internalType":"address"},{"name":"previousBid","type":"uint96","indexed":false,"internalType":"uint96"},{"name":"newBid","type":"uint96","indexed":false,"internalType":"uint96"}],"anonymous":false},{"type":"event","name":"DividendsClaimed","inputs":[{"name":"staker","type":"address","indexed":true,"internalType":"address"},{"name":"amount","type":"uint96","indexed":false,"internalType":"uint96"}],"anonymous":false},{"type":"event","name":"DividendsPaid","inputs":[{"name":"amountETH","type":"uint96","indexed":false,"internalType":"uint96"},{"name":"amountStakedSIR","type":"uint80","indexed":false,"internalType":"uint80"}],"anonymous":false},{"type":"event","name":"RewardsClaimed","inputs":[{"name":"contributor","type":"address","indexed":true,"internalType":"address"},{"name":"vaultId","type":"uint256","indexed":true,"internalType":"uint256"},{"name":"rewards","type":"uint80","indexed":false,"internalType":"uint80"}],"anonymous":false},{"type":"event","name":"Staked","inputs":[{"name":"staker","type":"address","indexed":true,"internalType":"address"},{"name":"amount","type":"uint256","indexed":false,"internalType":"uint256"}],"anonymous":false},{"type":"event","name":"Transfer","inputs":[{"name":"from","type":"address","indexed":true,"internalType":"address"},{"name":"to","type":"address","indexed":true,"internalType":"address"},{"name":"amount","type":"uint256","indexed":false,"internalType":"uint256"}],"anonymous":false},{"type":"event","name":"Unstaked","inputs":[{"name":"staker","type":"address","indexed":true,"internalType":"address"},{"name":"amount","type":"uint256","indexed":false,"internalType":"uint256"}],"anonymous":false},{"type":"error","name":"AuctionIsNotOver","inputs":[]},{"type":"error","name":"BidTooLow","inputs":[]},{"type":"error","name":"InsufficientUnlockedStake","inputs":[]},{"type":"error","name":"InvalidSigner","inputs":[]},{"type":"error","name":"NewAuctionCannotStartYet","inputs":[]},{"type":"error","name":"NoAuction","inputs":[]},{"type":"error","name":"NoAuctionLot","inputs":[]},{"type":"error","name":"NoFeesCollected","inputs":[]},{"type":"error","name":"NotTheAuctionWinner","inputs":[]},{"type":"error","name":"PRBMath_MulDiv_Overflow","inputs":[{"name":"x","type":"uint256","internalType":"uint256"},{"name":"y","type":"uint256","internalType":"uint256"},{"name":"denominator","type":"uint256","internalType":"uint256"}]},{"type":"error","name":"PermitDeadlineExpired","inputs":[]}],"bytecode":{"object":"0x610140604052600c60c052600a805460ff19166001179055348015610022575f5ffd5b5060405161435738038061435783398101604081905261004191610160565b6001600160a01b03821660a052336080524660e052808261012b604080518082018252601c81527f53796e7468657469637320496d706c656d656e7465642052696768740000000060209182015281517f8b73c3c69bb8fe3d512ecc4cf759cc79239f7b179b0ffacaa9a75d522b39400f818301527f0d614900cceb97813954e30e34c71083d521e4e429b1329383c635cfe8875f20818401527fc89efdaa54c0f20c7adf612882df0950f5a951637e0307cdcb4c672f298b8bc660608201524660808201523060a0808301919091528351808303909101815260c0909101909252815191012090565b61010052506001600160a01b031661012052506101919050565b80516001600160a01b038116811461015b575f5ffd5b919050565b5f5f60408385031215610171575f5ffd5b61017a83610145565b915061018860208401610145565b90509250929050565b60805160a05160c05160e05161010051610120516141636101f45f395f610cf301525f610e8a01525f610d9101525f6104f601525f8181611d23015281816124d60152818161265601528181612b010152612bd801525f611c6601526141635ff3fe608060405260043610610212575f3560e01c80634b0ee02a116101175780639da16323116100ac578063c4d66de81161007c578063d505accf11610062578063d505accf146107b2578063dd62ed3e146107d1578063e2505abf14610807575f5ffd5b8063c4d66de814610774578063d181af7a14610793575f5ffd5b80639da1632314610703578063a9059cbb14610722578063ac3dd85714610741578063bffecd8814610760575f5ffd5b806370a08231116100e757806370a082311461062f5780637ecebe001461067c57806395d89b41146106a7578063966f3424146106ef575f5ffd5b80634b0ee02a146105be5780634c24946b146105dd5780634e71d92d146105fc5780634f7a21d214610610575f5ffd5b806323b872dd116101a7578063313ce56711610177578063426233601161015d578063426233601461053e578063460028c914610580578063475fd05c1461059f575f5ffd5b8063313ce567146104e55780633644e5151461052a575f5ffd5b806323b872dd146104635780632ab4d052146104825780632c5a8e8614610496578063309295ee146104b7575f5ffd5b80630fb3bd93116101e25780630fb3bd931461030c578063138d052f1461034657806318160ddd1461035a5780631d59410a1461036e575f5ffd5b8063047fc9aa1461021d5780630490c71c1461024c57806306fdde0314610288578063095ea7b3146102dd575f5ffd5b3661021957005b5f5ffd5b348015610228575f5ffd5b5060025469ffffffffffffffffffff165b6040519081526020015b60405180910390f35b348015610257575f5ffd5b5061026b610266366004613be4565b610826565b6040516bffffffffffffffffffffffff9091168152602001610243565b348015610293575f5ffd5b506102d06040518060400160405280601c81526020017f53796e7468657469637320496d706c656d656e7465642052696768740000000081525081565b6040516102439190613bfd565b3480156102e8575f5ffd5b506102fc6102f7366004613c50565b610910565b6040519015158152602001610243565b348015610317575f5ffd5b5061032b610326366004613c78565b610988565b60405169ffffffffffffffffffff9091168152602001610243565b348015610351575f5ffd5b5061032b6109a2565b348015610365575f5ffd5b50610239610a1e565b348015610379575f5ffd5b50610416610388366004613be4565b60408051606080820183525f808352602080840182905292840181905273ffffffffffffffffffffffffffffffffffffffff9485168152600483528390208351918201845280549485168252740100000000000000000000000000000000000000009094046bffffffffffffffffffffffff169181019190915260019092015464ffffffffff169082015290565b60408051825173ffffffffffffffffffffffffffffffffffffffff1681526020808401516bffffffffffffffffffffffff16908201529181015164ffffffffff1690820152606001610243565b34801561046e575f5ffd5b506102fc61047d366004613c8f565b610a50565b34801561048d575f5ffd5b50610239610be2565b3480156104a1575f5ffd5b506104b56104b0366004613cd9565b610cdb565b005b3480156104c2575f5ffd5b506104cb610d4d565b60405168ffffffffffffffffff9091168152602001610243565b3480156104f0575f5ffd5b506105187f000000000000000000000000000000000000000000000000000000000000000081565b60405160ff9091168152602001610243565b348015610535575f5ffd5b50610239610d8e565b348015610549575f5ffd5b5061055d610558366004613be4565b610eac565b6040805169ffffffffffffffffffff938416815292909116602083015201610243565b34801561058b575f5ffd5b5061032b61059a366004613c78565b610eda565b3480156105aa575f5ffd5b506104b56105b9366004613cf4565b610fec565b3480156105c9575f5ffd5b506102396105d8366004613be4565b6111d9565b3480156105e8575f5ffd5b506104b56105f7366004613d3c565b611234565b348015610607575f5ffd5b5061026b6114d1565b34801561061b575f5ffd5b506104b561062a366004613d3c565b61171f565b34801561063a575f5ffd5b50610239610649366004613be4565b73ffffffffffffffffffffffffffffffffffffffff165f9081526005602052604090205469ffffffffffffffffffff1690565b348015610687575f5ffd5b50610239610696366004613be4565b60086020525f908152604090205481565b3480156106b2575f5ffd5b506102d06040518060400160405280600381526020017f534952000000000000000000000000000000000000000000000000000000000081525081565b3480156106fa575f5ffd5b5061032b611976565b34801561070e575f5ffd5b5061032b61071d366004613be4565b61198d565b34801561072d575f5ffd5b506102fc61073c366004613c50565b611ace565b34801561074c575f5ffd5b5061026b61075b366004613d3c565b611bae565b34801561076b575f5ffd5b506104cb611bc0565b34801561077f575f5ffd5b506104b561078e366004613be4565b611c30565b34801561079e575f5ffd5b506102396107ad366004613be4565b611d0e565b3480156107bd575f5ffd5b506104b56107cc366004613d57565b61211c565b3480156107dc575f5ffd5b506102396107eb366004613cf4565b600760209081525f928352604080842090915290825290205481565b348015610812575f5ffd5b506104b5610821366004613dc4565b6123d5565b73ffffffffffffffffffffffffffffffffffffffff81165f81815260056020908152604080832081518083018352905469ffffffffffffffffffff80821683526a0100000000000000000000918290046bffffffffffffffffffffffff16838601528351808501855260018054808416835284900475ffffffffffffffffffffffffffffffffffffffffffff9081168389015298885260068752858820865160808101885281548086168252869004909a16978a019790975295909501549081169387019390935290910464ffffffffff166060850152919261090a929190612818565b92915050565b335f81815260076020908152604080832073ffffffffffffffffffffffffffffffffffffffff8716808552925280832085905551919290917f8c5be1e5ebec7d5bd14f71427d1e84f3dd0314c0f7b2291e5b200ac8c7c3b925906109779086815260200190565b60405180910390a350600192915050565b5f61099282610eda565b905061099d8161171f565b919050565b600a545f9060ff166109b2575f5ffd5b6109bb3361198d565b90505f8169ffffffffffffffffffff16116109d4575f5ffd5b6109de3382612871565b335f90815260096020526040902080547fffffffffffffffffffffffffffffffffffffffffffffffffffffff0000000000164264ffffffffff1617905590565b6002546001545f91610a3f9169ffffffffffffffffffff9182169116613e36565b69ffffffffffffffffffff16905090565b73ffffffffffffffffffffffffffffffffffffffff83165f9081526007602090815260408083203384529091528120547fffffffffffffffffffffffffffffffffffffffffffffffffffffffffffffffff8114610ae257610ab18382613e58565b73ffffffffffffffffffffffffffffffffffffffff86165f9081526007602090815260408083203384529091529020555b73ffffffffffffffffffffffffffffffffffffffff85165f9081526005602052604090205469ffffffffffffffffffff1680841115610b1f575f5ffd5b73ffffffffffffffffffffffffffffffffffffffff8087165f81815260056020526040808220805469ffffffffffffffffffff8a880381167fffffffffffffffffffffffffffffffffffffffffffff0000000000000000000092831617909255948a168084529282902080548083168b01909216919095161790935591517fddf252ad1be2c89b69c2b068fc378daa952ba7f163c4a11628f55a4df523b3ef90610bcc9088815260200190565b60405180910390a36001925050505b9392505050565b5f5f5f9054906101000a900473ffffffffffffffffffffffffffffffffffffffff1673ffffffffffffffffffffffffffffffffffffffff1663410cd41a6040518163ffffffff1660e01b8152600401602060405180830381865afa158015610c4c573d5f5f3e3d5ffd5b505050506040513d601f19601f82011682018060405250810190610c709190613e6b565b610c819064ffffffffff1642613e58565b6301e133806001610c94600c600a613fb0565b610ca29063781a75c0613fbe565b610cac9190613e58565b610cb69190614002565b610cc1906001614033565b68ffffffffffffffffff16610cd69190613fbe565b905090565b3373ffffffffffffffffffffffffffffffffffffffff7f00000000000000000000000000000000000000000000000000000000000000001614610d1c575f5ffd5b600a80547fffffffffffffffffffffffffffffffffffffffffffffffffffffffffffffff0016911515919091179055565b5f6301e133806001610d61600c600a613fb0565b610d6f9063781a75c0613fbe565b610d799190613e58565b610d839190614002565b610cd6906001614033565b5f7f00000000000000000000000000000000000000000000000000000000000000004614610e875750604080518082018252601c81527f53796e7468657469637320496d706c656d656e7465642052696768740000000060209182015281517f8b73c3c69bb8fe3d512ecc4cf759cc79239f7b179b0ffacaa9a75d522b39400f818301527f0d614900cceb97813954e30e34c71083d521e4e429b1329383c635cfe8875f20818401527fc89efdaa54c0f20c7adf612882df0950f5a951637e0307cdcb4c672f298b8bc660608201524660808201523060a0808301919091528351808303909101815260c0909101909252815191012090565b507f000000000000000000000000000000000000000000000000000000000000000090565b5f5f5f610eb884612922565b60408101518151919250610ecb91614054565b81604001519250925050915091565b600a545f9060ff16610eea575f5ffd5b5f546040517f777b1d430000000000000000000000000000000000000000000000000000000081526004810184905233602482015273ffffffffffffffffffffffffffffffffffffffff9091169063777b1d43906044016020604051808303815f875af1158015610f5d573d5f5f3e3d5ffd5b505050506040513d601f19601f82011682018060405250810190610f819190614076565b90505f8169ffffffffffffffffffff1611610f9a575f5ffd5b610fa43382612871565b60405169ffffffffffffffffffff82168152829033907fcb4638e0a42946ee6211d74938270204aa9bfa787e57f01113f475d7c4539b6d9060200160405180910390a3919050565b73ffffffffffffffffffffffffffffffffffffffff8281165f90815260046020908152604091829020825160608101845281549485168152740100000000000000000000000000000000000000009094046bffffffffffffffffffffffff16918401919091526001015464ffffffffff16908201819052611071906201518090614091565b64ffffffffff164210156110b0576040517e175ba800000000000000000000000000000000000000000000000000000000815260040160405180910390fd5b805173ffffffffffffffffffffffffffffffffffffffff163314611100576040517f80f472e100000000000000000000000000000000000000000000000000000000815260040160405180910390fd5b73ffffffffffffffffffffffffffffffffffffffff8084165f908152600460209081526040822080549093169092559082015160035461114e91906bffffffffffffffffffffffff166140ae565b600380547fffffffffffffffffffffffffffffffffffffffff000000000000000000000000166bffffffffffffffffffffffff8316179055905061119181612aaa565b5061119d848385612d94565b6111d3576040517fa90c149f00000000000000000000000000000000000000000000000000000000815260040160405180910390fd5b50505050565b73ffffffffffffffffffffffffffffffffffffffff81165f9081526005602090815260408083205460069092528220546112229169ffffffffffffffffffff9081169116613e36565b69ffffffffffffffffffff1692915050565b335f81815260056020908152604080832081518083018352905469ffffffffffffffffffff80821683526a0100000000000000000000918290046bffffffffffffffffffffffff1683860152835180850190945260015490811684520475ffffffffffffffffffffffffffffffffffffffffffff169282019290925290929091906112be90612922565b90508060400151815f01510369ffffffffffffffffffff168469ffffffffffffffffffff16111561131b576040517f680eebb000000000000000000000000000000000000000000000000000000000815260040160405180910390fd5b604051806040016040528085855f01510169ffffffffffffffffffff168152602001611348858585612818565b6bffffffffffffffffffffffff908116909152335f81815260056020908152604080832086518154978401519096166a01000000000000000000009081027fffffffffffffffffffff0000000000000000000000000000000000000000000090981669ffffffffffffffffffff9788161797909717905586518a9003851687528782015175ffffffffffffffffffffffffffffffffffffffffffff9081168884019081528585526006845293829020885194519091168702938616939093178355868101516001938401805460608a015164ffffffffff169098027fffffffffffffffffffffffffffffffffff0000000000000000000000000000009098169187169190911796909617909555600280548086168b0186167fffffffffffffffffffffffffffffffffffffffffffff000000000000000000009182161790915587518354908b9003861691161790915592519187168252917f0f5bb82176feb1b5e747e28471aa92156a04d9f3ab9f45f28e2d704232b93f75910160405180910390a250505050565b6040805180820182526001805469ffffffffffffffffffff80821684526a01000000000000000000009182900475ffffffffffffffffffffffffffffffffffffffffffff908116602080870191909152335f818152600583528881208951808b018b52905480871682528790046bffffffffffffffffffffffff1681850152918152600683528881208951608081018b52815480881682528890049095169385019390935291909501549283169682019690965291900464ffffffffff1660608201526115a091908390612818565b335f81815260056020908152604080832080547fffffffffffffffffffff000000000000000000000000ffffffffffffffffffff908116909155868301516006845293829020805469ffffffffffffffffffff166a010000000000000000000075ffffffffffffffffffffffffffffffffffffffffffff9096168602179055600280549182166bffffffffffffffffffffffff92869004831688900383169095029490941790935551918416825292945090917fce98842d3995a36decbd0af8544d33045ef9cbcd477386c9c633dc8e13f2992d910160405180910390a26040515f90819033906bffffffffffffffffffffffff8616908381818185875af1925050503d805f81146116cd576040519150601f19603f3d011682016040523d82523d5f602084013e6116d2565b606091505b50915091508161171957806040517f08c379a00000000000000000000000000000000000000000000000000000000081526004016117109190613bfd565b60405180910390fd5b50505090565b335f81815260056020908152604080832081518083018352905469ffffffffffffffffffff80821683526a0100000000000000000000918290046bffffffffffffffffffffffff1683860152835180850190945260015490811684520475ffffffffffffffffffffffffffffffffffffffffffff169282019290925290929091906117a990612922565b90505f84845f01516117bb9190614054565b905060405180604001604052808269ffffffffffffffffffff1681526020016117e5868686612818565b6bffffffffffffffffffffffff908116909152335f81815260056020908152604080832086518154978401519096166a01000000000000000000009081027fffffffffffffffffffff0000000000000000000000000000000000000000000090981669ffffffffffffffffffff9788161797909717905587518b018516885287810180518c01861681528983015175ffffffffffffffffffffffffffffffffffffffffffff9081168a850190815286865260068552948390208a5195519091168802948716949094178455516001938401805460608b015164ffffffffff169098027fffffffffffffffffffffffffffffffffff0000000000000000000000000000009098169187169190911796909617909555600280548086168c900386167fffffffffffffffffffffffffffffffffffffffffffff000000000000000000009182161790915588518354908c01861691161790915592519188168252917f9e71bc8eea02a63969f509818f2dafb9254532904319f9dbda79b67bd34a5f3d910160405180910390a25050505050565b5f61197f6109a2565b905061198a8161171f565b90565b5f5f611998836130be565b66ffffffffffffff169050805f036119b257505f92915050565b5f5f5f9054906101000a900473ffffffffffffffffffffffffffffffffffffffff1673ffffffffffffffffffffffffffffffffffffffff1663410cd41a6040518163ffffffff1660e01b8152600401602060405180830381865afa158015611a1c573d5f5f3e3d5ffd5b505050506040513d601f19601f82011682018060405250810190611a409190613e6b565b73ffffffffffffffffffffffffffffffffffffffff85165f9081526009602052604090205490915064ffffffffff6305a39a80830181169116818110611a8b57505f95945050505050565b805f03611a9c575064ffffffffff82165b66ffffffffffffff651246b07ae2888502045f42841115611abd5742611abf565b835b92909203029695505050505050565b335f9081526005602052604081205469ffffffffffffffffffff1680831115611af5575f5ffd5b335f81815260056020908152604080832080547fffffffffffffffffffffffffffffffffffffffffffff0000000000000000000090811689880369ffffffffffffffffffff9081169190911790925573ffffffffffffffffffffffffffffffffffffffff8a168086529483902080549182169183168a01909216179055518681529192917fddf252ad1be2c89b69c2b068fc378daa952ba7f163c4a11628f55a4df523b3ef910160405180910390a35060019392505050565b5f611bb882611234565b61090a6114d1565b5f67016345785d8a00006301e133806001611bdd600c600a613fb0565b611beb9063781a75c0613fbe565b611bf59190613e58565b611bff9190614002565b611c0a906001614033565b611c269068ffffffffffffffffff1666f38a31408ae338613fbe565b610cd691906140d2565b6003546c01000000000000000000000000900460ff16158015611c8857503373ffffffffffffffffffffffffffffffffffffffff7f000000000000000000000000000000000000000000000000000000000000000016145b611c90575f5ffd5b5f805473ffffffffffffffffffffffffffffffffffffffff9092167fffffffffffffffffffffffff0000000000000000000000000000000000000000909216919091179055600380547fffffffffffffffffffffffffffffffffffffff00ffffffffffffffffffffffff166c01000000000000000000000000179055565b6003545f906bffffffffffffffffffffffff167f000000000000000000000000000000000000000000000000000000000000000073ffffffffffffffffffffffffffffffffffffffff9081169084161461203c5773ffffffffffffffffffffffffffffffffffffffff8381165f90815260046020908152604091829020825160608101845281549485168152740100000000000000000000000000000000000000009094046bffffffffffffffffffffffff16918401919091526001015464ffffffffff908116918301829052620d9170909101908116421015611e1e576040517f977a44ab00000000000000000000000000000000000000000000000000000000815260040160405180910390fd5b604080516060810182525f80825260208083018281524264ffffffffff90811685870190815273ffffffffffffffffffffffffffffffffffffffff8c8116865260048552969094209451915191909516740100000000000000000000000000000000000000006bffffffffffffffffffffffff928316021784559151600190930180547fffffffffffffffffffffffffffffffffffffffffffffffffffffff0000000000169390941692909217909255830151600380547fffffffffffffffffffffffffffffffffffffffff000000000000000000000000169190950391821617909355611f0b83612aaa565b50611f1785835f612d94565b505f546040517f164e68de00000000000000000000000000000000000000000000000000000000815273ffffffffffffffffffffffffffffffffffffffff87811660048301529091169063164e68de906024016020604051808303815f875af1158015611f86573d5f5f3e3d5ffd5b505050506040513d601f19601f82011682018060405250810190611faa91906140e5565b9350835f03611fe5576040517f8c887b1200000000000000000000000000000000000000000000000000000000815260040160405180910390fd5b8473ffffffffffffffffffffffffffffffffffffffff167fc087c4cdb16906b5ff7016a6bf927618f24ff32eb1de5e86eeaeb08b94831a688560405161202d91815260200190565b60405180910390a25050612116565b5f546040517f164e68de00000000000000000000000000000000000000000000000000000000815273ffffffffffffffffffffffffffffffffffffffff85811660048301529091169063164e68de906024016020604051808303815f875af11580156120aa573d5f5f3e3d5ffd5b505050506040513d601f19601f820116820180604052508101906120ce91906140e5565b91505f6120da82612aaa565b90508015612114576040517f8c887b1200000000000000000000000000000000000000000000000000000000815260040160405180910390fd5b505b50919050565b42841015612156576040517f05787bdf00000000000000000000000000000000000000000000000000000000815260040160405180910390fd5b5f6001612161610d8e565b73ffffffffffffffffffffffffffffffffffffffff8a81165f8181526008602090815260409182902080546001810190915582517f6e71edae12b1b97f4d1f60370fef10105fa2faae0126114a169c64845d6126c98184015280840194909452938d166060840152608083018c905260a083019390935260c08083018b90528151808403909101815260e0830190915280519201919091207f190100000000000000000000000000000000000000000000000000000000000061010083015261010282019290925261012281019190915261014201604080517fffffffffffffffffffffffffffffffffffffffffffffffffffffffffffffffe081840301815282825280516020918201205f84529083018083525260ff871690820152606081018590526080810184905260a0016020604051602081039080840390855afa1580156122af573d5f5f3e3d5ffd5b50506040517fffffffffffffffffffffffffffffffffffffffffffffffffffffffffffffffe0015191505073ffffffffffffffffffffffffffffffffffffffff8116158061232957508773ffffffffffffffffffffffffffffffffffffffff168173ffffffffffffffffffffffffffffffffffffffff1614155b15612360576040517f815e1d6400000000000000000000000000000000000000000000000000000000815260040160405180910390fd5b73ffffffffffffffffffffffffffffffffffffffff9081165f9081526007602090815260408083208a8516808552908352928190208990555188815291928a16917f8c5be1e5ebec7d5bd14f71427d1e84f3dd0314c0f7b2291e5b200ac8c7c3b925910160405180910390a350505050505050565b73ffffffffffffffffffffffffffffffffffffffff8281165f90815260046020908152604091829020825160608101845281549485168152740100000000000000000000000000000000000000009094046bffffffffffffffffffffffff16918401919091526001015464ffffffffff9081169183018290526201518090910116421061248e576040517f71d00de200000000000000000000000000000000000000000000000000000000815260040160405180910390fd5b6040517f23b872dd0000000000000000000000000000000000000000000000000000000081523360048201523060248201526bffffffffffffffffffffffff831660448201527f000000000000000000000000000000000000000000000000000000000000000073ffffffffffffffffffffffffffffffffffffffff16906323b872dd906064016020604051808303815f875af1158015612531573d5f5f3e3d5ffd5b505050506040513d601f19601f8201168201806040525081019061255591906140fc565b50805173ffffffffffffffffffffffffffffffffffffffff1633036125c057600380546bffffffffffffffffffffffff8082168501167fffffffffffffffffffffffffffffffffffffffff0000000000000000000000009091161790556020810151909101906126c4565b6020810151600380547fffffffffffffffffffffffffffffffffffffffff00000000000000000000000081168386036bffffffffffffffffffffffff9283160182161790915582516040517fa9059cbb00000000000000000000000000000000000000000000000000000000815273ffffffffffffffffffffffffffffffffffffffff91821660048201529190921660248201527f00000000000000000000000000000000000000000000000000000000000000009091169063a9059cbb906044016020604051808303815f875af115801561269e573d5f5f3e3d5ffd5b505050506040513d601f19601f820116820180604052508101906126c291906140fc565b505b80602001516bffffffffffffffffffffffff16826bffffffffffffffffffffffff161161271d576040517fa0d26eb600000000000000000000000000000000000000000000000000000000815260040160405180910390fd5b60408051606081018252338082526bffffffffffffffffffffffff85811660208085018281528787015164ffffffffff90811687890190815273ffffffffffffffffffffffffffffffffffffffff8c81165f818152600487528b90209951945188167401000000000000000000000000000000000000000002949091169390931788555160019097018054979091167fffffffffffffffffffffffffffffffffffffffffffffffffffffff00000000009097169690961790955586810151865193168352820152919290917f0aa963c9c96f25e87258ff077b609aab138a567d7617a8e86a21decf9e48984b910160405180910390a3505050565b6020830151815169ffffffffffffffffffff1615610bdb5781516020808401519085015175ffffffffffffffffffffffffffffffffffffffffffff9190031669ffffffffffffffffffff9091160260501c019392505050565b6002805469ffffffffffffffffffff808216840181167fffffffffffffffffffffffffffffffffffffffffffff000000000000000000009283161790925573ffffffffffffffffffffffffffffffffffffffff84165f81815260056020908152604080832080548088168901881696169590951790945592519385168452909290917fddf252ad1be2c89b69c2b068fc378daa952ba7f163c4a11628f55a4df523b3ef910160405180910390a35050565b60408051608080820183525f8083526020808401829052838501829052606093840182905273ffffffffffffffffffffffffffffffffffffffff86168252600681529084902084519283018552805469ffffffffffffffffffff80821685526a01000000000000000000009182900475ffffffffffffffffffffffffffffffffffffffffffff16938501939093526001909101549182169483019490945264ffffffffff428181169484019490945291939004168082039114806129f45750604082015169ffffffffffffffffffff16155b156129ff5750919050565b5f612a1f670de0b6b3a764000083026a0224e099ff736e1400000061331c565b905080680a688906bd8affffff811115612a3e575f6040850152612aa2565b670de0b6b3a7640000604082901b045f612a5782613333565b9050612a8e612a8982670de0b6b3a7640000896040015169ffffffffffffffffffff160261331c90919063ffffffff16565b613aa7565b69ffffffffffffffffffff16604087015250505b505050919050565b6040517f70a082310000000000000000000000000000000000000000000000000000000081523060048201525f9081906bffffffffffffffffffffffff84169073ffffffffffffffffffffffffffffffffffffffff7f000000000000000000000000000000000000000000000000000000000000000016906370a0823190602401602060405180830381865afa158015612b46573d5f5f3e3d5ffd5b505050506040513d601f19601f82011682018060405250810190612b6a91906140e5565b60025491900391506a010000000000000000000090046bffffffffffffffffffffffff16478190038083015f819003612ba95750600195945050505050565b6040517f2e1a7d4d000000000000000000000000000000000000000000000000000000008152600481018590527f000000000000000000000000000000000000000000000000000000000000000073ffffffffffffffffffffffffffffffffffffffff1690632e1a7d4d906024015f604051808303815f87803b158015612c2e575f5ffd5b505af1158015612c40573d5f5f3e3d5ffd5b50506040805180820190915260015469ffffffffffffffffffff81168083526a010000000000000000000090910475ffffffffffffffffffffffffffffffffffffffffffff1660208301529092505f039050612ca3575060019695505050505050565b805169ffffffffffffffffffff16605083901b81612cc357612cc3613fd5565b6020838101516001805469ffffffffffffffffffff9081166a01000000000000000000009690950490920175ffffffffffffffffffffffffffffffffffffffffffff16850293909317909255600280547fffffffffffffffffffff000000000000000000000000ffffffffffffffffffff168689016bffffffffffffffffffffffff90811690950217905583516040805194871685529216908301527fceeff233d57f794a3c1d09ca382d09c9ba3af56793651463ab500a81026fe5ce910160405180910390a15050505050919050565b5f82602001516bffffffffffffffffffffffff165f03612db557505f610bdb565b60405130602482015260609073ffffffffffffffffffffffffffffffffffffffff861690604401604080517fffffffffffffffffffffffffffffffffffffffffffffffffffffffffffffffe08184030181529181526020820180517bffffffffffffffffffffffffffffffffffffffffffffffffffffffff167f70a082310000000000000000000000000000000000000000000000000000000017905251612e5d9190614117565b5f604051808303815f865af19150503d805f8114612e96576040519150601f19603f3d011682016040523d82523d5f602084013e612e9b565b606091505b509092509050811580612eb057508051602014155b15612ebe575f915050610bdb565b5f81806020019051810190612ed391906140e5565b9050805f03612ee757600192505050610bdb565b73ffffffffffffffffffffffffffffffffffffffff8416612f0757845193505b60405173ffffffffffffffffffffffffffffffffffffffff858116602483015260448201839052871690606401604080517fffffffffffffffffffffffffffffffffffffffffffffffffffffffffffffffe08184030181529181526020820180517bffffffffffffffffffffffffffffffffffffffffffffffffffffffff167fa9059cbb0000000000000000000000000000000000000000000000000000000017905251612fb59190614117565b5f604051808303815f865af19150503d805f8114612fee576040519150601f19603f3d011682016040523d82523d5f602084013e612ff3565b606091505b50909350915082158061302257505f825111801561302257508180602001905181019061302091906140fc565b155b15613031575f92505050610bdb565b8573ffffffffffffffffffffffffffffffffffffffff168473ffffffffffffffffffffffffffffffffffffffff16865f015173ffffffffffffffffffffffffffffffffffffffff167f638925a05402dc748e2fafcb7b68924f5506e8b5c3c729a4a1fed16f89fd39b9846040516130aa91815260200190565b60405180910390a450600195945050505050565b5f7fffffffffffffffffffffffff6f08640914d3b078fc9a187a67d1e0efe16c46fa73ffffffffffffffffffffffffffffffffffffffff83160161310a5750665166658a4af5ec919050565b7fffffffffffffffffffffffffea2cb550abd98248283c987c65508e5ff5d3959b73ffffffffffffffffffffffffffffffffffffffff8316016131545750653e83e37ca410919050565b7fffffffffffffffffffffffff669aaf82e5aa433d96a3a745e904c827e64f5b2473ffffffffffffffffffffffffffffffffffffffff83160161319e57506514d6a1298c05919050565b7fffffffffffffffffffffffff689158bfd918d9aab249a805ab89c542f3c5f55773ffffffffffffffffffffffffffffffffffffffff8316016131e957506628b332c5257af6919050565b7fffffffffffffffffffffffffcb623c53046622532c2ff0e5103d68117ef734bc73ffffffffffffffffffffffffffffffffffffffff831601613234575066059feee6b6e51d919050565b7fffffffffffffffffffffffffc3bb32224956ff05d4a7a22d661fc2ed05bd6c4473ffffffffffffffffffffffffffffffffffffffff83160161327f5750663aa557f9229b10919050565b7fffffffffffffffffffffffff0c60291ae55277090b3195477d8d86300046dd9a73ffffffffffffffffffffffffffffffffffffffff8316016132ca5750660554c07c013887919050565b7fffffffffffffffffffffffff8f66868f3ae7ed23c5fef382fe4af1f2e823863873ffffffffffffffffffffffffffffffffffffffff8316016133155750663ff905d00ea654919050565b505f919050565b5f610bdb61198a84670de0b6b3a764000085613aba565b7780000000000000000000000000000000000000000000000067ff000000000000008216156134545767800000000000000082161561337b5768016a09e667f3bcc9090260401c5b67400000000000000082161561339a576801306fe0a31b7152df0260401c5b6720000000000000008216156133b9576801172b83c7d517adce0260401c5b6710000000000000008216156133d85768010b5586cf9890f62a0260401c5b6708000000000000008216156133f7576801059b0d31585743ae0260401c5b67040000000000000082161561341657680102c9a3e778060ee70260401c5b6702000000000000008216156134355768010163da9fb33356d80260401c5b67010000000000000082161561345457680100b1afa5abcbed610260401c5b66ff0000000000008216156135535766800000000000008216156134815768010058c86da1c09ea20260401c5b664000000000000082161561349f576801002c605e2e8cec500260401c5b66200000000000008216156134bd57680100162f3904051fa10260401c5b66100000000000008216156134db576801000b175effdc76ba0260401c5b66080000000000008216156134f957680100058ba01fb9f96d0260401c5b66040000000000008216156135175768010002c5cc37da94920260401c5b6602000000000000821615613535576801000162e525ee05470260401c5b66010000000000008216156135535768010000b17255775c040260401c5b65ff0000000000821615613649576580000000000082161561357e576801000058b91b5bc9ae0260401c5b6540000000000082161561359b57680100002c5c89d5ec6d0260401c5b652000000000008216156135b85768010000162e43f4f8310260401c5b651000000000008216156135d557680100000b1721bcfc9a0260401c5b650800000000008216156135f25768010000058b90cf1e6e0260401c5b6504000000000082161561360f576801000002c5c863b73f0260401c5b6502000000000082161561362c57680100000162e430e5a20260401c5b65010000000000821615613649576801000000b1721835510260401c5b64ff000000008216156137365764800000000082161561367257680100000058b90c0b490260401c5b64400000000082161561368e5768010000002c5c8601cc0260401c5b6420000000008216156136aa576801000000162e42fff00260401c5b6410000000008216156136c65768010000000b17217fbb0260401c5b6408000000008216156136e2576801000000058b90bfce0260401c5b6404000000008216156136fe57680100000002c5c85fe30260401c5b64020000000082161561371a5768010000000162e42ff10260401c5b64010000000082161561373657680100000000b17217f80260401c5b63ff00000082161561381a57638000000082161561375d5768010000000058b90bfc0260401c5b6340000000821615613778576801000000002c5c85fe0260401c5b632000000082161561379357680100000000162e42ff0260401c5b63100000008216156137ae576801000000000b17217f0260401c5b63080000008216156137c957680100000000058b90c00260401c5b63040000008216156137e45768010000000002c5c8600260401c5b63020000008216156137ff576801000000000162e4300260401c5b630100000082161561381a5768010000000000b172180260401c5b62ff00008216156138f5576280000082161561383f576801000000000058b90c0260401c5b6240000082161561385957680100000000002c5c860260401c5b622000008216156138735768010000000000162e430260401c5b6210000082161561388d57680100000000000b17210260401c5b620800008216156138a75768010000000000058b910260401c5b620400008216156138c1576801000000000002c5c80260401c5b620200008216156138db57680100000000000162e40260401c5b620100008216156138f5576801000000000000b1720260401c5b61ff008216156139c75761800082161561391857680100000000000058b90260401c5b6140008216156139315768010000000000002c5d0260401c5b61200082161561394a576801000000000000162e0260401c5b6110008216156139635768010000000000000b170260401c5b61080082161561397c576801000000000000058c0260401c5b61040082161561399557680100000000000002c60260401c5b6102008216156139ae57680100000000000001630260401c5b6101008216156139c757680100000000000000b10260401c5b60ff821615613a905760808216156139e857680100000000000000590260401c5b6040821615613a00576801000000000000002c0260401c5b6020821615613a1857680100000000000000160260401c5b6010821615613a30576801000000000000000b0260401c5b6008821615613a4857680100000000000000060260401c5b6004821615613a6057680100000000000000030260401c5b6002821615613a7857680100000000000000010260401c5b6001821615613a9057680100000000000000010260401c5b670de0b6b3a76400000260409190911c60bf031c90565b5f61090a670de0b6b3a7640000836140d2565b5f80807fffffffffffffffffffffffffffffffffffffffffffffffffffffffffffffffff858709858702925082811083820303915050805f03613b1057838281613b0657613b06613fd5565b0492505050610bdb565b838110613b5a576040517f63a05778000000000000000000000000000000000000000000000000000000008152600481018790526024810186905260448101859052606401611710565b5f8486880960026001871981018816978890046003810283188082028403028082028403028082028403028082028403028082028403029081029092039091025f889003889004909101858311909403939093029303949094049190911702949350505050565b803573ffffffffffffffffffffffffffffffffffffffff8116811461099d575f5ffd5b5f60208284031215613bf4575f5ffd5b610bdb82613bc1565b602081525f82518060208401528060208501604085015e5f6040828501015260407fffffffffffffffffffffffffffffffffffffffffffffffffffffffffffffffe0601f83011684010191505092915050565b5f5f60408385031215613c61575f5ffd5b613c6a83613bc1565b946020939093013593505050565b5f60208284031215613c88575f5ffd5b5035919050565b5f5f5f60608486031215613ca1575f5ffd5b613caa84613bc1565b9250613cb860208501613bc1565b929592945050506040919091013590565b8015158114613cd6575f5ffd5b50565b5f60208284031215613ce9575f5ffd5b8135610bdb81613cc9565b5f5f60408385031215613d05575f5ffd5b613d0e83613bc1565b9150613d1c60208401613bc1565b90509250929050565b69ffffffffffffffffffff81168114613cd6575f5ffd5b5f60208284031215613d4c575f5ffd5b8135610bdb81613d25565b5f5f5f5f5f5f5f60e0888a031215613d6d575f5ffd5b613d7688613bc1565b9650613d8460208901613bc1565b95506040880135945060608801359350608088013560ff81168114613da7575f5ffd5b9699959850939692959460a0840135945060c09093013592915050565b5f5f60408385031215613dd5575f5ffd5b613dde83613bc1565b915060208301356bffffffffffffffffffffffff81168114613dfe575f5ffd5b809150509250929050565b7f4e487b71000000000000000000000000000000000000000000000000000000005f52601160045260245ffd5b69ffffffffffffffffffff818116838216019081111561090a5761090a613e09565b8181038181111561090a5761090a613e09565b5f60208284031215613e7b575f5ffd5b815164ffffffffff81168114610bdb575f5ffd5b6001815b6001841115613eca57808504811115613eae57613eae613e09565b6001841615613ebc57908102905b60019390931c928002613e93565b935093915050565b5f82613ee05750600161090a565b81613eec57505f61090a565b8160018114613f025760028114613f0c57613f28565b600191505061090a565b60ff841115613f1d57613f1d613e09565b50506001821b61090a565b5060208310610133831016604e8410600b8410161715613f4b575081810a61090a565b613f767fffffffffffffffffffffffffffffffffffffffffffffffffffffffffffffffff8484613e8f565b807fffffffffffffffffffffffffffffffffffffffffffffffffffffffffffffffff04821115613fa857613fa8613e09565b029392505050565b5f610bdb60ff841683613ed2565b808202811582820484141761090a5761090a613e09565b7f4e487b71000000000000000000000000000000000000000000000000000000005f52601260045260245ffd5b5f68ffffffffffffffffff83168061401c5761401c613fd5565b8068ffffffffffffffffff84160491505092915050565b68ffffffffffffffffff818116838216019081111561090a5761090a613e09565b69ffffffffffffffffffff828116828216039081111561090a5761090a613e09565b5f60208284031215614086575f5ffd5b8151610bdb81613d25565b64ffffffffff818116838216019081111561090a5761090a613e09565b6bffffffffffffffffffffffff828116828216039081111561090a5761090a613e09565b5f826140e0576140e0613fd5565b500490565b5f602082840312156140f5575f5ffd5b5051919050565b5f6020828403121561410c575f5ffd5b8151610bdb81613cc9565b5f82518060208501845e5f92019182525091905056fea26469706673582212206e220613bc83288cd148588fa23dacffbc82f0389fb2632d18a855589472f05f64736f6c634300081c0033","linkReferences":{}},"methodIdentifiers":{"DOMAIN_SEPARATOR()":"3644e515","ISSUANCE_RATE()":"309295ee","LP_ISSUANCE_FIRST_3_YEARS()":"bffecd88","allowMinting(bool)":"2c5a8e86","allowance(address,address)":"dd62ed3e","approve(address,uint256)":"095ea7b3","auctions(address)":"1d59410a","balanceOf(address)":"70a08231","bid(address,uint96)":"e2505abf","claim()":"4e71d92d","collectFeesAndStartAuction(address)":"d181af7a","contributorMint()":"138d052f","contributorMintAndStake()":"966f3424","contributorUnclaimedSIR(address)":"9da16323","decimals()":"313ce567","getAuctionLot(address,address)":"475fd05c","initialize(address)":"c4d66de8","lPerMint(uint256)":"460028c9","lPerMintAndStake(uint256)":"0fb3bd93","maxTotalSupply()":"2ab4d052","name()":"06fdde03","nonces(address)":"7ecebe00","permit(address,address,uint256,uint256,uint8,bytes32,bytes32)":"d505accf","stake(uint80)":"4f7a21d2","stakeOf(address)":"42623360","supply()":"047fc9aa","symbol()":"95d89b41","totalBalanceOf(address)":"4b0ee02a","totalSupply()":"18160ddd","transfer(address,uint256)":"a9059cbb","transferFrom(address,address,uint256)":"23b872dd","unclaimedDividends(address)":"0490c71c","unstake(uint80)":"4c24946b","unstakeAndClaim(uint80)":"ac3dd857"},"id":92}