{"abi":[{"type":"constructor","inputs":[{"name":"weth","type":"address","internalType":"address"}],"stateMutability":"nonpayable"},{"type":"receive","stateMutability":"payable"},{"type":"function","name":"DOMAIN_SEPARATOR","inputs":[],"outputs":[{"name":"","type":"bytes32","internalType":"bytes32"}],"stateMutability":"view"},{"type":"function","name":"allowance","inputs":[{"name":"","type":"address","internalType":"address"},{"name":"","type":"address","internalType":"address"}],"outputs":[{"name":"","type":"uint256","internalType":"uint256"}],"stateMutability":"view"},{"type":"function","name":"approve","inputs":[{"name":"spender","type":"address","internalType":"address"},{"name":"amount","type":"uint256","internalType":"uint256"}],"outputs":[{"name":"","type":"bool","internalType":"bool"}],"stateMutability":"nonpayable"},{"type":"function","name":"auctions","inputs":[{"name":"token","type":"address","internalType":"address"}],"outputs":[{"name":"","type":"tuple","internalType":"struct SirStructs.Auction","components":[{"name":"bidder","type":"address","internalType":"address"},{"name":"bid","type":"uint96","internalType":"uint96"},{"name":"startTime","type":"uint40","internalType":"uint40"}]}],"stateMutability":"view"},{"type":"function","name":"balanceOf","inputs":[{"name":"account","type":"address","internalType":"address"}],"outputs":[{"name":"","type":"uint256","internalType":"uint256"}],"stateMutability":"view"},{"type":"function","name":"bid","inputs":[{"name":"token","type":"address","internalType":"address"}],"outputs":[],"stateMutability":"nonpayable"},{"type":"function","name":"claim","inputs":[],"outputs":[{"name":"dividends_","type":"uint96","internalType":"uint96"}],"stateMutability":"nonpayable"},{"type":"function","name":"collectFeesAndStartAuction","inputs":[{"name":"token","type":"address","internalType":"address"}],"outputs":[{"name":"totalFeesToStakers","type":"uint112","internalType":"uint112"}],"stateMutability":"nonpayable"},{"type":"function","name":"contributorMint","inputs":[],"outputs":[{"name":"rewards","type":"uint80","internalType":"uint80"}],"stateMutability":"nonpayable"},{"type":"function","name":"contributorUnclaimedSIR","inputs":[{"name":"contributor","type":"address","internalType":"address"}],"outputs":[{"name":"","type":"uint80","internalType":"uint80"}],"stateMutability":"view"},{"type":"function","name":"decimals","inputs":[],"outputs":[{"name":"","type":"uint8","internalType":"uint8"}],"stateMutability":"view"},{"type":"function","name":"dividends","inputs":[{"name":"staker","type":"address","internalType":"address"}],"outputs":[{"name":"","type":"uint96","internalType":"uint96"}],"stateMutability":"view"},{"type":"function","name":"initialize","inputs":[{"name":"vault_","type":"address","internalType":"address"}],"outputs":[],"stateMutability":"nonpayable"},{"type":"function","name":"lPerMint","inputs":[{"name":"vaultId","type":"uint256","internalType":"uint256"}],"outputs":[{"name":"rewards","type":"uint80","internalType":"uint80"}],"stateMutability":"nonpayable"},{"type":"function","name":"maxTotalSupply","inputs":[],"outputs":[{"name":"","type":"uint256","internalType":"uint256"}],"stateMutability":"view"},{"type":"function","name":"name","inputs":[],"outputs":[{"name":"","type":"string","internalType":"string"}],"stateMutability":"view"},{"type":"function","name":"nonces","inputs":[{"name":"","type":"address","internalType":"address"}],"outputs":[{"name":"","type":"uint256","internalType":"uint256"}],"stateMutability":"view"},{"type":"function","name":"payAuctionWinner","inputs":[{"name":"token","type":"address","internalType":"address"}],"outputs":[],"stateMutability":"nonpayable"},{"type":"function","name":"permit","inputs":[{"name":"owner","type":"address","internalType":"address"},{"name":"spender","type":"address","internalType":"address"},{"name":"value","type":"uint256","internalType":"uint256"},{"name":"deadline","type":"uint256","internalType":"uint256"},{"name":"v","type":"uint8","internalType":"uint8"},{"name":"r","type":"bytes32","internalType":"bytes32"},{"name":"s","type":"bytes32","internalType":"bytes32"}],"outputs":[],"stateMutability":"nonpayable"},{"type":"function","name":"stake","inputs":[{"name":"amount","type":"uint80","internalType":"uint80"}],"outputs":[],"stateMutability":"nonpayable"},{"type":"function","name":"stakersParams","inputs":[{"name":"staker","type":"address","internalType":"address"}],"outputs":[{"name":"","type":"tuple","internalType":"struct SirStructs.StakingParams","components":[{"name":"stake","type":"uint80","internalType":"uint80"},{"name":"cumulativeETHPerSIRx80","type":"uint176","internalType":"uint176"}]}],"stateMutability":"view"},{"type":"function","name":"supply","inputs":[],"outputs":[{"name":"","type":"uint256","internalType":"uint256"}],"stateMutability":"view"},{"type":"function","name":"symbol","inputs":[],"outputs":[{"name":"","type":"string","internalType":"string"}],"stateMutability":"view"},{"type":"function","name":"totalBalanceOf","inputs":[{"name":"account","type":"address","internalType":"address"}],"outputs":[{"name":"","type":"uint256","internalType":"uint256"}],"stateMutability":"view"},{"type":"function","name":"totalSupply","inputs":[],"outputs":[{"name":"","type":"uint256","internalType":"uint256"}],"stateMutability":"view"},{"type":"function","name":"transfer","inputs":[{"name":"to","type":"address","internalType":"address"},{"name":"amount","type":"uint256","internalType":"uint256"}],"outputs":[{"name":"","type":"bool","internalType":"bool"}],"stateMutability":"nonpayable"},{"type":"function","name":"transferFrom","inputs":[{"name":"from","type":"address","internalType":"address"},{"name":"to","type":"address","internalType":"address"},{"name":"amount","type":"uint256","internalType":"uint256"}],"outputs":[{"name":"","type":"bool","internalType":"bool"}],"stateMutability":"nonpayable"},{"type":"function","name":"unstake","inputs":[{"name":"amount","type":"uint80","internalType":"uint80"}],"outputs":[],"stateMutability":"nonpayable"},{"type":"function","name":"unstakeAndClaim","inputs":[{"name":"amount","type":"uint80","internalType":"uint80"}],"outputs":[{"name":"dividends_","type":"uint96","internalType":"uint96"}],"stateMutability":"nonpayable"},{"type":"event","name":"Approval","inputs":[{"name":"owner","type":"address","indexed":true,"internalType":"address"},{"name":"spender","type":"address","indexed":true,"internalType":"address"},{"name":"amount","type":"uint256","indexed":false,"internalType":"uint256"}],"anonymous":false},{"type":"event","name":"AuctionStarted","inputs":[{"name":"token","type":"address","indexed":true,"internalType":"address"}],"anonymous":false},{"type":"event","name":"AuctionedTokensSentToWinner","inputs":[{"name":"winner","type":"address","indexed":true,"internalType":"address"},{"name":"token","type":"address","indexed":true,"internalType":"address"},{"name":"reward","type":"uint256","indexed":false,"internalType":"uint256"}],"anonymous":false},{"type":"event","name":"BidReceived","inputs":[{"name":"bidder","type":"address","indexed":true,"internalType":"address"},{"name":"token","type":"address","indexed":true,"internalType":"address"},{"name":"previousBid","type":"uint96","indexed":false,"internalType":"uint96"},{"name":"newBid","type":"uint96","indexed":false,"internalType":"uint96"}],"anonymous":false},{"type":"event","name":"DividendsClaimed","inputs":[{"name":"staker","type":"address","indexed":true,"internalType":"address"},{"name":"amount","type":"uint96","indexed":false,"internalType":"uint96"}],"anonymous":false},{"type":"event","name":"DividendsPaid","inputs":[{"name":"amountETH","type":"uint256","indexed":false,"internalType":"uint256"}],"anonymous":false},{"type":"event","name":"Staked","inputs":[{"name":"staker","type":"address","indexed":true,"internalType":"address"},{"name":"amount","type":"uint256","indexed":false,"internalType":"uint256"}],"anonymous":false},{"type":"event","name":"Transfer","inputs":[{"name":"from","type":"address","indexed":true,"internalType":"address"},{"name":"to","type":"address","indexed":true,"internalType":"address"},{"name":"amount","type":"uint256","indexed":false,"internalType":"uint256"}],"anonymous":false},{"type":"event","name":"Unstaked","inputs":[{"name":"staker","type":"address","indexed":true,"internalType":"address"},{"name":"amount","type":"uint256","indexed":false,"internalType":"uint256"}],"anonymous":false},{"type":"error","name":"AuctionIsNotOver","inputs":[]},{"type":"error","name":"BidTooLow","inputs":[]},{"type":"error","name":"InvalidSigner","inputs":[]},{"type":"error","name":"NewAuctionCannotStartYet","inputs":[]},{"type":"error","name":"NoAuction","inputs":[]},{"type":"error","name":"NoAuctionLot","inputs":[]},{"type":"error","name":"NoFeesCollectedYet","inputs":[]},{"type":"error","name":"PermitDeadlineExpired","inputs":[]}],"bytecode":{"object":"0x610120604052600c60c05234801561001657600080fd5b5060405161368938038061368983398101604081905261003591610105565b336080526001600160a01b03811660a0524660e0528061005361005f565b61010052506101359050565b60007f8b73c3c69bb8fe3d512ecc4cf759cc79239f7b179b0ffacaa9a75d522b39400f6040518060600160405280602581526020016136646025913980516020918201206040805192830193909352918101919091527fc89efdaa54c0f20c7adf612882df0950f5a951637e0307cdcb4c672f298b8bc660608201524660808201523060a082015260c00160405160208183030381529060405280519060200120905090565b60006020828403121561011757600080fd5b81516001600160a01b038116811461012e57600080fd5b9392505050565b60805160a05160c05160e051610100516134ba6101aa6000396000610d8b01526000610d5b015260006103d70152600081816116ca0152818161183501528181611d8901528181612059015281816120f60152818161217d015281816125ab015261268501526000611cad01526134ba6000f3fe6080604052600436106101c65760003560e01c80634c24946b116100f75780639cf5453d11610095578063c4d66de811610064578063c4d66de814610735578063d181af7a14610755578063d505accf14610794578063dd62ed3e146107b457600080fd5b80639cf5453d146106b55780639da16323146106d5578063a9059cbb146106f5578063ac3dd8571461071557600080fd5b806368306e43116100d157806368306e43146105d057806370a08231146105f05780637ecebe001461063f57806395d89b411461066c57600080fd5b80634c24946b1461055e5780634e71d92d1461057e5780634f7a21d2146105b057600080fd5b80632ab4d052116101645780633644e5151161013e5780633644e5151461042d578063460028c9146104425780634a62c384146104625780634b0ee02a1461053e57600080fd5b80632ab4d052146103b0578063313ce567146103c5578063331ef1a51461040b57600080fd5b8063138d052f116101a0578063138d052f1461025457806318160ddd146102845780631d59410a1461029957806323b872dd1461039057600080fd5b8063047fc9aa146101d257806306fdde0314610202578063095ea7b31461022457600080fd5b366101cd57005b600080fd5b3480156101de57600080fd5b5060025469ffffffffffffffffffff165b6040519081526020015b60405180910390f35b34801561020e57600080fd5b506102176107ec565b6040516101f99190612eed565b34801561023057600080fd5b5061024461023f366004612f62565b610808565b60405190151581526020016101f9565b34801561026057600080fd5b50610269610882565b60405169ffffffffffffffffffff90911681526020016101f9565b34801561029057600080fd5b506101ef6108f3565b3480156102a557600080fd5b506103436102b4366004612f8c565b60408051606080820183526000808352602080840182905292840181905273ffffffffffffffffffffffffffffffffffffffff9485168152600483528390208351918201845280549485168252740100000000000000000000000000000000000000009094046bffffffffffffffffffffffff169181019190915260019092015464ffffffffff169082015290565b60408051825173ffffffffffffffffffffffffffffffffffffffff1681526020808401516bffffffffffffffffffffffff16908201529181015164ffffffffff16908201526060016101f9565b34801561039c57600080fd5b506102446103ab366004612fa7565b610926565b3480156103bc57600080fd5b506101ef610abd565b3480156103d157600080fd5b506103f97f000000000000000000000000000000000000000000000000000000000000000081565b60405160ff90911681526020016101f9565b34801561041757600080fd5b5061042b610426366004612f8c565b610bba565b005b34801561043957600080fd5b506101ef610d57565b34801561044e57600080fd5b5061026961045d366004612fe4565b610dad565b34801561046e57600080fd5b506104ff61047d366004612f8c565b60408051808201909152600080825260208201525073ffffffffffffffffffffffffffffffffffffffff1660009081526006602090815260409182902082518084019093525469ffffffffffffffffffff811683526a0100000000000000000000900475ffffffffffffffffffffffffffffffffffffffffffff169082015290565b60408051825169ffffffffffffffffffff16815260209283015175ffffffffffffffffffffffffffffffffffffffffffff1692810192909252016101f9565b34801561054a57600080fd5b506101ef610559366004612f8c565b610e73565b34801561056a57600080fd5b5061042b610579366004613018565b610ecf565b34801561058a57600080fd5b5061059361110c565b6040516bffffffffffffffffffffffff90911681526020016101f9565b3480156105bc57600080fd5b5061042b6105cb366004613018565b6112da565b3480156105dc57600080fd5b506105936105eb366004612f8c565b611506565b3480156105fc57600080fd5b506101ef61060b366004612f8c565b73ffffffffffffffffffffffffffffffffffffffff1660009081526005602052604090205469ffffffffffffffffffff1690565b34801561064b57600080fd5b506101ef61065a366004612f8c565b60086020526000908152604090205481565b34801561067857600080fd5b506102176040518060400160405280600381526020017f534952000000000000000000000000000000000000000000000000000000000081525081565b3480156106c157600080fd5b5061042b6106d0366004612f8c565b6115c9565b3480156106e157600080fd5b506102696106f0366004612f8c565b611a35565b34801561070157600080fd5b50610244610710366004612f62565b611b81565b34801561072157600080fd5b50610593610730366004613018565b611c64565b34801561074157600080fd5b5061042b610750366004612f8c565b611c77565b34801561076157600080fd5b50610775610770366004612f8c565b611d57565b6040516dffffffffffffffffffffffffffff90911681526020016101f9565b3480156107a057600080fd5b5061042b6107af366004613035565b6121e2565b3480156107c057600080fd5b506101ef6107cf3660046130a8565b600760209081526000928352604080842090915290825290205481565b6040518060600160405280602581526020016134606025913981565b33600081815260076020908152604080832073ffffffffffffffffffffffffffffffffffffffff8716808552925280832085905551919290917f8c5be1e5ebec7d5bd14f71427d1e84f3dd0314c0f7b2291e5b200ac8c7c3b925906108709086815260200190565b60405180910390a35060015b92915050565b600061088d33611a35565b905060008169ffffffffffffffffffff16116108a857600080fd5b6108b233826124a1565b33600090815260096020526040902080547fffffffffffffffffffffffffffffffffffffffffffffffffffffff0000000000164264ffffffffff1617905590565b6002546001546000916109159169ffffffffffffffffffff918216911661310a565b69ffffffffffffffffffff16905090565b73ffffffffffffffffffffffffffffffffffffffff831660009081526007602090815260408083203384529091528120547fffffffffffffffffffffffffffffffffffffffffffffffffffffffffffffffff81146109ba57610988838261312c565b73ffffffffffffffffffffffffffffffffffffffff861660009081526007602090815260408083203384529091529020555b73ffffffffffffffffffffffffffffffffffffffff851660009081526005602052604090205469ffffffffffffffffffff16808411156109f957600080fd5b73ffffffffffffffffffffffffffffffffffffffff808716600081815260056020526040808220805469ffffffffffffffffffff8a880381167fffffffffffffffffffffffffffffffffffffffffffff0000000000000000000092831617909255948a168084529282902080548083168b01909216919095161790935591517fddf252ad1be2c89b69c2b068fc378daa952ba7f163c4a11628f55a4df523b3ef90610aa79088815260200190565b60405180910390a36001925050505b9392505050565b60008060009054906101000a900473ffffffffffffffffffffffffffffffffffffffff1673ffffffffffffffffffffffffffffffffffffffff1663410cd41a6040518163ffffffff1660e01b8152600401602060405180830381865afa158015610b2b573d6000803e3d6000fd5b505050506040513d601f19601f82011682018060405250810190610b4f919061313f565b610b609064ffffffffff164261312c565b6301e133806001610b73600c600a613289565b610b819063781a75c0613298565b610b8b919061312c565b610b9591906132de565b610ba0906001613337565b68ffffffffffffffffff16610bb59190613298565b905090565b73ffffffffffffffffffffffffffffffffffffffff818116600090815260046020908152604091829020825160608101845281549485168152740100000000000000000000000000000000000000009094046bffffffffffffffffffffffff16918401919091526001015464ffffffffff16908201819052610c40906201518090613358565b64ffffffffff16421015610c7f576040517e175ba800000000000000000000000000000000000000000000000000000000815260040160405180910390fd5b73ffffffffffffffffffffffffffffffffffffffff80831660009081526004602090815260408220805490931690925590820151600354610cce91906bffffffffffffffffffffffff16613375565b600380547fffffffffffffffffffffffffffffffffffffffff000000000000000000000000166bffffffffffffffffffffffff83161790559050610d1181612553565b50610d1c838361283d565b610d52576040517fa90c149f00000000000000000000000000000000000000000000000000000000815260040160405180910390fd5b505050565b60007f00000000000000000000000000000000000000000000000000000000000000004614610d8857610bb5612b1f565b507f000000000000000000000000000000000000000000000000000000000000000090565b600080546040517f777b1d430000000000000000000000000000000000000000000000000000000081526004810184905233602482015273ffffffffffffffffffffffffffffffffffffffff9091169063777b1d43906044016020604051808303816000875af1158015610e25573d6000803e3d6000fd5b505050506040513d601f19601f82011682018060405250810190610e499190613399565b905060008169ffffffffffffffffffff1611610e6457600080fd5b610e6e33826124a1565b919050565b73ffffffffffffffffffffffffffffffffffffffff81166000908152600560209081526040808320546006909252822054610ebd9169ffffffffffffffffffff908116911661310a565b69ffffffffffffffffffff1692915050565b33600081815260056020908152604080832081518083018352905469ffffffffffffffffffff80821683526bffffffffffffffffffffffff6a010000000000000000000092839004168386015283518085018552600154808316825275ffffffffffffffffffffffffffffffffffffffffffff9084900481168288015297875260068652848720855180870190965254918216808652929091049096169383019390935293929091610f829086906133b6565b905060405180604001604052808686600001510169ffffffffffffffffffff168152602001610fb2868686612bc5565b6bffffffffffffffffffffffff90811690915233600081815260056020908152604080832086518154978401519096166a01000000000000000000009081027fffffffffffffffffffff0000000000000000000000000000000000000000000090981669ffffffffffffffffffff978816179790971790558051808201825287861681528983015175ffffffffffffffffffffffffffffffffffffffffffff90811682850190815286865260069094529382902090519251909316909502908416179055600280548084168a0184167fffffffffffffffffffffffffffffffffffffffffffff0000000000000000000091821617909155865160018054918b900390941691161790915590517f0f5bb82176feb1b5e747e28471aa92156a04d9f3ab9f45f28e2d704232b93f75906110fd90889069ffffffffffffffffffff91909116815260200190565b60405180910390a25050505050565b60408051808201825260015469ffffffffffffffffffff808216835275ffffffffffffffffffffffffffffffffffffffffffff6a0100000000000000000000928390048116602080860191909152336000818152600583528781208851808a018a52905480871682526bffffffffffffffffffffffff908890041681850152918152600683528781208851808a01909952549485168852949093049091169085015290926111bc91908390612bc5565b33600081815260056020908152604080832080547fffffffffffffffffffff000000000000000000000000ffffffffffffffffffff908116909155868301516006845293829020805469ffffffffffffffffffff166a010000000000000000000075ffffffffffffffffffffffffffffffffffffffffffff9096168602179055600280549182166bffffffffffffffffffffffff92869004831688900383169095029490941790935551918416825292945090917fce98842d3995a36decbd0af8544d33045ef9cbcd477386c9c633dc8e13f2992d910160405180910390a260405133906bffffffffffffffffffffffff841680156108fc02916000818181858888f193505050501580156112d5573d6000803e3d6000fd5b505090565b33600081815260056020908152604080832081518083018352905469ffffffffffffffffffff80821683526bffffffffffffffffffffffff6a010000000000000000000092839004168386015283518085018552600154808316825275ffffffffffffffffffffffffffffffffffffffffffff90849004811682880152978752600686528487208551808701909652549182168552919004909516928201929092528151919392909161138e9086906133b6565b905060405180604001604052808269ffffffffffffffffffff1681526020016113b8868686612bc5565b6bffffffffffffffffffffffff90811690915233600081815260056020908152604080832086518154978401519096166a01000000000000000000009081027fffffffffffffffffffff0000000000000000000000000000000000000000000090981669ffffffffffffffffffff978816179790971790558051808201825288518c01861681528983015175ffffffffffffffffffffffffffffffffffffffffffff90811682850190815286865260069094529382902090519251909316909502908416179055600280548084168a900384167fffffffffffffffffffffffffffffffffffffffffffff0000000000000000000091821617909155865160018054918b0190941691161790915590517f9e71bc8eea02a63969f509818f2dafb9254532904319f9dbda79b67bd34a5f3d906110fd90889069ffffffffffffffffffff91909116815260200190565b73ffffffffffffffffffffffffffffffffffffffff8116600081815260056020908152604080832081518083018352905469ffffffffffffffffffff80821683526bffffffffffffffffffffffff6a010000000000000000000092839004168386015283518085018552600154808316825275ffffffffffffffffffffffffffffffffffffffffffff9084900481168288015297875260068652848720855180870190965254918216855291900490951692820192909252919261087c92612bc5565b73ffffffffffffffffffffffffffffffffffffffff818116600090815260046020908152604091829020825160608101845281549485168152740100000000000000000000000000000000000000009094046bffffffffffffffffffffffff16918401919091526001015464ffffffffff90811691830182905262015180909101164210611683576040517f71d00de200000000000000000000000000000000000000000000000000000000815260040160405180910390fd5b6003546040517f70a082310000000000000000000000000000000000000000000000000000000081523060048201526bffffffffffffffffffffffff9091169060009082907f000000000000000000000000000000000000000000000000000000000000000073ffffffffffffffffffffffffffffffffffffffff16906370a0823190602401602060405180830381865afa158015611726573d6000803e3d6000fd5b505050506040513d601f19601f8201168201806040525081019061174a91906133d8565b8451919003915073ffffffffffffffffffffffffffffffffffffffff1633036117b257600380547fffffffffffffffffffffffffffffffffffffffff000000000000000000000000168284016bffffffffffffffffffffffff161790556020830151016118df565b6020830151600380546bffffffffffffffffffffffff858501849003167fffffffffffffffffffffffffffffffffffffffff00000000000000000000000090911617905583516040517fa9059cbb00000000000000000000000000000000000000000000000000000000815273ffffffffffffffffffffffffffffffffffffffff7f0000000000000000000000000000000000000000000000000000000000000000169263a9059cbb9261189a9290919060040173ffffffffffffffffffffffffffffffffffffffff9290921682526bffffffffffffffffffffffff16602082015260400190565b6020604051808303816000875af11580156118b9573d6000803e3d6000fd5b505050506040513d601f19601f820116820180604052508101906118dd91906133f1565b505b82602001516bffffffffffffffffffffffff16816bffffffffffffffffffffffff1611611938576040517fa0d26eb600000000000000000000000000000000000000000000000000000000815260040160405180910390fd5b60408051606081018252338082526bffffffffffffffffffffffff84811660208085018281528987015164ffffffffff90811687890190815273ffffffffffffffffffffffffffffffffffffffff8d81166000818152600487528b90209951945188167401000000000000000000000000000000000000000002949091169390931788555160019097018054979091167fffffffffffffffffffffffffffffffffffffffffffffffffffffff00000000009097169690961790955588810151865193168352820152919290917f0aa963c9c96f25e87258ff077b609aab138a567d7617a8e86a21decf9e48984b910160405180910390a350505050565b600080611a4183612c1e565b66ffffffffffffff16905080600003611a5d5750600092915050565b60008060009054906101000a900473ffffffffffffffffffffffffffffffffffffffff1673ffffffffffffffffffffffffffffffffffffffff1663410cd41a6040518163ffffffff1660e01b8152600401602060405180830381865afa158015611acb573d6000803e3d6000fd5b505050506040513d601f19601f82011682018060405250810190611aef919061313f565b73ffffffffffffffffffffffffffffffffffffffff851660009081526009602052604090205490915064ffffffffff6305a39a80830181169116818110611b3c5750600095945050505050565b80600003611b4e575064ffffffffff82165b66ffffffffffffff651246b07ae288850204600042841115611b705742611b72565b835b92909203029695505050505050565b3360009081526005602052604081205469ffffffffffffffffffff1680831115611baa57600080fd5b33600081815260056020908152604080832080547fffffffffffffffffffffffffffffffffffffffffffff0000000000000000000090811689880369ffffffffffffffffffff9081169190911790925573ffffffffffffffffffffffffffffffffffffffff8a168086529483902080549182169183168a01909216179055518681529192917fddf252ad1be2c89b69c2b068fc378daa952ba7f163c4a11628f55a4df523b3ef910160405180910390a35060019392505050565b6000611c6f82610ecf565b61087c61110c565b6003546c01000000000000000000000000900460ff16158015611ccf57503373ffffffffffffffffffffffffffffffffffffffff7f000000000000000000000000000000000000000000000000000000000000000016145b611cd857600080fd5b6000805473ffffffffffffffffffffffffffffffffffffffff9092167fffffffffffffffffffffffff0000000000000000000000000000000000000000909216919091179055600380547fffffffffffffffffffffffffffffffffffffff00ffffffffffffffffffffffff166c01000000000000000000000000179055565b6003546040805160608101825260008082526020820181905291810182905290916bffffffffffffffffffffffff16907f000000000000000000000000000000000000000000000000000000000000000073ffffffffffffffffffffffffffffffffffffffff168473ffffffffffffffffffffffffffffffffffffffff1614611fa6575073ffffffffffffffffffffffffffffffffffffffff838116600090815260046020908152604091829020825160608101845281549485168152740100000000000000000000000000000000000000009094046bffffffffffffffffffffffff16918401919091526001015464ffffffffff908116918301829052620d9170909101908116421015611e98576040517f977a44ab00000000000000000000000000000000000000000000000000000000815260040160405180910390fd5b60408051606081018252600080825260208083018281524264ffffffffff90811685870190815273ffffffffffffffffffffffffffffffffffffffff8c8116808752600486528887209751945194909116740100000000000000000000000000000000000000006bffffffffffffffffffffffff958616021787559051600190960180547fffffffffffffffffffffffffffffffffffffffffffffffffffffff0000000000169690921695909517905590860151600380547fffffffffffffffffffffffffffffffffffffffff000000000000000000000000169190980391821617909655915190917f5036af25bdace72875a429f12adf7d81782590b0da3dc10d149541bfc28863d091a2505b6000546040517f164e68de00000000000000000000000000000000000000000000000000000000815273ffffffffffffffffffffffffffffffffffffffff86811660048301529091169063164e68de906024016020604051808303816000875af1158015612018573d6000803e3d6000fd5b505050506040513d601f19601f8201168201806040525081019061203c9190613413565b92506dffffffffffffffffffffffffffff83161580156120a857507f000000000000000000000000000000000000000000000000000000000000000073ffffffffffffffffffffffffffffffffffffffff168473ffffffffffffffffffffffffffffffffffffffff1614155b156120df576040517f30de376600000000000000000000000000000000000000000000000000000000815260040160405180910390fd5b60006120ea83612553565b905080801561214457507f000000000000000000000000000000000000000000000000000000000000000073ffffffffffffffffffffffffffffffffffffffff168573ffffffffffffffffffffffffffffffffffffffff16145b1561217b576040517f30de376600000000000000000000000000000000000000000000000000000000815260040160405180910390fd5b7f000000000000000000000000000000000000000000000000000000000000000073ffffffffffffffffffffffffffffffffffffffff168573ffffffffffffffffffffffffffffffffffffffff16146121da576121d8858361283d565b505b505050919050565b4284101561221c576040517f05787bdf00000000000000000000000000000000000000000000000000000000815260040160405180910390fd5b60006001612228610d57565b73ffffffffffffffffffffffffffffffffffffffff8a811660008181526008602090815260409182902080546001810190915582517f6e71edae12b1b97f4d1f60370fef10105fa2faae0126114a169c64845d6126c98184015280840194909452938d166060840152608083018c905260a083019390935260c08083018b90528151808403909101815260e0830190915280519201919091207f190100000000000000000000000000000000000000000000000000000000000061010083015261010282019290925261012281019190915261014201604080517fffffffffffffffffffffffffffffffffffffffffffffffffffffffffffffffe08184030181528282528051602091820120600084529083018083525260ff871690820152606081018590526080810184905260a0016020604051602081039080840390855afa15801561237a573d6000803e3d6000fd5b50506040517fffffffffffffffffffffffffffffffffffffffffffffffffffffffffffffffe0015191505073ffffffffffffffffffffffffffffffffffffffff811615806123f457508773ffffffffffffffffffffffffffffffffffffffff168173ffffffffffffffffffffffffffffffffffffffff1614155b1561242b576040517f815e1d6400000000000000000000000000000000000000000000000000000000815260040160405180910390fd5b73ffffffffffffffffffffffffffffffffffffffff90811660009081526007602090815260408083208a8516808552908352928190208990555188815291928a16917f8c5be1e5ebec7d5bd14f71427d1e84f3dd0314c0f7b2291e5b200ac8c7c3b925910160405180910390a350505050505050565b6002805469ffffffffffffffffffff808216840181167fffffffffffffffffffffffffffffffffffffffffffff000000000000000000009283161790925573ffffffffffffffffffffffffffffffffffffffff8416600081815260056020908152604080832080548088168901881696169590951790945592519385168452909290917fddf252ad1be2c89b69c2b068fc378daa952ba7f163c4a11628f55a4df523b3ef910160405180910390a35050565b6040517f70a0823100000000000000000000000000000000000000000000000000000000815230600482015260009081906bffffffffffffffffffffffff84169073ffffffffffffffffffffffffffffffffffffffff7f000000000000000000000000000000000000000000000000000000000000000016906370a0823190602401602060405180830381865afa1580156125f2573d6000803e3d6000fd5b505050506040513d601f19601f8201168201806040525081019061261691906133d8565b60025491900391506a010000000000000000000090046bffffffffffffffffffffffff164781900380830160008190036126565750600195945050505050565b6040517f2e1a7d4d000000000000000000000000000000000000000000000000000000008152600481018590527f000000000000000000000000000000000000000000000000000000000000000073ffffffffffffffffffffffffffffffffffffffff1690632e1a7d4d90602401600060405180830381600087803b1580156126de57600080fd5b505af11580156126f2573d6000803e3d6000fd5b50506040805180820190915260015469ffffffffffffffffffff81168083526a010000000000000000000090910475ffffffffffffffffffffffffffffffffffffffffffff1660208301529092506000039050612756575060019695505050505050565b805169ffffffffffffffffffff16605083901b81612776576127766132af565b048160200151016001600001600a6101000a81548175ffffffffffffffffffffffffffffffffffffffffffff021916908375ffffffffffffffffffffffffffffffffffffffffffff1602179055508184016002600001600a6101000a8154816bffffffffffffffffffffffff02191690836bffffffffffffffffffffffff1602179055507f2c33998a0a762573e90ee90157bd106909dee9b230db902fcdfbab148f00e5c98260405161282b91815260200190565b60405180910390a15050505050919050565b600081602001516bffffffffffffffffffffffff166000036128615750600061087c565b60405130602482015260609073ffffffffffffffffffffffffffffffffffffffff851690604401604080517fffffffffffffffffffffffffffffffffffffffffffffffffffffffffffffffe08184030181529181526020820180517bffffffffffffffffffffffffffffffffffffffffffffffffffffffff167f70a0823100000000000000000000000000000000000000000000000000000000179052516129099190613443565b6000604051808303816000865af19150503d8060008114612946576040519150601f19603f3d011682016040523d82523d6000602084013e61294b565b606091505b50909250905081158061296057508051602014155b1561296f57600091505061087c565b60008180602001905181019061298591906133d8565b90508060000361299a5760019250505061087c565b835160405173ffffffffffffffffffffffffffffffffffffffff91821660248201526044810183905290861690606401604080517fffffffffffffffffffffffffffffffffffffffffffffffffffffffffffffffe08184030181529181526020820180517bffffffffffffffffffffffffffffffffffffffffffffffffffffffff167fa9059cbb0000000000000000000000000000000000000000000000000000000017905251612a4b9190613443565b6000604051808303816000865af19150503d8060008114612a88576040519150601f19603f3d011682016040523d82523d6000602084013e612a8d565b606091505b508051919450925015801590612ab4575081806020019051810190612ab291906133f1565b155b15612ac45760009250505061087c565b835160405182815273ffffffffffffffffffffffffffffffffffffffff8088169216907ff1e390dffccd4dabab220f97e89cff952db4e09071912ea3d657a0a621ea001d9060200160405180910390a3506001949350505050565b60007f8b73c3c69bb8fe3d512ecc4cf759cc79239f7b179b0ffacaa9a75d522b39400f6040518060600160405280602581526020016134606025913980516020918201206040805192830193909352918101919091527fc89efdaa54c0f20c7adf612882df0950f5a951637e0307cdcb4c672f298b8bc660608201524660808201523060a082015260c00160405160208183030381529060405280519060200120905090565b6020830151815169ffffffffffffffffffff1615610ab65781516020808401519085015175ffffffffffffffffffffffffffffffffffffffffffff9190031669ffffffffffffffffffff9091160260501c019392505050565b60007fffffffffffffffffffffffffffffffffffffffffffffffffffffffffffffffef73ffffffffffffffffffffffffffffffffffffffff831601612c6b5750665166658a4af5ec919050565b7fffffffffffffffffffffffffffffffffffffffffffffffffffffffffffffffee73ffffffffffffffffffffffffffffffffffffffff831601612cb55750653e83e37ca410919050565b7fffffffffffffffffffffffffffffffffffffffffffffffffffffffffffffffed73ffffffffffffffffffffffffffffffffffffffff831601612cff57506514d6a1298c05919050565b7fffffffffffffffffffffffffffffffffffffffffffffffffffffffffffffffec73ffffffffffffffffffffffffffffffffffffffff831601612d4a57506628b332c5257af6919050565b7fffffffffffffffffffffffffffffffffffffffffffffffffffffffffffffffeb73ffffffffffffffffffffffffffffffffffffffff831601612d95575066059feee6b6e51d919050565b7fffffffffffffffffffffffffffffffffffffffffffffffffffffffffffffffea73ffffffffffffffffffffffffffffffffffffffff831601612de057506622bfe959c865c2919050565b7fffffffffffffffffffffffffffffffffffffffffffffffffffffffffffffffff73ffffffffffffffffffffffffffffffffffffffff831601612e2b5750660554c07c013887919050565b7ffffffffffffffffffffffffffffffffffffffffffffffffffffffffffffffffe73ffffffffffffffffffffffffffffffffffffffff831601612e765750663ff905d00ea654919050565b7ffffffffffffffffffffffffffffffffffffffffffffffffffffffffffffffffd73ffffffffffffffffffffffffffffffffffffffff831601612ec157506617e56e9f5a354e919050565b506000919050565b60005b83811015612ee4578181015183820152602001612ecc565b50506000910152565b6020815260008251806020840152612f0c816040850160208701612ec9565b601f017fffffffffffffffffffffffffffffffffffffffffffffffffffffffffffffffe0169190910160400192915050565b803573ffffffffffffffffffffffffffffffffffffffff81168114610e6e57600080fd5b60008060408385031215612f7557600080fd5b612f7e83612f3e565b946020939093013593505050565b600060208284031215612f9e57600080fd5b610ab682612f3e565b600080600060608486031215612fbc57600080fd5b612fc584612f3e565b9250612fd360208501612f3e565b929592945050506040919091013590565b600060208284031215612ff657600080fd5b5035919050565b69ffffffffffffffffffff8116811461301557600080fd5b50565b60006020828403121561302a57600080fd5b8135610ab681612ffd565b600080600080600080600060e0888a03121561305057600080fd5b61305988612f3e565b965061306760208901612f3e565b95506040880135945060608801359350608088013560ff8116811461308b57600080fd5b9699959850939692959460a0840135945060c09093013592915050565b600080604083850312156130bb57600080fd5b6130c483612f3e565b91506130d260208401612f3e565b90509250929050565b7f4e487b7100000000000000000000000000000000000000000000000000000000600052601160045260246000fd5b69ffffffffffffffffffff818116838216019081111561087c5761087c6130db565b8181038181111561087c5761087c6130db565b60006020828403121561315157600080fd5b815164ffffffffff81168114610ab657600080fd5b6001815b60018411156131a157808504811115613185576131856130db565b600184161561319357908102905b60019390931c92800261316a565b935093915050565b6000826131b85750600161087c565b816131c55750600061087c565b81600181146131db57600281146131e557613201565b600191505061087c565b60ff8411156131f6576131f66130db565b50506001821b61087c565b5060208310610133831016604e8410600b8410161715613224575081810a61087c565b61324f7fffffffffffffffffffffffffffffffffffffffffffffffffffffffffffffffff8484613166565b807fffffffffffffffffffffffffffffffffffffffffffffffffffffffffffffffff04821115613281576132816130db565b029392505050565b6000610ab660ff8416836131a9565b808202811582820484141761087c5761087c6130db565b7f4e487b7100000000000000000000000000000000000000000000000000000000600052601260045260246000fd5b600068ffffffffffffffffff831680613320577f4e487b7100000000000000000000000000000000000000000000000000000000600052601260045260246000fd5b8068ffffffffffffffffff84160491505092915050565b68ffffffffffffffffff818116838216019081111561087c5761087c6130db565b64ffffffffff818116838216019081111561087c5761087c6130db565b6bffffffffffffffffffffffff828116828216039081111561087c5761087c6130db565b6000602082840312156133ab57600080fd5b8151610ab681612ffd565b69ffffffffffffffffffff828116828216039081111561087c5761087c6130db565b6000602082840312156133ea57600080fd5b5051919050565b60006020828403121561340357600080fd5b81518015158114610ab657600080fd5b60006020828403121561342557600080fd5b81516dffffffffffffffffffffffffffff81168114610ab657600080fd5b60008251613455818460208701612ec9565b919091019291505056fe53796e74686574696320496e74656c6c6967656e742052656879706f746865636174696f6ea2646970667358221220f5b3796fe66be6da1e789d3f64a213ffc8089fb47667e649de8a5d9ddd36283d64736f6c634300081a003353796e74686574696320496e74656c6c6967656e742052656879706f746865636174696f6e","linkReferences":{}},"methodIdentifiers":{"DOMAIN_SEPARATOR()":"3644e515","allowance(address,address)":"dd62ed3e","approve(address,uint256)":"095ea7b3","auctions(address)":"1d59410a","balanceOf(address)":"70a08231","bid(address)":"9cf5453d","claim()":"4e71d92d","collectFeesAndStartAuction(address)":"d181af7a","contributorMint()":"138d052f","contributorUnclaimedSIR(address)":"9da16323","decimals()":"313ce567","dividends(address)":"68306e43","initialize(address)":"c4d66de8","lPerMint(uint256)":"460028c9","maxTotalSupply()":"2ab4d052","name()":"06fdde03","nonces(address)":"7ecebe00","payAuctionWinner(address)":"331ef1a5","permit(address,address,uint256,uint256,uint8,bytes32,bytes32)":"d505accf","stake(uint80)":"4f7a21d2","stakersParams(address)":"4a62c384","supply()":"047fc9aa","symbol()":"95d89b41","totalBalanceOf(address)":"4b0ee02a","totalSupply()":"18160ddd","transfer(address,uint256)":"a9059cbb","transferFrom(address,address,uint256)":"23b872dd","unstake(uint80)":"4c24946b","unstakeAndClaim(uint80)":"ac3dd857"},"id":79}