{"abi":[{"type":"receive","stateMutability":"payable"},{"type":"function","name":"DOMAIN_SEPARATOR","inputs":[],"outputs":[{"name":"","type":"bytes32","internalType":"bytes32"}],"stateMutability":"view"},{"type":"function","name":"ISSUANCE_RATE","inputs":[],"outputs":[{"name":"","type":"uint72","internalType":"uint72"}],"stateMutability":"pure"},{"type":"function","name":"LP_ISSUANCE_FIRST_3_YEARS","inputs":[],"outputs":[{"name":"","type":"uint72","internalType":"uint72"}],"stateMutability":"pure"},{"type":"function","name":"allowance","inputs":[{"name":"","type":"address","internalType":"address"},{"name":"","type":"address","internalType":"address"}],"outputs":[{"name":"","type":"uint256","internalType":"uint256"}],"stateMutability":"view"},{"type":"function","name":"approve","inputs":[{"name":"spender","type":"address","internalType":"address"},{"name":"amount","type":"uint256","internalType":"uint256"}],"outputs":[{"name":"","type":"bool","internalType":"bool"}],"stateMutability":"nonpayable"},{"type":"function","name":"auctions","inputs":[{"name":"token","type":"address","internalType":"address"}],"outputs":[{"name":"","type":"tuple","internalType":"struct SirStructs.Auction","components":[{"name":"bidder","type":"address","internalType":"address"},{"name":"bid","type":"uint96","internalType":"uint96"},{"name":"startTime","type":"uint40","internalType":"uint40"}]}],"stateMutability":"view"},{"type":"function","name":"balanceOf","inputs":[{"name":"account","type":"address","internalType":"address"}],"outputs":[{"name":"","type":"uint256","internalType":"uint256"}],"stateMutability":"view"},{"type":"function","name":"bid","inputs":[{"name":"token","type":"address","internalType":"address"},{"name":"amount","type":"uint96","internalType":"uint96"}],"outputs":[],"stateMutability":"nonpayable"},{"type":"function","name":"claim","inputs":[],"outputs":[{"name":"dividends_","type":"uint96","internalType":"uint96"}],"stateMutability":"nonpayable"},{"type":"function","name":"collectFeesAndStartAuction","inputs":[{"name":"token","type":"address","internalType":"address"}],"outputs":[{"name":"totalFeesToStakers","type":"uint256","internalType":"uint256"}],"stateMutability":"nonpayable"},{"type":"function","name":"contributorMint","inputs":[],"outputs":[{"name":"rewards","type":"uint80","internalType":"uint80"}],"stateMutability":"nonpayable"},{"type":"function","name":"contributorUnclaimedSIR","inputs":[{"name":"contributor","type":"address","internalType":"address"}],"outputs":[{"name":"","type":"uint80","internalType":"uint80"}],"stateMutability":"view"},{"type":"function","name":"decimals","inputs":[],"outputs":[{"name":"","type":"uint8","internalType":"uint8"}],"stateMutability":"view"},{"type":"function","name":"dividends","inputs":[{"name":"staker","type":"address","internalType":"address"}],"outputs":[{"name":"","type":"uint96","internalType":"uint96"}],"stateMutability":"view"},{"type":"function","name":"initialize","inputs":[{"name":"vault_","type":"address","internalType":"address"}],"outputs":[],"stateMutability":"nonpayable"},{"type":"function","name":"lPerMint","inputs":[{"name":"vaultId","type":"uint256","internalType":"uint256"}],"outputs":[{"name":"rewards","type":"uint80","internalType":"uint80"}],"stateMutability":"nonpayable"},{"type":"function","name":"maxTotalSupply","inputs":[],"outputs":[{"name":"","type":"uint256","internalType":"uint256"}],"stateMutability":"view"},{"type":"function","name":"name","inputs":[],"outputs":[{"name":"","type":"string","internalType":"string"}],"stateMutability":"view"},{"type":"function","name":"nonces","inputs":[{"name":"","type":"address","internalType":"address"}],"outputs":[{"name":"","type":"uint256","internalType":"uint256"}],"stateMutability":"view"},{"type":"function","name":"payAuctionWinner","inputs":[{"name":"token","type":"address","internalType":"address"}],"outputs":[],"stateMutability":"nonpayable"},{"type":"function","name":"permit","inputs":[{"name":"owner","type":"address","internalType":"address"},{"name":"spender","type":"address","internalType":"address"},{"name":"value","type":"uint256","internalType":"uint256"},{"name":"deadline","type":"uint256","internalType":"uint256"},{"name":"v","type":"uint8","internalType":"uint8"},{"name":"r","type":"bytes32","internalType":"bytes32"},{"name":"s","type":"bytes32","internalType":"bytes32"}],"outputs":[],"stateMutability":"nonpayable"},{"type":"function","name":"stake","inputs":[{"name":"amount","type":"uint80","internalType":"uint80"}],"outputs":[],"stateMutability":"nonpayable"},{"type":"function","name":"stakersParams","inputs":[{"name":"staker","type":"address","internalType":"address"}],"outputs":[{"name":"","type":"tuple","internalType":"struct SirStructs.StakingParams","components":[{"name":"stake","type":"uint80","internalType":"uint80"},{"name":"cumulativeETHPerSIRx80","type":"uint176","internalType":"uint176"}]}],"stateMutability":"view"},{"type":"function","name":"supply","inputs":[],"outputs":[{"name":"","type":"uint256","internalType":"uint256"}],"stateMutability":"view"},{"type":"function","name":"symbol","inputs":[],"outputs":[{"name":"","type":"string","internalType":"string"}],"stateMutability":"view"},{"type":"function","name":"totalBalanceOf","inputs":[{"name":"account","type":"address","internalType":"address"}],"outputs":[{"name":"","type":"uint256","internalType":"uint256"}],"stateMutability":"view"},{"type":"function","name":"totalSupply","inputs":[],"outputs":[{"name":"","type":"uint256","internalType":"uint256"}],"stateMutability":"view"},{"type":"function","name":"transfer","inputs":[{"name":"to","type":"address","internalType":"address"},{"name":"amount","type":"uint256","internalType":"uint256"}],"outputs":[{"name":"","type":"bool","internalType":"bool"}],"stateMutability":"nonpayable"},{"type":"function","name":"transferFrom","inputs":[{"name":"from","type":"address","internalType":"address"},{"name":"to","type":"address","internalType":"address"},{"name":"amount","type":"uint256","internalType":"uint256"}],"outputs":[{"name":"","type":"bool","internalType":"bool"}],"stateMutability":"nonpayable"},{"type":"function","name":"unstake","inputs":[{"name":"amount","type":"uint80","internalType":"uint80"}],"outputs":[],"stateMutability":"nonpayable"},{"type":"function","name":"unstakeAndClaim","inputs":[{"name":"amount","type":"uint80","internalType":"uint80"}],"outputs":[{"name":"dividends_","type":"uint96","internalType":"uint96"}],"stateMutability":"nonpayable"},{"type":"event","name":"Approval","inputs":[{"name":"owner","type":"address","indexed":true,"internalType":"address"},{"name":"spender","type":"address","indexed":true,"internalType":"address"},{"name":"amount","type":"uint256","indexed":false,"internalType":"uint256"}],"anonymous":false},{"type":"event","name":"AuctionStarted","inputs":[{"name":"token","type":"address","indexed":true,"internalType":"address"}],"anonymous":false},{"type":"event","name":"AuctionedTokensSentToWinner","inputs":[{"name":"winner","type":"address","indexed":true,"internalType":"address"},{"name":"token","type":"address","indexed":true,"internalType":"address"},{"name":"reward","type":"uint256","indexed":false,"internalType":"uint256"}],"anonymous":false},{"type":"event","name":"BidReceived","inputs":[{"name":"bidder","type":"address","indexed":true,"internalType":"address"},{"name":"token","type":"address","indexed":true,"internalType":"address"},{"name":"previousBid","type":"uint96","indexed":false,"internalType":"uint96"},{"name":"newBid","type":"uint96","indexed":false,"internalType":"uint96"}],"anonymous":false},{"type":"event","name":"DividendsClaimed","inputs":[{"name":"staker","type":"address","indexed":true,"internalType":"address"},{"name":"amount","type":"uint96","indexed":false,"internalType":"uint96"}],"anonymous":false},{"type":"event","name":"DividendsPaid","inputs":[{"name":"amountETH","type":"uint256","indexed":false,"internalType":"uint256"}],"anonymous":false},{"type":"event","name":"Staked","inputs":[{"name":"staker","type":"address","indexed":true,"internalType":"address"},{"name":"amount","type":"uint256","indexed":false,"internalType":"uint256"}],"anonymous":false},{"type":"event","name":"Transfer","inputs":[{"name":"from","type":"address","indexed":true,"internalType":"address"},{"name":"to","type":"address","indexed":true,"internalType":"address"},{"name":"amount","type":"uint256","indexed":false,"internalType":"uint256"}],"anonymous":false},{"type":"event","name":"Unstaked","inputs":[{"name":"staker","type":"address","indexed":true,"internalType":"address"},{"name":"amount","type":"uint256","indexed":false,"internalType":"uint256"}],"anonymous":false},{"type":"error","name":"AuctionIsNotOver","inputs":[]},{"type":"error","name":"BidTooLow","inputs":[]},{"type":"error","name":"InvalidSigner","inputs":[]},{"type":"error","name":"NewAuctionCannotStartYet","inputs":[]},{"type":"error","name":"NoAuction","inputs":[]},{"type":"error","name":"NoAuctionLot","inputs":[]},{"type":"error","name":"NoFeesCollectedYet","inputs":[]},{"type":"error","name":"PermitDeadlineExpired","inputs":[]}],"bytecode":{"object":"0x610100604052600c60a05234801561001657600080fd5b50336080524660c0526100f2604080518082018252601c81527f53796e7468657469637320496d706c656d656e7465642052696768740000000060209182015281517f8b73c3c69bb8fe3d512ecc4cf759cc79239f7b179b0ffacaa9a75d522b39400f818301527f0d614900cceb97813954e30e34c71083d521e4e429b1329383c635cfe8875f20818401527fc89efdaa54c0f20c7adf612882df0950f5a951637e0307cdcb4c672f298b8bc660608201524660808201523060a0808301919091528351808303909101815260c0909101909252815191012090565b60e05260805160a05160c05160e05161344861012e6000396000610ee901526000610df00152600061045001526000611a1001526134486000f3fe6080604052600436106101dc5760003560e01c80634c24946b11610102578063a9059cbb11610095578063d181af7a11610064578063d181af7a146107c3578063d505accf146107e3578063dd62ed3e14610803578063e2505abf1461083b57600080fd5b8063a9059cbb1461074e578063ac3dd8571461076e578063bffecd881461078e578063c4d66de8146107a357600080fd5b806370a08231116100d157806370a08231146106695780637ecebe00146106b857806395d89b41146106e55780639da163231461072e57600080fd5b80634c24946b146105d75780634e71d92d146105f75780634f7a21d21461062957806368306e431461064957600080fd5b80632ab4d0521161017a5780633644e515116101495780633644e515146104a6578063460028c9146104bb5780634a62c384146104db5780634b0ee02a146105b757600080fd5b80632ab4d052146103fa578063309295ee1461040f578063313ce5671461043e578063331ef1a51461048457600080fd5b8063138d052f116101b6578063138d052f1461029e57806318160ddd146102ce5780631d59410a146102e357806323b872dd146103da57600080fd5b8063047fc9aa146101e857806306fdde0314610218578063095ea7b31461026e57600080fd5b366101e357005b600080fd5b3480156101f457600080fd5b5060025469ffffffffffffffffffff165b6040519081526020015b60405180910390f35b34801561022457600080fd5b506102616040518060400160405280601c81526020017f53796e7468657469637320496d706c656d656e7465642052696768740000000081525081565b60405161020f9190612e9b565b34801561027a57600080fd5b5061028e610289366004612f10565b61085b565b604051901515815260200161020f565b3480156102aa57600080fd5b506102b36108d5565b60405169ffffffffffffffffffff909116815260200161020f565b3480156102da57600080fd5b50610205610946565b3480156102ef57600080fd5b5061038d6102fe366004612f3a565b60408051606080820183526000808352602080840182905292840181905273ffffffffffffffffffffffffffffffffffffffff9485168152600483528390208351918201845280549485168252740100000000000000000000000000000000000000009094046bffffffffffffffffffffffff169181019190915260019092015464ffffffffff169082015290565b60408051825173ffffffffffffffffffffffffffffffffffffffff1681526020808401516bffffffffffffffffffffffff16908201529181015164ffffffffff169082015260600161020f565b3480156103e657600080fd5b5061028e6103f5366004612f55565b610979565b34801561040657600080fd5b50610205610b10565b34801561041b57600080fd5b50610424610c0d565b60405168ffffffffffffffffff909116815260200161020f565b34801561044a57600080fd5b506104727f000000000000000000000000000000000000000000000000000000000000000081565b60405160ff909116815260200161020f565b34801561049057600080fd5b506104a461049f366004612f3a565b610c4f565b005b3480156104b257600080fd5b50610205610dec565b3480156104c757600080fd5b506102b36104d6366004612f92565b610f0b565b3480156104e757600080fd5b506105786104f6366004612f3a565b60408051808201909152600080825260208201525073ffffffffffffffffffffffffffffffffffffffff1660009081526006602090815260409182902082518084019093525469ffffffffffffffffffff811683526a0100000000000000000000900475ffffffffffffffffffffffffffffffffffffffffffff169082015290565b60408051825169ffffffffffffffffffff16815260209283015175ffffffffffffffffffffffffffffffffffffffffffff16928101929092520161020f565b3480156105c357600080fd5b506102056105d2366004612f3a565b610fd1565b3480156105e357600080fd5b506104a46105f2366004612fc6565b61102d565b34801561060357600080fd5b5061060c61126a565b6040516bffffffffffffffffffffffff909116815260200161020f565b34801561063557600080fd5b506104a4610644366004612fc6565b611438565b34801561065557600080fd5b5061060c610664366004612f3a565b611664565b34801561067557600080fd5b50610205610684366004612f3a565b73ffffffffffffffffffffffffffffffffffffffff1660009081526005602052604090205469ffffffffffffffffffff1690565b3480156106c457600080fd5b506102056106d3366004612f3a565b60086020526000908152604090205481565b3480156106f157600080fd5b506102616040518060400160405280600381526020017f534952000000000000000000000000000000000000000000000000000000000081525081565b34801561073a57600080fd5b506102b3610749366004612f3a565b611727565b34801561075a57600080fd5b5061028e610769366004612f10565b611873565b34801561077a57600080fd5b5061060c610789366004612fc6565b611956565b34801561079a57600080fd5b50610424611969565b3480156107af57600080fd5b506104a46107be366004612f3a565b6119da565b3480156107cf57600080fd5b506102056107de366004612f3a565b611aba565b3480156107ef57600080fd5b506104a46107fe366004612fe3565b611ead565b34801561080f57600080fd5b5061020561081e366004613056565b600760209081526000928352604080842090915290825290205481565b34801561084757600080fd5b506104a4610856366004613089565b61216c565b33600081815260076020908152604080832073ffffffffffffffffffffffffffffffffffffffff8716808552925280832085905551919290917f8c5be1e5ebec7d5bd14f71427d1e84f3dd0314c0f7b2291e5b200ac8c7c3b925906108c39086815260200190565b60405180910390a35060015b92915050565b60006108e033611727565b905060008169ffffffffffffffffffff16116108fb57600080fd5b6109053382612584565b33600090815260096020526040902080547fffffffffffffffffffffffffffffffffffffffffffffffffffffff0000000000164264ffffffffff1617905590565b6002546001546000916109689169ffffffffffffffffffff9182169116613100565b69ffffffffffffffffffff16905090565b73ffffffffffffffffffffffffffffffffffffffff831660009081526007602090815260408083203384529091528120547fffffffffffffffffffffffffffffffffffffffffffffffffffffffffffffffff8114610a0d576109db8382613122565b73ffffffffffffffffffffffffffffffffffffffff861660009081526007602090815260408083203384529091529020555b73ffffffffffffffffffffffffffffffffffffffff851660009081526005602052604090205469ffffffffffffffffffff1680841115610a4c57600080fd5b73ffffffffffffffffffffffffffffffffffffffff808716600081815260056020526040808220805469ffffffffffffffffffff8a880381167fffffffffffffffffffffffffffffffffffffffffffff0000000000000000000092831617909255948a168084529282902080548083168b01909216919095161790935591517fddf252ad1be2c89b69c2b068fc378daa952ba7f163c4a11628f55a4df523b3ef90610afa9088815260200190565b60405180910390a36001925050505b9392505050565b60008060009054906101000a900473ffffffffffffffffffffffffffffffffffffffff1673ffffffffffffffffffffffffffffffffffffffff1663410cd41a6040518163ffffffff1660e01b8152600401602060405180830381865afa158015610b7e573d6000803e3d6000fd5b505050506040513d601f19601f82011682018060405250810190610ba29190613135565b610bb39064ffffffffff1642613122565b6301e133806001610bc6600c600a61327f565b610bd49063781a75c061328e565b610bde9190613122565b610be891906132d4565b610bf3906001613306565b68ffffffffffffffffff16610c08919061328e565b905090565b60006301e133806001610c22600c600a61327f565b610c309063781a75c061328e565b610c3a9190613122565b610c4491906132d4565b610c08906001613306565b73ffffffffffffffffffffffffffffffffffffffff818116600090815260046020908152604091829020825160608101845281549485168152740100000000000000000000000000000000000000009094046bffffffffffffffffffffffff16918401919091526001015464ffffffffff16908201819052610cd5906201518090613327565b64ffffffffff16421015610d14576040517e175ba800000000000000000000000000000000000000000000000000000000815260040160405180910390fd5b73ffffffffffffffffffffffffffffffffffffffff80831660009081526004602090815260408220805490931690925590820151600354610d6391906bffffffffffffffffffffffff16613344565b600380547fffffffffffffffffffffffffffffffffffffffff000000000000000000000000166bffffffffffffffffffffffff83161790559050610da681612636565b50610db183836128dc565b610de7576040517fa90c149f00000000000000000000000000000000000000000000000000000000815260040160405180910390fd5b505050565b60007f00000000000000000000000000000000000000000000000000000000000000004614610ee65750604080518082018252601c81527f53796e7468657469637320496d706c656d656e7465642052696768740000000060209182015281517f8b73c3c69bb8fe3d512ecc4cf759cc79239f7b179b0ffacaa9a75d522b39400f818301527f0d614900cceb97813954e30e34c71083d521e4e429b1329383c635cfe8875f20818401527fc89efdaa54c0f20c7adf612882df0950f5a951637e0307cdcb4c672f298b8bc660608201524660808201523060a0808301919091528351808303909101815260c0909101909252815191012090565b507f000000000000000000000000000000000000000000000000000000000000000090565b600080546040517f777b1d430000000000000000000000000000000000000000000000000000000081526004810184905233602482015273ffffffffffffffffffffffffffffffffffffffff9091169063777b1d43906044016020604051808303816000875af1158015610f83573d6000803e3d6000fd5b505050506040513d601f19601f82011682018060405250810190610fa79190613368565b905060008169ffffffffffffffffffff1611610fc257600080fd5b610fcc3382612584565b919050565b73ffffffffffffffffffffffffffffffffffffffff8116600090815260056020908152604080832054600690925282205461101b9169ffffffffffffffffffff9081169116613100565b69ffffffffffffffffffff1692915050565b33600081815260056020908152604080832081518083018352905469ffffffffffffffffffff80821683526bffffffffffffffffffffffff6a010000000000000000000092839004168386015283518085018552600154808316825275ffffffffffffffffffffffffffffffffffffffffffff90849004811682880152978752600686528487208551808701909652549182168086529290910490961693830193909352939290916110e0908690613385565b905060405180604001604052808686600001510169ffffffffffffffffffff168152602001611110868686612bbe565b6bffffffffffffffffffffffff90811690915233600081815260056020908152604080832086518154978401519096166a01000000000000000000009081027fffffffffffffffffffff0000000000000000000000000000000000000000000090981669ffffffffffffffffffff978816179790971790558051808201825287861681528983015175ffffffffffffffffffffffffffffffffffffffffffff90811682850190815286865260069094529382902090519251909316909502908416179055600280548084168a0184167fffffffffffffffffffffffffffffffffffffffffffff0000000000000000000091821617909155865160018054918b900390941691161790915590517f0f5bb82176feb1b5e747e28471aa92156a04d9f3ab9f45f28e2d704232b93f759061125b90889069ffffffffffffffffffff91909116815260200190565b60405180910390a25050505050565b60408051808201825260015469ffffffffffffffffffff808216835275ffffffffffffffffffffffffffffffffffffffffffff6a0100000000000000000000928390048116602080860191909152336000818152600583528781208851808a018a52905480871682526bffffffffffffffffffffffff908890041681850152918152600683528781208851808a019099525494851688529490930490911690850152909261131a91908390612bbe565b33600081815260056020908152604080832080547fffffffffffffffffffff000000000000000000000000ffffffffffffffffffff908116909155868301516006845293829020805469ffffffffffffffffffff166a010000000000000000000075ffffffffffffffffffffffffffffffffffffffffffff9096168602179055600280549182166bffffffffffffffffffffffff92869004831688900383169095029490941790935551918416825292945090917fce98842d3995a36decbd0af8544d33045ef9cbcd477386c9c633dc8e13f2992d910160405180910390a260405133906bffffffffffffffffffffffff841680156108fc02916000818181858888f19350505050158015611433573d6000803e3d6000fd5b505090565b33600081815260056020908152604080832081518083018352905469ffffffffffffffffffff80821683526bffffffffffffffffffffffff6a010000000000000000000092839004168386015283518085018552600154808316825275ffffffffffffffffffffffffffffffffffffffffffff9084900481168288015297875260068652848720855180870190965254918216855291900490951692820192909252815191939290916114ec908690613385565b905060405180604001604052808269ffffffffffffffffffff168152602001611516868686612bbe565b6bffffffffffffffffffffffff90811690915233600081815260056020908152604080832086518154978401519096166a01000000000000000000009081027fffffffffffffffffffff0000000000000000000000000000000000000000000090981669ffffffffffffffffffff978816179790971790558051808201825288518c01861681528983015175ffffffffffffffffffffffffffffffffffffffffffff90811682850190815286865260069094529382902090519251909316909502908416179055600280548084168a900384167fffffffffffffffffffffffffffffffffffffffffffff0000000000000000000091821617909155865160018054918b0190941691161790915590517f9e71bc8eea02a63969f509818f2dafb9254532904319f9dbda79b67bd34a5f3d9061125b90889069ffffffffffffffffffff91909116815260200190565b73ffffffffffffffffffffffffffffffffffffffff8116600081815260056020908152604080832081518083018352905469ffffffffffffffffffff80821683526bffffffffffffffffffffffff6a010000000000000000000092839004168386015283518085018552600154808316825275ffffffffffffffffffffffffffffffffffffffffffff908490048116828801529787526006865284872085518087019096525491821685529190049095169282019290925291926108cf92612bbe565b60008061173383612c17565b66ffffffffffffff1690508060000361174f5750600092915050565b60008060009054906101000a900473ffffffffffffffffffffffffffffffffffffffff1673ffffffffffffffffffffffffffffffffffffffff1663410cd41a6040518163ffffffff1660e01b8152600401602060405180830381865afa1580156117bd573d6000803e3d6000fd5b505050506040513d601f19601f820116820180604052508101906117e19190613135565b73ffffffffffffffffffffffffffffffffffffffff851660009081526009602052604090205490915064ffffffffff6305a39a8083018116911681811061182e5750600095945050505050565b80600003611840575064ffffffffff82165b66ffffffffffffff651246b07ae2888502046000428411156118625742611864565b835b92909203029695505050505050565b3360009081526005602052604081205469ffffffffffffffffffff168083111561189c57600080fd5b33600081815260056020908152604080832080547fffffffffffffffffffffffffffffffffffffffffffff0000000000000000000090811689880369ffffffffffffffffffff9081169190911790925573ffffffffffffffffffffffffffffffffffffffff8a168086529483902080549182169183168a01909216179055518681529192917fddf252ad1be2c89b69c2b068fc378daa952ba7f163c4a11628f55a4df523b3ef910160405180910390a35060019392505050565b60006119618261102d565b6108cf61126a565b600067016345785d8a00006301e133806001611987600c600a61327f565b6119959063781a75c061328e565b61199f9190613122565b6119a991906132d4565b6119b4906001613306565b6119d09068ffffffffffffffffff1666f38a31408ae33861328e565b610c0891906133a7565b6003546c01000000000000000000000000900460ff16158015611a3257503373ffffffffffffffffffffffffffffffffffffffff7f000000000000000000000000000000000000000000000000000000000000000016145b611a3b57600080fd5b6000805473ffffffffffffffffffffffffffffffffffffffff9092167fffffffffffffffffffffffff0000000000000000000000000000000000000000909216919091179055600380547fffffffffffffffffffffffffffffffffffffff00ffffffffffffffffffffffff166c01000000000000000000000000179055565b6003546040805160608101825260008082526020820181905291810182905290916bffffffffffffffffffffffff169073ffffffffffffffffffffffffffffffffffffffff841673c02aaa39b223fe8d0a0e5c4f27ead9083c756cc214611ce7575073ffffffffffffffffffffffffffffffffffffffff838116600090815260046020908152604091829020825160608101845281549485168152740100000000000000000000000000000000000000009094046bffffffffffffffffffffffff16918401919091526001015464ffffffffff908116918301829052620d9170909101908116421015611bd9576040517f977a44ab00000000000000000000000000000000000000000000000000000000815260040160405180910390fd5b60408051606081018252600080825260208083018281524264ffffffffff90811685870190815273ffffffffffffffffffffffffffffffffffffffff8c8116808752600486528887209751945194909116740100000000000000000000000000000000000000006bffffffffffffffffffffffff958616021787559051600190960180547fffffffffffffffffffffffffffffffffffffffffffffffffffffff0000000000169690921695909517905590860151600380547fffffffffffffffffffffffffffffffffffffffff000000000000000000000000169190980391821617909655915190917f5036af25bdace72875a429f12adf7d81782590b0da3dc10d149541bfc28863d091a2505b6000546040517f164e68de00000000000000000000000000000000000000000000000000000000815273ffffffffffffffffffffffffffffffffffffffff86811660048301529091169063164e68de906024016020604051808303816000875af1158015611d59573d6000803e3d6000fd5b505050506040513d601f19601f82011682018060405250810190611d7d91906133bb565b925082158015611db7575073ffffffffffffffffffffffffffffffffffffffff841673c02aaa39b223fe8d0a0e5c4f27ead9083c756cc214155b15611dee576040517f30de376600000000000000000000000000000000000000000000000000000000815260040160405180910390fd5b6000611df983612636565b9050808015611e31575073ffffffffffffffffffffffffffffffffffffffff851673c02aaa39b223fe8d0a0e5c4f27ead9083c756cc2145b15611e68576040517f30de376600000000000000000000000000000000000000000000000000000000815260040160405180910390fd5b73ffffffffffffffffffffffffffffffffffffffff851673c02aaa39b223fe8d0a0e5c4f27ead9083c756cc214611ea557611ea385836128dc565b505b505050919050565b42841015611ee7576040517f05787bdf00000000000000000000000000000000000000000000000000000000815260040160405180910390fd5b60006001611ef3610dec565b73ffffffffffffffffffffffffffffffffffffffff8a811660008181526008602090815260409182902080546001810190915582517f6e71edae12b1b97f4d1f60370fef10105fa2faae0126114a169c64845d6126c98184015280840194909452938d166060840152608083018c905260a083019390935260c08083018b90528151808403909101815260e0830190915280519201919091207f190100000000000000000000000000000000000000000000000000000000000061010083015261010282019290925261012281019190915261014201604080517fffffffffffffffffffffffffffffffffffffffffffffffffffffffffffffffe08184030181528282528051602091820120600084529083018083525260ff871690820152606081018590526080810184905260a0016020604051602081039080840390855afa158015612045573d6000803e3d6000fd5b50506040517fffffffffffffffffffffffffffffffffffffffffffffffffffffffffffffffe0015191505073ffffffffffffffffffffffffffffffffffffffff811615806120bf57508773ffffffffffffffffffffffffffffffffffffffff168173ffffffffffffffffffffffffffffffffffffffff1614155b156120f6576040517f815e1d6400000000000000000000000000000000000000000000000000000000815260040160405180910390fd5b73ffffffffffffffffffffffffffffffffffffffff90811660009081526007602090815260408083208a8516808552908352928190208990555188815291928a16917f8c5be1e5ebec7d5bd14f71427d1e84f3dd0314c0f7b2291e5b200ac8c7c3b925910160405180910390a350505050505050565b73ffffffffffffffffffffffffffffffffffffffff828116600090815260046020908152604091829020825160608101845281549485168152740100000000000000000000000000000000000000009094046bffffffffffffffffffffffff16918401919091526001015464ffffffffff90811691830182905262015180909101164210612226576040517f71d00de200000000000000000000000000000000000000000000000000000000815260040160405180910390fd5b6040517f23b872dd0000000000000000000000000000000000000000000000000000000081523360048201523060248201526bffffffffffffffffffffffff8316604482015273c02aaa39b223fe8d0a0e5c4f27ead9083c756cc2906323b872dd906064016020604051808303816000875af11580156122aa573d6000803e3d6000fd5b505050506040513d601f19601f820116820180604052508101906122ce91906133d4565b50805173ffffffffffffffffffffffffffffffffffffffff16330361233957600380546bffffffffffffffffffffffff8082168501167fffffffffffffffffffffffffffffffffffffffff00000000000000000000000090911617905560208101519091019061242f565b6020810151600380547fffffffffffffffffffffffffffffffffffffffff00000000000000000000000081168386036bffffffffffffffffffffffff9283160182161790915582516040517fa9059cbb00000000000000000000000000000000000000000000000000000000815273ffffffffffffffffffffffffffffffffffffffff90911660048201529116602482015273c02aaa39b223fe8d0a0e5c4f27ead9083c756cc29063a9059cbb906044016020604051808303816000875af1158015612409573d6000803e3d6000fd5b505050506040513d601f19601f8201168201806040525081019061242d91906133d4565b505b80602001516bffffffffffffffffffffffff16826bffffffffffffffffffffffff1611612488576040517fa0d26eb600000000000000000000000000000000000000000000000000000000815260040160405180910390fd5b60408051606081018252338082526bffffffffffffffffffffffff85811660208085018281528787015164ffffffffff90811687890190815273ffffffffffffffffffffffffffffffffffffffff8c81166000818152600487528b90209951945188167401000000000000000000000000000000000000000002949091169390931788555160019097018054979091167fffffffffffffffffffffffffffffffffffffffffffffffffffffff00000000009097169690961790955586810151865193168352820152919290917f0aa963c9c96f25e87258ff077b609aab138a567d7617a8e86a21decf9e48984b910160405180910390a3505050565b6002805469ffffffffffffffffffff808216840181167fffffffffffffffffffffffffffffffffffffffffffff000000000000000000009283161790925573ffffffffffffffffffffffffffffffffffffffff8416600081815260056020908152604080832080548088168901881696169590951790945592519385168452909290917fddf252ad1be2c89b69c2b068fc378daa952ba7f163c4a11628f55a4df523b3ef910160405180910390a35050565b6040517f70a0823100000000000000000000000000000000000000000000000000000000815230600482015260009081906bffffffffffffffffffffffff84169073c02aaa39b223fe8d0a0e5c4f27ead9083c756cc2906370a0823190602401602060405180830381865afa1580156126b3573d6000803e3d6000fd5b505050506040513d601f19601f820116820180604052508101906126d791906133bb565b60025491900391506a010000000000000000000090046bffffffffffffffffffffffff164781900380830160008190036127175750600195945050505050565b6040517f2e1a7d4d0000000000000000000000000000000000000000000000000000000081526004810185905273c02aaa39b223fe8d0a0e5c4f27ead9083c756cc290632e1a7d4d90602401600060405180830381600087803b15801561277d57600080fd5b505af1158015612791573d6000803e3d6000fd5b50506040805180820190915260015469ffffffffffffffffffff81168083526a010000000000000000000090910475ffffffffffffffffffffffffffffffffffffffffffff16602083015290925060000390506127f5575060019695505050505050565b805169ffffffffffffffffffff16605083901b81612815576128156132a5565b048160200151016001600001600a6101000a81548175ffffffffffffffffffffffffffffffffffffffffffff021916908375ffffffffffffffffffffffffffffffffffffffffffff1602179055508184016002600001600a6101000a8154816bffffffffffffffffffffffff02191690836bffffffffffffffffffffffff1602179055507f2c33998a0a762573e90ee90157bd106909dee9b230db902fcdfbab148f00e5c9826040516128ca91815260200190565b60405180910390a15050505050919050565b600081602001516bffffffffffffffffffffffff16600003612900575060006108cf565b60405130602482015260609073ffffffffffffffffffffffffffffffffffffffff851690604401604080517fffffffffffffffffffffffffffffffffffffffffffffffffffffffffffffffe08184030181529181526020820180517bffffffffffffffffffffffffffffffffffffffffffffffffffffffff167f70a0823100000000000000000000000000000000000000000000000000000000179052516129a891906133f6565b6000604051808303816000865af19150503d80600081146129e5576040519150601f19603f3d011682016040523d82523d6000602084013e6129ea565b606091505b5090925090508115806129ff57508051602014155b15612a0e5760009150506108cf565b600081806020019051810190612a2491906133bb565b905080600003612a39576001925050506108cf565b835160405173ffffffffffffffffffffffffffffffffffffffff91821660248201526044810183905290861690606401604080517fffffffffffffffffffffffffffffffffffffffffffffffffffffffffffffffe08184030181529181526020820180517bffffffffffffffffffffffffffffffffffffffffffffffffffffffff167fa9059cbb0000000000000000000000000000000000000000000000000000000017905251612aea91906133f6565b6000604051808303816000865af19150503d8060008114612b27576040519150601f19603f3d011682016040523d82523d6000602084013e612b2c565b606091505b508051919450925015801590612b53575081806020019051810190612b5191906133d4565b155b15612b63576000925050506108cf565b835160405182815273ffffffffffffffffffffffffffffffffffffffff8088169216907ff1e390dffccd4dabab220f97e89cff952db4e09071912ea3d657a0a621ea001d9060200160405180910390a3506001949350505050565b6020830151815169ffffffffffffffffffff1615610b095781516020808401519085015175ffffffffffffffffffffffffffffffffffffffffffff9190031669ffffffffffffffffffff9091160260501c019392505050565b60007fffffffffffffffffffffffff6f08640914d3b078fc9a187a67d1e0efe16c46fa73ffffffffffffffffffffffffffffffffffffffff831601612c645750665166658a4af5ec919050565b7fffffffffffffffffffffffffea2cb550abd98248283c987c65508e5ff5d3959b73ffffffffffffffffffffffffffffffffffffffff831601612cae5750653e83e37ca410919050565b7fffffffffffffffffffffffff669aaf82e5aa433d96a3a745e904c827e64f5b2473ffffffffffffffffffffffffffffffffffffffff831601612cf857506514d6a1298c05919050565b7fffffffffffffffffffffffff689158bfd918d9aab249a805ab89c542f3c5f55773ffffffffffffffffffffffffffffffffffffffff831601612d4357506628b332c5257af6919050565b7fffffffffffffffffffffffffeb238669b25d3f74dc9674c2c33835cde6c266ab73ffffffffffffffffffffffffffffffffffffffff831601612d8e575066059feee6b6e51d919050565b7fffffffffffffffffffffffffc3bb32224956ff05d4a7a22d661fc2ed05bd6c4473ffffffffffffffffffffffffffffffffffffffff831601612dd95750663aa557f9229b10919050565b7fffffffffffffffffffffffff0c60291ae55277090b3195477d8d86300046dd9a73ffffffffffffffffffffffffffffffffffffffff831601612e245750660554c07c013887919050565b7fffffffffffffffffffffffff8f66868f3ae7ed23c5fef382fe4af1f2e823863873ffffffffffffffffffffffffffffffffffffffff831601612e6f5750663ff905d00ea654919050565b506000919050565b60005b83811015612e92578181015183820152602001612e7a565b50506000910152565b6020815260008251806020840152612eba816040850160208701612e77565b601f017fffffffffffffffffffffffffffffffffffffffffffffffffffffffffffffffe0169190910160400192915050565b803573ffffffffffffffffffffffffffffffffffffffff81168114610fcc57600080fd5b60008060408385031215612f2357600080fd5b612f2c83612eec565b946020939093013593505050565b600060208284031215612f4c57600080fd5b610b0982612eec565b600080600060608486031215612f6a57600080fd5b612f7384612eec565b9250612f8160208501612eec565b929592945050506040919091013590565b600060208284031215612fa457600080fd5b5035919050565b69ffffffffffffffffffff81168114612fc357600080fd5b50565b600060208284031215612fd857600080fd5b8135610b0981612fab565b600080600080600080600060e0888a031215612ffe57600080fd5b61300788612eec565b965061301560208901612eec565b95506040880135945060608801359350608088013560ff8116811461303957600080fd5b9699959850939692959460a0840135945060c09093013592915050565b6000806040838503121561306957600080fd5b61307283612eec565b915061308060208401612eec565b90509250929050565b6000806040838503121561309c57600080fd5b6130a583612eec565b915060208301356bffffffffffffffffffffffff811681146130c657600080fd5b809150509250929050565b7f4e487b7100000000000000000000000000000000000000000000000000000000600052601160045260246000fd5b69ffffffffffffffffffff81811683821601908111156108cf576108cf6130d1565b818103818111156108cf576108cf6130d1565b60006020828403121561314757600080fd5b815164ffffffffff81168114610b0957600080fd5b6001815b60018411156131975780850481111561317b5761317b6130d1565b600184161561318957908102905b60019390931c928002613160565b935093915050565b6000826131ae575060016108cf565b816131bb575060006108cf565b81600181146131d157600281146131db576131f7565b60019150506108cf565b60ff8411156131ec576131ec6130d1565b50506001821b6108cf565b5060208310610133831016604e8410600b841016171561321a575081810a6108cf565b6132457fffffffffffffffffffffffffffffffffffffffffffffffffffffffffffffffff848461315c565b807fffffffffffffffffffffffffffffffffffffffffffffffffffffffffffffffff04821115613277576132776130d1565b029392505050565b6000610b0960ff84168361319f565b80820281158282048414176108cf576108cf6130d1565b7f4e487b7100000000000000000000000000000000000000000000000000000000600052601260045260246000fd5b600068ffffffffffffffffff8316806132ef576132ef6132a5565b8068ffffffffffffffffff84160491505092915050565b68ffffffffffffffffff81811683821601908111156108cf576108cf6130d1565b64ffffffffff81811683821601908111156108cf576108cf6130d1565b6bffffffffffffffffffffffff82811682821603908111156108cf576108cf6130d1565b60006020828403121561337a57600080fd5b8151610b0981612fab565b69ffffffffffffffffffff82811682821603908111156108cf576108cf6130d1565b6000826133b6576133b66132a5565b500490565b6000602082840312156133cd57600080fd5b5051919050565b6000602082840312156133e657600080fd5b81518015158114610b0957600080fd5b60008251613408818460208701612e77565b919091019291505056fea2646970667358221220ea2fe673363a2c038e0480389a0976bed32ccdd8b01a2d15252b9e912c7d34dd64736f6c634300081a0033","linkReferences":{}},"methodIdentifiers":{"DOMAIN_SEPARATOR()":"3644e515","ISSUANCE_RATE()":"309295ee","LP_ISSUANCE_FIRST_3_YEARS()":"bffecd88","allowance(address,address)":"dd62ed3e","approve(address,uint256)":"095ea7b3","auctions(address)":"1d59410a","balanceOf(address)":"70a08231","bid(address,uint96)":"e2505abf","claim()":"4e71d92d","collectFeesAndStartAuction(address)":"d181af7a","contributorMint()":"138d052f","contributorUnclaimedSIR(address)":"9da16323","decimals()":"313ce567","dividends(address)":"68306e43","initialize(address)":"c4d66de8","lPerMint(uint256)":"460028c9","maxTotalSupply()":"2ab4d052","name()":"06fdde03","nonces(address)":"7ecebe00","payAuctionWinner(address)":"331ef1a5","permit(address,address,uint256,uint256,uint8,bytes32,bytes32)":"d505accf","stake(uint80)":"4f7a21d2","stakersParams(address)":"4a62c384","supply()":"047fc9aa","symbol()":"95d89b41","totalBalanceOf(address)":"4b0ee02a","totalSupply()":"18160ddd","transfer(address,uint256)":"a9059cbb","transferFrom(address,address,uint256)":"23b872dd","unstake(uint80)":"4c24946b","unstakeAndClaim(uint80)":"ac3dd857"},"id":50}