{"abi":[{"type":"constructor","inputs":[{"name":"weth","type":"address","internalType":"address"}],"stateMutability":"nonpayable"},{"type":"receive","stateMutability":"payable"},{"type":"function","name":"DOMAIN_SEPARATOR","inputs":[],"outputs":[{"name":"","type":"bytes32","internalType":"bytes32"}],"stateMutability":"view"},{"type":"function","name":"ISSUANCE_RATE","inputs":[],"outputs":[{"name":"","type":"uint72","internalType":"uint72"}],"stateMutability":"pure"},{"type":"function","name":"LP_ISSUANCE_FIRST_3_YEARS","inputs":[],"outputs":[{"name":"","type":"uint72","internalType":"uint72"}],"stateMutability":"pure"},{"type":"function","name":"allowance","inputs":[{"name":"","type":"address","internalType":"address"},{"name":"","type":"address","internalType":"address"}],"outputs":[{"name":"","type":"uint256","internalType":"uint256"}],"stateMutability":"view"},{"type":"function","name":"approve","inputs":[{"name":"spender","type":"address","internalType":"address"},{"name":"amount","type":"uint256","internalType":"uint256"}],"outputs":[{"name":"","type":"bool","internalType":"bool"}],"stateMutability":"nonpayable"},{"type":"function","name":"auctions","inputs":[{"name":"token","type":"address","internalType":"address"}],"outputs":[{"name":"","type":"tuple","internalType":"struct SirStructs.Auction","components":[{"name":"bidder","type":"address","internalType":"address"},{"name":"bid","type":"uint96","internalType":"uint96"},{"name":"startTime","type":"uint40","internalType":"uint40"}]}],"stateMutability":"view"},{"type":"function","name":"balanceOf","inputs":[{"name":"account","type":"address","internalType":"address"}],"outputs":[{"name":"","type":"uint256","internalType":"uint256"}],"stateMutability":"view"},{"type":"function","name":"bid","inputs":[{"name":"token","type":"address","internalType":"address"}],"outputs":[],"stateMutability":"nonpayable"},{"type":"function","name":"claim","inputs":[],"outputs":[{"name":"dividends_","type":"uint96","internalType":"uint96"}],"stateMutability":"nonpayable"},{"type":"function","name":"collectFeesAndStartAuction","inputs":[{"name":"token","type":"address","internalType":"address"}],"outputs":[{"name":"totalFeesToStakers","type":"uint112","internalType":"uint112"}],"stateMutability":"nonpayable"},{"type":"function","name":"contributorMint","inputs":[],"outputs":[{"name":"rewards","type":"uint80","internalType":"uint80"}],"stateMutability":"nonpayable"},{"type":"function","name":"contributorUnclaimedSIR","inputs":[{"name":"contributor","type":"address","internalType":"address"}],"outputs":[{"name":"","type":"uint80","internalType":"uint80"}],"stateMutability":"view"},{"type":"function","name":"decimals","inputs":[],"outputs":[{"name":"","type":"uint8","internalType":"uint8"}],"stateMutability":"view"},{"type":"function","name":"dividends","inputs":[{"name":"staker","type":"address","internalType":"address"}],"outputs":[{"name":"","type":"uint96","internalType":"uint96"}],"stateMutability":"view"},{"type":"function","name":"initialize","inputs":[{"name":"vault_","type":"address","internalType":"address"}],"outputs":[],"stateMutability":"nonpayable"},{"type":"function","name":"lPerMint","inputs":[{"name":"vaultId","type":"uint256","internalType":"uint256"}],"outputs":[{"name":"rewards","type":"uint80","internalType":"uint80"}],"stateMutability":"nonpayable"},{"type":"function","name":"maxTotalSupply","inputs":[],"outputs":[{"name":"","type":"uint256","internalType":"uint256"}],"stateMutability":"view"},{"type":"function","name":"name","inputs":[],"outputs":[{"name":"","type":"string","internalType":"string"}],"stateMutability":"view"},{"type":"function","name":"nonces","inputs":[{"name":"","type":"address","internalType":"address"}],"outputs":[{"name":"","type":"uint256","internalType":"uint256"}],"stateMutability":"view"},{"type":"function","name":"payAuctionWinner","inputs":[{"name":"token","type":"address","internalType":"address"}],"outputs":[],"stateMutability":"nonpayable"},{"type":"function","name":"permit","inputs":[{"name":"owner","type":"address","internalType":"address"},{"name":"spender","type":"address","internalType":"address"},{"name":"value","type":"uint256","internalType":"uint256"},{"name":"deadline","type":"uint256","internalType":"uint256"},{"name":"v","type":"uint8","internalType":"uint8"},{"name":"r","type":"bytes32","internalType":"bytes32"},{"name":"s","type":"bytes32","internalType":"bytes32"}],"outputs":[],"stateMutability":"nonpayable"},{"type":"function","name":"stake","inputs":[{"name":"amount","type":"uint80","internalType":"uint80"}],"outputs":[],"stateMutability":"nonpayable"},{"type":"function","name":"stakersParams","inputs":[{"name":"staker","type":"address","internalType":"address"}],"outputs":[{"name":"","type":"tuple","internalType":"struct SirStructs.StakingParams","components":[{"name":"stake","type":"uint80","internalType":"uint80"},{"name":"cumulativeETHPerSIRx80","type":"uint176","internalType":"uint176"}]}],"stateMutability":"view"},{"type":"function","name":"supply","inputs":[],"outputs":[{"name":"","type":"uint256","internalType":"uint256"}],"stateMutability":"view"},{"type":"function","name":"symbol","inputs":[],"outputs":[{"name":"","type":"string","internalType":"string"}],"stateMutability":"view"},{"type":"function","name":"totalBalanceOf","inputs":[{"name":"account","type":"address","internalType":"address"}],"outputs":[{"name":"","type":"uint256","internalType":"uint256"}],"stateMutability":"view"},{"type":"function","name":"totalSupply","inputs":[],"outputs":[{"name":"","type":"uint256","internalType":"uint256"}],"stateMutability":"view"},{"type":"function","name":"transfer","inputs":[{"name":"to","type":"address","internalType":"address"},{"name":"amount","type":"uint256","internalType":"uint256"}],"outputs":[{"name":"","type":"bool","internalType":"bool"}],"stateMutability":"nonpayable"},{"type":"function","name":"transferFrom","inputs":[{"name":"from","type":"address","internalType":"address"},{"name":"to","type":"address","internalType":"address"},{"name":"amount","type":"uint256","internalType":"uint256"}],"outputs":[{"name":"","type":"bool","internalType":"bool"}],"stateMutability":"nonpayable"},{"type":"function","name":"unstake","inputs":[{"name":"amount","type":"uint80","internalType":"uint80"}],"outputs":[],"stateMutability":"nonpayable"},{"type":"function","name":"unstakeAndClaim","inputs":[{"name":"amount","type":"uint80","internalType":"uint80"}],"outputs":[{"name":"dividends_","type":"uint96","internalType":"uint96"}],"stateMutability":"nonpayable"},{"type":"event","name":"Approval","inputs":[{"name":"owner","type":"address","indexed":true,"internalType":"address"},{"name":"spender","type":"address","indexed":true,"internalType":"address"},{"name":"amount","type":"uint256","indexed":false,"internalType":"uint256"}],"anonymous":false},{"type":"event","name":"AuctionStarted","inputs":[{"name":"token","type":"address","indexed":true,"internalType":"address"}],"anonymous":false},{"type":"event","name":"AuctionedTokensSentToWinner","inputs":[{"name":"winner","type":"address","indexed":true,"internalType":"address"},{"name":"token","type":"address","indexed":true,"internalType":"address"},{"name":"reward","type":"uint256","indexed":false,"internalType":"uint256"}],"anonymous":false},{"type":"event","name":"BidReceived","inputs":[{"name":"bidder","type":"address","indexed":true,"internalType":"address"},{"name":"token","type":"address","indexed":true,"internalType":"address"},{"name":"previousBid","type":"uint96","indexed":false,"internalType":"uint96"},{"name":"newBid","type":"uint96","indexed":false,"internalType":"uint96"}],"anonymous":false},{"type":"event","name":"DividendsClaimed","inputs":[{"name":"staker","type":"address","indexed":true,"internalType":"address"},{"name":"amount","type":"uint96","indexed":false,"internalType":"uint96"}],"anonymous":false},{"type":"event","name":"DividendsPaid","inputs":[{"name":"amountETH","type":"uint256","indexed":false,"internalType":"uint256"}],"anonymous":false},{"type":"event","name":"Staked","inputs":[{"name":"staker","type":"address","indexed":true,"internalType":"address"},{"name":"amount","type":"uint256","indexed":false,"internalType":"uint256"}],"anonymous":false},{"type":"event","name":"Transfer","inputs":[{"name":"from","type":"address","indexed":true,"internalType":"address"},{"name":"to","type":"address","indexed":true,"internalType":"address"},{"name":"amount","type":"uint256","indexed":false,"internalType":"uint256"}],"anonymous":false},{"type":"event","name":"Unstaked","inputs":[{"name":"staker","type":"address","indexed":true,"internalType":"address"},{"name":"amount","type":"uint256","indexed":false,"internalType":"uint256"}],"anonymous":false},{"type":"error","name":"AuctionIsNotOver","inputs":[]},{"type":"error","name":"BidTooLow","inputs":[]},{"type":"error","name":"InvalidSigner","inputs":[]},{"type":"error","name":"NewAuctionCannotStartYet","inputs":[]},{"type":"error","name":"NoAuction","inputs":[]},{"type":"error","name":"NoAuctionLot","inputs":[]},{"type":"error","name":"NoFeesCollectedYet","inputs":[]},{"type":"error","name":"PermitDeadlineExpired","inputs":[]}],"bytecode":{"object":"0x610120604052600c60c05234801561001657600080fd5b5060405161378338038061378383398101604081905261003591610105565b336080526001600160a01b03811660a0524660e0528061005361005f565b61010052506101359050565b60007f8b73c3c69bb8fe3d512ecc4cf759cc79239f7b179b0ffacaa9a75d522b39400f60405180606001604052806025815260200161375e6025913980516020918201206040805192830193909352918101919091527fc89efdaa54c0f20c7adf612882df0950f5a951637e0307cdcb4c672f298b8bc660608201524660808201523060a082015260c00160405160208183030381529060405280519060200120905090565b60006020828403121561011757600080fd5b81516001600160a01b038116811461012e57600080fd5b9392505050565b60805160a05160c05160e051610100516135b46101aa6000396000610e2701526000610df70152600061041c015260008181611766015281816118d101528181611e9601528181612166015281816122030152818161228a015281816126b8015261279201526000611dba01526135b46000f3fe6080604052600436106101dc5760003560e01c80634c24946b116101025780639da1632311610095578063c4d66de811610064578063c4d66de81461078f578063d181af7a146107af578063d505accf146107ee578063dd62ed3e1461080e57600080fd5b80639da163231461071a578063a9059cbb1461073a578063ac3dd8571461075a578063bffecd881461077a57600080fd5b806370a08231116100d157806370a08231146106355780637ecebe001461068457806395d89b41146106b15780639cf5453d146106fa57600080fd5b80634c24946b146105a35780634e71d92d146105c35780634f7a21d2146105f557806368306e431461061557600080fd5b80632ab4d0521161017a5780633644e515116101495780633644e51514610472578063460028c9146104875780634a62c384146104a75780634b0ee02a1461058357600080fd5b80632ab4d052146103c6578063309295ee146103db578063313ce5671461040a578063331ef1a51461045057600080fd5b8063138d052f116101b6578063138d052f1461026a57806318160ddd1461029a5780631d59410a146102af57806323b872dd146103a657600080fd5b8063047fc9aa146101e857806306fdde0314610218578063095ea7b31461023a57600080fd5b366101e357005b600080fd5b3480156101f457600080fd5b5060025469ffffffffffffffffffff165b6040519081526020015b60405180910390f35b34801561022457600080fd5b5061022d610846565b60405161020f9190612ffa565b34801561024657600080fd5b5061025a61025536600461306f565b610862565b604051901515815260200161020f565b34801561027657600080fd5b5061027f6108dc565b60405169ffffffffffffffffffff909116815260200161020f565b3480156102a657600080fd5b5061020561094d565b3480156102bb57600080fd5b506103596102ca366004613099565b60408051606080820183526000808352602080840182905292840181905273ffffffffffffffffffffffffffffffffffffffff9485168152600483528390208351918201845280549485168252740100000000000000000000000000000000000000009094046bffffffffffffffffffffffff169181019190915260019092015464ffffffffff169082015290565b60408051825173ffffffffffffffffffffffffffffffffffffffff1681526020808401516bffffffffffffffffffffffff16908201529181015164ffffffffff169082015260600161020f565b3480156103b257600080fd5b5061025a6103c13660046130b4565b610980565b3480156103d257600080fd5b50610205610b17565b3480156103e757600080fd5b506103f0610c14565b60405168ffffffffffffffffff909116815260200161020f565b34801561041657600080fd5b5061043e7f000000000000000000000000000000000000000000000000000000000000000081565b60405160ff909116815260200161020f565b34801561045c57600080fd5b5061047061046b366004613099565b610c56565b005b34801561047e57600080fd5b50610205610df3565b34801561049357600080fd5b5061027f6104a23660046130f1565b610e49565b3480156104b357600080fd5b506105446104c2366004613099565b60408051808201909152600080825260208201525073ffffffffffffffffffffffffffffffffffffffff1660009081526006602090815260409182902082518084019093525469ffffffffffffffffffff811683526a0100000000000000000000900475ffffffffffffffffffffffffffffffffffffffffffff169082015290565b60408051825169ffffffffffffffffffff16815260209283015175ffffffffffffffffffffffffffffffffffffffffffff16928101929092520161020f565b34801561058f57600080fd5b5061020561059e366004613099565b610f0f565b3480156105af57600080fd5b506104706105be366004613125565b610f6b565b3480156105cf57600080fd5b506105d86111a8565b6040516bffffffffffffffffffffffff909116815260200161020f565b34801561060157600080fd5b50610470610610366004613125565b611376565b34801561062157600080fd5b506105d8610630366004613099565b6115a2565b34801561064157600080fd5b50610205610650366004613099565b73ffffffffffffffffffffffffffffffffffffffff1660009081526005602052604090205469ffffffffffffffffffff1690565b34801561069057600080fd5b5061020561069f366004613099565b60086020526000908152604090205481565b3480156106bd57600080fd5b5061022d6040518060400160405280600381526020017f534952000000000000000000000000000000000000000000000000000000000081525081565b34801561070657600080fd5b50610470610715366004613099565b611665565b34801561072657600080fd5b5061027f610735366004613099565b611ad1565b34801561074657600080fd5b5061025a61075536600461306f565b611c1d565b34801561076657600080fd5b506105d8610775366004613125565b611d00565b34801561078657600080fd5b506103f0611d13565b34801561079b57600080fd5b506104706107aa366004613099565b611d84565b3480156107bb57600080fd5b506107cf6107ca366004613099565b611e64565b6040516dffffffffffffffffffffffffffff909116815260200161020f565b3480156107fa57600080fd5b50610470610809366004613142565b6122ef565b34801561081a57600080fd5b506102056108293660046131b5565b600760209081526000928352604080842090915290825290205481565b60405180606001604052806025815260200161355a6025913981565b33600081815260076020908152604080832073ffffffffffffffffffffffffffffffffffffffff8716808552925280832085905551919290917f8c5be1e5ebec7d5bd14f71427d1e84f3dd0314c0f7b2291e5b200ac8c7c3b925906108ca9086815260200190565b60405180910390a35060015b92915050565b60006108e733611ad1565b905060008169ffffffffffffffffffff161161090257600080fd5b61090c33826125ae565b33600090815260096020526040902080547fffffffffffffffffffffffffffffffffffffffffffffffffffffff0000000000164264ffffffffff1617905590565b60025460015460009161096f9169ffffffffffffffffffff9182169116613217565b69ffffffffffffffffffff16905090565b73ffffffffffffffffffffffffffffffffffffffff831660009081526007602090815260408083203384529091528120547fffffffffffffffffffffffffffffffffffffffffffffffffffffffffffffffff8114610a14576109e28382613239565b73ffffffffffffffffffffffffffffffffffffffff861660009081526007602090815260408083203384529091529020555b73ffffffffffffffffffffffffffffffffffffffff851660009081526005602052604090205469ffffffffffffffffffff1680841115610a5357600080fd5b73ffffffffffffffffffffffffffffffffffffffff808716600081815260056020526040808220805469ffffffffffffffffffff8a880381167fffffffffffffffffffffffffffffffffffffffffffff0000000000000000000092831617909255948a168084529282902080548083168b01909216919095161790935591517fddf252ad1be2c89b69c2b068fc378daa952ba7f163c4a11628f55a4df523b3ef90610b019088815260200190565b60405180910390a36001925050505b9392505050565b60008060009054906101000a900473ffffffffffffffffffffffffffffffffffffffff1673ffffffffffffffffffffffffffffffffffffffff1663410cd41a6040518163ffffffff1660e01b8152600401602060405180830381865afa158015610b85573d6000803e3d6000fd5b505050506040513d601f19601f82011682018060405250810190610ba9919061324c565b610bba9064ffffffffff1642613239565b6301e133806001610bcd600c600a613396565b610bdb9063781a75c06133a5565b610be59190613239565b610bef91906133eb565b610bfa90600161341d565b68ffffffffffffffffff16610c0f91906133a5565b905090565b60006301e133806001610c29600c600a613396565b610c379063781a75c06133a5565b610c419190613239565b610c4b91906133eb565b610c0f90600161341d565b73ffffffffffffffffffffffffffffffffffffffff818116600090815260046020908152604091829020825160608101845281549485168152740100000000000000000000000000000000000000009094046bffffffffffffffffffffffff16918401919091526001015464ffffffffff16908201819052610cdc90620151809061343e565b64ffffffffff16421015610d1b576040517e175ba800000000000000000000000000000000000000000000000000000000815260040160405180910390fd5b73ffffffffffffffffffffffffffffffffffffffff80831660009081526004602090815260408220805490931690925590820151600354610d6a91906bffffffffffffffffffffffff1661345b565b600380547fffffffffffffffffffffffffffffffffffffffff000000000000000000000000166bffffffffffffffffffffffff83161790559050610dad81612660565b50610db8838361294a565b610dee576040517fa90c149f00000000000000000000000000000000000000000000000000000000815260040160405180910390fd5b505050565b60007f00000000000000000000000000000000000000000000000000000000000000004614610e2457610c0f612c2c565b507f000000000000000000000000000000000000000000000000000000000000000090565b600080546040517f777b1d430000000000000000000000000000000000000000000000000000000081526004810184905233602482015273ffffffffffffffffffffffffffffffffffffffff9091169063777b1d43906044016020604051808303816000875af1158015610ec1573d6000803e3d6000fd5b505050506040513d601f19601f82011682018060405250810190610ee5919061347f565b905060008169ffffffffffffffffffff1611610f0057600080fd5b610f0a33826125ae565b919050565b73ffffffffffffffffffffffffffffffffffffffff81166000908152600560209081526040808320546006909252822054610f599169ffffffffffffffffffff9081169116613217565b69ffffffffffffffffffff1692915050565b33600081815260056020908152604080832081518083018352905469ffffffffffffffffffff80821683526bffffffffffffffffffffffff6a010000000000000000000092839004168386015283518085018552600154808316825275ffffffffffffffffffffffffffffffffffffffffffff908490048116828801529787526006865284872085518087019096525491821680865292909104909616938301939093529392909161101e90869061349c565b905060405180604001604052808686600001510169ffffffffffffffffffff16815260200161104e868686612cd2565b6bffffffffffffffffffffffff90811690915233600081815260056020908152604080832086518154978401519096166a01000000000000000000009081027fffffffffffffffffffff0000000000000000000000000000000000000000000090981669ffffffffffffffffffff978816179790971790558051808201825287861681528983015175ffffffffffffffffffffffffffffffffffffffffffff90811682850190815286865260069094529382902090519251909316909502908416179055600280548084168a0184167fffffffffffffffffffffffffffffffffffffffffffff0000000000000000000091821617909155865160018054918b900390941691161790915590517f0f5bb82176feb1b5e747e28471aa92156a04d9f3ab9f45f28e2d704232b93f759061119990889069ffffffffffffffffffff91909116815260200190565b60405180910390a25050505050565b60408051808201825260015469ffffffffffffffffffff808216835275ffffffffffffffffffffffffffffffffffffffffffff6a0100000000000000000000928390048116602080860191909152336000818152600583528781208851808a018a52905480871682526bffffffffffffffffffffffff908890041681850152918152600683528781208851808a019099525494851688529490930490911690850152909261125891908390612cd2565b33600081815260056020908152604080832080547fffffffffffffffffffff000000000000000000000000ffffffffffffffffffff908116909155868301516006845293829020805469ffffffffffffffffffff166a010000000000000000000075ffffffffffffffffffffffffffffffffffffffffffff9096168602179055600280549182166bffffffffffffffffffffffff92869004831688900383169095029490941790935551918416825292945090917fce98842d3995a36decbd0af8544d33045ef9cbcd477386c9c633dc8e13f2992d910160405180910390a260405133906bffffffffffffffffffffffff841680156108fc02916000818181858888f19350505050158015611371573d6000803e3d6000fd5b505090565b33600081815260056020908152604080832081518083018352905469ffffffffffffffffffff80821683526bffffffffffffffffffffffff6a010000000000000000000092839004168386015283518085018552600154808316825275ffffffffffffffffffffffffffffffffffffffffffff90849004811682880152978752600686528487208551808701909652549182168552919004909516928201929092528151919392909161142a90869061349c565b905060405180604001604052808269ffffffffffffffffffff168152602001611454868686612cd2565b6bffffffffffffffffffffffff90811690915233600081815260056020908152604080832086518154978401519096166a01000000000000000000009081027fffffffffffffffffffff0000000000000000000000000000000000000000000090981669ffffffffffffffffffff978816179790971790558051808201825288518c01861681528983015175ffffffffffffffffffffffffffffffffffffffffffff90811682850190815286865260069094529382902090519251909316909502908416179055600280548084168a900384167fffffffffffffffffffffffffffffffffffffffffffff0000000000000000000091821617909155865160018054918b0190941691161790915590517f9e71bc8eea02a63969f509818f2dafb9254532904319f9dbda79b67bd34a5f3d9061119990889069ffffffffffffffffffff91909116815260200190565b73ffffffffffffffffffffffffffffffffffffffff8116600081815260056020908152604080832081518083018352905469ffffffffffffffffffff80821683526bffffffffffffffffffffffff6a010000000000000000000092839004168386015283518085018552600154808316825275ffffffffffffffffffffffffffffffffffffffffffff908490048116828801529787526006865284872085518087019096525491821685529190049095169282019290925291926108d692612cd2565b73ffffffffffffffffffffffffffffffffffffffff818116600090815260046020908152604091829020825160608101845281549485168152740100000000000000000000000000000000000000009094046bffffffffffffffffffffffff16918401919091526001015464ffffffffff9081169183018290526201518090910116421061171f576040517f71d00de200000000000000000000000000000000000000000000000000000000815260040160405180910390fd5b6003546040517f70a082310000000000000000000000000000000000000000000000000000000081523060048201526bffffffffffffffffffffffff9091169060009082907f000000000000000000000000000000000000000000000000000000000000000073ffffffffffffffffffffffffffffffffffffffff16906370a0823190602401602060405180830381865afa1580156117c2573d6000803e3d6000fd5b505050506040513d601f19601f820116820180604052508101906117e691906134be565b8451919003915073ffffffffffffffffffffffffffffffffffffffff16330361184e57600380547fffffffffffffffffffffffffffffffffffffffff000000000000000000000000168284016bffffffffffffffffffffffff1617905560208301510161197b565b6020830151600380546bffffffffffffffffffffffff858501849003167fffffffffffffffffffffffffffffffffffffffff00000000000000000000000090911617905583516040517fa9059cbb00000000000000000000000000000000000000000000000000000000815273ffffffffffffffffffffffffffffffffffffffff7f0000000000000000000000000000000000000000000000000000000000000000169263a9059cbb926119369290919060040173ffffffffffffffffffffffffffffffffffffffff9290921682526bffffffffffffffffffffffff16602082015260400190565b6020604051808303816000875af1158015611955573d6000803e3d6000fd5b505050506040513d601f19601f8201168201806040525081019061197991906134d7565b505b82602001516bffffffffffffffffffffffff16816bffffffffffffffffffffffff16116119d4576040517fa0d26eb600000000000000000000000000000000000000000000000000000000815260040160405180910390fd5b60408051606081018252338082526bffffffffffffffffffffffff84811660208085018281528987015164ffffffffff90811687890190815273ffffffffffffffffffffffffffffffffffffffff8d81166000818152600487528b90209951945188167401000000000000000000000000000000000000000002949091169390931788555160019097018054979091167fffffffffffffffffffffffffffffffffffffffffffffffffffffff00000000009097169690961790955588810151865193168352820152919290917f0aa963c9c96f25e87258ff077b609aab138a567d7617a8e86a21decf9e48984b910160405180910390a350505050565b600080611add83612d2b565b66ffffffffffffff16905080600003611af95750600092915050565b60008060009054906101000a900473ffffffffffffffffffffffffffffffffffffffff1673ffffffffffffffffffffffffffffffffffffffff1663410cd41a6040518163ffffffff1660e01b8152600401602060405180830381865afa158015611b67573d6000803e3d6000fd5b505050506040513d601f19601f82011682018060405250810190611b8b919061324c565b73ffffffffffffffffffffffffffffffffffffffff851660009081526009602052604090205490915064ffffffffff6305a39a80830181169116818110611bd85750600095945050505050565b80600003611bea575064ffffffffff82165b66ffffffffffffff651246b07ae288850204600042841115611c0c5742611c0e565b835b92909203029695505050505050565b3360009081526005602052604081205469ffffffffffffffffffff1680831115611c4657600080fd5b33600081815260056020908152604080832080547fffffffffffffffffffffffffffffffffffffffffffff0000000000000000000090811689880369ffffffffffffffffffff9081169190911790925573ffffffffffffffffffffffffffffffffffffffff8a168086529483902080549182169183168a01909216179055518681529192917fddf252ad1be2c89b69c2b068fc378daa952ba7f163c4a11628f55a4df523b3ef910160405180910390a35060019392505050565b6000611d0b82610f6b565b6108d66111a8565b600067016345785d8a00006301e133806001611d31600c600a613396565b611d3f9063781a75c06133a5565b611d499190613239565b611d5391906133eb565b611d5e90600161341d565b611d7a9068ffffffffffffffffff1666f38a31408ae3386133a5565b610c0f91906134f9565b6003546c01000000000000000000000000900460ff16158015611ddc57503373ffffffffffffffffffffffffffffffffffffffff7f000000000000000000000000000000000000000000000000000000000000000016145b611de557600080fd5b6000805473ffffffffffffffffffffffffffffffffffffffff9092167fffffffffffffffffffffffff0000000000000000000000000000000000000000909216919091179055600380547fffffffffffffffffffffffffffffffffffffff00ffffffffffffffffffffffff166c01000000000000000000000000179055565b6003546040805160608101825260008082526020820181905291810182905290916bffffffffffffffffffffffff16907f000000000000000000000000000000000000000000000000000000000000000073ffffffffffffffffffffffffffffffffffffffff168473ffffffffffffffffffffffffffffffffffffffff16146120b3575073ffffffffffffffffffffffffffffffffffffffff838116600090815260046020908152604091829020825160608101845281549485168152740100000000000000000000000000000000000000009094046bffffffffffffffffffffffff16918401919091526001015464ffffffffff908116918301829052620d9170909101908116421015611fa5576040517f977a44ab00000000000000000000000000000000000000000000000000000000815260040160405180910390fd5b60408051606081018252600080825260208083018281524264ffffffffff90811685870190815273ffffffffffffffffffffffffffffffffffffffff8c8116808752600486528887209751945194909116740100000000000000000000000000000000000000006bffffffffffffffffffffffff958616021787559051600190960180547fffffffffffffffffffffffffffffffffffffffffffffffffffffff0000000000169690921695909517905590860151600380547fffffffffffffffffffffffffffffffffffffffff000000000000000000000000169190980391821617909655915190917f5036af25bdace72875a429f12adf7d81782590b0da3dc10d149541bfc28863d091a2505b6000546040517f164e68de00000000000000000000000000000000000000000000000000000000815273ffffffffffffffffffffffffffffffffffffffff86811660048301529091169063164e68de906024016020604051808303816000875af1158015612125573d6000803e3d6000fd5b505050506040513d601f19601f82011682018060405250810190612149919061350d565b92506dffffffffffffffffffffffffffff83161580156121b557507f000000000000000000000000000000000000000000000000000000000000000073ffffffffffffffffffffffffffffffffffffffff168473ffffffffffffffffffffffffffffffffffffffff1614155b156121ec576040517f30de376600000000000000000000000000000000000000000000000000000000815260040160405180910390fd5b60006121f783612660565b905080801561225157507f000000000000000000000000000000000000000000000000000000000000000073ffffffffffffffffffffffffffffffffffffffff168573ffffffffffffffffffffffffffffffffffffffff16145b15612288576040517f30de376600000000000000000000000000000000000000000000000000000000815260040160405180910390fd5b7f000000000000000000000000000000000000000000000000000000000000000073ffffffffffffffffffffffffffffffffffffffff168573ffffffffffffffffffffffffffffffffffffffff16146122e7576122e5858361294a565b505b505050919050565b42841015612329576040517f05787bdf00000000000000000000000000000000000000000000000000000000815260040160405180910390fd5b60006001612335610df3565b73ffffffffffffffffffffffffffffffffffffffff8a811660008181526008602090815260409182902080546001810190915582517f6e71edae12b1b97f4d1f60370fef10105fa2faae0126114a169c64845d6126c98184015280840194909452938d166060840152608083018c905260a083019390935260c08083018b90528151808403909101815260e0830190915280519201919091207f190100000000000000000000000000000000000000000000000000000000000061010083015261010282019290925261012281019190915261014201604080517fffffffffffffffffffffffffffffffffffffffffffffffffffffffffffffffe08184030181528282528051602091820120600084529083018083525260ff871690820152606081018590526080810184905260a0016020604051602081039080840390855afa158015612487573d6000803e3d6000fd5b50506040517fffffffffffffffffffffffffffffffffffffffffffffffffffffffffffffffe0015191505073ffffffffffffffffffffffffffffffffffffffff8116158061250157508773ffffffffffffffffffffffffffffffffffffffff168173ffffffffffffffffffffffffffffffffffffffff1614155b15612538576040517f815e1d6400000000000000000000000000000000000000000000000000000000815260040160405180910390fd5b73ffffffffffffffffffffffffffffffffffffffff90811660009081526007602090815260408083208a8516808552908352928190208990555188815291928a16917f8c5be1e5ebec7d5bd14f71427d1e84f3dd0314c0f7b2291e5b200ac8c7c3b925910160405180910390a350505050505050565b6002805469ffffffffffffffffffff808216840181167fffffffffffffffffffffffffffffffffffffffffffff000000000000000000009283161790925573ffffffffffffffffffffffffffffffffffffffff8416600081815260056020908152604080832080548088168901881696169590951790945592519385168452909290917fddf252ad1be2c89b69c2b068fc378daa952ba7f163c4a11628f55a4df523b3ef910160405180910390a35050565b6040517f70a0823100000000000000000000000000000000000000000000000000000000815230600482015260009081906bffffffffffffffffffffffff84169073ffffffffffffffffffffffffffffffffffffffff7f000000000000000000000000000000000000000000000000000000000000000016906370a0823190602401602060405180830381865afa1580156126ff573d6000803e3d6000fd5b505050506040513d601f19601f8201168201806040525081019061272391906134be565b60025491900391506a010000000000000000000090046bffffffffffffffffffffffff164781900380830160008190036127635750600195945050505050565b6040517f2e1a7d4d000000000000000000000000000000000000000000000000000000008152600481018590527f000000000000000000000000000000000000000000000000000000000000000073ffffffffffffffffffffffffffffffffffffffff1690632e1a7d4d90602401600060405180830381600087803b1580156127eb57600080fd5b505af11580156127ff573d6000803e3d6000fd5b50506040805180820190915260015469ffffffffffffffffffff81168083526a010000000000000000000090910475ffffffffffffffffffffffffffffffffffffffffffff1660208301529092506000039050612863575060019695505050505050565b805169ffffffffffffffffffff16605083901b81612883576128836133bc565b048160200151016001600001600a6101000a81548175ffffffffffffffffffffffffffffffffffffffffffff021916908375ffffffffffffffffffffffffffffffffffffffffffff1602179055508184016002600001600a6101000a8154816bffffffffffffffffffffffff02191690836bffffffffffffffffffffffff1602179055507f2c33998a0a762573e90ee90157bd106909dee9b230db902fcdfbab148f00e5c98260405161293891815260200190565b60405180910390a15050505050919050565b600081602001516bffffffffffffffffffffffff1660000361296e575060006108d6565b60405130602482015260609073ffffffffffffffffffffffffffffffffffffffff851690604401604080517fffffffffffffffffffffffffffffffffffffffffffffffffffffffffffffffe08184030181529181526020820180517bffffffffffffffffffffffffffffffffffffffffffffffffffffffff167f70a082310000000000000000000000000000000000000000000000000000000017905251612a16919061353d565b6000604051808303816000865af19150503d8060008114612a53576040519150601f19603f3d011682016040523d82523d6000602084013e612a58565b606091505b509092509050811580612a6d57508051602014155b15612a7c5760009150506108d6565b600081806020019051810190612a9291906134be565b905080600003612aa7576001925050506108d6565b835160405173ffffffffffffffffffffffffffffffffffffffff91821660248201526044810183905290861690606401604080517fffffffffffffffffffffffffffffffffffffffffffffffffffffffffffffffe08184030181529181526020820180517bffffffffffffffffffffffffffffffffffffffffffffffffffffffff167fa9059cbb0000000000000000000000000000000000000000000000000000000017905251612b58919061353d565b6000604051808303816000865af19150503d8060008114612b95576040519150601f19603f3d011682016040523d82523d6000602084013e612b9a565b606091505b508051919450925015801590612bc1575081806020019051810190612bbf91906134d7565b155b15612bd1576000925050506108d6565b835160405182815273ffffffffffffffffffffffffffffffffffffffff8088169216907ff1e390dffccd4dabab220f97e89cff952db4e09071912ea3d657a0a621ea001d9060200160405180910390a3506001949350505050565b60007f8b73c3c69bb8fe3d512ecc4cf759cc79239f7b179b0ffacaa9a75d522b39400f60405180606001604052806025815260200161355a6025913980516020918201206040805192830193909352918101919091527fc89efdaa54c0f20c7adf612882df0950f5a951637e0307cdcb4c672f298b8bc660608201524660808201523060a082015260c00160405160208183030381529060405280519060200120905090565b6020830151815169ffffffffffffffffffff1615610b105781516020808401519085015175ffffffffffffffffffffffffffffffffffffffffffff9190031669ffffffffffffffffffff9091160260501c019392505050565b60007fffffffffffffffffffffffffffffffffffffffffffffffffffffffffffffffef73ffffffffffffffffffffffffffffffffffffffff831601612d785750665166658a4af5ec919050565b7fffffffffffffffffffffffffffffffffffffffffffffffffffffffffffffffee73ffffffffffffffffffffffffffffffffffffffff831601612dc25750653e83e37ca410919050565b7fffffffffffffffffffffffffffffffffffffffffffffffffffffffffffffffed73ffffffffffffffffffffffffffffffffffffffff831601612e0c57506514d6a1298c05919050565b7fffffffffffffffffffffffffffffffffffffffffffffffffffffffffffffffec73ffffffffffffffffffffffffffffffffffffffff831601612e5757506628b332c5257af6919050565b7fffffffffffffffffffffffffffffffffffffffffffffffffffffffffffffffeb73ffffffffffffffffffffffffffffffffffffffff831601612ea2575066059feee6b6e51d919050565b7fffffffffffffffffffffffffffffffffffffffffffffffffffffffffffffffea73ffffffffffffffffffffffffffffffffffffffff831601612eed57506622bfe959c865c2919050565b7fffffffffffffffffffffffffffffffffffffffffffffffffffffffffffffffff73ffffffffffffffffffffffffffffffffffffffff831601612f385750660554c07c013887919050565b7ffffffffffffffffffffffffffffffffffffffffffffffffffffffffffffffffe73ffffffffffffffffffffffffffffffffffffffff831601612f835750663ff905d00ea654919050565b7ffffffffffffffffffffffffffffffffffffffffffffffffffffffffffffffffd73ffffffffffffffffffffffffffffffffffffffff831601612fce57506617e56e9f5a354e919050565b506000919050565b60005b83811015612ff1578181015183820152602001612fd9565b50506000910152565b6020815260008251806020840152613019816040850160208701612fd6565b601f017fffffffffffffffffffffffffffffffffffffffffffffffffffffffffffffffe0169190910160400192915050565b803573ffffffffffffffffffffffffffffffffffffffff81168114610f0a57600080fd5b6000806040838503121561308257600080fd5b61308b8361304b565b946020939093013593505050565b6000602082840312156130ab57600080fd5b610b108261304b565b6000806000606084860312156130c957600080fd5b6130d28461304b565b92506130e06020850161304b565b929592945050506040919091013590565b60006020828403121561310357600080fd5b5035919050565b69ffffffffffffffffffff8116811461312257600080fd5b50565b60006020828403121561313757600080fd5b8135610b108161310a565b600080600080600080600060e0888a03121561315d57600080fd5b6131668861304b565b96506131746020890161304b565b95506040880135945060608801359350608088013560ff8116811461319857600080fd5b9699959850939692959460a0840135945060c09093013592915050565b600080604083850312156131c857600080fd5b6131d18361304b565b91506131df6020840161304b565b90509250929050565b7f4e487b7100000000000000000000000000000000000000000000000000000000600052601160045260246000fd5b69ffffffffffffffffffff81811683821601908111156108d6576108d66131e8565b818103818111156108d6576108d66131e8565b60006020828403121561325e57600080fd5b815164ffffffffff81168114610b1057600080fd5b6001815b60018411156132ae57808504811115613292576132926131e8565b60018416156132a057908102905b60019390931c928002613277565b935093915050565b6000826132c5575060016108d6565b816132d2575060006108d6565b81600181146132e857600281146132f25761330e565b60019150506108d6565b60ff841115613303576133036131e8565b50506001821b6108d6565b5060208310610133831016604e8410600b8410161715613331575081810a6108d6565b61335c7fffffffffffffffffffffffffffffffffffffffffffffffffffffffffffffffff8484613273565b807fffffffffffffffffffffffffffffffffffffffffffffffffffffffffffffffff0482111561338e5761338e6131e8565b029392505050565b6000610b1060ff8416836132b6565b80820281158282048414176108d6576108d66131e8565b7f4e487b7100000000000000000000000000000000000000000000000000000000600052601260045260246000fd5b600068ffffffffffffffffff831680613406576134066133bc565b8068ffffffffffffffffff84160491505092915050565b68ffffffffffffffffff81811683821601908111156108d6576108d66131e8565b64ffffffffff81811683821601908111156108d6576108d66131e8565b6bffffffffffffffffffffffff82811682821603908111156108d6576108d66131e8565b60006020828403121561349157600080fd5b8151610b108161310a565b69ffffffffffffffffffff82811682821603908111156108d6576108d66131e8565b6000602082840312156134d057600080fd5b5051919050565b6000602082840312156134e957600080fd5b81518015158114610b1057600080fd5b600082613508576135086133bc565b500490565b60006020828403121561351f57600080fd5b81516dffffffffffffffffffffffffffff81168114610b1057600080fd5b6000825161354f818460208701612fd6565b919091019291505056fe53796e74686574696320496e74656c6c6967656e742052656879706f746865636174696f6ea264697066735822122001447d4aa806952f79f5eb24888fb826703c577f9a0a9a3dd1e59dd3ac538a8b64736f6c634300081a003353796e74686574696320496e74656c6c6967656e742052656879706f746865636174696f6e","linkReferences":{}},"methodIdentifiers":{"DOMAIN_SEPARATOR()":"3644e515","ISSUANCE_RATE()":"309295ee","LP_ISSUANCE_FIRST_3_YEARS()":"bffecd88","allowance(address,address)":"dd62ed3e","approve(address,uint256)":"095ea7b3","auctions(address)":"1d59410a","balanceOf(address)":"70a08231","bid(address)":"9cf5453d","claim()":"4e71d92d","collectFeesAndStartAuction(address)":"d181af7a","contributorMint()":"138d052f","contributorUnclaimedSIR(address)":"9da16323","decimals()":"313ce567","dividends(address)":"68306e43","initialize(address)":"c4d66de8","lPerMint(uint256)":"460028c9","maxTotalSupply()":"2ab4d052","name()":"06fdde03","nonces(address)":"7ecebe00","payAuctionWinner(address)":"331ef1a5","permit(address,address,uint256,uint256,uint8,bytes32,bytes32)":"d505accf","stake(uint80)":"4f7a21d2","stakersParams(address)":"4a62c384","supply()":"047fc9aa","symbol()":"95d89b41","totalBalanceOf(address)":"4b0ee02a","totalSupply()":"18160ddd","transfer(address,uint256)":"a9059cbb","transferFrom(address,address,uint256)":"23b872dd","unstake(uint80)":"4c24946b","unstakeAndClaim(uint80)":"ac3dd857"},"id":79}