{"abi":[{"type":"constructor","inputs":[{"name":"weth","type":"address","internalType":"address"},{"name":"systemControl","type":"address","internalType":"address"}],"stateMutability":"nonpayable"},{"type":"receive","stateMutability":"payable"},{"type":"function","name":"DOMAIN_SEPARATOR","inputs":[],"outputs":[{"name":"","type":"bytes32","internalType":"bytes32"}],"stateMutability":"view"},{"type":"function","name":"ISSUANCE_RATE","inputs":[],"outputs":[{"name":"","type":"uint72","internalType":"uint72"}],"stateMutability":"pure"},{"type":"function","name":"LP_ISSUANCE_FIRST_3_YEARS","inputs":[],"outputs":[{"name":"","type":"uint72","internalType":"uint72"}],"stateMutability":"pure"},{"type":"function","name":"allowMinting","inputs":[{"name":"mintingOfSIRHalted_","type":"bool","internalType":"bool"}],"outputs":[],"stateMutability":"nonpayable"},{"type":"function","name":"allowance","inputs":[{"name":"","type":"address","internalType":"address"},{"name":"","type":"address","internalType":"address"}],"outputs":[{"name":"","type":"uint256","internalType":"uint256"}],"stateMutability":"view"},{"type":"function","name":"approve","inputs":[{"name":"spender","type":"address","internalType":"address"},{"name":"amount","type":"uint256","internalType":"uint256"}],"outputs":[{"name":"","type":"bool","internalType":"bool"}],"stateMutability":"nonpayable"},{"type":"function","name":"auctions","inputs":[{"name":"token","type":"address","internalType":"address"}],"outputs":[{"name":"","type":"tuple","internalType":"struct SirStructs.Auction","components":[{"name":"bidder","type":"address","internalType":"address"},{"name":"bid","type":"uint96","internalType":"uint96"},{"name":"startTime","type":"uint40","internalType":"uint40"}]}],"stateMutability":"view"},{"type":"function","name":"balanceOf","inputs":[{"name":"account","type":"address","internalType":"address"}],"outputs":[{"name":"","type":"uint256","internalType":"uint256"}],"stateMutability":"view"},{"type":"function","name":"bid","inputs":[{"name":"token","type":"address","internalType":"address"},{"name":"amount","type":"uint96","internalType":"uint96"}],"outputs":[],"stateMutability":"nonpayable"},{"type":"function","name":"claim","inputs":[],"outputs":[{"name":"dividends_","type":"uint96","internalType":"uint96"}],"stateMutability":"nonpayable"},{"type":"function","name":"collectFeesAndStartAuction","inputs":[{"name":"token","type":"address","internalType":"address"}],"outputs":[{"name":"totalFees","type":"uint256","internalType":"uint256"}],"stateMutability":"nonpayable"},{"type":"function","name":"contributorMint","inputs":[],"outputs":[{"name":"rewards","type":"uint80","internalType":"uint80"}],"stateMutability":"nonpayable"},{"type":"function","name":"contributorUnclaimedSIR","inputs":[{"name":"contributor","type":"address","internalType":"address"}],"outputs":[{"name":"","type":"uint80","internalType":"uint80"}],"stateMutability":"view"},{"type":"function","name":"decimals","inputs":[],"outputs":[{"name":"","type":"uint8","internalType":"uint8"}],"stateMutability":"view"},{"type":"function","name":"getAuctionLot","inputs":[{"name":"token","type":"address","internalType":"address"},{"name":"beneficiary","type":"address","internalType":"address"}],"outputs":[],"stateMutability":"nonpayable"},{"type":"function","name":"initialize","inputs":[{"name":"vault_","type":"address","internalType":"address"}],"outputs":[],"stateMutability":"nonpayable"},{"type":"function","name":"lPerMint","inputs":[{"name":"vaultId","type":"uint256","internalType":"uint256"}],"outputs":[{"name":"rewards","type":"uint80","internalType":"uint80"}],"stateMutability":"nonpayable"},{"type":"function","name":"lPerMintAndStake","inputs":[{"name":"vaultId","type":"uint256","internalType":"uint256"}],"outputs":[{"name":"rewards","type":"uint80","internalType":"uint80"}],"stateMutability":"nonpayable"},{"type":"function","name":"maxTotalSupply","inputs":[],"outputs":[{"name":"","type":"uint256","internalType":"uint256"}],"stateMutability":"view"},{"type":"function","name":"name","inputs":[],"outputs":[{"name":"","type":"string","internalType":"string"}],"stateMutability":"view"},{"type":"function","name":"nonces","inputs":[{"name":"","type":"address","internalType":"address"}],"outputs":[{"name":"","type":"uint256","internalType":"uint256"}],"stateMutability":"view"},{"type":"function","name":"permit","inputs":[{"name":"owner","type":"address","internalType":"address"},{"name":"spender","type":"address","internalType":"address"},{"name":"value","type":"uint256","internalType":"uint256"},{"name":"deadline","type":"uint256","internalType":"uint256"},{"name":"v","type":"uint8","internalType":"uint8"},{"name":"r","type":"bytes32","internalType":"bytes32"},{"name":"s","type":"bytes32","internalType":"bytes32"}],"outputs":[],"stateMutability":"nonpayable"},{"type":"function","name":"stake","inputs":[{"name":"amount","type":"uint80","internalType":"uint80"}],"outputs":[],"stateMutability":"nonpayable"},{"type":"function","name":"stakeOf","inputs":[{"name":"staker","type":"address","internalType":"address"}],"outputs":[{"name":"unlockedStake","type":"uint80","internalType":"uint80"},{"name":"lockedStake","type":"uint80","internalType":"uint80"}],"stateMutability":"view"},{"type":"function","name":"supply","inputs":[],"outputs":[{"name":"","type":"uint256","internalType":"uint256"}],"stateMutability":"view"},{"type":"function","name":"symbol","inputs":[],"outputs":[{"name":"","type":"string","internalType":"string"}],"stateMutability":"view"},{"type":"function","name":"totalBalanceOf","inputs":[{"name":"account","type":"address","internalType":"address"}],"outputs":[{"name":"","type":"uint256","internalType":"uint256"}],"stateMutability":"view"},{"type":"function","name":"totalSupply","inputs":[],"outputs":[{"name":"","type":"uint256","internalType":"uint256"}],"stateMutability":"view"},{"type":"function","name":"transfer","inputs":[{"name":"to","type":"address","internalType":"address"},{"name":"amount","type":"uint256","internalType":"uint256"}],"outputs":[{"name":"","type":"bool","internalType":"bool"}],"stateMutability":"nonpayable"},{"type":"function","name":"transferFrom","inputs":[{"name":"from","type":"address","internalType":"address"},{"name":"to","type":"address","internalType":"address"},{"name":"amount","type":"uint256","internalType":"uint256"}],"outputs":[{"name":"","type":"bool","internalType":"bool"}],"stateMutability":"nonpayable"},{"type":"function","name":"unclaimedDividends","inputs":[{"name":"staker","type":"address","internalType":"address"}],"outputs":[{"name":"","type":"uint96","internalType":"uint96"}],"stateMutability":"view"},{"type":"function","name":"unstake","inputs":[{"name":"amount","type":"uint80","internalType":"uint80"}],"outputs":[],"stateMutability":"nonpayable"},{"type":"function","name":"unstakeAndClaim","inputs":[{"name":"amount","type":"uint80","internalType":"uint80"}],"outputs":[{"name":"dividends_","type":"uint96","internalType":"uint96"}],"stateMutability":"nonpayable"},{"type":"event","name":"Approval","inputs":[{"name":"owner","type":"address","indexed":true,"internalType":"address"},{"name":"spender","type":"address","indexed":true,"internalType":"address"},{"name":"amount","type":"uint256","indexed":false,"internalType":"uint256"}],"anonymous":false},{"type":"event","name":"AuctionStarted","inputs":[{"name":"token","type":"address","indexed":true,"internalType":"address"},{"name":"feesToBeAuctioned","type":"uint256","indexed":false,"internalType":"uint256"}],"anonymous":false},{"type":"event","name":"AuctionedTokensSentToWinner","inputs":[{"name":"winner","type":"address","indexed":true,"internalType":"address"},{"name":"beneficiary","type":"address","indexed":true,"internalType":"address"},{"name":"token","type":"address","indexed":true,"internalType":"address"},{"name":"reward","type":"uint256","indexed":false,"internalType":"uint256"}],"anonymous":false},{"type":"event","name":"BidReceived","inputs":[{"name":"bidder","type":"address","indexed":true,"internalType":"address"},{"name":"token","type":"address","indexed":true,"internalType":"address"},{"name":"previousBid","type":"uint96","indexed":false,"internalType":"uint96"},{"name":"newBid","type":"uint96","indexed":false,"internalType":"uint96"}],"anonymous":false},{"type":"event","name":"DividendsClaimed","inputs":[{"name":"staker","type":"address","indexed":true,"internalType":"address"},{"name":"amount","type":"uint96","indexed":false,"internalType":"uint96"}],"anonymous":false},{"type":"event","name":"DividendsPaid","inputs":[{"name":"amountETH","type":"uint96","indexed":false,"internalType":"uint96"},{"name":"amountStakedSIR","type":"uint80","indexed":false,"internalType":"uint80"}],"anonymous":false},{"type":"event","name":"RewardsClaimed","inputs":[{"name":"contributor","type":"address","indexed":true,"internalType":"address"},{"name":"vaultId","type":"uint256","indexed":true,"internalType":"uint256"},{"name":"rewards","type":"uint80","indexed":false,"internalType":"uint80"}],"anonymous":false},{"type":"event","name":"Staked","inputs":[{"name":"staker","type":"address","indexed":true,"internalType":"address"},{"name":"amount","type":"uint256","indexed":false,"internalType":"uint256"}],"anonymous":false},{"type":"event","name":"Transfer","inputs":[{"name":"from","type":"address","indexed":true,"internalType":"address"},{"name":"to","type":"address","indexed":true,"internalType":"address"},{"name":"amount","type":"uint256","indexed":false,"internalType":"uint256"}],"anonymous":false},{"type":"event","name":"Unstaked","inputs":[{"name":"staker","type":"address","indexed":true,"internalType":"address"},{"name":"amount","type":"uint256","indexed":false,"internalType":"uint256"}],"anonymous":false},{"type":"error","name":"AuctionIsNotOver","inputs":[]},{"type":"error","name":"BidTooLow","inputs":[]},{"type":"error","name":"InsufficientUnlockedStake","inputs":[]},{"type":"error","name":"InvalidSigner","inputs":[]},{"type":"error","name":"NewAuctionCannotStartYet","inputs":[]},{"type":"error","name":"NoAuction","inputs":[]},{"type":"error","name":"NoAuctionLot","inputs":[]},{"type":"error","name":"NoFeesCollected","inputs":[]},{"type":"error","name":"NotTheAuctionWinner","inputs":[]},{"type":"error","name":"PRBMath_MulDiv_Overflow","inputs":[{"name":"x","type":"uint256","internalType":"uint256"},{"name":"y","type":"uint256","internalType":"uint256"},{"name":"denominator","type":"uint256","internalType":"uint256"}]},{"type":"error","name":"PermitDeadlineExpired","inputs":[]}],"bytecode":{"object":"0x610140604052600c60c052600a805460ff19166001179055348015610022575f5ffd5b5060405161461638038061461683398101604081905261004191610160565b6001600160a01b03821660a052336080524660e052808261012b604080518082018252601c81527f53796e7468657469637320496d706c656d656e7465642052696768740000000060209182015281517f8b73c3c69bb8fe3d512ecc4cf759cc79239f7b179b0ffacaa9a75d522b39400f818301527f0d614900cceb97813954e30e34c71083d521e4e429b1329383c635cfe8875f20818401527fc89efdaa54c0f20c7adf612882df0950f5a951637e0307cdcb4c672f298b8bc660608201524660808201523060a0808301919091528351808303909101815260c0909101909252815191012090565b61010052506001600160a01b031661012052506101919050565b80516001600160a01b038116811461015b575f5ffd5b919050565b5f5f60408385031215610171575f5ffd5b61017a83610145565b915061018860208401610145565b90509250929050565b60805160a05160c05160e05161010051610120516144226101f45f395f610cc501525f610e5c01525f610d6301525f6104dc01525f8181611d50015281816125030152818161268301528181612b990152612c7001525f611c9301526144225ff3fe6080604052600436106101f8575f3560e01c8063475fd05c116101175780639da16323116100ac578063c4d66de81161007c578063d505accf11610062578063d505accf14610784578063dd62ed3e146107a3578063e2505abf146107d9575f5ffd5b8063c4d66de814610746578063d181af7a14610765575f5ffd5b80639da16323146106d5578063a9059cbb146106f4578063ac3dd85714610713578063bffecd8814610732575f5ffd5b80634f7a21d2116100e75780634f7a21d2146105f657806370a08231146106155780637ecebe001461066257806395d89b411461068d575f5ffd5b8063475fd05c146105855780634b0ee02a146105a45780634c24946b146105c35780634e71d92d146105e2575f5ffd5b806323b872dd1161018d578063313ce5671161015d578063313ce567146104cb5780633644e515146105105780634262336014610524578063460028c914610566575f5ffd5b806323b872dd146104495780632ab4d052146104685780632c5a8e861461047c578063309295ee1461049d575f5ffd5b80630fb3bd93116101c85780630fb3bd93146102f2578063138d052f1461032c57806318160ddd146103405780631d59410a14610354575f5ffd5b8063047fc9aa146102035780630490c71c1461023257806306fdde031461026e578063095ea7b3146102c3575f5ffd5b366101ff57005b5f5ffd5b34801561020e575f5ffd5b5060025469ffffffffffffffffffff165b6040519081526020015b60405180910390f35b34801561023d575f5ffd5b5061025161024c366004613dd5565b6107f8565b6040516bffffffffffffffffffffffff9091168152602001610229565b348015610279575f5ffd5b506102b66040518060400160405280601c81526020017f53796e7468657469637320496d706c656d656e7465642052696768740000000081525081565b6040516102299190613e3a565b3480156102ce575f5ffd5b506102e26102dd366004613e4c565b6108e2565b6040519015158152602001610229565b3480156102fd575f5ffd5b5061031161030c366004613e74565b61095a565b60405169ffffffffffffffffffff9091168152602001610229565b348015610337575f5ffd5b50610311610974565b34801561034b575f5ffd5b5061021f6109f0565b34801561035f575f5ffd5b506103fc61036e366004613dd5565b60408051606080820183525f808352602080840182905292840181905273ffffffffffffffffffffffffffffffffffffffff9485168152600483528390208351918201845280549485168252740100000000000000000000000000000000000000009094046bffffffffffffffffffffffff169181019190915260019092015464ffffffffff169082015290565b60408051825173ffffffffffffffffffffffffffffffffffffffff1681526020808401516bffffffffffffffffffffffff16908201529181015164ffffffffff1690820152606001610229565b348015610454575f5ffd5b506102e2610463366004613e8b565b610a22565b348015610473575f5ffd5b5061021f610bb4565b348015610487575f5ffd5b5061049b610496366004613ed2565b610cad565b005b3480156104a8575f5ffd5b506104b1610d1f565b60405168ffffffffffffffffff9091168152602001610229565b3480156104d6575f5ffd5b506104fe7f000000000000000000000000000000000000000000000000000000000000000081565b60405160ff9091168152602001610229565b34801561051b575f5ffd5b5061021f610d60565b34801561052f575f5ffd5b5061054361053e366004613dd5565b610e7e565b6040805169ffffffffffffffffffff938416815292909116602083015201610229565b348015610571575f5ffd5b50610311610580366004613e74565b610eac565b348015610590575f5ffd5b5061049b61059f366004613eed565b610fbe565b3480156105af575f5ffd5b5061021f6105be366004613dd5565b6111ab565b3480156105ce575f5ffd5b5061049b6105dd366004613f35565b611206565b3480156105ed575f5ffd5b506102516114a3565b348015610601575f5ffd5b5061049b610610366004613f35565b6116f1565b348015610620575f5ffd5b5061021f61062f366004613dd5565b73ffffffffffffffffffffffffffffffffffffffff165f9081526005602052604090205469ffffffffffffffffffff1690565b34801561066d575f5ffd5b5061021f61067c366004613dd5565b60086020525f908152604090205481565b348015610698575f5ffd5b506102b66040518060400160405280600381526020017f534952000000000000000000000000000000000000000000000000000000000081525081565b3480156106e0575f5ffd5b506103116106ef366004613dd5565b6119ba565b3480156106ff575f5ffd5b506102e261070e366004613e4c565b611afb565b34801561071e575f5ffd5b5061025161072d366004613f35565b611bdb565b34801561073d575f5ffd5b506104b1611bed565b348015610751575f5ffd5b5061049b610760366004613dd5565b611c5d565b348015610770575f5ffd5b5061021f61077f366004613dd5565b611d3b565b34801561078f575f5ffd5b5061049b61079e366004613f50565b612149565b3480156107ae575f5ffd5b5061021f6107bd366004613eed565b600760209081525f928352604080842090915290825290205481565b3480156107e4575f5ffd5b5061049b6107f3366004613fbd565b612402565b73ffffffffffffffffffffffffffffffffffffffff81165f81815260056020908152604080832081518083018352905469ffffffffffffffffffff80821683526a0100000000000000000000918290046bffffffffffffffffffffffff16838601528351808501855260018054808416835284900475ffffffffffffffffffffffffffffffffffffffffffff9081168389015298885260068752858820865160808101885281548086168252869004909a16978a019790975295909501549081169387019390935290910464ffffffffff16606085015291926108dc929190612845565b92915050565b335f81815260076020908152604080832073ffffffffffffffffffffffffffffffffffffffff8716808552925280832085905551919290917f8c5be1e5ebec7d5bd14f71427d1e84f3dd0314c0f7b2291e5b200ac8c7c3b925906109499086815260200190565b60405180910390a350600192915050565b5f61096482610eac565b905061096f816116f1565b919050565b600a545f9060ff16610984575f5ffd5b61098d336119ba565b90505f8169ffffffffffffffffffff16116109a6575f5ffd5b6109b0338261289e565b335f90815260096020526040902080547fffffffffffffffffffffffffffffffffffffffffffffffffffffff0000000000164264ffffffffff1617905590565b6002546001545f91610a119169ffffffffffffffffffff918216911661402f565b69ffffffffffffffffffff16905090565b73ffffffffffffffffffffffffffffffffffffffff83165f9081526007602090815260408083203384529091528120547fffffffffffffffffffffffffffffffffffffffffffffffffffffffffffffffff8114610ab457610a838382614051565b73ffffffffffffffffffffffffffffffffffffffff86165f9081526007602090815260408083203384529091529020555b73ffffffffffffffffffffffffffffffffffffffff85165f9081526005602052604090205469ffffffffffffffffffff1680841115610af1575f5ffd5b73ffffffffffffffffffffffffffffffffffffffff8087165f81815260056020526040808220805469ffffffffffffffffffff8a880381167fffffffffffffffffffffffffffffffffffffffffffff0000000000000000000092831617909255948a168084529282902080548083168b01909216919095161790935591517fddf252ad1be2c89b69c2b068fc378daa952ba7f163c4a11628f55a4df523b3ef90610b9e9088815260200190565b60405180910390a36001925050505b9392505050565b5f5f5f9054906101000a900473ffffffffffffffffffffffffffffffffffffffff1673ffffffffffffffffffffffffffffffffffffffff1663410cd41a6040518163ffffffff1660e01b8152600401602060405180830381865afa158015610c1e573d5f5f3e3d5ffd5b505050506040513d601f19601f82011682018060405250810190610c429190614064565b610c539064ffffffffff1642614051565b6301e133806001610c66600c600a6141a9565b610c749063781a75c06141b7565b610c7e9190614051565b610c8891906141fb565b610c9390600161422c565b68ffffffffffffffffff16610ca891906141b7565b905090565b3373ffffffffffffffffffffffffffffffffffffffff7f00000000000000000000000000000000000000000000000000000000000000001614610cee575f5ffd5b600a80547fffffffffffffffffffffffffffffffffffffffffffffffffffffffffffffff0016911515919091179055565b5f6301e133806001610d33600c600a6141a9565b610d419063781a75c06141b7565b610d4b9190614051565b610d5591906141fb565b610ca890600161422c565b5f7f00000000000000000000000000000000000000000000000000000000000000004614610e595750604080518082018252601c81527f53796e7468657469637320496d706c656d656e7465642052696768740000000060209182015281517f8b73c3c69bb8fe3d512ecc4cf759cc79239f7b179b0ffacaa9a75d522b39400f818301527f0d614900cceb97813954e30e34c71083d521e4e429b1329383c635cfe8875f20818401527fc89efdaa54c0f20c7adf612882df0950f5a951637e0307cdcb4c672f298b8bc660608201524660808201523060a0808301919091528351808303909101815260c0909101909252815191012090565b507f000000000000000000000000000000000000000000000000000000000000000090565b5f5f5f610e8a8461294f565b60408101518151919250610e9d9161424d565b81604001519250925050915091565b600a545f9060ff16610ebc575f5ffd5b5f546040517f777b1d430000000000000000000000000000000000000000000000000000000081526004810184905233602482015273ffffffffffffffffffffffffffffffffffffffff9091169063777b1d43906044016020604051808303815f875af1158015610f2f573d5f5f3e3d5ffd5b505050506040513d601f19601f82011682018060405250810190610f53919061426f565b90505f8169ffffffffffffffffffff1611610f6c575f5ffd5b610f76338261289e565b60405169ffffffffffffffffffff82168152829033907fcb4638e0a42946ee6211d74938270204aa9bfa787e57f01113f475d7c4539b6d9060200160405180910390a3919050565b73ffffffffffffffffffffffffffffffffffffffff8281165f90815260046020908152604091829020825160608101845281549485168152740100000000000000000000000000000000000000009094046bffffffffffffffffffffffff16918401919091526001015464ffffffffff1690820181905261104390620151809061428a565b64ffffffffff16421015611082576040517e175ba800000000000000000000000000000000000000000000000000000000815260040160405180910390fd5b805173ffffffffffffffffffffffffffffffffffffffff1633146110d2576040517f80f472e100000000000000000000000000000000000000000000000000000000815260040160405180910390fd5b73ffffffffffffffffffffffffffffffffffffffff8084165f908152600460209081526040822080549093169092559082015160035461112091906bffffffffffffffffffffffff166142a7565b600380547fffffffffffffffffffffffffffffffffffffffff000000000000000000000000166bffffffffffffffffffffffff8316179055905061116381612b42565b5061116f848385612e2c565b6111a5576040517fa90c149f00000000000000000000000000000000000000000000000000000000815260040160405180910390fd5b50505050565b73ffffffffffffffffffffffffffffffffffffffff81165f9081526005602090815260408083205460069092528220546111f49169ffffffffffffffffffff908116911661402f565b69ffffffffffffffffffff1692915050565b335f81815260056020908152604080832081518083018352905469ffffffffffffffffffff80821683526a0100000000000000000000918290046bffffffffffffffffffffffff1683860152835180850190945260015490811684520475ffffffffffffffffffffffffffffffffffffffffffff169282019290925290929091906112909061294f565b90508060400151815f01510369ffffffffffffffffffff168469ffffffffffffffffffff1611156112ed576040517f680eebb000000000000000000000000000000000000000000000000000000000815260040160405180910390fd5b604051806040016040528085855f01510169ffffffffffffffffffff16815260200161131a858585612845565b6bffffffffffffffffffffffff908116909152335f81815260056020908152604080832086518154978401519096166a01000000000000000000009081027fffffffffffffffffffff0000000000000000000000000000000000000000000090981669ffffffffffffffffffff9788161797909717905586518a9003851687528782015175ffffffffffffffffffffffffffffffffffffffffffff9081168884019081528585526006845293829020885194519091168702938616939093178355868101516001938401805460608a015164ffffffffff169098027fffffffffffffffffffffffffffffffffff0000000000000000000000000000009098169187169190911796909617909555600280548086168b0186167fffffffffffffffffffffffffffffffffffffffffffff000000000000000000009182161790915587518354908b9003861691161790915592519187168252917f0f5bb82176feb1b5e747e28471aa92156a04d9f3ab9f45f28e2d704232b93f75910160405180910390a250505050565b6040805180820182526001805469ffffffffffffffffffff80821684526a01000000000000000000009182900475ffffffffffffffffffffffffffffffffffffffffffff908116602080870191909152335f818152600583528881208951808b018b52905480871682528790046bffffffffffffffffffffffff1681850152918152600683528881208951608081018b52815480881682528890049095169385019390935291909501549283169682019690965291900464ffffffffff16606082015261157291908390612845565b335f81815260056020908152604080832080547fffffffffffffffffffff000000000000000000000000ffffffffffffffffffff908116909155868301516006845293829020805469ffffffffffffffffffff166a010000000000000000000075ffffffffffffffffffffffffffffffffffffffffffff9096168602179055600280549182166bffffffffffffffffffffffff92869004831688900383169095029490941790935551918416825292945090917fce98842d3995a36decbd0af8544d33045ef9cbcd477386c9c633dc8e13f2992d910160405180910390a26040515f90819033906bffffffffffffffffffffffff8616908381818185875af1925050503d805f811461169f576040519150601f19603f3d011682016040523d82523d5f602084013e6116a4565b606091505b5091509150816116eb57806040517f08c379a00000000000000000000000000000000000000000000000000000000081526004016116e29190613e3a565b60405180910390fd5b50505090565b335f81815260056020908152604080832081518083018352905469ffffffffffffffffffff80821683526a0100000000000000000000918290046bffffffffffffffffffffffff1683860152835180850190945260015490811684520475ffffffffffffffffffffffffffffffffffffffffffff1692820192909252909290919061177b9061294f565b90505f84845f015161178d919061424d565b905060405180604001604052808269ffffffffffffffffffff1681526020016117b7868686612845565b6bffffffffffffffffffffffff908116909152335f81815260056020908152604080832086518154978401519096166a01000000000000000000009081027fffffffffffffffffffff0000000000000000000000000000000000000000000090981669ffffffffffffffffffff9788161797909717905587518b018516885287810180518c01861681528983015175ffffffffffffffffffffffffffffffffffffffffffff9081168a85019081529585526006845293829020895195519094168702948616949094178355925160019290920180546060808a015164ffffffffff169097027fffffffffffffffffffffffffffffffffff00000000000000000000000000000090911693909516929092179390931790558051928301905260238083526118f992916143a890830139835169ffffffffffffffffffff16613156565b61192b60405180606001604052806024815260200161438460249139836040015169ffffffffffffffffffff16613156565b600280547fffffffffffffffffffffffffffffffffffffffffffff0000000000000000000080821669ffffffffffffffffffff928316899003831617909255845160018054909316908801821617909155604051908616815233907f9e71bc8eea02a63969f509818f2dafb9254532904319f9dbda79b67bd34a5f3d9060200160405180910390a25050505050565b5f5f6119c5836131eb565b66ffffffffffffff169050805f036119df57505f92915050565b5f5f5f9054906101000a900473ffffffffffffffffffffffffffffffffffffffff1673ffffffffffffffffffffffffffffffffffffffff1663410cd41a6040518163ffffffff1660e01b8152600401602060405180830381865afa158015611a49573d5f5f3e3d5ffd5b505050506040513d601f19601f82011682018060405250810190611a6d9190614064565b73ffffffffffffffffffffffffffffffffffffffff85165f9081526009602052604090205490915064ffffffffff6305a39a80830181169116818110611ab857505f95945050505050565b805f03611ac9575064ffffffffff82165b66ffffffffffffff651246b07ae2888502045f42841115611aea5742611aec565b835b92909203029695505050505050565b335f9081526005602052604081205469ffffffffffffffffffff1680831115611b22575f5ffd5b335f81815260056020908152604080832080547fffffffffffffffffffffffffffffffffffffffffffff0000000000000000000090811689880369ffffffffffffffffffff9081169190911790925573ffffffffffffffffffffffffffffffffffffffff8a168086529483902080549182169183168a01909216179055518681529192917fddf252ad1be2c89b69c2b068fc378daa952ba7f163c4a11628f55a4df523b3ef910160405180910390a35060019392505050565b5f611be582611206565b6108dc6114a3565b5f67016345785d8a00006301e133806001611c0a600c600a6141a9565b611c189063781a75c06141b7565b611c229190614051565b611c2c91906141fb565b611c3790600161422c565b611c539068ffffffffffffffffff1666f38a31408ae3386141b7565b610ca891906142cb565b6003546c01000000000000000000000000900460ff16158015611cb557503373ffffffffffffffffffffffffffffffffffffffff7f000000000000000000000000000000000000000000000000000000000000000016145b611cbd575f5ffd5b5f805473ffffffffffffffffffffffffffffffffffffffff9092167fffffffffffffffffffffffff0000000000000000000000000000000000000000909216919091179055600380547fffffffffffffffffffffffffffffffffffffff00ffffffffffffffffffffffff166c01000000000000000000000000179055565b6003545f906bffffffffffffffffffffffff167f000000000000000000000000000000000000000000000000000000000000000073ffffffffffffffffffffffffffffffffffffffff908116908416146120695773ffffffffffffffffffffffffffffffffffffffff8381165f90815260046020908152604091829020825160608101845281549485168152740100000000000000000000000000000000000000009094046bffffffffffffffffffffffff16918401919091526001015464ffffffffff908116918301829052620d9170909101908116421015611e4b576040517f977a44ab00000000000000000000000000000000000000000000000000000000815260040160405180910390fd5b604080516060810182525f80825260208083018281524264ffffffffff90811685870190815273ffffffffffffffffffffffffffffffffffffffff8c8116865260048552969094209451915191909516740100000000000000000000000000000000000000006bffffffffffffffffffffffff928316021784559151600190930180547fffffffffffffffffffffffffffffffffffffffffffffffffffffff0000000000169390941692909217909255830151600380547fffffffffffffffffffffffffffffffffffffffff000000000000000000000000169190950391821617909355611f3883612b42565b50611f4485835f612e2c565b505f546040517f164e68de00000000000000000000000000000000000000000000000000000000815273ffffffffffffffffffffffffffffffffffffffff87811660048301529091169063164e68de906024016020604051808303815f875af1158015611fb3573d5f5f3e3d5ffd5b505050506040513d601f19601f82011682018060405250810190611fd791906142de565b9350835f03612012576040517f8c887b1200000000000000000000000000000000000000000000000000000000815260040160405180910390fd5b8473ffffffffffffffffffffffffffffffffffffffff167fc087c4cdb16906b5ff7016a6bf927618f24ff32eb1de5e86eeaeb08b94831a688560405161205a91815260200190565b60405180910390a25050612143565b5f546040517f164e68de00000000000000000000000000000000000000000000000000000000815273ffffffffffffffffffffffffffffffffffffffff85811660048301529091169063164e68de906024016020604051808303815f875af11580156120d7573d5f5f3e3d5ffd5b505050506040513d601f19601f820116820180604052508101906120fb91906142de565b91505f61210782612b42565b90508015612141576040517f8c887b1200000000000000000000000000000000000000000000000000000000815260040160405180910390fd5b505b50919050565b42841015612183576040517f05787bdf00000000000000000000000000000000000000000000000000000000815260040160405180910390fd5b5f600161218e610d60565b73ffffffffffffffffffffffffffffffffffffffff8a81165f8181526008602090815260409182902080546001810190915582517f6e71edae12b1b97f4d1f60370fef10105fa2faae0126114a169c64845d6126c98184015280840194909452938d166060840152608083018c905260a083019390935260c08083018b90528151808403909101815260e0830190915280519201919091207f190100000000000000000000000000000000000000000000000000000000000061010083015261010282019290925261012281019190915261014201604080517fffffffffffffffffffffffffffffffffffffffffffffffffffffffffffffffe081840301815282825280516020918201205f84529083018083525260ff871690820152606081018590526080810184905260a0016020604051602081039080840390855afa1580156122dc573d5f5f3e3d5ffd5b50506040517fffffffffffffffffffffffffffffffffffffffffffffffffffffffffffffffe0015191505073ffffffffffffffffffffffffffffffffffffffff8116158061235657508773ffffffffffffffffffffffffffffffffffffffff168173ffffffffffffffffffffffffffffffffffffffff1614155b1561238d576040517f815e1d6400000000000000000000000000000000000000000000000000000000815260040160405180910390fd5b73ffffffffffffffffffffffffffffffffffffffff9081165f9081526007602090815260408083208a8516808552908352928190208990555188815291928a16917f8c5be1e5ebec7d5bd14f71427d1e84f3dd0314c0f7b2291e5b200ac8c7c3b925910160405180910390a350505050505050565b73ffffffffffffffffffffffffffffffffffffffff8281165f90815260046020908152604091829020825160608101845281549485168152740100000000000000000000000000000000000000009094046bffffffffffffffffffffffff16918401919091526001015464ffffffffff908116918301829052620151809091011642106124bb576040517f71d00de200000000000000000000000000000000000000000000000000000000815260040160405180910390fd5b6040517f23b872dd0000000000000000000000000000000000000000000000000000000081523360048201523060248201526bffffffffffffffffffffffff831660448201527f000000000000000000000000000000000000000000000000000000000000000073ffffffffffffffffffffffffffffffffffffffff16906323b872dd906064016020604051808303815f875af115801561255e573d5f5f3e3d5ffd5b505050506040513d601f19601f8201168201806040525081019061258291906142f5565b50805173ffffffffffffffffffffffffffffffffffffffff1633036125ed57600380546bffffffffffffffffffffffff8082168501167fffffffffffffffffffffffffffffffffffffffff0000000000000000000000009091161790556020810151909101906126f1565b6020810151600380547fffffffffffffffffffffffffffffffffffffffff00000000000000000000000081168386036bffffffffffffffffffffffff9283160182161790915582516040517fa9059cbb00000000000000000000000000000000000000000000000000000000815273ffffffffffffffffffffffffffffffffffffffff91821660048201529190921660248201527f00000000000000000000000000000000000000000000000000000000000000009091169063a9059cbb906044016020604051808303815f875af11580156126cb573d5f5f3e3d5ffd5b505050506040513d601f19601f820116820180604052508101906126ef91906142f5565b505b80602001516bffffffffffffffffffffffff16826bffffffffffffffffffffffff161161274a576040517fa0d26eb600000000000000000000000000000000000000000000000000000000815260040160405180910390fd5b60408051606081018252338082526bffffffffffffffffffffffff85811660208085018281528787015164ffffffffff90811687890190815273ffffffffffffffffffffffffffffffffffffffff8c81165f818152600487528b90209951945188167401000000000000000000000000000000000000000002949091169390931788555160019097018054979091167fffffffffffffffffffffffffffffffffffffffffffffffffffffff00000000009097169690961790955586810151865193168352820152919290917f0aa963c9c96f25e87258ff077b609aab138a567d7617a8e86a21decf9e48984b910160405180910390a3505050565b6020830151815169ffffffffffffffffffff1615610bad5781516020808401519085015175ffffffffffffffffffffffffffffffffffffffffffff9190031669ffffffffffffffffffff9091160260501c019392505050565b6002805469ffffffffffffffffffff808216840181167fffffffffffffffffffffffffffffffffffffffffffff000000000000000000009283161790925573ffffffffffffffffffffffffffffffffffffffff84165f81815260056020908152604080832080548088168901881696169590951790945592519385168452909290917fddf252ad1be2c89b69c2b068fc378daa952ba7f163c4a11628f55a4df523b3ef910160405180910390a35050565b60408051608080820183525f8083526020808401829052838501829052606093840182905273ffffffffffffffffffffffffffffffffffffffff86168252600681529084902084519283018552805469ffffffffffffffffffff80821685526a01000000000000000000009182900475ffffffffffffffffffffffffffffffffffffffffffff16938501939093526001909101549182169483019490945264ffffffffff42818116948401949094529193900416808203911480612a215750604082015169ffffffffffffffffffff16155b15612a2c5750919050565b612a976040518060600160405280602281526020016143cb60229139826040518060400160405280600d81526020017f2c206f7220696e20646179733a00000000000000000000000000000000000000815250620151808581612a9157612a916141ce565b04613449565b5f612ab7670de0b6b3a764000083026a0224e099ff736e140000006134de565b905080680a688906bd8affffff811115612ad6575f6040850152612b3a565b670de0b6b3a7640000604082901b045f612aef826134f8565b9050612b26612b2182670de0b6b3a7640000896040015169ffffffffffffffffffff16026134de90919063ffffffff16565b613c6c565b69ffffffffffffffffffff16604087015250505b505050919050565b6040517f70a082310000000000000000000000000000000000000000000000000000000081523060048201525f9081906bffffffffffffffffffffffff84169073ffffffffffffffffffffffffffffffffffffffff7f000000000000000000000000000000000000000000000000000000000000000016906370a0823190602401602060405180830381865afa158015612bde573d5f5f3e3d5ffd5b505050506040513d601f19601f82011682018060405250810190612c0291906142de565b60025491900391506a010000000000000000000090046bffffffffffffffffffffffff16478190038083015f819003612c415750600195945050505050565b6040517f2e1a7d4d000000000000000000000000000000000000000000000000000000008152600481018590527f000000000000000000000000000000000000000000000000000000000000000073ffffffffffffffffffffffffffffffffffffffff1690632e1a7d4d906024015f604051808303815f87803b158015612cc6575f5ffd5b505af1158015612cd8573d5f5f3e3d5ffd5b50506040805180820190915260015469ffffffffffffffffffff81168083526a010000000000000000000090910475ffffffffffffffffffffffffffffffffffffffffffff1660208301529092505f039050612d3b575060019695505050505050565b805169ffffffffffffffffffff16605083901b81612d5b57612d5b6141ce565b6020838101516001805469ffffffffffffffffffff9081166a01000000000000000000009690950490920175ffffffffffffffffffffffffffffffffffffffffffff16850293909317909255600280547fffffffffffffffffffff000000000000000000000000ffffffffffffffffffff168689016bffffffffffffffffffffffff90811690950217905583516040805194871685529216908301527fceeff233d57f794a3c1d09ca382d09c9ba3af56793651463ab500a81026fe5ce910160405180910390a15050505050919050565b5f82602001516bffffffffffffffffffffffff165f03612e4d57505f610bad565b60405130602482015260609073ffffffffffffffffffffffffffffffffffffffff861690604401604080517fffffffffffffffffffffffffffffffffffffffffffffffffffffffffffffffe08184030181529181526020820180517bffffffffffffffffffffffffffffffffffffffffffffffffffffffff167f70a082310000000000000000000000000000000000000000000000000000000017905251612ef59190614310565b5f604051808303815f865af19150503d805f8114612f2e576040519150601f19603f3d011682016040523d82523d5f602084013e612f33565b606091505b509092509050811580612f4857508051602014155b15612f56575f915050610bad565b5f81806020019051810190612f6b91906142de565b9050805f03612f7f57600192505050610bad565b73ffffffffffffffffffffffffffffffffffffffff8416612f9f57845193505b60405173ffffffffffffffffffffffffffffffffffffffff858116602483015260448201839052871690606401604080517fffffffffffffffffffffffffffffffffffffffffffffffffffffffffffffffe08184030181529181526020820180517bffffffffffffffffffffffffffffffffffffffffffffffffffffffff167fa9059cbb000000000000000000000000000000000000000000000000000000001790525161304d9190614310565b5f604051808303815f865af19150503d805f8114613086576040519150601f19603f3d011682016040523d82523d5f602084013e61308b565b606091505b5090935091508215806130ba57505f82511180156130ba5750818060200190518101906130b891906142f5565b155b156130c9575f92505050610bad565b8573ffffffffffffffffffffffffffffffffffffffff168473ffffffffffffffffffffffffffffffffffffffff16865f015173ffffffffffffffffffffffffffffffffffffffff167f638925a05402dc748e2fafcb7b68924f5506e8b5c3c729a4a1fed16f89fd39b98460405161314291815260200190565b60405180910390a450600195945050505050565b6131e7828260405160240161316c929190614326565b604080517fffffffffffffffffffffffffffffffffffffffffffffffffffffffffffffffe08184030181529190526020810180517bffffffffffffffffffffffffffffffffffffffffffffffffffffffff167f9710a9d000000000000000000000000000000000000000000000000000000000179052613c7f565b5050565b5f7fffffffffffffffffffffffff6f08640914d3b078fc9a187a67d1e0efe16c46fa73ffffffffffffffffffffffffffffffffffffffff8316016132375750665166658a4af5ec919050565b7fffffffffffffffffffffffffea2cb550abd98248283c987c65508e5ff5d3959b73ffffffffffffffffffffffffffffffffffffffff8316016132815750653e83e37ca410919050565b7fffffffffffffffffffffffff669aaf82e5aa433d96a3a745e904c827e64f5b2473ffffffffffffffffffffffffffffffffffffffff8316016132cb57506514d6a1298c05919050565b7fffffffffffffffffffffffff689158bfd918d9aab249a805ab89c542f3c5f55773ffffffffffffffffffffffffffffffffffffffff83160161331657506628b332c5257af6919050565b7fffffffffffffffffffffffffeb238669b25d3f74dc9674c2c33835cde6c266ab73ffffffffffffffffffffffffffffffffffffffff831601613361575066059feee6b6e51d919050565b7fffffffffffffffffffffffffc3bb32224956ff05d4a7a22d661fc2ed05bd6c4473ffffffffffffffffffffffffffffffffffffffff8316016133ac5750663aa557f9229b10919050565b7fffffffffffffffffffffffff0c60291ae55277090b3195477d8d86300046dd9a73ffffffffffffffffffffffffffffffffffffffff8316016133f75750660554c07c013887919050565b7fffffffffffffffffffffffff8f66868f3ae7ed23c5fef382fe4af1f2e823863873ffffffffffffffffffffffffffffffffffffffff8316016134425750663ff905d00ea654919050565b505f919050565b6111a5848484846040516024016134639493929190614347565b604080517fffffffffffffffffffffffffffffffffffffffffffffffffffffffffffffffe08184030181529190526020810180517bffffffffffffffffffffffffffffffffffffffffffffffffffffffff167fa0c4b22500000000000000000000000000000000000000000000000000000000179052613c7f565b5f610bad6134f584670de0b6b3a764000085613c8b565b90565b7780000000000000000000000000000000000000000000000067ff00000000000000821615613619576780000000000000008216156135405768016a09e667f3bcc9090260401c5b67400000000000000082161561355f576801306fe0a31b7152df0260401c5b67200000000000000082161561357e576801172b83c7d517adce0260401c5b67100000000000000082161561359d5768010b5586cf9890f62a0260401c5b6708000000000000008216156135bc576801059b0d31585743ae0260401c5b6704000000000000008216156135db57680102c9a3e778060ee70260401c5b6702000000000000008216156135fa5768010163da9fb33356d80260401c5b67010000000000000082161561361957680100b1afa5abcbed610260401c5b66ff0000000000008216156137185766800000000000008216156136465768010058c86da1c09ea20260401c5b6640000000000000821615613664576801002c605e2e8cec500260401c5b662000000000000082161561368257680100162f3904051fa10260401c5b66100000000000008216156136a0576801000b175effdc76ba0260401c5b66080000000000008216156136be57680100058ba01fb9f96d0260401c5b66040000000000008216156136dc5768010002c5cc37da94920260401c5b66020000000000008216156136fa576801000162e525ee05470260401c5b66010000000000008216156137185768010000b17255775c040260401c5b65ff000000000082161561380e5765800000000000821615613743576801000058b91b5bc9ae0260401c5b6540000000000082161561376057680100002c5c89d5ec6d0260401c5b6520000000000082161561377d5768010000162e43f4f8310260401c5b6510000000000082161561379a57680100000b1721bcfc9a0260401c5b650800000000008216156137b75768010000058b90cf1e6e0260401c5b650400000000008216156137d4576801000002c5c863b73f0260401c5b650200000000008216156137f157680100000162e430e5a20260401c5b6501000000000082161561380e576801000000b1721835510260401c5b64ff000000008216156138fb5764800000000082161561383757680100000058b90c0b490260401c5b6440000000008216156138535768010000002c5c8601cc0260401c5b64200000000082161561386f576801000000162e42fff00260401c5b64100000000082161561388b5768010000000b17217fbb0260401c5b6408000000008216156138a7576801000000058b90bfce0260401c5b6404000000008216156138c357680100000002c5c85fe30260401c5b6402000000008216156138df5768010000000162e42ff10260401c5b6401000000008216156138fb57680100000000b17217f80260401c5b63ff0000008216156139df5763800000008216156139225768010000000058b90bfc0260401c5b634000000082161561393d576801000000002c5c85fe0260401c5b632000000082161561395857680100000000162e42ff0260401c5b6310000000821615613973576801000000000b17217f0260401c5b630800000082161561398e57680100000000058b90c00260401c5b63040000008216156139a95768010000000002c5c8600260401c5b63020000008216156139c4576801000000000162e4300260401c5b63010000008216156139df5768010000000000b172180260401c5b62ff0000821615613aba5762800000821615613a04576801000000000058b90c0260401c5b62400000821615613a1e57680100000000002c5c860260401c5b62200000821615613a385768010000000000162e430260401c5b62100000821615613a5257680100000000000b17210260401c5b62080000821615613a6c5768010000000000058b910260401c5b62040000821615613a86576801000000000002c5c80260401c5b62020000821615613aa057680100000000000162e40260401c5b62010000821615613aba576801000000000000b1720260401c5b61ff00821615613b8c57618000821615613add57680100000000000058b90260401c5b614000821615613af65768010000000000002c5d0260401c5b612000821615613b0f576801000000000000162e0260401c5b611000821615613b285768010000000000000b170260401c5b610800821615613b41576801000000000000058c0260401c5b610400821615613b5a57680100000000000002c60260401c5b610200821615613b7357680100000000000001630260401c5b610100821615613b8c57680100000000000000b10260401c5b60ff821615613c55576080821615613bad57680100000000000000590260401c5b6040821615613bc5576801000000000000002c0260401c5b6020821615613bdd57680100000000000000160260401c5b6010821615613bf5576801000000000000000b0260401c5b6008821615613c0d57680100000000000000060260401c5b6004821615613c2557680100000000000000030260401c5b6002821615613c3d57680100000000000000010260401c5b6001821615613c5557680100000000000000010260401c5b670de0b6b3a76400000260409190911c60bf031c90565b5f6108dc670de0b6b3a7640000836142cb565b613c8881613d92565b50565b5f80807fffffffffffffffffffffffffffffffffffffffffffffffffffffffffffffffff858709858702925082811083820303915050805f03613ce157838281613cd757613cd76141ce565b0492505050610bad565b838110613d2b576040517f63a057780000000000000000000000000000000000000000000000000000000081526004810187905260248101869052604481018590526064016116e2565b5f8486880960026001871981018816978890046003810283188082028403028082028403028082028403028082028403028082028403029081029092039091025f889003889004909101858311909403939093029303949094049190911702949350505050565b80516a636f6e736f6c652e6c6f67602083015f808483855afa5050505050565b803573ffffffffffffffffffffffffffffffffffffffff8116811461096f575f5ffd5b5f60208284031215613de5575f5ffd5b610bad82613db2565b5f81518084528060208401602086015e5f6020828601015260207fffffffffffffffffffffffffffffffffffffffffffffffffffffffffffffffe0601f83011685010191505092915050565b602081525f610bad6020830184613dee565b5f5f60408385031215613e5d575f5ffd5b613e6683613db2565b946020939093013593505050565b5f60208284031215613e84575f5ffd5b5035919050565b5f5f5f60608486031215613e9d575f5ffd5b613ea684613db2565b9250613eb460208501613db2565b929592945050506040919091013590565b8015158114613c88575f5ffd5b5f60208284031215613ee2575f5ffd5b8135610bad81613ec5565b5f5f60408385031215613efe575f5ffd5b613f0783613db2565b9150613f1560208401613db2565b90509250929050565b69ffffffffffffffffffff81168114613c88575f5ffd5b5f60208284031215613f45575f5ffd5b8135610bad81613f1e565b5f5f5f5f5f5f5f60e0888a031215613f66575f5ffd5b613f6f88613db2565b9650613f7d60208901613db2565b95506040880135945060608801359350608088013560ff81168114613fa0575f5ffd5b9699959850939692959460a0840135945060c09093013592915050565b5f5f60408385031215613fce575f5ffd5b613fd783613db2565b915060208301356bffffffffffffffffffffffff81168114613ff7575f5ffd5b809150509250929050565b7f4e487b71000000000000000000000000000000000000000000000000000000005f52601160045260245ffd5b69ffffffffffffffffffff81811683821601908111156108dc576108dc614002565b818103818111156108dc576108dc614002565b5f60208284031215614074575f5ffd5b815164ffffffffff81168114610bad575f5ffd5b6001815b60018411156140c3578085048111156140a7576140a7614002565b60018416156140b557908102905b60019390931c92800261408c565b935093915050565b5f826140d9575060016108dc565b816140e557505f6108dc565b81600181146140fb576002811461410557614121565b60019150506108dc565b60ff84111561411657614116614002565b50506001821b6108dc565b5060208310610133831016604e8410600b8410161715614144575081810a6108dc565b61416f7fffffffffffffffffffffffffffffffffffffffffffffffffffffffffffffffff8484614088565b807fffffffffffffffffffffffffffffffffffffffffffffffffffffffffffffffff048211156141a1576141a1614002565b029392505050565b5f610bad60ff8416836140cb565b80820281158282048414176108dc576108dc614002565b7f4e487b71000000000000000000000000000000000000000000000000000000005f52601260045260245ffd5b5f68ffffffffffffffffff831680614215576142156141ce565b8068ffffffffffffffffff84160491505092915050565b68ffffffffffffffffff81811683821601908111156108dc576108dc614002565b69ffffffffffffffffffff82811682821603908111156108dc576108dc614002565b5f6020828403121561427f575f5ffd5b8151610bad81613f1e565b64ffffffffff81811683821601908111156108dc576108dc614002565b6bffffffffffffffffffffffff82811682821603908111156108dc576108dc614002565b5f826142d9576142d96141ce565b500490565b5f602082840312156142ee575f5ffd5b5051919050565b5f60208284031215614305575f5ffd5b8151610bad81613ec5565b5f82518060208501845e5f920191825250919050565b604081525f6143386040830185613dee565b90508260208301529392505050565b608081525f6143596080830187613dee565b85602084015282810360408401526143718186613dee565b9150508260608301529594505050505056fe434f4e54524143543a204c6f636b6564207374616b65206166746572207374616b696e67434f4e54524143543a20546f74616c207374616b65206166746572207374616b696e67544553543a2054696d6520656c6170736564206166746572207374616b696e673a20a26469706673582212209048d7339a61adda3ad1324ffdff1c5178bdcbcb55c46e381eb9a92c88ba125264736f6c634300081c0033","linkReferences":{}},"methodIdentifiers":{"DOMAIN_SEPARATOR()":"3644e515","ISSUANCE_RATE()":"309295ee","LP_ISSUANCE_FIRST_3_YEARS()":"bffecd88","allowMinting(bool)":"2c5a8e86","allowance(address,address)":"dd62ed3e","approve(address,uint256)":"095ea7b3","auctions(address)":"1d59410a","balanceOf(address)":"70a08231","bid(address,uint96)":"e2505abf","claim()":"4e71d92d","collectFeesAndStartAuction(address)":"d181af7a","contributorMint()":"138d052f","contributorUnclaimedSIR(address)":"9da16323","decimals()":"313ce567","getAuctionLot(address,address)":"475fd05c","initialize(address)":"c4d66de8","lPerMint(uint256)":"460028c9","lPerMintAndStake(uint256)":"0fb3bd93","maxTotalSupply()":"2ab4d052","name()":"06fdde03","nonces(address)":"7ecebe00","permit(address,address,uint256,uint256,uint8,bytes32,bytes32)":"d505accf","stake(uint80)":"4f7a21d2","stakeOf(address)":"42623360","supply()":"047fc9aa","symbol()":"95d89b41","totalBalanceOf(address)":"4b0ee02a","totalSupply()":"18160ddd","transfer(address,uint256)":"a9059cbb","transferFrom(address,address,uint256)":"23b872dd","unclaimedDividends(address)":"0490c71c","unstake(uint80)":"4c24946b","unstakeAndClaim(uint80)":"ac3dd857"},"id":83}